{
  "contractName": "Auction",
  "abi": [
    {
      "inputs": [
        {
          "internalType": "address",
          "name": "usdtContractAddress",
          "type": "address"
        }
      ],
      "stateMutability": "nonpayable",
      "type": "constructor"
    },
    {
      "anonymous": false,
      "inputs": [
        {
          "indexed": false,
          "internalType": "address",
          "name": "creatorAddress",
          "type": "address"
        },
        {
          "indexed": false,
          "internalType": "string",
          "name": "matchId",
          "type": "string"
        },
        {
          "indexed": false,
          "internalType": "uint96",
          "name": "openBlock",
          "type": "uint96"
        },
        {
          "indexed": false,
          "internalType": "uint96",
          "name": "expiryBlock",
          "type": "uint96"
        },
        {
          "indexed": false,
          "internalType": "uint96",
          "name": "increment",
          "type": "uint96"
        },
        {
          "indexed": false,
          "internalType": "uint32",
          "name": "expiryExtension",
          "type": "uint32"
        },
        {
          "components": [
            {
              "internalType": "address",
              "name": "contractAddress",
              "type": "address"
            },
            {
              "internalType": "uint256",
              "name": "tokenId",
              "type": "uint256"
            },
            {
              "internalType": "uint256",
              "name": "minBid",
              "type": "uint256"
            }
          ],
          "indexed": false,
          "internalType": "struct Auction.NFT[]",
          "name": "nfts",
          "type": "tuple[]"
        }
      ],
      "name": "CreateAuctionEvent",
      "type": "event"
    },
    {
      "anonymous": false,
      "inputs": [
        {
          "indexed": false,
          "internalType": "string",
          "name": "matchId",
          "type": "string"
        },
        {
          "indexed": false,
          "internalType": "address",
          "name": "playerAddress",
          "type": "address"
        },
        {
          "indexed": false,
          "internalType": "uint256",
          "name": "tokenIndex",
          "type": "uint256"
        },
        {
          "indexed": false,
          "internalType": "uint256",
          "name": "bid",
          "type": "uint256"
        },
        {
          "indexed": false,
          "internalType": "uint96",
          "name": "expiryBlock",
          "type": "uint96"
        }
      ],
      "name": "PlayerBidEvent",
      "type": "event"
    },
    {
      "anonymous": false,
      "inputs": [
        {
          "indexed": false,
          "internalType": "string",
          "name": "matchId",
          "type": "string"
        },
        {
          "indexed": false,
          "internalType": "uint256",
          "name": "tokenIndex",
          "type": "uint256"
        },
        {
          "indexed": false,
          "internalType": "address",
          "name": "winnerAddress",
          "type": "address"
        }
      ],
      "name": "RewardEvent",
      "type": "event"
    },
    {
      "inputs": [],
      "name": "USDT_ADDRESS",
      "outputs": [
        {
          "internalType": "address",
          "name": "",
          "type": "address"
        }
      ],
      "stateMutability": "view",
      "type": "function"
    },
    {
      "inputs": [
        {
          "internalType": "string",
          "name": "",
          "type": "string"
        },
        {
          "internalType": "uint256",
          "name": "",
          "type": "uint256"
        }
      ],
      "name": "matchNFTs",
      "outputs": [
        {
          "internalType": "address",
          "name": "contractAddress",
          "type": "address"
        },
        {
          "internalType": "uint256",
          "name": "tokenId",
          "type": "uint256"
        },
        {
          "internalType": "uint256",
          "name": "minBid",
          "type": "uint256"
        }
      ],
      "stateMutability": "view",
      "type": "function"
    },
    {
      "inputs": [
        {
          "internalType": "string",
          "name": "",
          "type": "string"
        },
        {
          "internalType": "uint256",
          "name": "",
          "type": "uint256"
        }
      ],
      "name": "matchResults",
      "outputs": [
        {
          "internalType": "address",
          "name": "topBidder",
          "type": "address"
        },
        {
          "internalType": "uint256",
          "name": "standingBid",
          "type": "uint256"
        }
      ],
      "stateMutability": "view",
      "type": "function"
    },
    {
      "inputs": [
        {
          "internalType": "string",
          "name": "",
          "type": "string"
        }
      ],
      "name": "matches",
      "outputs": [
        {
          "internalType": "address",
          "name": "creatorAddress",
          "type": "address"
        },
        {
          "internalType": "uint96",
          "name": "minIncrement",
          "type": "uint96"
        },
        {
          "internalType": "uint96",
          "name": "openBlock",
          "type": "uint96"
        },
        {
          "internalType": "uint96",
          "name": "expiryBlock",
          "type": "uint96"
        },
        {
          "internalType": "uint32",
          "name": "expiryExtension",
          "type": "uint32"
        },
        {
          "internalType": "uint32",
          "name": "nftCount",
          "type": "uint32"
        }
      ],
      "stateMutability": "view",
      "type": "function"
    },
    {
      "inputs": [
        {
          "internalType": "string",
          "name": "matchId",
          "type": "string"
        },
        {
          "internalType": "uint96",
          "name": "openBlock",
          "type": "uint96"
        },
        {
          "internalType": "uint96",
          "name": "expiryBlock",
          "type": "uint96"
        },
        {
          "internalType": "uint32",
          "name": "expiryExtension",
          "type": "uint32"
        },
        {
          "internalType": "uint96",
          "name": "minIncrement",
          "type": "uint96"
        },
        {
          "components": [
            {
              "internalType": "address",
              "name": "contractAddress",
              "type": "address"
            },
            {
              "internalType": "uint256",
              "name": "tokenId",
              "type": "uint256"
            },
            {
              "internalType": "uint256",
              "name": "minBid",
              "type": "uint256"
            }
          ],
          "internalType": "struct Auction.NFT[]",
          "name": "nfts",
          "type": "tuple[]"
        }
      ],
      "name": "createAuction",
      "outputs": [],
      "stateMutability": "nonpayable",
      "type": "function"
    },
    {
      "inputs": [
        {
          "internalType": "string",
          "name": "matchId",
          "type": "string"
        },
        {
          "internalType": "uint256",
          "name": "tokenIndex",
          "type": "uint256"
        },
        {
          "internalType": "uint256",
          "name": "amount",
          "type": "uint256"
        }
      ],
      "name": "player_bid",
      "outputs": [],
      "stateMutability": "nonpayable",
      "type": "function"
    },
    {
      "inputs": [
        {
          "internalType": "string",
          "name": "matchId",
          "type": "string"
        },
        {
          "internalType": "uint256",
          "name": "tokenIndex",
          "type": "uint256"
        }
      ],
      "name": "player_withdraw_bid",
      "outputs": [],
      "stateMutability": "nonpayable",
      "type": "function"
    },
    {
      "inputs": [
        {
          "internalType": "string",
          "name": "matchId",
          "type": "string"
        },
        {
          "internalType": "uint256",
          "name": "tokenIndex",
          "type": "uint256"
        }
      ],
      "name": "reward",
      "outputs": [],
      "stateMutability": "nonpayable",
      "type": "function"
    },
    {
      "inputs": [
        {
          "internalType": "string",
          "name": "matchId",
          "type": "string"
        }
      ],
      "name": "creator_withdraw_nft_batch",
      "outputs": [],
      "stateMutability": "nonpayable",
      "type": "function"
    },
    {
      "inputs": [
        {
          "internalType": "string",
          "name": "matchId",
          "type": "string"
        },
        {
          "internalType": "uint256",
          "name": "tokenIndex",
          "type": "uint256"
        }
      ],
      "name": "creator_withdraw_nft",
      "outputs": [],
      "stateMutability": "nonpayable",
      "type": "function"
    },
    {
      "inputs": [],
      "name": "creator_withdraw_profit",
      "outputs": [],
      "stateMutability": "nonpayable",
      "type": "function"
    },
    {
      "inputs": [
        {
          "internalType": "address",
          "name": "operator",
          "type": "address"
        },
        {
          "internalType": "address",
          "name": "from",
          "type": "address"
        },
        {
          "internalType": "uint256",
          "name": "tokenId",
          "type": "uint256"
        },
        {
          "internalType": "bytes",
          "name": "data",
          "type": "bytes"
        }
      ],
      "name": "onERC721Received",
      "outputs": [
        {
          "internalType": "bytes4",
          "name": "",
          "type": "bytes4"
        }
      ],
      "stateMutability": "pure",
      "type": "function"
    },
    {
      "inputs": [
        {
          "internalType": "string",
          "name": "matchId",
          "type": "string"
        }
      ],
      "name": "get_match",
      "outputs": [
        {
          "internalType": "address",
          "name": "",
          "type": "address"
        },
        {
          "internalType": "uint256",
          "name": "",
          "type": "uint256"
        },
        {
          "internalType": "uint256",
          "name": "",
          "type": "uint256"
        },
        {
          "internalType": "uint256",
          "name": "",
          "type": "uint256"
        },
        {
          "internalType": "uint256",
          "name": "",
          "type": "uint256"
        },
        {
          "internalType": "uint256",
          "name": "",
          "type": "uint256"
        }
      ],
      "stateMutability": "view",
      "type": "function"
    },
    {
      "inputs": [
        {
          "internalType": "string",
          "name": "matchId",
          "type": "string"
        },
        {
          "internalType": "uint256",
          "name": "tokenIndex",
          "type": "uint256"
        }
      ],
      "name": "get_current_result",
      "outputs": [
        {
          "internalType": "address",
          "name": "",
          "type": "address"
        },
        {
          "internalType": "uint256",
          "name": "",
          "type": "uint256"
        }
      ],
      "stateMutability": "view",
      "type": "function"
    },
    {
      "inputs": [
        {
          "internalType": "string",
          "name": "matchId",
          "type": "string"
        },
        {
          "internalType": "address",
          "name": "playerAddress",
          "type": "address"
        },
        {
          "internalType": "uint256",
          "name": "tokenIndex",
          "type": "uint256"
        }
      ],
      "name": "get_player_bid",
      "outputs": [
        {
          "internalType": "uint256",
          "name": "",
          "type": "uint256"
        }
      ],
      "stateMutability": "view",
      "type": "function"
    },
    {
      "inputs": [
        {
          "internalType": "address",
          "name": "creatorAddress",
          "type": "address"
        }
      ],
      "name": "get_creator_balance",
      "outputs": [
        {
          "internalType": "uint256",
          "name": "",
          "type": "uint256"
        }
      ],
      "stateMutability": "view",
      "type": "function"
    }
  ],
  "bytecode": "0x60806040523480156200001157600080fd5b5060405162004a7738038062004a7783398181016040528101906200003791906200009e565b600160008190555080600660006101000a81548173ffffffffffffffffffffffffffffffffffffffff021916908373ffffffffffffffffffffffffffffffffffffffff1602179055505062000118565b6000815190506200009881620000fe565b92915050565b600060208284031215620000b157600080fd5b6000620000c18482850162000087565b91505092915050565b6000620000d782620000de565b9050919050565b600073ffffffffffffffffffffffffffffffffffffffff82169050919050565b6200010981620000ca565b81146200011557600080fd5b50565b61494f80620001286000396000f3fe608060405234801561001057600080fd5b50600436106101005760003560e01c80636dad770c11610097578063df4a252c11610066578063df4a252c146102dc578063e3c6623d146102f8578063ecbcc04a14610329578063efc631a81461035957610100565b80636dad770c1461023d5780638b616f1f14610259578063b4add9931461028e578063c1892058146102be57610100565b806338dfdcb6116100d357806338dfdcb6146101a2578063458110a3146101d3578063479f7e89146101ef578063528f0f561461022157610100565b80630c97531b14610105578063150b7a021461012157806318200e9e1461015157806332ac752b1461016d575b600080fd5b61011f600480360381019061011a9190613236565b610363565b005b61013b6004803603810190610136919061318d565b6105ef565b6040516101489190613b2f565b60405180910390f35b61016b600480360381019061016691906132de565b61061d565b005b61018760048036038101906101829190613236565b610c28565b60405161019996959493929190613ace565b60405180910390f35b6101bc60048036038101906101b791906132de565b610d02565b6040516101ca929190613a0d565b60405180910390f35b6101ed60048036038101906101e89190613332565b610d96565b005b610209600480360381019061020491906132de565b61158b565b60405161021893929190613a36565b60405180910390f35b61023b600480360381019061023691906132de565b6115f8565b005b61025760048036038101906102529190613399565b611992565b005b610273600480360381019061026e9190613236565b612243565b60405161028596959493929190613a6d565b60405180910390f35b6102a860048036038101906102a39190613164565b61244e565b6040516102b59190613ec4565b60405180910390f35b6102c6612497565b6040516102d3919061393e565b60405180910390f35b6102f660048036038101906102f191906132de565b6124bd565b005b610312600480360381019061030d91906132de565b612880565b604051610320929190613a0d565b60405180910390f35b610343600480360381019061033e9190613277565b6128e7565b6040516103509190613ec4565b60405180910390f35b61036161295f565b005b803373ffffffffffffffffffffffffffffffffffffffff1660018260405161038b9190613927565b908152602001604051809103902060000160009054906101000a900473ffffffffffffffffffffffffffffffffffffffff1673ffffffffffffffffffffffffffffffffffffffff1614610413576040517f08c379a000000000000000000000000000000000000000000000000000000000815260040161040a90613e24565b60405180910390fd5b81436001826040516104259190613927565b9081526020016040518091039020600101600c9054906101000a90046bffffffffffffffffffffffff166bffffffffffffffffffffffff161061049d576040517f08c379a000000000000000000000000000000000000000000000000000000000815260040161049490613c64565b60405180910390fd5b60006001846040516104af9190613927565b9081526020016040518091039020600101601c9054906101000a900463ffffffff1663ffffffff16905060005b818110156105e85760006003866040516104f69190613927565b908152602001604051809103902060008381526020019081526020016000206040518060400160405290816000820160009054906101000a900473ffffffffffffffffffffffffffffffffffffffff1673ffffffffffffffffffffffffffffffffffffffff1673ffffffffffffffffffffffffffffffffffffffff1681526020016001820154815250509050600073ffffffffffffffffffffffffffffffffffffffff16816000015173ffffffffffffffffffffffffffffffffffffffff161480156105c6575060008160200151115b156105d6576105d58683612a7b565b5b50806105e190614271565b90506104dc565b5050505050565b60007f150b7a023d4804d13e8c85fb27262cb750cf6ba9f9dd3bb30d90f482ceeb4b1f905095945050505050565b8181600073ffffffffffffffffffffffffffffffffffffffff166001836040516106479190613927565b908152602001604051809103902060000160009054906101000a900473ffffffffffffffffffffffffffffffffffffffff1673ffffffffffffffffffffffffffffffffffffffff1614156106d0576040517f08c379a00000000000000000000000000000000000000000000000000000000081526004016106c790613c44565b60405180910390fd5b6001826040516106e09190613927565b9081526020016040518091039020600101601c9054906101000a900463ffffffff1663ffffffff168110610749576040517f08c379a000000000000000000000000000000000000000000000000000000000815260040161074090613d64565b60405180910390fd5b834360018260405161075b9190613927565b9081526020016040518091039020600101600c9054906101000a90046bffffffffffffffffffffffff166bffffffffffffffffffffffff16106107d3576040517f08c379a00000000000000000000000000000000000000000000000000000000081526004016107ca90613c64565b60405180910390fd5b60006003866040516107e59190613927565b9081526020016040518091039020600086815260200190815260200160002060000160009054906101000a900473ffffffffffffffffffffffffffffffffffffffff169050600073ffffffffffffffffffffffffffffffffffffffff168173ffffffffffffffffffffffffffffffffffffffff16141561089a576040517f08c379a000000000000000000000000000000000000000000000000000000000815260040161089190613d24565b60405180910390fd5b6040518060400160405280600073ffffffffffffffffffffffffffffffffffffffff16815260200160008152506003876040516108d79190613927565b9081526020016040518091039020600087815260200190815260200160002060008201518160000160006101000a81548173ffffffffffffffffffffffffffffffffffffffff021916908373ffffffffffffffffffffffffffffffffffffffff16021790555060208201518160010155905050600060048760405161095c9190613927565b908152602001604051809103902060008373ffffffffffffffffffffffffffffffffffffffff1673ffffffffffffffffffffffffffffffffffffffff168152602001908152602001600020600087815260200190815260200160002054905060006004886040516109cd9190613927565b908152602001604051809103902060008473ffffffffffffffffffffffffffffffffffffffff1673ffffffffffffffffffffffffffffffffffffffff168152602001908152602001600020600088815260200190815260200160002081905550806005600060018a604051610a429190613927565b908152602001604051809103902060000160009054906101000a900473ffffffffffffffffffffffffffffffffffffffff1673ffffffffffffffffffffffffffffffffffffffff1673ffffffffffffffffffffffffffffffffffffffff1681526020019081526020016000206000828254610abd9190613fd7565b925050819055506000600288604051610ad69190613927565b908152602001604051809103902060008881526020019081526020016000206040518060600160405290816000820160009054906101000a900473ffffffffffffffffffffffffffffffffffffffff1673ffffffffffffffffffffffffffffffffffffffff1673ffffffffffffffffffffffffffffffffffffffff168152602001600182015481526020016002820154815250509050806000015173ffffffffffffffffffffffffffffffffffffffff166342842e0e308584602001516040518463ffffffff1660e01b8152600401610bb193929190613959565b600060405180830381600087803b158015610bcb57600080fd5b505af1158015610bdf573d6000803e3d6000fd5b505050507f4724291f3c939ed02ed238c50d61263622fc1d0871d7aaa264d743475de5b72b888885604051610c1693929190613bc6565b60405180910390a15050505050505050565b6001818051602081018201805184825260208301602085012081835280955050505050506000915090508060000160009054906101000a900473ffffffffffffffffffffffffffffffffffffffff16908060000160149054906101000a90046bffffffffffffffffffffffff16908060010160009054906101000a90046bffffffffffffffffffffffff169080600101600c9054906101000a90046bffffffffffffffffffffffff16908060010160189054906101000a900463ffffffff169080600101601c9054906101000a900463ffffffff16905086565b600080600384604051610d159190613927565b9081526020016040518091039020600084815260200190815260200160002060000160009054906101000a900473ffffffffffffffffffffffffffffffffffffffff16600385604051610d689190613927565b9081526020016040518091039020600085815260200190815260200160002060010154915091509250929050565b60026000541415610ddc576040517f08c379a0000000000000000000000000000000000000000000000000000000008152600401610dd390613e44565b60405180910390fd5b60026000819055508282600073ffffffffffffffffffffffffffffffffffffffff16600183604051610e0e9190613927565b908152602001604051809103902060000160009054906101000a900473ffffffffffffffffffffffffffffffffffffffff1673ffffffffffffffffffffffffffffffffffffffff161415610e97576040517f08c379a0000000000000000000000000000000000000000000000000000000008152600401610e8e90613c44565b60405180910390fd5b600182604051610ea79190613927565b9081526020016040518091039020600101601c9054906101000a900463ffffffff1663ffffffff168110610f10576040517f08c379a0000000000000000000000000000000000000000000000000000000008152600401610f0790613d64565b60405180910390fd5b6000600186604051610f229190613927565b90815260200160405180910390206040518060c00160405290816000820160009054906101000a900473ffffffffffffffffffffffffffffffffffffffff1673ffffffffffffffffffffffffffffffffffffffff1673ffffffffffffffffffffffffffffffffffffffff1681526020016000820160149054906101000a90046bffffffffffffffffffffffff166bffffffffffffffffffffffff166bffffffffffffffffffffffff1681526020016001820160009054906101000a90046bffffffffffffffffffffffff166bffffffffffffffffffffffff166bffffffffffffffffffffffff16815260200160018201600c9054906101000a90046bffffffffffffffffffffffff166bffffffffffffffffffffffff166bffffffffffffffffffffffff1681526020016001820160189054906101000a900463ffffffff1663ffffffff1663ffffffff16815260200160018201601c9054906101000a900463ffffffff1663ffffffff1663ffffffff1681525050905060003390504382604001516bffffffffffffffffffffffff161080156110d1575081606001516bffffffffffffffffffffffff164311155b611110576040517f08c379a000000000000000000000000000000000000000000000000000000000815260040161110790613e64565b60405180910390fd5b60006003886040516111229190613927565b908152602001604051809103902060008881526020019081526020016000206040518060400160405290816000820160009054906101000a900473ffffffffffffffffffffffffffffffffffffffff1673ffffffffffffffffffffffffffffffffffffffff1673ffffffffffffffffffffffffffffffffffffffff1681526020016001820154815250509050600081602001519050600060028a6040516111c99190613927565b908152602001604051809103902060008a81526020019081526020016000206002015490506000606486602001516bffffffffffffffffffffffff168361121091906140a0565b61121a919061406f565b905082600261122991906140a0565b8910801561123657508289115b801561124d575080838a61124a91906140fa565b10155b61128c576040517f08c379a000000000000000000000000000000000000000000000000000000000815260040161128390613ea4565b60405180910390fd5b60405180604001604052808673ffffffffffffffffffffffffffffffffffffffff1681526020018a81525060038c6040516112c79190613927565b908152602001604051809103902060008c815260200190815260200160002060008201518160000160006101000a81548173ffffffffffffffffffffffffffffffffffffffff021916908373ffffffffffffffffffffffffffffffffffffffff1602179055506020820151816001015590505060084387606001516bffffffffffffffffffffffff1661135a91906140fa565b10156113f657856080015163ffffffff168660600181815161137c919061402d565b9150906bffffffffffffffffffffffff1690816bffffffffffffffffffffffff1681525050856060015160018c6040516113b69190613927565b9081526020016040518091039020600101600c6101000a8154816bffffffffffffffffffffffff02191690836bffffffffffffffffffffffff1602179055505b600060048c6040516114089190613927565b908152602001604051809103902060008773ffffffffffffffffffffffffffffffffffffffff1673ffffffffffffffffffffffffffffffffffffffff16815260200190815260200160002060008c8152602001908152602001600020548a61147091906140fa565b90508960048d6040516114839190613927565b908152602001604051809103902060008873ffffffffffffffffffffffffffffffffffffffff1673ffffffffffffffffffffffffffffffffffffffff16815260200190815260200160002060008d8152602001908152602001600020819055507f18fd97230ae5f6949392b9c1f01de56b7f025e5ce8085c22eb32ee8dad59e53c8c878d8d8b6060015160405161151e959493929190613b6c565b60405180910390a1611575863083600660009054906101000a900473ffffffffffffffffffffffffffffffffffffffff1673ffffffffffffffffffffffffffffffffffffffff16612bd7909392919063ffffffff16565b5050505050505050506001600081905550505050565b600282805160208101820180518482526020830160208501208183528095505050505050602052806000526040600020600091509150508060000160009054906101000a900473ffffffffffffffffffffffffffffffffffffffff16908060010154908060020154905083565b8181600073ffffffffffffffffffffffffffffffffffffffff166001836040516116229190613927565b908152602001604051809103902060000160009054906101000a900473ffffffffffffffffffffffffffffffffffffffff1673ffffffffffffffffffffffffffffffffffffffff1614156116ab576040517f08c379a00000000000000000000000000000000000000000000000000000000081526004016116a290613c44565b60405180910390fd5b6001826040516116bb9190613927565b9081526020016040518091039020600101601c9054906101000a900463ffffffff1663ffffffff168110611724576040517f08c379a000000000000000000000000000000000000000000000000000000000815260040161171b90613d64565b60405180910390fd5b833373ffffffffffffffffffffffffffffffffffffffff1660018260405161174c9190613927565b908152602001604051809103902060000160009054906101000a900473ffffffffffffffffffffffffffffffffffffffff1673ffffffffffffffffffffffffffffffffffffffff16146117d4576040517f08c379a00000000000000000000000000000000000000000000000000000000081526004016117cb90613e24565b60405180910390fd5b84436001826040516117e69190613927565b9081526020016040518091039020600101600c9054906101000a90046bffffffffffffffffffffffff166bffffffffffffffffffffffff161061185e576040517f08c379a000000000000000000000000000000000000000000000000000000000815260040161185590613c64565b60405180910390fd5b60006003876040516118709190613927565b908152602001604051809103902060008781526020019081526020016000206040518060400160405290816000820160009054906101000a900473ffffffffffffffffffffffffffffffffffffffff1673ffffffffffffffffffffffffffffffffffffffff1673ffffffffffffffffffffffffffffffffffffffff1681526020016001820154815250509050600073ffffffffffffffffffffffffffffffffffffffff16816000015173ffffffffffffffffffffffffffffffffffffffff16148015611940575060008160200151115b61197f576040517f08c379a000000000000000000000000000000000000000000000000000000000815260040161197690613d84565b60405180910390fd5b6119898787612a7b565b50505050505050565b600260005414156119d8576040517f08c379a00000000000000000000000000000000000000000000000000000000081526004016119cf90613e44565b60405180910390fd5b6002600081905550600073ffffffffffffffffffffffffffffffffffffffff16600187604051611a089190613927565b908152602001604051809103902060000160009054906101000a900473ffffffffffffffffffffffffffffffffffffffff1673ffffffffffffffffffffffffffffffffffffffff1614611a90576040517f08c379a0000000000000000000000000000000000000000000000000000000008152600401611a8790613dc4565b60405180910390fd5b846bffffffffffffffffffffffff16846bffffffffffffffffffffffff16118015611ac8575043856bffffffffffffffffffffffff16115b611b07576040517f08c379a0000000000000000000000000000000000000000000000000000000008152600401611afe90613cc4565b60405180910390fd5b60026008611b1591906140a0565b8585611b21919061412e565b6bffffffffffffffffffffffff1611611b6f576040517f08c379a0000000000000000000000000000000000000000000000000000000008152600401611b6690613e84565b60405180910390fd5b6064826bffffffffffffffffffffffff1610611bc0576040517f08c379a0000000000000000000000000000000000000000000000000000000008152600401611bb790613c84565b60405180910390fd5b60008151118015611bd357506020815111155b611c12576040517f08c379a0000000000000000000000000000000000000000000000000000000008152600401611c0990613da4565b60405180910390fd5b60005b815181101561201a576001828281518110611c59577f4e487b7100000000000000000000000000000000000000000000000000000000600052603260045260246000fd5b60200260200101516040015111611ca5576040517f08c379a0000000000000000000000000000000000000000000000000000000008152600401611c9c90613ce4565b60405180910390fd5b60006064838381518110611ce2577f4e487b7100000000000000000000000000000000000000000000000000000000600052603260045260246000fd5b602002602001015160400151856bffffffffffffffffffffffff16611d0791906140a0565b611d11919061406f565b11611d51576040517f08c379a0000000000000000000000000000000000000000000000000000000008152600401611d4890613c24565b60405180910390fd5b818181518110611d8a577f4e487b7100000000000000000000000000000000000000000000000000000000600052603260045260246000fd5b60200260200101516000015173ffffffffffffffffffffffffffffffffffffffff166342842e0e3330858581518110611dec577f4e487b7100000000000000000000000000000000000000000000000000000000600052603260045260246000fd5b6020026020010151602001516040518463ffffffff1660e01b8152600401611e1693929190613959565b600060405180830381600087803b158015611e3057600080fd5b505af1158015611e44573d6000803e3d6000fd5b505050506040518060400160405280600073ffffffffffffffffffffffffffffffffffffffff168152602001838381518110611ea9577f4e487b7100000000000000000000000000000000000000000000000000000000600052603260045260246000fd5b602002602001015160400151815250600388604051611ec89190613927565b9081526020016040518091039020600083815260200190815260200160002060008201518160000160006101000a81548173ffffffffffffffffffffffffffffffffffffffff021916908373ffffffffffffffffffffffffffffffffffffffff16021790555060208201518160010155905050818181518110611f74577f4e487b7100000000000000000000000000000000000000000000000000000000600052603260045260246000fd5b6020026020010151600288604051611f8c9190613927565b9081526020016040518091039020600083815260200190815260200160002060008201518160000160006101000a81548173ffffffffffffffffffffffffffffffffffffffff021916908373ffffffffffffffffffffffffffffffffffffffff16021790555060208201518160010155604082015181600201559050508061201390614271565b9050611c15565b506040518060c001604052803373ffffffffffffffffffffffffffffffffffffffff168152602001836bffffffffffffffffffffffff168152602001866bffffffffffffffffffffffff168152602001856bffffffffffffffffffffffff1681526020018463ffffffff168152602001825163ffffffff168152506001876040516120a59190613927565b908152602001604051809103902060008201518160000160006101000a81548173ffffffffffffffffffffffffffffffffffffffff021916908373ffffffffffffffffffffffffffffffffffffffff16021790555060208201518160000160146101000a8154816bffffffffffffffffffffffff02191690836bffffffffffffffffffffffff16021790555060408201518160010160006101000a8154816bffffffffffffffffffffffff02191690836bffffffffffffffffffffffff160217905550606082015181600101600c6101000a8154816bffffffffffffffffffffffff02191690836bffffffffffffffffffffffff16021790555060808201518160010160186101000a81548163ffffffff021916908363ffffffff16021790555060a082015181600101601c6101000a81548163ffffffff021916908363ffffffff1602179055509050507fa0cffa3c276f29861be1d5f558a00530b6c7a4101b0161e22556384372d727e53387878786888760405161222b9796959493929190613990565b60405180910390a16001600081905550505050505050565b600080600080600080600060018860405161225e9190613927565b90815260200160405180910390206040518060c00160405290816000820160009054906101000a900473ffffffffffffffffffffffffffffffffffffffff1673ffffffffffffffffffffffffffffffffffffffff1673ffffffffffffffffffffffffffffffffffffffff1681526020016000820160149054906101000a90046bffffffffffffffffffffffff166bffffffffffffffffffffffff166bffffffffffffffffffffffff1681526020016001820160009054906101000a90046bffffffffffffffffffffffff166bffffffffffffffffffffffff166bffffffffffffffffffffffff16815260200160018201600c9054906101000a90046bffffffffffffffffffffffff166bffffffffffffffffffffffff166bffffffffffffffffffffffff1681526020016001820160189054906101000a900463ffffffff1663ffffffff1663ffffffff16815260200160018201601c9054906101000a900463ffffffff1663ffffffff1663ffffffff16815250509050806000015181602001518260400151836060015184608001518560a00151846bffffffffffffffffffffffff169450836bffffffffffffffffffffffff169350826bffffffffffffffffffffffff1692508163ffffffff1691508063ffffffff1690509650965096509650965096505091939550919395565b6000600560008373ffffffffffffffffffffffffffffffffffffffff1673ffffffffffffffffffffffffffffffffffffffff168152602001908152602001600020549050919050565b600660009054906101000a900473ffffffffffffffffffffffffffffffffffffffff1681565b60026000541415612503576040517f08c379a00000000000000000000000000000000000000000000000000000000081526004016124fa90613e44565b60405180910390fd5b60026000819055508181600073ffffffffffffffffffffffffffffffffffffffff166001836040516125359190613927565b908152602001604051809103902060000160009054906101000a900473ffffffffffffffffffffffffffffffffffffffff1673ffffffffffffffffffffffffffffffffffffffff1614156125be576040517f08c379a00000000000000000000000000000000000000000000000000000000081526004016125b590613c44565b60405180910390fd5b6001826040516125ce9190613927565b9081526020016040518091039020600101601c9054906101000a900463ffffffff1663ffffffff168110612637576040517f08c379a000000000000000000000000000000000000000000000000000000000815260040161262e90613d64565b60405180910390fd5b60003390508073ffffffffffffffffffffffffffffffffffffffff166003866040516126639190613927565b9081526020016040518091039020600086815260200190815260200160002060000160009054906101000a900473ffffffffffffffffffffffffffffffffffffffff1673ffffffffffffffffffffffffffffffffffffffff1614156126fd576040517f08c379a00000000000000000000000000000000000000000000000000000000081526004016126f490613ca4565b60405180910390fd5b600060048660405161270f9190613927565b908152602001604051809103902060008373ffffffffffffffffffffffffffffffffffffffff1673ffffffffffffffffffffffffffffffffffffffff1681526020019081526020016000206000868152602001908152602001600020549050600081116127b1576040517f08c379a00000000000000000000000000000000000000000000000000000000081526004016127a890613c04565b60405180910390fd5b60006004876040516127c39190613927565b908152602001604051809103902060008473ffffffffffffffffffffffffffffffffffffffff1673ffffffffffffffffffffffffffffffffffffffff1681526020019081526020016000206000878152602001908152602001600020819055506128708282600660009054906101000a900473ffffffffffffffffffffffffffffffffffffffff1673ffffffffffffffffffffffffffffffffffffffff16612c609092919063ffffffff16565b5050505060016000819055505050565b600382805160208101820180518482526020830160208501208183528095505050505050602052806000526040600020600091509150508060000160009054906101000a900473ffffffffffffffffffffffffffffffffffffffff16908060010154905082565b60006004846040516128f99190613927565b908152602001604051809103902060008473ffffffffffffffffffffffffffffffffffffffff1673ffffffffffffffffffffffffffffffffffffffff16815260200190815260200160002060008381526020019081526020016000205490509392505050565b6000600560003373ffffffffffffffffffffffffffffffffffffffff1673ffffffffffffffffffffffffffffffffffffffff168152602001908152602001600020549050600081116129e6576040517f08c379a00000000000000000000000000000000000000000000000000000000081526004016129dd90613d44565b60405180910390fd5b6000600560003373ffffffffffffffffffffffffffffffffffffffff1673ffffffffffffffffffffffffffffffffffffffff16815260200190815260200160002081905550612a783382600660009054906101000a900473ffffffffffffffffffffffffffffffffffffffff1673ffffffffffffffffffffffffffffffffffffffff16612c609092919063ffffffff16565b50565b6000600383604051612a8d9190613927565b90815260200160405180910390206000838152602001908152602001600020600101819055506000600283604051612ac59190613927565b908152602001604051809103902060008381526020019081526020016000206040518060600160405290816000820160009054906101000a900473ffffffffffffffffffffffffffffffffffffffff1673ffffffffffffffffffffffffffffffffffffffff1673ffffffffffffffffffffffffffffffffffffffff168152602001600182015481526020016002820154815250509050806000015173ffffffffffffffffffffffffffffffffffffffff166342842e0e303384602001516040518463ffffffff1660e01b8152600401612ba093929190613959565b600060405180830381600087803b158015612bba57600080fd5b505af1158015612bce573d6000803e3d6000fd5b50505050505050565b612c5a846323b872dd60e01b858585604051602401612bf893929190613959565b604051602081830303815290604052907bffffffffffffffffffffffffffffffffffffffffffffffffffffffff19166020820180517bffffffffffffffffffffffffffffffffffffffffffffffffffffffff8381831617835250505050612ce6565b50505050565b612ce18363a9059cbb60e01b8484604051602401612c7f929190613a0d565b604051602081830303815290604052907bffffffffffffffffffffffffffffffffffffffffffffffffffffffff19166020820180517bffffffffffffffffffffffffffffffffffffffffffffffffffffffff8381831617835250505050612ce6565b505050565b6000612d48826040518060400160405280602081526020017f5361666545524332303a206c6f772d6c6576656c2063616c6c206661696c65648152508573ffffffffffffffffffffffffffffffffffffffff16612dad9092919063ffffffff16565b9050600081511115612da85780806020019051810190612d68919061320d565b612da7576040517f08c379a0000000000000000000000000000000000000000000000000000000008152600401612d9e90613e04565b60405180910390fd5b5b505050565b6060612dbc8484600085612dc5565b90509392505050565b606082471015612e0a576040517f08c379a0000000000000000000000000000000000000000000000000000000008152600401612e0190613d04565b60405180910390fd5b612e1385612ed9565b612e52576040517f08c379a0000000000000000000000000000000000000000000000000000000008152600401612e4990613de4565b60405180910390fd5b6000808673ffffffffffffffffffffffffffffffffffffffff168587604051612e7b9190613910565b60006040518083038185875af1925050503d8060008114612eb8576040519150601f19603f3d011682016040523d82523d6000602084013e612ebd565b606091505b5091509150612ecd828286612eec565b92505050949350505050565b600080823b905060008111915050919050565b60608315612efc57829050612f4c565b600083511115612f0f5782518084602001fd5b816040517f08c379a0000000000000000000000000000000000000000000000000000000008152600401612f439190613b4a565b60405180910390fd5b9392505050565b6000612f66612f6184613f04565b613edf565b90508083825260208201905082856060860282011115612f8557600080fd5b60005b85811015612fb55781612f9b88826130c5565b845260208401935060608301925050600181019050612f88565b5050509392505050565b6000612fd2612fcd84613f30565b613edf565b905082815260208101848484011115612fea57600080fd5b612ff58482856141fe565b509392505050565b60008135905061300c816148a6565b92915050565b600082601f83011261302357600080fd5b8135613033848260208601612f53565b91505092915050565b60008151905061304b816148bd565b92915050565b60008083601f84011261306357600080fd5b8235905067ffffffffffffffff81111561307c57600080fd5b60208301915083600182028301111561309457600080fd5b9250929050565b600082601f8301126130ac57600080fd5b81356130bc848260208601612fbf565b91505092915050565b6000606082840312156130d757600080fd5b6130e16060613edf565b905060006130f184828501612ffd565b600083015250602061310584828501613125565b602083015250604061311984828501613125565b60408301525092915050565b600081359050613134816148d4565b92915050565b600081359050613149816148eb565b92915050565b60008135905061315e81614902565b92915050565b60006020828403121561317657600080fd5b600061318484828501612ffd565b91505092915050565b6000806000806000608086880312156131a557600080fd5b60006131b388828901612ffd565b95505060206131c488828901612ffd565b94505060406131d588828901613125565b935050606086013567ffffffffffffffff8111156131f257600080fd5b6131fe88828901613051565b92509250509295509295909350565b60006020828403121561321f57600080fd5b600061322d8482850161303c565b91505092915050565b60006020828403121561324857600080fd5b600082013567ffffffffffffffff81111561326257600080fd5b61326e8482850161309b565b91505092915050565b60008060006060848603121561328c57600080fd5b600084013567ffffffffffffffff8111156132a657600080fd5b6132b28682870161309b565b93505060206132c386828701612ffd565b92505060406132d486828701613125565b9150509250925092565b600080604083850312156132f157600080fd5b600083013567ffffffffffffffff81111561330b57600080fd5b6133178582860161309b565b925050602061332885828601613125565b9150509250929050565b60008060006060848603121561334757600080fd5b600084013567ffffffffffffffff81111561336157600080fd5b61336d8682870161309b565b935050602061337e86828701613125565b925050604061338f86828701613125565b9150509250925092565b60008060008060008060c087890312156133b257600080fd5b600087013567ffffffffffffffff8111156133cc57600080fd5b6133d889828a0161309b565b96505060206133e989828a0161314f565b95505060406133fa89828a0161314f565b945050606061340b89828a0161313a565b935050608061341c89828a0161314f565b92505060a087013567ffffffffffffffff81111561343957600080fd5b61344589828a01613012565b9150509295509295509295565b600061345e8383613892565b60608301905092915050565b61347381614162565b82525050565b61348281614162565b82525050565b600061349382613f71565b61349d8185613f9f565b93506134a883613f61565b8060005b838110156134d95781516134c08882613452565b97506134cb83613f92565b9250506001810190506134ac565b5085935050505092915050565b6134ef81614180565b82525050565b600061350082613f7c565b61350a8185613fb0565b935061351a81856020860161420d565b80840191505092915050565b600061353182613f87565b61353b8185613fbb565b935061354b81856020860161420d565b61355481614347565b840191505092915050565b600061356a82613f87565b6135748185613fcc565b935061358481856020860161420d565b80840191505092915050565b600061359d602683613fbb565b91506135a882614358565b604082019050919050565b60006135c0602283613fbb565b91506135cb826143a7565b604082019050919050565b60006135e3600d83613fbb565b91506135ee826143f6565b602082019050919050565b6000613606601583613fbb565b91506136118261441f565b602082019050919050565b6000613629603383613fbb565b915061363482614448565b604082019050919050565b600061364c601a83613fbb565b915061365782614497565b602082019050919050565b600061366f604583613fbb565b915061367a826144c0565b606082019050919050565b6000613692601d83613fbb565b915061369d82614535565b602082019050919050565b60006136b5602683613fbb565b91506136c08261455e565b604082019050919050565b60006136d8601383613fbb565b91506136e3826145ad565b602082019050919050565b60006136fb602683613fbb565b9150613706826145d6565b604082019050919050565b600061371e600d83613fbb565b915061372982614625565b602082019050919050565b6000613741602283613fbb565b915061374c8261464e565b604082019050919050565b6000613764604783613fbb565b915061376f8261469d565b606082019050919050565b6000613787601383613fbb565b915061379282614712565b602082019050919050565b60006137aa601d83613fbb565b91506137b58261473b565b602082019050919050565b60006137cd602a83613fbb565b91506137d882614764565b604082019050919050565b60006137f0601583613fbb565b91506137fb826147b3565b602082019050919050565b6000613813601f83613fbb565b915061381e826147dc565b602082019050919050565b6000613836601f83613fbb565b915061384182614805565b602082019050919050565b6000613859603383613fbb565b91506138648261482e565b604082019050919050565b600061387c601183613fbb565b91506138878261487d565b602082019050919050565b6060820160008201516138a8600085018261346a565b5060208201516138bb60208501826138d4565b5060408201516138ce60408501826138d4565b50505050565b6138dd816141cc565b82525050565b6138ec816141cc565b82525050565b6138fb816141d6565b82525050565b61390a816141e6565b82525050565b600061391c82846134f5565b915081905092915050565b6000613933828461355f565b915081905092915050565b60006020820190506139536000830184613479565b92915050565b600060608201905061396e6000830186613479565b61397b6020830185613479565b61398860408301846138e3565b949350505050565b600060e0820190506139a5600083018a613479565b81810360208301526139b78189613526565b90506139c66040830188613901565b6139d36060830187613901565b6139e06080830186613901565b6139ed60a08301856138f2565b81810360c08301526139ff8184613488565b905098975050505050505050565b6000604082019050613a226000830185613479565b613a2f60208301846138e3565b9392505050565b6000606082019050613a4b6000830186613479565b613a5860208301856138e3565b613a6560408301846138e3565b949350505050565b600060c082019050613a826000830189613479565b613a8f60208301886138e3565b613a9c60408301876138e3565b613aa960608301866138e3565b613ab660808301856138e3565b613ac360a08301846138e3565b979650505050505050565b600060c082019050613ae36000830189613479565b613af06020830188613901565b613afd6040830187613901565b613b0a6060830186613901565b613b1760808301856138f2565b613b2460a08301846138f2565b979650505050505050565b6000602082019050613b4460008301846134e6565b92915050565b60006020820190508181036000830152613b648184613526565b905092915050565b600060a0820190508181036000830152613b868188613526565b9050613b956020830187613479565b613ba260408301866138e3565b613baf60608301856138e3565b613bbc6080830184613901565b9695505050505050565b60006060820190508181036000830152613be08186613526565b9050613bef60208301856138e3565b613bfc6040830184613479565b949350505050565b60006020820190508181036000830152613c1d81613590565b9050919050565b60006020820190508181036000830152613c3d816135b3565b9050919050565b60006020820190508181036000830152613c5d816135d6565b9050919050565b60006020820190508181036000830152613c7d816135f9565b9050919050565b60006020820190508181036000830152613c9d8161361c565b9050919050565b60006020820190508181036000830152613cbd8161363f565b9050919050565b60006020820190508181036000830152613cdd81613662565b9050919050565b60006020820190508181036000830152613cfd81613685565b9050919050565b60006020820190508181036000830152613d1d816136a8565b9050919050565b60006020820190508181036000830152613d3d816136cb565b9050919050565b60006020820190508181036000830152613d5d816136ee565b9050919050565b60006020820190508181036000830152613d7d81613711565b9050919050565b60006020820190508181036000830152613d9d81613734565b9050919050565b60006020820190508181036000830152613dbd81613757565b9050919050565b60006020820190508181036000830152613ddd8161377a565b9050919050565b60006020820190508181036000830152613dfd8161379d565b9050919050565b60006020820190508181036000830152613e1d816137c0565b9050919050565b60006020820190508181036000830152613e3d816137e3565b9050919050565b60006020820190508181036000830152613e5d81613806565b9050919050565b60006020820190508181036000830152613e7d81613829565b9050919050565b60006020820190508181036000830152613e9d8161384c565b9050919050565b60006020820190508181036000830152613ebd8161386f565b9050919050565b6000602082019050613ed960008301846138e3565b92915050565b6000613ee9613efa565b9050613ef58282614240565b919050565b6000604051905090565b600067ffffffffffffffff821115613f1f57613f1e614318565b5b602082029050602081019050919050565b600067ffffffffffffffff821115613f4b57613f4a614318565b5b613f5482614347565b9050602081019050919050565b6000819050602082019050919050565b600081519050919050565b600081519050919050565b600081519050919050565b6000602082019050919050565b600082825260208201905092915050565b600081905092915050565b600082825260208201905092915050565b600081905092915050565b6000613fe2826141cc565b9150613fed836141cc565b9250827fffffffffffffffffffffffffffffffffffffffffffffffffffffffffffffffff03821115614022576140216142ba565b5b828201905092915050565b6000614038826141e6565b9150614043836141e6565b9250826bffffffffffffffffffffffff03821115614064576140636142ba565b5b828201905092915050565b600061407a826141cc565b9150614085836141cc565b925082614095576140946142e9565b5b828204905092915050565b60006140ab826141cc565b91506140b6836141cc565b9250817fffffffffffffffffffffffffffffffffffffffffffffffffffffffffffffffff04831182151516156140ef576140ee6142ba565b5b828202905092915050565b6000614105826141cc565b9150614110836141cc565b925082821015614123576141226142ba565b5b828203905092915050565b6000614139826141e6565b9150614144836141e6565b925082821015614157576141566142ba565b5b828203905092915050565b600061416d826141ac565b9050919050565b60008115159050919050565b60007fffffffff0000000000000000000000000000000000000000000000000000000082169050919050565b600073ffffffffffffffffffffffffffffffffffffffff82169050919050565b6000819050919050565b600063ffffffff82169050919050565b60006bffffffffffffffffffffffff82169050919050565b82818337600083830152505050565b60005b8381101561422b578082015181840152602081019050614210565b8381111561423a576000848401525b50505050565b61424982614347565b810181811067ffffffffffffffff8211171561426857614267614318565b5b80604052505050565b600061427c826141cc565b91507fffffffffffffffffffffffffffffffffffffffffffffffffffffffffffffffff8214156142af576142ae6142ba565b5b600182019050919050565b7f4e487b7100000000000000000000000000000000000000000000000000000000600052601160045260246000fd5b7f4e487b7100000000000000000000000000000000000000000000000000000000600052601260045260246000fd5b7f4e487b7100000000000000000000000000000000000000000000000000000000600052604160045260246000fd5b6000601f19601f8301169050919050565b7f626964206d7573742062652067726561746572207468616e203020746f20776960008201527f7468647261770000000000000000000000000000000000000000000000000000602082015250565b7f696e6372656d656e742073686f756c642062652067726561746572207468616e60008201527f2030000000000000000000000000000000000000000000000000000000000000602082015250565b7f696e76616c6964206d6174636800000000000000000000000000000000000000600082015250565b7f6d61746368206973206e6f742066696e69736865640000000000000000000000600082015250565b7f696e6372656d656e74206d7573742062652067726561746572207468616e203060008201527f20616e64206c657373207468616e203130302500000000000000000000000000602082015250565b7f746f70206269646465722063616e6e6f74207769746864726177000000000000600082015250565b7f636f6e646974696f6e20657870697279426c6f636b203e206f70656e426c6f6360008201527f6b203e2063757272656e7420626c6f636b20636f756e74206e6f74207361746960208201527f7366696564000000000000000000000000000000000000000000000000000000604082015250565b7f6d696e426964206d7573742062652067726561746572207468616e2031000000600082015250565b7f416464726573733a20696e73756666696369656e742062616c616e636520666f60008201527f722063616c6c0000000000000000000000000000000000000000000000000000602082015250565b7f77696e6e6572206973206e6f742076616c696400000000000000000000000000600082015250565b7f63726561746f722062616c616e6365206d75737420626520677265617465722060008201527f7468616e20300000000000000000000000000000000000000000000000000000602082015250565b7f696e76616c696420746f6b656e00000000000000000000000000000000000000600082015250565b7f746f6b656e206973206e6f7420617661696c61626c6520746f2077697468647260008201527f6177000000000000000000000000000000000000000000000000000000000000602082015250565b7f6e756d626572206f66206e6674206d757374206265206772656174657220746860008201527f616e203020616e64206c657373207468616e204d41585f4954454d5f5045525f60208201527f41554354494f4e00000000000000000000000000000000000000000000000000604082015250565b7f6d617463684964206973206f6363757069656400000000000000000000000000600082015250565b7f416464726573733a2063616c6c20746f206e6f6e2d636f6e7472616374000000600082015250565b7f5361666545524332303a204552433230206f7065726174696f6e20646964206e60008201527f6f74207375636365656400000000000000000000000000000000000000000000602082015250565b7f63726561746f72206f6e6c792066756e6374696f6e0000000000000000000000600082015250565b7f5265656e7472616e637947756172643a207265656e7472616e742063616c6c00600082015250565b7f6d61746368206973206e6f74206f70656e656420666f722062696464696e6700600082015250565b7f61756374696f6e2074696d65206d757374206e6f74206c657373207468616e2060008201527f327820424c4f434b535f544f5f45585049524500000000000000000000000000602082015250565b7f696c6c6567616c20696e6372656d656e74000000000000000000000000000000600082015250565b6148af81614162565b81146148ba57600080fd5b50565b6148c681614174565b81146148d157600080fd5b50565b6148dd816141cc565b81146148e857600080fd5b50565b6148f4816141d6565b81146148ff57600080fd5b50565b61490b816141e6565b811461491657600080fd5b5056fea264697066735822122081e19bbf00fdaa144f62fe3c1b756c2487393f53865e5feed919df74712e714c64736f6c63430008040033",
  "immutableReferences": {},
  "source": "// SPDX-License-Identifier: MIT\npragma solidity ^0.8.0;\n\nimport \"@openzeppelin/contracts/token/ERC20/IERC20.sol\";\nimport \"@openzeppelin/contracts/token/ERC20/utils/SafeERC20.sol\";\nimport \"@openzeppelin/contracts/token/ERC721/IERC721.sol\";\nimport \"@openzeppelin/contracts/token/ERC721/IERC721Receiver.sol\";\nimport \"@openzeppelin/contracts/security/ReentrancyGuard.sol\";\n\ncontract Auction is ReentrancyGuard, IERC721Receiver {\n\n    // using safeErc20 for ierc20 based contract\n    using SafeERC20 for IERC20;\n\n    // constants\n    address constant ADDRESS_NULL             = 0x0000000000000000000000000000000000000000;\n    \n    // max item allow per auction, should not be more than 2^32-1\n    uint    constant MAX_ITEM_PER_AUCTION     = 32;\n    \n    uint    constant BLOCKS_TO_EXPIRE         = 8;\n    \n    bytes4  constant ERC721_ONRECEIVED_RESULT = bytes4(keccak256(\"onERC721Received(address,address,uint256,bytes)\"));\n    // uint constant MAX_UINT96 = type(uint96).max;\n\n    // structs\n    struct NFT {\n        address contractAddress;\n        uint    tokenId;\n        uint    minBid;\n    }\n    \n    struct AuctionResult {\n        address topBidder;\n        uint standingBid;\n    }\n\n    struct Match {\n        address creatorAddress;\n        uint96 minIncrement; // percentage based\n        uint96 openBlock;\n        uint96 expiryBlock;\n        uint32 expiryExtension; // expiryBlock will be extend (+=) for expiryExtension block(s) if bid updated in range [expiryBlock - expiryExtension + 1 .. expiryBlock]\n        uint32 nftCount;\n    }\n\n    // state\n    // matchId => Match\n    mapping(string => Match) public  matches;\n\n    // matchId => index => NFT\n    mapping(string => mapping(uint => NFT)) public  matchNFTs;\n    \n    // matchId => Result\n    mapping(string => mapping(uint => AuctionResult)) public  matchResults;\n    \n    // matchId => player => tokenIndex => price\n    mapping(string => mapping(address => mapping(uint => uint))) private playerBid;\n\n    // address to balance\n    mapping(address => uint) private creatorBalance;\n\n    // events\n    event CreateAuctionEvent(address creatorAddress, string matchId, uint96 openBlock, uint96 expiryBlock, uint96 increment, uint32 expiryExtension, NFT[] nfts);\n    event PlayerBidEvent(string matchId, address playerAddress, uint tokenIndex, uint bid, uint96 expiryBlock);\n    event RewardEvent(string matchId, uint tokenIndex, address winnerAddress);\n\n    // base erc20 token\n    address public USDT_ADDRESS;\n\n    // modifier \n    modifier validTokenIndex(string memory matchId, uint tokenIndex) {\n        require(matches[matchId].creatorAddress != ADDRESS_NULL, \"invalid match\"); \n        require(tokenIndex < matches[matchId].nftCount, \"invalid token\");\n        _;\n    }\n\n    modifier creatorOnly(string memory matchId) {\n         require(matches[matchId].creatorAddress == msg.sender, \"creator only function\"); \n        _;\n    }\n    \n    // match finished should be used with checking valid match\n    modifier matchFinished(string memory matchId) {\n        // require(matches[matchId].creatorAddress != ADDRESS_NULL, \"invalid match\");\n        require(matches[matchId].expiryBlock < block.number, \"match is not finished\");\n        _;\n    }\n\n    constructor(address usdtContractAddress) {\n        USDT_ADDRESS = usdtContractAddress;\n    }\n\n    function createAuction(\n        string memory matchId, \n        uint96 openBlock, \n        uint96 expiryBlock,\n        uint32 expiryExtension,\n        uint96 minIncrement, \n        NFT[] memory nfts) external nonReentrant {\n\n        // check if matchId is occupied\n        require(matches[matchId].creatorAddress == ADDRESS_NULL, \"matchId is occupied\");\n        \n        // check valid openBlock, expiryBlock, expiryExtensionOnBidUpdate\n        require(expiryBlock > openBlock && openBlock > block.number, \"condition expiryBlock > openBlock > current block count not satisfied\");\n        require(expiryBlock - openBlock > BLOCKS_TO_EXPIRE * 2,      \"auction time must not less than 2x BLOCKS_TO_EXPIRE\");\n\n        // check increment\n        require(minIncrement < 100, \"increment must be greater than 0 and less than 100%\");\n        \n        // check item count\n        require(nfts.length > 0 && nfts.length <= MAX_ITEM_PER_AUCTION, \"number of nft must be greater than 0 and less than MAX_ITEM_PER_AUCTION\");\n\n        // deposit item to contract\n        for(uint i = 0; i < nfts.length; ++i) {\n            \n            require(nfts[i].minBid > 1, \"minBid must be greater than 1\");\n            require(minIncrement * nfts[i].minBid / 100 > 0, \"increment should be greater than 0\");\n            \n            // if meet requirements then send tokens to contract\n            IERC721(nfts[i].contractAddress).safeTransferFrom(msg.sender, address(this), nfts[i].tokenId);\n            \n            // create slots for items\n            matchResults[matchId][i]    = AuctionResult(ADDRESS_NULL, nfts[i].minBid);\n            matchNFTs[matchId][i]       = nfts[i];\n        }\n\n        // create match\n        matches[matchId] = Match(\n            msg.sender,\n            minIncrement, // percentage based\n            openBlock,\n            expiryBlock,\n            expiryExtension, // expiryBlock will be extend (+=) for expiryExtension block(s) if bid updated in range [expiryBlock - expiryExtension + 1 .. expiryBlock]\n            uint32(nfts.length)\n        );\n\n        // emit events\n        // reateAuctionEvent(address creatorAddress, string matchId, uint96 openBlock, uint96 expiryBlock, uint96 increment, uint32 expiryExtension, NFT[] nfts);\n        emit CreateAuctionEvent(msg.sender, matchId, openBlock, expiryBlock, minIncrement, expiryExtension, nfts);\n    }\n\n    function player_bid(string memory matchId, uint tokenIndex, uint amount) external nonReentrant validTokenIndex(matchId, tokenIndex) {\n        Match memory amatch = matches[matchId];\n        address playerAddress = msg.sender;\n        require(amatch.openBlock < block.number && block.number <= amatch.expiryBlock, \"match is not opened for bidding\");\n        \n        AuctionResult memory auctionResult = matchResults[matchId][tokenIndex];\n        uint    standingBid     = auctionResult.standingBid;\n        uint    nftMinBid       = matchNFTs[matchId][tokenIndex].minBid;\n        uint    increment       = nftMinBid * amatch.minIncrement / 100;\n        \n        // check valid amount (> current wining, not doubled value compare to standing bid, sender someone different from winner)\n        // known issue: Auction creator should be aware of the case where stadingBid = 1 and min increment >= 1\n        require(\n            amount < 2 * standingBid && \n            amount > standingBid && \n            amount - standingBid >= increment, \n            \"illegal increment\"\n        );\n\n        // update the winner for that token\n        matchResults[matchId][tokenIndex] = AuctionResult(playerAddress, amount);\n    \n        // if in BLOCKS_TO_EXPIRE blocks then extends the auction expiry time\n        if (amatch.expiryBlock - block.number < BLOCKS_TO_EXPIRE) {\n            amatch.expiryBlock += amatch.expiryExtension;\n            matches[matchId].expiryBlock = amatch.expiryBlock;\n        }\n\n        // just transfer (amount - currentBid) of that person to contract\n        uint transferAmount = amount - playerBid[matchId][playerAddress][tokenIndex]; // sure that amount always higher than current\n        playerBid[matchId][playerAddress][tokenIndex] = amount;\n    \n        // emit event\n        emit PlayerBidEvent(\n            matchId, \n            playerAddress,\n            tokenIndex,\n            amount, \n            amatch.expiryBlock\n        );\n        IERC20(USDT_ADDRESS).safeTransferFrom(playerAddress, address(this), transferAmount);\n    }\n\n    // player can withdraw bid if he is not winner of this match\n    function player_withdraw_bid(string memory matchId, uint tokenIndex) external nonReentrant validTokenIndex(matchId, tokenIndex) {\n        \n        // check if player is top bidder \n        address playerAddress = msg.sender;\n        require(matchResults[matchId][tokenIndex].topBidder != playerAddress, \"top bidder cannot withdraw\");\n\n        uint amount = playerBid[matchId][playerAddress][tokenIndex];\n        require(amount > 0, \"bid must be greater than 0 to withdraw\");\n\n        // reset bid amount        \n        playerBid[matchId][playerAddress][tokenIndex] = 0;\n\n        // transfer money\n        IERC20(USDT_ADDRESS).safeTransfer(playerAddress, amount); // auto reverts on error\n    }\n\n    // anyone can call reward, top bidder and creator are incentivized to call this function to send rewards/profit\n    function reward(string memory matchId, uint tokenIndex) external validTokenIndex(matchId, tokenIndex) matchFinished(matchId) {\n        \n        address winnerAddress  = matchResults[matchId][tokenIndex].topBidder;\n        require(winnerAddress != ADDRESS_NULL, \"winner is not valid\");\n\n        // set result to null\n        matchResults[matchId][tokenIndex] = AuctionResult(ADDRESS_NULL, 0);\n\n        // increase creator's balance\n        uint standingBid = playerBid[matchId][winnerAddress][tokenIndex];\n        playerBid[matchId][winnerAddress][tokenIndex]   = 0;\n        creatorBalance[matches[matchId].creatorAddress] += standingBid;\n        \n        NFT memory nft = matchNFTs[matchId][tokenIndex];\n        // send nft to address\n        IERC721(nft.contractAddress).safeTransferFrom(address(this), winnerAddress, nft.tokenId);\n        emit RewardEvent(matchId, tokenIndex, winnerAddress);\n    }\n\n    function process_withdraw_nft(string memory matchId, uint tokenIndex) private {\n        // set standingBid to 0 to prevent withdraw again\n        matchResults[matchId][tokenIndex].standingBid = 0;\n        // transfer asset\n        NFT memory nft = matchNFTs[matchId][tokenIndex];\n        IERC721(nft.contractAddress).safeTransferFrom(address(this), msg.sender, nft.tokenId);\n    }\n\n    // reator withdraws unused nft\n    function creator_withdraw_nft_batch(string memory matchId) external creatorOnly(matchId) matchFinished(matchId) { \n        // check valid matchId, match finished\n        uint _len = matches[matchId].nftCount;\n        for(uint i = 0; i < _len; ++i) {\n            \n            // consider result\n            AuctionResult memory result = matchResults[matchId][i];\n            \n            // if no one wins the token then withdraw \n            if (result.topBidder == ADDRESS_NULL && result.standingBid > 0) {\n                process_withdraw_nft(matchId, i);\n            }\n        }\n    }\n    \n    function creator_withdraw_nft(string memory matchId, uint tokenIndex) external validTokenIndex(matchId, tokenIndex) creatorOnly(matchId) matchFinished(matchId) {\n        AuctionResult memory result = matchResults[matchId][tokenIndex];\n        require (result.topBidder == ADDRESS_NULL && result.standingBid > 0, \"token is not available to withdraw\");\n        \n        process_withdraw_nft(matchId, tokenIndex);\n    }\n\n    function creator_withdraw_profit() external {\n        uint balance = creatorBalance[msg.sender];\n        require(balance > 0, \"creator balance must be greater than 0\");\n        \n        // reset balance \n        creatorBalance[msg.sender] = 0;\n        \n        // send money\n        IERC20(USDT_ADDRESS).safeTransfer(msg.sender, balance);\n    }\n\n    function onERC721Received(address operator, address from, uint256 tokenId, bytes calldata data) external override pure returns (bytes4) {\n        // return ERC721_ONRECEIVED_RESULT to conform the interface\n        return ERC721_ONRECEIVED_RESULT;\n    }\n\n    function get_match(string memory matchId) external view returns(address, uint, uint, uint, uint, uint) {\n        Match memory amatch = matches[matchId];\n        return (\n            amatch.creatorAddress,\n            amatch.minIncrement, \n            amatch.openBlock,\n            amatch.expiryBlock,\n            amatch.expiryExtension,\n            amatch.nftCount\n        );\n    }\n\n    function get_current_result(string memory matchId, uint tokenIndex) external view returns (address, uint) {\n        return (matchResults[matchId][tokenIndex].topBidder, matchResults[matchId][tokenIndex].standingBid);\n    }\n\n    function get_player_bid(string memory matchId, address playerAddress, uint tokenIndex) external view returns(uint) {\n        return playerBid[matchId][playerAddress][tokenIndex];\n    }\n\n    function get_creator_balance(address creatorAddress) external view returns(uint) {\n        return creatorBalance[creatorAddress];\n    }\n}",
  "sourcePath": "/Users/tuminfei/Code/Nodejs/uniarts-eth-dao/contracts/core/Auction.sol",
  "compiler": {
    "name": "solc",
    "version": "0.8.4+commit.c7e474f2.Emscripten.clang"
  },
  "schemaVersion": "3.4.3",
  "updatedAt": "2021-08-19T06:26:42.254Z",
  "devdoc": {
    "kind": "dev",
    "methods": {
      "onERC721Received(address,address,uint256,bytes)": {
        "details": "Whenever an {IERC721} `tokenId` token is transferred to this contract via {IERC721-safeTransferFrom} by `operator` from `from`, this function is called. It must return its Solidity selector to confirm the token transfer. If any other value is returned or the interface is not implemented by the recipient, the transfer will be reverted. The selector can be obtained in Solidity with `IERC721.onERC721Received.selector`."
      }
    },
    "version": 1
  },
  "userdoc": {
    "kind": "user",
    "methods": {},
    "version": 1
  }
}