{
  "contractName": "Auction",
  "abi": [
    {
      "inputs": [
        {
          "internalType": "address",
          "name": "usdtContractAddress",
          "type": "address"
        }
      ],
      "stateMutability": "nonpayable",
      "type": "constructor"
    },
    {
      "anonymous": false,
      "inputs": [
        {
          "indexed": false,
          "internalType": "address",
          "name": "creatorAddress",
          "type": "address"
        },
        {
          "indexed": false,
          "internalType": "string",
          "name": "matchId",
          "type": "string"
        },
        {
          "indexed": false,
          "internalType": "uint96",
          "name": "openBlock",
          "type": "uint96"
        },
        {
          "indexed": false,
          "internalType": "uint96",
          "name": "expiryBlock",
          "type": "uint96"
        },
        {
          "indexed": false,
          "internalType": "uint96",
          "name": "increment",
          "type": "uint96"
        },
        {
          "indexed": false,
          "internalType": "uint32",
          "name": "expiryExtension",
          "type": "uint32"
        },
        {
          "indexed": false,
          "internalType": "uint256",
          "name": "tokenIndex",
          "type": "uint256"
        },
        {
          "components": [
            {
              "internalType": "address",
              "name": "contractAddress",
              "type": "address"
            },
            {
              "internalType": "uint256",
              "name": "tokenId",
              "type": "uint256"
            },
            {
              "internalType": "uint256",
              "name": "minBid",
              "type": "uint256"
            },
            {
              "internalType": "uint256",
              "name": "fixedPrice",
              "type": "uint256"
            }
          ],
          "indexed": false,
          "internalType": "struct Auction.NFT",
          "name": "nfts",
          "type": "tuple"
        }
      ],
      "name": "CreateAuctionEvent",
      "type": "event"
    },
    {
      "anonymous": false,
      "inputs": [
        {
          "indexed": false,
          "internalType": "address",
          "name": "creatorAddress",
          "type": "address"
        },
        {
          "indexed": false,
          "internalType": "uint256",
          "name": "balance",
          "type": "uint256"
        }
      ],
      "name": "CreatorWithdrawProfit",
      "type": "event"
    },
    {
      "anonymous": false,
      "inputs": [
        {
          "indexed": false,
          "internalType": "string",
          "name": "matchId",
          "type": "string"
        },
        {
          "indexed": false,
          "internalType": "address",
          "name": "playerAddress",
          "type": "address"
        },
        {
          "indexed": false,
          "internalType": "uint256",
          "name": "tokenIndex",
          "type": "uint256"
        },
        {
          "indexed": false,
          "internalType": "uint256",
          "name": "bid",
          "type": "uint256"
        },
        {
          "indexed": false,
          "internalType": "uint96",
          "name": "expiryBlock",
          "type": "uint96"
        }
      ],
      "name": "PlayerBidEvent",
      "type": "event"
    },
    {
      "anonymous": false,
      "inputs": [
        {
          "indexed": false,
          "internalType": "string",
          "name": "matchId",
          "type": "string"
        },
        {
          "indexed": false,
          "internalType": "uint256",
          "name": "tokenIndex",
          "type": "uint256"
        }
      ],
      "name": "PlayerWithdrawBid",
      "type": "event"
    },
    {
      "anonymous": false,
      "inputs": [
        {
          "indexed": false,
          "internalType": "string",
          "name": "matchId",
          "type": "string"
        },
        {
          "indexed": false,
          "internalType": "uint256",
          "name": "tokenIndex",
          "type": "uint256"
        }
      ],
      "name": "ProcessWithdrawNft",
      "type": "event"
    },
    {
      "anonymous": false,
      "inputs": [
        {
          "indexed": false,
          "internalType": "string",
          "name": "matchId",
          "type": "string"
        },
        {
          "indexed": false,
          "internalType": "uint256",
          "name": "tokenIndex",
          "type": "uint256"
        },
        {
          "indexed": false,
          "internalType": "address",
          "name": "winnerAddress",
          "type": "address"
        }
      ],
      "name": "RewardEvent",
      "type": "event"
    },
    {
      "inputs": [],
      "name": "USDT_ADDRESS",
      "outputs": [
        {
          "internalType": "address",
          "name": "",
          "type": "address"
        }
      ],
      "stateMutability": "view",
      "type": "function"
    },
    {
      "inputs": [
        {
          "internalType": "string",
          "name": "",
          "type": "string"
        },
        {
          "internalType": "uint256",
          "name": "",
          "type": "uint256"
        }
      ],
      "name": "matchNFTs",
      "outputs": [
        {
          "internalType": "address",
          "name": "contractAddress",
          "type": "address"
        },
        {
          "internalType": "uint256",
          "name": "tokenId",
          "type": "uint256"
        },
        {
          "internalType": "uint256",
          "name": "minBid",
          "type": "uint256"
        },
        {
          "internalType": "uint256",
          "name": "fixedPrice",
          "type": "uint256"
        }
      ],
      "stateMutability": "view",
      "type": "function"
    },
    {
      "inputs": [
        {
          "internalType": "string",
          "name": "",
          "type": "string"
        },
        {
          "internalType": "uint256",
          "name": "",
          "type": "uint256"
        }
      ],
      "name": "matchResults",
      "outputs": [
        {
          "internalType": "address",
          "name": "topBidder",
          "type": "address"
        },
        {
          "internalType": "uint256",
          "name": "standingBid",
          "type": "uint256"
        },
        {
          "internalType": "uint256",
          "name": "finalBid",
          "type": "uint256"
        }
      ],
      "stateMutability": "view",
      "type": "function"
    },
    {
      "inputs": [
        {
          "internalType": "string",
          "name": "",
          "type": "string"
        }
      ],
      "name": "matches",
      "outputs": [
        {
          "internalType": "address",
          "name": "creatorAddress",
          "type": "address"
        },
        {
          "internalType": "uint96",
          "name": "minIncrement",
          "type": "uint96"
        },
        {
          "internalType": "uint96",
          "name": "openBlock",
          "type": "uint96"
        },
        {
          "internalType": "uint96",
          "name": "expiryBlock",
          "type": "uint96"
        },
        {
          "internalType": "uint32",
          "name": "expiryExtension",
          "type": "uint32"
        },
        {
          "internalType": "uint32",
          "name": "nftCount",
          "type": "uint32"
        }
      ],
      "stateMutability": "view",
      "type": "function"
    },
    {
      "inputs": [
        {
          "internalType": "string",
          "name": "matchId",
          "type": "string"
        },
        {
          "internalType": "uint96",
          "name": "openBlock",
          "type": "uint96"
        },
        {
          "internalType": "uint96",
          "name": "expiryBlock",
          "type": "uint96"
        },
        {
          "internalType": "uint32",
          "name": "expiryExtension",
          "type": "uint32"
        },
        {
          "internalType": "uint96",
          "name": "minIncrement",
          "type": "uint96"
        },
        {
          "components": [
            {
              "internalType": "address",
              "name": "contractAddress",
              "type": "address"
            },
            {
              "internalType": "uint256",
              "name": "tokenId",
              "type": "uint256"
            },
            {
              "internalType": "uint256",
              "name": "minBid",
              "type": "uint256"
            },
            {
              "internalType": "uint256",
              "name": "fixedPrice",
              "type": "uint256"
            }
          ],
          "internalType": "struct Auction.NFT[]",
          "name": "nfts",
          "type": "tuple[]"
        }
      ],
      "name": "createAuction",
      "outputs": [],
      "stateMutability": "nonpayable",
      "type": "function"
    },
    {
      "inputs": [
        {
          "internalType": "string",
          "name": "matchId",
          "type": "string"
        },
        {
          "components": [
            {
              "internalType": "address",
              "name": "contractAddress",
              "type": "address"
            },
            {
              "internalType": "uint256",
              "name": "tokenId",
              "type": "uint256"
            },
            {
              "internalType": "uint256",
              "name": "minBid",
              "type": "uint256"
            },
            {
              "internalType": "uint256",
              "name": "fixedPrice",
              "type": "uint256"
            }
          ],
          "internalType": "struct Auction.NFT",
          "name": "nft",
          "type": "tuple"
        }
      ],
      "name": "addAuctionNFT",
      "outputs": [],
      "stateMutability": "nonpayable",
      "type": "function"
    },
    {
      "inputs": [
        {
          "internalType": "string",
          "name": "matchId",
          "type": "string"
        },
        {
          "internalType": "uint256",
          "name": "tokenIndex",
          "type": "uint256"
        },
        {
          "internalType": "uint256",
          "name": "amount",
          "type": "uint256"
        }
      ],
      "name": "player_bid",
      "outputs": [],
      "stateMutability": "nonpayable",
      "type": "function"
    },
    {
      "inputs": [
        {
          "internalType": "string",
          "name": "matchId",
          "type": "string"
        },
        {
          "internalType": "uint256",
          "name": "tokenIndex",
          "type": "uint256"
        }
      ],
      "name": "player_fixed_price",
      "outputs": [],
      "stateMutability": "nonpayable",
      "type": "function"
    },
    {
      "inputs": [
        {
          "internalType": "string",
          "name": "matchId",
          "type": "string"
        },
        {
          "internalType": "uint256",
          "name": "tokenIndex",
          "type": "uint256"
        }
      ],
      "name": "player_withdraw_bid",
      "outputs": [],
      "stateMutability": "nonpayable",
      "type": "function"
    },
    {
      "inputs": [
        {
          "internalType": "string",
          "name": "matchId",
          "type": "string"
        },
        {
          "internalType": "uint256",
          "name": "tokenIndex",
          "type": "uint256"
        }
      ],
      "name": "reward",
      "outputs": [],
      "stateMutability": "nonpayable",
      "type": "function"
    },
    {
      "inputs": [
        {
          "internalType": "string",
          "name": "matchId",
          "type": "string"
        }
      ],
      "name": "creator_withdraw_nft_batch",
      "outputs": [],
      "stateMutability": "nonpayable",
      "type": "function"
    },
    {
      "inputs": [
        {
          "internalType": "string",
          "name": "matchId",
          "type": "string"
        },
        {
          "internalType": "uint256",
          "name": "tokenIndex",
          "type": "uint256"
        }
      ],
      "name": "creator_withdraw_nft",
      "outputs": [],
      "stateMutability": "nonpayable",
      "type": "function"
    },
    {
      "inputs": [],
      "name": "creator_withdraw_profit",
      "outputs": [],
      "stateMutability": "nonpayable",
      "type": "function"
    },
    {
      "inputs": [
        {
          "internalType": "address",
          "name": "operator",
          "type": "address"
        },
        {
          "internalType": "address",
          "name": "from",
          "type": "address"
        },
        {
          "internalType": "uint256",
          "name": "tokenId",
          "type": "uint256"
        },
        {
          "internalType": "bytes",
          "name": "data",
          "type": "bytes"
        }
      ],
      "name": "onERC721Received",
      "outputs": [
        {
          "internalType": "bytes4",
          "name": "",
          "type": "bytes4"
        }
      ],
      "stateMutability": "pure",
      "type": "function"
    },
    {
      "inputs": [
        {
          "internalType": "string",
          "name": "matchId",
          "type": "string"
        }
      ],
      "name": "get_match",
      "outputs": [
        {
          "internalType": "address",
          "name": "",
          "type": "address"
        },
        {
          "internalType": "uint256",
          "name": "",
          "type": "uint256"
        },
        {
          "internalType": "uint256",
          "name": "",
          "type": "uint256"
        },
        {
          "internalType": "uint256",
          "name": "",
          "type": "uint256"
        },
        {
          "internalType": "uint256",
          "name": "",
          "type": "uint256"
        },
        {
          "internalType": "uint256",
          "name": "",
          "type": "uint256"
        }
      ],
      "stateMutability": "view",
      "type": "function"
    },
    {
      "inputs": [
        {
          "internalType": "string",
          "name": "matchId",
          "type": "string"
        },
        {
          "internalType": "uint256",
          "name": "tokenIndex",
          "type": "uint256"
        }
      ],
      "name": "get_current_result",
      "outputs": [
        {
          "internalType": "address",
          "name": "",
          "type": "address"
        },
        {
          "internalType": "uint256",
          "name": "",
          "type": "uint256"
        }
      ],
      "stateMutability": "view",
      "type": "function"
    },
    {
      "inputs": [
        {
          "internalType": "string",
          "name": "matchId",
          "type": "string"
        },
        {
          "internalType": "address",
          "name": "playerAddress",
          "type": "address"
        },
        {
          "internalType": "uint256",
          "name": "tokenIndex",
          "type": "uint256"
        }
      ],
      "name": "get_player_bid",
      "outputs": [
        {
          "internalType": "uint256",
          "name": "",
          "type": "uint256"
        }
      ],
      "stateMutability": "view",
      "type": "function"
    },
    {
      "inputs": [
        {
          "internalType": "address",
          "name": "creatorAddress",
          "type": "address"
        }
      ],
      "name": "get_creator_balance",
      "outputs": [
        {
          "internalType": "uint256",
          "name": "",
          "type": "uint256"
        }
      ],
      "stateMutability": "view",
      "type": "function"
    }
  ],
  "bytecode": "0x60806040523480156200001157600080fd5b5060405162003859380380620038598339810160408190526200003491620000fa565b6001600055600160a060020a038116620000d4576040517f08c379a000000000000000000000000000000000000000000000000000000000815260206004820152602c60248201527f75736474436f6e7472616374416464726573732073686f756c64206e6f74206260448201527f6520616464726573732830290000000000000000000000000000000000000000606482015260840160405180910390fd5b60068054600160a060020a031916600160a060020a03929092169190911790556200012a565b6000602082840312156200010c578081fd5b8151600160a060020a038116811462000123578182fd5b9392505050565b61371f806200013a6000396000f3fe608060405234801561001057600080fd5b506004361061011a5760003560e060020a900480638b616f1f116100a6578063df4a252c11610075578063df4a252c14610424578063e3c6623d14610437578063e552e5f8146104b0578063ecbcc04a146104c3578063efc631a8146104d657600080fd5b80638b616f1f14610365578063b3bdac05146103af578063b4add993146103c2578063c1892058146103f957600080fd5b806338dfdcb6116100ed57806338dfdcb614610276578063458110a3146102a8578063479f7e89146102bb578063528f0f561461033f5780637a3c85311461035257600080fd5b80630c97531b1461011f578063150b7a021461013457806318200e9e1461019f57806332ac752b146101b2575b600080fd5b61013261012d366004612ed4565b6104de565b005b61016c610142366004612e1e565b7f150b7a023d4804d13e8c85fb27262cb750cf6ba9f9dd3bb30d90f482ceeb4b1f95945050505050565b6040517bffffffffffffffffffffffffffffffffffffffffffffffffffffffff1990911681526020015b60405180910390f35b6101326101ad366004612fa9565b610690565b6102296101c0366004612ed4565b805180820160209081018051600180835293830192909401919091209290528154910154600160a060020a038216916001606060020a0360a060020a90910481169180821691606060020a8204169063ffffffff60c060020a820481169160e060020a90041686565b60408051600160a060020a0390971687526001606060020a039586166020880152938516938601939093529216606084015263ffffffff91821660808401521660a082015260c001610196565b610289610284366004612fa9565b6107a1565b60408051600160a060020a039093168352602083019190915201610196565b6101326102b6366004612fec565b610815565b6103156102c9366004612fa9565b8151602081840181018051600280835293830195830195909520949052929092526000908152604090208054600182015492820154600390920154600160a060020a0390911692919084565b60408051600160a060020a0390951685526020850193909352918301526060820152608001610196565b61013261034d366004612fa9565b610d3a565b610132610360366004613038565b610fb1565b610378610373366004612ed4565b61173d565b60408051600160a060020a0390971687526020870195909552938501929092526060840152608083015260a082015260c001610196565b6101326103bd366004612f5c565b6117f3565b6103eb6103d0366004612e04565b600160a060020a031660009081526005602052604090205490565b604051908152602001610196565b60065461040c90600160a060020a031681565b604051600160a060020a039091168152602001610196565b610132610432366004612fa9565b611c68565b61048b610445366004612fa9565b815160208184018101805160038252928201948201949094209190935290915260009081526040902080546001820154600290920154600160a060020a03909116919083565b60408051600160a060020a039094168452602084019290925290820152606001610196565b6101326104be366004612fa9565b611f12565b6103eb6104d1366004612f07565b6123fd565b610132612448565b8033600160a060020a03166001826040516104f99190613182565b90815260405190819003602001902054600160a060020a0316146105675760405160e560020a62461bcd02815260206004820152601560248201527f63726561746f72206f6e6c792066756e6374696f6e000000000000000000000060448201526064015b60405180910390fd5b81436001826040516105799190613182565b908152604051908190036020019020600101546001606060020a03606060020a90910416106105bd5760405160e560020a62461bcd02815260040161055e90613434565b60006001846040516105cf9190613182565b9081526040519081900360200190206001015463ffffffff60e060020a90910416905060005b8181101561068957600060038660405161060f9190613182565b908152604080516020928190038301812060008681529084528290206060820183528054600160a060020a031680835260018201549483019490945260020154918101919091529150158015610669575060008160200151115b15610678576106788683612533565b506106828161369c565b90506105f5565b5050505050565b81816000600160a060020a03166001836040516106ad9190613182565b90815260405190819003602001902054600160a060020a031614156106e75760405160e560020a62461bcd02815260040161055e906133fd565b6001826040516106f79190613182565b9081526040519081900360200190206001015463ffffffff60e060020a9091041681106107395760405160e560020a62461bcd02815260040161055e9061346b565b834360018260405161074b9190613182565b908152604051908190036020019020600101546001606060020a03606060020a909104161061078f5760405160e560020a62461bcd02815260040161055e90613434565b6107998585612676565b505050505050565b6000806003846040516107b49190613182565b908152604080519182900360209081018320600087815291522054600160a060020a0316906003906107e7908790613182565b9081526020016040518091039020600085815260200190815260200160002060010154915091509250929050565b6002600054141561083b5760405160e560020a62461bcd02815260040161055e90613525565b6002600090815560405184918491600190610857908590613182565b90815260405190819003602001902054600160a060020a031614156108915760405160e560020a62461bcd02815260040161055e906133fd565b6001826040516108a19190613182565b9081526040519081900360200190206001015463ffffffff60e060020a9091041681106108e35760405160e560020a62461bcd02815260040161055e9061346b565b60006001866040516108f59190613182565b90815260408051918290036020908101832060c0840183528054600160a060020a03811685526001606060020a0360a060020a90910481169285019290925260010154808216928401839052606060020a8104909116606084015263ffffffff60c060020a82048116608085015260e060020a9091041660a0830152909150339043118015610991575081606001516001606060020a03164311155b6109e05760405160e560020a62461bcd02815260206004820152601f60248201527f6d61746368206973206e6f74206f70656e656420666f722062696464696e6700604482015260640161055e565b60006003886040516109f29190613182565b908152604080516020928190038301812060008b81529084528281206060830184528054600160a060020a0316835260018101549483018590526002908101548385015292519194509190610a48908c90613182565b908152602001604051809103902060008a81526020019081526020016000206002015490506000606486602001516001606060020a031683610a8a9190613612565b610a9491906135ef565b9050610aa1836002613612565b89108015610aae57508289115b8015610ac3575080610ac0848b613631565b10155b610b125760405160e560020a62461bcd02815260206004820152601160248201527f696c6c6567616c20696e6372656d656e74000000000000000000000000000000604482015260640161055e565b604051806060016040528086600160a060020a031681526020018a81526020018a81525060038c604051610b469190613182565b908152604080516020928190038301902060008e815290835281902083518154600160a060020a031916600160a060020a0390911617815591830151600183015591909101516002909101556060860151600890610bae9043906001606060020a0316613631565b1015610c2857856080015163ffffffff1686606001818151610bd091906135cd565b6001606060020a03169052506060860151604051600190610bf2908e90613182565b9081526020016040518091039020600101600c6101000a8154816001606060020a0302191690836001606060020a031602179055505b600060048c604051610c3a9190613182565b9081526040805160209281900383019020600160a060020a03891660009081529083528181208e8252909252902054610c73908b613631565b90508960048d604051610c869190613182565b9081526020016040518091039020600088600160a060020a0316600160a060020a0316815260200190815260200160002060008d8152602001908152602001600020819055507f18fd97230ae5f6949392b9c1f01de56b7f025e5ce8085c22eb32ee8dad59e53c8c878d8d8b60600151604051610d07959493929190613303565b60405180910390a1600654610d2790600160a060020a03168730846129a2565b5050600160005550505050505050505050565b81816000600160a060020a0316600183604051610d579190613182565b90815260405190819003602001902054600160a060020a03161415610d915760405160e560020a62461bcd02815260040161055e906133fd565b600182604051610da19190613182565b9081526040519081900360200190206001015463ffffffff60e060020a909104168110610de35760405160e560020a62461bcd02815260040161055e9061346b565b8333600160a060020a0316600182604051610dfe9190613182565b90815260405190819003602001902054600160a060020a031614610e675760405160e560020a62461bcd02815260206004820152601560248201527f63726561746f72206f6e6c792066756e6374696f6e0000000000000000000000604482015260640161055e565b8443600182604051610e799190613182565b908152604051908190036020019020600101546001606060020a03606060020a9091041610610ebd5760405160e560020a62461bcd02815260040161055e90613434565b6000600387604051610ecf9190613182565b908152604080516020928190038301812060008a81529084528290206060820183528054600160a060020a031680835260018201549483019490945260020154918101919091529150158015610f29575060008160200151115b610f9e5760405160e560020a62461bcd02815260206004820152602260248201527f746f6b656e206973206e6f7420617661696c61626c6520746f2077697468647260448201527f6177000000000000000000000000000000000000000000000000000000000000606482015260840161055e565b610fa88787612533565b50505050505050565b60026000541415610fd75760405160e560020a62461bcd02815260040161055e90613525565b60026000908155604051600190610fef908990613182565b90815260405190819003602001902054600160a060020a0316146110585760405160e560020a62461bcd02815260206004820152601360248201527f6d617463684964206973206f6363757069656400000000000000000000000000604482015260640161055e565b846001606060020a0316846001606060020a0316118015611081575043856001606060020a0316115b61111c5760405160e560020a62461bcd02815260206004820152604560248201527f636f6e646974696f6e20657870697279426c6f636b203e206f70656e426c6f6360448201527f6b203e2063757272656e7420626c6f636b20636f756e74206e6f74207361746960648201527f7366696564000000000000000000000000000000000000000000000000000000608482015260a40161055e565b61112860086002613612565b6111328686613648565b6001606060020a0316116111b15760405160e560020a62461bcd02815260206004820152603360248201527f61756374696f6e2074696d65206d757374206e6f74206c657373207468616e2060448201527f327820424c4f434b535f544f5f45585049524500000000000000000000000000606482015260840161055e565b6064826001606060020a0316106112335760405160e560020a62461bcd02815260206004820152603360248201527f696e6372656d656e74206d7573742062652067726561746572207468616e203060448201527f20616e64206c657373207468616e203130302500000000000000000000000000606482015260840161055e565b6000815111801561124657506020815111155b6112655760405160e560020a62461bcd02815260040161055e906134a2565b60005b81518110156115765760018282815181106112965760e060020a634e487b7102600052603260045260246000fd5b602002602001015160400151116112f25760405160e560020a62461bcd02815260206004820152601d60248201527f6d696e426964206d7573742062652067726561746572207468616e2031000000604482015260640161055e565b600060648383815181106113195760e060020a634e487b7102600052603260045260246000fd5b602002602001015160400151856001606060020a03166113399190613612565b61134391906135ef565b116113635760405160e560020a62461bcd02815260040161055e906133a0565b8181815181106113865760e060020a634e487b7102600052603260045260246000fd5b602002602001015160000151600160a060020a03166342842e0e33308585815181106113c55760e060020a634e487b7102600052603260045260246000fd5b6020026020010151602001516040518463ffffffff1660e060020a0281526004016113f29392919061319e565b600060405180830381600087803b15801561140c57600080fd5b505af1158015611420573d6000803e3d6000fd5b5050505060405180606001604052806000600160a060020a031681526020018383815181106114625760e060020a634e487b7102600052603260045260246000fd5b602002602001015160400151815260200160008152506003886040516114889190613182565b9081526040805160209281900383019020600085815290835281902083518154600160a060020a031916600160a060020a03909116178155918301516001830155919091015160029091015581518290829081106114f95760e060020a634e487b7102600052603260045260246000fd5b60200260200101516002886040516115119190613182565b9081526040805160209281900383019020600085815290835281902083518154600160a060020a031916600160a060020a03909116178155918301516001830155820151600282015560609091015160039091015561156f8161369c565b9050611268565b506040805160c0810182523381526001606060020a038085166020830152878116828401528616606082015263ffffffff808616608083015283511660a082015290516001906115c7908990613182565b9081526040805160209281900383019020835192840151600160a060020a0390931660a060020a6001606060020a039485160217815590830151600190910180546060850151608086015160a09096015193851677ffffffffffffffffffffffffffffffffffffffffffffffff1990921691909117606060020a91909416029290921777ffffffffffffffffffffffffffffffffffffffffffffffff1660c060020a63ffffffff948516027bffffffffffffffffffffffffffffffffffffffffffffffffffffffff161760e060020a939091169290920291909117905560005b815181101561172f577f79f1ba6b3396cec383bb7680274275859059630e36a22d1678f4347c0cba51b4338888888789878989815181106116fb5760e060020a634e487b7102600052603260045260246000fd5b60200260200101516040516117179897969594939291906131c2565b60405180910390a16117288161369c565b90506116a7565b505060016000555050505050565b60008060008060008060006001886040516117589190613182565b90815260408051918290036020908101832060c0840183528054600160a060020a0381168086526001606060020a0360a060020a9092048216938601849052600190920154808216948601859052606060020a81049091166060860181905263ffffffff60c060020a830481166080880181905260e060020a9093041660a0909601869052919d929c50929a50985090965090945092505050565b600260005414156118195760405160e560020a62461bcd02815260040161055e90613525565b60026000556040514390600190611831908590613182565b908152604051908190036020019020600101546001606060020a03606060020a9091041610156118a65760405160e560020a62461bcd02815260206004820152601560248201527f746865206d617463682069732066696e69736865640000000000000000000000604482015260640161055e565b6000600160a060020a03166001836040516118c19190613182565b90815260405190819003602001902054600160a060020a0316141561192b5760405160e560020a62461bcd02815260206004820152601460248201527f6d617463684964206e6f6e2d6578697374656e74000000000000000000000000604482015260640161055e565b600060018360405161193d9190613182565b90815260405160209181900382019020600181015490925060e060020a900463ffffffff169081106119845760405160e560020a62461bcd02815260040161055e906134a2565b60018360400151116119db5760405160e560020a62461bcd02815260206004820152601d60248201527f6d696e426964206d7573742062652067726561746572207468616e2031000000604482015260640161055e565b60408301518254600091606491611a02919060a060020a90046001606060020a0316613612565b611a0c91906135ef565b11611a2c5760405160e560020a62461bcd02815260040161055e906133a0565b825160208401516040517f42842e0e000000000000000000000000000000000000000000000000000000008152600160a060020a03909216916342842e0e91611a7b913391309160040161319e565b600060405180830381600087803b158015611a9557600080fd5b505af1158015611aa9573d6000803e3d6000fd5b5050505060405180606001604052806000600160a060020a03168152602001846040015181526020016000815250600385604051611ae79190613182565b908152604080516020928190038301812063ffffffff8616600090815290845282902084518154600160a060020a031916600160a060020a039091161781559284015160018401559201516002918201558491611b45908790613182565b908152604080516020928190038301902063ffffffff8516600090815290835281902083518154600160a060020a031916600160a060020a0390911617815591830151600180840191909155908301516002830155606090920151600390910155611bb19082906135a5565b6001830180547bffffffffffffffffffffffffffffffffffffffffffffffffffffffff811660e060020a63ffffffff948516029081179283905585546040517f79f1ba6b3396cec383bb7680274275859059630e36a22d1678f4347c0cba51b495611c559533958c956001606060020a039182169082161794606060020a830482169460a060020a9091049091169260c060020a9092049091169089908c9061325f565b60405180910390a1505060016000555050565b60026000541415611c8e5760405160e560020a62461bcd02815260040161055e90613525565b6002600090815560405183918391600190611caa908590613182565b90815260405190819003602001902054600160a060020a03161415611ce45760405160e560020a62461bcd02815260040161055e906133fd565b600182604051611cf49190613182565b9081526040519081900360200190206001015463ffffffff60e060020a909104168110611d365760405160e560020a62461bcd02815260040161055e9061346b565b60405133908190600390611d4b908890613182565b908152604080516020928190038301902060008881529252902054600160a060020a03161415611dc05760405160e560020a62461bcd02815260206004820152601a60248201527f746f70206269646465722063616e6e6f74207769746864726177000000000000604482015260640161055e565b6000600486604051611dd29190613182565b9081526040805160209281900383019020600160a060020a0385166000908152908352818120888252909252902054905080611e795760405160e560020a62461bcd02815260206004820152602660248201527f626964206d7573742062652067726561746572207468616e203020746f20776960448201527f7468647261770000000000000000000000000000000000000000000000000000606482015260840161055e565b6000600487604051611e8b9190613182565b9081526040805160209281900383019020600160a060020a0386811660009081529184528282208a83529093522091909155600654611ecc91168383612a2d565b7fe52c89ae59d5e3dd4f42a0ee449ca0fd232fe794ead560f455c44480e114c2258686604051611efd92919061334c565b60405180910390a15050600160005550505050565b60026000541415611f385760405160e560020a62461bcd02815260040161055e90613525565b6002600090815560405183918391600190611f54908590613182565b90815260405190819003602001902054600160a060020a03161415611f8e5760405160e560020a62461bcd02815260040161055e906133fd565b600182604051611f9e9190613182565b9081526040519081900360200190206001015463ffffffff60e060020a909104168110611fe05760405160e560020a62461bcd02815260040161055e9061346b565b6000600185604051611ff29190613182565b90815260408051918290036020908101832060c0840183528054600160a060020a03811685526001606060020a0360a060020a90910481169285019290925260010154808216928401839052606060020a8104909116606084015263ffffffff60c060020a82048116608085015260e060020a9091041660a083015290915033904311801561208e575081606001516001606060020a03164311155b6120dd5760405160e560020a62461bcd02815260206004820152601f60248201527f6d61746368206973206e6f74206f70656e656420666f722062696464696e6700604482015260640161055e565b60006003876040516120ef9190613182565b908152604080516020928190038301812060008a81529084528281206060830184528054600160a060020a0316835260018101549483018590526002908101548385015292519194509190612145908b90613182565b908152602001604051809103902060008981526020019081526020016000206003015490508181116121e25760405160e560020a62461bcd02815260206004820152602760248201527f5374616e64696e6762696420686173206578636565646564207468652066697860448201527f6564507269636500000000000000000000000000000000000000000000000000606482015260840161055e565b604051806060016040528085600160a060020a031681526020018281526020018281525060038a6040516122169190613182565b908152604080516020928190038301902060008c815290835281902083518154600160a060020a031916600160a060020a039091161781559183015160018301559190910151600290910155606085015160089061227e9043906001606060020a0316613631565b10156122f857846080015163ffffffff16856060018181516122a091906135cd565b6001606060020a031690525060608501516040516001906122c2908c90613182565b9081526020016040518091039020600101600c6101000a8154816001606060020a0302191690836001606060020a031602179055505b600060048a60405161230a9190613182565b9081526040805160209281900383019020600160a060020a03881660009081529083528181208c82529092529020546123439083613631565b90508160048b6040516123569190613182565b908152604080519182900360209081018320600160a060020a038a1660009081529082528281208e8252909152209190915560608701517f18fd97230ae5f6949392b9c1f01de56b7f025e5ce8085c22eb32ee8dad59e53c916123c1918d9189918e91889190613303565b60405180910390a16006546123e190600160a060020a03168630846129a2565b6123eb8a8a612676565b50506001600055505050505050505050565b600060048460405161240f9190613182565b9081526040805160209281900383019020600160a060020a038616600090815290835281812085825290925290205490505b9392505050565b33600090815260056020526040902054806124ce5760405160e560020a62461bcd02815260206004820152602660248201527f63726561746f722062616c616e6365206d75737420626520677265617465722060448201527f7468616e20300000000000000000000000000000000000000000000000000000606482015260840161055e565b336000818152600560205260408120556006546124f791600160a060020a039091169083612a2d565b60408051338152602081018390527fffc88570d28bf95def0cf0e57bee4039feec71380d468be43b898b9e69b01ebb910160405180910390a150565b60006003836040516125459190613182565b9081526040805191829003602090810183206000868152915290812060010192909255600290612576908590613182565b90815260408051918290036020908101832060008681529082528290206080840183528054600160a060020a03168085526001820154928501839052600282015485850152600390910154606085015291517f42842e0e00000000000000000000000000000000000000000000000000000000815292935090916342842e0e91612606913091339160040161319e565b600060405180830381600087803b15801561262057600080fd5b505af1158015612634573d6000803e3d6000fd5b505050507fa028f70b1a82d8501d34d76d76b13b9130b49e7fc55bb89f647a44d3eac5f0fd838360405161266992919061334c565b60405180910390a1505050565b6000806003846040516126899190613182565b90815260408051602092819003830181206000878152935290822054600160a060020a031692506003906126be908790613182565b9081526040805160209281900383019020600087815292529020600201549050600160a060020a0382166127375760405160e560020a62461bcd02815260206004820152601360248201527f77696e6e6572206973206e6f742076616c696400000000000000000000000000604482015260640161055e565b60408051606081018252600080825260208201528082018390529051600390612761908890613182565b908152604080519182900360209081018320600089815290825282812085518154600160a060020a03909116600160a060020a031990911617815591850151600183015593909101516002909101556004906127be908890613182565b9081526040805160209281900383018120600160a060020a03871660009081529084528281208982529093529082205492506004906127fe908990613182565b908152604080519182900360209081018320600160a060020a03881660009081529082528281208a8252909152908120929092558291600591600190612845908b90613182565b908152604080516020928190038301902054600160a060020a0316835290820192909252016000908120805490919061287f90849061358d565b9250508190555060006002876040516128989190613182565b90815260408051918290036020908101832060008a81529082528290206080840183528054600160a060020a03168085526001820154928501839052600282015485850152600390910154606085015291517f42842e0e00000000000000000000000000000000000000000000000000000000815292935090916342842e0e91612928913091899160040161319e565b600060405180830381600087803b15801561294257600080fd5b505af1158015612956573d6000803e3d6000fd5b505050507f4724291f3c939ed02ed238c50d61263622fc1d0871d7aaa264d743475de5b72b87878660405161298d9392919061336e565b60405180910390a15060019695505050505050565b612a27846323b872dd60e060020a028585856040516024016129c69392919061319e565b60408051601f198184030181529190526020810180517bffffffffffffffffffffffffffffffffffffffffffffffffffffffff167bffffffffffffffffffffffffffffffffffffffffffffffffffffffff1990931692909217909152612a7b565b50505050565b604051600160a060020a038316602482015260448101829052612a769084907fa9059cbb00000000000000000000000000000000000000000000000000000000906064016129c6565b505050565b6000612ad0826040518060400160405280602081526020017f5361666545524332303a206c6f772d6c6576656c2063616c6c206661696c656481525085600160a060020a0316612b639092919063ffffffff16565b805190915015612a765780806020019051810190612aee9190612eb4565b612a765760405160e560020a62461bcd02815260206004820152602a60248201527f5361666545524332303a204552433230206f7065726174696f6e20646964206e60448201527f6f74207375636365656400000000000000000000000000000000000000000000606482015260840161055e565b6060612b728484600085612b7a565b949350505050565b60603031831115612bf65760405160e560020a62461bcd02815260206004820152602660248201527f416464726573733a20696e73756666696369656e742062616c616e636520666f60448201527f722063616c6c0000000000000000000000000000000000000000000000000000606482015260840161055e565b843b612c475760405160e560020a62461bcd02815260206004820152601d60248201527f416464726573733a2063616c6c20746f206e6f6e2d636f6e7472616374000000604482015260640161055e565b60008086600160a060020a03168587604051612c639190613182565b60006040518083038185875af1925050503d8060008114612ca0576040519150601f19603f3d011682016040523d82523d6000602084013e612ca5565b606091505b5091509150612cb5828286612cc0565b979650505050505050565b60608315612ccf575081612441565b825115612cdf5782518084602001fd5b8160405160e560020a62461bcd02815260040161055e91906132f0565b8035600160a060020a0381168114612d1357600080fd5b919050565b600082601f830112612d28578081fd5b813567ffffffffffffffff811115612d4257612d426136d0565b612d55601f8201601f191660200161355c565b818152846020838601011115612d69578283fd5b816020850160208301379081016020019190915292915050565b600060808284031215612d94578081fd5b6040516080810181811067ffffffffffffffff82111715612db757612db76136d0565b604052905080612dc683612cfc565b81526020830135602082015260408301356040820152606083013560608201525092915050565b80356001606060020a0381168114612d1357600080fd5b600060208284031215612e15578081fd5b61244182612cfc565b600080600080600060808688031215612e35578081fd5b612e3e86612cfc565b9450612e4c60208701612cfc565b935060408601359250606086013567ffffffffffffffff80821115612e6f578283fd5b818801915088601f830112612e82578283fd5b813581811115612e90578384fd5b896020828501011115612ea1578384fd5b9699959850939650602001949392505050565b600060208284031215612ec5578081fd5b81518015158114612441578182fd5b600060208284031215612ee5578081fd5b813567ffffffffffffffff811115612efb578182fd5b612b7284828501612d18565b600080600060608486031215612f1b578283fd5b833567ffffffffffffffff811115612f31578384fd5b612f3d86828701612d18565b935050612f4c60208501612cfc565b9150604084013590509250925092565b60008060a08385031215612f6e578182fd5b823567ffffffffffffffff811115612f84578283fd5b612f9085828601612d18565b925050612fa08460208501612d83565b90509250929050565b60008060408385031215612fbb578182fd5b823567ffffffffffffffff811115612fd1578283fd5b612fdd85828601612d18565b95602094909401359450505050565b600080600060608486031215613000578283fd5b833567ffffffffffffffff811115613016578384fd5b61302286828701612d18565b9660208601359650604090950135949350505050565b60008060008060008060c08789031215613050578081fd5b863567ffffffffffffffff80821115613067578283fd5b6130738a838b01612d18565b975060209150613084828a01612ded565b965061309260408a01612ded565b9550606089013563ffffffff811681146130aa578384fd5b945060806130b98a8201612ded565b945060a08a0135828111156130cc578485fd5b8a01601f81018c136130dc578485fd5b8035838111156130ee576130ee6136d0565b6130fb858683020161355c565b8181528581019450828601848302840187018f1015613118578788fd5b8793505b828410156131425761312e8f82612d83565b86529486019460019390930192840161311c565b508096505050505050509295509295509295565b6000815180845261316e816020860160208601613670565b601f01601f19169290920160200192915050565b60008251613194818460208701613670565b9190910192915050565b600160a060020a039384168152919092166020820152604081019190915260600190565b6000610160600160a060020a038b1683528060208401526131e58184018b613156565b9150506001606060020a038089166040840152808816606084015280871660808401525063ffffffff851660a08301528360c083015261325260e0830184600160a060020a0381511682526020810151602083015260408101516040830152606081015160608301525050565b9998505050505050505050565b6000610160600160a060020a038b1683528060208401526132828184018b613156565b6001606060020a038a8116604086015289811660608601528816608085015263ffffffff87811660a0860152861660c08501529150613252905060e0830184600160a060020a0381511682526020810151602083015260408101516040830152606081015160608301525050565b6020815260006124416020830184613156565b60a08152600061331660a0830188613156565b9050600160a060020a03861660208301528460408301528360608301526001606060020a03831660808301529695505050505050565b60408152600061335f6040830185613156565b90508260208301529392505050565b6060815260006133816060830186613156565b9050836020830152600160a060020a0383166040830152949350505050565b60208082526022908201527f696e6372656d656e742073686f756c642062652067726561746572207468616e60408201527f2030000000000000000000000000000000000000000000000000000000000000606082015260800190565b6020808252600d908201527f696e76616c6964206d6174636800000000000000000000000000000000000000604082015260600190565b60208082526015908201527f6d61746368206973206e6f742066696e69736865640000000000000000000000604082015260600190565b6020808252600d908201527f696e76616c696420746f6b656e00000000000000000000000000000000000000604082015260600190565b60208082526047908201527f6e756d626572206f66206e6674206d757374206265206772656174657220746860408201527f616e203020616e64206c657373207468616e204d41585f4954454d5f5045525f60608201527f41554354494f4e00000000000000000000000000000000000000000000000000608082015260a00190565b6020808252601f908201527f5265656e7472616e637947756172643a207265656e7472616e742063616c6c00604082015260600190565b604051601f8201601f1916810167ffffffffffffffff81118282101715613585576135856136d0565b604052919050565b600082198211156135a0576135a06136b7565b500190565b600063ffffffff8083168185168083038211156135c4576135c46136b7565b01949350505050565b60006001606060020a038083168185168083038211156135c4576135c46136b7565b60008261360d5760e060020a634e487b710281526012600452602481fd5b500490565b600081600019048311821515161561362c5761362c6136b7565b500290565b600082821015613643576136436136b7565b500390565b60006001606060020a0383811690831681811015613668576136686136b7565b039392505050565b60005b8381101561368b578181015183820152602001613673565b83811115612a275750506000910152565b60006000198214156136b0576136b06136b7565b5060010190565b60e060020a634e487b7102600052601160045260246000fd5b60e060020a634e487b7102600052604160045260246000fdfea2646970667358221220d462e5d6d227cf39daa360dd40777ab635bc73cccfdaeca4a920cfb98735364064736f6c63430008040033",
  "immutableReferences": {},
  "source": "// SPDX-License-Identifier: MIT\npragma solidity ^0.8.0;\n\nimport \"@openzeppelin/contracts/token/ERC20/IERC20.sol\";\nimport \"@openzeppelin/contracts/token/ERC20/utils/SafeERC20.sol\";\nimport \"@openzeppelin/contracts/token/ERC721/IERC721.sol\";\nimport \"@openzeppelin/contracts/token/ERC721/IERC721Receiver.sol\";\nimport \"@openzeppelin/contracts/security/ReentrancyGuard.sol\";\n\ncontract Auction is ReentrancyGuard, IERC721Receiver {\n\n    // using safeErc20 for ierc20 based contract\n    using SafeERC20 for IERC20;\n\n    // constants\n    address constant ADDRESS_NULL             = 0x0000000000000000000000000000000000000000;\n    \n    // max item allow per auction, should not be more than 2^32-1\n    uint    constant MAX_ITEM_PER_AUCTION     = 32;\n    \n    uint    constant BLOCKS_TO_EXPIRE         = 8;\n    \n    bytes4  constant ERC721_ONRECEIVED_RESULT = bytes4(keccak256(\"onERC721Received(address,address,uint256,bytes)\"));\n    // uint constant MAX_UINT96 = type(uint96).max;\n\n    // structs\n    struct NFT {\n        address contractAddress;\n        uint    tokenId;\n        uint    minBid;\n        uint    fixedPrice;\n    }\n    \n    struct AuctionResult {\n        address topBidder;\n        uint standingBid;\n        uint finalBid;\n    }\n\n    struct Match {\n        address creatorAddress;\n        uint96 minIncrement; // percentage based\n        uint96 openBlock;\n        uint96 expiryBlock;\n        uint32 expiryExtension; // expiryBlock will be extend (+=) for expiryExtension block(s) if bid updated in range [expiryBlock - expiryExtension + 1 .. expiryBlock]\n        uint32 nftCount;\n    }\n\n    // state\n    // matchId => Match\n    mapping(string => Match) public  matches;\n\n    // matchId => index => NFT\n    mapping(string => mapping(uint => NFT)) public  matchNFTs;\n    \n    // matchId => Result\n    mapping(string => mapping(uint => AuctionResult)) public  matchResults;\n    \n    // matchId => player => tokenIndex => price\n    mapping(string => mapping(address => mapping(uint => uint))) private playerBid;\n\n    // address to balance\n    mapping(address => uint) private creatorBalance;\n\n    // events\n    event CreateAuctionEvent(address creatorAddress, string matchId, uint96 openBlock, uint96 expiryBlock, uint96 increment, uint32 expiryExtension, uint tokenIndex, NFT nfts);\n    event PlayerBidEvent(string matchId, address playerAddress, uint tokenIndex, uint bid, uint96 expiryBlock);\n    event RewardEvent(string matchId, uint tokenIndex, address winnerAddress);\n    event PlayerWithdrawBid(string matchId, uint tokenIndex);\n    event ProcessWithdrawNft(string matchId, uint tokenIndex);\n    event CreatorWithdrawProfit(address creatorAddress, uint256 balance);\n\n    // base erc20 token\n    address public USDT_ADDRESS;\n\n    // modifier \n    modifier validTokenIndex(string memory matchId, uint tokenIndex) {\n        require(matches[matchId].creatorAddress != ADDRESS_NULL, \"invalid match\"); \n        require(tokenIndex < matches[matchId].nftCount, \"invalid token\");\n        _;\n    }\n\n    modifier creatorOnly(string memory matchId) {\n         require(matches[matchId].creatorAddress == msg.sender, \"creator only function\"); \n        _;\n    }\n    \n    // match finished should be used with checking valid match\n    modifier matchFinished(string memory matchId) {\n        // require(matches[matchId].creatorAddress != ADDRESS_NULL, \"invalid match\");\n        require(matches[matchId].expiryBlock < block.number, \"match is not finished\");\n        _;\n    }\n\n    constructor(address usdtContractAddress) {\n        require(usdtContractAddress != address(0), \"usdtContractAddress should not be address(0)\");\n        USDT_ADDRESS = usdtContractAddress;\n    }\n\n    function createAuction(\n        string memory matchId, \n        uint96 openBlock, \n        uint96 expiryBlock,\n        uint32 expiryExtension,\n        uint96 minIncrement, \n        NFT[] memory nfts) external nonReentrant {\n\n        // check if matchId is occupied\n        require(matches[matchId].creatorAddress == ADDRESS_NULL, \"matchId is occupied\");\n        \n        // check valid openBlock, expiryBlock, expiryExtensionOnBidUpdate\n        require(expiryBlock > openBlock && openBlock > block.number, \"condition expiryBlock > openBlock > current block count not satisfied\");\n        require(expiryBlock - openBlock > BLOCKS_TO_EXPIRE * 2,      \"auction time must not less than 2x BLOCKS_TO_EXPIRE\");\n\n        // check increment\n        require(minIncrement < 100, \"increment must be greater than 0 and less than 100%\");\n        \n        // check item count\n        require(nfts.length > 0 && nfts.length <= MAX_ITEM_PER_AUCTION, \"number of nft must be greater than 0 and less than MAX_ITEM_PER_AUCTION\");\n\n        // deposit item to contract\n        for(uint i = 0; i < nfts.length; ++i) {\n            \n            require(nfts[i].minBid > 1, \"minBid must be greater than 1\");\n            require(minIncrement * nfts[i].minBid / 100 > 0, \"increment should be greater than 0\");\n            \n            // if meet requirements then send tokens to contract\n            IERC721(nfts[i].contractAddress).safeTransferFrom(msg.sender, address(this), nfts[i].tokenId);\n            \n            // create slots for items\n            matchResults[matchId][i]    = AuctionResult(ADDRESS_NULL, nfts[i].minBid, 0);\n            matchNFTs[matchId][i]       = nfts[i];\n        }\n\n        // create match\n        matches[matchId] = Match(\n            msg.sender,\n            minIncrement, // percentage based\n            openBlock,\n            expiryBlock,\n            expiryExtension, // expiryBlock will be extend (+=) for expiryExtension block(s) if bid updated in range [expiryBlock - expiryExtension + 1 .. expiryBlock]\n            uint32(nfts.length)\n        );\n\n        // emit events\n        // reateAuctionEvent(address creatorAddress, string matchId, uint96 openBlock, uint96 expiryBlock, uint96 increment, uint32 expiryExtension, uint tokenIndex, NFT nfts);\n        for(uint i = 0; i < nfts.length; ++i) {\n            emit CreateAuctionEvent(msg.sender, matchId, openBlock, expiryBlock, minIncrement, expiryExtension, i, nfts[i]);\n        }\n    }\n\n    function addAuctionNFT(\n        string memory matchId,\n        NFT memory nft) external nonReentrant {\n\n        require(matches[matchId].expiryBlock >= block.number, \"the match is finished\");\n\n        // check if matchId is existence\n        require(matches[matchId].creatorAddress != ADDRESS_NULL, \"matchId non-existent\");\n\n        Match storage amatch = matches[matchId];\n        uint32 nftCount = amatch.nftCount;\n        \n        // check item count\n        require(amatch.nftCount < MAX_ITEM_PER_AUCTION, \"number of nft must be greater than 0 and less than MAX_ITEM_PER_AUCTION\");\n\n        // deposit item to contract\n        require(nft.minBid > 1, \"minBid must be greater than 1\");\n        require(amatch.minIncrement * nft.minBid / 100 > 0, \"increment should be greater than 0\");\n        \n        // if meet requirements then send tokens to contract\n        IERC721(nft.contractAddress).safeTransferFrom(msg.sender, address(this), nft.tokenId);\n        \n        // create slots for items\n        matchResults[matchId][nftCount] = AuctionResult(ADDRESS_NULL, nft.minBid, 0);\n        matchNFTs[matchId][nftCount]    = nft;\n\n        // update match\n        amatch.nftCount = uint32(nftCount + 1);\n        // emit events\n        // reateAuctionEvent(address creatorAddress, string matchId, uint96 openBlock, uint96 expiryBlock, uint96 increment, uint32 expiryExtension, uint tokenIndex, NFT nfts);\n        emit CreateAuctionEvent(msg.sender, matchId, amatch.openBlock, amatch.expiryBlock, amatch.minIncrement, amatch.expiryExtension, nftCount, nft);\n    }\n\n    function player_bid(string memory matchId, uint tokenIndex, uint amount) external nonReentrant validTokenIndex(matchId, tokenIndex) {\n        Match memory amatch = matches[matchId];\n        address playerAddress = msg.sender;\n        require(amatch.openBlock < block.number && block.number <= amatch.expiryBlock, \"match is not opened for bidding\");\n        \n        AuctionResult memory auctionResult = matchResults[matchId][tokenIndex];\n        uint    standingBid     = auctionResult.standingBid;\n        uint    nftMinBid       = matchNFTs[matchId][tokenIndex].minBid;\n        uint    increment       = nftMinBid * amatch.minIncrement / 100;\n        \n        // check valid amount (> current wining, not doubled value compare to standing bid, sender someone different from winner)\n        // known issue: Auction creator should be aware of the case where stadingBid = 1 and min increment >= 1\n        require(\n            amount < 2 * standingBid && \n            amount > standingBid && \n            amount - standingBid >= increment, \n            \"illegal increment\"\n        );\n\n        // update the winner for that token\n        matchResults[matchId][tokenIndex] = AuctionResult(playerAddress, amount, amount);\n    \n        // if in BLOCKS_TO_EXPIRE blocks then extends the auction expiry time\n        if (amatch.expiryBlock - block.number < BLOCKS_TO_EXPIRE) {\n            amatch.expiryBlock += amatch.expiryExtension;\n            matches[matchId].expiryBlock = amatch.expiryBlock;\n        }\n\n        // just transfer (amount - currentBid) of that person to contract\n        uint transferAmount = amount - playerBid[matchId][playerAddress][tokenIndex]; // sure that amount always higher than current\n        playerBid[matchId][playerAddress][tokenIndex] = amount;\n    \n        // emit event\n        emit PlayerBidEvent(\n            matchId, \n            playerAddress,\n            tokenIndex,\n            amount, \n            amatch.expiryBlock\n        );\n        IERC20(USDT_ADDRESS).safeTransferFrom(playerAddress, address(this), transferAmount);\n    }\n\n    function player_fixed_price(string memory matchId, uint tokenIndex) external nonReentrant validTokenIndex(matchId, tokenIndex) {\n        Match memory amatch = matches[matchId];\n        address playerAddress = msg.sender;\n        require(amatch.openBlock < block.number && block.number <= amatch.expiryBlock, \"match is not opened for bidding\");\n        \n        AuctionResult memory auctionResult = matchResults[matchId][tokenIndex];\n        uint standingBid = auctionResult.standingBid;\n        uint fixedPrice  = matchNFTs[matchId][tokenIndex].fixedPrice;\n\n        // check standingBid price\n        require(fixedPrice > standingBid, \"Standingbid has exceeded the fixedPrice\");\n\n        // update the winner for that token\n        matchResults[matchId][tokenIndex] = AuctionResult(playerAddress, fixedPrice, fixedPrice);\n    \n        // if in BLOCKS_TO_EXPIRE blocks then extends the auction expiry time\n        if (amatch.expiryBlock - block.number < BLOCKS_TO_EXPIRE) {\n            amatch.expiryBlock += amatch.expiryExtension;\n            matches[matchId].expiryBlock = amatch.expiryBlock;\n        }\n\n        // just transfer (amount - currentBid) of that person to contract\n        uint transferAmount = fixedPrice - playerBid[matchId][playerAddress][tokenIndex]; // sure that amount always higher than current\n        playerBid[matchId][playerAddress][tokenIndex] = fixedPrice;\n    \n        // emit event\n        emit PlayerBidEvent(\n            matchId, \n            playerAddress,\n            tokenIndex,\n            fixedPrice, \n            amatch.expiryBlock\n        );\n        IERC20(USDT_ADDRESS).safeTransferFrom(playerAddress, address(this), transferAmount);\n\n        // send NFT\n        _win_audit(matchId, tokenIndex);\n    }\n\n    // player can withdraw bid if he is not winner of this match\n    function player_withdraw_bid(string memory matchId, uint tokenIndex) external nonReentrant validTokenIndex(matchId, tokenIndex) {\n        \n        // check if player is top bidder \n        address playerAddress = msg.sender;\n        require(matchResults[matchId][tokenIndex].topBidder != playerAddress, \"top bidder cannot withdraw\");\n\n        uint amount = playerBid[matchId][playerAddress][tokenIndex];\n        require(amount > 0, \"bid must be greater than 0 to withdraw\");\n\n        // reset bid amount        \n        playerBid[matchId][playerAddress][tokenIndex] = 0;\n\n        // transfer money\n        IERC20(USDT_ADDRESS).safeTransfer(playerAddress, amount); // auto reverts on error\n\n        // emit events\n        // event PlayerWithdrawBid(string matchId, uint tokenIndex);\n        emit PlayerWithdrawBid(matchId, tokenIndex);\n    }\n\n    // anyone can call reward, top bidder and creator are incentivized to call this function to send rewards/profit\n    function reward(string memory matchId, uint tokenIndex) external validTokenIndex(matchId, tokenIndex) matchFinished(matchId) {\n        _win_audit(matchId, tokenIndex);\n    }\n\n    function process_withdraw_nft(string memory matchId, uint tokenIndex) private {\n        // set standingBid to 0 to prevent withdraw again\n        matchResults[matchId][tokenIndex].standingBid = 0;\n        // transfer asset\n        NFT memory nft = matchNFTs[matchId][tokenIndex];\n        IERC721(nft.contractAddress).safeTransferFrom(address(this), msg.sender, nft.tokenId);\n\n        // emit events\n        // event ProcessWithdrawNft(string matchId, uint tokenIndex);\n        emit ProcessWithdrawNft(matchId, tokenIndex);\n    }\n\n    // creator withdraws unused nft\n    function creator_withdraw_nft_batch(string memory matchId) external creatorOnly(matchId) matchFinished(matchId) { \n        // check valid matchId, match finished\n        uint _len = matches[matchId].nftCount;\n        for(uint i = 0; i < _len; ++i) {\n            \n            // consider result\n            AuctionResult memory result = matchResults[matchId][i];\n            \n            // if no one wins the token then withdraw \n            if (result.topBidder == ADDRESS_NULL && result.standingBid > 0) {\n                process_withdraw_nft(matchId, i);\n            }\n        }\n    }\n    \n    function creator_withdraw_nft(string memory matchId, uint tokenIndex) external validTokenIndex(matchId, tokenIndex) creatorOnly(matchId) matchFinished(matchId) {\n        AuctionResult memory result = matchResults[matchId][tokenIndex];\n        require (result.topBidder == ADDRESS_NULL && result.standingBid > 0, \"token is not available to withdraw\");\n        \n        process_withdraw_nft(matchId, tokenIndex);\n    }\n\n    function creator_withdraw_profit() external {\n        uint balance = creatorBalance[msg.sender];\n        require(balance > 0, \"creator balance must be greater than 0\");\n        \n        // reset balance \n        creatorBalance[msg.sender] = 0;\n        \n        // send money\n        IERC20(USDT_ADDRESS).safeTransfer(msg.sender, balance);\n        // emit events\n        // event CreatorWithdrawProfit(address creatorAddress, uint256 balance);\n        emit CreatorWithdrawProfit(msg.sender, balance);\n    }\n\n    function onERC721Received(address operator, address from, uint256 tokenId, bytes calldata data) external override pure returns (bytes4) {\n        // return ERC721_ONRECEIVED_RESULT to conform the interface\n        return ERC721_ONRECEIVED_RESULT;\n    }\n\n    function get_match(string memory matchId) external view returns(address, uint, uint, uint, uint, uint) {\n        Match memory amatch = matches[matchId];\n        return (\n            amatch.creatorAddress,\n            amatch.minIncrement, \n            amatch.openBlock,\n            amatch.expiryBlock,\n            amatch.expiryExtension,\n            amatch.nftCount\n        );\n    }\n\n    function get_current_result(string memory matchId, uint tokenIndex) external view returns (address, uint) {\n        return (matchResults[matchId][tokenIndex].topBidder, matchResults[matchId][tokenIndex].standingBid);\n    }\n\n    function get_player_bid(string memory matchId, address playerAddress, uint tokenIndex) external view returns(uint) {\n        return playerBid[matchId][playerAddress][tokenIndex];\n    }\n\n    function get_creator_balance(address creatorAddress) external view returns(uint) {\n        return creatorBalance[creatorAddress];\n    }\n\n    function _win_audit(string memory matchId, uint tokenIndex) internal returns (bool) {\n        address winnerAddress  = matchResults[matchId][tokenIndex].topBidder;\n        uint finalBid  = matchResults[matchId][tokenIndex].finalBid;\n        require(winnerAddress != ADDRESS_NULL, \"winner is not valid\");\n\n        // set result to null\n        matchResults[matchId][tokenIndex] = AuctionResult(ADDRESS_NULL, 0, finalBid);\n\n        // increase creator's balance\n        uint standingBid = playerBid[matchId][winnerAddress][tokenIndex];\n        playerBid[matchId][winnerAddress][tokenIndex]   = 0;\n        creatorBalance[matches[matchId].creatorAddress] += standingBid;\n        \n        NFT memory nft = matchNFTs[matchId][tokenIndex];\n        // send nft to address\n        IERC721(nft.contractAddress).safeTransferFrom(address(this), winnerAddress, nft.tokenId);\n        emit RewardEvent(matchId, tokenIndex, winnerAddress);\n\n        return true;\n    }\n}",
  "sourcePath": "/Users/tuminfei/Code/Nodejs/uniarts-eth-dao/contracts/core/Auction.sol",
  "compiler": {
    "name": "solc",
    "version": "0.8.4+commit.c7e474f2.Emscripten.clang"
  },
  "schemaVersion": "3.3.0",
  "updatedAt": "2021-12-01T04:02:32.952Z",
  "devdoc": {
    "kind": "dev",
    "methods": {
      "onERC721Received(address,address,uint256,bytes)": {
        "details": "Whenever an {IERC721} `tokenId` token is transferred to this contract via {IERC721-safeTransferFrom} by `operator` from `from`, this function is called. It must return its Solidity selector to confirm the token transfer. If any other value is returned or the interface is not implemented by the recipient, the transfer will be reverted. The selector can be obtained in Solidity with `IERC721.onERC721Received.selector`."
      }
    },
    "version": 1
  },
  "userdoc": {
    "kind": "user",
    "methods": {},
    "version": 1
  }
}