{
  "contractName": "DutchAuction",
  "abi": [
    {
      "inputs": [
        {
          "internalType": "address",
          "name": "usdtContractAddress",
          "type": "address"
        }
      ],
      "stateMutability": "nonpayable",
      "type": "constructor"
    },
    {
      "anonymous": false,
      "inputs": [
        {
          "indexed": false,
          "internalType": "address",
          "name": "creatorAddress",
          "type": "address"
        },
        {
          "indexed": false,
          "internalType": "string",
          "name": "matchId",
          "type": "string"
        },
        {
          "indexed": false,
          "internalType": "uint256",
          "name": "openBlock",
          "type": "uint256"
        },
        {
          "indexed": false,
          "internalType": "uint256",
          "name": "expiryBlock",
          "type": "uint256"
        },
        {
          "indexed": false,
          "internalType": "uint256",
          "name": "blockPerEpoch",
          "type": "uint256"
        },
        {
          "components": [
            {
              "internalType": "address",
              "name": "contractAddress",
              "type": "address"
            },
            {
              "internalType": "uint256",
              "name": "tokenId",
              "type": "uint256"
            },
            {
              "internalType": "uint256",
              "name": "startingPrice",
              "type": "uint256"
            },
            {
              "internalType": "uint256",
              "name": "decrementPerEpoch",
              "type": "uint256"
            },
            {
              "internalType": "uint256",
              "name": "reservePrice",
              "type": "uint256"
            }
          ],
          "indexed": false,
          "internalType": "struct DutchAuction.NFT[]",
          "name": "nfts",
          "type": "tuple[]"
        }
      ],
      "name": "CreateAuctionEvent",
      "type": "event"
    },
    {
      "anonymous": false,
      "inputs": [
        {
          "indexed": false,
          "internalType": "string",
          "name": "matchId",
          "type": "string"
        },
        {
          "indexed": false,
          "internalType": "address",
          "name": "playerAddress",
          "type": "address"
        },
        {
          "indexed": false,
          "internalType": "uint256",
          "name": "tokenIndex",
          "type": "uint256"
        },
        {
          "indexed": false,
          "internalType": "uint256",
          "name": "bid",
          "type": "uint256"
        }
      ],
      "name": "PlayerBidEvent",
      "type": "event"
    },
    {
      "anonymous": false,
      "inputs": [
        {
          "indexed": false,
          "internalType": "string",
          "name": "matchId",
          "type": "string"
        },
        {
          "indexed": false,
          "internalType": "uint256",
          "name": "tokenIndex",
          "type": "uint256"
        },
        {
          "indexed": false,
          "internalType": "address",
          "name": "winnerAddress",
          "type": "address"
        }
      ],
      "name": "RewardEvent",
      "type": "event"
    },
    {
      "inputs": [],
      "name": "USDT_ADDRESS",
      "outputs": [
        {
          "internalType": "address",
          "name": "",
          "type": "address"
        }
      ],
      "stateMutability": "view",
      "type": "function"
    },
    {
      "inputs": [
        {
          "internalType": "string",
          "name": "",
          "type": "string"
        },
        {
          "internalType": "uint256",
          "name": "",
          "type": "uint256"
        }
      ],
      "name": "matchNFTs",
      "outputs": [
        {
          "internalType": "address",
          "name": "contractAddress",
          "type": "address"
        },
        {
          "internalType": "uint256",
          "name": "tokenId",
          "type": "uint256"
        },
        {
          "internalType": "uint256",
          "name": "startingPrice",
          "type": "uint256"
        },
        {
          "internalType": "uint256",
          "name": "decrementPerEpoch",
          "type": "uint256"
        },
        {
          "internalType": "uint256",
          "name": "reservePrice",
          "type": "uint256"
        }
      ],
      "stateMutability": "view",
      "type": "function"
    },
    {
      "inputs": [
        {
          "internalType": "string",
          "name": "",
          "type": "string"
        },
        {
          "internalType": "uint256",
          "name": "",
          "type": "uint256"
        }
      ],
      "name": "matchResults",
      "outputs": [
        {
          "internalType": "address",
          "name": "bidder",
          "type": "address"
        },
        {
          "internalType": "uint256",
          "name": "bidAmount",
          "type": "uint256"
        }
      ],
      "stateMutability": "view",
      "type": "function"
    },
    {
      "inputs": [
        {
          "internalType": "string",
          "name": "",
          "type": "string"
        }
      ],
      "name": "matches",
      "outputs": [
        {
          "internalType": "address",
          "name": "creatorAddress",
          "type": "address"
        },
        {
          "internalType": "uint256",
          "name": "openBlock",
          "type": "uint256"
        },
        {
          "internalType": "uint256",
          "name": "expiryBlock",
          "type": "uint256"
        },
        {
          "internalType": "uint256",
          "name": "blockPerEpoch",
          "type": "uint256"
        },
        {
          "internalType": "uint256",
          "name": "nftCount",
          "type": "uint256"
        }
      ],
      "stateMutability": "view",
      "type": "function"
    },
    {
      "inputs": [
        {
          "internalType": "string",
          "name": "matchId",
          "type": "string"
        },
        {
          "internalType": "uint256",
          "name": "openBlock",
          "type": "uint256"
        },
        {
          "internalType": "uint256",
          "name": "expiryBlock",
          "type": "uint256"
        },
        {
          "internalType": "uint256",
          "name": "blockPerEpoch",
          "type": "uint256"
        },
        {
          "components": [
            {
              "internalType": "address",
              "name": "contractAddress",
              "type": "address"
            },
            {
              "internalType": "uint256",
              "name": "tokenId",
              "type": "uint256"
            },
            {
              "internalType": "uint256",
              "name": "startingPrice",
              "type": "uint256"
            },
            {
              "internalType": "uint256",
              "name": "decrementPerEpoch",
              "type": "uint256"
            },
            {
              "internalType": "uint256",
              "name": "reservePrice",
              "type": "uint256"
            }
          ],
          "internalType": "struct DutchAuction.NFT[]",
          "name": "nfts",
          "type": "tuple[]"
        }
      ],
      "name": "createAuction",
      "outputs": [],
      "stateMutability": "nonpayable",
      "type": "function"
    },
    {
      "inputs": [
        {
          "internalType": "string",
          "name": "matchId",
          "type": "string"
        },
        {
          "internalType": "uint256",
          "name": "tokenIndex",
          "type": "uint256"
        }
      ],
      "name": "get_current_price",
      "outputs": [
        {
          "internalType": "uint256",
          "name": "",
          "type": "uint256"
        }
      ],
      "stateMutability": "view",
      "type": "function"
    },
    {
      "inputs": [
        {
          "internalType": "string",
          "name": "matchId",
          "type": "string"
        },
        {
          "internalType": "uint256",
          "name": "tokenIndex",
          "type": "uint256"
        }
      ],
      "name": "player_bid",
      "outputs": [],
      "stateMutability": "nonpayable",
      "type": "function"
    },
    {
      "inputs": [
        {
          "internalType": "string",
          "name": "matchId",
          "type": "string"
        },
        {
          "internalType": "uint256",
          "name": "tokenIndex",
          "type": "uint256"
        }
      ],
      "name": "reward",
      "outputs": [],
      "stateMutability": "nonpayable",
      "type": "function"
    },
    {
      "inputs": [
        {
          "internalType": "string",
          "name": "matchId",
          "type": "string"
        }
      ],
      "name": "creator_withdraw_nft_batch",
      "outputs": [],
      "stateMutability": "nonpayable",
      "type": "function"
    },
    {
      "inputs": [
        {
          "internalType": "string",
          "name": "matchId",
          "type": "string"
        },
        {
          "internalType": "uint256",
          "name": "tokenIndex",
          "type": "uint256"
        }
      ],
      "name": "creator_withdraw_nft",
      "outputs": [],
      "stateMutability": "nonpayable",
      "type": "function"
    },
    {
      "inputs": [],
      "name": "creator_withdraw_profit",
      "outputs": [],
      "stateMutability": "nonpayable",
      "type": "function"
    },
    {
      "inputs": [
        {
          "internalType": "address",
          "name": "operator",
          "type": "address"
        },
        {
          "internalType": "address",
          "name": "from",
          "type": "address"
        },
        {
          "internalType": "uint256",
          "name": "tokenId",
          "type": "uint256"
        },
        {
          "internalType": "bytes",
          "name": "data",
          "type": "bytes"
        }
      ],
      "name": "onERC721Received",
      "outputs": [
        {
          "internalType": "bytes4",
          "name": "",
          "type": "bytes4"
        }
      ],
      "stateMutability": "pure",
      "type": "function"
    },
    {
      "inputs": [
        {
          "internalType": "string",
          "name": "matchId",
          "type": "string"
        }
      ],
      "name": "get_match",
      "outputs": [
        {
          "internalType": "address",
          "name": "",
          "type": "address"
        },
        {
          "internalType": "uint256",
          "name": "",
          "type": "uint256"
        },
        {
          "internalType": "uint256",
          "name": "",
          "type": "uint256"
        },
        {
          "internalType": "uint256",
          "name": "",
          "type": "uint256"
        },
        {
          "internalType": "uint256",
          "name": "",
          "type": "uint256"
        }
      ],
      "stateMutability": "view",
      "type": "function"
    },
    {
      "inputs": [
        {
          "internalType": "string",
          "name": "matchId",
          "type": "string"
        },
        {
          "internalType": "uint256",
          "name": "tokenIndex",
          "type": "uint256"
        }
      ],
      "name": "get_current_result",
      "outputs": [
        {
          "internalType": "address",
          "name": "",
          "type": "address"
        },
        {
          "internalType": "uint256",
          "name": "",
          "type": "uint256"
        }
      ],
      "stateMutability": "view",
      "type": "function"
    },
    {
      "inputs": [
        {
          "internalType": "address",
          "name": "creatorAddress",
          "type": "address"
        }
      ],
      "name": "get_creator_balance",
      "outputs": [
        {
          "internalType": "uint256",
          "name": "",
          "type": "uint256"
        }
      ],
      "stateMutability": "view",
      "type": "function"
    }
  ],
  "bytecode": "0x608060405234801561001057600080fd5b5060405162002442380380620024428339810160408190526100319161005b565b600160005560058054600160a060020a031916600160a060020a0392909216919091179055610089565b60006020828403121561006c578081fd5b8151600160a060020a0381168114610082578182fd5b9392505050565b6123a980620000996000396000f3fe608060405234801561001057600080fd5b50600436106100f95760003560e060020a90048063528f0f561161009b578063b4add9931161006a578063b4add99314610318578063c189205814610341578063e3c6623d1461036c578063efc631a8146103ba57600080fd5b8063528f0f56146102be5780636ce1ed92146102d15780636f36c146146102e45780638b616f1f1461030557600080fd5b806332ac752b116100d757806332ac752b1461019157806338dfdcb614610219578063479f7e891461024b5780634e5667b4146102ab57600080fd5b80630c97531b146100fe578063150b7a021461011357806318200e9e1461017e575b600080fd5b61011161010c366004611e4b565b6103c2565b005b61014b610121366004611d95565b7f150b7a023d4804d13e8c85fb27262cb750cf6ba9f9dd3bb30d90f482ceeb4b1f95945050505050565b6040517bffffffffffffffffffffffffffffffffffffffffffffffffffffffff1990911681526020015b60405180910390f35b61011161018c366004611e86565b610548565b6101e761019f366004611e4b565b80516020818301810180516001808352938301929094019190912092905281549082015460028301546003840154600490940154600160a060020a0390931693919290919085565b60408051600160a060020a0390961686526020860194909452928401919091526060830152608082015260a001610175565b61022c610227366004611e86565b6108ce565b60408051600160a060020a039093168352602083019190915201610175565b6101e7610259366004611e86565b81516020818401810180516002808352938301958301959095209490529290925260009081526040902080546001820154928201546003830154600490930154600160a060020a039092169392909185565b6101116102b9366004611ec9565b610942565b6101116102cc366004611e86565b610f63565b6101116102df366004611e86565b6111ae565b6102f76102f2366004611e86565b61150a565b604051908152602001610175565b6101e7610313366004611e4b565b61175d565b6102f7610326366004611d7b565b600160a060020a031660009081526004602052604090205490565b60055461035490600160a060020a031681565b604051600160a060020a039091168152602001610175565b61022c61037a366004611e86565b81516020818401810180516003825292820194820194909420919093529091526000908152604090208054600190910154600160a060020a039091169082565b6101116117dd565b8033600160a060020a03166001826040516103dd9190612022565b90815260405190819003602001902054600160a060020a03161461044b5760405160e560020a62461bcd02815260206004820152601560248201527f63726561746f72206f6e6c792066756e6374696f6e000000000000000000000060448201526064015b60405180910390fd5b814360018260405161045d9190612022565b9081526020016040518091039020600201541061048f5760405160e560020a62461bcd028152600401610442906121c1565b60006001846040516104a19190612022565b908152602001604051809103902060040154905060005b818110156105415760006003866040516104d29190612022565b90815260408051918290036020908101832060008681529082528290208383019092528154600160a060020a031680845260019092015490830152909150158015610521575060008160200151115b1561053057610530868361188f565b5061053a81612326565b90506104b8565b5050505050565b81816000600160a060020a03166001836040516105659190612022565b90815260405190819003602001902054600160a060020a0316141561059f5760405160e560020a62461bcd0281526004016104429061218a565b6001826040516105af9190612022565b90815260200160405180910390206004015481106105e25760405160e560020a62461bcd028152600401610442906121f8565b83436001826040516105f49190612022565b908152602001604051809103902060020154106106265760405160e560020a62461bcd028152600401610442906121c1565b60006003866040516106389190612022565b908152604080516020928190038301902060008881529252902054600160a060020a03169050806106ae5760405160e560020a62461bcd02815260206004820152601360248201527f77696e6e6572206973206e6f742076616c6964000000000000000000000000006044820152606401610442565b6040805180820182526000808252602082015290516003906106d1908990612022565b908152604080516020928190038301812060008a81529084529182208451815473ffffffffffffffffffffffffffffffffffffffff1916600160a060020a039091161781559390920151600190930192909255600390610732908990612022565b90815260200160405180910390206000878152602001908152602001600020600101549050806004600060018a60405161076c9190612022565b908152604080516020928190038301902054600160a060020a031683529082019290925201600090812080549091906107a6908490612289565b9250508190555060006002886040516107bf9190612022565b90815260408051918290036020908101832060008b815290825282902060a0840183528054600160a060020a0316808552600182015492850183905260028201548585015260038201546060860152600491820154608086015292517f42842e0e00000000000000000000000000000000000000000000000000000000815293945091926342842e0e9261085792309289920161203e565b600060405180830381600087803b15801561087157600080fd5b505af1158015610885573d6000803e3d6000fd5b505050507f4724291f3c939ed02ed238c50d61263622fc1d0871d7aaa264d743475de5b72b8888856040516108bc93929190612158565b60405180910390a15050505050505050565b6000806003846040516108e19190612022565b908152604080519182900360209081018320600087815291522054600160a060020a031690600390610914908790612022565b9081526020016040518091039020600085815260200190815260200160002060010154915091509250929050565b600260005414156109985760405160e560020a62461bcd02815260206004820152601f60248201527f5265656e7472616e637947756172643a207265656e7472616e742063616c6c006044820152606401610442565b600260009081556040516001906109b0908890612022565b90815260405190819003602001902054600160a060020a031614610a195760405160e560020a62461bcd02815260206004820152601360248201527f6d617463684964206973206f63637570696564000000000000000000000000006044820152606401610442565b8383118015610a2757504384115b610ac25760405160e560020a62461bcd02815260206004820152604560248201527f636f6e646974696f6e20657870697279426c6f636b203e206f70656e426c6f6360448201527f6b203e2063757272656e7420626c6f636b20636f756e74206e6f74207361746960648201527f7366696564000000000000000000000000000000000000000000000000000000608482015260a401610442565b60008151118015610ad557506020815111155b610b705760405160e560020a62461bcd02815260206004820152604760248201527f6e756d626572206f66206e6674206d757374206265206772656174657220746860448201527f616e203020616e64206c657373207468616e204d41585f4954454d5f5045525f60648201527f41554354494f4e00000000000000000000000000000000000000000000000000608482015260a401610442565b60005b8151811015610e7457818181518110610b9f5760e060020a634e487b7102600052603260045260246000fd5b602002602001015160400151828281518110610bce5760e060020a634e487b7102600052603260045260246000fd5b6020026020010151606001511115610c515760405160e560020a62461bcd02815260206004820152602a60248201527f64656372656d656e742073686f756c64206e6f7420657863656564207374617260448201527f74696e67207072696365000000000000000000000000000000000000000000006064820152608401610442565b818181518110610c745760e060020a634e487b7102600052603260045260246000fd5b602002602001015160000151600160a060020a03166342842e0e3330858581518110610cb35760e060020a634e487b7102600052603260045260246000fd5b6020026020010151602001516040518463ffffffff1660e060020a028152600401610ce09392919061203e565b600060405180830381600087803b158015610cfa57600080fd5b505af1158015610d0e573d6000803e3d6000fd5b5050505060405180604001604052806000600160a060020a03168152602001838381518110610d505760e060020a634e487b7102600052603260045260246000fd5b602002602001015160400151815250600387604051610d6f9190612022565b90815260408051602092819003830190206000858152908352208251815473ffffffffffffffffffffffffffffffffffffffff1916600160a060020a039091161781559101516001909101558151829082908110610de05760e060020a634e487b7102600052603260045260246000fd5b6020026020010151600287604051610df89190612022565b908152604080516020928190038301902060008581529083528190208351815473ffffffffffffffffffffffffffffffffffffffff1916600160a060020a03909116178155918301516001830155820151600282015560608201516003820155608090910151600490910155610e6d81612326565b9050610b73565b506040518060a0016040528033600160a060020a031681526020018581526020018481526020018381526020018251815250600186604051610eb69190612022565b90815260408051602092819003830181208451815473ffffffffffffffffffffffffffffffffffffffff1916600160a060020a03909116178155928401516001840155908301516002830155606083015160038301556080909201516004909101557fbc80a8135e3f4504f007bfb87df8d4546aa21d843fa396edc8cafdb094658dd790610f4f90339088908890889088908890612062565b60405180910390a150506001600055505050565b81816000600160a060020a0316600183604051610f809190612022565b90815260405190819003602001902054600160a060020a03161415610fba5760405160e560020a62461bcd0281526004016104429061218a565b600182604051610fca9190612022565b9081526020016040518091039020600401548110610ffd5760405160e560020a62461bcd028152600401610442906121f8565b8333600160a060020a03166001826040516110189190612022565b90815260405190819003602001902054600160a060020a0316146110815760405160e560020a62461bcd02815260206004820152601560248201527f63726561746f72206f6e6c792066756e6374696f6e00000000000000000000006044820152606401610442565b84436001826040516110939190612022565b908152602001604051809103902060020154106110c55760405160e560020a62461bcd028152600401610442906121c1565b60006003876040516110d79190612022565b90815260408051918290036020908101832060008a81529082528290208383019092528154600160a060020a031680845260019092015490830152909150158015611126575060008160200151115b61119b5760405160e560020a62461bcd02815260206004820152602260248201527f746f6b656e206973206e6f7420617661696c61626c6520746f2077697468647260448201527f61770000000000000000000000000000000000000000000000000000000000006064820152608401610442565b6111a5878761188f565b50505050505050565b600260005414156112045760405160e560020a62461bcd02815260206004820152601f60248201527f5265656e7472616e637947756172643a207265656e7472616e742063616c6c006044820152606401610442565b6002600090815560405183918391600190611220908590612022565b90815260405190819003602001902054600160a060020a0316141561125a5760405160e560020a62461bcd0281526004016104429061218a565b60018260405161126a9190612022565b908152602001604051809103902060040154811061129d5760405160e560020a62461bcd028152600401610442906121f8565b60006001856040516112af9190612022565b908152604080516020928190038301812060a0820183528054600160a060020a0316825260018101549382018490526002810154928201929092526003820154606082015260049091015460808201529150339043118015611315575081604001514311155b6113645760405160e560020a62461bcd02815260206004820152601f60248201527f6d61746368206973206e6f74206f70656e656420666f722062696464696e67006044820152606401610442565b6000600160a060020a031660038760405161137f9190612022565b908152604080516020928190038301902060008981529252902054600160a060020a0316146114195760405160e560020a62461bcd02815260206004820152603060248201527f736f6d65206f6e6520616772656564207769746820686967686572207072696360448201527f6520666f72207468697320746f6b656e000000000000000000000000000000006064820152608401610442565b6000611425878761150a565b9050604051806040016040528083600160a060020a03168152602001828152506003886040516114559190612022565b908152604080516020928190038301812060008b8152908452919091208351815473ffffffffffffffffffffffffffffffffffffffff1916600160a060020a0390911617815592909101516001909201919091557f0f3442e443a46f8ff7a420431f3eedf9d64167474b853aac10990b378cda8056906114dc90899085908a908690612120565b60405180910390a16005546114fc90600160a060020a0316833084611998565b505060016000555050505050565b60008060018460405161151d9190612022565b9081526020016040518091039020600301549050600081116115aa5760405160e560020a62461bcd02815260206004820152602660248201527f626c6f636b207065722065706f6368206d75737420626520677265617465722060448201527f7468616e203000000000000000000000000000000000000000000000000000006064820152608401610442565b6001846040516115ba9190612022565b90815260200160405180910390206001015443116116435760405160e560020a62461bcd02815260206004820152602c60248201527f63757272656e7420626c6f636b2073686f756c6420677265617465722074686160448201527f6e206f70656e20626c6f636b00000000000000000000000000000000000000006064820152608401610442565b6000816001866040516116569190612022565b9081526020016040518091039020600101544361167391906122e3565b61167d91906122a1565b905060006002866040516116919190612022565b9081526020016040518091039020600086815260200190815260200160002060020154905060006002876040516116c89190612022565b90815260408051602092819003830190206000898152925281206003015491506116f282856122c4565b9050828111156117475760405160e560020a62461bcd02815260206004820152601a60248201527f746f6b656e207072696365207265616368657320626f74746f6d0000000000006044820152606401610442565b61175181846122e3565b98975050505050505050565b6000806000806000806001876040516117769190612022565b908152604080516020928190038301812060a0820183528054600160a060020a03168083526001820154948301859052600282015493830184905260038201546060840181905260049092015460809093018390529b939a50919850909650945092505050565b33600090815260046020526040902054806118635760405160e560020a62461bcd02815260206004820152602660248201527f63726561746f722062616c616e6365206d75737420626520677265617465722060448201527f7468616e203000000000000000000000000000000000000000000000000000006064820152608401610442565b3360008181526004602052604081205560055461188c91600160a060020a039091169083611a23565b50565b60006003836040516118a19190612022565b90815260408051918290036020908101832060008681529152908120600101929092556002906118d2908590612022565b908152604080519182900360209081018320600086815290825282902060a0840183528054600160a060020a0316808552600182015492850183905260028201548585015260038201546060860152600491820154608086015292517f42842e0e00000000000000000000000000000000000000000000000000000000815293945091926342842e0e9261196a92309233920161203e565b600060405180830381600087803b15801561198457600080fd5b505af11580156111a5573d6000803e3d6000fd5b611a1d846323b872dd60e060020a028585856040516024016119bc9392919061203e565b60408051601f198184030181529190526020810180517bffffffffffffffffffffffffffffffffffffffffffffffffffffffff167bffffffffffffffffffffffffffffffffffffffffffffffffffffffff1990931692909217909152611a71565b50505050565b604051600160a060020a038316602482015260448101829052611a6c9084907fa9059cbb00000000000000000000000000000000000000000000000000000000906064016119bc565b505050565b6000611ac6826040518060400160405280602081526020017f5361666545524332303a206c6f772d6c6576656c2063616c6c206661696c656481525085600160a060020a0316611b599092919063ffffffff16565b805190915015611a6c5780806020019051810190611ae49190611e2b565b611a6c5760405160e560020a62461bcd02815260206004820152602a60248201527f5361666545524332303a204552433230206f7065726174696f6e20646964206e60448201527f6f742073756363656564000000000000000000000000000000000000000000006064820152608401610442565b6060611b688484600085611b72565b90505b9392505050565b60603031831115611bee5760405160e560020a62461bcd02815260206004820152602660248201527f416464726573733a20696e73756666696369656e742062616c616e636520666f60448201527f722063616c6c00000000000000000000000000000000000000000000000000006064820152608401610442565b843b611c3f5760405160e560020a62461bcd02815260206004820152601d60248201527f416464726573733a2063616c6c20746f206e6f6e2d636f6e74726163740000006044820152606401610442565b60008086600160a060020a03168587604051611c5b9190612022565b60006040518083038185875af1925050503d8060008114611c98576040519150601f19603f3d011682016040523d82523d6000602084013e611c9d565b606091505b5091509150611cad828286611cb8565b979650505050505050565b60608315611cc7575081611b6b565b825115611cd75782518084602001fd5b8160405160e560020a62461bcd028152600401610442919061210d565b8035600160a060020a0381168114611d0b57600080fd5b919050565b600082601f830112611d20578081fd5b813567ffffffffffffffff811115611d3a57611d3a61235a565b611d4d601f8201601f1916602001612258565b818152846020838601011115611d61578283fd5b816020850160208301379081016020019190915292915050565b600060208284031215611d8c578081fd5b611b6b82611cf4565b600080600080600060808688031215611dac578081fd5b611db586611cf4565b9450611dc360208701611cf4565b935060408601359250606086013567ffffffffffffffff80821115611de6578283fd5b818801915088601f830112611df9578283fd5b813581811115611e07578384fd5b896020828501011115611e18578384fd5b9699959850939650602001949392505050565b600060208284031215611e3c578081fd5b81518015158114611b6b578182fd5b600060208284031215611e5c578081fd5b813567ffffffffffffffff811115611e72578182fd5b611e7e84828501611d10565b949350505050565b60008060408385031215611e98578182fd5b823567ffffffffffffffff811115611eae578283fd5b611eba85828601611d10565b95602094909401359450505050565b600080600080600060a0808789031215611ee1578182fd5b863567ffffffffffffffff80821115611ef8578384fd5b611f048a838b01611d10565b9750602091508189013596506040890135955060608901359450608089013581811115611f2f578485fd5b8901601f81018b13611f3f578485fd5b803582811115611f5157611f5161235a565b611f5e8485830201612258565b8181528481019350828501868302840186018e1015611f7b578788fd5b8793505b82841015611fe25786818f031215611f95578788fd5b611f9d61222f565b611fa682611cf4565b81528187013587820152604080830135908201526060808301359082015260808083013590820152855293850193600193909301928601611f7f565b508096505050505050509295509295909350565b6000815180845261200e8160208601602086016122fa565b601f01601f19169290920160200192915050565b600082516120348184602087016122fa565b9190910192915050565b600160a060020a039384168152919092166020820152604081019190915260600190565b6000600160a060020a038089168352602060c08185015261208660c085018a611ff6565b60408981870152606089818801526080898189015260a0888503818a0152848a518087528787019150878c019650895b818110156120f557875180518b168452898101518a850152878101518885015286810151878501528501518584015296880196918301916001016120b6565b50508098505050505050505050979650505050505050565b602081526000611b6b6020830184611ff6565b6080815260006121336080830187611ff6565b600160a060020a03959095166020830152506040810192909252606090910152919050565b60608152600061216b6060830186611ff6565b9050836020830152600160a060020a0383166040830152949350505050565b6020808252600d908201527f696e76616c6964206d6174636800000000000000000000000000000000000000604082015260600190565b60208082526015908201527f6d61746368206973206e6f742066696e69736865640000000000000000000000604082015260600190565b6020808252600d908201527f696e76616c696420746f6b656e00000000000000000000000000000000000000604082015260600190565b60405160a0810167ffffffffffffffff811182821017156122525761225261235a565b60405290565b604051601f8201601f1916810167ffffffffffffffff811182821017156122815761228161235a565b604052919050565b6000821982111561229c5761229c612341565b500190565b6000826122bf5760e060020a634e487b710281526012600452602481fd5b500490565b60008160001904831182151516156122de576122de612341565b500290565b6000828210156122f5576122f5612341565b500390565b60005b838110156123155781810151838201526020016122fd565b83811115611a1d5750506000910152565b600060001982141561233a5761233a612341565b5060010190565b60e060020a634e487b7102600052601160045260246000fd5b60e060020a634e487b7102600052604160045260246000fdfea26469706673582212201374f7f7face2d8cdace0e901640a4144f5add8bd64c13b755f120f8efc279c064736f6c63430008040033",
  "immutableReferences": {},
  "source": "// SPDX-License-Identifier: MIT\npragma solidity ^0.8.0;\n\nimport \"@openzeppelin/contracts/token/ERC20/IERC20.sol\";\nimport \"@openzeppelin/contracts/token/ERC20/utils/SafeERC20.sol\";\nimport \"@openzeppelin/contracts/token/ERC721/IERC721.sol\";\nimport \"@openzeppelin/contracts/token/ERC721/IERC721Receiver.sol\";\nimport \"@openzeppelin/contracts/security/ReentrancyGuard.sol\";\n\ncontract DutchAuction is ReentrancyGuard, IERC721Receiver {\n\n    // using safeErc20 for ierc20 based contract\n    using SafeERC20 for IERC20;\n\n    // constants\n    address constant ADDRESS_NULL             = address(0);\n    \n    // max item allow per auction, should not be more than 2^32-1\n    uint    constant MAX_ITEM_PER_AUCTION     = 32;\n\n    bytes4  constant ERC721_ONRECEIVED_RESULT = bytes4(keccak256(\"onERC721Received(address,address,uint256,bytes)\"));\n\n    // structs\n    struct NFT {\n        address contractAddress;\n        uint    tokenId;\n        uint    startingPrice;\n        uint    decrementPerEpoch;\n        uint    reservePrice;\n    }\n    \n    struct AuctionResult {\n        address bidder;\n        uint bidAmount;\n    }\n\n    struct Match {\n        address creatorAddress;\n        uint openBlock;\n        uint expiryBlock;\n        uint blockPerEpoch;\n        uint nftCount;\n    }\n\n    // state\n    // matchId => Match\n    mapping(string => Match) public  matches;\n\n    // matchId => index => NFT\n    mapping(string => mapping(uint => NFT)) public  matchNFTs;\n    \n    // matchId => Result\n    mapping(string => mapping(uint => AuctionResult)) public  matchResults;\n\n    // address to balance\n    mapping(address => uint) private creatorBalance;\n\n    // events\n    event CreateAuctionEvent(\n        address creatorAddress, string matchId, \n        uint openBlock, uint expiryBlock, \n        uint blockPerEpoch,\n        NFT[] nfts\n    );\n    event PlayerBidEvent(string matchId, address playerAddress, uint tokenIndex, uint bid);\n    event RewardEvent   (string matchId, uint tokenIndex,       address winnerAddress);\n\n    // base erc20 token\n    address public USDT_ADDRESS;\n\n    // modifier \n    modifier validTokenIndex(string memory matchId, uint tokenIndex) {\n        require(matches[matchId].creatorAddress != ADDRESS_NULL, \"invalid match\"); \n        require(tokenIndex < matches[matchId].nftCount, \"invalid token\");\n        _;\n    }\n\n    modifier creatorOnly(string memory matchId) {\n         require(matches[matchId].creatorAddress == msg.sender, \"creator only function\"); \n        _;\n    }\n    \n    // match finished should be used with checking valid match\n    modifier matchFinished(string memory matchId) {\n        // require(matches[matchId].creatorAddress != ADDRESS_NULL, \"invalid match\");\n        require(matches[matchId].expiryBlock < block.number, \"match is not finished\");\n        _;\n    }\n\n    constructor(address usdtContractAddress) {\n        USDT_ADDRESS = usdtContractAddress;\n    }\n\n    function createAuction(\n        string memory matchId, \n        uint openBlock, \n        uint expiryBlock,\n        uint blockPerEpoch,\n        NFT[] memory nfts) external nonReentrant {\n\n        // check if matchId is occupied\n        require(matches[matchId].creatorAddress == ADDRESS_NULL, \"matchId is occupied\");\n        \n        // check valid openBlock, expiryBlock, expiryExtensionOnBidUpdate\n        require(expiryBlock > openBlock && openBlock > block.number, \"condition expiryBlock > openBlock > current block count not satisfied\");\n\n        // check item count\n        require(nfts.length > 0 && nfts.length <= MAX_ITEM_PER_AUCTION, \"number of nft must be greater than 0 and less than MAX_ITEM_PER_AUCTION\");\n\n        // deposit item to contract\n        for(uint i = 0; i < nfts.length; ++i) {\n\n            // check valid token\n            require(nfts[i].decrementPerEpoch <= nfts[i].startingPrice, \"decrement should not exceed starting price\");\n\n            // if meet requirements then send tokens to contract\n            IERC721(nfts[i].contractAddress).safeTransferFrom(msg.sender, address(this), nfts[i].tokenId);\n            \n            // create slots for items\n            matchResults[matchId][i]    = AuctionResult(ADDRESS_NULL, nfts[i].startingPrice);\n            matchNFTs[matchId][i]       = nfts[i];\n        }\n\n        // create match\n        matches[matchId] = Match(\n            msg.sender,\n            openBlock,\n            expiryBlock,\n            blockPerEpoch,\n            nfts.length\n        );\n\n        // emit events\n        emit CreateAuctionEvent(msg.sender, matchId, openBlock, expiryBlock, blockPerEpoch, nfts);\n    }\n\n    function get_current_price(string memory matchId, uint tokenIndex) public view returns(uint) {\n        uint blockPerEpoch = matches[matchId].blockPerEpoch;\n        // check some prerequisite before get price\n        require(blockPerEpoch > 0, \"block per epoch must be greater than 0\");\n        require(block.number > matches[matchId].openBlock, \"current block should greater than open block\");\n\n        // compute current price\n        uint epochCount = (block.number - matches[matchId].openBlock) / blockPerEpoch;\n        uint startingPrice = matchNFTs[matchId][tokenIndex].startingPrice;\n        uint decrementPerEpoch = matchNFTs[matchId][tokenIndex].decrementPerEpoch;\n        uint lostValue = epochCount * decrementPerEpoch;\n\n        require(lostValue <= startingPrice, \"token price reaches bottom\");\n        return startingPrice - lostValue;\n    }\n\n    function player_bid(string memory matchId, uint tokenIndex) external nonReentrant validTokenIndex(matchId, tokenIndex) {\n        Match memory amatch = matches[matchId];\n        address playerAddress = msg.sender;\n        // check if match is opened \n        require(amatch.openBlock < block.number && block.number <= amatch.expiryBlock, \"match is not opened for bidding\");\n        // check if token has not get any bids\n        require(matchResults[matchId][tokenIndex].bidder == ADDRESS_NULL, \"some one agreed with higher price for this token\");\n        uint amount = get_current_price(matchId, tokenIndex);\n        // update the winner for that token\n        matchResults[matchId][tokenIndex] = AuctionResult(playerAddress, amount);\n        // emit event\n        emit PlayerBidEvent(\n            matchId, \n            playerAddress,\n            tokenIndex,\n            amount\n        );\n        IERC20(USDT_ADDRESS).safeTransferFrom(playerAddress, address(this), amount);\n    }\n\n    // anyone can call reward, top bidder and creator are incentivized to call this function to send rewards/profit\n    function reward(string memory matchId, uint tokenIndex) external validTokenIndex(matchId, tokenIndex) matchFinished(matchId) {\n        \n        address winnerAddress  = matchResults[matchId][tokenIndex].bidder;\n        require(winnerAddress != ADDRESS_NULL, \"winner is not valid\");\n\n        // set result to null\n        matchResults[matchId][tokenIndex] = AuctionResult(ADDRESS_NULL, 0);\n\n        // increase creator's balance\n        uint standingBid = matchResults[matchId][tokenIndex].bidAmount;\n        creatorBalance[matches[matchId].creatorAddress] += standingBid;\n        \n        NFT memory nft = matchNFTs[matchId][tokenIndex];\n        // send nft to address\n        IERC721(nft.contractAddress).safeTransferFrom(address(this), winnerAddress, nft.tokenId);\n        emit RewardEvent(matchId, tokenIndex, winnerAddress);\n    }\n\n    function process_withdraw_nft(string memory matchId, uint tokenIndex) private {\n        // set standingBid to 0 to prevent withdraw again\n        matchResults[matchId][tokenIndex].bidAmount = 0;\n        // transfer asset\n        NFT memory nft = matchNFTs[matchId][tokenIndex];\n        IERC721(nft.contractAddress).safeTransferFrom(address(this), msg.sender, nft.tokenId);\n    }\n\n    // reator withdraws unused nft\n    function creator_withdraw_nft_batch(string memory matchId) external creatorOnly(matchId) matchFinished(matchId) { \n        // check valid matchId, match finished\n        uint _len = matches[matchId].nftCount;\n        for(uint i = 0; i < _len; ++i) {\n            \n            // consider result\n            AuctionResult memory result = matchResults[matchId][i];\n            \n            // if no one wins the token then withdraw (result is at initial state)\n            if (result.bidder == ADDRESS_NULL && result.bidAmount > 0) {\n                process_withdraw_nft(matchId, i);\n            }\n        }\n    }\n    \n    function creator_withdraw_nft(string memory matchId, uint tokenIndex) external validTokenIndex(matchId, tokenIndex) creatorOnly(matchId) matchFinished(matchId) {\n        AuctionResult memory result = matchResults[matchId][tokenIndex];\n        require (result.bidder == ADDRESS_NULL && result.bidAmount > 0, \"token is not available to withdraw\");\n        \n        process_withdraw_nft(matchId, tokenIndex);\n    }\n\n    function creator_withdraw_profit() external {\n        uint balance = creatorBalance[msg.sender];\n        require(balance > 0, \"creator balance must be greater than 0\");\n        \n        // reset balance \n        creatorBalance[msg.sender] = 0;\n        \n        // send money\n        IERC20(USDT_ADDRESS).safeTransfer(msg.sender, balance);\n    }\n\n    function onERC721Received(address operator, address from, uint256 tokenId, bytes calldata data) external override pure returns (bytes4) {\n        // return ERC721_ONRECEIVED_RESULT to conform the interface\n        return ERC721_ONRECEIVED_RESULT;\n    }\n\n    function get_match(string memory matchId) external view returns(address, uint, uint, uint, uint) {\n        Match memory amatch = matches[matchId];\n        return (\n            amatch.creatorAddress,\n            amatch.openBlock,\n            amatch.expiryBlock,\n            amatch.blockPerEpoch,\n            amatch.nftCount\n        );\n    }\n\n    function get_current_result(string memory matchId, uint tokenIndex) external view returns (address, uint) {\n        return (matchResults[matchId][tokenIndex].bidder, matchResults[matchId][tokenIndex].bidAmount);\n    }\n\n    function get_creator_balance(address creatorAddress) external view returns(uint) {\n        return creatorBalance[creatorAddress];\n    }\n}\n",
  "sourcePath": "/Users/yxf/app/uniarts-eth-dao/contracts/core/DutchAuction.sol",
  "compiler": {
    "name": "solc",
    "version": "0.8.4+commit.c7e474f2.Emscripten.clang"
  },
  "schemaVersion": "3.2.3",
  "updatedAt": "2021-11-01T14:58:09.084Z",
  "devdoc": {
    "kind": "dev",
    "methods": {
      "onERC721Received(address,address,uint256,bytes)": {
        "details": "Whenever an {IERC721} `tokenId` token is transferred to this contract via {IERC721-safeTransferFrom} by `operator` from `from`, this function is called. It must return its Solidity selector to confirm the token transfer. If any other value is returned or the interface is not implemented by the recipient, the transfer will be reverted. The selector can be obtained in Solidity with `IERC721.onERC721Received.selector`."
      }
    },
    "version": 1
  },
  "userdoc": {
    "kind": "user",
    "methods": {},
    "version": 1
  }
}