{
  "contractName": "ERC1155Tradable",
  "abi": [
    {
      "inputs": [
        {
          "internalType": "string",
          "name": "_name",
          "type": "string"
        },
        {
          "internalType": "string",
          "name": "_symbol",
          "type": "string"
        },
        {
          "internalType": "string",
          "name": "_uri",
          "type": "string"
        },
        {
          "internalType": "address",
          "name": "_proxyRegistryAddress",
          "type": "address"
        }
      ],
      "stateMutability": "nonpayable",
      "type": "constructor"
    },
    {
      "anonymous": false,
      "inputs": [
        {
          "indexed": true,
          "internalType": "address",
          "name": "account",
          "type": "address"
        },
        {
          "indexed": true,
          "internalType": "address",
          "name": "operator",
          "type": "address"
        },
        {
          "indexed": false,
          "internalType": "bool",
          "name": "approved",
          "type": "bool"
        }
      ],
      "name": "ApprovalForAll",
      "type": "event"
    },
    {
      "anonymous": false,
      "inputs": [
        {
          "indexed": false,
          "internalType": "address",
          "name": "account",
          "type": "address"
        }
      ],
      "name": "Paused",
      "type": "event"
    },
    {
      "anonymous": false,
      "inputs": [
        {
          "indexed": true,
          "internalType": "bytes32",
          "name": "role",
          "type": "bytes32"
        },
        {
          "indexed": true,
          "internalType": "bytes32",
          "name": "previousAdminRole",
          "type": "bytes32"
        },
        {
          "indexed": true,
          "internalType": "bytes32",
          "name": "newAdminRole",
          "type": "bytes32"
        }
      ],
      "name": "RoleAdminChanged",
      "type": "event"
    },
    {
      "anonymous": false,
      "inputs": [
        {
          "indexed": true,
          "internalType": "bytes32",
          "name": "role",
          "type": "bytes32"
        },
        {
          "indexed": true,
          "internalType": "address",
          "name": "account",
          "type": "address"
        },
        {
          "indexed": true,
          "internalType": "address",
          "name": "sender",
          "type": "address"
        }
      ],
      "name": "RoleGranted",
      "type": "event"
    },
    {
      "anonymous": false,
      "inputs": [
        {
          "indexed": true,
          "internalType": "bytes32",
          "name": "role",
          "type": "bytes32"
        },
        {
          "indexed": true,
          "internalType": "address",
          "name": "account",
          "type": "address"
        },
        {
          "indexed": true,
          "internalType": "address",
          "name": "sender",
          "type": "address"
        }
      ],
      "name": "RoleRevoked",
      "type": "event"
    },
    {
      "anonymous": false,
      "inputs": [
        {
          "indexed": true,
          "internalType": "address",
          "name": "operator",
          "type": "address"
        },
        {
          "indexed": true,
          "internalType": "address",
          "name": "from",
          "type": "address"
        },
        {
          "indexed": true,
          "internalType": "address",
          "name": "to",
          "type": "address"
        },
        {
          "indexed": false,
          "internalType": "uint256[]",
          "name": "ids",
          "type": "uint256[]"
        },
        {
          "indexed": false,
          "internalType": "uint256[]",
          "name": "values",
          "type": "uint256[]"
        }
      ],
      "name": "TransferBatch",
      "type": "event"
    },
    {
      "anonymous": false,
      "inputs": [
        {
          "indexed": true,
          "internalType": "address",
          "name": "operator",
          "type": "address"
        },
        {
          "indexed": true,
          "internalType": "address",
          "name": "from",
          "type": "address"
        },
        {
          "indexed": true,
          "internalType": "address",
          "name": "to",
          "type": "address"
        },
        {
          "indexed": false,
          "internalType": "uint256",
          "name": "id",
          "type": "uint256"
        },
        {
          "indexed": false,
          "internalType": "uint256",
          "name": "value",
          "type": "uint256"
        }
      ],
      "name": "TransferSingle",
      "type": "event"
    },
    {
      "anonymous": false,
      "inputs": [
        {
          "indexed": false,
          "internalType": "string",
          "name": "value",
          "type": "string"
        },
        {
          "indexed": true,
          "internalType": "uint256",
          "name": "id",
          "type": "uint256"
        }
      ],
      "name": "URI",
      "type": "event"
    },
    {
      "anonymous": false,
      "inputs": [
        {
          "indexed": false,
          "internalType": "address",
          "name": "account",
          "type": "address"
        }
      ],
      "name": "Unpaused",
      "type": "event"
    },
    {
      "inputs": [],
      "name": "BURNER_ROLE",
      "outputs": [
        {
          "internalType": "bytes32",
          "name": "",
          "type": "bytes32"
        }
      ],
      "stateMutability": "view",
      "type": "function"
    },
    {
      "inputs": [],
      "name": "DEFAULT_ADMIN_ROLE",
      "outputs": [
        {
          "internalType": "bytes32",
          "name": "",
          "type": "bytes32"
        }
      ],
      "stateMutability": "view",
      "type": "function"
    },
    {
      "inputs": [],
      "name": "MINTER_ROLE",
      "outputs": [
        {
          "internalType": "bytes32",
          "name": "",
          "type": "bytes32"
        }
      ],
      "stateMutability": "view",
      "type": "function"
    },
    {
      "inputs": [],
      "name": "PAUSER_ROLE",
      "outputs": [
        {
          "internalType": "bytes32",
          "name": "",
          "type": "bytes32"
        }
      ],
      "stateMutability": "view",
      "type": "function"
    },
    {
      "inputs": [
        {
          "internalType": "uint256",
          "name": "",
          "type": "uint256"
        }
      ],
      "name": "creators",
      "outputs": [
        {
          "internalType": "address",
          "name": "",
          "type": "address"
        }
      ],
      "stateMutability": "view",
      "type": "function"
    },
    {
      "inputs": [
        {
          "internalType": "bytes32",
          "name": "role",
          "type": "bytes32"
        }
      ],
      "name": "getRoleAdmin",
      "outputs": [
        {
          "internalType": "bytes32",
          "name": "",
          "type": "bytes32"
        }
      ],
      "stateMutability": "view",
      "type": "function"
    },
    {
      "inputs": [
        {
          "internalType": "bytes32",
          "name": "role",
          "type": "bytes32"
        },
        {
          "internalType": "uint256",
          "name": "index",
          "type": "uint256"
        }
      ],
      "name": "getRoleMember",
      "outputs": [
        {
          "internalType": "address",
          "name": "",
          "type": "address"
        }
      ],
      "stateMutability": "view",
      "type": "function"
    },
    {
      "inputs": [
        {
          "internalType": "bytes32",
          "name": "role",
          "type": "bytes32"
        }
      ],
      "name": "getRoleMemberCount",
      "outputs": [
        {
          "internalType": "uint256",
          "name": "",
          "type": "uint256"
        }
      ],
      "stateMutability": "view",
      "type": "function"
    },
    {
      "inputs": [
        {
          "internalType": "bytes32",
          "name": "role",
          "type": "bytes32"
        },
        {
          "internalType": "address",
          "name": "account",
          "type": "address"
        }
      ],
      "name": "grantRole",
      "outputs": [],
      "stateMutability": "nonpayable",
      "type": "function"
    },
    {
      "inputs": [
        {
          "internalType": "bytes32",
          "name": "role",
          "type": "bytes32"
        },
        {
          "internalType": "address",
          "name": "account",
          "type": "address"
        }
      ],
      "name": "hasRole",
      "outputs": [
        {
          "internalType": "bool",
          "name": "",
          "type": "bool"
        }
      ],
      "stateMutability": "view",
      "type": "function"
    },
    {
      "inputs": [],
      "name": "name",
      "outputs": [
        {
          "internalType": "string",
          "name": "",
          "type": "string"
        }
      ],
      "stateMutability": "view",
      "type": "function"
    },
    {
      "inputs": [],
      "name": "paused",
      "outputs": [
        {
          "internalType": "bool",
          "name": "",
          "type": "bool"
        }
      ],
      "stateMutability": "view",
      "type": "function"
    },
    {
      "inputs": [],
      "name": "proxyRegistryAddress",
      "outputs": [
        {
          "internalType": "address",
          "name": "",
          "type": "address"
        }
      ],
      "stateMutability": "view",
      "type": "function"
    },
    {
      "inputs": [
        {
          "internalType": "bytes32",
          "name": "role",
          "type": "bytes32"
        },
        {
          "internalType": "address",
          "name": "account",
          "type": "address"
        }
      ],
      "name": "renounceRole",
      "outputs": [],
      "stateMutability": "nonpayable",
      "type": "function"
    },
    {
      "inputs": [
        {
          "internalType": "bytes32",
          "name": "role",
          "type": "bytes32"
        },
        {
          "internalType": "address",
          "name": "account",
          "type": "address"
        }
      ],
      "name": "revokeRole",
      "outputs": [],
      "stateMutability": "nonpayable",
      "type": "function"
    },
    {
      "inputs": [],
      "name": "symbol",
      "outputs": [
        {
          "internalType": "string",
          "name": "",
          "type": "string"
        }
      ],
      "stateMutability": "view",
      "type": "function"
    },
    {
      "inputs": [
        {
          "internalType": "address",
          "name": "_initialOwner",
          "type": "address"
        },
        {
          "internalType": "uint256",
          "name": "_initialSupply",
          "type": "uint256"
        },
        {
          "internalType": "string",
          "name": "_uri",
          "type": "string"
        },
        {
          "internalType": "bytes",
          "name": "_data",
          "type": "bytes"
        }
      ],
      "name": "create",
      "outputs": [
        {
          "internalType": "uint256",
          "name": "",
          "type": "uint256"
        }
      ],
      "stateMutability": "nonpayable",
      "type": "function"
    },
    {
      "inputs": [
        {
          "internalType": "bytes4",
          "name": "interfaceId",
          "type": "bytes4"
        }
      ],
      "name": "supportsInterface",
      "outputs": [
        {
          "internalType": "bool",
          "name": "",
          "type": "bool"
        }
      ],
      "stateMutability": "view",
      "type": "function"
    },
    {
      "inputs": [
        {
          "internalType": "uint256",
          "name": "_id",
          "type": "uint256"
        }
      ],
      "name": "uri",
      "outputs": [
        {
          "internalType": "string",
          "name": "",
          "type": "string"
        }
      ],
      "stateMutability": "view",
      "type": "function"
    },
    {
      "inputs": [
        {
          "internalType": "uint256",
          "name": "id",
          "type": "uint256"
        }
      ],
      "name": "totalSupply",
      "outputs": [
        {
          "internalType": "uint256",
          "name": "",
          "type": "uint256"
        }
      ],
      "stateMutability": "view",
      "type": "function"
    },
    {
      "inputs": [
        {
          "internalType": "address",
          "name": "account",
          "type": "address"
        },
        {
          "internalType": "uint256",
          "name": "id",
          "type": "uint256"
        }
      ],
      "name": "balanceOf",
      "outputs": [
        {
          "internalType": "uint256",
          "name": "",
          "type": "uint256"
        }
      ],
      "stateMutability": "view",
      "type": "function"
    },
    {
      "inputs": [
        {
          "internalType": "address[]",
          "name": "accounts",
          "type": "address[]"
        },
        {
          "internalType": "uint256[]",
          "name": "ids",
          "type": "uint256[]"
        }
      ],
      "name": "balanceOfBatch",
      "outputs": [
        {
          "internalType": "uint256[]",
          "name": "",
          "type": "uint256[]"
        }
      ],
      "stateMutability": "view",
      "type": "function"
    },
    {
      "inputs": [
        {
          "internalType": "address",
          "name": "operator",
          "type": "address"
        },
        {
          "internalType": "bool",
          "name": "approved",
          "type": "bool"
        }
      ],
      "name": "setApprovalForAll",
      "outputs": [],
      "stateMutability": "nonpayable",
      "type": "function"
    },
    {
      "inputs": [
        {
          "internalType": "address",
          "name": "account",
          "type": "address"
        },
        {
          "internalType": "address",
          "name": "operator",
          "type": "address"
        }
      ],
      "name": "isApprovedForAll",
      "outputs": [
        {
          "internalType": "bool",
          "name": "",
          "type": "bool"
        }
      ],
      "stateMutability": "view",
      "type": "function"
    },
    {
      "inputs": [
        {
          "internalType": "address",
          "name": "from",
          "type": "address"
        },
        {
          "internalType": "address",
          "name": "to",
          "type": "address"
        },
        {
          "internalType": "uint256",
          "name": "id",
          "type": "uint256"
        },
        {
          "internalType": "uint256",
          "name": "amount",
          "type": "uint256"
        },
        {
          "internalType": "bytes",
          "name": "data",
          "type": "bytes"
        }
      ],
      "name": "safeTransferFrom",
      "outputs": [],
      "stateMutability": "nonpayable",
      "type": "function"
    },
    {
      "inputs": [
        {
          "internalType": "address",
          "name": "from",
          "type": "address"
        },
        {
          "internalType": "address",
          "name": "to",
          "type": "address"
        },
        {
          "internalType": "uint256[]",
          "name": "ids",
          "type": "uint256[]"
        },
        {
          "internalType": "uint256[]",
          "name": "amounts",
          "type": "uint256[]"
        },
        {
          "internalType": "bytes",
          "name": "data",
          "type": "bytes"
        }
      ],
      "name": "safeBatchTransferFrom",
      "outputs": [],
      "stateMutability": "nonpayable",
      "type": "function"
    },
    {
      "inputs": [],
      "name": "pause",
      "outputs": [],
      "stateMutability": "nonpayable",
      "type": "function"
    },
    {
      "inputs": [],
      "name": "unpause",
      "outputs": [],
      "stateMutability": "nonpayable",
      "type": "function"
    }
  ],
  "bytecode": "0x608060405260006008553480156200001657600080fd5b506040516200323c3803806200323c8339810160408190526200003991620004a8565b6002805460ff191690556200006b60006200005c64010000000062000178810204565b6401000000006200017c810204565b620000a37f9f2df0fed2c77648de5860a4cc508cd0818c85b8b8a1ab4ceeef8d981c8956a66200005c64010000000062000178810204565b620000db7f3c11d16cbaffd01df69ce1c404f6340ee057498f5f00246190ea54220576a8486200005c64010000000062000178810204565b620001137f65d7a28e3265b37a6474929f336521b332c1681b933f6cb9f3376673440d862a6200005c64010000000062000178810204565b83516200012890600a9060208701906200034f565b5082516200013e90600b9060208601906200034f565b5060078054600160a060020a031916600160a060020a0383161790556200016e82640100000000620001c3810204565b50505050620005db565b3390565b62000196828264010000000062000e2b620001dc82021704565b6000828152600160205260409020620001be908264010000000062000e39620001f182021704565b505050565b8051620001d89060069060208401906200034f565b5050565b620001d882826401000000006200021a810204565b60006200021183600160a060020a038416640100000000620002b6810204565b90505b92915050565b6200022f82826401000000006200030e810204565b620001d857600082815260208181526040808320600160a060020a03851684529091529020805460ff191660011790556200027264010000000062000178810204565b600160a060020a031681600160a060020a0316837f2f8788117e7eff1d82e926ec794901d17c78024a50270940304540a733656f0d60405160405180910390a45050565b6000620002cd838364010000000062000337810204565b620003055750815460018181018455600084815260208082209093018490558454848252828601909352604090209190915562000214565b50600062000214565b600091825260208281526040808420600160a060020a0393909316845291905290205460ff1690565b60009081526001919091016020526040902054151590565b8280546200035d9062000556565b90600052602060002090601f016020900481019282620003815760008555620003cc565b82601f106200039c57805160ff1916838001178555620003cc565b82800160010185558215620003cc579182015b82811115620003cc578251825591602001919060010190620003af565b50620003da929150620003de565b5090565b5b80821115620003da5760008155600101620003df565b600082601f83011262000406578081fd5b81516001604060020a0380821115620004235762000423620005ac565b604051601f8301601f19908116603f011681019082821181831017156200044e576200044e620005ac565b816040528381526020925086838588010111156200046a578485fd5b8491505b838210156200048d57858201830151818301840152908201906200046e565b838211156200049e57848385830101525b9695505050505050565b60008060008060808587031215620004be578384fd5b84516001604060020a0380821115620004d5578586fd5b620004e388838901620003f5565b95506020870151915080821115620004f9578485fd5b6200050788838901620003f5565b945060408701519150808211156200051d578384fd5b506200052c87828801620003f5565b60608701519093509050600160a060020a03811681146200054b578182fd5b939692955090935050565b6002810460018216806200056b57607f821691505b60208210811415620005a6577f4e487b7100000000000000000000000000000000000000000000000000000000600052602260045260246000fd5b50919050565b7f4e487b7100000000000000000000000000000000000000000000000000000000600052604160045260246000fd5b612c5180620005eb6000396000f3fe608060405234801561001057600080fd5b50600436106101e0576000357c01000000000000000000000000000000000000000000000000000000009004806391d1485411610116578063cd7c0326116100b4578063e38e3b241161008e578063e38e3b2414610420578063e63ab1e914610433578063e985e9c51461045a578063f242432a1461049657600080fd5b8063cd7c0326146103d3578063d5391393146103e6578063d547741f1461040d57600080fd5b8063a22cb465116100f0578063a22cb46514610364578063bd85b03914610377578063ca15c87314610397578063cd53d08e146103aa57600080fd5b806391d148541461034157806395d89b4114610354578063a217fddf1461035c57600080fd5b80632f2ff15d116101835780634e1273f41161015d5780634e1273f4146102e35780635c975abb146103035780638456cb591461030e5780639010d07c1461031657600080fd5b80632f2ff15d146102b557806336568abe146102c85780633f4ba83a146102db57600080fd5b80630e89341c116101bf5780630e89341c14610243578063248a9ca314610256578063282c51f3146102795780632eb2c2d6146102a057600080fd5b8062fdd58e146101e557806301ffc9a71461020b57806306fdde031461022e575b600080fd5b6101f86101f3366004612387565b6104a9565b6040519081526020015b60405180910390f35b61021e61021936600461255b565b61055a565b6040519015158152602001610202565b6102366105cc565b6040516102029190612847565b610236610251366004612500565b61065a565b6101f8610264366004612500565b60009081526020819052604090206001015490565b6101f87f3c11d16cbaffd01df69ce1c404f6340ee057498f5f00246190ea54220576a84881565b6102b36102ae366004612244565b61071c565b005b6102b36102c3366004612518565b6107c1565b6102b36102d6366004612518565b6107e8565b6102b361080a565b6102f66102f1366004612437565b6108a1565b60405161020291906127e0565b60025460ff1661021e565b6102b3610a26565b61032961032436600461253a565b610abb565b604051600160a060020a039091168152602001610202565b61021e61034f366004612518565b610ada565b610236610b03565b6101f8600081565b6102b361037236600461234d565b610b10565b6101f8610385366004612500565b60009081526003602052604090205490565b6101f86103a5366004612500565b610bfe565b6103296103b8366004612500565b600960205260009081526040902054600160a060020a031681565b60075461032990600160a060020a031681565b6101f87f9f2df0fed2c77648de5860a4cc508cd0818c85b8b8a1ab4ceeef8d981c8956a681565b6102b361041b366004612518565b610c15565b6101f861042e3660046123b0565b610c1f565b6101f87f65d7a28e3265b37a6474929f336521b332c1681b933f6cb9f3376673440d862a81565b61021e610468366004612212565b600160a060020a03918216600090815260056020908152604080832093909416825291909152205460ff1690565b6102b36104a43660046122ea565b610d8d565b6000600160a060020a03831661052f5760405160e560020a62461bcd02815260206004820152602b60248201527f455243313135353a2062616c616e636520717565727920666f7220746865207a60448201527f65726f206164647265737300000000000000000000000000000000000000000060648201526084015b60405180910390fd5b506000818152600460209081526040808320600160a060020a03861684529091529020545b92915050565b6000600160e060020a031982167fd9b67a260000000000000000000000000000000000000000000000000000000014806105bd5750600160e060020a031982167f0e89341c00000000000000000000000000000000000000000000000000000000145b80610554575061055482610e4e565b600a80546105d990612a3e565b80601f016020809104026020016040519081016040528092919081815260200182805461060590612a3e565b80156106525780601f1061062757610100808354040283529160200191610652565b820191906000526020600020905b81548152906001019060200180831161063557829003601f168201915b505050505081565b600081815260096020526040902054606090600160a060020a03166106ea5760405160e560020a62461bcd02815260206004820152602560248201527f4552433732315472616461626c65237572693a204e4f4e4558495354454e545f60448201527f544f4b454e0000000000000000000000000000000000000000000000000000006064820152608401610526565b60066106f583610e8c565b604051602001610706929190612615565b6040516020818303038152906040529050919050565b600160a060020a03851633148061073857506107388533610468565b6107ad5760405160e560020a62461bcd02815260206004820152603260248201527f455243313135353a207472616e736665722063616c6c6572206973206e6f742060448201527f6f776e6572206e6f7220617070726f76656400000000000000000000000000006064820152608401610526565b6107ba8585858585610fef565b5050505050565b6107cb828261121d565b60008281526001602052604090206107e39082610e39565b505050565b6107f28282611243565b60008281526001602052604090206107e390826112ce565b6108347f65d7a28e3265b37a6474929f336521b332c1681b933f6cb9f3376673440d862a33610ada565b6108975760405160e560020a62461bcd02815260206004820152603b6024820152600080516020612bfc83398151915260448201527f686176652070617573657220726f6c6520746f20756e706175736500000000006064820152608401610526565b61089f6112e3565b565b6060815183511461091d5760405160e560020a62461bcd02815260206004820152602960248201527f455243313135353a206163636f756e747320616e6420696473206c656e67746860448201527f206d69736d6174636800000000000000000000000000000000000000000000006064820152608401610526565b6000835167ffffffffffffffff81111561094a5760e060020a634e487b7102600052604160045260246000fd5b604051908082528060200260200182016040528015610973578160200160208202803683370190505b50905060005b8451811015610a1e576109e08582815181106109a85760e060020a634e487b7102600052603260045260246000fd5b60200260200101518583815181106109d35760e060020a634e487b7102600052603260045260246000fd5b60200260200101516104a9565b828281518110610a035760e060020a634e487b7102600052603260045260246000fd5b6020908102919091010152610a1781612aa9565b9050610979565b509392505050565b610a507f65d7a28e3265b37a6474929f336521b332c1681b933f6cb9f3376673440d862a33610ada565b610ab35760405160e560020a62461bcd0281526020600482015260396024820152600080516020612bfc83398151915260448201527f686176652070617573657220726f6c6520746f207061757365000000000000006064820152608401610526565b61089f611382565b6000828152600160205260408120610ad3908361140d565b9392505050565b600091825260208281526040808420600160a060020a0393909316845291905290205460ff1690565b600b80546105d990612a3e565b33600160a060020a0383161415610b925760405160e560020a62461bcd02815260206004820152602960248201527f455243313135353a2073657474696e6720617070726f76616c2073746174757360448201527f20666f722073656c6600000000000000000000000000000000000000000000006064820152608401610526565b336000818152600560209081526040808320600160a060020a03871680855290835292819020805460ff191686151590811790915590519081529192917f17307eab39ab6107e8899845ad3d59bd9653f200f220920489ca2b5937696c31910160405180910390a35050565b600081815260016020526040812061055490611419565b6107f28282611423565b6000610c4b7f9f2df0fed2c77648de5860a4cc508cd0818c85b8b8a1ab4ceeef8d981c8956a633610ada565b610cae5760405160e560020a62461bcd02815260206004820152603a6024820152600080516020612bfc83398151915260448201527f68617665206d696e74657220726f6c6520746f206372656174650000000000006064820152608401610526565b6000610cb8611449565b9050610cc261145f565b6000818152600960205260409020805473ffffffffffffffffffffffffffffffffffffffff1916331790558415610d2e57807f6bb7ff708619ba0610cba295a58592e0451dee2622938c8755667688daf3529b8787604051610d25929190612818565b60405180910390a25b610d7088828987878080601f01602080910402602001604051908101604052809392919081815260200183838082843760009201919091525061147692505050565b600081815260036020526040902087905590509695505050505050565b600160a060020a038516331480610da95750610da98533610468565b610e1e5760405160e560020a62461bcd02815260206004820152602960248201527f455243313135353a2063616c6c6572206973206e6f74206f776e6572206e6f7260448201527f20617070726f76656400000000000000000000000000000000000000000000006064820152608401610526565b6107ba8585858585611657565b610e35828261177e565b5050565b6000610ad383600160a060020a038416611802565b6000600160e060020a031982167f5a05180f000000000000000000000000000000000000000000000000000000001480610554575061055482611851565b606081610ecc57505060408051808201909152600181527f3000000000000000000000000000000000000000000000000000000000000000602082015290565b8160005b8115610ef65780610ee081612aa9565b9150610eef9050600a836129ad565b9150610ed0565b60008167ffffffffffffffff811115610f225760e060020a634e487b7102600052604160045260246000fd5b6040519080825280601f01601f191660200182016040528015610f4c576020820181803683370190505b5090505b8415610fe757610f616001836129e0565b9150610f6e600a86612ac4565b610f79906030612995565b7f010000000000000000000000000000000000000000000000000000000000000002818381518110610fbe5760e060020a634e487b7102600052603260045260246000fd5b6020010190600160f860020a031916908160001a905350610fe0600a866129ad565b9450610f50565b949350505050565b81518351146110695760405160e560020a62461bcd02815260206004820152602860248201527f455243313135353a2069647320616e6420616d6f756e7473206c656e6774682060448201527f6d69736d617463680000000000000000000000000000000000000000000000006064820152608401610526565b600160a060020a0384166110925760405160e560020a62461bcd028152600401610526906128b7565b336110a18187878787876118b8565b60005b84518110156111af5760008582815181106110d25760e060020a634e487b7102600052603260045260246000fd5b6020026020010151905060008583815181106111015760e060020a634e487b7102600052603260045260246000fd5b6020908102919091018101516000848152600483526040808220600160a060020a038e1683529093529190912054909150818110156111555760405160e560020a62461bcd02815260040161052690612914565b6000838152600460209081526040808320600160a060020a038e8116855292528083208585039055908b16825281208054849290611194908490612995565b92505081905550505050806111a890612aa9565b90506110a4565b5084600160a060020a031686600160a060020a031682600160a060020a03167f4a39dc06d4c0dbc64b70af90fd698a233a518aa5d07e595d983b8c0526c8f7fb87876040516111ff9291906127f3565b60405180910390a4611215818787878787611934565b505050505050565b6000828152602081905260409020600101546112398133611ae3565b6107e3838361177e565b600160a060020a03811633146112c45760405160e560020a62461bcd02815260206004820152602f60248201527f416363657373436f6e74726f6c3a2063616e206f6e6c792072656e6f756e636560448201527f20726f6c657320666f722073656c6600000000000000000000000000000000006064820152608401610526565b610e358282611b4a565b6000610ad383600160a060020a038416611baf565b60025460ff166113385760405160e560020a62461bcd02815260206004820152601460248201527f5061757361626c653a206e6f74207061757365640000000000000000000000006044820152606401610526565b6002805460ff191690557f5db9ee0a495bf2e6ff9c91a7834c1ba4fdd244a5e8aa4e537bd38aeae4b073aa335b604051600160a060020a03909116815260200160405180910390a1565b60025460ff16156113d85760405160e560020a62461bcd02815260206004820152601060248201527f5061757361626c653a20706175736564000000000000000000000000000000006044820152606401610526565b6002805460ff191660011790557f62e78cea01bee320cd4e420270b5ea74000d11b0c9f74754ebdbfc544b05a2586113653390565b6000610ad38383611cd5565b6000610554825490565b60008281526020819052604090206001015461143f8133611ae3565b6107e38383611b4a565b60085460009061145a906001611d10565b905090565b6008805490600061146f83612aa9565b9190505550565b6114a07f9f2df0fed2c77648de5860a4cc508cd0818c85b8b8a1ab4ceeef8d981c8956a633610ada565b6115035760405160e560020a62461bcd0281526020600482015260386024820152600080516020612bfc83398151915260448201527f68617665206d696e74657220726f6c6520746f206d696e7400000000000000006064820152608401610526565b600160a060020a0384166115825760405160e560020a62461bcd02815260206004820152602160248201527f455243313135353a206d696e7420746f20746865207a65726f2061646472657360448201527f73000000000000000000000000000000000000000000000000000000000000006064820152608401610526565b336115a28160008761159388611d1c565b61159c88611d1c565b876118b8565b6000848152600460209081526040808320600160a060020a0389168452909152812080548592906115d4908490612995565b9091555050600084815260036020526040812080548592906115f7908490612995565b90915550506040805185815260208101859052600160a060020a0380881692600092918516917fc3d58168c5ae7397731d063d5bbf3d657854427343f4c083240f7aacaa2d0f62910160405180910390a46107ba81600087878787611d78565b600160a060020a0384166116805760405160e560020a62461bcd028152600401610526906128b7565b3361169081878761159388611d1c565b6000848152600460209081526040808320600160a060020a038a168452909152902054838110156116d65760405160e560020a62461bcd02815260040161052690612914565b6000858152600460209081526040808320600160a060020a038b8116855292528083208785039055908816825281208054869290611715908490612995565b90915550506040805186815260208101869052600160a060020a03808916928a821692918616917fc3d58168c5ae7397731d063d5bbf3d657854427343f4c083240f7aacaa2d0f62910160405180910390a4611775828888888888611d78565b50505050505050565b6117888282610ada565b610e3557600082815260208181526040808320600160a060020a03851684529091529020805460ff191660011790556117be3390565b600160a060020a031681600160a060020a0316837f2f8788117e7eff1d82e926ec794901d17c78024a50270940304540a733656f0d60405160405180910390a45050565b600081815260018301602052604081205461184957508154600181810184556000848152602080822090930184905584548482528286019093526040902091909155610554565b506000610554565b6000600160e060020a031982167f7965db0b00000000000000000000000000000000000000000000000000000000148061055457507f01ffc9a700000000000000000000000000000000000000000000000000000000600160e060020a0319831614610554565b60025460ff16156112155760405160e560020a62461bcd02815260206004820152602c60248201527f455243313135355061757361626c653a20746f6b656e207472616e736665722060448201527f7768696c652070617573656400000000000000000000000000000000000000006064820152608401610526565b600160a060020a0384163b15611215576040517fbc197c81000000000000000000000000000000000000000000000000000000008152600160a060020a0385169063bc197c8190611991908990899088908890889060040161273f565b602060405180830381600087803b1580156119ab57600080fd5b505af19250505080156119db575060408051601f3d908101601f191682019092526119d891810190612577565b60015b611a97576119e7612b23565b806308c379a01415611a2457506119fc612b58565b80611a075750611a26565b8060405160e560020a62461bcd0281526004016105269190612847565b505b60405160e560020a62461bcd02815260206004820152603460248201527f455243313135353a207472616e7366657220746f206e6f6e204552433131353560448201527f526563656976657220696d706c656d656e7465720000000000000000000000006064820152608401610526565b600160e060020a031981167fbc197c8100000000000000000000000000000000000000000000000000000000146117755760405160e560020a62461bcd0281526004016105269061285a565b611aed8282610ada565b610e3557611b0581600160a060020a03166014611e77565b611b10836020611e77565b604051602001611b219291906126be565b60408051601f198184030181529082905260e560020a62461bcd02825261052691600401612847565b611b548282610ada565b15610e3557600082815260208181526040808320600160a060020a0385168085529252808320805460ff1916905551339285917ff6391f5c32d9c69d2a47ea670b442974b53935d1edc7fd64eb21e047a839171b9190a45050565b60008181526001830160205260408120548015611ccb576000611bd36001836129e0565b8554909150600090611be7906001906129e0565b9050818114611c6e576000866000018281548110611c185760e060020a634e487b7102600052603260045260246000fd5b9060005260206000200154905080876000018481548110611c4c5760e060020a634e487b7102600052603260045260246000fd5b6000918252602080832090910192909255918252600188019052604090208390555b8554869080611c905760e060020a634e487b7102600052603160045260246000fd5b600190038181906000526020600020016000905590558560010160008681526020019081526020016000206000905560019350505050610554565b6000915050610554565b6000826000018281548110611cfd5760e060020a634e487b7102600052603260045260246000fd5b9060005260206000200154905092915050565b6000610ad38284612995565b60408051600180825281830190925260609160009190602080830190803683370190505090508281600081518110611d675760e060020a634e487b7102600052603260045260246000fd5b602090810291909101015292915050565b600160a060020a0384163b15611215576040517ff23a6e61000000000000000000000000000000000000000000000000000000008152600160a060020a0385169063f23a6e6190611dd5908990899088908890889060040161279d565b602060405180830381600087803b158015611def57600080fd5b505af1925050508015611e1f575060408051601f3d908101601f19168201909252611e1c91810190612577565b60015b611e2b576119e7612b23565b600160e060020a031981167ff23a6e6100000000000000000000000000000000000000000000000000000000146117755760405160e560020a62461bcd0281526004016105269061285a565b60606000611e868360026129c1565b611e91906002612995565b67ffffffffffffffff811115611eba5760e060020a634e487b7102600052604160045260246000fd5b6040519080825280601f01601f191660200182016040528015611ee4576020820181803683370190505b5090507f300000000000000000000000000000000000000000000000000000000000000081600081518110611f2c5760e060020a634e487b7102600052603260045260246000fd5b6020010190600160f860020a031916908160001a9053507f780000000000000000000000000000000000000000000000000000000000000081600181518110611f885760e060020a634e487b7102600052603260045260246000fd5b6020010190600160f860020a031916908160001a9053506000611fac8460026129c1565b611fb7906001612995565b90505b600181111561207c577f303132333435363738396162636465660000000000000000000000000000000085600f16601081106120095760e060020a634e487b7102600052603260045260246000fd5b1a7f01000000000000000000000000000000000000000000000000000000000000000282828151811061204f5760e060020a634e487b7102600052603260045260246000fd5b6020010190600160f860020a031916908160001a90535060109094049361207581612a27565b9050611fba565b508315610ad35760405160e560020a62461bcd02815260206004820181905260248201527f537472696e67733a20686578206c656e67746820696e73756666696369656e746044820152606401610526565b8035600160a060020a03811681146120e557600080fd5b919050565b600082601f8301126120fa578081fd5b8135602061210782612971565b6040516121148282612a7c565b838152828101915085830183850287018401881015612131578586fd5b855b8581101561214f57813584529284019290840190600101612133565b5090979650505050505050565b60008083601f84011261216d578182fd5b50813567ffffffffffffffff811115612184578182fd5b60208301915083602082850101111561219c57600080fd5b9250929050565b600082601f8301126121b3578081fd5b813567ffffffffffffffff8111156121cd576121cd612b0a565b6040516121e4601f8301601f191660200182612a7c565b8181528460208386010111156121f8578283fd5b816020850160208301379081016020019190915292915050565b60008060408385031215612224578182fd5b61222d836120ce565b915061223b602084016120ce565b90509250929050565b600080600080600060a0868803121561225b578081fd5b612264866120ce565b9450612272602087016120ce565b9350604086013567ffffffffffffffff8082111561228e578283fd5b61229a89838a016120ea565b945060608801359150808211156122af578283fd5b6122bb89838a016120ea565b935060808801359150808211156122d0578283fd5b506122dd888289016121a3565b9150509295509295909350565b600080600080600060a08688031215612301578081fd5b61230a866120ce565b9450612318602087016120ce565b93506040860135925060608601359150608086013567ffffffffffffffff811115612341578182fd5b6122dd888289016121a3565b6000806040838503121561235f578182fd5b612368836120ce565b91506020830135801515811461237c578182fd5b809150509250929050565b60008060408385031215612399578182fd5b6123a2836120ce565b946020939093013593505050565b600080600080600080608087890312156123c8578081fd5b6123d1876120ce565b955060208701359450604087013567ffffffffffffffff808211156123f4578283fd5b6124008a838b0161215c565b90965094506060890135915080821115612418578283fd5b5061242589828a0161215c565b979a9699509497509295939492505050565b60008060408385031215612449578182fd5b823567ffffffffffffffff80821115612460578384fd5b818501915085601f830112612473578384fd5b8135602061248082612971565b60405161248d8282612a7c565b8381528281019150858301838502870184018b10156124aa578889fd5b8896505b848710156124d3576124bf816120ce565b8352600196909601959183019183016124ae565b50965050860135925050808211156124e9578283fd5b506124f6858286016120ea565b9150509250929050565b600060208284031215612511578081fd5b5035919050565b6000806040838503121561252a578182fd5b8235915061223b602084016120ce565b6000806040838503121561254c578182fd5b50508035926020909101359150565b60006020828403121561256c578081fd5b8135610ad381612be2565b600060208284031215612588578081fd5b8151610ad381612be2565b6000815180845260208085019450808401835b838110156125c2578151875295820195908201906001016125a6565b509495945050505050565b600081518084526125e58160208601602086016129f7565b601f01601f19169290920160200192915050565b6000815161260b8185602086016129f7565b9290920192915050565b825460009081906002810460018083168061263157607f831692505b60208084108214156126545760e060020a634e487b710287526022600452602487fd5b8180156126685760018114612679576126a5565b60ff198616895284890196506126a5565b60008b815260209020885b8681101561269d5781548b820152908501908301612684565b505084890196505b5050505050506126b581856125f9565b95945050505050565b7f416363657373436f6e74726f6c3a206163636f756e74200000000000000000008152600083516126f68160178501602088016129f7565b7f206973206d697373696e6720726f6c652000000000000000000000000000000060179184019182015283516127338160288401602088016129f7565b01602801949350505050565b6000600160a060020a03808816835280871660208401525060a0604083015261276b60a0830186612593565b828103606084015261277d8186612593565b9050828103608084015261279181856125cd565b98975050505050505050565b6000600160a060020a03808816835280871660208401525084604083015283606083015260a060808301526127d560a08301846125cd565b979650505050505050565b602081526000610ad36020830184612593565b6040815260006128066040830185612593565b82810360208401526126b58185612593565b60208152816020820152818360408301376000818301604090810191909152601f909201601f19160101919050565b602081526000610ad360208301846125cd565b60208082526028908201527f455243313135353a204552433131353552656365697665722072656a6563746560408201527f6420746f6b656e73000000000000000000000000000000000000000000000000606082015260800190565b60208082526025908201527f455243313135353a207472616e7366657220746f20746865207a65726f20616460408201527f6472657373000000000000000000000000000000000000000000000000000000606082015260800190565b6020808252602a908201527f455243313135353a20696e73756666696369656e742062616c616e636520666f60408201527f72207472616e7366657200000000000000000000000000000000000000000000606082015260800190565b600067ffffffffffffffff82111561298b5761298b612b0a565b5060209081020190565b600082198211156129a8576129a8612ad8565b500190565b6000826129bc576129bc612af1565b500490565b60008160001904831182151516156129db576129db612ad8565b500290565b6000828210156129f2576129f2612ad8565b500390565b60005b83811015612a125781810151838201526020016129fa565b83811115612a21576000848401525b50505050565b600081612a3657612a36612ad8565b506000190190565b600281046001821680612a5257607f821691505b60208210811415612a765760e060020a634e487b7102600052602260045260246000fd5b50919050565b601f8201601f1916810167ffffffffffffffff81118282101715612aa257612aa2612b0a565b6040525050565b6000600019821415612abd57612abd612ad8565b5060010190565b600082612ad357612ad3612af1565b500690565b60e060020a634e487b7102600052601160045260246000fd5b60e060020a634e487b7102600052601260045260246000fd5b60e060020a634e487b7102600052604160045260246000fd5b600060033d1115612b5557600481823e517c010000000000000000000000000000000000000000000000000000000090045b90565b600060443d1015612b665790565b6040516003193d81016004833e81513d67ffffffffffffffff8160248401118184111715612b9657505050505090565b8285019150815181811115612bae5750505050505090565b843d8701016020828501011115612bc85750505050505090565b612bd760208286010187612a7c565b509095945050505050565b600160e060020a031981168114612bf857600080fd5b5056fe455243313135355072657365744d696e7465725061757365723a206d75737420a2646970667358221220bd2aa55d2f8bc2c90d52937bbd1be1035bbdbd443eac97277e70a1d82b8e828064736f6c63430008040033",
  "immutableReferences": {},
  "source": "// SPDX-License-Identifier: MIT\n\npragma solidity ^0.8.0;\n\nimport \"@openzeppelin/contracts/token/ERC1155/IERC1155.sol\";\nimport \"@openzeppelin/contracts/token/ERC1155/IERC1155Receiver.sol\";\nimport \"@openzeppelin/contracts/token/ERC1155/extensions/IERC1155MetadataURI.sol\";\nimport \"@openzeppelin/contracts/utils/Address.sol\";\nimport \"@openzeppelin/contracts/utils/Context.sol\";\nimport \"@openzeppelin/contracts/utils/introspection/ERC165.sol\";\nimport \"@openzeppelin/contracts/access/AccessControlEnumerable.sol\";\nimport \"@openzeppelin/contracts/utils/math/SafeMath.sol\";\nimport \"@openzeppelin/contracts/security/Pausable.sol\";\nimport \"@openzeppelin/contracts/utils/Strings.sol\";\n\ncontract OwnableDelegateProxy { }\n\ncontract ProxyRegistry {\n  mapping(address => OwnableDelegateProxy) public proxies;\n}\n\n/**\n * @dev Implementation of the basic standard multi-token.\n * See https://eips.ethereum.org/EIPS/eip-1155\n * Originally based on code by Enjin: https://github.com/enjin/erc-1155\n *\n * _Available since v3.1._\n */\ncontract ERC1155Tradable is Context, ERC165, IERC1155, IERC1155MetadataURI, AccessControlEnumerable, Pausable {\n    using Address for address;\n    using SafeMath for uint256;\n    using Strings for string;\n\n    // ROLE\n    bytes32 public constant MINTER_ROLE = keccak256(\"MINTER_ROLE\");\n    bytes32 public constant BURNER_ROLE = keccak256(\"BURNER_ROLE\");\n    bytes32 public constant PAUSER_ROLE = keccak256(\"PAUSER_ROLE\");\n\n    // Mapping from token ID to totalSupply\n    mapping(uint256 => uint256) private _totalSupply;\n\n    // Mapping from token ID to account balances\n    mapping(uint256 => mapping(address => uint256)) private _balances;\n\n    // Mapping from account to operator approvals\n    mapping(address => mapping(address => bool)) private _operatorApprovals;\n\n    // Used as the URI for all token types by relying on ID substitution, e.g. https://token-cdn-domain/{id}.json\n    string private _uri;\n\n    address public proxyRegistryAddress;\n\n    // current TokenID\n    uint256 private _currentTokenID = 0;\n\n    // creators\n    mapping (uint256 => address) public creators;\n\n    // Contract name\n    string public name;\n\n    // Contract symbol\n    string public symbol;\n\n    /**\n    * @dev Require msg.sender to be the creator of the token id\n    */\n    modifier creatorOnly(uint256 _id) {\n        require(creators[_id] == msg.sender, \"ERC1155Tradable#creatorOnly: ONLY_CREATOR_ALLOWED\");\n        _;\n    }\n\n    /**\n    * @dev Require msg.sender to own more than 0 of the token id\n    */\n    modifier ownersOnly(uint256 _id) {\n        require(_balances[_id][msg.sender] > 0, \"ERC1155Tradable#ownersOnly: ONLY_OWNERS_ALLOWED\");\n        _;\n    }\n\n    /**\n     * @dev Grants `DEFAULT_ADMIN_ROLE`, `MINTER_ROLE`, and `PAUSER_ROLE` to the account that\n     * deploys the contract.\n     */\n    constructor(\n        string memory _name,\n        string memory _symbol,\n        string memory _uri,\n        address _proxyRegistryAddress\n    ) {\n        _setupRole(DEFAULT_ADMIN_ROLE, _msgSender());\n        _setupRole(MINTER_ROLE, _msgSender());\n        _setupRole(BURNER_ROLE, _msgSender());\n        _setupRole(PAUSER_ROLE, _msgSender());\n\n        name = _name;\n        symbol = _symbol;\n        proxyRegistryAddress = _proxyRegistryAddress;\n        _setURI(_uri);\n    }\n\n  /**\n    * @dev Creates a new token type and assigns _initialSupply to an address\n    * NOTE: remove onlyOwner if you want third parties to create new tokens on your contract (which may change your IDs)\n    * @param _initialOwner address of the first owner of the token\n    * @param _initialSupply amount to supply the first owner\n    * @param _uri Optional URI for this token type\n    * @param _data Data to pass if receiver is contract\n    * @return The newly created token ID\n    */\n    function create(\n        address _initialOwner,\n        uint256 _initialSupply,\n        string calldata _uri,\n        bytes calldata _data\n    ) external returns (uint256) {\n        require(hasRole(MINTER_ROLE, _msgSender()), \"ERC1155PresetMinterPauser: must have minter role to create\");\n\n        uint256 _id = _getNextTokenID();\n        _incrementTokenTypeId();\n        creators[_id] = msg.sender;\n\n        if (bytes(_uri).length > 0) {\n        emit URI(_uri, _id);\n        }\n\n        _mint(_initialOwner, _id, _initialSupply, _data);\n        _totalSupply[_id] = _initialSupply;\n        return _id;\n    }\n\n    /**\n     * @dev See {IERC165-supportsInterface}.\n     */\n    function supportsInterface(bytes4 interfaceId) public view virtual override(ERC165, IERC165, AccessControlEnumerable) returns (bool) {\n        return\n            interfaceId == type(IERC1155).interfaceId ||\n            interfaceId == type(IERC1155MetadataURI).interfaceId ||\n            super.supportsInterface(interfaceId);\n    }\n\n    /**\n     * @dev See {IERC1155MetadataURI-uri}.\n     *\n     * This implementation returns the same URI for *all* token types. It relies\n     * on the token type ID substitution mechanism\n     * https://eips.ethereum.org/EIPS/eip-1155#metadata[defined in the EIP].\n     *\n     * Clients calling this function must replace the `\\{id\\}` substring with the\n     * actual token type ID.\n     */\n    function uri(uint256 _id) public view virtual override returns (string memory) {\n        require(_exists(_id), \"ERC721Tradable#uri: NONEXISTENT_TOKEN\");\n        return string(abi.encodePacked(_uri, Strings.toString(_id)));\n    }\n\n    /**\n     * @dev Total amount of tokens in with a given id.\n     */\n    function totalSupply(uint256 id) public view virtual returns (uint256) {\n        return _totalSupply[id];\n    }\n\n    /**\n     * @dev See {IERC1155-balanceOf}.\n     *\n     * Requirements:\n     *\n     * - `account` cannot be the zero address.\n     */\n    function balanceOf(address account, uint256 id) public view virtual override returns (uint256) {\n        require(account != address(0), \"ERC1155: balance query for the zero address\");\n        return _balances[id][account];\n    }\n\n    /**\n     * @dev See {IERC1155-balanceOfBatch}.\n     *\n     * Requirements:\n     *\n     * - `accounts` and `ids` must have the same length.\n     */\n    function balanceOfBatch(address[] memory accounts, uint256[] memory ids)\n        public\n        view\n        virtual\n        override\n        returns (uint256[] memory)\n    {\n        require(accounts.length == ids.length, \"ERC1155: accounts and ids length mismatch\");\n\n        uint256[] memory batchBalances = new uint256[](accounts.length);\n\n        for (uint256 i = 0; i < accounts.length; ++i) {\n            batchBalances[i] = balanceOf(accounts[i], ids[i]);\n        }\n\n        return batchBalances;\n    }\n\n    /**\n     * @dev See {IERC1155-setApprovalForAll}.\n     */\n    function setApprovalForAll(address operator, bool approved) public virtual override {\n        require(_msgSender() != operator, \"ERC1155: setting approval status for self\");\n\n        _operatorApprovals[_msgSender()][operator] = approved;\n        emit ApprovalForAll(_msgSender(), operator, approved);\n    }\n\n    /**\n     * @dev See {IERC1155-isApprovedForAll}.\n     */\n    function isApprovedForAll(address account, address operator) public view virtual override returns (bool) {\n        // Whitelist OpenSea proxy contract for easy trading.\n        // ProxyRegistry proxyRegistry = ProxyRegistry(proxyRegistryAddress);\n        // if (address(proxyRegistry.proxies(account)) == operator) {\n        //     return true;\n        // }\n        return _operatorApprovals[account][operator];\n    }\n\n    /**\n     * @dev See {IERC1155-safeTransferFrom}.\n     */\n    function safeTransferFrom(\n        address from,\n        address to,\n        uint256 id,\n        uint256 amount,\n        bytes memory data\n    ) public virtual override {\n        require(\n            from == _msgSender() || isApprovedForAll(from, _msgSender()),\n            \"ERC1155: caller is not owner nor approved\"\n        );\n        _safeTransferFrom(from, to, id, amount, data);\n    }\n\n    /**\n     * @dev See {IERC1155-safeBatchTransferFrom}.\n     */\n    function safeBatchTransferFrom(\n        address from,\n        address to,\n        uint256[] memory ids,\n        uint256[] memory amounts,\n        bytes memory data\n    ) public virtual override {\n        require(\n            from == _msgSender() || isApprovedForAll(from, _msgSender()),\n            \"ERC1155: transfer caller is not owner nor approved\"\n        );\n        _safeBatchTransferFrom(from, to, ids, amounts, data);\n    }\n\n    /**\n     * @dev Transfers `amount` tokens of token type `id` from `from` to `to`.\n     *\n     * Emits a {TransferSingle} event.\n     *\n     * Requirements:\n     *\n     * - `to` cannot be the zero address.\n     * - `from` must have a balance of tokens of type `id` of at least `amount`.\n     * - If `to` refers to a smart contract, it must implement {IERC1155Receiver-onERC1155Received} and return the\n     * acceptance magic value.\n     */\n    function _safeTransferFrom(\n        address from,\n        address to,\n        uint256 id,\n        uint256 amount,\n        bytes memory data\n    ) internal virtual {\n        require(to != address(0), \"ERC1155: transfer to the zero address\");\n\n        address operator = _msgSender();\n\n        _beforeTokenTransfer(operator, from, to, _asSingletonArray(id), _asSingletonArray(amount), data);\n\n        uint256 fromBalance = _balances[id][from];\n        require(fromBalance >= amount, \"ERC1155: insufficient balance for transfer\");\n        unchecked {\n            _balances[id][from] = fromBalance - amount;\n        }\n        _balances[id][to] += amount;\n\n        emit TransferSingle(operator, from, to, id, amount);\n\n        _doSafeTransferAcceptanceCheck(operator, from, to, id, amount, data);\n    }\n\n    /**\n     * @dev xref:ROOT:erc1155.adoc#batch-operations[Batched] version of {_safeTransferFrom}.\n     *\n     * Emits a {TransferBatch} event.\n     *\n     * Requirements:\n     *\n     * - If `to` refers to a smart contract, it must implement {IERC1155Receiver-onERC1155BatchReceived} and return the\n     * acceptance magic value.\n     */\n    function _safeBatchTransferFrom(\n        address from,\n        address to,\n        uint256[] memory ids,\n        uint256[] memory amounts,\n        bytes memory data\n    ) internal virtual {\n        require(ids.length == amounts.length, \"ERC1155: ids and amounts length mismatch\");\n        require(to != address(0), \"ERC1155: transfer to the zero address\");\n\n        address operator = _msgSender();\n\n        _beforeTokenTransfer(operator, from, to, ids, amounts, data);\n\n        for (uint256 i = 0; i < ids.length; ++i) {\n            uint256 id = ids[i];\n            uint256 amount = amounts[i];\n\n            uint256 fromBalance = _balances[id][from];\n            require(fromBalance >= amount, \"ERC1155: insufficient balance for transfer\");\n            unchecked {\n                _balances[id][from] = fromBalance - amount;\n            }\n            _balances[id][to] += amount;\n        }\n\n        emit TransferBatch(operator, from, to, ids, amounts);\n\n        _doSafeBatchTransferAcceptanceCheck(operator, from, to, ids, amounts, data);\n    }\n\n    /**\n     * @dev Sets a new URI for all token types, by relying on the token type ID\n     * substitution mechanism\n     * https://eips.ethereum.org/EIPS/eip-1155#metadata[defined in the EIP].\n     *\n     * By this mechanism, any occurrence of the `\\{id\\}` substring in either the\n     * URI or any of the amounts in the JSON file at said URI will be replaced by\n     * clients with the token type ID.\n     *\n     * For example, the `https://token-cdn-domain/\\{id\\}.json` URI would be\n     * interpreted by clients as\n     * `https://token-cdn-domain/000000000000000000000000000000000000000000000000000000000004cce0.json`\n     * for token type ID 0x4cce0.\n     *\n     * See {uri}.\n     *\n     * Because these URIs cannot be meaningfully represented by the {URI} event,\n     * this function emits no events.\n     */\n    function _setURI(string memory newuri) internal virtual {\n        _uri = newuri;\n    }\n\n    /**\n     * @dev Creates `amount` tokens of token type `id`, and assigns them to `account`.\n     *\n     * Emits a {TransferSingle} event.\n     *\n     * Requirements:\n     *\n     * - `account` cannot be the zero address.\n     * - If `account` refers to a smart contract, it must implement {IERC1155Receiver-onERC1155Received} and return the\n     * acceptance magic value.\n     */\n    function _mint(\n        address account,\n        uint256 id,\n        uint256 amount,\n        bytes memory data\n    ) internal virtual {\n        require(hasRole(MINTER_ROLE, _msgSender()), \"ERC1155PresetMinterPauser: must have minter role to mint\");\n        require(account != address(0), \"ERC1155: mint to the zero address\");\n\n        address operator = _msgSender();\n\n        _beforeTokenTransfer(operator, address(0), account, _asSingletonArray(id), _asSingletonArray(amount), data);\n\n        _balances[id][account] += amount;\n        _totalSupply[id] += amount;\n        emit TransferSingle(operator, address(0), account, id, amount);\n\n        _doSafeTransferAcceptanceCheck(operator, address(0), account, id, amount, data);\n    }\n\n    /**\n     * @dev xref:ROOT:erc1155.adoc#batch-operations[Batched] version of {_mint}.\n     *\n     * Requirements:\n     *\n     * - `ids` and `amounts` must have the same length.\n     * - If `to` refers to a smart contract, it must implement {IERC1155Receiver-onERC1155BatchReceived} and return the\n     * acceptance magic value.\n     */\n    function _mintBatch(\n        address to,\n        uint256[] memory ids,\n        uint256[] memory amounts,\n        bytes memory data\n    ) internal virtual {\n        require(hasRole(MINTER_ROLE, _msgSender()), \"ERC1155PresetMinterPauser: must have minter role to mint\");\n        require(to != address(0), \"ERC1155: mint to the zero address\");\n        require(ids.length == amounts.length, \"ERC1155: ids and amounts length mismatch\");\n\n        address operator = _msgSender();\n\n        _beforeTokenTransfer(operator, address(0), to, ids, amounts, data);\n\n        for (uint256 i = 0; i < ids.length; i++) {\n            _balances[ids[i]][to] += amounts[i];\n            _totalSupply[ids[i]] += amounts[i];\n        }\n\n        emit TransferBatch(operator, address(0), to, ids, amounts);\n\n        _doSafeBatchTransferAcceptanceCheck(operator, address(0), to, ids, amounts, data);\n    }\n\n    /**\n     * @dev Destroys `amount` tokens of token type `id` from `account`\n     *\n     * Requirements:\n     *\n     * - `account` cannot be the zero address.\n     * - `account` must have at least `amount` tokens of token type `id`.\n     */\n    function _burn(\n        address account,\n        uint256 id,\n        uint256 amount\n    ) internal virtual {\n        require(hasRole(BURNER_ROLE, _msgSender()), \"ERC1155PresetMinterPauser: must have minter role to burn\");\n        require(account != address(0), \"ERC1155: burn from the zero address\");\n\n        address operator = _msgSender();\n\n        _beforeTokenTransfer(operator, account, address(0), _asSingletonArray(id), _asSingletonArray(amount), \"\");\n\n        uint256 accountBalance = _balances[id][account];\n        require(accountBalance >= amount, \"ERC1155: burn amount exceeds balance\");\n        unchecked {\n            _balances[id][account] = accountBalance - amount;\n            _totalSupply[id] -= amount;\n        }\n\n        emit TransferSingle(operator, account, address(0), id, amount);\n    }\n\n    /**\n     * @dev xref:ROOT:erc1155.adoc#batch-operations[Batched] version of {_burn}.\n     *\n     * Requirements:\n     *\n     * - `ids` and `amounts` must have the same length.\n     */\n    function _burnBatch(\n        address account,\n        uint256[] memory ids,\n        uint256[] memory amounts\n    ) internal virtual {\n        require(hasRole(BURNER_ROLE, _msgSender()), \"ERC1155PresetMinterPauser: must have minter role to burn\");\n        require(account != address(0), \"ERC1155: burn from the zero address\");\n        require(ids.length == amounts.length, \"ERC1155: ids and amounts length mismatch\");\n\n        address operator = _msgSender();\n\n        _beforeTokenTransfer(operator, account, address(0), ids, amounts, \"\");\n\n        for (uint256 i = 0; i < ids.length; i++) {\n            uint256 id = ids[i];\n            uint256 amount = amounts[i];\n\n            uint256 accountBalance = _balances[id][account];\n            require(accountBalance >= amount, \"ERC1155: burn amount exceeds balance\");\n            unchecked {\n                _balances[id][account] = accountBalance - amount;\n                _totalSupply[ids[i]] -= amounts[i];\n            }\n        }\n\n        emit TransferBatch(operator, account, address(0), ids, amounts);\n    }\n\n    /**\n     * @dev Pauses all token transfers.\n     *\n     * See {ERC1155Pausable} and {Pausable-_pause}.\n     *\n     * Requirements:\n     *\n     * - the caller must have the `PAUSER_ROLE`.\n     */\n    function pause() public virtual {\n        require(hasRole(PAUSER_ROLE, _msgSender()), \"ERC1155PresetMinterPauser: must have pauser role to pause\");\n        _pause();\n    }\n\n    /**\n     * @dev Unpauses all token transfers.\n     *\n     * See {ERC1155Pausable} and {Pausable-_unpause}.\n     *\n     * Requirements:\n     *\n     * - the caller must have the `PAUSER_ROLE`.\n     */\n    function unpause() public virtual {\n        require(hasRole(PAUSER_ROLE, _msgSender()), \"ERC1155PresetMinterPauser: must have pauser role to unpause\");\n        _unpause();\n    }\n\n\n    /**\n     * @dev Hook that is called before any token transfer. This includes minting\n     * and burning, as well as batched variants.\n     *\n     * The same hook is called on both single and batched variants. For single\n     * transfers, the length of the `id` and `amount` arrays will be 1.\n     *\n     * Calling conditions (for each `id` and `amount` pair):\n     *\n     * - When `from` and `to` are both non-zero, `amount` of ``from``'s tokens\n     * of token type `id` will be  transferred to `to`.\n     * - When `from` is zero, `amount` tokens of token type `id` will be minted\n     * for `to`.\n     * - when `to` is zero, `amount` of ``from``'s tokens of token type `id`\n     * will be burned.\n     * - `from` and `to` are never both zero.\n     * - `ids` and `amounts` have the same, non-zero length.\n     *\n     * To learn more about hooks, head to xref:ROOT:extending-contracts.adoc#using-hooks[Using Hooks].\n     */\n    function _beforeTokenTransfer(\n        address operator,\n        address from,\n        address to,\n        uint256[] memory ids,\n        uint256[] memory amounts,\n        bytes memory data\n    ) internal virtual {\n        require(!paused(), \"ERC1155Pausable: token transfer while paused\");\n    }\n\n    function _doSafeTransferAcceptanceCheck(\n        address operator,\n        address from,\n        address to,\n        uint256 id,\n        uint256 amount,\n        bytes memory data\n    ) private {\n        if (to.isContract()) {\n            try IERC1155Receiver(to).onERC1155Received(operator, from, id, amount, data) returns (bytes4 response) {\n                if (response != IERC1155Receiver.onERC1155Received.selector) {\n                    revert(\"ERC1155: ERC1155Receiver rejected tokens\");\n                }\n            } catch Error(string memory reason) {\n                revert(reason);\n            } catch {\n                revert(\"ERC1155: transfer to non ERC1155Receiver implementer\");\n            }\n        }\n    }\n\n    function _doSafeBatchTransferAcceptanceCheck(\n        address operator,\n        address from,\n        address to,\n        uint256[] memory ids,\n        uint256[] memory amounts,\n        bytes memory data\n    ) private {\n        if (to.isContract()) {\n            try IERC1155Receiver(to).onERC1155BatchReceived(operator, from, ids, amounts, data) returns (\n                bytes4 response\n            ) {\n                if (response != IERC1155Receiver.onERC1155BatchReceived.selector) {\n                    revert(\"ERC1155: ERC1155Receiver rejected tokens\");\n                }\n            } catch Error(string memory reason) {\n                revert(reason);\n            } catch {\n                revert(\"ERC1155: transfer to non ERC1155Receiver implementer\");\n            }\n        }\n    }\n\n    function _asSingletonArray(uint256 element) private pure returns (uint256[] memory) {\n        uint256[] memory array = new uint256[](1);\n        array[0] = element;\n\n        return array;\n    }\n\n    /**\n     * @dev Change the creator address for given token\n     * @param _to   Address of the new creator\n     * @param _id  Token IDs to change creator of\n     */\n    function _setCreator(address _to, uint256 _id) internal creatorOnly(_id)\n    {\n        creators[_id] = _to;\n    }\n\n    /**\n     * @dev calculates the next token ID based on value of _currentTokenID\n     * @return uint256 for the next token ID\n     */\n    function _getNextTokenID() private view returns (uint256) {\n        return _currentTokenID.add(1);\n    }\n\n    /**\n     * @dev increments the value of _currentTokenID\n     */\n    function _incrementTokenTypeId() private  {\n        _currentTokenID++;\n    }\n\n    /**\n    * @dev Returns whether the specified token exists by checking to see if it has a creator\n    * @param _id uint256 ID of the token to query the existence of\n    * @return bool whether the token exists\n    */\n    function _exists(\n        uint256 _id\n    ) internal view returns (bool) {\n        return creators[_id] != address(0);\n    }\n}\n",
  "sourcePath": "/Users/tuminfei/Code/Nodejs/uniarts-eth-dao/contracts/ERC1155/ERC1155Tradable.sol",
  "compiler": {
    "name": "solc",
    "version": "0.8.4+commit.c7e474f2.Emscripten.clang"
  },
  "schemaVersion": "3.3.0",
  "updatedAt": "2021-12-06T05:13:37.095Z",
  "devdoc": {
    "details": "Implementation of the basic standard multi-token. See https://eips.ethereum.org/EIPS/eip-1155 Originally based on code by Enjin: https://github.com/enjin/erc-1155 _Available since v3.1._",
    "kind": "dev",
    "methods": {
      "balanceOf(address,uint256)": {
        "details": "See {IERC1155-balanceOf}. Requirements: - `account` cannot be the zero address."
      },
      "balanceOfBatch(address[],uint256[])": {
        "details": "See {IERC1155-balanceOfBatch}. Requirements: - `accounts` and `ids` must have the same length."
      },
      "constructor": {
        "details": "Grants `DEFAULT_ADMIN_ROLE`, `MINTER_ROLE`, and `PAUSER_ROLE` to the account that deploys the contract."
      },
      "create(address,uint256,string,bytes)": {
        "details": "Creates a new token type and assigns _initialSupply to an address NOTE: remove onlyOwner if you want third parties to create new tokens on your contract (which may change your IDs)",
        "params": {
          "_data": "Data to pass if receiver is contract",
          "_initialOwner": "address of the first owner of the token",
          "_initialSupply": "amount to supply the first owner",
          "_uri": "Optional URI for this token type"
        },
        "returns": {
          "_0": "The newly created token ID"
        }
      },
      "getRoleAdmin(bytes32)": {
        "details": "Returns the admin role that controls `role`. See {grantRole} and {revokeRole}. To change a role's admin, use {_setRoleAdmin}."
      },
      "getRoleMember(bytes32,uint256)": {
        "details": "Returns one of the accounts that have `role`. `index` must be a value between 0 and {getRoleMemberCount}, non-inclusive. Role bearers are not sorted in any particular way, and their ordering may change at any point. WARNING: When using {getRoleMember} and {getRoleMemberCount}, make sure you perform all queries on the same block. See the following https://forum.openzeppelin.com/t/iterating-over-elements-on-enumerableset-in-openzeppelin-contracts/2296[forum post] for more information."
      },
      "getRoleMemberCount(bytes32)": {
        "details": "Returns the number of accounts that have `role`. Can be used together with {getRoleMember} to enumerate all bearers of a role."
      },
      "grantRole(bytes32,address)": {
        "details": "Overload {grantRole} to track enumerable memberships"
      },
      "hasRole(bytes32,address)": {
        "details": "Returns `true` if `account` has been granted `role`."
      },
      "isApprovedForAll(address,address)": {
        "details": "See {IERC1155-isApprovedForAll}."
      },
      "pause()": {
        "details": "Pauses all token transfers. See {ERC1155Pausable} and {Pausable-_pause}. Requirements: - the caller must have the `PAUSER_ROLE`."
      },
      "paused()": {
        "details": "Returns true if the contract is paused, and false otherwise."
      },
      "renounceRole(bytes32,address)": {
        "details": "Overload {renounceRole} to track enumerable memberships"
      },
      "revokeRole(bytes32,address)": {
        "details": "Overload {revokeRole} to track enumerable memberships"
      },
      "safeBatchTransferFrom(address,address,uint256[],uint256[],bytes)": {
        "details": "See {IERC1155-safeBatchTransferFrom}."
      },
      "safeTransferFrom(address,address,uint256,uint256,bytes)": {
        "details": "See {IERC1155-safeTransferFrom}."
      },
      "setApprovalForAll(address,bool)": {
        "details": "See {IERC1155-setApprovalForAll}."
      },
      "supportsInterface(bytes4)": {
        "details": "See {IERC165-supportsInterface}."
      },
      "totalSupply(uint256)": {
        "details": "Total amount of tokens in with a given id."
      },
      "unpause()": {
        "details": "Unpauses all token transfers. See {ERC1155Pausable} and {Pausable-_unpause}. Requirements: - the caller must have the `PAUSER_ROLE`."
      },
      "uri(uint256)": {
        "details": "See {IERC1155MetadataURI-uri}. This implementation returns the same URI for *all* token types. It relies on the token type ID substitution mechanism https://eips.ethereum.org/EIPS/eip-1155#metadata[defined in the EIP]. Clients calling this function must replace the `\\{id\\}` substring with the actual token type ID."
      }
    },
    "version": 1
  },
  "userdoc": {
    "kind": "user",
    "methods": {},
    "version": 1
  }
}