{
  "contractName": "ERC1155Tradable",
  "abi": [
    {
      "inputs": [
        {
          "internalType": "string",
          "name": "_name",
          "type": "string"
        },
        {
          "internalType": "string",
          "name": "_symbol",
          "type": "string"
        },
        {
          "internalType": "string",
          "name": "_uri",
          "type": "string"
        },
        {
          "internalType": "address",
          "name": "_proxyRegistryAddress",
          "type": "address"
        }
      ],
      "stateMutability": "nonpayable",
      "type": "constructor"
    },
    {
      "anonymous": false,
      "inputs": [
        {
          "indexed": true,
          "internalType": "address",
          "name": "account",
          "type": "address"
        },
        {
          "indexed": true,
          "internalType": "address",
          "name": "operator",
          "type": "address"
        },
        {
          "indexed": false,
          "internalType": "bool",
          "name": "approved",
          "type": "bool"
        }
      ],
      "name": "ApprovalForAll",
      "type": "event"
    },
    {
      "anonymous": false,
      "inputs": [
        {
          "indexed": false,
          "internalType": "address",
          "name": "account",
          "type": "address"
        }
      ],
      "name": "Paused",
      "type": "event"
    },
    {
      "anonymous": false,
      "inputs": [
        {
          "indexed": true,
          "internalType": "bytes32",
          "name": "role",
          "type": "bytes32"
        },
        {
          "indexed": true,
          "internalType": "bytes32",
          "name": "previousAdminRole",
          "type": "bytes32"
        },
        {
          "indexed": true,
          "internalType": "bytes32",
          "name": "newAdminRole",
          "type": "bytes32"
        }
      ],
      "name": "RoleAdminChanged",
      "type": "event"
    },
    {
      "anonymous": false,
      "inputs": [
        {
          "indexed": true,
          "internalType": "bytes32",
          "name": "role",
          "type": "bytes32"
        },
        {
          "indexed": true,
          "internalType": "address",
          "name": "account",
          "type": "address"
        },
        {
          "indexed": true,
          "internalType": "address",
          "name": "sender",
          "type": "address"
        }
      ],
      "name": "RoleGranted",
      "type": "event"
    },
    {
      "anonymous": false,
      "inputs": [
        {
          "indexed": true,
          "internalType": "bytes32",
          "name": "role",
          "type": "bytes32"
        },
        {
          "indexed": true,
          "internalType": "address",
          "name": "account",
          "type": "address"
        },
        {
          "indexed": true,
          "internalType": "address",
          "name": "sender",
          "type": "address"
        }
      ],
      "name": "RoleRevoked",
      "type": "event"
    },
    {
      "anonymous": false,
      "inputs": [
        {
          "indexed": true,
          "internalType": "address",
          "name": "operator",
          "type": "address"
        },
        {
          "indexed": true,
          "internalType": "address",
          "name": "from",
          "type": "address"
        },
        {
          "indexed": true,
          "internalType": "address",
          "name": "to",
          "type": "address"
        },
        {
          "indexed": false,
          "internalType": "uint256[]",
          "name": "ids",
          "type": "uint256[]"
        },
        {
          "indexed": false,
          "internalType": "uint256[]",
          "name": "values",
          "type": "uint256[]"
        }
      ],
      "name": "TransferBatch",
      "type": "event"
    },
    {
      "anonymous": false,
      "inputs": [
        {
          "indexed": true,
          "internalType": "address",
          "name": "operator",
          "type": "address"
        },
        {
          "indexed": true,
          "internalType": "address",
          "name": "from",
          "type": "address"
        },
        {
          "indexed": true,
          "internalType": "address",
          "name": "to",
          "type": "address"
        },
        {
          "indexed": false,
          "internalType": "uint256",
          "name": "id",
          "type": "uint256"
        },
        {
          "indexed": false,
          "internalType": "uint256",
          "name": "value",
          "type": "uint256"
        }
      ],
      "name": "TransferSingle",
      "type": "event"
    },
    {
      "anonymous": false,
      "inputs": [
        {
          "indexed": false,
          "internalType": "string",
          "name": "value",
          "type": "string"
        },
        {
          "indexed": true,
          "internalType": "uint256",
          "name": "id",
          "type": "uint256"
        }
      ],
      "name": "URI",
      "type": "event"
    },
    {
      "anonymous": false,
      "inputs": [
        {
          "indexed": false,
          "internalType": "address",
          "name": "account",
          "type": "address"
        }
      ],
      "name": "Unpaused",
      "type": "event"
    },
    {
      "inputs": [],
      "name": "BURNER_ROLE",
      "outputs": [
        {
          "internalType": "bytes32",
          "name": "",
          "type": "bytes32"
        }
      ],
      "stateMutability": "view",
      "type": "function"
    },
    {
      "inputs": [],
      "name": "DEFAULT_ADMIN_ROLE",
      "outputs": [
        {
          "internalType": "bytes32",
          "name": "",
          "type": "bytes32"
        }
      ],
      "stateMutability": "view",
      "type": "function"
    },
    {
      "inputs": [],
      "name": "MINTER_ROLE",
      "outputs": [
        {
          "internalType": "bytes32",
          "name": "",
          "type": "bytes32"
        }
      ],
      "stateMutability": "view",
      "type": "function"
    },
    {
      "inputs": [],
      "name": "PAUSER_ROLE",
      "outputs": [
        {
          "internalType": "bytes32",
          "name": "",
          "type": "bytes32"
        }
      ],
      "stateMutability": "view",
      "type": "function"
    },
    {
      "inputs": [
        {
          "internalType": "uint256",
          "name": "",
          "type": "uint256"
        }
      ],
      "name": "creators",
      "outputs": [
        {
          "internalType": "address",
          "name": "",
          "type": "address"
        }
      ],
      "stateMutability": "view",
      "type": "function"
    },
    {
      "inputs": [
        {
          "internalType": "bytes32",
          "name": "role",
          "type": "bytes32"
        }
      ],
      "name": "getRoleAdmin",
      "outputs": [
        {
          "internalType": "bytes32",
          "name": "",
          "type": "bytes32"
        }
      ],
      "stateMutability": "view",
      "type": "function"
    },
    {
      "inputs": [
        {
          "internalType": "bytes32",
          "name": "role",
          "type": "bytes32"
        },
        {
          "internalType": "uint256",
          "name": "index",
          "type": "uint256"
        }
      ],
      "name": "getRoleMember",
      "outputs": [
        {
          "internalType": "address",
          "name": "",
          "type": "address"
        }
      ],
      "stateMutability": "view",
      "type": "function"
    },
    {
      "inputs": [
        {
          "internalType": "bytes32",
          "name": "role",
          "type": "bytes32"
        }
      ],
      "name": "getRoleMemberCount",
      "outputs": [
        {
          "internalType": "uint256",
          "name": "",
          "type": "uint256"
        }
      ],
      "stateMutability": "view",
      "type": "function"
    },
    {
      "inputs": [
        {
          "internalType": "bytes32",
          "name": "role",
          "type": "bytes32"
        },
        {
          "internalType": "address",
          "name": "account",
          "type": "address"
        }
      ],
      "name": "grantRole",
      "outputs": [],
      "stateMutability": "nonpayable",
      "type": "function"
    },
    {
      "inputs": [
        {
          "internalType": "bytes32",
          "name": "role",
          "type": "bytes32"
        },
        {
          "internalType": "address",
          "name": "account",
          "type": "address"
        }
      ],
      "name": "hasRole",
      "outputs": [
        {
          "internalType": "bool",
          "name": "",
          "type": "bool"
        }
      ],
      "stateMutability": "view",
      "type": "function"
    },
    {
      "inputs": [],
      "name": "name",
      "outputs": [
        {
          "internalType": "string",
          "name": "",
          "type": "string"
        }
      ],
      "stateMutability": "view",
      "type": "function"
    },
    {
      "inputs": [],
      "name": "paused",
      "outputs": [
        {
          "internalType": "bool",
          "name": "",
          "type": "bool"
        }
      ],
      "stateMutability": "view",
      "type": "function"
    },
    {
      "inputs": [],
      "name": "proxyRegistryAddress",
      "outputs": [
        {
          "internalType": "address",
          "name": "",
          "type": "address"
        }
      ],
      "stateMutability": "view",
      "type": "function"
    },
    {
      "inputs": [
        {
          "internalType": "bytes32",
          "name": "role",
          "type": "bytes32"
        },
        {
          "internalType": "address",
          "name": "account",
          "type": "address"
        }
      ],
      "name": "renounceRole",
      "outputs": [],
      "stateMutability": "nonpayable",
      "type": "function"
    },
    {
      "inputs": [
        {
          "internalType": "bytes32",
          "name": "role",
          "type": "bytes32"
        },
        {
          "internalType": "address",
          "name": "account",
          "type": "address"
        }
      ],
      "name": "revokeRole",
      "outputs": [],
      "stateMutability": "nonpayable",
      "type": "function"
    },
    {
      "inputs": [],
      "name": "symbol",
      "outputs": [
        {
          "internalType": "string",
          "name": "",
          "type": "string"
        }
      ],
      "stateMutability": "view",
      "type": "function"
    },
    {
      "inputs": [
        {
          "internalType": "address",
          "name": "_initialOwner",
          "type": "address"
        },
        {
          "internalType": "uint256",
          "name": "_initialSupply",
          "type": "uint256"
        },
        {
          "internalType": "string",
          "name": "_uri",
          "type": "string"
        },
        {
          "internalType": "bytes",
          "name": "_data",
          "type": "bytes"
        }
      ],
      "name": "create",
      "outputs": [
        {
          "internalType": "uint256",
          "name": "",
          "type": "uint256"
        }
      ],
      "stateMutability": "nonpayable",
      "type": "function"
    },
    {
      "inputs": [
        {
          "internalType": "bytes4",
          "name": "interfaceId",
          "type": "bytes4"
        }
      ],
      "name": "supportsInterface",
      "outputs": [
        {
          "internalType": "bool",
          "name": "",
          "type": "bool"
        }
      ],
      "stateMutability": "view",
      "type": "function"
    },
    {
      "inputs": [
        {
          "internalType": "uint256",
          "name": "_id",
          "type": "uint256"
        }
      ],
      "name": "uri",
      "outputs": [
        {
          "internalType": "string",
          "name": "",
          "type": "string"
        }
      ],
      "stateMutability": "view",
      "type": "function"
    },
    {
      "inputs": [
        {
          "internalType": "uint256",
          "name": "id",
          "type": "uint256"
        }
      ],
      "name": "totalSupply",
      "outputs": [
        {
          "internalType": "uint256",
          "name": "",
          "type": "uint256"
        }
      ],
      "stateMutability": "view",
      "type": "function"
    },
    {
      "inputs": [
        {
          "internalType": "address",
          "name": "account",
          "type": "address"
        },
        {
          "internalType": "uint256",
          "name": "id",
          "type": "uint256"
        }
      ],
      "name": "balanceOf",
      "outputs": [
        {
          "internalType": "uint256",
          "name": "",
          "type": "uint256"
        }
      ],
      "stateMutability": "view",
      "type": "function"
    },
    {
      "inputs": [
        {
          "internalType": "address[]",
          "name": "accounts",
          "type": "address[]"
        },
        {
          "internalType": "uint256[]",
          "name": "ids",
          "type": "uint256[]"
        }
      ],
      "name": "balanceOfBatch",
      "outputs": [
        {
          "internalType": "uint256[]",
          "name": "",
          "type": "uint256[]"
        }
      ],
      "stateMutability": "view",
      "type": "function"
    },
    {
      "inputs": [
        {
          "internalType": "address",
          "name": "operator",
          "type": "address"
        },
        {
          "internalType": "bool",
          "name": "approved",
          "type": "bool"
        }
      ],
      "name": "setApprovalForAll",
      "outputs": [],
      "stateMutability": "nonpayable",
      "type": "function"
    },
    {
      "inputs": [
        {
          "internalType": "address",
          "name": "account",
          "type": "address"
        },
        {
          "internalType": "address",
          "name": "operator",
          "type": "address"
        }
      ],
      "name": "isApprovedForAll",
      "outputs": [
        {
          "internalType": "bool",
          "name": "",
          "type": "bool"
        }
      ],
      "stateMutability": "view",
      "type": "function"
    },
    {
      "inputs": [
        {
          "internalType": "address",
          "name": "from",
          "type": "address"
        },
        {
          "internalType": "address",
          "name": "to",
          "type": "address"
        },
        {
          "internalType": "uint256",
          "name": "id",
          "type": "uint256"
        },
        {
          "internalType": "uint256",
          "name": "amount",
          "type": "uint256"
        },
        {
          "internalType": "bytes",
          "name": "data",
          "type": "bytes"
        }
      ],
      "name": "safeTransferFrom",
      "outputs": [],
      "stateMutability": "nonpayable",
      "type": "function"
    },
    {
      "inputs": [
        {
          "internalType": "address",
          "name": "from",
          "type": "address"
        },
        {
          "internalType": "address",
          "name": "to",
          "type": "address"
        },
        {
          "internalType": "uint256[]",
          "name": "ids",
          "type": "uint256[]"
        },
        {
          "internalType": "uint256[]",
          "name": "amounts",
          "type": "uint256[]"
        },
        {
          "internalType": "bytes",
          "name": "data",
          "type": "bytes"
        }
      ],
      "name": "safeBatchTransferFrom",
      "outputs": [],
      "stateMutability": "nonpayable",
      "type": "function"
    },
    {
      "inputs": [],
      "name": "pause",
      "outputs": [],
      "stateMutability": "nonpayable",
      "type": "function"
    },
    {
      "inputs": [],
      "name": "unpause",
      "outputs": [],
      "stateMutability": "nonpayable",
      "type": "function"
    }
  ],
  "bytecode": "0x608060405260006008553480156200001657600080fd5b506040516200331c3803806200331c8339810160408190526200003991620004a8565b6002805460ff191690556200006b60006200005c64010000000062000178810204565b6401000000006200017c810204565b620000a37f9f2df0fed2c77648de5860a4cc508cd0818c85b8b8a1ab4ceeef8d981c8956a66200005c64010000000062000178810204565b620000db7f3c11d16cbaffd01df69ce1c404f6340ee057498f5f00246190ea54220576a8486200005c64010000000062000178810204565b620001137f65d7a28e3265b37a6474929f336521b332c1681b933f6cb9f3376673440d862a6200005c64010000000062000178810204565b83516200012890600a9060208701906200034f565b5082516200013e90600b9060208601906200034f565b5060078054600160a060020a031916600160a060020a0383161790556200016e82640100000000620001c3810204565b50505050620005db565b3390565b62000196828264010000000062000ee9620001dc82021704565b6000828152600160205260409020620001be908264010000000062000ef7620001f182021704565b505050565b8051620001d89060069060208401906200034f565b5050565b620001d882826401000000006200021a810204565b60006200021183600160a060020a038416640100000000620002b6810204565b90505b92915050565b6200022f82826401000000006200030e810204565b620001d857600082815260208181526040808320600160a060020a03851684529091529020805460ff191660011790556200027264010000000062000178810204565b600160a060020a031681600160a060020a0316837f2f8788117e7eff1d82e926ec794901d17c78024a50270940304540a733656f0d60405160405180910390a45050565b6000620002cd838364010000000062000337810204565b620003055750815460018181018455600084815260208082209093018490558454848252828601909352604090209190915562000214565b50600062000214565b600091825260208281526040808420600160a060020a0393909316845291905290205460ff1690565b60009081526001919091016020526040902054151590565b8280546200035d9062000556565b90600052602060002090601f016020900481019282620003815760008555620003cc565b82601f106200039c57805160ff1916838001178555620003cc565b82800160010185558215620003cc579182015b82811115620003cc578251825591602001919060010190620003af565b50620003da929150620003de565b5090565b5b80821115620003da5760008155600101620003df565b600082601f83011262000406578081fd5b81516001604060020a0380821115620004235762000423620005ac565b604051601f8301601f19908116603f011681019082821181831017156200044e576200044e620005ac565b816040528381526020925086838588010111156200046a578485fd5b8491505b838210156200048d57858201830151818301840152908201906200046e565b838211156200049e57848385830101525b9695505050505050565b60008060008060808587031215620004be578384fd5b84516001604060020a0380821115620004d5578586fd5b620004e388838901620003f5565b95506020870151915080821115620004f9578485fd5b6200050788838901620003f5565b945060408701519150808211156200051d578384fd5b506200052c87828801620003f5565b60608701519093509050600160a060020a03811681146200054b578182fd5b939692955090935050565b6002810460018216806200056b57607f821691505b60208210811415620005a6577f4e487b7100000000000000000000000000000000000000000000000000000000600052602260045260246000fd5b50919050565b7f4e487b7100000000000000000000000000000000000000000000000000000000600052604160045260246000fd5b612d3180620005eb6000396000f3fe608060405234801561001057600080fd5b50600436106101e0576000357c01000000000000000000000000000000000000000000000000000000009004806391d1485411610116578063cd7c0326116100b4578063e38e3b241161008e578063e38e3b2414610420578063e63ab1e914610433578063e985e9c51461045a578063f242432a1461046d57600080fd5b8063cd7c0326146103d3578063d5391393146103e6578063d547741f1461040d57600080fd5b8063a22cb465116100f0578063a22cb46514610364578063bd85b03914610377578063ca15c87314610397578063cd53d08e146103aa57600080fd5b806391d148541461034157806395d89b4114610354578063a217fddf1461035c57600080fd5b80632f2ff15d116101835780634e1273f41161015d5780634e1273f4146102e35780635c975abb146103035780638456cb591461030e5780639010d07c1461031657600080fd5b80632f2ff15d146102b557806336568abe146102c85780633f4ba83a146102db57600080fd5b80630e89341c116101bf5780630e89341c14610243578063248a9ca314610256578063282c51f3146102795780632eb2c2d6146102a057600080fd5b8062fdd58e146101e557806301ffc9a71461020b57806306fdde031461022e575b600080fd5b6101f86101f336600461242e565b610480565b6040519081526020015b60405180910390f35b61021e61021936600461260a565b610531565b6040519015158152602001610202565b6102366105a3565b6040516102029190612912565b6102366102513660046125ad565b610631565b6101f86102643660046125ad565b60009081526020819052604090206001015490565b6101f87f3c11d16cbaffd01df69ce1c404f6340ee057498f5f00246190ea54220576a84881565b6102b36102ae3660046122ec565b6106f3565b005b6102b36102c33660046125c5565b610798565b6102b36102d63660046125c5565b6107bf565b6102b36107e1565b6102f66102f13660046124e2565b610878565b60405161020291906128ab565b60025460ff1661021e565b6102b36109fd565b6103296103243660046125e9565b610a92565b604051600160a060020a039091168152602001610202565b61021e61034f3660046125c5565b610ab1565b610236610ada565b6101f8600081565b6102b36103723660046123fd565b610ae7565b6101f86103853660046125ad565b60009081526003602052604090205490565b6101f86103a53660046125ad565b610bd5565b6103296103b83660046125ad565b600960205260009081526040902054600160a060020a031681565b60075461032990600160a060020a031681565b6101f87f9f2df0fed2c77648de5860a4cc508cd0818c85b8b8a1ab4ceeef8d981c8956a681565b6102b361041b3660046125c5565b610bec565b6101f861042e366004612459565b610bf6565b6101f87f65d7a28e3265b37a6474929f336521b332c1681b933f6cb9f3376673440d862a81565b61021e6104683660046122b4565b610d64565b6102b361047b366004612396565b610e4b565b6000600160a060020a0383166105065760405160e560020a62461bcd02815260206004820152602b60248201527f455243313135353a2062616c616e636520717565727920666f7220746865207a60448201527f65726f206164647265737300000000000000000000000000000000000000000060648201526084015b60405180910390fd5b506000818152600460209081526040808320600160a060020a03861684529091529020545b92915050565b6000600160e060020a031982167fd9b67a260000000000000000000000000000000000000000000000000000000014806105945750600160e060020a031982167f0e89341c00000000000000000000000000000000000000000000000000000000145b8061052b575061052b82610f0c565b600a80546105b090612b09565b80601f01602080910402602001604051908101604052809291908181526020018280546105dc90612b09565b80156106295780601f106105fe57610100808354040283529160200191610629565b820191906000526020600020905b81548152906001019060200180831161060c57829003601f168201915b505050505081565b600081815260096020526040902054606090600160a060020a03166106c15760405160e560020a62461bcd02815260206004820152602560248201527f4552433732315472616461626c65237572693a204e4f4e4558495354454e545f60448201527f544f4b454e00000000000000000000000000000000000000000000000000000060648201526084016104fd565b60066106cc83610f4a565b6040516020016106dd9291906126e0565b6040516020818303038152906040529050919050565b600160a060020a03851633148061070f575061070f8533610d64565b6107845760405160e560020a62461bcd02815260206004820152603260248201527f455243313135353a207472616e736665722063616c6c6572206973206e6f742060448201527f6f776e6572206e6f7220617070726f766564000000000000000000000000000060648201526084016104fd565b61079185858585856110ad565b5050505050565b6107a282826112db565b60008281526001602052604090206107ba9082610ef7565b505050565b6107c98282611301565b60008281526001602052604090206107ba908261138c565b61080b7f65d7a28e3265b37a6474929f336521b332c1681b933f6cb9f3376673440d862a33610ab1565b61086e5760405160e560020a62461bcd02815260206004820152603b6024820152600080516020612cdc83398151915260448201527f686176652070617573657220726f6c6520746f20756e7061757365000000000060648201526084016104fd565b6108766113a1565b565b606081518351146108f45760405160e560020a62461bcd02815260206004820152602960248201527f455243313135353a206163636f756e747320616e6420696473206c656e67746860448201527f206d69736d61746368000000000000000000000000000000000000000000000060648201526084016104fd565b6000835167ffffffffffffffff8111156109215760e060020a634e487b7102600052604160045260246000fd5b60405190808252806020026020018201604052801561094a578160200160208202803683370190505b50905060005b84518110156109f5576109b785828151811061097f5760e060020a634e487b7102600052603260045260246000fd5b60200260200101518583815181106109aa5760e060020a634e487b7102600052603260045260246000fd5b6020026020010151610480565b8282815181106109da5760e060020a634e487b7102600052603260045260246000fd5b60209081029190910101526109ee81612b74565b9050610950565b509392505050565b610a277f65d7a28e3265b37a6474929f336521b332c1681b933f6cb9f3376673440d862a33610ab1565b610a8a5760405160e560020a62461bcd0281526020600482015260396024820152600080516020612cdc83398151915260448201527f686176652070617573657220726f6c6520746f2070617573650000000000000060648201526084016104fd565b610876611440565b6000828152600160205260408120610aaa90836114cb565b9392505050565b600091825260208281526040808420600160a060020a0393909316845291905290205460ff1690565b600b80546105b090612b09565b33600160a060020a0383161415610b695760405160e560020a62461bcd02815260206004820152602960248201527f455243313135353a2073657474696e6720617070726f76616c2073746174757360448201527f20666f722073656c66000000000000000000000000000000000000000000000060648201526084016104fd565b336000818152600560209081526040808320600160a060020a03871680855290835292819020805460ff191686151590811790915590519081529192917f17307eab39ab6107e8899845ad3d59bd9653f200f220920489ca2b5937696c31910160405180910390a35050565b600081815260016020526040812061052b906114d7565b6107c982826114e1565b6000610c227f9f2df0fed2c77648de5860a4cc508cd0818c85b8b8a1ab4ceeef8d981c8956a633610ab1565b610c855760405160e560020a62461bcd02815260206004820152603a6024820152600080516020612cdc83398151915260448201527f68617665206d696e74657220726f6c6520746f2063726561746500000000000060648201526084016104fd565b6000610c8f611507565b9050610c9961151d565b6000818152600960205260409020805473ffffffffffffffffffffffffffffffffffffffff1916331790558415610d0557807f6bb7ff708619ba0610cba295a58592e0451dee2622938c8755667688daf3529b8787604051610cfc9291906128e3565b60405180910390a25b610d4788828987878080601f01602080910402602001604051908101604052809392919081815260200183838082843760009201919091525061153492505050565b600081815260036020526040902087905590509695505050505050565b6007546040517fc4552791000000000000000000000000000000000000000000000000000000008152600160a060020a03848116600483015260009281169190841690829063c45527919060240160206040518083038186803b158015610dca57600080fd5b505afa158015610dde573d6000803e3d6000fd5b505050506040513d601f19601f82011682018060405250810190610e029190612642565b600160a060020a03161415610e1b57600191505061052b565b5050600160a060020a03918216600090815260056020908152604080832093909416825291909152205460ff1690565b600160a060020a038516331480610e675750610e678533610d64565b610edc5760405160e560020a62461bcd02815260206004820152602960248201527f455243313135353a2063616c6c6572206973206e6f74206f776e6572206e6f7260448201527f20617070726f766564000000000000000000000000000000000000000000000060648201526084016104fd565b6107918585858585611715565b610ef3828261183c565b5050565b6000610aaa83600160a060020a0384166118c0565b6000600160e060020a031982167f5a05180f00000000000000000000000000000000000000000000000000000000148061052b575061052b8261190f565b606081610f8a57505060408051808201909152600181527f3000000000000000000000000000000000000000000000000000000000000000602082015290565b8160005b8115610fb45780610f9e81612b74565b9150610fad9050600a83612a78565b9150610f8e565b60008167ffffffffffffffff811115610fe05760e060020a634e487b7102600052604160045260246000fd5b6040519080825280601f01601f19166020018201604052801561100a576020820181803683370190505b5090505b84156110a55761101f600183612aab565b915061102c600a86612b8f565b611037906030612a60565b7f01000000000000000000000000000000000000000000000000000000000000000281838151811061107c5760e060020a634e487b7102600052603260045260246000fd5b6020010190600160f860020a031916908160001a90535061109e600a86612a78565b945061100e565b949350505050565b81518351146111275760405160e560020a62461bcd02815260206004820152602860248201527f455243313135353a2069647320616e6420616d6f756e7473206c656e6774682060448201527f6d69736d6174636800000000000000000000000000000000000000000000000060648201526084016104fd565b600160a060020a0384166111505760405160e560020a62461bcd0281526004016104fd90612982565b3361115f818787878787611976565b60005b845181101561126d5760008582815181106111905760e060020a634e487b7102600052603260045260246000fd5b6020026020010151905060008583815181106111bf5760e060020a634e487b7102600052603260045260246000fd5b6020908102919091018101516000848152600483526040808220600160a060020a038e1683529093529190912054909150818110156112135760405160e560020a62461bcd0281526004016104fd906129df565b6000838152600460209081526040808320600160a060020a038e8116855292528083208585039055908b16825281208054849290611252908490612a60565b925050819055505050508061126690612b74565b9050611162565b5084600160a060020a031686600160a060020a031682600160a060020a03167f4a39dc06d4c0dbc64b70af90fd698a233a518aa5d07e595d983b8c0526c8f7fb87876040516112bd9291906128be565b60405180910390a46112d38187878787876119f2565b505050505050565b6000828152602081905260409020600101546112f78133611ba1565b6107ba838361183c565b600160a060020a03811633146113825760405160e560020a62461bcd02815260206004820152602f60248201527f416363657373436f6e74726f6c3a2063616e206f6e6c792072656e6f756e636560448201527f20726f6c657320666f722073656c66000000000000000000000000000000000060648201526084016104fd565b610ef38282611c08565b6000610aaa83600160a060020a038416611c6d565b60025460ff166113f65760405160e560020a62461bcd02815260206004820152601460248201527f5061757361626c653a206e6f742070617573656400000000000000000000000060448201526064016104fd565b6002805460ff191690557f5db9ee0a495bf2e6ff9c91a7834c1ba4fdd244a5e8aa4e537bd38aeae4b073aa335b604051600160a060020a03909116815260200160405180910390a1565b60025460ff16156114965760405160e560020a62461bcd02815260206004820152601060248201527f5061757361626c653a207061757365640000000000000000000000000000000060448201526064016104fd565b6002805460ff191660011790557f62e78cea01bee320cd4e420270b5ea74000d11b0c9f74754ebdbfc544b05a2586114233390565b6000610aaa8383611d93565b600061052b825490565b6000828152602081905260409020600101546114fd8133611ba1565b6107ba8383611c08565b600854600090611518906001611dce565b905090565b6008805490600061152d83612b74565b9190505550565b61155e7f9f2df0fed2c77648de5860a4cc508cd0818c85b8b8a1ab4ceeef8d981c8956a633610ab1565b6115c15760405160e560020a62461bcd0281526020600482015260386024820152600080516020612cdc83398151915260448201527f68617665206d696e74657220726f6c6520746f206d696e74000000000000000060648201526084016104fd565b600160a060020a0384166116405760405160e560020a62461bcd02815260206004820152602160248201527f455243313135353a206d696e7420746f20746865207a65726f2061646472657360448201527f730000000000000000000000000000000000000000000000000000000000000060648201526084016104fd565b336116608160008761165188611dda565b61165a88611dda565b87611976565b6000848152600460209081526040808320600160a060020a038916845290915281208054859290611692908490612a60565b9091555050600084815260036020526040812080548592906116b5908490612a60565b90915550506040805185815260208101859052600160a060020a0380881692600092918516917fc3d58168c5ae7397731d063d5bbf3d657854427343f4c083240f7aacaa2d0f62910160405180910390a461079181600087878787611e36565b600160a060020a03841661173e5760405160e560020a62461bcd0281526004016104fd90612982565b3361174e81878761165188611dda565b6000848152600460209081526040808320600160a060020a038a168452909152902054838110156117945760405160e560020a62461bcd0281526004016104fd906129df565b6000858152600460209081526040808320600160a060020a038b81168552925280832087850390559088168252812080548692906117d3908490612a60565b90915550506040805186815260208101869052600160a060020a03808916928a821692918616917fc3d58168c5ae7397731d063d5bbf3d657854427343f4c083240f7aacaa2d0f62910160405180910390a4611833828888888888611e36565b50505050505050565b6118468282610ab1565b610ef357600082815260208181526040808320600160a060020a03851684529091529020805460ff1916600117905561187c3390565b600160a060020a031681600160a060020a0316837f2f8788117e7eff1d82e926ec794901d17c78024a50270940304540a733656f0d60405160405180910390a45050565b60008181526001830160205260408120546119075750815460018181018455600084815260208082209093018490558454848252828601909352604090209190915561052b565b50600061052b565b6000600160e060020a031982167f7965db0b00000000000000000000000000000000000000000000000000000000148061052b57507f01ffc9a700000000000000000000000000000000000000000000000000000000600160e060020a031983161461052b565b60025460ff16156112d35760405160e560020a62461bcd02815260206004820152602c60248201527f455243313135355061757361626c653a20746f6b656e207472616e736665722060448201527f7768696c6520706175736564000000000000000000000000000000000000000060648201526084016104fd565b600160a060020a0384163b156112d3576040517fbc197c81000000000000000000000000000000000000000000000000000000008152600160a060020a0385169063bc197c8190611a4f908990899088908890889060040161280a565b602060405180830381600087803b158015611a6957600080fd5b505af1925050508015611a99575060408051601f3d908101601f19168201909252611a9691810190612626565b60015b611b5557611aa5612bee565b806308c379a01415611ae25750611aba612c23565b80611ac55750611ae4565b8060405160e560020a62461bcd0281526004016104fd9190612912565b505b60405160e560020a62461bcd02815260206004820152603460248201527f455243313135353a207472616e7366657220746f206e6f6e204552433131353560448201527f526563656976657220696d706c656d656e74657200000000000000000000000060648201526084016104fd565b600160e060020a031981167fbc197c8100000000000000000000000000000000000000000000000000000000146118335760405160e560020a62461bcd0281526004016104fd90612925565b611bab8282610ab1565b610ef357611bc381600160a060020a03166014611f35565b611bce836020611f35565b604051602001611bdf929190612789565b60408051601f198184030181529082905260e560020a62461bcd0282526104fd91600401612912565b611c128282610ab1565b15610ef357600082815260208181526040808320600160a060020a0385168085529252808320805460ff1916905551339285917ff6391f5c32d9c69d2a47ea670b442974b53935d1edc7fd64eb21e047a839171b9190a45050565b60008181526001830160205260408120548015611d89576000611c91600183612aab565b8554909150600090611ca590600190612aab565b9050818114611d2c576000866000018281548110611cd65760e060020a634e487b7102600052603260045260246000fd5b9060005260206000200154905080876000018481548110611d0a5760e060020a634e487b7102600052603260045260246000fd5b6000918252602080832090910192909255918252600188019052604090208390555b8554869080611d4e5760e060020a634e487b7102600052603160045260246000fd5b60019003818190600052602060002001600090559055856001016000868152602001908152602001600020600090556001935050505061052b565b600091505061052b565b6000826000018281548110611dbb5760e060020a634e487b7102600052603260045260246000fd5b9060005260206000200154905092915050565b6000610aaa8284612a60565b60408051600180825281830190925260609160009190602080830190803683370190505090508281600081518110611e255760e060020a634e487b7102600052603260045260246000fd5b602090810291909101015292915050565b600160a060020a0384163b156112d3576040517ff23a6e61000000000000000000000000000000000000000000000000000000008152600160a060020a0385169063f23a6e6190611e939089908990889088908890600401612868565b602060405180830381600087803b158015611ead57600080fd5b505af1925050508015611edd575060408051601f3d908101601f19168201909252611eda91810190612626565b60015b611ee957611aa5612bee565b600160e060020a031981167ff23a6e6100000000000000000000000000000000000000000000000000000000146118335760405160e560020a62461bcd0281526004016104fd90612925565b60606000611f44836002612a8c565b611f4f906002612a60565b67ffffffffffffffff811115611f785760e060020a634e487b7102600052604160045260246000fd5b6040519080825280601f01601f191660200182016040528015611fa2576020820181803683370190505b5090507f300000000000000000000000000000000000000000000000000000000000000081600081518110611fea5760e060020a634e487b7102600052603260045260246000fd5b6020010190600160f860020a031916908160001a9053507f7800000000000000000000000000000000000000000000000000000000000000816001815181106120465760e060020a634e487b7102600052603260045260246000fd5b6020010190600160f860020a031916908160001a905350600061206a846002612a8c565b612075906001612a60565b90505b600181111561213a577f303132333435363738396162636465660000000000000000000000000000000085600f16601081106120c75760e060020a634e487b7102600052603260045260246000fd5b1a7f01000000000000000000000000000000000000000000000000000000000000000282828151811061210d5760e060020a634e487b7102600052603260045260246000fd5b6020010190600160f860020a031916908160001a90535060109094049361213381612af2565b9050612078565b508315610aaa5760405160e560020a62461bcd02815260206004820181905260248201527f537472696e67733a20686578206c656e67746820696e73756666696369656e7460448201526064016104fd565b600082601f83011261219c578081fd5b813560206121a982612a3c565b6040516121b68282612b47565b8381528281019150858301838502870184018810156121d3578586fd5b855b858110156121f1578135845292840192908401906001016121d5565b5090979650505050505050565b60008083601f84011261220f578182fd5b50813567ffffffffffffffff811115612226578182fd5b60208301915083602082850101111561223e57600080fd5b9250929050565b600082601f830112612255578081fd5b813567ffffffffffffffff81111561226f5761226f612bd5565b604051612286601f8301601f191660200182612b47565b81815284602083860101111561229a578283fd5b816020850160208301379081016020019190915292915050565b600080604083850312156122c6578182fd5b82356122d181612cad565b915060208301356122e181612cad565b809150509250929050565b600080600080600060a08688031215612303578081fd5b853561230e81612cad565b9450602086013561231e81612cad565b9350604086013567ffffffffffffffff8082111561233a578283fd5b61234689838a0161218c565b9450606088013591508082111561235b578283fd5b61236789838a0161218c565b9350608088013591508082111561237c578283fd5b5061238988828901612245565b9150509295509295909350565b600080600080600060a086880312156123ad578081fd5b85356123b881612cad565b945060208601356123c881612cad565b93506040860135925060608601359150608086013567ffffffffffffffff8111156123f1578182fd5b61238988828901612245565b6000806040838503121561240f578182fd5b823561241a81612cad565b9150602083013580151581146122e1578182fd5b60008060408385031215612440578182fd5b823561244b81612cad565b946020939093013593505050565b60008060008060008060808789031215612471578081fd5b863561247c81612cad565b955060208701359450604087013567ffffffffffffffff8082111561249f578283fd5b6124ab8a838b016121fe565b909650945060608901359150808211156124c3578283fd5b506124d089828a016121fe565b979a9699509497509295939492505050565b600080604083850312156124f4578182fd5b823567ffffffffffffffff8082111561250b578384fd5b818501915085601f83011261251e578384fd5b8135602061252b82612a3c565b6040516125388282612b47565b8381528281019150858301838502870184018b1015612555578889fd5b8896505b8487101561258057803561256c81612cad565b835260019690960195918301918301612559565b5096505086013592505080821115612596578283fd5b506125a38582860161218c565b9150509250929050565b6000602082840312156125be578081fd5b5035919050565b600080604083850312156125d7578182fd5b8235915060208301356122e181612cad565b600080604083850312156125fb578182fd5b50508035926020909101359150565b60006020828403121561261b578081fd5b8135610aaa81612cc5565b600060208284031215612637578081fd5b8151610aaa81612cc5565b600060208284031215612653578081fd5b8151610aaa81612cad565b6000815180845260208085019450808401835b8381101561268d57815187529582019590820190600101612671565b509495945050505050565b600081518084526126b0816020860160208601612ac2565b601f01601f19169290920160200192915050565b600081516126d6818560208601612ac2565b9290920192915050565b82546000908190600281046001808316806126fc57607f831692505b602080841082141561271f5760e060020a634e487b710287526022600452602487fd5b818015612733576001811461274457612770565b60ff19861689528489019650612770565b60008b815260209020885b868110156127685781548b82015290850190830161274f565b505084890196505b50505050505061278081856126c4565b95945050505050565b7f416363657373436f6e74726f6c3a206163636f756e74200000000000000000008152600083516127c1816017850160208801612ac2565b7f206973206d697373696e6720726f6c652000000000000000000000000000000060179184019182015283516127fe816028840160208801612ac2565b01602801949350505050565b6000600160a060020a03808816835280871660208401525060a0604083015261283660a083018661265e565b8281036060840152612848818661265e565b9050828103608084015261285c8185612698565b98975050505050505050565b6000600160a060020a03808816835280871660208401525084604083015283606083015260a060808301526128a060a0830184612698565b979650505050505050565b602081526000610aaa602083018461265e565b6040815260006128d1604083018561265e565b8281036020840152612780818561265e565b60208152816020820152818360408301376000818301604090810191909152601f909201601f19160101919050565b602081526000610aaa6020830184612698565b60208082526028908201527f455243313135353a204552433131353552656365697665722072656a6563746560408201527f6420746f6b656e73000000000000000000000000000000000000000000000000606082015260800190565b60208082526025908201527f455243313135353a207472616e7366657220746f20746865207a65726f20616460408201527f6472657373000000000000000000000000000000000000000000000000000000606082015260800190565b6020808252602a908201527f455243313135353a20696e73756666696369656e742062616c616e636520666f60408201527f72207472616e7366657200000000000000000000000000000000000000000000606082015260800190565b600067ffffffffffffffff821115612a5657612a56612bd5565b5060209081020190565b60008219821115612a7357612a73612ba3565b500190565b600082612a8757612a87612bbc565b500490565b6000816000190483118215151615612aa657612aa6612ba3565b500290565b600082821015612abd57612abd612ba3565b500390565b60005b83811015612add578181015183820152602001612ac5565b83811115612aec576000848401525b50505050565b600081612b0157612b01612ba3565b506000190190565b600281046001821680612b1d57607f821691505b60208210811415612b415760e060020a634e487b7102600052602260045260246000fd5b50919050565b601f8201601f1916810167ffffffffffffffff81118282101715612b6d57612b6d612bd5565b6040525050565b6000600019821415612b8857612b88612ba3565b5060010190565b600082612b9e57612b9e612bbc565b500690565b60e060020a634e487b7102600052601160045260246000fd5b60e060020a634e487b7102600052601260045260246000fd5b60e060020a634e487b7102600052604160045260246000fd5b600060033d1115612c2057600481823e517c010000000000000000000000000000000000000000000000000000000090045b90565b600060443d1015612c315790565b6040516003193d81016004833e81513d67ffffffffffffffff8160248401118184111715612c6157505050505090565b8285019150815181811115612c795750505050505090565b843d8701016020828501011115612c935750505050505090565b612ca260208286010187612b47565b509095945050505050565b600160a060020a0381168114612cc257600080fd5b50565b600160e060020a031981168114612cc257600080fdfe455243313135355072657365744d696e7465725061757365723a206d75737420a26469706673582212202ff9a300e18a35c76faf51db8879b95f2de2f70f3b5877776256638267340c2a64736f6c63430008040033",
  "immutableReferences": {},
  "source": "// SPDX-License-Identifier: MIT\n\npragma solidity ^0.8.0;\n\nimport \"@openzeppelin/contracts/token/ERC1155/IERC1155.sol\";\nimport \"@openzeppelin/contracts/token/ERC1155/IERC1155Receiver.sol\";\nimport \"@openzeppelin/contracts/token/ERC1155/extensions/IERC1155MetadataURI.sol\";\nimport \"@openzeppelin/contracts/utils/Address.sol\";\nimport \"@openzeppelin/contracts/utils/Context.sol\";\nimport \"@openzeppelin/contracts/utils/introspection/ERC165.sol\";\nimport \"@openzeppelin/contracts/access/AccessControlEnumerable.sol\";\nimport \"@openzeppelin/contracts/utils/math/SafeMath.sol\";\nimport \"@openzeppelin/contracts/security/Pausable.sol\";\nimport \"@openzeppelin/contracts/utils/Strings.sol\";\n\ncontract OwnableDelegateProxy { }\n\ncontract ProxyRegistry {\n  mapping(address => OwnableDelegateProxy) public proxies;\n}\n\n/**\n * @dev Implementation of the basic standard multi-token.\n * See https://eips.ethereum.org/EIPS/eip-1155\n * Originally based on code by Enjin: https://github.com/enjin/erc-1155\n *\n * _Available since v3.1._\n */\ncontract ERC1155Tradable is Context, ERC165, IERC1155, IERC1155MetadataURI, AccessControlEnumerable, Pausable {\n    using Address for address;\n    using SafeMath for uint256;\n    using Strings for string;\n\n    // ROLE\n    bytes32 public constant MINTER_ROLE = keccak256(\"MINTER_ROLE\");\n    bytes32 public constant BURNER_ROLE = keccak256(\"BURNER_ROLE\");\n    bytes32 public constant PAUSER_ROLE = keccak256(\"PAUSER_ROLE\");\n\n    // Mapping from token ID to totalSupply\n    mapping(uint256 => uint256) private _totalSupply;\n\n    // Mapping from token ID to account balances\n    mapping(uint256 => mapping(address => uint256)) private _balances;\n\n    // Mapping from account to operator approvals\n    mapping(address => mapping(address => bool)) private _operatorApprovals;\n\n    // Used as the URI for all token types by relying on ID substitution, e.g. https://token-cdn-domain/{id}.json\n    string private _uri;\n\n    address public proxyRegistryAddress;\n\n    // current TokenID\n    uint256 private _currentTokenID = 0;\n\n    // creators\n    mapping (uint256 => address) public creators;\n\n    // Contract name\n    string public name;\n\n    // Contract symbol\n    string public symbol;\n\n    /**\n    * @dev Require msg.sender to be the creator of the token id\n    */\n    modifier creatorOnly(uint256 _id) {\n        require(creators[_id] == msg.sender, \"ERC1155Tradable#creatorOnly: ONLY_CREATOR_ALLOWED\");\n        _;\n    }\n\n    /**\n    * @dev Require msg.sender to own more than 0 of the token id\n    */\n    modifier ownersOnly(uint256 _id) {\n        require(_balances[_id][msg.sender] > 0, \"ERC1155Tradable#ownersOnly: ONLY_OWNERS_ALLOWED\");\n        _;\n    }\n\n    /**\n     * @dev Grants `DEFAULT_ADMIN_ROLE`, `MINTER_ROLE`, and `PAUSER_ROLE` to the account that\n     * deploys the contract.\n     */\n    constructor(\n        string memory _name,\n        string memory _symbol,\n        string memory _uri,\n        address _proxyRegistryAddress\n    ) {\n        _setupRole(DEFAULT_ADMIN_ROLE, _msgSender());\n        _setupRole(MINTER_ROLE, _msgSender());\n        _setupRole(BURNER_ROLE, _msgSender());\n        _setupRole(PAUSER_ROLE, _msgSender());\n\n        name = _name;\n        symbol = _symbol;\n        proxyRegistryAddress = _proxyRegistryAddress;\n        _setURI(_uri);\n    }\n\n  /**\n    * @dev Creates a new token type and assigns _initialSupply to an address\n    * NOTE: remove onlyOwner if you want third parties to create new tokens on your contract (which may change your IDs)\n    * @param _initialOwner address of the first owner of the token\n    * @param _initialSupply amount to supply the first owner\n    * @param _uri Optional URI for this token type\n    * @param _data Data to pass if receiver is contract\n    * @return The newly created token ID\n    */\n    function create(\n        address _initialOwner,\n        uint256 _initialSupply,\n        string calldata _uri,\n        bytes calldata _data\n    ) external returns (uint256) {\n        require(hasRole(MINTER_ROLE, _msgSender()), \"ERC1155PresetMinterPauser: must have minter role to create\");\n\n        uint256 _id = _getNextTokenID();\n        _incrementTokenTypeId();\n        creators[_id] = msg.sender;\n\n        if (bytes(_uri).length > 0) {\n        emit URI(_uri, _id);\n        }\n\n        _mint(_initialOwner, _id, _initialSupply, _data);\n        _totalSupply[_id] = _initialSupply;\n        return _id;\n    }\n\n    /**\n     * @dev See {IERC165-supportsInterface}.\n     */\n    function supportsInterface(bytes4 interfaceId) public view virtual override(ERC165, IERC165, AccessControlEnumerable) returns (bool) {\n        return\n            interfaceId == type(IERC1155).interfaceId ||\n            interfaceId == type(IERC1155MetadataURI).interfaceId ||\n            super.supportsInterface(interfaceId);\n    }\n\n    /**\n     * @dev See {IERC1155MetadataURI-uri}.\n     *\n     * This implementation returns the same URI for *all* token types. It relies\n     * on the token type ID substitution mechanism\n     * https://eips.ethereum.org/EIPS/eip-1155#metadata[defined in the EIP].\n     *\n     * Clients calling this function must replace the `\\{id\\}` substring with the\n     * actual token type ID.\n     */\n    function uri(uint256 _id) public view virtual override returns (string memory) {\n        require(_exists(_id), \"ERC721Tradable#uri: NONEXISTENT_TOKEN\");\n        return string(abi.encodePacked(_uri, Strings.toString(_id)));\n    }\n\n    /**\n     * @dev Total amount of tokens in with a given id.\n     */\n    function totalSupply(uint256 id) public view virtual returns (uint256) {\n        return _totalSupply[id];\n    }\n\n    /**\n     * @dev See {IERC1155-balanceOf}.\n     *\n     * Requirements:\n     *\n     * - `account` cannot be the zero address.\n     */\n    function balanceOf(address account, uint256 id) public view virtual override returns (uint256) {\n        require(account != address(0), \"ERC1155: balance query for the zero address\");\n        return _balances[id][account];\n    }\n\n    /**\n     * @dev See {IERC1155-balanceOfBatch}.\n     *\n     * Requirements:\n     *\n     * - `accounts` and `ids` must have the same length.\n     */\n    function balanceOfBatch(address[] memory accounts, uint256[] memory ids)\n        public\n        view\n        virtual\n        override\n        returns (uint256[] memory)\n    {\n        require(accounts.length == ids.length, \"ERC1155: accounts and ids length mismatch\");\n\n        uint256[] memory batchBalances = new uint256[](accounts.length);\n\n        for (uint256 i = 0; i < accounts.length; ++i) {\n            batchBalances[i] = balanceOf(accounts[i], ids[i]);\n        }\n\n        return batchBalances;\n    }\n\n    /**\n     * @dev See {IERC1155-setApprovalForAll}.\n     */\n    function setApprovalForAll(address operator, bool approved) public virtual override {\n        require(_msgSender() != operator, \"ERC1155: setting approval status for self\");\n\n        _operatorApprovals[_msgSender()][operator] = approved;\n        emit ApprovalForAll(_msgSender(), operator, approved);\n    }\n\n    /**\n     * @dev See {IERC1155-isApprovedForAll}.\n     */\n    function isApprovedForAll(address account, address operator) public view virtual override returns (bool) {\n        // Whitelist OpenSea proxy contract for easy trading.\n        ProxyRegistry proxyRegistry = ProxyRegistry(proxyRegistryAddress);\n        if (address(proxyRegistry.proxies(account)) == operator) {\n            return true;\n        }\n\n        return _operatorApprovals[account][operator];\n    }\n\n    /**\n     * @dev See {IERC1155-safeTransferFrom}.\n     */\n    function safeTransferFrom(\n        address from,\n        address to,\n        uint256 id,\n        uint256 amount,\n        bytes memory data\n    ) public virtual override {\n        require(\n            from == _msgSender() || isApprovedForAll(from, _msgSender()),\n            \"ERC1155: caller is not owner nor approved\"\n        );\n        _safeTransferFrom(from, to, id, amount, data);\n    }\n\n    /**\n     * @dev See {IERC1155-safeBatchTransferFrom}.\n     */\n    function safeBatchTransferFrom(\n        address from,\n        address to,\n        uint256[] memory ids,\n        uint256[] memory amounts,\n        bytes memory data\n    ) public virtual override {\n        require(\n            from == _msgSender() || isApprovedForAll(from, _msgSender()),\n            \"ERC1155: transfer caller is not owner nor approved\"\n        );\n        _safeBatchTransferFrom(from, to, ids, amounts, data);\n    }\n\n    /**\n     * @dev Transfers `amount` tokens of token type `id` from `from` to `to`.\n     *\n     * Emits a {TransferSingle} event.\n     *\n     * Requirements:\n     *\n     * - `to` cannot be the zero address.\n     * - `from` must have a balance of tokens of type `id` of at least `amount`.\n     * - If `to` refers to a smart contract, it must implement {IERC1155Receiver-onERC1155Received} and return the\n     * acceptance magic value.\n     */\n    function _safeTransferFrom(\n        address from,\n        address to,\n        uint256 id,\n        uint256 amount,\n        bytes memory data\n    ) internal virtual {\n        require(to != address(0), \"ERC1155: transfer to the zero address\");\n\n        address operator = _msgSender();\n\n        _beforeTokenTransfer(operator, from, to, _asSingletonArray(id), _asSingletonArray(amount), data);\n\n        uint256 fromBalance = _balances[id][from];\n        require(fromBalance >= amount, \"ERC1155: insufficient balance for transfer\");\n        unchecked {\n            _balances[id][from] = fromBalance - amount;\n        }\n        _balances[id][to] += amount;\n\n        emit TransferSingle(operator, from, to, id, amount);\n\n        _doSafeTransferAcceptanceCheck(operator, from, to, id, amount, data);\n    }\n\n    /**\n     * @dev xref:ROOT:erc1155.adoc#batch-operations[Batched] version of {_safeTransferFrom}.\n     *\n     * Emits a {TransferBatch} event.\n     *\n     * Requirements:\n     *\n     * - If `to` refers to a smart contract, it must implement {IERC1155Receiver-onERC1155BatchReceived} and return the\n     * acceptance magic value.\n     */\n    function _safeBatchTransferFrom(\n        address from,\n        address to,\n        uint256[] memory ids,\n        uint256[] memory amounts,\n        bytes memory data\n    ) internal virtual {\n        require(ids.length == amounts.length, \"ERC1155: ids and amounts length mismatch\");\n        require(to != address(0), \"ERC1155: transfer to the zero address\");\n\n        address operator = _msgSender();\n\n        _beforeTokenTransfer(operator, from, to, ids, amounts, data);\n\n        for (uint256 i = 0; i < ids.length; ++i) {\n            uint256 id = ids[i];\n            uint256 amount = amounts[i];\n\n            uint256 fromBalance = _balances[id][from];\n            require(fromBalance >= amount, \"ERC1155: insufficient balance for transfer\");\n            unchecked {\n                _balances[id][from] = fromBalance - amount;\n            }\n            _balances[id][to] += amount;\n        }\n\n        emit TransferBatch(operator, from, to, ids, amounts);\n\n        _doSafeBatchTransferAcceptanceCheck(operator, from, to, ids, amounts, data);\n    }\n\n    /**\n     * @dev Sets a new URI for all token types, by relying on the token type ID\n     * substitution mechanism\n     * https://eips.ethereum.org/EIPS/eip-1155#metadata[defined in the EIP].\n     *\n     * By this mechanism, any occurrence of the `\\{id\\}` substring in either the\n     * URI or any of the amounts in the JSON file at said URI will be replaced by\n     * clients with the token type ID.\n     *\n     * For example, the `https://token-cdn-domain/\\{id\\}.json` URI would be\n     * interpreted by clients as\n     * `https://token-cdn-domain/000000000000000000000000000000000000000000000000000000000004cce0.json`\n     * for token type ID 0x4cce0.\n     *\n     * See {uri}.\n     *\n     * Because these URIs cannot be meaningfully represented by the {URI} event,\n     * this function emits no events.\n     */\n    function _setURI(string memory newuri) internal virtual {\n        _uri = newuri;\n    }\n\n    /**\n     * @dev Creates `amount` tokens of token type `id`, and assigns them to `account`.\n     *\n     * Emits a {TransferSingle} event.\n     *\n     * Requirements:\n     *\n     * - `account` cannot be the zero address.\n     * - If `account` refers to a smart contract, it must implement {IERC1155Receiver-onERC1155Received} and return the\n     * acceptance magic value.\n     */\n    function _mint(\n        address account,\n        uint256 id,\n        uint256 amount,\n        bytes memory data\n    ) internal virtual {\n        require(hasRole(MINTER_ROLE, _msgSender()), \"ERC1155PresetMinterPauser: must have minter role to mint\");\n        require(account != address(0), \"ERC1155: mint to the zero address\");\n\n        address operator = _msgSender();\n\n        _beforeTokenTransfer(operator, address(0), account, _asSingletonArray(id), _asSingletonArray(amount), data);\n\n        _balances[id][account] += amount;\n        _totalSupply[id] += amount;\n        emit TransferSingle(operator, address(0), account, id, amount);\n\n        _doSafeTransferAcceptanceCheck(operator, address(0), account, id, amount, data);\n    }\n\n    /**\n     * @dev xref:ROOT:erc1155.adoc#batch-operations[Batched] version of {_mint}.\n     *\n     * Requirements:\n     *\n     * - `ids` and `amounts` must have the same length.\n     * - If `to` refers to a smart contract, it must implement {IERC1155Receiver-onERC1155BatchReceived} and return the\n     * acceptance magic value.\n     */\n    function _mintBatch(\n        address to,\n        uint256[] memory ids,\n        uint256[] memory amounts,\n        bytes memory data\n    ) internal virtual {\n        require(hasRole(MINTER_ROLE, _msgSender()), \"ERC1155PresetMinterPauser: must have minter role to mint\");\n        require(to != address(0), \"ERC1155: mint to the zero address\");\n        require(ids.length == amounts.length, \"ERC1155: ids and amounts length mismatch\");\n\n        address operator = _msgSender();\n\n        _beforeTokenTransfer(operator, address(0), to, ids, amounts, data);\n\n        for (uint256 i = 0; i < ids.length; i++) {\n            _balances[ids[i]][to] += amounts[i];\n            _totalSupply[ids[i]] += amounts[i];\n        }\n\n        emit TransferBatch(operator, address(0), to, ids, amounts);\n\n        _doSafeBatchTransferAcceptanceCheck(operator, address(0), to, ids, amounts, data);\n    }\n\n    /**\n     * @dev Destroys `amount` tokens of token type `id` from `account`\n     *\n     * Requirements:\n     *\n     * - `account` cannot be the zero address.\n     * - `account` must have at least `amount` tokens of token type `id`.\n     */\n    function _burn(\n        address account,\n        uint256 id,\n        uint256 amount\n    ) internal virtual {\n        require(hasRole(BURNER_ROLE, _msgSender()), \"ERC1155PresetMinterPauser: must have minter role to burn\");\n        require(account != address(0), \"ERC1155: burn from the zero address\");\n\n        address operator = _msgSender();\n\n        _beforeTokenTransfer(operator, account, address(0), _asSingletonArray(id), _asSingletonArray(amount), \"\");\n\n        uint256 accountBalance = _balances[id][account];\n        require(accountBalance >= amount, \"ERC1155: burn amount exceeds balance\");\n        unchecked {\n            _balances[id][account] = accountBalance - amount;\n            _totalSupply[id] -= amount;\n        }\n\n        emit TransferSingle(operator, account, address(0), id, amount);\n    }\n\n    /**\n     * @dev xref:ROOT:erc1155.adoc#batch-operations[Batched] version of {_burn}.\n     *\n     * Requirements:\n     *\n     * - `ids` and `amounts` must have the same length.\n     */\n    function _burnBatch(\n        address account,\n        uint256[] memory ids,\n        uint256[] memory amounts\n    ) internal virtual {\n        require(hasRole(BURNER_ROLE, _msgSender()), \"ERC1155PresetMinterPauser: must have minter role to burn\");\n        require(account != address(0), \"ERC1155: burn from the zero address\");\n        require(ids.length == amounts.length, \"ERC1155: ids and amounts length mismatch\");\n\n        address operator = _msgSender();\n\n        _beforeTokenTransfer(operator, account, address(0), ids, amounts, \"\");\n\n        for (uint256 i = 0; i < ids.length; i++) {\n            uint256 id = ids[i];\n            uint256 amount = amounts[i];\n\n            uint256 accountBalance = _balances[id][account];\n            require(accountBalance >= amount, \"ERC1155: burn amount exceeds balance\");\n            unchecked {\n                _balances[id][account] = accountBalance - amount;\n                _totalSupply[ids[i]] -= amounts[i];\n            }\n        }\n\n        emit TransferBatch(operator, account, address(0), ids, amounts);\n    }\n\n    /**\n     * @dev Pauses all token transfers.\n     *\n     * See {ERC1155Pausable} and {Pausable-_pause}.\n     *\n     * Requirements:\n     *\n     * - the caller must have the `PAUSER_ROLE`.\n     */\n    function pause() public virtual {\n        require(hasRole(PAUSER_ROLE, _msgSender()), \"ERC1155PresetMinterPauser: must have pauser role to pause\");\n        _pause();\n    }\n\n    /**\n     * @dev Unpauses all token transfers.\n     *\n     * See {ERC1155Pausable} and {Pausable-_unpause}.\n     *\n     * Requirements:\n     *\n     * - the caller must have the `PAUSER_ROLE`.\n     */\n    function unpause() public virtual {\n        require(hasRole(PAUSER_ROLE, _msgSender()), \"ERC1155PresetMinterPauser: must have pauser role to unpause\");\n        _unpause();\n    }\n\n\n    /**\n     * @dev Hook that is called before any token transfer. This includes minting\n     * and burning, as well as batched variants.\n     *\n     * The same hook is called on both single and batched variants. For single\n     * transfers, the length of the `id` and `amount` arrays will be 1.\n     *\n     * Calling conditions (for each `id` and `amount` pair):\n     *\n     * - When `from` and `to` are both non-zero, `amount` of ``from``'s tokens\n     * of token type `id` will be  transferred to `to`.\n     * - When `from` is zero, `amount` tokens of token type `id` will be minted\n     * for `to`.\n     * - when `to` is zero, `amount` of ``from``'s tokens of token type `id`\n     * will be burned.\n     * - `from` and `to` are never both zero.\n     * - `ids` and `amounts` have the same, non-zero length.\n     *\n     * To learn more about hooks, head to xref:ROOT:extending-contracts.adoc#using-hooks[Using Hooks].\n     */\n    function _beforeTokenTransfer(\n        address operator,\n        address from,\n        address to,\n        uint256[] memory ids,\n        uint256[] memory amounts,\n        bytes memory data\n    ) internal virtual {\n        require(!paused(), \"ERC1155Pausable: token transfer while paused\");\n    }\n\n    function _doSafeTransferAcceptanceCheck(\n        address operator,\n        address from,\n        address to,\n        uint256 id,\n        uint256 amount,\n        bytes memory data\n    ) private {\n        if (to.isContract()) {\n            try IERC1155Receiver(to).onERC1155Received(operator, from, id, amount, data) returns (bytes4 response) {\n                if (response != IERC1155Receiver.onERC1155Received.selector) {\n                    revert(\"ERC1155: ERC1155Receiver rejected tokens\");\n                }\n            } catch Error(string memory reason) {\n                revert(reason);\n            } catch {\n                revert(\"ERC1155: transfer to non ERC1155Receiver implementer\");\n            }\n        }\n    }\n\n    function _doSafeBatchTransferAcceptanceCheck(\n        address operator,\n        address from,\n        address to,\n        uint256[] memory ids,\n        uint256[] memory amounts,\n        bytes memory data\n    ) private {\n        if (to.isContract()) {\n            try IERC1155Receiver(to).onERC1155BatchReceived(operator, from, ids, amounts, data) returns (\n                bytes4 response\n            ) {\n                if (response != IERC1155Receiver.onERC1155BatchReceived.selector) {\n                    revert(\"ERC1155: ERC1155Receiver rejected tokens\");\n                }\n            } catch Error(string memory reason) {\n                revert(reason);\n            } catch {\n                revert(\"ERC1155: transfer to non ERC1155Receiver implementer\");\n            }\n        }\n    }\n\n    function _asSingletonArray(uint256 element) private pure returns (uint256[] memory) {\n        uint256[] memory array = new uint256[](1);\n        array[0] = element;\n\n        return array;\n    }\n\n    /**\n     * @dev Change the creator address for given token\n     * @param _to   Address of the new creator\n     * @param _id  Token IDs to change creator of\n     */\n    function _setCreator(address _to, uint256 _id) internal creatorOnly(_id)\n    {\n        creators[_id] = _to;\n    }\n\n    /**\n     * @dev calculates the next token ID based on value of _currentTokenID\n     * @return uint256 for the next token ID\n     */\n    function _getNextTokenID() private view returns (uint256) {\n        return _currentTokenID.add(1);\n    }\n\n    /**\n     * @dev increments the value of _currentTokenID\n     */\n    function _incrementTokenTypeId() private  {\n        _currentTokenID++;\n    }\n\n    /**\n    * @dev Returns whether the specified token exists by checking to see if it has a creator\n    * @param _id uint256 ID of the token to query the existence of\n    * @return bool whether the token exists\n    */\n    function _exists(\n        uint256 _id\n    ) internal view returns (bool) {\n        return creators[_id] != address(0);\n    }\n}\n",
  "sourcePath": "/Users/tuminfei/Code/Nodejs/uniarts-eth-dao/contracts/ERC1155/ERC1155Tradable.sol",
  "compiler": {
    "name": "solc",
    "version": "0.8.4+commit.c7e474f2.Emscripten.clang"
  },
  "schemaVersion": "3.3.0",
  "updatedAt": "2021-12-01T04:02:32.197Z",
  "devdoc": {
    "details": "Implementation of the basic standard multi-token. See https://eips.ethereum.org/EIPS/eip-1155 Originally based on code by Enjin: https://github.com/enjin/erc-1155 _Available since v3.1._",
    "kind": "dev",
    "methods": {
      "balanceOf(address,uint256)": {
        "details": "See {IERC1155-balanceOf}. Requirements: - `account` cannot be the zero address."
      },
      "balanceOfBatch(address[],uint256[])": {
        "details": "See {IERC1155-balanceOfBatch}. Requirements: - `accounts` and `ids` must have the same length."
      },
      "constructor": {
        "details": "Grants `DEFAULT_ADMIN_ROLE`, `MINTER_ROLE`, and `PAUSER_ROLE` to the account that deploys the contract."
      },
      "create(address,uint256,string,bytes)": {
        "details": "Creates a new token type and assigns _initialSupply to an address NOTE: remove onlyOwner if you want third parties to create new tokens on your contract (which may change your IDs)",
        "params": {
          "_data": "Data to pass if receiver is contract",
          "_initialOwner": "address of the first owner of the token",
          "_initialSupply": "amount to supply the first owner",
          "_uri": "Optional URI for this token type"
        },
        "returns": {
          "_0": "The newly created token ID"
        }
      },
      "getRoleAdmin(bytes32)": {
        "details": "Returns the admin role that controls `role`. See {grantRole} and {revokeRole}. To change a role's admin, use {_setRoleAdmin}."
      },
      "getRoleMember(bytes32,uint256)": {
        "details": "Returns one of the accounts that have `role`. `index` must be a value between 0 and {getRoleMemberCount}, non-inclusive. Role bearers are not sorted in any particular way, and their ordering may change at any point. WARNING: When using {getRoleMember} and {getRoleMemberCount}, make sure you perform all queries on the same block. See the following https://forum.openzeppelin.com/t/iterating-over-elements-on-enumerableset-in-openzeppelin-contracts/2296[forum post] for more information."
      },
      "getRoleMemberCount(bytes32)": {
        "details": "Returns the number of accounts that have `role`. Can be used together with {getRoleMember} to enumerate all bearers of a role."
      },
      "grantRole(bytes32,address)": {
        "details": "Overload {grantRole} to track enumerable memberships"
      },
      "hasRole(bytes32,address)": {
        "details": "Returns `true` if `account` has been granted `role`."
      },
      "isApprovedForAll(address,address)": {
        "details": "See {IERC1155-isApprovedForAll}."
      },
      "pause()": {
        "details": "Pauses all token transfers. See {ERC1155Pausable} and {Pausable-_pause}. Requirements: - the caller must have the `PAUSER_ROLE`."
      },
      "paused()": {
        "details": "Returns true if the contract is paused, and false otherwise."
      },
      "renounceRole(bytes32,address)": {
        "details": "Overload {renounceRole} to track enumerable memberships"
      },
      "revokeRole(bytes32,address)": {
        "details": "Overload {revokeRole} to track enumerable memberships"
      },
      "safeBatchTransferFrom(address,address,uint256[],uint256[],bytes)": {
        "details": "See {IERC1155-safeBatchTransferFrom}."
      },
      "safeTransferFrom(address,address,uint256,uint256,bytes)": {
        "details": "See {IERC1155-safeTransferFrom}."
      },
      "setApprovalForAll(address,bool)": {
        "details": "See {IERC1155-setApprovalForAll}."
      },
      "supportsInterface(bytes4)": {
        "details": "See {IERC165-supportsInterface}."
      },
      "totalSupply(uint256)": {
        "details": "Total amount of tokens in with a given id."
      },
      "unpause()": {
        "details": "Unpauses all token transfers. See {ERC1155Pausable} and {Pausable-_unpause}. Requirements: - the caller must have the `PAUSER_ROLE`."
      },
      "uri(uint256)": {
        "details": "See {IERC1155MetadataURI-uri}. This implementation returns the same URI for *all* token types. It relies on the token type ID substitution mechanism https://eips.ethereum.org/EIPS/eip-1155#metadata[defined in the EIP]. Clients calling this function must replace the `\\{id\\}` substring with the actual token type ID."
      }
    },
    "version": 1
  },
  "userdoc": {
    "kind": "user",
    "methods": {},
    "version": 1
  }
}