{
  "contractName": "FeeManager",
  "abi": [
    {
      "anonymous": false,
      "inputs": [
        {
          "indexed": false,
          "internalType": "uint256",
          "name": "cutPerMillion",
          "type": "uint256"
        }
      ],
      "name": "ChangedFeePerMillion",
      "type": "event"
    },
    {
      "anonymous": false,
      "inputs": [
        {
          "indexed": true,
          "internalType": "address",
          "name": "previousOwner",
          "type": "address"
        },
        {
          "indexed": true,
          "internalType": "address",
          "name": "newOwner",
          "type": "address"
        }
      ],
      "name": "OwnershipTransferred",
      "type": "event"
    },
    {
      "inputs": [],
      "name": "cutPerMillion",
      "outputs": [
        {
          "internalType": "uint256",
          "name": "",
          "type": "uint256"
        }
      ],
      "stateMutability": "view",
      "type": "function"
    },
    {
      "inputs": [],
      "name": "maxCutPerMillion",
      "outputs": [
        {
          "internalType": "uint256",
          "name": "",
          "type": "uint256"
        }
      ],
      "stateMutability": "view",
      "type": "function"
    },
    {
      "inputs": [],
      "name": "owner",
      "outputs": [
        {
          "internalType": "address",
          "name": "",
          "type": "address"
        }
      ],
      "stateMutability": "view",
      "type": "function"
    },
    {
      "inputs": [],
      "name": "renounceOwnership",
      "outputs": [],
      "stateMutability": "nonpayable",
      "type": "function"
    },
    {
      "inputs": [
        {
          "internalType": "address",
          "name": "newOwner",
          "type": "address"
        }
      ],
      "name": "transferOwnership",
      "outputs": [],
      "stateMutability": "nonpayable",
      "type": "function"
    },
    {
      "inputs": [
        {
          "internalType": "uint256",
          "name": "_cutPerMillion",
          "type": "uint256"
        }
      ],
      "name": "setOwnerCutPerMillion",
      "outputs": [],
      "stateMutability": "nonpayable",
      "type": "function"
    }
  ],
  "bytecode": "0x608060405234801561001057600080fd5b50610033610025640100000000610038810204565b64010000000061003c810204565b61008c565b3390565b60008054600160a060020a03838116600160a060020a0319831681178455604051919092169283917f8be0079c531659141344cd1fd0a4f28419497f9722a3daafe3b4186f6b6457e09190a35050565b6103df8061009b6000396000f3fe608060405234801561001057600080fd5b506004361061007e577c0100000000000000000000000000000000000000000000000000000000600035046319dad16d8114610083578063673c855314610098578063715018a6146100b45780638da5cb5b146100bc578063c555e050146100d7578063f2fde38b146100e1575b600080fd5b61009661009136600461035c565b6100f4565b005b6100a160015481565b6040519081526020015b60405180910390f35b6100966101e0565b600054604051600160a060020a0390911681526020016100ab565b6100a162030d4081565b6100966100ef36600461032e565b610219565b600054600160a060020a0316331461012a5760405160e560020a62461bcd02815260040161012190610374565b60405180910390fd5b62030d4081106101a55760405160e560020a62461bcd02815260206004820152603660248201527f546865206f776e6572206375742073686f756c64206265206265747765656e2060448201527f3020616e64206d61784375745065724d696c6c696f6e000000000000000000006064820152608401610121565b60018190556040518181527fdb629698afb23c88e17ec4d29f97b3907c3e1fbfd116fa15f97569c7c16b3e4d9060200160405180910390a150565b600054600160a060020a0316331461020d5760405160e560020a62461bcd02815260040161012190610374565b61021760006102d1565b565b600054600160a060020a031633146102465760405160e560020a62461bcd02815260040161012190610374565b600160a060020a0381166102c55760405160e560020a62461bcd02815260206004820152602660248201527f4f776e61626c653a206e6577206f776e657220697320746865207a65726f206160448201527f64647265737300000000000000000000000000000000000000000000000000006064820152608401610121565b6102ce816102d1565b50565b60008054600160a060020a0383811673ffffffffffffffffffffffffffffffffffffffff19831681178455604051919092169283917f8be0079c531659141344cd1fd0a4f28419497f9722a3daafe3b4186f6b6457e09190a35050565b60006020828403121561033f578081fd5b8135600160a060020a0381168114610355578182fd5b9392505050565b60006020828403121561036d578081fd5b5035919050565b6020808252818101527f4f776e61626c653a2063616c6c6572206973206e6f7420746865206f776e657260408201526060019056fea2646970667358221220f85503bb474c93449abbd85289c765c91e20875fccbdd2dd4bdc5c3f5bebf26c64736f6c63430008040033",
  "immutableReferences": {},
  "source": "// SPDX-License-Identifier: MIT\npragma solidity ^0.8.0;\n\nimport \"@openzeppelin/contracts/access/Ownable.sol\";\n\ncontract FeeManager is Ownable {\n\n    event ChangedFeePerMillion(uint256 cutPerMillion);\n\n    // Market fee on sales\n    uint256 public cutPerMillion;\n    uint256 public constant maxCutPerMillion = 200000; // 20% cut\n\n    /**\n     * @dev Sets the share cut for the owner of the contract that's\n     *  charged to the seller on a successful sale\n     * @param _cutPerMillion - Share amount, from 0 to 99,999\n     */\n    function setOwnerCutPerMillion(uint256 _cutPerMillion) external onlyOwner {\n        require(\n            _cutPerMillion < maxCutPerMillion,\n            \"The owner cut should be between 0 and maxCutPerMillion\"\n        );\n\n        cutPerMillion = _cutPerMillion;\n        emit ChangedFeePerMillion(cutPerMillion);\n    }\n}",
  "sourcePath": "/Users/yxf/app/uniarts-eth-dao/contracts/core/FeeManager.sol",
  "compiler": {
    "name": "solc",
    "version": "0.8.4+commit.c7e474f2.Emscripten.clang"
  },
  "schemaVersion": "3.2.3",
  "updatedAt": "2021-10-14T03:57:08.049Z",
  "devdoc": {
    "kind": "dev",
    "methods": {
      "owner()": {
        "details": "Returns the address of the current owner."
      },
      "renounceOwnership()": {
        "details": "Leaves the contract without owner. It will not be possible to call `onlyOwner` functions anymore. Can only be called by the current owner. NOTE: Renouncing ownership will leave the contract without an owner, thereby removing any functionality that is only available to the owner."
      },
      "setOwnerCutPerMillion(uint256)": {
        "details": "Sets the share cut for the owner of the contract that's  charged to the seller on a successful sale",
        "params": {
          "_cutPerMillion": "- Share amount, from 0 to 99,999"
        }
      },
      "transferOwnership(address)": {
        "details": "Transfers ownership of the contract to a new account (`newOwner`). Can only be called by the current owner."
      }
    },
    "version": 1
  },
  "userdoc": {
    "kind": "user",
    "methods": {},
    "version": 1
  }
}