{
  "contractName": "Marketplace",
  "abi": [
    {
      "anonymous": false,
      "inputs": [
        {
          "indexed": false,
          "internalType": "uint256",
          "name": "offerId",
          "type": "uint256"
        }
      ],
      "name": "CloseOffer",
      "type": "event"
    },
    {
      "anonymous": false,
      "inputs": [
        {
          "indexed": false,
          "internalType": "uint256",
          "name": "offerId",
          "type": "uint256"
        }
      ],
      "name": "ItemBought",
      "type": "event"
    },
    {
      "anonymous": false,
      "inputs": [
        {
          "indexed": false,
          "internalType": "uint256",
          "name": "offerId",
          "type": "uint256"
        }
      ],
      "name": "NewOffer",
      "type": "event"
    },
    {
      "anonymous": false,
      "inputs": [
        {
          "indexed": true,
          "internalType": "address",
          "name": "previousOwner",
          "type": "address"
        },
        {
          "indexed": true,
          "internalType": "address",
          "name": "newOwner",
          "type": "address"
        }
      ],
      "name": "OwnershipTransferred",
      "type": "event"
    },
    {
      "inputs": [],
      "name": "isMarketPlaceOpen",
      "outputs": [
        {
          "internalType": "bool",
          "name": "",
          "type": "bool"
        }
      ],
      "stateMutability": "view",
      "type": "function"
    },
    {
      "inputs": [],
      "name": "marketplaceFee",
      "outputs": [
        {
          "internalType": "uint256",
          "name": "",
          "type": "uint256"
        }
      ],
      "stateMutability": "view",
      "type": "function"
    },
    {
      "inputs": [],
      "name": "minPrice",
      "outputs": [
        {
          "internalType": "uint256",
          "name": "",
          "type": "uint256"
        }
      ],
      "stateMutability": "view",
      "type": "function"
    },
    {
      "inputs": [
        {
          "internalType": "uint256",
          "name": "",
          "type": "uint256"
        }
      ],
      "name": "offers",
      "outputs": [
        {
          "internalType": "uint256",
          "name": "itemId",
          "type": "uint256"
        },
        {
          "internalType": "uint256",
          "name": "price",
          "type": "uint256"
        },
        {
          "internalType": "address payable",
          "name": "seller",
          "type": "address"
        },
        {
          "internalType": "address payable",
          "name": "buyer",
          "type": "address"
        },
        {
          "internalType": "bool",
          "name": "isOpen",
          "type": "bool"
        }
      ],
      "stateMutability": "view",
      "type": "function"
    },
    {
      "inputs": [],
      "name": "owner",
      "outputs": [
        {
          "internalType": "address",
          "name": "",
          "type": "address"
        }
      ],
      "stateMutability": "view",
      "type": "function"
    },
    {
      "inputs": [],
      "name": "payCoinContractAddress",
      "outputs": [
        {
          "internalType": "address",
          "name": "",
          "type": "address"
        }
      ],
      "stateMutability": "view",
      "type": "function"
    },
    {
      "inputs": [],
      "name": "payCoinSymbol",
      "outputs": [
        {
          "internalType": "string",
          "name": "",
          "type": "string"
        }
      ],
      "stateMutability": "view",
      "type": "function"
    },
    {
      "inputs": [],
      "name": "renounceOwnership",
      "outputs": [],
      "stateMutability": "nonpayable",
      "type": "function"
    },
    {
      "inputs": [
        {
          "internalType": "address",
          "name": "newOwner",
          "type": "address"
        }
      ],
      "name": "transferOwnership",
      "outputs": [],
      "stateMutability": "nonpayable",
      "type": "function"
    },
    {
      "inputs": [],
      "name": "uniartsNFTContractAddress",
      "outputs": [
        {
          "internalType": "address",
          "name": "",
          "type": "address"
        }
      ],
      "stateMutability": "view",
      "type": "function"
    },
    {
      "inputs": [
        {
          "internalType": "address",
          "name": "",
          "type": "address"
        },
        {
          "internalType": "uint256",
          "name": "",
          "type": "uint256"
        }
      ],
      "name": "usersToOffersId",
      "outputs": [
        {
          "internalType": "uint256",
          "name": "",
          "type": "uint256"
        }
      ],
      "stateMutability": "view",
      "type": "function"
    },
    {
      "inputs": [
        {
          "internalType": "uint256",
          "name": "itemId",
          "type": "uint256"
        },
        {
          "internalType": "uint256",
          "name": "price",
          "type": "uint256"
        }
      ],
      "name": "createOffer",
      "outputs": [],
      "stateMutability": "nonpayable",
      "type": "function"
    },
    {
      "inputs": [
        {
          "internalType": "uint256",
          "name": "offerId",
          "type": "uint256"
        }
      ],
      "name": "closeOffer",
      "outputs": [],
      "stateMutability": "nonpayable",
      "type": "function"
    },
    {
      "inputs": [
        {
          "internalType": "uint256",
          "name": "offerId",
          "type": "uint256"
        }
      ],
      "name": "buyItem",
      "outputs": [],
      "stateMutability": "nonpayable",
      "type": "function"
    },
    {
      "inputs": [
        {
          "internalType": "address",
          "name": "newUniartsNFTContractAddress",
          "type": "address"
        }
      ],
      "name": "setUniartsNFTContractAddress",
      "outputs": [],
      "stateMutability": "nonpayable",
      "type": "function"
    },
    {
      "inputs": [
        {
          "internalType": "string",
          "name": "newpayCoinSymbol",
          "type": "string"
        },
        {
          "internalType": "address",
          "name": "newPayCoinContractAddress",
          "type": "address"
        }
      ],
      "name": "setPayCoinContractAddress",
      "outputs": [],
      "stateMutability": "nonpayable",
      "type": "function"
    },
    {
      "inputs": [],
      "name": "openMarketplace",
      "outputs": [],
      "stateMutability": "nonpayable",
      "type": "function"
    },
    {
      "inputs": [],
      "name": "closeMarketplace",
      "outputs": [],
      "stateMutability": "nonpayable",
      "type": "function"
    },
    {
      "inputs": [],
      "name": "withdrawFunds",
      "outputs": [],
      "stateMutability": "nonpayable",
      "type": "function"
    },
    {
      "inputs": [],
      "name": "withdrawCoins",
      "outputs": [],
      "stateMutability": "nonpayable",
      "type": "function"
    },
    {
      "inputs": [],
      "name": "getOffersTotal",
      "outputs": [
        {
          "internalType": "uint256",
          "name": "",
          "type": "uint256"
        }
      ],
      "stateMutability": "view",
      "type": "function"
    },
    {
      "inputs": [
        {
          "internalType": "uint256",
          "name": "offerId",
          "type": "uint256"
        }
      ],
      "name": "getOffer",
      "outputs": [
        {
          "internalType": "uint256",
          "name": "itemId",
          "type": "uint256"
        },
        {
          "internalType": "uint256",
          "name": "price",
          "type": "uint256"
        },
        {
          "internalType": "address",
          "name": "seller",
          "type": "address"
        },
        {
          "internalType": "address",
          "name": "buyer",
          "type": "address"
        },
        {
          "internalType": "bool",
          "name": "isOpen",
          "type": "bool"
        }
      ],
      "stateMutability": "view",
      "type": "function"
    }
  ],
  "bytecode": "0x608060405260018054600160a060020a031916905560038054600160a860020a031916905560fa60045561271060055534801561003b57600080fd5b5061005e610050640100000000610063810204565b640100000000610067810204565b6100b7565b3390565b60008054600160a060020a03838116600160a060020a0319831681178455604051919092169283917f8be0079c531659141344cd1fd0a4f28419497f9722a3daafe3b4186f6b6457e09190a35050565b611de2806100c66000396000f3fe608060405234801561001057600080fd5b50600436106101465760003560e060020a90048063715018a6116100bc578063c8eedd9a11610080578063c8eedd9a146102a4578063e2d29083146102b9578063e45be8eb146102cc578063e7fb74c7146102d5578063f2fde38b146102e8578063ffbb62a3146102fb57600080fd5b8063715018a6146102495780638a72ea6a146102515780638da5cb5b1461026457806396d121b714610289578063c5b49a731461029c57600080fd5b806331fdbd241161010e57806331fdbd241461019a57806342bcb691146101be57806343d223a6146101d15780634579268a146101e4578063561ff2001461022d5780636a1669641461024057600080fd5b806305477ddf1461014b5780630a3d007914610160578063163edd38146101775780631afed8751461017f57806324600fc314610192575b600080fd5b61015e610159366004611b7a565b610303565b005b6006545b6040519081526020015b60405180910390f35b61015e6104f4565b61015e61018d366004611baa565b610541565b61015e61091c565b6003546101ae9060a060020a900460ff1681565b604051901515815260200161016e565b61015e6101cc366004611afc565b610990565b61015e6101df366004611a79565b610a50565b6101f76101f2366004611b7a565b610b05565b604080519586526020860194909452600160a060020a03928316938501939093521660608301521515608082015260a00161016e565b61016461023b366004611ab1565b610c61565b61016460045481565b61015e610c92565b6101f761025f366004611b7a565b610ccb565b600054600160a060020a03165b604051600160a060020a03909116815260200161016e565b60035461027190600160a060020a031681565b61015e610d1e565b6102ac610e4c565b60405161016e9190611bcb565b60015461027190600160a060020a031681565b61016460055481565b61015e6102e3366004611b7a565b610eda565b61015e6102f6366004611a79565b611743565b61015e6117f8565b60035460a060020a900460ff16151560011461033d5760405160e560020a62461bcd02815260040161033490611cb0565b60405180910390fd5b600681815481106103615760e060020a634e487b7102600052603260045260246000fd5b906000526020600020906004020160030160149054906101000a900460ff166103cf5760405160e560020a62461bcd02815260206004820152600f60248201527f4f6666657220697320636c6f73656400000000000000000000000000000000006044820152606401610334565b33600160a060020a0316600682815481106103fd5760e060020a634e487b7102600052603260045260246000fd5b6000918252602090912060026004909202010154600160a060020a03161461046a5760405160e560020a62461bcd02815260206004820152601e60248201527f53656e64657220646f6573206e6f74206f776e2074686973206f6666657200006044820152606401610334565b6000600682815481106104905760e060020a634e487b7102600052603260045260246000fd5b906000526020600020906004020160030160146101000a81548160ff0219169083151502179055507f7f501b3628443cc9556da1d5744140c295120a54f5aa01e220363dd568e84783816040516104e991815260200190565b60405180910390a150565b600054600160a060020a031633146105215760405160e560020a62461bcd02815260040161033490611c7b565b6003805474ff000000000000000000000000000000000000000019169055565b60035460a060020a900460ff1615156001146105725760405160e560020a62461bcd02815260040161033490611cb0565b6001546040517f6352211e00000000000000000000000000000000000000000000000000000000815260048101849052600160a060020a039091169033908290636352211e9060240160206040518083038186803b1580156105d357600080fd5b505afa1580156105e7573d6000803e3d6000fd5b505050506040513d601f19601f8201168201806040525081019061060b9190611a95565b600160a060020a0316146106645760405160e560020a62461bcd02815260206004820152601d60248201527f53656e64657220646f6573206e6f74206f776e2074686973206974656d0000006044820152606401610334565b6040517f081812fc000000000000000000000000000000000000000000000000000000008152600481018490523090600160a060020a0383169063081812fc9060240160206040518083038186803b1580156106bf57600080fd5b505afa1580156106d3573d6000803e3d6000fd5b505050506040513d601f19601f820116820180604052508101906106f79190611a95565b600160a060020a0316146107205760405160e560020a62461bcd02815260040161033490611c1e565b6005548210156107755760405160e560020a62461bcd02815260206004820152601060248201527f507269636520697320746f6f206c6f77000000000000000000000000000000006044820152606401610334565b6040805160a0810182528481526020810184815233928201928352600060608301818152600160808501818152600680548084018255818652965160049097027ff652222313e28459528d920b65115c16c04f3efc82aaedc97be59f3f377c0d3f81019790975594517ff652222313e28459528d920b65115c16c04f3efc82aaedc97be59f3f377c0d4087015595517ff652222313e28459528d920b65115c16c04f3efc82aaedc97be59f3f377c0d4186018054600160a060020a0392831673ffffffffffffffffffffffffffffffffffffffff1990911617905591517ff652222313e28459528d920b65115c16c04f3efc82aaedc97be59f3f377c0d4290950180549651151560a060020a0274ffffffffffffffffffffffffffffffffffffffffff19909716959092169490941794909417909355546108b69190611d29565b33600090815260076020908152604080832080546001810182559084529190922001829055519091507fc3e96d1275e81254d707531f5025b9b6d01f2bec370e5ff07979d37afbd3ee419061090e9083815260200190565b60405180910390a150505050565b600054600160a060020a031633146109495760405160e560020a62461bcd02815260040161033490611c7b565b600054600160a060020a0316604051600160a060020a039190911690303180156108fc02916000818181858888f1935050505015801561098d573d6000803e3d6000fd5b50565b600054600160a060020a031633146109bd5760405160e560020a62461bcd02815260040161033490611c7b565b600160a060020a038116610a165760405160e560020a62461bcd02815260206004820152601f60248201527f436f6e747261637420616464726573732063616e6e6f74206265206e756c6c006044820152606401610334565b6003805473ffffffffffffffffffffffffffffffffffffffff1916600160a060020a038316179055610a4a600284846119e0565b50505050565b600054600160a060020a03163314610a7d5760405160e560020a62461bcd02815260040161033490611c7b565b600160a060020a038116610ad65760405160e560020a62461bcd02815260206004820152601f60248201527f436f6e747261637420616464726573732063616e6e6f74206265206e756c6c006044820152606401610334565b6001805473ffffffffffffffffffffffffffffffffffffffff1916600160a060020a0392909216919091179055565b600080600080600060068681548110610b315760e060020a634e487b7102600052603260045260246000fd5b90600052602060002090600402016000015460068781548110610b675760e060020a634e487b7102600052603260045260246000fd5b90600052602060002090600402016001015460068881548110610b9d5760e060020a634e487b7102600052603260045260246000fd5b906000526020600020906004020160020160009054906101000a9004600160a060020a031660068981548110610be65760e060020a634e487b7102600052603260045260246000fd5b906000526020600020906004020160030160009054906101000a9004600160a060020a031660068a81548110610c2f5760e060020a634e487b7102600052603260045260246000fd5b906000526020600020906004020160030160149054906101000a900460ff169450945094509450945091939590929450565b60076020528160005260406000208181548110610c7d57600080fd5b90600052602060002001600091509150505481565b600054600160a060020a03163314610cbf5760405160e560020a62461bcd02815260040161033490611c7b565b610cc96000611964565b565b60068181548110610cdb57600080fd5b6000918252602090912060049091020180546001820154600283015460039093015491935091600160a060020a03908116919081169060a060020a900460ff1685565b600054600160a060020a03163314610d4b5760405160e560020a62461bcd02815260040161033490611c7b565b600154600160a060020a0316610da65760405160e560020a62461bcd02815260206004820152601b60248201527f436f6e74726163742061646472657373206973206e6f742073657400000000006044820152606401610334565b600354600160a060020a0316610e265760405160e560020a62461bcd028152602060048201526024808201527f50617920436f696e20436f6e74726163742061646472657373206973206e6f7460448201527f20736574000000000000000000000000000000000000000000000000000000006064820152608401610334565b6003805474ff0000000000000000000000000000000000000000191660a060020a179055565b60028054610e5990611d40565b80601f0160208091040260200160405190810160405280929190818152602001828054610e8590611d40565b8015610ed25780601f10610ea757610100808354040283529160200191610ed2565b820191906000526020600020905b815481529060010190602001808311610eb557829003601f168201915b505050505081565b60035460a060020a900460ff161515600114610f0b5760405160e560020a62461bcd02815260040161033490611cb0565b60015460035460068054600160a060020a0393841693909216913091849163081812fc919087908110610f515760e060020a634e487b7102600052603260045260246000fd5b600091825260209091206004918202015460405163ffffffff841660e060020a0281529182015260240160206040518083038186803b158015610f9357600080fd5b505afa158015610fa7573d6000803e3d6000fd5b505050506040513d601f19601f82011682018060405250810190610fcb9190611a95565b600160a060020a031614610ff45760405160e560020a62461bcd02815260040161033490611c1e565b6040517fdd62ed3e000000000000000000000000000000000000000000000000000000008152336004820152306024820152600090600160a060020a0383169063dd62ed3e9060440160206040518083038186803b15801561105557600080fd5b505afa158015611069573d6000803e3d6000fd5b505050506040513d601f19601f8201168201806040525081019061108d9190611b92565b9050600684815481106110b35760e060020a634e487b7102600052603260045260246000fd5b9060005260206000209060040201600101548110156111175760405160e560020a62461bcd02815260206004820152601960248201527f436865636b2074686520746f6b656e20616c6c6f77616e6365000000000000006044820152606401610334565b6040517f70a08231000000000000000000000000000000000000000000000000000000008152336004820152600090600160a060020a038416906370a082319060240160206040518083038186803b15801561117257600080fd5b505afa158015611186573d6000803e3d6000fd5b505050506040513d601f19601f820116820180604052508101906111aa9190611b92565b9050600685815481106111d05760e060020a634e487b7102600052603260045260246000fd5b9060005260206000209060040201600101548110156112345760405160e560020a62461bcd02815260206004820152601960248201527f436865636b2074686520746f6b656e2062616c616e63654f66000000000000006044820152606401610334565b600685815481106112585760e060020a634e487b7102600052603260045260246000fd5b906000526020600020906004020160030160149054906101000a900460ff166112c65760405160e560020a62461bcd02815260206004820152600f60248201527f4f6666657220697320636c6f73656400000000000000000000000000000000006044820152606401610334565b6000600686815481106112ec5760e060020a634e487b7102600052603260045260246000fd5b906000526020600020906004020160030160146101000a81548160ff02191690831515021790555033600686815481106113395760e060020a634e487b7102600052603260045260246000fd5b906000526020600020906004020160030160006101000a815481600160a060020a030219169083600160a060020a0316021790555083600160a060020a03166342842e0e600687815481106113a15760e060020a634e487b7102600052603260045260246000fd5b906000526020600020906004020160020160009054906101000a9004600160a060020a0316600688815481106113ea5760e060020a634e487b7102600052603260045260246000fd5b906000526020600020906004020160030160009054906101000a9004600160a060020a0316600689815481106114335760e060020a634e487b7102600052603260045260246000fd5b600091825260209091206004918202015460405160e060020a63ffffffff871602815261148194939201600160a060020a039384168152919092166020820152604081019190915260600190565b600060405180830381600087803b15801561149b57600080fd5b505af11580156114af573d6000803e3d6000fd5b5050505060006064806114f9600689815481106114df5760e060020a634e487b7102600052603260045260246000fd5b9060005260206000209060040201600101546004546119c1565b6115039190611ce7565b61150d9190611ce7565b90506000611550600688815481106115385760e060020a634e487b7102600052603260045260246000fd5b906000526020600020906004020160010154836119d4565b905084600160a060020a03166323b872dd600689815481106115855760e060020a634e487b7102600052603260045260246000fd5b600091825260209091206004918202016003015460405163ffffffff841660e060020a028152600160a060020a039091169181019190915230602482015260448101859052606401602060405180830381600087803b1580156115e757600080fd5b505af11580156115fb573d6000803e3d6000fd5b505050506040513d601f19601f8201168201806040525081019061161f9190611adc565b5084600160a060020a03166323b872dd600689815481106116535760e060020a634e487b7102600052603260045260246000fd5b906000526020600020906004020160030160009054906101000a9004600160a060020a031660068a8154811061169c5760e060020a634e487b7102600052603260045260246000fd5b600091825260209091206004918202016002015460405163ffffffff851660e060020a028152600160a060020a039384169281019290925291909116602482015260448101849052606401602060405180830381600087803b15801561170157600080fd5b505af1158015611715573d6000803e3d6000fd5b505050506040513d601f19601f820116820180604052508101906117399190611adc565b5050505050505050565b600054600160a060020a031633146117705760405160e560020a62461bcd02815260040161033490611c7b565b600160a060020a0381166117ef5760405160e560020a62461bcd02815260206004820152602660248201527f4f776e61626c653a206e6577206f776e657220697320746865207a65726f206160448201527f64647265737300000000000000000000000000000000000000000000000000006064820152608401610334565b61098d81611964565b600054600160a060020a031633146118255760405160e560020a62461bcd02815260040161033490611c7b565b6003546040517f70a08231000000000000000000000000000000000000000000000000000000008152306004820152600160a060020a039091169060009082906370a082319060240160206040518083038186803b15801561188657600080fd5b505afa15801561189a573d6000803e3d6000fd5b505050506040513d601f19601f820116820180604052508101906118be9190611b92565b905081600160a060020a031663a9059cbb6118e1600054600160a060020a031690565b60405160e060020a63ffffffff8416028152600160a060020a03909116600482015260248101849052604401602060405180830381600087803b15801561192757600080fd5b505af115801561193b573d6000803e3d6000fd5b505050506040513d601f19601f8201168201806040525081019061195f9190611adc565b505050565b60008054600160a060020a0383811673ffffffffffffffffffffffffffffffffffffffff19831681178455604051919092169283917f8be0079c531659141344cd1fd0a4f28419497f9722a3daafe3b4186f6b6457e09190a35050565b60006119cd8284611d0a565b9392505050565b60006119cd8284611d29565b8280546119ec90611d40565b90600052602060002090601f016020900481019282611a0e5760008555611a54565b82601f10611a275782800160ff19823516178555611a54565b82800160010185558215611a54579182015b82811115611a54578235825591602001919060010190611a39565b50611a60929150611a64565b5090565b5b80821115611a605760008155600101611a65565b600060208284031215611a8a578081fd5b81356119cd81611d97565b600060208284031215611aa6578081fd5b81516119cd81611d97565b60008060408385031215611ac3578081fd5b8235611ace81611d97565b946020939093013593505050565b600060208284031215611aed578081fd5b815180151581146119cd578182fd5b600080600060408486031215611b10578081fd5b833567ffffffffffffffff80821115611b27578283fd5b818601915086601f830112611b3a578283fd5b813581811115611b48578384fd5b876020828501011115611b59578384fd5b60209283019550935050840135611b6f81611d97565b809150509250925092565b600060208284031215611b8b578081fd5b5035919050565b600060208284031215611ba3578081fd5b5051919050565b60008060408385031215611bbc578182fd5b50508035926020909101359150565b6000602080835283518082850152825b81811015611bf757858101830151858201604001528201611bdb565b81811115611c085783604083870101525b50601f01601f1916929092016040019392505050565b6020808252602b908201527f576520646f206e6f74206861766520617070726f76616c20746f206d616e616760408201527f652074686973206974656d000000000000000000000000000000000000000000606082015260800190565b6020808252818101527f4f776e61626c653a2063616c6c6572206973206e6f7420746865206f776e6572604082015260600190565b60208082526015908201527f4d61726b6574706c61636520697320636c6f7365640000000000000000000000604082015260600190565b600082611d055760e060020a634e487b710281526012600452602481fd5b500490565b6000816000190483118215151615611d2457611d24611d7e565b500290565b600082821015611d3b57611d3b611d7e565b500390565b600281046001821680611d5457607f821691505b60208210811415611d785760e060020a634e487b7102600052602260045260246000fd5b50919050565b60e060020a634e487b7102600052601160045260246000fd5b600160a060020a038116811461098d57600080fdfea2646970667358221220a11f52e72d626dd551dd78f5f2d378d08fdcbf455f603a06c7b6de63ce04f12e64736f6c63430008040033",
  "immutableReferences": {},
  "source": "// SPDX-License-Identifier: MIT\npragma solidity ^0.8.0;\n\nimport \"@openzeppelin/contracts/access/Ownable.sol\";\nimport \"@openzeppelin/contracts/utils/math/SafeMath.sol\";\nimport \"@openzeppelin/contracts/token/ERC20/IERC20.sol\";\nimport \"./interfaces/UniartsNFTInterface.sol\";\n\n\n/**\n * @title A small marketplace allowing users to buy and sell a specific ERC721 token\n * @dev For this example, we are using a fictional token called UniartsNFT\n * @author Pickle Solutions https://github.com/picklesolutions\n */\ncontract Marketplace is Ownable {\n  /* Our events */\n  event NewOffer(uint offerId);\n  event CloseOffer(uint offerId);\n  event ItemBought(uint offerId);\n\n  /* The address of our ERC721 token contract */\n  address public uniartsNFTContractAddress = address(0);\n\n  /* The address of Pay erc20 token contract */\n  string public payCoinSymbol;\n  address public payCoinContractAddress = address(0);\n\n  /* If we need to freeze the marketplace for any reason */\n  bool public isMarketPlaceOpen = false;\n\n  /* Our fee (the value is divided by 100, so 250 is 2.50%) */\n  uint public marketplaceFee = 250;\n\n  /* The minimum sale price (in Wei) */\n  uint public minPrice = 10000;\n\n  /* The structure of our offers */\n  struct Offer {\n    uint itemId;\n    uint price;\n    address payable seller;\n    address payable buyer;\n    bool isOpen;\n  }\n\n  /* All the offers are stored here */\n  Offer[] public offers;\n\n  /* We keep track of every offers for every users */\n  mapping (address => uint[]) public usersToOffersId;\n\n  /**\n   * @dev Puts an item on the marketplace\n   * @param itemId The id of the item\n   * @param price The price expected by the seller\n   */\n  function createOffer(\n    uint itemId,\n    uint price\n  ) external whenMarketIsOpen() {\n    /* Let's talk to our token contract */\n    UniartsNFTInterface uniartsNFT = UniartsNFTInterface(uniartsNFTContractAddress);\n\n    /* We need to be sure that the sender is the actual owner of the token */\n    require(\n      uniartsNFT.ownerOf(itemId) == msg.sender,\n      \"Sender does not own this item\"\n    );\n\n    /* Are we approved to manage this item? */\n    require(\n      uniartsNFT.getApproved(itemId) == address(this),\n      \"We do not have approval to manage this item\"\n    );\n\n    /* Is the selling price abovee the minimum price? */\n    require(price >= minPrice, \"Price is too low\");\n\n    /* We push the offer into our array */\n    offers.push(Offer({itemId: itemId, price: price, seller: payable(msg.sender), buyer: payable(address(0)), isOpen: true })) ;\n\n    uint offerId = offers.length - 1;\n\n    /* We keep track of offers from users */\n    usersToOffersId[msg.sender].push(offerId);\n\n    /* We tell the world there is a new offer */\n    emit NewOffer(offerId);\n  }\n\n  /**\n   * @dev close an Offer\n   * @param offerId The id of the offer\n   */\n  function closeOffer(\n    uint offerId\n  ) external whenMarketIsOpen() {\n    /* Is the offer still open? */\n    require(offers[offerId].isOpen, \"Offer is closed\");\n\n    /* Is the offer is owner */\n    require(offers[offerId].seller == msg.sender , \"Sender does not own this offer\");\n\n    /* We close the offer and register the buyer */\n    offers[offerId].isOpen = false;\n\n    /* We tell the world there is a cancel offer */\n    emit CloseOffer(offerId);\n  }\n\n  /**\n   * @dev Buys an item\n   * @param offerId The id of the offer\n   */\n  function buyItem(\n    uint offerId\n  ) external whenMarketIsOpen() {\n    /* Let's talk to our token contract */\n    UniartsNFTInterface uniartsNFT = UniartsNFTInterface(uniartsNFTContractAddress);\n\n    IERC20 payCoin = IERC20(payCoinContractAddress);\n\n    /* Are we still able to manage this item? */\n    require(\n      uniartsNFT.getApproved(offers[offerId].itemId) == address(this),\n      \"We do not have approval to manage this item\"\n    );\n\n    /* Did the buyer send enough funds? */\n    uint256 allowance = payCoin.allowance(msg.sender, address(this));\n    require(allowance >= offers[offerId].price, \"Check the token allowance\");\n\n    uint256 coin_balance = payCoin.balanceOf(msg.sender);\n    require(coin_balance >= offers[offerId].price, \"Check the token balanceOf\");\n\n    /* Is the offer still open? */\n    require(offers[offerId].isOpen, \"Offer is closed\");\n\n    /* We close the offer and register the buyer */\n    offers[offerId].isOpen = false;\n    offers[offerId].buyer = payable(msg.sender);\n\n    /* We transfer the item from the seller to the buyer */\n    uniartsNFT.safeTransferFrom(\n      offers[offerId].seller,\n      offers[offerId].buyer,\n      offers[offerId].itemId\n    );\n\n    /* This is our fee */\n    uint txFee = SafeMath.mul(\n      offers[offerId].price,\n      marketplaceFee\n    ) / 100 / 100;\n\n    /* This is the profit made by the seller */\n    uint profit = SafeMath.sub(\n      offers[offerId].price,\n      txFee\n    );\n\n    /* buyer pay coin */\n    payCoin.transferFrom(offers[offerId].buyer, address(this), txFee);\n    \n    /* We give the seller his money */\n    payCoin.transferFrom(offers[offerId].buyer, offers[offerId].seller, profit);\n  }\n\n  /**\n   * @dev Sets the address of our ERC721 token contract\n   * @param newUniartsNFTContractAddress The address of the contract\n   */\n  function setUniartsNFTContractAddress(\n    address newUniartsNFTContractAddress\n  ) external onlyOwner() {\n    /* The address cannot be null */\n    require(newUniartsNFTContractAddress != address(0), \"Contract address cannot be null\");\n\n    /* We set the address */\n    uniartsNFTContractAddress = newUniartsNFTContractAddress;\n  }\n\n  /**\n   * @dev Sets the address of Pay erc20 token contract\n   * @param newPayCoinContractAddress The address of the contract\n   */\n  function setPayCoinContractAddress(\n    string calldata newpayCoinSymbol,\n    address newPayCoinContractAddress\n  ) external onlyOwner() {\n    /* The address cannot be null */\n    require(newPayCoinContractAddress != address(0), \"Contract address cannot be null\");\n\n    /* We set the address */\n    payCoinContractAddress = newPayCoinContractAddress;\n    payCoinSymbol = newpayCoinSymbol;\n  }\n\n  /**\n   * @dev Opens the market if the contract address is correct\n   */\n  function openMarketplace() external onlyOwner() {\n    require(uniartsNFTContractAddress != address(0), \"Contract address is not set\");\n    require(payCoinContractAddress != address(0), \"Pay Coin Contract address is not set\");\n\n    isMarketPlaceOpen = true;\n  }\n\n  /**\n   * @dev Closes the market\n   */\n  function closeMarketplace() external onlyOwner() {\n    isMarketPlaceOpen = false;\n  }\n\n  /**\n   * @dev Lets the owner withdraw his funds\n   */\n  function withdrawFunds() external onlyOwner() {\n    payable(address(owner())).transfer(address(this).balance);\n  }\n\n  /**\n   * @dev Lets the owner withdraw his coins\n   */\n  function withdrawCoins() external onlyOwner() {\n    IERC20 payCoin = IERC20(payCoinContractAddress);\n    uint256 coin_balance = payCoin.balanceOf(address(this));\n    payCoin.transfer(address(uint160(owner())), coin_balance);\n  }\n\n  /**\n   * @dev Returns the offers\n   */\n  function getOffersTotal() external view returns (uint) {\n    return offers.length;\n  }\n\n  function getOffer(uint offerId) external view returns (\n    uint itemId,\n    uint price,\n    address seller,\n    address buyer,\n    bool isOpen\n  ) {\n    return (\n      offers[offerId].itemId,\n      offers[offerId].price,\n      offers[offerId].seller,\n      offers[offerId].buyer,\n      offers[offerId].isOpen\n    );\n  }\n\n  /**\n   * @dev Some functions can only be called when the market is open\n   */\n  modifier whenMarketIsOpen() {\n    require(isMarketPlaceOpen == true, \"Marketplace is closed\");\n    _;\n  }\n}\n",
  "sourcePath": "/Users/yxf/app/uniarts-eth-dao/contracts/core/Marketplace.sol",
  "compiler": {
    "name": "solc",
    "version": "0.8.4+commit.c7e474f2.Emscripten.clang"
  },
  "schemaVersion": "3.2.3",
  "updatedAt": "2021-09-29T09:32:53.021Z",
  "devdoc": {
    "author": "Pickle Solutions https://github.com/picklesolutions",
    "details": "For this example, we are using a fictional token called UniartsNFT",
    "kind": "dev",
    "methods": {
      "buyItem(uint256)": {
        "details": "Buys an item",
        "params": {
          "offerId": "The id of the offer"
        }
      },
      "closeMarketplace()": {
        "details": "Closes the market"
      },
      "closeOffer(uint256)": {
        "details": "close an Offer",
        "params": {
          "offerId": "The id of the offer"
        }
      },
      "createOffer(uint256,uint256)": {
        "details": "Puts an item on the marketplace",
        "params": {
          "itemId": "The id of the item",
          "price": "The price expected by the seller"
        }
      },
      "getOffersTotal()": {
        "details": "Returns the offers"
      },
      "openMarketplace()": {
        "details": "Opens the market if the contract address is correct"
      },
      "owner()": {
        "details": "Returns the address of the current owner."
      },
      "renounceOwnership()": {
        "details": "Leaves the contract without owner. It will not be possible to call `onlyOwner` functions anymore. Can only be called by the current owner. NOTE: Renouncing ownership will leave the contract without an owner, thereby removing any functionality that is only available to the owner."
      },
      "setPayCoinContractAddress(string,address)": {
        "details": "Sets the address of Pay erc20 token contract",
        "params": {
          "newPayCoinContractAddress": "The address of the contract"
        }
      },
      "setUniartsNFTContractAddress(address)": {
        "details": "Sets the address of our ERC721 token contract",
        "params": {
          "newUniartsNFTContractAddress": "The address of the contract"
        }
      },
      "transferOwnership(address)": {
        "details": "Transfers ownership of the contract to a new account (`newOwner`). Can only be called by the current owner."
      },
      "withdrawCoins()": {
        "details": "Lets the owner withdraw his coins"
      },
      "withdrawFunds()": {
        "details": "Lets the owner withdraw his funds"
      }
    },
    "title": "A small marketplace allowing users to buy and sell a specific ERC721 token",
    "version": 1
  },
  "userdoc": {
    "kind": "user",
    "methods": {},
    "version": 1
  }
}