{
  "contractName": "MerkleDistributor",
  "abi": [
    {
      "inputs": [
        {
          "internalType": "address",
          "name": "token_",
          "type": "address"
        },
        {
          "internalType": "bytes32",
          "name": "merkleRoot_",
          "type": "bytes32"
        }
      ],
      "stateMutability": "nonpayable",
      "type": "constructor"
    },
    {
      "anonymous": false,
      "inputs": [
        {
          "indexed": false,
          "internalType": "uint256",
          "name": "index",
          "type": "uint256"
        },
        {
          "indexed": false,
          "internalType": "address",
          "name": "account",
          "type": "address"
        },
        {
          "indexed": false,
          "internalType": "uint256",
          "name": "amount",
          "type": "uint256"
        }
      ],
      "name": "Claimed",
      "type": "event"
    },
    {
      "inputs": [],
      "name": "merkleRoot",
      "outputs": [
        {
          "internalType": "bytes32",
          "name": "",
          "type": "bytes32"
        }
      ],
      "stateMutability": "view",
      "type": "function"
    },
    {
      "inputs": [],
      "name": "token",
      "outputs": [
        {
          "internalType": "address",
          "name": "",
          "type": "address"
        }
      ],
      "stateMutability": "view",
      "type": "function"
    },
    {
      "inputs": [
        {
          "internalType": "uint256",
          "name": "index",
          "type": "uint256"
        }
      ],
      "name": "isClaimed",
      "outputs": [
        {
          "internalType": "bool",
          "name": "",
          "type": "bool"
        }
      ],
      "stateMutability": "view",
      "type": "function"
    },
    {
      "inputs": [
        {
          "internalType": "uint256",
          "name": "index",
          "type": "uint256"
        },
        {
          "internalType": "address",
          "name": "account",
          "type": "address"
        },
        {
          "internalType": "uint256",
          "name": "amount",
          "type": "uint256"
        },
        {
          "internalType": "bytes32[]",
          "name": "merkleProof",
          "type": "bytes32[]"
        }
      ],
      "name": "claim",
      "outputs": [],
      "stateMutability": "nonpayable",
      "type": "function"
    }
  ],
  "bytecode": "0x60c060405234801561001057600080fd5b506040516108a63803806108a683398101604081905261002f91610055565b600160a060020a03919091166c010000000000000000000000000260805260a05261008d565b60008060408385031215610067578182fd5b8251600160a060020a038116811461007d578283fd5b6020939093015192949293505050565b6080516c01000000000000000000000000900460a0516107d86100ce600039600081816087015261025801526000818160e4015261036401526107d86000f3fe608060405234801561001057600080fd5b5060043610610068577c010000000000000000000000000000000000000000000000000000000060003504632e7ba6ef811461006d5780632eb4a7ab146100825780639e34070f146100bc578063fc0c546a146100df575b600080fd5b61008061007b366004610660565b61012b565b005b6100a97f000000000000000000000000000000000000000000000000000000000000000081565b6040519081526020015b60405180910390f35b6100cf6100ca366004610648565b6104ca565b60405190151581526020016100b3565b6101067f000000000000000000000000000000000000000000000000000000000000000081565b60405173ffffffffffffffffffffffffffffffffffffffff90911681526020016100b3565b610134856104ca565b156101c6576040517f08c379a000000000000000000000000000000000000000000000000000000000815260206004820152602860248201527f4d65726b6c654469737472696275746f723a2044726f7020616c72656164792060448201527f636c61696d65642e00000000000000000000000000000000000000000000000060648201526084015b60405180910390fd5b60408051602081018790526c0100000000000000000000000073ffffffffffffffffffffffffffffffffffffffff87160291810191909152605481018490526000906074016040516020818303038152906040528051906020012090506102838383808060200260200160405190810160405280939291908181526020018383602002808284376000920191909152507f0000000000000000000000000000000000000000000000000000000000000000925085915061050c9050565b61030f576040517f08c379a000000000000000000000000000000000000000000000000000000000815260206004820152602160248201527f4d65726b6c654469737472696275746f723a20496e76616c69642070726f6f6660448201527f2e0000000000000000000000000000000000000000000000000000000000000060648201526084016101bd565b610318866105e2565b6040517fa9059cbb00000000000000000000000000000000000000000000000000000000815273ffffffffffffffffffffffffffffffffffffffff8681166004830152602482018690527f0000000000000000000000000000000000000000000000000000000000000000169063a9059cbb90604401602060405180830381600087803b1580156103a857600080fd5b505af11580156103bc573d6000803e3d6000fd5b505050506040513d601f19601f820116820180604052508101906103e09190610621565b61046c576040517f08c379a000000000000000000000000000000000000000000000000000000000815260206004820152602360248201527f4d65726b6c654469737472696275746f723a205472616e73666572206661696c60448201527f65642e000000000000000000000000000000000000000000000000000000000060648201526084016101bd565b6040805187815273ffffffffffffffffffffffffffffffffffffffff871660208201529081018590527f4ec90e965519d92681267467f775ada5bd214aa92c0dc93d90a5e880ce9ed0269060600160405180910390a1505050505050565b6000806104d96101008461070b565b905060006104e96101008561075f565b6000928352602083905260409092205460029290920a9182169091149392505050565b600081815b85518110156105d7576000868281518110610555577f4e487b7100000000000000000000000000000000000000000000000000000000600052603260045260246000fd5b602002602001015190508083116105975760408051602081018590529081018290526060016040516020818303038152906040528051906020012092506105c4565b60408051602081018390529081018490526060016040516020818303038152906040528051906020012092505b50806105cf8161071f565b915050610511565b509092149392505050565b60006105f06101008361070b565b905060006106006101008461075f565b600092835260208390526040909220805460029390930a9092179091555050565b600060208284031215610632578081fd5b81518015158114610641578182fd5b9392505050565b600060208284031215610659578081fd5b5035919050565b600080600080600060808688031215610677578081fd5b85359450602086013573ffffffffffffffffffffffffffffffffffffffff811681146106a1578182fd5b935060408601359250606086013567ffffffffffffffff808211156106c4578283fd5b818801915088601f8301126106d7578283fd5b8135818111156106e5578384fd5b89602080830285010111156106f8578384fd5b9699959850939650602001949392505050565b60008261071a5761071a610773565b500490565b6000600019821415610758577f4e487b710000000000000000000000000000000000000000000000000000000081526011600452602481fd5b5060010190565b60008261076e5761076e610773565b500690565b7f4e487b7100000000000000000000000000000000000000000000000000000000600052601260045260246000fdfea2646970667358221220fa3992072cb1ee8b816ec0dc690b3b01a1df16620f9b7f65031bf5cb471d69ba64736f6c63430008040033",
  "immutableReferences": {
    "17092": [
      {
        "length": 32,
        "start": 228
      },
      {
        "length": 32,
        "start": 868
      }
    ],
    "17095": [
      {
        "length": 32,
        "start": 135
      },
      {
        "length": 32,
        "start": 600
      }
    ]
  },
  "source": "// SPDX-License-Identifier: MIT\npragma solidity ^0.8.0;\n\nimport \"@openzeppelin/contracts/token/ERC20/IERC20.sol\";\nimport \"@openzeppelin/contracts/utils/cryptography/MerkleProof.sol\";\nimport \"./interfaces/IMerkleDistributor.sol\";\n\ncontract MerkleDistributor is IMerkleDistributor {\n    address public immutable override token;\n    bytes32 public immutable override merkleRoot;\n\n    // This is a packed array of booleans.\n    mapping(uint256 => uint256) private claimedBitMap;\n\n    constructor(address token_, bytes32 merkleRoot_) {\n        token = token_;\n        merkleRoot = merkleRoot_;\n    }\n\n    function isClaimed(uint256 index) public view override returns (bool) {\n        uint256 claimedWordIndex = index / 256;\n        uint256 claimedBitIndex = index % 256;\n        uint256 claimedWord = claimedBitMap[claimedWordIndex];\n        uint256 mask = (1 << claimedBitIndex);\n        return claimedWord & mask == mask;\n    }\n\n    function _setClaimed(uint256 index) private {\n        uint256 claimedWordIndex = index / 256;\n        uint256 claimedBitIndex = index % 256;\n        claimedBitMap[claimedWordIndex] = claimedBitMap[claimedWordIndex] | (1 << claimedBitIndex);\n    }\n\n    function claim(uint256 index, address account, uint256 amount, bytes32[] calldata merkleProof) external override {\n        require(!isClaimed(index), 'MerkleDistributor: Drop already claimed.');\n\n        // Verify the merkle proof.\n        bytes32 node = keccak256(abi.encodePacked(index, account, amount));\n        require(MerkleProof.verify(merkleProof, merkleRoot, node), 'MerkleDistributor: Invalid proof.');\n\n        // Mark it claimed and send the token.\n        _setClaimed(index);\n        require(IERC20(token).transfer(account, amount), 'MerkleDistributor: Transfer failed.');\n\n        emit Claimed(index, account, amount);\n    }\n}\n",
  "sourcePath": "/Users/yxf/app/uniarts-eth-dao/contracts/core/MerkleDistributor.sol",
  "compiler": {
    "name": "solc",
    "version": "0.8.4+commit.c7e474f2.Emscripten.clang"
  },
  "schemaVersion": "3.2.3",
  "updatedAt": "2021-11-01T14:58:09.105Z",
  "devdoc": {
    "kind": "dev",
    "methods": {},
    "version": 1
  },
  "userdoc": {
    "kind": "user",
    "methods": {},
    "version": 1
  }
}