{
  "contractName": "MerkleDistributor",
  "abi": [
    {
      "inputs": [
        {
          "internalType": "address",
          "name": "token_",
          "type": "address"
        },
        {
          "internalType": "bytes32",
          "name": "merkleRoot_",
          "type": "bytes32"
        }
      ],
      "stateMutability": "nonpayable",
      "type": "constructor"
    },
    {
      "anonymous": false,
      "inputs": [
        {
          "indexed": false,
          "internalType": "uint256",
          "name": "index",
          "type": "uint256"
        },
        {
          "indexed": false,
          "internalType": "address",
          "name": "account",
          "type": "address"
        },
        {
          "indexed": false,
          "internalType": "uint256",
          "name": "amount",
          "type": "uint256"
        }
      ],
      "name": "Claimed",
      "type": "event"
    },
    {
      "inputs": [],
      "name": "merkleRoot",
      "outputs": [
        {
          "internalType": "bytes32",
          "name": "",
          "type": "bytes32"
        }
      ],
      "stateMutability": "view",
      "type": "function"
    },
    {
      "inputs": [],
      "name": "token",
      "outputs": [
        {
          "internalType": "address",
          "name": "",
          "type": "address"
        }
      ],
      "stateMutability": "view",
      "type": "function"
    },
    {
      "inputs": [
        {
          "internalType": "uint256",
          "name": "index",
          "type": "uint256"
        }
      ],
      "name": "isClaimed",
      "outputs": [
        {
          "internalType": "bool",
          "name": "",
          "type": "bool"
        }
      ],
      "stateMutability": "view",
      "type": "function"
    },
    {
      "inputs": [
        {
          "internalType": "uint256",
          "name": "index",
          "type": "uint256"
        },
        {
          "internalType": "address",
          "name": "account",
          "type": "address"
        },
        {
          "internalType": "uint256",
          "name": "amount",
          "type": "uint256"
        },
        {
          "internalType": "bytes32[]",
          "name": "merkleProof",
          "type": "bytes32[]"
        }
      ],
      "name": "claim",
      "outputs": [],
      "stateMutability": "nonpayable",
      "type": "function"
    }
  ],
  "bytecode": "0x60c06040523480156200001157600080fd5b5060405162000d7338038062000d738339818101604052810190620000379190620000ac565b8173ffffffffffffffffffffffffffffffffffffffff1660808173ffffffffffffffffffffffffffffffffffffffff1660601b815250508060a0818152505050506200015f565b6000815190506200008f816200012b565b92915050565b600081519050620000a68162000145565b92915050565b60008060408385031215620000c057600080fd5b6000620000d0858286016200007e565b9250506020620000e38582860162000095565b9150509250929050565b6000620000fa826200010b565b9050919050565b6000819050919050565b600073ffffffffffffffffffffffffffffffffffffffff82169050919050565b6200013681620000ed565b81146200014257600080fd5b50565b620001508162000101565b81146200015c57600080fd5b50565b60805160601c60a051610bdd6200019660003960008181610198015261033601526000818161020701526103af0152610bdd6000f3fe608060405234801561001057600080fd5b506004361061004c5760003560e01c80632e7ba6ef146100515780632eb4a7ab1461006d5780639e34070f1461008b578063fc0c546a146100bb575b600080fd5b61006b600480360381019061006691906105e0565b6100d9565b005b610075610334565b6040516100829190610812565b60405180910390f35b6100a560048036038101906100a091906105b7565b610358565b6040516100b291906107f7565b60405180910390f35b6100c36103ad565b6040516100d091906107b3565b60405180910390f35b6100e285610358565b15610122576040517f08c379a00000000000000000000000000000000000000000000000000000000081526004016101199061082d565b60405180910390fd5b600085858560405160200161013993929190610776565b6040516020818303038152906040528051906020012090506101bd838380806020026020016040519081016040528093929190818152602001838360200280828437600081840152601f19601f820116905080830192505050505050507f0000000000000000000000000000000000000000000000000000000000000000836103d1565b6101fc576040517f08c379a00000000000000000000000000000000000000000000000000000000081526004016101f39061084d565b60405180910390fd5b610205866104ad565b7f000000000000000000000000000000000000000000000000000000000000000073ffffffffffffffffffffffffffffffffffffffff1663a9059cbb86866040518363ffffffff1660e01b81526004016102609291906107ce565b602060405180830381600087803b15801561027a57600080fd5b505af115801561028e573d6000803e3d6000fd5b505050506040513d601f19601f820116820180604052508101906102b2919061058e565b6102f1576040517f08c379a00000000000000000000000000000000000000000000000000000000081526004016102e89061086d565b60405180910390fd5b7f4ec90e965519d92681267467f775ada5bd214aa92c0dc93d90a5e880ce9ed0268686866040516103249392919061088d565b60405180910390a1505050505050565b7f000000000000000000000000000000000000000000000000000000000000000081565b6000806101008361036991906108d5565b905060006101008461037b91906109d9565b905060008060008481526020019081526020016000205490506000826001901b90508081831614945050505050919050565b7f000000000000000000000000000000000000000000000000000000000000000081565b60008082905060005b855181101561049f57600086828151811061041e577f4e487b7100000000000000000000000000000000000000000000000000000000600052603260045260246000fd5b6020026020010151905080831161045f57828160405160200161044292919061074a565b60405160208183030381529060405280519060200120925061048b565b808360405160200161047292919061074a565b6040516020818303038152906040528051906020012092505b50808061049790610958565b9150506103da565b508381149150509392505050565b6000610100826104bd91906108d5565b90506000610100836104cf91906109d9565b9050806001901b600080848152602001908152602001600020541760008084815260200190815260200160002081905550505050565b60008135905061051481610b62565b92915050565b60008083601f84011261052c57600080fd5b8235905067ffffffffffffffff81111561054557600080fd5b60208301915083602082028301111561055d57600080fd5b9250929050565b60008151905061057381610b79565b92915050565b60008135905061058881610b90565b92915050565b6000602082840312156105a057600080fd5b60006105ae84828501610564565b91505092915050565b6000602082840312156105c957600080fd5b60006105d784828501610579565b91505092915050565b6000806000806000608086880312156105f857600080fd5b600061060688828901610579565b955050602061061788828901610505565b945050604061062888828901610579565b935050606086013567ffffffffffffffff81111561064557600080fd5b6106518882890161051a565b92509250509295509295909350565b61066981610906565b82525050565b61068061067b82610906565b6109a1565b82525050565b61068f81610918565b82525050565b61069e81610924565b82525050565b6106b56106b082610924565b6109b3565b82525050565b60006106c86028836108c4565b91506106d382610a75565b604082019050919050565b60006106eb6021836108c4565b91506106f682610ac4565b604082019050919050565b600061070e6023836108c4565b915061071982610b13565b604082019050919050565b61072d8161094e565b82525050565b61074461073f8261094e565b6109cf565b82525050565b600061075682856106a4565b60208201915061076682846106a4565b6020820191508190509392505050565b60006107828286610733565b602082019150610792828561066f565b6014820191506107a28284610733565b602082019150819050949350505050565b60006020820190506107c86000830184610660565b92915050565b60006040820190506107e36000830185610660565b6107f06020830184610724565b9392505050565b600060208201905061080c6000830184610686565b92915050565b60006020820190506108276000830184610695565b92915050565b60006020820190508181036000830152610846816106bb565b9050919050565b60006020820190508181036000830152610866816106de565b9050919050565b6000602082019050818103600083015261088681610701565b9050919050565b60006060820190506108a26000830186610724565b6108af6020830185610660565b6108bc6040830184610724565b949350505050565b600082825260208201905092915050565b60006108e08261094e565b91506108eb8361094e565b9250826108fb576108fa610a39565b5b828204905092915050565b60006109118261092e565b9050919050565b60008115159050919050565b6000819050919050565b600073ffffffffffffffffffffffffffffffffffffffff82169050919050565b6000819050919050565b60006109638261094e565b91507fffffffffffffffffffffffffffffffffffffffffffffffffffffffffffffffff82141561099657610995610a0a565b5b600182019050919050565b60006109ac826109bd565b9050919050565b6000819050919050565b60006109c882610a68565b9050919050565b6000819050919050565b60006109e48261094e565b91506109ef8361094e565b9250826109ff576109fe610a39565b5b828206905092915050565b7f4e487b7100000000000000000000000000000000000000000000000000000000600052601160045260246000fd5b7f4e487b7100000000000000000000000000000000000000000000000000000000600052601260045260246000fd5b60008160601b9050919050565b7f4d65726b6c654469737472696275746f723a2044726f7020616c72656164792060008201527f636c61696d65642e000000000000000000000000000000000000000000000000602082015250565b7f4d65726b6c654469737472696275746f723a20496e76616c69642070726f6f6660008201527f2e00000000000000000000000000000000000000000000000000000000000000602082015250565b7f4d65726b6c654469737472696275746f723a205472616e73666572206661696c60008201527f65642e0000000000000000000000000000000000000000000000000000000000602082015250565b610b6b81610906565b8114610b7657600080fd5b50565b610b8281610918565b8114610b8d57600080fd5b50565b610b998161094e565b8114610ba457600080fd5b5056fea264697066735822122004da77357901da8e73d06e09e338e842ff8a89592ae6fdf3d124dcf94652828c64736f6c63430008040033",
  "immutableReferences": {
    "5441": [
      {
        "length": 32,
        "start": 519
      },
      {
        "length": 32,
        "start": 943
      }
    ],
    "5444": [
      {
        "length": 32,
        "start": 408
      },
      {
        "length": 32,
        "start": 822
      }
    ]
  },
  "source": "// SPDX-License-Identifier: MIT\npragma solidity ^0.8.0;\n\nimport \"@openzeppelin/contracts/token/ERC20/IERC20.sol\";\nimport \"@openzeppelin/contracts/utils/cryptography/MerkleProof.sol\";\nimport \"./interfaces/IMerkleDistributor.sol\";\n\ncontract MerkleDistributor is IMerkleDistributor {\n    address public immutable override token;\n    bytes32 public immutable override merkleRoot;\n\n    // This is a packed array of booleans.\n    mapping(uint256 => uint256) private claimedBitMap;\n\n    constructor(address token_, bytes32 merkleRoot_) {\n        token = token_;\n        merkleRoot = merkleRoot_;\n    }\n\n    function isClaimed(uint256 index) public view override returns (bool) {\n        uint256 claimedWordIndex = index / 256;\n        uint256 claimedBitIndex = index % 256;\n        uint256 claimedWord = claimedBitMap[claimedWordIndex];\n        uint256 mask = (1 << claimedBitIndex);\n        return claimedWord & mask == mask;\n    }\n\n    function _setClaimed(uint256 index) private {\n        uint256 claimedWordIndex = index / 256;\n        uint256 claimedBitIndex = index % 256;\n        claimedBitMap[claimedWordIndex] = claimedBitMap[claimedWordIndex] | (1 << claimedBitIndex);\n    }\n\n    function claim(uint256 index, address account, uint256 amount, bytes32[] calldata merkleProof) external override {\n        require(!isClaimed(index), 'MerkleDistributor: Drop already claimed.');\n\n        // Verify the merkle proof.\n        bytes32 node = keccak256(abi.encodePacked(index, account, amount));\n        require(MerkleProof.verify(merkleProof, merkleRoot, node), 'MerkleDistributor: Invalid proof.');\n\n        // Mark it claimed and send the token.\n        _setClaimed(index);\n        require(IERC20(token).transfer(account, amount), 'MerkleDistributor: Transfer failed.');\n\n        emit Claimed(index, account, amount);\n    }\n}\n",
  "sourcePath": "/Users/yxf/app/uniarts-eth-dao/contracts/core/MerkleDistributor.sol",
  "compiler": {
    "name": "solc",
    "version": "0.8.4+commit.c7e474f2.Emscripten.clang"
  },
  "schemaVersion": "3.2.3",
  "updatedAt": "2021-09-10T03:32:11.331Z",
  "devdoc": {
    "kind": "dev",
    "methods": {},
    "version": 1
  },
  "userdoc": {
    "kind": "user",
    "methods": {},
    "version": 1
  }
}