{
  "contractName": "MerkleMint",
  "abi": [
    {
      "inputs": [
        {
          "internalType": "address",
          "name": "token_",
          "type": "address"
        },
        {
          "internalType": "bytes32",
          "name": "merkleRoot_",
          "type": "bytes32"
        }
      ],
      "stateMutability": "nonpayable",
      "type": "constructor"
    },
    {
      "anonymous": false,
      "inputs": [
        {
          "indexed": false,
          "internalType": "uint256",
          "name": "index",
          "type": "uint256"
        },
        {
          "indexed": false,
          "internalType": "address",
          "name": "account",
          "type": "address"
        }
      ],
      "name": "Claimed",
      "type": "event"
    },
    {
      "inputs": [],
      "name": "merkleRoot",
      "outputs": [
        {
          "internalType": "bytes32",
          "name": "",
          "type": "bytes32"
        }
      ],
      "stateMutability": "view",
      "type": "function"
    },
    {
      "inputs": [],
      "name": "token",
      "outputs": [
        {
          "internalType": "address",
          "name": "",
          "type": "address"
        }
      ],
      "stateMutability": "view",
      "type": "function"
    },
    {
      "inputs": [
        {
          "internalType": "uint256",
          "name": "index",
          "type": "uint256"
        }
      ],
      "name": "isClaimed",
      "outputs": [
        {
          "internalType": "bool",
          "name": "",
          "type": "bool"
        }
      ],
      "stateMutability": "view",
      "type": "function"
    },
    {
      "inputs": [
        {
          "internalType": "uint256",
          "name": "index",
          "type": "uint256"
        },
        {
          "internalType": "address",
          "name": "account",
          "type": "address"
        },
        {
          "internalType": "bytes32[]",
          "name": "merkleProof",
          "type": "bytes32[]"
        }
      ],
      "name": "claim",
      "outputs": [],
      "stateMutability": "nonpayable",
      "type": "function"
    }
  ],
  "bytecode": "0x60c060405234801561001057600080fd5b5060405161083b38038061083b83398101604081905261002f91610055565b600160a060020a03919091166c010000000000000000000000000260805260a05261008d565b60008060408385031215610067578182fd5b8251600160a060020a038116811461007d578283fd5b6020939093015192949293505050565b6080516c01000000000000000000000000900460a05161076d6100ce600039600081816072015261029801526000818160e40152610377015261076d6000f3fe608060405234801561001057600080fd5b5060043610610068577c010000000000000000000000000000000000000000000000000000000060003504632eb4a7ab811461006d5780639e34070f146100a7578063f72d82cf146100ca578063fc0c546a146100df575b600080fd5b6100947f000000000000000000000000000000000000000000000000000000000000000081565b6040519081526020015b60405180910390f35b6100ba6100b53660046105ea565b61012b565b604051901515815260200161009e565b6100dd6100d8366004610602565b61016d565b005b6101067f000000000000000000000000000000000000000000000000000000000000000081565b60405173ffffffffffffffffffffffffffffffffffffffff909116815260200161009e565b60008061013a610100846106a0565b9050600061014a610100856106f4565b6000928352602083905260409092205460029290920a9182169091149392505050565b6101768461012b565b15610208576040517f08c379a000000000000000000000000000000000000000000000000000000000815260206004820152602160248201527f4d65726b6c654d696e743a2044726f7020616c726561647920636c61696d656460448201527f2e0000000000000000000000000000000000000000000000000000000000000060648201526084015b60405180910390fd5b6000848460405160200161024b92919091825273ffffffffffffffffffffffffffffffffffffffff166c0100000000000000000000000002602082015260340190565b6040516020818303038152906040528051906020012090506102c38383808060200260200160405190810160405280939291908181526020018383602002808284376000920191909152507f000000000000000000000000000000000000000000000000000000000000000092508591506104ae9050565b610329576040517f08c379a000000000000000000000000000000000000000000000000000000000815260206004820152601a60248201527f4d65726b6c654d696e743a20496e76616c69642070726f6f662e00000000000060448201526064016101ff565b61033285610584565b6040517fd90f2c2700000000000000000000000000000000000000000000000000000000815273ffffffffffffffffffffffffffffffffffffffff85811660048301527f0000000000000000000000000000000000000000000000000000000000000000169063d90f2c2790602401602060405180830381600087803b1580156103bb57600080fd5b505af11580156103cf573d6000803e3d6000fd5b505050506040513d601f19601f820116820180604052508101906103f391906105c3565b610459576040517f08c379a000000000000000000000000000000000000000000000000000000000815260206004820152601c60248201527f4d65726b6c654d696e743a205472616e73666572206661696c65642e0000000060448201526064016101ff565b6040805186815273ffffffffffffffffffffffffffffffffffffffff861660208201527f6aa3eac93d079e5e100b1029be716caa33586c96aa4baac390669fb5c2a21212910160405180910390a15050505050565b600081815b85518110156105795760008682815181106104f7577f4e487b7100000000000000000000000000000000000000000000000000000000600052603260045260246000fd5b60200260200101519050808311610539576040805160208101859052908101829052606001604051602081830303815290604052805190602001209250610566565b60408051602081018390529081018490526060016040516020818303038152906040528051906020012092505b5080610571816106b4565b9150506104b3565b509092149392505050565b6000610592610100836106a0565b905060006105a2610100846106f4565b600092835260208390526040909220805460029390930a9092179091555050565b6000602082840312156105d4578081fd5b815180151581146105e3578182fd5b9392505050565b6000602082840312156105fb578081fd5b5035919050565b60008060008060608587031215610617578283fd5b84359350602085013573ffffffffffffffffffffffffffffffffffffffff81168114610641578384fd5b9250604085013567ffffffffffffffff8082111561065d578384fd5b818701915087601f830112610670578384fd5b81358181111561067e578485fd5b8860208083028501011115610691578485fd5b95989497505060200194505050565b6000826106af576106af610708565b500490565b60006000198214156106ed577f4e487b710000000000000000000000000000000000000000000000000000000081526011600452602481fd5b5060010190565b60008261070357610703610708565b500690565b7f4e487b7100000000000000000000000000000000000000000000000000000000600052601260045260246000fdfea26469706673582212206998441bf904da15d4c847503e95baee185afed8e31b5b4f81850fbd62f6c89e64736f6c63430008040033",
  "immutableReferences": {
    "5560": [
      {
        "length": 32,
        "start": 228
      },
      {
        "length": 32,
        "start": 887
      }
    ],
    "5563": [
      {
        "length": 32,
        "start": 114
      },
      {
        "length": 32,
        "start": 664
      }
    ]
  },
  "source": "// SPDX-License-Identifier: MIT\npragma solidity ^0.8.0;\n\nimport \"./interfaces/IERC721Merkle.sol\";\nimport \"@openzeppelin/contracts/utils/cryptography/MerkleProof.sol\";\nimport \"./interfaces/IMerkleMint.sol\";\n\ncontract MerkleMint is IMerkleMint {\n    address public immutable override token;\n    bytes32 public immutable override merkleRoot;\n\n    // This is a packed array of booleans.\n    mapping(uint256 => uint256) private claimedBitMap;\n\n    constructor(address token_, bytes32 merkleRoot_) {\n        token = token_;\n        merkleRoot = merkleRoot_;\n    }\n\n    function isClaimed(uint256 index) public view override returns (bool) {\n        uint256 claimedWordIndex = index / 256;\n        uint256 claimedBitIndex = index % 256;\n        uint256 claimedWord = claimedBitMap[claimedWordIndex];\n        uint256 mask = (1 << claimedBitIndex);\n        return claimedWord & mask == mask;\n    }\n\n    function _setClaimed(uint256 index) private {\n        uint256 claimedWordIndex = index / 256;\n        uint256 claimedBitIndex = index % 256;\n        claimedBitMap[claimedWordIndex] = claimedBitMap[claimedWordIndex] | (1 << claimedBitIndex);\n    }\n\n    function claim(uint256 index, address account, bytes32[] calldata merkleProof) external override {\n        require(!isClaimed(index), 'MerkleMint: Drop already claimed.');\n\n        // Verify the merkle proof.\n        bytes32 node = keccak256(abi.encodePacked(index, account));\n        require(MerkleProof.verify(merkleProof, merkleRoot, node), 'MerkleMint: Invalid proof.');\n\n        // Mark it claimed and send the token.\n        _setClaimed(index);\n        require(IERC721Merkle(token).createMerkleNFT(account), 'MerkleMint: Transfer failed.');\n\n        emit Claimed(index, account);\n    }\n}\n",
  "sourcePath": "/Users/tuminfei/Code/Nodejs/uniarts-eth-dao/contracts/core/MerkleMint.sol",
  "compiler": {
    "name": "solc",
    "version": "0.8.4+commit.c7e474f2.Emscripten.clang"
  },
  "schemaVersion": "3.4.3",
  "updatedAt": "2022-01-20T02:33:07.894Z",
  "devdoc": {
    "kind": "dev",
    "methods": {},
    "version": 1
  },
  "userdoc": {
    "kind": "user",
    "methods": {},
    "version": 1
  }
}