{
  "contractName": "MockNFT",
  "abi": [
    {
      "anonymous": false,
      "inputs": [
        {
          "indexed": true,
          "internalType": "address",
          "name": "owner",
          "type": "address"
        },
        {
          "indexed": true,
          "internalType": "address",
          "name": "approved",
          "type": "address"
        },
        {
          "indexed": true,
          "internalType": "uint256",
          "name": "tokenId",
          "type": "uint256"
        }
      ],
      "name": "Approval",
      "type": "event"
    },
    {
      "anonymous": false,
      "inputs": [
        {
          "indexed": true,
          "internalType": "address",
          "name": "owner",
          "type": "address"
        },
        {
          "indexed": true,
          "internalType": "address",
          "name": "operator",
          "type": "address"
        },
        {
          "indexed": false,
          "internalType": "bool",
          "name": "approved",
          "type": "bool"
        }
      ],
      "name": "ApprovalForAll",
      "type": "event"
    },
    {
      "anonymous": false,
      "inputs": [
        {
          "indexed": true,
          "internalType": "address",
          "name": "from",
          "type": "address"
        },
        {
          "indexed": true,
          "internalType": "address",
          "name": "to",
          "type": "address"
        },
        {
          "indexed": true,
          "internalType": "uint256",
          "name": "tokenId",
          "type": "uint256"
        }
      ],
      "name": "Transfer",
      "type": "event"
    },
    {
      "inputs": [
        {
          "internalType": "address",
          "name": "to",
          "type": "address"
        },
        {
          "internalType": "uint256",
          "name": "tokenId",
          "type": "uint256"
        }
      ],
      "name": "approve",
      "outputs": [],
      "stateMutability": "nonpayable",
      "type": "function"
    },
    {
      "inputs": [
        {
          "internalType": "address",
          "name": "owner",
          "type": "address"
        }
      ],
      "name": "balanceOf",
      "outputs": [
        {
          "internalType": "uint256",
          "name": "",
          "type": "uint256"
        }
      ],
      "stateMutability": "view",
      "type": "function"
    },
    {
      "inputs": [
        {
          "internalType": "uint256",
          "name": "tokenId",
          "type": "uint256"
        }
      ],
      "name": "getApproved",
      "outputs": [
        {
          "internalType": "address",
          "name": "",
          "type": "address"
        }
      ],
      "stateMutability": "view",
      "type": "function"
    },
    {
      "inputs": [
        {
          "internalType": "address",
          "name": "owner",
          "type": "address"
        },
        {
          "internalType": "address",
          "name": "operator",
          "type": "address"
        }
      ],
      "name": "isApprovedForAll",
      "outputs": [
        {
          "internalType": "bool",
          "name": "",
          "type": "bool"
        }
      ],
      "stateMutability": "view",
      "type": "function"
    },
    {
      "inputs": [],
      "name": "name",
      "outputs": [
        {
          "internalType": "string",
          "name": "",
          "type": "string"
        }
      ],
      "stateMutability": "view",
      "type": "function"
    },
    {
      "inputs": [
        {
          "internalType": "uint256",
          "name": "tokenId",
          "type": "uint256"
        }
      ],
      "name": "ownerOf",
      "outputs": [
        {
          "internalType": "address",
          "name": "",
          "type": "address"
        }
      ],
      "stateMutability": "view",
      "type": "function"
    },
    {
      "inputs": [
        {
          "internalType": "address",
          "name": "from",
          "type": "address"
        },
        {
          "internalType": "address",
          "name": "to",
          "type": "address"
        },
        {
          "internalType": "uint256",
          "name": "tokenId",
          "type": "uint256"
        }
      ],
      "name": "safeTransferFrom",
      "outputs": [],
      "stateMutability": "nonpayable",
      "type": "function"
    },
    {
      "inputs": [
        {
          "internalType": "address",
          "name": "from",
          "type": "address"
        },
        {
          "internalType": "address",
          "name": "to",
          "type": "address"
        },
        {
          "internalType": "uint256",
          "name": "tokenId",
          "type": "uint256"
        },
        {
          "internalType": "bytes",
          "name": "_data",
          "type": "bytes"
        }
      ],
      "name": "safeTransferFrom",
      "outputs": [],
      "stateMutability": "nonpayable",
      "type": "function"
    },
    {
      "inputs": [
        {
          "internalType": "address",
          "name": "operator",
          "type": "address"
        },
        {
          "internalType": "bool",
          "name": "approved",
          "type": "bool"
        }
      ],
      "name": "setApprovalForAll",
      "outputs": [],
      "stateMutability": "nonpayable",
      "type": "function"
    },
    {
      "inputs": [],
      "name": "symbol",
      "outputs": [
        {
          "internalType": "string",
          "name": "",
          "type": "string"
        }
      ],
      "stateMutability": "view",
      "type": "function"
    },
    {
      "inputs": [
        {
          "internalType": "uint256",
          "name": "index",
          "type": "uint256"
        }
      ],
      "name": "tokenByIndex",
      "outputs": [
        {
          "internalType": "uint256",
          "name": "",
          "type": "uint256"
        }
      ],
      "stateMutability": "view",
      "type": "function"
    },
    {
      "inputs": [
        {
          "internalType": "address",
          "name": "owner",
          "type": "address"
        },
        {
          "internalType": "uint256",
          "name": "index",
          "type": "uint256"
        }
      ],
      "name": "tokenOfOwnerByIndex",
      "outputs": [
        {
          "internalType": "uint256",
          "name": "",
          "type": "uint256"
        }
      ],
      "stateMutability": "view",
      "type": "function"
    },
    {
      "inputs": [
        {
          "internalType": "uint256",
          "name": "tokenId",
          "type": "uint256"
        }
      ],
      "name": "tokenURI",
      "outputs": [
        {
          "internalType": "string",
          "name": "",
          "type": "string"
        }
      ],
      "stateMutability": "view",
      "type": "function"
    },
    {
      "inputs": [],
      "name": "totalSupply",
      "outputs": [
        {
          "internalType": "uint256",
          "name": "",
          "type": "uint256"
        }
      ],
      "stateMutability": "view",
      "type": "function"
    },
    {
      "inputs": [
        {
          "internalType": "address",
          "name": "from",
          "type": "address"
        },
        {
          "internalType": "address",
          "name": "to",
          "type": "address"
        },
        {
          "internalType": "uint256",
          "name": "tokenId",
          "type": "uint256"
        }
      ],
      "name": "transferFrom",
      "outputs": [],
      "stateMutability": "nonpayable",
      "type": "function"
    },
    {
      "inputs": [
        {
          "internalType": "address",
          "name": "to",
          "type": "address"
        },
        {
          "internalType": "uint256",
          "name": "tokenId",
          "type": "uint256"
        }
      ],
      "name": "mint",
      "outputs": [],
      "stateMutability": "nonpayable",
      "type": "function"
    },
    {
      "inputs": [
        {
          "internalType": "bytes4",
          "name": "interfaceId",
          "type": "bytes4"
        }
      ],
      "name": "supportsInterface",
      "outputs": [
        {
          "internalType": "bool",
          "name": "",
          "type": "bool"
        }
      ],
      "stateMutability": "view",
      "type": "function"
    }
  ],
  "bytecode": "0x60806040523480156200001157600080fd5b50604080518082018252600881527f4d4f434b204e465400000000000000000000000000000000000000000000000060208083019182528351808501909452600784527f4d4f434b4e4654000000000000000000000000000000000000000000000000009084015281519192916200008c91600091620000ab565b508051620000a2906001906020840190620000ab565b505050620001a7565b828054620000b99062000151565b90600052602060002090601f016020900481019282620000dd576000855562000128565b82601f10620000f857805160ff191683800117855562000128565b8280016001018555821562000128579182015b82811115620001285782518255916020019190600101906200010b565b50620001369291506200013a565b5090565b5b808211156200013657600081556001016200013b565b6002810460018216806200016657607f821691505b60208210811415620001a1577f4e487b7100000000000000000000000000000000000000000000000000000000600052602260045260246000fd5b50919050565b611a5e80620001b76000396000f3fe608060405234801561001057600080fd5b5060043610610128576000357c01000000000000000000000000000000000000000000000000000000009004806342842e0e116100bf57806395d89b411161008e57806395d89b4114610241578063a22cb46514610249578063b88d4fde1461025c578063c87b56dd1461026f578063e985e9c51461028257600080fd5b806342842e0e146101f55780634f6ccce7146102085780636352211e1461021b57806370a082311461022e57600080fd5b806318160ddd116100fb57806318160ddd146101aa57806323b872dd146101bc5780632f745c59146101cf57806340c10f19146101e257600080fd5b806301ffc9a71461012d57806306fdde0314610155578063081812fc1461016a578063095ea7b314610195575b600080fd5b61014061013b366004611734565b6102be565b60405190151581526020015b60405180910390f35b61015d6102cf565b60405161014c919061181b565b61017d61017836600461176c565b610361565b604051600160a060020a03909116815260200161014c565b6101a86101a336600461170b565b61040f565b005b6008545b60405190815260200161014c565b6101a86101ca3660046115c1565b610547565b6101ae6101dd36600461170b565b61057b565b6101a86101f036600461170b565b610626565b6101a86102033660046115c1565b610634565b6101ae61021636600461176c565b61064f565b61017d61022936600461176c565b610707565b6101ae61023c366004611575565b610795565b61015d610832565b6101a86102573660046116d1565b610841565b6101a861026a3660046115fc565b610909565b61015d61027d36600461176c565b610944565b61014061029036600461158f565b600160a060020a03918216600090815260056020908152604080832093909416825291909152205460ff1690565b60006102c982610a3d565b92915050565b6060600080546102de90611957565b80601f016020809104026020016040519081016040528092919081815260200182805461030a90611957565b80156103575780601f1061032c57610100808354040283529160200191610357565b820191906000526020600020905b81548152906001019060200180831161033a57829003601f168201915b5050505050905090565b600081815260026020526040812054600160a060020a03166103f35760405160e560020a62461bcd02815260206004820152602c60248201527f4552433732313a20617070726f76656420717565727920666f72206e6f6e657860448201527f697374656e7420746f6b656e000000000000000000000000000000000000000060648201526084015b60405180910390fd5b50600090815260046020526040902054600160a060020a031690565b600061041a82610707565b905080600160a060020a031683600160a060020a031614156104a75760405160e560020a62461bcd02815260206004820152602160248201527f4552433732313a20617070726f76616c20746f2063757272656e74206f776e6560448201527f720000000000000000000000000000000000000000000000000000000000000060648201526084016103ea565b33600160a060020a03821614806104c357506104c38133610290565b6105385760405160e560020a62461bcd02815260206004820152603860248201527f4552433732313a20617070726f76652063616c6c6572206973206e6f74206f7760448201527f6e6572206e6f7220617070726f76656420666f7220616c6c000000000000000060648201526084016103ea565b6105428383610a7b565b505050565b6105513382610af6565b6105705760405160e560020a62461bcd0281526004016103ea9061188b565b610542838383610c01565b600061058683610795565b82106105fd5760405160e560020a62461bcd02815260206004820152602b60248201527f455243373231456e756d657261626c653a206f776e657220696e646578206f7560448201527f74206f6620626f756e647300000000000000000000000000000000000000000060648201526084016103ea565b50600160a060020a03919091166000908152600660209081526040808320938352929052205490565b6106308282610dec565b5050565b61054283838360405180602001604052806000815250610909565b600061065a60085490565b82106106d15760405160e560020a62461bcd02815260206004820152602c60248201527f455243373231456e756d657261626c653a20676c6f62616c20696e646578206f60448201527f7574206f6620626f756e6473000000000000000000000000000000000000000060648201526084016103ea565b600882815481106106f55760e060020a634e487b7102600052603260045260246000fd5b90600052602060002001549050919050565b600081815260026020526040812054600160a060020a0316806102c95760405160e560020a62461bcd02815260206004820152602960248201527f4552433732313a206f776e657220717565727920666f72206e6f6e657869737460448201527f656e7420746f6b656e000000000000000000000000000000000000000000000060648201526084016103ea565b6000600160a060020a0382166108165760405160e560020a62461bcd02815260206004820152602a60248201527f4552433732313a2062616c616e636520717565727920666f7220746865207a6560448201527f726f20616464726573730000000000000000000000000000000000000000000060648201526084016103ea565b50600160a060020a031660009081526003602052604090205490565b6060600180546102de90611957565b600160a060020a03821633141561089d5760405160e560020a62461bcd02815260206004820152601960248201527f4552433732313a20617070726f766520746f2063616c6c65720000000000000060448201526064016103ea565b336000818152600560209081526040808320600160a060020a03871680855290835292819020805460ff191686151590811790915590519081529192917f17307eab39ab6107e8899845ad3d59bd9653f200f220920489ca2b5937696c31910160405180910390a35050565b6109133383610af6565b6109325760405160e560020a62461bcd0281526004016103ea9061188b565b61093e84848484610f4d565b50505050565b600081815260026020526040902054606090600160a060020a03166109d45760405160e560020a62461bcd02815260206004820152602f60248201527f4552433732314d657461646174613a2055524920717565727920666f72206e6f60448201527f6e6578697374656e7420746f6b656e000000000000000000000000000000000060648201526084016103ea565b60006109eb60408051602081019091526000815290565b90506000815111610a0b5760405180602001604052806000815250610a36565b80610a1584610f83565b604051602001610a269291906117b0565b6040516020818303038152906040525b9392505050565b6000600160e060020a031982167f780e9d630000000000000000000000000000000000000000000000000000000014806102c957506102c9826110f6565b6000818152600460205260409020805473ffffffffffffffffffffffffffffffffffffffff1916600160a060020a0384169081179091558190610abd82610707565b600160a060020a03167f8c5be1e5ebec7d5bd14f71427d1e84f3dd0314c0f7b2291e5b200ac8c7c3b92560405160405180910390a45050565b600081815260026020526040812054600160a060020a0316610b835760405160e560020a62461bcd02815260206004820152602c60248201527f4552433732313a206f70657261746f7220717565727920666f72206e6f6e657860448201527f697374656e7420746f6b656e000000000000000000000000000000000000000060648201526084016103ea565b6000610b8e83610707565b905080600160a060020a031684600160a060020a03161480610bc9575083600160a060020a0316610bbe84610361565b600160a060020a0316145b80610bf95750600160a060020a0380821660009081526005602090815260408083209388168352929052205460ff165b949350505050565b82600160a060020a0316610c1482610707565b600160a060020a031614610c935760405160e560020a62461bcd02815260206004820152602960248201527f4552433732313a207472616e73666572206f6620746f6b656e2074686174206960448201527f73206e6f74206f776e000000000000000000000000000000000000000000000060648201526084016103ea565b600160a060020a038216610d115760405160e560020a62461bcd028152602060048201526024808201527f4552433732313a207472616e7366657220746f20746865207a65726f2061646460448201527f726573730000000000000000000000000000000000000000000000000000000060648201526084016103ea565b610d1c838383611191565b610d27600082610a7b565b600160a060020a0383166000908152600360205260408120805460019290610d50908490611914565b9091555050600160a060020a0382166000908152600360205260408120805460019290610d7e9084906118e8565b9091555050600081815260026020526040808220805473ffffffffffffffffffffffffffffffffffffffff1916600160a060020a0386811691821790925591518493918716917fddf252ad1be2c89b69c2b068fc378daa952ba7f163c4a11628f55a4df523b3ef91a4505050565b600160a060020a038216610e455760405160e560020a62461bcd02815260206004820181905260248201527f4552433732313a206d696e7420746f20746865207a65726f206164647265737360448201526064016103ea565b600081815260026020526040902054600160a060020a031615610ead5760405160e560020a62461bcd02815260206004820152601c60248201527f4552433732313a20746f6b656e20616c7265616479206d696e7465640000000060448201526064016103ea565b610eb960008383611191565b600160a060020a0382166000908152600360205260408120805460019290610ee29084906118e8565b9091555050600081815260026020526040808220805473ffffffffffffffffffffffffffffffffffffffff1916600160a060020a03861690811790915590518392907fddf252ad1be2c89b69c2b068fc378daa952ba7f163c4a11628f55a4df523b3ef908290a45050565b610f58848484610c01565b610f648484848461119c565b61093e5760405160e560020a62461bcd0281526004016103ea9061182e565b606081610fc357505060408051808201909152600181527f3000000000000000000000000000000000000000000000000000000000000000602082015290565b8160005b8115610fed5780610fd781611995565b9150610fe69050600a83611900565b9150610fc7565b60008167ffffffffffffffff8111156110195760e060020a634e487b7102600052604160045260246000fd5b6040519080825280601f01601f191660200182016040528015611043576020820181803683370190505b5090505b8415610bf957611058600183611914565b9150611065600a866119b0565b6110709060306118e8565b7f0100000000000000000000000000000000000000000000000000000000000000028183815181106110b55760e060020a634e487b7102600052603260045260246000fd5b60200101907effffffffffffffffffffffffffffffffffffffffffffffffffffffffffffff1916908160001a9053506110ef600a86611900565b9450611047565b6000600160e060020a031982167f80ac58cd0000000000000000000000000000000000000000000000000000000014806111595750600160e060020a031982167f5b5e139f00000000000000000000000000000000000000000000000000000000145b806102c957507f01ffc9a700000000000000000000000000000000000000000000000000000000600160e060020a03198316146102c9565b6105428383836112de565b6000600160a060020a0384163b156112d3576040517f150b7a02000000000000000000000000000000000000000000000000000000008152600160a060020a0385169063150b7a02906111f99033908990889088906004016117df565b602060405180830381600087803b15801561121357600080fd5b505af1925050508015611243575060408051601f3d908101601f1916820190925261124091810190611750565b60015b6112a0573d808015611271576040519150601f19603f3d011682016040523d82523d6000602084013e611276565b606091505b5080516112985760405160e560020a62461bcd0281526004016103ea9061182e565b805181602001fd5b600160e060020a0319167f150b7a0200000000000000000000000000000000000000000000000000000000149050610bf9565b506001949350505050565b600160a060020a0383166113395761133481600880546000838152600960205260408120829055600182018355919091527ff3f7a9fe364faab93b216da50a3214154f22a0a2b415b23a84c8169e8b636ee30155565b61135c565b81600160a060020a031683600160a060020a03161461135c5761135c8382611396565b600160a060020a0382166113735761054281611433565b82600160a060020a031682600160a060020a031614610542576105428282611515565b600060016113a384610795565b6113ad9190611914565b60008381526007602052604090205490915080821461140057600160a060020a03841660009081526006602090815260408083208584528252808320548484528184208190558352600790915290208190555b506000918252600760209081526040808420849055600160a060020a039094168352600681528383209183525290812055565b60085460009061144590600190611914565b6000838152600960205260408120546008805493945090928490811061147e5760e060020a634e487b7102600052603260045260246000fd5b9060005260206000200154905080600883815481106114b05760e060020a634e487b7102600052603260045260246000fd5b60009182526020808320909101929092558281526009909152604080822084905585825281205560088054806114f95760e060020a634e487b7102600052603160045260246000fd5b6001900381819060005260206000200160009055905550505050565b600061152083610795565b600160a060020a039093166000908152600660209081526040808320868452825280832085905593825260079052919091209190915550565b8035600160a060020a038116811461157057600080fd5b919050565b600060208284031215611586578081fd5b610a3682611559565b600080604083850312156115a1578081fd5b6115aa83611559565b91506115b860208401611559565b90509250929050565b6000806000606084860312156115d5578081fd5b6115de84611559565b92506115ec60208501611559565b9150604084013590509250925092565b60008060008060808587031215611611578081fd5b61161a85611559565b935061162860208601611559565b925060408501359150606085013567ffffffffffffffff8082111561164b578283fd5b818701915087601f83011261165e578283fd5b813581811115611670576116706119f6565b604051601f8201601f19908116603f01168101908382118183101715611698576116986119f6565b816040528281528a60208487010111156116b0578586fd5b82602086016020830137918201602001949094529598949750929550505050565b600080604083850312156116e3578182fd5b6116ec83611559565b915060208301358015158114611700578182fd5b809150509250929050565b6000806040838503121561171d578182fd5b61172683611559565b946020939093013593505050565b600060208284031215611745578081fd5b8135610a3681611a0f565b600060208284031215611761578081fd5b8151610a3681611a0f565b60006020828403121561177d578081fd5b5035919050565b6000815180845261179c81602086016020860161192b565b601f01601f19169290920160200192915050565b600083516117c281846020880161192b565b8351908301906117d681836020880161192b565b01949350505050565b6000600160a060020a038087168352808616602084015250836040830152608060608301526118116080830184611784565b9695505050505050565b602081526000610a366020830184611784565b60208082526032908201527f4552433732313a207472616e7366657220746f206e6f6e20455243373231526560408201527f63656976657220696d706c656d656e7465720000000000000000000000000000606082015260800190565b60208082526031908201527f4552433732313a207472616e736665722063616c6c6572206973206e6f74206f60408201527f776e6572206e6f7220617070726f766564000000000000000000000000000000606082015260800190565b600082198211156118fb576118fb6119c4565b500190565b60008261190f5761190f6119dd565b500490565b600082821015611926576119266119c4565b500390565b60005b8381101561194657818101518382015260200161192e565b8381111561093e5750506000910152565b60028104600182168061196b57607f821691505b6020821081141561198f5760e060020a634e487b7102600052602260045260246000fd5b50919050565b60006000198214156119a9576119a96119c4565b5060010190565b6000826119bf576119bf6119dd565b500690565b60e060020a634e487b7102600052601160045260246000fd5b60e060020a634e487b7102600052601260045260246000fd5b60e060020a634e487b7102600052604160045260246000fd5b600160e060020a031981168114611a2557600080fd5b5056fea264697066735822122046022fdce2c9bc6f44af349d1f6b531710881e10a06ae0180cd35c8a90541bda64736f6c63430008040033",
  "immutableReferences": {},
  "source": "// SPDX-License-Identifier: MIT\npragma solidity ^0.8.0;\n\nimport \"@openzeppelin/contracts/access/AccessControl.sol\";\nimport \"@openzeppelin/contracts/token/ERC721/ERC721.sol\";\nimport \"@openzeppelin/contracts/token/ERC721/extensions/ERC721Enumerable.sol\";\n\ncontract MockNFT is ERC721(\"MOCK NFT\", \"MOCKNFT\"), ERC721Enumerable { \n\tfunction mint(address to, uint tokenId) external {\n\t \t_mint(to, tokenId);\n\t}\n\n\tfunction _beforeTokenTransfer(\n      address from,\n      address to,\n      uint256 tokenId\n  ) internal virtual override(ERC721, ERC721Enumerable) {\n    super._beforeTokenTransfer(from, to, tokenId);\n  }\n\n  function supportsInterface(bytes4 interfaceId)\n      public\n      view\n      override(ERC721, ERC721Enumerable)\n      returns (bool)\n  {\n      return super.supportsInterface(interfaceId);\n  }\n}",
  "sourcePath": "/Users/yxf/app/uniarts-eth-dao/contracts/ERC721/MockNFT.sol",
  "compiler": {
    "name": "solc",
    "version": "0.8.4+commit.c7e474f2.Emscripten.clang"
  },
  "schemaVersion": "3.2.3",
  "updatedAt": "2021-11-01T14:58:08.617Z",
  "devdoc": {
    "kind": "dev",
    "methods": {
      "approve(address,uint256)": {
        "details": "See {IERC721-approve}."
      },
      "balanceOf(address)": {
        "details": "See {IERC721-balanceOf}."
      },
      "getApproved(uint256)": {
        "details": "See {IERC721-getApproved}."
      },
      "isApprovedForAll(address,address)": {
        "details": "See {IERC721-isApprovedForAll}."
      },
      "name()": {
        "details": "See {IERC721Metadata-name}."
      },
      "ownerOf(uint256)": {
        "details": "See {IERC721-ownerOf}."
      },
      "safeTransferFrom(address,address,uint256)": {
        "details": "See {IERC721-safeTransferFrom}."
      },
      "safeTransferFrom(address,address,uint256,bytes)": {
        "details": "See {IERC721-safeTransferFrom}."
      },
      "setApprovalForAll(address,bool)": {
        "details": "See {IERC721-setApprovalForAll}."
      },
      "symbol()": {
        "details": "See {IERC721Metadata-symbol}."
      },
      "tokenByIndex(uint256)": {
        "details": "See {IERC721Enumerable-tokenByIndex}."
      },
      "tokenOfOwnerByIndex(address,uint256)": {
        "details": "See {IERC721Enumerable-tokenOfOwnerByIndex}."
      },
      "tokenURI(uint256)": {
        "details": "See {IERC721Metadata-tokenURI}."
      },
      "totalSupply()": {
        "details": "See {IERC721Enumerable-totalSupply}."
      },
      "transferFrom(address,address,uint256)": {
        "details": "See {IERC721-transferFrom}."
      }
    },
    "version": 1
  },
  "userdoc": {
    "kind": "user",
    "methods": {},
    "version": 1
  }
}