{
  "contractName": "MultiTokenTrustMarketplace",
  "abi": [
    {
      "inputs": [
        {
          "internalType": "address",
          "name": "_acceptedToken",
          "type": "address"
        }
      ],
      "stateMutability": "nonpayable",
      "type": "constructor"
    },
    {
      "anonymous": false,
      "inputs": [
        {
          "indexed": false,
          "internalType": "bytes32",
          "name": "id",
          "type": "bytes32"
        }
      ],
      "name": "BidAccepted",
      "type": "event"
    },
    {
      "anonymous": false,
      "inputs": [
        {
          "indexed": false,
          "internalType": "bytes32",
          "name": "id",
          "type": "bytes32"
        }
      ],
      "name": "BidCancelled",
      "type": "event"
    },
    {
      "anonymous": false,
      "inputs": [
        {
          "indexed": false,
          "internalType": "bytes32",
          "name": "id",
          "type": "bytes32"
        },
        {
          "indexed": true,
          "internalType": "address",
          "name": "nftAddress",
          "type": "address"
        },
        {
          "indexed": true,
          "internalType": "uint256",
          "name": "assetId",
          "type": "uint256"
        },
        {
          "indexed": false,
          "internalType": "uint256",
          "name": "assetAmount",
          "type": "uint256"
        },
        {
          "indexed": true,
          "internalType": "address",
          "name": "bidder",
          "type": "address"
        },
        {
          "indexed": false,
          "internalType": "uint256",
          "name": "priceInWei",
          "type": "uint256"
        },
        {
          "indexed": false,
          "internalType": "uint256",
          "name": "expiresAt",
          "type": "uint256"
        }
      ],
      "name": "BidCreated",
      "type": "event"
    },
    {
      "anonymous": false,
      "inputs": [
        {
          "indexed": false,
          "internalType": "uint256",
          "name": "cutPerMillion",
          "type": "uint256"
        }
      ],
      "name": "ChangedFeePerMillion",
      "type": "event"
    },
    {
      "anonymous": false,
      "inputs": [
        {
          "indexed": false,
          "internalType": "bytes32",
          "name": "id",
          "type": "bytes32"
        }
      ],
      "name": "OrderCancelled",
      "type": "event"
    },
    {
      "anonymous": false,
      "inputs": [
        {
          "indexed": false,
          "internalType": "bytes32",
          "name": "id",
          "type": "bytes32"
        },
        {
          "indexed": true,
          "internalType": "address",
          "name": "seller",
          "type": "address"
        },
        {
          "indexed": true,
          "internalType": "address",
          "name": "nftAddress",
          "type": "address"
        },
        {
          "indexed": true,
          "internalType": "uint256",
          "name": "assetId",
          "type": "uint256"
        },
        {
          "indexed": false,
          "internalType": "uint256",
          "name": "assetAmount",
          "type": "uint256"
        },
        {
          "indexed": false,
          "internalType": "uint256",
          "name": "priceInWei",
          "type": "uint256"
        },
        {
          "indexed": false,
          "internalType": "uint256",
          "name": "expiresAt",
          "type": "uint256"
        }
      ],
      "name": "OrderCreated",
      "type": "event"
    },
    {
      "anonymous": false,
      "inputs": [
        {
          "indexed": false,
          "internalType": "bytes32",
          "name": "id",
          "type": "bytes32"
        },
        {
          "indexed": true,
          "internalType": "address",
          "name": "buyer",
          "type": "address"
        },
        {
          "indexed": false,
          "internalType": "uint256",
          "name": "priceInWei",
          "type": "uint256"
        }
      ],
      "name": "OrderSuccessful",
      "type": "event"
    },
    {
      "anonymous": false,
      "inputs": [
        {
          "indexed": false,
          "internalType": "bytes32",
          "name": "id",
          "type": "bytes32"
        },
        {
          "indexed": false,
          "internalType": "uint256",
          "name": "priceInWei",
          "type": "uint256"
        },
        {
          "indexed": false,
          "internalType": "uint256",
          "name": "expiresAt",
          "type": "uint256"
        }
      ],
      "name": "OrderUpdated",
      "type": "event"
    },
    {
      "anonymous": false,
      "inputs": [
        {
          "indexed": true,
          "internalType": "address",
          "name": "previousOwner",
          "type": "address"
        },
        {
          "indexed": true,
          "internalType": "address",
          "name": "newOwner",
          "type": "address"
        }
      ],
      "name": "OwnershipTransferred",
      "type": "event"
    },
    {
      "anonymous": false,
      "inputs": [
        {
          "indexed": false,
          "internalType": "address",
          "name": "account",
          "type": "address"
        }
      ],
      "name": "Paused",
      "type": "event"
    },
    {
      "anonymous": false,
      "inputs": [
        {
          "indexed": false,
          "internalType": "address",
          "name": "account",
          "type": "address"
        }
      ],
      "name": "Unpaused",
      "type": "event"
    },
    {
      "inputs": [],
      "name": "_INTERFACE_ID_ERC1155",
      "outputs": [
        {
          "internalType": "bytes4",
          "name": "",
          "type": "bytes4"
        }
      ],
      "stateMutability": "view",
      "type": "function"
    },
    {
      "inputs": [],
      "name": "acceptedToken",
      "outputs": [
        {
          "internalType": "contract IERC20",
          "name": "",
          "type": "address"
        }
      ],
      "stateMutability": "view",
      "type": "function"
    },
    {
      "inputs": [
        {
          "internalType": "address",
          "name": "",
          "type": "address"
        },
        {
          "internalType": "bytes32",
          "name": "",
          "type": "bytes32"
        }
      ],
      "name": "bidByOrderId",
      "outputs": [
        {
          "internalType": "bytes32",
          "name": "id",
          "type": "bytes32"
        },
        {
          "internalType": "address",
          "name": "bidder",
          "type": "address"
        },
        {
          "internalType": "uint256",
          "name": "price",
          "type": "uint256"
        },
        {
          "internalType": "uint256",
          "name": "expiresAt",
          "type": "uint256"
        }
      ],
      "stateMutability": "view",
      "type": "function"
    },
    {
      "inputs": [],
      "name": "cutPerMillion",
      "outputs": [
        {
          "internalType": "uint256",
          "name": "",
          "type": "uint256"
        }
      ],
      "stateMutability": "view",
      "type": "function"
    },
    {
      "inputs": [],
      "name": "maxCutPerMillion",
      "outputs": [
        {
          "internalType": "uint256",
          "name": "",
          "type": "uint256"
        }
      ],
      "stateMutability": "view",
      "type": "function"
    },
    {
      "inputs": [
        {
          "internalType": "address",
          "name": "",
          "type": "address"
        },
        {
          "internalType": "address",
          "name": "",
          "type": "address"
        },
        {
          "internalType": "uint256[]",
          "name": "",
          "type": "uint256[]"
        },
        {
          "internalType": "uint256[]",
          "name": "",
          "type": "uint256[]"
        },
        {
          "internalType": "bytes",
          "name": "",
          "type": "bytes"
        }
      ],
      "name": "onERC1155BatchReceived",
      "outputs": [
        {
          "internalType": "bytes4",
          "name": "",
          "type": "bytes4"
        }
      ],
      "stateMutability": "nonpayable",
      "type": "function"
    },
    {
      "inputs": [
        {
          "internalType": "address",
          "name": "",
          "type": "address"
        },
        {
          "internalType": "address",
          "name": "",
          "type": "address"
        },
        {
          "internalType": "uint256",
          "name": "",
          "type": "uint256"
        },
        {
          "internalType": "uint256",
          "name": "",
          "type": "uint256"
        },
        {
          "internalType": "bytes",
          "name": "",
          "type": "bytes"
        }
      ],
      "name": "onERC1155Received",
      "outputs": [
        {
          "internalType": "bytes4",
          "name": "",
          "type": "bytes4"
        }
      ],
      "stateMutability": "nonpayable",
      "type": "function"
    },
    {
      "inputs": [
        {
          "internalType": "address",
          "name": "",
          "type": "address"
        },
        {
          "internalType": "bytes32",
          "name": "",
          "type": "bytes32"
        }
      ],
      "name": "orderByOrderId",
      "outputs": [
        {
          "internalType": "bytes32",
          "name": "id",
          "type": "bytes32"
        },
        {
          "internalType": "address",
          "name": "seller",
          "type": "address"
        },
        {
          "internalType": "address",
          "name": "nftAddress",
          "type": "address"
        },
        {
          "internalType": "uint256",
          "name": "assetId",
          "type": "uint256"
        },
        {
          "internalType": "uint256",
          "name": "assetAmount",
          "type": "uint256"
        },
        {
          "internalType": "uint256",
          "name": "price",
          "type": "uint256"
        },
        {
          "internalType": "uint256",
          "name": "expiresAt",
          "type": "uint256"
        }
      ],
      "stateMutability": "view",
      "type": "function"
    },
    {
      "inputs": [
        {
          "internalType": "uint256",
          "name": "",
          "type": "uint256"
        }
      ],
      "name": "orderIds",
      "outputs": [
        {
          "internalType": "bytes32",
          "name": "",
          "type": "bytes32"
        }
      ],
      "stateMutability": "view",
      "type": "function"
    },
    {
      "inputs": [],
      "name": "owner",
      "outputs": [
        {
          "internalType": "address",
          "name": "",
          "type": "address"
        }
      ],
      "stateMutability": "view",
      "type": "function"
    },
    {
      "inputs": [],
      "name": "paused",
      "outputs": [
        {
          "internalType": "bool",
          "name": "",
          "type": "bool"
        }
      ],
      "stateMutability": "view",
      "type": "function"
    },
    {
      "inputs": [],
      "name": "renounceOwnership",
      "outputs": [],
      "stateMutability": "nonpayable",
      "type": "function"
    },
    {
      "inputs": [
        {
          "internalType": "uint256",
          "name": "_cutPerMillion",
          "type": "uint256"
        }
      ],
      "name": "setOwnerCutPerMillion",
      "outputs": [],
      "stateMutability": "nonpayable",
      "type": "function"
    },
    {
      "inputs": [
        {
          "internalType": "bytes4",
          "name": "interfaceId",
          "type": "bytes4"
        }
      ],
      "name": "supportsInterface",
      "outputs": [
        {
          "internalType": "bool",
          "name": "",
          "type": "bool"
        }
      ],
      "stateMutability": "view",
      "type": "function"
    },
    {
      "inputs": [
        {
          "internalType": "address",
          "name": "newOwner",
          "type": "address"
        }
      ],
      "name": "transferOwnership",
      "outputs": [],
      "stateMutability": "nonpayable",
      "type": "function"
    },
    {
      "inputs": [
        {
          "internalType": "bool",
          "name": "_setPaused",
          "type": "bool"
        }
      ],
      "name": "setPaused",
      "outputs": [],
      "stateMutability": "nonpayable",
      "type": "function"
    },
    {
      "inputs": [
        {
          "internalType": "address",
          "name": "_nftAddress",
          "type": "address"
        },
        {
          "internalType": "uint256",
          "name": "_assetId",
          "type": "uint256"
        },
        {
          "internalType": "uint256",
          "name": "_assetAmount",
          "type": "uint256"
        },
        {
          "internalType": "uint256",
          "name": "_priceInWei",
          "type": "uint256"
        },
        {
          "internalType": "uint256",
          "name": "_expiresAt",
          "type": "uint256"
        }
      ],
      "name": "createOrder",
      "outputs": [],
      "stateMutability": "nonpayable",
      "type": "function"
    },
    {
      "inputs": [
        {
          "internalType": "address",
          "name": "_nftAddress",
          "type": "address"
        },
        {
          "internalType": "bytes32",
          "name": "_orderId",
          "type": "bytes32"
        }
      ],
      "name": "cancelOrder",
      "outputs": [],
      "stateMutability": "nonpayable",
      "type": "function"
    },
    {
      "inputs": [
        {
          "internalType": "address",
          "name": "_nftAddress",
          "type": "address"
        },
        {
          "internalType": "bytes32",
          "name": "_orderId",
          "type": "bytes32"
        },
        {
          "internalType": "uint256",
          "name": "_priceInWei",
          "type": "uint256"
        },
        {
          "internalType": "uint256",
          "name": "_expiresAt",
          "type": "uint256"
        }
      ],
      "name": "updateOrder",
      "outputs": [],
      "stateMutability": "nonpayable",
      "type": "function"
    },
    {
      "inputs": [
        {
          "internalType": "address",
          "name": "_nftAddress",
          "type": "address"
        },
        {
          "internalType": "bytes32",
          "name": "_orderId",
          "type": "bytes32"
        },
        {
          "internalType": "uint256",
          "name": "_priceInWei",
          "type": "uint256"
        }
      ],
      "name": "safeExecuteOrder",
      "outputs": [],
      "stateMutability": "nonpayable",
      "type": "function"
    },
    {
      "inputs": [
        {
          "internalType": "bytes32",
          "name": "_orderId",
          "type": "bytes32"
        },
        {
          "internalType": "address",
          "name": "_nftAddress",
          "type": "address"
        },
        {
          "internalType": "uint256",
          "name": "_assetId",
          "type": "uint256"
        },
        {
          "internalType": "uint256",
          "name": "_assetAmount",
          "type": "uint256"
        },
        {
          "internalType": "uint256",
          "name": "_priceInWei",
          "type": "uint256"
        },
        {
          "internalType": "uint256",
          "name": "_expiresAt",
          "type": "uint256"
        }
      ],
      "name": "createBid",
      "outputs": [],
      "stateMutability": "nonpayable",
      "type": "function"
    },
    {
      "inputs": [
        {
          "internalType": "bytes32",
          "name": "_orderId",
          "type": "bytes32"
        },
        {
          "internalType": "address",
          "name": "_nftAddress",
          "type": "address"
        },
        {
          "internalType": "uint256",
          "name": "_assetId",
          "type": "uint256"
        },
        {
          "internalType": "uint256",
          "name": "_assetAmount",
          "type": "uint256"
        },
        {
          "internalType": "uint256",
          "name": "_priceInWei",
          "type": "uint256"
        },
        {
          "internalType": "uint256",
          "name": "_expiresAt",
          "type": "uint256"
        }
      ],
      "name": "safePlaceBid",
      "outputs": [],
      "stateMutability": "nonpayable",
      "type": "function"
    },
    {
      "inputs": [
        {
          "internalType": "address",
          "name": "_nftAddress",
          "type": "address"
        },
        {
          "internalType": "bytes32",
          "name": "_orderId",
          "type": "bytes32"
        }
      ],
      "name": "cancelBid",
      "outputs": [],
      "stateMutability": "nonpayable",
      "type": "function"
    },
    {
      "inputs": [
        {
          "internalType": "address",
          "name": "_nftAddress",
          "type": "address"
        },
        {
          "internalType": "bytes32",
          "name": "_orderId",
          "type": "bytes32"
        },
        {
          "internalType": "uint256",
          "name": "_priceInWei",
          "type": "uint256"
        }
      ],
      "name": "acceptBid",
      "outputs": [],
      "stateMutability": "nonpayable",
      "type": "function"
    }
  ],
  "bytecode": "0x608060405260006003553480156200001657600080fd5b50604051620030aa380380620030aa8339810160408190526200003991620001a7565b6200005f620000506401000000006200014d810204565b64010000000062000151810204565b6000805460a060020a60ff0219169055600160025562000096600160a060020a03821664010000000062001498620001a182021704565b62000127576040517f08c379a000000000000000000000000000000000000000000000000000000000815260206004820152603660248201527f54686520616363657074656420746f6b656e2061646472657373206d7573742060448201527f62652061206465706c6f79656420636f6e747261637400000000000000000000606482015260840160405180910390fd5b60048054600160a060020a031916600160a060020a0392909216919091179055620001d7565b3390565b60008054600160a060020a03838116600160a060020a0319831681178455604051919092169283917f8be0079c531659141344cd1fd0a4f28419497f9722a3daafe3b4186f6b6457e09190a35050565b3b151590565b600060208284031215620001b9578081fd5b8151600160a060020a0381168114620001d0578182fd5b9392505050565b612ec380620001e76000396000f3fe608060405234801561001057600080fd5b5060043610610174576000357c0100000000000000000000000000000000000000000000000000000000900480636952e4ef116100e0578063c0dfe72b11610099578063c0dfe72b146103d4578063c555e05014610446578063cd115e2114610450578063f23a6e6114610463578063f2fde38b1461049b578063f5d5defb146104ae57600080fd5b80636952e4ef1461034a5780636d36e5251461035d578063715018a61461037057806384b2167c146103785780638da5cb5b1461038b578063bc197c811461039c57600080fd5b80632372208411610132578063237220841461022f5780632525f5c114610250578063451c3d801461026357806347d1c4c41461028e5780635c975abb1461032f578063673c85531461034157600080fd5b8062c001381461017957806301ffc9a71461018e57806316c38b3c146101b657806319dad16d146101c95780631ff480e7146101dc578063233831cd146101ef575b600080fd5b61018c6101873660046129f9565b6104c1565b005b6101a161019c366004612b29565b6106df565b60405190151581526020015b60405180910390f35b61018c6101c4366004612aa4565b610748565b61018c6101d7366004612b51565b61078d565b61018c6101ea3660046129f9565b610870565b6102167fd9b67a260000000000000000000000000000000000000000000000000000000081565b604051600160e060020a031990911681526020016101ad565b61024261023d366004612b51565b610af9565b6040519081526020016101ad565b61018c61025e3660046129d0565b610b1a565b60045461027690600160a060020a031681565b604051600160a060020a0390911681526020016101ad565b6102ee61029c3660046129d0565b6005602081815260009384526040808520909152918352912080546001820154600283015460038401546004850154958501546006909501549395600160a060020a0393841695939092169390929087565b60408051978852600160a060020a03968716602089015294909516938601939093526060850191909152608084015260a083015260c082015260e0016101ad565b60005460a060020a900460ff166101a1565b61024260015481565b61018c610358366004612adc565b610c4f565b61018c61036b366004612a2b565b610cb3565b61018c610fac565b61018c6103863660046129d0565b610fe5565b600054600160a060020a0316610276565b6102166103aa3660046128c7565b7fbc197c810000000000000000000000000000000000000000000000000000000095945050505050565b61041e6103e23660046129d0565b600660209081526000928352604080842090915290825290208054600182015460028301546003909301549192600160a060020a039091169184565b60408051948552600160a060020a0390931660208501529183015260608201526080016101ad565b61024262030d4081565b61018c61045e366004612a63565b611157565b61021661047136600461296d565b7ff23a6e610000000000000000000000000000000000000000000000000000000095945050505050565b61018c6104a93660046128ad565b6111c6565b61018c6104bc366004612adc565b61127b565b6002805414156104ef5760405160e560020a62461bcd0281526004016104e690612d06565b60405180910390fd5b6002805560005460a060020a900460ff16156105205760405160e560020a62461bcd0281526004016104e690612c65565b600061052c848461149e565b9050818160a00151146105845760405160e560020a62461bcd02815260206004820152601a60248201527f4d61726b6574706c6163653a20696e76616c696420707269636500000000000060448201526064016104e6565b6020810151600160a060020a03163314156105b45760405160e560020a62461bcd0281526004016104e690612c9c565b6001546000901561060d576105e1620f42406105db600154866115f590919063ffffffff16565b90611608565b905061060d336105f9600054600160a060020a031690565b600454600160a060020a0316919084611614565b61064133836020015161062d848660a001516116ad90919063ffffffff16565b600454600160a060020a0316929190611614565b600160a060020a03808616600090815260066020908152604080832088845282529182902082516080810184528154808252600183015490951692810192909252600281015492820192909252600390910154606082015290156106b8576106b881600001518787846020015185604001516116b9565b6106d2836000015133888660600151876080015189611754565b5050600160025550505050565b6000600160e060020a031982167f4e2312e000000000000000000000000000000000000000000000000000000000148061074257507f01ffc9a700000000000000000000000000000000000000000000000000000000600160e060020a03198316145b92915050565b600054600160a060020a031633146107755760405160e560020a62461bcd0281526004016104e690612cd1565b806107855761078261187f565b50565b610782611939565b600054600160a060020a031633146107ba5760405160e560020a62461bcd0281526004016104e690612cd1565b62030d4081106108355760405160e560020a62461bcd02815260206004820152603660248201527f546865206f776e6572206375742073686f756c64206265206265747765656e2060448201527f3020616e64206d61784375745065724d696c6c696f6e0000000000000000000060648201526084016104e6565b60018190556040518181527fdb629698afb23c88e17ec4d29f97b3907c3e1fbfd116fa15f97569c7c16b3e4d9060200160405180910390a150565b6002805414156108955760405160e560020a62461bcd0281526004016104e690612d06565b6002805560005460a060020a900460ff16156108c65760405160e560020a62461bcd0281526004016104e690612c65565b60006108d2848461149e565b6020810151909150600160a060020a031633146109045760405160e560020a62461bcd0281526004016104e690612c9c565b600160a060020a038085166000908152600660209081526040808320878452825291829020825160808101845281548152600182015490941691840191909152600281015491830182905260030154606083015283146109a95760405160e560020a62461bcd02815260206004820152601e60248201527f4d61726b6574706c6163653a20696e76616c696420626964207072696365000060448201526064016104e6565b4281606001511015610a005760405160e560020a62461bcd02815260206004820152601c60248201527f4d61726b6574706c6163653a207468652062696420657870697265640000000060448201526064016104e6565b600160a060020a0385166000908152600660209081526040808320878452825280832083815560018101805473ffffffffffffffffffffffffffffffffffffffff191690556002810184905560030192909255825191519182527ff8c7d5572fa269efc040934ae7553d57f8906bffd616254bef0b94e2b569e416910160405180910390a16000610aa7620f42406105db60015485604001516115f590919063ffffffff16565b9050610adb8360200151610ac88385604001516116ad90919063ffffffff16565b600454600160a060020a031691906119b2565b6106d283600001518360200151888660600151876080015189611754565b60078181548110610b0957600080fd5b600091825260209091200154905081565b600280541415610b3f5760405160e560020a62461bcd0281526004016104e690612d06565b6002805560005460a060020a900460ff1615610b705760405160e560020a62461bcd0281526004016104e690612c65565b600160a060020a03808316600090815260066020908152604080832085845282529182902082516080810184528154815260018201549094169184018290526002810154928401929092526003909101546060830152331480610bdd5750600054600160a060020a031633145b610c2c5760405160e560020a62461bcd02815260206004820181905260248201527f4d61726b6574706c6163653a20556e617574686f72697a65642073656e64657260448201526064016104e6565b610c4581600001518484846020015185604001516116b9565b5050600160025550565b600280541415610c745760405160e560020a62461bcd0281526004016104e690612d06565b6002805560005460a060020a900460ff1615610ca55760405160e560020a62461bcd0281526004016104e690612c65565b6106d2868686868686611a00565b600280541415610cd85760405160e560020a62461bcd0281526004016104e690612d06565b6002805560005460a060020a900460ff1615610d095760405160e560020a62461bcd0281526004016104e690612c65565b600160a060020a038085166000908152600560208181526040808420888552825292839020835160e0810185528154808252600183015487169382019390935260028201549095169385019390935260038301546060850152600483015460808501529082015460a084015260069091015460c0830152610dcf5760405160e560020a62461bcd02815260206004820181905260248201527f4d61726b6574706c6163653a206173736574206e6f74207075626c697368656460448201526064016104e6565b6020810151600160a060020a03163314610e2e5760405160e560020a62461bcd02815260206004820152601f60248201527f4d61726b6574706c6163653a2073656e646572206e6f7420616c6c6f7765640060448201526064016104e6565b428160c001511015610e855760405160e560020a62461bcd02815260206004820152601a60248201527f4d61726b6574706c6163653a206f72646572206578706972656400000000000060448201526064016104e6565b60008311610ea85760405160e560020a62461bcd0281526004016104e690612c08565b610eb342603c611d64565b8211610f505760405160e560020a62461bcd02815260206004820152604360248201527f4d61726b6574706c6163653a204578706972652074696d652073686f756c642060448201527f6265206d6f7265207468616e2031206d696e75746520696e207468652066757460648201527f7572650000000000000000000000000000000000000000000000000000000000608482015260a4016104e6565b60a0810183905260c081018290528051604080519182526020820185905281018390527f37de993802f8ab9c75f6d7d3065ba8ab95ce30051219b14251415925e68e0a489060600160405180910390a150506001600255505050565b600054600160a060020a03163314610fd95760405160e560020a62461bcd0281526004016104e690612cd1565b610fe36000611d70565b565b60005460a060020a900460ff16156110125760405160e560020a62461bcd0281526004016104e690612c65565b600160a060020a038083166000908152600560208181526040808420868552825292839020835160e081018552815481526001820154861692810183905260028201549095169385019390935260038301546060850152600483015460808501529082015460a084015260069091015460c083015233148061109e5750600054600160a060020a031633145b6110bd5760405160e560020a62461bcd0281526004016104e690612c9c565b600160a060020a0380841660009081526006602090815260408083208684528252918290208251608081018452815480825260018301549095169281019290925260028101549282019290925260039091015460608201529015611138576111388160000151858460000151846020015185604001516116b9565b6111518260000151858460600151856080015133611dcd565b50505050565b60028054141561117c5760405160e560020a62461bcd0281526004016104e690612d06565b6002805560005460a060020a900460ff16156111ad5760405160e560020a62461bcd0281526004016104e690612c65565b6111ba8585858585611edd565b50506001600255505050565b600054600160a060020a031633146111f35760405160e560020a62461bcd0281526004016104e690612cd1565b600160a060020a0381166112725760405160e560020a62461bcd02815260206004820152602660248201527f4f776e61626c653a206e6577206f776e657220697320746865207a65726f206160448201527f646472657373000000000000000000000000000000000000000000000000000060648201526084016104e6565b61078281611d70565b6002805414156112a05760405160e560020a62461bcd0281526004016104e690612d06565b6002805560005460a060020a900460ff16156112d15760405160e560020a62461bcd0281526004016104e690612c65565b6112df868686868686611a00565b60006112eb868861149e565b905060006006600088600160a060020a0316600160a060020a031681526020019081526020016000206000898152602001908152602001600020604051806080016040529081600082015481526020016001820160009054906101000a9004600160a060020a0316600160a060020a0316600160a060020a031681526020016002820154815260200160038201548152505090506006600088600160a060020a0316600160a060020a0316815260200190815260200160002060008981526020019081526020016000206000808201600090556001820160006101000a815490600160a060020a0302191690556002820160009055600382016000905550507ff8c7d5572fa269efc040934ae7553d57f8906bffd616254bef0b94e2b569e416816000015160405161141f91815260200190565b60405180910390a16000611449620f42406105db60015485604001516115f590919063ffffffff16565b905061146a8360200151610ac88385604001516116ad90919063ffffffff16565b611488836000015183602001518a866060015187608001518a611754565b5050600160025550505050505050565b3b151590565b6040805160e081018252600080825260208201819052918101829052606081018290526080810182905260a0810182905260c081019190915250600160a060020a038083166000908152600560208181526040808420868552825292839020835160e0810185528154808252600183015487169382019390935260028201549095169385019390935260038301546060850152600483015460808501529082015460a084015260069091015460c083015261159e5760405160e560020a62461bcd02815260206004820181905260248201527f4d61726b6574706c6163653a206173736574206e6f74207075626c697368656460448201526064016104e6565b428160c0015110156107425760405160e560020a62461bcd02815260206004820152601a60248201527f4d61726b6574706c6163653a206f72646572206578706972656400000000000060448201526064016104e6565b60006116018284612dbf565b9392505050565b60006116018284612d86565b604051600160a060020a03808516602483015283166044820152606481018290526111519085907f23b872dd00000000000000000000000000000000000000000000000000000000906084015b60408051601f198184030181529190526020810180517bffffffffffffffffffffffffffffffffffffffffffffffffffffffff16600160e060020a031990931692909217909152612379565b60006116018284612dde565b600160a060020a038085166000908152600660209081526040808320878452909152812081815560018101805473ffffffffffffffffffffffffffffffffffffffff191690556002810182905560030155600454611719911683836119b2565b6040518581527fb56dc4096011ba5fd2e46e5c3e7b04dec423b5e7b5fce9a17a419d77c832177c906020015b60405180910390a15050505050565b600160a060020a03841660008181526005602081815260408084208b855290915280832083815560018101805473ffffffffffffffffffffffffffffffffffffffff1990811690915560028201805490911690556003810184905560048082018590559281018490556006019290925590517ff242432a00000000000000000000000000000000000000000000000000000000815263f242432a916118019130918a918991899101612b9d565b600060405180830381600087803b15801561181b57600080fd5b505af115801561182f573d6000803e3d6000fd5b50506040805189815260208101859052600160a060020a03891693507f012d66d656f295c1a84576b9b7f0a83474ed09578e80f7f1a715fb958e1d546392500160405180910390a2505050505050565b60005460a060020a900460ff166118db5760405160e560020a62461bcd02815260206004820152601460248201527f5061757361626c653a206e6f742070617573656400000000000000000000000060448201526064016104e6565b6000805474ff0000000000000000000000000000000000000000191690557f5db9ee0a495bf2e6ff9c91a7834c1ba4fdd244a5e8aa4e537bd38aeae4b073aa335b604051600160a060020a03909116815260200160405180910390a1565b60005460a060020a900460ff16156119665760405160e560020a62461bcd0281526004016104e690612c65565b6000805474ff0000000000000000000000000000000000000000191660a060020a1790557f62e78cea01bee320cd4e420270b5ea74000d11b0c9f74754ebdbfc544b05a25861191c3390565b604051600160a060020a0383166024820152604481018290526119fb9084907fa9059cbb0000000000000000000000000000000000000000000000000000000090606401611661565b505050565b6000611a0c868861149e565b90508060c00151821115611a22578060c0015191505b600160a060020a0380871660009081526006602090815260408083208b84528252918290208251608081018452815480825260018301549095169281019290925260028101549282019290925260039091015460608201529015611b815742816060015110611b0c5780604001518411611b075760405160e560020a62461bcd02815260206004820152603560248201527f4d61726b6574706c6163653a206269642070726963652073686f756c6420626560448201527f20686967686572207468616e206c61737420626964000000000000000000000060648201526084016104e6565b611b5f565b60008411611b5f5760405160e560020a62461bcd02815260206004820152601e60248201527f4d61726b6574706c6163653a206269642073686f756c64206265203e2030000060448201526064016104e6565b611b7c8160000151888460000151846020015185604001516116b9565b611bd4565b60008411611bd45760405160e560020a62461bcd02815260206004820152601e60248201527f4d61726b6574706c6163653a206269642073686f756c64206265203e2030000060448201526064016104e6565b600454611bec90600160a060020a0316333087611614565b8151604080514260208201526c010000000000000000000000003302918101919091526054810191909152607481018590526094810184905260009060b401604051602081830303815290604052805190602001209050604051806080016040528082815260200133600160a060020a0316815260200186815260200185815250600660008a600160a060020a0316600160a060020a0316815260200190815260200160002060008b81526020019081526020016000206000820151816000015560208201518160010160006101000a815481600160a060020a030219169083600160a060020a03160217905550604082015181600201556060820151816003015590505033600160a060020a03168789600160a060020a03167f23ddd7ad760cb4ac51f3de3332e5647a1181ddf6c7a146e73dc33c1674a59f72848a8a8a604051611d51949392919093845260208401929092526040830152606082015260800190565b60405180910390a4505050505050505050565b60006116018284612d6e565b60008054600160a060020a0383811673ffffffffffffffffffffffffffffffffffffffff19831681178455604051919092169283917f8be0079c531659141344cd1fd0a4f28419497f9722a3daafe3b4186f6b6457e09190a35050565b600160a060020a03841660008181526005602081815260408084208a855290915280832083815560018101805473ffffffffffffffffffffffffffffffffffffffff1990811690915560028201805490911690556003810184905560048082018590559281018490556006019290925590517ff242432a00000000000000000000000000000000000000000000000000000000815263f242432a91611e7a91309186918991899101612b9d565b600060405180830381600087803b158015611e9457600080fd5b505af1158015611ea8573d6000803e3d6000fd5b505050507f5152abf959f6564662358c2e52b702259b78bac5ee7842a0f01937e670efcc7d8560405161174591815260200190565b6000611ee886612461565b6040517efdd58e00000000000000000000000000000000000000000000000000000000815233600482015260248101879052909150600090600160a060020a0383169062fdd58e9060440160206040518083038186803b158015611f4b57600080fd5b505afa158015611f5f573d6000803e3d6000fd5b505050506040513d601f19601f82011682018060405250810190611f839190612b69565b9050600081116120245760405160e560020a62461bcd02815260206004820152604160248201527f4d61726b6574706c6163653a204f6e6c7920746865206173736574206f776e6560448201527f722062616c616e63652073686f756c6420626520626967676572207468616e2060648201527f3000000000000000000000000000000000000000000000000000000000000000608482015260a4016104e6565b600084116120475760405160e560020a62461bcd0281526004016104e690612c08565b61205242603c611d64565b83116120ef5760405160e560020a62461bcd02815260206004820152604360248201527f4d61726b6574706c6163653a205075626c69636174696f6e2073686f756c642060448201527f6265206d6f7265207468616e2031206d696e75746520696e207468652066757460648201527f7572650000000000000000000000000000000000000000000000000000000000608482015260a4016104e6565b6040517ff242432a000000000000000000000000000000000000000000000000000000008152600160a060020a0383169063f242432a9061213a90339030908b908b90600401612b9d565b600060405180830381600087803b15801561215457600080fd5b505af1158015612168573d6000803e3d6000fd5b5050604080514260208201526c0100000000000000000000000033810292820192909252600160a060020a038b169091026054820152606881018990526088810188905260a881018790526000925060c80190506040516020818303038152906040528051906020012090506040518060e0016040528082815260200133600160a060020a0316815260200189600160a060020a0316815260200188815260200187815260200186815260200185815250600560008a600160a060020a0316600160a060020a0316815260200190815260200160002060008381526020019081526020016000206000820151816000015560208201518160010160006101000a815481600160a060020a030219169083600160a060020a0316021790555060408201518160020160006101000a815481600160a060020a030219169083600160a060020a03160217905550606082015181600301556080820151816004015560a0820151816005015560c0820151816006015590505060078190806001815401808255809150506001900390600052602060002001600090919091909150558688600160a060020a031633600160a060020a03167f09768436509f9206bfdde5ea9b192664d45d52dc9af696a126300afed889b00c848a8a8a604051612367949392919093845260208401929092526040830152606082015260800190565b60405180910390a45050505050505050565b60006123ce826040518060400160405280602081526020017f5361666545524332303a206c6f772d6c6576656c2063616c6c206661696c656481525085600160a060020a031661260b9092919063ffffffff16565b8051909150156119fb57808060200190518101906123ec9190612ac0565b6119fb5760405160e560020a62461bcd02815260206004820152602a60248201527f5361666545524332303a204552433230206f7065726174696f6e20646964206e60448201527f6f7420737563636565640000000000000000000000000000000000000000000060648201526084016104e6565b6000600160a060020a0382163b6124e25760405160e560020a62461bcd028152602060048201526024808201527f546865204e465420416464726573732073686f756c64206265206120636f6e7460448201527f726163740000000000000000000000000000000000000000000000000000000060648201526084016104e6565b6040517f01ffc9a70000000000000000000000000000000000000000000000000000000081527fd9b67a26000000000000000000000000000000000000000000000000000000006004820152600160a060020a038316906301ffc9a79060240160206040518083038186803b15801561255a57600080fd5b505afa15801561256e573d6000803e3d6000fd5b505050506040513d601f19601f820116820180604052508101906125929190612ac0565b6126075760405160e560020a62461bcd02815260206004820152603660248201527f546865204e465420636f6e74726163742068617320616e20696e76616c69642060448201527f4552433131353520696d706c656d656e746174696f6e0000000000000000000060648201526084016104e6565b5090565b606061261a8484600085612622565b949350505050565b6060303183111561269e5760405160e560020a62461bcd02815260206004820152602660248201527f416464726573733a20696e73756666696369656e742062616c616e636520666f60448201527f722063616c6c000000000000000000000000000000000000000000000000000060648201526084016104e6565b843b6126ef5760405160e560020a62461bcd02815260206004820152601d60248201527f416464726573733a2063616c6c20746f206e6f6e2d636f6e747261637400000060448201526064016104e6565b60008086600160a060020a0316858760405161270b9190612b81565b60006040518083038185875af1925050503d8060008114612748576040519150601f19603f3d011682016040523d82523d6000602084013e61274d565b606091505b509150915061275d828286612768565b979650505050505050565b60608315612777575081611601565b8251156127875782518084602001fd5b8160405160e560020a62461bcd0281526004016104e69190612bd5565b8035600160a060020a03811681146127bb57600080fd5b919050565b600082601f8301126127d0578081fd5b8135602067ffffffffffffffff8211156127ec576127ec612e50565b8082026127fa828201612d3d565b838152828101908684018388018501891015612814578687fd5b8693505b85841015612836578035835260019390930192918401918401612818565b50979650505050505050565b600082601f830112612852578081fd5b813567ffffffffffffffff81111561286c5761286c612e50565b61287f601f8201601f1916602001612d3d565b818152846020838601011115612893578283fd5b816020850160208301379081016020019190915292915050565b6000602082840312156128be578081fd5b611601826127a4565b600080600080600060a086880312156128de578081fd5b6128e7866127a4565b94506128f5602087016127a4565b9350604086013567ffffffffffffffff80821115612911578283fd5b61291d89838a016127c0565b94506060880135915080821115612932578283fd5b61293e89838a016127c0565b93506080880135915080821115612953578283fd5b5061296088828901612842565b9150509295509295909350565b600080600080600060a08688031215612984578081fd5b61298d866127a4565b945061299b602087016127a4565b93506040860135925060608601359150608086013567ffffffffffffffff8111156129c4578182fd5b61296088828901612842565b600080604083850312156129e2578182fd5b6129eb836127a4565b946020939093013593505050565b600080600060608486031215612a0d578283fd5b612a16846127a4565b95602085013595506040909401359392505050565b60008060008060808587031215612a40578384fd5b612a49856127a4565b966020860135965060408601359560600135945092505050565b600080600080600060a08688031215612a7a578081fd5b612a83866127a4565b97602087013597506040870135966060810135965060800135945092505050565b600060208284031215612ab5578081fd5b813561160181612e7f565b600060208284031215612ad1578081fd5b815161160181612e7f565b60008060008060008060c08789031215612af4578384fd5b86359550612b04602088016127a4565b95989597505050506040840135936060810135936080820135935060a0909101359150565b600060208284031215612b3a578081fd5b8135600160e060020a031981168114611601578182fd5b600060208284031215612b62578081fd5b5035919050565b600060208284031215612b7a578081fd5b5051919050565b60008251612b93818460208701612df5565b9190910192915050565b600160a060020a0394851681529290931660208301526040820152606081019190915260a06080820181905260009082015260c00190565b6020815260008251806020840152612bf4816040850160208701612df5565b601f01601f19169190910160400192915050565b6020808252602a908201527f4d61726b6574706c6163653a2050726963652073686f756c642062652062696760408201527f676572207468616e203000000000000000000000000000000000000000000000606082015260800190565b60208082526010908201527f5061757361626c653a2070617573656400000000000000000000000000000000604082015260600190565b6020808252818101527f4d61726b6574706c6163653a20756e617574686f72697a65642073656e646572604082015260600190565b6020808252818101527f4f776e61626c653a2063616c6c6572206973206e6f7420746865206f776e6572604082015260600190565b6020808252601f908201527f5265656e7472616e637947756172643a207265656e7472616e742063616c6c00604082015260600190565b604051601f8201601f1916810167ffffffffffffffff81118282101715612d6657612d66612e50565b604052919050565b60008219821115612d8157612d81612e21565b500190565b600082612dba577f4e487b710000000000000000000000000000000000000000000000000000000081526012600452602481fd5b500490565b6000816000190483118215151615612dd957612dd9612e21565b500290565b600082821015612df057612df0612e21565b500390565b60005b83811015612e10578181015183820152602001612df8565b838111156111515750506000910152565b7f4e487b7100000000000000000000000000000000000000000000000000000000600052601160045260246000fd5b7f4e487b7100000000000000000000000000000000000000000000000000000000600052604160045260246000fd5b801515811461078257600080fdfea26469706673582212206895c83e67b86bb4d949a897036405118e5f7b0269de178d24072657a3a8319864736f6c63430008040033",
  "immutableReferences": {},
  "source": "// SPDX-License-Identifier: MIT\npragma solidity ^0.8.0;\n\nimport \"@openzeppelin/contracts/access/Ownable.sol\";\nimport \"@openzeppelin/contracts/utils/math/SafeMath.sol\";\n\nimport \"@openzeppelin/contracts/utils/Address.sol\";\nimport \"@openzeppelin/contracts/security/Pausable.sol\";\nimport \"@openzeppelin/contracts/security/ReentrancyGuard.sol\";\nimport \"@openzeppelin/contracts/token/ERC1155/utils/ERC1155Holder.sol\";\nimport \"@openzeppelin/contracts/token/ERC20/utils/SafeERC20.sol\";\n\nimport \"@openzeppelin/contracts/token/ERC1155/IERC1155.sol\";\nimport \"./interfaces/IMultiTokenTrustMarketplace.sol\";\nimport \"./FeeManager.sol\";\n\n\ncontract MultiTokenTrustMarketplace is Ownable, Pausable, FeeManager, IMultiTokenTrustMarketplace, ERC1155Holder, ReentrancyGuard {\n\n    using Address for address;\n    using SafeMath for uint256;\n    using SafeERC20 for IERC20;\n\n    // current OrderID\n    uint256 private _currentOrderID = 0;\n\n    IERC20 public acceptedToken;\n\n    // From ERC1155 registry OrderId to Order (to avoid asset collision)\n    // ERC1155 contract Address => OrderId => Order\n    mapping(address => mapping(bytes32 => Order)) public orderByOrderId;\n\n    // From ERC1155 registry assetId to Bid (to avoid asset collision)\n    // ERC1155 contract Address => OrderId => Order\n    mapping(address => mapping(bytes32 => Bid)) public bidByOrderId;\n\n    // 721 Interfaces\n    bytes4 public constant _INTERFACE_ID_ERC1155 = 0xd9b67a26;\n\n    /* All the order id are stored here */\n    bytes32[] public orderIds;\n\n    /**\n     * @dev Initialize this contract. Acts as a constructor\n     * @param _acceptedToken - currency for payments\n     */\n    constructor(address _acceptedToken) Ownable() {\n        require(\n            _acceptedToken.isContract(),\n            \"The accepted token address must be a deployed contract\"\n        );\n        acceptedToken = IERC20(_acceptedToken);\n    }\n\n    /**\n     * @dev Sets the paused failsafe. Can only be called by owner\n     * @param _setPaused - paused state\n     */\n    function setPaused(bool _setPaused) public onlyOwner {\n        return (_setPaused) ? _pause() : _unpause();\n    }\n\n    /**\n     * @dev Creates a new order\n     * @param _nftAddress - Non fungible registry address\n     * @param _assetId - ID of the published NFT\n     * @param _priceInWei - Price in Wei for the supported coin\n     * @param _expiresAt - Duration of the order (in hours)\n     */\n    function createOrder(\n        address _nftAddress,\n        uint256 _assetId,\n        uint256 _assetAmount,\n        uint256 _priceInWei,\n        uint256 _expiresAt\n    )\n        public nonReentrant whenNotPaused\n    {\n        _createOrder(_nftAddress, _assetId, _assetAmount, _priceInWei, _expiresAt);\n    }\n\n\n    /**\n     * @dev Cancel an already published order\n     *  can only be canceled by seller or the contract owner\n     * @param _nftAddress - Address of the NFT registry\n     * @param _orderId - ID of the Order\n     */\n    function cancelOrder(\n        address _nftAddress,\n        bytes32 _orderId\n    )\n        public whenNotPaused\n    {\n        Order memory order = orderByOrderId[_nftAddress][_orderId];\n\n        require(\n            order.seller == msg.sender || msg.sender == owner(),\n            \"Marketplace: unauthorized sender\"\n        );\n\n        // Remove pending bid if any\n        Bid memory bid = bidByOrderId[_nftAddress][_orderId];\n\n        if (bid.id != 0) {\n            _cancelBid(\n                bid.id,\n                _nftAddress,\n                order.id,\n                bid.bidder,\n                bid.price\n            );\n        }\n\n        // Cancel order.\n        _cancelOrder(\n            order.id,\n            _nftAddress,\n            order.assetId,\n            order.assetAmount,\n            msg.sender\n        );\n    }\n\n\n    /**\n     * @dev Update an already published order\n     *  can only be updated by seller\n     * @param _nftAddress - Address of the NFT registry\n     * @param _orderId - ID of the Order\n     */\n    function updateOrder(\n        address _nftAddress,\n        bytes32 _orderId,\n        uint256 _priceInWei,\n        uint256 _expiresAt\n    )\n        public nonReentrant whenNotPaused\n    {\n        Order memory order = orderByOrderId[_nftAddress][_orderId];\n\n        // Check valid order to update\n        require(order.id != 0, \"Marketplace: asset not published\");\n        require(order.seller == msg.sender, \"Marketplace: sender not allowed\");\n        require(order.expiresAt >= block.timestamp, \"Marketplace: order expired\");\n\n        // check order updated params\n        require(_priceInWei > 0, \"Marketplace: Price should be bigger than 0\");\n        require(\n            _expiresAt > block.timestamp.add(1 minutes),\n            \"Marketplace: Expire time should be more than 1 minute in the future\"\n        );\n\n        order.price = _priceInWei;\n        order.expiresAt = _expiresAt;\n\n        emit OrderUpdated(order.id, _priceInWei, _expiresAt);\n    }\n\n\n    /**\n     * @dev Executes the sale for a published NFT and checks for the asset fingerprint\n     * @param _nftAddress - Address of the NFT registry\n     * @param _orderId - ID of the Order\n     * @param _priceInWei - Order price\n     */\n    function safeExecuteOrder(\n        address _nftAddress,\n        bytes32 _orderId,\n        uint256 _priceInWei\n    )\n        public nonReentrant whenNotPaused\n    {\n        // Get the current valid order for the asset or fail\n        Order memory order = _getValidOrder(\n            _nftAddress,\n            _orderId\n        );\n\n        /// Check the execution price matches the order price\n        require(order.price == _priceInWei, \"Marketplace: invalid price\");\n        require(order.seller != msg.sender, \"Marketplace: unauthorized sender\");\n\n        // market fee to cut\n        uint256 saleShareAmount = 0;\n\n        // Send market fees to owner\n        if (FeeManager.cutPerMillion > 0) {\n            // Calculate sale share\n            saleShareAmount = _priceInWei\n                .mul(FeeManager.cutPerMillion)\n                .div(1e6);\n\n            // Transfer share amount for marketplace Owner\n            acceptedToken.safeTransferFrom(\n                msg.sender, //buyer\n                owner(),\n                saleShareAmount\n            );\n        }\n\n        // Transfer accepted token amount minus market fee to seller\n        acceptedToken.safeTransferFrom(\n            msg.sender, // buyer\n            order.seller, // seller\n            order.price.sub(saleShareAmount)\n        );\n\n        // Remove pending bid if any\n        Bid memory bid = bidByOrderId[_nftAddress][_orderId];\n\n        if (bid.id != 0) {\n            _cancelBid(\n                bid.id,\n                _nftAddress,\n                _orderId,\n                bid.bidder,\n                bid.price\n            );\n        }\n\n        _executeOrder(\n            order.id,\n            msg.sender, // buyer\n            _nftAddress,\n            order.assetId,\n            order.assetAmount,\n            _priceInWei\n        );\n    }\n\n\n    /**\n     * @dev Places a bid for a published NFT and checks for the asset fingerprint\n     * @param _nftAddress - Address of the NFT registry\n     * @param _assetId - ID of the published NFT\n     * @param _priceInWei - Bid price in acceptedToken currency\n     * @param _expiresAt - Bid expiration time\n     */\n    function createBid(\n        bytes32 _orderId,\n        address _nftAddress,\n        uint256 _assetId,\n        uint256 _assetAmount,\n        uint256 _priceInWei,\n        uint256 _expiresAt\n    )\n        public nonReentrant whenNotPaused\n    {\n        _createBid(\n            _orderId,\n            _nftAddress,\n            _assetId,\n            _assetAmount,\n            _priceInWei,\n            _expiresAt\n        );\n    }\n\n    /**\n     * @dev Places a bid for a published NFT and checks for the asset fingerprint\n     * @param _nftAddress - Address of the NFT registry\n     * @param _assetId - ID of the published NFT\n     * @param _priceInWei - Bid price in acceptedToken currency\n     * @param _expiresAt - Bid expiration time\n     */\n    function safePlaceBid(\n        bytes32 _orderId,\n        address _nftAddress,\n        uint256 _assetId,\n        uint256 _assetAmount,\n        uint256 _priceInWei,\n        uint256 _expiresAt\n    )\n        public nonReentrant whenNotPaused\n    {\n        _createBid(\n            _orderId,\n            _nftAddress,\n            _assetId,\n            _assetAmount,\n            _priceInWei,\n            _expiresAt\n        );\n\n        Order memory order = _getValidOrder(_nftAddress, _orderId);\n\n        Bid memory bid = bidByOrderId[_nftAddress][_orderId];\n\n        // remove bid\n        delete bidByOrderId[_nftAddress][_orderId];\n\n        emit BidAccepted(bid.id);\n\n        // calc market fees\n        uint256 saleShareAmount = bid.price\n            .mul(FeeManager.cutPerMillion)\n            .div(1e6);\n\n        // transfer escrowed bid amount minus market fee to seller\n        acceptedToken.safeTransfer(\n            order.seller,\n            bid.price.sub(saleShareAmount)\n        );\n\n        _executeOrder(\n            order.id,\n            bid.bidder,\n            _nftAddress,\n            order.assetId,\n            order.assetAmount,\n            _priceInWei\n        );\n    }\n\n\n    /**\n     * @dev Cancel an already published bid\n     *  can only be canceled by seller or the contract owner\n     * @param _nftAddress - Address of the NFT registry\n     * @param _orderId - ID of the order\n     */\n    function cancelBid(\n        address _nftAddress,\n        bytes32 _orderId\n    )\n        public nonReentrant whenNotPaused\n    {\n        Bid memory bid = bidByOrderId[_nftAddress][_orderId];\n\n        require(\n            bid.bidder == msg.sender || msg.sender == owner(),\n            \"Marketplace: Unauthorized sender\"\n        );\n\n        _cancelBid(\n            bid.id,\n            _nftAddress,\n            _orderId,\n            bid.bidder,\n            bid.price\n        );\n    }\n\n\n    /**\n     * @dev Executes the sale for a published NFT by accepting a current bid\n     * @param _nftAddress - Address of the NFT registry\n     * @param _orderId - ID of Order\n     * @param _priceInWei - Bid price in wei in acceptedTokens currency\n     */\n    function acceptBid(\n        address _nftAddress,\n        bytes32 _orderId,\n        uint256 _priceInWei\n    )\n        public nonReentrant whenNotPaused\n    {\n        // check order validity\n        Order memory order = _getValidOrder(_nftAddress, _orderId);\n\n        // item seller is the only allowed to accept a bid\n        require(order.seller == msg.sender, \"Marketplace: unauthorized sender\");\n\n        Bid memory bid = bidByOrderId[_nftAddress][_orderId];\n\n        require(bid.price == _priceInWei, \"Marketplace: invalid bid price\");\n        require(bid.expiresAt >= block.timestamp, \"Marketplace: the bid expired\");\n\n        // remove bid\n        delete bidByOrderId[_nftAddress][_orderId];\n\n        emit BidAccepted(bid.id);\n\n        // calc market fees\n        uint256 saleShareAmount = bid.price\n            .mul(FeeManager.cutPerMillion)\n            .div(1e6);\n\n        // transfer escrowed bid amount minus market fee to seller\n        acceptedToken.safeTransfer(\n            order.seller,\n            bid.price.sub(saleShareAmount)\n        );\n\n        _executeOrder(\n            order.id,\n            bid.bidder,\n            _nftAddress,\n            order.assetId,\n            order.assetAmount,\n            _priceInWei\n        );\n    }\n\n\n    /**\n     * @dev Internal function gets Order by nftRegistry and assetId. Checks for the order validity\n     * @param _nftAddress - Address of the NFT registry\n     * @param _orderId - ID of Order\n     */\n    function _getValidOrder(\n        address _nftAddress,\n        bytes32 _orderId\n    )\n        internal view returns (Order memory order)\n    {\n        order = orderByOrderId[_nftAddress][_orderId];\n\n        require(order.id != 0, \"Marketplace: asset not published\");\n        require(order.expiresAt >= block.timestamp, \"Marketplace: order expired\");\n    }\n\n\n    /**\n     * @dev Executes the sale for a published NFT\n     * @param _orderId - Order Id to execute\n     * @param _buyer - address\n     * @param _nftAddress - Address of the NFT registry\n     * @param _assetId - NFT id\n     * @param _priceInWei - Order price\n     */\n    function _executeOrder(\n        bytes32 _orderId,\n        address _buyer,\n        address _nftAddress,\n        uint256 _assetId,\n        uint256 _assetAmount,\n        uint256 _priceInWei\n    )\n        internal\n    {\n        // remove order\n        delete orderByOrderId[_nftAddress][_orderId];\n\n        // Transfer NFT asset\n        IERC1155(_nftAddress).safeTransferFrom(\n            address(this),\n            _buyer,\n            _assetId,\n            _assetAmount,\n            \"\"\n        );\n\n        // Notify ..\n        emit OrderSuccessful(\n            _orderId,\n            _buyer,\n            _priceInWei\n        );\n    }\n\n\n    /**\n     * @dev Creates a new order\n     * @param _nftAddress - Non fungible registry address\n     * @param _assetId - ID of the published NFT\n     * @param _priceInWei - Price in Wei for the supported coin\n     * @param _expiresAt - Expiration time for the order\n     */\n    function _createOrder(\n        address _nftAddress,\n        uint256 _assetId,\n        uint256 _assetAmount,\n        uint256 _priceInWei,\n        uint256 _expiresAt\n    )\n        internal\n    {\n        // Check nft registry\n        IERC1155 nftRegistry = _requireERC1155(_nftAddress);\n\n        // Check order creator is the asset owner\n        uint256 assetOwnerBalance = nftRegistry.balanceOf(msg.sender, _assetId);\n\n        require(\n            assetOwnerBalance > 0,\n            \"Marketplace: Only the asset owner balance should be bigger than 0\"\n        );\n\n        require(_priceInWei > 0, \"Marketplace: Price should be bigger than 0\");\n\n        require(\n            _expiresAt > block.timestamp.add(1 minutes),\n            \"Marketplace: Publication should be more than 1 minute in the future\"\n        );\n\n        // get NFT asset from seller\n        nftRegistry.safeTransferFrom(\n            msg.sender,\n            address(this),\n            _assetId,\n            _assetAmount,\n            \"\"\n        );\n\n        // create the orderId\n        bytes32 orderId = keccak256(\n            abi.encodePacked(\n                block.timestamp,\n                msg.sender,\n                _nftAddress,\n                _assetId,\n                _assetAmount,\n                _priceInWei\n            )\n        );\n\n        // save order\n        orderByOrderId[_nftAddress][orderId] = Order({\n            id: orderId,\n            seller: msg.sender,\n            nftAddress: _nftAddress,\n            assetId: _assetId,\n            assetAmount: _assetAmount,\n            price: _priceInWei,\n            expiresAt: _expiresAt\n        });\n        orderIds.push(orderId);\n\n        emit OrderCreated(\n            orderId,\n            msg.sender,\n            _nftAddress,\n            _assetId,\n            _assetAmount,\n            _priceInWei,\n            _expiresAt\n        );\n    }\n\n\n    /**\n     * @dev Creates a new bid on a existing order\n     * @param _nftAddress - Non fungible registry address\n     * @param _assetId - ID of the published NFT\n     * @param _priceInWei - Price in Wei for the supported coin\n     * @param _expiresAt - expires time\n     */\n    function _createBid(\n        bytes32 _orderId,\n        address _nftAddress,\n        uint256 _assetId,\n        uint256 _assetAmount,\n        uint256 _priceInWei,\n        uint256 _expiresAt\n    )\n        internal\n    {\n        // Checks order validity\n        Order memory order = _getValidOrder(_nftAddress, _orderId);\n\n        // check on expire time\n        if (_expiresAt > order.expiresAt) {\n            _expiresAt = order.expiresAt;\n        }\n\n        // Check price if theres previous a bid\n        Bid memory bid = bidByOrderId[_nftAddress][_orderId];\n\n        // if theres no previous bid, just check price > 0\n        if (bid.id != 0) {\n            if (bid.expiresAt >= block.timestamp) {\n                require(\n                    _priceInWei > bid.price,\n                    \"Marketplace: bid price should be higher than last bid\"\n                );\n\n            } else {\n                require(_priceInWei > 0, \"Marketplace: bid should be > 0\");\n            }\n\n            _cancelBid(\n                bid.id,\n                _nftAddress,\n                order.id,\n                bid.bidder,\n                bid.price\n            );\n\n        } else {\n            require(_priceInWei > 0, \"Marketplace: bid should be > 0\");\n        }\n\n        // Transfer sale amount from bidder to escrow\n        acceptedToken.safeTransferFrom(\n            msg.sender, // bidder\n            address(this),\n            _priceInWei\n        );\n\n        // Create bid\n        bytes32 bidId = keccak256(\n            abi.encodePacked(\n                block.timestamp,\n                msg.sender,\n                order.id,\n                _priceInWei,\n                _expiresAt\n            )\n        );\n\n        // Save Bid for this order\n        bidByOrderId[_nftAddress][_orderId] = Bid({\n            id: bidId,\n            bidder: msg.sender,\n            price: _priceInWei,\n            expiresAt: _expiresAt\n        });\n\n        emit BidCreated(\n            bidId,\n            _nftAddress,\n            _assetId,\n            _assetAmount,\n            msg.sender, // bidder\n            _priceInWei,\n            _expiresAt\n        );\n    }\n\n\n    /**\n     * @dev Cancel an already published order\n     *  can only be canceled by seller or the contract owner\n     * @param _orderId - Bid identifier\n     * @param _nftAddress - Address of the NFT registry\n     * @param _assetId - ID of the published NFT\n     * @param _seller - Address\n     */\n    function _cancelOrder(\n        bytes32 _orderId,\n        address _nftAddress,\n        uint256 _assetId,\n        uint256 _assetAmount,\n        address _seller\n    )\n        internal\n    {\n        delete orderByOrderId[_nftAddress][_orderId];\n\n        /// send asset back to seller\n        IERC1155(_nftAddress).safeTransferFrom(\n            address(this),\n            _seller,\n            _assetId,\n            _assetAmount,\n            \"\"\n        );\n\n        emit OrderCancelled(_orderId);\n    }\n\n\n    /**\n     * @dev Cancel bid from an already published order\n     *  can only be canceled by seller or the contract owner\n     * @param _bidId - Bid identifier\n     * @param _nftAddress - registry address\n     * @param _orderId - ID of Order\n     * @param _bidder - Address\n     * @param _escrowAmount - in acceptenToken currency\n     */\n    function _cancelBid(\n        bytes32 _bidId,\n        address _nftAddress,\n        bytes32 _orderId,\n        address _bidder,\n        uint256 _escrowAmount\n    )\n        internal\n    {\n        delete bidByOrderId[_nftAddress][_orderId];\n\n        // return escrow to canceled bidder\n        acceptedToken.safeTransfer(\n            _bidder,\n            _escrowAmount\n        );\n\n        emit BidCancelled(_bidId);\n    }\n\n\n    function _requireERC1155(address _nftAddress) internal view returns (IERC1155) {\n        require(\n            _nftAddress.isContract(),\n            \"The NFT Address should be a contract\"\n        );\n        require(\n            IERC1155(_nftAddress).supportsInterface(_INTERFACE_ID_ERC1155),\n            \"The NFT contract has an invalid ERC1155 implementation\"\n        );\n        return IERC1155(_nftAddress);\n    }\n}",
  "sourcePath": "/Users/tuminfei/Code/Nodejs/uniarts-eth-dao/contracts/core/MultiTokenTrustMarketplace.sol",
  "compiler": {
    "name": "solc",
    "version": "0.8.4+commit.c7e474f2.Emscripten.clang"
  },
  "schemaVersion": "3.3.0",
  "updatedAt": "2021-12-03T09:45:28.305Z",
  "devdoc": {
    "kind": "dev",
    "methods": {
      "acceptBid(address,bytes32,uint256)": {
        "details": "Executes the sale for a published NFT by accepting a current bid",
        "params": {
          "_nftAddress": "- Address of the NFT registry",
          "_orderId": "- ID of Order",
          "_priceInWei": "- Bid price in wei in acceptedTokens currency"
        }
      },
      "cancelBid(address,bytes32)": {
        "details": "Cancel an already published bid  can only be canceled by seller or the contract owner",
        "params": {
          "_nftAddress": "- Address of the NFT registry",
          "_orderId": "- ID of the order"
        }
      },
      "cancelOrder(address,bytes32)": {
        "details": "Cancel an already published order  can only be canceled by seller or the contract owner",
        "params": {
          "_nftAddress": "- Address of the NFT registry",
          "_orderId": "- ID of the Order"
        }
      },
      "constructor": {
        "details": "Initialize this contract. Acts as a constructor",
        "params": {
          "_acceptedToken": "- currency for payments"
        }
      },
      "createBid(bytes32,address,uint256,uint256,uint256,uint256)": {
        "details": "Places a bid for a published NFT and checks for the asset fingerprint",
        "params": {
          "_assetId": "- ID of the published NFT",
          "_expiresAt": "- Bid expiration time",
          "_nftAddress": "- Address of the NFT registry",
          "_priceInWei": "- Bid price in acceptedToken currency"
        }
      },
      "createOrder(address,uint256,uint256,uint256,uint256)": {
        "details": "Creates a new order",
        "params": {
          "_assetId": "- ID of the published NFT",
          "_expiresAt": "- Duration of the order (in hours)",
          "_nftAddress": "- Non fungible registry address",
          "_priceInWei": "- Price in Wei for the supported coin"
        }
      },
      "owner()": {
        "details": "Returns the address of the current owner."
      },
      "paused()": {
        "details": "Returns true if the contract is paused, and false otherwise."
      },
      "renounceOwnership()": {
        "details": "Leaves the contract without owner. It will not be possible to call `onlyOwner` functions anymore. Can only be called by the current owner. NOTE: Renouncing ownership will leave the contract without an owner, thereby removing any functionality that is only available to the owner."
      },
      "safeExecuteOrder(address,bytes32,uint256)": {
        "details": "Executes the sale for a published NFT and checks for the asset fingerprint",
        "params": {
          "_nftAddress": "- Address of the NFT registry",
          "_orderId": "- ID of the Order",
          "_priceInWei": "- Order price"
        }
      },
      "safePlaceBid(bytes32,address,uint256,uint256,uint256,uint256)": {
        "details": "Places a bid for a published NFT and checks for the asset fingerprint",
        "params": {
          "_assetId": "- ID of the published NFT",
          "_expiresAt": "- Bid expiration time",
          "_nftAddress": "- Address of the NFT registry",
          "_priceInWei": "- Bid price in acceptedToken currency"
        }
      },
      "setOwnerCutPerMillion(uint256)": {
        "details": "Sets the share cut for the owner of the contract that's  charged to the seller on a successful sale",
        "params": {
          "_cutPerMillion": "- Share amount, from 0 to 99,999"
        }
      },
      "setPaused(bool)": {
        "details": "Sets the paused failsafe. Can only be called by owner",
        "params": {
          "_setPaused": "- paused state"
        }
      },
      "supportsInterface(bytes4)": {
        "details": "See {IERC165-supportsInterface}."
      },
      "transferOwnership(address)": {
        "details": "Transfers ownership of the contract to a new account (`newOwner`). Can only be called by the current owner."
      },
      "updateOrder(address,bytes32,uint256,uint256)": {
        "details": "Update an already published order  can only be updated by seller",
        "params": {
          "_nftAddress": "- Address of the NFT registry",
          "_orderId": "- ID of the Order"
        }
      }
    },
    "version": 1
  },
  "userdoc": {
    "kind": "user",
    "methods": {},
    "version": 1
  }
}