{
  "contractName": "MultiTokenAuction",
  "abi": [
    {
      "inputs": [
        {
          "internalType": "string",
          "name": "_payTokenName",
          "type": "string"
        },
        {
          "internalType": "address",
          "name": "_payTokenAddress",
          "type": "address"
        }
      ],
      "stateMutability": "nonpayable",
      "type": "constructor"
    },
    {
      "anonymous": false,
      "inputs": [
        {
          "indexed": false,
          "internalType": "uint256",
          "name": "cutPerMillion",
          "type": "uint256"
        }
      ],
      "name": "ChangedFeePerMillion",
      "type": "event"
    },
    {
      "anonymous": false,
      "inputs": [
        {
          "indexed": false,
          "internalType": "address",
          "name": "creatorAddress",
          "type": "address"
        },
        {
          "indexed": false,
          "internalType": "string",
          "name": "matchId",
          "type": "string"
        },
        {
          "indexed": false,
          "internalType": "address",
          "name": "payTokenAddress",
          "type": "address"
        },
        {
          "indexed": false,
          "internalType": "uint96",
          "name": "openBlock",
          "type": "uint96"
        },
        {
          "indexed": false,
          "internalType": "uint96",
          "name": "expiryBlock",
          "type": "uint96"
        },
        {
          "indexed": false,
          "internalType": "uint96",
          "name": "increment",
          "type": "uint96"
        },
        {
          "indexed": false,
          "internalType": "uint32",
          "name": "expiryExtension",
          "type": "uint32"
        },
        {
          "indexed": false,
          "internalType": "uint256",
          "name": "tokenIndex",
          "type": "uint256"
        },
        {
          "components": [
            {
              "internalType": "address",
              "name": "contractAddress",
              "type": "address"
            },
            {
              "internalType": "uint256",
              "name": "tokenId",
              "type": "uint256"
            },
            {
              "internalType": "uint256",
              "name": "amount",
              "type": "uint256"
            },
            {
              "internalType": "uint256",
              "name": "minBid",
              "type": "uint256"
            },
            {
              "internalType": "uint256",
              "name": "fixedPrice",
              "type": "uint256"
            }
          ],
          "indexed": false,
          "internalType": "struct MultiTokenAuction.NFT",
          "name": "nfts",
          "type": "tuple"
        }
      ],
      "name": "CreateAuctionEvent",
      "type": "event"
    },
    {
      "anonymous": false,
      "inputs": [
        {
          "indexed": false,
          "internalType": "address",
          "name": "creatorAddress",
          "type": "address"
        },
        {
          "indexed": false,
          "internalType": "address",
          "name": "payTokenAddress",
          "type": "address"
        },
        {
          "indexed": false,
          "internalType": "uint256",
          "name": "balance",
          "type": "uint256"
        }
      ],
      "name": "CreatorWithdrawProfit",
      "type": "event"
    },
    {
      "anonymous": false,
      "inputs": [
        {
          "indexed": true,
          "internalType": "address",
          "name": "previousOwner",
          "type": "address"
        },
        {
          "indexed": true,
          "internalType": "address",
          "name": "newOwner",
          "type": "address"
        }
      ],
      "name": "OwnershipTransferred",
      "type": "event"
    },
    {
      "anonymous": false,
      "inputs": [
        {
          "indexed": false,
          "internalType": "string",
          "name": "matchId",
          "type": "string"
        },
        {
          "indexed": false,
          "internalType": "address",
          "name": "playerAddress",
          "type": "address"
        },
        {
          "indexed": false,
          "internalType": "uint256",
          "name": "tokenIndex",
          "type": "uint256"
        },
        {
          "indexed": false,
          "internalType": "address",
          "name": "payTokenAddress",
          "type": "address"
        },
        {
          "indexed": false,
          "internalType": "uint256",
          "name": "bid",
          "type": "uint256"
        },
        {
          "indexed": false,
          "internalType": "uint96",
          "name": "expiryBlock",
          "type": "uint96"
        }
      ],
      "name": "PlayerBidEvent",
      "type": "event"
    },
    {
      "anonymous": false,
      "inputs": [
        {
          "indexed": false,
          "internalType": "string",
          "name": "matchId",
          "type": "string"
        },
        {
          "indexed": false,
          "internalType": "uint256",
          "name": "tokenIndex",
          "type": "uint256"
        }
      ],
      "name": "PlayerWithdrawBid",
      "type": "event"
    },
    {
      "anonymous": false,
      "inputs": [
        {
          "indexed": false,
          "internalType": "string",
          "name": "matchId",
          "type": "string"
        },
        {
          "indexed": false,
          "internalType": "uint256",
          "name": "tokenIndex",
          "type": "uint256"
        }
      ],
      "name": "ProcessWithdrawNft",
      "type": "event"
    },
    {
      "anonymous": false,
      "inputs": [
        {
          "indexed": false,
          "internalType": "string",
          "name": "matchId",
          "type": "string"
        },
        {
          "indexed": false,
          "internalType": "uint256",
          "name": "tokenIndex",
          "type": "uint256"
        },
        {
          "indexed": false,
          "internalType": "address",
          "name": "winnerAddress",
          "type": "address"
        }
      ],
      "name": "RewardEvent",
      "type": "event"
    },
    {
      "anonymous": false,
      "inputs": [
        {
          "indexed": false,
          "internalType": "string",
          "name": "tokenName",
          "type": "string"
        },
        {
          "indexed": false,
          "internalType": "address",
          "name": "tokenAddress",
          "type": "address"
        }
      ],
      "name": "SetNewPayToken",
      "type": "event"
    },
    {
      "inputs": [],
      "name": "cutPerMillion",
      "outputs": [
        {
          "internalType": "uint256",
          "name": "",
          "type": "uint256"
        }
      ],
      "stateMutability": "view",
      "type": "function"
    },
    {
      "inputs": [
        {
          "internalType": "string",
          "name": "",
          "type": "string"
        },
        {
          "internalType": "uint256",
          "name": "",
          "type": "uint256"
        }
      ],
      "name": "matchNFTs",
      "outputs": [
        {
          "internalType": "address",
          "name": "contractAddress",
          "type": "address"
        },
        {
          "internalType": "uint256",
          "name": "tokenId",
          "type": "uint256"
        },
        {
          "internalType": "uint256",
          "name": "amount",
          "type": "uint256"
        },
        {
          "internalType": "uint256",
          "name": "minBid",
          "type": "uint256"
        },
        {
          "internalType": "uint256",
          "name": "fixedPrice",
          "type": "uint256"
        }
      ],
      "stateMutability": "view",
      "type": "function"
    },
    {
      "inputs": [
        {
          "internalType": "string",
          "name": "",
          "type": "string"
        },
        {
          "internalType": "uint256",
          "name": "",
          "type": "uint256"
        }
      ],
      "name": "matchResults",
      "outputs": [
        {
          "internalType": "address",
          "name": "topBidder",
          "type": "address"
        },
        {
          "internalType": "uint256",
          "name": "standingBid",
          "type": "uint256"
        },
        {
          "internalType": "uint256",
          "name": "finalBid",
          "type": "uint256"
        }
      ],
      "stateMutability": "view",
      "type": "function"
    },
    {
      "inputs": [
        {
          "internalType": "string",
          "name": "",
          "type": "string"
        }
      ],
      "name": "matches",
      "outputs": [
        {
          "internalType": "address",
          "name": "creatorAddress",
          "type": "address"
        },
        {
          "internalType": "address",
          "name": "payTokenAddress",
          "type": "address"
        },
        {
          "internalType": "uint96",
          "name": "minIncrement",
          "type": "uint96"
        },
        {
          "internalType": "uint96",
          "name": "openBlock",
          "type": "uint96"
        },
        {
          "internalType": "uint96",
          "name": "expiryBlock",
          "type": "uint96"
        },
        {
          "internalType": "uint32",
          "name": "expiryExtension",
          "type": "uint32"
        },
        {
          "internalType": "uint32",
          "name": "nftCount",
          "type": "uint32"
        }
      ],
      "stateMutability": "view",
      "type": "function"
    },
    {
      "inputs": [],
      "name": "maxCutPerMillion",
      "outputs": [
        {
          "internalType": "uint256",
          "name": "",
          "type": "uint256"
        }
      ],
      "stateMutability": "view",
      "type": "function"
    },
    {
      "inputs": [],
      "name": "owner",
      "outputs": [
        {
          "internalType": "address",
          "name": "",
          "type": "address"
        }
      ],
      "stateMutability": "view",
      "type": "function"
    },
    {
      "inputs": [
        {
          "internalType": "string",
          "name": "",
          "type": "string"
        }
      ],
      "name": "payTokens",
      "outputs": [
        {
          "internalType": "address",
          "name": "",
          "type": "address"
        }
      ],
      "stateMutability": "view",
      "type": "function"
    },
    {
      "inputs": [],
      "name": "renounceOwnership",
      "outputs": [],
      "stateMutability": "nonpayable",
      "type": "function"
    },
    {
      "inputs": [
        {
          "internalType": "uint256",
          "name": "_cutPerMillion",
          "type": "uint256"
        }
      ],
      "name": "setOwnerCutPerMillion",
      "outputs": [],
      "stateMutability": "nonpayable",
      "type": "function"
    },
    {
      "inputs": [
        {
          "internalType": "address",
          "name": "newOwner",
          "type": "address"
        }
      ],
      "name": "transferOwnership",
      "outputs": [],
      "stateMutability": "nonpayable",
      "type": "function"
    },
    {
      "inputs": [
        {
          "internalType": "string",
          "name": "_token_name",
          "type": "string"
        },
        {
          "internalType": "address",
          "name": "_token_address",
          "type": "address"
        }
      ],
      "name": "setPayToken",
      "outputs": [],
      "stateMutability": "nonpayable",
      "type": "function"
    },
    {
      "inputs": [
        {
          "internalType": "string",
          "name": "matchId",
          "type": "string"
        },
        {
          "internalType": "string",
          "name": "payTokenName",
          "type": "string"
        },
        {
          "internalType": "uint96",
          "name": "openBlock",
          "type": "uint96"
        },
        {
          "internalType": "uint96",
          "name": "expiryBlock",
          "type": "uint96"
        },
        {
          "internalType": "uint32",
          "name": "expiryExtension",
          "type": "uint32"
        },
        {
          "internalType": "uint96",
          "name": "minIncrement",
          "type": "uint96"
        },
        {
          "components": [
            {
              "internalType": "address",
              "name": "contractAddress",
              "type": "address"
            },
            {
              "internalType": "uint256",
              "name": "tokenId",
              "type": "uint256"
            },
            {
              "internalType": "uint256",
              "name": "amount",
              "type": "uint256"
            },
            {
              "internalType": "uint256",
              "name": "minBid",
              "type": "uint256"
            },
            {
              "internalType": "uint256",
              "name": "fixedPrice",
              "type": "uint256"
            }
          ],
          "internalType": "struct MultiTokenAuction.NFT[]",
          "name": "nfts",
          "type": "tuple[]"
        }
      ],
      "name": "createAuction",
      "outputs": [],
      "stateMutability": "nonpayable",
      "type": "function"
    },
    {
      "inputs": [
        {
          "internalType": "string",
          "name": "matchId",
          "type": "string"
        },
        {
          "components": [
            {
              "internalType": "address",
              "name": "contractAddress",
              "type": "address"
            },
            {
              "internalType": "uint256",
              "name": "tokenId",
              "type": "uint256"
            },
            {
              "internalType": "uint256",
              "name": "amount",
              "type": "uint256"
            },
            {
              "internalType": "uint256",
              "name": "minBid",
              "type": "uint256"
            },
            {
              "internalType": "uint256",
              "name": "fixedPrice",
              "type": "uint256"
            }
          ],
          "internalType": "struct MultiTokenAuction.NFT",
          "name": "nft",
          "type": "tuple"
        }
      ],
      "name": "addAuctionNFT",
      "outputs": [],
      "stateMutability": "nonpayable",
      "type": "function"
    },
    {
      "inputs": [
        {
          "internalType": "string",
          "name": "matchId",
          "type": "string"
        },
        {
          "internalType": "uint256",
          "name": "tokenIndex",
          "type": "uint256"
        },
        {
          "internalType": "uint256",
          "name": "amount",
          "type": "uint256"
        }
      ],
      "name": "player_bid",
      "outputs": [],
      "stateMutability": "nonpayable",
      "type": "function"
    },
    {
      "inputs": [
        {
          "internalType": "string",
          "name": "matchId",
          "type": "string"
        },
        {
          "internalType": "uint256",
          "name": "tokenIndex",
          "type": "uint256"
        }
      ],
      "name": "player_fixed_price",
      "outputs": [],
      "stateMutability": "nonpayable",
      "type": "function"
    },
    {
      "inputs": [
        {
          "internalType": "string",
          "name": "matchId",
          "type": "string"
        },
        {
          "internalType": "uint256",
          "name": "tokenIndex",
          "type": "uint256"
        }
      ],
      "name": "player_withdraw_bid",
      "outputs": [],
      "stateMutability": "nonpayable",
      "type": "function"
    },
    {
      "inputs": [
        {
          "internalType": "string",
          "name": "matchId",
          "type": "string"
        },
        {
          "internalType": "uint256",
          "name": "tokenIndex",
          "type": "uint256"
        }
      ],
      "name": "reward",
      "outputs": [],
      "stateMutability": "nonpayable",
      "type": "function"
    },
    {
      "inputs": [
        {
          "internalType": "string",
          "name": "matchId",
          "type": "string"
        }
      ],
      "name": "creator_withdraw_nft_batch",
      "outputs": [],
      "stateMutability": "nonpayable",
      "type": "function"
    },
    {
      "inputs": [
        {
          "internalType": "string",
          "name": "matchId",
          "type": "string"
        },
        {
          "internalType": "uint256",
          "name": "tokenIndex",
          "type": "uint256"
        }
      ],
      "name": "creator_withdraw_nft",
      "outputs": [],
      "stateMutability": "nonpayable",
      "type": "function"
    },
    {
      "inputs": [
        {
          "internalType": "string",
          "name": "payTokenName",
          "type": "string"
        }
      ],
      "name": "creator_withdraw_profit",
      "outputs": [],
      "stateMutability": "nonpayable",
      "type": "function"
    },
    {
      "inputs": [
        {
          "internalType": "bytes4",
          "name": "interfaceId",
          "type": "bytes4"
        }
      ],
      "name": "supportsInterface",
      "outputs": [
        {
          "internalType": "bool",
          "name": "",
          "type": "bool"
        }
      ],
      "stateMutability": "view",
      "type": "function"
    },
    {
      "inputs": [
        {
          "internalType": "address",
          "name": "operator",
          "type": "address"
        },
        {
          "internalType": "address",
          "name": "from",
          "type": "address"
        },
        {
          "internalType": "uint256",
          "name": "id",
          "type": "uint256"
        },
        {
          "internalType": "uint256",
          "name": "value",
          "type": "uint256"
        },
        {
          "internalType": "bytes",
          "name": "data",
          "type": "bytes"
        }
      ],
      "name": "onERC1155Received",
      "outputs": [
        {
          "internalType": "bytes4",
          "name": "",
          "type": "bytes4"
        }
      ],
      "stateMutability": "pure",
      "type": "function"
    },
    {
      "inputs": [
        {
          "internalType": "address",
          "name": "operator",
          "type": "address"
        },
        {
          "internalType": "address",
          "name": "from",
          "type": "address"
        },
        {
          "internalType": "uint256[]",
          "name": "ids",
          "type": "uint256[]"
        },
        {
          "internalType": "uint256[]",
          "name": "values",
          "type": "uint256[]"
        },
        {
          "internalType": "bytes",
          "name": "data",
          "type": "bytes"
        }
      ],
      "name": "onERC1155BatchReceived",
      "outputs": [
        {
          "internalType": "bytes4",
          "name": "",
          "type": "bytes4"
        }
      ],
      "stateMutability": "pure",
      "type": "function"
    },
    {
      "inputs": [
        {
          "internalType": "string",
          "name": "matchId",
          "type": "string"
        }
      ],
      "name": "get_match",
      "outputs": [
        {
          "internalType": "address",
          "name": "",
          "type": "address"
        },
        {
          "internalType": "address",
          "name": "",
          "type": "address"
        },
        {
          "internalType": "uint256",
          "name": "",
          "type": "uint256"
        },
        {
          "internalType": "uint256",
          "name": "",
          "type": "uint256"
        },
        {
          "internalType": "uint256",
          "name": "",
          "type": "uint256"
        },
        {
          "internalType": "uint256",
          "name": "",
          "type": "uint256"
        },
        {
          "internalType": "uint256",
          "name": "",
          "type": "uint256"
        }
      ],
      "stateMutability": "view",
      "type": "function"
    },
    {
      "inputs": [
        {
          "internalType": "string",
          "name": "payTokenName",
          "type": "string"
        }
      ],
      "name": "get_pay_token",
      "outputs": [
        {
          "internalType": "string",
          "name": "",
          "type": "string"
        },
        {
          "internalType": "address",
          "name": "",
          "type": "address"
        }
      ],
      "stateMutability": "view",
      "type": "function"
    },
    {
      "inputs": [
        {
          "internalType": "string",
          "name": "matchId",
          "type": "string"
        },
        {
          "internalType": "uint256",
          "name": "tokenIndex",
          "type": "uint256"
        }
      ],
      "name": "get_current_result",
      "outputs": [
        {
          "internalType": "address",
          "name": "",
          "type": "address"
        },
        {
          "internalType": "uint256",
          "name": "",
          "type": "uint256"
        }
      ],
      "stateMutability": "view",
      "type": "function"
    },
    {
      "inputs": [
        {
          "internalType": "string",
          "name": "matchId",
          "type": "string"
        },
        {
          "internalType": "address",
          "name": "playerAddress",
          "type": "address"
        },
        {
          "internalType": "uint256",
          "name": "tokenIndex",
          "type": "uint256"
        },
        {
          "internalType": "address",
          "name": "payTokenAddress",
          "type": "address"
        }
      ],
      "name": "get_player_bid",
      "outputs": [
        {
          "internalType": "uint256",
          "name": "",
          "type": "uint256"
        }
      ],
      "stateMutability": "view",
      "type": "function"
    },
    {
      "inputs": [
        {
          "internalType": "address",
          "name": "creatorAddress",
          "type": "address"
        },
        {
          "internalType": "address",
          "name": "payTokenAddress",
          "type": "address"
        }
      ],
      "name": "get_creator_balance",
      "outputs": [
        {
          "internalType": "uint256",
          "name": "",
          "type": "uint256"
        }
      ],
      "stateMutability": "view",
      "type": "function"
    }
  ],
  "bytecode": "0x60806040523480156200001157600080fd5b50604051620048cb380380620048cb8339810160408190526200003491620001cb565b60016000556200005f6200005064010000000062000158810204565b6401000000006200015c810204565b600160a060020a038116620000d4576040517f08c379a000000000000000000000000000000000000000000000000000000000815260206004820152601560248201527f696e76616c696420746f6b656e20616464726573730000000000000000000000604482015260640160405180910390fd5b80600383604051620000e7919062000295565b9081526040519081900360200181208054600160a060020a0393909316600160a060020a0319909316929092179091557f8099f178bf260dd841ddf7cbcea55060577fe6bb1489a33a3d0eb1b010de30f390620001489084908490620002b3565b60405180910390a150506200035b565b3390565b60018054600160a060020a03838116600160a060020a0319831681179093556040519116919082907f8be0079c531659141344cd1fd0a4f28419497f9722a3daafe3b4186f6b6457e090600090a35050565b8051600160a060020a0381168114620001c657600080fd5b919050565b60008060408385031215620001de578182fd5b825167ffffffffffffffff80821115620001f6578384fd5b818501915085601f8301126200020a578384fd5b8151818111156200021f576200021f6200032c565b604051601f8201601f19908116603f011681019083821181831017156200024a576200024a6200032c565b8160405282815288602084870101111562000263578687fd5b62000276836020830160208801620002f9565b80965050505050506200028c60208401620001ae565b90509250929050565b60008251620002a9818460208701620002f9565b9190910192915050565b6040815260008351806040840152620002d4816060850160208801620002f9565b600160a060020a0393909316602083015250601f91909101601f191601606001919050565b60005b8381101562000316578181015183820152602001620002fc565b8381111562000326576000848401525b50505050565b7f4e487b7100000000000000000000000000000000000000000000000000000000600052604160045260246000fd5b614560806200036b6000396000f3fe608060405234801561001057600080fd5b50600436106101c85760003560e060020a90048063715018a6116100fd578063df4a252c1161009b578063f23a6e6111610075578063f23a6e611461062d578063f2fde38b14610666578063f469779c14610679578063fade145d1461068c57600080fd5b8063df4a252c1461058e578063e3c6623d146105a1578063e552e5f81461061a57600080fd5b8063a020c957116100d7578063a020c9571461050a578063bc197c811461051d578063c555e05014610571578063d9de66f11461057b57600080fd5b8063715018a61461048a5780638b616f1f146104925780638da5cb5b146104e557600080fd5b806338dfdcb61161016a578063528f0f5611610144578063528f0f56146104485780635297f8481461045b57806363418f321461046e578063673c85531461048157600080fd5b806338dfdcb61461036f578063458110a3146103a1578063479f7e89146103b457600080fd5b806318200e9e116101a657806318200e9e1461025157806319dad16d1461026457806332ac752b14610277578063349161d31461034e57600080fd5b806301ffc9a7146101cd5780630c97531b146101f55780630d570f541461020a575b600080fd5b6101e06101db366004613bae565b6106c0565b60405190151581526020015b60405180910390f35b610208610203366004613c16565b610729565b005b610243610218366004613a2f565b600160a060020a03918216600090815260086020908152604080832093909416825291909152205490565b6040519081526020016101ec565b61020861025f366004613e0a565b6108db565b610208610272366004613e99565b6109ec565b6102f6610285366004613c16565b805180820160209081018051600482529282019190930120915280546001820154600290920154600160a060020a0391821692918216916001606060020a0360a060020a90910481169180821691606060020a8204169063ffffffff60c060020a820481169160e060020a90041687565b60408051600160a060020a0398891681529790961660208801526001606060020a0394851695870195909552918316606086015291909116608084015263ffffffff90811660a08401521660c082015260e0016101ec565b61036161035c366004613bd6565b610acf565b6040516101ec92919061407c565b61038261037d366004613e0a565b610b42565b60408051600160a060020a0390931683526020830191909152016101ec565b6102086103af366004613e4d565b610bb6565b6104166103c2366004613e0a565b81516020818401810180516005825292820194820194909420919093529091526000908152604090208054600182015460028301546003840154600490940154600160a060020a0390931693919290919085565b60408051600160a060020a0390961686526020860194909452928401919091526060830152608082015260a0016101ec565b610208610456366004613e0a565b611139565b610208610469366004613c49565b6113b0565b61024361047c366004613c8c565b6114b2565b61024360025481565b610208611506565b6104a56104a0366004613c16565b61153f565b60408051600160a060020a039889168152979096166020880152948601939093526060850191909152608084015260a083015260c082015260e0016101ec565b600154600160a060020a03165b604051600160a060020a0390911681526020016101ec565b610208610518366004613c16565b611608565b61055861052b366004613a61565b7fbc197c819b3e337a6f9652dd10becd7eef83032af3b9d958d3d42f669414662198975050505050505050565b604051600160e060020a031990911681526020016101ec565b61024362030d4081565b610208610589366004613dc6565b61180f565b61020861059c366004613e0a565b611ca9565b6105f56105af366004613e0a565b815160208184018101805160068252928201948201949094209190935290915260009081526040902080546001820154600290920154600160a060020a03909116919083565b60408051600160a060020a0390941684526020840192909252908201526060016101ec565b610208610628366004613e0a565b612005565b61055861063b366004613b18565b7ff23a6e612e1ff4830e658fe43f4e3cb4a5f8170bd5d9e69fb5d7a7fa9e4fdf979695505050505050565b610208610674366004613a15565b612546565b610208610687366004613cf2565b6125fe565b6104f261069a366004613c16565b8051602081830181018051600382529282019190930120915254600160a060020a031681565b6000600160e060020a031982167fd9b67a2600000000000000000000000000000000000000000000000000000000148061072357507f01ffc9a700000000000000000000000000000000000000000000000000000000600160e060020a03198316145b92915050565b8033600160a060020a03166004826040516107449190613f16565b90815260405190819003602001902054600160a060020a0316146107b25760405160e560020a62461bcd02815260206004820152601560248201527f63726561746f72206f6e6c792066756e6374696f6e000000000000000000000060448201526064015b60405180910390fd5b81436004826040516107c49190613f16565b908152604051908190036020019020600201546001606060020a03606060020a90910416106108085760405160e560020a62461bcd0281526004016107a9906141e3565b600060048460405161081a9190613f16565b9081526040519081900360200190206002015463ffffffff60e060020a90910416905060005b818110156108d457600060068660405161085a9190613f16565b908152604080516020928190038301812060008681529084528290206060820183528054600160a060020a0316808352600182015494830194909452600201549181019190915291501580156108b4575060008160200151115b156108c3576108c38683612ec3565b506108cd816144dd565b9050610840565b5050505050565b81816000600160a060020a03166004836040516108f89190613f16565b90815260405190819003602001902054600160a060020a031614156109325760405160e560020a62461bcd0281526004016107a9906141ac565b6004826040516109429190613f16565b9081526040519081900360200190206002015463ffffffff60e060020a9091041681106109845760405160e560020a62461bcd0281526004016107a99061421a565b83436004826040516109969190613f16565b908152604051908190036020019020600201546001606060020a03606060020a90910416106109da5760405160e560020a62461bcd0281526004016107a9906141e3565b6109e48585613010565b505050505050565b600154600160a060020a03163314610a195760405160e560020a62461bcd0281526004016107a990614251565b62030d408110610a945760405160e560020a62461bcd02815260206004820152603660248201527f546865206f776e6572206375742073686f756c64206265206265747765656e2060448201527f3020616e64206d61784375745065724d696c6c696f6e0000000000000000000060648201526084016107a9565b60028190556040518181527fdb629698afb23c88e17ec4d29f97b3907c3e1fbfd116fa15f97569c7c16b3e4d9060200160405180910390a150565b60606000838360038686604051610ae7929190613f32565b908152604080516020928190038301812054601f8501849004840282018401909252838152600160a060020a0390911691849084908190840183828082843760009201919091525092975092955050505050505b9250929050565b600080600684604051610b559190613f16565b908152604080519182900360209081018320600087815291522054600160a060020a031690600690610b88908790613f16565b9081526020016040518091039020600085815260200190815260200160002060010154915091509250929050565b60026000541415610bdc5760405160e560020a62461bcd0281526004016107a990614366565b6002600090815560405184918491600490610bf8908590613f16565b90815260405190819003602001902054600160a060020a03161415610c325760405160e560020a62461bcd0281526004016107a9906141ac565b600482604051610c429190613f16565b9081526040519081900360200190206002015463ffffffff60e060020a909104168110610c845760405160e560020a62461bcd0281526004016107a99061421a565b6000600486604051610c969190613f16565b90815260408051918290036020908101832060e0840183528054600160a060020a0390811685526001820154908116928501929092526001606060020a0360a060020a90920482169284019290925260029091015480821660608401819052606060020a8204909216608084015263ffffffff60c060020a8204811660a085015260e060020a9091041660c0830152909150339043118015610d45575081608001516001606060020a03164311155b610d945760405160e560020a62461bcd02815260206004820152601f60248201527f6d61746368206973206e6f74206f70656e656420666f722062696464696e670060448201526064016107a9565b6000600688604051610da69190613f16565b908152604080516020928190038301812060008b81529084528281206060830184528054600160a060020a03168352600181015494830185905260020154828401529151909350600590610dfb908c90613f16565b908152602001604051809103902060008a81526020019081526020016000206003015490506000606486604001516001606060020a031683610e3d9190614453565b610e479190614430565b6020870151909150838a118015610e67575081610e64858c614472565b10155b610eb65760405160e560020a62461bcd02815260206004820152601160248201527f696c6c6567616c20696e6372656d656e7400000000000000000000000000000060448201526064016107a9565b604051806060016040528087600160a060020a031681526020018b81526020018b81525060068d604051610eea9190613f16565b908152604080516020928190038301902060008f815290835281902083518154600160a060020a031916600160a060020a0390911617815591830151600183015591909101516002909101556080870151600890610f529043906001606060020a0316614472565b1015610fcc578660a0015163ffffffff1687608001818151610f74919061440e565b6001606060020a03169052506080870151604051600490610f96908f90613f16565b9081526020016040518091039020600201600c6101000a8154816001606060020a0302191690836001606060020a031602179055505b600060078d604051610fde9190613f16565b9081526020016040518091039020600088600160a060020a0316600160a060020a0316815260200190815260200160002060008d8152602001908152602001600020600083600160a060020a0316600160a060020a03168152602001908152602001600020548b61104f9190614472565b90508a60078e6040516110629190613f16565b9081526020016040518091039020600089600160a060020a0316600160a060020a0316815260200190815260200160002060008e8152602001908152602001600020600084600160a060020a0316600160a060020a03168152602001908152602001600020819055507f2c1ace533992db2ad8e6af5e2b93dfef6389dbf796e778c7fef675726fb2fec48d888e858f8d60800151604051611108969594939291906140a7565b60405180910390a1611125600160a060020a03831688308461340b565b505060016000555050505050505050505050565b81816000600160a060020a03166004836040516111569190613f16565b90815260405190819003602001902054600160a060020a031614156111905760405160e560020a62461bcd0281526004016107a9906141ac565b6004826040516111a09190613f16565b9081526040519081900360200190206002015463ffffffff60e060020a9091041681106111e25760405160e560020a62461bcd0281526004016107a99061421a565b8333600160a060020a03166004826040516111fd9190613f16565b90815260405190819003602001902054600160a060020a0316146112665760405160e560020a62461bcd02815260206004820152601560248201527f63726561746f72206f6e6c792066756e6374696f6e000000000000000000000060448201526064016107a9565b84436004826040516112789190613f16565b908152604051908190036020019020600201546001606060020a03606060020a90910416106112bc5760405160e560020a62461bcd0281526004016107a9906141e3565b60006006876040516112ce9190613f16565b908152604080516020928190038301812060008a81529084528290206060820183528054600160a060020a031680835260018201549483019490945260020154918101919091529150158015611328575060008160200151115b61139d5760405160e560020a62461bcd02815260206004820152602260248201527f746f6b656e206973206e6f7420617661696c61626c6520746f2077697468647260448201527f617700000000000000000000000000000000000000000000000000000000000060648201526084016107a9565b6113a78787612ec3565b50505050505050565b600154600160a060020a031633146113dd5760405160e560020a62461bcd0281526004016107a990614251565b600160a060020a0381166114365760405160e560020a62461bcd02815260206004820152601560248201527f696e76616c696420746f6b656e2061646472657373000000000000000000000060448201526064016107a9565b806003836040516114479190613f16565b9081526040519081900360200181208054600160a060020a0393909316600160a060020a0319909316929092179091557f8099f178bf260dd841ddf7cbcea55060577fe6bb1489a33a3d0eb1b010de30f3906114a6908490849061407c565b60405180910390a15050565b60006007856040516114c49190613f16565b9081526040805160209281900383019020600160a060020a03968716600090815290835281812095815294825280852093909516845291909152502054919050565b600154600160a060020a031633146115335760405160e560020a62461bcd0281526004016107a990614251565b61153d60006134aa565b565b60008060008060008060008060048960405161155b9190613f16565b90815260408051918290036020908101832060e0840183528054600160a060020a0390811680865260018301549182169386018490526001606060020a0360a060020a909204821694860185905260029092015480821660608701819052606060020a82049092166080870181905263ffffffff60c060020a8304811660a0890181905260e060020a9093041660c0909701879052929f939e50939c509a50985090965090945092505050565b6000600160a060020a03166003826040516116239190613f16565b90815260405190819003602001902054600160a060020a0316141561165d5760405160e560020a62461bcd0281526004016107a990614286565b600060038260405161166f9190613f16565b90815260408051602092819003830190205433600090815260088452828120600160a060020a03909216808252919093529120549091508061171c5760405160e560020a62461bcd02815260206004820152602660248201527f63726561746f722062616c616e6365206d75737420626520677265617465722060448201527f7468616e2030000000000000000000000000000000000000000000000000000060648201526084016107a9565b336000908152600860209081526040808320600160a060020a03861684529091528120819055600254156117945761176c620f4240611766600254856134fc90919063ffffffff16565b9061350f565b9050611794611783600154600160a060020a031690565b600160a060020a038516908361351b565b6117b3336117a28484613569565b600160a060020a038616919061351b565b7f3aa5d5c69e4540af3cc6c9e238866b09184b527313626657b2b1a562b3b2cc7533846117e08585613569565b60408051600160a060020a0394851681529390921660208401529082015260600160405180910390a150505050565b600260005414156118355760405160e560020a62461bcd0281526004016107a990614366565b6002600055604051439060049061184d908590613f16565b908152604051908190036020019020600201546001606060020a03606060020a9091041610156118c25760405160e560020a62461bcd02815260206004820152601560248201527f746865206d617463682069732066696e6973686564000000000000000000000060448201526064016107a9565b6000600160a060020a03166004836040516118dd9190613f16565b90815260405190819003602001902054600160a060020a031614156119475760405160e560020a62461bcd02815260206004820152601460248201527f6d617463684964206e6f6e2d6578697374656e7400000000000000000000000060448201526064016107a9565b60006004836040516119599190613f16565b90815260405160209181900382019020600281015490925060e060020a900463ffffffff169081106119a05760405160e560020a62461bcd0281526004016107a9906142e3565b60018360600151116119f75760405160e560020a62461bcd02815260206004820152601d60248201527f6d696e426964206d7573742062652067726561746572207468616e203100000060448201526064016107a9565b60608301516001830154600091606491611a21919060a060020a90046001606060020a0316614453565b611a2b9190614430565b11611a4b5760405160e560020a62461bcd0281526004016107a99061414f565b8251602084015160408086015190517ff242432a000000000000000000000000000000000000000000000000000000008152600160a060020a039093169263f242432a92611aa192339230929190600401613f42565b600060405180830381600087803b158015611abb57600080fd5b505af1158015611acf573d6000803e3d6000fd5b5050505060405180606001604052806000600160a060020a03168152602001846060015181526020016000815250600685604051611b0d9190613f16565b908152604080516020928190038301812063ffffffff8616600090815290845282902084518154600160a060020a031916600160a060020a039091161781559284015160018401559201516002909101558390600590611b6e908790613f16565b908152604080516020928190038301902063ffffffff8516600090815290835281902083518154600160a060020a031916600160a060020a039091161781559183015160018084019190915590830151600283015560608301516003830155608090920151600490910155611be49082906143e6565b6002830180547bffffffffffffffffffffffffffffffffffffffffffffffffffffffff811660e060020a63ffffffff948516029081179283905560018601546040517f3111de4441b72ec57a73a2e4865163461823438b8e7481616472739a3c5e769195611c969533958c95600160a060020a038616956001606060020a039283169183169190911794606060020a840483169460a060020a9092049092169260c060020a900416908a908d90613ff8565b60405180910390a1505060016000555050565b60026000541415611ccf5760405160e560020a62461bcd0281526004016107a990614366565b6002600090815560405183918391600490611ceb908590613f16565b90815260405190819003602001902054600160a060020a03161415611d255760405160e560020a62461bcd0281526004016107a9906141ac565b600482604051611d359190613f16565b9081526040519081900360200190206002015463ffffffff60e060020a909104168110611d775760405160e560020a62461bcd0281526004016107a99061421a565b60405133908190600690611d8c908890613f16565b908152604080516020928190038301902060008881529252902054600160a060020a03161415611e015760405160e560020a62461bcd02815260206004820152601a60248201527f746f70206269646465722063616e6e6f7420776974686472617700000000000060448201526064016107a9565b6000600486604051611e139190613f16565b908152604080516020928190038301812060e0820183528054600160a060020a039081168352600182015490811694830185905260a060020a90046001606060020a03908116838501526002909101548082166060840152606060020a8104909116608083015260c060020a810463ffffffff90811660a084015260e060020a9091041660c08201529051909250600090600790611eb2908a90613f16565b9081526040805160209281900383019020600160a060020a0387811660009081529184528282208b835284528282209086168252909252902054905080611f645760405160e560020a62461bcd02815260206004820152602660248201527f626964206d7573742062652067726561746572207468616e203020746f20776960448201527f746864726177000000000000000000000000000000000000000000000000000060648201526084016107a9565b6000600789604051611f769190613f16565b9081526040805160209281900383019020600160a060020a0388811660009081529184528282208c8352845282822090871680835293522091909155611fbd90858361351b565b7fe52c89ae59d5e3dd4f42a0ee449ca0fd232fe794ead560f455c44480e114c2258888604051611fee9291906140fb565b60405180910390a150506001600055505050505050565b6002600054141561202b5760405160e560020a62461bcd0281526004016107a990614366565b6002600090815560405183918391600490612047908590613f16565b90815260405190819003602001902054600160a060020a031614156120815760405160e560020a62461bcd0281526004016107a9906141ac565b6004826040516120919190613f16565b9081526040519081900360200190206002015463ffffffff60e060020a9091041681106120d35760405160e560020a62461bcd0281526004016107a99061421a565b60006004856040516120e59190613f16565b90815260408051918290036020908101832060e0840183528054600160a060020a0390811685526001820154908116928501929092526001606060020a0360a060020a90920482169284019290925260029091015480821660608401819052606060020a8204909216608084015263ffffffff60c060020a8204811660a085015260e060020a9091041660c0830152909150339043118015612194575081608001516001606060020a03164311155b6121e35760405160e560020a62461bcd02815260206004820152601f60248201527f6d61746368206973206e6f74206f70656e656420666f722062696464696e670060448201526064016107a9565b60006006876040516121f59190613f16565b908152604080516020928190038301812060008a81529084528281206060830184528054600160a060020a0316835260018101549483018590526002015482840152915190935060059061224a908b90613f16565b908152604080516020928190038301902060008b81529083522060040154908601519091508282116122e75760405160e560020a62461bcd02815260206004820152602760248201527f5374616e64696e6762696420686173206578636565646564207468652066697860448201527f656450726963650000000000000000000000000000000000000000000000000060648201526084016107a9565b604051806060016040528086600160a060020a031681526020018381526020018381525060068b60405161231b9190613f16565b908152604080516020928190038301902060008d815290835281902083518154600160a060020a031916600160a060020a03909116178155918301516001830155919091015160029091015560808601516008906123839043906001606060020a0316614472565b10156123fd578560a0015163ffffffff16866080018181516123a5919061440e565b6001606060020a031690525060808601516040516004906123c7908d90613f16565b9081526020016040518091039020600201600c6101000a8154816001606060020a0302191690836001606060020a031602179055505b600060078b60405161240f9190613f16565b9081526040805160209281900383019020600160a060020a0389811660009081529184528282208e8352845282822090861682529092529020546124539084614472565b90508260078c6040516124669190613f16565b9081526020016040518091039020600088600160a060020a0316600160a060020a0316815260200190815260200160002060008c8152602001908152602001600020600084600160a060020a0316600160a060020a03168152602001908152602001600020819055507f2c1ace533992db2ad8e6af5e2b93dfef6389dbf796e778c7fef675726fb2fec48b878c85878c6080015160405161250c969594939291906140a7565b60405180910390a1612529600160a060020a03831687308461340b565b6125338b8b613010565b5050600160005550505050505050505050565b600154600160a060020a031633146125735760405160e560020a62461bcd0281526004016107a990614251565b600160a060020a0381166125f25760405160e560020a62461bcd02815260206004820152602660248201527f4f776e61626c653a206e6577206f776e657220697320746865207a65726f206160448201527f646472657373000000000000000000000000000000000000000000000000000060648201526084016107a9565b6125fb816134aa565b50565b600260005414156126245760405160e560020a62461bcd0281526004016107a990614366565b6002600090815560405160049061263c908a90613f16565b90815260405190819003602001902054600160a060020a0316146126a55760405160e560020a62461bcd02815260206004820152601360248201527f6d617463684964206973206f636375706965640000000000000000000000000060448201526064016107a9565b6000600160a060020a03166003876040516126c09190613f16565b90815260405190819003602001902054600160a060020a031614156126fa5760405160e560020a62461bcd0281526004016107a990614286565b846001606060020a0316846001606060020a0316118015612723575043856001606060020a0316115b6127be5760405160e560020a62461bcd02815260206004820152604560248201527f636f6e646974696f6e20657870697279426c6f636b203e206f70656e426c6f6360448201527f6b203e2063757272656e7420626c6f636b20636f756e74206e6f74207361746960648201527f7366696564000000000000000000000000000000000000000000000000000000608482015260a4016107a9565b6127ca60086002614453565b6127d48686614489565b6001606060020a0316116128535760405160e560020a62461bcd02815260206004820152603360248201527f61756374696f6e2074696d65206d757374206e6f74206c657373207468616e2060448201527f327820424c4f434b535f544f5f4558504952450000000000000000000000000060648201526084016107a9565b6064826001606060020a0316106128d55760405160e560020a62461bcd02815260206004820152603360248201527f696e6372656d656e74206d7573742062652067726561746572207468616e203060448201527f20616e64206c657373207468616e20313030250000000000000000000000000060648201526084016107a9565b600081511180156128e857506020815111155b6129075760405160e560020a62461bcd0281526004016107a9906142e3565b60005b8151811015612c525760018282815181106129385760e060020a634e487b7102600052603260045260246000fd5b602002602001015160600151116129945760405160e560020a62461bcd02815260206004820152601d60248201527f6d696e426964206d7573742062652067726561746572207468616e203100000060448201526064016107a9565b600060648383815181106129bb5760e060020a634e487b7102600052603260045260246000fd5b602002602001015160600151856001606060020a03166129db9190614453565b6129e59190614430565b11612a055760405160e560020a62461bcd0281526004016107a99061414f565b818181518110612a285760e060020a634e487b7102600052603260045260246000fd5b602002602001015160000151600160a060020a031663f242432a3330858581518110612a675760e060020a634e487b7102600052603260045260246000fd5b602002602001015160200151868681518110612a965760e060020a634e487b7102600052603260045260246000fd5b6020026020010151604001516040518563ffffffff1660e060020a028152600401612ac49493929190613f42565b600060405180830381600087803b158015612ade57600080fd5b505af1158015612af2573d6000803e3d6000fd5b5050505060405180606001604052806000600160a060020a03168152602001838381518110612b345760e060020a634e487b7102600052603260045260246000fd5b60200260200101516060015181526020016000815250600689604051612b5a9190613f16565b9081526040805160209281900383019020600085815290835281902083518154600160a060020a031916600160a060020a0390911617815591830151600183015591909101516002909101558151829082908110612bcb5760e060020a634e487b7102600052603260045260246000fd5b6020026020010151600589604051612be39190613f16565b9081526040805160209281900383019020600085815290835281902083518154600160a060020a031916600160a060020a03909116178155918301516001830155820151600282015560608201516003820155608090910151600490910155612c4b816144dd565b905061290a565b506040518060e0016040528033600160a060020a03168152602001600388604051612c7d9190613f16565b908152602001604051809103902060009054906101000a9004600160a060020a0316600160a060020a03168152602001836001606060020a03168152602001866001606060020a03168152602001856001606060020a031681526020018463ffffffff168152602001825163ffffffff16815250600488604051612d019190613f16565b908152604080516020928190038301902083518154600160a060020a031916600160a060020a0391821617825592840151918401519190921660a060020a6001606060020a0392831602176001830155606083015160029092018054608085015160a086015160c09096015194841677ffffffffffffffffffffffffffffffffffffffffffffffff1990921691909117606060020a91909316029190911777ffffffffffffffffffffffffffffffffffffffffffffffff1660c060020a63ffffffff948516027bffffffffffffffffffffffffffffffffffffffffffffffffffffffff161760e060020a939092169290920217905560005b8151811015612eb4577f3111de4441b72ec57a73a2e4865163461823438b8e7481616472739a3c5e7691338960038a604051612e359190613f16565b908152602001604051809103902060009054906101000a9004600160a060020a03168989888a888a8a81518110612e7f5760e060020a634e487b7102600052603260045260246000fd5b6020026020010151604051612e9c99989796959493929190613f7a565b60405180910390a1612ead816144dd565b9050612df9565b50506001600055505050505050565b6000600683604051612ed59190613f16565b9081526040805191829003602090810183206000868152915290812060010192909255600590612f06908590613f16565b9081526040805160209281900383018120600086815290845282902060a0820183528054600160a060020a03168083526001820154948301859052600282015483850181905260038301546060850152600492830154608085015293517ff242432a0000000000000000000000000000000000000000000000000000000081529295509363f242432a93612fa09330933393929101613f42565b600060405180830381600087803b158015612fba57600080fd5b505af1158015612fce573d6000803e3d6000fd5b505050507fa028f70b1a82d8501d34d76d76b13b9130b49e7fc55bb89f647a44d3eac5f0fd83836040516130039291906140fb565b60405180910390a1505050565b6000806004846040516130239190613f16565b908152604080516020928190038301812060e0820183528054600160a060020a039081168352600182015490811694830185905260a060020a90046001606060020a03908116838501526002909101548082166060840152606060020a8104909116608083015260c060020a810463ffffffff90811660a084015260e060020a9091041660c082015290519092506000906006906130c2908890613f16565b90815260408051602092819003830181206000898152935290822054600160a060020a031692506006906130f7908990613f16565b9081526040805160209281900383019020600089815292529020600201549050600160a060020a0382166131705760405160e560020a62461bcd02815260206004820152601360248201527f77696e6e6572206973206e6f742076616c69640000000000000000000000000060448201526064016107a9565b6040805160608101825260008082526020820152808201839052905160069061319a908a90613f16565b90815260408051918290036020908101832060008b815290825282812085518154600160a060020a03909116600160a060020a031990911617815591850151600183015593909101516002909101556007906131f7908a90613f16565b9081526040805160209281900383018120600160a060020a0387811660009081529185528382208c835285528382209089168252909352908220549250600790613242908b90613f16565b908152604080519182900360209081018320600160a060020a0380891660009081529183528382208d83528352838220908a168252909152908120929092558291600891600490613294908d90613f16565b908152604080516020928190038301902054600160a060020a0390811684528383019490945291820160009081209389168152929052812080549091906132dc9084906143ce565b9250508190555060006005896040516132f59190613f16565b908152604080516020928190038301812060008c815290845282902060a0820183528054600160a060020a03168083526001820154948301859052600282015483850181905260038301546060850152600492830154608085015293517ff242432a0000000000000000000000000000000000000000000000000000000081529295509363f242432a9361338f9330938b93929101613f42565b600060405180830381600087803b1580156133a957600080fd5b505af11580156133bd573d6000803e3d6000fd5b505050507f4724291f3c939ed02ed238c50d61263622fc1d0871d7aaa264d743475de5b72b8989866040516133f49392919061411d565b60405180910390a150600198975050505050505050565b604051600160a060020a03808516602483015283166044820152606481018290526134a49085907f23b872dd00000000000000000000000000000000000000000000000000000000906084015b60408051601f198184030181529190526020810180517bffffffffffffffffffffffffffffffffffffffffffffffffffffffff16600160e060020a031990931692909217909152613575565b50505050565b60018054600160a060020a03838116600160a060020a0319831681179093556040519116919082907f8be0079c531659141344cd1fd0a4f28419497f9722a3daafe3b4186f6b6457e090600090a35050565b60006135088284614453565b9392505050565b60006135088284614430565b604051600160a060020a0383166024820152604481018290526135649084907fa9059cbb0000000000000000000000000000000000000000000000000000000090606401613458565b505050565b60006135088284614472565b60006135ca826040518060400160405280602081526020017f5361666545524332303a206c6f772d6c6576656c2063616c6c206661696c656481525085600160a060020a031661365d9092919063ffffffff16565b80519091501561356457808060200190518101906135e89190613b8e565b6135645760405160e560020a62461bcd02815260206004820152602a60248201527f5361666545524332303a204552433230206f7065726174696f6e20646964206e60448201527f6f7420737563636565640000000000000000000000000000000000000000000060648201526084016107a9565b606061366c8484600085613674565b949350505050565b606030318311156136f05760405160e560020a62461bcd02815260206004820152602660248201527f416464726573733a20696e73756666696369656e742062616c616e636520666f60448201527f722063616c6c000000000000000000000000000000000000000000000000000060648201526084016107a9565b843b6137415760405160e560020a62461bcd02815260206004820152601d60248201527f416464726573733a2063616c6c20746f206e6f6e2d636f6e747261637400000060448201526064016107a9565b60008086600160a060020a0316858760405161375d9190613f16565b60006040518083038185875af1925050503d806000811461379a576040519150601f19603f3d011682016040523d82523d6000602084013e61379f565b606091505b50915091506137af8282866137ba565b979650505050505050565b606083156137c9575081613508565b8251156137d95782518084602001fd5b8160405160e560020a62461bcd0281526004016107a99190614069565b8035600160a060020a038116811461380d57600080fd5b919050565b600082601f830112613822578081fd5b8135602067ffffffffffffffff82111561383e5761383e614511565b61384b818284020161439d565b8281528181019085830160a080860288018501891015613869578687fd5b865b8681101561388f5761387d8a8461398a565b8552938501939181019160010161386b565b509198975050505050505050565b60008083601f8401126138ae578182fd5b50813567ffffffffffffffff8111156138c5578182fd5b6020830191508360208083028501011115610b3b57600080fd5b60008083601f8401126138f0578182fd5b50813567ffffffffffffffff811115613907578182fd5b602083019150836020828501011115610b3b57600080fd5b600082601f83011261392f578081fd5b813567ffffffffffffffff81111561394957613949614511565b61395c601f8201601f191660200161439d565b818152846020838601011115613970578283fd5b816020850160208301379081016020019190915292915050565b600060a0828403121561399b578081fd5b60405160a0810181811067ffffffffffffffff821117156139be576139be614511565b6040529050806139cd836137f6565b8152602083013560208201526040830135604082015260608301356060820152608083013560808201525092915050565b80356001606060020a038116811461380d57600080fd5b600060208284031215613a26578081fd5b613508826137f6565b60008060408385031215613a41578081fd5b613a4a836137f6565b9150613a58602084016137f6565b90509250929050565b60008060008060008060008060a0898b031215613a7c578384fd5b613a85896137f6565b9750613a9360208a016137f6565b9650604089013567ffffffffffffffff80821115613aaf578586fd5b613abb8c838d0161389d565b909850965060608b0135915080821115613ad3578586fd5b613adf8c838d0161389d565b909650945060808b0135915080821115613af7578384fd5b50613b048b828c016138df565b999c989b5096995094979396929594505050565b60008060008060008060a08789031215613b30578182fd5b613b39876137f6565b9550613b47602088016137f6565b94506040870135935060608701359250608087013567ffffffffffffffff811115613b70578283fd5b613b7c89828a016138df565b979a9699509497509295939492505050565b600060208284031215613b9f578081fd5b81518015158114613508578182fd5b600060208284031215613bbf578081fd5b8135600160e060020a031981168114613508578182fd5b60008060208385031215613be8578182fd5b823567ffffffffffffffff811115613bfe578283fd5b613c0a858286016138df565b90969095509350505050565b600060208284031215613c27578081fd5b813567ffffffffffffffff811115613c3d578182fd5b61366c8482850161391f565b60008060408385031215613c5b578182fd5b823567ffffffffffffffff811115613c71578283fd5b613c7d8582860161391f565b925050613a58602084016137f6565b60008060008060808587031215613ca1578182fd5b843567ffffffffffffffff811115613cb7578283fd5b613cc38782880161391f565b945050613cd2602086016137f6565b925060408501359150613ce7606086016137f6565b905092959194509250565b600080600080600080600060e0888a031215613d0c578081fd5b873567ffffffffffffffff80821115613d23578283fd5b613d2f8b838c0161391f565b985060208a0135915080821115613d44578283fd5b613d508b838c0161391f565b9750613d5e60408b016139fe565b9650613d6c60608b016139fe565b955060808a0135915063ffffffff82168214613d86578283fd5b819450613d9560a08b016139fe565b935060c08a0135915080821115613daa578283fd5b50613db78a828b01613812565b91505092959891949750929550565b60008060c08385031215613dd8578182fd5b823567ffffffffffffffff811115613dee578283fd5b613dfa8582860161391f565b925050613a58846020850161398a565b60008060408385031215613e1c578182fd5b823567ffffffffffffffff811115613e32578283fd5b613e3e8582860161391f565b95602094909401359450505050565b600080600060608486031215613e61578081fd5b833567ffffffffffffffff811115613e77578182fd5b613e838682870161391f565b9660208601359650604090950135949350505050565b600060208284031215613eaa578081fd5b5035919050565b60008151808452613ec98160208601602086016144b1565b601f01601f19169290920160200192915050565b600160a060020a038151168252602081015160208301526040810151604083015260608101516060830152608081015160808301525050565b60008251613f288184602087016144b1565b9190910192915050565b8183823760009101908152919050565b600160a060020a0394851681529290931660208301526040820152606081019190915260a06080820181905260009082015260c00190565b60006101a0600160a060020a03808d168452816020850152613f9e8285018d613eb1565b908b1660408501526001606060020a038a811660608601528981166080860152881660a085015263ffffffff871660c085015260e084018690529150613fea9050610100830184613edd565b9a9950505050505050505050565b60006101a0600160a060020a03808d16845281602085015261401c8285018d613eb1565b908b1660408501526001606060020a038a811660608601528981166080860152881660a085015263ffffffff87811660c0860152861660e08501529150613fea9050610100830184613edd565b6020815260006135086020830184613eb1565b60408152600061408f6040830185613eb1565b9050600160a060020a03831660208301529392505050565b60c0815260006140ba60c0830189613eb1565b9050600160a060020a0380881660208401528660408401528086166060840152508360808301526001606060020a03831660a0830152979650505050505050565b60408152600061410e6040830185613eb1565b90508260208301529392505050565b6060815260006141306060830186613eb1565b9050836020830152600160a060020a0383166040830152949350505050565b60208082526022908201527f696e6372656d656e742073686f756c642062652067726561746572207468616e60408201527f2030000000000000000000000000000000000000000000000000000000000000606082015260800190565b6020808252600d908201527f696e76616c6964206d6174636800000000000000000000000000000000000000604082015260600190565b60208082526015908201527f6d61746368206973206e6f742066696e69736865640000000000000000000000604082015260600190565b6020808252600d908201527f696e76616c696420746f6b656e00000000000000000000000000000000000000604082015260600190565b6020808252818101527f4f776e61626c653a2063616c6c6572206973206e6f7420746865206f776e6572604082015260600190565b60208082526022908201527f6e6f7420737570706f7274207468697320616464726573732070617920746f6b60408201527f656e000000000000000000000000000000000000000000000000000000000000606082015260800190565b60208082526047908201527f6e756d626572206f66206e6674206d757374206265206772656174657220746860408201527f616e203020616e64206c657373207468616e204d41585f4954454d5f5045525f60608201527f41554354494f4e00000000000000000000000000000000000000000000000000608082015260a00190565b6020808252601f908201527f5265656e7472616e637947756172643a207265656e7472616e742063616c6c00604082015260600190565b604051601f8201601f1916810167ffffffffffffffff811182821017156143c6576143c6614511565b604052919050565b600082198211156143e1576143e16144f8565b500190565b600063ffffffff808316818516808303821115614405576144056144f8565b01949350505050565b60006001606060020a03808316818516808303821115614405576144056144f8565b60008261444e5760e060020a634e487b710281526012600452602481fd5b500490565b600081600019048311821515161561446d5761446d6144f8565b500290565b600082821015614484576144846144f8565b500390565b60006001606060020a03838116908316818110156144a9576144a96144f8565b039392505050565b60005b838110156144cc5781810151838201526020016144b4565b838111156134a45750506000910152565b60006000198214156144f1576144f16144f8565b5060010190565b60e060020a634e487b7102600052601160045260246000fd5b60e060020a634e487b7102600052604160045260246000fdfea2646970667358221220af66b906a7fec9283f5b5c2feff08564a5babcb6fb357bd1499d495a2c40940c64736f6c63430008040033",
  "immutableReferences": {},
  "source": "// SPDX-License-Identifier: MIT\npragma solidity ^0.8.0;\n\nimport \"@openzeppelin/contracts/token/ERC20/IERC20.sol\";\nimport \"@openzeppelin/contracts/token/ERC20/utils/SafeERC20.sol\";\nimport \"@openzeppelin/contracts/token/ERC1155/IERC1155.sol\";\nimport \"@openzeppelin/contracts/token/ERC1155/IERC1155Receiver.sol\";\nimport \"@openzeppelin/contracts/utils/introspection/ERC165.sol\";\nimport \"@openzeppelin/contracts/utils/math/SafeMath.sol\";\nimport \"@openzeppelin/contracts/security/ReentrancyGuard.sol\";\nimport \"@openzeppelin/contracts/access/Ownable.sol\";\nimport \"./FeeManager.sol\";\n\ncontract MultiTokenAuction is ReentrancyGuard, IERC1155Receiver, ERC165, Ownable, FeeManager {\n\n    // using safeErc20 for ierc20 based contract\n    using SafeERC20 for IERC20;\n    using SafeMath for uint256;\n\n    // constants\n    address constant ADDRESS_NULL             = 0x0000000000000000000000000000000000000000;\n    \n    // max item allow per auction, should not be more than 2^32-1\n    uint    constant MAX_ITEM_PER_AUCTION     = 32;\n    \n    uint    constant BLOCKS_TO_EXPIRE         = 8;\n\n    bytes4  constant ERC1155_ONRECEIVED_RESULT = bytes4(keccak256(\"onERC1155Received(address,address,uint256,uint256,bytes)\"));\n\n    bytes4  constant ERC1155_ONBATCHRECEIVED_RESULT = bytes4(keccak256(\"onERC1155BatchReceived(address,address,uint256[],uint256[],bytes)\"));\n    // uint constant MAX_UINT96 = type(uint96).max;\n\n    struct NFT {\n        address contractAddress;\n        uint    tokenId;\n        uint    amount;\n        uint    minBid;\n        uint    fixedPrice;\n    }\n    \n    struct AuctionResult {\n        address topBidder;\n        uint standingBid;\n        uint finalBid;\n    }\n\n    struct Match {\n        address creatorAddress;\n        address payTokenAddress;\n        uint96 minIncrement; // percentage based\n        uint96 openBlock;\n        uint96 expiryBlock;\n        uint32 expiryExtension; // expiryBlock will be extend (+=) for expiryExtension block(s) if bid updated in range [expiryBlock - expiryExtension + 1 .. expiryBlock]\n        uint32 nftCount;\n    }\n\n    // pay_token_name => token_address\n    mapping(string => address) public  payTokens;\n\n    // matchId => Match\n    mapping(string => Match) public  matches;\n\n    // matchId => index => NFT\n    mapping(string => mapping(uint => NFT)) public  matchNFTs;\n    \n    // matchId => Result\n    mapping(string => mapping(uint => AuctionResult)) public  matchResults;\n    \n    // matchId => player => tokenIndex => payTokenAddress => price\n    mapping(string => mapping(address => mapping(uint => mapping(address => uint)))) private playerBid;\n\n    // address to payTokenAddress => balance\n    mapping(address => mapping(address => uint)) private creatorBalance;\n\n    // events\n    event CreateAuctionEvent(address creatorAddress, string matchId, address payTokenAddress, uint96 openBlock, uint96 expiryBlock, uint96 increment, uint32 expiryExtension, uint tokenIndex, NFT nfts);\n    event PlayerBidEvent(string matchId, address playerAddress, uint tokenIndex, address payTokenAddress, uint bid, uint96 expiryBlock);\n    event RewardEvent(string matchId, uint tokenIndex, address winnerAddress);\n    event PlayerWithdrawBid(string matchId, uint tokenIndex);\n    event ProcessWithdrawNft(string matchId, uint tokenIndex);\n    event CreatorWithdrawProfit(address creatorAddress, address payTokenAddress, uint256 balance);\n    event SetNewPayToken(string tokenName, address tokenAddress);\n\n    // modifier \n    modifier validTokenIndex(string memory matchId, uint tokenIndex) {\n        require(matches[matchId].creatorAddress != ADDRESS_NULL, \"invalid match\"); \n        require(tokenIndex < matches[matchId].nftCount, \"invalid token\");\n        _;\n    }\n\n    modifier creatorOnly(string memory matchId) {\n         require(matches[matchId].creatorAddress == msg.sender, \"creator only function\"); \n        _;\n    }\n    \n    // match finished should be used with checking valid match\n    modifier matchFinished(string memory matchId) {\n        // require(matches[matchId].creatorAddress != ADDRESS_NULL, \"invalid match\");\n        require(matches[matchId].expiryBlock < block.number, \"match is not finished\");\n        _;\n    }\n\n    constructor(string memory _payTokenName, address _payTokenAddress) {\n        require(_payTokenAddress != ADDRESS_NULL, \"invalid token address\");\n\t\tpayTokens[_payTokenName] = _payTokenAddress;\n        emit SetNewPayToken(_payTokenName, _payTokenAddress);\n    }\n\n    function setPayToken(string memory _token_name, address _token_address) external onlyOwner {\n        require(_token_address != ADDRESS_NULL, \"invalid token address\");\n\t\tpayTokens[_token_name] = _token_address;\n        emit SetNewPayToken(_token_name, _token_address);\n\t}\n\n    function createAuction(\n        string memory matchId,\n        string memory payTokenName,\n        uint96 openBlock, \n        uint96 expiryBlock,\n        uint32 expiryExtension,\n        uint96 minIncrement, \n        NFT[] memory nfts) external nonReentrant {\n\n        // check if matchId is occupied\n        require(matches[matchId].creatorAddress == ADDRESS_NULL, \"matchId is occupied\");\n\n        require(payTokens[payTokenName] != ADDRESS_NULL, \"not support this address pay token\");\n        \n        // check valid openBlock, expiryBlock, expiryExtensionOnBidUpdate\n        require(expiryBlock > openBlock && openBlock > block.number, \"condition expiryBlock > openBlock > current block count not satisfied\");\n        require(expiryBlock - openBlock > BLOCKS_TO_EXPIRE * 2,      \"auction time must not less than 2x BLOCKS_TO_EXPIRE\");\n\n        // check increment\n        require(minIncrement < 100, \"increment must be greater than 0 and less than 100%\");\n        \n        // check item count\n        require(nfts.length > 0 && nfts.length <= MAX_ITEM_PER_AUCTION, \"number of nft must be greater than 0 and less than MAX_ITEM_PER_AUCTION\");\n\n        // deposit item to contract\n        for(uint i = 0; i < nfts.length; ++i) {\n            \n            require(nfts[i].minBid > 1, \"minBid must be greater than 1\");\n            require(minIncrement * nfts[i].minBid / 100 > 0, \"increment should be greater than 0\");\n            \n            \n            // if meet requirements then send tokens to contract\n            IERC1155(nfts[i].contractAddress).safeTransferFrom(msg.sender, address(this), nfts[i].tokenId, nfts[i].amount, \"\");\n            \n            // create slots for items\n            matchResults[matchId][i]    = AuctionResult(ADDRESS_NULL, nfts[i].minBid, 0);\n            matchNFTs[matchId][i]       = nfts[i];\n        }\n\n        // create match\n        matches[matchId] = Match(\n            msg.sender,\n            payTokens[payTokenName],\n            minIncrement, // percentage based\n            openBlock,\n            expiryBlock,\n            expiryExtension, // expiryBlock will be extend (+=) for expiryExtension block(s) if bid updated in range [expiryBlock - expiryExtension + 1 .. expiryBlock]\n            uint32(nfts.length)\n        );\n\n        // emit events\n        // reateAuctionEvent(address creatorAddress, string matchId, uint96 openBlock, uint96 expiryBlock, uint96 increment, uint32 expiryExtension, uint tokenIndex, NFT nfts);\n        for(uint i = 0; i < nfts.length; ++i) {\n            emit CreateAuctionEvent(msg.sender, matchId, payTokens[payTokenName], openBlock, expiryBlock, minIncrement, expiryExtension, i, nfts[i]);\n        }\n    }\n\n    function addAuctionNFT(\n        string memory matchId,\n        NFT memory nft) external nonReentrant {\n\n        require(matches[matchId].expiryBlock >= block.number, \"the match is finished\");\n\n        // check if matchId is existence\n        require(matches[matchId].creatorAddress != ADDRESS_NULL, \"matchId non-existent\");\n\n        Match storage amatch = matches[matchId];\n        uint32 nftCount = amatch.nftCount;\n        \n        // check item count\n        require(amatch.nftCount < MAX_ITEM_PER_AUCTION, \"number of nft must be greater than 0 and less than MAX_ITEM_PER_AUCTION\");\n\n        // deposit item to contract\n        require(nft.minBid > 1, \"minBid must be greater than 1\");\n        require(amatch.minIncrement * nft.minBid / 100 > 0, \"increment should be greater than 0\");\n        \n        // if meet requirements then send tokens to contract\n        IERC1155(nft.contractAddress).safeTransferFrom(msg.sender, address(this), nft.tokenId, nft.amount, \"\");\n        \n        // create slots for items\n        matchResults[matchId][nftCount] = AuctionResult(ADDRESS_NULL, nft.minBid, 0);\n        matchNFTs[matchId][nftCount]    = nft;\n\n        // update match\n        amatch.nftCount = uint32(nftCount + 1);\n        // emit events\n        // createAuctionEvent(address creatorAddress, string matchId, address payTokenAddress, uint96 openBlock, uint96 expiryBlock, uint96 increment, uint32 expiryExtension, uint tokenIndex, NFT nfts);\n        emit CreateAuctionEvent(msg.sender, matchId, amatch.payTokenAddress, amatch.openBlock, amatch.expiryBlock, amatch.minIncrement, amatch.expiryExtension, nftCount, nft);\n    }\n\n    function player_bid(string memory matchId, uint tokenIndex, uint amount) external nonReentrant validTokenIndex(matchId, tokenIndex) {\n        Match memory amatch = matches[matchId];\n        address playerAddress = msg.sender;\n        require(amatch.openBlock < block.number && block.number <= amatch.expiryBlock, \"match is not opened for bidding\");\n        \n        AuctionResult memory auctionResult = matchResults[matchId][tokenIndex];\n        uint    standingBid     = auctionResult.standingBid;\n        uint    nftMinBid       = matchNFTs[matchId][tokenIndex].minBid;\n        uint    increment       = nftMinBid * amatch.minIncrement / 100;\n        address payTokenAddress = amatch.payTokenAddress;\n        \n        // check valid amount (> current wining, sender someone different from winner)\n        // known issue: Auction creator should be aware of the case where stadingBid = 1 and min increment >= 1\n        require(\n            amount > standingBid && \n            amount - standingBid >= increment, \n            \"illegal increment\"\n        );\n\n        // update the winner for that token\n        matchResults[matchId][tokenIndex] = AuctionResult(playerAddress, amount, amount);\n    \n        // if in BLOCKS_TO_EXPIRE blocks then extends the auction expiry time\n        if (amatch.expiryBlock - block.number < BLOCKS_TO_EXPIRE) {\n            amatch.expiryBlock += amatch.expiryExtension;\n            matches[matchId].expiryBlock = amatch.expiryBlock;\n        }\n\n        // just transfer (amount - currentBid) of that person to contract\n        uint transferAmount = amount - playerBid[matchId][playerAddress][tokenIndex][payTokenAddress]; // sure that amount always higher than current\n        playerBid[matchId][playerAddress][tokenIndex][payTokenAddress] = amount;\n    \n        // emit event\n        emit PlayerBidEvent(\n            matchId, \n            playerAddress,\n            tokenIndex,\n            payTokenAddress,\n            amount, \n            amatch.expiryBlock\n        );\n        IERC20(payTokenAddress).safeTransferFrom(playerAddress, address(this), transferAmount);\n    }\n\n    function player_fixed_price(string memory matchId, uint tokenIndex) external nonReentrant validTokenIndex(matchId, tokenIndex) {\n        Match memory amatch = matches[matchId];\n        address playerAddress = msg.sender;\n        require(amatch.openBlock < block.number && block.number <= amatch.expiryBlock, \"match is not opened for bidding\");\n        \n        AuctionResult memory auctionResult = matchResults[matchId][tokenIndex];\n        uint standingBid = auctionResult.standingBid;\n        uint fixedPrice  = matchNFTs[matchId][tokenIndex].fixedPrice;\n        address payTokenAddress = amatch.payTokenAddress;\n\n        // check standingBid price\n        require(fixedPrice > standingBid, \"Standingbid has exceeded the fixedPrice\");\n\n        // update the winner for that token\n        matchResults[matchId][tokenIndex] = AuctionResult(playerAddress, fixedPrice, fixedPrice);\n    \n        // if in BLOCKS_TO_EXPIRE blocks then extends the auction expiry time\n        if (amatch.expiryBlock - block.number < BLOCKS_TO_EXPIRE) {\n            amatch.expiryBlock += amatch.expiryExtension;\n            matches[matchId].expiryBlock = amatch.expiryBlock;\n        }\n\n        // just transfer (amount - currentBid) of that person to contract\n        uint transferAmount = fixedPrice - playerBid[matchId][playerAddress][tokenIndex][payTokenAddress]; // sure that amount always higher than current\n        playerBid[matchId][playerAddress][tokenIndex][payTokenAddress] = fixedPrice;\n    \n        // emit event\n        emit PlayerBidEvent(\n            matchId, \n            playerAddress,\n            tokenIndex,\n            payTokenAddress,\n            fixedPrice, \n            amatch.expiryBlock\n        );\n        IERC20(payTokenAddress).safeTransferFrom(playerAddress, address(this), transferAmount);\n\n        // send NFT\n        _win_audit(matchId, tokenIndex);\n    }\n\n    // player can withdraw bid if he is not winner of this match\n    function player_withdraw_bid(string memory matchId, uint tokenIndex) external nonReentrant validTokenIndex(matchId, tokenIndex) {\n        \n        // check if player is top bidder \n        address playerAddress = msg.sender;\n        require(matchResults[matchId][tokenIndex].topBidder != playerAddress, \"top bidder cannot withdraw\");\n        Match memory amatch = matches[matchId];\n        address payTokenAddress = amatch.payTokenAddress;\n\n        uint amount = playerBid[matchId][playerAddress][tokenIndex][payTokenAddress];\n        require(amount > 0, \"bid must be greater than 0 to withdraw\");\n\n        // reset bid amount        \n        playerBid[matchId][playerAddress][tokenIndex][payTokenAddress] = 0;\n\n        // transfer money\n        IERC20(payTokenAddress).safeTransfer(playerAddress, amount); // auto reverts on error\n\n        // emit events\n        // event PlayerWithdrawBid(string matchId, uint tokenIndex);\n        emit PlayerWithdrawBid(matchId, tokenIndex);\n    }\n\n    // anyone can call reward, top bidder and creator are incentivized to call this function to send rewards/profit\n    function reward(string memory matchId, uint tokenIndex) external validTokenIndex(matchId, tokenIndex) matchFinished(matchId) {\n        _win_audit(matchId, tokenIndex);\n    }\n\n    function process_withdraw_nft(string memory matchId, uint tokenIndex) private {\n        // set standingBid to 0 to prevent withdraw again\n        matchResults[matchId][tokenIndex].standingBid = 0;\n        // transfer asset\n        NFT memory nft = matchNFTs[matchId][tokenIndex];\n        IERC1155(nft.contractAddress).safeTransferFrom(address(this), msg.sender, nft.tokenId, nft.amount, \"\");\n\n        // emit events\n        // event ProcessWithdrawNft(string matchId, uint tokenIndex);\n        emit ProcessWithdrawNft(matchId, tokenIndex);\n    }\n\n    // creator withdraws unused nft\n    function creator_withdraw_nft_batch(string memory matchId) external creatorOnly(matchId) matchFinished(matchId) { \n        // check valid matchId, match finished\n        uint _len = matches[matchId].nftCount;\n        for(uint i = 0; i < _len; ++i) {\n            \n            // consider result\n            AuctionResult memory result = matchResults[matchId][i];\n            \n            // if no one wins the token then withdraw \n            if (result.topBidder == ADDRESS_NULL && result.standingBid > 0) {\n                process_withdraw_nft(matchId, i);\n            }\n        }\n    }\n    \n    function creator_withdraw_nft(string memory matchId, uint tokenIndex) external validTokenIndex(matchId, tokenIndex) creatorOnly(matchId) matchFinished(matchId) {\n        AuctionResult memory result = matchResults[matchId][tokenIndex];\n        require (result.topBidder == ADDRESS_NULL && result.standingBid > 0, \"token is not available to withdraw\");\n        \n        process_withdraw_nft(matchId, tokenIndex);\n    }\n\n    function creator_withdraw_profit(string memory payTokenName) external {\n        require(payTokens[payTokenName] != ADDRESS_NULL, \"not support this address pay token\");\n        address payTokenAddress = payTokens[payTokenName];\n\n        uint256 balance = creatorBalance[msg.sender][payTokenAddress];\n        require(balance > 0, \"creator balance must be greater than 0\");\n        \n        // reset balance \n        creatorBalance[msg.sender][payTokenAddress] = 0;\n        \n        // market fee to cut\n        uint256 saleShareAmount = 0;\n\n        // Send market fees to owner\n        if (FeeManager.cutPerMillion > 0) {\n            // Calculate sale share\n            saleShareAmount = balance.mul(FeeManager.cutPerMillion).div(1e6);\n\n            // Transfer share amount for marketplace Owner\n            IERC20(payTokenAddress).safeTransfer(owner(), saleShareAmount);\n        }\n\n\n        // send money to creator\n        IERC20(payTokenAddress).safeTransfer(msg.sender, balance.sub(saleShareAmount));\n        // emit events\n        // event CreatorWithdrawProfit(address creatorAddress, uint256 balance);\n        emit CreatorWithdrawProfit(msg.sender, payTokenAddress, balance.sub(saleShareAmount));\n    }\n\n\n    function supportsInterface(bytes4 interfaceId) public view virtual override(ERC165, IERC165) returns (bool) {\n        return\n            interfaceId == type(IERC1155).interfaceId ||\n            super.supportsInterface(interfaceId);\n    }\n\n    function onERC1155Received(address operator, address from, uint256 id, uint256 value, bytes calldata data) external override pure returns (bytes4) {\n        // return ERC1155_ONRECEIVED_RESULT to conform the interface\n        return ERC1155_ONRECEIVED_RESULT;\n    }\n\n    function onERC1155BatchReceived(address operator, address from, uint256[] calldata ids, uint256[] calldata values, bytes calldata data) external override pure returns (bytes4) {\n        // return ERC1155_ONBATCHRECEIVED_RESULT to conform the interface\n        return ERC1155_ONBATCHRECEIVED_RESULT;\n    }\n\n    function get_match(string memory matchId) external view returns(address, address, uint, uint, uint, uint, uint) {\n        Match memory amatch = matches[matchId];\n        return (\n            amatch.creatorAddress,\n            amatch.payTokenAddress,\n            amatch.minIncrement, \n            amatch.openBlock,\n            amatch.expiryBlock,\n            amatch.expiryExtension,\n            amatch.nftCount\n        );\n    }\n\n    function get_pay_token(string calldata payTokenName) external view returns(string memory, address) {\n        return (\n            payTokenName,\n            payTokens[payTokenName]\n        );\n    }\n\n    function get_current_result(string memory matchId, uint tokenIndex) external view returns (address, uint) {\n        return (matchResults[matchId][tokenIndex].topBidder, matchResults[matchId][tokenIndex].standingBid);\n    }\n\n    function get_player_bid(string memory matchId, address playerAddress, uint tokenIndex, address payTokenAddress) external view returns(uint) {\n        return playerBid[matchId][playerAddress][tokenIndex][payTokenAddress];\n    }\n\n    function get_creator_balance(address creatorAddress, address payTokenAddress) external view returns(uint) {\n        return creatorBalance[creatorAddress][payTokenAddress];\n    }\n\n    function _win_audit(string memory matchId, uint tokenIndex) internal returns (bool) {\n        Match memory amatch = matches[matchId];\n        address payTokenAddress = amatch.payTokenAddress;\n\n        address winnerAddress  = matchResults[matchId][tokenIndex].topBidder;\n        uint finalBid  = matchResults[matchId][tokenIndex].finalBid;\n        require(winnerAddress != ADDRESS_NULL, \"winner is not valid\");\n\n        // set result to null\n        matchResults[matchId][tokenIndex] = AuctionResult(ADDRESS_NULL, 0, finalBid);\n\n        // increase creator's balance\n        uint standingBid = playerBid[matchId][winnerAddress][tokenIndex][payTokenAddress];\n        playerBid[matchId][winnerAddress][tokenIndex][payTokenAddress] = 0;\n        creatorBalance[matches[matchId].creatorAddress][payTokenAddress] += standingBid;\n        \n        NFT memory nft = matchNFTs[matchId][tokenIndex];\n        // send nft to address\n        IERC1155(nft.contractAddress).safeTransferFrom(address(this), winnerAddress, nft.tokenId, nft.amount, \"\");\n        emit RewardEvent(matchId, tokenIndex, winnerAddress);\n\n        return true;\n    }\n}",
  "sourcePath": "/Users/yxf/app/uniarts-eth-dao/contracts/core/MultiTokenAuction.sol",
  "compiler": {
    "name": "solc",
    "version": "0.8.4+commit.c7e474f2.Emscripten.clang"
  },
  "schemaVersion": "3.2.3",
  "updatedAt": "2022-01-24T15:05:38.763Z",
  "devdoc": {
    "kind": "dev",
    "methods": {
      "onERC1155BatchReceived(address,address,uint256[],uint256[],bytes)": {
        "details": "Handles the receipt of a multiple ERC1155 token types. This function is called at the end of a `safeBatchTransferFrom` after the balances have been updated. To accept the transfer(s), this must return `bytes4(keccak256(\"onERC1155BatchReceived(address,address,uint256[],uint256[],bytes)\"))` (i.e. 0xbc197c81, or its own function selector).",
        "params": {
          "data": "Additional data with no specified format",
          "from": "The address which previously owned the token",
          "ids": "An array containing ids of each token being transferred (order and length must match values array)",
          "operator": "The address which initiated the batch transfer (i.e. msg.sender)",
          "values": "An array containing amounts of each token being transferred (order and length must match ids array)"
        },
        "returns": {
          "_0": "`bytes4(keccak256(\"onERC1155BatchReceived(address,address,uint256[],uint256[],bytes)\"))` if transfer is allowed"
        }
      },
      "onERC1155Received(address,address,uint256,uint256,bytes)": {
        "details": "Handles the receipt of a single ERC1155 token type. This function is called at the end of a `safeTransferFrom` after the balance has been updated. To accept the transfer, this must return `bytes4(keccak256(\"onERC1155Received(address,address,uint256,uint256,bytes)\"))` (i.e. 0xf23a6e61, or its own function selector).",
        "params": {
          "data": "Additional data with no specified format",
          "from": "The address which previously owned the token",
          "id": "The ID of the token being transferred",
          "operator": "The address which initiated the transfer (i.e. msg.sender)",
          "value": "The amount of tokens being transferred"
        },
        "returns": {
          "_0": "`bytes4(keccak256(\"onERC1155Received(address,address,uint256,uint256,bytes)\"))` if transfer is allowed"
        }
      },
      "owner()": {
        "details": "Returns the address of the current owner."
      },
      "renounceOwnership()": {
        "details": "Leaves the contract without owner. It will not be possible to call `onlyOwner` functions anymore. Can only be called by the current owner. NOTE: Renouncing ownership will leave the contract without an owner, thereby removing any functionality that is only available to the owner."
      },
      "setOwnerCutPerMillion(uint256)": {
        "details": "Sets the share cut for the owner of the contract that's  charged to the seller on a successful sale",
        "params": {
          "_cutPerMillion": "- Share amount, from 0 to 99,999"
        }
      },
      "transferOwnership(address)": {
        "details": "Transfers ownership of the contract to a new account (`newOwner`). Can only be called by the current owner."
      }
    },
    "version": 1
  },
  "userdoc": {
    "kind": "user",
    "methods": {},
    "version": 1
  }
}