{
  "contractName": "MultiTokenTrustMarketplace",
  "abi": [
    {
      "inputs": [
        {
          "internalType": "string",
          "name": "_payTokenName",
          "type": "string"
        },
        {
          "internalType": "address",
          "name": "_payTokenAddress",
          "type": "address"
        }
      ],
      "stateMutability": "nonpayable",
      "type": "constructor"
    },
    {
      "anonymous": false,
      "inputs": [
        {
          "indexed": false,
          "internalType": "bytes32",
          "name": "id",
          "type": "bytes32"
        }
      ],
      "name": "BidAccepted",
      "type": "event"
    },
    {
      "anonymous": false,
      "inputs": [
        {
          "indexed": false,
          "internalType": "bytes32",
          "name": "id",
          "type": "bytes32"
        }
      ],
      "name": "BidCancelled",
      "type": "event"
    },
    {
      "anonymous": false,
      "inputs": [
        {
          "indexed": false,
          "internalType": "bytes32",
          "name": "id",
          "type": "bytes32"
        },
        {
          "indexed": true,
          "internalType": "address",
          "name": "nftAddress",
          "type": "address"
        },
        {
          "indexed": true,
          "internalType": "uint256",
          "name": "assetId",
          "type": "uint256"
        },
        {
          "indexed": false,
          "internalType": "uint256",
          "name": "assetAmount",
          "type": "uint256"
        },
        {
          "indexed": true,
          "internalType": "address",
          "name": "bidder",
          "type": "address"
        },
        {
          "indexed": false,
          "internalType": "address",
          "name": "payTokenAddress",
          "type": "address"
        },
        {
          "indexed": false,
          "internalType": "uint256",
          "name": "priceInWei",
          "type": "uint256"
        },
        {
          "indexed": false,
          "internalType": "uint256",
          "name": "expiresAt",
          "type": "uint256"
        }
      ],
      "name": "BidCreated",
      "type": "event"
    },
    {
      "anonymous": false,
      "inputs": [
        {
          "indexed": false,
          "internalType": "uint256",
          "name": "cutPerMillion",
          "type": "uint256"
        }
      ],
      "name": "ChangedFeePerMillion",
      "type": "event"
    },
    {
      "anonymous": false,
      "inputs": [
        {
          "indexed": false,
          "internalType": "bytes32",
          "name": "id",
          "type": "bytes32"
        }
      ],
      "name": "OrderCancelled",
      "type": "event"
    },
    {
      "anonymous": false,
      "inputs": [
        {
          "indexed": false,
          "internalType": "bytes32",
          "name": "id",
          "type": "bytes32"
        },
        {
          "indexed": true,
          "internalType": "address",
          "name": "payTokenAddress",
          "type": "address"
        },
        {
          "indexed": true,
          "internalType": "address",
          "name": "seller",
          "type": "address"
        },
        {
          "indexed": true,
          "internalType": "address",
          "name": "nftAddress",
          "type": "address"
        },
        {
          "indexed": false,
          "internalType": "uint256",
          "name": "assetId",
          "type": "uint256"
        },
        {
          "indexed": false,
          "internalType": "uint256",
          "name": "assetAmount",
          "type": "uint256"
        },
        {
          "indexed": false,
          "internalType": "uint256",
          "name": "priceInWei",
          "type": "uint256"
        },
        {
          "indexed": false,
          "internalType": "uint256",
          "name": "expiresAt",
          "type": "uint256"
        }
      ],
      "name": "OrderCreated",
      "type": "event"
    },
    {
      "anonymous": false,
      "inputs": [
        {
          "indexed": false,
          "internalType": "bytes32",
          "name": "id",
          "type": "bytes32"
        },
        {
          "indexed": true,
          "internalType": "address",
          "name": "buyer",
          "type": "address"
        },
        {
          "indexed": true,
          "internalType": "address",
          "name": "payTokenAddress",
          "type": "address"
        },
        {
          "indexed": true,
          "internalType": "uint256",
          "name": "priceInWei",
          "type": "uint256"
        }
      ],
      "name": "OrderSuccessful",
      "type": "event"
    },
    {
      "anonymous": false,
      "inputs": [
        {
          "indexed": false,
          "internalType": "bytes32",
          "name": "id",
          "type": "bytes32"
        },
        {
          "indexed": false,
          "internalType": "address",
          "name": "payTokenAddress",
          "type": "address"
        },
        {
          "indexed": false,
          "internalType": "uint256",
          "name": "priceInWei",
          "type": "uint256"
        },
        {
          "indexed": false,
          "internalType": "uint256",
          "name": "expiresAt",
          "type": "uint256"
        }
      ],
      "name": "OrderUpdated",
      "type": "event"
    },
    {
      "anonymous": false,
      "inputs": [
        {
          "indexed": true,
          "internalType": "address",
          "name": "previousOwner",
          "type": "address"
        },
        {
          "indexed": true,
          "internalType": "address",
          "name": "newOwner",
          "type": "address"
        }
      ],
      "name": "OwnershipTransferred",
      "type": "event"
    },
    {
      "anonymous": false,
      "inputs": [
        {
          "indexed": false,
          "internalType": "address",
          "name": "account",
          "type": "address"
        }
      ],
      "name": "Paused",
      "type": "event"
    },
    {
      "anonymous": false,
      "inputs": [
        {
          "indexed": false,
          "internalType": "string",
          "name": "tokenName",
          "type": "string"
        },
        {
          "indexed": false,
          "internalType": "address",
          "name": "tokenAddress",
          "type": "address"
        }
      ],
      "name": "SetNewPayToken",
      "type": "event"
    },
    {
      "anonymous": false,
      "inputs": [
        {
          "indexed": false,
          "internalType": "address",
          "name": "account",
          "type": "address"
        }
      ],
      "name": "Unpaused",
      "type": "event"
    },
    {
      "inputs": [],
      "name": "_INTERFACE_ID_ERC1155",
      "outputs": [
        {
          "internalType": "bytes4",
          "name": "",
          "type": "bytes4"
        }
      ],
      "stateMutability": "view",
      "type": "function"
    },
    {
      "inputs": [
        {
          "internalType": "address",
          "name": "",
          "type": "address"
        },
        {
          "internalType": "bytes32",
          "name": "",
          "type": "bytes32"
        }
      ],
      "name": "bidByOrderId",
      "outputs": [
        {
          "internalType": "bytes32",
          "name": "id",
          "type": "bytes32"
        },
        {
          "internalType": "address",
          "name": "bidder",
          "type": "address"
        },
        {
          "internalType": "uint256",
          "name": "price",
          "type": "uint256"
        },
        {
          "internalType": "uint256",
          "name": "expiresAt",
          "type": "uint256"
        }
      ],
      "stateMutability": "view",
      "type": "function"
    },
    {
      "inputs": [],
      "name": "cutPerMillion",
      "outputs": [
        {
          "internalType": "uint256",
          "name": "",
          "type": "uint256"
        }
      ],
      "stateMutability": "view",
      "type": "function"
    },
    {
      "inputs": [],
      "name": "maxCutPerMillion",
      "outputs": [
        {
          "internalType": "uint256",
          "name": "",
          "type": "uint256"
        }
      ],
      "stateMutability": "view",
      "type": "function"
    },
    {
      "inputs": [
        {
          "internalType": "address",
          "name": "",
          "type": "address"
        },
        {
          "internalType": "address",
          "name": "",
          "type": "address"
        },
        {
          "internalType": "uint256[]",
          "name": "",
          "type": "uint256[]"
        },
        {
          "internalType": "uint256[]",
          "name": "",
          "type": "uint256[]"
        },
        {
          "internalType": "bytes",
          "name": "",
          "type": "bytes"
        }
      ],
      "name": "onERC1155BatchReceived",
      "outputs": [
        {
          "internalType": "bytes4",
          "name": "",
          "type": "bytes4"
        }
      ],
      "stateMutability": "nonpayable",
      "type": "function"
    },
    {
      "inputs": [
        {
          "internalType": "address",
          "name": "",
          "type": "address"
        },
        {
          "internalType": "address",
          "name": "",
          "type": "address"
        },
        {
          "internalType": "uint256",
          "name": "",
          "type": "uint256"
        },
        {
          "internalType": "uint256",
          "name": "",
          "type": "uint256"
        },
        {
          "internalType": "bytes",
          "name": "",
          "type": "bytes"
        }
      ],
      "name": "onERC1155Received",
      "outputs": [
        {
          "internalType": "bytes4",
          "name": "",
          "type": "bytes4"
        }
      ],
      "stateMutability": "nonpayable",
      "type": "function"
    },
    {
      "inputs": [
        {
          "internalType": "address",
          "name": "",
          "type": "address"
        },
        {
          "internalType": "bytes32",
          "name": "",
          "type": "bytes32"
        }
      ],
      "name": "orderByOrderId",
      "outputs": [
        {
          "internalType": "bytes32",
          "name": "id",
          "type": "bytes32"
        },
        {
          "internalType": "address",
          "name": "seller",
          "type": "address"
        },
        {
          "internalType": "address",
          "name": "nftAddress",
          "type": "address"
        },
        {
          "internalType": "uint256",
          "name": "assetId",
          "type": "uint256"
        },
        {
          "internalType": "uint256",
          "name": "assetAmount",
          "type": "uint256"
        },
        {
          "internalType": "address",
          "name": "payTokenAddress",
          "type": "address"
        },
        {
          "internalType": "uint256",
          "name": "price",
          "type": "uint256"
        },
        {
          "internalType": "uint256",
          "name": "expiresAt",
          "type": "uint256"
        }
      ],
      "stateMutability": "view",
      "type": "function"
    },
    {
      "inputs": [],
      "name": "owner",
      "outputs": [
        {
          "internalType": "address",
          "name": "",
          "type": "address"
        }
      ],
      "stateMutability": "view",
      "type": "function"
    },
    {
      "inputs": [],
      "name": "paused",
      "outputs": [
        {
          "internalType": "bool",
          "name": "",
          "type": "bool"
        }
      ],
      "stateMutability": "view",
      "type": "function"
    },
    {
      "inputs": [
        {
          "internalType": "string",
          "name": "",
          "type": "string"
        }
      ],
      "name": "payTokens",
      "outputs": [
        {
          "internalType": "address",
          "name": "",
          "type": "address"
        }
      ],
      "stateMutability": "view",
      "type": "function"
    },
    {
      "inputs": [],
      "name": "renounceOwnership",
      "outputs": [],
      "stateMutability": "nonpayable",
      "type": "function"
    },
    {
      "inputs": [
        {
          "internalType": "uint256",
          "name": "_cutPerMillion",
          "type": "uint256"
        }
      ],
      "name": "setOwnerCutPerMillion",
      "outputs": [],
      "stateMutability": "nonpayable",
      "type": "function"
    },
    {
      "inputs": [
        {
          "internalType": "bytes4",
          "name": "interfaceId",
          "type": "bytes4"
        }
      ],
      "name": "supportsInterface",
      "outputs": [
        {
          "internalType": "bool",
          "name": "",
          "type": "bool"
        }
      ],
      "stateMutability": "view",
      "type": "function"
    },
    {
      "inputs": [
        {
          "internalType": "address",
          "name": "newOwner",
          "type": "address"
        }
      ],
      "name": "transferOwnership",
      "outputs": [],
      "stateMutability": "nonpayable",
      "type": "function"
    },
    {
      "inputs": [
        {
          "internalType": "string",
          "name": "_token_name",
          "type": "string"
        },
        {
          "internalType": "address",
          "name": "_token_address",
          "type": "address"
        }
      ],
      "name": "setPayToken",
      "outputs": [],
      "stateMutability": "nonpayable",
      "type": "function"
    },
    {
      "inputs": [
        {
          "internalType": "bool",
          "name": "_setPaused",
          "type": "bool"
        }
      ],
      "name": "setPaused",
      "outputs": [],
      "stateMutability": "nonpayable",
      "type": "function"
    },
    {
      "inputs": [
        {
          "internalType": "string",
          "name": "_payTokenName",
          "type": "string"
        },
        {
          "internalType": "address",
          "name": "_nftAddress",
          "type": "address"
        },
        {
          "internalType": "uint256",
          "name": "_assetId",
          "type": "uint256"
        },
        {
          "internalType": "uint256",
          "name": "_assetAmount",
          "type": "uint256"
        },
        {
          "internalType": "uint256",
          "name": "_priceInWei",
          "type": "uint256"
        },
        {
          "internalType": "uint256",
          "name": "_expiresAt",
          "type": "uint256"
        }
      ],
      "name": "createOrder",
      "outputs": [],
      "stateMutability": "nonpayable",
      "type": "function"
    },
    {
      "inputs": [
        {
          "internalType": "address",
          "name": "_nftAddress",
          "type": "address"
        },
        {
          "internalType": "bytes32",
          "name": "_orderId",
          "type": "bytes32"
        }
      ],
      "name": "cancelOrder",
      "outputs": [],
      "stateMutability": "nonpayable",
      "type": "function"
    },
    {
      "inputs": [
        {
          "internalType": "address",
          "name": "_nftAddress",
          "type": "address"
        },
        {
          "internalType": "bytes32",
          "name": "_orderId",
          "type": "bytes32"
        },
        {
          "internalType": "string",
          "name": "_payTokenName",
          "type": "string"
        },
        {
          "internalType": "uint256",
          "name": "_priceInWei",
          "type": "uint256"
        },
        {
          "internalType": "uint256",
          "name": "_expiresAt",
          "type": "uint256"
        }
      ],
      "name": "updateOrder",
      "outputs": [],
      "stateMutability": "nonpayable",
      "type": "function"
    },
    {
      "inputs": [
        {
          "internalType": "address",
          "name": "_nftAddress",
          "type": "address"
        },
        {
          "internalType": "bytes32",
          "name": "_orderId",
          "type": "bytes32"
        },
        {
          "internalType": "uint256",
          "name": "_priceInWei",
          "type": "uint256"
        }
      ],
      "name": "safeExecuteOrder",
      "outputs": [],
      "stateMutability": "nonpayable",
      "type": "function"
    },
    {
      "inputs": [
        {
          "internalType": "bytes32",
          "name": "_orderId",
          "type": "bytes32"
        },
        {
          "internalType": "address",
          "name": "_nftAddress",
          "type": "address"
        },
        {
          "internalType": "uint256",
          "name": "_assetId",
          "type": "uint256"
        },
        {
          "internalType": "uint256",
          "name": "_assetAmount",
          "type": "uint256"
        },
        {
          "internalType": "uint256",
          "name": "_priceInWei",
          "type": "uint256"
        },
        {
          "internalType": "uint256",
          "name": "_expiresAt",
          "type": "uint256"
        }
      ],
      "name": "createBid",
      "outputs": [],
      "stateMutability": "nonpayable",
      "type": "function"
    },
    {
      "inputs": [
        {
          "internalType": "bytes32",
          "name": "_orderId",
          "type": "bytes32"
        },
        {
          "internalType": "address",
          "name": "_nftAddress",
          "type": "address"
        },
        {
          "internalType": "uint256",
          "name": "_assetId",
          "type": "uint256"
        },
        {
          "internalType": "uint256",
          "name": "_assetAmount",
          "type": "uint256"
        },
        {
          "internalType": "uint256",
          "name": "_priceInWei",
          "type": "uint256"
        },
        {
          "internalType": "uint256",
          "name": "_expiresAt",
          "type": "uint256"
        }
      ],
      "name": "safePlaceBid",
      "outputs": [],
      "stateMutability": "nonpayable",
      "type": "function"
    },
    {
      "inputs": [
        {
          "internalType": "address",
          "name": "_nftAddress",
          "type": "address"
        },
        {
          "internalType": "bytes32",
          "name": "_orderId",
          "type": "bytes32"
        }
      ],
      "name": "cancelBid",
      "outputs": [],
      "stateMutability": "nonpayable",
      "type": "function"
    },
    {
      "inputs": [
        {
          "internalType": "address",
          "name": "_nftAddress",
          "type": "address"
        },
        {
          "internalType": "bytes32",
          "name": "_orderId",
          "type": "bytes32"
        },
        {
          "internalType": "uint256",
          "name": "_priceInWei",
          "type": "uint256"
        }
      ],
      "name": "acceptBid",
      "outputs": [],
      "stateMutability": "nonpayable",
      "type": "function"
    },
    {
      "inputs": [],
      "name": "getOrderSize",
      "outputs": [
        {
          "internalType": "uint256",
          "name": "",
          "type": "uint256"
        }
      ],
      "stateMutability": "view",
      "type": "function"
    },
    {
      "inputs": [
        {
          "internalType": "uint256",
          "name": "_orderIndex",
          "type": "uint256"
        }
      ],
      "name": "getOrderId",
      "outputs": [
        {
          "internalType": "bytes32",
          "name": "",
          "type": "bytes32"
        }
      ],
      "stateMutability": "view",
      "type": "function"
    }
  ],
  "bytecode": "0x608060405260006007553480156200001657600080fd5b506040516200372738038062003727833981016040819052620000399162000222565b6200005f62000050640100000000620001ab810204565b640100000000620001af810204565b6000805460a060020a60ff0219169055600160025562000096600160a060020a03821664010000000062001743620001ff82021704565b62000127576040517f08c379a000000000000000000000000000000000000000000000000000000000815260206004820152603660248201527f54686520616363657074656420746f6b656e2061646472657373206d7573742060448201527f62652061206465706c6f79656420636f6e747261637400000000000000000000606482015260840160405180910390fd5b806003836040516200013a9190620002ec565b9081526040519081900360200181208054600160a060020a0393909316600160a060020a0319909316929092179091557f8099f178bf260dd841ddf7cbcea55060577fe6bb1489a33a3d0eb1b010de30f3906200019b90849084906200030a565b60405180910390a15050620003b2565b3390565b60008054600160a060020a03838116600160a060020a0319831681178455604051919092169283917f8be0079c531659141344cd1fd0a4f28419497f9722a3daafe3b4186f6b6457e09190a35050565b3b151590565b8051600160a060020a03811681146200021d57600080fd5b919050565b6000806040838503121562000235578182fd5b825167ffffffffffffffff808211156200024d578384fd5b818501915085601f83011262000261578384fd5b81518181111562000276576200027662000383565b604051601f8201601f19908116603f01168101908382118183101715620002a157620002a162000383565b81604052828152886020848701011115620002ba578687fd5b620002cd83602083016020880162000350565b8096505050505050620002e36020840162000205565b90509250929050565b600082516200030081846020870162000350565b9190910192915050565b60408152600083518060408401526200032b81606085016020880162000350565b600160a060020a0393909316602083015250601f91909101601f191601606001919050565b60005b838110156200036d57818101518382015260200162000353565b838111156200037d576000848401525b50505050565b7f4e487b7100000000000000000000000000000000000000000000000000000000600052604160045260246000fd5b61336580620003c26000396000f3fe608060405234801561001057600080fd5b50600436106101aa576000357c010000000000000000000000000000000000000000000000000000000090048063715018a6116100fb578063c555e050116100b4578063f23a6e611161008e578063f23a6e61146104b5578063f2fde38b146104ed578063f5d5defb14610500578063fade145d1461051357600080fd5b8063c555e05014610490578063d3cd74ed1461049a578063dbf84611146104ad57600080fd5b8063715018a61461039357806384b2167c1461039b5780638da5cb5b146103ae5780639d2166ae146103d3578063bc197c81146103e6578063c0dfe72b1461041e57600080fd5b80632525f5c1116101685780635297f848116101425780635297f848146103445780635c975abb14610357578063673c8553146103695780636952e4ef1461038057600080fd5b80632525f5c1146102655780632dad1e7d1461027857806347d1c4c41461028b57600080fd5b8062c00138146101af57806301ffc9a7146101c457806316c38b3c146101ec57806319dad16d146101ff5780631ff480e714610212578063233831cd14610225575b600080fd5b6101c26101bd366004612ddf565b610547565b005b6101d76101d2366004612e96565b61076e565b60405190151581526020015b60405180910390f35b6101c26101fa366004612e11565b6107d7565b6101c261020d366004612f86565b61081c565b6101c2610220366004612ddf565b6108ff565b61024c7fd9b67a260000000000000000000000000000000000000000000000000000000081565b604051600160e060020a031990911681526020016101e3565b6101c2610273366004612d4f565b610b84565b6101c2610286366004612f3d565b610cb9565b6102f5610299366004612d4f565b60046020818152600093845260408085209091529183529120805460018201546002830154600384015494840154600585015460068601546007909601549496600160a060020a03948516969385169590949293919092169188565b60408051988952600160a060020a0397881660208a0152958716958801959095526060870193909352608086019190915290921660a084015260c083019190915260e0820152610100016101e3565b6101c2610352366004612ef1565b610d2a565b60005460a060020a900460ff166101d7565b61037260015481565b6040519081526020016101e3565b6101c261038e366004612e49565b610e53565b6101c2610eb7565b6101c26103a9366004612d4f565b610ef0565b600054600160a060020a03165b604051600160a060020a0390911681526020016101e3565b6103726103e1366004612f86565b61106e565b61024c6103f4366004612c46565b7fbc197c810000000000000000000000000000000000000000000000000000000095945050505050565b61046861042c366004612d4f565b600560209081526000928352604080842090915290825290208054600182015460028301546003909301549192600160a060020a039091169184565b60408051948552600160a060020a0390931660208501529183015260608201526080016101e3565b61037262030d4081565b6101c26104a8366004612d78565b6110a6565b600754610372565b61024c6104c3366004612cec565b7ff23a6e610000000000000000000000000000000000000000000000000000000095945050505050565b6101c26104fb366004612c2c565b611462565b6101c261050e366004612e49565b611517565b6103bb610521366004612ebe565b8051602081830181018051600382529282019190930120915254600160a060020a031681565b6002805414156105755760405160e560020a62461bcd02815260040161056c906131cf565b60405180910390fd5b6002805560005460a060020a900460ff16156105a65760405160e560020a62461bcd02815260040161056c906130d1565b60006105b28484611749565b60a081015160c08201519192509083146106115760405160e560020a62461bcd02815260206004820152601a60248201527f4d61726b6574706c6163653a20696e76616c6964207072696365000000000000604482015260640161056c565b6020820151600160a060020a03163314156106415760405160e560020a62461bcd02815260040161056c90613108565b600154600090156106985761066e620f4240610668600154876118b490919063ffffffff16565b906118c7565b905061069833610686600054600160a060020a031690565b600160a060020a0385169190846118d3565b6106ca3384602001516106b8848760c0015161196c90919063ffffffff16565b600160a060020a0386169291906118d3565b600160a060020a0380871660009081526005602090815260408083208984528252918290208251608081018452815480825260018301549095169281019290925260028101549282019290925260039091015460608201529015610741576107418160000151888884602001518560400151611978565b61076084600001513389876060015188608001518960a001518b611a1a565b505060016002555050505050565b6000600160e060020a031982167f4e2312e00000000000000000000000000000000000000000000000000000000014806107d157507f01ffc9a700000000000000000000000000000000000000000000000000000000600160e060020a03198316145b92915050565b600054600160a060020a031633146108045760405160e560020a62461bcd02815260040161056c9061313d565b8061081457610811611b4c565b50565b610811611c06565b600054600160a060020a031633146108495760405160e560020a62461bcd02815260040161056c9061313d565b62030d4081106108c45760405160e560020a62461bcd02815260206004820152603660248201527f546865206f776e6572206375742073686f756c64206265206265747765656e2060448201527f3020616e64206d61784375745065724d696c6c696f6e00000000000000000000606482015260840161056c565b60018190556040518181527fdb629698afb23c88e17ec4d29f97b3907c3e1fbfd116fa15f97569c7c16b3e4d9060200160405180910390a150565b6002805414156109245760405160e560020a62461bcd02815260040161056c906131cf565b6002805560005460a060020a900460ff16156109555760405160e560020a62461bcd02815260040161056c906130d1565b60006109618484611749565b60a0810151602082015191925090600160a060020a031633146109995760405160e560020a62461bcd02815260040161056c90613108565b600160a060020a03808616600090815260056020908152604080832088845282529182902082516080810184528154815260018201549094169184019190915260028101549183018290526003015460608301528414610a3e5760405160e560020a62461bcd02815260206004820152601e60248201527f4d61726b6574706c6163653a20696e76616c6964206269642070726963650000604482015260640161056c565b4281606001511015610a955760405160e560020a62461bcd02815260206004820152601c60248201527f4d61726b6574706c6163653a2074686520626964206578706972656400000000604482015260640161056c565b600160a060020a03861660009081526005602090815260408083208884528252808320838155600181018054600160a060020a03191690556002810184905560030192909255825191519182527ff8c7d5572fa269efc040934ae7553d57f8906bffd616254bef0b94e2b569e416910160405180910390a16000610b2f620f424061066860015485604001516118b490919063ffffffff16565b9050610b618460200151610b5083856040015161196c90919063ffffffff16565b600160a060020a0386169190611c7f565b6107608460000151836020015189876060015188608001518960a001518b611a1a565b600280541415610ba95760405160e560020a62461bcd02815260040161056c906131cf565b6002805560005460a060020a900460ff1615610bda5760405160e560020a62461bcd02815260040161056c906130d1565b600160a060020a03808316600090815260056020908152604080832085845282529182902082516080810184528154815260018201549094169184018290526002810154928401929092526003909101546060830152331480610c475750600054600160a060020a031633145b610c965760405160e560020a62461bcd02815260206004820181905260248201527f4d61726b6574706c6163653a20556e617574686f72697a65642073656e646572604482015260640161056c565b610caf8160000151848484602001518560400151611978565b5050600160025550565b600280541415610cde5760405160e560020a62461bcd02815260040161056c906131cf565b6002805560005460a060020a900460ff1615610d0f5760405160e560020a62461bcd02815260040161056c906130d1565b610d1d868686868686611ccd565b5050600160025550505050565b600054600160a060020a03163314610d575760405160e560020a62461bcd02815260040161056c9061313d565b600160a060020a0381163b610dd75760405160e560020a62461bcd02815260206004820152603660248201527f54686520616363657074656420746f6b656e2061646472657373206d7573742060448201527f62652061206465706c6f79656420636f6e747261637400000000000000000000606482015260840161056c565b80600383604051610de89190612fe2565b9081526040519081900360200181208054600160a060020a0393909316600160a060020a0319909316929092179091557f8099f178bf260dd841ddf7cbcea55060577fe6bb1489a33a3d0eb1b010de30f390610e479084908490613049565b60405180910390a15050565b600280541415610e785760405160e560020a62461bcd02815260040161056c906131cf565b6002805560005460a060020a900460ff1615610ea95760405160e560020a62461bcd02815260040161056c906130d1565b610d1d8686868686866121b7565b600054600160a060020a03163314610ee45760405160e560020a62461bcd02815260040161056c9061313d565b610eee6000612537565b565b60005460a060020a900460ff1615610f1d5760405160e560020a62461bcd02815260040161056c906130d1565b600160a060020a0380831660009081526004602081815260408084208685528252928390208351610100810185528154815260018201548616928101839052600282015486169481019490945260038101546060850152918201546080840152600582015490931660a0830152600681015460c08301526007015460e082015290331480610fb55750600054600160a060020a031633145b610fd45760405160e560020a62461bcd02815260040161056c90613108565b600160a060020a038084166000908152600560209081526040808320868452825291829020825160808101845281548082526001830154909516928101929092526002810154928201929092526003909101546060820152901561104f5761104f816000015185846000015184602001518560400151611978565b6110688260000151858460600151856080015133612587565b50505050565b6000600682815481106110945760e060020a634e487b7102600052603260045260246000fd5b90600052602060002001549050919050565b6002805414156110cb5760405160e560020a62461bcd02815260040161056c906131cf565b6002805560005460a060020a900460ff16156110fc5760405160e560020a62461bcd02815260040161056c906130d1565b6000600160a060020a03166003846040516111179190612fe2565b90815260405190819003602001902054600160a060020a031614156111515760405160e560020a62461bcd02815260040161056c90613172565b600160a060020a03808616600090815260046020818152604080842089855282529283902083516101008101855281548082526001830154871693820193909352600282015486169481019490945260038101546060850152918201546080840152600582015490931660a0830152600681015460c08301526007015460e0820152906112235760405160e560020a62461bcd02815260206004820181905260248201527f4d61726b6574706c6163653a206173736574206e6f74207075626c6973686564604482015260640161056c565b6020810151600160a060020a031633146112825760405160e560020a62461bcd02815260206004820152601f60248201527f4d61726b6574706c6163653a2073656e646572206e6f7420616c6c6f77656400604482015260640161056c565b428160e0015110156112d95760405160e560020a62461bcd02815260206004820152601a60248201527f4d61726b6574706c6163653a206f726465722065787069726564000000000000604482015260640161056c565b600083116112fc5760405160e560020a62461bcd02815260040161056c90613074565b61130742603c6126a2565b82116113a45760405160e560020a62461bcd02815260206004820152604360248201527f4d61726b6574706c6163653a204578706972652074696d652073686f756c642060448201527f6265206d6f7265207468616e2031206d696e75746520696e207468652066757460648201527f7572650000000000000000000000000000000000000000000000000000000000608482015260a40161056c565b6003846040516113b49190612fe2565b908152604080519182900360200190912054600160a060020a031660a083015260c0820184905260e08201839052815190517fae4a87638dcb8ef6c1173da80af1e320b032a8eddad61a8d52b33478f8b453ff9190600390611417908890612fe2565b908152604080516020928190038301812054938152600160a060020a039093169183019190915281018590526060810184905260800160405180910390a15050600160025550505050565b600054600160a060020a0316331461148f5760405160e560020a62461bcd02815260040161056c9061313d565b600160a060020a03811661150e5760405160e560020a62461bcd02815260206004820152602660248201527f4f776e61626c653a206e6577206f776e657220697320746865207a65726f206160448201527f6464726573730000000000000000000000000000000000000000000000000000606482015260840161056c565b61081181612537565b60028054141561153c5760405160e560020a62461bcd02815260040161056c906131cf565b6002805560005460a060020a900460ff161561156d5760405160e560020a62461bcd02815260040161056c906130d1565b61157b8686868686866121b7565b60006115878688611749565b905060008160a00151905060006005600089600160a060020a0316600160a060020a0316815260200190815260200160002060008a8152602001908152602001600020604051806080016040529081600082015481526020016001820160009054906101000a9004600160a060020a0316600160a060020a0316600160a060020a031681526020016002820154815260200160038201548152505090506005600089600160a060020a0316600160a060020a0316815260200190815260200160002060008a81526020019081526020016000206000808201600090556001820160006101000a815490600160a060020a0302191690556002820160009055600382016000905550507ff8c7d5572fa269efc040934ae7553d57f8906bffd616254bef0b94e2b569e41681600001516040516116c491815260200190565b60405180910390a160006116ee620f424061066860015485604001516118b490919063ffffffff16565b905061170f8460200151610b5083856040015161196c90919063ffffffff16565b611732846000015183602001518b876060015188608001518960a001518c611a1a565b505060016002555050505050505050565b3b151590565b6040805161010081018252600080825260208201819052918101829052606081018290526080810182905260a0810182905260c0810182905260e081019190915250600160a060020a03808316600090815260046020818152604080842086855282529283902083516101008101855281548082526001830154871693820193909352600282015486169481019490945260038101546060850152918201546080840152600582015490931660a0830152600681015460c08301526007015460e08201529061185d5760405160e560020a62461bcd02815260206004820181905260248201527f4d61726b6574706c6163653a206173736574206e6f74207075626c6973686564604482015260640161056c565b428160e0015110156107d15760405160e560020a62461bcd02815260206004820152601a60248201527f4d61726b6574706c6163653a206f726465722065787069726564000000000000604482015260640161056c565b60006118c08284613272565b9392505050565b60006118c0828461324f565b604051600160a060020a03808516602483015283166044820152606481018290526110689085907f23b872dd00000000000000000000000000000000000000000000000000000000906084015b60408051601f198184030181529190526020810180517bffffffffffffffffffffffffffffffffffffffffffffffffffffffff16600160e060020a0319909316929092179091526126ae565b60006118c08284613291565b60006119848585611749565b60a0810151600160a060020a0380881660009081526005602090815260408083208a84529091528120818155600181018054600160a060020a03191690556002810182905560030155919250906119de9082168585611c7f565b6040518781527fb56dc4096011ba5fd2e46e5c3e7b04dec423b5e7b5fce9a17a419d77c832177c9060200160405180910390a150505050505050565b600160a060020a03851660008181526004602081815260408084208c8552909152808320838155600181018054600160a060020a031990811690915560028201805482169055600382018590558184018590556005820180549091169055600681018490556007019290925590517ff242432a00000000000000000000000000000000000000000000000000000000815263f242432a91611ac39130918b918a918a9101612ffe565b600060405180830381600087803b158015611add57600080fd5b505af1158015611af1573d6000803e3d6000fd5b505050508082600160a060020a031687600160a060020a03167fa151faebeb42aa92dc339c6a3583e07f90266c631e4d8ac0628a63ccab4981338a604051611b3b91815260200190565b60405180910390a450505050505050565b60005460a060020a900460ff16611ba85760405160e560020a62461bcd02815260206004820152601460248201527f5061757361626c653a206e6f7420706175736564000000000000000000000000604482015260640161056c565b6000805474ff0000000000000000000000000000000000000000191690557f5db9ee0a495bf2e6ff9c91a7834c1ba4fdd244a5e8aa4e537bd38aeae4b073aa335b604051600160a060020a03909116815260200160405180910390a1565b60005460a060020a900460ff1615611c335760405160e560020a62461bcd02815260040161056c906130d1565b6000805474ff0000000000000000000000000000000000000000191660a060020a1790557f62e78cea01bee320cd4e420270b5ea74000d11b0c9f74754ebdbfc544b05a258611be93390565b604051600160a060020a038316602482015260448101829052611cc89084907fa9059cbb0000000000000000000000000000000000000000000000000000000090606401611920565b505050565b6000600160a060020a0316600387604051611ce89190612fe2565b90815260405190819003602001902054600160a060020a03161415611d225760405160e560020a62461bcd02815260040161056c90613172565b6000611d2d86612796565b6040517efdd58e00000000000000000000000000000000000000000000000000000000815233600482015260248101879052909150600090600160a060020a0383169062fdd58e9060440160206040518083038186803b158015611d9057600080fd5b505afa158015611da4573d6000803e3d6000fd5b505050506040513d601f19601f82011682018060405250810190611dc89190612f9e565b905084811015611e695760405160e560020a62461bcd02815260206004820152604c60248201527f4d61726b6574706c6163653a204f6e6c7920746865206173736574206f776e6560448201527f722062616c616e63652073686f756c6420626520626967676572207468616e2060648201527f5f6173736574416d6f756e740000000000000000000000000000000000000000608482015260a40161056c565b60008411611e8c5760405160e560020a62461bcd02815260040161056c90613074565b611e9742603c6126a2565b8311611f345760405160e560020a62461bcd02815260206004820152604360248201527f4d61726b6574706c6163653a205075626c69636174696f6e2073686f756c642060448201527f6265206d6f7265207468616e2031206d696e75746520696e207468652066757460648201527f7572650000000000000000000000000000000000000000000000000000000000608482015260a40161056c565b6040517ff242432a000000000000000000000000000000000000000000000000000000008152600160a060020a0383169063f242432a90611f7f90339030908b908b90600401612ffe565b600060405180830381600087803b158015611f9957600080fd5b505af1158015611fad573d6000803e3d6000fd5b5050604080514260208201526c0100000000000000000000000033810292820192909252600160a060020a038b16909102605482015260688101899052608881018790526000925060a801905060405160208183030381529060405280519060200120905060405180610100016040528082815260200133600160a060020a0316815260200189600160a060020a0316815260200188815260200187815260200160038b60405161205e9190612fe2565b9081526040805191829003602090810190922054600160a060020a0390811684528383018a90529281018890528b8316600090815260048084528282208783528452908290208551815592850151600184018054918616600160a060020a0319928316179055918501516002840180549186169184169190911790556060850151600384015560808501519083015560a08401516005830180549190941691161790915560c0820151600682015560e09091015160079091015561212181612940565b87600160a060020a031633600160a060020a031660038b6040516121459190612fe2565b908152604080519182900360209081018320548684529083018c90529082018a90526060820189905260808201889052600160a060020a0316907f7448c7b7b021897f4f19bd7cdda03bed9c26cf75e56ea3bafd3c0d2c7ef24f4b9060a00160405180910390a4505050505050505050565b60006121c38688611749565b60a081015160e0820151919250908311156121e0578160e0015192505b600160a060020a0380881660009081526005602090815260408083208c8452825291829020825160808101845281548082526001830154909516928101929092526002810154928201929092526003909101546060820152901561233f57428160600151106122ca57806040015185116122c55760405160e560020a62461bcd02815260206004820152603560248201527f4d61726b6574706c6163653a206269642070726963652073686f756c6420626560448201527f20686967686572207468616e206c617374206269640000000000000000000000606482015260840161056c565b61231d565b6000851161231d5760405160e560020a62461bcd02815260206004820152601e60248201527f4d61726b6574706c6163653a206269642073686f756c64206265203e20300000604482015260640161056c565b61233a816000015189856000015184602001518560400151611978565b612392565b600085116123925760405160e560020a62461bcd02815260206004820152601e60248201527f4d61726b6574706c6163653a206269642073686f756c64206265203e20300000604482015260640161056c565b6123a7600160a060020a0383163330886118d3565b8251604080514260208201526c010000000000000000000000003302918101919091526054810191909152607481018690526094810185905260009060b401604051602081830303815290604052805190602001209050604051806080016040528082815260200133600160a060020a0316815260200187815260200186815250600560008b600160a060020a0316600160a060020a0316815260200190815260200160002060008c81526020019081526020016000206000820151816000015560208201518160010160006101000a815481600160a060020a030219169083600160a060020a03160217905550604082015181600201556060820151816003015590505033600160a060020a0316888a600160a060020a03167f60947d25da0eb5342327495b8aa4c936c13397cdc90a179d1289bccde4d0b35f848b8960a001518c8c6040516125239594939291909485526020850193909352600160a060020a039190911660408401526060830152608082015260a00190565b60405180910390a450505050505050505050565b60008054600160a060020a03838116600160a060020a0319831681178455604051919092169283917f8be0079c531659141344cd1fd0a4f28419497f9722a3daafe3b4186f6b6457e09190a35050565b600160a060020a03841660008181526004602081815260408084208a8552909152808320838155600181018054600160a060020a031990811690915560028201805482169055600382018590558184018590556005820180549091169055600681018490556007019290925590517ff242432a00000000000000000000000000000000000000000000000000000000815263f242432a9161263091309186918991899101612ffe565b600060405180830381600087803b15801561264a57600080fd5b505af115801561265e573d6000803e3d6000fd5b505050507f5152abf959f6564662358c2e52b702259b78bac5ee7842a0f01937e670efcc7d8560405161269391815260200190565b60405180910390a15050505050565b60006118c08284613237565b6000612703826040518060400160405280602081526020017f5361666545524332303a206c6f772d6c6576656c2063616c6c206661696c656481525085600160a060020a031661298a9092919063ffffffff16565b805190915015611cc857808060200190518101906127219190612e2d565b611cc85760405160e560020a62461bcd02815260206004820152602a60248201527f5361666545524332303a204552433230206f7065726174696f6e20646964206e60448201527f6f74207375636365656400000000000000000000000000000000000000000000606482015260840161056c565b6000600160a060020a0382163b6128175760405160e560020a62461bcd028152602060048201526024808201527f546865204e465420416464726573732073686f756c64206265206120636f6e7460448201527f7261637400000000000000000000000000000000000000000000000000000000606482015260840161056c565b6040517f01ffc9a70000000000000000000000000000000000000000000000000000000081527fd9b67a26000000000000000000000000000000000000000000000000000000006004820152600160a060020a038316906301ffc9a79060240160206040518083038186803b15801561288f57600080fd5b505afa1580156128a3573d6000803e3d6000fd5b505050506040513d601f19601f820116820180604052508101906128c79190612e2d565b61293c5760405160e560020a62461bcd02815260206004820152603660248201527f546865204e465420636f6e74726163742068617320616e20696e76616c69642060448201527f4552433131353520696d706c656d656e746174696f6e00000000000000000000606482015260840161056c565b5090565b6006805460018101825560009182527ff652222313e28459528d920b65115c16c04f3efc82aaedc97be59f3f377c0d3f018290556007805491612982836132d4565b919050555050565b606061299984846000856129a1565b949350505050565b60603031831115612a1d5760405160e560020a62461bcd02815260206004820152602660248201527f416464726573733a20696e73756666696369656e742062616c616e636520666f60448201527f722063616c6c0000000000000000000000000000000000000000000000000000606482015260840161056c565b843b612a6e5760405160e560020a62461bcd02815260206004820152601d60248201527f416464726573733a2063616c6c20746f206e6f6e2d636f6e7472616374000000604482015260640161056c565b60008086600160a060020a03168587604051612a8a9190612fe2565b60006040518083038185875af1925050503d8060008114612ac7576040519150601f19603f3d011682016040523d82523d6000602084013e612acc565b606091505b5091509150612adc828286612ae7565b979650505050505050565b60608315612af65750816118c0565b825115612b065782518084602001fd5b8160405160e560020a62461bcd02815260040161056c9190613036565b8035600160a060020a0381168114612b3a57600080fd5b919050565b600082601f830112612b4f578081fd5b8135602067ffffffffffffffff821115612b6b57612b6b613308565b808202612b79828201613206565b838152828101908684018388018501891015612b93578687fd5b8693505b85841015612bb5578035835260019390930192918401918401612b97565b50979650505050505050565b600082601f830112612bd1578081fd5b813567ffffffffffffffff811115612beb57612beb613308565b612bfe601f8201601f1916602001613206565b818152846020838601011115612c12578283fd5b816020850160208301379081016020019190915292915050565b600060208284031215612c3d578081fd5b6118c082612b23565b600080600080600060a08688031215612c5d578081fd5b612c6686612b23565b9450612c7460208701612b23565b9350604086013567ffffffffffffffff80821115612c90578283fd5b612c9c89838a01612b3f565b94506060880135915080821115612cb1578283fd5b612cbd89838a01612b3f565b93506080880135915080821115612cd2578283fd5b50612cdf88828901612bc1565b9150509295509295909350565b600080600080600060a08688031215612d03578081fd5b612d0c86612b23565b9450612d1a60208701612b23565b93506040860135925060608601359150608086013567ffffffffffffffff811115612d43578182fd5b612cdf88828901612bc1565b60008060408385031215612d61578182fd5b612d6a83612b23565b946020939093013593505050565b600080600080600060a08688031215612d8f578081fd5b612d9886612b23565b945060208601359350604086013567ffffffffffffffff811115612dba578182fd5b612dc688828901612bc1565b9598949750949560608101359550608001359392505050565b600080600060608486031215612df3578283fd5b612dfc84612b23565b95602085013595506040909401359392505050565b600060208284031215612e22578081fd5b81356118c081613321565b600060208284031215612e3e578081fd5b81516118c081613321565b60008060008060008060c08789031215612e61578384fd5b86359550612e7160208801612b23565b95989597505050506040840135936060810135936080820135935060a0909101359150565b600060208284031215612ea7578081fd5b8135600160e060020a0319811681146118c0578182fd5b600060208284031215612ecf578081fd5b813567ffffffffffffffff811115612ee5578182fd5b61299984828501612bc1565b60008060408385031215612f03578182fd5b823567ffffffffffffffff811115612f19578283fd5b612f2585828601612bc1565b925050612f3460208401612b23565b90509250929050565b60008060008060008060c08789031215612f55578384fd5b863567ffffffffffffffff811115612f6b578485fd5b612f7789828a01612bc1565b965050612e7160208801612b23565b600060208284031215612f97578081fd5b5035919050565b600060208284031215612faf578081fd5b5051919050565b60008151808452612fce8160208601602086016132a8565b601f01601f19169290920160200192915050565b60008251612ff48184602087016132a8565b9190910192915050565b600160a060020a0394851681529290931660208301526040820152606081019190915260a06080820181905260009082015260c00190565b6020815260006118c06020830184612fb6565b60408152600061305c6040830185612fb6565b9050600160a060020a03831660208301529392505050565b6020808252602a908201527f4d61726b6574706c6163653a2050726963652073686f756c642062652062696760408201527f676572207468616e203000000000000000000000000000000000000000000000606082015260800190565b60208082526010908201527f5061757361626c653a2070617573656400000000000000000000000000000000604082015260600190565b6020808252818101527f4d61726b6574706c6163653a20756e617574686f72697a65642073656e646572604082015260600190565b6020808252818101527f4f776e61626c653a2063616c6c6572206973206e6f7420746865206f776e6572604082015260600190565b60208082526022908201527f6e6f7420737570706f7274207468697320616464726573732070617920746f6b60408201527f656e000000000000000000000000000000000000000000000000000000000000606082015260800190565b6020808252601f908201527f5265656e7472616e637947756172643a207265656e7472616e742063616c6c00604082015260600190565b604051601f8201601f1916810167ffffffffffffffff8111828210171561322f5761322f613308565b604052919050565b6000821982111561324a5761324a6132ef565b500190565b60008261326d5760e060020a634e487b710281526012600452602481fd5b500490565b600081600019048311821515161561328c5761328c6132ef565b500290565b6000828210156132a3576132a36132ef565b500390565b60005b838110156132c35781810151838201526020016132ab565b838111156110685750506000910152565b60006000198214156132e8576132e86132ef565b5060010190565b60e060020a634e487b7102600052601160045260246000fd5b60e060020a634e487b7102600052604160045260246000fd5b801515811461081157600080fdfea264697066735822122056ebb0f16eb04b370cb9ea1c37aed6b3be46ce37eb8b0f26a460f052b5d1d42c64736f6c63430008040033",
  "immutableReferences": {},
  "source": "// SPDX-License-Identifier: MIT\npragma solidity ^0.8.0;\n\nimport \"@openzeppelin/contracts/access/Ownable.sol\";\nimport \"@openzeppelin/contracts/utils/math/SafeMath.sol\";\n\nimport \"@openzeppelin/contracts/utils/Address.sol\";\nimport \"@openzeppelin/contracts/security/Pausable.sol\";\nimport \"@openzeppelin/contracts/security/ReentrancyGuard.sol\";\nimport \"@openzeppelin/contracts/token/ERC1155/utils/ERC1155Holder.sol\";\nimport \"@openzeppelin/contracts/token/ERC20/utils/SafeERC20.sol\";\n\nimport \"@openzeppelin/contracts/token/ERC1155/IERC1155.sol\";\nimport \"./interfaces/IMultiTokenTrustMarketplace.sol\";\nimport \"./FeeManager.sol\";\n\n\ncontract MultiTokenTrustMarketplace is Ownable, Pausable, FeeManager, IMultiTokenTrustMarketplace, ERC1155Holder, ReentrancyGuard {\n\n    using Address for address;\n    using SafeMath for uint256;\n    using SafeERC20 for IERC20;\n\n    // constants\n    address constant ADDRESS_NULL = 0x0000000000000000000000000000000000000000;\n\n    // pay_token_name => token_address\n    mapping(string => address) public  payTokens;\n\n    // From ERC1155 registry OrderId to Order (to avoid asset collision)\n    // ERC1155 contract Address => OrderId => Order\n    mapping(address => mapping(bytes32 => Order)) public orderByOrderId;\n\n    // From ERC1155 registry assetId to Bid (to avoid asset collision)\n    // ERC1155 contract Address => OrderId => Order\n    mapping(address => mapping(bytes32 => Bid)) public bidByOrderId;\n\n    // 721 Interfaces\n    bytes4 public constant _INTERFACE_ID_ERC1155 = 0xd9b67a26;\n\n    /* All the order id are stored here */\n    bytes32[] private orderIds;\n\n    // current order size\n    uint256 private _orderSize = 0;\n\n    /**\n     * @dev Initialize this contract. Acts as a constructor\n     * @param _payTokenAddress - currency for payments\n     */\n    constructor(string memory _payTokenName, address _payTokenAddress) Ownable() {\n        require(\n            _payTokenAddress.isContract(),\n            \"The accepted token address must be a deployed contract\"\n        );\n\t\tpayTokens[_payTokenName] = _payTokenAddress;\n        emit SetNewPayToken(_payTokenName, _payTokenAddress);\n    }\n\n    function setPayToken(string memory _token_name, address _token_address) external onlyOwner {\n        require(\n            _token_address.isContract(),\n            \"The accepted token address must be a deployed contract\"\n        );\n\t\tpayTokens[_token_name] = _token_address;\n        emit SetNewPayToken(_token_name, _token_address);\n\t}\n\n    /**\n     * @dev Sets the paused failsafe. Can only be called by owner\n     * @param _setPaused - paused state\n     */\n    function setPaused(bool _setPaused) public onlyOwner {\n        return (_setPaused) ? _pause() : _unpause();\n    }\n\n    /**\n     * @dev Creates a new order\n     * @param _nftAddress - Non fungible registry address\n     * @param _assetId - ID of the published NFT\n     * @param _priceInWei - Price in Wei for the supported coin\n     * @param _expiresAt - Duration of the order (in hours)\n     */\n    function createOrder(\n        string memory _payTokenName,\n        address _nftAddress,\n        uint256 _assetId,\n        uint256 _assetAmount,\n        uint256 _priceInWei,\n        uint256 _expiresAt\n    )\n        public nonReentrant whenNotPaused\n    {\n        _createOrder(_payTokenName, _nftAddress, _assetId, _assetAmount, _priceInWei, _expiresAt);\n    }\n\n\n    /**\n     * @dev Cancel an already published order\n     *  can only be canceled by seller or the contract owner\n     * @param _nftAddress - Address of the NFT registry\n     * @param _orderId - ID of the Order\n     */\n    function cancelOrder(\n        address _nftAddress,\n        bytes32 _orderId\n    )\n        public whenNotPaused\n    {\n        Order memory order = orderByOrderId[_nftAddress][_orderId];\n\n        require(\n            order.seller == msg.sender || msg.sender == owner(),\n            \"Marketplace: unauthorized sender\"\n        );\n\n        // Remove pending bid if any\n        Bid memory bid = bidByOrderId[_nftAddress][_orderId];\n\n        if (bid.id != 0) {\n            _cancelBid(\n                bid.id,\n                _nftAddress,\n                order.id,\n                bid.bidder,\n                bid.price\n            );\n        }\n\n        // Cancel order.\n        _cancelOrder(\n            order.id,\n            _nftAddress,\n            order.assetId,\n            order.assetAmount,\n            msg.sender\n        );\n    }\n\n\n    /**\n     * @dev Update an already published order\n     *  can only be updated by seller\n     * @param _nftAddress - Address of the NFT registry\n     * @param _orderId - ID of the Order\n     */\n    function updateOrder(\n        address _nftAddress,\n        bytes32 _orderId,\n        string memory _payTokenName,\n        uint256 _priceInWei,\n        uint256 _expiresAt\n    )\n        public nonReentrant whenNotPaused\n    {\n        // Check pay token\n        require(payTokens[_payTokenName] != ADDRESS_NULL, \"not support this address pay token\");\n\n        Order memory order = orderByOrderId[_nftAddress][_orderId];\n\n        // Check valid order to update\n        require(order.id != 0, \"Marketplace: asset not published\");\n        require(order.seller == msg.sender, \"Marketplace: sender not allowed\");\n        require(order.expiresAt >= block.timestamp, \"Marketplace: order expired\");\n\n        // check order updated params\n        require(_priceInWei > 0, \"Marketplace: Price should be bigger than 0\");\n        require(\n            _expiresAt > block.timestamp.add(1 minutes),\n            \"Marketplace: Expire time should be more than 1 minute in the future\"\n        );\n        order.payTokenAddress = payTokens[_payTokenName];\n        order.price = _priceInWei;\n        order.expiresAt = _expiresAt;\n\n        emit OrderUpdated(order.id, payTokens[_payTokenName], _priceInWei, _expiresAt);\n    }\n\n\n    /**\n     * @dev Executes the sale for a published NFT and checks for the asset fingerprint\n     * @param _nftAddress - Address of the NFT registry\n     * @param _orderId - ID of the Order\n     * @param _priceInWei - Order price\n     */\n    function safeExecuteOrder(\n        address _nftAddress,\n        bytes32 _orderId,\n        uint256 _priceInWei\n    )\n        public nonReentrant whenNotPaused\n    {\n        // Get the current valid order for the asset or fail\n        Order memory order = _getValidOrder(\n            _nftAddress,\n            _orderId\n        );\n        IERC20 acceptedToken = IERC20(order.payTokenAddress);\n\n        /// Check the execution price matches the order price\n        require(order.price == _priceInWei, \"Marketplace: invalid price\");\n        require(order.seller != msg.sender, \"Marketplace: unauthorized sender\");\n\n        // market fee to cut\n        uint256 saleShareAmount = 0;\n\n        // Send market fees to owner\n        if (FeeManager.cutPerMillion > 0) {\n            // Calculate sale share\n            saleShareAmount = _priceInWei\n                .mul(FeeManager.cutPerMillion)\n                .div(1e6);\n\n            // Transfer share amount for marketplace Owner\n            acceptedToken.safeTransferFrom(\n                msg.sender, //buyer\n                owner(),\n                saleShareAmount\n            );\n        }\n\n        // Transfer accepted token amount minus market fee to seller\n        acceptedToken.safeTransferFrom(\n            msg.sender, // buyer\n            order.seller, // seller\n            order.price.sub(saleShareAmount)\n        );\n\n        // Remove pending bid if any\n        Bid memory bid = bidByOrderId[_nftAddress][_orderId];\n\n        if (bid.id != 0) {\n            _cancelBid(\n                bid.id,\n                _nftAddress,\n                _orderId,\n                bid.bidder,\n                bid.price\n            );\n        }\n\n        _executeOrder(\n            order.id,\n            msg.sender, // buyer\n            _nftAddress,\n            order.assetId,\n            order.assetAmount,\n            order.payTokenAddress,\n            _priceInWei\n        );\n    }\n\n\n    /**\n     * @dev Places a bid for a published NFT and checks for the asset fingerprint\n     * @param _nftAddress - Address of the NFT registry\n     * @param _assetId - ID of the published NFT\n     * @param _priceInWei - Bid price in acceptedToken currency\n     * @param _expiresAt - Bid expiration time\n     */\n    function createBid(\n        bytes32 _orderId,\n        address _nftAddress,\n        uint256 _assetId,\n        uint256 _assetAmount,\n        uint256 _priceInWei,\n        uint256 _expiresAt\n    )\n        public nonReentrant whenNotPaused\n    {\n        _createBid(\n            _orderId,\n            _nftAddress,\n            _assetId,\n            _assetAmount,\n            _priceInWei,\n            _expiresAt\n        );\n    }\n\n    /**\n     * @dev Places a bid for a published NFT and checks for the asset fingerprint\n     * @param _nftAddress - Address of the NFT registry\n     * @param _assetId - ID of the published NFT\n     * @param _priceInWei - Bid price in acceptedToken currency\n     * @param _expiresAt - Bid expiration time\n     */\n    function safePlaceBid(\n        bytes32 _orderId,\n        address _nftAddress,\n        uint256 _assetId,\n        uint256 _assetAmount,\n        uint256 _priceInWei,\n        uint256 _expiresAt\n    )\n        public nonReentrant whenNotPaused\n    {\n        _createBid(\n            _orderId,\n            _nftAddress,\n            _assetId,\n            _assetAmount,\n            _priceInWei,\n            _expiresAt\n        );\n\n        Order memory order = _getValidOrder(_nftAddress, _orderId);\n        IERC20 acceptedToken = IERC20(order.payTokenAddress);\n\n        Bid memory bid = bidByOrderId[_nftAddress][_orderId];\n\n        // remove bid\n        delete bidByOrderId[_nftAddress][_orderId];\n\n        emit BidAccepted(bid.id);\n\n        // calc market fees\n        uint256 saleShareAmount = bid.price\n            .mul(FeeManager.cutPerMillion)\n            .div(1e6);\n\n        // transfer escrowed bid amount minus market fee to seller\n        acceptedToken.safeTransfer(\n            order.seller,\n            bid.price.sub(saleShareAmount)\n        );\n\n        _executeOrder(\n            order.id,\n            bid.bidder,\n            _nftAddress,\n            order.assetId,\n            order.assetAmount,\n            order.payTokenAddress,\n            _priceInWei\n        );\n    }\n\n\n    /**\n     * @dev Cancel an already published bid\n     *  can only be canceled by seller or the contract owner\n     * @param _nftAddress - Address of the NFT registry\n     * @param _orderId - ID of the order\n     */\n    function cancelBid(\n        address _nftAddress,\n        bytes32 _orderId\n    )\n        public nonReentrant whenNotPaused\n    {\n        Bid memory bid = bidByOrderId[_nftAddress][_orderId];\n\n        require(\n            bid.bidder == msg.sender || msg.sender == owner(),\n            \"Marketplace: Unauthorized sender\"\n        );\n\n        _cancelBid(\n            bid.id,\n            _nftAddress,\n            _orderId,\n            bid.bidder,\n            bid.price\n        );\n    }\n\n\n    /**\n     * @dev Executes the sale for a published NFT by accepting a current bid\n     * @param _nftAddress - Address of the NFT registry\n     * @param _orderId - ID of Order\n     * @param _priceInWei - Bid price in wei in acceptedTokens currency\n     */\n    function acceptBid(\n        address _nftAddress,\n        bytes32 _orderId,\n        uint256 _priceInWei\n    )\n        public nonReentrant whenNotPaused\n    {\n        // check order validity\n        Order memory order = _getValidOrder(_nftAddress, _orderId);\n        IERC20 acceptedToken = IERC20(order.payTokenAddress);\n\n        // item seller is the only allowed to accept a bid\n        require(order.seller == msg.sender, \"Marketplace: unauthorized sender\");\n\n        Bid memory bid = bidByOrderId[_nftAddress][_orderId];\n\n        require(bid.price == _priceInWei, \"Marketplace: invalid bid price\");\n        require(bid.expiresAt >= block.timestamp, \"Marketplace: the bid expired\");\n\n        // remove bid\n        delete bidByOrderId[_nftAddress][_orderId];\n\n        emit BidAccepted(bid.id);\n\n        // calc market fees\n        uint256 saleShareAmount = bid.price\n            .mul(FeeManager.cutPerMillion)\n            .div(1e6);\n\n        // transfer escrowed bid amount minus market fee to seller\n        acceptedToken.safeTransfer(\n            order.seller,\n            bid.price.sub(saleShareAmount)\n        );\n\n        _executeOrder(\n            order.id,\n            bid.bidder,\n            _nftAddress,\n            order.assetId,\n            order.assetAmount,\n            order.payTokenAddress,\n            _priceInWei\n        );\n    }\n\n    /**\n     * @dev value of _orderSize\n     * @return uint256 for the _orderSize\n     */\n    function getOrderSize() public view returns (uint256) {\n        return _orderSize;\n    }\n\n    /**\n     * @dev value of orderId\n     * @return uint256 for the _orderIndex\n     */\n    function getOrderId(uint256 _orderIndex) public view returns (bytes32) {\n        return orderIds[_orderIndex];\n    }\n\n    /**\n     * @dev Internal function gets Order by nftRegistry and assetId. Checks for the order validity\n     * @param _nftAddress - Address of the NFT registry\n     * @param _orderId - ID of Order\n     */\n    function _getValidOrder(\n        address _nftAddress,\n        bytes32 _orderId\n    )\n        internal view returns (Order memory order)\n    {\n        order = orderByOrderId[_nftAddress][_orderId];\n\n        require(order.id != 0, \"Marketplace: asset not published\");\n        require(order.expiresAt >= block.timestamp, \"Marketplace: order expired\");\n    }\n\n\n    /**\n     * @dev Executes the sale for a published NFT\n     * @param _orderId - Order Id to execute\n     * @param _buyer - address\n     * @param _nftAddress - Address of the NFT registry\n     * @param _assetId - NFT id\n     * @param _priceInWei - Order price\n     */\n    function _executeOrder(\n        bytes32 _orderId,\n        address _buyer,\n        address _nftAddress,\n        uint256 _assetId,\n        uint256 _assetAmount,\n        address _payTokenAddress,\n        uint256 _priceInWei\n    )\n        internal\n    {\n        // remove order\n        delete orderByOrderId[_nftAddress][_orderId];\n\n        // Transfer NFT asset\n        IERC1155(_nftAddress).safeTransferFrom(\n            address(this),\n            _buyer,\n            _assetId,\n            _assetAmount,\n            \"\"\n        );\n\n        // Notify ..\n        emit OrderSuccessful(\n            _orderId,\n            _buyer,\n            _payTokenAddress,\n            _priceInWei\n        );\n    }\n\n\n    /**\n     * @dev Creates a new order\n     * @param _nftAddress - Non fungible registry address\n     * @param _assetId - ID of the published NFT\n     * @param _priceInWei - Price in Wei for the supported coin\n     * @param _expiresAt - Expiration time for the order\n     */\n    function _createOrder(\n        string memory _payTokenName,\n        address _nftAddress,\n        uint256 _assetId,\n        uint256 _assetAmount,\n        uint256 _priceInWei,\n        uint256 _expiresAt\n    )\n        internal\n    {\n        // Check pay token\n        require(payTokens[_payTokenName] != ADDRESS_NULL, \"not support this address pay token\");\n\n        // Check nft registry\n        IERC1155 nftRegistry = _requireERC1155(_nftAddress);\n\n        // Check order creator is the asset owner\n        uint256 assetOwnerBalance = nftRegistry.balanceOf(msg.sender, _assetId);\n\n        require(\n            assetOwnerBalance >= _assetAmount,\n            \"Marketplace: Only the asset owner balance should be bigger than _assetAmount\"\n        );\n\n        require(_priceInWei > 0, \"Marketplace: Price should be bigger than 0\");\n\n        require(\n            _expiresAt > block.timestamp.add(1 minutes),\n            \"Marketplace: Publication should be more than 1 minute in the future\"\n        );\n\n        // get NFT asset from seller\n        nftRegistry.safeTransferFrom(\n            msg.sender,\n            address(this),\n            _assetId,\n            _assetAmount,\n            \"\"\n        );\n\n        // create the orderId\n        bytes32 orderId = keccak256(\n            abi.encodePacked(\n                block.timestamp,\n                msg.sender,\n                _nftAddress,\n                _assetId,\n                _priceInWei\n            )\n        );\n\n        // save order\n        orderByOrderId[_nftAddress][orderId] = Order({\n            id: orderId,\n            seller: msg.sender,\n            nftAddress: _nftAddress,\n            assetId: _assetId,\n            assetAmount: _assetAmount,\n            payTokenAddress: payTokens[_payTokenName],\n            price: _priceInWei,\n            expiresAt: _expiresAt\n        });\n        // increment Order\n        _incrementOrder(orderId);\n\n        emit OrderCreated(\n            orderId,\n            payTokens[_payTokenName],\n            msg.sender,\n            _nftAddress,\n            _assetId,\n            _assetAmount,\n            _priceInWei,\n            _expiresAt\n        );\n    }\n\n\n    /**\n     * @dev Creates a new bid on a existing order\n     * @param _nftAddress - Non fungible registry address\n     * @param _assetId - ID of the published NFT\n     * @param _priceInWei - Price in Wei for the supported coin\n     * @param _expiresAt - expires time\n     */\n    function _createBid(\n        bytes32 _orderId,\n        address _nftAddress,\n        uint256 _assetId,\n        uint256 _assetAmount,\n        uint256 _priceInWei,\n        uint256 _expiresAt\n    )\n        internal\n    {\n        // Checks order validity\n        Order memory order = _getValidOrder(_nftAddress, _orderId);\n        IERC20 acceptedToken = IERC20(order.payTokenAddress);\n\n        // check on expire time\n        if (_expiresAt > order.expiresAt) {\n            _expiresAt = order.expiresAt;\n        }\n\n        // Check price if theres previous a bid\n        Bid memory bid = bidByOrderId[_nftAddress][_orderId];\n\n        // if theres no previous bid, just check price > 0\n        if (bid.id != 0) {\n            if (bid.expiresAt >= block.timestamp) {\n                require(\n                    _priceInWei > bid.price,\n                    \"Marketplace: bid price should be higher than last bid\"\n                );\n\n            } else {\n                require(_priceInWei > 0, \"Marketplace: bid should be > 0\");\n            }\n\n            _cancelBid(\n                bid.id,\n                _nftAddress,\n                order.id,\n                bid.bidder,\n                bid.price\n            );\n\n        } else {\n            require(_priceInWei > 0, \"Marketplace: bid should be > 0\");\n        }\n\n        // Transfer sale amount from bidder to escrow\n        acceptedToken.safeTransferFrom(\n            msg.sender, // bidder\n            address(this),\n            _priceInWei\n        );\n\n        // Create bid\n        bytes32 bidId = keccak256(\n            abi.encodePacked(\n                block.timestamp,\n                msg.sender,\n                order.id,\n                _priceInWei,\n                _expiresAt\n            )\n        );\n\n        // Save Bid for this order\n        bidByOrderId[_nftAddress][_orderId] = Bid({\n            id: bidId,\n            bidder: msg.sender,\n            price: _priceInWei,\n            expiresAt: _expiresAt\n        });\n\n        emit BidCreated(\n            bidId,\n            _nftAddress,\n            _assetId,\n            _assetAmount,\n            msg.sender, // bidder\n            order.payTokenAddress,\n            _priceInWei,\n            _expiresAt\n        );\n    }\n\n\n    /**\n     * @dev Cancel an already published order\n     *  can only be canceled by seller or the contract owner\n     * @param _orderId - Bid identifier\n     * @param _nftAddress - Address of the NFT registry\n     * @param _assetId - ID of the published NFT\n     * @param _seller - Address\n     */\n    function _cancelOrder(\n        bytes32 _orderId,\n        address _nftAddress,\n        uint256 _assetId,\n        uint256 _assetAmount,\n        address _seller\n    )\n        internal\n    {\n        delete orderByOrderId[_nftAddress][_orderId];\n\n        /// send asset back to seller\n        IERC1155(_nftAddress).safeTransferFrom(\n            address(this),\n            _seller,\n            _assetId,\n            _assetAmount,\n            \"\"\n        );\n\n        emit OrderCancelled(_orderId);\n    }\n\n\n    /**\n     * @dev Cancel bid from an already published order\n     *  can only be canceled by seller or the contract owner\n     * @param _bidId - Bid identifier\n     * @param _nftAddress - registry address\n     * @param _orderId - ID of Order\n     * @param _bidder - Address\n     * @param _escrowAmount - in acceptenToken currency\n     */\n    function _cancelBid(\n        bytes32 _bidId,\n        address _nftAddress,\n        bytes32 _orderId,\n        address _bidder,\n        uint256 _escrowAmount\n    )\n        internal\n    {\n        // Get the current valid order for the asset or fail\n        Order memory order = _getValidOrder(\n            _nftAddress,\n            _orderId\n        );\n        IERC20 acceptedToken = IERC20(order.payTokenAddress);\n\n        delete bidByOrderId[_nftAddress][_orderId];\n\n        // return escrow to canceled bidder\n        acceptedToken.safeTransfer(\n            _bidder,\n            _escrowAmount\n        );\n\n        emit BidCancelled(_bidId);\n    }\n\n\n    function _requireERC1155(address _nftAddress) internal view returns (IERC1155) {\n        require(\n            _nftAddress.isContract(),\n            \"The NFT Address should be a contract\"\n        );\n        require(\n            IERC1155(_nftAddress).supportsInterface(_INTERFACE_ID_ERC1155),\n            \"The NFT contract has an invalid ERC1155 implementation\"\n        );\n        return IERC1155(_nftAddress);\n    }\n\n    /**\n     * @dev increments the value of _orderSize\n     */\n    function _incrementOrder(bytes32 orderId) private  {\n        orderIds.push(orderId);\n        _orderSize++;\n    }\n}",
  "sourcePath": "/Users/tuminfei/Code/Nodejs/uniarts-eth-dao/contracts/core/MultiTokenTrustMarketplace.sol",
  "compiler": {
    "name": "solc",
    "version": "0.8.4+commit.c7e474f2.Emscripten.clang"
  },
  "schemaVersion": "3.3.0",
  "updatedAt": "2021-12-06T05:13:37.225Z",
  "devdoc": {
    "kind": "dev",
    "methods": {
      "acceptBid(address,bytes32,uint256)": {
        "details": "Executes the sale for a published NFT by accepting a current bid",
        "params": {
          "_nftAddress": "- Address of the NFT registry",
          "_orderId": "- ID of Order",
          "_priceInWei": "- Bid price in wei in acceptedTokens currency"
        }
      },
      "cancelBid(address,bytes32)": {
        "details": "Cancel an already published bid  can only be canceled by seller or the contract owner",
        "params": {
          "_nftAddress": "- Address of the NFT registry",
          "_orderId": "- ID of the order"
        }
      },
      "cancelOrder(address,bytes32)": {
        "details": "Cancel an already published order  can only be canceled by seller or the contract owner",
        "params": {
          "_nftAddress": "- Address of the NFT registry",
          "_orderId": "- ID of the Order"
        }
      },
      "constructor": {
        "details": "Initialize this contract. Acts as a constructor",
        "params": {
          "_payTokenAddress": "- currency for payments"
        }
      },
      "createBid(bytes32,address,uint256,uint256,uint256,uint256)": {
        "details": "Places a bid for a published NFT and checks for the asset fingerprint",
        "params": {
          "_assetId": "- ID of the published NFT",
          "_expiresAt": "- Bid expiration time",
          "_nftAddress": "- Address of the NFT registry",
          "_priceInWei": "- Bid price in acceptedToken currency"
        }
      },
      "createOrder(string,address,uint256,uint256,uint256,uint256)": {
        "details": "Creates a new order",
        "params": {
          "_assetId": "- ID of the published NFT",
          "_expiresAt": "- Duration of the order (in hours)",
          "_nftAddress": "- Non fungible registry address",
          "_priceInWei": "- Price in Wei for the supported coin"
        }
      },
      "getOrderId(uint256)": {
        "details": "value of orderId",
        "returns": {
          "_0": "uint256 for the _orderIndex"
        }
      },
      "getOrderSize()": {
        "details": "value of _orderSize",
        "returns": {
          "_0": "uint256 for the _orderSize"
        }
      },
      "owner()": {
        "details": "Returns the address of the current owner."
      },
      "paused()": {
        "details": "Returns true if the contract is paused, and false otherwise."
      },
      "renounceOwnership()": {
        "details": "Leaves the contract without owner. It will not be possible to call `onlyOwner` functions anymore. Can only be called by the current owner. NOTE: Renouncing ownership will leave the contract without an owner, thereby removing any functionality that is only available to the owner."
      },
      "safeExecuteOrder(address,bytes32,uint256)": {
        "details": "Executes the sale for a published NFT and checks for the asset fingerprint",
        "params": {
          "_nftAddress": "- Address of the NFT registry",
          "_orderId": "- ID of the Order",
          "_priceInWei": "- Order price"
        }
      },
      "safePlaceBid(bytes32,address,uint256,uint256,uint256,uint256)": {
        "details": "Places a bid for a published NFT and checks for the asset fingerprint",
        "params": {
          "_assetId": "- ID of the published NFT",
          "_expiresAt": "- Bid expiration time",
          "_nftAddress": "- Address of the NFT registry",
          "_priceInWei": "- Bid price in acceptedToken currency"
        }
      },
      "setOwnerCutPerMillion(uint256)": {
        "details": "Sets the share cut for the owner of the contract that's  charged to the seller on a successful sale",
        "params": {
          "_cutPerMillion": "- Share amount, from 0 to 99,999"
        }
      },
      "setPaused(bool)": {
        "details": "Sets the paused failsafe. Can only be called by owner",
        "params": {
          "_setPaused": "- paused state"
        }
      },
      "supportsInterface(bytes4)": {
        "details": "See {IERC165-supportsInterface}."
      },
      "transferOwnership(address)": {
        "details": "Transfers ownership of the contract to a new account (`newOwner`). Can only be called by the current owner."
      },
      "updateOrder(address,bytes32,string,uint256,uint256)": {
        "details": "Update an already published order  can only be updated by seller",
        "params": {
          "_nftAddress": "- Address of the NFT registry",
          "_orderId": "- ID of the Order"
        }
      }
    },
    "version": 1
  },
  "userdoc": {
    "kind": "user",
    "methods": {},
    "version": 1
  }
}