{
  "contractName": "MultiTokenAuction",
  "abi": [
    {
      "inputs": [
        {
          "internalType": "string",
          "name": "_payTokenName",
          "type": "string"
        },
        {
          "internalType": "address",
          "name": "_payTokenAddress",
          "type": "address"
        }
      ],
      "stateMutability": "nonpayable",
      "type": "constructor"
    },
    {
      "anonymous": false,
      "inputs": [
        {
          "indexed": false,
          "internalType": "address",
          "name": "creatorAddress",
          "type": "address"
        },
        {
          "indexed": false,
          "internalType": "string",
          "name": "matchId",
          "type": "string"
        },
        {
          "indexed": false,
          "internalType": "address",
          "name": "payTokenAddress",
          "type": "address"
        },
        {
          "indexed": false,
          "internalType": "uint96",
          "name": "openBlock",
          "type": "uint96"
        },
        {
          "indexed": false,
          "internalType": "uint96",
          "name": "expiryBlock",
          "type": "uint96"
        },
        {
          "indexed": false,
          "internalType": "uint96",
          "name": "increment",
          "type": "uint96"
        },
        {
          "indexed": false,
          "internalType": "uint32",
          "name": "expiryExtension",
          "type": "uint32"
        },
        {
          "indexed": false,
          "internalType": "uint256",
          "name": "tokenIndex",
          "type": "uint256"
        },
        {
          "components": [
            {
              "internalType": "address",
              "name": "contractAddress",
              "type": "address"
            },
            {
              "internalType": "uint256",
              "name": "tokenId",
              "type": "uint256"
            },
            {
              "internalType": "uint256",
              "name": "amount",
              "type": "uint256"
            },
            {
              "internalType": "uint256",
              "name": "minBid",
              "type": "uint256"
            },
            {
              "internalType": "uint256",
              "name": "fixedPrice",
              "type": "uint256"
            }
          ],
          "indexed": false,
          "internalType": "struct MultiTokenAuction.NFT",
          "name": "nfts",
          "type": "tuple"
        }
      ],
      "name": "CreateAuctionEvent",
      "type": "event"
    },
    {
      "anonymous": false,
      "inputs": [
        {
          "indexed": false,
          "internalType": "address",
          "name": "creatorAddress",
          "type": "address"
        },
        {
          "indexed": false,
          "internalType": "address",
          "name": "payTokenAddress",
          "type": "address"
        },
        {
          "indexed": false,
          "internalType": "uint256",
          "name": "balance",
          "type": "uint256"
        }
      ],
      "name": "CreatorWithdrawProfit",
      "type": "event"
    },
    {
      "anonymous": false,
      "inputs": [
        {
          "indexed": true,
          "internalType": "address",
          "name": "previousOwner",
          "type": "address"
        },
        {
          "indexed": true,
          "internalType": "address",
          "name": "newOwner",
          "type": "address"
        }
      ],
      "name": "OwnershipTransferred",
      "type": "event"
    },
    {
      "anonymous": false,
      "inputs": [
        {
          "indexed": false,
          "internalType": "string",
          "name": "matchId",
          "type": "string"
        },
        {
          "indexed": false,
          "internalType": "address",
          "name": "playerAddress",
          "type": "address"
        },
        {
          "indexed": false,
          "internalType": "uint256",
          "name": "tokenIndex",
          "type": "uint256"
        },
        {
          "indexed": false,
          "internalType": "address",
          "name": "payTokenAddress",
          "type": "address"
        },
        {
          "indexed": false,
          "internalType": "uint256",
          "name": "bid",
          "type": "uint256"
        },
        {
          "indexed": false,
          "internalType": "uint96",
          "name": "expiryBlock",
          "type": "uint96"
        }
      ],
      "name": "PlayerBidEvent",
      "type": "event"
    },
    {
      "anonymous": false,
      "inputs": [
        {
          "indexed": false,
          "internalType": "string",
          "name": "matchId",
          "type": "string"
        },
        {
          "indexed": false,
          "internalType": "uint256",
          "name": "tokenIndex",
          "type": "uint256"
        }
      ],
      "name": "PlayerWithdrawBid",
      "type": "event"
    },
    {
      "anonymous": false,
      "inputs": [
        {
          "indexed": false,
          "internalType": "string",
          "name": "matchId",
          "type": "string"
        },
        {
          "indexed": false,
          "internalType": "uint256",
          "name": "tokenIndex",
          "type": "uint256"
        }
      ],
      "name": "ProcessWithdrawNft",
      "type": "event"
    },
    {
      "anonymous": false,
      "inputs": [
        {
          "indexed": false,
          "internalType": "string",
          "name": "matchId",
          "type": "string"
        },
        {
          "indexed": false,
          "internalType": "uint256",
          "name": "tokenIndex",
          "type": "uint256"
        },
        {
          "indexed": false,
          "internalType": "address",
          "name": "winnerAddress",
          "type": "address"
        }
      ],
      "name": "RewardEvent",
      "type": "event"
    },
    {
      "anonymous": false,
      "inputs": [
        {
          "indexed": false,
          "internalType": "string",
          "name": "tokenName",
          "type": "string"
        },
        {
          "indexed": false,
          "internalType": "address",
          "name": "tokenAddress",
          "type": "address"
        }
      ],
      "name": "SetNewPayToken",
      "type": "event"
    },
    {
      "inputs": [
        {
          "internalType": "string",
          "name": "",
          "type": "string"
        },
        {
          "internalType": "uint256",
          "name": "",
          "type": "uint256"
        }
      ],
      "name": "matchNFTs",
      "outputs": [
        {
          "internalType": "address",
          "name": "contractAddress",
          "type": "address"
        },
        {
          "internalType": "uint256",
          "name": "tokenId",
          "type": "uint256"
        },
        {
          "internalType": "uint256",
          "name": "amount",
          "type": "uint256"
        },
        {
          "internalType": "uint256",
          "name": "minBid",
          "type": "uint256"
        },
        {
          "internalType": "uint256",
          "name": "fixedPrice",
          "type": "uint256"
        }
      ],
      "stateMutability": "view",
      "type": "function"
    },
    {
      "inputs": [
        {
          "internalType": "string",
          "name": "",
          "type": "string"
        },
        {
          "internalType": "uint256",
          "name": "",
          "type": "uint256"
        }
      ],
      "name": "matchResults",
      "outputs": [
        {
          "internalType": "address",
          "name": "topBidder",
          "type": "address"
        },
        {
          "internalType": "uint256",
          "name": "standingBid",
          "type": "uint256"
        },
        {
          "internalType": "uint256",
          "name": "finalBid",
          "type": "uint256"
        }
      ],
      "stateMutability": "view",
      "type": "function"
    },
    {
      "inputs": [
        {
          "internalType": "string",
          "name": "",
          "type": "string"
        }
      ],
      "name": "matches",
      "outputs": [
        {
          "internalType": "address",
          "name": "creatorAddress",
          "type": "address"
        },
        {
          "internalType": "address",
          "name": "payTokenAddress",
          "type": "address"
        },
        {
          "internalType": "uint96",
          "name": "minIncrement",
          "type": "uint96"
        },
        {
          "internalType": "uint96",
          "name": "openBlock",
          "type": "uint96"
        },
        {
          "internalType": "uint96",
          "name": "expiryBlock",
          "type": "uint96"
        },
        {
          "internalType": "uint32",
          "name": "expiryExtension",
          "type": "uint32"
        },
        {
          "internalType": "uint32",
          "name": "nftCount",
          "type": "uint32"
        }
      ],
      "stateMutability": "view",
      "type": "function"
    },
    {
      "inputs": [],
      "name": "owner",
      "outputs": [
        {
          "internalType": "address",
          "name": "",
          "type": "address"
        }
      ],
      "stateMutability": "view",
      "type": "function"
    },
    {
      "inputs": [
        {
          "internalType": "string",
          "name": "",
          "type": "string"
        }
      ],
      "name": "payTokens",
      "outputs": [
        {
          "internalType": "address",
          "name": "",
          "type": "address"
        }
      ],
      "stateMutability": "view",
      "type": "function"
    },
    {
      "inputs": [],
      "name": "renounceOwnership",
      "outputs": [],
      "stateMutability": "nonpayable",
      "type": "function"
    },
    {
      "inputs": [
        {
          "internalType": "address",
          "name": "newOwner",
          "type": "address"
        }
      ],
      "name": "transferOwnership",
      "outputs": [],
      "stateMutability": "nonpayable",
      "type": "function"
    },
    {
      "inputs": [
        {
          "internalType": "string",
          "name": "_token_name",
          "type": "string"
        },
        {
          "internalType": "address",
          "name": "_token_address",
          "type": "address"
        }
      ],
      "name": "setPayToken",
      "outputs": [],
      "stateMutability": "nonpayable",
      "type": "function"
    },
    {
      "inputs": [
        {
          "internalType": "string",
          "name": "matchId",
          "type": "string"
        },
        {
          "internalType": "string",
          "name": "payTokenName",
          "type": "string"
        },
        {
          "internalType": "uint96",
          "name": "openBlock",
          "type": "uint96"
        },
        {
          "internalType": "uint96",
          "name": "expiryBlock",
          "type": "uint96"
        },
        {
          "internalType": "uint32",
          "name": "expiryExtension",
          "type": "uint32"
        },
        {
          "internalType": "uint96",
          "name": "minIncrement",
          "type": "uint96"
        },
        {
          "components": [
            {
              "internalType": "address",
              "name": "contractAddress",
              "type": "address"
            },
            {
              "internalType": "uint256",
              "name": "tokenId",
              "type": "uint256"
            },
            {
              "internalType": "uint256",
              "name": "amount",
              "type": "uint256"
            },
            {
              "internalType": "uint256",
              "name": "minBid",
              "type": "uint256"
            },
            {
              "internalType": "uint256",
              "name": "fixedPrice",
              "type": "uint256"
            }
          ],
          "internalType": "struct MultiTokenAuction.NFT[]",
          "name": "nfts",
          "type": "tuple[]"
        }
      ],
      "name": "createAuction",
      "outputs": [],
      "stateMutability": "nonpayable",
      "type": "function"
    },
    {
      "inputs": [
        {
          "internalType": "string",
          "name": "matchId",
          "type": "string"
        },
        {
          "components": [
            {
              "internalType": "address",
              "name": "contractAddress",
              "type": "address"
            },
            {
              "internalType": "uint256",
              "name": "tokenId",
              "type": "uint256"
            },
            {
              "internalType": "uint256",
              "name": "amount",
              "type": "uint256"
            },
            {
              "internalType": "uint256",
              "name": "minBid",
              "type": "uint256"
            },
            {
              "internalType": "uint256",
              "name": "fixedPrice",
              "type": "uint256"
            }
          ],
          "internalType": "struct MultiTokenAuction.NFT",
          "name": "nft",
          "type": "tuple"
        }
      ],
      "name": "addAuctionNFT",
      "outputs": [],
      "stateMutability": "nonpayable",
      "type": "function"
    },
    {
      "inputs": [
        {
          "internalType": "string",
          "name": "matchId",
          "type": "string"
        },
        {
          "internalType": "uint256",
          "name": "tokenIndex",
          "type": "uint256"
        },
        {
          "internalType": "uint256",
          "name": "amount",
          "type": "uint256"
        }
      ],
      "name": "player_bid",
      "outputs": [],
      "stateMutability": "nonpayable",
      "type": "function"
    },
    {
      "inputs": [
        {
          "internalType": "string",
          "name": "matchId",
          "type": "string"
        },
        {
          "internalType": "uint256",
          "name": "tokenIndex",
          "type": "uint256"
        }
      ],
      "name": "player_fixed_price",
      "outputs": [],
      "stateMutability": "nonpayable",
      "type": "function"
    },
    {
      "inputs": [
        {
          "internalType": "string",
          "name": "matchId",
          "type": "string"
        },
        {
          "internalType": "uint256",
          "name": "tokenIndex",
          "type": "uint256"
        }
      ],
      "name": "player_withdraw_bid",
      "outputs": [],
      "stateMutability": "nonpayable",
      "type": "function"
    },
    {
      "inputs": [
        {
          "internalType": "string",
          "name": "matchId",
          "type": "string"
        },
        {
          "internalType": "uint256",
          "name": "tokenIndex",
          "type": "uint256"
        }
      ],
      "name": "reward",
      "outputs": [],
      "stateMutability": "nonpayable",
      "type": "function"
    },
    {
      "inputs": [
        {
          "internalType": "string",
          "name": "matchId",
          "type": "string"
        }
      ],
      "name": "creator_withdraw_nft_batch",
      "outputs": [],
      "stateMutability": "nonpayable",
      "type": "function"
    },
    {
      "inputs": [
        {
          "internalType": "string",
          "name": "matchId",
          "type": "string"
        },
        {
          "internalType": "uint256",
          "name": "tokenIndex",
          "type": "uint256"
        }
      ],
      "name": "creator_withdraw_nft",
      "outputs": [],
      "stateMutability": "nonpayable",
      "type": "function"
    },
    {
      "inputs": [
        {
          "internalType": "string",
          "name": "payTokenName",
          "type": "string"
        }
      ],
      "name": "creator_withdraw_profit",
      "outputs": [],
      "stateMutability": "nonpayable",
      "type": "function"
    },
    {
      "inputs": [
        {
          "internalType": "bytes4",
          "name": "interfaceId",
          "type": "bytes4"
        }
      ],
      "name": "supportsInterface",
      "outputs": [
        {
          "internalType": "bool",
          "name": "",
          "type": "bool"
        }
      ],
      "stateMutability": "view",
      "type": "function"
    },
    {
      "inputs": [
        {
          "internalType": "address",
          "name": "operator",
          "type": "address"
        },
        {
          "internalType": "address",
          "name": "from",
          "type": "address"
        },
        {
          "internalType": "uint256",
          "name": "id",
          "type": "uint256"
        },
        {
          "internalType": "uint256",
          "name": "value",
          "type": "uint256"
        },
        {
          "internalType": "bytes",
          "name": "data",
          "type": "bytes"
        }
      ],
      "name": "onERC1155Received",
      "outputs": [
        {
          "internalType": "bytes4",
          "name": "",
          "type": "bytes4"
        }
      ],
      "stateMutability": "pure",
      "type": "function"
    },
    {
      "inputs": [
        {
          "internalType": "address",
          "name": "operator",
          "type": "address"
        },
        {
          "internalType": "address",
          "name": "from",
          "type": "address"
        },
        {
          "internalType": "uint256[]",
          "name": "ids",
          "type": "uint256[]"
        },
        {
          "internalType": "uint256[]",
          "name": "values",
          "type": "uint256[]"
        },
        {
          "internalType": "bytes",
          "name": "data",
          "type": "bytes"
        }
      ],
      "name": "onERC1155BatchReceived",
      "outputs": [
        {
          "internalType": "bytes4",
          "name": "",
          "type": "bytes4"
        }
      ],
      "stateMutability": "pure",
      "type": "function"
    },
    {
      "inputs": [
        {
          "internalType": "string",
          "name": "matchId",
          "type": "string"
        }
      ],
      "name": "get_match",
      "outputs": [
        {
          "internalType": "address",
          "name": "",
          "type": "address"
        },
        {
          "internalType": "address",
          "name": "",
          "type": "address"
        },
        {
          "internalType": "uint256",
          "name": "",
          "type": "uint256"
        },
        {
          "internalType": "uint256",
          "name": "",
          "type": "uint256"
        },
        {
          "internalType": "uint256",
          "name": "",
          "type": "uint256"
        },
        {
          "internalType": "uint256",
          "name": "",
          "type": "uint256"
        },
        {
          "internalType": "uint256",
          "name": "",
          "type": "uint256"
        }
      ],
      "stateMutability": "view",
      "type": "function"
    },
    {
      "inputs": [
        {
          "internalType": "string",
          "name": "payTokenName",
          "type": "string"
        }
      ],
      "name": "get_pay_token",
      "outputs": [
        {
          "internalType": "string",
          "name": "",
          "type": "string"
        },
        {
          "internalType": "address",
          "name": "",
          "type": "address"
        }
      ],
      "stateMutability": "view",
      "type": "function"
    },
    {
      "inputs": [
        {
          "internalType": "string",
          "name": "matchId",
          "type": "string"
        },
        {
          "internalType": "uint256",
          "name": "tokenIndex",
          "type": "uint256"
        }
      ],
      "name": "get_current_result",
      "outputs": [
        {
          "internalType": "address",
          "name": "",
          "type": "address"
        },
        {
          "internalType": "uint256",
          "name": "",
          "type": "uint256"
        }
      ],
      "stateMutability": "view",
      "type": "function"
    },
    {
      "inputs": [
        {
          "internalType": "string",
          "name": "matchId",
          "type": "string"
        },
        {
          "internalType": "address",
          "name": "playerAddress",
          "type": "address"
        },
        {
          "internalType": "uint256",
          "name": "tokenIndex",
          "type": "uint256"
        },
        {
          "internalType": "address",
          "name": "payTokenAddress",
          "type": "address"
        }
      ],
      "name": "get_player_bid",
      "outputs": [
        {
          "internalType": "uint256",
          "name": "",
          "type": "uint256"
        }
      ],
      "stateMutability": "view",
      "type": "function"
    },
    {
      "inputs": [
        {
          "internalType": "address",
          "name": "creatorAddress",
          "type": "address"
        },
        {
          "internalType": "address",
          "name": "payTokenAddress",
          "type": "address"
        }
      ],
      "name": "get_creator_balance",
      "outputs": [
        {
          "internalType": "uint256",
          "name": "",
          "type": "uint256"
        }
      ],
      "stateMutability": "view",
      "type": "function"
    }
  ],
  "bytecode": "0x60806040523480156200001157600080fd5b50604051620046b7380380620046b78339810160408190526200003491620001cb565b60016000556200005f6200005064010000000062000158810204565b6401000000006200015c810204565b600160a060020a038116620000d4576040517f08c379a000000000000000000000000000000000000000000000000000000000815260206004820152601560248201527f696e76616c696420746f6b656e20616464726573730000000000000000000000604482015260640160405180910390fd5b80600283604051620000e7919062000295565b9081526040519081900360200181208054600160a060020a0393909316600160a060020a0319909316929092179091557f8099f178bf260dd841ddf7cbcea55060577fe6bb1489a33a3d0eb1b010de30f390620001489084908490620002b3565b60405180910390a150506200035b565b3390565b60018054600160a060020a03838116600160a060020a0319831681179093556040519116919082907f8be0079c531659141344cd1fd0a4f28419497f9722a3daafe3b4186f6b6457e090600090a35050565b8051600160a060020a0381168114620001c657600080fd5b919050565b60008060408385031215620001de578182fd5b825167ffffffffffffffff80821115620001f6578384fd5b818501915085601f8301126200020a578384fd5b8151818111156200021f576200021f6200032c565b604051601f8201601f19908116603f011681019083821181831017156200024a576200024a6200032c565b8160405282815288602084870101111562000263578687fd5b62000276836020830160208801620002f9565b80965050505050506200028c60208401620001ae565b90509250929050565b60008251620002a9818460208701620002f9565b9190910192915050565b6040815260008351806040840152620002d4816060850160208801620002f9565b600160a060020a0393909316602083015250601f91909101601f191601606001919050565b60005b8381101562000316578181015183820152602001620002fc565b8381111562000326576000848401525b50505050565b7f4e487b7100000000000000000000000000000000000000000000000000000000600052604160045260246000fd5b61434c806200036b6000396000f3fe608060405234801561001057600080fd5b50600436106101775760003560e060020a90048063715018a6116100e2578063df4a252c1161009b578063f23a6e6111610075578063f23a6e61146105b5578063f2fde38b146105ee578063f469779c14610601578063fade145d1461061457600080fd5b8063df4a252c14610516578063e3c6623d14610529578063e552e5f8146105a257600080fd5b8063715018a61461041c5780638b616f1f146104245780638da5cb5b14610477578063a020c9571461049c578063bc197c81146104af578063d9de66f11461050357600080fd5b806338dfdcb61161013457806338dfdcb61461030b578063458110a31461033d578063479f7e8914610350578063528f0f56146103e35780635297f848146103f657806363418f321461040957600080fd5b806301ffc9a71461017c5780630c97531b146101a45780630d570f54146101b957806318200e9e1461020057806332ac752b14610213578063349161d3146102ea575b600080fd5b61018f61018a3660046139aa565b610648565b60405190151581526020015b60405180910390f35b6101b76101b2366004613a12565b6106b1565b005b6101f26101c736600461382b565b600160a060020a03918216600090815260076020908152604080832093909416825291909152205490565b60405190815260200161019b565b6101b761020e366004613c0e565b610863565b610292610221366004613a12565b805180820160209081018051600382529282019190930120915280546001820154600290920154600160a060020a0391821692918216916001606060020a0360a060020a90910481169180821691606060020a8204169063ffffffff60c060020a820481169160e060020a90041687565b60408051600160a060020a0398891681529790961660208801526001606060020a0394851695870195909552918316606086015291909116608084015263ffffffff90811660a08401521660c082015260e00161019b565b6102fd6102f83660046139d2565b610974565b60405161019b929190613e68565b61031e610319366004613c0e565b6109e7565b60408051600160a060020a03909316835260208301919091520161019b565b6101b761034b366004613c51565b610a5b565b6103b161035e366004613c0e565b81516020818401810180516004808352938301958301959095209490529290925260009081526040902080546001820154600283015460038401549390940154600160a060020a03909216939092909185565b60408051600160a060020a0390961686526020860194909452928401919091526060830152608082015260a00161019b565b6101b76103f1366004613c0e565b610fde565b6101b7610404366004613a4d565b611255565b6101f2610417366004613a90565b611357565b6101b76113ab565b610437610432366004613a12565b6113e4565b60408051600160a060020a039889168152979096166020880152948601939093526060850191909152608084015260a083015260c082015260e00161019b565b600154600160a060020a03165b604051600160a060020a03909116815260200161019b565b6101b76104aa366004613a12565b6114ad565b6104ea6104bd36600461385d565b7fbc197c819b3e337a6f9652dd10becd7eef83032af3b9d958d3d42f669414662198975050505050505050565b604051600160e060020a0319909116815260200161019b565b6101b7610511366004613bca565b611641565b6101b7610524366004613c0e565b611adb565b61057d610537366004613c0e565b815160208184018101805160058252928201948201949094209190935290915260009081526040902080546001820154600290920154600160a060020a03909116919083565b60408051600160a060020a03909416845260208401929092529082015260600161019b565b6101b76105b0366004613c0e565b611e37565b6104ea6105c3366004613914565b7ff23a6e612e1ff4830e658fe43f4e3cb4a5f8170bd5d9e69fb5d7a7fa9e4fdf979695505050505050565b6101b76105fc366004613811565b612378565b6101b761060f366004613af6565b612430565b610484610622366004613a12565b8051602081830181018051600282529282019190930120915254600160a060020a031681565b6000600160e060020a031982167fd9b67a260000000000000000000000000000000000000000000000000000000014806106ab57507f01ffc9a700000000000000000000000000000000000000000000000000000000600160e060020a03198316145b92915050565b8033600160a060020a03166003826040516106cc9190613d02565b90815260405190819003602001902054600160a060020a03161461073a5760405160e560020a62461bcd02815260206004820152601560248201527f63726561746f72206f6e6c792066756e6374696f6e000000000000000000000060448201526064015b60405180910390fd5b814360038260405161074c9190613d02565b908152604051908190036020019020600201546001606060020a03606060020a90910416106107905760405160e560020a62461bcd02815260040161073190613fcf565b60006003846040516107a29190613d02565b9081526040519081900360200190206002015463ffffffff60e060020a90910416905060005b8181101561085c5760006005866040516107e29190613d02565b908152604080516020928190038301812060008681529084528290206060820183528054600160a060020a03168083526001820154948301949094526002015491810191909152915015801561083c575060008160200151115b1561084b5761084b8683612cf5565b50610855816142c9565b90506107c8565b5050505050565b81816000600160a060020a03166003836040516108809190613d02565b90815260405190819003602001902054600160a060020a031614156108ba5760405160e560020a62461bcd02815260040161073190613f98565b6003826040516108ca9190613d02565b9081526040519081900360200190206002015463ffffffff60e060020a90910416811061090c5760405160e560020a62461bcd02815260040161073190614006565b834360038260405161091e9190613d02565b908152604051908190036020019020600201546001606060020a03606060020a90910416106109625760405160e560020a62461bcd02815260040161073190613fcf565b61096c8585612e35565b505050505050565b6060600083836002868660405161098c929190613d1e565b908152604080516020928190038301812054601f8501849004840282018401909252838152600160a060020a0390911691849084908190840183828082843760009201919091525092975092955050505050505b9250929050565b6000806005846040516109fa9190613d02565b908152604080519182900360209081018320600087815291522054600160a060020a031690600590610a2d908790613d02565b9081526020016040518091039020600085815260200190815260200160002060010154915091509250929050565b60026000541415610a815760405160e560020a62461bcd02815260040161073190614152565b6002600090815560405184918491600390610a9d908590613d02565b90815260405190819003602001902054600160a060020a03161415610ad75760405160e560020a62461bcd02815260040161073190613f98565b600382604051610ae79190613d02565b9081526040519081900360200190206002015463ffffffff60e060020a909104168110610b295760405160e560020a62461bcd02815260040161073190614006565b6000600386604051610b3b9190613d02565b90815260408051918290036020908101832060e0840183528054600160a060020a0390811685526001820154908116928501929092526001606060020a0360a060020a90920482169284019290925260029091015480821660608401819052606060020a8204909216608084015263ffffffff60c060020a8204811660a085015260e060020a9091041660c0830152909150339043118015610bea575081608001516001606060020a03164311155b610c395760405160e560020a62461bcd02815260206004820152601f60248201527f6d61746368206973206e6f74206f70656e656420666f722062696464696e67006044820152606401610731565b6000600588604051610c4b9190613d02565b908152604080516020928190038301812060008b81529084528281206060830184528054600160a060020a03168352600181015494830185905260020154828401529151909350600490610ca0908c90613d02565b908152602001604051809103902060008a81526020019081526020016000206003015490506000606486604001516001606060020a031683610ce2919061423f565b610cec919061421c565b6020870151909150838a118015610d0c575081610d09858c61425e565b10155b610d5b5760405160e560020a62461bcd02815260206004820152601160248201527f696c6c6567616c20696e6372656d656e740000000000000000000000000000006044820152606401610731565b604051806060016040528087600160a060020a031681526020018b81526020018b81525060058d604051610d8f9190613d02565b908152604080516020928190038301902060008f815290835281902083518154600160a060020a031916600160a060020a0390911617815591830151600183015591909101516002909101556080870151600890610df79043906001606060020a031661425e565b1015610e71578660a0015163ffffffff1687608001818151610e1991906141fa565b6001606060020a03169052506080870151604051600390610e3b908f90613d02565b9081526020016040518091039020600201600c6101000a8154816001606060020a0302191690836001606060020a031602179055505b600060068d604051610e839190613d02565b9081526020016040518091039020600088600160a060020a0316600160a060020a0316815260200190815260200160002060008d8152602001908152602001600020600083600160a060020a0316600160a060020a03168152602001908152602001600020548b610ef4919061425e565b90508a60068e604051610f079190613d02565b9081526020016040518091039020600089600160a060020a0316600160a060020a0316815260200190815260200160002060008e8152602001908152602001600020600084600160a060020a0316600160a060020a03168152602001908152602001600020819055507f2c1ace533992db2ad8e6af5e2b93dfef6389dbf796e778c7fef675726fb2fec48d888e858f8d60800151604051610fad96959493929190613e93565b60405180910390a1610fca600160a060020a038316883084613230565b505060016000555050505050505050505050565b81816000600160a060020a0316600383604051610ffb9190613d02565b90815260405190819003602001902054600160a060020a031614156110355760405160e560020a62461bcd02815260040161073190613f98565b6003826040516110459190613d02565b9081526040519081900360200190206002015463ffffffff60e060020a9091041681106110875760405160e560020a62461bcd02815260040161073190614006565b8333600160a060020a03166003826040516110a29190613d02565b90815260405190819003602001902054600160a060020a03161461110b5760405160e560020a62461bcd02815260206004820152601560248201527f63726561746f72206f6e6c792066756e6374696f6e00000000000000000000006044820152606401610731565b844360038260405161111d9190613d02565b908152604051908190036020019020600201546001606060020a03606060020a90910416106111615760405160e560020a62461bcd02815260040161073190613fcf565b60006005876040516111739190613d02565b908152604080516020928190038301812060008a81529084528290206060820183528054600160a060020a0316808352600182015494830194909452600201549181019190915291501580156111cd575060008160200151115b6112425760405160e560020a62461bcd02815260206004820152602260248201527f746f6b656e206973206e6f7420617661696c61626c6520746f2077697468647260448201527f61770000000000000000000000000000000000000000000000000000000000006064820152608401610731565b61124c8787612cf5565b50505050505050565b600154600160a060020a031633146112825760405160e560020a62461bcd0281526004016107319061403d565b600160a060020a0381166112db5760405160e560020a62461bcd02815260206004820152601560248201527f696e76616c696420746f6b656e206164647265737300000000000000000000006044820152606401610731565b806002836040516112ec9190613d02565b9081526040519081900360200181208054600160a060020a0393909316600160a060020a0319909316929092179091557f8099f178bf260dd841ddf7cbcea55060577fe6bb1489a33a3d0eb1b010de30f39061134b9084908490613e68565b60405180910390a15050565b60006006856040516113699190613d02565b9081526040805160209281900383019020600160a060020a03968716600090815290835281812095815294825280852093909516845291909152502054919050565b600154600160a060020a031633146113d85760405160e560020a62461bcd0281526004016107319061403d565b6113e260006132cf565b565b6000806000806000806000806003896040516114009190613d02565b90815260408051918290036020908101832060e0840183528054600160a060020a0390811680865260018301549182169386018490526001606060020a0360a060020a909204821694860185905260029092015480821660608701819052606060020a82049092166080870181905263ffffffff60c060020a8304811660a0890181905260e060020a9093041660c0909701879052929f939e50939c509a50985090965090945092505050565b6000600160a060020a03166002826040516114c89190613d02565b90815260405190819003602001902054600160a060020a031614156115025760405160e560020a62461bcd02815260040161073190614072565b60006002826040516115149190613d02565b90815260408051602092819003830190205433600090815260078452828120600160a060020a0390921680825291909352912054909150806115c15760405160e560020a62461bcd02815260206004820152602660248201527f63726561746f722062616c616e6365206d75737420626520677265617465722060448201527f7468616e203000000000000000000000000000000000000000000000000000006064820152608401610731565b336000818152600760209081526040808320600160a060020a03871680855292528220919091556115f29183613321565b60408051338152600160a060020a03841660208201529081018290527f3aa5d5c69e4540af3cc6c9e238866b09184b527313626657b2b1a562b3b2cc75906060015b60405180910390a1505050565b600260005414156116675760405160e560020a62461bcd02815260040161073190614152565b6002600055604051439060039061167f908590613d02565b908152604051908190036020019020600201546001606060020a03606060020a9091041610156116f45760405160e560020a62461bcd02815260206004820152601560248201527f746865206d617463682069732066696e697368656400000000000000000000006044820152606401610731565b6000600160a060020a031660038360405161170f9190613d02565b90815260405190819003602001902054600160a060020a031614156117795760405160e560020a62461bcd02815260206004820152601460248201527f6d617463684964206e6f6e2d6578697374656e740000000000000000000000006044820152606401610731565b600060038360405161178b9190613d02565b90815260405160209181900382019020600281015490925060e060020a900463ffffffff169081106117d25760405160e560020a62461bcd028152600401610731906140cf565b60018360600151116118295760405160e560020a62461bcd02815260206004820152601d60248201527f6d696e426964206d7573742062652067726561746572207468616e20310000006044820152606401610731565b60608301516001830154600091606491611853919060a060020a90046001606060020a031661423f565b61185d919061421c565b1161187d5760405160e560020a62461bcd02815260040161073190613f3b565b8251602084015160408086015190517ff242432a000000000000000000000000000000000000000000000000000000008152600160a060020a039093169263f242432a926118d392339230929190600401613d2e565b600060405180830381600087803b1580156118ed57600080fd5b505af1158015611901573d6000803e3d6000fd5b5050505060405180606001604052806000600160a060020a0316815260200184606001518152602001600081525060058560405161193f9190613d02565b908152604080516020928190038301812063ffffffff8616600090815290845282902084518154600160a060020a031916600160a060020a0390911617815592840151600184015592015160029091015583906004906119a0908790613d02565b908152604080516020928190038301902063ffffffff8516600090815290835281902083518154600160a060020a031916600160a060020a039091161781559183015160018084019190915590830151600283015560608301516003830155608090920151600490910155611a169082906141d2565b6002830180547bffffffffffffffffffffffffffffffffffffffffffffffffffffffff811660e060020a63ffffffff948516029081179283905560018601546040517f3111de4441b72ec57a73a2e4865163461823438b8e7481616472739a3c5e769195611ac89533958c95600160a060020a038616956001606060020a039283169183169190911794606060020a840483169460a060020a9092049092169260c060020a900416908a908d90613de4565b60405180910390a1505060016000555050565b60026000541415611b015760405160e560020a62461bcd02815260040161073190614152565b6002600090815560405183918391600390611b1d908590613d02565b90815260405190819003602001902054600160a060020a03161415611b575760405160e560020a62461bcd02815260040161073190613f98565b600382604051611b679190613d02565b9081526040519081900360200190206002015463ffffffff60e060020a909104168110611ba95760405160e560020a62461bcd02815260040161073190614006565b60405133908190600590611bbe908890613d02565b908152604080516020928190038301902060008881529252902054600160a060020a03161415611c335760405160e560020a62461bcd02815260206004820152601a60248201527f746f70206269646465722063616e6e6f742077697468647261770000000000006044820152606401610731565b6000600386604051611c459190613d02565b908152604080516020928190038301812060e0820183528054600160a060020a039081168352600182015490811694830185905260a060020a90046001606060020a03908116838501526002909101548082166060840152606060020a8104909116608083015260c060020a810463ffffffff90811660a084015260e060020a9091041660c08201529051909250600090600690611ce4908a90613d02565b9081526040805160209281900383019020600160a060020a0387811660009081529184528282208b835284528282209086168252909252902054905080611d965760405160e560020a62461bcd02815260206004820152602660248201527f626964206d7573742062652067726561746572207468616e203020746f20776960448201527f74686472617700000000000000000000000000000000000000000000000000006064820152608401610731565b6000600689604051611da89190613d02565b9081526040805160209281900383019020600160a060020a0388811660009081529184528282208c8352845282822090871680835293522091909155611def908583613321565b7fe52c89ae59d5e3dd4f42a0ee449ca0fd232fe794ead560f455c44480e114c2258888604051611e20929190613ee7565b60405180910390a150506001600055505050505050565b60026000541415611e5d5760405160e560020a62461bcd02815260040161073190614152565b6002600090815560405183918391600390611e79908590613d02565b90815260405190819003602001902054600160a060020a03161415611eb35760405160e560020a62461bcd02815260040161073190613f98565b600382604051611ec39190613d02565b9081526040519081900360200190206002015463ffffffff60e060020a909104168110611f055760405160e560020a62461bcd02815260040161073190614006565b6000600385604051611f179190613d02565b90815260408051918290036020908101832060e0840183528054600160a060020a0390811685526001820154908116928501929092526001606060020a0360a060020a90920482169284019290925260029091015480821660608401819052606060020a8204909216608084015263ffffffff60c060020a8204811660a085015260e060020a9091041660c0830152909150339043118015611fc6575081608001516001606060020a03164311155b6120155760405160e560020a62461bcd02815260206004820152601f60248201527f6d61746368206973206e6f74206f70656e656420666f722062696464696e67006044820152606401610731565b60006005876040516120279190613d02565b908152604080516020928190038301812060008a81529084528281206060830184528054600160a060020a0316835260018101549483018590526002015482840152915190935060049061207c908b90613d02565b908152604080516020928190038301902060008b81529083522060040154908601519091508282116121195760405160e560020a62461bcd02815260206004820152602760248201527f5374616e64696e6762696420686173206578636565646564207468652066697860448201527f65645072696365000000000000000000000000000000000000000000000000006064820152608401610731565b604051806060016040528086600160a060020a031681526020018381526020018381525060058b60405161214d9190613d02565b908152604080516020928190038301902060008d815290835281902083518154600160a060020a031916600160a060020a03909116178155918301516001830155919091015160029091015560808601516008906121b59043906001606060020a031661425e565b101561222f578560a0015163ffffffff16866080018181516121d791906141fa565b6001606060020a031690525060808601516040516003906121f9908d90613d02565b9081526020016040518091039020600201600c6101000a8154816001606060020a0302191690836001606060020a031602179055505b600060068b6040516122419190613d02565b9081526040805160209281900383019020600160a060020a0389811660009081529184528282208e835284528282209086168252909252902054612285908461425e565b90508260068c6040516122989190613d02565b9081526020016040518091039020600088600160a060020a0316600160a060020a0316815260200190815260200160002060008c8152602001908152602001600020600084600160a060020a0316600160a060020a03168152602001908152602001600020819055507f2c1ace533992db2ad8e6af5e2b93dfef6389dbf796e778c7fef675726fb2fec48b878c85878c6080015160405161233e96959493929190613e93565b60405180910390a161235b600160a060020a038316873084613230565b6123658b8b612e35565b5050600160005550505050505050505050565b600154600160a060020a031633146123a55760405160e560020a62461bcd0281526004016107319061403d565b600160a060020a0381166124245760405160e560020a62461bcd02815260206004820152602660248201527f4f776e61626c653a206e6577206f776e657220697320746865207a65726f206160448201527f64647265737300000000000000000000000000000000000000000000000000006064820152608401610731565b61242d816132cf565b50565b600260005414156124565760405160e560020a62461bcd02815260040161073190614152565b6002600090815560405160039061246e908a90613d02565b90815260405190819003602001902054600160a060020a0316146124d75760405160e560020a62461bcd02815260206004820152601360248201527f6d617463684964206973206f63637570696564000000000000000000000000006044820152606401610731565b6000600160a060020a03166002876040516124f29190613d02565b90815260405190819003602001902054600160a060020a0316141561252c5760405160e560020a62461bcd02815260040161073190614072565b846001606060020a0316846001606060020a0316118015612555575043856001606060020a0316115b6125f05760405160e560020a62461bcd02815260206004820152604560248201527f636f6e646974696f6e20657870697279426c6f636b203e206f70656e426c6f6360448201527f6b203e2063757272656e7420626c6f636b20636f756e74206e6f74207361746960648201527f7366696564000000000000000000000000000000000000000000000000000000608482015260a401610731565b6125fc6008600261423f565b6126068686614275565b6001606060020a0316116126855760405160e560020a62461bcd02815260206004820152603360248201527f61756374696f6e2074696d65206d757374206e6f74206c657373207468616e2060448201527f327820424c4f434b535f544f5f455850495245000000000000000000000000006064820152608401610731565b6064826001606060020a0316106127075760405160e560020a62461bcd02815260206004820152603360248201527f696e6372656d656e74206d7573742062652067726561746572207468616e203060448201527f20616e64206c657373207468616e2031303025000000000000000000000000006064820152608401610731565b6000815111801561271a57506020815111155b6127395760405160e560020a62461bcd028152600401610731906140cf565b60005b8151811015612a8457600182828151811061276a5760e060020a634e487b7102600052603260045260246000fd5b602002602001015160600151116127c65760405160e560020a62461bcd02815260206004820152601d60248201527f6d696e426964206d7573742062652067726561746572207468616e20310000006044820152606401610731565b600060648383815181106127ed5760e060020a634e487b7102600052603260045260246000fd5b602002602001015160600151856001606060020a031661280d919061423f565b612817919061421c565b116128375760405160e560020a62461bcd02815260040161073190613f3b565b81818151811061285a5760e060020a634e487b7102600052603260045260246000fd5b602002602001015160000151600160a060020a031663f242432a33308585815181106128995760e060020a634e487b7102600052603260045260246000fd5b6020026020010151602001518686815181106128c85760e060020a634e487b7102600052603260045260246000fd5b6020026020010151604001516040518563ffffffff1660e060020a0281526004016128f69493929190613d2e565b600060405180830381600087803b15801561291057600080fd5b505af1158015612924573d6000803e3d6000fd5b5050505060405180606001604052806000600160a060020a031681526020018383815181106129665760e060020a634e487b7102600052603260045260246000fd5b6020026020010151606001518152602001600081525060058960405161298c9190613d02565b9081526040805160209281900383019020600085815290835281902083518154600160a060020a031916600160a060020a03909116178155918301516001830155919091015160029091015581518290829081106129fd5760e060020a634e487b7102600052603260045260246000fd5b6020026020010151600489604051612a159190613d02565b9081526040805160209281900383019020600085815290835281902083518154600160a060020a031916600160a060020a03909116178155918301516001830155820151600282015560608201516003820155608090910151600490910155612a7d816142c9565b905061273c565b506040518060e0016040528033600160a060020a03168152602001600288604051612aaf9190613d02565b908152602001604051809103902060009054906101000a9004600160a060020a0316600160a060020a03168152602001836001606060020a03168152602001866001606060020a03168152602001856001606060020a031681526020018463ffffffff168152602001825163ffffffff16815250600388604051612b339190613d02565b908152604080516020928190038301902083518154600160a060020a031916600160a060020a0391821617825592840151918401519190921660a060020a6001606060020a0392831602176001830155606083015160029092018054608085015160a086015160c09096015194841677ffffffffffffffffffffffffffffffffffffffffffffffff1990921691909117606060020a91909316029190911777ffffffffffffffffffffffffffffffffffffffffffffffff1660c060020a63ffffffff948516027bffffffffffffffffffffffffffffffffffffffffffffffffffffffff161760e060020a939092169290920217905560005b8151811015612ce6577f3111de4441b72ec57a73a2e4865163461823438b8e7481616472739a3c5e7691338960028a604051612c679190613d02565b908152602001604051809103902060009054906101000a9004600160a060020a03168989888a888a8a81518110612cb15760e060020a634e487b7102600052603260045260246000fd5b6020026020010151604051612cce99989796959493929190613d66565b60405180910390a1612cdf816142c9565b9050612c2b565b50506001600055505050505050565b6000600583604051612d079190613d02565b9081526040805191829003602090810183206000868152915290812060010192909255600490612d38908590613d02565b9081526040805160209281900383018120600086815290845282902060a0820183528054600160a060020a03168083526001820154948301859052600282015483850181905260038301546060850152600492830154608085015293517ff242432a0000000000000000000000000000000000000000000000000000000081529295509363f242432a93612dd29330933393929101613d2e565b600060405180830381600087803b158015612dec57600080fd5b505af1158015612e00573d6000803e3d6000fd5b505050507fa028f70b1a82d8501d34d76d76b13b9130b49e7fc55bb89f647a44d3eac5f0fd8383604051611634929190613ee7565b600080600384604051612e489190613d02565b908152604080516020928190038301812060e0820183528054600160a060020a039081168352600182015490811694830185905260a060020a90046001606060020a03908116838501526002909101548082166060840152606060020a8104909116608083015260c060020a810463ffffffff90811660a084015260e060020a9091041660c08201529051909250600090600590612ee7908890613d02565b90815260408051602092819003830181206000898152935290822054600160a060020a03169250600590612f1c908990613d02565b9081526040805160209281900383019020600089815292529020600201549050600160a060020a038216612f955760405160e560020a62461bcd02815260206004820152601360248201527f77696e6e6572206973206e6f742076616c6964000000000000000000000000006044820152606401610731565b60408051606081018252600080825260208201528082018390529051600590612fbf908a90613d02565b90815260408051918290036020908101832060008b815290825282812085518154600160a060020a03909116600160a060020a0319909116178155918501516001830155939091015160029091015560069061301c908a90613d02565b9081526040805160209281900383018120600160a060020a0387811660009081529185528382208c835285528382209089168252909352908220549250600690613067908b90613d02565b908152604080519182900360209081018320600160a060020a0380891660009081529183528382208d83528352838220908a1682529091529081209290925582916007916003906130b9908d90613d02565b908152604080516020928190038301902054600160a060020a0390811684528383019490945291820160009081209389168152929052812080549091906131019084906141ba565b92505081905550600060048960405161311a9190613d02565b908152604080516020928190038301812060008c815290845282902060a0820183528054600160a060020a03168083526001820154948301859052600282015483850181905260038301546060850152600492830154608085015293517ff242432a0000000000000000000000000000000000000000000000000000000081529295509363f242432a936131b49330938b93929101613d2e565b600060405180830381600087803b1580156131ce57600080fd5b505af11580156131e2573d6000803e3d6000fd5b505050507f4724291f3c939ed02ed238c50d61263622fc1d0871d7aaa264d743475de5b72b89898660405161321993929190613f09565b60405180910390a150600198975050505050505050565b604051600160a060020a03808516602483015283166044820152606481018290526132c99085907f23b872dd00000000000000000000000000000000000000000000000000000000906084015b60408051601f198184030181529190526020810180517bffffffffffffffffffffffffffffffffffffffffffffffffffffffff16600160e060020a03199093169290921790915261336f565b50505050565b60018054600160a060020a03838116600160a060020a0319831681179093556040519116919082907f8be0079c531659141344cd1fd0a4f28419497f9722a3daafe3b4186f6b6457e090600090a35050565b604051600160a060020a03831660248201526044810182905261336a9084907fa9059cbb000000000000000000000000000000000000000000000000000000009060640161327d565b505050565b60006133c4826040518060400160405280602081526020017f5361666545524332303a206c6f772d6c6576656c2063616c6c206661696c656481525085600160a060020a03166134579092919063ffffffff16565b80519091501561336a57808060200190518101906133e2919061398a565b61336a5760405160e560020a62461bcd02815260206004820152602a60248201527f5361666545524332303a204552433230206f7065726174696f6e20646964206e60448201527f6f742073756363656564000000000000000000000000000000000000000000006064820152608401610731565b60606134668484600085613470565b90505b9392505050565b606030318311156134ec5760405160e560020a62461bcd02815260206004820152602660248201527f416464726573733a20696e73756666696369656e742062616c616e636520666f60448201527f722063616c6c00000000000000000000000000000000000000000000000000006064820152608401610731565b843b61353d5760405160e560020a62461bcd02815260206004820152601d60248201527f416464726573733a2063616c6c20746f206e6f6e2d636f6e74726163740000006044820152606401610731565b60008086600160a060020a031685876040516135599190613d02565b60006040518083038185875af1925050503d8060008114613596576040519150601f19603f3d011682016040523d82523d6000602084013e61359b565b606091505b50915091506135ab8282866135b6565b979650505050505050565b606083156135c5575081613469565b8251156135d55782518084602001fd5b8160405160e560020a62461bcd0281526004016107319190613e55565b8035600160a060020a038116811461360957600080fd5b919050565b600082601f83011261361e578081fd5b8135602067ffffffffffffffff82111561363a5761363a6142fd565b6136478182840201614189565b8281528181019085830160a080860288018501891015613665578687fd5b865b8681101561368b576136798a84613786565b85529385019391810191600101613667565b509198975050505050505050565b60008083601f8401126136aa578182fd5b50813567ffffffffffffffff8111156136c1578182fd5b60208301915083602080830285010111156109e057600080fd5b60008083601f8401126136ec578182fd5b50813567ffffffffffffffff811115613703578182fd5b6020830191508360208285010111156109e057600080fd5b600082601f83011261372b578081fd5b813567ffffffffffffffff811115613745576137456142fd565b613758601f8201601f1916602001614189565b81815284602083860101111561376c578283fd5b816020850160208301379081016020019190915292915050565b600060a08284031215613797578081fd5b60405160a0810181811067ffffffffffffffff821117156137ba576137ba6142fd565b6040529050806137c9836135f2565b8152602083013560208201526040830135604082015260608301356060820152608083013560808201525092915050565b80356001606060020a038116811461360957600080fd5b600060208284031215613822578081fd5b613469826135f2565b6000806040838503121561383d578081fd5b613846836135f2565b9150613854602084016135f2565b90509250929050565b60008060008060008060008060a0898b031215613878578384fd5b613881896135f2565b975061388f60208a016135f2565b9650604089013567ffffffffffffffff808211156138ab578586fd5b6138b78c838d01613699565b909850965060608b01359150808211156138cf578586fd5b6138db8c838d01613699565b909650945060808b01359150808211156138f3578384fd5b506139008b828c016136db565b999c989b5096995094979396929594505050565b60008060008060008060a0878903121561392c578182fd5b613935876135f2565b9550613943602088016135f2565b94506040870135935060608701359250608087013567ffffffffffffffff81111561396c578283fd5b61397889828a016136db565b979a9699509497509295939492505050565b60006020828403121561399b578081fd5b81518015158114613469578182fd5b6000602082840312156139bb578081fd5b8135600160e060020a031981168114613469578182fd5b600080602083850312156139e4578182fd5b823567ffffffffffffffff8111156139fa578283fd5b613a06858286016136db565b90969095509350505050565b600060208284031215613a23578081fd5b813567ffffffffffffffff811115613a39578182fd5b613a458482850161371b565b949350505050565b60008060408385031215613a5f578182fd5b823567ffffffffffffffff811115613a75578283fd5b613a818582860161371b565b925050613854602084016135f2565b60008060008060808587031215613aa5578182fd5b843567ffffffffffffffff811115613abb578283fd5b613ac78782880161371b565b945050613ad6602086016135f2565b925060408501359150613aeb606086016135f2565b905092959194509250565b600080600080600080600060e0888a031215613b10578081fd5b873567ffffffffffffffff80821115613b27578283fd5b613b338b838c0161371b565b985060208a0135915080821115613b48578283fd5b613b548b838c0161371b565b9750613b6260408b016137fa565b9650613b7060608b016137fa565b955060808a0135915063ffffffff82168214613b8a578283fd5b819450613b9960a08b016137fa565b935060c08a0135915080821115613bae578283fd5b50613bbb8a828b0161360e565b91505092959891949750929550565b60008060c08385031215613bdc578182fd5b823567ffffffffffffffff811115613bf2578283fd5b613bfe8582860161371b565b9250506138548460208501613786565b60008060408385031215613c20578182fd5b823567ffffffffffffffff811115613c36578283fd5b613c428582860161371b565b95602094909401359450505050565b600080600060608486031215613c65578081fd5b833567ffffffffffffffff811115613c7b578182fd5b613c878682870161371b565b9660208601359650604090950135949350505050565b60008151808452613cb581602086016020860161429d565b601f01601f19169290920160200192915050565b600160a060020a038151168252602081015160208301526040810151604083015260608101516060830152608081015160808301525050565b60008251613d1481846020870161429d565b9190910192915050565b8183823760009101908152919050565b600160a060020a0394851681529290931660208301526040820152606081019190915260a06080820181905260009082015260c00190565b60006101a0600160a060020a03808d168452816020850152613d8a8285018d613c9d565b908b1660408501526001606060020a038a811660608601528981166080860152881660a085015263ffffffff871660c085015260e084018690529150613dd69050610100830184613cc9565b9a9950505050505050505050565b60006101a0600160a060020a03808d168452816020850152613e088285018d613c9d565b908b1660408501526001606060020a038a811660608601528981166080860152881660a085015263ffffffff87811660c0860152861660e08501529150613dd69050610100830184613cc9565b6020815260006134696020830184613c9d565b604081526000613e7b6040830185613c9d565b9050600160a060020a03831660208301529392505050565b60c081526000613ea660c0830189613c9d565b9050600160a060020a0380881660208401528660408401528086166060840152508360808301526001606060020a03831660a0830152979650505050505050565b604081526000613efa6040830185613c9d565b90508260208301529392505050565b606081526000613f1c6060830186613c9d565b9050836020830152600160a060020a0383166040830152949350505050565b60208082526022908201527f696e6372656d656e742073686f756c642062652067726561746572207468616e60408201527f2030000000000000000000000000000000000000000000000000000000000000606082015260800190565b6020808252600d908201527f696e76616c6964206d6174636800000000000000000000000000000000000000604082015260600190565b60208082526015908201527f6d61746368206973206e6f742066696e69736865640000000000000000000000604082015260600190565b6020808252600d908201527f696e76616c696420746f6b656e00000000000000000000000000000000000000604082015260600190565b6020808252818101527f4f776e61626c653a2063616c6c6572206973206e6f7420746865206f776e6572604082015260600190565b60208082526022908201527f6e6f7420737570706f7274207468697320616464726573732070617920746f6b60408201527f656e000000000000000000000000000000000000000000000000000000000000606082015260800190565b60208082526047908201527f6e756d626572206f66206e6674206d757374206265206772656174657220746860408201527f616e203020616e64206c657373207468616e204d41585f4954454d5f5045525f60608201527f41554354494f4e00000000000000000000000000000000000000000000000000608082015260a00190565b6020808252601f908201527f5265656e7472616e637947756172643a207265656e7472616e742063616c6c00604082015260600190565b604051601f8201601f1916810167ffffffffffffffff811182821017156141b2576141b26142fd565b604052919050565b600082198211156141cd576141cd6142e4565b500190565b600063ffffffff8083168185168083038211156141f1576141f16142e4565b01949350505050565b60006001606060020a038083168185168083038211156141f1576141f16142e4565b60008261423a5760e060020a634e487b710281526012600452602481fd5b500490565b6000816000190483118215151615614259576142596142e4565b500290565b600082821015614270576142706142e4565b500390565b60006001606060020a0383811690831681811015614295576142956142e4565b039392505050565b60005b838110156142b85781810151838201526020016142a0565b838111156132c95750506000910152565b60006000198214156142dd576142dd6142e4565b5060010190565b60e060020a634e487b7102600052601160045260246000fd5b60e060020a634e487b7102600052604160045260246000fdfea26469706673582212203ff2bea83f2c3518cffbd14e19618d2569d048532e05a761bfec64c934115ad564736f6c63430008040033",
  "immutableReferences": {},
  "source": "// SPDX-License-Identifier: MIT\npragma solidity ^0.8.0;\n\nimport \"@openzeppelin/contracts/token/ERC20/IERC20.sol\";\nimport \"@openzeppelin/contracts/token/ERC20/utils/SafeERC20.sol\";\nimport \"@openzeppelin/contracts/token/ERC1155/IERC1155.sol\";\nimport \"@openzeppelin/contracts/token/ERC1155/IERC1155Receiver.sol\";\nimport \"@openzeppelin/contracts/utils/introspection/ERC165.sol\";\nimport \"@openzeppelin/contracts/security/ReentrancyGuard.sol\";\nimport \"@openzeppelin/contracts/access/Ownable.sol\";\n\ncontract MultiTokenAuction is ReentrancyGuard, IERC1155Receiver, ERC165, Ownable {\n\n    // using safeErc20 for ierc20 based contract\n    using SafeERC20 for IERC20;\n\n    // constants\n    address constant ADDRESS_NULL             = 0x0000000000000000000000000000000000000000;\n    \n    // max item allow per auction, should not be more than 2^32-1\n    uint    constant MAX_ITEM_PER_AUCTION     = 32;\n    \n    uint    constant BLOCKS_TO_EXPIRE         = 8;\n\n    bytes4  constant ERC1155_ONRECEIVED_RESULT = bytes4(keccak256(\"onERC1155Received(address,address,uint256,uint256,bytes)\"));\n\n    bytes4  constant ERC1155_ONBATCHRECEIVED_RESULT = bytes4(keccak256(\"onERC1155BatchReceived(address,address,uint256[],uint256[],bytes)\"));\n    // uint constant MAX_UINT96 = type(uint96).max;\n\n    struct NFT {\n        address contractAddress;\n        uint    tokenId;\n        uint    amount;\n        uint    minBid;\n        uint    fixedPrice;\n    }\n    \n    struct AuctionResult {\n        address topBidder;\n        uint standingBid;\n        uint finalBid;\n    }\n\n    struct Match {\n        address creatorAddress;\n        address payTokenAddress;\n        uint96 minIncrement; // percentage based\n        uint96 openBlock;\n        uint96 expiryBlock;\n        uint32 expiryExtension; // expiryBlock will be extend (+=) for expiryExtension block(s) if bid updated in range [expiryBlock - expiryExtension + 1 .. expiryBlock]\n        uint32 nftCount;\n    }\n\n    // pay_token_name => token_address\n    mapping(string => address) public  payTokens;\n\n    // matchId => Match\n    mapping(string => Match) public  matches;\n\n    // matchId => index => NFT\n    mapping(string => mapping(uint => NFT)) public  matchNFTs;\n    \n    // matchId => Result\n    mapping(string => mapping(uint => AuctionResult)) public  matchResults;\n    \n    // matchId => player => tokenIndex => payTokenAddress => price\n    mapping(string => mapping(address => mapping(uint => mapping(address => uint)))) private playerBid;\n\n    // address to payTokenAddress => balance\n    mapping(address => mapping(address => uint)) private creatorBalance;\n\n    // events\n    event CreateAuctionEvent(address creatorAddress, string matchId, address payTokenAddress, uint96 openBlock, uint96 expiryBlock, uint96 increment, uint32 expiryExtension, uint tokenIndex, NFT nfts);\n    event PlayerBidEvent(string matchId, address playerAddress, uint tokenIndex, address payTokenAddress, uint bid, uint96 expiryBlock);\n    event RewardEvent(string matchId, uint tokenIndex, address winnerAddress);\n    event PlayerWithdrawBid(string matchId, uint tokenIndex);\n    event ProcessWithdrawNft(string matchId, uint tokenIndex);\n    event CreatorWithdrawProfit(address creatorAddress, address payTokenAddress, uint256 balance);\n    event SetNewPayToken(string tokenName, address tokenAddress);\n\n    // modifier \n    modifier validTokenIndex(string memory matchId, uint tokenIndex) {\n        require(matches[matchId].creatorAddress != ADDRESS_NULL, \"invalid match\"); \n        require(tokenIndex < matches[matchId].nftCount, \"invalid token\");\n        _;\n    }\n\n    modifier creatorOnly(string memory matchId) {\n         require(matches[matchId].creatorAddress == msg.sender, \"creator only function\"); \n        _;\n    }\n    \n    // match finished should be used with checking valid match\n    modifier matchFinished(string memory matchId) {\n        // require(matches[matchId].creatorAddress != ADDRESS_NULL, \"invalid match\");\n        require(matches[matchId].expiryBlock < block.number, \"match is not finished\");\n        _;\n    }\n\n    constructor(string memory _payTokenName, address _payTokenAddress) {\n        require(_payTokenAddress != ADDRESS_NULL, \"invalid token address\");\n\t\tpayTokens[_payTokenName] = _payTokenAddress;\n        emit SetNewPayToken(_payTokenName, _payTokenAddress);\n    }\n\n    function setPayToken(string memory _token_name, address _token_address) external onlyOwner {\n        require(_token_address != ADDRESS_NULL, \"invalid token address\");\n\t\tpayTokens[_token_name] = _token_address;\n        emit SetNewPayToken(_token_name, _token_address);\n\t}\n\n    function createAuction(\n        string memory matchId,\n        string memory payTokenName,\n        uint96 openBlock, \n        uint96 expiryBlock,\n        uint32 expiryExtension,\n        uint96 minIncrement, \n        NFT[] memory nfts) external nonReentrant {\n\n        // check if matchId is occupied\n        require(matches[matchId].creatorAddress == ADDRESS_NULL, \"matchId is occupied\");\n\n        require(payTokens[payTokenName] != ADDRESS_NULL, \"not support this address pay token\");\n        \n        // check valid openBlock, expiryBlock, expiryExtensionOnBidUpdate\n        require(expiryBlock > openBlock && openBlock > block.number, \"condition expiryBlock > openBlock > current block count not satisfied\");\n        require(expiryBlock - openBlock > BLOCKS_TO_EXPIRE * 2,      \"auction time must not less than 2x BLOCKS_TO_EXPIRE\");\n\n        // check increment\n        require(minIncrement < 100, \"increment must be greater than 0 and less than 100%\");\n        \n        // check item count\n        require(nfts.length > 0 && nfts.length <= MAX_ITEM_PER_AUCTION, \"number of nft must be greater than 0 and less than MAX_ITEM_PER_AUCTION\");\n\n        // deposit item to contract\n        for(uint i = 0; i < nfts.length; ++i) {\n            \n            require(nfts[i].minBid > 1, \"minBid must be greater than 1\");\n            require(minIncrement * nfts[i].minBid / 100 > 0, \"increment should be greater than 0\");\n            \n            \n            // if meet requirements then send tokens to contract\n            IERC1155(nfts[i].contractAddress).safeTransferFrom(msg.sender, address(this), nfts[i].tokenId, nfts[i].amount, \"\");\n            \n            // create slots for items\n            matchResults[matchId][i]    = AuctionResult(ADDRESS_NULL, nfts[i].minBid, 0);\n            matchNFTs[matchId][i]       = nfts[i];\n        }\n\n        // create match\n        matches[matchId] = Match(\n            msg.sender,\n            payTokens[payTokenName],\n            minIncrement, // percentage based\n            openBlock,\n            expiryBlock,\n            expiryExtension, // expiryBlock will be extend (+=) for expiryExtension block(s) if bid updated in range [expiryBlock - expiryExtension + 1 .. expiryBlock]\n            uint32(nfts.length)\n        );\n\n        // emit events\n        // reateAuctionEvent(address creatorAddress, string matchId, uint96 openBlock, uint96 expiryBlock, uint96 increment, uint32 expiryExtension, uint tokenIndex, NFT nfts);\n        for(uint i = 0; i < nfts.length; ++i) {\n            emit CreateAuctionEvent(msg.sender, matchId, payTokens[payTokenName], openBlock, expiryBlock, minIncrement, expiryExtension, i, nfts[i]);\n        }\n    }\n\n    function addAuctionNFT(\n        string memory matchId,\n        NFT memory nft) external nonReentrant {\n\n        require(matches[matchId].expiryBlock >= block.number, \"the match is finished\");\n\n        // check if matchId is existence\n        require(matches[matchId].creatorAddress != ADDRESS_NULL, \"matchId non-existent\");\n\n        Match storage amatch = matches[matchId];\n        uint32 nftCount = amatch.nftCount;\n        \n        // check item count\n        require(amatch.nftCount < MAX_ITEM_PER_AUCTION, \"number of nft must be greater than 0 and less than MAX_ITEM_PER_AUCTION\");\n\n        // deposit item to contract\n        require(nft.minBid > 1, \"minBid must be greater than 1\");\n        require(amatch.minIncrement * nft.minBid / 100 > 0, \"increment should be greater than 0\");\n        \n        // if meet requirements then send tokens to contract\n        IERC1155(nft.contractAddress).safeTransferFrom(msg.sender, address(this), nft.tokenId, nft.amount, \"\");\n        \n        // create slots for items\n        matchResults[matchId][nftCount] = AuctionResult(ADDRESS_NULL, nft.minBid, 0);\n        matchNFTs[matchId][nftCount]    = nft;\n\n        // update match\n        amatch.nftCount = uint32(nftCount + 1);\n        // emit events\n        // createAuctionEvent(address creatorAddress, string matchId, address payTokenAddress, uint96 openBlock, uint96 expiryBlock, uint96 increment, uint32 expiryExtension, uint tokenIndex, NFT nfts);\n        emit CreateAuctionEvent(msg.sender, matchId, amatch.payTokenAddress, amatch.openBlock, amatch.expiryBlock, amatch.minIncrement, amatch.expiryExtension, nftCount, nft);\n    }\n\n    function player_bid(string memory matchId, uint tokenIndex, uint amount) external nonReentrant validTokenIndex(matchId, tokenIndex) {\n        Match memory amatch = matches[matchId];\n        address playerAddress = msg.sender;\n        require(amatch.openBlock < block.number && block.number <= amatch.expiryBlock, \"match is not opened for bidding\");\n        \n        AuctionResult memory auctionResult = matchResults[matchId][tokenIndex];\n        uint    standingBid     = auctionResult.standingBid;\n        uint    nftMinBid       = matchNFTs[matchId][tokenIndex].minBid;\n        uint    increment       = nftMinBid * amatch.minIncrement / 100;\n        address payTokenAddress = amatch.payTokenAddress;\n        \n        // check valid amount (> current wining, sender someone different from winner)\n        // known issue: Auction creator should be aware of the case where stadingBid = 1 and min increment >= 1\n        require(\n            amount > standingBid && \n            amount - standingBid >= increment, \n            \"illegal increment\"\n        );\n\n        // update the winner for that token\n        matchResults[matchId][tokenIndex] = AuctionResult(playerAddress, amount, amount);\n    \n        // if in BLOCKS_TO_EXPIRE blocks then extends the auction expiry time\n        if (amatch.expiryBlock - block.number < BLOCKS_TO_EXPIRE) {\n            amatch.expiryBlock += amatch.expiryExtension;\n            matches[matchId].expiryBlock = amatch.expiryBlock;\n        }\n\n        // just transfer (amount - currentBid) of that person to contract\n        uint transferAmount = amount - playerBid[matchId][playerAddress][tokenIndex][payTokenAddress]; // sure that amount always higher than current\n        playerBid[matchId][playerAddress][tokenIndex][payTokenAddress] = amount;\n    \n        // emit event\n        emit PlayerBidEvent(\n            matchId, \n            playerAddress,\n            tokenIndex,\n            payTokenAddress,\n            amount, \n            amatch.expiryBlock\n        );\n        IERC20(payTokenAddress).safeTransferFrom(playerAddress, address(this), transferAmount);\n    }\n\n    function player_fixed_price(string memory matchId, uint tokenIndex) external nonReentrant validTokenIndex(matchId, tokenIndex) {\n        Match memory amatch = matches[matchId];\n        address playerAddress = msg.sender;\n        require(amatch.openBlock < block.number && block.number <= amatch.expiryBlock, \"match is not opened for bidding\");\n        \n        AuctionResult memory auctionResult = matchResults[matchId][tokenIndex];\n        uint standingBid = auctionResult.standingBid;\n        uint fixedPrice  = matchNFTs[matchId][tokenIndex].fixedPrice;\n        address payTokenAddress = amatch.payTokenAddress;\n\n        // check standingBid price\n        require(fixedPrice > standingBid, \"Standingbid has exceeded the fixedPrice\");\n\n        // update the winner for that token\n        matchResults[matchId][tokenIndex] = AuctionResult(playerAddress, fixedPrice, fixedPrice);\n    \n        // if in BLOCKS_TO_EXPIRE blocks then extends the auction expiry time\n        if (amatch.expiryBlock - block.number < BLOCKS_TO_EXPIRE) {\n            amatch.expiryBlock += amatch.expiryExtension;\n            matches[matchId].expiryBlock = amatch.expiryBlock;\n        }\n\n        // just transfer (amount - currentBid) of that person to contract\n        uint transferAmount = fixedPrice - playerBid[matchId][playerAddress][tokenIndex][payTokenAddress]; // sure that amount always higher than current\n        playerBid[matchId][playerAddress][tokenIndex][payTokenAddress] = fixedPrice;\n    \n        // emit event\n        emit PlayerBidEvent(\n            matchId, \n            playerAddress,\n            tokenIndex,\n            payTokenAddress,\n            fixedPrice, \n            amatch.expiryBlock\n        );\n        IERC20(payTokenAddress).safeTransferFrom(playerAddress, address(this), transferAmount);\n\n        // send NFT\n        _win_audit(matchId, tokenIndex);\n    }\n\n    // player can withdraw bid if he is not winner of this match\n    function player_withdraw_bid(string memory matchId, uint tokenIndex) external nonReentrant validTokenIndex(matchId, tokenIndex) {\n        \n        // check if player is top bidder \n        address playerAddress = msg.sender;\n        require(matchResults[matchId][tokenIndex].topBidder != playerAddress, \"top bidder cannot withdraw\");\n        Match memory amatch = matches[matchId];\n        address payTokenAddress = amatch.payTokenAddress;\n\n        uint amount = playerBid[matchId][playerAddress][tokenIndex][payTokenAddress];\n        require(amount > 0, \"bid must be greater than 0 to withdraw\");\n\n        // reset bid amount        \n        playerBid[matchId][playerAddress][tokenIndex][payTokenAddress] = 0;\n\n        // transfer money\n        IERC20(payTokenAddress).safeTransfer(playerAddress, amount); // auto reverts on error\n\n        // emit events\n        // event PlayerWithdrawBid(string matchId, uint tokenIndex);\n        emit PlayerWithdrawBid(matchId, tokenIndex);\n    }\n\n    // anyone can call reward, top bidder and creator are incentivized to call this function to send rewards/profit\n    function reward(string memory matchId, uint tokenIndex) external validTokenIndex(matchId, tokenIndex) matchFinished(matchId) {\n        _win_audit(matchId, tokenIndex);\n    }\n\n    function process_withdraw_nft(string memory matchId, uint tokenIndex) private {\n        // set standingBid to 0 to prevent withdraw again\n        matchResults[matchId][tokenIndex].standingBid = 0;\n        // transfer asset\n        NFT memory nft = matchNFTs[matchId][tokenIndex];\n        IERC1155(nft.contractAddress).safeTransferFrom(address(this), msg.sender, nft.tokenId, nft.amount, \"\");\n\n        // emit events\n        // event ProcessWithdrawNft(string matchId, uint tokenIndex);\n        emit ProcessWithdrawNft(matchId, tokenIndex);\n    }\n\n    // creator withdraws unused nft\n    function creator_withdraw_nft_batch(string memory matchId) external creatorOnly(matchId) matchFinished(matchId) { \n        // check valid matchId, match finished\n        uint _len = matches[matchId].nftCount;\n        for(uint i = 0; i < _len; ++i) {\n            \n            // consider result\n            AuctionResult memory result = matchResults[matchId][i];\n            \n            // if no one wins the token then withdraw \n            if (result.topBidder == ADDRESS_NULL && result.standingBid > 0) {\n                process_withdraw_nft(matchId, i);\n            }\n        }\n    }\n    \n    function creator_withdraw_nft(string memory matchId, uint tokenIndex) external validTokenIndex(matchId, tokenIndex) creatorOnly(matchId) matchFinished(matchId) {\n        AuctionResult memory result = matchResults[matchId][tokenIndex];\n        require (result.topBidder == ADDRESS_NULL && result.standingBid > 0, \"token is not available to withdraw\");\n        \n        process_withdraw_nft(matchId, tokenIndex);\n    }\n\n    function creator_withdraw_profit(string memory payTokenName) external {\n        require(payTokens[payTokenName] != ADDRESS_NULL, \"not support this address pay token\");\n        address payTokenAddress = payTokens[payTokenName];\n\n        uint balance = creatorBalance[msg.sender][payTokenAddress];\n        require(balance > 0, \"creator balance must be greater than 0\");\n        \n        // reset balance \n        creatorBalance[msg.sender][payTokenAddress] = 0;\n        \n        // send money\n        IERC20(payTokenAddress).safeTransfer(msg.sender, balance);\n        // emit events\n        // event CreatorWithdrawProfit(address creatorAddress, uint256 balance);\n        emit CreatorWithdrawProfit(msg.sender, payTokenAddress, balance);\n    }\n\n\n\n    function supportsInterface(bytes4 interfaceId) public view virtual override(ERC165, IERC165) returns (bool) {\n        return\n            interfaceId == type(IERC1155).interfaceId ||\n            super.supportsInterface(interfaceId);\n    }\n\n    function onERC1155Received(address operator, address from, uint256 id, uint256 value, bytes calldata data) external override pure returns (bytes4) {\n        // return ERC1155_ONRECEIVED_RESULT to conform the interface\n        return ERC1155_ONRECEIVED_RESULT;\n    }\n\n    function onERC1155BatchReceived(address operator, address from, uint256[] calldata ids, uint256[] calldata values, bytes calldata data) external override pure returns (bytes4) {\n        // return ERC1155_ONBATCHRECEIVED_RESULT to conform the interface\n        return ERC1155_ONBATCHRECEIVED_RESULT;\n    }\n\n    function get_match(string memory matchId) external view returns(address, address, uint, uint, uint, uint, uint) {\n        Match memory amatch = matches[matchId];\n        return (\n            amatch.creatorAddress,\n            amatch.payTokenAddress,\n            amatch.minIncrement, \n            amatch.openBlock,\n            amatch.expiryBlock,\n            amatch.expiryExtension,\n            amatch.nftCount\n        );\n    }\n\n    function get_pay_token(string calldata payTokenName) external view returns(string memory, address) {\n        return (\n            payTokenName,\n            payTokens[payTokenName]\n        );\n    }\n\n    function get_current_result(string memory matchId, uint tokenIndex) external view returns (address, uint) {\n        return (matchResults[matchId][tokenIndex].topBidder, matchResults[matchId][tokenIndex].standingBid);\n    }\n\n    function get_player_bid(string memory matchId, address playerAddress, uint tokenIndex, address payTokenAddress) external view returns(uint) {\n        return playerBid[matchId][playerAddress][tokenIndex][payTokenAddress];\n    }\n\n    function get_creator_balance(address creatorAddress, address payTokenAddress) external view returns(uint) {\n        return creatorBalance[creatorAddress][payTokenAddress];\n    }\n\n    function _win_audit(string memory matchId, uint tokenIndex) internal returns (bool) {\n        Match memory amatch = matches[matchId];\n        address payTokenAddress = amatch.payTokenAddress;\n\n        address winnerAddress  = matchResults[matchId][tokenIndex].topBidder;\n        uint finalBid  = matchResults[matchId][tokenIndex].finalBid;\n        require(winnerAddress != ADDRESS_NULL, \"winner is not valid\");\n\n        // set result to null\n        matchResults[matchId][tokenIndex] = AuctionResult(ADDRESS_NULL, 0, finalBid);\n\n        // increase creator's balance\n        uint standingBid = playerBid[matchId][winnerAddress][tokenIndex][payTokenAddress];\n        playerBid[matchId][winnerAddress][tokenIndex][payTokenAddress] = 0;\n        creatorBalance[matches[matchId].creatorAddress][payTokenAddress] += standingBid;\n        \n        NFT memory nft = matchNFTs[matchId][tokenIndex];\n        // send nft to address\n        IERC1155(nft.contractAddress).safeTransferFrom(address(this), winnerAddress, nft.tokenId, nft.amount, \"\");\n        emit RewardEvent(matchId, tokenIndex, winnerAddress);\n\n        return true;\n    }\n}",
  "sourcePath": "/Users/tuminfei/Code/Nodejs/uniarts-eth-dao/contracts/core/MultiTokenAuction.sol",
  "compiler": {
    "name": "solc",
    "version": "0.8.4+commit.c7e474f2.Emscripten.clang"
  },
  "schemaVersion": "3.3.0",
  "updatedAt": "2021-12-03T06:30:37.166Z",
  "devdoc": {
    "kind": "dev",
    "methods": {
      "onERC1155BatchReceived(address,address,uint256[],uint256[],bytes)": {
        "details": "Handles the receipt of a multiple ERC1155 token types. This function is called at the end of a `safeBatchTransferFrom` after the balances have been updated. To accept the transfer(s), this must return `bytes4(keccak256(\"onERC1155BatchReceived(address,address,uint256[],uint256[],bytes)\"))` (i.e. 0xbc197c81, or its own function selector).",
        "params": {
          "data": "Additional data with no specified format",
          "from": "The address which previously owned the token",
          "ids": "An array containing ids of each token being transferred (order and length must match values array)",
          "operator": "The address which initiated the batch transfer (i.e. msg.sender)",
          "values": "An array containing amounts of each token being transferred (order and length must match ids array)"
        },
        "returns": {
          "_0": "`bytes4(keccak256(\"onERC1155BatchReceived(address,address,uint256[],uint256[],bytes)\"))` if transfer is allowed"
        }
      },
      "onERC1155Received(address,address,uint256,uint256,bytes)": {
        "details": "Handles the receipt of a single ERC1155 token type. This function is called at the end of a `safeTransferFrom` after the balance has been updated. To accept the transfer, this must return `bytes4(keccak256(\"onERC1155Received(address,address,uint256,uint256,bytes)\"))` (i.e. 0xf23a6e61, or its own function selector).",
        "params": {
          "data": "Additional data with no specified format",
          "from": "The address which previously owned the token",
          "id": "The ID of the token being transferred",
          "operator": "The address which initiated the transfer (i.e. msg.sender)",
          "value": "The amount of tokens being transferred"
        },
        "returns": {
          "_0": "`bytes4(keccak256(\"onERC1155Received(address,address,uint256,uint256,bytes)\"))` if transfer is allowed"
        }
      },
      "owner()": {
        "details": "Returns the address of the current owner."
      },
      "renounceOwnership()": {
        "details": "Leaves the contract without owner. It will not be possible to call `onlyOwner` functions anymore. Can only be called by the current owner. NOTE: Renouncing ownership will leave the contract without an owner, thereby removing any functionality that is only available to the owner."
      },
      "transferOwnership(address)": {
        "details": "Transfers ownership of the contract to a new account (`newOwner`). Can only be called by the current owner."
      }
    },
    "version": 1
  },
  "userdoc": {
    "kind": "user",
    "methods": {},
    "version": 1
  }
}