{
  "contractName": "MultiTokenAuction",
  "abi": [
    {
      "inputs": [
        {
          "internalType": "address",
          "name": "usdtContractAddress",
          "type": "address"
        }
      ],
      "stateMutability": "nonpayable",
      "type": "constructor"
    },
    {
      "anonymous": false,
      "inputs": [
        {
          "indexed": false,
          "internalType": "address",
          "name": "creatorAddress",
          "type": "address"
        },
        {
          "indexed": false,
          "internalType": "string",
          "name": "matchId",
          "type": "string"
        },
        {
          "indexed": false,
          "internalType": "uint96",
          "name": "openBlock",
          "type": "uint96"
        },
        {
          "indexed": false,
          "internalType": "uint96",
          "name": "expiryBlock",
          "type": "uint96"
        },
        {
          "indexed": false,
          "internalType": "uint96",
          "name": "increment",
          "type": "uint96"
        },
        {
          "indexed": false,
          "internalType": "uint32",
          "name": "expiryExtension",
          "type": "uint32"
        },
        {
          "indexed": false,
          "internalType": "uint256",
          "name": "tokenIndex",
          "type": "uint256"
        },
        {
          "components": [
            {
              "internalType": "address",
              "name": "contractAddress",
              "type": "address"
            },
            {
              "internalType": "uint256",
              "name": "tokenId",
              "type": "uint256"
            },
            {
              "internalType": "uint256",
              "name": "amount",
              "type": "uint256"
            },
            {
              "internalType": "uint256",
              "name": "minBid",
              "type": "uint256"
            },
            {
              "internalType": "uint256",
              "name": "fixedPrice",
              "type": "uint256"
            }
          ],
          "indexed": false,
          "internalType": "struct MultiTokenAuction.NFT",
          "name": "nfts",
          "type": "tuple"
        }
      ],
      "name": "CreateAuctionEvent",
      "type": "event"
    },
    {
      "anonymous": false,
      "inputs": [
        {
          "indexed": false,
          "internalType": "address",
          "name": "creatorAddress",
          "type": "address"
        },
        {
          "indexed": false,
          "internalType": "uint256",
          "name": "balance",
          "type": "uint256"
        }
      ],
      "name": "CreatorWithdrawProfit",
      "type": "event"
    },
    {
      "anonymous": false,
      "inputs": [
        {
          "indexed": false,
          "internalType": "string",
          "name": "matchId",
          "type": "string"
        },
        {
          "indexed": false,
          "internalType": "address",
          "name": "playerAddress",
          "type": "address"
        },
        {
          "indexed": false,
          "internalType": "uint256",
          "name": "tokenIndex",
          "type": "uint256"
        },
        {
          "indexed": false,
          "internalType": "uint256",
          "name": "bid",
          "type": "uint256"
        },
        {
          "indexed": false,
          "internalType": "uint96",
          "name": "expiryBlock",
          "type": "uint96"
        }
      ],
      "name": "PlayerBidEvent",
      "type": "event"
    },
    {
      "anonymous": false,
      "inputs": [
        {
          "indexed": false,
          "internalType": "string",
          "name": "matchId",
          "type": "string"
        },
        {
          "indexed": false,
          "internalType": "uint256",
          "name": "tokenIndex",
          "type": "uint256"
        }
      ],
      "name": "PlayerWithdrawBid",
      "type": "event"
    },
    {
      "anonymous": false,
      "inputs": [
        {
          "indexed": false,
          "internalType": "string",
          "name": "matchId",
          "type": "string"
        },
        {
          "indexed": false,
          "internalType": "uint256",
          "name": "tokenIndex",
          "type": "uint256"
        }
      ],
      "name": "ProcessWithdrawNft",
      "type": "event"
    },
    {
      "anonymous": false,
      "inputs": [
        {
          "indexed": false,
          "internalType": "string",
          "name": "matchId",
          "type": "string"
        },
        {
          "indexed": false,
          "internalType": "uint256",
          "name": "tokenIndex",
          "type": "uint256"
        },
        {
          "indexed": false,
          "internalType": "address",
          "name": "winnerAddress",
          "type": "address"
        }
      ],
      "name": "RewardEvent",
      "type": "event"
    },
    {
      "inputs": [],
      "name": "USDT_ADDRESS",
      "outputs": [
        {
          "internalType": "address",
          "name": "",
          "type": "address"
        }
      ],
      "stateMutability": "view",
      "type": "function"
    },
    {
      "inputs": [
        {
          "internalType": "string",
          "name": "",
          "type": "string"
        },
        {
          "internalType": "uint256",
          "name": "",
          "type": "uint256"
        }
      ],
      "name": "matchNFTs",
      "outputs": [
        {
          "internalType": "address",
          "name": "contractAddress",
          "type": "address"
        },
        {
          "internalType": "uint256",
          "name": "tokenId",
          "type": "uint256"
        },
        {
          "internalType": "uint256",
          "name": "amount",
          "type": "uint256"
        },
        {
          "internalType": "uint256",
          "name": "minBid",
          "type": "uint256"
        },
        {
          "internalType": "uint256",
          "name": "fixedPrice",
          "type": "uint256"
        }
      ],
      "stateMutability": "view",
      "type": "function"
    },
    {
      "inputs": [
        {
          "internalType": "string",
          "name": "",
          "type": "string"
        },
        {
          "internalType": "uint256",
          "name": "",
          "type": "uint256"
        }
      ],
      "name": "matchResults",
      "outputs": [
        {
          "internalType": "address",
          "name": "topBidder",
          "type": "address"
        },
        {
          "internalType": "uint256",
          "name": "standingBid",
          "type": "uint256"
        },
        {
          "internalType": "uint256",
          "name": "finalBid",
          "type": "uint256"
        }
      ],
      "stateMutability": "view",
      "type": "function"
    },
    {
      "inputs": [
        {
          "internalType": "string",
          "name": "",
          "type": "string"
        }
      ],
      "name": "matches",
      "outputs": [
        {
          "internalType": "address",
          "name": "creatorAddress",
          "type": "address"
        },
        {
          "internalType": "uint96",
          "name": "minIncrement",
          "type": "uint96"
        },
        {
          "internalType": "uint96",
          "name": "openBlock",
          "type": "uint96"
        },
        {
          "internalType": "uint96",
          "name": "expiryBlock",
          "type": "uint96"
        },
        {
          "internalType": "uint32",
          "name": "expiryExtension",
          "type": "uint32"
        },
        {
          "internalType": "uint32",
          "name": "nftCount",
          "type": "uint32"
        }
      ],
      "stateMutability": "view",
      "type": "function"
    },
    {
      "inputs": [
        {
          "internalType": "string",
          "name": "matchId",
          "type": "string"
        },
        {
          "internalType": "uint96",
          "name": "openBlock",
          "type": "uint96"
        },
        {
          "internalType": "uint96",
          "name": "expiryBlock",
          "type": "uint96"
        },
        {
          "internalType": "uint32",
          "name": "expiryExtension",
          "type": "uint32"
        },
        {
          "internalType": "uint96",
          "name": "minIncrement",
          "type": "uint96"
        },
        {
          "components": [
            {
              "internalType": "address",
              "name": "contractAddress",
              "type": "address"
            },
            {
              "internalType": "uint256",
              "name": "tokenId",
              "type": "uint256"
            },
            {
              "internalType": "uint256",
              "name": "amount",
              "type": "uint256"
            },
            {
              "internalType": "uint256",
              "name": "minBid",
              "type": "uint256"
            },
            {
              "internalType": "uint256",
              "name": "fixedPrice",
              "type": "uint256"
            }
          ],
          "internalType": "struct MultiTokenAuction.NFT[]",
          "name": "nfts",
          "type": "tuple[]"
        }
      ],
      "name": "createAuction",
      "outputs": [],
      "stateMutability": "nonpayable",
      "type": "function"
    },
    {
      "inputs": [
        {
          "internalType": "string",
          "name": "matchId",
          "type": "string"
        },
        {
          "components": [
            {
              "internalType": "address",
              "name": "contractAddress",
              "type": "address"
            },
            {
              "internalType": "uint256",
              "name": "tokenId",
              "type": "uint256"
            },
            {
              "internalType": "uint256",
              "name": "amount",
              "type": "uint256"
            },
            {
              "internalType": "uint256",
              "name": "minBid",
              "type": "uint256"
            },
            {
              "internalType": "uint256",
              "name": "fixedPrice",
              "type": "uint256"
            }
          ],
          "internalType": "struct MultiTokenAuction.NFT",
          "name": "nft",
          "type": "tuple"
        }
      ],
      "name": "addAuctionNFT",
      "outputs": [],
      "stateMutability": "nonpayable",
      "type": "function"
    },
    {
      "inputs": [
        {
          "internalType": "string",
          "name": "matchId",
          "type": "string"
        },
        {
          "internalType": "uint256",
          "name": "tokenIndex",
          "type": "uint256"
        },
        {
          "internalType": "uint256",
          "name": "amount",
          "type": "uint256"
        }
      ],
      "name": "player_bid",
      "outputs": [],
      "stateMutability": "nonpayable",
      "type": "function"
    },
    {
      "inputs": [
        {
          "internalType": "string",
          "name": "matchId",
          "type": "string"
        },
        {
          "internalType": "uint256",
          "name": "tokenIndex",
          "type": "uint256"
        }
      ],
      "name": "player_fixed_price",
      "outputs": [],
      "stateMutability": "nonpayable",
      "type": "function"
    },
    {
      "inputs": [
        {
          "internalType": "string",
          "name": "matchId",
          "type": "string"
        },
        {
          "internalType": "uint256",
          "name": "tokenIndex",
          "type": "uint256"
        }
      ],
      "name": "player_withdraw_bid",
      "outputs": [],
      "stateMutability": "nonpayable",
      "type": "function"
    },
    {
      "inputs": [
        {
          "internalType": "string",
          "name": "matchId",
          "type": "string"
        },
        {
          "internalType": "uint256",
          "name": "tokenIndex",
          "type": "uint256"
        }
      ],
      "name": "reward",
      "outputs": [],
      "stateMutability": "nonpayable",
      "type": "function"
    },
    {
      "inputs": [
        {
          "internalType": "string",
          "name": "matchId",
          "type": "string"
        }
      ],
      "name": "creator_withdraw_nft_batch",
      "outputs": [],
      "stateMutability": "nonpayable",
      "type": "function"
    },
    {
      "inputs": [
        {
          "internalType": "string",
          "name": "matchId",
          "type": "string"
        },
        {
          "internalType": "uint256",
          "name": "tokenIndex",
          "type": "uint256"
        }
      ],
      "name": "creator_withdraw_nft",
      "outputs": [],
      "stateMutability": "nonpayable",
      "type": "function"
    },
    {
      "inputs": [],
      "name": "creator_withdraw_profit",
      "outputs": [],
      "stateMutability": "nonpayable",
      "type": "function"
    },
    {
      "inputs": [
        {
          "internalType": "bytes4",
          "name": "interfaceId",
          "type": "bytes4"
        }
      ],
      "name": "supportsInterface",
      "outputs": [
        {
          "internalType": "bool",
          "name": "",
          "type": "bool"
        }
      ],
      "stateMutability": "view",
      "type": "function"
    },
    {
      "inputs": [
        {
          "internalType": "address",
          "name": "operator",
          "type": "address"
        },
        {
          "internalType": "address",
          "name": "from",
          "type": "address"
        },
        {
          "internalType": "uint256",
          "name": "id",
          "type": "uint256"
        },
        {
          "internalType": "uint256",
          "name": "value",
          "type": "uint256"
        },
        {
          "internalType": "bytes",
          "name": "data",
          "type": "bytes"
        }
      ],
      "name": "onERC1155Received",
      "outputs": [
        {
          "internalType": "bytes4",
          "name": "",
          "type": "bytes4"
        }
      ],
      "stateMutability": "pure",
      "type": "function"
    },
    {
      "inputs": [
        {
          "internalType": "address",
          "name": "operator",
          "type": "address"
        },
        {
          "internalType": "address",
          "name": "from",
          "type": "address"
        },
        {
          "internalType": "uint256[]",
          "name": "ids",
          "type": "uint256[]"
        },
        {
          "internalType": "uint256[]",
          "name": "values",
          "type": "uint256[]"
        },
        {
          "internalType": "bytes",
          "name": "data",
          "type": "bytes"
        }
      ],
      "name": "onERC1155BatchReceived",
      "outputs": [
        {
          "internalType": "bytes4",
          "name": "",
          "type": "bytes4"
        }
      ],
      "stateMutability": "pure",
      "type": "function"
    },
    {
      "inputs": [
        {
          "internalType": "string",
          "name": "matchId",
          "type": "string"
        }
      ],
      "name": "get_match",
      "outputs": [
        {
          "internalType": "address",
          "name": "",
          "type": "address"
        },
        {
          "internalType": "uint256",
          "name": "",
          "type": "uint256"
        },
        {
          "internalType": "uint256",
          "name": "",
          "type": "uint256"
        },
        {
          "internalType": "uint256",
          "name": "",
          "type": "uint256"
        },
        {
          "internalType": "uint256",
          "name": "",
          "type": "uint256"
        },
        {
          "internalType": "uint256",
          "name": "",
          "type": "uint256"
        }
      ],
      "stateMutability": "view",
      "type": "function"
    },
    {
      "inputs": [
        {
          "internalType": "string",
          "name": "matchId",
          "type": "string"
        },
        {
          "internalType": "uint256",
          "name": "tokenIndex",
          "type": "uint256"
        }
      ],
      "name": "get_current_result",
      "outputs": [
        {
          "internalType": "address",
          "name": "",
          "type": "address"
        },
        {
          "internalType": "uint256",
          "name": "",
          "type": "uint256"
        }
      ],
      "stateMutability": "view",
      "type": "function"
    },
    {
      "inputs": [
        {
          "internalType": "string",
          "name": "matchId",
          "type": "string"
        },
        {
          "internalType": "address",
          "name": "playerAddress",
          "type": "address"
        },
        {
          "internalType": "uint256",
          "name": "tokenIndex",
          "type": "uint256"
        }
      ],
      "name": "get_player_bid",
      "outputs": [
        {
          "internalType": "uint256",
          "name": "",
          "type": "uint256"
        }
      ],
      "stateMutability": "view",
      "type": "function"
    },
    {
      "inputs": [
        {
          "internalType": "address",
          "name": "creatorAddress",
          "type": "address"
        }
      ],
      "name": "get_creator_balance",
      "outputs": [
        {
          "internalType": "uint256",
          "name": "",
          "type": "uint256"
        }
      ],
      "stateMutability": "view",
      "type": "function"
    }
  ],
  "bytecode": "0x60806040523480156200001157600080fd5b5060405162003ad338038062003ad38339810160408190526200003491620000fa565b6001600055600160a060020a038116620000d4576040517f08c379a000000000000000000000000000000000000000000000000000000000815260206004820152602c60248201527f75736474436f6e7472616374416464726573732073686f756c64206e6f74206260448201527f6520616464726573732830290000000000000000000000000000000000000000606482015260840160405180910390fd5b60068054600160a060020a031916600160a060020a03929092169190911790556200012a565b6000602082840312156200010c578081fd5b8151600160a060020a038116811462000123578182fd5b9392505050565b613999806200013a6000396000f3fe608060405234801561001057600080fd5b50600436106101305760003560e060020a90048063b4add993116100b1578063e3c6623d11610075578063e3c6623d1461046c578063e552e5f8146104e5578063ecbcc04a146104f8578063efc631a81461050b578063f23a6e611461051357600080fd5b8063b4add99314610390578063bc197c81146103c7578063c18920581461041b578063d9de66f114610446578063df4a252c1461045957600080fd5b8063458110a3116100f8578063458110a31461027b578063479f7e891461028e578063528f0f56146103205780638b616f1f14610333578063926676f51461037d57600080fd5b806301ffc9a7146101355780630c97531b1461015d57806318200e9e1461017257806332ac752b1461018557806338dfdcb614610249575b600080fd5b61014861014336600461312d565b61054c565b60405190151581526020015b60405180910390f35b61017061016b366004613155565b6105b5565b005b61017061018036600461322a565b610767565b6101fc610193366004613155565b805180820160209081018051600180835293830192909401919091209290528154910154600160a060020a038216916001606060020a0360a060020a90910481169180821691606060020a8204169063ffffffff60c060020a820481169160e060020a90041686565b60408051600160a060020a0390971687526001606060020a039586166020880152938516938601939093529216606084015263ffffffff91821660808401521660a082015260c001610154565b61025c61025736600461322a565b610878565b60408051600160a060020a039093168352602083019190915201610154565b61017061028936600461326d565b6108ed565b6102ee61029c36600461322a565b81516020818401810180516002808352938301958301959095209490529290925260009081526040902080546001820154928201546003830154600490930154600160a060020a039092169392909185565b60408051600160a060020a0390961686526020860194909452928401919091526060830152608082015260a001610154565b61017061032e36600461322a565b610dfd565b610346610341366004613155565b611074565b60408051600160a060020a0390971687526020870195909552938501929092526060840152608083015260a082015260c001610154565b61017061038b3660046132b9565b61112a565b6103b961039e366004612fc6565b600160a060020a031660009081526005602052604090205490565b604051908152602001610154565b6104026103d5366004612fe0565b7fbc197c819b3e337a6f9652dd10becd7eef83032af3b9d958d3d42f669414662198975050505050505050565b604051600160e060020a03199091168152602001610154565b60065461042e90600160a060020a031681565b604051600160a060020a039091168152602001610154565b6101706104543660046131dd565b6118f0565b61017061046736600461322a565b611d76565b6104c061047a36600461322a565b815160208184018101805160038252928201948201949094209190935290915260009081526040902080546001820154600290920154600160a060020a03909116919083565b60408051600160a060020a039094168452602084019290925290820152606001610154565b6101706104f336600461322a565b612020565b6103b9610506366004613188565b61250b565b610170612556565b610402610521366004613097565b7ff23a6e612e1ff4830e658fe43f4e3cb4a5f8170bd5d9e69fb5d7a7fa9e4fdf979695505050505050565b6000600160e060020a031982167fd9b67a260000000000000000000000000000000000000000000000000000000014806105af57507f01ffc9a700000000000000000000000000000000000000000000000000000000600160e060020a03198316145b92915050565b8033600160a060020a03166001826040516105d0919061343c565b90815260405190819003602001902054600160a060020a03161461063e5760405160e560020a62461bcd02815260206004820152601560248201527f63726561746f72206f6e6c792066756e6374696f6e000000000000000000000060448201526064015b60405180910390fd5b8143600182604051610650919061343c565b908152604051908190036020019020600101546001606060020a03606060020a90910416106106945760405160e560020a62461bcd028152600401610635906136ae565b60006001846040516106a6919061343c565b9081526040519081900360200190206001015463ffffffff60e060020a90910416905060005b818110156107605760006003866040516106e6919061343c565b908152604080516020928190038301812060008681529084528290206060820183528054600160a060020a031680835260018201549483019490945260020154918101919091529150158015610740575060008160200151115b1561074f5761074f8683612641565b5061075981613916565b90506106cc565b5050505050565b81816000600160a060020a0316600183604051610784919061343c565b90815260405190819003602001902054600160a060020a031614156107be5760405160e560020a62461bcd02815260040161063590613677565b6001826040516107ce919061343c565b9081526040519081900360200190206001015463ffffffff60e060020a9091041681106108105760405160e560020a62461bcd028152600401610635906136e5565b8343600182604051610822919061343c565b908152604051908190036020019020600101546001606060020a03606060020a90910416106108665760405160e560020a62461bcd028152600401610635906136ae565b610870858561278e565b505050505050565b60008060038460405161088b919061343c565b908152604080519182900360209081018320600087815291522054600160a060020a0316906003906108be90879061343c565b9081526020016040518091039020600085815260200190815260200160002060010154915091505b9250929050565b600260005414156109135760405160e560020a62461bcd0281526004016106359061379f565b600260009081556040518491849160019061092f90859061343c565b90815260405190819003602001902054600160a060020a031614156109695760405160e560020a62461bcd02815260040161063590613677565b600182604051610979919061343c565b9081526040519081900360200190206001015463ffffffff60e060020a9091041681106109bb5760405160e560020a62461bcd028152600401610635906136e5565b60006001866040516109cd919061343c565b90815260408051918290036020908101832060c0840183528054600160a060020a03811685526001606060020a0360a060020a90910481169285019290925260010154808216928401839052606060020a8104909116606084015263ffffffff60c060020a82048116608085015260e060020a9091041660a0830152909150339043118015610a69575081606001516001606060020a03164311155b610ab85760405160e560020a62461bcd02815260206004820152601f60248201527f6d61746368206973206e6f74206f70656e656420666f722062696464696e67006044820152606401610635565b6000600388604051610aca919061343c565b908152604080516020928190038301812060008b81529084528281206060830184528054600160a060020a0316835260018101549483018590526002908101548385015292519194509190610b20908c9061343c565b908152602001604051809103902060008a81526020019081526020016000206003015490506000606486602001516001606060020a031683610b62919061388c565b610b6c9190613869565b90508289118015610b86575080610b83848b6138ab565b10155b610bd55760405160e560020a62461bcd02815260206004820152601160248201527f696c6c6567616c20696e6372656d656e740000000000000000000000000000006044820152606401610635565b604051806060016040528086600160a060020a031681526020018a81526020018a81525060038c604051610c09919061343c565b908152604080516020928190038301902060008e815290835281902083518154600160a060020a031916600160a060020a0390911617815591830151600183015591909101516002909101556060860151600890610c719043906001606060020a03166138ab565b1015610ceb57856080015163ffffffff1686606001818151610c939190613847565b6001606060020a03169052506060860151604051600190610cb5908e9061343c565b9081526020016040518091039020600101600c6101000a8154816001606060020a0302191690836001606060020a031602179055505b600060048c604051610cfd919061343c565b9081526040805160209281900383019020600160a060020a03891660009081529083528181208e8252909252902054610d36908b6138ab565b90508960048d604051610d49919061343c565b9081526020016040518091039020600088600160a060020a0316600160a060020a0316815260200190815260200160002060008d8152602001908152602001600020819055507f18fd97230ae5f6949392b9c1f01de56b7f025e5ce8085c22eb32ee8dad59e53c8c878d8d8b60600151604051610dca95949392919061357d565b60405180910390a1600654610dea90600160a060020a0316873084612ac4565b5050600160005550505050505050505050565b81816000600160a060020a0316600183604051610e1a919061343c565b90815260405190819003602001902054600160a060020a03161415610e545760405160e560020a62461bcd02815260040161063590613677565b600182604051610e64919061343c565b9081526040519081900360200190206001015463ffffffff60e060020a909104168110610ea65760405160e560020a62461bcd028152600401610635906136e5565b8333600160a060020a0316600182604051610ec1919061343c565b90815260405190819003602001902054600160a060020a031614610f2a5760405160e560020a62461bcd02815260206004820152601560248201527f63726561746f72206f6e6c792066756e6374696f6e00000000000000000000006044820152606401610635565b8443600182604051610f3c919061343c565b908152604051908190036020019020600101546001606060020a03606060020a9091041610610f805760405160e560020a62461bcd028152600401610635906136ae565b6000600387604051610f92919061343c565b908152604080516020928190038301812060008a81529084528290206060820183528054600160a060020a031680835260018201549483019490945260020154918101919091529150158015610fec575060008160200151115b6110615760405160e560020a62461bcd02815260206004820152602260248201527f746f6b656e206973206e6f7420617661696c61626c6520746f2077697468647260448201527f61770000000000000000000000000000000000000000000000000000000000006064820152608401610635565b61106b8787612641565b50505050505050565b600080600080600080600060018860405161108f919061343c565b90815260408051918290036020908101832060c0840183528054600160a060020a0381168086526001606060020a0360a060020a9092048216938601849052600190920154808216948601859052606060020a81049091166060860181905263ffffffff60c060020a830481166080880181905260e060020a9093041660a0909601869052919d929c50929a50985090965090945092505050565b600260005414156111505760405160e560020a62461bcd0281526004016106359061379f565b6002600090815560405160019061116890899061343c565b90815260405190819003602001902054600160a060020a0316146111d15760405160e560020a62461bcd02815260206004820152601360248201527f6d617463684964206973206f63637570696564000000000000000000000000006044820152606401610635565b846001606060020a0316846001606060020a03161180156111fa575043856001606060020a0316115b6112955760405160e560020a62461bcd02815260206004820152604560248201527f636f6e646974696f6e20657870697279426c6f636b203e206f70656e426c6f6360448201527f6b203e2063757272656e7420626c6f636b20636f756e74206e6f74207361746960648201527f7366696564000000000000000000000000000000000000000000000000000000608482015260a401610635565b6112a16008600261388c565b6112ab86866138c2565b6001606060020a03161161132a5760405160e560020a62461bcd02815260206004820152603360248201527f61756374696f6e2074696d65206d757374206e6f74206c657373207468616e2060448201527f327820424c4f434b535f544f5f455850495245000000000000000000000000006064820152608401610635565b6064826001606060020a0316106113ac5760405160e560020a62461bcd02815260206004820152603360248201527f696e6372656d656e74206d7573742062652067726561746572207468616e203060448201527f20616e64206c657373207468616e2031303025000000000000000000000000006064820152608401610635565b600081511180156113bf57506020815111155b6113de5760405160e560020a62461bcd0281526004016106359061371c565b60005b815181101561172957600182828151811061140f5760e060020a634e487b7102600052603260045260246000fd5b6020026020010151606001511161146b5760405160e560020a62461bcd02815260206004820152601d60248201527f6d696e426964206d7573742062652067726561746572207468616e20310000006044820152606401610635565b600060648383815181106114925760e060020a634e487b7102600052603260045260246000fd5b602002602001015160600151856001606060020a03166114b2919061388c565b6114bc9190613869565b116114dc5760405160e560020a62461bcd0281526004016106359061361a565b8181815181106114ff5760e060020a634e487b7102600052603260045260246000fd5b602002602001015160000151600160a060020a031663f242432a333085858151811061153e5760e060020a634e487b7102600052603260045260246000fd5b60200260200101516020015186868151811061156d5760e060020a634e487b7102600052603260045260246000fd5b6020026020010151604001516040518563ffffffff1660e060020a02815260040161159b9493929190613458565b600060405180830381600087803b1580156115b557600080fd5b505af11580156115c9573d6000803e3d6000fd5b5050505060405180606001604052806000600160a060020a0316815260200183838151811061160b5760e060020a634e487b7102600052603260045260246000fd5b60200260200101516060015181526020016000815250600388604051611631919061343c565b9081526040805160209281900383019020600085815290835281902083518154600160a060020a031916600160a060020a03909116178155918301516001830155919091015160029091015581518290829081106116a25760e060020a634e487b7102600052603260045260246000fd5b60200260200101516002886040516116ba919061343c565b9081526040805160209281900383019020600085815290835281902083518154600160a060020a031916600160a060020a0390911617815591830151600183015582015160028201556060820151600382015560809091015160049091015561172281613916565b90506113e1565b506040805160c0810182523381526001606060020a038085166020830152878116828401528616606082015263ffffffff808616608083015283511660a0820152905160019061177a90899061343c565b9081526040805160209281900383019020835192840151600160a060020a0390931660a060020a6001606060020a039485160217815590830151600190910180546060850151608086015160a09096015193851677ffffffffffffffffffffffffffffffffffffffffffffffff1990921691909117606060020a91909416029290921777ffffffffffffffffffffffffffffffffffffffffffffffff1660c060020a63ffffffff948516027bffffffffffffffffffffffffffffffffffffffffffffffffffffffff161760e060020a939091169290920291909117905560005b81518110156118e2577f9cdce5c6b39e84539760cc76a5a11ca5515a5e2008a24295355e8af952ffde5f338888888789878989815181106118ae5760e060020a634e487b7102600052603260045260246000fd5b60200260200101516040516118ca989796959493929190613490565b60405180910390a16118db81613916565b905061185a565b505060016000555050505050565b600260005414156119165760405160e560020a62461bcd0281526004016106359061379f565b6002600055604051439060019061192e90859061343c565b908152604051908190036020019020600101546001606060020a03606060020a9091041610156119a35760405160e560020a62461bcd02815260206004820152601560248201527f746865206d617463682069732066696e697368656400000000000000000000006044820152606401610635565b6000600160a060020a03166001836040516119be919061343c565b90815260405190819003602001902054600160a060020a03161415611a285760405160e560020a62461bcd02815260206004820152601460248201527f6d617463684964206e6f6e2d6578697374656e740000000000000000000000006044820152606401610635565b6000600183604051611a3a919061343c565b90815260405160209181900382019020600181015490925060e060020a900463ffffffff16908110611a815760405160e560020a62461bcd0281526004016106359061371c565b6001836060015111611ad85760405160e560020a62461bcd02815260206004820152601d60248201527f6d696e426964206d7573742062652067726561746572207468616e20310000006044820152606401610635565b60608301518254600091606491611aff919060a060020a90046001606060020a031661388c565b611b099190613869565b11611b295760405160e560020a62461bcd0281526004016106359061361a565b8251602084015160408086015190517ff242432a000000000000000000000000000000000000000000000000000000008152600160a060020a039093169263f242432a92611b7f92339230929190600401613458565b600060405180830381600087803b158015611b9957600080fd5b505af1158015611bad573d6000803e3d6000fd5b5050505060405180606001604052806000600160a060020a03168152602001846060015181526020016000815250600385604051611beb919061343c565b908152604080516020928190038301812063ffffffff8616600090815290845282902084518154600160a060020a031916600160a060020a039091161781559284015160018401559201516002918201558491611c4990879061343c565b908152604080516020928190038301902063ffffffff8516600090815290835281902083518154600160a060020a031916600160a060020a039091161781559183015160018084019190915590830151600283015560608301516003830155608090920151600490910155611cbf90829061381f565b6001830180547bffffffffffffffffffffffffffffffffffffffffffffffffffffffff811660e060020a63ffffffff948516029081179283905585546040517f9cdce5c6b39e84539760cc76a5a11ca5515a5e2008a24295355e8af952ffde5f95611d639533958c956001606060020a039182169082161794606060020a830482169460a060020a9091049091169260c060020a9092049091169089908c90613503565b60405180910390a1505060016000555050565b60026000541415611d9c5760405160e560020a62461bcd0281526004016106359061379f565b6002600090815560405183918391600190611db890859061343c565b90815260405190819003602001902054600160a060020a03161415611df25760405160e560020a62461bcd02815260040161063590613677565b600182604051611e02919061343c565b9081526040519081900360200190206001015463ffffffff60e060020a909104168110611e445760405160e560020a62461bcd028152600401610635906136e5565b60405133908190600390611e5990889061343c565b908152604080516020928190038301902060008881529252902054600160a060020a03161415611ece5760405160e560020a62461bcd02815260206004820152601a60248201527f746f70206269646465722063616e6e6f742077697468647261770000000000006044820152606401610635565b6000600486604051611ee0919061343c565b9081526040805160209281900383019020600160a060020a0385166000908152908352818120888252909252902054905080611f875760405160e560020a62461bcd02815260206004820152602660248201527f626964206d7573742062652067726561746572207468616e203020746f20776960448201527f74686472617700000000000000000000000000000000000000000000000000006064820152608401610635565b6000600487604051611f99919061343c565b9081526040805160209281900383019020600160a060020a0386811660009081529184528282208a83529093522091909155600654611fda91168383612b63565b7fe52c89ae59d5e3dd4f42a0ee449ca0fd232fe794ead560f455c44480e114c225868660405161200b9291906135c6565b60405180910390a15050600160005550505050565b600260005414156120465760405160e560020a62461bcd0281526004016106359061379f565b600260009081556040518391839160019061206290859061343c565b90815260405190819003602001902054600160a060020a0316141561209c5760405160e560020a62461bcd02815260040161063590613677565b6001826040516120ac919061343c565b9081526040519081900360200190206001015463ffffffff60e060020a9091041681106120ee5760405160e560020a62461bcd028152600401610635906136e5565b6000600185604051612100919061343c565b90815260408051918290036020908101832060c0840183528054600160a060020a03811685526001606060020a0360a060020a90910481169285019290925260010154808216928401839052606060020a8104909116606084015263ffffffff60c060020a82048116608085015260e060020a9091041660a083015290915033904311801561219c575081606001516001606060020a03164311155b6121eb5760405160e560020a62461bcd02815260206004820152601f60248201527f6d61746368206973206e6f74206f70656e656420666f722062696464696e67006044820152606401610635565b60006003876040516121fd919061343c565b908152604080516020928190038301812060008a81529084528281206060830184528054600160a060020a0316835260018101549483018590526002908101548385015292519194509190612253908b9061343c565b908152602001604051809103902060008981526020019081526020016000206004015490508181116122f05760405160e560020a62461bcd02815260206004820152602760248201527f5374616e64696e6762696420686173206578636565646564207468652066697860448201527f65645072696365000000000000000000000000000000000000000000000000006064820152608401610635565b604051806060016040528085600160a060020a031681526020018281526020018281525060038a604051612324919061343c565b908152604080516020928190038301902060008c815290835281902083518154600160a060020a031916600160a060020a039091161781559183015160018301559190910151600290910155606085015160089061238c9043906001606060020a03166138ab565b101561240657846080015163ffffffff16856060018181516123ae9190613847565b6001606060020a031690525060608501516040516001906123d0908c9061343c565b9081526020016040518091039020600101600c6101000a8154816001606060020a0302191690836001606060020a031602179055505b600060048a604051612418919061343c565b9081526040805160209281900383019020600160a060020a03881660009081529083528181208c825290925290205461245190836138ab565b90508160048b604051612464919061343c565b908152604080519182900360209081018320600160a060020a038a1660009081529082528281208e8252909152209190915560608701517f18fd97230ae5f6949392b9c1f01de56b7f025e5ce8085c22eb32ee8dad59e53c916124cf918d9189918e9188919061357d565b60405180910390a16006546124ef90600160a060020a0316863084612ac4565b6124f98a8a61278e565b50506001600055505050505050505050565b600060048460405161251d919061343c565b9081526040805160209281900383019020600160a060020a038616600090815290835281812085825290925290205490505b9392505050565b33600090815260056020526040902054806125dc5760405160e560020a62461bcd02815260206004820152602660248201527f63726561746f722062616c616e6365206d75737420626520677265617465722060448201527f7468616e203000000000000000000000000000000000000000000000000000006064820152608401610635565b3360008181526005602052604081205560065461260591600160a060020a039091169083612b63565b60408051338152602081018390527fffc88570d28bf95def0cf0e57bee4039feec71380d468be43b898b9e69b01ebb910160405180910390a150565b6000600383604051612653919061343c565b908152604080519182900360209081018320600086815291529081206001019290925560029061268490859061343c565b9081526040805160209281900383018120600086815290845282902060a0820183528054600160a060020a03168083526001820154948301859052600282015483850181905260038301546060850152600492830154608085015293517ff242432a0000000000000000000000000000000000000000000000000000000081529295509363f242432a9361271e9330933393929101613458565b600060405180830381600087803b15801561273857600080fd5b505af115801561274c573d6000803e3d6000fd5b505050507fa028f70b1a82d8501d34d76d76b13b9130b49e7fc55bb89f647a44d3eac5f0fd83836040516127819291906135c6565b60405180910390a1505050565b6000806003846040516127a1919061343c565b90815260408051602092819003830181206000878152935290822054600160a060020a031692506003906127d690879061343c565b9081526040805160209281900383019020600087815292529020600201549050600160a060020a03821661284f5760405160e560020a62461bcd02815260206004820152601360248201527f77696e6e6572206973206e6f742076616c6964000000000000000000000000006044820152606401610635565b6040805160608101825260008082526020820152808201839052905160039061287990889061343c565b908152604080519182900360209081018320600089815290825282812085518154600160a060020a03909116600160a060020a031990911617815591850151600183015593909101516002909101556004906128d690889061343c565b9081526040805160209281900383018120600160a060020a038716600090815290845282812089825290935290822054925060049061291690899061343c565b908152604080519182900360209081018320600160a060020a03881660009081529082528281208a825290915290812092909255829160059160019061295d908b9061343c565b908152604080516020928190038301902054600160a060020a03168352908201929092520160009081208054909190612997908490613807565b9250508190555060006002876040516129b0919061343c565b908152604080516020928190038301812060008a815290845282902060a0820183528054600160a060020a03168083526001820154948301859052600282015483850181905260038301546060850152600492830154608085015293517ff242432a0000000000000000000000000000000000000000000000000000000081529295509363f242432a93612a4a9330938b93929101613458565b600060405180830381600087803b158015612a6457600080fd5b505af1158015612a78573d6000803e3d6000fd5b505050507f4724291f3c939ed02ed238c50d61263622fc1d0871d7aaa264d743475de5b72b878786604051612aaf939291906135e8565b60405180910390a15060019695505050505050565b604051600160a060020a0380851660248301528316604482015260648101829052612b5d9085907f23b872dd00000000000000000000000000000000000000000000000000000000906084015b60408051601f198184030181529190526020810180517bffffffffffffffffffffffffffffffffffffffffffffffffffffffff16600160e060020a031990931692909217909152612bb1565b50505050565b604051600160a060020a038316602482015260448101829052612bac9084907fa9059cbb0000000000000000000000000000000000000000000000000000000090606401612b11565b505050565b6000612c06826040518060400160405280602081526020017f5361666545524332303a206c6f772d6c6576656c2063616c6c206661696c656481525085600160a060020a0316612c999092919063ffffffff16565b805190915015612bac5780806020019051810190612c24919061310d565b612bac5760405160e560020a62461bcd02815260206004820152602a60248201527f5361666545524332303a204552433230206f7065726174696f6e20646964206e60448201527f6f742073756363656564000000000000000000000000000000000000000000006064820152608401610635565b6060612ca88484600085612cb0565b949350505050565b60603031831115612d2c5760405160e560020a62461bcd02815260206004820152602660248201527f416464726573733a20696e73756666696369656e742062616c616e636520666f60448201527f722063616c6c00000000000000000000000000000000000000000000000000006064820152608401610635565b843b612d7d5760405160e560020a62461bcd02815260206004820152601d60248201527f416464726573733a2063616c6c20746f206e6f6e2d636f6e74726163740000006044820152606401610635565b60008086600160a060020a03168587604051612d99919061343c565b60006040518083038185875af1925050503d8060008114612dd6576040519150601f19603f3d011682016040523d82523d6000602084013e612ddb565b606091505b5091509150612deb828286612df6565b979650505050505050565b60608315612e0557508161254f565b825115612e155782518084602001fd5b8160405160e560020a62461bcd028152600401610635919061356a565b8035600160a060020a0381168114612e4957600080fd5b919050565b60008083601f840112612e5f578182fd5b50813567ffffffffffffffff811115612e76578182fd5b60208301915083602080830285010111156108e657600080fd5b60008083601f840112612ea1578182fd5b50813567ffffffffffffffff811115612eb8578182fd5b6020830191508360208285010111156108e657600080fd5b600082601f830112612ee0578081fd5b813567ffffffffffffffff811115612efa57612efa61394a565b612f0d601f8201601f19166020016137d6565b818152846020838601011115612f21578283fd5b816020850160208301379081016020019190915292915050565b600060a08284031215612f4c578081fd5b60405160a0810181811067ffffffffffffffff82111715612f6f57612f6f61394a565b604052905080612f7e83612e32565b8152602083013560208201526040830135604082015260608301356060820152608083013560808201525092915050565b80356001606060020a0381168114612e4957600080fd5b600060208284031215612fd7578081fd5b61254f82612e32565b60008060008060008060008060a0898b031215612ffb578384fd5b61300489612e32565b975061301260208a01612e32565b9650604089013567ffffffffffffffff8082111561302e578586fd5b61303a8c838d01612e4e565b909850965060608b0135915080821115613052578586fd5b61305e8c838d01612e4e565b909650945060808b0135915080821115613076578384fd5b506130838b828c01612e90565b999c989b5096995094979396929594505050565b60008060008060008060a087890312156130af578182fd5b6130b887612e32565b95506130c660208801612e32565b94506040870135935060608701359250608087013567ffffffffffffffff8111156130ef578283fd5b6130fb89828a01612e90565b979a9699509497509295939492505050565b60006020828403121561311e578081fd5b8151801515811461254f578182fd5b60006020828403121561313e578081fd5b8135600160e060020a03198116811461254f578182fd5b600060208284031215613166578081fd5b813567ffffffffffffffff81111561317c578182fd5b612ca884828501612ed0565b60008060006060848603121561319c578283fd5b833567ffffffffffffffff8111156131b2578384fd5b6131be86828701612ed0565b9350506131cd60208501612e32565b9150604084013590509250925092565b60008060c083850312156131ef578182fd5b823567ffffffffffffffff811115613205578283fd5b61321185828601612ed0565b9250506132218460208501612f3b565b90509250929050565b6000806040838503121561323c578182fd5b823567ffffffffffffffff811115613252578283fd5b61325e85828601612ed0565b95602094909401359450505050565b600080600060608486031215613281578081fd5b833567ffffffffffffffff811115613297578182fd5b6132a386828701612ed0565b9660208601359650604090950135949350505050565b60008060008060008060c087890312156132d1578384fd5b863567ffffffffffffffff808211156132e8578586fd5b6132f48a838b01612ed0565b975060209150613305828a01612faf565b965061331360408a01612faf565b9550606089013563ffffffff8116811461332b578485fd5b945061333960808a01612faf565b935060a0808a01358281111561334d578485fd5b8a01601f81018c1361335d578485fd5b80358381111561336f5761336f61394a565b61337c85868302016137d6565b8181528581019450828601848302840187018f1015613399578788fd5b8793505b828410156133c3576133af8f82612f3b565b86529486019460019390930192840161339d565b508096505050505050509295509295509295565b600081518084526133ef8160208601602086016138ea565b601f01601f19169290920160200192915050565b600160a060020a038151168252602081015160208301526040810151604083015260608101516060830152608081015160808301525050565b6000825161344e8184602087016138ea565b9190910192915050565b600160a060020a0394851681529290931660208301526040820152606081019190915260a06080820181905260009082015260c00190565b6000610180600160a060020a038b1683528060208401526134b38184018b6133d7565b9150506001606060020a038089166040840152808816606084015280871660808401525063ffffffff851660a08301528360c08301526134f660e0830184613403565b9998505050505050505050565b6000610180600160a060020a038b1683528060208401526135268184018b6133d7565b6001606060020a038a8116604086015289811660608601528816608085015263ffffffff87811660a0860152861660c085015291506134f6905060e0830184613403565b60208152600061254f60208301846133d7565b60a08152600061359060a08301886133d7565b9050600160a060020a03861660208301528460408301528360608301526001606060020a03831660808301529695505050505050565b6040815260006135d960408301856133d7565b90508260208301529392505050565b6060815260006135fb60608301866133d7565b9050836020830152600160a060020a0383166040830152949350505050565b60208082526022908201527f696e6372656d656e742073686f756c642062652067726561746572207468616e60408201527f2030000000000000000000000000000000000000000000000000000000000000606082015260800190565b6020808252600d908201527f696e76616c6964206d6174636800000000000000000000000000000000000000604082015260600190565b60208082526015908201527f6d61746368206973206e6f742066696e69736865640000000000000000000000604082015260600190565b6020808252600d908201527f696e76616c696420746f6b656e00000000000000000000000000000000000000604082015260600190565b60208082526047908201527f6e756d626572206f66206e6674206d757374206265206772656174657220746860408201527f616e203020616e64206c657373207468616e204d41585f4954454d5f5045525f60608201527f41554354494f4e00000000000000000000000000000000000000000000000000608082015260a00190565b6020808252601f908201527f5265656e7472616e637947756172643a207265656e7472616e742063616c6c00604082015260600190565b604051601f8201601f1916810167ffffffffffffffff811182821017156137ff576137ff61394a565b604052919050565b6000821982111561381a5761381a613931565b500190565b600063ffffffff80831681851680830382111561383e5761383e613931565b01949350505050565b60006001606060020a0380831681851680830382111561383e5761383e613931565b6000826138875760e060020a634e487b710281526012600452602481fd5b500490565b60008160001904831182151516156138a6576138a6613931565b500290565b6000828210156138bd576138bd613931565b500390565b60006001606060020a03838116908316818110156138e2576138e2613931565b039392505050565b60005b838110156139055781810151838201526020016138ed565b83811115612b5d5750506000910152565b600060001982141561392a5761392a613931565b5060010190565b60e060020a634e487b7102600052601160045260246000fd5b60e060020a634e487b7102600052604160045260246000fdfea2646970667358221220d962e1de6c66bd17141457178ec70bbd297474f85ae5f46bface17fd9130469664736f6c63430008040033",
  "immutableReferences": {},
  "source": "// SPDX-License-Identifier: MIT\npragma solidity ^0.8.0;\n\nimport \"@openzeppelin/contracts/token/ERC20/IERC20.sol\";\nimport \"@openzeppelin/contracts/token/ERC20/utils/SafeERC20.sol\";\nimport \"@openzeppelin/contracts/token/ERC1155/IERC1155.sol\";\nimport \"@openzeppelin/contracts/token/ERC1155/IERC1155Receiver.sol\";\nimport \"@openzeppelin/contracts/utils/introspection/ERC165.sol\";\nimport \"@openzeppelin/contracts/security/ReentrancyGuard.sol\";\n\ncontract MultiTokenAuction is ReentrancyGuard, IERC1155Receiver, ERC165 {\n\n    // using safeErc20 for ierc20 based contract\n    using SafeERC20 for IERC20;\n\n    // constants\n    address constant ADDRESS_NULL             = 0x0000000000000000000000000000000000000000;\n    \n    // max item allow per auction, should not be more than 2^32-1\n    uint    constant MAX_ITEM_PER_AUCTION     = 32;\n    \n    uint    constant BLOCKS_TO_EXPIRE         = 8;\n\n    bytes4  constant ERC1155_ONRECEIVED_RESULT = bytes4(keccak256(\"onERC1155Received(address,address,uint256,uint256,bytes)\"));\n\n    bytes4  constant ERC1155_ONBATCHRECEIVED_RESULT = bytes4(keccak256(\"onERC1155BatchReceived(address,address,uint256[],uint256[],bytes)\"));\n    // uint constant MAX_UINT96 = type(uint96).max;\n\n    // structs\n    struct NFT {\n        address contractAddress;\n        uint    tokenId;\n        uint    amount;\n        uint    minBid;\n        uint    fixedPrice;\n    }\n    \n    struct AuctionResult {\n        address topBidder;\n        uint standingBid;\n        uint finalBid;\n    }\n\n    struct Match {\n        address creatorAddress;\n        uint96 minIncrement; // percentage based\n        uint96 openBlock;\n        uint96 expiryBlock;\n        uint32 expiryExtension; // expiryBlock will be extend (+=) for expiryExtension block(s) if bid updated in range [expiryBlock - expiryExtension + 1 .. expiryBlock]\n        uint32 nftCount;\n    }\n\n    // state\n    // matchId => Match\n    mapping(string => Match) public  matches;\n\n    // matchId => index => NFT\n    mapping(string => mapping(uint => NFT)) public  matchNFTs;\n    \n    // matchId => Result\n    mapping(string => mapping(uint => AuctionResult)) public  matchResults;\n    \n    // matchId => player => tokenIndex => price\n    mapping(string => mapping(address => mapping(uint => uint))) private playerBid;\n\n    // address to balance\n    mapping(address => uint) private creatorBalance;\n\n    // events\n    event CreateAuctionEvent(address creatorAddress, string matchId, uint96 openBlock, uint96 expiryBlock, uint96 increment, uint32 expiryExtension, uint tokenIndex, NFT nfts);\n    event PlayerBidEvent(string matchId, address playerAddress, uint tokenIndex, uint bid, uint96 expiryBlock);\n    event RewardEvent(string matchId, uint tokenIndex, address winnerAddress);\n    event PlayerWithdrawBid(string matchId, uint tokenIndex);\n    event ProcessWithdrawNft(string matchId, uint tokenIndex);\n    event CreatorWithdrawProfit(address creatorAddress, uint256 balance);\n\n    // base erc20 token\n    address public USDT_ADDRESS;\n\n    // modifier \n    modifier validTokenIndex(string memory matchId, uint tokenIndex) {\n        require(matches[matchId].creatorAddress != ADDRESS_NULL, \"invalid match\"); \n        require(tokenIndex < matches[matchId].nftCount, \"invalid token\");\n        _;\n    }\n\n    modifier creatorOnly(string memory matchId) {\n         require(matches[matchId].creatorAddress == msg.sender, \"creator only function\"); \n        _;\n    }\n    \n    // match finished should be used with checking valid match\n    modifier matchFinished(string memory matchId) {\n        // require(matches[matchId].creatorAddress != ADDRESS_NULL, \"invalid match\");\n        require(matches[matchId].expiryBlock < block.number, \"match is not finished\");\n        _;\n    }\n\n    constructor(address usdtContractAddress) {\n        require(usdtContractAddress != address(0), \"usdtContractAddress should not be address(0)\");\n        USDT_ADDRESS = usdtContractAddress;\n    }\n\n    function createAuction(\n        string memory matchId, \n        uint96 openBlock, \n        uint96 expiryBlock,\n        uint32 expiryExtension,\n        uint96 minIncrement, \n        NFT[] memory nfts) external nonReentrant {\n\n        // check if matchId is occupied\n        require(matches[matchId].creatorAddress == ADDRESS_NULL, \"matchId is occupied\");\n        \n        // check valid openBlock, expiryBlock, expiryExtensionOnBidUpdate\n        require(expiryBlock > openBlock && openBlock > block.number, \"condition expiryBlock > openBlock > current block count not satisfied\");\n        require(expiryBlock - openBlock > BLOCKS_TO_EXPIRE * 2,      \"auction time must not less than 2x BLOCKS_TO_EXPIRE\");\n\n        // check increment\n        require(minIncrement < 100, \"increment must be greater than 0 and less than 100%\");\n        \n        // check item count\n        require(nfts.length > 0 && nfts.length <= MAX_ITEM_PER_AUCTION, \"number of nft must be greater than 0 and less than MAX_ITEM_PER_AUCTION\");\n\n        // deposit item to contract\n        for(uint i = 0; i < nfts.length; ++i) {\n            \n            require(nfts[i].minBid > 1, \"minBid must be greater than 1\");\n            require(minIncrement * nfts[i].minBid / 100 > 0, \"increment should be greater than 0\");\n            \n            // if meet requirements then send tokens to contract\n            IERC1155(nfts[i].contractAddress).safeTransferFrom(msg.sender, address(this), nfts[i].tokenId, nfts[i].amount, \"\");\n            \n            // create slots for items\n            matchResults[matchId][i]    = AuctionResult(ADDRESS_NULL, nfts[i].minBid, 0);\n            matchNFTs[matchId][i]       = nfts[i];\n        }\n\n        // create match\n        matches[matchId] = Match(\n            msg.sender,\n            minIncrement, // percentage based\n            openBlock,\n            expiryBlock,\n            expiryExtension, // expiryBlock will be extend (+=) for expiryExtension block(s) if bid updated in range [expiryBlock - expiryExtension + 1 .. expiryBlock]\n            uint32(nfts.length)\n        );\n\n        // emit events\n        // reateAuctionEvent(address creatorAddress, string matchId, uint96 openBlock, uint96 expiryBlock, uint96 increment, uint32 expiryExtension, uint tokenIndex, NFT nfts);\n        for(uint i = 0; i < nfts.length; ++i) {\n            emit CreateAuctionEvent(msg.sender, matchId, openBlock, expiryBlock, minIncrement, expiryExtension, i, nfts[i]);\n        }\n    }\n\n    function addAuctionNFT(\n        string memory matchId,\n        NFT memory nft) external nonReentrant {\n\n        require(matches[matchId].expiryBlock >= block.number, \"the match is finished\");\n\n        // check if matchId is existence\n        require(matches[matchId].creatorAddress != ADDRESS_NULL, \"matchId non-existent\");\n\n        Match storage amatch = matches[matchId];\n        uint32 nftCount = amatch.nftCount;\n        \n        // check item count\n        require(amatch.nftCount < MAX_ITEM_PER_AUCTION, \"number of nft must be greater than 0 and less than MAX_ITEM_PER_AUCTION\");\n\n        // deposit item to contract\n        require(nft.minBid > 1, \"minBid must be greater than 1\");\n        require(amatch.minIncrement * nft.minBid / 100 > 0, \"increment should be greater than 0\");\n        \n        // if meet requirements then send tokens to contract\n        IERC1155(nft.contractAddress).safeTransferFrom(msg.sender, address(this), nft.tokenId, nft.amount, \"\");\n        \n        // create slots for items\n        matchResults[matchId][nftCount] = AuctionResult(ADDRESS_NULL, nft.minBid, 0);\n        matchNFTs[matchId][nftCount]    = nft;\n\n        // update match\n        amatch.nftCount = uint32(nftCount + 1);\n        // emit events\n        // reateAuctionEvent(address creatorAddress, string matchId, uint96 openBlock, uint96 expiryBlock, uint96 increment, uint32 expiryExtension, uint tokenIndex, NFT nfts);\n        emit CreateAuctionEvent(msg.sender, matchId, amatch.openBlock, amatch.expiryBlock, amatch.minIncrement, amatch.expiryExtension, nftCount, nft);\n    }\n\n    function player_bid(string memory matchId, uint tokenIndex, uint amount) external nonReentrant validTokenIndex(matchId, tokenIndex) {\n        Match memory amatch = matches[matchId];\n        address playerAddress = msg.sender;\n        require(amatch.openBlock < block.number && block.number <= amatch.expiryBlock, \"match is not opened for bidding\");\n        \n        AuctionResult memory auctionResult = matchResults[matchId][tokenIndex];\n        uint    standingBid     = auctionResult.standingBid;\n        uint    nftMinBid       = matchNFTs[matchId][tokenIndex].minBid;\n        uint    increment       = nftMinBid * amatch.minIncrement / 100;\n        \n        // check valid amount (> current wining, sender someone different from winner)\n        // known issue: Auction creator should be aware of the case where stadingBid = 1 and min increment >= 1\n        require(\n            amount > standingBid && \n            amount - standingBid >= increment, \n            \"illegal increment\"\n        );\n\n        // update the winner for that token\n        matchResults[matchId][tokenIndex] = AuctionResult(playerAddress, amount, amount);\n    \n        // if in BLOCKS_TO_EXPIRE blocks then extends the auction expiry time\n        if (amatch.expiryBlock - block.number < BLOCKS_TO_EXPIRE) {\n            amatch.expiryBlock += amatch.expiryExtension;\n            matches[matchId].expiryBlock = amatch.expiryBlock;\n        }\n\n        // just transfer (amount - currentBid) of that person to contract\n        uint transferAmount = amount - playerBid[matchId][playerAddress][tokenIndex]; // sure that amount always higher than current\n        playerBid[matchId][playerAddress][tokenIndex] = amount;\n    \n        // emit event\n        emit PlayerBidEvent(\n            matchId, \n            playerAddress,\n            tokenIndex,\n            amount, \n            amatch.expiryBlock\n        );\n        IERC20(USDT_ADDRESS).safeTransferFrom(playerAddress, address(this), transferAmount);\n    }\n\n    function player_fixed_price(string memory matchId, uint tokenIndex) external nonReentrant validTokenIndex(matchId, tokenIndex) {\n        Match memory amatch = matches[matchId];\n        address playerAddress = msg.sender;\n        require(amatch.openBlock < block.number && block.number <= amatch.expiryBlock, \"match is not opened for bidding\");\n        \n        AuctionResult memory auctionResult = matchResults[matchId][tokenIndex];\n        uint standingBid = auctionResult.standingBid;\n        uint fixedPrice  = matchNFTs[matchId][tokenIndex].fixedPrice;\n\n        // check standingBid price\n        require(fixedPrice > standingBid, \"Standingbid has exceeded the fixedPrice\");\n\n        // update the winner for that token\n        matchResults[matchId][tokenIndex] = AuctionResult(playerAddress, fixedPrice, fixedPrice);\n    \n        // if in BLOCKS_TO_EXPIRE blocks then extends the auction expiry time\n        if (amatch.expiryBlock - block.number < BLOCKS_TO_EXPIRE) {\n            amatch.expiryBlock += amatch.expiryExtension;\n            matches[matchId].expiryBlock = amatch.expiryBlock;\n        }\n\n        // just transfer (amount - currentBid) of that person to contract\n        uint transferAmount = fixedPrice - playerBid[matchId][playerAddress][tokenIndex]; // sure that amount always higher than current\n        playerBid[matchId][playerAddress][tokenIndex] = fixedPrice;\n    \n        // emit event\n        emit PlayerBidEvent(\n            matchId, \n            playerAddress,\n            tokenIndex,\n            fixedPrice, \n            amatch.expiryBlock\n        );\n        IERC20(USDT_ADDRESS).safeTransferFrom(playerAddress, address(this), transferAmount);\n\n        // send NFT\n        _win_audit(matchId, tokenIndex);\n    }\n\n    // player can withdraw bid if he is not winner of this match\n    function player_withdraw_bid(string memory matchId, uint tokenIndex) external nonReentrant validTokenIndex(matchId, tokenIndex) {\n        \n        // check if player is top bidder \n        address playerAddress = msg.sender;\n        require(matchResults[matchId][tokenIndex].topBidder != playerAddress, \"top bidder cannot withdraw\");\n\n        uint amount = playerBid[matchId][playerAddress][tokenIndex];\n        require(amount > 0, \"bid must be greater than 0 to withdraw\");\n\n        // reset bid amount        \n        playerBid[matchId][playerAddress][tokenIndex] = 0;\n\n        // transfer money\n        IERC20(USDT_ADDRESS).safeTransfer(playerAddress, amount); // auto reverts on error\n\n        // emit events\n        // event PlayerWithdrawBid(string matchId, uint tokenIndex);\n        emit PlayerWithdrawBid(matchId, tokenIndex);\n    }\n\n    // anyone can call reward, top bidder and creator are incentivized to call this function to send rewards/profit\n    function reward(string memory matchId, uint tokenIndex) external validTokenIndex(matchId, tokenIndex) matchFinished(matchId) {\n        _win_audit(matchId, tokenIndex);\n    }\n\n    function process_withdraw_nft(string memory matchId, uint tokenIndex) private {\n        // set standingBid to 0 to prevent withdraw again\n        matchResults[matchId][tokenIndex].standingBid = 0;\n        // transfer asset\n        NFT memory nft = matchNFTs[matchId][tokenIndex];\n        IERC1155(nft.contractAddress).safeTransferFrom(address(this), msg.sender, nft.tokenId, nft.amount, \"\");\n\n        // emit events\n        // event ProcessWithdrawNft(string matchId, uint tokenIndex);\n        emit ProcessWithdrawNft(matchId, tokenIndex);\n    }\n\n    // creator withdraws unused nft\n    function creator_withdraw_nft_batch(string memory matchId) external creatorOnly(matchId) matchFinished(matchId) { \n        // check valid matchId, match finished\n        uint _len = matches[matchId].nftCount;\n        for(uint i = 0; i < _len; ++i) {\n            \n            // consider result\n            AuctionResult memory result = matchResults[matchId][i];\n            \n            // if no one wins the token then withdraw \n            if (result.topBidder == ADDRESS_NULL && result.standingBid > 0) {\n                process_withdraw_nft(matchId, i);\n            }\n        }\n    }\n    \n    function creator_withdraw_nft(string memory matchId, uint tokenIndex) external validTokenIndex(matchId, tokenIndex) creatorOnly(matchId) matchFinished(matchId) {\n        AuctionResult memory result = matchResults[matchId][tokenIndex];\n        require (result.topBidder == ADDRESS_NULL && result.standingBid > 0, \"token is not available to withdraw\");\n        \n        process_withdraw_nft(matchId, tokenIndex);\n    }\n\n    function creator_withdraw_profit() external {\n        uint balance = creatorBalance[msg.sender];\n        require(balance > 0, \"creator balance must be greater than 0\");\n        \n        // reset balance \n        creatorBalance[msg.sender] = 0;\n        \n        // send money\n        IERC20(USDT_ADDRESS).safeTransfer(msg.sender, balance);\n        // emit events\n        // event CreatorWithdrawProfit(address creatorAddress, uint256 balance);\n        emit CreatorWithdrawProfit(msg.sender, balance);\n    }\n\n\n\n    function supportsInterface(bytes4 interfaceId) public view virtual override(ERC165, IERC165) returns (bool) {\n        return\n            interfaceId == type(IERC1155).interfaceId ||\n            super.supportsInterface(interfaceId);\n    }\n\n    function onERC1155Received(address operator, address from, uint256 id, uint256 value, bytes calldata data) external override pure returns (bytes4) {\n        // return ERC1155_ONRECEIVED_RESULT to conform the interface\n        return ERC1155_ONRECEIVED_RESULT;\n    }\n\n    function onERC1155BatchReceived(address operator, address from, uint256[] calldata ids, uint256[] calldata values, bytes calldata data) external override pure returns (bytes4) {\n        // return ERC1155_ONBATCHRECEIVED_RESULT to conform the interface\n        return ERC1155_ONBATCHRECEIVED_RESULT;\n    }\n\n    function get_match(string memory matchId) external view returns(address, uint, uint, uint, uint, uint) {\n        Match memory amatch = matches[matchId];\n        return (\n            amatch.creatorAddress,\n            amatch.minIncrement, \n            amatch.openBlock,\n            amatch.expiryBlock,\n            amatch.expiryExtension,\n            amatch.nftCount\n        );\n    }\n\n    function get_current_result(string memory matchId, uint tokenIndex) external view returns (address, uint) {\n        return (matchResults[matchId][tokenIndex].topBidder, matchResults[matchId][tokenIndex].standingBid);\n    }\n\n    function get_player_bid(string memory matchId, address playerAddress, uint tokenIndex) external view returns(uint) {\n        return playerBid[matchId][playerAddress][tokenIndex];\n    }\n\n    function get_creator_balance(address creatorAddress) external view returns(uint) {\n        return creatorBalance[creatorAddress];\n    }\n\n    function _win_audit(string memory matchId, uint tokenIndex) internal returns (bool) {\n        address winnerAddress  = matchResults[matchId][tokenIndex].topBidder;\n        uint finalBid  = matchResults[matchId][tokenIndex].finalBid;\n        require(winnerAddress != ADDRESS_NULL, \"winner is not valid\");\n\n        // set result to null\n        matchResults[matchId][tokenIndex] = AuctionResult(ADDRESS_NULL, 0, finalBid);\n\n        // increase creator's balance\n        uint standingBid = playerBid[matchId][winnerAddress][tokenIndex];\n        playerBid[matchId][winnerAddress][tokenIndex]   = 0;\n        creatorBalance[matches[matchId].creatorAddress] += standingBid;\n        \n        NFT memory nft = matchNFTs[matchId][tokenIndex];\n        // send nft to address\n        IERC1155(nft.contractAddress).safeTransferFrom(address(this), winnerAddress, nft.tokenId, nft.amount, \"\");\n        emit RewardEvent(matchId, tokenIndex, winnerAddress);\n\n        return true;\n    }\n}",
  "sourcePath": "/Users/tuminfei/Code/Nodejs/uniarts-eth-dao/contracts/core/MultiTokenAuction.sol",
  "compiler": {
    "name": "solc",
    "version": "0.8.4+commit.c7e474f2.Emscripten.clang"
  },
  "schemaVersion": "3.3.0",
  "updatedAt": "2021-12-02T09:20:23.703Z",
  "devdoc": {
    "kind": "dev",
    "methods": {
      "onERC1155BatchReceived(address,address,uint256[],uint256[],bytes)": {
        "details": "Handles the receipt of a multiple ERC1155 token types. This function is called at the end of a `safeBatchTransferFrom` after the balances have been updated. To accept the transfer(s), this must return `bytes4(keccak256(\"onERC1155BatchReceived(address,address,uint256[],uint256[],bytes)\"))` (i.e. 0xbc197c81, or its own function selector).",
        "params": {
          "data": "Additional data with no specified format",
          "from": "The address which previously owned the token",
          "ids": "An array containing ids of each token being transferred (order and length must match values array)",
          "operator": "The address which initiated the batch transfer (i.e. msg.sender)",
          "values": "An array containing amounts of each token being transferred (order and length must match ids array)"
        },
        "returns": {
          "_0": "`bytes4(keccak256(\"onERC1155BatchReceived(address,address,uint256[],uint256[],bytes)\"))` if transfer is allowed"
        }
      },
      "onERC1155Received(address,address,uint256,uint256,bytes)": {
        "details": "Handles the receipt of a single ERC1155 token type. This function is called at the end of a `safeTransferFrom` after the balance has been updated. To accept the transfer, this must return `bytes4(keccak256(\"onERC1155Received(address,address,uint256,uint256,bytes)\"))` (i.e. 0xf23a6e61, or its own function selector).",
        "params": {
          "data": "Additional data with no specified format",
          "from": "The address which previously owned the token",
          "id": "The ID of the token being transferred",
          "operator": "The address which initiated the transfer (i.e. msg.sender)",
          "value": "The amount of tokens being transferred"
        },
        "returns": {
          "_0": "`bytes4(keccak256(\"onERC1155Received(address,address,uint256,uint256,bytes)\"))` if transfer is allowed"
        }
      }
    },
    "version": 1
  },
  "userdoc": {
    "kind": "user",
    "methods": {},
    "version": 1
  }
}