{
  "contractName": "MysteryBox",
  "abi": [
    {
      "anonymous": false,
      "inputs": [
        {
          "indexed": false,
          "internalType": "address",
          "name": "_who",
          "type": "address"
        },
        {
          "indexed": false,
          "internalType": "uint256",
          "name": "_collectionId",
          "type": "uint256"
        }
      ],
      "name": "CreateCollection",
      "type": "event"
    },
    {
      "anonymous": false,
      "inputs": [
        {
          "indexed": false,
          "internalType": "address",
          "name": "_who",
          "type": "address"
        },
        {
          "indexed": false,
          "internalType": "address",
          "name": "_tokenAddress",
          "type": "address"
        },
        {
          "indexed": false,
          "internalType": "uint256",
          "name": "_tokenId",
          "type": "uint256"
        }
      ],
      "name": "NFTClaim",
      "type": "event"
    },
    {
      "anonymous": false,
      "inputs": [
        {
          "indexed": false,
          "internalType": "address",
          "name": "_who",
          "type": "address"
        },
        {
          "indexed": false,
          "internalType": "address",
          "name": "_tokenAddress",
          "type": "address"
        },
        {
          "indexed": false,
          "internalType": "uint256",
          "name": "_tokenId",
          "type": "uint256"
        }
      ],
      "name": "NFTDeposit",
      "type": "event"
    },
    {
      "anonymous": false,
      "inputs": [
        {
          "indexed": false,
          "internalType": "address",
          "name": "_who",
          "type": "address"
        },
        {
          "indexed": false,
          "internalType": "address",
          "name": "_tokenAddress",
          "type": "address"
        },
        {
          "indexed": false,
          "internalType": "uint256",
          "name": "_tokenId",
          "type": "uint256"
        }
      ],
      "name": "NFTWithdraw",
      "type": "event"
    },
    {
      "anonymous": false,
      "inputs": [
        {
          "indexed": true,
          "internalType": "address",
          "name": "previousOwner",
          "type": "address"
        },
        {
          "indexed": true,
          "internalType": "address",
          "name": "newOwner",
          "type": "address"
        }
      ],
      "name": "OwnershipTransferred",
      "type": "event"
    },
    {
      "anonymous": false,
      "inputs": [
        {
          "indexed": false,
          "internalType": "address",
          "name": "_who",
          "type": "address"
        },
        {
          "indexed": false,
          "internalType": "uint256",
          "name": "_collectionId",
          "type": "uint256"
        }
      ],
      "name": "PublishCollection",
      "type": "event"
    },
    {
      "anonymous": false,
      "inputs": [
        {
          "indexed": false,
          "internalType": "address",
          "name": "_who",
          "type": "address"
        },
        {
          "indexed": false,
          "internalType": "uint256",
          "name": "_collectionId",
          "type": "uint256"
        }
      ],
      "name": "UnpublishCollection",
      "type": "event"
    },
    {
      "inputs": [
        {
          "internalType": "uint256",
          "name": "",
          "type": "uint256"
        }
      ],
      "name": "allCollections",
      "outputs": [
        {
          "internalType": "address",
          "name": "owner",
          "type": "address"
        },
        {
          "internalType": "string",
          "name": "name",
          "type": "string"
        },
        {
          "internalType": "uint256",
          "name": "size",
          "type": "uint256"
        },
        {
          "internalType": "uint256",
          "name": "commissionRate",
          "type": "uint256"
        },
        {
          "internalType": "bool",
          "name": "willAcceptBLES",
          "type": "bool"
        },
        {
          "internalType": "uint256",
          "name": "totalPrice",
          "type": "uint256"
        },
        {
          "internalType": "uint256",
          "name": "averagePrice",
          "type": "uint256"
        },
        {
          "internalType": "uint256",
          "name": "fee",
          "type": "uint256"
        },
        {
          "internalType": "uint256",
          "name": "commission",
          "type": "uint256"
        },
        {
          "internalType": "uint256",
          "name": "publishedAt",
          "type": "uint256"
        },
        {
          "internalType": "uint256",
          "name": "timesToCall",
          "type": "uint256"
        },
        {
          "internalType": "uint256",
          "name": "soldCount",
          "type": "uint256"
        }
      ],
      "stateMutability": "view",
      "type": "function"
    },
    {
      "inputs": [
        {
          "internalType": "uint256",
          "name": "",
          "type": "uint256"
        }
      ],
      "name": "allNFTs",
      "outputs": [
        {
          "internalType": "address",
          "name": "tokenAddress",
          "type": "address"
        },
        {
          "internalType": "uint256",
          "name": "tokenId",
          "type": "uint256"
        },
        {
          "internalType": "address",
          "name": "owner",
          "type": "address"
        },
        {
          "internalType": "uint256",
          "name": "price",
          "type": "uint256"
        },
        {
          "internalType": "uint256",
          "name": "paid",
          "type": "uint256"
        },
        {
          "internalType": "uint256",
          "name": "collectionId",
          "type": "uint256"
        },
        {
          "internalType": "uint256",
          "name": "indexInCollection",
          "type": "uint256"
        }
      ],
      "stateMutability": "view",
      "type": "function"
    },
    {
      "inputs": [],
      "name": "baseToken",
      "outputs": [
        {
          "internalType": "contract IERC20",
          "name": "",
          "type": "address"
        }
      ],
      "stateMutability": "view",
      "type": "function"
    },
    {
      "inputs": [],
      "name": "blesToken",
      "outputs": [
        {
          "internalType": "contract IERC20",
          "name": "",
          "type": "address"
        }
      ],
      "stateMutability": "view",
      "type": "function"
    },
    {
      "inputs": [],
      "name": "canDrawMultiple",
      "outputs": [
        {
          "internalType": "bool",
          "name": "",
          "type": "bool"
        }
      ],
      "stateMutability": "view",
      "type": "function"
    },
    {
      "inputs": [
        {
          "internalType": "uint256",
          "name": "",
          "type": "uint256"
        },
        {
          "internalType": "uint256",
          "name": "",
          "type": "uint256"
        }
      ],
      "name": "collaborators",
      "outputs": [
        {
          "internalType": "address",
          "name": "",
          "type": "address"
        }
      ],
      "stateMutability": "view",
      "type": "function"
    },
    {
      "inputs": [
        {
          "internalType": "address",
          "name": "",
          "type": "address"
        },
        {
          "internalType": "uint256",
          "name": "",
          "type": "uint256"
        }
      ],
      "name": "collectionsByOwner",
      "outputs": [
        {
          "internalType": "uint256",
          "name": "",
          "type": "uint256"
        }
      ],
      "stateMutability": "view",
      "type": "function"
    },
    {
      "inputs": [],
      "name": "creatingFee",
      "outputs": [
        {
          "internalType": "uint256",
          "name": "",
          "type": "uint256"
        }
      ],
      "stateMutability": "view",
      "type": "function"
    },
    {
      "inputs": [],
      "name": "feeRate",
      "outputs": [
        {
          "internalType": "uint256",
          "name": "",
          "type": "uint256"
        }
      ],
      "stateMutability": "view",
      "type": "function"
    },
    {
      "inputs": [],
      "name": "feeTo",
      "outputs": [
        {
          "internalType": "address",
          "name": "",
          "type": "address"
        }
      ],
      "stateMutability": "view",
      "type": "function"
    },
    {
      "inputs": [
        {
          "internalType": "uint256",
          "name": "",
          "type": "uint256"
        },
        {
          "internalType": "address",
          "name": "",
          "type": "address"
        }
      ],
      "name": "isCollaborator",
      "outputs": [
        {
          "internalType": "bool",
          "name": "",
          "type": "bool"
        }
      ],
      "stateMutability": "view",
      "type": "function"
    },
    {
      "inputs": [],
      "name": "linkAccessor",
      "outputs": [
        {
          "internalType": "contract ILinkAccessor",
          "name": "",
          "type": "address"
        }
      ],
      "stateMutability": "view",
      "type": "function"
    },
    {
      "inputs": [],
      "name": "linkCost",
      "outputs": [
        {
          "internalType": "uint256",
          "name": "",
          "type": "uint256"
        }
      ],
      "stateMutability": "view",
      "type": "function"
    },
    {
      "inputs": [],
      "name": "linkToken",
      "outputs": [
        {
          "internalType": "contract IERC20",
          "name": "",
          "type": "address"
        }
      ],
      "stateMutability": "view",
      "type": "function"
    },
    {
      "inputs": [],
      "name": "maximumDuration",
      "outputs": [
        {
          "internalType": "uint256",
          "name": "",
          "type": "uint256"
        }
      ],
      "stateMutability": "view",
      "type": "function"
    },
    {
      "inputs": [],
      "name": "minimumCollectionSize",
      "outputs": [
        {
          "internalType": "uint256",
          "name": "",
          "type": "uint256"
        }
      ],
      "stateMutability": "view",
      "type": "function"
    },
    {
      "inputs": [],
      "name": "nextCollectionId",
      "outputs": [
        {
          "internalType": "uint256",
          "name": "",
          "type": "uint256"
        }
      ],
      "stateMutability": "view",
      "type": "function"
    },
    {
      "inputs": [],
      "name": "nextNFTId",
      "outputs": [
        {
          "internalType": "uint256",
          "name": "",
          "type": "uint256"
        }
      ],
      "stateMutability": "view",
      "type": "function"
    },
    {
      "inputs": [
        {
          "internalType": "address",
          "name": "",
          "type": "address"
        },
        {
          "internalType": "uint256",
          "name": "",
          "type": "uint256"
        }
      ],
      "name": "nftIdMap",
      "outputs": [
        {
          "internalType": "uint256",
          "name": "",
          "type": "uint256"
        }
      ],
      "stateMutability": "view",
      "type": "function"
    },
    {
      "inputs": [
        {
          "internalType": "uint256",
          "name": "",
          "type": "uint256"
        },
        {
          "internalType": "uint256",
          "name": "",
          "type": "uint256"
        }
      ],
      "name": "nftMapping",
      "outputs": [
        {
          "internalType": "uint256",
          "name": "",
          "type": "uint256"
        }
      ],
      "stateMutability": "view",
      "type": "function"
    },
    {
      "inputs": [],
      "name": "nftPriceCeil",
      "outputs": [
        {
          "internalType": "uint256",
          "name": "",
          "type": "uint256"
        }
      ],
      "stateMutability": "view",
      "type": "function"
    },
    {
      "inputs": [],
      "name": "nftPriceFloor",
      "outputs": [
        {
          "internalType": "uint256",
          "name": "",
          "type": "uint256"
        }
      ],
      "stateMutability": "view",
      "type": "function"
    },
    {
      "inputs": [
        {
          "internalType": "uint256",
          "name": "",
          "type": "uint256"
        },
        {
          "internalType": "uint256",
          "name": "",
          "type": "uint256"
        }
      ],
      "name": "nftsByCollectionId",
      "outputs": [
        {
          "internalType": "uint256",
          "name": "",
          "type": "uint256"
        }
      ],
      "stateMutability": "view",
      "type": "function"
    },
    {
      "inputs": [
        {
          "internalType": "address",
          "name": "",
          "type": "address"
        },
        {
          "internalType": "uint256",
          "name": "",
          "type": "uint256"
        }
      ],
      "name": "nftsByOwner",
      "outputs": [
        {
          "internalType": "uint256",
          "name": "",
          "type": "uint256"
        }
      ],
      "stateMutability": "view",
      "type": "function"
    },
    {
      "inputs": [],
      "name": "owner",
      "outputs": [
        {
          "internalType": "address",
          "name": "",
          "type": "address"
        }
      ],
      "stateMutability": "view",
      "type": "function"
    },
    {
      "inputs": [],
      "name": "renounceOwnership",
      "outputs": [],
      "stateMutability": "nonpayable",
      "type": "function"
    },
    {
      "inputs": [
        {
          "internalType": "bytes32",
          "name": "",
          "type": "bytes32"
        }
      ],
      "name": "requestInfoMap",
      "outputs": [
        {
          "internalType": "uint256",
          "name": "collectionId",
          "type": "uint256"
        }
      ],
      "stateMutability": "view",
      "type": "function"
    },
    {
      "inputs": [],
      "name": "router",
      "outputs": [
        {
          "internalType": "contract IUniswapV2Router02",
          "name": "",
          "type": "address"
        }
      ],
      "stateMutability": "view",
      "type": "function"
    },
    {
      "inputs": [
        {
          "internalType": "uint256",
          "name": "",
          "type": "uint256"
        },
        {
          "internalType": "uint256",
          "name": "",
          "type": "uint256"
        }
      ],
      "name": "slotMap",
      "outputs": [
        {
          "internalType": "address",
          "name": "owner",
          "type": "address"
        },
        {
          "internalType": "uint256",
          "name": "size",
          "type": "uint256"
        }
      ],
      "stateMutability": "view",
      "type": "function"
    },
    {
      "inputs": [
        {
          "internalType": "address",
          "name": "newOwner",
          "type": "address"
        }
      ],
      "name": "transferOwnership",
      "outputs": [],
      "stateMutability": "nonpayable",
      "type": "function"
    },
    {
      "inputs": [],
      "name": "wETH",
      "outputs": [
        {
          "internalType": "contract IERC20",
          "name": "",
          "type": "address"
        }
      ],
      "stateMutability": "view",
      "type": "function"
    },
    {
      "inputs": [
        {
          "internalType": "address",
          "name": "",
          "type": "address"
        },
        {
          "internalType": "address",
          "name": "",
          "type": "address"
        },
        {
          "internalType": "uint256",
          "name": "",
          "type": "uint256"
        },
        {
          "internalType": "bytes",
          "name": "",
          "type": "bytes"
        }
      ],
      "name": "onERC721Received",
      "outputs": [
        {
          "internalType": "bytes4",
          "name": "",
          "type": "bytes4"
        }
      ],
      "stateMutability": "nonpayable",
      "type": "function"
    },
    {
      "inputs": [
        {
          "internalType": "contract IERC20",
          "name": "wETH_",
          "type": "address"
        }
      ],
      "name": "setWETH",
      "outputs": [],
      "stateMutability": "nonpayable",
      "type": "function"
    },
    {
      "inputs": [
        {
          "internalType": "contract IERC20",
          "name": "linkToken_",
          "type": "address"
        }
      ],
      "name": "setLinkToken",
      "outputs": [],
      "stateMutability": "nonpayable",
      "type": "function"
    },
    {
      "inputs": [
        {
          "internalType": "contract IERC20",
          "name": "baseToken_",
          "type": "address"
        }
      ],
      "name": "setBaseToken",
      "outputs": [],
      "stateMutability": "nonpayable",
      "type": "function"
    },
    {
      "inputs": [
        {
          "internalType": "contract IERC20",
          "name": "blesToken_",
          "type": "address"
        }
      ],
      "name": "setBlesToken",
      "outputs": [],
      "stateMutability": "nonpayable",
      "type": "function"
    },
    {
      "inputs": [
        {
          "internalType": "contract ILinkAccessor",
          "name": "linkAccessor_",
          "type": "address"
        }
      ],
      "name": "setLinkAccessor",
      "outputs": [],
      "stateMutability": "nonpayable",
      "type": "function"
    },
    {
      "inputs": [
        {
          "internalType": "uint256",
          "name": "linkCost_",
          "type": "uint256"
        }
      ],
      "name": "setLinkCost",
      "outputs": [],
      "stateMutability": "nonpayable",
      "type": "function"
    },
    {
      "inputs": [
        {
          "internalType": "bool",
          "name": "value_",
          "type": "bool"
        }
      ],
      "name": "setCanDrawMultiple",
      "outputs": [],
      "stateMutability": "nonpayable",
      "type": "function"
    },
    {
      "inputs": [
        {
          "internalType": "uint256",
          "name": "feeRate_",
          "type": "uint256"
        }
      ],
      "name": "setFeeRate",
      "outputs": [],
      "stateMutability": "nonpayable",
      "type": "function"
    },
    {
      "inputs": [
        {
          "internalType": "address",
          "name": "feeTo_",
          "type": "address"
        }
      ],
      "name": "setFeeTo",
      "outputs": [],
      "stateMutability": "nonpayable",
      "type": "function"
    },
    {
      "inputs": [
        {
          "internalType": "uint256",
          "name": "creatingFee_",
          "type": "uint256"
        }
      ],
      "name": "setCreatingFee",
      "outputs": [],
      "stateMutability": "nonpayable",
      "type": "function"
    },
    {
      "inputs": [
        {
          "internalType": "contract IUniswapV2Router02",
          "name": "router_",
          "type": "address"
        }
      ],
      "name": "setUniswapV2Router",
      "outputs": [],
      "stateMutability": "nonpayable",
      "type": "function"
    },
    {
      "inputs": [
        {
          "internalType": "uint256",
          "name": "value_",
          "type": "uint256"
        }
      ],
      "name": "setNFTPriceFloor",
      "outputs": [],
      "stateMutability": "nonpayable",
      "type": "function"
    },
    {
      "inputs": [
        {
          "internalType": "uint256",
          "name": "value_",
          "type": "uint256"
        }
      ],
      "name": "setNFTPriceCeil",
      "outputs": [],
      "stateMutability": "nonpayable",
      "type": "function"
    },
    {
      "inputs": [
        {
          "internalType": "uint256",
          "name": "size_",
          "type": "uint256"
        }
      ],
      "name": "setMinimumCollectionSize",
      "outputs": [],
      "stateMutability": "nonpayable",
      "type": "function"
    },
    {
      "inputs": [
        {
          "internalType": "uint256",
          "name": "maximumDuration_",
          "type": "uint256"
        }
      ],
      "name": "setMaximumDuration",
      "outputs": [],
      "stateMutability": "nonpayable",
      "type": "function"
    },
    {
      "inputs": [
        {
          "internalType": "uint256",
          "name": "collectionId_",
          "type": "uint256"
        },
        {
          "internalType": "uint256",
          "name": "index_",
          "type": "uint256"
        }
      ],
      "name": "claimNFT",
      "outputs": [],
      "stateMutability": "nonpayable",
      "type": "function"
    },
    {
      "inputs": [
        {
          "internalType": "uint256",
          "name": "collectionId_",
          "type": "uint256"
        },
        {
          "internalType": "uint256",
          "name": "index_",
          "type": "uint256"
        }
      ],
      "name": "claimRevenue",
      "outputs": [],
      "stateMutability": "nonpayable",
      "type": "function"
    },
    {
      "inputs": [
        {
          "internalType": "uint256",
          "name": "collectionId_",
          "type": "uint256"
        }
      ],
      "name": "claimCommission",
      "outputs": [],
      "stateMutability": "nonpayable",
      "type": "function"
    },
    {
      "inputs": [
        {
          "internalType": "uint256",
          "name": "collectionId_",
          "type": "uint256"
        }
      ],
      "name": "claimFee",
      "outputs": [],
      "stateMutability": "nonpayable",
      "type": "function"
    },
    {
      "inputs": [
        {
          "internalType": "string",
          "name": "name_",
          "type": "string"
        },
        {
          "internalType": "uint256",
          "name": "size_",
          "type": "uint256"
        },
        {
          "internalType": "uint256",
          "name": "commissionRate_",
          "type": "uint256"
        },
        {
          "internalType": "bool",
          "name": "willAcceptBLES_",
          "type": "bool"
        },
        {
          "internalType": "address[]",
          "name": "collaborators_",
          "type": "address[]"
        }
      ],
      "name": "createCollection",
      "outputs": [],
      "stateMutability": "nonpayable",
      "type": "function"
    },
    {
      "inputs": [
        {
          "internalType": "uint256",
          "name": "collectionId_",
          "type": "uint256"
        },
        {
          "internalType": "address[]",
          "name": "collaborators_",
          "type": "address[]"
        }
      ],
      "name": "changeCollaborators",
      "outputs": [],
      "stateMutability": "nonpayable",
      "type": "function"
    },
    {
      "inputs": [
        {
          "internalType": "uint256",
          "name": "collectionId_",
          "type": "uint256"
        }
      ],
      "name": "isPublished",
      "outputs": [
        {
          "internalType": "bool",
          "name": "",
          "type": "bool"
        }
      ],
      "stateMutability": "view",
      "type": "function"
    },
    {
      "inputs": [
        {
          "internalType": "address",
          "name": "tokenAddress_",
          "type": "address"
        },
        {
          "internalType": "uint256",
          "name": "tokenId_",
          "type": "uint256"
        },
        {
          "internalType": "uint256",
          "name": "collectionId_",
          "type": "uint256"
        },
        {
          "internalType": "uint256",
          "name": "price_",
          "type": "uint256"
        }
      ],
      "name": "addNFTToCollection",
      "outputs": [],
      "stateMutability": "nonpayable",
      "type": "function"
    },
    {
      "inputs": [
        {
          "internalType": "uint256",
          "name": "nftId_",
          "type": "uint256"
        },
        {
          "internalType": "uint256",
          "name": "collectionId_",
          "type": "uint256"
        },
        {
          "internalType": "uint256",
          "name": "price_",
          "type": "uint256"
        }
      ],
      "name": "editNFTInCollection",
      "outputs": [],
      "stateMutability": "nonpayable",
      "type": "function"
    },
    {
      "inputs": [
        {
          "internalType": "uint256",
          "name": "nftId_",
          "type": "uint256"
        },
        {
          "internalType": "uint256",
          "name": "collectionId_",
          "type": "uint256"
        }
      ],
      "name": "removeNFTFromCollection",
      "outputs": [],
      "stateMutability": "nonpayable",
      "type": "function"
    },
    {
      "inputs": [
        {
          "internalType": "uint256",
          "name": "size_",
          "type": "uint256"
        }
      ],
      "name": "randomnessCount",
      "outputs": [
        {
          "internalType": "uint256",
          "name": "",
          "type": "uint256"
        }
      ],
      "stateMutability": "pure",
      "type": "function"
    },
    {
      "inputs": [
        {
          "internalType": "uint256",
          "name": "collectionId_",
          "type": "uint256"
        },
        {
          "internalType": "address[]",
          "name": "path",
          "type": "address[]"
        },
        {
          "internalType": "uint256",
          "name": "amountInMax_",
          "type": "uint256"
        },
        {
          "internalType": "uint256",
          "name": "deadline_",
          "type": "uint256"
        }
      ],
      "name": "publishCollection",
      "outputs": [],
      "stateMutability": "nonpayable",
      "type": "function"
    },
    {
      "inputs": [
        {
          "internalType": "uint256",
          "name": "collectionId_",
          "type": "uint256"
        }
      ],
      "name": "unpublishCollection",
      "outputs": [],
      "stateMutability": "nonpayable",
      "type": "function"
    },
    {
      "inputs": [
        {
          "internalType": "uint256",
          "name": "collectionId_",
          "type": "uint256"
        },
        {
          "internalType": "uint256",
          "name": "times_",
          "type": "uint256"
        }
      ],
      "name": "drawBoxes",
      "outputs": [],
      "stateMutability": "nonpayable",
      "type": "function"
    },
    {
      "inputs": [
        {
          "internalType": "uint256",
          "name": "collectionId_",
          "type": "uint256"
        },
        {
          "internalType": "uint256",
          "name": "nftIndex_",
          "type": "uint256"
        }
      ],
      "name": "getWinner",
      "outputs": [
        {
          "internalType": "address",
          "name": "",
          "type": "address"
        }
      ],
      "stateMutability": "view",
      "type": "function"
    },
    {
      "inputs": [],
      "name": "psuedoRandomness",
      "outputs": [
        {
          "internalType": "uint256",
          "name": "",
          "type": "uint256"
        }
      ],
      "stateMutability": "view",
      "type": "function"
    },
    {
      "inputs": [
        {
          "internalType": "bytes32",
          "name": "requestId",
          "type": "bytes32"
        },
        {
          "internalType": "uint256",
          "name": "randomness",
          "type": "uint256"
        }
      ],
      "name": "fulfillRandomness",
      "outputs": [],
      "stateMutability": "nonpayable",
      "type": "function"
    }
  ],
  "bytecode": "0x608060405267016345785d8a00006005556006805460a060020a60ff021916740100000000000000000000000000000000000000001790556101f46007556000600955670de0b6b3a764000060185569d3c21bcecceda10000006019556003601a5562127500601b553480156200007557600080fd5b506200009c6200008d640100000000620000a2810204565b640100000000620000a6810204565b620000f6565b3390565b60008054600160a060020a03838116600160a060020a0319831681178455604051919092169283917f8be0079c531659141344cd1fd0a4f28419497f9722a3daafe3b4186f6b6457e09190a35050565b614ddd80620001066000396000f3fe608060405234801561001057600080fd5b50600436106103d45760003560e060020a900480638da5cb5b11610203578063d0e3cd631161011e578063eb7aa7d3116100b1578063f46901ed11610080578063f46901ed1461098f578063f667526a146109a2578063f887ea40146109b5578063f8bda664146109c857600080fd5b8063eb7aa7d314610943578063f195341e14610956578063f242862114610969578063f2fde38b1461097c57600080fd5b8063e60acd79116100ed578063e60acd791461090b578063e61bd4e61461091e578063e77d6f7c14610927578063ea7585ec1461093057600080fd5b8063d0e3cd63146108a4578063d0eb5205146108b7578063d4157bc9146108ca578063e5c05603146108dd57600080fd5b8063adc84bc511610196578063bc9c1af811610165578063bc9c1af8146107d8578063bf162d67146107eb578063c55dae6314610888578063c909adc01461089b57600080fd5b8063adc84bc514610797578063b11c55df146107aa578063b3fba0a0146107bd578063b5957064146107d057600080fd5b80639c24ea40116101d25780639c24ea40146107295780639da1f6da1461073c578063a1f7132d1461076e578063ab8c364d1461077757600080fd5b80638da5cb5b146106f35780638eca493a146107045780639080895f14610717578063978bbdb91461072057600080fd5b806339ff487b116102f3578063688d3347116102865780637b156fb5116102555780637b156fb5146106955780637bf9bf3a146106ba5780638bd73f71146106cd5780638d316f1c146106e057600080fd5b8063688d33471461065e578063715018a61461067157806377ed860e146106795780637a6b8ade1461068257600080fd5b806357970e93116102c257806357970e93146106125780635b769f3c146106255780635fd94819146106385780636776fab31461064b57600080fd5b806339ff487b146105c6578063401efc19146105d957806345596e2e146105ec5780634b129bee146105ff57600080fd5b806316bb6c131161036b5780631f1f897f1161033a5780631f1f897f14610584578063221b1fa71461059757806327ea3078146105aa578063309cb6a7146105b357600080fd5b806316bb6c131461051c5780631a204e301461052f5780631a6ad1a8146105685780631e25aa8c1461057b57600080fd5b80631123927b116103a75780631123927b146104665780631419841d14610479578063150b7a021461048c578063167ef495146104f157600080fd5b8063017e7e58146103d957806309e7d0c4146104095780630db06c0b1461041e5780630e41f9c414610453575b600080fd5b6008546103ec90600160a060020a031681565b604051600160a060020a0390911681526020015b60405180910390f35b61041c610417366004614705565b6109db565b005b6006546104439074010000000000000000000000000000000000000000900460ff1681565b6040519015158152602001610400565b61041c6104613660046146d5565b610bf5565b61041c6104743660046145bc565b610f9d565b61041c6104873660046144b9565b610fbd565b6104c361049a3660046144d5565b7f150b7a0200000000000000000000000000000000000000000000000000000000949350505050565b6040517bffffffffffffffffffffffffffffffffffffffffffffffffffffffff199091168152602001610400565b6105046104ff3660046146d5565b61100c565b6040516104009c9b9a99989796959493929190614994565b61041c61052a3660046144b9565b611100565b61055a61053d366004614591565b600f60209081526000928352604080842090915290825290205481565b604051908152602001610400565b61041c61057636600461480f565b61114f565b61055a601b5481565b61041c610592366004614705565b6113ef565b61041c6105a5366004614705565b611473565b61055a60185481565b61055a6105c1366004614705565b611675565b6103ec6105d4366004614705565b6116a6565b61041c6105e73660046146d5565b611970565b61041c6105fa3660046146d5565b6119a2565b61041c61060d366004614705565b6119d4565b6004546103ec90600160a060020a031681565b61041c6106333660046144b9565b611a05565b61041c6106463660046146d5565b611a54565b6006546103ec90600160a060020a031681565b61055a61066c366004614591565b611a86565b61041c611aa2565b61055a60055481565b61041c610690366004614705565b611adb565b6104436106a33660046146d5565b600090815260106020526040902060090154151590565b61041c6106c83660046146d5565b611d0d565b61041c6106db3660046144b9565b611d3f565b61055a6106ee366004614591565b611d8e565b600054600160a060020a03166103ec565b61041c6107123660046146d5565b611daa565b61055a60095481565b61055a60075481565b61041c6107373660046144b9565b611ea8565b61074f61074a366004614705565b611ef7565b60408051600160a060020a039093168352602083019190915201610400565b61055a601a5481565b61055a6107853660046146d5565b60156020526000908152604090205481565b61041c6107a5366004614859565b611f3d565b61041c6107b836600461469d565b6120d8565b61041c6107cb3660046146d5565b612145565b61055a6121cb565b61055a6107e63660046146d5565b6122ba565b6108426107f93660046146d5565b600d602052600090815260409020805460018201546002830154600384015460048501546005860154600690960154600160a060020a0395861696949590931693919290919087565b60408051600160a060020a039889168152602081019790975294909616938501939093526060840191909152608083015260a082015260c081019190915260e001610400565b6002546103ec90600160a060020a031681565b61055a600b5481565b61055a6108b2366004614705565b6122eb565b6003546103ec90600160a060020a031681565b61041c6108d83660046146d5565b612307565b6104436108eb3660046147e0565b601260209081526000928352604080842090915290825290205460ff1681565b61041c6109193660046144b9565b612339565b61055a60195481565b61055a600c5481565b61041c61093e3660046148b5565b612388565b61041c6109513660046146d5565b612645565b6103ec610964366004614705565b6126cb565b6001546103ec90600160a060020a031681565b61041c61098a3660046144b9565b612703565b61041c61099d3660046144b9565b6127bb565b61041c6109b03660046146d5565b61280a565b600a546103ec90600160a060020a031681565b61041c6109d6366004614726565b612949565b60008281526010602052604090206002810154600b82015414610a1c5760405160e560020a62461bcd028152600401610a1390614a87565b60405180910390fd5b6000838152601460205260408120805484908110610a4d5760e060020a634e487b7102600052603260045260246000fd5b90600052602060002001549050610a613390565b6000828152600d6020526040902060020154600160a060020a039081169116148015610a9d57506000818152600d602052604090206005015415155b610aec5760405160e560020a62461bcd02815260206004820152600f60248201527f4e4654206e6f7420636c61696d656400000000000000000000000000000000006044820152606401610a13565b6000818152600d6020526040902060040154610bef57600482015460ff1615610b8a57610b4f612710610b49610b318560030154612710612ccf90919063ffffffff16565b6000858152600d602052604090206003015490612ce2565b90612cee565b6000828152600d602052604090206004810182905560020154600354610b8592600160a060020a03918216929190911690612cfa565b610bef565b610bb8612710610b49610b318560030154610bb2600754612710612ccf90919063ffffffff16565b90612ccf565b6000828152600d60205260409020600481018290556002908101549054610bef92600160a060020a03918216929190911690612cfa565b50505050565b60008181526010602052604090208054600160a060020a031633600160a060020a0316141580610c295750600081600b0154115b15610ceb57601b548160090154610c409190614b50565b4211610c915760405160e560020a62461bcd02815260206004820152600f60248201527f4e6f7420657870697265642079657400000000000000000000000000000000006044820152606401610a13565b806002015481600b015410610ceb5760405160e560020a62461bcd02815260206004820152600860248201527f536f6c64206f75740000000000000000000000000000000000000000000000006044820152606401610a13565b600060098201819055600b820181905582815260166020526040812054905b81811015610f54576000848152601660205260408120610d35610d2e846001614b50565b8590612ccf565b81548110610d565760e060020a634e487b7102600052603260045260246000fd5b6000918252602080832060408051808201825260029094029091018054600160a060020a031684526001015483830152888452601690915290912080549192509080610db55760e060020a634e487b7102600052603160045260246000fd5b6000828152602081206002600019909301928302018054600160a060020a0319168155600101559055600484015460ff1615610e9957600354815160208301516006870154600160a060020a039093169263a9059cbb9291610e179190612ce2565b60405160e060020a63ffffffff8516028152600160a060020a0390921660048301526024820152604401602060405180830381600087803b158015610e5b57600080fd5b505af1158015610e6f573d6000803e3d6000fd5b505050506040513d601f19601f82011682018060405250810190610e9391906146b9565b50610f43565b600254815160208301516006870154600160a060020a039093169263a9059cbb9291610ec59190612ce2565b60405160e060020a63ffffffff8516028152600160a060020a0390921660048301526024820152604401602060405180830381600087803b158015610f0957600080fd5b505af1158015610f1d573d6000803e3d6000fd5b505050506040513d601f19601f82011682018060405250810190610f4191906146b9565b505b50610f4d81614d0a565b9050610d0a565b507f16388e700c22580a369a4099aac059e3a39c1f5e360b69c481bd532106b468a03360408051600160a060020a039092168252602082018690520160405180910390a1505050565b6000610fa98585612da0565b9050610fb6818484612fee565b5050505050565b600054600160a060020a03163314610fea5760405160e560020a62461bcd028152600401610a1390614a52565b600a8054600160a060020a031916600160a060020a0392909216919091179055565b60106020526000908152604090208054600182018054600160a060020a03909216929161103890614ccc565b80601f016020809104026020016040519081016040528092919081815260200182805461106490614ccc565b80156110b15780601f10611086576101008083540402835291602001916110b1565b820191906000526020600020905b81548152906001019060200180831161109457829003601f168201915b50505060028401546003850154600486015460058701546006880154600789015460088a015460098b0154600a8c0154600b909c01549a9b979a96995060ff909516975092959194909391908c565b600054600160a060020a0316331461112d5760405160e560020a62461bcd028152600401610a1390614a52565b60028054600160a060020a031916600160a060020a0392909216919091179055565b60008381526010602052604090208054600160a060020a031633146111b95760405160e560020a62461bcd02815260206004820152601660248201527f4e6565647320636f6c6c656374696f6e206f776e6572000000000000000000006044820152606401610a13565b600084815260106020526040902060090154156111eb5760405160e560020a62461bcd028152600401610a1390614a1b565b60005b8281101561127757600085815260126020526040812060019186868581811061122a5760e060020a634e487b7102600052603260045260246000fd5b905060200201602081019061123f91906144b9565b600160a060020a031681526020810191909152604001600020805460ff191691151591909117905561127081614d0a565b90506111ee565b5060005b6000858152601360205260409020548110156113ce5760005b83811015611342578484828181106112bf5760e060020a634e487b7102600052603260045260246000fd5b90506020020160208101906112d491906144b9565b600160a060020a03166013600088815260200190815260200160002083815481106113125760e060020a634e487b7102600052603260045260246000fd5b600091825260209091200154600160a060020a0316141561133257611342565b61133b81614d0a565b9050611294565b808414156113bd576000868152601260209081526040808320601390925282208054839190869081106113885760e060020a634e487b7102600052603260045260246000fd5b600091825260208083209190910154600160a060020a031683528201929092526040019020805460ff19169115159190911790555b506113c781614d0a565b905061127b565b60008581526013602052604090206113e7908585614374565b505050505050565b600654600160a060020a031633600160a060020a0316146114555760405160e560020a62461bcd02815260206004820152601a60248201527f4f6e6c79206c696e6b4163636573736f722063616e2063616c6c0000000000006044820152606401610a13565b60008281526015602052604090205461146e8183613330565b505050565b60065474010000000000000000000000000000000000000000900460ff166114e857806001146114e85760405160e560020a62461bcd02815260206004820152600f60248201527f43616e2064726177206f6e6c79203100000000000000000000000000000000006044820152606401610a13565b60008281526010602052604090206002810154600b82015461150a90846135de565b111561155b5760405160e560020a62461bcd02815260206004820152600f60248201527f4e6f7420656e6f756768206c65667400000000000000000000000000000000006044820152606401610a13565b600681015460009061156d9084612ce2565b600483015490915060ff161561159a5761159533600354600160a060020a03169030846135ea565b6115b2565b6115b233600254600160a060020a03169030846135ea565b60408051808201825233815260208082018681526000888152601683529384208054600180820183559186529290942083516002909302018054600160a060020a031916600160a060020a0390931692909217825551920191909155600b83015461161d90856135de565b600b840155600a83015460028401546000916116399190612ccf565b9050805b84600b015481101561166c5761165c876116578385612ccf565b61360e565b61166581614d0a565b905061163d565b50505050505050565b6017602052816000526040600020818154811061169157600080fd5b90600052602060002001600091509150505481565b60008281526010602052604081206002810154600b82015410156116ce57600091505061196a565b600281015460006116de826122ba565b600087815260176020526040812054919250906116fc906001612ccf565b600088815260176020526040812080549293509091839081106117325760e060020a634e487b7102600052603260045260246000fd5b60009182526020909120015490506117548461174e89846135de565b906136e2565b965060006117628885612cee565b905061177c611772846001614b50565b61174e83856135de565b60008a815260176020526040812080549293509091839081106117b25760e060020a634e487b7102600052603260045260246000fd5b9060005260206000200154905060005b6117cc8a876136e2565b8110156117ef576117dd8783614b68565b91506117e881614d0a565b90506117c2565b6117f98783614d25565b9150600090505b60008b81526016602052604090205481101561191f5760008b81526016602052604090208054829081106118475760e060020a634e487b7102600052603260045260246000fd5b90600052602060002090600202016001015482106118b45760008b81526016602052604090208054829081106118905760e060020a634e487b7102600052603260045260246000fd5b906000526020600020906002020160010154826118ad9190614c89565b915061190f565b60008b81526016602052604090208054829081106118e55760e060020a634e487b7102600052603260045260246000fd5b6000918252602090912060029091020154600160a060020a0316985061196a975050505050505050565b61191881614d0a565b9050611800565b60405160e560020a62461bcd02815260206004820152600a60248201527f72206f766572666c6f77000000000000000000000000000000000000000000006044820152606401610a13565b92915050565b600054600160a060020a0316331461199d5760405160e560020a62461bcd028152600401610a1390614a52565b601b55565b600054600160a060020a031633146119cf5760405160e560020a62461bcd028152600401610a1390614a52565b600755565b6000828152600d6020526040902060020154600160a060020a03166119f983836136ee565b61146e818460006139ee565b600054600160a060020a03163314611a325760405160e560020a62461bcd028152600401610a1390614a52565b60018054600160a060020a031916600160a060020a0392909216919091179055565b600054600160a060020a03163314611a815760405160e560020a62461bcd028152600401610a1390614a52565b600555565b600e602052816000526040600020818154811061169157600080fd5b600054600160a060020a03163314611acf5760405160e560020a62461bcd028152600401610a1390614a52565b611ad96000613b24565b565b60008281526010602052604090206002810154600b82015414611b135760405160e560020a62461bcd028152600401610a1390614a87565b6000611b1f84846116a6565b9050600160a060020a0381163314611b7c5760405160e560020a62461bcd02815260206004820152601560248201527f4f6e6c792077696e6e65722063616e20636c61696d00000000000000000000006044820152606401610a13565b6000848152601460205260408120805485908110611bad5760e060020a634e487b7102600052603260045260246000fd5b9060005260206000200154905084600d60008381526020019081526020016000206005015414611c225760405160e560020a62461bcd02815260206004820152600f60248201527f416c726561647920636c61696d656400000000000000000000000000000000006044820152606401610a13565b6000818152600d6020526040902060040154611d0157600483015460ff1615611ca257611c67612710610b49610b318660030154612710612ccf90919063ffffffff16565b6000828152600d602052604090206004810182905560020154600354611c9d92600160a060020a03918216929190911690612cfa565b611d01565b611cca612710610b49610b318660030154610bb2600754612710612ccf90919063ffffffff16565b6000828152600d60205260409020600481018290556002908101549054611d0192600160a060020a03918216929190911690612cfa565b610fb6338260016139ee565b600054600160a060020a03163314611d3a5760405160e560020a62461bcd028152600401610a1390614a52565b601a55565b600054600160a060020a03163314611d6c5760405160e560020a62461bcd028152600401610a1390614a52565b60038054600160a060020a031916600160a060020a0392909216919091179055565b6011602052816000526040600020818154811061169157600080fd5b60008181526010602052604090208054600160a060020a031633600160a060020a031614611e1d5760405160e560020a62461bcd02815260206004820152601660248201527f4f6e6c792063757261746f722063616e20636c61696d000000000000000000006044820152606401610a13565b806002015481600b015414611e475760405160e560020a62461bcd028152600401610a1390614a87565b600481015460ff1615611e7b5780546008820154600354611e7692600160a060020a0391821692911690612cfa565b611e9d565b80546008820154600254611e9d92600160a060020a0391821692911690612cfa565b600060089091015550565b600054600160a060020a03163314611ed55760405160e560020a62461bcd028152600401610a1390614a52565b60048054600160a060020a031916600160a060020a0392909216919091179055565b60166020528160005260406000208181548110611f1357600080fd5b600091825260209091206002909102018054600190910154600160a060020a039091169250905082565b60008581526010602052604090208054600160a060020a03163314611fa75760405160e560020a62461bcd02815260206004820152601660248201527f4f6e6c79206f776e65722063616e207075626c697368000000000000000000006044820152606401610a13565b600086815260146020526040902054601a5481101561200b5760405160e560020a62461bcd02815260206004820152601060248201527f4e6f7420656e6f75676820626f786573000000000000000000000000000000006044820152606401610a13565b6002820181905561202f81610b49612024826001612ccf565b6005860154906135de565b60068301554260098301556000612045826122ba565b9050600061205c82610b496001610bb287846135de565b9050600060055411801561207a5750600654600160a060020a031615155b1561208c5761208c8189898989613b74565b600a840181905560408051338152602081018b90527f0fb50fd15975b445dd2f5c6399d672279fac7104f3e90eb1a23a7cd3f9c3196c91015b60405180910390a1505050505050505050565b600054600160a060020a031633146121055760405160e560020a62461bcd028152600401610a1390614a52565b60068054911515740100000000000000000000000000000000000000000274ff000000000000000000000000000000000000000019909216919091179055565b600054600160a060020a031633146121725760405160e560020a62461bcd028152600401610a1390614a52565b60195481106121c65760405160e560020a62461bcd02815260206004820152601b60248201527f73686f756c6420626520686967686572207468616e20666c6f6f7200000000006044820152606401610a13565b601855565b6000434233604051600160a060020a03919091166c0100000000000000000000000002602082015260340160408051601f1981840301815291905280516020909101206122189190614b68565b6040516c01000000000000000000000000410260208201524590429060340160408051601f1981840301815291905280516020909101206122599190614b68565b6122634442614b50565b61226d9190614b50565b6122779190614b50565b6122819190614b50565b61228b9190614b50565b60405160200161229d91815260200190565b60408051601f198184030181529190528051602090910120919050565b6000805b6122ca83600019614b68565b6122d48285614bc1565b1161196a57806122e381614d0a565b9150506122be565b6014602052816000526040600020818154811061169157600080fd5b600054600160a060020a031633146123345760405160e560020a62461bcd028152600401610a1390614a52565b600955565b600054600160a060020a031633146123665760405160e560020a62461bcd028152600401610a1390614a52565b60068054600160a060020a031916600160a060020a0392909216919091179055565b60008281526010602052604090208054600160a060020a03163314806123c757506000848152600d6020526040902060020154600160a060020a031633145b61243c5760405160e560020a62461bcd02815260206004820152602360248201527f4e6565647320636f6c6c656374696f6e206f776e6572206f72204e4654206f7760448201527f6e657200000000000000000000000000000000000000000000000000000000006064820152608401610a13565b601854821015801561245057506019548211155b61249f5760405160e560020a62461bcd02815260206004820152601260248201527f5072696365206e6f7420696e2072616e676500000000000000000000000000006044820152606401610a13565b6000848152600d602052604090206005015483146125025760405160e560020a62461bcd02815260206004820152601560248201527f4e4654206e6f7420696e20636f6c6c656374696f6e00000000000000000000006044820152606401610a13565b600083815260106020526040902060090154156125345760405160e560020a62461bcd028152600401610a1390614a1b565b6000848152600d6020526040902060030154600582015461255a9190610bb290856135de565b6005820155600481015460ff166125c5576007546000858152600d60205260409020600301546125bf916125969161271091610b499190612ce2565b610bb26125b4612710610b4960075488612ce290919063ffffffff16565b6007850154906135de565b60078201555b6126266125fb612710610b498460030154600d60008a815260200190815260200160002060030154612ce290919063ffffffff16565b610bb261261b612710610b49866003015488612ce290919063ffffffff16565b6008850154906135de565b6008909101556000928352600d60205260409092206003019190915550565b600054600160a060020a031633146126725760405160e560020a62461bcd028152600401610a1390614a52565b60185481116126c65760405160e560020a62461bcd02815260206004820152601b60248201527f73686f756c6420626520686967686572207468616e20666c6f6f7200000000006044820152606401610a13565b601955565b601360205281600052604060002081815481106126e757600080fd5b600091825260209091200154600160a060020a03169150829050565b600054600160a060020a031633146127305760405160e560020a62461bcd028152600401610a1390614a52565b600160a060020a0381166127af5760405160e560020a62461bcd02815260206004820152602660248201527f4f776e61626c653a206e6577206f776e657220697320746865207a65726f206160448201527f64647265737300000000000000000000000000000000000000000000000000006064820152608401610a13565b6127b881613b24565b50565b600054600160a060020a031633146127e85760405160e560020a62461bcd028152600401610a1390614a52565b60088054600160a060020a031916600160a060020a0392909216919091179055565b600854600160a060020a03166128655760405160e560020a62461bcd02815260206004820152601660248201527f506c656173652073657420666565546f206669727374000000000000000000006044820152606401610a13565b60008181526010602052604090206002810154600b8201541461289d5760405160e560020a62461bcd028152600401610a1390614a87565b600481015460ff161561291b5760405160e560020a62461bcd02815260206004820152602260248201527f4e6f20666565206966207468652063757261746f72206163636570747320424c60448201527f45530000000000000000000000000000000000000000000000000000000000006064820152608401610a13565b600854600782015460025461293e92600160a060020a0391821692911690612cfa565b600060079091015550565b601a5485101561299e5760405160e560020a62461bcd02815260206004820152600e60248201527f53697a6520746f6f20736d616c6c0000000000000000000000000000000000006044820152606401610a13565b6127106129b6600754866135de90919063ffffffff16565b10612a065760405160e560020a62461bcd02815260206004820152601360248201527f546f6f206d75636820636f6d6d697373696f6e000000000000000000000000006044820152606401610a13565b60095415612a2f57600854600954600354612a2f92600160a060020a0391821692911690612cfa565b612a9e6040518061018001604052806000600160a060020a03168152602001606081526020016000815260200160008152602001600015158152602001600081526020016000815260200160008152602001600081526020016000815260200160008152602001600081525090565b338152604080516020601f8a0181900481028201810190925288815290899089908190840183828082843760009201829052506020860194909452505050604082018790526060820186905260a0820181905260c0820181905284151560808301526101208201819052612b106140c7565b600081815260106020908152604090912084518154600160a060020a031916600160a060020a0390911617815584820151805193945085939192612b5c926001850192909101906143d7565b50604082810151600283015560608301516003830155608083015160048301805460ff191691151591909117905560a0830151600583015560c0830151600683015560e0830151600783015561010083015160088301556101208301516009830155610140830151600a83015561016090920151600b90910155336000908152601160209081528282208054600181018255908352818320018490558382526013905220612c0b908585614374565b5060005b83811015612c98576000828152601260205260408120600191878785818110612c4b5760e060020a634e487b7102600052603260045260246000fd5b9050602002016020810190612c6091906144b9565b600160a060020a031681526020810191909152604001600020805460ff1916911515919091179055612c9181614d0a565b9050612c0f565b5060408051338152602081018390527f088eefe3007cf2e591f155448685cb291cdae4fff8202a0546c3a69968c2dba791016120c5565b6000612cdb8284614c89565b9392505050565b6000612cdb8284614c6a565b6000612cdb8284614b68565b604051600160a060020a03831660248201526044810182905261146e9084907fa9059cbb00000000000000000000000000000000000000000000000000000000906064015b60408051601f198184030181529190526020810180517bffffffffffffffffffffffffffffffffffffffffffffffffffffffff167bffffffffffffffffffffffffffffffffffffffffffffffffffffffff19909316929092179091526140e2565b6040517f42842e0e000000000000000000000000000000000000000000000000000000008152600090600160a060020a038416906342842e0e90612dec90339030908790600401614970565b600060405180830381600087803b158015612e0657600080fd5b505af1158015612e1a573d6000803e3d6000fd5b50505050612e706040518060e001604052806000600160a060020a03168152602001600081526020016000600160a060020a03168152602001600081526020016000815260200160008152602001600081525090565b600160a060020a038416808252602080830185905233604080850191909152600060a0850181905260c08501819052928352600f825280832086845290915281205415612ee15750600160a060020a0384166000908152600f60209081526040808320868452909152902054612f12565b612ee96141ca565b600160a060020a0386166000908152600f60209081526040808320888452909152902081905590505b6000818152600d6020908152604080832085518154600160a060020a0319908116600160a060020a0392831617835587850151600180850191909155888501516002850180549093169316929092179055606087015160038301556080870151600483015560a0870151600583015560c087015160069092019190915533808552600e84528285208054928301815585529290932090920183905590517f6beb9379af630d855c59b605909537f26c1d38ef62bc6645e8741985d890fdb091612fde9188908890614970565b60405180910390a1949350505050565b6000828152601060209081526040808320868452600d90925290912060020154600160a060020a031633146130685760405160e560020a62461bcd02815260206004820152601660248201527f4f6e6c79204e4654206f776e65722063616e20616464000000000000000000006044820152606401610a13565b8054600160a060020a03163314806130995750600083815260126020908152604080832033845290915290205460ff165b61310e5760405160e560020a62461bcd02815260206004820152602660248201527f4e6565647320636f6c6c656374696f6e206f776e6572206f7220636f6c6c616260448201527f6f7261746f7200000000000000000000000000000000000000000000000000006064820152608401610a13565b601854821015801561312257506019548211155b6131715760405160e560020a62461bcd02815260206004820152601260248201527f5072696365206e6f7420696e2072616e676500000000000000000000000000006044820152606401610a13565b6000848152600d6020526040902060050154156131d35760405160e560020a62461bcd02815260206004820152600d60248201527f416c7265616479206164646564000000000000000000000000000000000000006044820152606401610a13565b600083815260106020526040902060090154156132055760405160e560020a62461bcd028152600401610a1390614a1b565b6002810154600084815260146020526040902054106132695760405160e560020a62461bcd02815260206004820152600f60248201527f636f6c6c656374696f6e2066756c6c00000000000000000000000000000000006044820152606401610a13565b6000848152600d602090815260408083206003810186905560058082018890558785526014845291842080546006909201829055600182018155845291909220018590558101546132ba90836135de565b6005820155600481015460ff166132fa576132f46132e9612710610b4960075486612ce290919063ffffffff16565b6007830154906135de565b60078201555b61332561331a612710610b49846003015486612ce290919063ffffffff16565b6008830154906135de565b600890910155505050565b600082815260106020526040812060020154908167ffffffffffffffff81111561336d5760e060020a634e487b7102600052604160045260246000fd5b604051908082528060200260200182016040528015613396578160200160208202803683370190505b5090506000806000806133a8866122ba565b9050600092505b60008881526017602052604090205483101561347a5760008881526017602052604090208054849081106133f65760e060020a634e487b7102600052603260045260246000fd5b90600052602060002001549350600091505b8082101561346a5760018561341d86896136e2565b8151811061343e5760e060020a634e487b7102600052603260045260246000fd5b911515602092830291909101909101526134588487612cee565b935061346382614d0a565b9150613408565b61347383614d0a565b92506133af565b600088815260176020526040812054909450849081906134a69061349f908590612ce2565b8990612ccf565b9050600094505b828510156135b057806134bf576135b0565b6134c989826136e2565b91506134d58982612cee565b98506134e28260016135de565b9150600093505b87841015613548578684815181106135145760e060020a634e487b7102600052603260045260246000fd5b602002602001015161352e5761352b826001612ccf565b91505b8161353857613548565b61354184614d0a565b93506134e9565b600187858151811061356d5760e060020a634e487b7102600052603260045260246000fd5b911515602092830291909101909101526135918461358b888b612ce2565b906135de565b955061359e816001612ccf565b90506135a985614d0a565b94506134ad565b5050506000968752505060176020908152604086208054600181018255908752952090940193909355505050565b6000612cdb8284614b50565b610bef846323b872dd60e060020a02858585604051602401612d3f93929190614970565b600654600160a060020a0316156136cd576006546040517f7363ae1f00000000000000000000000000000000000000000000000000000000815260048101839052600091600160a060020a031690637363ae1f90602401602060405180830381600087803b15801561367f57600080fd5b505af1158015613693573d6000803e3d6000fd5b505050506040513d601f19601f820116820180604052508101906136b791906146ed565b6000908152601560205260409020839055505050565b6136de826136d96121cb565b613330565b5050565b6000612cdb8284614d25565b6000818152601060209081526040808320858452600d90925290912060020154600160a060020a031633148061372d57508054600160a060020a031633145b6137a25760405160e560020a62461bcd02815260206004820152602d60248201527f4f6e6c79204e4654206f776e6572206f7220636f6c6c656374696f6e206f776e60448201527f65722063616e2072656d6f7665000000000000000000000000000000000000006064820152608401610a13565b6000838152600d602052604090206005015482146138055760405160e560020a62461bcd02815260206004820152601560248201527f4e4654206e6f7420696e20636f6c6c656374696f6e00000000000000000000006044820152606401610a13565b600082815260106020526040902060090154156138375760405160e560020a62461bcd028152600401610a1390614a1b565b6000838152600d6020526040902060030154600582015461385791612ccf565b6005820155600481015460ff166138a4576007546000848152600d602052604090206003015461389e916138939161271091610b499190612ce2565b600783015490612ccf565b60078201555b6138e56138da612710610b498460030154600d600089815260200190815260200160002060030154612ce290919063ffffffff16565b600883015490612ccf565b60088201556000838152600d60209081526040808320600581018490556006015485845260149092528220805491929161392190600190614c89565b815481106139425760e060020a634e487b7102600052603260045260246000fd5b90600052602060002001549050806014600086815260200190815260200160002083815481106139855760e060020a634e487b7102600052603260045260246000fd5b6000918252602080832090910192909255828152600d825260408082206006018590558682526014909252208054806139d15760e060020a634e487b7102600052603160045260246000fd5b600190038181906000526020600020016000905590555050505050565b6000828152600d6020526040808220600281018054600160a060020a03191690556005810192909255815460019092015490517f42842e0e000000000000000000000000000000000000000000000000000000008152600160a060020a039092169182906342842e0e90613a6a90309089908690600401614970565b600060405180830381600087803b158015613a8457600080fd5b505af1158015613a98573d6000803e3d6000fd5b505050508215613ae2577f9015147cc5b246cd381a48b371f78238cbd819ee8fe369d7c077d28d96724c51858383604051613ad593929190614970565b60405180910390a1610fb6565b7fb072771ef078d0df5c946e8bf51bf87fbfb3beb54a70e74964bb1c278999e1f5858383604051613b1593929190614970565b60405180910390a15050505050565b60008054600160a060020a03838116600160a060020a0319831681178455604051919092169283917f8be0079c531659141344cd1fd0a4f28419497f9722a3daafe3b4186f6b6457e09190a35050565b600454600160a060020a03168484613b8d816001612ccf565b818110613bad5760e060020a634e487b7102600052603260045260246000fd5b9050602002016020810190613bc291906144b9565b600160a060020a031614613c1b5760405160e560020a62461bcd02815260206004820152601760248201527f4c61737420746f6b656e206d757374206265204c494e4b0000000000000000006044820152606401610a13565b600554600090613c2b9087612ce2565b90506001841415613cce57600454600160a060020a03166323b872dd3360065460405160e060020a63ffffffff8516028152613c769291600160a060020a0316908690600401614970565b602060405180830381600087803b158015613c9057600080fd5b505af1158015613ca4573d6000803e3d6000fd5b505050506040513d601f19601f82011682018060405250810190613cc891906146b9565b506113e7565b8285856000818110613cf35760e060020a634e487b7102600052603260045260246000fd5b9050602002016020810190613d0891906144b9565b600a546040517fdd62ed3e000000000000000000000000000000000000000000000000000000008152306004820152600160a060020a03918216602482015291169063dd62ed3e9060440160206040518083038186803b158015613d6b57600080fd5b505afa158015613d7f573d6000803e3d6000fd5b505050506040513d601f19601f82011682018060405250810190613da391906146ed565b1015613e825784846000818110613dcd5760e060020a634e487b7102600052603260045260246000fd5b9050602002016020810190613de291906144b9565b600a546040517f095ea7b3000000000000000000000000000000000000000000000000000000008152600160a060020a0391821660048201526024810186905291169063095ea7b390604401602060405180830381600087803b158015613e4857600080fd5b505af1158015613e5c573d6000803e3d6000fd5b505050506040513d601f19601f82011682018060405250810190613e8091906146b9565b505b600a546040517f1f00ca74000000000000000000000000000000000000000000000000000000008152600091600160a060020a031690631f00ca7490613ed09085908a908a90600401614abe565b60006040518083038186803b158015613ee857600080fd5b505afa158015613efc573d6000803e3d6000fd5b505050506040513d6000823e601f3d908101601f19168201604052613f2491908101906145f6565b905085856000818110613f4a5760e060020a634e487b7102600052603260045260246000fd5b9050602002016020810190613f5f91906144b9565b600160a060020a03166323b872dd333084600081518110613f935760e060020a634e487b7102600052603260045260246000fd5b60200260200101516040518463ffffffff1660e060020a028152600401613fbc93929190614970565b602060405180830381600087803b158015613fd657600080fd5b505af1158015613fea573d6000803e3d6000fd5b505050506040513d601f19601f8201168201806040525081019061400e91906146b9565b50600a546006546040517f8803dbee000000000000000000000000000000000000000000000000000000008152600160a060020a0392831692638803dbee926140679287928a928d928d92909116908b90600401614ae1565b600060405180830381600087803b15801561408157600080fd5b505af1158015614095573d6000803e3d6000fd5b505050506040513d6000823e601f3d908101601f191682016040526140bd91908101906145f6565b5050505050505050565b6000600c600081546140d890614d0a565b9182905550919050565b6000614137826040518060400160405280602081526020017f5361666545524332303a206c6f772d6c6576656c2063616c6c206661696c656481525085600160a060020a03166141db9092919063ffffffff16565b80519091501561146e578080602001905181019061415591906146b9565b61146e5760405160e560020a62461bcd02815260206004820152602a60248201527f5361666545524332303a204552433230206f7065726174696f6e20646964206e60448201527f6f742073756363656564000000000000000000000000000000000000000000006064820152608401610a13565b6000600b600081546140d890614d0a565b60606141ea84846000856141f2565b949350505050565b6060303183111561426e5760405160e560020a62461bcd02815260206004820152602660248201527f416464726573733a20696e73756666696369656e742062616c616e636520666f60448201527f722063616c6c00000000000000000000000000000000000000000000000000006064820152608401610a13565b843b6142bf5760405160e560020a62461bcd02815260206004820152601d60248201527f416464726573733a2063616c6c20746f206e6f6e2d636f6e74726163740000006044820152606401610a13565b60008086600160a060020a031685876040516142db9190614954565b60006040518083038185875af1925050503d8060008114614318576040519150601f19603f3d011682016040523d82523d6000602084013e61431d565b606091505b509150915061432d828286614338565b979650505050505050565b60608315614347575081612cdb565b8251156143575782518084602001fd5b8160405160e560020a62461bcd028152600401610a139190614a08565b8280548282559060005260206000209081019282156143c7579160200282015b828111156143c7578154600160a060020a031916600160a060020a03843516178255602090920191600190910190614394565b506143d392915061444b565b5090565b8280546143e390614ccc565b90600052602060002090601f01602090048101928261440557600085556143c7565b82601f1061441e57805160ff19168380011785556143c7565b828001600101855582156143c7579182015b828111156143c7578251825591602001919060010190614430565b5b808211156143d3576000815560010161444c565b60008083601f840112614471578182fd5b50813567ffffffffffffffff811115614488578182fd5b60208301915083602080830285010111156144a257600080fd5b9250929050565b80356144b481614d99565b919050565b6000602082840312156144ca578081fd5b8135612cdb81614d84565b600080600080608085870312156144ea578283fd5b84356144f581614d84565b935060208581013561450681614d84565b935060408601359250606086013567ffffffffffffffff80821115614529578384fd5b818801915088601f83011261453c578384fd5b81358181111561454e5761454e614d6b565b614560601f8201601f19168501614b1f565b91508082528984828501011115614575578485fd5b8084840185840137810190920192909252939692955090935050565b600080604083850312156145a3578182fd5b82356145ae81614d84565b946020939093013593505050565b600080600080608085870312156145d1578384fd5b84356145dc81614d84565b966020860135965060408601359560600135945092505050565b60006020808385031215614608578182fd5b825167ffffffffffffffff8082111561461f578384fd5b818501915085601f830112614632578384fd5b81518181111561464457614644614d6b565b8381029150614654848301614b1f565b8181528481019084860184860187018a101561466e578788fd5b8795505b83861015614690578051835260019590950194918601918601614672565b5098975050505050505050565b6000602082840312156146ae578081fd5b8135612cdb81614d99565b6000602082840312156146ca578081fd5b8151612cdb81614d99565b6000602082840312156146e6578081fd5b5035919050565b6000602082840312156146fe578081fd5b5051919050565b60008060408385031215614717578182fd5b50508035926020909101359150565b600080600080600080600060a0888a031215614740578485fd5b873567ffffffffffffffff80821115614757578687fd5b818a0191508a601f83011261476a578687fd5b813581811115614778578788fd5b8b6020828501011115614789578788fd5b60208381019a509098508a0135965060408a013595506147ab60608b016144a9565b945060808a01359150808211156147c0578384fd5b506147cd8a828b01614460565b989b979a50959850939692959293505050565b600080604083850312156147f2578182fd5b82359150602083013561480481614d84565b809150509250929050565b600080600060408486031215614823578081fd5b83359250602084013567ffffffffffffffff811115614840578182fd5b61484c86828701614460565b9497909650939450505050565b600080600080600060808688031215614870578283fd5b85359450602086013567ffffffffffffffff81111561488d578384fd5b61489988828901614460565b9699909850959660408101359660609091013595509350505050565b6000806000606084860312156148c9578081fd5b505081359360208301359350604090920135919050565b81835260006020808501945082825b8581101561491d57813561490281614d84565b600160a060020a0316875295820195908201906001016148ef565b509495945050505050565b60008151808452614940816020860160208601614ca0565b601f01601f19169290920160200192915050565b60008251614966818460208701614ca0565b9190910192915050565b600160a060020a039384168152919092166020820152604081019190915260600190565b6000610180600160a060020a038f1683528060208401526149b78184018f614928565b604084019d909d5250506060810199909952961515608089015260a088019590955260c087019390935260e08601919091526101008501526101208401526101408301526101609091015292915050565b602081526000612cdb6020830184614928565b6020808252601c908201527f436f6c6c656374696f6e20616c7265616479207075626c697368656400000000604082015260600190565b6020808252818101527f4f776e61626c653a2063616c6c6572206973206e6f7420746865206f776e6572604082015260600190565b6020808252600c908201527f4e6f742066696e69736865640000000000000000000000000000000000000000604082015260600190565b838152604060208201526000614ad86040830184866148e0565b95945050505050565b86815285602082015260a060408201526000614b0160a0830186886148e0565b600160a060020a039490941660608301525060800152949350505050565b604051601f8201601f1916810167ffffffffffffffff81118282101715614b4857614b48614d6b565b604052919050565b60008219821115614b6357614b63614d39565b500190565b600082614b7757614b77614d52565b500490565b600181815b80851115614bb9578160001904821115614b9d57614b9d614d39565b80851615614baa57918102915b60029094049390800290614b81565b509250929050565b6000612cdb8383600082614bd75750600161196a565b81614be45750600061196a565b8160018114614bfa5760028114614c0457614c21565b600191505061196a565b60ff841115614c1557614c15614d39565b8360020a91505061196a565b5060208310610133831016604e8410600b8410161715614c44575081810a61196a565b614c4e8383614b7c565b8060001904821115614c6257614c62614d39565b029392505050565b6000816000190483118215151615614c8457614c84614d39565b500290565b600082821015614c9b57614c9b614d39565b500390565b60005b83811015614cbb578181015183820152602001614ca3565b83811115610bef5750506000910152565b600281046001821680614ce057607f821691505b60208210811415614d045760e060020a634e487b7102600052602260045260246000fd5b50919050565b6000600019821415614d1e57614d1e614d39565b5060010190565b600082614d3457614d34614d52565b500690565b60e060020a634e487b7102600052601160045260246000fd5b60e060020a634e487b7102600052601260045260246000fd5b60e060020a634e487b7102600052604160045260246000fd5b600160a060020a03811681146127b857600080fd5b80151581146127b857600080fdfea26469706673582212202f0c8b75a0e797557b05f957c829e5cf86b6ded88b143b14660d0a49bcdb532c64736f6c63430008040033",
  "immutableReferences": {},
  "source": "// SPDX-License-Identifier: MIT\npragma solidity ^0.8.0;\n\nimport \"@openzeppelin/contracts/access/Ownable.sol\";\nimport \"@openzeppelin/contracts/utils/math/SafeMath.sol\";\nimport \"@openzeppelin/contracts/token/ERC20/IERC20.sol\";\nimport \"@openzeppelin/contracts/token/ERC20/utils/SafeERC20.sol\";\nimport \"@openzeppelin/contracts/token/ERC721/IERC721.sol\";\nimport \"@openzeppelin/contracts/token/ERC721/IERC721Receiver.sol\";\n\nimport \"./interfaces/ILinkAccessor.sol\";\nimport \"./interfaces/IUniswapV2Router02.sol\";\n\n// This contract is owned by Timelock.\ncontract MysteryBox is Ownable, IERC721Receiver {\n\n    using SafeERC20 for IERC20;\n    using SafeMath for uint256;\n\n    event CreateCollection(address _who, uint256 _collectionId);\n    event PublishCollection(address _who, uint256 _collectionId);\n    event UnpublishCollection(address _who, uint256 _collectionId);\n    event NFTDeposit(address _who, address _tokenAddress, uint256 _tokenId);\n    event NFTWithdraw(address _who, address _tokenAddress, uint256 _tokenId);\n    event NFTClaim(address _who, address _tokenAddress, uint256 _tokenId);\n\n    IERC20 public wETH;\n    IERC20 public baseToken;\n    IERC20 public blesToken;\n    IERC20 public linkToken;\n\n    uint256 public linkCost = 1e17;  // 0.1 LINK\n    ILinkAccessor public linkAccessor;\n\n    bool public canDrawMultiple = true;\n\n    // Platform fee.\n    uint256 constant FEE_BASE = 10000;\n    uint256 public feeRate = 500;  // 5%\n\n    address public feeTo;\n\n    // Collection creating fee.\n    uint256 public creatingFee = 0;  // By default, 0\n\n    IUniswapV2Router02 public router;\n\n    uint256 public nextNFTId;\n    uint256 public nextCollectionId;\n\n    struct NFT {\n        address tokenAddress;\n        uint256 tokenId;\n        address owner;\n        uint256 price;\n        uint256 paid;\n        uint256 collectionId;\n        uint256 indexInCollection;\n    }\n\n    // nftId => NFT\n    mapping(uint256 => NFT) public allNFTs;\n\n    // owner => nftId[]\n    mapping(address => uint256[]) public nftsByOwner;\n\n    // tokenAddress => tokenId => nftId\n    mapping(address => mapping(uint256 => uint256)) public nftIdMap;\n\n    struct Collection {\n        address owner;\n        string name;\n        uint256 size;\n        uint256 commissionRate;  // for curator (owner)\n        bool willAcceptBLES;\n\n        // The following are runtime variables before publish\n        uint256 totalPrice;\n        uint256 averagePrice;\n        uint256 fee;\n        uint256 commission;\n\n        // The following are runtime variables after publish\n        uint256 publishedAt;  // time that published.\n        uint256 timesToCall;\n        uint256 soldCount;\n    }\n\n    // collectionId => Collection\n    mapping(uint256 => Collection) public allCollections;\n\n    // owner => collectionId[]\n    mapping(address => uint256[]) public collectionsByOwner;\n\n    // collectionId => who => true/false\n    mapping(uint256 => mapping(address => bool)) public isCollaborator;\n\n    // collectionId => collaborators\n    mapping(uint256 => address[]) public collaborators;\n\n    // collectionId => nftId[]\n    mapping(uint256 => uint256[]) public nftsByCollectionId;\n\n    struct RequestInfo {\n        uint256 collectionId;\n    }\n\n    mapping(bytes32 => RequestInfo) public requestInfoMap;\n\n    struct Slot {\n        address owner;\n        uint256 size;\n    }\n\n    // collectionId => Slot[]\n    mapping(uint256 => Slot[]) public slotMap;\n\n    // collectionId => r[]\n    mapping(uint256 => uint256[]) public nftMapping;\n\n    uint256 public nftPriceFloor = 1e18;  // 1 USDC\n    uint256 public nftPriceCeil = 1e24;  // 1M USDC\n    uint256 public minimumCollectionSize = 3;  // 3 blind boxes\n    uint256 public maximumDuration = 14 days;  // Refund if not sold out in 14 days.\n\n    // constructor() public { }\n\n    function onERC721Received(address, address, uint256, bytes memory) public virtual override returns (bytes4) {\n        return this.onERC721Received.selector;\n    }\n\n    function setWETH(IERC20 wETH_) external onlyOwner {\n        wETH = wETH_;\n    }\n\n    function setLinkToken(IERC20 linkToken_) external onlyOwner {\n        linkToken = linkToken_;\n    }\n\n    function setBaseToken(IERC20 baseToken_) external onlyOwner {\n        baseToken = baseToken_;\n    }\n\n    function setBlesToken(IERC20 blesToken_) external onlyOwner {\n        blesToken = blesToken_;\n    }\n\n    function setLinkAccessor(ILinkAccessor linkAccessor_) external onlyOwner {\n        linkAccessor = linkAccessor_;\n    }\n\n    function setLinkCost(uint256 linkCost_) external onlyOwner {\n        linkCost = linkCost_;\n    }\n\n    function setCanDrawMultiple(bool value_) external onlyOwner {\n        canDrawMultiple = value_;\n    }\n\n    function setFeeRate(uint256 feeRate_) external onlyOwner {\n        feeRate = feeRate_;\n    }\n\n    function setFeeTo(address feeTo_) external onlyOwner {\n        feeTo = feeTo_;\n    }\n\n    function setCreatingFee(uint256 creatingFee_) external onlyOwner {\n        creatingFee = creatingFee_;\n    }\n\n    function setUniswapV2Router(IUniswapV2Router02 router_) external onlyOwner {\n        router = router_;\n    }\n\n    function setNFTPriceFloor(uint256 value_) external onlyOwner {\n        require(value_ < nftPriceCeil, \"should be higher than floor\");\n        nftPriceFloor = value_;\n    }\n\n    function setNFTPriceCeil(uint256 value_) external onlyOwner {\n        require(value_ > nftPriceFloor, \"should be higher than floor\");\n        nftPriceCeil = value_;\n    }\n\n    function setMinimumCollectionSize(uint256 size_) external onlyOwner {\n        minimumCollectionSize = size_;\n    }\n\n    function setMaximumDuration(uint256 maximumDuration_) external onlyOwner {\n        maximumDuration = maximumDuration_;\n    }\n\n    function _generateNextNFTId() private returns(uint256) {\n        return ++nextNFTId;\n    }\n\n    function _generateNextCollectionId() private returns(uint256) {\n        return ++nextCollectionId;\n    }\n\n    function _depositNFT(address tokenAddress_, uint256 tokenId_) private returns(uint256) {\n        IERC721(tokenAddress_).safeTransferFrom(_msgSender(), address(this), tokenId_);\n\n        NFT memory nft;\n        nft.tokenAddress = tokenAddress_;\n        nft.tokenId = tokenId_;\n        nft.owner = _msgSender();\n        nft.collectionId = 0;\n        nft.indexInCollection = 0;\n\n        uint256 nftId;\n\n        if (nftIdMap[tokenAddress_][tokenId_] > 0) {\n            nftId = nftIdMap[tokenAddress_][tokenId_];\n        } else {\n            nftId = _generateNextNFTId();\n            nftIdMap[tokenAddress_][tokenId_] = nftId;\n        }\n\n        allNFTs[nftId] = nft;\n        nftsByOwner[_msgSender()].push(nftId);\n\n        emit NFTDeposit(_msgSender(), tokenAddress_, tokenId_);\n        return nftId;\n    }\n\n    function _withdrawNFT(address who_, uint256 nftId_, bool isClaim_) private {\n        allNFTs[nftId_].owner = address(0);\n        allNFTs[nftId_].collectionId = 0;\n\n        address tokenAddress = allNFTs[nftId_].tokenAddress;\n        uint256 tokenId = allNFTs[nftId_].tokenId;\n\n        IERC721(tokenAddress).safeTransferFrom(address(this), who_, tokenId);\n\n        if (isClaim_) {\n            emit NFTClaim(who_, tokenAddress, tokenId);\n        } else {\n            emit NFTWithdraw(who_, tokenAddress, tokenId);\n        }\n    }\n\n    function claimNFT(uint256 collectionId_, uint256 index_) external {\n        Collection storage collection = allCollections[collectionId_];\n\n        require(collection.soldCount == collection.size, \"Not finished\");\n\n        address winner = getWinner(collectionId_, index_);\n\n        require(winner == _msgSender(), \"Only winner can claim\");\n\n        uint256 nftId = nftsByCollectionId[collectionId_][index_];\n\n        require(allNFTs[nftId].collectionId == collectionId_, \"Already claimed\");\n\n        if (allNFTs[nftId].paid == 0) {\n            if (collection.willAcceptBLES) {\n                allNFTs[nftId].paid = allNFTs[nftId].price.mul(\n                    FEE_BASE.sub(collection.commissionRate)).div(FEE_BASE);\n                IERC20(blesToken).safeTransfer(allNFTs[nftId].owner, allNFTs[nftId].paid);\n            } else {\n                allNFTs[nftId].paid = allNFTs[nftId].price.mul(\n                    FEE_BASE.sub(feeRate).sub(collection.commissionRate)).div(FEE_BASE);\n                IERC20(baseToken).safeTransfer(allNFTs[nftId].owner, allNFTs[nftId].paid);\n            }\n        }\n\n        _withdrawNFT(_msgSender(), nftId, true);\n    }\n\n    function claimRevenue(uint256 collectionId_, uint256 index_) external {\n        Collection storage collection = allCollections[collectionId_];\n\n        require(collection.soldCount == collection.size, \"Not finished\");\n\n        uint256 nftId = nftsByCollectionId[collectionId_][index_];\n\n        require(allNFTs[nftId].owner == _msgSender() && allNFTs[nftId].collectionId > 0, \"NFT not claimed\");\n\n        if (allNFTs[nftId].paid == 0) {\n            if (collection.willAcceptBLES) {\n                allNFTs[nftId].paid = allNFTs[nftId].price.mul(\n                    FEE_BASE.sub(collection.commissionRate)).div(FEE_BASE);\n                IERC20(blesToken).safeTransfer(allNFTs[nftId].owner, allNFTs[nftId].paid);\n            } else {\n                allNFTs[nftId].paid = allNFTs[nftId].price.mul(\n                    FEE_BASE.sub(feeRate).sub(collection.commissionRate)).div(FEE_BASE);\n                IERC20(baseToken).safeTransfer(allNFTs[nftId].owner, allNFTs[nftId].paid);\n            }\n        }\n    }\n\n    function claimCommission(uint256 collectionId_) external {\n        Collection storage collection = allCollections[collectionId_];\n\n        require(_msgSender() == collection.owner, \"Only curator can claim\");\n        require(collection.soldCount == collection.size, \"Not finished\");\n\n        if (collection.willAcceptBLES) {\n            IERC20(blesToken).safeTransfer(collection.owner, collection.commission);\n        } else {\n            IERC20(baseToken).safeTransfer(collection.owner, collection.commission);\n        }\n\n        // Mark it claimed.\n        collection.commission = 0;\n    }\n\n    function claimFee(uint256 collectionId_) external {\n        require(feeTo != address(0), \"Please set feeTo first\");\n\n        Collection storage collection = allCollections[collectionId_];\n\n        require(collection.soldCount == collection.size, \"Not finished\");\n        require(!collection.willAcceptBLES, \"No fee if the curator accepts BLES\");\n\n        IERC20(baseToken).safeTransfer(feeTo, collection.fee);\n\n        // Mark it claimed.\n        collection.fee = 0;\n    }\n\n    function createCollection(\n        string calldata name_,\n        uint256 size_,\n        uint256 commissionRate_,\n        bool willAcceptBLES_,\n        address[] calldata collaborators_\n    ) external {\n        require(size_ >= minimumCollectionSize, \"Size too small\");\n        require(commissionRate_.add(feeRate) < FEE_BASE, \"Too much commission\");\n\n        if (creatingFee > 0) {\n            // Charges BLES for creating the collection.\n            IERC20(blesToken).safeTransfer(feeTo, creatingFee);\n        }\n\n        Collection memory collection;\n        collection.owner = _msgSender();\n        collection.name = name_;\n        collection.size = size_;\n        collection.commissionRate = commissionRate_;\n        collection.totalPrice = 0;\n        collection.averagePrice = 0;\n        collection.willAcceptBLES = willAcceptBLES_;\n        collection.publishedAt = 0;\n\n        uint256 collectionId = _generateNextCollectionId();\n\n        allCollections[collectionId] = collection;\n        collectionsByOwner[_msgSender()].push(collectionId);\n        collaborators[collectionId] = collaborators_;\n\n        for (uint256 i = 0; i < collaborators_.length; ++i) {\n            isCollaborator[collectionId][collaborators_[i]] = true;\n        }\n\n        emit CreateCollection(_msgSender(), collectionId);\n    }\n\n    function changeCollaborators(uint256 collectionId_, address[] calldata collaborators_) external {\n        Collection storage collection = allCollections[collectionId_];\n\n        require(collection.owner == _msgSender(), \"Needs collection owner\");\n        require(!isPublished(collectionId_), \"Collection already published\");\n\n        uint256 i;\n\n        for (i = 0; i < collaborators_.length; ++i) {\n            isCollaborator[collectionId_][collaborators_[i]] = true;\n        }\n\n        for (i = 0; i < collaborators[collectionId_].length; ++i) {\n            uint256 j;\n            for (j = 0; j < collaborators_.length; ++j) {\n                if (collaborators[collectionId_][i] == collaborators_[j]) {\n                    break;\n                }\n            }\n\n            // If not found.\n            if (j == collaborators_.length) {\n                isCollaborator[collectionId_][collaborators[collectionId_][i]] = false;\n            }\n        }\n\n        collaborators[collectionId_] = collaborators_;\n    }\n\n    function isPublished(uint256 collectionId_) public view returns(bool) {\n        return allCollections[collectionId_].publishedAt > 0;\n    }\n\n    function _addNFTToCollection(uint256 nftId_, uint256 collectionId_, uint256 price_) private {\n        Collection storage collection = allCollections[collectionId_];\n\n        require(allNFTs[nftId_].owner == _msgSender(), \"Only NFT owner can add\");\n        require(collection.owner == _msgSender() ||\n                isCollaborator[collectionId_][_msgSender()], \"Needs collection owner or collaborator\");\n\n        require(price_ >= nftPriceFloor && price_ <= nftPriceCeil, \"Price not in range\");\n\n        require(allNFTs[nftId_].collectionId == 0, \"Already added\");\n        require(!isPublished(collectionId_), \"Collection already published\");\n        require(nftsByCollectionId[collectionId_].length < collection.size,\n                \"collection full\");\n\n        allNFTs[nftId_].price = price_;\n        allNFTs[nftId_].collectionId = collectionId_;\n        allNFTs[nftId_].indexInCollection = nftsByCollectionId[collectionId_].length;\n\n        // Push to nftsByCollectionId.\n        nftsByCollectionId[collectionId_].push(nftId_);\n\n        collection.totalPrice = collection.totalPrice.add(price_);\n\n        if (!collection.willAcceptBLES) {\n            collection.fee = collection.fee.add(price_.mul(feeRate).div(FEE_BASE));\n        }\n\n        collection.commission = collection.commission.add(price_.mul(collection.commissionRate).div(FEE_BASE));\n    }\n\n    function addNFTToCollection(address tokenAddress_, uint256 tokenId_, uint256 collectionId_, uint256 price_) external {\n        uint256 nftId = _depositNFT(tokenAddress_, tokenId_);\n        _addNFTToCollection(nftId, collectionId_, price_);\n    }\n\n    function editNFTInCollection(uint256 nftId_, uint256 collectionId_, uint256 price_) external {\n        Collection storage collection = allCollections[collectionId_];\n\n        require(collection.owner == _msgSender() ||\n                allNFTs[nftId_].owner == _msgSender(), \"Needs collection owner or NFT owner\");\n\n        require(price_ >= nftPriceFloor && price_ <= nftPriceCeil, \"Price not in range\");\n\n        require(allNFTs[nftId_].collectionId == collectionId_, \"NFT not in collection\");\n        require(!isPublished(collectionId_), \"Collection already published\");\n\n        collection.totalPrice = collection.totalPrice.add(price_).sub(allNFTs[nftId_].price);\n\n        if (!collection.willAcceptBLES) {\n            collection.fee = collection.fee.add(\n                price_.mul(feeRate).div(FEE_BASE)).sub(\n                    allNFTs[nftId_].price.mul(feeRate).div(FEE_BASE));\n        }\n\n        collection.commission = collection.commission.add(\n            price_.mul(collection.commissionRate).div(FEE_BASE)).sub(\n                allNFTs[nftId_].price.mul(collection.commissionRate).div(FEE_BASE));\n\n        allNFTs[nftId_].price = price_;  // Change price.\n    }\n\n    function _removeNFTFromCollection(uint256 nftId_, uint256 collectionId_) private {\n        Collection storage collection = allCollections[collectionId_];\n\n        require(allNFTs[nftId_].owner == _msgSender() ||\n                collection.owner == _msgSender(),\n                \"Only NFT owner or collection owner can remove\");\n        require(allNFTs[nftId_].collectionId == collectionId_, \"NFT not in collection\");\n        require(!isPublished(collectionId_), \"Collection already published\");\n\n        collection.totalPrice = collection.totalPrice.sub(allNFTs[nftId_].price);\n\n        if (!collection.willAcceptBLES) {\n            collection.fee = collection.fee.sub(\n                allNFTs[nftId_].price.mul(feeRate).div(FEE_BASE));\n        }\n\n        collection.commission = collection.commission.sub(\n            allNFTs[nftId_].price.mul(collection.commissionRate).div(FEE_BASE));\n\n\n        allNFTs[nftId_].collectionId = 0;\n\n        // Removes from nftsByCollectionId\n        uint256 index = allNFTs[nftId_].indexInCollection;\n        uint256 lastNFTId = nftsByCollectionId[collectionId_][nftsByCollectionId[collectionId_].length - 1];\n\n        nftsByCollectionId[collectionId_][index] = lastNFTId;\n        allNFTs[lastNFTId].indexInCollection = index;\n        nftsByCollectionId[collectionId_].pop();\n    }\n\n    function removeNFTFromCollection(uint256 nftId_, uint256 collectionId_) external {\n        address nftOwner = allNFTs[nftId_].owner;\n        _removeNFTFromCollection(nftId_, collectionId_);\n        _withdrawNFT(nftOwner, nftId_, false);\n    }\n\n    function randomnessCount(uint256 size_) public pure returns(uint256){\n        uint256 i;\n        for (i = 0; size_** i <= type(uint256).max / size_; i++) {}\n        return i;\n    }\n\n    function publishCollection(uint256 collectionId_, address[] calldata path, uint256 amountInMax_, uint256 deadline_) external {\n        Collection storage collection = allCollections[collectionId_];\n\n        require(collection.owner == _msgSender(), \"Only owner can publish\");\n\n        uint256 actualSize = nftsByCollectionId[collectionId_].length;\n        require(actualSize >= minimumCollectionSize, \"Not enough boxes\");\n\n        collection.size = actualSize;  // Fit the size.\n\n        // Math.ceil(totalPrice / actualSize);\n        collection.averagePrice = collection.totalPrice.add(actualSize.sub(1)).div(actualSize);\n        collection.publishedAt = block.timestamp;\n\n        // Now buy LINK. Here is some math for calculating the time of calls needed from ChainLink.\n        uint256 count = randomnessCount(actualSize);\n        uint256 times = actualSize.add(count).sub(1).div(count);  // Math.ceil\n\n        if (linkCost > 0 && address(linkAccessor) != address(0)) {\n            buyLink(times, path, amountInMax_, deadline_);\n        }\n\n        collection.timesToCall = times;\n\n        emit PublishCollection(_msgSender(), collectionId_);\n    }\n\n    function unpublishCollection(uint256 collectionId_) external {\n        // Anyone can call if the collection expires and not sold out.\n        // Owner can unpublish a collection if nothing is sold out.\n\n        Collection storage collection = allCollections[collectionId_];\n\n        if (_msgSender() != collection.owner || collection.soldCount > 0) {\n            require(block.timestamp > collection.publishedAt + maximumDuration, \"Not expired yet\");\n            require(collection.soldCount < collection.size, \"Sold out\");\n        }\n\n        collection.publishedAt = 0;\n        collection.soldCount = 0;\n\n        // Now refund to the buyers.\n        uint256 length = slotMap[collectionId_].length;\n        for (uint256 i = 0; i < length; ++i) {\n            Slot memory slot = slotMap[collectionId_][length.sub(i + 1)];\n            slotMap[collectionId_].pop();\n\n            if (collection.willAcceptBLES) {\n                IERC20(blesToken).transfer(slot.owner, collection.averagePrice.mul(slot.size));\n            } else {\n                IERC20(baseToken).transfer(slot.owner, collection.averagePrice.mul(slot.size));\n            }\n        }\n\n        emit UnpublishCollection(_msgSender(), collectionId_);\n    }\n\n    function buyLink(uint256 times_, address[] calldata path, uint256 amountInMax_, uint256 deadline_) internal virtual {\n        require(path[path.length.sub(1)] == address(linkToken), \"Last token must be LINK\");\n\n        uint256 amountToBuy = linkCost.mul(times_);\n\n        if (path.length == 1) {\n            // Pay with LINK.\n            linkToken.transferFrom(_msgSender(), address(linkAccessor), amountToBuy);\n        } else {\n            if (IERC20(path[0]).allowance(address(this), address(router)) < amountInMax_) {\n                IERC20(path[0]).approve(address(router), amountInMax_);\n            }\n\n            uint256[] memory amounts = router.getAmountsIn(amountToBuy, path);\n            IERC20(path[0]).transferFrom(_msgSender(), address(this), amounts[0]);\n\n            // Pay with other token.\n            router.swapTokensForExactTokens(\n                amountToBuy,\n                amountInMax_,\n                path,\n                address(linkAccessor),\n                deadline_);\n        }\n    }\n\n    function drawBoxes(uint256 collectionId_, uint256 times_) external {\n        if (!canDrawMultiple) {\n            require(times_ == 1, \"Can draw only 1\");\n        }\n\n        Collection storage collection = allCollections[collectionId_];\n\n        require(collection.soldCount.add(times_) <= collection.size, \"Not enough left\");\n\n        uint256 cost = collection.averagePrice.mul(times_);\n\n        if (collection.willAcceptBLES) {\n            IERC20(blesToken).safeTransferFrom(_msgSender(), address(this), cost);\n        } else {\n            IERC20(baseToken).safeTransferFrom(_msgSender(), address(this), cost);\n        }\n\n        Slot memory slot;\n        slot.owner = _msgSender();\n        slot.size = times_;\n        slotMap[collectionId_].push(slot);\n\n        collection.soldCount = collection.soldCount.add(times_);\n\n        uint256 startFromIndex = collection.size.sub(collection.timesToCall);\n        for (uint256 i = startFromIndex;\n                 i < collection.soldCount;\n                 ++i) {\n            requestRandomNumber(collectionId_, i.sub(startFromIndex));\n        }\n    }\n\n    function getWinner(uint256 collectionId_, uint256 nftIndex_) public view returns(address) {\n        Collection storage collection = allCollections[collectionId_];\n\n        if (collection.soldCount < collection.size) {\n            // Not sold all yet.\n            return address(0);\n        }\n\n        uint256 size = collection.size;\n        uint256 count = randomnessCount(size);\n\n        uint256 lastRandomnessIndex = nftMapping[collectionId_].length.sub(1);\n        uint256 lastR = nftMapping[collectionId_][lastRandomnessIndex];\n\n        // Use lastR as an offset for rotating the sequence, to make sure that\n        // we need to wait for all boxes being sold.\n        nftIndex_ = nftIndex_.add(lastR).mod(size);\n\n        uint256 randomnessIndex = nftIndex_.div(count);\n        randomnessIndex = randomnessIndex.add(lastR).mod(lastRandomnessIndex + 1);\n\n        uint256 r = nftMapping[collectionId_][randomnessIndex];\n\n        uint256 i;\n\n        for (i = 0; i < nftIndex_.mod(count); ++i) {\n          r /= size;\n        }\n\n        r %= size;\n\n        // Iterate through all slots.\n        for (i = 0; i < slotMap[collectionId_].length; ++i) {\n            if (r >= slotMap[collectionId_][i].size) {\n                r -= slotMap[collectionId_][i].size;\n            } else {\n                return slotMap[collectionId_][i].owner;\n            }\n        }\n\n        require(false, \"r overflow\");\n    }\n\n    function psuedoRandomness() public view returns(uint256) {\n        return uint256(keccak256(abi.encodePacked(\n            block.timestamp + block.difficulty +\n            ((uint256(keccak256(abi.encodePacked(block.coinbase)))) / (block.timestamp)) +\n            block.gaslimit + \n            ((uint256(keccak256(abi.encodePacked(_msgSender())))) / (block.timestamp)) +\n            block.number\n        )));\n    }\n\n    function requestRandomNumber(uint256 collectionId_, uint256 index_) private {\n        if (address(linkAccessor) != address(0)) {\n            bytes32 requestId = linkAccessor.requestRandomness(index_);\n            requestInfoMap[requestId].collectionId = collectionId_;\n        } else {\n            // Uses psuedo random number instead, and doesn't involve request / callback.\n            useRandomness(collectionId_, psuedoRandomness());\n        }\n    }\n\n    /**\n     * Callback function used by VRF Coordinator\n     */\n    function fulfillRandomness(bytes32 requestId, uint256 randomness) public {\n        require(_msgSender() == address(linkAccessor), \"Only linkAccessor can call\");\n\n        uint256 collectionId = requestInfoMap[requestId].collectionId;\n        useRandomness(collectionId, randomness);\n    }\n\n    function useRandomness(\n        uint256 collectionId_,\n        uint256 randomness_\n    ) private {\n        uint256 size = allCollections[collectionId_].size;\n        bool[] memory filled = new bool[](size);\n\n        uint256 r;\n        uint256 i;\n        uint256 j;\n        uint256 count = randomnessCount(size);\n\n        for (i = 0; i < nftMapping[collectionId_].length; ++i) {\n            r = nftMapping[collectionId_][i];\n            for (j = 0; j < count; ++j) {\n                filled[r.mod(size)] = true;\n                r = r.div(size);\n            }\n        }\n\n        r = 0;\n\n        uint256 t;\n        uint256 remaining = size.sub(count.mul(nftMapping[collectionId_].length));\n\n        for (i = 0; i < count; ++i) {\n            if (remaining == 0) {\n                break;\n            }\n\n            t = randomness_.mod(remaining);\n            randomness_ = randomness_.div(remaining);\n\n            t = t.add(1);\n\n            // Skips filled mappings.\n            for (j = 0; j < size; ++j) {\n                if (!filled[j]) {\n                    t = t.sub(1);\n                }\n\n                if (t == 0) {\n                  break;\n                }\n            }\n\n            filled[j] = true;\n            r = r.mul(size).add(j);\n            remaining = remaining.sub(1);\n        }\n\n        nftMapping[collectionId_].push(r);\n    }\n}\n",
  "sourcePath": "/Users/yxf/app/uniarts-eth-dao/contracts/core/MysteryBox.sol",
  "compiler": {
    "name": "solc",
    "version": "0.8.4+commit.c7e474f2.Emscripten.clang"
  },
  "schemaVersion": "3.2.3",
  "updatedAt": "2021-09-17T03:00:12.701Z",
  "devdoc": {
    "kind": "dev",
    "methods": {
      "owner()": {
        "details": "Returns the address of the current owner."
      },
      "renounceOwnership()": {
        "details": "Leaves the contract without owner. It will not be possible to call `onlyOwner` functions anymore. Can only be called by the current owner. NOTE: Renouncing ownership will leave the contract without an owner, thereby removing any functionality that is only available to the owner."
      },
      "transferOwnership(address)": {
        "details": "Transfers ownership of the contract to a new account (`newOwner`). Can only be called by the current owner."
      }
    },
    "version": 1
  },
  "userdoc": {
    "kind": "user",
    "methods": {
      "fulfillRandomness(bytes32,uint256)": {
        "notice": "Callback function used by VRF Coordinator"
      }
    },
    "version": 1
  }
}