{
  "contractName": "Pin",
  "abi": [
    {
      "inputs": [
        {
          "internalType": "address",
          "name": "_voteMiningV1",
          "type": "address"
        },
        {
          "internalType": "address",
          "name": "_voteMiningV2",
          "type": "address"
        }
      ],
      "stateMutability": "nonpayable",
      "type": "constructor"
    },
    {
      "anonymous": false,
      "inputs": [
        {
          "indexed": true,
          "internalType": "address",
          "name": "previousOwner",
          "type": "address"
        },
        {
          "indexed": true,
          "internalType": "address",
          "name": "newOwner",
          "type": "address"
        }
      ],
      "name": "OwnershipTransferred",
      "type": "event"
    },
    {
      "anonymous": false,
      "inputs": [
        {
          "indexed": true,
          "internalType": "address",
          "name": "user",
          "type": "address"
        },
        {
          "indexed": false,
          "internalType": "address",
          "name": "nftAddress",
          "type": "address"
        },
        {
          "indexed": false,
          "internalType": "uint256",
          "name": "nftId",
          "type": "uint256"
        }
      ],
      "name": "Pinned",
      "type": "event"
    },
    {
      "inputs": [
        {
          "internalType": "address",
          "name": "",
          "type": "address"
        }
      ],
      "name": "balanceOf",
      "outputs": [
        {
          "internalType": "uint256",
          "name": "",
          "type": "uint256"
        }
      ],
      "stateMutability": "view",
      "type": "function"
    },
    {
      "inputs": [],
      "name": "owner",
      "outputs": [
        {
          "internalType": "address",
          "name": "",
          "type": "address"
        }
      ],
      "stateMutability": "view",
      "type": "function"
    },
    {
      "inputs": [
        {
          "internalType": "address",
          "name": "",
          "type": "address"
        },
        {
          "internalType": "uint256",
          "name": "",
          "type": "uint256"
        }
      ],
      "name": "ownerOf",
      "outputs": [
        {
          "internalType": "address",
          "name": "",
          "type": "address"
        }
      ],
      "stateMutability": "view",
      "type": "function"
    },
    {
      "inputs": [],
      "name": "renounceOwnership",
      "outputs": [],
      "stateMutability": "nonpayable",
      "type": "function"
    },
    {
      "inputs": [
        {
          "internalType": "address",
          "name": "newOwner",
          "type": "address"
        }
      ],
      "name": "transferOwnership",
      "outputs": [],
      "stateMutability": "nonpayable",
      "type": "function"
    },
    {
      "inputs": [],
      "name": "voteMiningV1",
      "outputs": [
        {
          "internalType": "address",
          "name": "",
          "type": "address"
        }
      ],
      "stateMutability": "view",
      "type": "function"
    },
    {
      "inputs": [],
      "name": "voteMiningV2",
      "outputs": [
        {
          "internalType": "address",
          "name": "",
          "type": "address"
        }
      ],
      "stateMutability": "view",
      "type": "function"
    },
    {
      "inputs": [
        {
          "internalType": "address",
          "name": "_v2",
          "type": "address"
        }
      ],
      "name": "setV2",
      "outputs": [],
      "stateMutability": "nonpayable",
      "type": "function"
    },
    {
      "inputs": [
        {
          "internalType": "address",
          "name": "nftAddr",
          "type": "address"
        },
        {
          "internalType": "uint256",
          "name": "nftId",
          "type": "uint256"
        }
      ],
      "name": "pin",
      "outputs": [],
      "stateMutability": "nonpayable",
      "type": "function"
    },
    {
      "inputs": [
        {
          "internalType": "address",
          "name": "owner",
          "type": "address"
        },
        {
          "internalType": "uint256",
          "name": "index",
          "type": "uint256"
        }
      ],
      "name": "tokenOfOwnerByIndex",
      "outputs": [
        {
          "internalType": "address",
          "name": "",
          "type": "address"
        },
        {
          "internalType": "uint256",
          "name": "",
          "type": "uint256"
        }
      ],
      "stateMutability": "view",
      "type": "function"
    },
    {
      "inputs": [
        {
          "internalType": "address",
          "name": "nftAddr",
          "type": "address"
        },
        {
          "internalType": "uint256",
          "name": "nftId",
          "type": "uint256"
        },
        {
          "internalType": "address",
          "name": "to",
          "type": "address"
        }
      ],
      "name": "withdraw",
      "outputs": [],
      "stateMutability": "nonpayable",
      "type": "function"
    }
  ],
  "bytecode": "0x608060405234801561001057600080fd5b50604051610c2a380380610c2a83398101604081905261002f916100f2565b610051610043640100000000610082810204565b640100000000610086810204565b60018054600160a060020a03938416600160a060020a03199182161790915560028054929093169116179055610124565b3390565b60008054600160a060020a03838116600160a060020a0319831681178455604051919092169283917f8be0079c531659141344cd1fd0a4f28419497f9722a3daafe3b4186f6b6457e09190a35050565b8051600160a060020a03811681146100ed57600080fd5b919050565b60008060408385031215610104578182fd5b61010d836100d6565b915061011b602084016100d6565b90509250929050565b610af7806101336000396000f3fe608060405234801561001057600080fd5b50600436106100c6576000357c01000000000000000000000000000000000000000000000000000000009004806370a082311161008e57806370a0823114610189578063715018a6146101b7578063807349e1146101bf5780638da5cb5b146101d2578063924bfe96146101e3578063f2fde38b146101f657600080fd5b80630d87e251146100cb5780631f29d2dc146100e057806325c9e251146101315780632f745c591461014457806369328dec14610176575b600080fd5b6100de6100d93660046109d3565b610209565b005b6101146100ee3660046109d3565b6004602090815260009283526040808420909152908252902054600160a060020a031681565b604051600160a060020a0390911681526020015b60405180910390f35b6100de61013f3660046109b9565b61035e565b6101576101523660046109d3565b6103c3565b60408051600160a060020a039093168352602083019190915201610128565b6100de6101843660046109fc565b610506565b6101a96101973660046109b9565b60036020526000908152604090205481565b604051908152602001610128565b6100de6105b9565b60025461011490600160a060020a031681565b600054600160a060020a0316610114565b60015461011490600160a060020a031681565b6100de6102043660046109b9565b6105f2565b6001546040517f43af356b000000000000000000000000000000000000000000000000000000008152600160a060020a0384811660048301526024820184905260009216906343af356b9060440160206040518083038186803b15801561026f57600080fd5b505afa158015610283573d6000803e3d6000fd5b505050506040513d601f19601f820116820180604052508101906102a79190610a37565b6001546040517fc7c8895600000000000000000000000000000000000000000000000000000000815260048101839052919250600160a060020a03169063c7c889569060240160206040518083038186803b15801561030557600080fd5b505afa158015610319573d6000803e3d6000fd5b505050506040513d601f19601f8201168201806040525081019061033d9190610a37565b600114156103545761034f83836106aa565b505050565b61034f83836108d5565b600054600160a060020a031633146103945760405160e560020a62461bcd02815260040161038b90610a4f565b60405180910390fd5b6002805473ffffffffffffffffffffffffffffffffffffffff1916600160a060020a0392909216919091179055565b600160a060020a0382166000908152600360205260408120548190831061042f5760405160e560020a62461bcd02815260206004820152601e60248201527f50696e3a206f776e657220696e646578206f7574206f6620626f756e64730000604482015260640161038b565b600160a060020a0384166000908152600560205260409020805484908110610480577f4e487b7100000000000000000000000000000000000000000000000000000000600052603260045260246000fd5b60009182526020808320600390920290910154600160a060020a038781168452600590925260409092208054919092169190859081106104e9577f4e487b7100000000000000000000000000000000000000000000000000000000600052603260045260246000fd5b906000526020600020906003020160010154915091509250929050565b600054600160a060020a031633146105335760405160e560020a62461bcd02815260040161038b90610a4f565b6040517f23b872dd000000000000000000000000000000000000000000000000000000008152306004820152600160a060020a038281166024830152604482018490528416906323b872dd90606401600060405180830381600087803b15801561059c57600080fd5b505af11580156105b0573d6000803e3d6000fd5b50505050505050565b600054600160a060020a031633146105e65760405160e560020a62461bcd02815260040161038b90610a4f565b6105f0600061092d565b565b600054600160a060020a0316331461061f5760405160e560020a62461bcd02815260040161038b90610a4f565b600160a060020a03811661069e5760405160e560020a62461bcd02815260206004820152602660248201527f4f776e61626c653a206e6577206f776e657220697320746865207a65726f206160448201527f6464726573730000000000000000000000000000000000000000000000000000606482015260840161038b565b6106a78161092d565b50565b6001546040517ff44e3ce1000000000000000000000000000000000000000000000000000000008152600160a060020a038481166004830152602482018490523360448301529091169063f44e3ce1906064015b600060405180830381600087803b15801561071857600080fd5b505af115801561072c573d6000803e3d6000fd5b50506040517f23b872dd00000000000000000000000000000000000000000000000000000000815233600482015230602482015260448101849052600160a060020a03851692506323b872dd9150606401600060405180830381600087803b15801561079757600080fd5b505af11580156107ab573d6000803e3d6000fd5b50503360008181526005602090815260408083208151606081018352600160a060020a038a811682528185018a815282850188815284546001818101875595895287892094516003918202909501805495851673ffffffffffffffffffffffffffffffffffffffff1996871617815592518387015590516002909201805492909316919093161790559484529390915290205461084a9350915061098a565b33600081815260036020908152604080832094909455600160a060020a03861680835260048252848320868452825291849020805473ffffffffffffffffffffffffffffffffffffffff1916841790558351918252810184905290917f257c075259387d60935ff627ad28177a941e04401acf9a9468f316a790eaa59f910160405180910390a25050565b6002546040517ff44e3ce1000000000000000000000000000000000000000000000000000000008152600160a060020a038481166004830152602482018490523360448301529091169063f44e3ce1906064016106fe565b60008054600160a060020a0383811673ffffffffffffffffffffffffffffffffffffffff19831681178455604051919092169283917f8be0079c531659141344cd1fd0a4f28419497f9722a3daafe3b4186f6b6457e09190a35050565b60006109968284610a84565b9392505050565b8035600160a060020a03811681146109b457600080fd5b919050565b6000602082840312156109ca578081fd5b6109968261099d565b600080604083850312156109e5578081fd5b6109ee8361099d565b946020939093013593505050565b600080600060608486031215610a10578081fd5b610a198461099d565b925060208401359150610a2e6040850161099d565b90509250925092565b600060208284031215610a48578081fd5b5051919050565b6020808252818101527f4f776e61626c653a2063616c6c6572206973206e6f7420746865206f776e6572604082015260600190565b60008219821115610abc577f4e487b710000000000000000000000000000000000000000000000000000000081526011600452602481fd5b50019056fea264697066735822122003593aa06ade3bbe5b6da3f8d081468d5f2107f984ac6505ac4c6530a52b344e64736f6c63430008040033",
  "immutableReferences": {},
  "source": "// SPDX-License-Identifier: MIT\npragma solidity ^0.8.0;\nimport \"@openzeppelin/contracts/access/Ownable.sol\";\nimport \"@openzeppelin/contracts/utils/math/SafeMath.sol\";\nimport \"@openzeppelin/contracts/token/ERC20/IERC20.sol\";\nimport \"@openzeppelin/contracts/token/ERC721/IERC721.sol\";\n\ninterface IVoteMining {\n  function claimMintRewards(address nftAddr, uint nftId, address to) external;\n  function nfts(address nftAddr, uint nftId) external view returns(uint);\n  function nftGroup(uint uid) external view returns(uint);\n}\ncontract Pin is Ownable {\n  using SafeMath for uint256;\n\n  address public voteMiningV1;\n  address public voteMiningV2;\n\n  mapping(address => uint256) public balanceOf;\n  mapping(address => mapping(uint256 => address)) public ownerOf;\n\n  struct NFT {\n    address addr;\n    uint id;\n    address owner;\n  }\n\n  mapping (address => NFT[]) private _ownedTokens;\n  \n\n  event Pinned(address indexed user, address nftAddress, uint nftId);\n\n  constructor(address _voteMiningV1, address _voteMiningV2) {\n    voteMiningV1 = _voteMiningV1;\n    voteMiningV2 = _voteMiningV2;\n  }\n\n  function setV2(address _v2) external onlyOwner {\n    voteMiningV2 = _v2;\n  }\n\n  function pin(address nftAddr, uint nftId) external {\n    uint uid = IVoteMining(voteMiningV1).nfts(nftAddr, nftId);\n    if(IVoteMining(voteMiningV1).nftGroup(uid) == 1) {\n      pinV1(nftAddr, nftId);\n    } else {\n      pinV2(nftAddr, nftId);\n    }\n  }\n\n  function pinV1(address nftAddr, uint nftId) internal {\n    IVoteMining(voteMiningV1).claimMintRewards(nftAddr, nftId, msg.sender);\n\n    IERC721(nftAddr).transferFrom(msg.sender, address(this), nftId);\n    _ownedTokens[msg.sender].push(NFT({\n      addr: nftAddr,\n      id: nftId,\n      owner: msg.sender\n    }));\n    balanceOf[msg.sender] = balanceOf[msg.sender].add(1);\n    ownerOf[nftAddr][nftId] = msg.sender;\n\n    emit Pinned(msg.sender, nftAddr, nftId);\n  }\n\n  function pinV2(address nftAddr, uint nftId) internal {\n    IVoteMining(voteMiningV2).claimMintRewards(nftAddr, nftId, msg.sender);\n\n    IERC721(nftAddr).transferFrom(msg.sender, address(this), nftId);\n    _ownedTokens[msg.sender].push(NFT({\n      addr: nftAddr,\n      id: nftId,\n      owner: msg.sender\n    }));\n    balanceOf[msg.sender] = balanceOf[msg.sender].add(1);\n    ownerOf[nftAddr][nftId] = msg.sender;\n\n    emit Pinned(msg.sender, nftAddr, nftId);\n  }\n\n  function tokenOfOwnerByIndex(address owner, uint index) public view returns(address, uint) {\n    require(index < balanceOf[owner], \"Pin: owner index out of bounds\");\n    return (_ownedTokens[owner][index].addr, _ownedTokens[owner][index].id);\n  }\n\n  function withdraw(address nftAddr, uint nftId, address to) external onlyOwner {\n    IERC721(nftAddr).transferFrom(address(this), to, nftId);\n  }\n}",
  "sourcePath": "/Users/yxf/app/uniarts-eth-dao/contracts/Pin.sol",
  "compiler": {
    "name": "solc",
    "version": "0.8.4+commit.c7e474f2.Emscripten.clang"
  },
  "schemaVersion": "3.2.3",
  "updatedAt": "2021-11-08T08:48:49.839Z",
  "devdoc": {
    "kind": "dev",
    "methods": {
      "owner()": {
        "details": "Returns the address of the current owner."
      },
      "renounceOwnership()": {
        "details": "Leaves the contract without owner. It will not be possible to call `onlyOwner` functions anymore. Can only be called by the current owner. NOTE: Renouncing ownership will leave the contract without an owner, thereby removing any functionality that is only available to the owner."
      },
      "transferOwnership(address)": {
        "details": "Transfers ownership of the contract to a new account (`newOwner`). Can only be called by the current owner."
      }
    },
    "version": 1
  },
  "userdoc": {
    "kind": "user",
    "methods": {},
    "version": 1
  }
}