{
  "contractName": "Pin",
  "abi": [
    {
      "inputs": [
        {
          "internalType": "address",
          "name": "_voteMining",
          "type": "address"
        }
      ],
      "stateMutability": "nonpayable",
      "type": "constructor"
    },
    {
      "anonymous": false,
      "inputs": [
        {
          "indexed": true,
          "internalType": "address",
          "name": "previousOwner",
          "type": "address"
        },
        {
          "indexed": true,
          "internalType": "address",
          "name": "newOwner",
          "type": "address"
        }
      ],
      "name": "OwnershipTransferred",
      "type": "event"
    },
    {
      "anonymous": false,
      "inputs": [
        {
          "indexed": true,
          "internalType": "address",
          "name": "user",
          "type": "address"
        },
        {
          "indexed": false,
          "internalType": "address",
          "name": "nftAddress",
          "type": "address"
        },
        {
          "indexed": false,
          "internalType": "uint256",
          "name": "nftId",
          "type": "uint256"
        }
      ],
      "name": "Pinned",
      "type": "event"
    },
    {
      "inputs": [
        {
          "internalType": "address",
          "name": "",
          "type": "address"
        }
      ],
      "name": "balanceOf",
      "outputs": [
        {
          "internalType": "uint256",
          "name": "",
          "type": "uint256"
        }
      ],
      "stateMutability": "view",
      "type": "function"
    },
    {
      "inputs": [],
      "name": "owner",
      "outputs": [
        {
          "internalType": "address",
          "name": "",
          "type": "address"
        }
      ],
      "stateMutability": "view",
      "type": "function"
    },
    {
      "inputs": [
        {
          "internalType": "address",
          "name": "",
          "type": "address"
        },
        {
          "internalType": "uint256",
          "name": "",
          "type": "uint256"
        }
      ],
      "name": "ownerOf",
      "outputs": [
        {
          "internalType": "address",
          "name": "",
          "type": "address"
        }
      ],
      "stateMutability": "view",
      "type": "function"
    },
    {
      "inputs": [],
      "name": "renounceOwnership",
      "outputs": [],
      "stateMutability": "nonpayable",
      "type": "function"
    },
    {
      "inputs": [
        {
          "internalType": "address",
          "name": "newOwner",
          "type": "address"
        }
      ],
      "name": "transferOwnership",
      "outputs": [],
      "stateMutability": "nonpayable",
      "type": "function"
    },
    {
      "inputs": [],
      "name": "voteMining",
      "outputs": [
        {
          "internalType": "address",
          "name": "",
          "type": "address"
        }
      ],
      "stateMutability": "view",
      "type": "function"
    },
    {
      "inputs": [
        {
          "internalType": "address",
          "name": "nftAddr",
          "type": "address"
        },
        {
          "internalType": "uint256",
          "name": "nftId",
          "type": "uint256"
        }
      ],
      "name": "pin",
      "outputs": [],
      "stateMutability": "nonpayable",
      "type": "function"
    },
    {
      "inputs": [
        {
          "internalType": "address",
          "name": "owner",
          "type": "address"
        },
        {
          "internalType": "uint256",
          "name": "index",
          "type": "uint256"
        }
      ],
      "name": "tokenOfOwnerByIndex",
      "outputs": [
        {
          "internalType": "address",
          "name": "",
          "type": "address"
        },
        {
          "internalType": "uint256",
          "name": "",
          "type": "uint256"
        }
      ],
      "stateMutability": "view",
      "type": "function"
    },
    {
      "inputs": [
        {
          "internalType": "address",
          "name": "nftAddr",
          "type": "address"
        },
        {
          "internalType": "uint256",
          "name": "nftId",
          "type": "uint256"
        },
        {
          "internalType": "address",
          "name": "to",
          "type": "address"
        }
      ],
      "name": "withdraw",
      "outputs": [],
      "stateMutability": "nonpayable",
      "type": "function"
    }
  ],
  "bytecode": "0x60806040523480156200001157600080fd5b50604051620011b6380380620011b6833981810160405281019062000037919062000182565b620000576200004b6200009f60201b60201c565b620000a760201b60201c565b80600160006101000a81548173ffffffffffffffffffffffffffffffffffffffff021916908373ffffffffffffffffffffffffffffffffffffffff16021790555050620001fc565b600033905090565b60008060009054906101000a900473ffffffffffffffffffffffffffffffffffffffff169050816000806101000a81548173ffffffffffffffffffffffffffffffffffffffff021916908373ffffffffffffffffffffffffffffffffffffffff1602179055508173ffffffffffffffffffffffffffffffffffffffff168173ffffffffffffffffffffffffffffffffffffffff167f8be0079c531659141344cd1fd0a4f28419497f9722a3daafe3b4186f6b6457e060405160405180910390a35050565b6000815190506200017c81620001e2565b92915050565b6000602082840312156200019557600080fd5b6000620001a5848285016200016b565b91505092915050565b6000620001bb82620001c2565b9050919050565b600073ffffffffffffffffffffffffffffffffffffffff82169050919050565b620001ed81620001ae565b8114620001f957600080fd5b50565b610faa806200020c6000396000f3fe608060405234801561001057600080fd5b50600436106100935760003560e01c806369328dec1161006657806369328dec1461013357806370a082311461014f578063715018a61461017f5780638da5cb5b14610189578063f2fde38b146101a757610093565b80630d87e251146100985780631f29d2dc146100b45780632f745c59146100e457806348bda9bb14610115575b600080fd5b6100b260048036038101906100ad9190610b94565b6101c3565b005b6100ce60048036038101906100c99190610b94565b610585565b6040516100db9190610ca6565b60405180910390f35b6100fe60048036038101906100f99190610b94565b6105c7565b60405161010c929190610cf8565b60405180910390f35b61011d610788565b60405161012a9190610ca6565b60405180910390f35b61014d60048036038101906101489190610bd0565b6107ae565b005b61016960048036038101906101649190610b6b565b61089e565b6040516101769190610db8565b60405180910390f35b6101876108b6565b005b61019161093e565b60405161019e9190610ca6565b60405180910390f35b6101c160048036038101906101bc9190610b6b565b610967565b005b600160009054906101000a900473ffffffffffffffffffffffffffffffffffffffff1673ffffffffffffffffffffffffffffffffffffffff1663f44e3ce18383336040518463ffffffff1660e01b815260040161022293929190610d21565b600060405180830381600087803b15801561023c57600080fd5b505af1158015610250573d6000803e3d6000fd5b505050508173ffffffffffffffffffffffffffffffffffffffff166323b872dd3330846040518463ffffffff1660e01b815260040161029193929190610cc1565b600060405180830381600087803b1580156102ab57600080fd5b505af11580156102bf573d6000803e3d6000fd5b50505050600460003373ffffffffffffffffffffffffffffffffffffffff1673ffffffffffffffffffffffffffffffffffffffff16815260200190815260200160002060405180606001604052808473ffffffffffffffffffffffffffffffffffffffff1681526020018381526020013373ffffffffffffffffffffffffffffffffffffffff16815250908060018154018082558091505060019003906000526020600020906003020160009091909190915060008201518160000160006101000a81548173ffffffffffffffffffffffffffffffffffffffff021916908373ffffffffffffffffffffffffffffffffffffffff1602179055506020820151816001015560408201518160020160006101000a81548173ffffffffffffffffffffffffffffffffffffffff021916908373ffffffffffffffffffffffffffffffffffffffff160217905550505061045f6001600260003373ffffffffffffffffffffffffffffffffffffffff1673ffffffffffffffffffffffffffffffffffffffff16815260200190815260200160002054610a5f90919063ffffffff16565b600260003373ffffffffffffffffffffffffffffffffffffffff1673ffffffffffffffffffffffffffffffffffffffff1681526020019081526020016000208190555033600360008473ffffffffffffffffffffffffffffffffffffffff1673ffffffffffffffffffffffffffffffffffffffff168152602001908152602001600020600083815260200190815260200160002060006101000a81548173ffffffffffffffffffffffffffffffffffffffff021916908373ffffffffffffffffffffffffffffffffffffffff1602179055503373ffffffffffffffffffffffffffffffffffffffff167f257c075259387d60935ff627ad28177a941e04401acf9a9468f316a790eaa59f8383604051610579929190610cf8565b60405180910390a25050565b60036020528160005260406000206020528060005260406000206000915091509054906101000a900473ffffffffffffffffffffffffffffffffffffffff1681565b600080600260008573ffffffffffffffffffffffffffffffffffffffff1673ffffffffffffffffffffffffffffffffffffffff16815260200190815260200160002054831061064b576040517f08c379a000000000000000000000000000000000000000000000000000000000815260040161064290610d78565b60405180910390fd5b600460008573ffffffffffffffffffffffffffffffffffffffff1673ffffffffffffffffffffffffffffffffffffffff16815260200190815260200160002083815481106106c2577f4e487b7100000000000000000000000000000000000000000000000000000000600052603260045260246000fd5b906000526020600020906003020160000160009054906101000a900473ffffffffffffffffffffffffffffffffffffffff16600460008673ffffffffffffffffffffffffffffffffffffffff1673ffffffffffffffffffffffffffffffffffffffff168152602001908152602001600020848154811061076b577f4e487b7100000000000000000000000000000000000000000000000000000000600052603260045260246000fd5b906000526020600020906003020160010154915091509250929050565b600160009054906101000a900473ffffffffffffffffffffffffffffffffffffffff1681565b6107b6610a75565b73ffffffffffffffffffffffffffffffffffffffff166107d461093e565b73ffffffffffffffffffffffffffffffffffffffff161461082a576040517f08c379a000000000000000000000000000000000000000000000000000000000815260040161082190610d98565b60405180910390fd5b8273ffffffffffffffffffffffffffffffffffffffff166323b872dd3083856040518463ffffffff1660e01b815260040161086793929190610cc1565b600060405180830381600087803b15801561088157600080fd5b505af1158015610895573d6000803e3d6000fd5b50505050505050565b60026020528060005260406000206000915090505481565b6108be610a75565b73ffffffffffffffffffffffffffffffffffffffff166108dc61093e565b73ffffffffffffffffffffffffffffffffffffffff1614610932576040517f08c379a000000000000000000000000000000000000000000000000000000000815260040161092990610d98565b60405180910390fd5b61093c6000610a7d565b565b60008060009054906101000a900473ffffffffffffffffffffffffffffffffffffffff16905090565b61096f610a75565b73ffffffffffffffffffffffffffffffffffffffff1661098d61093e565b73ffffffffffffffffffffffffffffffffffffffff16146109e3576040517f08c379a00000000000000000000000000000000000000000000000000000000081526004016109da90610d98565b60405180910390fd5b600073ffffffffffffffffffffffffffffffffffffffff168173ffffffffffffffffffffffffffffffffffffffff161415610a53576040517f08c379a0000000000000000000000000000000000000000000000000000000008152600401610a4a90610d58565b60405180910390fd5b610a5c81610a7d565b50565b60008183610a6d9190610de4565b905092915050565b600033905090565b60008060009054906101000a900473ffffffffffffffffffffffffffffffffffffffff169050816000806101000a81548173ffffffffffffffffffffffffffffffffffffffff021916908373ffffffffffffffffffffffffffffffffffffffff1602179055508173ffffffffffffffffffffffffffffffffffffffff168173ffffffffffffffffffffffffffffffffffffffff167f8be0079c531659141344cd1fd0a4f28419497f9722a3daafe3b4186f6b6457e060405160405180910390a35050565b600081359050610b5081610f46565b92915050565b600081359050610b6581610f5d565b92915050565b600060208284031215610b7d57600080fd5b6000610b8b84828501610b41565b91505092915050565b60008060408385031215610ba757600080fd5b6000610bb585828601610b41565b9250506020610bc685828601610b56565b9150509250929050565b600080600060608486031215610be557600080fd5b6000610bf386828701610b41565b9350506020610c0486828701610b56565b9250506040610c1586828701610b41565b9150509250925092565b610c2881610e3a565b82525050565b6000610c3b602683610dd3565b9150610c4682610ea5565b604082019050919050565b6000610c5e601e83610dd3565b9150610c6982610ef4565b602082019050919050565b6000610c81602083610dd3565b9150610c8c82610f1d565b602082019050919050565b610ca081610e6c565b82525050565b6000602082019050610cbb6000830184610c1f565b92915050565b6000606082019050610cd66000830186610c1f565b610ce36020830185610c1f565b610cf06040830184610c97565b949350505050565b6000604082019050610d0d6000830185610c1f565b610d1a6020830184610c97565b9392505050565b6000606082019050610d366000830186610c1f565b610d436020830185610c97565b610d506040830184610c1f565b949350505050565b60006020820190508181036000830152610d7181610c2e565b9050919050565b60006020820190508181036000830152610d9181610c51565b9050919050565b60006020820190508181036000830152610db181610c74565b9050919050565b6000602082019050610dcd6000830184610c97565b92915050565b600082825260208201905092915050565b6000610def82610e6c565b9150610dfa83610e6c565b9250827fffffffffffffffffffffffffffffffffffffffffffffffffffffffffffffffff03821115610e2f57610e2e610e76565b5b828201905092915050565b6000610e4582610e4c565b9050919050565b600073ffffffffffffffffffffffffffffffffffffffff82169050919050565b6000819050919050565b7f4e487b7100000000000000000000000000000000000000000000000000000000600052601160045260246000fd5b7f4f776e61626c653a206e6577206f776e657220697320746865207a65726f206160008201527f6464726573730000000000000000000000000000000000000000000000000000602082015250565b7f50696e3a206f776e657220696e646578206f7574206f6620626f756e64730000600082015250565b7f4f776e61626c653a2063616c6c6572206973206e6f7420746865206f776e6572600082015250565b610f4f81610e3a565b8114610f5a57600080fd5b50565b610f6681610e6c565b8114610f7157600080fd5b5056fea2646970667358221220285c26837bd73daea85700a4aa7a6bd7fb13c4dcb921b9c641c2099b340581ba64736f6c63430008040033",
  "immutableReferences": {},
  "source": "// SPDX-License-Identifier: MIT\npragma solidity ^0.8.0;\nimport \"@openzeppelin/contracts/access/Ownable.sol\";\nimport \"@openzeppelin/contracts/utils/math/SafeMath.sol\";\nimport \"@openzeppelin/contracts/token/ERC20/IERC20.sol\";\nimport \"@openzeppelin/contracts/token/ERC721/IERC721.sol\";\n\ninterface IVoteMining {\n  function claimMintRewards(address nftAddr, uint nftId, address to) external;\n}\ncontract Pin is Ownable {\n  using SafeMath for uint256;\n\n  address public voteMining;\n\n  mapping(address => uint256) public balanceOf;\n  mapping(address => mapping(uint256 => address)) public ownerOf;\n\n  struct NFT {\n    address addr;\n    uint id;\n    address owner;\n  }\n\n  mapping (address => NFT[]) private _ownedTokens;\n  \n\n  event Pinned(address indexed user, address nftAddress, uint nftId);\n\n  constructor(address _voteMining) {\n    voteMining = _voteMining;\n  }\n\n  function pin(address nftAddr, uint nftId) external {\n    IVoteMining(voteMining).claimMintRewards(nftAddr, nftId, msg.sender);\n\n    IERC721(nftAddr).transferFrom(msg.sender, address(this), nftId);\n    _ownedTokens[msg.sender].push(NFT({\n      addr: nftAddr,\n      id: nftId,\n      owner: msg.sender\n    }));\n    balanceOf[msg.sender] = balanceOf[msg.sender].add(1);\n    ownerOf[nftAddr][nftId] = msg.sender;\n\n    emit Pinned(msg.sender, nftAddr, nftId);\n  }\n\n  function tokenOfOwnerByIndex(address owner, uint index) public view returns(address, uint) {\n    require(index < balanceOf[owner], \"Pin: owner index out of bounds\");\n    return (_ownedTokens[owner][index].addr, _ownedTokens[owner][index].id);\n  }\n\n  function withdraw(address nftAddr, uint nftId, address to) external onlyOwner {\n    IERC721(nftAddr).transferFrom(address(this), to, nftId);\n  }\n}",
  "sourcePath": "/Users/tuminfei/Code/Nodejs/uniarts-eth-dao/contracts/Pin.sol",
  "compiler": {
    "name": "solc",
    "version": "0.8.4+commit.c7e474f2.Emscripten.clang"
  },
  "schemaVersion": "3.3.0",
  "updatedAt": "2021-09-07T02:03:47.994Z",
  "devdoc": {
    "kind": "dev",
    "methods": {
      "owner()": {
        "details": "Returns the address of the current owner."
      },
      "renounceOwnership()": {
        "details": "Leaves the contract without owner. It will not be possible to call `onlyOwner` functions anymore. Can only be called by the current owner. NOTE: Renouncing ownership will leave the contract without an owner, thereby removing any functionality that is only available to the owner."
      },
      "transferOwnership(address)": {
        "details": "Transfers ownership of the contract to a new account (`newOwner`). Can only be called by the current owner."
      }
    },
    "version": 1
  },
  "userdoc": {
    "kind": "user",
    "methods": {},
    "version": 1
  }
}