{
  "contractName": "Pin",
  "abi": [
    {
      "inputs": [
        {
          "internalType": "address",
          "name": "_voteMining",
          "type": "address"
        }
      ],
      "stateMutability": "nonpayable",
      "type": "constructor"
    },
    {
      "anonymous": false,
      "inputs": [
        {
          "indexed": true,
          "internalType": "address",
          "name": "previousOwner",
          "type": "address"
        },
        {
          "indexed": true,
          "internalType": "address",
          "name": "newOwner",
          "type": "address"
        }
      ],
      "name": "OwnershipTransferred",
      "type": "event"
    },
    {
      "anonymous": false,
      "inputs": [
        {
          "indexed": true,
          "internalType": "address",
          "name": "user",
          "type": "address"
        },
        {
          "indexed": false,
          "internalType": "address",
          "name": "nftAddress",
          "type": "address"
        },
        {
          "indexed": false,
          "internalType": "uint256",
          "name": "nftId",
          "type": "uint256"
        }
      ],
      "name": "Pinned",
      "type": "event"
    },
    {
      "inputs": [
        {
          "internalType": "address",
          "name": "",
          "type": "address"
        }
      ],
      "name": "balanceOf",
      "outputs": [
        {
          "internalType": "uint256",
          "name": "",
          "type": "uint256"
        }
      ],
      "stateMutability": "view",
      "type": "function"
    },
    {
      "inputs": [],
      "name": "owner",
      "outputs": [
        {
          "internalType": "address",
          "name": "",
          "type": "address"
        }
      ],
      "stateMutability": "view",
      "type": "function"
    },
    {
      "inputs": [
        {
          "internalType": "address",
          "name": "",
          "type": "address"
        },
        {
          "internalType": "uint256",
          "name": "",
          "type": "uint256"
        }
      ],
      "name": "ownerOf",
      "outputs": [
        {
          "internalType": "address",
          "name": "",
          "type": "address"
        }
      ],
      "stateMutability": "view",
      "type": "function"
    },
    {
      "inputs": [],
      "name": "renounceOwnership",
      "outputs": [],
      "stateMutability": "nonpayable",
      "type": "function"
    },
    {
      "inputs": [
        {
          "internalType": "address",
          "name": "newOwner",
          "type": "address"
        }
      ],
      "name": "transferOwnership",
      "outputs": [],
      "stateMutability": "nonpayable",
      "type": "function"
    },
    {
      "inputs": [],
      "name": "voteMining",
      "outputs": [
        {
          "internalType": "address",
          "name": "",
          "type": "address"
        }
      ],
      "stateMutability": "view",
      "type": "function"
    },
    {
      "inputs": [
        {
          "internalType": "address",
          "name": "nftAddr",
          "type": "address"
        },
        {
          "internalType": "uint256",
          "name": "nftId",
          "type": "uint256"
        }
      ],
      "name": "pin",
      "outputs": [],
      "stateMutability": "nonpayable",
      "type": "function"
    },
    {
      "inputs": [
        {
          "internalType": "address",
          "name": "owner",
          "type": "address"
        },
        {
          "internalType": "uint256",
          "name": "index",
          "type": "uint256"
        }
      ],
      "name": "tokenOfOwnerByIndex",
      "outputs": [
        {
          "internalType": "address",
          "name": "",
          "type": "address"
        },
        {
          "internalType": "uint256",
          "name": "",
          "type": "uint256"
        }
      ],
      "stateMutability": "view",
      "type": "function"
    },
    {
      "inputs": [
        {
          "internalType": "address",
          "name": "nftAddr",
          "type": "address"
        },
        {
          "internalType": "uint256",
          "name": "nftId",
          "type": "uint256"
        },
        {
          "internalType": "address",
          "name": "to",
          "type": "address"
        }
      ],
      "name": "withdraw",
      "outputs": [],
      "stateMutability": "nonpayable",
      "type": "function"
    }
  ],
  "bytecode": "0x608060405234801561001057600080fd5b5060405161099c38038061099c83398101604081905261002f916100ca565b610051610043640100000000610076810204565b64010000000061007a810204565b60018054600160a060020a031916600160a060020a03929092169190911790556100f8565b3390565b60008054600160a060020a03838116600160a060020a0319831681178455604051919092169283917f8be0079c531659141344cd1fd0a4f28419497f9722a3daafe3b4186f6b6457e09190a35050565b6000602082840312156100db578081fd5b8151600160a060020a03811681146100f1578182fd5b9392505050565b610895806101076000396000f3fe608060405234801561001057600080fd5b50600436106100b0576000357c01000000000000000000000000000000000000000000000000000000009004806369328dec1161008357806369328dec1461016057806370a0823114610173578063715018a6146101a15780638da5cb5b146101a9578063f2fde38b146101ba57600080fd5b80630d87e251146100b55780631f29d2dc146100ca5780632f745c591461011b57806348bda9bb1461014d575b600080fd5b6100c86100c3366004610789565b6101cd565b005b6100fe6100d8366004610789565b6003602090815260009283526040808420909152908252902054600160a060020a031681565b604051600160a060020a0390911681526020015b60405180910390f35b61012e610129366004610789565b6103f7565b60408051600160a060020a039093168352602083019190915201610112565b6001546100fe90600160a060020a031681565b6100c861016e3660046107b2565b61053f565b61019361018136600461076f565b60026020526000908152604090205481565b604051908152602001610112565b6100c86105f2565b600054600160a060020a03166100fe565b6100c86101c836600461076f565b61062b565b6001546040517ff44e3ce1000000000000000000000000000000000000000000000000000000008152600160a060020a038481166004830152602482018490523360448301529091169063f44e3ce190606401600060405180830381600087803b15801561023a57600080fd5b505af115801561024e573d6000803e3d6000fd5b50506040517f23b872dd00000000000000000000000000000000000000000000000000000000815233600482015230602482015260448101849052600160a060020a03851692506323b872dd9150606401600060405180830381600087803b1580156102b957600080fd5b505af11580156102cd573d6000803e3d6000fd5b50503360008181526004602090815260408083208151606081018352600160a060020a038a811682528185018a815282850188815284546001818101875595895287892094516003909102909401805494841673ffffffffffffffffffffffffffffffffffffffff1995861617815591518286015551600291820180549190931693169290921790559484529390915290205461036c935091506106e3565b33600081815260026020908152604080832094909455600160a060020a03861680835260038252848320868452825291849020805473ffffffffffffffffffffffffffffffffffffffff1916841790558351918252810184905290917f257c075259387d60935ff627ad28177a941e04401acf9a9468f316a790eaa59f910160405180910390a25050565b600160a060020a038216600090815260026020526040812054819083106104685760405160e560020a62461bcd02815260206004820152601e60248201527f50696e3a206f776e657220696e646578206f7574206f6620626f756e6473000060448201526064015b60405180910390fd5b600160a060020a03841660009081526004602052604090208054849081106104b9577f4e487b7100000000000000000000000000000000000000000000000000000000600052603260045260246000fd5b60009182526020808320600390920290910154600160a060020a03878116845260049092526040909220805491909216919085908110610522577f4e487b7100000000000000000000000000000000000000000000000000000000600052603260045260246000fd5b906000526020600020906003020160010154915091509250929050565b600054600160a060020a0316331461056c5760405160e560020a62461bcd02815260040161045f906107ed565b6040517f23b872dd000000000000000000000000000000000000000000000000000000008152306004820152600160a060020a038281166024830152604482018490528416906323b872dd90606401600060405180830381600087803b1580156105d557600080fd5b505af11580156105e9573d6000803e3d6000fd5b50505050505050565b600054600160a060020a0316331461061f5760405160e560020a62461bcd02815260040161045f906107ed565b61062960006106f6565b565b600054600160a060020a031633146106585760405160e560020a62461bcd02815260040161045f906107ed565b600160a060020a0381166106d75760405160e560020a62461bcd02815260206004820152602660248201527f4f776e61626c653a206e6577206f776e657220697320746865207a65726f206160448201527f6464726573730000000000000000000000000000000000000000000000000000606482015260840161045f565b6106e0816106f6565b50565b60006106ef8284610822565b9392505050565b60008054600160a060020a0383811673ffffffffffffffffffffffffffffffffffffffff19831681178455604051919092169283917f8be0079c531659141344cd1fd0a4f28419497f9722a3daafe3b4186f6b6457e09190a35050565b8035600160a060020a038116811461076a57600080fd5b919050565b600060208284031215610780578081fd5b6106ef82610753565b6000806040838503121561079b578081fd5b6107a483610753565b946020939093013593505050565b6000806000606084860312156107c6578081fd5b6107cf84610753565b9250602084013591506107e460408501610753565b90509250925092565b6020808252818101527f4f776e61626c653a2063616c6c6572206973206e6f7420746865206f776e6572604082015260600190565b6000821982111561085a577f4e487b710000000000000000000000000000000000000000000000000000000081526011600452602481fd5b50019056fea2646970667358221220f6f056340987e8c0cc130814c0dc13a310b07e130dd52419ff0a0e53e85ded1c64736f6c63430008040033",
  "immutableReferences": {},
  "source": "// SPDX-License-Identifier: MIT\npragma solidity ^0.8.0;\nimport \"@openzeppelin/contracts/access/Ownable.sol\";\nimport \"@openzeppelin/contracts/utils/math/SafeMath.sol\";\nimport \"@openzeppelin/contracts/token/ERC20/IERC20.sol\";\nimport \"@openzeppelin/contracts/token/ERC721/IERC721.sol\";\n\ninterface IVoteMining {\n  function claimMintRewards(address nftAddr, uint nftId, address to) external;\n}\ncontract Pin is Ownable {\n  using SafeMath for uint256;\n\n  address public voteMining;\n\n  mapping(address => uint256) public balanceOf;\n  mapping(address => mapping(uint256 => address)) public ownerOf;\n\n  struct NFT {\n    address addr;\n    uint id;\n    address owner;\n  }\n\n  mapping (address => NFT[]) private _ownedTokens;\n  \n\n  event Pinned(address indexed user, address nftAddress, uint nftId);\n\n  constructor(address _voteMining) {\n    voteMining = _voteMining;\n  }\n\n  function pin(address nftAddr, uint nftId) external {\n    IVoteMining(voteMining).claimMintRewards(nftAddr, nftId, msg.sender);\n\n    IERC721(nftAddr).transferFrom(msg.sender, address(this), nftId);\n    _ownedTokens[msg.sender].push(NFT({\n      addr: nftAddr,\n      id: nftId,\n      owner: msg.sender\n    }));\n    balanceOf[msg.sender] = balanceOf[msg.sender].add(1);\n    ownerOf[nftAddr][nftId] = msg.sender;\n\n    emit Pinned(msg.sender, nftAddr, nftId);\n  }\n\n  function tokenOfOwnerByIndex(address owner, uint index) public view returns(address, uint) {\n    require(index < balanceOf[owner], \"Pin: owner index out of bounds\");\n    return (_ownedTokens[owner][index].addr, _ownedTokens[owner][index].id);\n  }\n\n  function withdraw(address nftAddr, uint nftId, address to) external onlyOwner {\n    IERC721(nftAddr).transferFrom(address(this), to, nftId);\n  }\n}",
  "sourcePath": "/Users/yxf/app/uniarts-eth-dao/contracts/Pin.sol",
  "compiler": {
    "name": "solc",
    "version": "0.8.4+commit.c7e474f2.Emscripten.clang"
  },
  "schemaVersion": "3.2.3",
  "updatedAt": "2021-09-17T03:00:12.500Z",
  "devdoc": {
    "kind": "dev",
    "methods": {
      "owner()": {
        "details": "Returns the address of the current owner."
      },
      "renounceOwnership()": {
        "details": "Leaves the contract without owner. It will not be possible to call `onlyOwner` functions anymore. Can only be called by the current owner. NOTE: Renouncing ownership will leave the contract without an owner, thereby removing any functionality that is only available to the owner."
      },
      "transferOwnership(address)": {
        "details": "Transfers ownership of the contract to a new account (`newOwner`). Can only be called by the current owner."
      }
    },
    "version": 1
  },
  "userdoc": {
    "kind": "user",
    "methods": {},
    "version": 1
  }
}