{
  "contractName": "Pin",
  "abi": [
    {
      "inputs": [
        {
          "internalType": "address",
          "name": "_voteMiningV1",
          "type": "address"
        },
        {
          "internalType": "address",
          "name": "_voteMiningV2",
          "type": "address"
        }
      ],
      "stateMutability": "nonpayable",
      "type": "constructor"
    },
    {
      "anonymous": false,
      "inputs": [
        {
          "indexed": true,
          "internalType": "address",
          "name": "previousOwner",
          "type": "address"
        },
        {
          "indexed": true,
          "internalType": "address",
          "name": "newOwner",
          "type": "address"
        }
      ],
      "name": "OwnershipTransferred",
      "type": "event"
    },
    {
      "anonymous": false,
      "inputs": [
        {
          "indexed": true,
          "internalType": "address",
          "name": "user",
          "type": "address"
        },
        {
          "indexed": false,
          "internalType": "address",
          "name": "nftAddress",
          "type": "address"
        },
        {
          "indexed": false,
          "internalType": "uint256",
          "name": "nftId",
          "type": "uint256"
        }
      ],
      "name": "Pinned",
      "type": "event"
    },
    {
      "inputs": [
        {
          "internalType": "address",
          "name": "",
          "type": "address"
        }
      ],
      "name": "balanceOf",
      "outputs": [
        {
          "internalType": "uint256",
          "name": "",
          "type": "uint256"
        }
      ],
      "stateMutability": "view",
      "type": "function"
    },
    {
      "inputs": [],
      "name": "owner",
      "outputs": [
        {
          "internalType": "address",
          "name": "",
          "type": "address"
        }
      ],
      "stateMutability": "view",
      "type": "function"
    },
    {
      "inputs": [
        {
          "internalType": "address",
          "name": "",
          "type": "address"
        },
        {
          "internalType": "uint256",
          "name": "",
          "type": "uint256"
        }
      ],
      "name": "ownerOf",
      "outputs": [
        {
          "internalType": "address",
          "name": "",
          "type": "address"
        }
      ],
      "stateMutability": "view",
      "type": "function"
    },
    {
      "inputs": [],
      "name": "renounceOwnership",
      "outputs": [],
      "stateMutability": "nonpayable",
      "type": "function"
    },
    {
      "inputs": [
        {
          "internalType": "address",
          "name": "newOwner",
          "type": "address"
        }
      ],
      "name": "transferOwnership",
      "outputs": [],
      "stateMutability": "nonpayable",
      "type": "function"
    },
    {
      "inputs": [],
      "name": "voteMiningV1",
      "outputs": [
        {
          "internalType": "address",
          "name": "",
          "type": "address"
        }
      ],
      "stateMutability": "view",
      "type": "function"
    },
    {
      "inputs": [],
      "name": "voteMiningV2",
      "outputs": [
        {
          "internalType": "address",
          "name": "",
          "type": "address"
        }
      ],
      "stateMutability": "view",
      "type": "function"
    },
    {
      "inputs": [
        {
          "internalType": "address",
          "name": "nftAddr",
          "type": "address"
        },
        {
          "internalType": "uint256",
          "name": "nftId",
          "type": "uint256"
        }
      ],
      "name": "pin",
      "outputs": [],
      "stateMutability": "nonpayable",
      "type": "function"
    },
    {
      "inputs": [
        {
          "internalType": "address",
          "name": "nftAddr",
          "type": "address"
        },
        {
          "internalType": "uint256",
          "name": "nftId",
          "type": "uint256"
        }
      ],
      "name": "pinV2",
      "outputs": [],
      "stateMutability": "nonpayable",
      "type": "function"
    },
    {
      "inputs": [
        {
          "internalType": "address",
          "name": "owner",
          "type": "address"
        },
        {
          "internalType": "uint256",
          "name": "index",
          "type": "uint256"
        }
      ],
      "name": "tokenOfOwnerByIndex",
      "outputs": [
        {
          "internalType": "address",
          "name": "",
          "type": "address"
        },
        {
          "internalType": "uint256",
          "name": "",
          "type": "uint256"
        }
      ],
      "stateMutability": "view",
      "type": "function"
    },
    {
      "inputs": [
        {
          "internalType": "address",
          "name": "nftAddr",
          "type": "address"
        },
        {
          "internalType": "uint256",
          "name": "nftId",
          "type": "uint256"
        },
        {
          "internalType": "address",
          "name": "to",
          "type": "address"
        }
      ],
      "name": "withdraw",
      "outputs": [],
      "stateMutability": "nonpayable",
      "type": "function"
    }
  ],
  "bytecode": "0x608060405234801561001057600080fd5b50604051610a5d380380610a5d83398101604081905261002f916100f2565b610051610043640100000000610082810204565b640100000000610086810204565b60018054600160a060020a03938416600160a060020a03199182161790915560028054929093169116179055610124565b3390565b60008054600160a060020a03838116600160a060020a0319831681178455604051919092169283917f8be0079c531659141344cd1fd0a4f28419497f9722a3daafe3b4186f6b6457e09190a35050565b8051600160a060020a03811681146100ed57600080fd5b919050565b60008060408385031215610104578182fd5b61010d836100d6565b915061011b602084016100d6565b90509250929050565b61092a806101336000396000f3fe608060405234801561001057600080fd5b50600436106100c6576000357c01000000000000000000000000000000000000000000000000000000009004806370a082311161008e57806370a0823114610189578063715018a6146101b7578063807349e1146101bf5780638da5cb5b146101d2578063924bfe96146101e3578063f2fde38b146101f657600080fd5b80630d87e251146100cb5780631f29d2dc146100e05780632f745c591461013157806369053f8b1461016357806369328dec14610176575b600080fd5b6100de6100d936600461081e565b610209565b005b6101146100ee36600461081e565b6004602090815260009283526040808420909152908252902054600160a060020a031681565b604051600160a060020a0390911681526020015b60405180910390f35b61014461013f36600461081e565b610434565b60408051600160a060020a039093168352602083019190915201610128565b6100de61017136600461081e565b61057c565b6100de610184366004610847565b6105d4565b6101a9610197366004610804565b60036020526000908152604090205481565b604051908152602001610128565b6100de610687565b60025461011490600160a060020a031681565b600054600160a060020a0316610114565b60015461011490600160a060020a031681565b6100de610204366004610804565b6106c0565b6001546040517ff44e3ce1000000000000000000000000000000000000000000000000000000008152600160a060020a038481166004830152602482018490523360448301529091169063f44e3ce1906064015b600060405180830381600087803b15801561027757600080fd5b505af115801561028b573d6000803e3d6000fd5b50506040517f23b872dd00000000000000000000000000000000000000000000000000000000815233600482015230602482015260448101849052600160a060020a03851692506323b872dd9150606401600060405180830381600087803b1580156102f657600080fd5b505af115801561030a573d6000803e3d6000fd5b50503360008181526005602090815260408083208151606081018352600160a060020a038a811682528185018a815282850188815284546001818101875595895287892094516003918202909501805495851673ffffffffffffffffffffffffffffffffffffffff199687161781559251838701559051600290920180549290931691909316179055948452939091529020546103a993509150610778565b33600081815260036020908152604080832094909455600160a060020a03861680835260048252848320868452825291849020805473ffffffffffffffffffffffffffffffffffffffff1916841790558351918252810184905290917f257c075259387d60935ff627ad28177a941e04401acf9a9468f316a790eaa59f910160405180910390a25050565b600160a060020a038216600090815260036020526040812054819083106104a55760405160e560020a62461bcd02815260206004820152601e60248201527f50696e3a206f776e657220696e646578206f7574206f6620626f756e6473000060448201526064015b60405180910390fd5b600160a060020a03841660009081526005602052604090208054849081106104f6577f4e487b7100000000000000000000000000000000000000000000000000000000600052603260045260246000fd5b60009182526020808320600390920290910154600160a060020a0387811684526005909252604090922080549190921691908590811061055f577f4e487b7100000000000000000000000000000000000000000000000000000000600052603260045260246000fd5b906000526020600020906003020160010154915091509250929050565b6002546040517ff44e3ce1000000000000000000000000000000000000000000000000000000008152600160a060020a038481166004830152602482018490523360448301529091169063f44e3ce19060640161025d565b600054600160a060020a031633146106015760405160e560020a62461bcd02815260040161049c90610882565b6040517f23b872dd000000000000000000000000000000000000000000000000000000008152306004820152600160a060020a038281166024830152604482018490528416906323b872dd90606401600060405180830381600087803b15801561066a57600080fd5b505af115801561067e573d6000803e3d6000fd5b50505050505050565b600054600160a060020a031633146106b45760405160e560020a62461bcd02815260040161049c90610882565b6106be600061078b565b565b600054600160a060020a031633146106ed5760405160e560020a62461bcd02815260040161049c90610882565b600160a060020a03811661076c5760405160e560020a62461bcd02815260206004820152602660248201527f4f776e61626c653a206e6577206f776e657220697320746865207a65726f206160448201527f6464726573730000000000000000000000000000000000000000000000000000606482015260840161049c565b6107758161078b565b50565b600061078482846108b7565b9392505050565b60008054600160a060020a0383811673ffffffffffffffffffffffffffffffffffffffff19831681178455604051919092169283917f8be0079c531659141344cd1fd0a4f28419497f9722a3daafe3b4186f6b6457e09190a35050565b8035600160a060020a03811681146107ff57600080fd5b919050565b600060208284031215610815578081fd5b610784826107e8565b60008060408385031215610830578081fd5b610839836107e8565b946020939093013593505050565b60008060006060848603121561085b578081fd5b610864846107e8565b925060208401359150610879604085016107e8565b90509250925092565b6020808252818101527f4f776e61626c653a2063616c6c6572206973206e6f7420746865206f776e6572604082015260600190565b600082198211156108ef577f4e487b710000000000000000000000000000000000000000000000000000000081526011600452602481fd5b50019056fea264697066735822122056fb947c3e6b9e2cdc2b53b7a440d4de31b35dc374d82e52032b3e16d5db6abd64736f6c63430008040033",
  "immutableReferences": {},
  "source": "// SPDX-License-Identifier: MIT\npragma solidity ^0.8.0;\nimport \"@openzeppelin/contracts/access/Ownable.sol\";\nimport \"@openzeppelin/contracts/utils/math/SafeMath.sol\";\nimport \"@openzeppelin/contracts/token/ERC20/IERC20.sol\";\nimport \"@openzeppelin/contracts/token/ERC721/IERC721.sol\";\n\ninterface IVoteMining {\n  function claimMintRewards(address nftAddr, uint nftId, address to) external;\n}\ncontract Pin is Ownable {\n  using SafeMath for uint256;\n\n  address public voteMiningV1;\n  address public voteMiningV2;\n\n  mapping(address => uint256) public balanceOf;\n  mapping(address => mapping(uint256 => address)) public ownerOf;\n\n  struct NFT {\n    address addr;\n    uint id;\n    address owner;\n  }\n\n  mapping (address => NFT[]) private _ownedTokens;\n  \n\n  event Pinned(address indexed user, address nftAddress, uint nftId);\n\n  constructor(address _voteMiningV1, address _voteMiningV2) {\n    voteMiningV1 = _voteMiningV1;\n    voteMiningV2 = _voteMiningV2;\n  }\n\n  function pin(address nftAddr, uint nftId) external {\n    IVoteMining(voteMiningV1).claimMintRewards(nftAddr, nftId, msg.sender);\n\n    IERC721(nftAddr).transferFrom(msg.sender, address(this), nftId);\n    _ownedTokens[msg.sender].push(NFT({\n      addr: nftAddr,\n      id: nftId,\n      owner: msg.sender\n    }));\n    balanceOf[msg.sender] = balanceOf[msg.sender].add(1);\n    ownerOf[nftAddr][nftId] = msg.sender;\n\n    emit Pinned(msg.sender, nftAddr, nftId);\n  }\n\n  function pinV2(address nftAddr, uint nftId) external {\n    IVoteMining(voteMiningV2).claimMintRewards(nftAddr, nftId, msg.sender);\n\n    IERC721(nftAddr).transferFrom(msg.sender, address(this), nftId);\n    _ownedTokens[msg.sender].push(NFT({\n      addr: nftAddr,\n      id: nftId,\n      owner: msg.sender\n    }));\n    balanceOf[msg.sender] = balanceOf[msg.sender].add(1);\n    ownerOf[nftAddr][nftId] = msg.sender;\n\n    emit Pinned(msg.sender, nftAddr, nftId);\n  }\n\n  function tokenOfOwnerByIndex(address owner, uint index) public view returns(address, uint) {\n    require(index < balanceOf[owner], \"Pin: owner index out of bounds\");\n    return (_ownedTokens[owner][index].addr, _ownedTokens[owner][index].id);\n  }\n\n  function withdraw(address nftAddr, uint nftId, address to) external onlyOwner {\n    IERC721(nftAddr).transferFrom(address(this), to, nftId);\n  }\n}",
  "sourcePath": "/Users/yxf/app/uniarts-eth-dao/contracts/Pin.sol",
  "compiler": {
    "name": "solc",
    "version": "0.8.4+commit.c7e474f2.Emscripten.clang"
  },
  "schemaVersion": "3.2.3",
  "updatedAt": "2021-11-01T14:58:08.634Z",
  "devdoc": {
    "kind": "dev",
    "methods": {
      "owner()": {
        "details": "Returns the address of the current owner."
      },
      "renounceOwnership()": {
        "details": "Leaves the contract without owner. It will not be possible to call `onlyOwner` functions anymore. Can only be called by the current owner. NOTE: Renouncing ownership will leave the contract without an owner, thereby removing any functionality that is only available to the owner."
      },
      "transferOwnership(address)": {
        "details": "Transfers ownership of the contract to a new account (`newOwner`). Can only be called by the current owner."
      }
    },
    "version": 1
  },
  "userdoc": {
    "kind": "user",
    "methods": {},
    "version": 1
  }
}