{
  "contractName": "ResellMarketplace",
  "abi": [
    {
      "anonymous": false,
      "inputs": [
        {
          "indexed": false,
          "internalType": "uint256",
          "name": "offerId",
          "type": "uint256"
        }
      ],
      "name": "CloseOffer",
      "type": "event"
    },
    {
      "anonymous": false,
      "inputs": [
        {
          "indexed": false,
          "internalType": "uint256",
          "name": "offerId",
          "type": "uint256"
        }
      ],
      "name": "ItemBought",
      "type": "event"
    },
    {
      "anonymous": false,
      "inputs": [
        {
          "indexed": false,
          "internalType": "uint256",
          "name": "offerId",
          "type": "uint256"
        }
      ],
      "name": "NewOffer",
      "type": "event"
    },
    {
      "anonymous": false,
      "inputs": [
        {
          "indexed": true,
          "internalType": "address",
          "name": "previousOwner",
          "type": "address"
        },
        {
          "indexed": true,
          "internalType": "address",
          "name": "newOwner",
          "type": "address"
        }
      ],
      "name": "OwnershipTransferred",
      "type": "event"
    },
    {
      "inputs": [],
      "name": "bitfilxNFTContractAddress",
      "outputs": [
        {
          "internalType": "address",
          "name": "",
          "type": "address"
        }
      ],
      "stateMutability": "view",
      "type": "function"
    },
    {
      "inputs": [],
      "name": "isMarketPlaceOpen",
      "outputs": [
        {
          "internalType": "bool",
          "name": "",
          "type": "bool"
        }
      ],
      "stateMutability": "view",
      "type": "function"
    },
    {
      "inputs": [],
      "name": "marketplaceFee",
      "outputs": [
        {
          "internalType": "uint256",
          "name": "",
          "type": "uint256"
        }
      ],
      "stateMutability": "view",
      "type": "function"
    },
    {
      "inputs": [],
      "name": "minPrice",
      "outputs": [
        {
          "internalType": "uint256",
          "name": "",
          "type": "uint256"
        }
      ],
      "stateMutability": "view",
      "type": "function"
    },
    {
      "inputs": [
        {
          "internalType": "uint256",
          "name": "",
          "type": "uint256"
        }
      ],
      "name": "offers",
      "outputs": [
        {
          "internalType": "uint256",
          "name": "itemId",
          "type": "uint256"
        },
        {
          "internalType": "uint256",
          "name": "price",
          "type": "uint256"
        },
        {
          "internalType": "address payable",
          "name": "seller",
          "type": "address"
        },
        {
          "internalType": "address payable",
          "name": "buyer",
          "type": "address"
        },
        {
          "internalType": "bool",
          "name": "isOpen",
          "type": "bool"
        }
      ],
      "stateMutability": "view",
      "type": "function"
    },
    {
      "inputs": [],
      "name": "owner",
      "outputs": [
        {
          "internalType": "address",
          "name": "",
          "type": "address"
        }
      ],
      "stateMutability": "view",
      "type": "function"
    },
    {
      "inputs": [],
      "name": "payCoinContractAddress",
      "outputs": [
        {
          "internalType": "address",
          "name": "",
          "type": "address"
        }
      ],
      "stateMutability": "view",
      "type": "function"
    },
    {
      "inputs": [],
      "name": "payCoinSymbol",
      "outputs": [
        {
          "internalType": "string",
          "name": "",
          "type": "string"
        }
      ],
      "stateMutability": "view",
      "type": "function"
    },
    {
      "inputs": [],
      "name": "renounceOwnership",
      "outputs": [],
      "stateMutability": "nonpayable",
      "type": "function"
    },
    {
      "inputs": [
        {
          "internalType": "address",
          "name": "newOwner",
          "type": "address"
        }
      ],
      "name": "transferOwnership",
      "outputs": [],
      "stateMutability": "nonpayable",
      "type": "function"
    },
    {
      "inputs": [
        {
          "internalType": "address",
          "name": "",
          "type": "address"
        },
        {
          "internalType": "uint256",
          "name": "",
          "type": "uint256"
        }
      ],
      "name": "usersToOffersId",
      "outputs": [
        {
          "internalType": "uint256",
          "name": "",
          "type": "uint256"
        }
      ],
      "stateMutability": "view",
      "type": "function"
    },
    {
      "inputs": [
        {
          "internalType": "uint256",
          "name": "itemId",
          "type": "uint256"
        },
        {
          "internalType": "uint256",
          "name": "price",
          "type": "uint256"
        }
      ],
      "name": "createOffer",
      "outputs": [],
      "stateMutability": "nonpayable",
      "type": "function"
    },
    {
      "inputs": [
        {
          "internalType": "uint256",
          "name": "offerId",
          "type": "uint256"
        }
      ],
      "name": "closeOffer",
      "outputs": [],
      "stateMutability": "nonpayable",
      "type": "function"
    },
    {
      "inputs": [
        {
          "internalType": "uint256",
          "name": "offerId",
          "type": "uint256"
        }
      ],
      "name": "buyItem",
      "outputs": [],
      "stateMutability": "nonpayable",
      "type": "function"
    },
    {
      "inputs": [
        {
          "internalType": "address",
          "name": "newBitflixNFTContractAddress",
          "type": "address"
        }
      ],
      "name": "setBitflixNFTContractAddress",
      "outputs": [],
      "stateMutability": "nonpayable",
      "type": "function"
    },
    {
      "inputs": [
        {
          "internalType": "string",
          "name": "newpayCoinSymbol",
          "type": "string"
        },
        {
          "internalType": "address",
          "name": "newPayCoinContractAddress",
          "type": "address"
        }
      ],
      "name": "setPayCoinContractAddress",
      "outputs": [],
      "stateMutability": "nonpayable",
      "type": "function"
    },
    {
      "inputs": [],
      "name": "openMarketplace",
      "outputs": [],
      "stateMutability": "nonpayable",
      "type": "function"
    },
    {
      "inputs": [],
      "name": "closeMarketplace",
      "outputs": [],
      "stateMutability": "nonpayable",
      "type": "function"
    },
    {
      "inputs": [],
      "name": "withdrawFunds",
      "outputs": [],
      "stateMutability": "nonpayable",
      "type": "function"
    },
    {
      "inputs": [],
      "name": "withdrawCoins",
      "outputs": [],
      "stateMutability": "nonpayable",
      "type": "function"
    },
    {
      "inputs": [],
      "name": "getOffersTotal",
      "outputs": [
        {
          "internalType": "uint256",
          "name": "",
          "type": "uint256"
        }
      ],
      "stateMutability": "view",
      "type": "function"
    },
    {
      "inputs": [
        {
          "internalType": "uint256",
          "name": "offerId",
          "type": "uint256"
        }
      ],
      "name": "getOffer",
      "outputs": [
        {
          "internalType": "uint256",
          "name": "itemId",
          "type": "uint256"
        },
        {
          "internalType": "uint256",
          "name": "price",
          "type": "uint256"
        },
        {
          "internalType": "address",
          "name": "seller",
          "type": "address"
        },
        {
          "internalType": "address",
          "name": "buyer",
          "type": "address"
        },
        {
          "internalType": "bool",
          "name": "isOpen",
          "type": "bool"
        }
      ],
      "stateMutability": "view",
      "type": "function"
    }
  ],
  "bytecode": "0x60806040526000600160006101000a81548173ffffffffffffffffffffffffffffffffffffffff021916908373ffffffffffffffffffffffffffffffffffffffff1602179055506000600360006101000a81548173ffffffffffffffffffffffffffffffffffffffff021916908373ffffffffffffffffffffffffffffffffffffffff1602179055506000600360146101000a81548160ff0219169083151502179055506103e8600455612710600555348015620000bc57600080fd5b50620000dd620000d1620000e360201b60201c565b620000eb60201b60201c565b620001af565b600033905090565b60008060009054906101000a900473ffffffffffffffffffffffffffffffffffffffff169050816000806101000a81548173ffffffffffffffffffffffffffffffffffffffff021916908373ffffffffffffffffffffffffffffffffffffffff1602179055508173ffffffffffffffffffffffffffffffffffffffff168173ffffffffffffffffffffffffffffffffffffffff167f8be0079c531659141344cd1fd0a4f28419497f9722a3daafe3b4186f6b6457e060405160405180910390a35050565b6130f880620001bf6000396000f3fe608060405234801561001057600080fd5b50600436106101425760003560e01c8063715018a6116100b8578063c8eedd9a1161007c578063c8eedd9a1461030d578063d8b049fe1461032b578063e45be8eb14610349578063e7fb74c714610367578063f2fde38b14610383578063ffbb62a31461039f57610142565b8063715018a6146102895780638a72ea6a146102935780638da5cb5b146102c757806396d121b7146102e5578063c5b49a731461030357610142565b806331fdbd241161010a57806331fdbd24146101b157806339869209146101cf57806342bcb691146101eb5780634579268a14610207578063561ff2001461023b5780636a1669641461026b57610142565b806305477ddf146101475780630a3d007914610163578063163edd38146101815780631afed8751461018b57806324600fc3146101a7575b600080fd5b610161600480360381019061015c9190612536565b6103a9565b005b61016b61060e565b6040516101789190612ac7565b60405180910390f35b61018961061b565b005b6101a560048036038101906101a09190612588565b6106b4565b005b6101af610b61565b005b6101b9610c2d565b6040516101c691906128ea565b60405180910390f35b6101e960048036038101906101e49190612427565b610c40565b005b610205600480360381019061020091906124de565b610d70565b005b610221600480360381019061021c9190612536565b610eb4565b604051610232959493929190612b35565b60405180910390f35b61025560048036038101906102509190612479565b611098565b6040516102629190612ac7565b60405180910390f35b6102736110c9565b6040516102809190612ac7565b60405180910390f35b6102916110cf565b005b6102ad60048036038101906102a89190612536565b611157565b6040516102be959493929190612ae2565b60405180910390f35b6102cf6111ea565b6040516102dc919061280f565b60405180910390f35b6102ed611213565b6040516102fa919061280f565b60405180910390f35b61030b611239565b005b6103156113f6565b6040516103229190612905565b60405180910390f35b610333611484565b604051610340919061280f565b60405180910390f35b6103516114aa565b60405161035e9190612ac7565b60405180910390f35b610381600480360381019061037c9190612536565b6114b0565b005b61039d60048036038101906103989190612427565b611f18565b005b6103a7612010565b005b60011515600360149054906101000a900460ff161515146103ff576040517f08c379a00000000000000000000000000000000000000000000000000000000081526004016103f690612aa7565b60405180910390fd5b60068181548110610439577f4e487b7100000000000000000000000000000000000000000000000000000000600052603260045260246000fd5b906000526020600020906004020160030160149054906101000a900460ff16610497576040517f08c379a000000000000000000000000000000000000000000000000000000000815260040161048e90612a47565b60405180910390fd5b3373ffffffffffffffffffffffffffffffffffffffff16600682815481106104e8577f4e487b7100000000000000000000000000000000000000000000000000000000600052603260045260246000fd5b906000526020600020906004020160020160009054906101000a900473ffffffffffffffffffffffffffffffffffffffff1673ffffffffffffffffffffffffffffffffffffffff1614610570576040517f08c379a000000000000000000000000000000000000000000000000000000000815260040161056790612a67565b60405180910390fd5b6000600682815481106105ac577f4e487b7100000000000000000000000000000000000000000000000000000000600052603260045260246000fd5b906000526020600020906004020160030160146101000a81548160ff0219169083151502179055507f7f501b3628443cc9556da1d5744140c295120a54f5aa01e220363dd568e84783816040516106039190612ac7565b60405180910390a150565b6000600680549050905090565b6106236121d9565b73ffffffffffffffffffffffffffffffffffffffff166106416111ea565b73ffffffffffffffffffffffffffffffffffffffff1614610697576040517f08c379a000000000000000000000000000000000000000000000000000000000815260040161068e90612a27565b60405180910390fd5b6000600360146101000a81548160ff021916908315150217905550565b60011515600360149054906101000a900460ff1615151461070a576040517f08c379a000000000000000000000000000000000000000000000000000000000815260040161070190612aa7565b60405180910390fd5b6000600160009054906101000a900473ffffffffffffffffffffffffffffffffffffffff1690503373ffffffffffffffffffffffffffffffffffffffff168173ffffffffffffffffffffffffffffffffffffffff16636352211e856040518263ffffffff1660e01b81526004016107819190612ac7565b60206040518083038186803b15801561079957600080fd5b505afa1580156107ad573d6000803e3d6000fd5b505050506040513d601f19601f820116820180604052508101906107d19190612450565b73ffffffffffffffffffffffffffffffffffffffff1614610827576040517f08c379a000000000000000000000000000000000000000000000000000000000815260040161081e90612987565b60405180910390fd5b3073ffffffffffffffffffffffffffffffffffffffff168173ffffffffffffffffffffffffffffffffffffffff1663081812fc856040518263ffffffff1660e01b81526004016108779190612ac7565b60206040518083038186803b15801561088f57600080fd5b505afa1580156108a3573d6000803e3d6000fd5b505050506040513d601f19601f820116820180604052508101906108c79190612450565b73ffffffffffffffffffffffffffffffffffffffff161461091d576040517f08c379a000000000000000000000000000000000000000000000000000000000815260040161091490612a07565b60405180910390fd5b600554821015610962576040517f08c379a000000000000000000000000000000000000000000000000000000000815260040161095990612a87565b60405180910390fd5b60066040518060a001604052808581526020018481526020013373ffffffffffffffffffffffffffffffffffffffff168152602001600073ffffffffffffffffffffffffffffffffffffffff168152602001600115158152509080600181540180825580915050600190039060005260206000209060040201600090919091909150600082015181600001556020820151816001015560408201518160020160006101000a81548173ffffffffffffffffffffffffffffffffffffffff021916908373ffffffffffffffffffffffffffffffffffffffff16021790555060608201518160030160006101000a81548173ffffffffffffffffffffffffffffffffffffffff021916908373ffffffffffffffffffffffffffffffffffffffff16021790555060808201518160030160146101000a81548160ff021916908315150217905550505060006001600680549050610abc9190612c2f565b9050600760003373ffffffffffffffffffffffffffffffffffffffff1673ffffffffffffffffffffffffffffffffffffffff1681526020019081526020016000208190806001815401808255809150506001900390600052602060002001600090919091909150557fc3e96d1275e81254d707531f5025b9b6d01f2bec370e5ff07979d37afbd3ee4181604051610b539190612ac7565b60405180910390a150505050565b610b696121d9565b73ffffffffffffffffffffffffffffffffffffffff16610b876111ea565b73ffffffffffffffffffffffffffffffffffffffff1614610bdd576040517f08c379a0000000000000000000000000000000000000000000000000000000008152600401610bd490612a27565b60405180910390fd5b610be56111ea565b73ffffffffffffffffffffffffffffffffffffffff166108fc479081150290604051600060405180830381858888f19350505050158015610c2a573d6000803e3d6000fd5b50565b600360149054906101000a900460ff1681565b610c486121d9565b73ffffffffffffffffffffffffffffffffffffffff16610c666111ea565b73ffffffffffffffffffffffffffffffffffffffff1614610cbc576040517f08c379a0000000000000000000000000000000000000000000000000000000008152600401610cb390612a27565b60405180910390fd5b600073ffffffffffffffffffffffffffffffffffffffff168173ffffffffffffffffffffffffffffffffffffffff161415610d2c576040517f08c379a0000000000000000000000000000000000000000000000000000000008152600401610d2390612947565b60405180910390fd5b80600160006101000a81548173ffffffffffffffffffffffffffffffffffffffff021916908373ffffffffffffffffffffffffffffffffffffffff16021790555050565b610d786121d9565b73ffffffffffffffffffffffffffffffffffffffff16610d966111ea565b73ffffffffffffffffffffffffffffffffffffffff1614610dec576040517f08c379a0000000000000000000000000000000000000000000000000000000008152600401610de390612a27565b60405180910390fd5b600073ffffffffffffffffffffffffffffffffffffffff168173ffffffffffffffffffffffffffffffffffffffff161415610e5c576040517f08c379a0000000000000000000000000000000000000000000000000000000008152600401610e5390612947565b60405180910390fd5b80600360006101000a81548173ffffffffffffffffffffffffffffffffffffffff021916908373ffffffffffffffffffffffffffffffffffffffff160217905550828260029190610eae9291906122d1565b50505050565b600080600080600060068681548110610ef6577f4e487b7100000000000000000000000000000000000000000000000000000000600052603260045260246000fd5b90600052602060002090600402016000015460068781548110610f42577f4e487b7100000000000000000000000000000000000000000000000000000000600052603260045260246000fd5b90600052602060002090600402016001015460068881548110610f8e577f4e487b7100000000000000000000000000000000000000000000000000000000600052603260045260246000fd5b906000526020600020906004020160020160009054906101000a900473ffffffffffffffffffffffffffffffffffffffff1660068981548110610ffa577f4e487b7100000000000000000000000000000000000000000000000000000000600052603260045260246000fd5b906000526020600020906004020160030160009054906101000a900473ffffffffffffffffffffffffffffffffffffffff1660068a81548110611066577f4e487b7100000000000000000000000000000000000000000000000000000000600052603260045260246000fd5b906000526020600020906004020160030160149054906101000a900460ff169450945094509450945091939590929450565b600760205281600052604060002081815481106110b457600080fd5b90600052602060002001600091509150505481565b60045481565b6110d76121d9565b73ffffffffffffffffffffffffffffffffffffffff166110f56111ea565b73ffffffffffffffffffffffffffffffffffffffff161461114b576040517f08c379a000000000000000000000000000000000000000000000000000000000815260040161114290612a27565b60405180910390fd5b61115560006121e1565b565b6006818154811061116757600080fd5b90600052602060002090600402016000915090508060000154908060010154908060020160009054906101000a900473ffffffffffffffffffffffffffffffffffffffff16908060030160009054906101000a900473ffffffffffffffffffffffffffffffffffffffff16908060030160149054906101000a900460ff16905085565b60008060009054906101000a900473ffffffffffffffffffffffffffffffffffffffff16905090565b600360009054906101000a900473ffffffffffffffffffffffffffffffffffffffff1681565b6112416121d9565b73ffffffffffffffffffffffffffffffffffffffff1661125f6111ea565b73ffffffffffffffffffffffffffffffffffffffff16146112b5576040517f08c379a00000000000000000000000000000000000000000000000000000000081526004016112ac90612a27565b60405180910390fd5b600073ffffffffffffffffffffffffffffffffffffffff16600160009054906101000a900473ffffffffffffffffffffffffffffffffffffffff1673ffffffffffffffffffffffffffffffffffffffff161415611347576040517f08c379a000000000000000000000000000000000000000000000000000000000815260040161133e906129e7565b60405180910390fd5b600073ffffffffffffffffffffffffffffffffffffffff16600360009054906101000a900473ffffffffffffffffffffffffffffffffffffffff1673ffffffffffffffffffffffffffffffffffffffff1614156113d9576040517f08c379a00000000000000000000000000000000000000000000000000000000081526004016113d0906129a7565b60405180910390fd5b6001600360146101000a81548160ff021916908315150217905550565b6002805461140390612d26565b80601f016020809104026020016040519081016040528092919081815260200182805461142f90612d26565b801561147c5780601f106114515761010080835404028352916020019161147c565b820191906000526020600020905b81548152906001019060200180831161145f57829003601f168201915b505050505081565b600160009054906101000a900473ffffffffffffffffffffffffffffffffffffffff1681565b60055481565b60011515600360149054906101000a900460ff16151514611506576040517f08c379a00000000000000000000000000000000000000000000000000000000081526004016114fd90612aa7565b60405180910390fd5b6000600160009054906101000a900473ffffffffffffffffffffffffffffffffffffffff1690506000600360009054906101000a900473ffffffffffffffffffffffffffffffffffffffff1690503073ffffffffffffffffffffffffffffffffffffffff168273ffffffffffffffffffffffffffffffffffffffff1663081812fc600686815481106115c1577f4e487b7100000000000000000000000000000000000000000000000000000000600052603260045260246000fd5b9060005260206000209060040201600001546040518263ffffffff1660e01b81526004016115ef9190612ac7565b60206040518083038186803b15801561160757600080fd5b505afa15801561161b573d6000803e3d6000fd5b505050506040513d601f19601f8201168201806040525081019061163f9190612450565b73ffffffffffffffffffffffffffffffffffffffff1614611695576040517f08c379a000000000000000000000000000000000000000000000000000000000815260040161168c90612a07565b60405180910390fd5b60008173ffffffffffffffffffffffffffffffffffffffff1663dd62ed3e33306040518363ffffffff1660e01b81526004016116d2929190612898565b60206040518083038186803b1580156116ea57600080fd5b505afa1580156116fe573d6000803e3d6000fd5b505050506040513d601f19601f82011682018060405250810190611722919061255f565b90506006848154811061175e577f4e487b7100000000000000000000000000000000000000000000000000000000600052603260045260246000fd5b9060005260206000209060040201600101548110156117b2576040517f08c379a00000000000000000000000000000000000000000000000000000000081526004016117a9906129c7565b60405180910390fd5b60008273ffffffffffffffffffffffffffffffffffffffff166370a08231336040518263ffffffff1660e01b81526004016117ed919061280f565b60206040518083038186803b15801561180557600080fd5b505afa158015611819573d6000803e3d6000fd5b505050506040513d601f19601f8201168201806040525081019061183d919061255f565b905060068581548110611879577f4e487b7100000000000000000000000000000000000000000000000000000000600052603260045260246000fd5b9060005260206000209060040201600101548110156118cd576040517f08c379a00000000000000000000000000000000000000000000000000000000081526004016118c490612967565b60405180910390fd5b60068581548110611907577f4e487b7100000000000000000000000000000000000000000000000000000000600052603260045260246000fd5b906000526020600020906004020160030160149054906101000a900460ff16611965576040517f08c379a000000000000000000000000000000000000000000000000000000000815260040161195c90612a47565b60405180910390fd5b6000600686815481106119a1577f4e487b7100000000000000000000000000000000000000000000000000000000600052603260045260246000fd5b906000526020600020906004020160030160146101000a81548160ff0219169083151502179055503360068681548110611a04577f4e487b7100000000000000000000000000000000000000000000000000000000600052603260045260246000fd5b906000526020600020906004020160030160006101000a81548173ffffffffffffffffffffffffffffffffffffffff021916908373ffffffffffffffffffffffffffffffffffffffff1602179055508373ffffffffffffffffffffffffffffffffffffffff166342842e0e60068781548110611aa9577f4e487b7100000000000000000000000000000000000000000000000000000000600052603260045260246000fd5b906000526020600020906004020160020160009054906101000a900473ffffffffffffffffffffffffffffffffffffffff1660068881548110611b15577f4e487b7100000000000000000000000000000000000000000000000000000000600052603260045260246000fd5b906000526020600020906004020160030160009054906101000a900473ffffffffffffffffffffffffffffffffffffffff1660068981548110611b81577f4e487b7100000000000000000000000000000000000000000000000000000000600052603260045260246000fd5b9060005260206000209060040201600001546040518463ffffffff1660e01b8152600401611bb19392919061282a565b600060405180830381600087803b158015611bcb57600080fd5b505af1158015611bdf573d6000803e3d6000fd5b505050506000606480611c3f60068981548110611c25577f4e487b7100000000000000000000000000000000000000000000000000000000600052603260045260246000fd5b9060005260206000209060040201600101546004546122a5565b611c499190612ba4565b611c539190612ba4565b90506000611cac60068881548110611c94577f4e487b7100000000000000000000000000000000000000000000000000000000600052603260045260246000fd5b906000526020600020906004020160010154836122bb565b90508473ffffffffffffffffffffffffffffffffffffffff166323b872dd60068981548110611d04577f4e487b7100000000000000000000000000000000000000000000000000000000600052603260045260246000fd5b906000526020600020906004020160030160009054906101000a900473ffffffffffffffffffffffffffffffffffffffff1630856040518463ffffffff1660e01b8152600401611d5693929190612861565b602060405180830381600087803b158015611d7057600080fd5b505af1158015611d84573d6000803e3d6000fd5b505050506040513d601f19601f82011682018060405250810190611da891906124b5565b508473ffffffffffffffffffffffffffffffffffffffff166323b872dd60068981548110611dff577f4e487b7100000000000000000000000000000000000000000000000000000000600052603260045260246000fd5b906000526020600020906004020160030160009054906101000a900473ffffffffffffffffffffffffffffffffffffffff1660068a81548110611e6b577f4e487b7100000000000000000000000000000000000000000000000000000000600052603260045260246000fd5b906000526020600020906004020160020160009054906101000a900473ffffffffffffffffffffffffffffffffffffffff16846040518463ffffffff1660e01b8152600401611ebc9392919061282a565b602060405180830381600087803b158015611ed657600080fd5b505af1158015611eea573d6000803e3d6000fd5b505050506040513d601f19601f82011682018060405250810190611f0e91906124b5565b5050505050505050565b611f206121d9565b73ffffffffffffffffffffffffffffffffffffffff16611f3e6111ea565b73ffffffffffffffffffffffffffffffffffffffff1614611f94576040517f08c379a0000000000000000000000000000000000000000000000000000000008152600401611f8b90612a27565b60405180910390fd5b600073ffffffffffffffffffffffffffffffffffffffff168173ffffffffffffffffffffffffffffffffffffffff161415612004576040517f08c379a0000000000000000000000000000000000000000000000000000000008152600401611ffb90612927565b60405180910390fd5b61200d816121e1565b50565b6120186121d9565b73ffffffffffffffffffffffffffffffffffffffff166120366111ea565b73ffffffffffffffffffffffffffffffffffffffff161461208c576040517f08c379a000000000000000000000000000000000000000000000000000000000815260040161208390612a27565b60405180910390fd5b6000600360009054906101000a900473ffffffffffffffffffffffffffffffffffffffff16905060008173ffffffffffffffffffffffffffffffffffffffff166370a08231306040518263ffffffff1660e01b81526004016120ee919061280f565b60206040518083038186803b15801561210657600080fd5b505afa15801561211a573d6000803e3d6000fd5b505050506040513d601f19601f8201168201806040525081019061213e919061255f565b90508173ffffffffffffffffffffffffffffffffffffffff1663a9059cbb6121646111ea565b836040518363ffffffff1660e01b81526004016121829291906128c1565b602060405180830381600087803b15801561219c57600080fd5b505af11580156121b0573d6000803e3d6000fd5b505050506040513d601f19601f820116820180604052508101906121d491906124b5565b505050565b600033905090565b60008060009054906101000a900473ffffffffffffffffffffffffffffffffffffffff169050816000806101000a81548173ffffffffffffffffffffffffffffffffffffffff021916908373ffffffffffffffffffffffffffffffffffffffff1602179055508173ffffffffffffffffffffffffffffffffffffffff168173ffffffffffffffffffffffffffffffffffffffff167f8be0079c531659141344cd1fd0a4f28419497f9722a3daafe3b4186f6b6457e060405160405180910390a35050565b600081836122b39190612bd5565b905092915050565b600081836122c99190612c2f565b905092915050565b8280546122dd90612d26565b90600052602060002090601f0160209004810192826122ff5760008555612346565b82601f1061231857803560ff1916838001178555612346565b82800160010185558215612346579182015b8281111561234557823582559160200191906001019061232a565b5b5090506123539190612357565b5090565b5b80821115612370576000816000905550600101612358565b5090565b6000813590506123838161307d565b92915050565b6000815190506123988161307d565b92915050565b6000815190506123ad81613094565b92915050565b60008083601f8401126123c557600080fd5b8235905067ffffffffffffffff8111156123de57600080fd5b6020830191508360018202830111156123f657600080fd5b9250929050565b60008135905061240c816130ab565b92915050565b600081519050612421816130ab565b92915050565b60006020828403121561243957600080fd5b600061244784828501612374565b91505092915050565b60006020828403121561246257600080fd5b600061247084828501612389565b91505092915050565b6000806040838503121561248c57600080fd5b600061249a85828601612374565b92505060206124ab858286016123fd565b9150509250929050565b6000602082840312156124c757600080fd5b60006124d58482850161239e565b91505092915050565b6000806000604084860312156124f357600080fd5b600084013567ffffffffffffffff81111561250d57600080fd5b612519868287016123b3565b9350935050602061252c86828701612374565b9150509250925092565b60006020828403121561254857600080fd5b6000612556848285016123fd565b91505092915050565b60006020828403121561257157600080fd5b600061257f84828501612412565b91505092915050565b6000806040838503121561259b57600080fd5b60006125a9858286016123fd565b92505060206125ba858286016123fd565b9150509250929050565b6125cd81612cbd565b82525050565b6125dc81612c75565b82525050565b6125eb81612c63565b82525050565b6125fa81612c87565b82525050565b600061260b82612b88565b6126158185612b93565b9350612625818560208601612cf3565b61262e81612de5565b840191505092915050565b6000612646602683612b93565b915061265182612df6565b604082019050919050565b6000612669601f83612b93565b915061267482612e45565b602082019050919050565b600061268c601983612b93565b915061269782612e6e565b602082019050919050565b60006126af601d83612b93565b91506126ba82612e97565b602082019050919050565b60006126d2602483612b93565b91506126dd82612ec0565b604082019050919050565b60006126f5601983612b93565b915061270082612f0f565b602082019050919050565b6000612718601b83612b93565b915061272382612f38565b602082019050919050565b600061273b602b83612b93565b915061274682612f61565b604082019050919050565b600061275e602083612b93565b915061276982612fb0565b602082019050919050565b6000612781600f83612b93565b915061278c82612fd9565b602082019050919050565b60006127a4601e83612b93565b91506127af82613002565b602082019050919050565b60006127c7601083612b93565b91506127d28261302b565b602082019050919050565b60006127ea601583612b93565b91506127f582613054565b602082019050919050565b61280981612cb3565b82525050565b600060208201905061282460008301846125e2565b92915050565b600060608201905061283f60008301866125c4565b61284c60208301856125c4565b6128596040830184612800565b949350505050565b600060608201905061287660008301866125c4565b61288360208301856125e2565b6128906040830184612800565b949350505050565b60006040820190506128ad60008301856125e2565b6128ba60208301846125e2565b9392505050565b60006040820190506128d660008301856125e2565b6128e36020830184612800565b9392505050565b60006020820190506128ff60008301846125f1565b92915050565b6000602082019050818103600083015261291f8184612600565b905092915050565b6000602082019050818103600083015261294081612639565b9050919050565b600060208201905081810360008301526129608161265c565b9050919050565b600060208201905081810360008301526129808161267f565b9050919050565b600060208201905081810360008301526129a0816126a2565b9050919050565b600060208201905081810360008301526129c0816126c5565b9050919050565b600060208201905081810360008301526129e0816126e8565b9050919050565b60006020820190508181036000830152612a008161270b565b9050919050565b60006020820190508181036000830152612a208161272e565b9050919050565b60006020820190508181036000830152612a4081612751565b9050919050565b60006020820190508181036000830152612a6081612774565b9050919050565b60006020820190508181036000830152612a8081612797565b9050919050565b60006020820190508181036000830152612aa0816127ba565b9050919050565b60006020820190508181036000830152612ac0816127dd565b9050919050565b6000602082019050612adc6000830184612800565b92915050565b600060a082019050612af76000830188612800565b612b046020830187612800565b612b1160408301866125d3565b612b1e60608301856125d3565b612b2b60808301846125f1565b9695505050505050565b600060a082019050612b4a6000830188612800565b612b576020830187612800565b612b6460408301866125e2565b612b7160608301856125e2565b612b7e60808301846125f1565b9695505050505050565b600081519050919050565b600082825260208201905092915050565b6000612baf82612cb3565b9150612bba83612cb3565b925082612bca57612bc9612d87565b5b828204905092915050565b6000612be082612cb3565b9150612beb83612cb3565b9250817fffffffffffffffffffffffffffffffffffffffffffffffffffffffffffffffff0483118215151615612c2457612c23612d58565b5b828202905092915050565b6000612c3a82612cb3565b9150612c4583612cb3565b925082821015612c5857612c57612d58565b5b828203905092915050565b6000612c6e82612c93565b9050919050565b6000612c8082612c93565b9050919050565b60008115159050919050565b600073ffffffffffffffffffffffffffffffffffffffff82169050919050565b6000819050919050565b6000612cc882612ccf565b9050919050565b6000612cda82612ce1565b9050919050565b6000612cec82612c93565b9050919050565b60005b83811015612d11578082015181840152602081019050612cf6565b83811115612d20576000848401525b50505050565b60006002820490506001821680612d3e57607f821691505b60208210811415612d5257612d51612db6565b5b50919050565b7f4e487b7100000000000000000000000000000000000000000000000000000000600052601160045260246000fd5b7f4e487b7100000000000000000000000000000000000000000000000000000000600052601260045260246000fd5b7f4e487b7100000000000000000000000000000000000000000000000000000000600052602260045260246000fd5b6000601f19601f8301169050919050565b7f4f776e61626c653a206e6577206f776e657220697320746865207a65726f206160008201527f6464726573730000000000000000000000000000000000000000000000000000602082015250565b7f436f6e747261637420616464726573732063616e6e6f74206265206e756c6c00600082015250565b7f436865636b2074686520746f6b656e2062616c616e63654f6600000000000000600082015250565b7f53656e64657220646f6573206e6f74206f776e2074686973206974656d000000600082015250565b7f50617920436f696e20436f6e74726163742061646472657373206973206e6f7460008201527f2073657400000000000000000000000000000000000000000000000000000000602082015250565b7f436865636b2074686520746f6b656e20616c6c6f77616e636500000000000000600082015250565b7f436f6e74726163742061646472657373206973206e6f74207365740000000000600082015250565b7f576520646f206e6f74206861766520617070726f76616c20746f206d616e616760008201527f652074686973206974656d000000000000000000000000000000000000000000602082015250565b7f4f776e61626c653a2063616c6c6572206973206e6f7420746865206f776e6572600082015250565b7f4f6666657220697320636c6f7365640000000000000000000000000000000000600082015250565b7f53656e64657220646f6573206e6f74206f776e2074686973206f666665720000600082015250565b7f507269636520697320746f6f206c6f7700000000000000000000000000000000600082015250565b7f4d61726b6574706c61636520697320636c6f7365640000000000000000000000600082015250565b61308681612c63565b811461309157600080fd5b50565b61309d81612c87565b81146130a857600080fd5b50565b6130b481612cb3565b81146130bf57600080fd5b5056fea2646970667358221220a82a1a080ae0f5dd7e3a0591bb72de1598c8a22d671533a90ca258c626337ff664736f6c63430008040033",
  "immutableReferences": {},
  "source": "// SPDX-License-Identifier: MIT\npragma solidity ^0.8.0;\n\nimport \"@openzeppelin/contracts/access/Ownable.sol\";\nimport \"@openzeppelin/contracts/utils/math/SafeMath.sol\";\nimport \"@openzeppelin/contracts/token/ERC20/IERC20.sol\";\nimport \"./UniartsNFTInterface.sol\";\n\n/**\n * @title A small marketplace allowing users to buy and sell a specific ERC721 token\n * @dev For this example, we are using a fictional token called BitflixNFT\n * @author Pickle Solutions https://github.com/picklesolutions\n */\ncontract ResellMarketplace is Ownable {\n  /* Our events */\n  event NewOffer(uint offerId);\n  event CloseOffer(uint offerId);\n  event ItemBought(uint offerId);\n\n  /* The address of our ERC721 token contract */\n  address public bitfilxNFTContractAddress = address(0);\n\n  /* The address of Pay erc20 token contract */\n  string public payCoinSymbol;\n  address public payCoinContractAddress = address(0);\n\n  /* If we need to freeze the marketplace for any reason */\n  bool public isMarketPlaceOpen = false;\n\n  /* Our fee (the value is divided by 100, so 100 is 10%) */\n  uint public marketplaceFee = 1000;\n\n  /* The minimum sale price (in Wei) */\n  uint public minPrice = 10000;\n\n  /* The structure of our offers */\n  struct Offer {\n    uint itemId;\n    uint price;\n    address payable seller;\n    address payable buyer;\n    bool isOpen;\n  }\n\n  /* All the offers are stored here */\n  Offer[] public offers;\n\n  /* We keep track of every offers for every users */\n  mapping (address => uint[]) public usersToOffersId;\n\n  /**\n   * @dev Puts an item on the marketplace\n   * @param itemId The id of the item\n   * @param price The price expected by the seller\n   */\n  function createOffer(\n    uint itemId,\n    uint price\n  ) external whenMarketIsOpen() {\n    /* Let's talk to our token contract */\n    BitflixNFTInterface bitfilxNFT = BitflixNFTInterface(bitfilxNFTContractAddress);\n\n    /* We need to be sure that the sender is the actual owner of the token */\n    require(\n      bitfilxNFT.ownerOf(itemId) == msg.sender,\n      \"Sender does not own this item\"\n    );\n\n    /* Are we approved to manage this item? */\n    require(\n      bitfilxNFT.getApproved(itemId) == address(this),\n      \"We do not have approval to manage this item\"\n    );\n\n    /* Is the selling price abovee the minimum price? */\n    require(price >= minPrice, \"Price is too low\");\n\n    /* We push the offer into our array */\n    offers.push(Offer({itemId: itemId, price: price, seller: payable(msg.sender), buyer: payable(address(0)), isOpen: true })) ;\n\n    uint offerId = offers.length - 1;\n\n    /* We keep track of offers from users */\n    usersToOffersId[msg.sender].push(offerId);\n\n    /* We tell the world there is a new offer */\n    emit NewOffer(offerId);\n  }\n\n  /**\n   * @dev close an Offer\n   * @param offerId The id of the offer\n   */\n  function closeOffer(\n    uint offerId\n  ) external whenMarketIsOpen() {\n    /* Is the offer still open? */\n    require(offers[offerId].isOpen, \"Offer is closed\");\n\n    /* Is the offer is owner */\n    require(offers[offerId].seller == msg.sender , \"Sender does not own this offer\");\n\n    /* We close the offer and register the buyer */\n    offers[offerId].isOpen = false;\n\n    /* We tell the world there is a cancel offer */\n    emit CloseOffer(offerId);\n  }\n\n  /**\n   * @dev Buys an item\n   * @param offerId The id of the offer\n   */\n  function buyItem(\n    uint offerId\n  ) external whenMarketIsOpen() {\n    /* Let's talk to our token contract */\n    BitflixNFTInterface bitfilxNFT = BitflixNFTInterface(bitfilxNFTContractAddress);\n\n    IERC20 payCoin = IERC20(payCoinContractAddress);\n\n    /* Are we still able to manage this item? */\n    require(\n      bitfilxNFT.getApproved(offers[offerId].itemId) == address(this),\n      \"We do not have approval to manage this item\"\n    );\n\n    /* Did the buyer send enough funds? */\n    uint256 allowance = payCoin.allowance(msg.sender, address(this));\n    require(allowance >= offers[offerId].price, \"Check the token allowance\");\n\n    uint256 coin_balance = payCoin.balanceOf(msg.sender);\n    require(coin_balance >= offers[offerId].price, \"Check the token balanceOf\");\n\n    /* Is the offer still open? */\n    require(offers[offerId].isOpen, \"Offer is closed\");\n\n    /* We close the offer and register the buyer */\n    offers[offerId].isOpen = false;\n    offers[offerId].buyer = payable(msg.sender);\n\n    /* We transfer the item from the seller to the buyer */\n    bitfilxNFT.safeTransferFrom(\n      offers[offerId].seller,\n      offers[offerId].buyer,\n      offers[offerId].itemId\n    );\n\n    /* This is our fee */\n    uint txFee = SafeMath.mul(\n      offers[offerId].price,\n      marketplaceFee\n    ) / 100 / 100;\n\n    /* This is the profit made by the seller */\n    uint profit = SafeMath.sub(\n      offers[offerId].price,\n      txFee\n    );\n\n    /* buyer pay coin */\n    payCoin.transferFrom(offers[offerId].buyer, address(this), txFee);\n    \n    /* We give the seller his money */\n    payCoin.transferFrom(offers[offerId].buyer, offers[offerId].seller, profit);\n  }\n\n  /**\n   * @dev Sets the address of our ERC721 token contract\n   * @param newBitflixNFTContractAddress The address of the contract\n   */\n  function setBitflixNFTContractAddress(\n    address newBitflixNFTContractAddress\n  ) external onlyOwner() {\n    /* The address cannot be null */\n    require(newBitflixNFTContractAddress != address(0), \"Contract address cannot be null\");\n\n    /* We set the address */\n    bitfilxNFTContractAddress = newBitflixNFTContractAddress;\n  }\n\n  /**\n   * @dev Sets the address of Pay erc20 token contract\n   * @param newPayCoinContractAddress The address of the contract\n   */\n  function setPayCoinContractAddress(\n    string calldata newpayCoinSymbol,\n    address newPayCoinContractAddress\n  ) external onlyOwner() {\n    /* The address cannot be null */\n    require(newPayCoinContractAddress != address(0), \"Contract address cannot be null\");\n\n    /* We set the address */\n    payCoinContractAddress = newPayCoinContractAddress;\n    payCoinSymbol = newpayCoinSymbol;\n  }\n\n  /**\n   * @dev Opens the market if the contract address is correct\n   */\n  function openMarketplace() external onlyOwner() {\n    require(bitfilxNFTContractAddress != address(0), \"Contract address is not set\");\n    require(payCoinContractAddress != address(0), \"Pay Coin Contract address is not set\");\n\n    isMarketPlaceOpen = true;\n  }\n\n  /**\n   * @dev Closes the market\n   */\n  function closeMarketplace() external onlyOwner() {\n    isMarketPlaceOpen = false;\n  }\n\n  /**\n   * @dev Lets the owner withdraw his funds\n   */\n  function withdrawFunds() external onlyOwner() {\n    payable(owner()).transfer(address(this).balance);\n  }\n\n  /**\n   * @dev Lets the owner withdraw his coins\n   */\n  function withdrawCoins() external onlyOwner() {\n    IERC20 payCoin = IERC20(payCoinContractAddress);\n    uint256 coin_balance = payCoin.balanceOf(address(this));\n    payCoin.transfer(address(uint160(owner())), coin_balance);\n  }\n\n  /**\n   * @dev Returns the offers\n   */\n  function getOffersTotal() external view returns (uint) {\n    return offers.length;\n  }\n\n  function getOffer(uint offerId) external view returns (\n    uint itemId,\n    uint price,\n    address seller,\n    address buyer,\n    bool isOpen\n  ) {\n    return (\n      offers[offerId].itemId,\n      offers[offerId].price,\n      offers[offerId].seller,\n      offers[offerId].buyer,\n      offers[offerId].isOpen\n    );\n  }\n\n  /**\n   * @dev Some functions can only be called when the market is open\n   */\n  modifier whenMarketIsOpen() {\n    require(isMarketPlaceOpen == true, \"Marketplace is closed\");\n    _;\n  }\n}",
  "sourcePath": "/Users/tuminfei/Code/Nodejs/uniarts-eth-dao/contracts/core/ResellMarketplace.sol",
  "compiler": {
    "name": "solc",
    "version": "0.8.4+commit.c7e474f2.Emscripten.clang"
  },
  "schemaVersion": "3.3.0",
  "updatedAt": "2021-08-18T07:26:23.032Z",
  "devdoc": {
    "author": "Pickle Solutions https://github.com/picklesolutions",
    "details": "For this example, we are using a fictional token called BitflixNFT",
    "kind": "dev",
    "methods": {
      "buyItem(uint256)": {
        "details": "Buys an item",
        "params": {
          "offerId": "The id of the offer"
        }
      },
      "closeMarketplace()": {
        "details": "Closes the market"
      },
      "closeOffer(uint256)": {
        "details": "close an Offer",
        "params": {
          "offerId": "The id of the offer"
        }
      },
      "createOffer(uint256,uint256)": {
        "details": "Puts an item on the marketplace",
        "params": {
          "itemId": "The id of the item",
          "price": "The price expected by the seller"
        }
      },
      "getOffersTotal()": {
        "details": "Returns the offers"
      },
      "openMarketplace()": {
        "details": "Opens the market if the contract address is correct"
      },
      "owner()": {
        "details": "Returns the address of the current owner."
      },
      "renounceOwnership()": {
        "details": "Leaves the contract without owner. It will not be possible to call `onlyOwner` functions anymore. Can only be called by the current owner. NOTE: Renouncing ownership will leave the contract without an owner, thereby removing any functionality that is only available to the owner."
      },
      "setBitflixNFTContractAddress(address)": {
        "details": "Sets the address of our ERC721 token contract",
        "params": {
          "newBitflixNFTContractAddress": "The address of the contract"
        }
      },
      "setPayCoinContractAddress(string,address)": {
        "details": "Sets the address of Pay erc20 token contract",
        "params": {
          "newPayCoinContractAddress": "The address of the contract"
        }
      },
      "transferOwnership(address)": {
        "details": "Transfers ownership of the contract to a new account (`newOwner`). Can only be called by the current owner."
      },
      "withdrawCoins()": {
        "details": "Lets the owner withdraw his coins"
      },
      "withdrawFunds()": {
        "details": "Lets the owner withdraw his funds"
      }
    },
    "title": "A small marketplace allowing users to buy and sell a specific ERC721 token",
    "version": 1
  },
  "userdoc": {
    "kind": "user",
    "methods": {},
    "version": 1
  }
}