{
  "contractName": "TokenLockerStorage",
  "abi": [
    {
      "inputs": [],
      "stateMutability": "nonpayable",
      "type": "constructor"
    },
    {
      "inputs": [
        {
          "internalType": "uint256",
          "name": "",
          "type": "uint256"
        }
      ],
      "name": "accountList",
      "outputs": [
        {
          "internalType": "address",
          "name": "",
          "type": "address"
        }
      ],
      "stateMutability": "view",
      "type": "function"
    },
    {
      "inputs": [
        {
          "internalType": "address",
          "name": "",
          "type": "address"
        }
      ],
      "name": "airdropBalances",
      "outputs": [
        {
          "internalType": "uint256",
          "name": "",
          "type": "uint256"
        }
      ],
      "stateMutability": "view",
      "type": "function"
    },
    {
      "inputs": [],
      "name": "lockTime",
      "outputs": [
        {
          "internalType": "uint256",
          "name": "",
          "type": "uint256"
        }
      ],
      "stateMutability": "view",
      "type": "function"
    },
    {
      "inputs": [],
      "name": "tokenAddress",
      "outputs": [
        {
          "internalType": "address",
          "name": "",
          "type": "address"
        }
      ],
      "stateMutability": "view",
      "type": "function"
    },
    {
      "inputs": [],
      "name": "version",
      "outputs": [
        {
          "internalType": "uint256",
          "name": "",
          "type": "uint256"
        }
      ],
      "stateMutability": "view",
      "type": "function"
    },
    {
      "inputs": [],
      "name": "getTokenAddress",
      "outputs": [
        {
          "internalType": "address",
          "name": "token",
          "type": "address"
        }
      ],
      "stateMutability": "pure",
      "type": "function"
    },
    {
      "inputs": [],
      "name": "getLockTime",
      "outputs": [
        {
          "internalType": "uint256",
          "name": "timestamp",
          "type": "uint256"
        }
      ],
      "stateMutability": "pure",
      "type": "function"
    },
    {
      "inputs": [],
      "name": "getAccountCount",
      "outputs": [
        {
          "internalType": "uint256",
          "name": "count",
          "type": "uint256"
        }
      ],
      "stateMutability": "view",
      "type": "function"
    },
    {
      "inputs": [
        {
          "internalType": "uint256",
          "name": "index",
          "type": "uint256"
        }
      ],
      "name": "getAccount",
      "outputs": [
        {
          "internalType": "address",
          "name": "accountAddress",
          "type": "address"
        }
      ],
      "stateMutability": "view",
      "type": "function"
    },
    {
      "inputs": [
        {
          "internalType": "address",
          "name": "accountAddress",
          "type": "address"
        }
      ],
      "name": "getAccountBalance",
      "outputs": [
        {
          "internalType": "uint256",
          "name": "amount",
          "type": "uint256"
        }
      ],
      "stateMutability": "view",
      "type": "function"
    }
  ],
  "bytecode": "0x6080604052600160005534801561001557600080fd5b50600173de96e75c7160d70a447a72afdb75ddfa1455c8089080600181540180825580915050600190039060005260206000200160009091909190916101000a81548173ffffffffffffffffffffffffffffffffffffffff021916908373ffffffffffffffffffffffffffffffffffffffff160217905550650ae9f7bcc0006002600073de96e75c7160d70a447a72afdb75ddfa1455c80873ffffffffffffffffffffffffffffffffffffffff1673ffffffffffffffffffffffffffffffffffffffff168152602001908152602001600020819055506104f0806100fa6000396000f3fe608060405234801561001057600080fd5b506004361061009e5760003560e01c80639d76ea58116100665780639d76ea581461015d578063a98e4e771461017b578063c0a4d64d14610199578063ce88b145146101b7578063e3a78c40146101e75761009e565b80630d668087146100a357806310fe9ae8146100c15780634ea98d16146100df57806354fd4d501461010f57806393423e9c1461012d575b600080fd5b6100ab610217565b6040516100b89190610435565b60405180910390f35b6100c961021f565b6040516100d6919061041a565b60405180910390f35b6100f960048036038101906100f491906103d3565b61023b565b604051610106919061041a565b60405180910390f35b61011761027a565b6040516101249190610435565b60405180910390f35b610147600480360381019061014291906103aa565b610280565b6040516101549190610435565b60405180910390f35b6101656102c9565b604051610172919061041a565b60405180910390f35b6101836102e1565b6040516101909190610435565b60405180910390f35b6101a16102ee565b6040516101ae9190610435565b60405180910390f35b6101d160048036038101906101cc91906103d3565b6102fa565b6040516101de919061041a565b60405180910390f35b61020160048036038101906101fc91906103aa565b610368565b60405161020e9190610435565b60405180910390f35b63613ad84081565b600073507bde03a87a6aa134d16634545e3d79c11c137d905090565b6001818154811061024b57600080fd5b906000526020600020016000915054906101000a900473ffffffffffffffffffffffffffffffffffffffff1681565b60005481565b6000600260008373ffffffffffffffffffffffffffffffffffffffff1673ffffffffffffffffffffffffffffffffffffffff168152602001908152602001600020549050919050565b73507bde03a87a6aa134d16634545e3d79c11c137d81565b6000600180549050905090565b600063613ad840905090565b600060018281548110610336577f4e487b7100000000000000000000000000000000000000000000000000000000600052603260045260246000fd5b9060005260206000200160009054906101000a900473ffffffffffffffffffffffffffffffffffffffff169050919050565b60026020528060005260406000206000915090505481565b60008135905061038f8161048c565b92915050565b6000813590506103a4816104a3565b92915050565b6000602082840312156103bc57600080fd5b60006103ca84828501610380565b91505092915050565b6000602082840312156103e557600080fd5b60006103f384828501610395565b91505092915050565b61040581610450565b82525050565b61041481610482565b82525050565b600060208201905061042f60008301846103fc565b92915050565b600060208201905061044a600083018461040b565b92915050565b600061045b82610462565b9050919050565b600073ffffffffffffffffffffffffffffffffffffffff82169050919050565b6000819050919050565b61049581610450565b81146104a057600080fd5b50565b6104ac81610482565b81146104b757600080fd5b5056fea2646970667358221220245ec54f0af990830d491e77529abeb3dd551e467b9a84102a42e2f2070d6a6164736f6c63430008040033",
  "immutableReferences": {},
  "source": "// SPDX-License-Identifier: MIT\npragma solidity ^0.8.0;\n\ncontract TokenLockerStorage {\n    uint public version = 1;\n\n    address[] public accountList;\n\n    address constant public tokenAddress = address(0x507BDe03A87a6aA134d16634545E3D79c11c137D);\n\n    // Locker-time: 2021-09-10 12:00:00\n    uint256 constant public lockTime = 1631246400;\n\n    mapping (address => uint) public airdropBalances;\n\n    constructor() {\n        accountList.push(address(0xDe96e75c7160d70a447a72AFdb75DDfA1455c808));\n        airdropBalances[address(0xDe96e75c7160d70a447a72AFdb75DDfA1455c808)] = 12000000000000;\n    }\n\n    function getTokenAddress() public pure returns(address token) {\n        return tokenAddress;\n    }\n\n    function getLockTime() public pure returns(uint256 timestamp) {\n        return lockTime;\n    }\n\n    function getAccountCount() public view returns(uint count) {\n        return accountList.length;\n    }\n\n    function getAccount(uint256 index) public view returns(address accountAddress) {\n        return accountList[index];\n    }\n\n    function getAccountBalance(address accountAddress) public view returns(uint256 amount) {\n        return airdropBalances[accountAddress];\n    }\n}\n\n\n",
  "sourcePath": "/Users/yxf/app/uniarts-eth-dao/contracts/core/TokenLockerStorage.sol",
  "compiler": {
    "name": "solc",
    "version": "0.8.4+commit.c7e474f2.Emscripten.clang"
  },
  "schemaVersion": "3.2.3",
  "updatedAt": "2021-08-25T06:58:43.352Z",
  "devdoc": {
    "kind": "dev",
    "methods": {},
    "version": 1
  },
  "userdoc": {
    "kind": "user",
    "methods": {},
    "version": 1
  }
}