{
  "contractName": "TokenLockerStorage",
  "abi": [
    {
      "inputs": [],
      "stateMutability": "nonpayable",
      "type": "constructor"
    },
    {
      "inputs": [],
      "name": "BASE_UNIT",
      "outputs": [
        {
          "internalType": "uint256",
          "name": "",
          "type": "uint256"
        }
      ],
      "stateMutability": "view",
      "type": "function"
    },
    {
      "inputs": [],
      "name": "DECIMALS",
      "outputs": [
        {
          "internalType": "uint8",
          "name": "",
          "type": "uint8"
        }
      ],
      "stateMutability": "view",
      "type": "function"
    },
    {
      "inputs": [],
      "name": "TOKEN_ADDRESS",
      "outputs": [
        {
          "internalType": "address",
          "name": "",
          "type": "address"
        }
      ],
      "stateMutability": "view",
      "type": "function"
    },
    {
      "inputs": [],
      "name": "VERSION",
      "outputs": [
        {
          "internalType": "uint8",
          "name": "",
          "type": "uint8"
        }
      ],
      "stateMutability": "view",
      "type": "function"
    },
    {
      "inputs": [
        {
          "internalType": "uint256",
          "name": "",
          "type": "uint256"
        }
      ],
      "name": "accountList",
      "outputs": [
        {
          "internalType": "address",
          "name": "",
          "type": "address"
        }
      ],
      "stateMutability": "view",
      "type": "function"
    },
    {
      "inputs": [
        {
          "internalType": "address",
          "name": "",
          "type": "address"
        }
      ],
      "name": "airdropBalances",
      "outputs": [
        {
          "internalType": "uint256",
          "name": "",
          "type": "uint256"
        }
      ],
      "stateMutability": "view",
      "type": "function"
    },
    {
      "inputs": [
        {
          "internalType": "uint256",
          "name": "",
          "type": "uint256"
        }
      ],
      "name": "amountList",
      "outputs": [
        {
          "internalType": "uint256",
          "name": "",
          "type": "uint256"
        }
      ],
      "stateMutability": "view",
      "type": "function"
    },
    {
      "inputs": [],
      "name": "lockTime",
      "outputs": [
        {
          "internalType": "uint256",
          "name": "",
          "type": "uint256"
        }
      ],
      "stateMutability": "view",
      "type": "function"
    },
    {
      "inputs": [],
      "name": "getTokenAddress",
      "outputs": [
        {
          "internalType": "address",
          "name": "token",
          "type": "address"
        }
      ],
      "stateMutability": "pure",
      "type": "function"
    },
    {
      "inputs": [],
      "name": "getLockTime",
      "outputs": [
        {
          "internalType": "uint256",
          "name": "timestamp",
          "type": "uint256"
        }
      ],
      "stateMutability": "pure",
      "type": "function"
    },
    {
      "inputs": [],
      "name": "getAccountCount",
      "outputs": [
        {
          "internalType": "uint256",
          "name": "count",
          "type": "uint256"
        }
      ],
      "stateMutability": "view",
      "type": "function"
    },
    {
      "inputs": [
        {
          "internalType": "uint256",
          "name": "index",
          "type": "uint256"
        }
      ],
      "name": "getAccount",
      "outputs": [
        {
          "internalType": "address",
          "name": "accountAddress",
          "type": "address"
        }
      ],
      "stateMutability": "view",
      "type": "function"
    },
    {
      "inputs": [
        {
          "internalType": "address",
          "name": "accountAddress",
          "type": "address"
        }
      ],
      "name": "getAccountBalance",
      "outputs": [
        {
          "internalType": "uint256",
          "name": "amount",
          "type": "uint256"
        }
      ],
      "stateMutability": "view",
      "type": "function"
    }
  ],
  "bytecode": "0x60806040526040518060a0016040528073de96e75c7160d70a447a72afdb75ddfa1455c80873ffffffffffffffffffffffffffffffffffffffff1673ffffffffffffffffffffffffffffffffffffffff16815260200173d2686f98c3ad0341e8196d8d31fe65c85fdfdfa073ffffffffffffffffffffffffffffffffffffffff1673ffffffffffffffffffffffffffffffffffffffff1681526020017396803aae93c659f300b568f6e1a1f431ed85e1e873ffffffffffffffffffffffffffffffffffffffff1673ffffffffffffffffffffffffffffffffffffffff16815260200173240c23f5a91fe87d3623a6922aafdc07965c7c2473ffffffffffffffffffffffffffffffffffffffff1673ffffffffffffffffffffffffffffffffffffffff168152602001732247c9a8e87810d49ee2af6b318fffaa080b99b973ffffffffffffffffffffffffffffffffffffffff1673ffffffffffffffffffffffffffffffffffffffff16815250600090600561017b929190610319565b506040518060a001604052806515d3ef79800065ffffffffffff1681526020016517a598c3a00065ffffffffffff168152602001651977420dc00065ffffffffffff1681526020016515d3ef79800065ffffffffffff1681526020016515d3ef79800065ffffffffffff1681525060019060056101f99291906103a3565b5034801561020657600080fd5b5060005b6000805490508110156103135760018181548110610251577f4e487b7100000000000000000000000000000000000000000000000000000000600052603260045260246000fd5b906000526020600020015460026000808481548110610299577f4e487b7100000000000000000000000000000000000000000000000000000000600052603260045260246000fd5b9060005260206000200160009054906101000a900473ffffffffffffffffffffffffffffffffffffffff1673ffffffffffffffffffffffffffffffffffffffff1673ffffffffffffffffffffffffffffffffffffffff168152602001908152602001600020819055508061030c90610421565b905061020a565b50610499565b828054828255906000526020600020908101928215610392579160200282015b828111156103915782518260006101000a81548173ffffffffffffffffffffffffffffffffffffffff021916908373ffffffffffffffffffffffffffffffffffffffff16021790555091602001919060010190610339565b5b50905061039f91906103fa565b5090565b8280548282559060005260206000209081019282156103e9579160200282015b828111156103e8578251829065ffffffffffff169055916020019190600101906103c3565b5b5090506103f691906103fa565b5090565b5b808211156104135760008160009055506001016103fb565b5090565b6000819050919050565b600061042c82610417565b91507fffffffffffffffffffffffffffffffffffffffffffffffffffffffffffffffff82141561045f5761045e61046a565b5b600182019050919050565b7f4e487b7100000000000000000000000000000000000000000000000000000000600052601160045260246000fd5b6107ab806104a86000396000f3fe608060405234801561001057600080fd5b50600436106100cf5760003560e01c80635b3ed4a51161008c578063c0a4d64d11610066578063c0a4d64d14610218578063ce88b14514610236578063e3a78c4014610266578063ffa1ad7414610296576100cf565b80635b3ed4a51461019a57806393423e9c146101ca578063a98e4e77146101fa576100cf565b80630bdf5300146100d45780630d668087146100f25780630e962f001461011057806310fe9ae81461012e5780632e0f26251461014c5780634ea98d161461016a575b600080fd5b6100dc6102b4565b6040516100e99190610500565b60405180910390f35b6100fa6102cc565b604051610107919061051b565b60405180910390f35b6101186102d4565b604051610125919061051b565b60405180910390f35b6101366102e8565b6040516101439190610500565b60405180910390f35b610154610304565b6040516101619190610536565b60405180910390f35b610184600480360381019061017f91906104aa565b610309565b6040516101919190610500565b60405180910390f35b6101b460048036038101906101af91906104aa565b610348565b6040516101c1919061051b565b60405180910390f35b6101e460048036038101906101df9190610481565b61036c565b6040516101f1919061051b565b60405180910390f35b6102026103b5565b60405161020f919061051b565b60405180910390f35b6102206103c1565b60405161022d919061051b565b60405180910390f35b610250600480360381019061024b91906104aa565b6103cd565b60405161025d9190610500565b60405180910390f35b610280600480360381019061027b9190610481565b61043a565b60405161028d919061051b565b60405180910390f35b61029e610452565b6040516102ab9190610536565b60405180910390f35b73507bde03a87a6aa134d16634545e3d79c11c137d81565b63613ad84081565b600c60ff16600a6102e591906105a4565b81565b600073507bde03a87a6aa134d16634545e3d79c11c137d905090565b600c81565b6000818154811061031957600080fd5b906000526020600020016000915054906101000a900473ffffffffffffffffffffffffffffffffffffffff1681565b6001818154811061035857600080fd5b906000526020600020016000915090505481565b6000600260008373ffffffffffffffffffffffffffffffffffffffff1673ffffffffffffffffffffffffffffffffffffffff168152602001908152602001600020549050919050565b60008080549050905090565b600063613ad840905090565b6000808281548110610408577f4e487b7100000000000000000000000000000000000000000000000000000000600052603260045260246000fd5b9060005260206000200160009054906101000a900473ffffffffffffffffffffffffffffffffffffffff169050919050565b60026020528060005260406000206000915090505481565b600181565b60008135905061046681610747565b92915050565b60008135905061047b8161075e565b92915050565b60006020828403121561049357600080fd5b60006104a184828501610457565b91505092915050565b6000602082840312156104bc57600080fd5b60006104ca8482850161046c565b91505092915050565b6104dc816106c2565b82525050565b6104eb816106f4565b82525050565b6104fa816106fe565b82525050565b600060208201905061051560008301846104d3565b92915050565b600060208201905061053060008301846104e2565b92915050565b600060208201905061054b60008301846104f1565b92915050565b6000808291508390505b600185111561059b578086048111156105775761057661070b565b5b60018516156105865780820291505b80810290506105948561073a565b945061055b565b94509492505050565b60006105af826106f4565b91506105ba836106f4565b92506105e77fffffffffffffffffffffffffffffffffffffffffffffffffffffffffffffffff84846105ef565b905092915050565b6000826105ff57600190506106bb565b8161060d57600090506106bb565b8160018114610623576002811461062d5761065c565b60019150506106bb565b60ff84111561063f5761063e61070b565b5b8360020a9150848211156106565761065561070b565b5b506106bb565b5060208310610133831016604e8410600b84101617156106915782820a90508381111561068c5761068b61070b565b5b6106bb565b61069e8484846001610551565b925090508184048111156106b5576106b461070b565b5b81810290505b9392505050565b60006106cd826106d4565b9050919050565b600073ffffffffffffffffffffffffffffffffffffffff82169050919050565b6000819050919050565b600060ff82169050919050565b7f4e487b7100000000000000000000000000000000000000000000000000000000600052601160045260246000fd5b60008160011c9050919050565b610750816106c2565b811461075b57600080fd5b50565b610767816106f4565b811461077257600080fd5b5056fea26469706673582212200036e9ad3e520bbacfcd8582381caf6253094039849d99d9eb080d57cd2766c664736f6c63430008040033",
  "immutableReferences": {},
  "source": "// SPDX-License-Identifier: MIT\npragma solidity ^0.8.0;\n\ncontract TokenLockerStorage {\n    uint8 public constant VERSION = 1;\n\n    // token address\n    address constant public TOKEN_ADDRESS = address(0x507BDe03A87a6aA134d16634545E3D79c11c137D);\n\n    // modify token decimals\n    uint8 public constant DECIMALS = 12;\n\n    // base_unit\n    uint256 public constant BASE_UNIT = 10 ** uint256(DECIMALS);\n\n    address[] public accountList = [0xDe96e75c7160d70a447a72AFdb75DDfA1455c808,\n                                    0xd2686F98C3Ad0341E8196d8d31fE65C85FdfdFa0,\n                                    0x96803aAE93c659F300b568f6e1a1f431eD85e1E8,\n                                    0x240C23f5A91FE87d3623A6922AAFDc07965C7C24,\n                                    0x2247c9a8e87810d49EE2AF6B318fFfaA080b99b9];\n\n    uint256[] public amountList =  [24000000000000,\n                                    26000000000000,\n                                    28000000000000,\n                                    24000000000000,\n                                    24000000000000];\n\n    // Locker-time: 2021-09-10 12:00:00\n    uint256 constant public lockTime = 1631246400;\n\n    mapping (address => uint) public airdropBalances;\n\n    constructor() {\n        for(uint i = 0; i < accountList.length; ++i) {\n            airdropBalances[accountList[i]] = amountList[i];\n        }\n    }\n\n    function getTokenAddress() public pure returns(address token) {\n        return TOKEN_ADDRESS;\n    }\n\n    function getLockTime() public pure returns(uint256 timestamp) {\n        return lockTime;\n    }\n\n    function getAccountCount() public view returns(uint count) {\n        return accountList.length;\n    }\n\n    function getAccount(uint256 index) public view returns(address accountAddress) {\n        return accountList[index];\n    }\n\n    function getAccountBalance(address accountAddress) public view returns(uint256 amount) {\n        return airdropBalances[accountAddress];\n    }\n}\n\n\n",
  "sourcePath": "/Users/tuminfei/Code/Nodejs/uniarts-eth-dao/contracts/core/TokenLockerStorage.sol",
  "compiler": {
    "name": "solc",
    "version": "0.8.4+commit.c7e474f2.Emscripten.clang"
  },
  "schemaVersion": "3.3.0",
  "updatedAt": "2021-09-07T02:03:48.353Z",
  "devdoc": {
    "kind": "dev",
    "methods": {},
    "version": 1
  },
  "userdoc": {
    "kind": "user",
    "methods": {},
    "version": 1
  }
}