{
  "contractName": "TokenLocker",
  "abi": [
    {
      "inputs": [
        {
          "internalType": "address",
          "name": "_tokenLockerStorageAddress",
          "type": "address"
        }
      ],
      "stateMutability": "nonpayable",
      "type": "constructor"
    },
    {
      "anonymous": false,
      "inputs": [
        {
          "indexed": false,
          "internalType": "address",
          "name": "tokenAddress",
          "type": "address"
        },
        {
          "indexed": false,
          "internalType": "address",
          "name": "accountAddress",
          "type": "address"
        },
        {
          "indexed": false,
          "internalType": "uint256",
          "name": "amount",
          "type": "uint256"
        }
      ],
      "name": "LockTokenAdd",
      "type": "event"
    },
    {
      "inputs": [
        {
          "internalType": "address",
          "name": "",
          "type": "address"
        },
        {
          "internalType": "uint256",
          "name": "",
          "type": "uint256"
        }
      ],
      "name": "locks",
      "outputs": [
        {
          "internalType": "address",
          "name": "tokenAddress",
          "type": "address"
        },
        {
          "internalType": "uint256",
          "name": "lockDate",
          "type": "uint256"
        },
        {
          "internalType": "uint256",
          "name": "amount",
          "type": "uint256"
        },
        {
          "internalType": "uint256",
          "name": "unlockDate",
          "type": "uint256"
        },
        {
          "internalType": "uint256",
          "name": "lockID",
          "type": "uint256"
        },
        {
          "internalType": "address",
          "name": "owner",
          "type": "address"
        },
        {
          "internalType": "bool",
          "name": "retrieved",
          "type": "bool"
        }
      ],
      "stateMutability": "view",
      "type": "function"
    },
    {
      "inputs": [
        {
          "internalType": "address",
          "name": "",
          "type": "address"
        }
      ],
      "name": "numLocks",
      "outputs": [
        {
          "internalType": "uint256",
          "name": "",
          "type": "uint256"
        }
      ],
      "stateMutability": "view",
      "type": "function"
    },
    {
      "inputs": [
        {
          "internalType": "address",
          "name": "_tokenLockerStorageAddress",
          "type": "address"
        }
      ],
      "name": "setTokenLockerStorageContract",
      "outputs": [],
      "stateMutability": "nonpayable",
      "type": "function"
    },
    {
      "inputs": [
        {
          "internalType": "address",
          "name": "tokenAddress",
          "type": "address"
        },
        {
          "internalType": "uint256",
          "name": "amount",
          "type": "uint256"
        },
        {
          "internalType": "uint256",
          "name": "time",
          "type": "uint256"
        }
      ],
      "name": "lockTokens",
      "outputs": [
        {
          "internalType": "bool",
          "name": "",
          "type": "bool"
        }
      ],
      "stateMutability": "nonpayable",
      "type": "function"
    },
    {
      "inputs": [
        {
          "internalType": "uint256",
          "name": "lockId",
          "type": "uint256"
        }
      ],
      "name": "getLock",
      "outputs": [
        {
          "internalType": "address",
          "name": "",
          "type": "address"
        },
        {
          "internalType": "uint256",
          "name": "",
          "type": "uint256"
        },
        {
          "internalType": "uint256",
          "name": "",
          "type": "uint256"
        },
        {
          "internalType": "uint256",
          "name": "",
          "type": "uint256"
        },
        {
          "internalType": "uint256",
          "name": "",
          "type": "uint256"
        },
        {
          "internalType": "address",
          "name": "",
          "type": "address"
        },
        {
          "internalType": "bool",
          "name": "",
          "type": "bool"
        }
      ],
      "stateMutability": "view",
      "type": "function"
    },
    {
      "inputs": [],
      "name": "getNumLocks",
      "outputs": [
        {
          "internalType": "uint256",
          "name": "",
          "type": "uint256"
        }
      ],
      "stateMutability": "view",
      "type": "function"
    },
    {
      "inputs": [
        {
          "internalType": "uint256",
          "name": "lockId",
          "type": "uint256"
        }
      ],
      "name": "unlockTokens",
      "outputs": [
        {
          "internalType": "bool",
          "name": "",
          "type": "bool"
        }
      ],
      "stateMutability": "nonpayable",
      "type": "function"
    },
    {
      "inputs": [
        {
          "internalType": "address",
          "name": "newOwner",
          "type": "address"
        },
        {
          "internalType": "uint256",
          "name": "lockId",
          "type": "uint256"
        }
      ],
      "name": "changeOwner",
      "outputs": [
        {
          "internalType": "bool",
          "name": "",
          "type": "bool"
        }
      ],
      "stateMutability": "nonpayable",
      "type": "function"
    }
  ],
  "bytecode": "0x60806040523480156200001157600080fd5b50604051620023f7380380620023f783398181016040528101906200003791906200081a565b806000806101000a81548173ffffffffffffffffffffffffffffffffffffffff021916908373ffffffffffffffffffffffffffffffffffffffff16021790555033600160006101000a81548173ffffffffffffffffffffffffffffffffffffffff021916908373ffffffffffffffffffffffffffffffffffffffff16021790555060005b60008054906101000a900473ffffffffffffffffffffffffffffffffffffffff1673ffffffffffffffffffffffffffffffffffffffff1663a98e4e776040518163ffffffff1660e01b815260040160206040518083038186803b1580156200012257600080fd5b505afa15801562000137573d6000803e3d6000fd5b505050506040513d601f19601f820116820180604052508101906200015d919062000846565b811015620004875760008060009054906101000a900473ffffffffffffffffffffffffffffffffffffffff1673ffffffffffffffffffffffffffffffffffffffff1663c0a4d64d6040518163ffffffff1660e01b815260040160206040518083038186803b158015620001cf57600080fd5b505afa158015620001e4573d6000803e3d6000fd5b505050506040513d601f19601f820116820180604052508101906200020a919062000846565b905060008060009054906101000a900473ffffffffffffffffffffffffffffffffffffffff1673ffffffffffffffffffffffffffffffffffffffff166310fe9ae86040518163ffffffff1660e01b815260040160206040518083038186803b1580156200027657600080fd5b505afa1580156200028b573d6000803e3d6000fd5b505050506040513d601f19601f82011682018060405250810190620002b191906200081a565b905060008060009054906101000a900473ffffffffffffffffffffffffffffffffffffffff1673ffffffffffffffffffffffffffffffffffffffff1663ce88b145856040518263ffffffff1660e01b8152600401620003119190620008ee565b60206040518083038186803b1580156200032a57600080fd5b505afa1580156200033f573d6000803e3d6000fd5b505050506040513d601f19601f820116820180604052508101906200036591906200081a565b905060008060009054906101000a900473ffffffffffffffffffffffffffffffffffffffff1673ffffffffffffffffffffffffffffffffffffffff166393423e9c836040518263ffffffff1660e01b8152600401620003c5919062000894565b60206040518083038186803b158015620003de57600080fd5b505afa158015620003f3573d6000803e3d6000fd5b505050506040513d601f19601f8201168201806040525081019062000419919062000846565b90506200042f838383876200048f60201b60201c565b507f77bd1242a19e54b3bd440d5b291e4d28e9ffeb49418b0efba5f99cfcbcfc2a9e8383836040516200046593929190620008b1565b60405180910390a15050505080806200047e90620009a6565b915050620000bb565b505062000a57565b60006200049b62000781565b85816000019073ffffffffffffffffffffffffffffffffffffffff16908173ffffffffffffffffffffffffffffffffffffffff168152505042816020018181525050838160400181815250506200050183426200076960201b620010771790919060201c565b816060018181525050600360008673ffffffffffffffffffffffffffffffffffffffff1673ffffffffffffffffffffffffffffffffffffffff16815260200190815260200160002054816080018181525050848160a0019073ffffffffffffffffffffffffffffffffffffffff16908173ffffffffffffffffffffffffffffffffffffffff168152505060008160c001901515908115158152505080600260008773ffffffffffffffffffffffffffffffffffffffff1673ffffffffffffffffffffffffffffffffffffffff1681526020019081526020016000206000600360008973ffffffffffffffffffffffffffffffffffffffff1673ffffffffffffffffffffffffffffffffffffffff16815260200190815260200160002054815260200190815260200160002060008201518160000160006101000a81548173ffffffffffffffffffffffffffffffffffffffff021916908373ffffffffffffffffffffffffffffffffffffffff1602179055506020820151816001015560408201518160020155606082015181600301556080820151816004015560a08201518160050160006101000a81548173ffffffffffffffffffffffffffffffffffffffff021916908373ffffffffffffffffffffffffffffffffffffffff16021790555060c08201518160050160146101000a81548160ff021916908315150217905550905050600360008673ffffffffffffffffffffffffffffffffffffffff1673ffffffffffffffffffffffffffffffffffffffff16815260200190815260200160002060008154809291906200075790620009a6565b91905055506001915050949350505050565b600081836200077991906200090b565b905092915050565b6040518060e00160405280600073ffffffffffffffffffffffffffffffffffffffff16815260200160008152602001600081526020016000815260200160008152602001600073ffffffffffffffffffffffffffffffffffffffff1681526020016000151581525090565b600081519050620007fd8162000a23565b92915050565b600081519050620008148162000a3d565b92915050565b6000602082840312156200082d57600080fd5b60006200083d84828501620007ec565b91505092915050565b6000602082840312156200085957600080fd5b6000620008698482850162000803565b91505092915050565b6200087d8162000968565b82525050565b6200088e816200099c565b82525050565b6000602082019050620008ab600083018462000872565b92915050565b6000606082019050620008c8600083018662000872565b620008d7602083018562000872565b620008e6604083018462000883565b949350505050565b600060208201905062000905600083018462000883565b92915050565b600062000918826200099c565b915062000925836200099c565b9250827fffffffffffffffffffffffffffffffffffffffffffffffffffffffffffffffff038211156200095d576200095c620009f4565b5b828201905092915050565b600062000975826200097c565b9050919050565b600073ffffffffffffffffffffffffffffffffffffffff82169050919050565b6000819050919050565b6000620009b3826200099c565b91507fffffffffffffffffffffffffffffffffffffffffffffffffffffffffffffffff821415620009e957620009e8620009f4565b5b600182019050919050565b7f4e487b7100000000000000000000000000000000000000000000000000000000600052601160045260246000fd5b62000a2e8162000968565b811462000a3a57600080fd5b50565b62000a48816200099c565b811462000a5457600080fd5b50565b6119908062000a676000396000f3fe608060405234801561001057600080fd5b50600436106100885760003560e01c8063a25983e51161005b578063a25983e514610127578063b425f80214610157578063b9ef08301461018d578063d68f4dd1146101bd57610088565b80630d87cedb1461008d57806314d0d5b3146100ab57806356df3db1146100c75780637c405325146100f7575b600080fd5b6100956101f3565b6040516100a2919061172f565b60405180910390f35b6100c560048036038101906100c09190611406565b61023a565b005b6100e160048036038101906100dc919061142f565b61030d565b6040516100ee9190611694565b60405180910390f35b610111600480360381019061010c91906114e3565b6108c8565b60405161011e9190611694565b60405180910390f35b610141600480360381019061013c919061146b565b610c57565b60405161014e9190611694565b60405180910390f35b610171600480360381019061016c919061142f565b610d06565b6040516101849796959493929190611625565b60405180910390f35b6101a760048036038101906101a29190611406565b610da2565b6040516101b4919061172f565b60405180910390f35b6101d760048036038101906101d291906114e3565b610dba565b6040516101ea9796959493929190611625565b60405180910390f35b6000600360003373ffffffffffffffffffffffffffffffffffffffff1673ffffffffffffffffffffffffffffffffffffffff16815260200190815260200160002054905090565b3373ffffffffffffffffffffffffffffffffffffffff16600160009054906101000a900473ffffffffffffffffffffffffffffffffffffffff1673ffffffffffffffffffffffffffffffffffffffff16146102ca576040517f08c379a00000000000000000000000000000000000000000000000000000000081526004016102c1906116cf565b60405180910390fd5b806000806101000a81548173ffffffffffffffffffffffffffffffffffffffff021916908373ffffffffffffffffffffffffffffffffffffffff16021790555050565b6000600360003373ffffffffffffffffffffffffffffffffffffffff1673ffffffffffffffffffffffffffffffffffffffff168152602001908152602001600020548210610390576040517f08c379a0000000000000000000000000000000000000000000000000000000008152600401610387906116af565b60405180910390fd5b60001515600260003373ffffffffffffffffffffffffffffffffffffffff1673ffffffffffffffffffffffffffffffffffffffff168152602001908152602001600020600084815260200190815260200160002060050160149054906101000a900460ff16151514610437576040517f08c379a000000000000000000000000000000000000000000000000000000000815260040161042e906116ef565b60405180910390fd5b61043f61135c565b600260003373ffffffffffffffffffffffffffffffffffffffff1673ffffffffffffffffffffffffffffffffffffffff168152602001908152602001600020600084815260200190815260200160002060000160009054906101000a900473ffffffffffffffffffffffffffffffffffffffff16816000019073ffffffffffffffffffffffffffffffffffffffff16908173ffffffffffffffffffffffffffffffffffffffff1681525050600260003373ffffffffffffffffffffffffffffffffffffffff1673ffffffffffffffffffffffffffffffffffffffff168152602001908152602001600020600084815260200190815260200160002060010154816020018181525050600260003373ffffffffffffffffffffffffffffffffffffffff1673ffffffffffffffffffffffffffffffffffffffff168152602001908152602001600020600084815260200190815260200160002060020154816040018181525050600260003373ffffffffffffffffffffffffffffffffffffffff1673ffffffffffffffffffffffffffffffffffffffff168152602001908152602001600020600084815260200190815260200160002060030154816060018181525050600360008573ffffffffffffffffffffffffffffffffffffffff1673ffffffffffffffffffffffffffffffffffffffff16815260200190815260200160002054816080018181525050838160a0019073ffffffffffffffffffffffffffffffffffffffff16908173ffffffffffffffffffffffffffffffffffffffff168152505060008160c001901515908115158152505080600260008673ffffffffffffffffffffffffffffffffffffffff1673ffffffffffffffffffffffffffffffffffffffff1681526020019081526020016000206000600360008873ffffffffffffffffffffffffffffffffffffffff1673ffffffffffffffffffffffffffffffffffffffff16815260200190815260200160002054815260200190815260200160002060008201518160000160006101000a81548173ffffffffffffffffffffffffffffffffffffffff021916908373ffffffffffffffffffffffffffffffffffffffff1602179055506020820151816001015560408201518160020155606082015181600301556080820151816004015560a08201518160050160006101000a81548173ffffffffffffffffffffffffffffffffffffffff021916908373ffffffffffffffffffffffffffffffffffffffff16021790555060c08201518160050160146101000a81548160ff021916908315150217905550905050600360008573ffffffffffffffffffffffffffffffffffffffff1673ffffffffffffffffffffffffffffffffffffffff168152602001908152602001600020600081548092919061084c906117f9565b91905055506001600260003373ffffffffffffffffffffffffffffffffffffffff1673ffffffffffffffffffffffffffffffffffffffff168152602001908152602001600020600085815260200190815260200160002060050160146101000a81548160ff021916908315150217905550600191505092915050565b6000600360003373ffffffffffffffffffffffffffffffffffffffff1673ffffffffffffffffffffffffffffffffffffffff16815260200190815260200160002054821061094b576040517f08c379a0000000000000000000000000000000000000000000000000000000008152600401610942906116af565b60405180910390fd5b60001515600260003373ffffffffffffffffffffffffffffffffffffffff1673ffffffffffffffffffffffffffffffffffffffff168152602001908152602001600020600084815260200190815260200160002060050160149054906101000a900460ff161515146109f2576040517f08c379a00000000000000000000000000000000000000000000000000000000081526004016109e9906116ef565b60405180910390fd5b42600260003373ffffffffffffffffffffffffffffffffffffffff1673ffffffffffffffffffffffffffffffffffffffff1681526020019081526020016000206000848152602001908152602001600020600301541115610a88576040517f08c379a0000000000000000000000000000000000000000000000000000000008152600401610a7f9061170f565b60405180910390fd5b6000600260003373ffffffffffffffffffffffffffffffffffffffff1673ffffffffffffffffffffffffffffffffffffffff168152602001908152602001600020600084815260200190815260200160002060000160009054906101000a900473ffffffffffffffffffffffffffffffffffffffff1690508073ffffffffffffffffffffffffffffffffffffffff1663a9059cbb33600260003373ffffffffffffffffffffffffffffffffffffffff1673ffffffffffffffffffffffffffffffffffffffff1681526020019081526020016000206000878152602001908152602001600020600201546040518363ffffffff1660e01b8152600401610b8e9291906115fc565b602060405180830381600087803b158015610ba857600080fd5b505af1158015610bbc573d6000803e3d6000fd5b505050506040513d601f19601f82011682018060405250810190610be091906114ba565b506001600260003373ffffffffffffffffffffffffffffffffffffffff1673ffffffffffffffffffffffffffffffffffffffff168152602001908152602001600020600085815260200190815260200160002060050160146101000a81548160ff0219169083151502179055506001915050919050565b6000808490508073ffffffffffffffffffffffffffffffffffffffff166323b872dd3330876040518463ffffffff1660e01b8152600401610c9a939291906115c5565b602060405180830381600087803b158015610cb457600080fd5b505af1158015610cc8573d6000803e3d6000fd5b505050506040513d601f19601f82011682018060405250810190610cec91906114ba565b50610cf98533868661108d565b5060019150509392505050565b6002602052816000526040600020602052806000526040600020600091509150508060000160009054906101000a900473ffffffffffffffffffffffffffffffffffffffff16908060010154908060020154908060030154908060040154908060050160009054906101000a900473ffffffffffffffffffffffffffffffffffffffff16908060050160149054906101000a900460ff16905087565b60036020528060005260406000206000915090505481565b6000806000806000806000600260003373ffffffffffffffffffffffffffffffffffffffff1673ffffffffffffffffffffffffffffffffffffffff168152602001908152602001600020600089815260200190815260200160002060000160009054906101000a900473ffffffffffffffffffffffffffffffffffffffff16600260003373ffffffffffffffffffffffffffffffffffffffff1673ffffffffffffffffffffffffffffffffffffffff16815260200190815260200160002060008a815260200190815260200160002060010154600260003373ffffffffffffffffffffffffffffffffffffffff1673ffffffffffffffffffffffffffffffffffffffff16815260200190815260200160002060008b815260200190815260200160002060020154600260003373ffffffffffffffffffffffffffffffffffffffff1673ffffffffffffffffffffffffffffffffffffffff16815260200190815260200160002060008c815260200190815260200160002060030154600260003373ffffffffffffffffffffffffffffffffffffffff1673ffffffffffffffffffffffffffffffffffffffff16815260200190815260200160002060008d815260200190815260200160002060040154600260003373ffffffffffffffffffffffffffffffffffffffff1673ffffffffffffffffffffffffffffffffffffffff16815260200190815260200160002060008e815260200190815260200160002060050160009054906101000a900473ffffffffffffffffffffffffffffffffffffffff16600260003373ffffffffffffffffffffffffffffffffffffffff1673ffffffffffffffffffffffffffffffffffffffff16815260200190815260200160002060008f815260200190815260200160002060050160149054906101000a900460ff169650965096509650965096509650919395979092949650565b60008183611085919061175b565b905092915050565b600061109761135c565b85816000019073ffffffffffffffffffffffffffffffffffffffff16908173ffffffffffffffffffffffffffffffffffffffff168152505042816020018181525050838160400181815250506110f6834261107790919063ffffffff16565b816060018181525050600360008673ffffffffffffffffffffffffffffffffffffffff1673ffffffffffffffffffffffffffffffffffffffff16815260200190815260200160002054816080018181525050848160a0019073ffffffffffffffffffffffffffffffffffffffff16908173ffffffffffffffffffffffffffffffffffffffff168152505060008160c001901515908115158152505080600260008773ffffffffffffffffffffffffffffffffffffffff1673ffffffffffffffffffffffffffffffffffffffff1681526020019081526020016000206000600360008973ffffffffffffffffffffffffffffffffffffffff1673ffffffffffffffffffffffffffffffffffffffff16815260200190815260200160002054815260200190815260200160002060008201518160000160006101000a81548173ffffffffffffffffffffffffffffffffffffffff021916908373ffffffffffffffffffffffffffffffffffffffff1602179055506020820151816001015560408201518160020155606082015181600301556080820151816004015560a08201518160050160006101000a81548173ffffffffffffffffffffffffffffffffffffffff021916908373ffffffffffffffffffffffffffffffffffffffff16021790555060c08201518160050160146101000a81548160ff021916908315150217905550905050600360008673ffffffffffffffffffffffffffffffffffffffff1673ffffffffffffffffffffffffffffffffffffffff168152602001908152602001600020600081548092919061134a906117f9565b91905055506001915050949350505050565b6040518060e00160405280600073ffffffffffffffffffffffffffffffffffffffff16815260200160008152602001600081526020016000815260200160008152602001600073ffffffffffffffffffffffffffffffffffffffff1681526020016000151581525090565b6000813590506113d681611915565b92915050565b6000815190506113eb8161192c565b92915050565b60008135905061140081611943565b92915050565b60006020828403121561141857600080fd5b6000611426848285016113c7565b91505092915050565b6000806040838503121561144257600080fd5b6000611450858286016113c7565b9250506020611461858286016113f1565b9150509250929050565b60008060006060848603121561148057600080fd5b600061148e868287016113c7565b935050602061149f868287016113f1565b92505060406114b0868287016113f1565b9150509250925092565b6000602082840312156114cc57600080fd5b60006114da848285016113dc565b91505092915050565b6000602082840312156114f557600080fd5b6000611503848285016113f1565b91505092915050565b611515816117b1565b82525050565b611524816117c3565b82525050565b600061153760128361174a565b915061154282611871565b602082019050919050565b600061155a60208361174a565b91506115658261189a565b602082019050919050565b600061157d60198361174a565b9150611588826118c3565b602082019050919050565b60006115a0601c8361174a565b91506115ab826118ec565b602082019050919050565b6115bf816117ef565b82525050565b60006060820190506115da600083018661150c565b6115e7602083018561150c565b6115f460408301846115b6565b949350505050565b6000604082019050611611600083018561150c565b61161e60208301846115b6565b9392505050565b600060e08201905061163a600083018a61150c565b61164760208301896115b6565b61165460408301886115b6565b61166160608301876115b6565b61166e60808301866115b6565b61167b60a083018561150c565b61168860c083018461151b565b98975050505050505050565b60006020820190506116a9600083018461151b565b92915050565b600060208201905081810360008301526116c88161152a565b9050919050565b600060208201905081810360008301526116e88161154d565b9050919050565b6000602082019050818103600083015261170881611570565b9050919050565b6000602082019050818103600083015261172881611593565b9050919050565b600060208201905061174460008301846115b6565b92915050565b600082825260208201905092915050565b6000611766826117ef565b9150611771836117ef565b9250827fffffffffffffffffffffffffffffffffffffffffffffffffffffffffffffffff038211156117a6576117a5611842565b5b828201905092915050565b60006117bc826117cf565b9050919050565b60008115159050919050565b600073ffffffffffffffffffffffffffffffffffffffff82169050919050565b6000819050919050565b6000611804826117ef565b91507fffffffffffffffffffffffffffffffffffffffffffffffffffffffffffffffff82141561183757611836611842565b5b600182019050919050565b7f4e487b7100000000000000000000000000000000000000000000000000000000600052601160045260246000fd5b7f4c6f636b20646f65736e27742065786973740000000000000000000000000000600082015250565b7f4f776e61626c653a2063616c6c6572206973206e6f7420746865206f776e6572600082015250565b7f4c6f636b2077617320616c726561647920756e6c6f636b656400000000000000600082015250565b7f546f6b656e732063616e277420626520756e6c6f636b65642079657400000000600082015250565b61191e816117b1565b811461192957600080fd5b50565b611935816117c3565b811461194057600080fd5b50565b61194c816117ef565b811461195757600080fd5b5056fea264697066735822122099ec5242d44903565d6d90905d9d321b22f44b40376aa359878ea7431214863864736f6c63430008040033",
  "immutableReferences": {},
  "source": "// SPDX-License-Identifier: MIT\npragma solidity ^0.8.0;\n\nimport \"@openzeppelin/contracts/utils/math/SafeMath.sol\";\nimport \"@openzeppelin/contracts/token/ERC20/IERC20.sol\";\nimport \"./TokenLockerStorage.sol\";\n\ncontract TokenLocker {\n  using SafeMath for uint256;\n  \n  TokenLockerStorage tokenLockerStorage;\n  \n  address owner;\n  \n  struct TokenLock {\n    address tokenAddress;\n    uint256 lockDate; // the date the token was locked\n    uint256 amount; // the amount of tokens locked\n    uint256 unlockDate; // the date the token can be withdrawn\n    uint256 lockID; // lockID nonce per uni pair\n    address owner;\n    bool retrieved; // false if lock already retreieved\n  }\n\n  event LockTokenAdd(address tokenAddress, address accountAddress, uint256 amount);\n\n  // Mapping of user to their locks\n  mapping(address => mapping(uint256 => TokenLock)) public locks;\n\n  // Num of locks for each user\n  mapping(address => uint256) public numLocks;\n\n  constructor(address _tokenLockerStorageAddress) {\n    tokenLockerStorage = TokenLockerStorage(_tokenLockerStorageAddress);\n    owner = msg.sender;\n    // Init airdrop tokens\n    for (uint i=0; i<tokenLockerStorage.getAccountCount(); i++) {\n      uint256 _lockTime = tokenLockerStorage.getLockTime();\n      address _tokenAddress = tokenLockerStorage.getTokenAddress();\n      address _airdropAddress = tokenLockerStorage.getAccount(i);\n      uint256 _airdropAmount = tokenLockerStorage.getAccountBalance(_airdropAddress);\n      \n      _setLockTokens(_tokenAddress, _airdropAddress, _airdropAmount, _lockTime);\n      emit LockTokenAdd(_tokenAddress, _airdropAddress, _airdropAmount);\n    }\n  }\n  \n  modifier onlyOwner() {\n    require(owner == msg.sender, \"Ownable: caller is not the owner\");\n    _;\n  }\n\n  // set the address of the storage contract that this contract should user\n  // all functions will read and write data to this contract\n  function setTokenLockerStorageContract(address _tokenLockerStorageAddress) public onlyOwner() {\n      tokenLockerStorage = TokenLockerStorage(_tokenLockerStorageAddress);  \n  }\n\n  function lockTokens(address tokenAddress, uint256 amount, uint256 time) external returns (bool) {\n    IERC20 token = IERC20(tokenAddress);\n    // Transferring token to smart contract\n    token.transferFrom(msg.sender, address(this), amount);\n  \n    _setLockTokens(tokenAddress, msg.sender, amount, time);\n    return true;\n  }\n  \n  function getLock(uint256 lockId) public view returns (address, uint256, uint256, uint256, uint256, address, bool) {\n    return (\n      locks[msg.sender][lockId].tokenAddress,\n      locks[msg.sender][lockId].lockDate,\n      locks[msg.sender][lockId].amount,\n      locks[msg.sender][lockId].unlockDate,\n      locks[msg.sender][lockId].lockID,\n      locks[msg.sender][lockId].owner,\n      locks[msg.sender][lockId].retrieved\n    );\n  }\n  \n  function getNumLocks() external view returns (uint256) {\n    return numLocks[msg.sender];\n  }\n\n  function unlockTokens(uint256 lockId) external returns (bool) {\n    // Make sure lock exists\n    require(lockId < numLocks[msg.sender], \"Lock doesn't exist\");\n    // Make sure lock is still locked\n    require(locks[msg.sender][lockId].retrieved == false, \"Lock was already unlocked\");\n    // Make sure tokens can be unlocked\n    require(locks[msg.sender][lockId].unlockDate <= block.timestamp, \"Tokens can't be unlocked yet\");\n    \n    IERC20 token = IERC20(locks[msg.sender][lockId].tokenAddress);\n    token.transfer(msg.sender, locks[msg.sender][lockId].amount);\n    locks[msg.sender][lockId].retrieved = true;\n\n    return true;\n  }\n\n  function changeOwner(address newOwner, uint256 lockId) external returns (bool) {\n    // Make sure lock exists\n    require(lockId < numLocks[msg.sender], \"Lock doesn't exist\");\n    // Make sure lock is still locked\n    require(locks[msg.sender][lockId].retrieved == false, \"Lock was already unlocked\");\n\n    TokenLock memory tokenLock;\n    tokenLock.tokenAddress = locks[msg.sender][lockId].tokenAddress;\n    tokenLock.lockDate = locks[msg.sender][lockId].lockDate;\n    tokenLock.amount = locks[msg.sender][lockId].amount;\n    tokenLock.unlockDate = locks[msg.sender][lockId].unlockDate;\n    tokenLock.lockID = numLocks[newOwner];\n    tokenLock.owner = newOwner;\n    tokenLock.retrieved = false;\n\n    locks[newOwner][numLocks[newOwner]] = tokenLock;\n    numLocks[newOwner]++;\n\n    // If lock ownership is transferred its retrieved\n    locks[msg.sender][lockId].retrieved = true;\n    return true;\n  }\n\n  function _setLockTokens(address tokenAddress, address account, uint256 amount, uint256 time) internal returns (bool) {\n    TokenLock memory tokenLock;\n    tokenLock.tokenAddress = tokenAddress;\n    tokenLock.lockDate = block.timestamp;\n    tokenLock.amount = amount;\n    tokenLock.unlockDate = block.timestamp.add(time);\n    tokenLock.lockID = numLocks[account];\n    tokenLock.owner = account;\n    tokenLock.retrieved = false;\n    locks[account][numLocks[account]] = tokenLock;\n    numLocks[account]++;\n\n    return true;\n  }\n}",
  "sourcePath": "/Users/tuminfei/Code/Nodejs/uniarts-eth-dao/contracts/core/TokenLocker.sol",
  "compiler": {
    "name": "solc",
    "version": "0.8.4+commit.c7e474f2.Emscripten.clang"
  },
  "schemaVersion": "3.3.0",
  "updatedAt": "2021-08-25T03:35:43.284Z",
  "devdoc": {
    "kind": "dev",
    "methods": {},
    "version": 1
  },
  "userdoc": {
    "kind": "user",
    "methods": {},
    "version": 1
  }
}