{
  "contractName": "TokenLocker",
  "abi": [
    {
      "inputs": [
        {
          "internalType": "address",
          "name": "_tokenLockerStorageAddress",
          "type": "address"
        }
      ],
      "stateMutability": "nonpayable",
      "type": "constructor"
    },
    {
      "anonymous": false,
      "inputs": [
        {
          "indexed": false,
          "internalType": "address",
          "name": "tokenAddress",
          "type": "address"
        },
        {
          "indexed": false,
          "internalType": "address",
          "name": "accountAddress",
          "type": "address"
        },
        {
          "indexed": false,
          "internalType": "uint256",
          "name": "amount",
          "type": "uint256"
        }
      ],
      "name": "LockTokenAdd",
      "type": "event"
    },
    {
      "anonymous": false,
      "inputs": [
        {
          "indexed": true,
          "internalType": "address",
          "name": "previousOwner",
          "type": "address"
        },
        {
          "indexed": true,
          "internalType": "address",
          "name": "newOwner",
          "type": "address"
        }
      ],
      "name": "OwnershipTransferred",
      "type": "event"
    },
    {
      "inputs": [
        {
          "internalType": "address",
          "name": "",
          "type": "address"
        },
        {
          "internalType": "uint256",
          "name": "",
          "type": "uint256"
        }
      ],
      "name": "locks",
      "outputs": [
        {
          "internalType": "address",
          "name": "tokenAddress",
          "type": "address"
        },
        {
          "internalType": "uint256",
          "name": "lockDate",
          "type": "uint256"
        },
        {
          "internalType": "uint256",
          "name": "amount",
          "type": "uint256"
        },
        {
          "internalType": "uint256",
          "name": "unlockDate",
          "type": "uint256"
        },
        {
          "internalType": "uint256",
          "name": "lockID",
          "type": "uint256"
        },
        {
          "internalType": "address",
          "name": "owner",
          "type": "address"
        },
        {
          "internalType": "bool",
          "name": "retrieved",
          "type": "bool"
        }
      ],
      "stateMutability": "view",
      "type": "function"
    },
    {
      "inputs": [
        {
          "internalType": "address",
          "name": "",
          "type": "address"
        }
      ],
      "name": "numLocks",
      "outputs": [
        {
          "internalType": "uint256",
          "name": "",
          "type": "uint256"
        }
      ],
      "stateMutability": "view",
      "type": "function"
    },
    {
      "inputs": [],
      "name": "owner",
      "outputs": [
        {
          "internalType": "address",
          "name": "",
          "type": "address"
        }
      ],
      "stateMutability": "view",
      "type": "function"
    },
    {
      "inputs": [],
      "name": "renounceOwnership",
      "outputs": [],
      "stateMutability": "nonpayable",
      "type": "function"
    },
    {
      "inputs": [
        {
          "internalType": "address",
          "name": "newOwner",
          "type": "address"
        }
      ],
      "name": "transferOwnership",
      "outputs": [],
      "stateMutability": "nonpayable",
      "type": "function"
    },
    {
      "inputs": [
        {
          "internalType": "address",
          "name": "_tokenLockerStorageAddress",
          "type": "address"
        }
      ],
      "name": "setTokenLockerStorageContract",
      "outputs": [],
      "stateMutability": "nonpayable",
      "type": "function"
    },
    {
      "inputs": [
        {
          "internalType": "address",
          "name": "newAddress",
          "type": "address"
        }
      ],
      "name": "setVoteContractAddress",
      "outputs": [],
      "stateMutability": "nonpayable",
      "type": "function"
    },
    {
      "inputs": [
        {
          "internalType": "address",
          "name": "tokenAddress",
          "type": "address"
        },
        {
          "internalType": "uint256",
          "name": "amount",
          "type": "uint256"
        },
        {
          "internalType": "uint256",
          "name": "time",
          "type": "uint256"
        }
      ],
      "name": "lockTokens",
      "outputs": [
        {
          "internalType": "bool",
          "name": "",
          "type": "bool"
        }
      ],
      "stateMutability": "nonpayable",
      "type": "function"
    },
    {
      "inputs": [
        {
          "internalType": "uint256",
          "name": "lockId",
          "type": "uint256"
        }
      ],
      "name": "getLock",
      "outputs": [
        {
          "internalType": "address",
          "name": "",
          "type": "address"
        },
        {
          "internalType": "uint256",
          "name": "",
          "type": "uint256"
        },
        {
          "internalType": "uint256",
          "name": "",
          "type": "uint256"
        },
        {
          "internalType": "uint256",
          "name": "",
          "type": "uint256"
        },
        {
          "internalType": "uint256",
          "name": "",
          "type": "uint256"
        },
        {
          "internalType": "address",
          "name": "",
          "type": "address"
        },
        {
          "internalType": "bool",
          "name": "",
          "type": "bool"
        }
      ],
      "stateMutability": "view",
      "type": "function"
    },
    {
      "inputs": [],
      "name": "getNumLocks",
      "outputs": [
        {
          "internalType": "uint256",
          "name": "",
          "type": "uint256"
        }
      ],
      "stateMutability": "view",
      "type": "function"
    },
    {
      "inputs": [
        {
          "internalType": "uint256",
          "name": "lockId",
          "type": "uint256"
        }
      ],
      "name": "unlockTokens",
      "outputs": [
        {
          "internalType": "bool",
          "name": "",
          "type": "bool"
        }
      ],
      "stateMutability": "nonpayable",
      "type": "function"
    },
    {
      "inputs": [
        {
          "internalType": "address",
          "name": "newOwner",
          "type": "address"
        },
        {
          "internalType": "uint256",
          "name": "lockId",
          "type": "uint256"
        }
      ],
      "name": "changeLockOwner",
      "outputs": [
        {
          "internalType": "bool",
          "name": "",
          "type": "bool"
        }
      ],
      "stateMutability": "nonpayable",
      "type": "function"
    }
  ],
  "bytecode": "0x60806040523480156200001157600080fd5b50604051620028d4380380620028d483398181016040528101906200003791906200089b565b620000576200004b6200047560201b60201c565b6200047d60201b60201c565b80600160006101000a81548173ffffffffffffffffffffffffffffffffffffffff021916908373ffffffffffffffffffffffffffffffffffffffff16021790555060005b600160009054906101000a900473ffffffffffffffffffffffffffffffffffffffff1673ffffffffffffffffffffffffffffffffffffffff1663a98e4e776040518163ffffffff1660e01b815260040160206040518083038186803b1580156200010457600080fd5b505afa15801562000119573d6000803e3d6000fd5b505050506040513d601f19601f820116820180604052508101906200013f9190620008c7565b8110156200046d576000600160009054906101000a900473ffffffffffffffffffffffffffffffffffffffff1673ffffffffffffffffffffffffffffffffffffffff1663c0a4d64d6040518163ffffffff1660e01b815260040160206040518083038186803b158015620001b257600080fd5b505afa158015620001c7573d6000803e3d6000fd5b505050506040513d601f19601f82011682018060405250810190620001ed9190620008c7565b90506000600160009054906101000a900473ffffffffffffffffffffffffffffffffffffffff1673ffffffffffffffffffffffffffffffffffffffff166310fe9ae86040518163ffffffff1660e01b815260040160206040518083038186803b1580156200025a57600080fd5b505afa1580156200026f573d6000803e3d6000fd5b505050506040513d601f19601f820116820180604052508101906200029591906200089b565b90506000600160009054906101000a900473ffffffffffffffffffffffffffffffffffffffff1673ffffffffffffffffffffffffffffffffffffffff1663ce88b145856040518263ffffffff1660e01b8152600401620002f691906200096f565b60206040518083038186803b1580156200030f57600080fd5b505afa15801562000324573d6000803e3d6000fd5b505050506040513d601f19601f820116820180604052508101906200034a91906200089b565b90506000600160009054906101000a900473ffffffffffffffffffffffffffffffffffffffff1673ffffffffffffffffffffffffffffffffffffffff166393423e9c836040518263ffffffff1660e01b8152600401620003ab919062000915565b60206040518083038186803b158015620003c457600080fd5b505afa158015620003d9573d6000803e3d6000fd5b505050506040513d601f19601f82011682018060405250810190620003ff9190620008c7565b905062000415838383876200054160201b60201c565b507f77bd1242a19e54b3bd440d5b291e4d28e9ffeb49418b0efba5f99cfcbcfc2a9e8383836040516200044b9392919062000932565b60405180910390a15050505080806200046490620009ca565b9150506200009b565b505062000a7b565b600033905090565b60008060009054906101000a900473ffffffffffffffffffffffffffffffffffffffff169050816000806101000a81548173ffffffffffffffffffffffffffffffffffffffff021916908373ffffffffffffffffffffffffffffffffffffffff1602179055508173ffffffffffffffffffffffffffffffffffffffff168173ffffffffffffffffffffffffffffffffffffffff167f8be0079c531659141344cd1fd0a4f28419497f9722a3daafe3b4186f6b6457e060405160405180910390a35050565b60006200054d62000802565b85816000019073ffffffffffffffffffffffffffffffffffffffff16908173ffffffffffffffffffffffffffffffffffffffff1681525050428160200181815250508381604001818152505082816060018181525050600460008673ffffffffffffffffffffffffffffffffffffffff1673ffffffffffffffffffffffffffffffffffffffff16815260200190815260200160002054816080018181525050848160a0019073ffffffffffffffffffffffffffffffffffffffff16908173ffffffffffffffffffffffffffffffffffffffff168152505060008160c001901515908115158152505080600360008773ffffffffffffffffffffffffffffffffffffffff1673ffffffffffffffffffffffffffffffffffffffff1681526020019081526020016000206000600460008973ffffffffffffffffffffffffffffffffffffffff1673ffffffffffffffffffffffffffffffffffffffff16815260200190815260200160002054815260200190815260200160002060008201518160000160006101000a81548173ffffffffffffffffffffffffffffffffffffffff021916908373ffffffffffffffffffffffffffffffffffffffff1602179055506020820151816001015560408201518160020155606082015181600301556080820151816004015560a08201518160050160006101000a81548173ffffffffffffffffffffffffffffffffffffffff021916908373ffffffffffffffffffffffffffffffffffffffff16021790555060c08201518160050160146101000a81548160ff021916908315150217905550905050600460008673ffffffffffffffffffffffffffffffffffffffff1673ffffffffffffffffffffffffffffffffffffffff1681526020019081526020016000206000815480929190620007f090620009ca565b91905055506001915050949350505050565b6040518060e00160405280600073ffffffffffffffffffffffffffffffffffffffff16815260200160008152602001600081526020016000815260200160008152602001600073ffffffffffffffffffffffffffffffffffffffff1681526020016000151581525090565b6000815190506200087e8162000a47565b92915050565b600081519050620008958162000a61565b92915050565b600060208284031215620008ae57600080fd5b6000620008be848285016200086d565b91505092915050565b600060208284031215620008da57600080fd5b6000620008ea8482850162000884565b91505092915050565b620008fe816200098c565b82525050565b6200090f81620009c0565b82525050565b60006020820190506200092c6000830184620008f3565b92915050565b6000606082019050620009496000830186620008f3565b620009586020830185620008f3565b62000967604083018462000904565b949350505050565b600060208201905062000986600083018462000904565b92915050565b60006200099982620009a0565b9050919050565b600073ffffffffffffffffffffffffffffffffffffffff82169050919050565b6000819050919050565b6000620009d782620009c0565b91507fffffffffffffffffffffffffffffffffffffffffffffffffffffffffffffffff82141562000a0d5762000a0c62000a18565b5b600182019050919050565b7f4e487b7100000000000000000000000000000000000000000000000000000000600052601160045260246000fd5b62000a52816200098c565b811462000a5e57600080fd5b50565b62000a6c81620009c0565b811462000a7857600080fd5b50565b611e498062000a8b6000396000f3fe608060405234801561001057600080fd5b50600436106100b45760003560e01c80639ba8aeb9116100715780639ba8aeb914610167578063a25983e514610197578063b425f802146101c7578063b9ef0830146101fd578063d68f4dd11461022d578063f2fde38b14610263576100b4565b80630d87cedb146100b957806314d0d5b3146100d7578063715018a6146100f35780637c405325146100fd5780638da5cb5b1461012d578063956339b41461014b575b600080fd5b6100c161027f565b6040516100ce9190611bc6565b60405180910390f35b6100f160048036038101906100ec91906117fc565b6102c6565b005b6100fb610386565b005b610117600480360381019061011291906118d9565b61040e565b6040516101249190611aeb565b60405180910390f35b61013561079d565b6040516101429190611a01565b60405180910390f35b610165600480360381019061016091906117fc565b6107c6565b005b610181600480360381019061017c9190611825565b6108f6565b60405161018e9190611aeb565b60405180910390f35b6101b160048036038101906101ac9190611861565b610eb1565b6040516101be9190611aeb565b60405180910390f35b6101e160048036038101906101dc9190611825565b610f60565b6040516101f49796959493929190611a7c565b60405180910390f35b610217600480360381019061021291906117fc565b610ffc565b6040516102249190611bc6565b60405180910390f35b610247600480360381019061024291906118d9565b611014565b60405161025a9796959493929190611a7c565b60405180910390f35b61027d600480360381019061027891906117fc565b6112d1565b005b6000600460003373ffffffffffffffffffffffffffffffffffffffff1673ffffffffffffffffffffffffffffffffffffffff16815260200190815260200160002054905090565b6102ce6113c9565b73ffffffffffffffffffffffffffffffffffffffff166102ec61079d565b73ffffffffffffffffffffffffffffffffffffffff1614610342576040517f08c379a000000000000000000000000000000000000000000000000000000000815260040161033990611b46565b60405180910390fd5b80600160006101000a81548173ffffffffffffffffffffffffffffffffffffffff021916908373ffffffffffffffffffffffffffffffffffffffff16021790555050565b61038e6113c9565b73ffffffffffffffffffffffffffffffffffffffff166103ac61079d565b73ffffffffffffffffffffffffffffffffffffffff1614610402576040517f08c379a00000000000000000000000000000000000000000000000000000000081526004016103f990611b46565b60405180910390fd5b61040c60006113d1565b565b6000600460003373ffffffffffffffffffffffffffffffffffffffff1673ffffffffffffffffffffffffffffffffffffffff168152602001908152602001600020548210610491576040517f08c379a000000000000000000000000000000000000000000000000000000000815260040161048890611b26565b60405180910390fd5b60001515600360003373ffffffffffffffffffffffffffffffffffffffff1673ffffffffffffffffffffffffffffffffffffffff168152602001908152602001600020600084815260200190815260200160002060050160149054906101000a900460ff16151514610538576040517f08c379a000000000000000000000000000000000000000000000000000000000815260040161052f90611b86565b60405180910390fd5b42600360003373ffffffffffffffffffffffffffffffffffffffff1673ffffffffffffffffffffffffffffffffffffffff16815260200190815260200160002060008481526020019081526020016000206003015411156105ce576040517f08c379a00000000000000000000000000000000000000000000000000000000081526004016105c590611ba6565b60405180910390fd5b6000600360003373ffffffffffffffffffffffffffffffffffffffff1673ffffffffffffffffffffffffffffffffffffffff168152602001908152602001600020600084815260200190815260200160002060000160009054906101000a900473ffffffffffffffffffffffffffffffffffffffff1690508073ffffffffffffffffffffffffffffffffffffffff1663a9059cbb33600360003373ffffffffffffffffffffffffffffffffffffffff1673ffffffffffffffffffffffffffffffffffffffff1681526020019081526020016000206000878152602001908152602001600020600201546040518363ffffffff1660e01b81526004016106d4929190611a53565b602060405180830381600087803b1580156106ee57600080fd5b505af1158015610702573d6000803e3d6000fd5b505050506040513d601f19601f8201168201806040525081019061072691906118b0565b506001600360003373ffffffffffffffffffffffffffffffffffffffff1673ffffffffffffffffffffffffffffffffffffffff168152602001908152602001600020600085815260200190815260200160002060050160146101000a81548160ff0219169083151502179055506001915050919050565b60008060009054906101000a900473ffffffffffffffffffffffffffffffffffffffff16905090565b6107ce6113c9565b73ffffffffffffffffffffffffffffffffffffffff166107ec61079d565b73ffffffffffffffffffffffffffffffffffffffff1614610842576040517f08c379a000000000000000000000000000000000000000000000000000000000815260040161083990611b46565b60405180910390fd5b600073ffffffffffffffffffffffffffffffffffffffff168173ffffffffffffffffffffffffffffffffffffffff1614156108b2576040517f08c379a00000000000000000000000000000000000000000000000000000000081526004016108a990611b66565b60405180910390fd5b80600260006101000a81548173ffffffffffffffffffffffffffffffffffffffff021916908373ffffffffffffffffffffffffffffffffffffffff16021790555050565b6000600460003373ffffffffffffffffffffffffffffffffffffffff1673ffffffffffffffffffffffffffffffffffffffff168152602001908152602001600020548210610979576040517f08c379a000000000000000000000000000000000000000000000000000000000815260040161097090611b26565b60405180910390fd5b60001515600360003373ffffffffffffffffffffffffffffffffffffffff1673ffffffffffffffffffffffffffffffffffffffff168152602001908152602001600020600084815260200190815260200160002060050160149054906101000a900460ff16151514610a20576040517f08c379a0000000000000000000000000000000000000000000000000000000008152600401610a1790611b86565b60405180910390fd5b610a28611752565b600360003373ffffffffffffffffffffffffffffffffffffffff1673ffffffffffffffffffffffffffffffffffffffff168152602001908152602001600020600084815260200190815260200160002060000160009054906101000a900473ffffffffffffffffffffffffffffffffffffffff16816000019073ffffffffffffffffffffffffffffffffffffffff16908173ffffffffffffffffffffffffffffffffffffffff1681525050600360003373ffffffffffffffffffffffffffffffffffffffff1673ffffffffffffffffffffffffffffffffffffffff168152602001908152602001600020600084815260200190815260200160002060010154816020018181525050600360003373ffffffffffffffffffffffffffffffffffffffff1673ffffffffffffffffffffffffffffffffffffffff168152602001908152602001600020600084815260200190815260200160002060020154816040018181525050600360003373ffffffffffffffffffffffffffffffffffffffff1673ffffffffffffffffffffffffffffffffffffffff168152602001908152602001600020600084815260200190815260200160002060030154816060018181525050600460008573ffffffffffffffffffffffffffffffffffffffff1673ffffffffffffffffffffffffffffffffffffffff16815260200190815260200160002054816080018181525050838160a0019073ffffffffffffffffffffffffffffffffffffffff16908173ffffffffffffffffffffffffffffffffffffffff168152505060008160c001901515908115158152505080600360008673ffffffffffffffffffffffffffffffffffffffff1673ffffffffffffffffffffffffffffffffffffffff1681526020019081526020016000206000600460008873ffffffffffffffffffffffffffffffffffffffff1673ffffffffffffffffffffffffffffffffffffffff16815260200190815260200160002054815260200190815260200160002060008201518160000160006101000a81548173ffffffffffffffffffffffffffffffffffffffff021916908373ffffffffffffffffffffffffffffffffffffffff1602179055506020820151816001015560408201518160020155606082015181600301556080820151816004015560a08201518160050160006101000a81548173ffffffffffffffffffffffffffffffffffffffff021916908373ffffffffffffffffffffffffffffffffffffffff16021790555060c08201518160050160146101000a81548160ff021916908315150217905550905050600460008573ffffffffffffffffffffffffffffffffffffffff1673ffffffffffffffffffffffffffffffffffffffff1681526020019081526020016000206000815480929190610e3590611c3a565b91905055506001600360003373ffffffffffffffffffffffffffffffffffffffff1673ffffffffffffffffffffffffffffffffffffffff168152602001908152602001600020600085815260200190815260200160002060050160146101000a81548160ff021916908315150217905550600191505092915050565b6000808490508073ffffffffffffffffffffffffffffffffffffffff166323b872dd3330876040518463ffffffff1660e01b8152600401610ef493929190611a1c565b602060405180830381600087803b158015610f0e57600080fd5b505af1158015610f22573d6000803e3d6000fd5b505050506040513d601f19601f82011682018060405250810190610f4691906118b0565b50610f5385338686611495565b5060019150509392505050565b6003602052816000526040600020602052806000526040600020600091509150508060000160009054906101000a900473ffffffffffffffffffffffffffffffffffffffff16908060010154908060020154908060030154908060040154908060050160009054906101000a900473ffffffffffffffffffffffffffffffffffffffff16908060050160149054906101000a900460ff16905087565b60046020528060005260406000206000915090505481565b6000806000806000806000600360003373ffffffffffffffffffffffffffffffffffffffff1673ffffffffffffffffffffffffffffffffffffffff168152602001908152602001600020600089815260200190815260200160002060000160009054906101000a900473ffffffffffffffffffffffffffffffffffffffff16600360003373ffffffffffffffffffffffffffffffffffffffff1673ffffffffffffffffffffffffffffffffffffffff16815260200190815260200160002060008a815260200190815260200160002060010154600360003373ffffffffffffffffffffffffffffffffffffffff1673ffffffffffffffffffffffffffffffffffffffff16815260200190815260200160002060008b815260200190815260200160002060020154600360003373ffffffffffffffffffffffffffffffffffffffff1673ffffffffffffffffffffffffffffffffffffffff16815260200190815260200160002060008c815260200190815260200160002060030154600360003373ffffffffffffffffffffffffffffffffffffffff1673ffffffffffffffffffffffffffffffffffffffff16815260200190815260200160002060008d815260200190815260200160002060040154600360003373ffffffffffffffffffffffffffffffffffffffff1673ffffffffffffffffffffffffffffffffffffffff16815260200190815260200160002060008e815260200190815260200160002060050160009054906101000a900473ffffffffffffffffffffffffffffffffffffffff16600360003373ffffffffffffffffffffffffffffffffffffffff1673ffffffffffffffffffffffffffffffffffffffff16815260200190815260200160002060008f815260200190815260200160002060050160149054906101000a900460ff169650965096509650965096509650919395979092949650565b6112d96113c9565b73ffffffffffffffffffffffffffffffffffffffff166112f761079d565b73ffffffffffffffffffffffffffffffffffffffff161461134d576040517f08c379a000000000000000000000000000000000000000000000000000000000815260040161134490611b46565b60405180910390fd5b600073ffffffffffffffffffffffffffffffffffffffff168173ffffffffffffffffffffffffffffffffffffffff1614156113bd576040517f08c379a00000000000000000000000000000000000000000000000000000000081526004016113b490611b06565b60405180910390fd5b6113c6816113d1565b50565b600033905090565b60008060009054906101000a900473ffffffffffffffffffffffffffffffffffffffff169050816000806101000a81548173ffffffffffffffffffffffffffffffffffffffff021916908373ffffffffffffffffffffffffffffffffffffffff1602179055508173ffffffffffffffffffffffffffffffffffffffff168173ffffffffffffffffffffffffffffffffffffffff167f8be0079c531659141344cd1fd0a4f28419497f9722a3daafe3b4186f6b6457e060405160405180910390a35050565b600061149f611752565b85816000019073ffffffffffffffffffffffffffffffffffffffff16908173ffffffffffffffffffffffffffffffffffffffff1681525050428160200181815250508381604001818152505082816060018181525050600460008673ffffffffffffffffffffffffffffffffffffffff1673ffffffffffffffffffffffffffffffffffffffff16815260200190815260200160002054816080018181525050848160a0019073ffffffffffffffffffffffffffffffffffffffff16908173ffffffffffffffffffffffffffffffffffffffff168152505060008160c001901515908115158152505080600360008773ffffffffffffffffffffffffffffffffffffffff1673ffffffffffffffffffffffffffffffffffffffff1681526020019081526020016000206000600460008973ffffffffffffffffffffffffffffffffffffffff1673ffffffffffffffffffffffffffffffffffffffff16815260200190815260200160002054815260200190815260200160002060008201518160000160006101000a81548173ffffffffffffffffffffffffffffffffffffffff021916908373ffffffffffffffffffffffffffffffffffffffff1602179055506020820151816001015560408201518160020155606082015181600301556080820151816004015560a08201518160050160006101000a81548173ffffffffffffffffffffffffffffffffffffffff021916908373ffffffffffffffffffffffffffffffffffffffff16021790555060c08201518160050160146101000a81548160ff021916908315150217905550905050600460008673ffffffffffffffffffffffffffffffffffffffff1673ffffffffffffffffffffffffffffffffffffffff168152602001908152602001600020600081548092919061174090611c3a565b91905055506001915050949350505050565b6040518060e00160405280600073ffffffffffffffffffffffffffffffffffffffff16815260200160008152602001600081526020016000815260200160008152602001600073ffffffffffffffffffffffffffffffffffffffff1681526020016000151581525090565b6000813590506117cc81611dce565b92915050565b6000815190506117e181611de5565b92915050565b6000813590506117f681611dfc565b92915050565b60006020828403121561180e57600080fd5b600061181c848285016117bd565b91505092915050565b6000806040838503121561183857600080fd5b6000611846858286016117bd565b9250506020611857858286016117e7565b9150509250929050565b60008060006060848603121561187657600080fd5b6000611884868287016117bd565b9350506020611895868287016117e7565b92505060406118a6868287016117e7565b9150509250925092565b6000602082840312156118c257600080fd5b60006118d0848285016117d2565b91505092915050565b6000602082840312156118eb57600080fd5b60006118f9848285016117e7565b91505092915050565b61190b81611bf2565b82525050565b61191a81611c04565b82525050565b600061192d602683611be1565b915061193882611cb2565b604082019050919050565b6000611950601283611be1565b915061195b82611d01565b602082019050919050565b6000611973602083611be1565b915061197e82611d2a565b602082019050919050565b6000611996601f83611be1565b91506119a182611d53565b602082019050919050565b60006119b9601983611be1565b91506119c482611d7c565b602082019050919050565b60006119dc601c83611be1565b91506119e782611da5565b602082019050919050565b6119fb81611c30565b82525050565b6000602082019050611a166000830184611902565b92915050565b6000606082019050611a316000830186611902565b611a3e6020830185611902565b611a4b60408301846119f2565b949350505050565b6000604082019050611a686000830185611902565b611a7560208301846119f2565b9392505050565b600060e082019050611a91600083018a611902565b611a9e60208301896119f2565b611aab60408301886119f2565b611ab860608301876119f2565b611ac560808301866119f2565b611ad260a0830185611902565b611adf60c0830184611911565b98975050505050505050565b6000602082019050611b006000830184611911565b92915050565b60006020820190508181036000830152611b1f81611920565b9050919050565b60006020820190508181036000830152611b3f81611943565b9050919050565b60006020820190508181036000830152611b5f81611966565b9050919050565b60006020820190508181036000830152611b7f81611989565b9050919050565b60006020820190508181036000830152611b9f816119ac565b9050919050565b60006020820190508181036000830152611bbf816119cf565b9050919050565b6000602082019050611bdb60008301846119f2565b92915050565b600082825260208201905092915050565b6000611bfd82611c10565b9050919050565b60008115159050919050565b600073ffffffffffffffffffffffffffffffffffffffff82169050919050565b6000819050919050565b6000611c4582611c30565b91507fffffffffffffffffffffffffffffffffffffffffffffffffffffffffffffffff821415611c7857611c77611c83565b5b600182019050919050565b7f4e487b7100000000000000000000000000000000000000000000000000000000600052601160045260246000fd5b7f4f776e61626c653a206e6577206f776e657220697320746865207a65726f206160008201527f6464726573730000000000000000000000000000000000000000000000000000602082015250565b7f4c6f636b20646f65736e27742065786973740000000000000000000000000000600082015250565b7f4f776e61626c653a2063616c6c6572206973206e6f7420746865206f776e6572600082015250565b7f6e6577206164647265737320697320746865207a65726f206164647265737300600082015250565b7f4c6f636b2077617320616c726561647920756e6c6f636b656400000000000000600082015250565b7f546f6b656e732063616e277420626520756e6c6f636b65642079657400000000600082015250565b611dd781611bf2565b8114611de257600080fd5b50565b611dee81611c04565b8114611df957600080fd5b50565b611e0581611c30565b8114611e1057600080fd5b5056fea26469706673582212204c9614b6e17009d1028906a5af5e3558f2ddbc5d0bc1ff766544bc00ad77756964736f6c63430008040033",
  "immutableReferences": {},
  "source": "// SPDX-License-Identifier: MIT\npragma solidity ^0.8.0;\n\nimport \"@openzeppelin/contracts/access/Ownable.sol\";\nimport \"@openzeppelin/contracts/utils/math/SafeMath.sol\";\nimport \"@openzeppelin/contracts/token/ERC20/IERC20.sol\";\nimport \"./TokenLockerStorage.sol\";\n\ncontract TokenLocker is Ownable {\n  using SafeMath for uint256;\n  \n  TokenLockerStorage tokenLockerStorage;\n\n  address voteAddress;\n  \n  struct TokenLock {\n    address tokenAddress;\n    uint256 lockDate; // the date the token was locked\n    uint256 amount; // the amount of tokens locked\n    uint256 unlockDate; // the date the token can be withdrawn\n    uint256 lockID; // lockID nonce per uni pair\n    address owner;\n    bool retrieved; // false if lock already retreieved\n  }\n\n  event LockTokenAdd(address tokenAddress, address accountAddress, uint256 amount);\n\n  // Mapping of user to their locks\n  mapping(address => mapping(uint256 => TokenLock)) public locks;\n\n  // Num of locks for each user\n  mapping(address => uint256) public numLocks;\n\n  modifier onlyVoter() {\n     require(voteAddress == msg.sender, \"Ownable: caller is not the vote contract\");\n     _;\n  }\n\n  constructor(address _tokenLockerStorageAddress) {\n    tokenLockerStorage = TokenLockerStorage(_tokenLockerStorageAddress);\n    // Init airdrop tokens\n    for (uint i=0; i<tokenLockerStorage.getAccountCount(); i++) {\n      uint256 _lockTime = tokenLockerStorage.getLockTime();\n      address _tokenAddress = tokenLockerStorage.getTokenAddress();\n      address _airdropAddress = tokenLockerStorage.getAccount(i);\n      uint256 _airdropAmount = tokenLockerStorage.getAccountBalance(_airdropAddress);\n      \n      _setLockTokens(_tokenAddress, _airdropAddress, _airdropAmount, _lockTime);\n      emit LockTokenAdd(_tokenAddress, _airdropAddress, _airdropAmount);\n    }\n  }\n\n  // set the address of the storage contract that this contract should user\n  // all functions will read and write data to this contract\n  function setTokenLockerStorageContract(address _tokenLockerStorageAddress) public onlyOwner {\n      tokenLockerStorage = TokenLockerStorage(_tokenLockerStorageAddress);  \n  }\n\n  function setVoteContractAddress(address newAddress) public virtual onlyOwner {\n        require(newAddress != address(0), \"new address is the zero address\");\n        voteAddress = newAddress;\n  }\n\n  function lockTokens(address tokenAddress, uint256 amount, uint256 time) external returns (bool) {\n    IERC20 token = IERC20(tokenAddress);\n    // Transferring token to smart contract\n    token.transferFrom(msg.sender, address(this), amount);\n  \n    _setLockTokens(tokenAddress, msg.sender, amount, time);\n    return true;\n  }\n  \n  function getLock(uint256 lockId) public view returns (address, uint256, uint256, uint256, uint256, address, bool) {\n    return (\n      locks[msg.sender][lockId].tokenAddress,\n      locks[msg.sender][lockId].lockDate,\n      locks[msg.sender][lockId].amount,\n      locks[msg.sender][lockId].unlockDate,\n      locks[msg.sender][lockId].lockID,\n      locks[msg.sender][lockId].owner,\n      locks[msg.sender][lockId].retrieved\n    );\n  }\n  \n  function getNumLocks() external view returns (uint256) {\n    return numLocks[msg.sender];\n  }\n\n  function unlockTokens(uint256 lockId) external returns (bool) {\n    // Make sure lock exists\n    require(lockId < numLocks[msg.sender], \"Lock doesn't exist\");\n    // Make sure lock is still locked\n    require(locks[msg.sender][lockId].retrieved == false, \"Lock was already unlocked\");\n    // Make sure tokens can be unlocked\n    require(locks[msg.sender][lockId].unlockDate <= block.timestamp, \"Tokens can't be unlocked yet\");\n    \n    IERC20 token = IERC20(locks[msg.sender][lockId].tokenAddress);\n    token.transfer(msg.sender, locks[msg.sender][lockId].amount);\n    locks[msg.sender][lockId].retrieved = true;\n\n    return true;\n  }\n\n  function changeLockOwner(address newOwner, uint256 lockId) external returns (bool) {\n    // Make sure lock exists\n    require(lockId < numLocks[msg.sender], \"Lock doesn't exist\");\n    // Make sure lock is still locked\n    require(locks[msg.sender][lockId].retrieved == false, \"Lock was already unlocked\");\n\n    TokenLock memory tokenLock;\n    tokenLock.tokenAddress = locks[msg.sender][lockId].tokenAddress;\n    tokenLock.lockDate = locks[msg.sender][lockId].lockDate;\n    tokenLock.amount = locks[msg.sender][lockId].amount;\n    tokenLock.unlockDate = locks[msg.sender][lockId].unlockDate;\n    tokenLock.lockID = numLocks[newOwner];\n    tokenLock.owner = newOwner;\n    tokenLock.retrieved = false;\n\n    locks[newOwner][numLocks[newOwner]] = tokenLock;\n    numLocks[newOwner]++;\n\n    // If lock ownership is transferred its retrieved\n    locks[msg.sender][lockId].retrieved = true;\n    return true;\n  }\n\n  function _setLockTokens(address tokenAddress, address account, uint256 amount, uint256 time) internal returns (bool) {\n    TokenLock memory tokenLock;\n    tokenLock.tokenAddress = tokenAddress;\n    tokenLock.lockDate = block.timestamp;\n    tokenLock.amount = amount;\n    tokenLock.unlockDate = time;\n    tokenLock.lockID = numLocks[account];\n    tokenLock.owner = account;\n    tokenLock.retrieved = false;\n    locks[account][numLocks[account]] = tokenLock;\n    numLocks[account]++;\n\n    return true;\n  }\n}",
  "sourcePath": "/Users/tuminfei/Code/Nodejs/uniarts-eth-dao/contracts/core/TokenLocker.sol",
  "compiler": {
    "name": "solc",
    "version": "0.8.4+commit.c7e474f2.Emscripten.clang"
  },
  "schemaVersion": "3.3.0",
  "updatedAt": "2021-08-25T05:03:55.782Z",
  "devdoc": {
    "kind": "dev",
    "methods": {
      "owner()": {
        "details": "Returns the address of the current owner."
      },
      "renounceOwnership()": {
        "details": "Leaves the contract without owner. It will not be possible to call `onlyOwner` functions anymore. Can only be called by the current owner. NOTE: Renouncing ownership will leave the contract without an owner, thereby removing any functionality that is only available to the owner."
      },
      "transferOwnership(address)": {
        "details": "Transfers ownership of the contract to a new account (`newOwner`). Can only be called by the current owner."
      }
    },
    "version": 1
  },
  "userdoc": {
    "kind": "user",
    "methods": {},
    "version": 1
  }
}