{
  "contractName": "TokenLocker",
  "abi": [
    {
      "inputs": [
        {
          "internalType": "address",
          "name": "_tokenLockerStorageAddress",
          "type": "address"
        }
      ],
      "stateMutability": "nonpayable",
      "type": "constructor"
    },
    {
      "anonymous": false,
      "inputs": [
        {
          "indexed": false,
          "internalType": "address",
          "name": "tokenAddress",
          "type": "address"
        },
        {
          "indexed": false,
          "internalType": "address",
          "name": "accountAddress",
          "type": "address"
        },
        {
          "indexed": false,
          "internalType": "uint256",
          "name": "amount",
          "type": "uint256"
        }
      ],
      "name": "LockTokenAdd",
      "type": "event"
    },
    {
      "anonymous": false,
      "inputs": [
        {
          "indexed": false,
          "internalType": "address",
          "name": "tokenAddress",
          "type": "address"
        },
        {
          "indexed": false,
          "internalType": "address",
          "name": "accountAddress",
          "type": "address"
        },
        {
          "indexed": false,
          "internalType": "uint256",
          "name": "amount",
          "type": "uint256"
        }
      ],
      "name": "LockTokenVote",
      "type": "event"
    },
    {
      "anonymous": false,
      "inputs": [
        {
          "indexed": true,
          "internalType": "address",
          "name": "previousOwner",
          "type": "address"
        },
        {
          "indexed": true,
          "internalType": "address",
          "name": "newOwner",
          "type": "address"
        }
      ],
      "name": "OwnershipTransferred",
      "type": "event"
    },
    {
      "inputs": [
        {
          "internalType": "address",
          "name": "",
          "type": "address"
        },
        {
          "internalType": "uint256",
          "name": "",
          "type": "uint256"
        }
      ],
      "name": "locks",
      "outputs": [
        {
          "internalType": "address",
          "name": "tokenAddress",
          "type": "address"
        },
        {
          "internalType": "uint256",
          "name": "lockDate",
          "type": "uint256"
        },
        {
          "internalType": "uint256",
          "name": "amount",
          "type": "uint256"
        },
        {
          "internalType": "uint256",
          "name": "unlockDate",
          "type": "uint256"
        },
        {
          "internalType": "uint256",
          "name": "lockID",
          "type": "uint256"
        },
        {
          "internalType": "address",
          "name": "owner",
          "type": "address"
        },
        {
          "internalType": "bool",
          "name": "retrieved",
          "type": "bool"
        }
      ],
      "stateMutability": "view",
      "type": "function"
    },
    {
      "inputs": [
        {
          "internalType": "address",
          "name": "",
          "type": "address"
        }
      ],
      "name": "numLocks",
      "outputs": [
        {
          "internalType": "uint256",
          "name": "",
          "type": "uint256"
        }
      ],
      "stateMutability": "view",
      "type": "function"
    },
    {
      "inputs": [],
      "name": "owner",
      "outputs": [
        {
          "internalType": "address",
          "name": "",
          "type": "address"
        }
      ],
      "stateMutability": "view",
      "type": "function"
    },
    {
      "inputs": [],
      "name": "renounceOwnership",
      "outputs": [],
      "stateMutability": "nonpayable",
      "type": "function"
    },
    {
      "inputs": [
        {
          "internalType": "address",
          "name": "newOwner",
          "type": "address"
        }
      ],
      "name": "transferOwnership",
      "outputs": [],
      "stateMutability": "nonpayable",
      "type": "function"
    },
    {
      "inputs": [
        {
          "internalType": "address",
          "name": "_tokenLockerStorageAddress",
          "type": "address"
        }
      ],
      "name": "setTokenLockerStorageContract",
      "outputs": [],
      "stateMutability": "nonpayable",
      "type": "function"
    },
    {
      "inputs": [
        {
          "internalType": "address",
          "name": "newAddress",
          "type": "address"
        }
      ],
      "name": "setVoteContractAddress",
      "outputs": [],
      "stateMutability": "nonpayable",
      "type": "function"
    },
    {
      "inputs": [
        {
          "internalType": "address",
          "name": "tokenAddress",
          "type": "address"
        },
        {
          "internalType": "uint256",
          "name": "amount",
          "type": "uint256"
        },
        {
          "internalType": "uint256",
          "name": "time",
          "type": "uint256"
        }
      ],
      "name": "lockTokens",
      "outputs": [
        {
          "internalType": "bool",
          "name": "",
          "type": "bool"
        }
      ],
      "stateMutability": "nonpayable",
      "type": "function"
    },
    {
      "inputs": [
        {
          "internalType": "uint256",
          "name": "lockId",
          "type": "uint256"
        }
      ],
      "name": "getLock",
      "outputs": [
        {
          "internalType": "address",
          "name": "",
          "type": "address"
        },
        {
          "internalType": "uint256",
          "name": "",
          "type": "uint256"
        },
        {
          "internalType": "uint256",
          "name": "",
          "type": "uint256"
        },
        {
          "internalType": "uint256",
          "name": "",
          "type": "uint256"
        },
        {
          "internalType": "uint256",
          "name": "",
          "type": "uint256"
        },
        {
          "internalType": "address",
          "name": "",
          "type": "address"
        },
        {
          "internalType": "bool",
          "name": "",
          "type": "bool"
        }
      ],
      "stateMutability": "view",
      "type": "function"
    },
    {
      "inputs": [],
      "name": "getNumLocks",
      "outputs": [
        {
          "internalType": "uint256",
          "name": "",
          "type": "uint256"
        }
      ],
      "stateMutability": "view",
      "type": "function"
    },
    {
      "inputs": [
        {
          "internalType": "uint256",
          "name": "lockId",
          "type": "uint256"
        }
      ],
      "name": "unlockTokens",
      "outputs": [
        {
          "internalType": "bool",
          "name": "",
          "type": "bool"
        }
      ],
      "stateMutability": "nonpayable",
      "type": "function"
    },
    {
      "inputs": [
        {
          "internalType": "address",
          "name": "newOwner",
          "type": "address"
        },
        {
          "internalType": "uint256",
          "name": "lockId",
          "type": "uint256"
        }
      ],
      "name": "changeLockOwner",
      "outputs": [
        {
          "internalType": "bool",
          "name": "",
          "type": "bool"
        }
      ],
      "stateMutability": "nonpayable",
      "type": "function"
    },
    {
      "inputs": [
        {
          "internalType": "uint256",
          "name": "lockId",
          "type": "uint256"
        },
        {
          "internalType": "address",
          "name": "accountAddress",
          "type": "address"
        }
      ],
      "name": "subLockForVote",
      "outputs": [
        {
          "internalType": "uint256",
          "name": "amount",
          "type": "uint256"
        }
      ],
      "stateMutability": "nonpayable",
      "type": "function"
    }
  ],
  "bytecode": "0x60806040526000600260006101000a81548173ffffffffffffffffffffffffffffffffffffffff021916908373ffffffffffffffffffffffffffffffffffffffff1602179055503480156200005357600080fd5b5060405162002e2038038062002e208339818101604052810190620000799190620008dd565b620000996200008d620004b760201b60201c565b620004bf60201b60201c565b80600160006101000a81548173ffffffffffffffffffffffffffffffffffffffff021916908373ffffffffffffffffffffffffffffffffffffffff16021790555060005b600160009054906101000a900473ffffffffffffffffffffffffffffffffffffffff1673ffffffffffffffffffffffffffffffffffffffff1663a98e4e776040518163ffffffff1660e01b815260040160206040518083038186803b1580156200014657600080fd5b505afa1580156200015b573d6000803e3d6000fd5b505050506040513d601f19601f8201168201806040525081019062000181919062000909565b811015620004af576000600160009054906101000a900473ffffffffffffffffffffffffffffffffffffffff1673ffffffffffffffffffffffffffffffffffffffff1663c0a4d64d6040518163ffffffff1660e01b815260040160206040518083038186803b158015620001f457600080fd5b505afa15801562000209573d6000803e3d6000fd5b505050506040513d601f19601f820116820180604052508101906200022f919062000909565b90506000600160009054906101000a900473ffffffffffffffffffffffffffffffffffffffff1673ffffffffffffffffffffffffffffffffffffffff166310fe9ae86040518163ffffffff1660e01b815260040160206040518083038186803b1580156200029c57600080fd5b505afa158015620002b1573d6000803e3d6000fd5b505050506040513d601f19601f82011682018060405250810190620002d79190620008dd565b90506000600160009054906101000a900473ffffffffffffffffffffffffffffffffffffffff1673ffffffffffffffffffffffffffffffffffffffff1663ce88b145856040518263ffffffff1660e01b8152600401620003389190620009b1565b60206040518083038186803b1580156200035157600080fd5b505afa15801562000366573d6000803e3d6000fd5b505050506040513d601f19601f820116820180604052508101906200038c9190620008dd565b90506000600160009054906101000a900473ffffffffffffffffffffffffffffffffffffffff1673ffffffffffffffffffffffffffffffffffffffff166393423e9c836040518263ffffffff1660e01b8152600401620003ed919062000957565b60206040518083038186803b1580156200040657600080fd5b505afa1580156200041b573d6000803e3d6000fd5b505050506040513d601f19601f8201168201806040525081019062000441919062000909565b905062000457838383876200058360201b60201c565b507f77bd1242a19e54b3bd440d5b291e4d28e9ffeb49418b0efba5f99cfcbcfc2a9e8383836040516200048d9392919062000974565b60405180910390a1505050508080620004a69062000a0c565b915050620000dd565b505062000abd565b600033905090565b60008060009054906101000a900473ffffffffffffffffffffffffffffffffffffffff169050816000806101000a81548173ffffffffffffffffffffffffffffffffffffffff021916908373ffffffffffffffffffffffffffffffffffffffff1602179055508173ffffffffffffffffffffffffffffffffffffffff168173ffffffffffffffffffffffffffffffffffffffff167f8be0079c531659141344cd1fd0a4f28419497f9722a3daafe3b4186f6b6457e060405160405180910390a35050565b60006200058f62000844565b85816000019073ffffffffffffffffffffffffffffffffffffffff16908173ffffffffffffffffffffffffffffffffffffffff1681525050428160200181815250508381604001818152505082816060018181525050600460008673ffffffffffffffffffffffffffffffffffffffff1673ffffffffffffffffffffffffffffffffffffffff16815260200190815260200160002054816080018181525050848160a0019073ffffffffffffffffffffffffffffffffffffffff16908173ffffffffffffffffffffffffffffffffffffffff168152505060008160c001901515908115158152505080600360008773ffffffffffffffffffffffffffffffffffffffff1673ffffffffffffffffffffffffffffffffffffffff1681526020019081526020016000206000600460008973ffffffffffffffffffffffffffffffffffffffff1673ffffffffffffffffffffffffffffffffffffffff16815260200190815260200160002054815260200190815260200160002060008201518160000160006101000a81548173ffffffffffffffffffffffffffffffffffffffff021916908373ffffffffffffffffffffffffffffffffffffffff1602179055506020820151816001015560408201518160020155606082015181600301556080820151816004015560a08201518160050160006101000a81548173ffffffffffffffffffffffffffffffffffffffff021916908373ffffffffffffffffffffffffffffffffffffffff16021790555060c08201518160050160146101000a81548160ff021916908315150217905550905050600460008673ffffffffffffffffffffffffffffffffffffffff1673ffffffffffffffffffffffffffffffffffffffff1681526020019081526020016000206000815480929190620008329062000a0c565b91905055506001915050949350505050565b6040518060e00160405280600073ffffffffffffffffffffffffffffffffffffffff16815260200160008152602001600081526020016000815260200160008152602001600073ffffffffffffffffffffffffffffffffffffffff1681526020016000151581525090565b600081519050620008c08162000a89565b92915050565b600081519050620008d78162000aa3565b92915050565b600060208284031215620008f057600080fd5b60006200090084828501620008af565b91505092915050565b6000602082840312156200091c57600080fd5b60006200092c84828501620008c6565b91505092915050565b6200094081620009ce565b82525050565b620009518162000a02565b82525050565b60006020820190506200096e600083018462000935565b92915050565b60006060820190506200098b600083018662000935565b6200099a602083018562000935565b620009a9604083018462000946565b949350505050565b6000602082019050620009c8600083018462000946565b92915050565b6000620009db82620009e2565b9050919050565b600073ffffffffffffffffffffffffffffffffffffffff82169050919050565b6000819050919050565b600062000a198262000a02565b91507fffffffffffffffffffffffffffffffffffffffffffffffffffffffffffffffff82141562000a4f5762000a4e62000a5a565b5b600182019050919050565b7f4e487b7100000000000000000000000000000000000000000000000000000000600052601160045260246000fd5b62000a9481620009ce565b811462000aa057600080fd5b50565b62000aae8162000a02565b811462000aba57600080fd5b50565b6123538062000acd6000396000f3fe608060405234801561001057600080fd5b50600436106100cf5760003560e01c80639ba8aeb91161008c578063b9ef083011610066578063b9ef083014610218578063c7b1e3f214610248578063d68f4dd114610278578063f2fde38b146102ae576100cf565b80639ba8aeb914610182578063a25983e5146101b2578063b425f802146101e2576100cf565b80630d87cedb146100d457806314d0d5b3146100f2578063715018a61461010e5780637c405325146101185780638da5cb5b14610148578063956339b414610166575b600080fd5b6100dc6102ca565b6040516100e99190612081565b60405180910390f35b61010c60048036038101906101079190611c38565b610311565b005b6101166103d1565b005b610132600480360381019061012d9190611d15565b610459565b60405161013f9190611f86565b60405180910390f35b6101506107e8565b60405161015d9190611e9c565b60405180910390f35b610180600480360381019061017b9190611c38565b610811565b005b61019c60048036038101906101979190611c61565b610941565b6040516101a99190611f86565b60405180910390f35b6101cc60048036038101906101c79190611c9d565b610efc565b6040516101d99190611f86565b60405180910390f35b6101fc60048036038101906101f79190611c61565b610fab565b60405161020f9796959493929190611f17565b60405180910390f35b610232600480360381019061022d9190611c38565b611047565b60405161023f9190612081565b60405180910390f35b610262600480360381019061025d9190611d3e565b61105f565b60405161026f9190612081565b60405180910390f35b610292600480360381019061028d9190611d15565b611450565b6040516102a59796959493929190611f17565b60405180910390f35b6102c860048036038101906102c39190611c38565b61170d565b005b6000600460003373ffffffffffffffffffffffffffffffffffffffff1673ffffffffffffffffffffffffffffffffffffffff16815260200190815260200160002054905090565b610319611805565b73ffffffffffffffffffffffffffffffffffffffff166103376107e8565b73ffffffffffffffffffffffffffffffffffffffff161461038d576040517f08c379a000000000000000000000000000000000000000000000000000000000815260040161038490612001565b60405180910390fd5b80600160006101000a81548173ffffffffffffffffffffffffffffffffffffffff021916908373ffffffffffffffffffffffffffffffffffffffff16021790555050565b6103d9611805565b73ffffffffffffffffffffffffffffffffffffffff166103f76107e8565b73ffffffffffffffffffffffffffffffffffffffff161461044d576040517f08c379a000000000000000000000000000000000000000000000000000000000815260040161044490612001565b60405180910390fd5b610457600061180d565b565b6000600460003373ffffffffffffffffffffffffffffffffffffffff1673ffffffffffffffffffffffffffffffffffffffff1681526020019081526020016000205482106104dc576040517f08c379a00000000000000000000000000000000000000000000000000000000081526004016104d390611fc1565b60405180910390fd5b60001515600360003373ffffffffffffffffffffffffffffffffffffffff1673ffffffffffffffffffffffffffffffffffffffff168152602001908152602001600020600084815260200190815260200160002060050160149054906101000a900460ff16151514610583576040517f08c379a000000000000000000000000000000000000000000000000000000000815260040161057a90612041565b60405180910390fd5b42600360003373ffffffffffffffffffffffffffffffffffffffff1673ffffffffffffffffffffffffffffffffffffffff1681526020019081526020016000206000848152602001908152602001600020600301541115610619576040517f08c379a000000000000000000000000000000000000000000000000000000000815260040161061090612061565b60405180910390fd5b6000600360003373ffffffffffffffffffffffffffffffffffffffff1673ffffffffffffffffffffffffffffffffffffffff168152602001908152602001600020600084815260200190815260200160002060000160009054906101000a900473ffffffffffffffffffffffffffffffffffffffff1690508073ffffffffffffffffffffffffffffffffffffffff1663a9059cbb33600360003373ffffffffffffffffffffffffffffffffffffffff1673ffffffffffffffffffffffffffffffffffffffff1681526020019081526020016000206000878152602001908152602001600020600201546040518363ffffffff1660e01b815260040161071f929190611eee565b602060405180830381600087803b15801561073957600080fd5b505af115801561074d573d6000803e3d6000fd5b505050506040513d601f19601f820116820180604052508101906107719190611cec565b506001600360003373ffffffffffffffffffffffffffffffffffffffff1673ffffffffffffffffffffffffffffffffffffffff168152602001908152602001600020600085815260200190815260200160002060050160146101000a81548160ff0219169083151502179055506001915050919050565b60008060009054906101000a900473ffffffffffffffffffffffffffffffffffffffff16905090565b610819611805565b73ffffffffffffffffffffffffffffffffffffffff166108376107e8565b73ffffffffffffffffffffffffffffffffffffffff161461088d576040517f08c379a000000000000000000000000000000000000000000000000000000000815260040161088490612001565b60405180910390fd5b600073ffffffffffffffffffffffffffffffffffffffff168173ffffffffffffffffffffffffffffffffffffffff1614156108fd576040517f08c379a00000000000000000000000000000000000000000000000000000000081526004016108f490612021565b60405180910390fd5b80600260006101000a81548173ffffffffffffffffffffffffffffffffffffffff021916908373ffffffffffffffffffffffffffffffffffffffff16021790555050565b6000600460003373ffffffffffffffffffffffffffffffffffffffff1673ffffffffffffffffffffffffffffffffffffffff1681526020019081526020016000205482106109c4576040517f08c379a00000000000000000000000000000000000000000000000000000000081526004016109bb90611fc1565b60405180910390fd5b60001515600360003373ffffffffffffffffffffffffffffffffffffffff1673ffffffffffffffffffffffffffffffffffffffff168152602001908152602001600020600084815260200190815260200160002060050160149054906101000a900460ff16151514610a6b576040517f08c379a0000000000000000000000000000000000000000000000000000000008152600401610a6290612041565b60405180910390fd5b610a73611b8e565b600360003373ffffffffffffffffffffffffffffffffffffffff1673ffffffffffffffffffffffffffffffffffffffff168152602001908152602001600020600084815260200190815260200160002060000160009054906101000a900473ffffffffffffffffffffffffffffffffffffffff16816000019073ffffffffffffffffffffffffffffffffffffffff16908173ffffffffffffffffffffffffffffffffffffffff1681525050600360003373ffffffffffffffffffffffffffffffffffffffff1673ffffffffffffffffffffffffffffffffffffffff168152602001908152602001600020600084815260200190815260200160002060010154816020018181525050600360003373ffffffffffffffffffffffffffffffffffffffff1673ffffffffffffffffffffffffffffffffffffffff168152602001908152602001600020600084815260200190815260200160002060020154816040018181525050600360003373ffffffffffffffffffffffffffffffffffffffff1673ffffffffffffffffffffffffffffffffffffffff168152602001908152602001600020600084815260200190815260200160002060030154816060018181525050600460008573ffffffffffffffffffffffffffffffffffffffff1673ffffffffffffffffffffffffffffffffffffffff16815260200190815260200160002054816080018181525050838160a0019073ffffffffffffffffffffffffffffffffffffffff16908173ffffffffffffffffffffffffffffffffffffffff168152505060008160c001901515908115158152505080600360008673ffffffffffffffffffffffffffffffffffffffff1673ffffffffffffffffffffffffffffffffffffffff1681526020019081526020016000206000600460008873ffffffffffffffffffffffffffffffffffffffff1673ffffffffffffffffffffffffffffffffffffffff16815260200190815260200160002054815260200190815260200160002060008201518160000160006101000a81548173ffffffffffffffffffffffffffffffffffffffff021916908373ffffffffffffffffffffffffffffffffffffffff1602179055506020820151816001015560408201518160020155606082015181600301556080820151816004015560a08201518160050160006101000a81548173ffffffffffffffffffffffffffffffffffffffff021916908373ffffffffffffffffffffffffffffffffffffffff16021790555060c08201518160050160146101000a81548160ff021916908315150217905550905050600460008573ffffffffffffffffffffffffffffffffffffffff1673ffffffffffffffffffffffffffffffffffffffff1681526020019081526020016000206000815480929190610e80906120f5565b91905055506001600360003373ffffffffffffffffffffffffffffffffffffffff1673ffffffffffffffffffffffffffffffffffffffff168152602001908152602001600020600085815260200190815260200160002060050160146101000a81548160ff021916908315150217905550600191505092915050565b6000808490508073ffffffffffffffffffffffffffffffffffffffff166323b872dd3330876040518463ffffffff1660e01b8152600401610f3f93929190611eb7565b602060405180830381600087803b158015610f5957600080fd5b505af1158015610f6d573d6000803e3d6000fd5b505050506040513d601f19601f82011682018060405250810190610f919190611cec565b50610f9e853386866118d1565b5060019150509392505050565b6003602052816000526040600020602052806000526040600020600091509150508060000160009054906101000a900473ffffffffffffffffffffffffffffffffffffffff16908060010154908060020154908060030154908060040154908060050160009054906101000a900473ffffffffffffffffffffffffffffffffffffffff16908060050160149054906101000a900460ff16905087565b60046020528060005260406000206000915090505481565b60003373ffffffffffffffffffffffffffffffffffffffff16600260009054906101000a900473ffffffffffffffffffffffffffffffffffffffff1673ffffffffffffffffffffffffffffffffffffffff16146110f1576040517f08c379a00000000000000000000000000000000000000000000000000000000081526004016110e890611fe1565b60405180910390fd5b600460008373ffffffffffffffffffffffffffffffffffffffff1673ffffffffffffffffffffffffffffffffffffffff168152602001908152602001600020548310611172576040517f08c379a000000000000000000000000000000000000000000000000000000000815260040161116990611fc1565b60405180910390fd5b6000600360008473ffffffffffffffffffffffffffffffffffffffff1673ffffffffffffffffffffffffffffffffffffffff16815260200190815260200160002060008581526020019081526020016000206040518060e00160405290816000820160009054906101000a900473ffffffffffffffffffffffffffffffffffffffff1673ffffffffffffffffffffffffffffffffffffffff1673ffffffffffffffffffffffffffffffffffffffff168152602001600182015481526020016002820154815260200160038201548152602001600482015481526020016005820160009054906101000a900473ffffffffffffffffffffffffffffffffffffffff1673ffffffffffffffffffffffffffffffffffffffff1673ffffffffffffffffffffffffffffffffffffffff1681526020016005820160149054906101000a900460ff1615151515815250509050600015158160c0015115151461130b576040517f08c379a000000000000000000000000000000000000000000000000000000000815260040161130290612041565b60405180910390fd5b4281606001511115611352576040517f08c379a000000000000000000000000000000000000000000000000000000000815260040161134990612061565b60405180910390fd5b6000816000015190508073ffffffffffffffffffffffffffffffffffffffff1663a9059cbb3384604001516040518363ffffffff1660e01b815260040161139a929190611eee565b602060405180830381600087803b1580156113b457600080fd5b505af11580156113c8573d6000803e3d6000fd5b505050506040513d601f19601f820116820180604052508101906113ec9190611cec565b5060018260c00190151590811515815250507f09a3d926922a7f54f8d89f4473ab56557f2080af30e5e16e66df53aad7aabd36826000015185846040015160405161143993929190611eb7565b60405180910390a181604001519250505092915050565b6000806000806000806000600360003373ffffffffffffffffffffffffffffffffffffffff1673ffffffffffffffffffffffffffffffffffffffff168152602001908152602001600020600089815260200190815260200160002060000160009054906101000a900473ffffffffffffffffffffffffffffffffffffffff16600360003373ffffffffffffffffffffffffffffffffffffffff1673ffffffffffffffffffffffffffffffffffffffff16815260200190815260200160002060008a815260200190815260200160002060010154600360003373ffffffffffffffffffffffffffffffffffffffff1673ffffffffffffffffffffffffffffffffffffffff16815260200190815260200160002060008b815260200190815260200160002060020154600360003373ffffffffffffffffffffffffffffffffffffffff1673ffffffffffffffffffffffffffffffffffffffff16815260200190815260200160002060008c815260200190815260200160002060030154600360003373ffffffffffffffffffffffffffffffffffffffff1673ffffffffffffffffffffffffffffffffffffffff16815260200190815260200160002060008d815260200190815260200160002060040154600360003373ffffffffffffffffffffffffffffffffffffffff1673ffffffffffffffffffffffffffffffffffffffff16815260200190815260200160002060008e815260200190815260200160002060050160009054906101000a900473ffffffffffffffffffffffffffffffffffffffff16600360003373ffffffffffffffffffffffffffffffffffffffff1673ffffffffffffffffffffffffffffffffffffffff16815260200190815260200160002060008f815260200190815260200160002060050160149054906101000a900460ff169650965096509650965096509650919395979092949650565b611715611805565b73ffffffffffffffffffffffffffffffffffffffff166117336107e8565b73ffffffffffffffffffffffffffffffffffffffff1614611789576040517f08c379a000000000000000000000000000000000000000000000000000000000815260040161178090612001565b60405180910390fd5b600073ffffffffffffffffffffffffffffffffffffffff168173ffffffffffffffffffffffffffffffffffffffff1614156117f9576040517f08c379a00000000000000000000000000000000000000000000000000000000081526004016117f090611fa1565b60405180910390fd5b6118028161180d565b50565b600033905090565b60008060009054906101000a900473ffffffffffffffffffffffffffffffffffffffff169050816000806101000a81548173ffffffffffffffffffffffffffffffffffffffff021916908373ffffffffffffffffffffffffffffffffffffffff1602179055508173ffffffffffffffffffffffffffffffffffffffff168173ffffffffffffffffffffffffffffffffffffffff167f8be0079c531659141344cd1fd0a4f28419497f9722a3daafe3b4186f6b6457e060405160405180910390a35050565b60006118db611b8e565b85816000019073ffffffffffffffffffffffffffffffffffffffff16908173ffffffffffffffffffffffffffffffffffffffff1681525050428160200181815250508381604001818152505082816060018181525050600460008673ffffffffffffffffffffffffffffffffffffffff1673ffffffffffffffffffffffffffffffffffffffff16815260200190815260200160002054816080018181525050848160a0019073ffffffffffffffffffffffffffffffffffffffff16908173ffffffffffffffffffffffffffffffffffffffff168152505060008160c001901515908115158152505080600360008773ffffffffffffffffffffffffffffffffffffffff1673ffffffffffffffffffffffffffffffffffffffff1681526020019081526020016000206000600460008973ffffffffffffffffffffffffffffffffffffffff1673ffffffffffffffffffffffffffffffffffffffff16815260200190815260200160002054815260200190815260200160002060008201518160000160006101000a81548173ffffffffffffffffffffffffffffffffffffffff021916908373ffffffffffffffffffffffffffffffffffffffff1602179055506020820151816001015560408201518160020155606082015181600301556080820151816004015560a08201518160050160006101000a81548173ffffffffffffffffffffffffffffffffffffffff021916908373ffffffffffffffffffffffffffffffffffffffff16021790555060c08201518160050160146101000a81548160ff021916908315150217905550905050600460008673ffffffffffffffffffffffffffffffffffffffff1673ffffffffffffffffffffffffffffffffffffffff1681526020019081526020016000206000815480929190611b7c906120f5565b91905055506001915050949350505050565b6040518060e00160405280600073ffffffffffffffffffffffffffffffffffffffff16815260200160008152602001600081526020016000815260200160008152602001600073ffffffffffffffffffffffffffffffffffffffff1681526020016000151581525090565b600081359050611c08816122d8565b92915050565b600081519050611c1d816122ef565b92915050565b600081359050611c3281612306565b92915050565b600060208284031215611c4a57600080fd5b6000611c5884828501611bf9565b91505092915050565b60008060408385031215611c7457600080fd5b6000611c8285828601611bf9565b9250506020611c9385828601611c23565b9150509250929050565b600080600060608486031215611cb257600080fd5b6000611cc086828701611bf9565b9350506020611cd186828701611c23565b9250506040611ce286828701611c23565b9150509250925092565b600060208284031215611cfe57600080fd5b6000611d0c84828501611c0e565b91505092915050565b600060208284031215611d2757600080fd5b6000611d3584828501611c23565b91505092915050565b60008060408385031215611d5157600080fd5b6000611d5f85828601611c23565b9250506020611d7085828601611bf9565b9150509250929050565b611d83816120ad565b82525050565b611d92816120bf565b82525050565b6000611da560268361209c565b9150611db08261216d565b604082019050919050565b6000611dc860128361209c565b9150611dd3826121bc565b602082019050919050565b6000611deb60288361209c565b9150611df6826121e5565b604082019050919050565b6000611e0e60208361209c565b9150611e1982612234565b602082019050919050565b6000611e31601f8361209c565b9150611e3c8261225d565b602082019050919050565b6000611e5460198361209c565b9150611e5f82612286565b602082019050919050565b6000611e77601c8361209c565b9150611e82826122af565b602082019050919050565b611e96816120eb565b82525050565b6000602082019050611eb16000830184611d7a565b92915050565b6000606082019050611ecc6000830186611d7a565b611ed96020830185611d7a565b611ee66040830184611e8d565b949350505050565b6000604082019050611f036000830185611d7a565b611f106020830184611e8d565b9392505050565b600060e082019050611f2c600083018a611d7a565b611f396020830189611e8d565b611f466040830188611e8d565b611f536060830187611e8d565b611f606080830186611e8d565b611f6d60a0830185611d7a565b611f7a60c0830184611d89565b98975050505050505050565b6000602082019050611f9b6000830184611d89565b92915050565b60006020820190508181036000830152611fba81611d98565b9050919050565b60006020820190508181036000830152611fda81611dbb565b9050919050565b60006020820190508181036000830152611ffa81611dde565b9050919050565b6000602082019050818103600083015261201a81611e01565b9050919050565b6000602082019050818103600083015261203a81611e24565b9050919050565b6000602082019050818103600083015261205a81611e47565b9050919050565b6000602082019050818103600083015261207a81611e6a565b9050919050565b60006020820190506120966000830184611e8d565b92915050565b600082825260208201905092915050565b60006120b8826120cb565b9050919050565b60008115159050919050565b600073ffffffffffffffffffffffffffffffffffffffff82169050919050565b6000819050919050565b6000612100826120eb565b91507fffffffffffffffffffffffffffffffffffffffffffffffffffffffffffffffff8214156121335761213261213e565b5b600182019050919050565b7f4e487b7100000000000000000000000000000000000000000000000000000000600052601160045260246000fd5b7f4f776e61626c653a206e6577206f776e657220697320746865207a65726f206160008201527f6464726573730000000000000000000000000000000000000000000000000000602082015250565b7f4c6f636b20646f65736e27742065786973740000000000000000000000000000600082015250565b7f4f776e61626c653a2063616c6c6572206973206e6f742074686520766f74652060008201527f636f6e7472616374000000000000000000000000000000000000000000000000602082015250565b7f4f776e61626c653a2063616c6c6572206973206e6f7420746865206f776e6572600082015250565b7f6e6577206164647265737320697320746865207a65726f206164647265737300600082015250565b7f4c6f636b2077617320616c726561647920756e6c6f636b656400000000000000600082015250565b7f546f6b656e732063616e277420626520756e6c6f636b65642079657400000000600082015250565b6122e1816120ad565b81146122ec57600080fd5b50565b6122f8816120bf565b811461230357600080fd5b50565b61230f816120eb565b811461231a57600080fd5b5056fea2646970667358221220bf025e7b967703fc3162c137e740f0b2290c201d0eac6351d2c76f29c5fd471d64736f6c63430008040033",
  "immutableReferences": {},
  "source": "// SPDX-License-Identifier: MIT\npragma solidity ^0.8.0;\n\nimport \"@openzeppelin/contracts/access/Ownable.sol\";\nimport \"@openzeppelin/contracts/utils/math/SafeMath.sol\";\nimport \"@openzeppelin/contracts/token/ERC20/IERC20.sol\";\nimport \"./TokenLockerStorage.sol\";\n\ncontract TokenLocker is Ownable {\n  using SafeMath for uint256;\n  \n  TokenLockerStorage tokenLockerStorage;\n\n  address voteAddress = address(0);\n  \n  struct TokenLock {\n    address tokenAddress;\n    uint256 lockDate; // the date the token was locked\n    uint256 amount; // the amount of tokens locked\n    uint256 unlockDate; // the date the token can be withdrawn\n    uint256 lockID; // lockID nonce per uni pair\n    address owner;\n    bool retrieved; // false if lock already retreieved\n  }\n\n  event LockTokenAdd(address tokenAddress, address accountAddress, uint256 amount);\n  event LockTokenVote(address tokenAddress, address accountAddress, uint256 amount);\n\n  // Mapping of user to their locks\n  mapping(address => mapping(uint256 => TokenLock)) public locks;\n\n  // Num of locks for each user\n  mapping(address => uint256) public numLocks;\n\n  modifier onlyVoter() {\n     require(voteAddress == msg.sender, \"Ownable: caller is not the vote contract\");\n     _;\n  }\n\n  constructor(address _tokenLockerStorageAddress) {\n    tokenLockerStorage = TokenLockerStorage(_tokenLockerStorageAddress);\n    // Init airdrop tokens\n    for (uint i=0; i<tokenLockerStorage.getAccountCount(); i++) {\n      uint256 _lockTime = tokenLockerStorage.getLockTime();\n      address _tokenAddress = tokenLockerStorage.getTokenAddress();\n      address _airdropAddress = tokenLockerStorage.getAccount(i);\n      uint256 _airdropAmount = tokenLockerStorage.getAccountBalance(_airdropAddress);\n      \n      _setLockTokens(_tokenAddress, _airdropAddress, _airdropAmount, _lockTime);\n      emit LockTokenAdd(_tokenAddress, _airdropAddress, _airdropAmount);\n    }\n  }\n\n  // set the address of the storage contract that this contract should user\n  // all functions will read and write data to this contract\n  function setTokenLockerStorageContract(address _tokenLockerStorageAddress) public onlyOwner {\n      tokenLockerStorage = TokenLockerStorage(_tokenLockerStorageAddress);  \n  }\n\n  function setVoteContractAddress(address newAddress) public virtual onlyOwner {\n        require(newAddress != address(0), \"new address is the zero address\");\n        voteAddress = newAddress;\n  }\n\n  function lockTokens(address tokenAddress, uint256 amount, uint256 time) external returns (bool) {\n    IERC20 token = IERC20(tokenAddress);\n    // Transferring token to smart contract\n    token.transferFrom(msg.sender, address(this), amount);\n  \n    _setLockTokens(tokenAddress, msg.sender, amount, time);\n    return true;\n  }\n  \n  function getLock(uint256 lockId) public view returns (address, uint256, uint256, uint256, uint256, address, bool) {\n    return (\n      locks[msg.sender][lockId].tokenAddress,\n      locks[msg.sender][lockId].lockDate,\n      locks[msg.sender][lockId].amount,\n      locks[msg.sender][lockId].unlockDate,\n      locks[msg.sender][lockId].lockID,\n      locks[msg.sender][lockId].owner,\n      locks[msg.sender][lockId].retrieved\n    );\n  }\n  \n  function getNumLocks() external view returns (uint256) {\n    return numLocks[msg.sender];\n  }\n\n  function unlockTokens(uint256 lockId) external returns (bool) {\n    // Make sure lock exists\n    require(lockId < numLocks[msg.sender], \"Lock doesn't exist\");\n    // Make sure lock is still locked\n    require(locks[msg.sender][lockId].retrieved == false, \"Lock was already unlocked\");\n    // Make sure tokens can be unlocked\n    require(locks[msg.sender][lockId].unlockDate <= block.timestamp, \"Tokens can't be unlocked yet\");\n    \n    IERC20 token = IERC20(locks[msg.sender][lockId].tokenAddress);\n    token.transfer(msg.sender, locks[msg.sender][lockId].amount);\n    locks[msg.sender][lockId].retrieved = true;\n\n    return true;\n  }\n\n  function changeLockOwner(address newOwner, uint256 lockId) external returns (bool) {\n    // Make sure lock exists\n    require(lockId < numLocks[msg.sender], \"Lock doesn't exist\");\n    // Make sure lock is still locked\n    require(locks[msg.sender][lockId].retrieved == false, \"Lock was already unlocked\");\n\n    TokenLock memory tokenLock;\n    tokenLock.tokenAddress = locks[msg.sender][lockId].tokenAddress;\n    tokenLock.lockDate = locks[msg.sender][lockId].lockDate;\n    tokenLock.amount = locks[msg.sender][lockId].amount;\n    tokenLock.unlockDate = locks[msg.sender][lockId].unlockDate;\n    tokenLock.lockID = numLocks[newOwner];\n    tokenLock.owner = newOwner;\n    tokenLock.retrieved = false;\n\n    locks[newOwner][numLocks[newOwner]] = tokenLock;\n    numLocks[newOwner]++;\n\n    // If lock ownership is transferred its retrieved\n    locks[msg.sender][lockId].retrieved = true;\n    return true;\n  }\n\n  function subLockForVote(uint256 lockId, address accountAddress) external onlyVoter returns (uint256 amount) {\n    // Make sure lock exists\n    require(lockId < numLocks[accountAddress], \"Lock doesn't exist\");\n\n    TokenLock memory tokenLock = locks[accountAddress][lockId];\n    // Make sure lock is still locked\n    require(tokenLock.retrieved == false, \"Lock was already unlocked\");\n    // Make sure tokens can be unlocked\n    require(tokenLock.unlockDate <= block.timestamp, \"Tokens can't be unlocked yet\");\n    \n    IERC20 token = IERC20(tokenLock.tokenAddress);\n    token.transfer(msg.sender, tokenLock.amount);\n    tokenLock.retrieved = true;\n\n    emit LockTokenVote(tokenLock.tokenAddress, accountAddress, tokenLock.amount);\n\n    return tokenLock.amount;\n  }\n\n  function _setLockTokens(address tokenAddress, address account, uint256 amount, uint256 time) internal returns (bool) {\n    TokenLock memory tokenLock;\n    tokenLock.tokenAddress = tokenAddress;\n    tokenLock.lockDate = block.timestamp;\n    tokenLock.amount = amount;\n    tokenLock.unlockDate = time;\n    tokenLock.lockID = numLocks[account];\n    tokenLock.owner = account;\n    tokenLock.retrieved = false;\n    locks[account][numLocks[account]] = tokenLock;\n    numLocks[account]++;\n\n    return true;\n  }\n}",
  "sourcePath": "/Users/tuminfei/Code/Nodejs/uniarts-eth-dao/contracts/core/TokenLocker.sol",
  "compiler": {
    "name": "solc",
    "version": "0.8.4+commit.c7e474f2.Emscripten.clang"
  },
  "schemaVersion": "3.3.0",
  "updatedAt": "2021-08-25T07:14:26.225Z",
  "devdoc": {
    "kind": "dev",
    "methods": {
      "owner()": {
        "details": "Returns the address of the current owner."
      },
      "renounceOwnership()": {
        "details": "Leaves the contract without owner. It will not be possible to call `onlyOwner` functions anymore. Can only be called by the current owner. NOTE: Renouncing ownership will leave the contract without an owner, thereby removing any functionality that is only available to the owner."
      },
      "transferOwnership(address)": {
        "details": "Transfers ownership of the contract to a new account (`newOwner`). Can only be called by the current owner."
      }
    },
    "version": 1
  },
  "userdoc": {
    "kind": "user",
    "methods": {},
    "version": 1
  }
}