{
  "contractName": "TokenLocker",
  "abi": [
    {
      "inputs": [],
      "stateMutability": "nonpayable",
      "type": "constructor"
    },
    {
      "inputs": [
        {
          "internalType": "address",
          "name": "",
          "type": "address"
        },
        {
          "internalType": "uint256",
          "name": "",
          "type": "uint256"
        }
      ],
      "name": "locks",
      "outputs": [
        {
          "internalType": "address",
          "name": "tokenAddress",
          "type": "address"
        },
        {
          "internalType": "uint256",
          "name": "lockDate",
          "type": "uint256"
        },
        {
          "internalType": "uint256",
          "name": "amount",
          "type": "uint256"
        },
        {
          "internalType": "uint256",
          "name": "unlockDate",
          "type": "uint256"
        },
        {
          "internalType": "uint256",
          "name": "lockID",
          "type": "uint256"
        },
        {
          "internalType": "address",
          "name": "owner",
          "type": "address"
        },
        {
          "internalType": "bool",
          "name": "retrieved",
          "type": "bool"
        }
      ],
      "stateMutability": "view",
      "type": "function"
    },
    {
      "inputs": [
        {
          "internalType": "address",
          "name": "",
          "type": "address"
        }
      ],
      "name": "numLocks",
      "outputs": [
        {
          "internalType": "uint256",
          "name": "",
          "type": "uint256"
        }
      ],
      "stateMutability": "view",
      "type": "function"
    },
    {
      "inputs": [
        {
          "internalType": "address",
          "name": "tokenAddress",
          "type": "address"
        },
        {
          "internalType": "uint256",
          "name": "amount",
          "type": "uint256"
        },
        {
          "internalType": "uint256",
          "name": "time",
          "type": "uint256"
        }
      ],
      "name": "lockTokens",
      "outputs": [
        {
          "internalType": "bool",
          "name": "",
          "type": "bool"
        }
      ],
      "stateMutability": "nonpayable",
      "type": "function"
    },
    {
      "inputs": [
        {
          "internalType": "uint256",
          "name": "lockId",
          "type": "uint256"
        }
      ],
      "name": "getLock",
      "outputs": [
        {
          "internalType": "address",
          "name": "",
          "type": "address"
        },
        {
          "internalType": "uint256",
          "name": "",
          "type": "uint256"
        },
        {
          "internalType": "uint256",
          "name": "",
          "type": "uint256"
        },
        {
          "internalType": "uint256",
          "name": "",
          "type": "uint256"
        },
        {
          "internalType": "uint256",
          "name": "",
          "type": "uint256"
        },
        {
          "internalType": "address",
          "name": "",
          "type": "address"
        },
        {
          "internalType": "bool",
          "name": "",
          "type": "bool"
        }
      ],
      "stateMutability": "view",
      "type": "function"
    },
    {
      "inputs": [],
      "name": "getNumLocks",
      "outputs": [
        {
          "internalType": "uint256",
          "name": "",
          "type": "uint256"
        }
      ],
      "stateMutability": "view",
      "type": "function"
    },
    {
      "inputs": [
        {
          "internalType": "uint256",
          "name": "lockId",
          "type": "uint256"
        }
      ],
      "name": "unlockTokens",
      "outputs": [
        {
          "internalType": "bool",
          "name": "",
          "type": "bool"
        }
      ],
      "stateMutability": "nonpayable",
      "type": "function"
    },
    {
      "inputs": [
        {
          "internalType": "address",
          "name": "newOwner",
          "type": "address"
        },
        {
          "internalType": "uint256",
          "name": "lockId",
          "type": "uint256"
        }
      ],
      "name": "changeOwner",
      "outputs": [
        {
          "internalType": "bool",
          "name": "",
          "type": "bool"
        }
      ],
      "stateMutability": "nonpayable",
      "type": "function"
    }
  ],
  "bytecode": "0x608060405234801561001057600080fd5b50336000806101000a81548173ffffffffffffffffffffffffffffffffffffffff021916908373ffffffffffffffffffffffffffffffffffffffff160217905550611809806100606000396000f3fe608060405234801561001057600080fd5b506004361061007d5760003560e01c8063a25983e51161005b578063a25983e514610100578063b425f80214610130578063b9ef083014610166578063d68f4dd1146101965761007d565b80630d87cedb1461008257806356df3db1146100a05780637c405325146100d0575b600080fd5b61008a6101cc565b60405161009791906115d1565b60405180910390f35b6100ba60048036038101906100b59190611314565b610213565b6040516100c79190611556565b60405180910390f35b6100ea60048036038101906100e591906113c8565b6107c9565b6040516100f79190611556565b60405180910390f35b61011a60048036038101906101159190611350565b610b57565b6040516101279190611556565b60405180910390f35b61014a60048036038101906101459190611314565b610eba565b60405161015d97969594939291906114e7565b60405180910390f35b610180600480360381019061017b91906112eb565b610f56565b60405161018d91906115d1565b60405180910390f35b6101b060048036038101906101ab91906113c8565b610f6e565b6040516101c397969594939291906114e7565b60405180910390f35b6000600260003373ffffffffffffffffffffffffffffffffffffffff1673ffffffffffffffffffffffffffffffffffffffff16815260200190815260200160002054905090565b6000600260003373ffffffffffffffffffffffffffffffffffffffff1673ffffffffffffffffffffffffffffffffffffffff168152602001908152602001600020548210610296576040517f08c379a000000000000000000000000000000000000000000000000000000000815260040161028d90611571565b60405180910390fd5b60001515600160003373ffffffffffffffffffffffffffffffffffffffff1673ffffffffffffffffffffffffffffffffffffffff168152602001908152602001600020600084815260200190815260200160002060050160149054906101000a900460ff1615151461033d576040517f08c379a000000000000000000000000000000000000000000000000000000000815260040161033490611591565b60405180910390fd5b610345611241565b600160003373ffffffffffffffffffffffffffffffffffffffff1673ffffffffffffffffffffffffffffffffffffffff168152602001908152602001600020600084815260200190815260200160002060000160009054906101000a900473ffffffffffffffffffffffffffffffffffffffff16816000019073ffffffffffffffffffffffffffffffffffffffff16908173ffffffffffffffffffffffffffffffffffffffff1681525050600160003373ffffffffffffffffffffffffffffffffffffffff1673ffffffffffffffffffffffffffffffffffffffff168152602001908152602001600020600084815260200190815260200160002060010154816020018181525050600160003373ffffffffffffffffffffffffffffffffffffffff1673ffffffffffffffffffffffffffffffffffffffff168152602001908152602001600020600084815260200190815260200160002060020154816040018181525050600160003373ffffffffffffffffffffffffffffffffffffffff1673ffffffffffffffffffffffffffffffffffffffff168152602001908152602001600020600084815260200190815260200160002060030154816060018181525050600260008573ffffffffffffffffffffffffffffffffffffffff1673ffffffffffffffffffffffffffffffffffffffff16815260200190815260200160002054816080018181525050838160a0019073ffffffffffffffffffffffffffffffffffffffff16908173ffffffffffffffffffffffffffffffffffffffff168152505060008160c001901515908115158152505080600160008673ffffffffffffffffffffffffffffffffffffffff1673ffffffffffffffffffffffffffffffffffffffff1681526020019081526020016000206000600260008873ffffffffffffffffffffffffffffffffffffffff1673ffffffffffffffffffffffffffffffffffffffff16815260200190815260200160002054815260200190815260200160002060008201518160000160006101000a81548173ffffffffffffffffffffffffffffffffffffffff021916908373ffffffffffffffffffffffffffffffffffffffff1602179055506020820151816001015560408201518160020155606082015181600301556080820151816004015560a08201518160050160006101000a81548173ffffffffffffffffffffffffffffffffffffffff021916908373ffffffffffffffffffffffffffffffffffffffff16021790555060c08201518160050160146101000a81548160ff021916908315150217905550905050600260008573ffffffffffffffffffffffffffffffffffffffff1673ffffffffffffffffffffffffffffffffffffffff16815260200190815260200160002060008154809291906107529061169b565b919050555060018060003373ffffffffffffffffffffffffffffffffffffffff1673ffffffffffffffffffffffffffffffffffffffff168152602001908152602001600020600085815260200190815260200160002060050160146101000a81548160ff0219169083151502179055505092915050565b6000600260003373ffffffffffffffffffffffffffffffffffffffff1673ffffffffffffffffffffffffffffffffffffffff16815260200190815260200160002054821061084c576040517f08c379a000000000000000000000000000000000000000000000000000000000815260040161084390611571565b60405180910390fd5b60001515600160003373ffffffffffffffffffffffffffffffffffffffff1673ffffffffffffffffffffffffffffffffffffffff168152602001908152602001600020600084815260200190815260200160002060050160149054906101000a900460ff161515146108f3576040517f08c379a00000000000000000000000000000000000000000000000000000000081526004016108ea90611591565b60405180910390fd5b42600160003373ffffffffffffffffffffffffffffffffffffffff1673ffffffffffffffffffffffffffffffffffffffff1681526020019081526020016000206000848152602001908152602001600020600301541115610989576040517f08c379a0000000000000000000000000000000000000000000000000000000008152600401610980906115b1565b60405180910390fd5b6000600160003373ffffffffffffffffffffffffffffffffffffffff1673ffffffffffffffffffffffffffffffffffffffff168152602001908152602001600020600084815260200190815260200160002060000160009054906101000a900473ffffffffffffffffffffffffffffffffffffffff1690508073ffffffffffffffffffffffffffffffffffffffff1663a9059cbb33600160003373ffffffffffffffffffffffffffffffffffffffff1673ffffffffffffffffffffffffffffffffffffffff1681526020019081526020016000206000878152602001908152602001600020600201546040518363ffffffff1660e01b8152600401610a8f9291906114be565b602060405180830381600087803b158015610aa957600080fd5b505af1158015610abd573d6000803e3d6000fd5b505050506040513d601f19601f82011682018060405250810190610ae1919061139f565b5060018060003373ffffffffffffffffffffffffffffffffffffffff1673ffffffffffffffffffffffffffffffffffffffff168152602001908152602001600020600085815260200190815260200160002060050160146101000a81548160ff0219169083151502179055506001915050919050565b600080849050610b65611241565b85816000019073ffffffffffffffffffffffffffffffffffffffff16908173ffffffffffffffffffffffffffffffffffffffff16815250504281602001818152505084816040018181525050610bc4844261122b90919063ffffffff16565b816060018181525050600260003373ffffffffffffffffffffffffffffffffffffffff1673ffffffffffffffffffffffffffffffffffffffff16815260200190815260200160002054816080018181525050338160a0019073ffffffffffffffffffffffffffffffffffffffff16908173ffffffffffffffffffffffffffffffffffffffff168152505060008160c00190151590811515815250508173ffffffffffffffffffffffffffffffffffffffff166323b872dd3330886040518463ffffffff1660e01b8152600401610c9c93929190611487565b602060405180830381600087803b158015610cb657600080fd5b505af1158015610cca573d6000803e3d6000fd5b505050506040513d601f19601f82011682018060405250810190610cee919061139f565b5080600160003373ffffffffffffffffffffffffffffffffffffffff1673ffffffffffffffffffffffffffffffffffffffff1681526020019081526020016000206000600260003373ffffffffffffffffffffffffffffffffffffffff1673ffffffffffffffffffffffffffffffffffffffff16815260200190815260200160002054815260200190815260200160002060008201518160000160006101000a81548173ffffffffffffffffffffffffffffffffffffffff021916908373ffffffffffffffffffffffffffffffffffffffff1602179055506020820151816001015560408201518160020155606082015181600301556080820151816004015560a08201518160050160006101000a81548173ffffffffffffffffffffffffffffffffffffffff021916908373ffffffffffffffffffffffffffffffffffffffff16021790555060c08201518160050160146101000a81548160ff021916908315150217905550905050600260003373ffffffffffffffffffffffffffffffffffffffff1673ffffffffffffffffffffffffffffffffffffffff1681526020019081526020016000206000815480929190610ea89061169b565b91905055506001925050509392505050565b6001602052816000526040600020602052806000526040600020600091509150508060000160009054906101000a900473ffffffffffffffffffffffffffffffffffffffff16908060010154908060020154908060030154908060040154908060050160009054906101000a900473ffffffffffffffffffffffffffffffffffffffff16908060050160149054906101000a900460ff16905087565b60026020528060005260406000206000915090505481565b6000806000806000806000600160003373ffffffffffffffffffffffffffffffffffffffff1673ffffffffffffffffffffffffffffffffffffffff168152602001908152602001600020600089815260200190815260200160002060000160009054906101000a900473ffffffffffffffffffffffffffffffffffffffff16600160003373ffffffffffffffffffffffffffffffffffffffff1673ffffffffffffffffffffffffffffffffffffffff16815260200190815260200160002060008a815260200190815260200160002060010154600160003373ffffffffffffffffffffffffffffffffffffffff1673ffffffffffffffffffffffffffffffffffffffff16815260200190815260200160002060008b815260200190815260200160002060020154600160003373ffffffffffffffffffffffffffffffffffffffff1673ffffffffffffffffffffffffffffffffffffffff16815260200190815260200160002060008c815260200190815260200160002060030154600160003373ffffffffffffffffffffffffffffffffffffffff1673ffffffffffffffffffffffffffffffffffffffff16815260200190815260200160002060008d815260200190815260200160002060040154600160003373ffffffffffffffffffffffffffffffffffffffff1673ffffffffffffffffffffffffffffffffffffffff16815260200190815260200160002060008e815260200190815260200160002060050160009054906101000a900473ffffffffffffffffffffffffffffffffffffffff16600160003373ffffffffffffffffffffffffffffffffffffffff1673ffffffffffffffffffffffffffffffffffffffff16815260200190815260200160002060008f815260200190815260200160002060050160149054906101000a900460ff169650965096509650965096509650919395979092949650565b6000818361123991906115fd565b905092915050565b6040518060e00160405280600073ffffffffffffffffffffffffffffffffffffffff16815260200160008152602001600081526020016000815260200160008152602001600073ffffffffffffffffffffffffffffffffffffffff1681526020016000151581525090565b6000813590506112bb8161178e565b92915050565b6000815190506112d0816117a5565b92915050565b6000813590506112e5816117bc565b92915050565b6000602082840312156112fd57600080fd5b600061130b848285016112ac565b91505092915050565b6000806040838503121561132757600080fd5b6000611335858286016112ac565b9250506020611346858286016112d6565b9150509250929050565b60008060006060848603121561136557600080fd5b6000611373868287016112ac565b9350506020611384868287016112d6565b9250506040611395868287016112d6565b9150509250925092565b6000602082840312156113b157600080fd5b60006113bf848285016112c1565b91505092915050565b6000602082840312156113da57600080fd5b60006113e8848285016112d6565b91505092915050565b6113fa81611653565b82525050565b61140981611665565b82525050565b600061141c6012836115ec565b915061142782611713565b602082019050919050565b600061143f6019836115ec565b915061144a8261173c565b602082019050919050565b6000611462601c836115ec565b915061146d82611765565b602082019050919050565b61148181611691565b82525050565b600060608201905061149c60008301866113f1565b6114a960208301856113f1565b6114b66040830184611478565b949350505050565b60006040820190506114d360008301856113f1565b6114e06020830184611478565b9392505050565b600060e0820190506114fc600083018a6113f1565b6115096020830189611478565b6115166040830188611478565b6115236060830187611478565b6115306080830186611478565b61153d60a08301856113f1565b61154a60c0830184611400565b98975050505050505050565b600060208201905061156b6000830184611400565b92915050565b6000602082019050818103600083015261158a8161140f565b9050919050565b600060208201905081810360008301526115aa81611432565b9050919050565b600060208201905081810360008301526115ca81611455565b9050919050565b60006020820190506115e66000830184611478565b92915050565b600082825260208201905092915050565b600061160882611691565b915061161383611691565b9250827fffffffffffffffffffffffffffffffffffffffffffffffffffffffffffffffff03821115611648576116476116e4565b5b828201905092915050565b600061165e82611671565b9050919050565b60008115159050919050565b600073ffffffffffffffffffffffffffffffffffffffff82169050919050565b6000819050919050565b60006116a682611691565b91507fffffffffffffffffffffffffffffffffffffffffffffffffffffffffffffffff8214156116d9576116d86116e4565b5b600182019050919050565b7f4e487b7100000000000000000000000000000000000000000000000000000000600052601160045260246000fd5b7f4c6f636b20646f65736e27742065786973740000000000000000000000000000600082015250565b7f4c6f636b2077617320616c726561647920756e6c6f636b656400000000000000600082015250565b7f546f6b656e732063616e277420626520756e6c6f636b65642079657400000000600082015250565b61179781611653565b81146117a257600080fd5b50565b6117ae81611665565b81146117b957600080fd5b50565b6117c581611691565b81146117d057600080fd5b5056fea26469706673582212202e7af582ffde0dc28d681ef8a5a8718e4b674a029f72f28a6480d9699753ed4d64736f6c63430008040033",
  "immutableReferences": {},
  "source": "// SPDX-License-Identifier: MIT\npragma solidity ^0.8.0;\n\nimport \"@openzeppelin/contracts/utils/math/SafeMath.sol\";\nimport \"@openzeppelin/contracts/token/ERC20/IERC20.sol\";\n\ncontract TokenLocker {\n  using SafeMath for uint256;\n  \n  address owner;\n  \n  struct TokenLock {\n    address tokenAddress;\n    uint256 lockDate; // the date the token was locked\n    uint256 amount; // the amount of tokens locked\n    uint256 unlockDate; // the date the token can be withdrawn\n    uint256 lockID; // lockID nonce per uni pair\n    address owner;\n    bool retrieved; // false if lock already retreieved\n  }\n\n  // Mapping of user to their locks\n  mapping(address => mapping(uint256 => TokenLock)) public locks;\n\n  // Num of locks for each user\n  mapping(address => uint256) public numLocks;\n\n  constructor() {\n    owner = msg.sender;\n  }\n  \n  modifier onlyOwner() {\n    require(owner == msg.sender, \"Ownable: caller is not the owner\");\n    _;\n  }\n\n  function lockTokens(address tokenAddress, uint256 amount, uint256 time) external returns (bool) {\n    IERC20 token = IERC20(tokenAddress);\n    TokenLock memory tokenLock;\n    tokenLock.tokenAddress = tokenAddress;\n    tokenLock.lockDate = block.timestamp;\n    tokenLock.amount = amount;\n    tokenLock.unlockDate = block.timestamp.add(time);\n    tokenLock.lockID = numLocks[msg.sender];\n    tokenLock.owner = msg.sender;\n    tokenLock.retrieved = false;\n\n    // Transferring token to smart contract\n    token.transferFrom(msg.sender, address(this), amount);\n    \n    locks[msg.sender][numLocks[msg.sender]] = tokenLock;\n    numLocks[msg.sender]++;\n\n    return true;\n  }\n  \n  function getLock(uint256 lockId) public view returns (address, uint256, uint256, uint256, uint256, address, bool) {\n    return (\n      locks[msg.sender][lockId].tokenAddress,\n      locks[msg.sender][lockId].lockDate,\n      locks[msg.sender][lockId].amount,\n      locks[msg.sender][lockId].unlockDate,\n      locks[msg.sender][lockId].lockID,\n      locks[msg.sender][lockId].owner,\n      locks[msg.sender][lockId].retrieved\n    );\n  }\n  \n  function getNumLocks() external view returns (uint256) {\n    return numLocks[msg.sender];\n  }\n\n  function unlockTokens(uint256 lockId) external returns (bool) {\n    // Make sure lock exists\n    require(lockId < numLocks[msg.sender], \"Lock doesn't exist\");\n    // Make sure lock is still locked\n    require(locks[msg.sender][lockId].retrieved == false, \"Lock was already unlocked\");\n    // Make sure tokens can be unlocked\n    require(locks[msg.sender][lockId].unlockDate <= block.timestamp, \"Tokens can't be unlocked yet\");\n    \n    IERC20 token = IERC20(locks[msg.sender][lockId].tokenAddress);\n    token.transfer(msg.sender, locks[msg.sender][lockId].amount);\n    locks[msg.sender][lockId].retrieved = true;\n\n    return true;\n  }\n\n  function changeOwner(address newOwner, uint256 lockId) external returns (bool) {\n    // Make sure lock exists\n    require(lockId < numLocks[msg.sender], \"Lock doesn't exist\");\n    // Make sure lock is still locked\n    require(locks[msg.sender][lockId].retrieved == false, \"Lock was already unlocked\");\n\n    TokenLock memory tokenLock;\n    tokenLock.tokenAddress = locks[msg.sender][lockId].tokenAddress;\n    tokenLock.lockDate = locks[msg.sender][lockId].lockDate;\n    tokenLock.amount = locks[msg.sender][lockId].amount;\n    tokenLock.unlockDate = locks[msg.sender][lockId].unlockDate;\n    tokenLock.lockID = numLocks[newOwner];\n    tokenLock.owner = newOwner;\n    tokenLock.retrieved = false;\n\n    locks[newOwner][numLocks[newOwner]] = tokenLock;\n    numLocks[newOwner]++;\n\n    // If lock ownership is transferred its retrieved\n    locks[msg.sender][lockId].retrieved = true;\n  }\n\n}",
  "sourcePath": "/Users/tuminfei/Code/Nodejs/uniarts-eth-dao/contracts/core/TokenLocker.sol",
  "compiler": {
    "name": "solc",
    "version": "0.8.4+commit.c7e474f2.Emscripten.clang"
  },
  "schemaVersion": "3.3.0",
  "updatedAt": "2021-08-24T10:11:53.636Z",
  "devdoc": {
    "kind": "dev",
    "methods": {},
    "version": 1
  },
  "userdoc": {
    "kind": "user",
    "methods": {},
    "version": 1
  }
}