{
  "contractName": "TokenLocker",
  "abi": [
    {
      "anonymous": false,
      "inputs": [
        {
          "indexed": false,
          "internalType": "address",
          "name": "tokenAddress",
          "type": "address"
        },
        {
          "indexed": false,
          "internalType": "address",
          "name": "accountAddress",
          "type": "address"
        },
        {
          "indexed": false,
          "internalType": "uint256",
          "name": "amount",
          "type": "uint256"
        }
      ],
      "name": "LockTokenAdd",
      "type": "event"
    },
    {
      "anonymous": false,
      "inputs": [
        {
          "indexed": false,
          "internalType": "address",
          "name": "tokenAddress",
          "type": "address"
        },
        {
          "indexed": false,
          "internalType": "address",
          "name": "accountAddress",
          "type": "address"
        },
        {
          "indexed": false,
          "internalType": "uint256",
          "name": "amount",
          "type": "uint256"
        }
      ],
      "name": "LockTokenImp",
      "type": "event"
    },
    {
      "anonymous": false,
      "inputs": [
        {
          "indexed": false,
          "internalType": "address",
          "name": "tokenAddress",
          "type": "address"
        },
        {
          "indexed": false,
          "internalType": "address",
          "name": "accountAddress",
          "type": "address"
        },
        {
          "indexed": false,
          "internalType": "uint256",
          "name": "amount",
          "type": "uint256"
        }
      ],
      "name": "LockTokenVote",
      "type": "event"
    },
    {
      "anonymous": false,
      "inputs": [
        {
          "indexed": true,
          "internalType": "address",
          "name": "previousOwner",
          "type": "address"
        },
        {
          "indexed": true,
          "internalType": "address",
          "name": "newOwner",
          "type": "address"
        }
      ],
      "name": "OwnershipTransferred",
      "type": "event"
    },
    {
      "inputs": [
        {
          "internalType": "address",
          "name": "",
          "type": "address"
        },
        {
          "internalType": "uint256",
          "name": "",
          "type": "uint256"
        }
      ],
      "name": "locks",
      "outputs": [
        {
          "internalType": "address",
          "name": "tokenAddress",
          "type": "address"
        },
        {
          "internalType": "uint256",
          "name": "lockDate",
          "type": "uint256"
        },
        {
          "internalType": "uint256",
          "name": "amount",
          "type": "uint256"
        },
        {
          "internalType": "uint256",
          "name": "unlockDate",
          "type": "uint256"
        },
        {
          "internalType": "uint256",
          "name": "lockID",
          "type": "uint256"
        },
        {
          "internalType": "address",
          "name": "owner",
          "type": "address"
        },
        {
          "internalType": "bool",
          "name": "retrieved",
          "type": "bool"
        }
      ],
      "stateMutability": "view",
      "type": "function"
    },
    {
      "inputs": [
        {
          "internalType": "address",
          "name": "",
          "type": "address"
        }
      ],
      "name": "numLocks",
      "outputs": [
        {
          "internalType": "uint256",
          "name": "",
          "type": "uint256"
        }
      ],
      "stateMutability": "view",
      "type": "function"
    },
    {
      "inputs": [],
      "name": "owner",
      "outputs": [
        {
          "internalType": "address",
          "name": "",
          "type": "address"
        }
      ],
      "stateMutability": "view",
      "type": "function"
    },
    {
      "inputs": [],
      "name": "renounceOwnership",
      "outputs": [],
      "stateMutability": "nonpayable",
      "type": "function"
    },
    {
      "inputs": [
        {
          "internalType": "address",
          "name": "newOwner",
          "type": "address"
        }
      ],
      "name": "transferOwnership",
      "outputs": [],
      "stateMutability": "nonpayable",
      "type": "function"
    },
    {
      "inputs": [
        {
          "internalType": "address",
          "name": "newAddress",
          "type": "address"
        }
      ],
      "name": "setVoteContractAddress",
      "outputs": [],
      "stateMutability": "nonpayable",
      "type": "function"
    },
    {
      "inputs": [
        {
          "internalType": "address",
          "name": "tokenAddress",
          "type": "address"
        },
        {
          "internalType": "uint256",
          "name": "amount",
          "type": "uint256"
        },
        {
          "internalType": "uint256",
          "name": "time",
          "type": "uint256"
        }
      ],
      "name": "lockTokens",
      "outputs": [
        {
          "internalType": "bool",
          "name": "",
          "type": "bool"
        }
      ],
      "stateMutability": "nonpayable",
      "type": "function"
    },
    {
      "inputs": [
        {
          "internalType": "uint256",
          "name": "lockId",
          "type": "uint256"
        }
      ],
      "name": "getLock",
      "outputs": [
        {
          "internalType": "address",
          "name": "",
          "type": "address"
        },
        {
          "internalType": "uint256",
          "name": "",
          "type": "uint256"
        },
        {
          "internalType": "uint256",
          "name": "",
          "type": "uint256"
        },
        {
          "internalType": "uint256",
          "name": "",
          "type": "uint256"
        },
        {
          "internalType": "uint256",
          "name": "",
          "type": "uint256"
        },
        {
          "internalType": "address",
          "name": "",
          "type": "address"
        },
        {
          "internalType": "bool",
          "name": "",
          "type": "bool"
        }
      ],
      "stateMutability": "view",
      "type": "function"
    },
    {
      "inputs": [],
      "name": "getNumLocks",
      "outputs": [
        {
          "internalType": "uint256",
          "name": "",
          "type": "uint256"
        }
      ],
      "stateMutability": "view",
      "type": "function"
    },
    {
      "inputs": [
        {
          "internalType": "uint256",
          "name": "lockId",
          "type": "uint256"
        }
      ],
      "name": "unlockTokens",
      "outputs": [
        {
          "internalType": "bool",
          "name": "",
          "type": "bool"
        }
      ],
      "stateMutability": "nonpayable",
      "type": "function"
    },
    {
      "inputs": [
        {
          "internalType": "uint256",
          "name": "lockId",
          "type": "uint256"
        },
        {
          "internalType": "address",
          "name": "accountAddress",
          "type": "address"
        }
      ],
      "name": "subLockForVote",
      "outputs": [
        {
          "internalType": "uint256",
          "name": "amount",
          "type": "uint256"
        }
      ],
      "stateMutability": "nonpayable",
      "type": "function"
    },
    {
      "inputs": [
        {
          "internalType": "address",
          "name": "_tokenAddress",
          "type": "address"
        },
        {
          "internalType": "uint256",
          "name": "_lockTime",
          "type": "uint256"
        },
        {
          "components": [
            {
              "internalType": "address",
              "name": "accountAddress",
              "type": "address"
            },
            {
              "internalType": "uint256",
              "name": "amount",
              "type": "uint256"
            }
          ],
          "internalType": "struct TokenLocker.ImpData[]",
          "name": "accounts",
          "type": "tuple[]"
        }
      ],
      "name": "impLock",
      "outputs": [
        {
          "internalType": "uint256",
          "name": "count",
          "type": "uint256"
        }
      ],
      "stateMutability": "nonpayable",
      "type": "function"
    }
  ],
  "bytecode": "0x608060405260018054600160a060020a031916905534801561002057600080fd5b50610043610035640100000000610048810204565b64010000000061004c810204565b61009c565b3390565b60008054600160a060020a03838116600160a060020a0319831681178455604051919092169283917f8be0079c531659141344cd1fd0a4f28419497f9722a3daafe3b4186f6b6457e09190a35050565b6111f8806100ab6000396000f3fe608060405234801561001057600080fd5b50600436106100d1576000357c010000000000000000000000000000000000000000000000000000000090048063a25983e51161008e578063a25983e514610168578063b425f8021461017b578063b9ef083014610223578063c7b1e3f214610243578063d68f4dd114610256578063f2fde38b146102be57600080fd5b80630d87cedb146100d6578063715018a6146100fa5780637a862593146101045780637c405325146101175780638da5cb5b1461013a578063956339b414610155575b600080fd5b336000908152600360205260409020545b6040519081526020015b60405180910390f35b6101026102d1565b005b6100e7610112366004610f70565b610313565b61012a6101253660046110ad565b6104b1565b60405190151581526020016100f1565b600054604051600160a060020a0390911681526020016100f1565b610102610163366004610f26565b610700565b61012a61017636600461105b565b6107b5565b6101df610189366004610f47565b60026020818152600093845260408085209091529183529120805460018201549282015460038301546004840154600590940154600160a060020a039384169594929391929181169060a060020a900460ff1687565b60408051600160a060020a03988916815260208101979097528601949094526060850192909252608084015290921660a082015290151560c082015260e0016100f1565b6100e7610231366004610f26565b60036020526000908152604090205481565b6100e76102513660046110c5565b610872565b6101df6102643660046110ad565b336000908152600260208181526040808420948452939052919020805460018201549282015460038301546004840154600590940154600160a060020a03938416969294919391929181169160a060020a90910460ff1690565b6101026102cc366004610f26565b610b62565b600054600160a060020a031633146103075760405160e560020a62461bcd0281526004016102fe906110f0565b60405180910390fd5b6103116000610c1a565b565b60008054600160a060020a031633146103415760405160e560020a62461bcd0281526004016102fe906110f0565b60008251118015610354575060fa825111155b6103cb576040805160e560020a62461bcd0281526020600482015260248101919091527f6e756d626572206f66206e6674206d757374206265206772656174657220746860448201527f616e203020616e64206c657373207468616e204d41585f494d505f434f554e5460648201526084016102fe565b60005b82518110156104a85760008382815181106103fc5760e060020a634e487b7102600052603260045260246000fd5b6020026020010151600001519050600084838151811061042f5760e060020a634e487b7102600052603260045260246000fd5b602002602001015160200151905061044987838389610c77565b5060408051600160a060020a03808a168252841660208201529081018290527fd9da320f821ddc56f253d6a979afb4bfe1f2216dab1a98305828d0fc4441d20e9060600160405180910390a15050806104a19061117f565b90506103ce565b50505192915050565b3360009081526003602052604081205482106105125760405160e560020a62461bcd02815260206004820152601260248201527f4c6f636b20646f65736e2774206578697374000000000000000000000000000060448201526064016102fe565b33600090815260026020908152604080832085845290915290206005015460a060020a900460ff161561058a5760405160e560020a62461bcd02815260206004820152601960248201527f4c6f636b2077617320616c726561647920756e6c6f636b65640000000000000060448201526064016102fe565b3360009081526002602090815260408083208584529091529020600301544210156105fa5760405160e560020a62461bcd02815260206004820152601c60248201527f546f6b656e732063616e277420626520756e6c6f636b6564207965740000000060448201526064016102fe565b33600081815260026020818152604080842087855290915291829020805491015491517fa9059cbb00000000000000000000000000000000000000000000000000000000815260048101939093526024830191909152600160a060020a031690819063a9059cbb90604401602060405180830381600087803b15801561067f57600080fd5b505af1158015610693573d6000803e3d6000fd5b505050506040513d601f19601f820116820180604052508101906106b7919061108d565b505033600090815260026020908152604080832094835293905291909120600501805474ff0000000000000000000000000000000000000000191660a060020a17905550600190565b600054600160a060020a0316331461072d5760405160e560020a62461bcd0281526004016102fe906110f0565b600160a060020a0381166107865760405160e560020a62461bcd02815260206004820152601f60248201527f6e6577206164647265737320697320746865207a65726f20616464726573730060448201526064016102fe565b6001805473ffffffffffffffffffffffffffffffffffffffff1916600160a060020a0392909216919091179055565b6040517f23b872dd000000000000000000000000000000000000000000000000000000008152336004820152306024820152604481018390526000908490600160a060020a038216906323b872dd90606401602060405180830381600087803b15801561082157600080fd5b505af1158015610835573d6000803e3d6000fd5b505050506040513d601f19601f82011682018060405250810190610859919061108d565b5061086685338686610c77565b50600195945050505050565b600154600090600160a060020a031633146108f85760405160e560020a62461bcd02815260206004820152602860248201527f4f776e61626c653a2063616c6c6572206973206e6f742074686520766f74652060448201527f636f6e747261637400000000000000000000000000000000000000000000000060648201526084016102fe565b600160a060020a03821660009081526003602052604090205483106109625760405160e560020a62461bcd02815260206004820152601260248201527f4c6f636b20646f65736e2774206578697374000000000000000000000000000060448201526064016102fe565b600160a060020a03821660009081526002602090815260408083208684529091529020600581015460a060020a900460ff16156109e45760405160e560020a62461bcd02815260206004820152601960248201527f4c6f636b2077617320616c726561647920756e6c6f636b65640000000000000060448201526064016102fe565b4281600301541115610a3b5760405160e560020a62461bcd02815260206004820152601c60248201527f546f6b656e732063616e277420626520756e6c6f636b6564207965740000000060448201526064016102fe565b805460028201546040517fa9059cbb0000000000000000000000000000000000000000000000000000000081523360048201526024810191909152600160a060020a0390911690819063a9059cbb90604401602060405180830381600087803b158015610aa757600080fd5b505af1158015610abb573d6000803e3d6000fd5b505050506040513d601f19601f82011682018060405250810190610adf919061108d565b5060058201805474ff0000000000000000000000000000000000000000191660a060020a1790558154600283015460408051600160a060020a03938416815292871660208401528201527f09a3d926922a7f54f8d89f4473ab56557f2080af30e5e16e66df53aad7aabd369060600160405180910390a150600201549392505050565b600054600160a060020a03163314610b8f5760405160e560020a62461bcd0281526004016102fe906110f0565b600160a060020a038116610c0e5760405160e560020a62461bcd02815260206004820152602660248201527f4f776e61626c653a206e6577206f776e657220697320746865207a65726f206160448201527f646472657373000000000000000000000000000000000000000000000000000060648201526084016102fe565b610c1781610c1a565b50565b60008054600160a060020a0383811673ffffffffffffffffffffffffffffffffffffffff19831681178455604051919092169283917f8be0079c531659141344cd1fd0a4f28419497f9722a3daafe3b4186f6b6457e09190a35050565b6000806002600086600160a060020a0316600160a060020a0316815260200190815260200160002060006003600088600160a060020a0316600160a060020a031681526020019081526020016000205481526020019081526020016000209050858160000160006101000a815481600160a060020a030219169083600160a060020a031602179055504281600101819055508381600201819055508281600301819055506003600086600160a060020a0316600160a060020a03168152602001908152602001600020548160040181905550848160050160006101000a815481600160a060020a030219169083600160a060020a0316021790555060008160050160146101000a81548160ff021916908315150217905550806002600087600160a060020a0316600160a060020a0316815260200190815260200160002060006003600089600160a060020a0316600160a060020a031681526020019081526020016000205481526020019081526020016000206000820160009054906101000a9004600160a060020a03168160000160006101000a815481600160a060020a030219169083600160a060020a03160217905550600182015481600101556002820154816002015560038201548160030155600482015481600401556005820160009054906101000a9004600160a060020a03168160050160006101000a815481600160a060020a030219169083600160a060020a031602179055506005820160149054906101000a900460ff168160050160146101000a81548160ff0219169083151502179055509050506003600086600160a060020a0316600160a060020a031681526020019081526020016000206000815480929190610ef99061117f565b909155506001979650505050505050565b8035600160a060020a0381168114610f2157600080fd5b919050565b600060208284031215610f37578081fd5b610f4082610f0a565b9392505050565b60008060408385031215610f59578081fd5b610f6283610f0a565b946020939093013593505050565b600080600060608486031215610f84578081fd5b610f8d84610f0a565b9250602080850135925060408086013567ffffffffffffffff80821115610fb2578485fd5b818801915088601f830112610fc5578485fd5b813581811115610fd757610fd76111a9565b610fe4858683020161114e565b8181528581019250838601858302850187018c1015611001578788fd5b8794505b8285101561104a5785818d03121561101b578788fd5b611023611125565b61102c82610f0a565b81528188013588820152845260019490940193928601928501611005565b508096505050505050509250925092565b60008060006060848603121561106f578283fd5b61107884610f0a565b95602085013595506040909401359392505050565b60006020828403121561109e578081fd5b81518015158114610f40578182fd5b6000602082840312156110be578081fd5b5035919050565b600080604083850312156110d7578182fd5b823591506110e760208401610f0a565b90509250929050565b6020808252818101527f4f776e61626c653a2063616c6c6572206973206e6f7420746865206f776e6572604082015260600190565b6040805190810167ffffffffffffffff81118282101715611148576111486111a9565b60405290565b604051601f8201601f1916810167ffffffffffffffff81118282101715611177576111776111a9565b604052919050565b60006000198214156111a25760e060020a634e487b710281526011600452602481fd5b5060010190565b60e060020a634e487b7102600052604160045260246000fdfea264697066735822122057ce8cfbb44dd529f656dd64724229bd501b4ba0a8dc762f141d8726af2b970d64736f6c63430008040033",
  "immutableReferences": {},
  "source": "// SPDX-License-Identifier: MIT\npragma solidity ^0.8.0;\n\nimport \"@openzeppelin/contracts/access/Ownable.sol\";\nimport \"@openzeppelin/contracts/utils/math/SafeMath.sol\";\nimport \"@openzeppelin/contracts/token/ERC20/IERC20.sol\";\n\ncontract TokenLocker is Ownable {\n  using SafeMath for uint256;\n\n  address voteAddress = address(0);\n\n  uint constant MAX_IMP_COUNT = 250;\n  \n  struct TokenLock {\n    address tokenAddress;\n    uint256 lockDate; // the date the token was locked\n    uint256 amount; // the amount of tokens locked\n    uint256 unlockDate; // the date the token can be withdrawn\n    uint256 lockID; // lockID nonce per uni pair\n    address owner;\n    bool retrieved; // false if lock already retreieved\n  }\n\n  // structs\n  struct ImpData {\n      address accountAddress;\n      uint256 amount;\n  }\n\n  event LockTokenAdd(address tokenAddress, address accountAddress, uint256 amount);\n  event LockTokenImp(address tokenAddress, address accountAddress, uint256 amount);\n  event LockTokenVote(address tokenAddress, address accountAddress, uint256 amount);\n\n  // Mapping of user to their locks\n  mapping(address => mapping(uint256 => TokenLock)) public locks;\n\n  // Num of locks for each user\n  mapping(address => uint256) public numLocks;\n\n  modifier onlyVoter() {\n     require(voteAddress == msg.sender, \"Ownable: caller is not the vote contract\");\n     _;\n  }\n\n  function setVoteContractAddress(address newAddress) public virtual onlyOwner {\n        require(newAddress != address(0), \"new address is the zero address\");\n        voteAddress = newAddress;\n  }\n\n  function lockTokens(address tokenAddress, uint256 amount, uint256 time) external returns (bool) {\n    IERC20 token = IERC20(tokenAddress);\n    // Transferring token to smart contract\n    token.transferFrom(msg.sender, address(this), amount);\n  \n    _setLockTokens(tokenAddress, msg.sender, amount, time);\n    return true;\n  }\n  \n  function getLock(uint256 lockId) public view returns (address, uint256, uint256, uint256, uint256, address, bool) {\n    return (\n      locks[msg.sender][lockId].tokenAddress,\n      locks[msg.sender][lockId].lockDate,\n      locks[msg.sender][lockId].amount,\n      locks[msg.sender][lockId].unlockDate,\n      locks[msg.sender][lockId].lockID,\n      locks[msg.sender][lockId].owner,\n      locks[msg.sender][lockId].retrieved\n    );\n  }\n  \n  function getNumLocks() external view returns (uint256) {\n    return numLocks[msg.sender];\n  }\n\n  function unlockTokens(uint256 lockId) external returns (bool) {\n    // Make sure lock exists\n    require(lockId < numLocks[msg.sender], \"Lock doesn't exist\");\n    // Make sure lock is still locked\n    require(locks[msg.sender][lockId].retrieved == false, \"Lock was already unlocked\");\n    // Make sure tokens can be unlocked\n    require(locks[msg.sender][lockId].unlockDate <= block.timestamp, \"Tokens can't be unlocked yet\");\n    \n    IERC20 token = IERC20(locks[msg.sender][lockId].tokenAddress);\n    token.transfer(msg.sender, locks[msg.sender][lockId].amount);\n    locks[msg.sender][lockId].retrieved = true;\n\n    return true;\n  }\n\n\n  function subLockForVote(uint256 lockId, address accountAddress) external onlyVoter returns (uint256 amount) {\n    // Make sure lock exists\n    require(lockId < numLocks[accountAddress], \"Lock doesn't exist\");\n\n    TokenLock storage tokenLock = locks[accountAddress][lockId];\n    // Make sure lock is still locked\n    require(tokenLock.retrieved == false, \"Lock was already unlocked\");\n    // Make sure tokens can be unlocked\n    require(tokenLock.unlockDate <= block.timestamp, \"Tokens can't be unlocked yet\");\n    \n    IERC20 token = IERC20(tokenLock.tokenAddress);\n    token.transfer(msg.sender, tokenLock.amount);\n    tokenLock.retrieved = true;\n\n    emit LockTokenVote(tokenLock.tokenAddress, accountAddress, tokenLock.amount);\n\n    return tokenLock.amount;\n  }\n\n  function impLock(address _tokenAddress, uint256 _lockTime, ImpData[] memory accounts) external onlyOwner returns (uint256 count) {\n    // check item count\n    require(accounts.length > 0 && accounts.length <= MAX_IMP_COUNT, \"number of nft must be greater than 0 and less than MAX_IMP_COUNT\");\n\n    // import item to contract\n    for(uint i = 0; i < accounts.length; ++i) {\n        address _airdropAddress = accounts[i].accountAddress;\n        uint256 _airdropAmount = accounts[i].amount;\n        \n        _setLockTokens(_tokenAddress, _airdropAddress, _airdropAmount, _lockTime);\n        emit LockTokenImp(_tokenAddress, _airdropAddress, _airdropAmount);\n    }\n    return accounts.length;\n  }\n\n  function _setLockTokens(address tokenAddress, address account, uint256 amount, uint256 time) internal returns (bool) {\n    TokenLock storage tokenLock = locks[account][numLocks[account]];\n    tokenLock.tokenAddress = tokenAddress;\n    tokenLock.lockDate = block.timestamp;\n    tokenLock.amount = amount;\n    tokenLock.unlockDate = time;\n    tokenLock.lockID = numLocks[account];\n    tokenLock.owner = account;\n    tokenLock.retrieved = false;\n    locks[account][numLocks[account]] = tokenLock;\n    numLocks[account]++;\n\n    return true;\n  }\n}",
  "sourcePath": "/Users/yxf/app/uniarts-eth-dao/contracts/core/TokenLocker.sol",
  "compiler": {
    "name": "solc",
    "version": "0.8.4+commit.c7e474f2.Emscripten.clang"
  },
  "schemaVersion": "3.2.3",
  "updatedAt": "2021-09-17T03:00:12.750Z",
  "devdoc": {
    "kind": "dev",
    "methods": {
      "owner()": {
        "details": "Returns the address of the current owner."
      },
      "renounceOwnership()": {
        "details": "Leaves the contract without owner. It will not be possible to call `onlyOwner` functions anymore. Can only be called by the current owner. NOTE: Renouncing ownership will leave the contract without an owner, thereby removing any functionality that is only available to the owner."
      },
      "transferOwnership(address)": {
        "details": "Transfers ownership of the contract to a new account (`newOwner`). Can only be called by the current owner."
      }
    },
    "version": 1
  },
  "userdoc": {
    "kind": "user",
    "methods": {},
    "version": 1
  }
}