{
  "contractName": "TokenLocker",
  "abi": [
    {
      "anonymous": false,
      "inputs": [
        {
          "indexed": false,
          "internalType": "address",
          "name": "tokenAddress",
          "type": "address"
        },
        {
          "indexed": false,
          "internalType": "address",
          "name": "accountAddress",
          "type": "address"
        },
        {
          "indexed": false,
          "internalType": "uint256",
          "name": "amount",
          "type": "uint256"
        }
      ],
      "name": "LockTokenAdd",
      "type": "event"
    },
    {
      "anonymous": false,
      "inputs": [
        {
          "indexed": false,
          "internalType": "address",
          "name": "tokenAddress",
          "type": "address"
        },
        {
          "indexed": false,
          "internalType": "address",
          "name": "accountAddress",
          "type": "address"
        },
        {
          "indexed": false,
          "internalType": "uint256",
          "name": "amount",
          "type": "uint256"
        }
      ],
      "name": "LockTokenImp",
      "type": "event"
    },
    {
      "anonymous": false,
      "inputs": [
        {
          "indexed": false,
          "internalType": "address",
          "name": "tokenAddress",
          "type": "address"
        },
        {
          "indexed": false,
          "internalType": "address",
          "name": "accountAddress",
          "type": "address"
        },
        {
          "indexed": false,
          "internalType": "uint256",
          "name": "amount",
          "type": "uint256"
        }
      ],
      "name": "LockTokenVote",
      "type": "event"
    },
    {
      "anonymous": false,
      "inputs": [
        {
          "indexed": true,
          "internalType": "address",
          "name": "previousOwner",
          "type": "address"
        },
        {
          "indexed": true,
          "internalType": "address",
          "name": "newOwner",
          "type": "address"
        }
      ],
      "name": "OwnershipTransferred",
      "type": "event"
    },
    {
      "inputs": [
        {
          "internalType": "address",
          "name": "",
          "type": "address"
        },
        {
          "internalType": "uint256",
          "name": "",
          "type": "uint256"
        }
      ],
      "name": "locks",
      "outputs": [
        {
          "internalType": "address",
          "name": "tokenAddress",
          "type": "address"
        },
        {
          "internalType": "uint256",
          "name": "lockDate",
          "type": "uint256"
        },
        {
          "internalType": "uint256",
          "name": "amount",
          "type": "uint256"
        },
        {
          "internalType": "uint256",
          "name": "unlockDate",
          "type": "uint256"
        },
        {
          "internalType": "uint256",
          "name": "lockID",
          "type": "uint256"
        },
        {
          "internalType": "address",
          "name": "owner",
          "type": "address"
        },
        {
          "internalType": "bool",
          "name": "retrieved",
          "type": "bool"
        }
      ],
      "stateMutability": "view",
      "type": "function"
    },
    {
      "inputs": [
        {
          "internalType": "address",
          "name": "",
          "type": "address"
        }
      ],
      "name": "numLocks",
      "outputs": [
        {
          "internalType": "uint256",
          "name": "",
          "type": "uint256"
        }
      ],
      "stateMutability": "view",
      "type": "function"
    },
    {
      "inputs": [],
      "name": "owner",
      "outputs": [
        {
          "internalType": "address",
          "name": "",
          "type": "address"
        }
      ],
      "stateMutability": "view",
      "type": "function"
    },
    {
      "inputs": [],
      "name": "renounceOwnership",
      "outputs": [],
      "stateMutability": "nonpayable",
      "type": "function"
    },
    {
      "inputs": [
        {
          "internalType": "address",
          "name": "newOwner",
          "type": "address"
        }
      ],
      "name": "transferOwnership",
      "outputs": [],
      "stateMutability": "nonpayable",
      "type": "function"
    },
    {
      "inputs": [
        {
          "internalType": "address",
          "name": "newAddress",
          "type": "address"
        }
      ],
      "name": "setVoteContractAddress",
      "outputs": [],
      "stateMutability": "nonpayable",
      "type": "function"
    },
    {
      "inputs": [
        {
          "internalType": "address",
          "name": "tokenAddress",
          "type": "address"
        },
        {
          "internalType": "uint256",
          "name": "amount",
          "type": "uint256"
        },
        {
          "internalType": "uint256",
          "name": "time",
          "type": "uint256"
        }
      ],
      "name": "lockTokens",
      "outputs": [
        {
          "internalType": "bool",
          "name": "",
          "type": "bool"
        }
      ],
      "stateMutability": "nonpayable",
      "type": "function"
    },
    {
      "inputs": [
        {
          "internalType": "uint256",
          "name": "lockId",
          "type": "uint256"
        }
      ],
      "name": "getLock",
      "outputs": [
        {
          "internalType": "address",
          "name": "",
          "type": "address"
        },
        {
          "internalType": "uint256",
          "name": "",
          "type": "uint256"
        },
        {
          "internalType": "uint256",
          "name": "",
          "type": "uint256"
        },
        {
          "internalType": "uint256",
          "name": "",
          "type": "uint256"
        },
        {
          "internalType": "uint256",
          "name": "",
          "type": "uint256"
        },
        {
          "internalType": "address",
          "name": "",
          "type": "address"
        },
        {
          "internalType": "bool",
          "name": "",
          "type": "bool"
        }
      ],
      "stateMutability": "view",
      "type": "function"
    },
    {
      "inputs": [],
      "name": "getNumLocks",
      "outputs": [
        {
          "internalType": "uint256",
          "name": "",
          "type": "uint256"
        }
      ],
      "stateMutability": "view",
      "type": "function"
    },
    {
      "inputs": [
        {
          "internalType": "uint256",
          "name": "lockId",
          "type": "uint256"
        }
      ],
      "name": "unlockTokens",
      "outputs": [
        {
          "internalType": "bool",
          "name": "",
          "type": "bool"
        }
      ],
      "stateMutability": "nonpayable",
      "type": "function"
    },
    {
      "inputs": [
        {
          "internalType": "uint256",
          "name": "lockId",
          "type": "uint256"
        },
        {
          "internalType": "address",
          "name": "accountAddress",
          "type": "address"
        }
      ],
      "name": "subLockForVote",
      "outputs": [
        {
          "internalType": "uint256",
          "name": "amount",
          "type": "uint256"
        }
      ],
      "stateMutability": "nonpayable",
      "type": "function"
    },
    {
      "inputs": [
        {
          "internalType": "address",
          "name": "_tokenAddress",
          "type": "address"
        },
        {
          "internalType": "uint256",
          "name": "_lockTime",
          "type": "uint256"
        },
        {
          "components": [
            {
              "internalType": "address",
              "name": "accountAddress",
              "type": "address"
            },
            {
              "internalType": "uint256",
              "name": "amount",
              "type": "uint256"
            }
          ],
          "internalType": "struct TokenLocker.ImpData[]",
          "name": "accounts",
          "type": "tuple[]"
        }
      ],
      "name": "impLock",
      "outputs": [
        {
          "internalType": "uint256",
          "name": "count",
          "type": "uint256"
        }
      ],
      "stateMutability": "nonpayable",
      "type": "function"
    }
  ],
  "bytecode": "0x60806040526000600160006101000a81548173ffffffffffffffffffffffffffffffffffffffff021916908373ffffffffffffffffffffffffffffffffffffffff16021790555034801561005257600080fd5b5061006f61006461007460201b60201c565b61007c60201b60201c565b610140565b600033905090565b60008060009054906101000a900473ffffffffffffffffffffffffffffffffffffffff169050816000806101000a81548173ffffffffffffffffffffffffffffffffffffffff021916908373ffffffffffffffffffffffffffffffffffffffff1602179055508173ffffffffffffffffffffffffffffffffffffffff168173ffffffffffffffffffffffffffffffffffffffff167f8be0079c531659141344cd1fd0a4f28419497f9722a3daafe3b4186f6b6457e060405160405180910390a35050565b6120fc80620001506000396000f3fe608060405234801561001057600080fd5b50600436106100b45760003560e01c8063a25983e511610071578063a25983e51461017b578063b425f802146101ab578063b9ef0830146101e1578063c7b1e3f214610211578063d68f4dd114610241578063f2fde38b14610277576100b4565b80630d87cedb146100b9578063715018a6146100d75780637a862593146100e15780637c405325146101115780638da5cb5b14610141578063956339b41461015f575b600080fd5b6100c1610293565b6040516100ce9190611d19565b60405180910390f35b6100df6102da565b005b6100fb60048036038101906100f6919061188b565b610362565b6040516101089190611d19565b60405180910390f35b61012b6004803603810190610126919061196a565b610537565b6040516101389190611bfe565b60405180910390f35b6101496108c6565b6040516101569190611b14565b60405180910390f35b61017960048036038101906101749190611826565b6108ef565b005b610195600480360381019061019091906118f2565b610a1f565b6040516101a29190611bfe565b60405180910390f35b6101c560048036038101906101c0919061184f565b610ace565b6040516101d89796959493929190611b8f565b60405180910390f35b6101fb60048036038101906101f69190611826565b610b6a565b6040516102089190611d19565b60405180910390f35b61022b60048036038101906102269190611993565b610b82565b6040516102389190611d19565b60405180910390f35b61025b6004803603810190610256919061196a565b610ed2565b60405161026e9796959493929190611b8f565b60405180910390f35b610291600480360381019061028c9190611826565b61118f565b005b6000600360003373ffffffffffffffffffffffffffffffffffffffff1673ffffffffffffffffffffffffffffffffffffffff16815260200190815260200160002054905090565b6102e2611287565b73ffffffffffffffffffffffffffffffffffffffff166103006108c6565b73ffffffffffffffffffffffffffffffffffffffff1614610356576040517f08c379a000000000000000000000000000000000000000000000000000000000815260040161034d90611c79565b60405180910390fd5b610360600061128f565b565b600061036c611287565b73ffffffffffffffffffffffffffffffffffffffff1661038a6108c6565b73ffffffffffffffffffffffffffffffffffffffff16146103e0576040517f08c379a00000000000000000000000000000000000000000000000000000000081526004016103d790611c79565b60405180910390fd5b600082511180156103f3575060fa825111155b610432576040517f08c379a000000000000000000000000000000000000000000000000000000000815260040161042990611cb9565b60405180910390fd5b60005b825181101561052b576000838281518110610479577f4e487b7100000000000000000000000000000000000000000000000000000000600052603260045260246000fd5b602002602001015160000151905060008483815181106104c2577f4e487b7100000000000000000000000000000000000000000000000000000000600052603260045260246000fd5b60200260200101516020015190506104dc87838389611353565b507fd9da320f821ddc56f253d6a979afb4bfe1f2216dab1a98305828d0fc4441d20e87838360405161051093929190611b2f565b60405180910390a150508061052490611e0f565b9050610435565b50815190509392505050565b6000600360003373ffffffffffffffffffffffffffffffffffffffff1673ffffffffffffffffffffffffffffffffffffffff1681526020019081526020016000205482106105ba576040517f08c379a00000000000000000000000000000000000000000000000000000000081526004016105b190611c39565b60405180910390fd5b60001515600260003373ffffffffffffffffffffffffffffffffffffffff1673ffffffffffffffffffffffffffffffffffffffff168152602001908152602001600020600084815260200190815260200160002060050160149054906101000a900460ff16151514610661576040517f08c379a000000000000000000000000000000000000000000000000000000000815260040161065890611cd9565b60405180910390fd5b42600260003373ffffffffffffffffffffffffffffffffffffffff1673ffffffffffffffffffffffffffffffffffffffff16815260200190815260200160002060008481526020019081526020016000206003015411156106f7576040517f08c379a00000000000000000000000000000000000000000000000000000000081526004016106ee90611cf9565b60405180910390fd5b6000600260003373ffffffffffffffffffffffffffffffffffffffff1673ffffffffffffffffffffffffffffffffffffffff168152602001908152602001600020600084815260200190815260200160002060000160009054906101000a900473ffffffffffffffffffffffffffffffffffffffff1690508073ffffffffffffffffffffffffffffffffffffffff1663a9059cbb33600260003373ffffffffffffffffffffffffffffffffffffffff1673ffffffffffffffffffffffffffffffffffffffff1681526020019081526020016000206000878152602001908152602001600020600201546040518363ffffffff1660e01b81526004016107fd929190611b66565b602060405180830381600087803b15801561081757600080fd5b505af115801561082b573d6000803e3d6000fd5b505050506040513d601f19601f8201168201806040525081019061084f9190611941565b506001600260003373ffffffffffffffffffffffffffffffffffffffff1673ffffffffffffffffffffffffffffffffffffffff168152602001908152602001600020600085815260200190815260200160002060050160146101000a81548160ff0219169083151502179055506001915050919050565b60008060009054906101000a900473ffffffffffffffffffffffffffffffffffffffff16905090565b6108f7611287565b73ffffffffffffffffffffffffffffffffffffffff166109156108c6565b73ffffffffffffffffffffffffffffffffffffffff161461096b576040517f08c379a000000000000000000000000000000000000000000000000000000000815260040161096290611c79565b60405180910390fd5b600073ffffffffffffffffffffffffffffffffffffffff168173ffffffffffffffffffffffffffffffffffffffff1614156109db576040517f08c379a00000000000000000000000000000000000000000000000000000000081526004016109d290611c99565b60405180910390fd5b80600160006101000a81548173ffffffffffffffffffffffffffffffffffffffff021916908373ffffffffffffffffffffffffffffffffffffffff16021790555050565b6000808490508073ffffffffffffffffffffffffffffffffffffffff166323b872dd3330876040518463ffffffff1660e01b8152600401610a6293929190611b2f565b602060405180830381600087803b158015610a7c57600080fd5b505af1158015610a90573d6000803e3d6000fd5b505050506040513d601f19601f82011682018060405250810190610ab49190611941565b50610ac185338686611353565b5060019150509392505050565b6002602052816000526040600020602052806000526040600020600091509150508060000160009054906101000a900473ffffffffffffffffffffffffffffffffffffffff16908060010154908060020154908060030154908060040154908060050160009054906101000a900473ffffffffffffffffffffffffffffffffffffffff16908060050160149054906101000a900460ff16905087565b60036020528060005260406000206000915090505481565b60003373ffffffffffffffffffffffffffffffffffffffff16600160009054906101000a900473ffffffffffffffffffffffffffffffffffffffff1673ffffffffffffffffffffffffffffffffffffffff1614610c14576040517f08c379a0000000000000000000000000000000000000000000000000000000008152600401610c0b90611c59565b60405180910390fd5b600360008373ffffffffffffffffffffffffffffffffffffffff1673ffffffffffffffffffffffffffffffffffffffff168152602001908152602001600020548310610c95576040517f08c379a0000000000000000000000000000000000000000000000000000000008152600401610c8c90611c39565b60405180910390fd5b6000600260008473ffffffffffffffffffffffffffffffffffffffff1673ffffffffffffffffffffffffffffffffffffffff16815260200190815260200160002060008581526020019081526020016000209050600015158160050160149054906101000a900460ff16151514610d41576040517f08c379a0000000000000000000000000000000000000000000000000000000008152600401610d3890611cd9565b60405180910390fd5b4281600301541115610d88576040517f08c379a0000000000000000000000000000000000000000000000000000000008152600401610d7f90611cf9565b60405180910390fd5b60008160000160009054906101000a900473ffffffffffffffffffffffffffffffffffffffff1690508073ffffffffffffffffffffffffffffffffffffffff1663a9059cbb3384600201546040518363ffffffff1660e01b8152600401610df0929190611b66565b602060405180830381600087803b158015610e0a57600080fd5b505af1158015610e1e573d6000803e3d6000fd5b505050506040513d601f19601f82011682018060405250810190610e429190611941565b5060018260050160146101000a81548160ff0219169083151502179055507f09a3d926922a7f54f8d89f4473ab56557f2080af30e5e16e66df53aad7aabd368260000160009054906101000a900473ffffffffffffffffffffffffffffffffffffffff16858460020154604051610ebb93929190611b2f565b60405180910390a181600201549250505092915050565b6000806000806000806000600260003373ffffffffffffffffffffffffffffffffffffffff1673ffffffffffffffffffffffffffffffffffffffff168152602001908152602001600020600089815260200190815260200160002060000160009054906101000a900473ffffffffffffffffffffffffffffffffffffffff16600260003373ffffffffffffffffffffffffffffffffffffffff1673ffffffffffffffffffffffffffffffffffffffff16815260200190815260200160002060008a815260200190815260200160002060010154600260003373ffffffffffffffffffffffffffffffffffffffff1673ffffffffffffffffffffffffffffffffffffffff16815260200190815260200160002060008b815260200190815260200160002060020154600260003373ffffffffffffffffffffffffffffffffffffffff1673ffffffffffffffffffffffffffffffffffffffff16815260200190815260200160002060008c815260200190815260200160002060030154600260003373ffffffffffffffffffffffffffffffffffffffff1673ffffffffffffffffffffffffffffffffffffffff16815260200190815260200160002060008d815260200190815260200160002060040154600260003373ffffffffffffffffffffffffffffffffffffffff1673ffffffffffffffffffffffffffffffffffffffff16815260200190815260200160002060008e815260200190815260200160002060050160009054906101000a900473ffffffffffffffffffffffffffffffffffffffff16600260003373ffffffffffffffffffffffffffffffffffffffff1673ffffffffffffffffffffffffffffffffffffffff16815260200190815260200160002060008f815260200190815260200160002060050160149054906101000a900460ff169650965096509650965096509650919395979092949650565b611197611287565b73ffffffffffffffffffffffffffffffffffffffff166111b56108c6565b73ffffffffffffffffffffffffffffffffffffffff161461120b576040517f08c379a000000000000000000000000000000000000000000000000000000000815260040161120290611c79565b60405180910390fd5b600073ffffffffffffffffffffffffffffffffffffffff168173ffffffffffffffffffffffffffffffffffffffff16141561127b576040517f08c379a000000000000000000000000000000000000000000000000000000000815260040161127290611c19565b60405180910390fd5b6112848161128f565b50565b600033905090565b60008060009054906101000a900473ffffffffffffffffffffffffffffffffffffffff169050816000806101000a81548173ffffffffffffffffffffffffffffffffffffffff021916908373ffffffffffffffffffffffffffffffffffffffff1602179055508173ffffffffffffffffffffffffffffffffffffffff168173ffffffffffffffffffffffffffffffffffffffff167f8be0079c531659141344cd1fd0a4f28419497f9722a3daafe3b4186f6b6457e060405160405180910390a35050565b600080600260008673ffffffffffffffffffffffffffffffffffffffff1673ffffffffffffffffffffffffffffffffffffffff1681526020019081526020016000206000600360008873ffffffffffffffffffffffffffffffffffffffff1673ffffffffffffffffffffffffffffffffffffffff1681526020019081526020016000205481526020019081526020016000209050858160000160006101000a81548173ffffffffffffffffffffffffffffffffffffffff021916908373ffffffffffffffffffffffffffffffffffffffff160217905550428160010181905550838160020181905550828160030181905550600360008673ffffffffffffffffffffffffffffffffffffffff1673ffffffffffffffffffffffffffffffffffffffff168152602001908152602001600020548160040181905550848160050160006101000a81548173ffffffffffffffffffffffffffffffffffffffff021916908373ffffffffffffffffffffffffffffffffffffffff16021790555060008160050160146101000a81548160ff02191690831515021790555080600260008773ffffffffffffffffffffffffffffffffffffffff1673ffffffffffffffffffffffffffffffffffffffff1681526020019081526020016000206000600360008973ffffffffffffffffffffffffffffffffffffffff1673ffffffffffffffffffffffffffffffffffffffff1681526020019081526020016000205481526020019081526020016000206000820160009054906101000a900473ffffffffffffffffffffffffffffffffffffffff168160000160006101000a81548173ffffffffffffffffffffffffffffffffffffffff021916908373ffffffffffffffffffffffffffffffffffffffff160217905550600182015481600101556002820154816002015560038201548160030155600482015481600401556005820160009054906101000a900473ffffffffffffffffffffffffffffffffffffffff168160050160006101000a81548173ffffffffffffffffffffffffffffffffffffffff021916908373ffffffffffffffffffffffffffffffffffffffff1602179055506005820160149054906101000a900460ff168160050160146101000a81548160ff021916908315150217905550905050600360008673ffffffffffffffffffffffffffffffffffffffff1673ffffffffffffffffffffffffffffffffffffffff16815260200190815260200160002060008154809291906116f390611e0f565b91905055506001915050949350505050565b600061171861171384611d59565b611d34565b9050808382526020820190508285604086028201111561173757600080fd5b60005b85811015611767578161174d88826117c5565b84526020840193506040830192505060018101905061173a565b5050509392505050565b60008135905061178081612081565b92915050565b600082601f83011261179757600080fd5b81356117a7848260208601611705565b91505092915050565b6000815190506117bf81612098565b92915050565b6000604082840312156117d757600080fd5b6117e16040611d34565b905060006117f184828501611771565b600083015250602061180584828501611811565b60208301525092915050565b600081359050611820816120af565b92915050565b60006020828403121561183857600080fd5b600061184684828501611771565b91505092915050565b6000806040838503121561186257600080fd5b600061187085828601611771565b925050602061188185828601611811565b9150509250929050565b6000806000606084860312156118a057600080fd5b60006118ae86828701611771565b93505060206118bf86828701611811565b925050604084013567ffffffffffffffff8111156118dc57600080fd5b6118e886828701611786565b9150509250925092565b60008060006060848603121561190757600080fd5b600061191586828701611771565b935050602061192686828701611811565b925050604061193786828701611811565b9150509250925092565b60006020828403121561195357600080fd5b6000611961848285016117b0565b91505092915050565b60006020828403121561197c57600080fd5b600061198a84828501611811565b91505092915050565b600080604083850312156119a657600080fd5b60006119b485828601611811565b92505060206119c585828601611771565b9150509250929050565b6119d881611d96565b82525050565b6119e781611da8565b82525050565b60006119fa602683611d85565b9150611a0582611ec7565b604082019050919050565b6000611a1d601283611d85565b9150611a2882611f16565b602082019050919050565b6000611a40602883611d85565b9150611a4b82611f3f565b604082019050919050565b6000611a63602083611d85565b9150611a6e82611f8e565b602082019050919050565b6000611a86601f83611d85565b9150611a9182611fb7565b602082019050919050565b6000611aa9604083611d85565b9150611ab482611fe0565b604082019050919050565b6000611acc601983611d85565b9150611ad78261202f565b602082019050919050565b6000611aef601c83611d85565b9150611afa82612058565b602082019050919050565b611b0e81611dd4565b82525050565b6000602082019050611b2960008301846119cf565b92915050565b6000606082019050611b4460008301866119cf565b611b5160208301856119cf565b611b5e6040830184611b05565b949350505050565b6000604082019050611b7b60008301856119cf565b611b886020830184611b05565b9392505050565b600060e082019050611ba4600083018a6119cf565b611bb16020830189611b05565b611bbe6040830188611b05565b611bcb6060830187611b05565b611bd86080830186611b05565b611be560a08301856119cf565b611bf260c08301846119de565b98975050505050505050565b6000602082019050611c1360008301846119de565b92915050565b60006020820190508181036000830152611c32816119ed565b9050919050565b60006020820190508181036000830152611c5281611a10565b9050919050565b60006020820190508181036000830152611c7281611a33565b9050919050565b60006020820190508181036000830152611c9281611a56565b9050919050565b60006020820190508181036000830152611cb281611a79565b9050919050565b60006020820190508181036000830152611cd281611a9c565b9050919050565b60006020820190508181036000830152611cf281611abf565b9050919050565b60006020820190508181036000830152611d1281611ae2565b9050919050565b6000602082019050611d2e6000830184611b05565b92915050565b6000611d3e611d4f565b9050611d4a8282611dde565b919050565b6000604051905090565b600067ffffffffffffffff821115611d7457611d73611e87565b5b602082029050602081019050919050565b600082825260208201905092915050565b6000611da182611db4565b9050919050565b60008115159050919050565b600073ffffffffffffffffffffffffffffffffffffffff82169050919050565b6000819050919050565b611de782611eb6565b810181811067ffffffffffffffff82111715611e0657611e05611e87565b5b80604052505050565b6000611e1a82611dd4565b91507fffffffffffffffffffffffffffffffffffffffffffffffffffffffffffffffff821415611e4d57611e4c611e58565b5b600182019050919050565b7f4e487b7100000000000000000000000000000000000000000000000000000000600052601160045260246000fd5b7f4e487b7100000000000000000000000000000000000000000000000000000000600052604160045260246000fd5b6000601f19601f8301169050919050565b7f4f776e61626c653a206e6577206f776e657220697320746865207a65726f206160008201527f6464726573730000000000000000000000000000000000000000000000000000602082015250565b7f4c6f636b20646f65736e27742065786973740000000000000000000000000000600082015250565b7f4f776e61626c653a2063616c6c6572206973206e6f742074686520766f74652060008201527f636f6e7472616374000000000000000000000000000000000000000000000000602082015250565b7f4f776e61626c653a2063616c6c6572206973206e6f7420746865206f776e6572600082015250565b7f6e6577206164647265737320697320746865207a65726f206164647265737300600082015250565b7f6e756d626572206f66206e6674206d757374206265206772656174657220746860008201527f616e203020616e64206c657373207468616e204d41585f494d505f434f554e54602082015250565b7f4c6f636b2077617320616c726561647920756e6c6f636b656400000000000000600082015250565b7f546f6b656e732063616e277420626520756e6c6f636b65642079657400000000600082015250565b61208a81611d96565b811461209557600080fd5b50565b6120a181611da8565b81146120ac57600080fd5b50565b6120b881611dd4565b81146120c357600080fd5b5056fea26469706673582212202b5bc854e7f9fd07b886f1bd9a3503d99bb4c4db1a1c45531cef5d412954990d64736f6c63430008040033",
  "immutableReferences": {},
  "source": "// SPDX-License-Identifier: MIT\npragma solidity ^0.8.0;\n\nimport \"@openzeppelin/contracts/access/Ownable.sol\";\nimport \"@openzeppelin/contracts/utils/math/SafeMath.sol\";\nimport \"@openzeppelin/contracts/token/ERC20/IERC20.sol\";\n\ncontract TokenLocker is Ownable {\n  using SafeMath for uint256;\n\n  address voteAddress = address(0);\n\n  uint constant MAX_IMP_COUNT = 250;\n  \n  struct TokenLock {\n    address tokenAddress;\n    uint256 lockDate; // the date the token was locked\n    uint256 amount; // the amount of tokens locked\n    uint256 unlockDate; // the date the token can be withdrawn\n    uint256 lockID; // lockID nonce per uni pair\n    address owner;\n    bool retrieved; // false if lock already retreieved\n  }\n\n  // structs\n  struct ImpData {\n      address accountAddress;\n      uint256 amount;\n  }\n\n  event LockTokenAdd(address tokenAddress, address accountAddress, uint256 amount);\n  event LockTokenImp(address tokenAddress, address accountAddress, uint256 amount);\n  event LockTokenVote(address tokenAddress, address accountAddress, uint256 amount);\n\n  // Mapping of user to their locks\n  mapping(address => mapping(uint256 => TokenLock)) public locks;\n\n  // Num of locks for each user\n  mapping(address => uint256) public numLocks;\n\n  modifier onlyVoter() {\n     require(voteAddress == msg.sender, \"Ownable: caller is not the vote contract\");\n     _;\n  }\n\n  function setVoteContractAddress(address newAddress) public virtual onlyOwner {\n        require(newAddress != address(0), \"new address is the zero address\");\n        voteAddress = newAddress;\n  }\n\n  function lockTokens(address tokenAddress, uint256 amount, uint256 time) external returns (bool) {\n    IERC20 token = IERC20(tokenAddress);\n    // Transferring token to smart contract\n    token.transferFrom(msg.sender, address(this), amount);\n  \n    _setLockTokens(tokenAddress, msg.sender, amount, time);\n    return true;\n  }\n  \n  function getLock(uint256 lockId) public view returns (address, uint256, uint256, uint256, uint256, address, bool) {\n    return (\n      locks[msg.sender][lockId].tokenAddress,\n      locks[msg.sender][lockId].lockDate,\n      locks[msg.sender][lockId].amount,\n      locks[msg.sender][lockId].unlockDate,\n      locks[msg.sender][lockId].lockID,\n      locks[msg.sender][lockId].owner,\n      locks[msg.sender][lockId].retrieved\n    );\n  }\n  \n  function getNumLocks() external view returns (uint256) {\n    return numLocks[msg.sender];\n  }\n\n  function unlockTokens(uint256 lockId) external returns (bool) {\n    // Make sure lock exists\n    require(lockId < numLocks[msg.sender], \"Lock doesn't exist\");\n    // Make sure lock is still locked\n    require(locks[msg.sender][lockId].retrieved == false, \"Lock was already unlocked\");\n    // Make sure tokens can be unlocked\n    require(locks[msg.sender][lockId].unlockDate <= block.timestamp, \"Tokens can't be unlocked yet\");\n    \n    IERC20 token = IERC20(locks[msg.sender][lockId].tokenAddress);\n    token.transfer(msg.sender, locks[msg.sender][lockId].amount);\n    locks[msg.sender][lockId].retrieved = true;\n\n    return true;\n  }\n\n\n  function subLockForVote(uint256 lockId, address accountAddress) external onlyVoter returns (uint256 amount) {\n    // Make sure lock exists\n    require(lockId < numLocks[accountAddress], \"Lock doesn't exist\");\n\n    TokenLock storage tokenLock = locks[accountAddress][lockId];\n    // Make sure lock is still locked\n    require(tokenLock.retrieved == false, \"Lock was already unlocked\");\n    // Make sure tokens can be unlocked\n    require(tokenLock.unlockDate <= block.timestamp, \"Tokens can't be unlocked yet\");\n    \n    IERC20 token = IERC20(tokenLock.tokenAddress);\n    token.transfer(msg.sender, tokenLock.amount);\n    tokenLock.retrieved = true;\n\n    emit LockTokenVote(tokenLock.tokenAddress, accountAddress, tokenLock.amount);\n\n    return tokenLock.amount;\n  }\n\n  function impLock(address _tokenAddress, uint256 _lockTime, ImpData[] memory accounts) external onlyOwner returns (uint256 count) {\n    // check item count\n    require(accounts.length > 0 && accounts.length <= MAX_IMP_COUNT, \"number of nft must be greater than 0 and less than MAX_IMP_COUNT\");\n\n    // import item to contract\n    for(uint i = 0; i < accounts.length; ++i) {\n        address _airdropAddress = accounts[i].accountAddress;\n        uint256 _airdropAmount = accounts[i].amount;\n        \n        _setLockTokens(_tokenAddress, _airdropAddress, _airdropAmount, _lockTime);\n        emit LockTokenImp(_tokenAddress, _airdropAddress, _airdropAmount);\n    }\n    return accounts.length;\n  }\n\n  function _setLockTokens(address tokenAddress, address account, uint256 amount, uint256 time) internal returns (bool) {\n    TokenLock storage tokenLock = locks[account][numLocks[account]];\n    tokenLock.tokenAddress = tokenAddress;\n    tokenLock.lockDate = block.timestamp;\n    tokenLock.amount = amount;\n    tokenLock.unlockDate = time;\n    tokenLock.lockID = numLocks[account];\n    tokenLock.owner = account;\n    tokenLock.retrieved = false;\n    locks[account][numLocks[account]] = tokenLock;\n    numLocks[account]++;\n\n    return true;\n  }\n}",
  "sourcePath": "/Users/tuminfei/Code/Nodejs/uniarts-eth-dao/contracts/core/TokenLocker.sol",
  "compiler": {
    "name": "solc",
    "version": "0.8.4+commit.c7e474f2.Emscripten.clang"
  },
  "schemaVersion": "3.3.0",
  "updatedAt": "2021-09-07T02:03:48.344Z",
  "devdoc": {
    "kind": "dev",
    "methods": {
      "owner()": {
        "details": "Returns the address of the current owner."
      },
      "renounceOwnership()": {
        "details": "Leaves the contract without owner. It will not be possible to call `onlyOwner` functions anymore. Can only be called by the current owner. NOTE: Renouncing ownership will leave the contract without an owner, thereby removing any functionality that is only available to the owner."
      },
      "transferOwnership(address)": {
        "details": "Transfers ownership of the contract to a new account (`newOwner`). Can only be called by the current owner."
      }
    },
    "version": 1
  },
  "userdoc": {
    "kind": "user",
    "methods": {},
    "version": 1
  }
}