{
  "contractName": "TokenLockerStorage",
  "abi": [
    {
      "inputs": [],
      "stateMutability": "nonpayable",
      "type": "constructor"
    },
    {
      "inputs": [],
      "name": "BASE_UNIT",
      "outputs": [
        {
          "internalType": "uint256",
          "name": "",
          "type": "uint256"
        }
      ],
      "stateMutability": "view",
      "type": "function"
    },
    {
      "inputs": [],
      "name": "DECIMALS",
      "outputs": [
        {
          "internalType": "uint8",
          "name": "",
          "type": "uint8"
        }
      ],
      "stateMutability": "view",
      "type": "function"
    },
    {
      "inputs": [],
      "name": "TOKEN_ADDRESS",
      "outputs": [
        {
          "internalType": "address",
          "name": "",
          "type": "address"
        }
      ],
      "stateMutability": "view",
      "type": "function"
    },
    {
      "inputs": [],
      "name": "VERSION",
      "outputs": [
        {
          "internalType": "uint8",
          "name": "",
          "type": "uint8"
        }
      ],
      "stateMutability": "view",
      "type": "function"
    },
    {
      "inputs": [
        {
          "internalType": "uint256",
          "name": "",
          "type": "uint256"
        }
      ],
      "name": "accountList",
      "outputs": [
        {
          "internalType": "address",
          "name": "",
          "type": "address"
        }
      ],
      "stateMutability": "view",
      "type": "function"
    },
    {
      "inputs": [
        {
          "internalType": "address",
          "name": "",
          "type": "address"
        }
      ],
      "name": "airdropBalances",
      "outputs": [
        {
          "internalType": "uint256",
          "name": "",
          "type": "uint256"
        }
      ],
      "stateMutability": "view",
      "type": "function"
    },
    {
      "inputs": [
        {
          "internalType": "uint256",
          "name": "",
          "type": "uint256"
        }
      ],
      "name": "amountList",
      "outputs": [
        {
          "internalType": "uint256",
          "name": "",
          "type": "uint256"
        }
      ],
      "stateMutability": "view",
      "type": "function"
    },
    {
      "inputs": [],
      "name": "lockTime",
      "outputs": [
        {
          "internalType": "uint256",
          "name": "",
          "type": "uint256"
        }
      ],
      "stateMutability": "view",
      "type": "function"
    },
    {
      "inputs": [],
      "name": "getTokenAddress",
      "outputs": [
        {
          "internalType": "address",
          "name": "token",
          "type": "address"
        }
      ],
      "stateMutability": "pure",
      "type": "function"
    },
    {
      "inputs": [],
      "name": "getLockTime",
      "outputs": [
        {
          "internalType": "uint256",
          "name": "timestamp",
          "type": "uint256"
        }
      ],
      "stateMutability": "pure",
      "type": "function"
    },
    {
      "inputs": [],
      "name": "getAccountCount",
      "outputs": [
        {
          "internalType": "uint256",
          "name": "count",
          "type": "uint256"
        }
      ],
      "stateMutability": "view",
      "type": "function"
    },
    {
      "inputs": [
        {
          "internalType": "uint256",
          "name": "index",
          "type": "uint256"
        }
      ],
      "name": "getAccount",
      "outputs": [
        {
          "internalType": "address",
          "name": "accountAddress",
          "type": "address"
        }
      ],
      "stateMutability": "view",
      "type": "function"
    },
    {
      "inputs": [
        {
          "internalType": "address",
          "name": "accountAddress",
          "type": "address"
        }
      ],
      "name": "getAccountBalance",
      "outputs": [
        {
          "internalType": "uint256",
          "name": "amount",
          "type": "uint256"
        }
      ],
      "stateMutability": "view",
      "type": "function"
    }
  ],
  "bytecode": "0x61012060405273de96e75c7160d70a447a72afdb75ddfa1455c808608090815273d2686f98c3ad0341e8196d8d31fe65c85fdfdfa060a0527396803aae93c659f300b568f6e1a1f431ed85e1e860c05273240c23f5a91fe87d3623a6922aafdc07965c7c2460e052732247c9a8e87810d49ee2af6b318fffaa080b99b96101005261008e9060009060056101b2565b506040805160a0810182526515d3ef7980008082526517a598c3a0006020830152651977420dc000928201929092526060810182905260808101919091526100da906001906005610217565b503480156100e757600080fd5b5060005b6000548110156101ac576001818154811061012f577f4e487b7100000000000000000000000000000000000000000000000000000000600052603260045260246000fd5b906000526020600020015460026000808481548110610177577f4e487b7100000000000000000000000000000000000000000000000000000000600052603260045260246000fd5b6000918252602080832090910154600160a060020a031683528201929092526040019020556101a581610271565b90506100eb565b506102b1565b828054828255906000526020600020908101928215610207579160200282015b828111156102075782518254600160a060020a031916600160a060020a039091161782556020909201916001909101906101d2565b5061021392915061025c565b5090565b828054828255906000526020600020908101928215610207579160200282015b82811115610207578251829065ffffffffffff16905591602001919060010190610237565b5b80821115610213576000815560010161025d565b60006000198214156102aa577f4e487b710000000000000000000000000000000000000000000000000000000081526011600452602481fd5b5060010190565b6104a6806102c06000396000f3fe608060405234801561001057600080fd5b50600436106100ec576000357c0100000000000000000000000000000000000000000000000000000000900480635b3ed4a5116100a9578063c0a4d64d11610083578063c0a4d64d146101ef578063ce88b145146101f9578063e3a78c401461020c578063ffa1ad741461022c57600080fd5b80635b3ed4a51461019e57806393423e9c146101b1578063a98e4e77146101e757600080fd5b80630bdf5300146100f15780630d668087146101365780630e962f001461014f57806310fe9ae8146101575780632e0f2625146101715780634ea98d161461018b575b600080fd5b61010c73507bde03a87a6aa134d16634545e3d79c11c137d81565b60405173ffffffffffffffffffffffffffffffffffffffff90911681526020015b60405180910390f35b61014163613ad84081565b60405190815260200161012d565b610141610234565b73507bde03a87a6aa134d16634545e3d79c11c137d61010c565b610179600c81565b60405160ff909116815260200161012d565b61010c610199366004610339565b610243565b6101416101ac366004610339565b61027a565b6101416101bf3660046102fe565b73ffffffffffffffffffffffffffffffffffffffff1660009081526002602052604090205490565b600054610141565b63613ad840610141565b61010c610207366004610339565b61029b565b61014161021a3660046102fe565b60026020526000908152604090205481565b610179600181565b610240600c600a610396565b81565b6000818154811061025357600080fd5b60009182526020909120015473ffffffffffffffffffffffffffffffffffffffff16905081565b6001818154811061028a57600080fd5b600091825260209091200154905081565b60008082815481106102d6577f4e487b7100000000000000000000000000000000000000000000000000000000600052603260045260246000fd5b60009182526020909120015473ffffffffffffffffffffffffffffffffffffffff1692915050565b60006020828403121561030f578081fd5b813573ffffffffffffffffffffffffffffffffffffffff81168114610332578182fd5b9392505050565b60006020828403121561034a578081fd5b5035919050565b600181815b8085111561038e57816000190482111561037257610372610441565b8085161561037f57918102915b60029094049390800290610356565b509250929050565b600061033283836000826103ac5750600161043b565b816103b95750600061043b565b81600181146103cf57600281146103d9576103f6565b600191505061043b565b60ff8411156103ea576103ea610441565b8360020a91505061043b565b5060208310610133831016604e8410600b8410161715610419575081810a61043b565b6104238383610351565b806000190482111561043757610437610441565b0290505b92915050565b7f4e487b7100000000000000000000000000000000000000000000000000000000600052601160045260246000fdfea2646970667358221220a1a1b9eb7922ff71dd9c8e90a5df3bce892d3c608c5a7165e83ab75560f2bebe64736f6c63430008040033",
  "immutableReferences": {},
  "source": "// SPDX-License-Identifier: MIT\npragma solidity ^0.8.0;\n\ncontract TokenLockerStorage {\n    uint8 public constant VERSION = 1;\n\n    // token address\n    address constant public TOKEN_ADDRESS = address(0x507BDe03A87a6aA134d16634545E3D79c11c137D);\n\n    // modify token decimals\n    uint8 public constant DECIMALS = 12;\n\n    // base_unit\n    uint256 public constant BASE_UNIT = 10 ** uint256(DECIMALS);\n\n    address[] public accountList = [0xDe96e75c7160d70a447a72AFdb75DDfA1455c808,\n                                    0xd2686F98C3Ad0341E8196d8d31fE65C85FdfdFa0,\n                                    0x96803aAE93c659F300b568f6e1a1f431eD85e1E8,\n                                    0x240C23f5A91FE87d3623A6922AAFDc07965C7C24,\n                                    0x2247c9a8e87810d49EE2AF6B318fFfaA080b99b9];\n\n    uint256[] public amountList =  [24000000000000,\n                                    26000000000000,\n                                    28000000000000,\n                                    24000000000000,\n                                    24000000000000];\n\n    // Locker-time: 2021-09-10 12:00:00\n    uint256 constant public lockTime = 1631246400;\n\n    mapping (address => uint) public airdropBalances;\n\n    constructor() {\n        for(uint i = 0; i < accountList.length; ++i) {\n            airdropBalances[accountList[i]] = amountList[i];\n        }\n    }\n\n    function getTokenAddress() public pure returns(address token) {\n        return TOKEN_ADDRESS;\n    }\n\n    function getLockTime() public pure returns(uint256 timestamp) {\n        return lockTime;\n    }\n\n    function getAccountCount() public view returns(uint count) {\n        return accountList.length;\n    }\n\n    function getAccount(uint256 index) public view returns(address accountAddress) {\n        return accountList[index];\n    }\n\n    function getAccountBalance(address accountAddress) public view returns(uint256 amount) {\n        return airdropBalances[accountAddress];\n    }\n}\n\n\n",
  "sourcePath": "/Users/tuminfei/Code/Nodejs/uniarts-eth-dao/contracts/core/TokenLockerStorage.sol",
  "compiler": {
    "name": "solc",
    "version": "0.8.4+commit.c7e474f2.Emscripten.clang"
  },
  "schemaVersion": "3.3.0",
  "updatedAt": "2021-10-29T09:01:54.433Z",
  "devdoc": {
    "kind": "dev",
    "methods": {},
    "version": 1
  },
  "userdoc": {
    "kind": "user",
    "methods": {},
    "version": 1
  }
}