{
  "contractName": "TrustMarketplace",
  "abi": [
    {
      "inputs": [
        {
          "internalType": "address",
          "name": "_acceptedToken",
          "type": "address"
        }
      ],
      "stateMutability": "nonpayable",
      "type": "constructor"
    },
    {
      "anonymous": false,
      "inputs": [
        {
          "indexed": false,
          "internalType": "bytes32",
          "name": "id",
          "type": "bytes32"
        }
      ],
      "name": "BidAccepted",
      "type": "event"
    },
    {
      "anonymous": false,
      "inputs": [
        {
          "indexed": false,
          "internalType": "bytes32",
          "name": "id",
          "type": "bytes32"
        }
      ],
      "name": "BidCancelled",
      "type": "event"
    },
    {
      "anonymous": false,
      "inputs": [
        {
          "indexed": false,
          "internalType": "bytes32",
          "name": "id",
          "type": "bytes32"
        },
        {
          "indexed": true,
          "internalType": "address",
          "name": "nftAddress",
          "type": "address"
        },
        {
          "indexed": true,
          "internalType": "uint256",
          "name": "assetId",
          "type": "uint256"
        },
        {
          "indexed": true,
          "internalType": "address",
          "name": "bidder",
          "type": "address"
        },
        {
          "indexed": false,
          "internalType": "uint256",
          "name": "priceInWei",
          "type": "uint256"
        },
        {
          "indexed": false,
          "internalType": "uint256",
          "name": "expiresAt",
          "type": "uint256"
        }
      ],
      "name": "BidCreated",
      "type": "event"
    },
    {
      "anonymous": false,
      "inputs": [
        {
          "indexed": false,
          "internalType": "uint256",
          "name": "cutPerMillion",
          "type": "uint256"
        }
      ],
      "name": "ChangedFeePerMillion",
      "type": "event"
    },
    {
      "anonymous": false,
      "inputs": [
        {
          "indexed": false,
          "internalType": "bytes32",
          "name": "id",
          "type": "bytes32"
        }
      ],
      "name": "OrderCancelled",
      "type": "event"
    },
    {
      "anonymous": false,
      "inputs": [
        {
          "indexed": false,
          "internalType": "bytes32",
          "name": "id",
          "type": "bytes32"
        },
        {
          "indexed": true,
          "internalType": "address",
          "name": "seller",
          "type": "address"
        },
        {
          "indexed": true,
          "internalType": "address",
          "name": "nftAddress",
          "type": "address"
        },
        {
          "indexed": true,
          "internalType": "uint256",
          "name": "assetId",
          "type": "uint256"
        },
        {
          "indexed": false,
          "internalType": "uint256",
          "name": "priceInWei",
          "type": "uint256"
        },
        {
          "indexed": false,
          "internalType": "uint256",
          "name": "expiresAt",
          "type": "uint256"
        }
      ],
      "name": "OrderCreated",
      "type": "event"
    },
    {
      "anonymous": false,
      "inputs": [
        {
          "indexed": false,
          "internalType": "bytes32",
          "name": "id",
          "type": "bytes32"
        },
        {
          "indexed": true,
          "internalType": "address",
          "name": "buyer",
          "type": "address"
        },
        {
          "indexed": false,
          "internalType": "uint256",
          "name": "priceInWei",
          "type": "uint256"
        }
      ],
      "name": "OrderSuccessful",
      "type": "event"
    },
    {
      "anonymous": false,
      "inputs": [
        {
          "indexed": false,
          "internalType": "bytes32",
          "name": "id",
          "type": "bytes32"
        },
        {
          "indexed": false,
          "internalType": "uint256",
          "name": "priceInWei",
          "type": "uint256"
        },
        {
          "indexed": false,
          "internalType": "uint256",
          "name": "expiresAt",
          "type": "uint256"
        }
      ],
      "name": "OrderUpdated",
      "type": "event"
    },
    {
      "anonymous": false,
      "inputs": [
        {
          "indexed": true,
          "internalType": "address",
          "name": "previousOwner",
          "type": "address"
        },
        {
          "indexed": true,
          "internalType": "address",
          "name": "newOwner",
          "type": "address"
        }
      ],
      "name": "OwnershipTransferred",
      "type": "event"
    },
    {
      "anonymous": false,
      "inputs": [
        {
          "indexed": false,
          "internalType": "address",
          "name": "account",
          "type": "address"
        }
      ],
      "name": "Paused",
      "type": "event"
    },
    {
      "anonymous": false,
      "inputs": [
        {
          "indexed": false,
          "internalType": "address",
          "name": "account",
          "type": "address"
        }
      ],
      "name": "Unpaused",
      "type": "event"
    },
    {
      "inputs": [],
      "name": "_INTERFACE_ID_ERC721",
      "outputs": [
        {
          "internalType": "bytes4",
          "name": "",
          "type": "bytes4"
        }
      ],
      "stateMutability": "view",
      "type": "function",
      "constant": true
    },
    {
      "inputs": [],
      "name": "acceptedToken",
      "outputs": [
        {
          "internalType": "contract IERC20",
          "name": "",
          "type": "address"
        }
      ],
      "stateMutability": "view",
      "type": "function",
      "constant": true
    },
    {
      "inputs": [
        {
          "internalType": "address",
          "name": "",
          "type": "address"
        },
        {
          "internalType": "uint256",
          "name": "",
          "type": "uint256"
        }
      ],
      "name": "bidByOrderId",
      "outputs": [
        {
          "internalType": "bytes32",
          "name": "id",
          "type": "bytes32"
        },
        {
          "internalType": "address",
          "name": "bidder",
          "type": "address"
        },
        {
          "internalType": "uint256",
          "name": "price",
          "type": "uint256"
        },
        {
          "internalType": "uint256",
          "name": "expiresAt",
          "type": "uint256"
        }
      ],
      "stateMutability": "view",
      "type": "function",
      "constant": true
    },
    {
      "inputs": [],
      "name": "cutPerMillion",
      "outputs": [
        {
          "internalType": "uint256",
          "name": "",
          "type": "uint256"
        }
      ],
      "stateMutability": "view",
      "type": "function",
      "constant": true
    },
    {
      "inputs": [],
      "name": "maxCutPerMillion",
      "outputs": [
        {
          "internalType": "uint256",
          "name": "",
          "type": "uint256"
        }
      ],
      "stateMutability": "view",
      "type": "function",
      "constant": true
    },
    {
      "inputs": [
        {
          "internalType": "address",
          "name": "",
          "type": "address"
        },
        {
          "internalType": "address",
          "name": "",
          "type": "address"
        },
        {
          "internalType": "uint256",
          "name": "",
          "type": "uint256"
        },
        {
          "internalType": "bytes",
          "name": "",
          "type": "bytes"
        }
      ],
      "name": "onERC721Received",
      "outputs": [
        {
          "internalType": "bytes4",
          "name": "",
          "type": "bytes4"
        }
      ],
      "stateMutability": "nonpayable",
      "type": "function"
    },
    {
      "inputs": [
        {
          "internalType": "address",
          "name": "",
          "type": "address"
        },
        {
          "internalType": "uint256",
          "name": "",
          "type": "uint256"
        }
      ],
      "name": "orderByAssetId",
      "outputs": [
        {
          "internalType": "bytes32",
          "name": "id",
          "type": "bytes32"
        },
        {
          "internalType": "address",
          "name": "seller",
          "type": "address"
        },
        {
          "internalType": "address",
          "name": "nftAddress",
          "type": "address"
        },
        {
          "internalType": "uint256",
          "name": "price",
          "type": "uint256"
        },
        {
          "internalType": "uint256",
          "name": "expiresAt",
          "type": "uint256"
        }
      ],
      "stateMutability": "view",
      "type": "function",
      "constant": true
    },
    {
      "inputs": [],
      "name": "owner",
      "outputs": [
        {
          "internalType": "address",
          "name": "",
          "type": "address"
        }
      ],
      "stateMutability": "view",
      "type": "function",
      "constant": true
    },
    {
      "inputs": [],
      "name": "paused",
      "outputs": [
        {
          "internalType": "bool",
          "name": "",
          "type": "bool"
        }
      ],
      "stateMutability": "view",
      "type": "function",
      "constant": true
    },
    {
      "inputs": [],
      "name": "renounceOwnership",
      "outputs": [],
      "stateMutability": "nonpayable",
      "type": "function"
    },
    {
      "inputs": [
        {
          "internalType": "uint256",
          "name": "_cutPerMillion",
          "type": "uint256"
        }
      ],
      "name": "setOwnerCutPerMillion",
      "outputs": [],
      "stateMutability": "nonpayable",
      "type": "function"
    },
    {
      "inputs": [
        {
          "internalType": "address",
          "name": "newOwner",
          "type": "address"
        }
      ],
      "name": "transferOwnership",
      "outputs": [],
      "stateMutability": "nonpayable",
      "type": "function"
    },
    {
      "inputs": [
        {
          "internalType": "bool",
          "name": "_setPaused",
          "type": "bool"
        }
      ],
      "name": "setPaused",
      "outputs": [],
      "stateMutability": "nonpayable",
      "type": "function"
    },
    {
      "inputs": [
        {
          "internalType": "address",
          "name": "_nftAddress",
          "type": "address"
        },
        {
          "internalType": "uint256",
          "name": "_assetId",
          "type": "uint256"
        },
        {
          "internalType": "uint256",
          "name": "_priceInWei",
          "type": "uint256"
        },
        {
          "internalType": "uint256",
          "name": "_expiresAt",
          "type": "uint256"
        }
      ],
      "name": "createOrder",
      "outputs": [],
      "stateMutability": "nonpayable",
      "type": "function"
    },
    {
      "inputs": [
        {
          "internalType": "address",
          "name": "_nftAddress",
          "type": "address"
        },
        {
          "internalType": "uint256",
          "name": "_assetId",
          "type": "uint256"
        }
      ],
      "name": "cancelOrder",
      "outputs": [],
      "stateMutability": "nonpayable",
      "type": "function"
    },
    {
      "inputs": [
        {
          "internalType": "address",
          "name": "_nftAddress",
          "type": "address"
        },
        {
          "internalType": "uint256",
          "name": "_assetId",
          "type": "uint256"
        },
        {
          "internalType": "uint256",
          "name": "_priceInWei",
          "type": "uint256"
        },
        {
          "internalType": "uint256",
          "name": "_expiresAt",
          "type": "uint256"
        }
      ],
      "name": "updateOrder",
      "outputs": [],
      "stateMutability": "nonpayable",
      "type": "function"
    },
    {
      "inputs": [
        {
          "internalType": "address",
          "name": "_nftAddress",
          "type": "address"
        },
        {
          "internalType": "uint256",
          "name": "_assetId",
          "type": "uint256"
        },
        {
          "internalType": "uint256",
          "name": "_priceInWei",
          "type": "uint256"
        },
        {
          "internalType": "bytes32",
          "name": "_fingerprint",
          "type": "bytes32"
        }
      ],
      "name": "safeExecuteOrder",
      "outputs": [],
      "stateMutability": "nonpayable",
      "type": "function"
    },
    {
      "inputs": [
        {
          "internalType": "address",
          "name": "_nftAddress",
          "type": "address"
        },
        {
          "internalType": "uint256",
          "name": "_assetId",
          "type": "uint256"
        },
        {
          "internalType": "uint256",
          "name": "_priceInWei",
          "type": "uint256"
        },
        {
          "internalType": "uint256",
          "name": "_expiresAt",
          "type": "uint256"
        },
        {
          "internalType": "bytes32",
          "name": "_fingerprint",
          "type": "bytes32"
        }
      ],
      "name": "safePlaceBid",
      "outputs": [],
      "stateMutability": "nonpayable",
      "type": "function"
    },
    {
      "inputs": [
        {
          "internalType": "address",
          "name": "_nftAddress",
          "type": "address"
        },
        {
          "internalType": "uint256",
          "name": "_assetId",
          "type": "uint256"
        }
      ],
      "name": "cancelBid",
      "outputs": [],
      "stateMutability": "nonpayable",
      "type": "function"
    },
    {
      "inputs": [
        {
          "internalType": "address",
          "name": "_nftAddress",
          "type": "address"
        },
        {
          "internalType": "uint256",
          "name": "_assetId",
          "type": "uint256"
        },
        {
          "internalType": "uint256",
          "name": "_priceInWei",
          "type": "uint256"
        }
      ],
      "name": "acceptBid",
      "outputs": [],
      "stateMutability": "nonpayable",
      "type": "function"
    }
  ],
  "bytecode": "0x60806040523480156200001157600080fd5b5060405162004a6b38038062004a6b83398181016040528101906200003791906200021d565b620000576200004b6200012760201b60201c565b6200012f60201b60201c565b60008060146101000a81548160ff0219169083151502179055506200009d8173ffffffffffffffffffffffffffffffffffffffff16620001f360201b6200183e1760201c565b620000df576040517f08c379a0000000000000000000000000000000000000000000000000000000008152600401620000d69062000270565b60405180910390fd5b80600260006101000a81548173ffffffffffffffffffffffffffffffffffffffff021916908373ffffffffffffffffffffffffffffffffffffffff1602179055505062000340565b600033905090565b60008060009054906101000a900473ffffffffffffffffffffffffffffffffffffffff169050816000806101000a81548173ffffffffffffffffffffffffffffffffffffffff021916908373ffffffffffffffffffffffffffffffffffffffff1602179055508173ffffffffffffffffffffffffffffffffffffffff168173ffffffffffffffffffffffffffffffffffffffff167f8be0079c531659141344cd1fd0a4f28419497f9722a3daafe3b4186f6b6457e060405160405180910390a35050565b600080823b905060008111915050919050565b600081519050620002178162000326565b92915050565b6000602082840312156200023057600080fd5b6000620002408482850162000206565b91505092915050565b60006200025860368362000292565b91506200026582620002d7565b604082019050919050565b600060208201905081810360008301526200028b8162000249565b9050919050565b600082825260208201905092915050565b6000620002b082620002b7565b9050919050565b600073ffffffffffffffffffffffffffffffffffffffff82169050919050565b7f54686520616363657074656420746f6b656e2061646472657373206d7573742060008201527f62652061206465706c6f79656420636f6e747261637400000000000000000000602082015250565b6200033181620002a3565b81146200033d57600080fd5b50565b61471b80620003506000396000f3fe608060405234801561001057600080fd5b506004361061012c5760003560e01c8063715018a6116100ad578063cf7ce01f11610071578063cf7ce01f146102f8578063dece685414610314578063e13a40f014610332578063e61f38511461034e578063f2fde38b146103825761012c565b8063715018a6146102635780638da5cb5b1461026d578063c555e0501461028b578063cc1f92af146102a9578063cd08bfe1146102c55761012c565b8063451c3d80116100f4578063451c3d80146101d15780635c975abb146101ef578063673c85531461020d5780636a2061371461022b5780636f652e1a146102475761012c565b8063150b7a021461013157806316c38b3c1461016157806319dad16d1461017d578063374f2e141461019957806339b6b1e5146101b5575b600080fd5b61014b60048036038101906101469190612f73565b61039e565b6040516101589190613923565b60405180910390f35b61017b600480360381019061017691906131b6565b6103b2565b005b61019760048036038101906101929190613208565b61044c565b005b6101b360048036038101906101ae9190613079565b610550565b005b6101cf60048036038101906101ca9190612fee565b610877565b005b6101d9610a5f565b6040516101e6919061393e565b60405180910390f35b6101f7610a85565b60405161020491906137f5565b60405180910390f35b610215610a9b565b6040516102229190613c9b565b60405180910390f35b61024560048036038101906102409190612fee565b610aa1565b005b610261600480360381019061025c91906130dc565b610dd2565b005b61026b610e2c565b005b610275610eb4565b604051610282919061377a565b60405180910390f35b610293610edd565b6040516102a09190613c9b565b60405180910390f35b6102c360048036038101906102be919061313f565b610ee4565b005b6102df60048036038101906102da9190612fee565b610f4a565b6040516102ef949392919061387e565b60405180910390f35b610312600480360381019061030d91906130dc565b610fa7565b005b61031c61130d565b6040516103299190613923565b60405180910390f35b61034c6004803603810190610347919061302a565b611318565b005b61036860048036038101906103639190612fee565b6116c3565b60405161037995949392919061382b565b60405180910390f35b61039c60048036038101906103979190612f21565b611746565b005b600063150b7a0260e01b9050949350505050565b6103ba611851565b73ffffffffffffffffffffffffffffffffffffffff166103d8610eb4565b73ffffffffffffffffffffffffffffffffffffffff161461042e576040517f08c379a000000000000000000000000000000000000000000000000000000000815260040161042590613b5b565b60405180910390fd5b806104405761043b611859565b610449565b6104486118fa565b5b50565b610454611851565b73ffffffffffffffffffffffffffffffffffffffff16610472610eb4565b73ffffffffffffffffffffffffffffffffffffffff16146104c8576040517f08c379a00000000000000000000000000000000000000000000000000000000081526004016104bf90613b5b565b60405180910390fd5b620186a0811061050d576040517f08c379a000000000000000000000000000000000000000000000000000000000815260040161050490613c7b565b60405180910390fd5b806001819055507fdb629698afb23c88e17ec4d29f97b3907c3e1fbfd116fa15f97569c7c16b3e4d6001546040516105459190613c9b565b60405180910390a150565b610558610a85565b15610598576040517f08c379a000000000000000000000000000000000000000000000000000000000815260040161058f90613abb565b60405180910390fd5b60006105a4858561199d565b9050828160600151146105ec576040517f08c379a00000000000000000000000000000000000000000000000000000000081526004016105e390613b9b565b60405180910390fd5b3373ffffffffffffffffffffffffffffffffffffffff16816020015173ffffffffffffffffffffffffffffffffffffffff16141561065f576040517f08c379a000000000000000000000000000000000000000000000000000000000815260040161065690613adb565b60405180910390fd5b61066a858584611b63565b60008060015411156106f9576106a0620f424061069260015487611c3290919063ffffffff16565b611c4890919063ffffffff16565b90506106f8336106ae610eb4565b83600260009054906101000a900473ffffffffffffffffffffffffffffffffffffffff1673ffffffffffffffffffffffffffffffffffffffff16611c5e909392919063ffffffff16565b5b610762338360200151610719848660600151611ce790919063ffffffff16565b600260009054906101000a900473ffffffffffffffffffffffffffffffffffffffff1673ffffffffffffffffffffffffffffffffffffffff16611c5e909392919063ffffffff16565b6000600460008873ffffffffffffffffffffffffffffffffffffffff1673ffffffffffffffffffffffffffffffffffffffff1681526020019081526020016000206000878152602001908152602001600020604051806080016040529081600082015481526020016001820160009054906101000a900473ffffffffffffffffffffffffffffffffffffffff1673ffffffffffffffffffffffffffffffffffffffff1673ffffffffffffffffffffffffffffffffffffffff1681526020016002820154815260200160038201548152505090506000801b81600001511461085d5761085c8160000151888884602001518560400151611cfd565b5b61086e836000015133898989611e1a565b50505050505050565b61087f610a85565b156108bf576040517f08c379a00000000000000000000000000000000000000000000000000000000081526004016108b690613abb565b60405180910390fd5b6000600460008473ffffffffffffffffffffffffffffffffffffffff1673ffffffffffffffffffffffffffffffffffffffff1681526020019081526020016000206000838152602001908152602001600020604051806080016040529081600082015481526020016001820160009054906101000a900473ffffffffffffffffffffffffffffffffffffffff1673ffffffffffffffffffffffffffffffffffffffff1673ffffffffffffffffffffffffffffffffffffffff1681526020016002820154815260200160038201548152505090503373ffffffffffffffffffffffffffffffffffffffff16816020015173ffffffffffffffffffffffffffffffffffffffff161480610a0257506109d3610eb4565b73ffffffffffffffffffffffffffffffffffffffff163373ffffffffffffffffffffffffffffffffffffffff16145b610a41576040517f08c379a0000000000000000000000000000000000000000000000000000000008152600401610a3890613a1b565b60405180910390fd5b610a5a8160000151848484602001518560400151611cfd565b505050565b600260009054906101000a900473ffffffffffffffffffffffffffffffffffffffff1681565b60008060149054906101000a900460ff16905090565b60015481565b610aa9610a85565b15610ae9576040517f08c379a0000000000000000000000000000000000000000000000000000000008152600401610ae090613abb565b60405180910390fd5b6000600360008473ffffffffffffffffffffffffffffffffffffffff1673ffffffffffffffffffffffffffffffffffffffff16815260200190815260200160002060008381526020019081526020016000206040518060a0016040529081600082015481526020016001820160009054906101000a900473ffffffffffffffffffffffffffffffffffffffff1673ffffffffffffffffffffffffffffffffffffffff1673ffffffffffffffffffffffffffffffffffffffff1681526020016002820160009054906101000a900473ffffffffffffffffffffffffffffffffffffffff1673ffffffffffffffffffffffffffffffffffffffff1673ffffffffffffffffffffffffffffffffffffffff1681526020016003820154815260200160048201548152505090503373ffffffffffffffffffffffffffffffffffffffff16816020015173ffffffffffffffffffffffffffffffffffffffff161480610c825750610c53610eb4565b73ffffffffffffffffffffffffffffffffffffffff163373ffffffffffffffffffffffffffffffffffffffff16145b610cc1576040517f08c379a0000000000000000000000000000000000000000000000000000000008152600401610cb890613adb565b60405180910390fd5b6000600460008573ffffffffffffffffffffffffffffffffffffffff1673ffffffffffffffffffffffffffffffffffffffff1681526020019081526020016000206000848152602001908152602001600020604051806080016040529081600082015481526020016001820160009054906101000a900473ffffffffffffffffffffffffffffffffffffffff1673ffffffffffffffffffffffffffffffffffffffff1673ffffffffffffffffffffffffffffffffffffffff1681526020016002820154815260200160038201548152505090506000801b816000015114610dbc57610dbb8160000151858584602001518560400151611cfd565b5b610dcc8260000151858533611f99565b50505050565b610dda610a85565b15610e1a576040517f08c379a0000000000000000000000000000000000000000000000000000000008152600401610e1190613abb565b60405180910390fd5b610e26848484846120fe565b50505050565b610e34611851565b73ffffffffffffffffffffffffffffffffffffffff16610e52610eb4565b73ffffffffffffffffffffffffffffffffffffffff1614610ea8576040517f08c379a0000000000000000000000000000000000000000000000000000000008152600401610e9f90613b5b565b60405180910390fd5b610eb26000612505565b565b60008060009054906101000a900473ffffffffffffffffffffffffffffffffffffffff16905090565b620186a081565b610eec610a85565b15610f2c576040517f08c379a0000000000000000000000000000000000000000000000000000000008152600401610f2390613abb565b60405180910390fd5b610f37858583611b63565b610f43858585856125c9565b5050505050565b6004602052816000526040600020602052806000526040600020600091509150508060000154908060010160009054906101000a900473ffffffffffffffffffffffffffffffffffffffff16908060020154908060030154905084565b610faf610a85565b15610fef576040517f08c379a0000000000000000000000000000000000000000000000000000000008152600401610fe690613abb565b60405180910390fd5b6000600360008673ffffffffffffffffffffffffffffffffffffffff1673ffffffffffffffffffffffffffffffffffffffff16815260200190815260200160002060008581526020019081526020016000206040518060a0016040529081600082015481526020016001820160009054906101000a900473ffffffffffffffffffffffffffffffffffffffff1673ffffffffffffffffffffffffffffffffffffffff1673ffffffffffffffffffffffffffffffffffffffff1681526020016002820160009054906101000a900473ffffffffffffffffffffffffffffffffffffffff1673ffffffffffffffffffffffffffffffffffffffff1673ffffffffffffffffffffffffffffffffffffffff1681526020016003820154815260200160048201548152505090506000801b81600001511415611162576040517f08c379a000000000000000000000000000000000000000000000000000000000815260040161115990613afb565b60405180910390fd5b3373ffffffffffffffffffffffffffffffffffffffff16816020015173ffffffffffffffffffffffffffffffffffffffff16146111d4576040517f08c379a00000000000000000000000000000000000000000000000000000000081526004016111cb90613b7b565b60405180910390fd5b428160800151101561121b576040517f08c379a00000000000000000000000000000000000000000000000000000000081526004016112129061399b565b60405180910390fd5b6000831161125e576040517f08c379a0000000000000000000000000000000000000000000000000000000008152600401611255906139fb565b60405180910390fd5b611272603c426129b090919063ffffffff16565b82116112b3576040517f08c379a00000000000000000000000000000000000000000000000000000000081526004016112aa906139db565b60405180910390fd5b82816060018181525050818160800181815250507f37de993802f8ab9c75f6d7d3065ba8ab95ce30051219b14251415925e68e0a48816000015184846040516112fe939291906138ec565b60405180910390a15050505050565b6380ac58cd60e01b81565b611320610a85565b15611360576040517f08c379a000000000000000000000000000000000000000000000000000000000815260040161135790613abb565b60405180910390fd5b600061136c848461199d565b90503373ffffffffffffffffffffffffffffffffffffffff16816020015173ffffffffffffffffffffffffffffffffffffffff16146113e0576040517f08c379a00000000000000000000000000000000000000000000000000000000081526004016113d790613adb565b60405180910390fd5b6000600460008673ffffffffffffffffffffffffffffffffffffffff1673ffffffffffffffffffffffffffffffffffffffff1681526020019081526020016000206000858152602001908152602001600020604051806080016040529081600082015481526020016001820160009054906101000a900473ffffffffffffffffffffffffffffffffffffffff1673ffffffffffffffffffffffffffffffffffffffff1673ffffffffffffffffffffffffffffffffffffffff168152602001600282015481526020016003820154815250509050828160400151146114f9576040517f08c379a00000000000000000000000000000000000000000000000000000000081526004016114f090613b1b565b60405180910390fd5b4281606001511015611540576040517f08c379a000000000000000000000000000000000000000000000000000000000815260040161153790613b3b565b60405180910390fd5b600460008673ffffffffffffffffffffffffffffffffffffffff1673ffffffffffffffffffffffffffffffffffffffff16815260200190815260200160002060008581526020019081526020016000206000808201600090556001820160006101000a81549073ffffffffffffffffffffffffffffffffffffffff02191690556002820160009055600382016000905550507ff8c7d5572fa269efc040934ae7553d57f8906bffd616254bef0b94e2b569e41681600001516040516116059190613810565b60405180910390a1600061163d620f424061162f6001548560400151611c3290919063ffffffff16565b611c4890919063ffffffff16565b90506116a6826020015161165e838560400151611ce790919063ffffffff16565b600260009054906101000a900473ffffffffffffffffffffffffffffffffffffffff1673ffffffffffffffffffffffffffffffffffffffff166129c69092919063ffffffff16565b6116bb83600001518360200151888888611e1a565b505050505050565b6003602052816000526040600020602052806000526040600020600091509150508060000154908060010160009054906101000a900473ffffffffffffffffffffffffffffffffffffffff16908060020160009054906101000a900473ffffffffffffffffffffffffffffffffffffffff16908060030154908060040154905085565b61174e611851565b73ffffffffffffffffffffffffffffffffffffffff1661176c610eb4565b73ffffffffffffffffffffffffffffffffffffffff16146117c2576040517f08c379a00000000000000000000000000000000000000000000000000000000081526004016117b990613b5b565b60405180910390fd5b600073ffffffffffffffffffffffffffffffffffffffff168173ffffffffffffffffffffffffffffffffffffffff161415611832576040517f08c379a0000000000000000000000000000000000000000000000000000000008152600401611829906139bb565b60405180910390fd5b61183b81612505565b50565b600080823b905060008111915050919050565b600033905090565b611861610a85565b6118a0576040517f08c379a00000000000000000000000000000000000000000000000000000000081526004016118979061397b565b60405180910390fd5b60008060146101000a81548160ff0219169083151502179055507f5db9ee0a495bf2e6ff9c91a7834c1ba4fdd244a5e8aa4e537bd38aeae4b073aa6118e3611851565b6040516118f0919061377a565b60405180910390a1565b611902610a85565b15611942576040517f08c379a000000000000000000000000000000000000000000000000000000000815260040161193990613abb565b60405180910390fd5b6001600060146101000a81548160ff0219169083151502179055507f62e78cea01bee320cd4e420270b5ea74000d11b0c9f74754ebdbfc544b05a258611986611851565b604051611993919061377a565b60405180910390a1565b6119a5612ddd565b600360008473ffffffffffffffffffffffffffffffffffffffff1673ffffffffffffffffffffffffffffffffffffffff16815260200190815260200160002060008381526020019081526020016000206040518060a0016040529081600082015481526020016001820160009054906101000a900473ffffffffffffffffffffffffffffffffffffffff1673ffffffffffffffffffffffffffffffffffffffff1673ffffffffffffffffffffffffffffffffffffffff1681526020016002820160009054906101000a900473ffffffffffffffffffffffffffffffffffffffff1673ffffffffffffffffffffffffffffffffffffffff1673ffffffffffffffffffffffffffffffffffffffff1681526020016003820154815260200160048201548152505090506000801b81600001511415611b16576040517f08c379a0000000000000000000000000000000000000000000000000000000008152600401611b0d90613afb565b60405180910390fd5b4281608001511015611b5d576040517f08c379a0000000000000000000000000000000000000000000000000000000008152600401611b549061399b565b60405180910390fd5b92915050565b8273ffffffffffffffffffffffffffffffffffffffff16638cb5b56b83836040518363ffffffff1660e01b8152600401611b9e929190613cb6565b60206040518083038186803b158015611bb657600080fd5b505afa158015611bca573d6000803e3d6000fd5b505050506040513d601f19601f82011682018060405250810190611bee91906131df565b611c2d576040517f08c379a0000000000000000000000000000000000000000000000000000000008152600401611c2490613c5b565b60405180910390fd5b505050565b60008183611c409190613dee565b905092915050565b60008183611c569190613dbd565b905092915050565b611ce1846323b872dd60e01b858585604051602401611c7f93929190613795565b604051602081830303815290604052907bffffffffffffffffffffffffffffffffffffffffffffffffffffffff19166020820180517bffffffffffffffffffffffffffffffffffffffffffffffffffffffff8381831617835250505050612a4c565b50505050565b60008183611cf59190613e48565b905092915050565b600460008573ffffffffffffffffffffffffffffffffffffffff1673ffffffffffffffffffffffffffffffffffffffff16815260200190815260200160002060008481526020019081526020016000206000808201600090556001820160006101000a81549073ffffffffffffffffffffffffffffffffffffffff0219169055600282016000905560038201600090555050611ddc8282600260009054906101000a900473ffffffffffffffffffffffffffffffffffffffff1673ffffffffffffffffffffffffffffffffffffffff166129c69092919063ffffffff16565b7fb56dc4096011ba5fd2e46e5c3e7b04dec423b5e7b5fce9a17a419d77c832177c85604051611e0b9190613810565b60405180910390a15050505050565b600360008473ffffffffffffffffffffffffffffffffffffffff1673ffffffffffffffffffffffffffffffffffffffff16815260200190815260200160002060008381526020019081526020016000206000808201600090556001820160006101000a81549073ffffffffffffffffffffffffffffffffffffffff02191690556002820160006101000a81549073ffffffffffffffffffffffffffffffffffffffff02191690556003820160009055600482016000905550508273ffffffffffffffffffffffffffffffffffffffff166342842e0e3086856040518463ffffffff1660e01b8152600401611f1093929190613795565b600060405180830381600087803b158015611f2a57600080fd5b505af1158015611f3e573d6000803e3d6000fd5b505050508373ffffffffffffffffffffffffffffffffffffffff167f012d66d656f295c1a84576b9b7f0a83474ed09578e80f7f1a715fb958e1d54638683604051611f8a9291906138c3565b60405180910390a25050505050565b600360008473ffffffffffffffffffffffffffffffffffffffff1673ffffffffffffffffffffffffffffffffffffffff16815260200190815260200160002060008381526020019081526020016000206000808201600090556001820160006101000a81549073ffffffffffffffffffffffffffffffffffffffff02191690556002820160006101000a81549073ffffffffffffffffffffffffffffffffffffffff02191690556003820160009055600482016000905550508273ffffffffffffffffffffffffffffffffffffffff166342842e0e3083856040518463ffffffff1660e01b815260040161208f93929190613795565b600060405180830381600087803b1580156120a957600080fd5b505af11580156120bd573d6000803e3d6000fd5b505050507f5152abf959f6564662358c2e52b702259b78bac5ee7842a0f01937e670efcc7d846040516120f09190613810565b60405180910390a150505050565b600061210985612b13565b905060008173ffffffffffffffffffffffffffffffffffffffff16636352211e866040518263ffffffff1660e01b81526004016121469190613c9b565b60206040518083038186803b15801561215e57600080fd5b505afa158015612172573d6000803e3d6000fd5b505050506040513d601f19601f820116820180604052508101906121969190612f4a565b90503373ffffffffffffffffffffffffffffffffffffffff168173ffffffffffffffffffffffffffffffffffffffff1614612206576040517f08c379a00000000000000000000000000000000000000000000000000000000081526004016121fd90613a3b565b60405180910390fd5b60008411612249576040517f08c379a0000000000000000000000000000000000000000000000000000000008152600401612240906139fb565b60405180910390fd5b61225d603c426129b090919063ffffffff16565b831161229e576040517f08c379a000000000000000000000000000000000000000000000000000000000815260040161229590613a5b565b60405180910390fd5b8173ffffffffffffffffffffffffffffffffffffffff166342842e0e8230886040518463ffffffff1660e01b81526004016122db93929190613795565b600060405180830381600087803b1580156122f557600080fd5b505af1158015612309573d6000803e3d6000fd5b50505050600042828888886040516020016123289594939291906136bc565b6040516020818303038152906040528051906020012090506040518060a001604052808281526020018373ffffffffffffffffffffffffffffffffffffffff1681526020018873ffffffffffffffffffffffffffffffffffffffff16815260200186815260200185815250600360008973ffffffffffffffffffffffffffffffffffffffff1673ffffffffffffffffffffffffffffffffffffffff16815260200190815260200160002060008881526020019081526020016000206000820151816000015560208201518160010160006101000a81548173ffffffffffffffffffffffffffffffffffffffff021916908373ffffffffffffffffffffffffffffffffffffffff16021790555060408201518160020160006101000a81548173ffffffffffffffffffffffffffffffffffffffff021916908373ffffffffffffffffffffffffffffffffffffffff1602179055506060820151816003015560808201518160040155905050858773ffffffffffffffffffffffffffffffffffffffff168373ffffffffffffffffffffffffffffffffffffffff167f3b8c4041eabe54c6d50899a3a79a85ff44abb0867c400f5a7c8d8a55a8488cd68489896040516124f4939291906138ec565b60405180910390a450505050505050565b60008060009054906101000a900473ffffffffffffffffffffffffffffffffffffffff169050816000806101000a81548173ffffffffffffffffffffffffffffffffffffffff021916908373ffffffffffffffffffffffffffffffffffffffff1602179055508173ffffffffffffffffffffffffffffffffffffffff168173ffffffffffffffffffffffffffffffffffffffff167f8be0079c531659141344cd1fd0a4f28419497f9722a3daafe3b4186f6b6457e060405160405180910390a35050565b60006125d5858561199d565b905080608001518211156125eb57806080015191505b6000600460008773ffffffffffffffffffffffffffffffffffffffff1673ffffffffffffffffffffffffffffffffffffffff1681526020019081526020016000206000868152602001908152602001600020604051806080016040529081600082015481526020016001820160009054906101000a900473ffffffffffffffffffffffffffffffffffffffff1673ffffffffffffffffffffffffffffffffffffffff1673ffffffffffffffffffffffffffffffffffffffff1681526020016002820154815260200160038201548152505090506000801b8160000151146127845742816060015110612722578060400151841161271d576040517f08c379a000000000000000000000000000000000000000000000000000000000815260040161271490613c1b565b60405180910390fd5b612766565b60008411612765576040517f08c379a000000000000000000000000000000000000000000000000000000000815260040161275c90613bfb565b60405180910390fd5b5b61277f8160000151878784602001518560400151611cfd565b6127c8565b600084116127c7576040517f08c379a00000000000000000000000000000000000000000000000000000000081526004016127be90613bfb565b60405180910390fd5b5b612817333086600260009054906101000a900473ffffffffffffffffffffffffffffffffffffffff1673ffffffffffffffffffffffffffffffffffffffff16611c5e909392919063ffffffff16565b600042338460000151878760405160200161283695949392919061371b565b60405160208183030381529060405280519060200120905060405180608001604052808281526020013373ffffffffffffffffffffffffffffffffffffffff16815260200186815260200185815250600460008973ffffffffffffffffffffffffffffffffffffffff1673ffffffffffffffffffffffffffffffffffffffff16815260200190815260200160002060008881526020019081526020016000206000820151816000015560208201518160010160006101000a81548173ffffffffffffffffffffffffffffffffffffffff021916908373ffffffffffffffffffffffffffffffffffffffff16021790555060408201518160020155606082015181600301559050503373ffffffffffffffffffffffffffffffffffffffff16868873ffffffffffffffffffffffffffffffffffffffff167fae7b5aee7763f3e7771076de8f7b61accb70ad42245fee23308e19c8bcd518e484898960405161299f939291906138ec565b60405180910390a450505050505050565b600081836129be9190613d67565b905092915050565b612a478363a9059cbb60e01b84846040516024016129e59291906137cc565b604051602081830303815290604052907bffffffffffffffffffffffffffffffffffffffffffffffffffffffff19166020820180517bffffffffffffffffffffffffffffffffffffffffffffffffffffffff8381831617835250505050612a4c565b505050565b6000612aae826040518060400160405280602081526020017f5361666545524332303a206c6f772d6c6576656c2063616c6c206661696c65648152508573ffffffffffffffffffffffffffffffffffffffff16612c4a9092919063ffffffff16565b9050600081511115612b0e5780806020019051810190612ace91906131df565b612b0d576040517f08c379a0000000000000000000000000000000000000000000000000000000008152600401612b0490613c3b565b60405180910390fd5b5b505050565b6000612b348273ffffffffffffffffffffffffffffffffffffffff1661183e565b612b73576040517f08c379a0000000000000000000000000000000000000000000000000000000008152600401612b6a90613bbb565b60405180910390fd5b8173ffffffffffffffffffffffffffffffffffffffff166301ffc9a76380ac58cd60e01b6040518263ffffffff1660e01b8152600401612bb39190613923565b60206040518083038186803b158015612bcb57600080fd5b505afa158015612bdf573d6000803e3d6000fd5b505050506040513d601f19601f82011682018060405250810190612c0391906131df565b612c42576040517f08c379a0000000000000000000000000000000000000000000000000000000008152600401612c3990613a7b565b60405180910390fd5b819050919050565b6060612c598484600085612c62565b90509392505050565b606082471015612ca7576040517f08c379a0000000000000000000000000000000000000000000000000000000008152600401612c9e90613a9b565b60405180910390fd5b612cb08561183e565b612cef576040517f08c379a0000000000000000000000000000000000000000000000000000000008152600401612ce690613bdb565b60405180910390fd5b6000808673ffffffffffffffffffffffffffffffffffffffff168587604051612d1891906136a5565b60006040518083038185875af1925050503d8060008114612d55576040519150601f19603f3d011682016040523d82523d6000602084013e612d5a565b606091505b5091509150612d6a828286612d76565b92505050949350505050565b60608315612d8657829050612dd6565b600083511115612d995782518084602001fd5b816040517f08c379a0000000000000000000000000000000000000000000000000000000008152600401612dcd9190613959565b60405180910390fd5b9392505050565b6040518060a0016040528060008019168152602001600073ffffffffffffffffffffffffffffffffffffffff168152602001600073ffffffffffffffffffffffffffffffffffffffff16815260200160008152602001600081525090565b6000612e4e612e4984613d04565b613cdf565b905082815260208101848484011115612e6657600080fd5b612e71848285613f1e565b509392505050565b600081359050612e8881614689565b92915050565b600081519050612e9d81614689565b92915050565b600081359050612eb2816146a0565b92915050565b600081519050612ec7816146a0565b92915050565b600081359050612edc816146b7565b92915050565b600082601f830112612ef357600080fd5b8135612f03848260208601612e3b565b91505092915050565b600081359050612f1b816146ce565b92915050565b600060208284031215612f3357600080fd5b6000612f4184828501612e79565b91505092915050565b600060208284031215612f5c57600080fd5b6000612f6a84828501612e8e565b91505092915050565b60008060008060808587031215612f8957600080fd5b6000612f9787828801612e79565b9450506020612fa887828801612e79565b9350506040612fb987828801612f0c565b925050606085013567ffffffffffffffff811115612fd657600080fd5b612fe287828801612ee2565b91505092959194509250565b6000806040838503121561300157600080fd5b600061300f85828601612e79565b925050602061302085828601612f0c565b9150509250929050565b60008060006060848603121561303f57600080fd5b600061304d86828701612e79565b935050602061305e86828701612f0c565b925050604061306f86828701612f0c565b9150509250925092565b6000806000806080858703121561308f57600080fd5b600061309d87828801612e79565b94505060206130ae87828801612f0c565b93505060406130bf87828801612f0c565b92505060606130d087828801612ecd565b91505092959194509250565b600080600080608085870312156130f257600080fd5b600061310087828801612e79565b945050602061311187828801612f0c565b935050604061312287828801612f0c565b925050606061313387828801612f0c565b91505092959194509250565b600080600080600060a0868803121561315757600080fd5b600061316588828901612e79565b955050602061317688828901612f0c565b945050604061318788828901612f0c565b935050606061319888828901612f0c565b92505060806131a988828901612ecd565b9150509295509295909350565b6000602082840312156131c857600080fd5b60006131d684828501612ea3565b91505092915050565b6000602082840312156131f157600080fd5b60006131ff84828501612eb8565b91505092915050565b60006020828403121561321a57600080fd5b600061322884828501612f0c565b91505092915050565b61323a81613e7c565b82525050565b61325161324c82613e7c565b613f91565b82525050565b61326081613e8e565b82525050565b61326f81613e9a565b82525050565b61328661328182613e9a565b613fa3565b82525050565b61329581613ea4565b82525050565b60006132a682613d35565b6132b08185613d4b565b93506132c0818560208601613f2d565b80840191505092915050565b6132d581613efa565b82525050565b60006132e682613d40565b6132f08185613d56565b9350613300818560208601613f2d565b61330981614056565b840191505092915050565b6000613321601483613d56565b915061332c82614074565b602082019050919050565b6000613344601a83613d56565b915061334f8261409d565b602082019050919050565b6000613367602683613d56565b9150613372826140c6565b604082019050919050565b600061338a604383613d56565b915061339582614115565b606082019050919050565b60006133ad602a83613d56565b91506133b88261418a565b604082019050919050565b60006133d0602083613d56565b91506133db826141d9565b602082019050919050565b60006133f3603383613d56565b91506133fe82614202565b604082019050919050565b6000613416604383613d56565b915061342182614251565b606082019050919050565b6000613439603583613d56565b9150613444826142c6565b604082019050919050565b600061345c602683613d56565b915061346782614315565b604082019050919050565b600061347f601083613d56565b915061348a82614364565b602082019050919050565b60006134a2602083613d56565b91506134ad8261438d565b602082019050919050565b60006134c5602083613d56565b91506134d0826143b6565b602082019050919050565b60006134e8601e83613d56565b91506134f3826143df565b602082019050919050565b600061350b601c83613d56565b915061351682614408565b602082019050919050565b600061352e602083613d56565b915061353982614431565b602082019050919050565b6000613551601f83613d56565b915061355c8261445a565b602082019050919050565b6000613574601a83613d56565b915061357f82614483565b602082019050919050565b6000613597602483613d56565b91506135a2826144ac565b604082019050919050565b60006135ba601d83613d56565b91506135c5826144fb565b602082019050919050565b60006135dd601e83613d56565b91506135e882614524565b602082019050919050565b6000613600603583613d56565b915061360b8261454d565b604082019050919050565b6000613623602a83613d56565b915061362e8261459c565b604082019050919050565b6000613646602b83613d56565b9150613651826145eb565b604082019050919050565b6000613669603683613d56565b91506136748261463a565b604082019050919050565b61368881613ef0565b82525050565b61369f61369a82613ef0565b613fbf565b82525050565b60006136b1828461329b565b915081905092915050565b60006136c8828861368e565b6020820191506136d88287613240565b6014820191506136e88286613240565b6014820191506136f8828561368e565b602082019150613708828461368e565b6020820191508190509695505050505050565b6000613727828861368e565b6020820191506137378287613240565b6014820191506137478286613275565b602082019150613757828561368e565b602082019150613767828461368e565b6020820191508190509695505050505050565b600060208201905061378f6000830184613231565b92915050565b60006060820190506137aa6000830186613231565b6137b76020830185613231565b6137c4604083018461367f565b949350505050565b60006040820190506137e16000830185613231565b6137ee602083018461367f565b9392505050565b600060208201905061380a6000830184613257565b92915050565b60006020820190506138256000830184613266565b92915050565b600060a0820190506138406000830188613266565b61384d6020830187613231565b61385a6040830186613231565b613867606083018561367f565b613874608083018461367f565b9695505050505050565b60006080820190506138936000830187613266565b6138a06020830186613231565b6138ad604083018561367f565b6138ba606083018461367f565b95945050505050565b60006040820190506138d86000830185613266565b6138e5602083018461367f565b9392505050565b60006060820190506139016000830186613266565b61390e602083018561367f565b61391b604083018461367f565b949350505050565b6000602082019050613938600083018461328c565b92915050565b600060208201905061395360008301846132cc565b92915050565b6000602082019050818103600083015261397381846132db565b905092915050565b6000602082019050818103600083015261399481613314565b9050919050565b600060208201905081810360008301526139b481613337565b9050919050565b600060208201905081810360008301526139d48161335a565b9050919050565b600060208201905081810360008301526139f48161337d565b9050919050565b60006020820190508181036000830152613a14816133a0565b9050919050565b60006020820190508181036000830152613a34816133c3565b9050919050565b60006020820190508181036000830152613a54816133e6565b9050919050565b60006020820190508181036000830152613a7481613409565b9050919050565b60006020820190508181036000830152613a948161342c565b9050919050565b60006020820190508181036000830152613ab48161344f565b9050919050565b60006020820190508181036000830152613ad481613472565b9050919050565b60006020820190508181036000830152613af481613495565b9050919050565b60006020820190508181036000830152613b14816134b8565b9050919050565b60006020820190508181036000830152613b34816134db565b9050919050565b60006020820190508181036000830152613b54816134fe565b9050919050565b60006020820190508181036000830152613b7481613521565b9050919050565b60006020820190508181036000830152613b9481613544565b9050919050565b60006020820190508181036000830152613bb481613567565b9050919050565b60006020820190508181036000830152613bd48161358a565b9050919050565b60006020820190508181036000830152613bf4816135ad565b9050919050565b60006020820190508181036000830152613c14816135d0565b9050919050565b60006020820190508181036000830152613c34816135f3565b9050919050565b60006020820190508181036000830152613c5481613616565b9050919050565b60006020820190508181036000830152613c7481613639565b9050919050565b60006020820190508181036000830152613c948161365c565b9050919050565b6000602082019050613cb0600083018461367f565b92915050565b6000604082019050613ccb600083018561367f565b613cd86020830184613266565b9392505050565b6000613ce9613cfa565b9050613cf58282613f60565b919050565b6000604051905090565b600067ffffffffffffffff821115613d1f57613d1e614027565b5b613d2882614056565b9050602081019050919050565b600081519050919050565b600081519050919050565b600081905092915050565b600082825260208201905092915050565b6000613d7282613ef0565b9150613d7d83613ef0565b9250827fffffffffffffffffffffffffffffffffffffffffffffffffffffffffffffffff03821115613db257613db1613fc9565b5b828201905092915050565b6000613dc882613ef0565b9150613dd383613ef0565b925082613de357613de2613ff8565b5b828204905092915050565b6000613df982613ef0565b9150613e0483613ef0565b9250817fffffffffffffffffffffffffffffffffffffffffffffffffffffffffffffffff0483118215151615613e3d57613e3c613fc9565b5b828202905092915050565b6000613e5382613ef0565b9150613e5e83613ef0565b925082821015613e7157613e70613fc9565b5b828203905092915050565b6000613e8782613ed0565b9050919050565b60008115159050919050565b6000819050919050565b60007fffffffff0000000000000000000000000000000000000000000000000000000082169050919050565b600073ffffffffffffffffffffffffffffffffffffffff82169050919050565b6000819050919050565b6000613f0582613f0c565b9050919050565b6000613f1782613ed0565b9050919050565b82818337600083830152505050565b60005b83811015613f4b578082015181840152602081019050613f30565b83811115613f5a576000848401525b50505050565b613f6982614056565b810181811067ffffffffffffffff82111715613f8857613f87614027565b5b80604052505050565b6000613f9c82613fad565b9050919050565b6000819050919050565b6000613fb882614067565b9050919050565b6000819050919050565b7f4e487b7100000000000000000000000000000000000000000000000000000000600052601160045260246000fd5b7f4e487b7100000000000000000000000000000000000000000000000000000000600052601260045260246000fd5b7f4e487b7100000000000000000000000000000000000000000000000000000000600052604160045260246000fd5b6000601f19601f8301169050919050565b60008160601b9050919050565b7f5061757361626c653a206e6f7420706175736564000000000000000000000000600082015250565b7f4d61726b6574706c6163653a206f726465722065787069726564000000000000600082015250565b7f4f776e61626c653a206e6577206f776e657220697320746865207a65726f206160008201527f6464726573730000000000000000000000000000000000000000000000000000602082015250565b7f4d61726b6574706c6163653a204578706972652074696d652073686f756c642060008201527f6265206d6f7265207468616e2031206d696e75746520696e207468652066757460208201527f7572650000000000000000000000000000000000000000000000000000000000604082015250565b7f4d61726b6574706c6163653a2050726963652073686f756c642062652062696760008201527f676572207468616e203000000000000000000000000000000000000000000000602082015250565b7f4d61726b6574706c6163653a20556e617574686f72697a65642073656e646572600082015250565b7f4d61726b6574706c6163653a204f6e6c7920746865206173736574206f776e6560008201527f722063616e20637265617465206f726465727300000000000000000000000000602082015250565b7f4d61726b6574706c6163653a205075626c69636174696f6e2073686f756c642060008201527f6265206d6f7265207468616e2031206d696e75746520696e207468652066757460208201527f7572650000000000000000000000000000000000000000000000000000000000604082015250565b7f546865204e465420636f6e74726163742068617320616e20696e76616c69642060008201527f45524337323120696d706c656d656e746174696f6e0000000000000000000000602082015250565b7f416464726573733a20696e73756666696369656e742062616c616e636520666f60008201527f722063616c6c0000000000000000000000000000000000000000000000000000602082015250565b7f5061757361626c653a2070617573656400000000000000000000000000000000600082015250565b7f4d61726b6574706c6163653a20756e617574686f72697a65642073656e646572600082015250565b7f4d61726b6574706c6163653a206173736574206e6f74207075626c6973686564600082015250565b7f4d61726b6574706c6163653a20696e76616c6964206269642070726963650000600082015250565b7f4d61726b6574706c6163653a2074686520626964206578706972656400000000600082015250565b7f4f776e61626c653a2063616c6c6572206973206e6f7420746865206f776e6572600082015250565b7f4d61726b6574706c6163653a2073656e646572206e6f7420616c6c6f77656400600082015250565b7f4d61726b6574706c6163653a20696e76616c6964207072696365000000000000600082015250565b7f546865204e465420416464726573732073686f756c64206265206120636f6e7460008201527f7261637400000000000000000000000000000000000000000000000000000000602082015250565b7f416464726573733a2063616c6c20746f206e6f6e2d636f6e7472616374000000600082015250565b7f4d61726b6574706c6163653a206269642073686f756c64206265203e20300000600082015250565b7f4d61726b6574706c6163653a206269642070726963652073686f756c6420626560008201527f20686967686572207468616e206c617374206269640000000000000000000000602082015250565b7f5361666545524332303a204552433230206f7065726174696f6e20646964206e60008201527f6f74207375636365656400000000000000000000000000000000000000000000602082015250565b7f4d61726b6574706c6163653a2061737365742066696e6765727072696e74206960008201527f73206e6f742076616c6964000000000000000000000000000000000000000000602082015250565b7f546865206f776e6572206375742073686f756c64206265206265747765656e2060008201527f3020616e64206d61784375745065724d696c6c696f6e00000000000000000000602082015250565b61469281613e7c565b811461469d57600080fd5b50565b6146a981613e8e565b81146146b457600080fd5b50565b6146c081613e9a565b81146146cb57600080fd5b50565b6146d781613ef0565b81146146e257600080fd5b5056fea264697066735822122099b34727b7a7372a65150c12a5491fb315bd98b8c7f8d079420f823cf14403e064736f6c63430008040033",
  "immutableReferences": {},
  "source": "// SPDX-License-Identifier: MIT\npragma solidity ^0.8.0;\n\nimport \"@openzeppelin/contracts/access/Ownable.sol\";\nimport \"@openzeppelin/contracts/utils/math/SafeMath.sol\";\n\nimport \"@openzeppelin/contracts/utils/Address.sol\";\nimport \"@openzeppelin/contracts/security/Pausable.sol\";\n\nimport \"@openzeppelin/contracts/token/ERC721/utils/ERC721Holder.sol\";\nimport \"@openzeppelin/contracts/token/ERC20/utils/SafeERC20.sol\";\n\nimport \"./interfaces/IERC721Verifiable.sol\";\nimport \"./interfaces/ITrustMarketplace.sol\";\nimport \"./FeeManager.sol\";\n\n\ncontract TrustMarketplace is Ownable, Pausable, FeeManager, ITrustMarketplace, ERC721Holder {\n\n    using Address for address;\n    using SafeMath for uint256;\n    using SafeERC20 for IERC20;\n\n    IERC20 public acceptedToken;\n\n    // From ERC721 registry assetId to Order (to avoid asset collision)\n    mapping(address => mapping(uint256 => Order)) public orderByAssetId;\n\n    // From ERC721 registry assetId to Bid (to avoid asset collision)\n    mapping(address => mapping(uint256 => Bid)) public bidByOrderId;\n\n    // 721 Interfaces\n    bytes4 public constant _INTERFACE_ID_ERC721 = 0x80ac58cd;\n\n    /**\n     * @dev Initialize this contract. Acts as a constructor\n     * @param _acceptedToken - currency for payments\n     */\n    constructor(address _acceptedToken) Ownable() {\n        require(\n            _acceptedToken.isContract(),\n            \"The accepted token address must be a deployed contract\"\n        );\n        acceptedToken = IERC20(_acceptedToken);\n    }\n\n    /**\n     * @dev Sets the paused failsafe. Can only be called by owner\n     * @param _setPaused - paused state\n     */\n    function setPaused(bool _setPaused) public onlyOwner {\n        return (_setPaused) ? _pause() : _unpause();\n    }\n\n    /**\n     * @dev Creates a new order\n     * @param _nftAddress - Non fungible registry address\n     * @param _assetId - ID of the published NFT\n     * @param _priceInWei - Price in Wei for the supported coin\n     * @param _expiresAt - Duration of the order (in hours)\n     */\n    function createOrder(\n        address _nftAddress,\n        uint256 _assetId,\n        uint256 _priceInWei,\n        uint256 _expiresAt\n    )\n        public whenNotPaused\n    {\n        _createOrder(_nftAddress, _assetId, _priceInWei, _expiresAt);\n    }\n\n\n    /**\n     * @dev Cancel an already published order\n     *  can only be canceled by seller or the contract owner\n     * @param _nftAddress - Address of the NFT registry\n     * @param _assetId - ID of the published NFT\n     */\n    function cancelOrder(\n        address _nftAddress,\n        uint256 _assetId\n    )\n        public whenNotPaused\n    {\n        Order memory order = orderByAssetId[_nftAddress][_assetId];\n\n        require(\n            order.seller == msg.sender || msg.sender == owner(),\n            \"Marketplace: unauthorized sender\"\n        );\n\n        // Remove pending bid if any\n        Bid memory bid = bidByOrderId[_nftAddress][_assetId];\n\n        if (bid.id != 0) {\n            _cancelBid(\n                bid.id,\n                _nftAddress,\n                _assetId,\n                bid.bidder,\n                bid.price\n            );\n        }\n\n        // Cancel order.\n        _cancelOrder(\n            order.id,\n            _nftAddress,\n            _assetId,\n            msg.sender\n        );\n    }\n\n\n    /**\n     * @dev Update an already published order\n     *  can only be updated by seller\n     * @param _nftAddress - Address of the NFT registry\n     * @param _assetId - ID of the published NFT\n     */\n    function updateOrder(\n        address _nftAddress,\n        uint256 _assetId,\n        uint256 _priceInWei,\n        uint256 _expiresAt\n    )\n        public whenNotPaused\n    {\n        Order memory order = orderByAssetId[_nftAddress][_assetId];\n\n        // Check valid order to update\n        require(order.id != 0, \"Marketplace: asset not published\");\n        require(order.seller == msg.sender, \"Marketplace: sender not allowed\");\n        require(order.expiresAt >= block.timestamp, \"Marketplace: order expired\");\n\n        // check order updated params\n        require(_priceInWei > 0, \"Marketplace: Price should be bigger than 0\");\n        require(\n            _expiresAt > block.timestamp.add(1 minutes),\n            \"Marketplace: Expire time should be more than 1 minute in the future\"\n        );\n\n        order.price = _priceInWei;\n        order.expiresAt = _expiresAt;\n\n        emit OrderUpdated(order.id, _priceInWei, _expiresAt);\n    }\n\n\n    /**\n     * @dev Executes the sale for a published NFT and checks for the asset fingerprint\n     * @param _nftAddress - Address of the NFT registry\n     * @param _assetId - ID of the published NFT\n     * @param _priceInWei - Order price\n     * @param _fingerprint - Verification info for the asset\n     */\n    function safeExecuteOrder(\n        address _nftAddress,\n        uint256 _assetId,\n        uint256 _priceInWei,\n        bytes32 _fingerprint\n    )\n        public whenNotPaused\n    {\n        // Get the current valid order for the asset or fail\n        Order memory order = _getValidOrder(\n            _nftAddress,\n            _assetId\n        );\n\n        /// Check the execution price matches the order price\n        require(order.price == _priceInWei, \"Marketplace: invalid price\");\n        require(order.seller != msg.sender, \"Marketplace: unauthorized sender\");\n\n        // Check the asset fingerprint\n        _verifyAssetFingerprint(\n            IERC721Verifiable(_nftAddress),\n            _assetId,\n            _fingerprint\n        );\n\n        // market fee to cut\n        uint256 saleShareAmount = 0;\n\n        // Send market fees to owner\n        if (FeeManager.cutPerMillion > 0) {\n            // Calculate sale share\n            saleShareAmount = _priceInWei\n                .mul(FeeManager.cutPerMillion)\n                .div(1e6);\n\n            // Transfer share amount for marketplace Owner\n            acceptedToken.safeTransferFrom(\n                msg.sender, //buyer\n                owner(),\n                saleShareAmount\n            );\n        }\n\n        // Transfer accepted token amount minus market fee to seller\n        acceptedToken.safeTransferFrom(\n            msg.sender, // buyer\n            order.seller, // seller\n            order.price.sub(saleShareAmount)\n        );\n\n        // Remove pending bid if any\n        Bid memory bid = bidByOrderId[_nftAddress][_assetId];\n\n        if (bid.id != 0) {\n            _cancelBid(\n                bid.id,\n                _nftAddress,\n                _assetId,\n                bid.bidder,\n                bid.price\n            );\n        }\n\n        _executeOrder(\n            order.id,\n            msg.sender, // buyer\n            _nftAddress,\n            _assetId,\n            _priceInWei\n        );\n    }\n\n\n    /**\n     * @dev Places a bid for a published NFT and checks for the asset fingerprint\n     * @param _nftAddress - Address of the NFT registry\n     * @param _assetId - ID of the published NFT\n     * @param _priceInWei - Bid price in acceptedToken currency\n     * @param _expiresAt - Bid expiration time\n     * @param _fingerprint - Verification info for the asset\n     */\n    function safePlaceBid(\n        address _nftAddress,\n        uint256 _assetId,\n        uint256 _priceInWei,\n        uint256 _expiresAt,\n        bytes32 _fingerprint\n    )\n        public whenNotPaused\n    {\n        _verifyAssetFingerprint(\n            IERC721Verifiable(_nftAddress),\n            _assetId,\n            _fingerprint\n        );\n\n        _createBid(\n            _nftAddress,\n            _assetId,\n            _priceInWei,\n            _expiresAt\n        );\n    }\n\n\n    /**\n     * @dev Cancel an already published bid\n     *  can only be canceled by seller or the contract owner\n     * @param _nftAddress - Address of the NFT registry\n     * @param _assetId - ID of the published NFT\n     */\n    function cancelBid(\n        address _nftAddress,\n        uint256 _assetId\n    )\n        public whenNotPaused\n    {\n        Bid memory bid = bidByOrderId[_nftAddress][_assetId];\n\n        require(\n            bid.bidder == msg.sender || msg.sender == owner(),\n            \"Marketplace: Unauthorized sender\"\n        );\n\n        _cancelBid(\n            bid.id,\n            _nftAddress,\n            _assetId,\n            bid.bidder,\n            bid.price\n        );\n    }\n\n\n    /**\n     * @dev Executes the sale for a published NFT by accepting a current bid\n     * @param _nftAddress - Address of the NFT registry\n     * @param _assetId - ID of the published NFT\n     * @param _priceInWei - Bid price in wei in acceptedTokens currency\n     */\n    function acceptBid(\n        address _nftAddress,\n        uint256 _assetId,\n        uint256 _priceInWei\n    )\n        public whenNotPaused\n    {\n        // check order validity\n        Order memory order = _getValidOrder(_nftAddress, _assetId);\n\n        // item seller is the only allowed to accept a bid\n        require(order.seller == msg.sender, \"Marketplace: unauthorized sender\");\n\n        Bid memory bid = bidByOrderId[_nftAddress][_assetId];\n\n        require(bid.price == _priceInWei, \"Marketplace: invalid bid price\");\n        require(bid.expiresAt >= block.timestamp, \"Marketplace: the bid expired\");\n\n        // remove bid\n        delete bidByOrderId[_nftAddress][_assetId];\n\n        emit BidAccepted(bid.id);\n\n        // calc market fees\n        uint256 saleShareAmount = bid.price\n            .mul(FeeManager.cutPerMillion)\n            .div(1e6);\n\n        // transfer escrowed bid amount minus market fee to seller\n        acceptedToken.safeTransfer(\n            bid.bidder,\n            bid.price.sub(saleShareAmount)\n        );\n\n        _executeOrder(\n            order.id,\n            bid.bidder,\n            _nftAddress,\n            _assetId,\n            _priceInWei\n        );\n    }\n\n\n    /**\n     * @dev Internal function gets Order by nftRegistry and assetId. Checks for the order validity\n     * @param _nftAddress - Address of the NFT registry\n     * @param _assetId - ID of the published NFT\n     */\n    function _getValidOrder(\n        address _nftAddress,\n        uint256 _assetId\n    )\n        internal view returns (Order memory order)\n    {\n        order = orderByAssetId[_nftAddress][_assetId];\n\n        require(order.id != 0, \"Marketplace: asset not published\");\n        require(order.expiresAt >= block.timestamp, \"Marketplace: order expired\");\n    }\n\n\n    /**\n     * @dev Executes the sale for a published NFT\n     * @param _orderId - Order Id to execute\n     * @param _buyer - address\n     * @param _nftAddress - Address of the NFT registry\n     * @param _assetId - NFT id\n     * @param _priceInWei - Order price\n     */\n    function _executeOrder(\n        bytes32 _orderId,\n        address _buyer,\n        address _nftAddress,\n        uint256 _assetId,\n        uint256 _priceInWei\n    )\n        internal\n    {\n        // remove order\n        delete orderByAssetId[_nftAddress][_assetId];\n\n        // Transfer NFT asset\n        IERC721(_nftAddress).safeTransferFrom(\n            address(this),\n            _buyer,\n            _assetId\n        );\n\n        // Notify ..\n        emit OrderSuccessful(\n            _orderId,\n            _buyer,\n            _priceInWei\n        );\n    }\n\n\n    /**\n     * @dev Creates a new order\n     * @param _nftAddress - Non fungible registry address\n     * @param _assetId - ID of the published NFT\n     * @param _priceInWei - Price in Wei for the supported coin\n     * @param _expiresAt - Expiration time for the order\n     */\n    function _createOrder(\n        address _nftAddress,\n        uint256 _assetId,\n        uint256 _priceInWei,\n        uint256 _expiresAt\n    )\n        internal\n    {\n        // Check nft registry\n        IERC721 nftRegistry = _requireERC721(_nftAddress);\n\n        // Check order creator is the asset owner\n        address assetOwner = nftRegistry.ownerOf(_assetId);\n\n        require(\n            assetOwner == msg.sender,\n            \"Marketplace: Only the asset owner can create orders\"\n        );\n\n        require(_priceInWei > 0, \"Marketplace: Price should be bigger than 0\");\n\n        require(\n            _expiresAt > block.timestamp.add(1 minutes),\n            \"Marketplace: Publication should be more than 1 minute in the future\"\n        );\n\n        // get NFT asset from seller\n        nftRegistry.safeTransferFrom(\n            assetOwner,\n            address(this),\n            _assetId\n        );\n\n        // create the orderId\n        bytes32 orderId = keccak256(\n            abi.encodePacked(\n                block.timestamp,\n                assetOwner,\n                _nftAddress,\n                _assetId,\n                _priceInWei\n            )\n        );\n\n        // save order\n        orderByAssetId[_nftAddress][_assetId] = Order({\n            id: orderId,\n            seller: assetOwner,\n            nftAddress: _nftAddress,\n            price: _priceInWei,\n            expiresAt: _expiresAt\n        });\n\n        emit OrderCreated(\n            orderId,\n            assetOwner,\n            _nftAddress,\n            _assetId,\n            _priceInWei,\n            _expiresAt\n        );\n    }\n\n\n    /**\n     * @dev Creates a new bid on a existing order\n     * @param _nftAddress - Non fungible registry address\n     * @param _assetId - ID of the published NFT\n     * @param _priceInWei - Price in Wei for the supported coin\n     * @param _expiresAt - expires time\n     */\n    function _createBid(\n        address _nftAddress,\n        uint256 _assetId,\n        uint256 _priceInWei,\n        uint256 _expiresAt\n    )\n        internal\n    {\n        // Checks order validity\n        Order memory order = _getValidOrder(_nftAddress, _assetId);\n\n        // check on expire time\n        if (_expiresAt > order.expiresAt) {\n            _expiresAt = order.expiresAt;\n        }\n\n        // Check price if theres previous a bid\n        Bid memory bid = bidByOrderId[_nftAddress][_assetId];\n\n        // if theres no previous bid, just check price > 0\n        if (bid.id != 0) {\n            if (bid.expiresAt >= block.timestamp) {\n                require(\n                    _priceInWei > bid.price,\n                    \"Marketplace: bid price should be higher than last bid\"\n                );\n\n            } else {\n                require(_priceInWei > 0, \"Marketplace: bid should be > 0\");\n            }\n\n            _cancelBid(\n                bid.id,\n                _nftAddress,\n                _assetId,\n                bid.bidder,\n                bid.price\n            );\n\n        } else {\n            require(_priceInWei > 0, \"Marketplace: bid should be > 0\");\n        }\n\n        // Transfer sale amount from bidder to escrow\n        acceptedToken.safeTransferFrom(\n            msg.sender, // bidder\n            address(this),\n            _priceInWei\n        );\n\n        // Create bid\n        bytes32 bidId = keccak256(\n            abi.encodePacked(\n                block.timestamp,\n                msg.sender,\n                order.id,\n                _priceInWei,\n                _expiresAt\n            )\n        );\n\n        // Save Bid for this order\n        bidByOrderId[_nftAddress][_assetId] = Bid({\n            id: bidId,\n            bidder: msg.sender,\n            price: _priceInWei,\n            expiresAt: _expiresAt\n        });\n\n        emit BidCreated(\n            bidId,\n            _nftAddress,\n            _assetId,\n            msg.sender, // bidder\n            _priceInWei,\n            _expiresAt\n        );\n    }\n\n\n    /**\n     * @dev Cancel an already published order\n     *  can only be canceled by seller or the contract owner\n     * @param _orderId - Bid identifier\n     * @param _nftAddress - Address of the NFT registry\n     * @param _assetId - ID of the published NFT\n     * @param _seller - Address\n     */\n    function _cancelOrder(\n        bytes32 _orderId,\n        address _nftAddress,\n        uint256 _assetId,\n        address _seller\n    )\n        internal\n    {\n        delete orderByAssetId[_nftAddress][_assetId];\n\n        /// send asset back to seller\n        IERC721(_nftAddress).safeTransferFrom(\n            address(this),\n            _seller,\n            _assetId\n        );\n\n        emit OrderCancelled(_orderId);\n    }\n\n\n    /**\n     * @dev Cancel bid from an already published order\n     *  can only be canceled by seller or the contract owner\n     * @param _bidId - Bid identifier\n     * @param _nftAddress - registry address\n     * @param _assetId - ID of the published NFT\n     * @param _bidder - Address\n     * @param _escrowAmount - in acceptenToken currency\n     */\n    function _cancelBid(\n        bytes32 _bidId,\n        address _nftAddress,\n        uint256 _assetId,\n        address _bidder,\n        uint256 _escrowAmount\n    )\n        internal\n    {\n        delete bidByOrderId[_nftAddress][_assetId];\n\n        // return escrow to canceled bidder\n        acceptedToken.safeTransfer(\n            _bidder,\n            _escrowAmount\n        );\n\n        emit BidCancelled(_bidId);\n    }\n\n\n    function _requireERC721(address _nftAddress) internal view returns (IERC721) {\n        require(\n            _nftAddress.isContract(),\n            \"The NFT Address should be a contract\"\n        );\n        require(\n            IERC721(_nftAddress).supportsInterface(_INTERFACE_ID_ERC721),\n            \"The NFT contract has an invalid ERC721 implementation\"\n        );\n        return IERC721(_nftAddress);\n    }\n\n\n    function _verifyAssetFingerprint(\n        IERC721Verifiable _nftRegistry,\n        uint256 _assetId,\n        bytes32 _fingerprint\n    )\n        internal view\n    {\n        require(\n            _nftRegistry.verifyFingerprint(_assetId, _fingerprint),\n            \"Marketplace: asset fingerprint is not valid\"\n        );\n    }\n}",
  "sourcePath": "/Users/tuminfei/Code/Nodejs/uniarts-eth-dao/contracts/core/TrustMarketplace.sol",
  "compiler": {
    "name": "solc",
    "version": "0.8.4+commit.c7e474f2.Emscripten.clang"
  },
  "schemaVersion": "3.3.0",
  "updatedAt": "2021-08-24T02:40:35.124Z",
  "networkType": "ethereum",
  "devdoc": {
    "kind": "dev",
    "methods": {
      "acceptBid(address,uint256,uint256)": {
        "details": "Executes the sale for a published NFT by accepting a current bid",
        "params": {
          "_assetId": "- ID of the published NFT",
          "_nftAddress": "- Address of the NFT registry",
          "_priceInWei": "- Bid price in wei in acceptedTokens currency"
        }
      },
      "cancelBid(address,uint256)": {
        "details": "Cancel an already published bid  can only be canceled by seller or the contract owner",
        "params": {
          "_assetId": "- ID of the published NFT",
          "_nftAddress": "- Address of the NFT registry"
        }
      },
      "cancelOrder(address,uint256)": {
        "details": "Cancel an already published order  can only be canceled by seller or the contract owner",
        "params": {
          "_assetId": "- ID of the published NFT",
          "_nftAddress": "- Address of the NFT registry"
        }
      },
      "constructor": {
        "details": "Initialize this contract. Acts as a constructor",
        "params": {
          "_acceptedToken": "- currency for payments"
        }
      },
      "createOrder(address,uint256,uint256,uint256)": {
        "details": "Creates a new order",
        "params": {
          "_assetId": "- ID of the published NFT",
          "_expiresAt": "- Duration of the order (in hours)",
          "_nftAddress": "- Non fungible registry address",
          "_priceInWei": "- Price in Wei for the supported coin"
        }
      },
      "onERC721Received(address,address,uint256,bytes)": {
        "details": "See {IERC721Receiver-onERC721Received}. Always returns `IERC721Receiver.onERC721Received.selector`."
      },
      "owner()": {
        "details": "Returns the address of the current owner."
      },
      "paused()": {
        "details": "Returns true if the contract is paused, and false otherwise."
      },
      "renounceOwnership()": {
        "details": "Leaves the contract without owner. It will not be possible to call `onlyOwner` functions anymore. Can only be called by the current owner. NOTE: Renouncing ownership will leave the contract without an owner, thereby removing any functionality that is only available to the owner."
      },
      "safeExecuteOrder(address,uint256,uint256,bytes32)": {
        "details": "Executes the sale for a published NFT and checks for the asset fingerprint",
        "params": {
          "_assetId": "- ID of the published NFT",
          "_fingerprint": "- Verification info for the asset",
          "_nftAddress": "- Address of the NFT registry",
          "_priceInWei": "- Order price"
        }
      },
      "safePlaceBid(address,uint256,uint256,uint256,bytes32)": {
        "details": "Places a bid for a published NFT and checks for the asset fingerprint",
        "params": {
          "_assetId": "- ID of the published NFT",
          "_expiresAt": "- Bid expiration time",
          "_fingerprint": "- Verification info for the asset",
          "_nftAddress": "- Address of the NFT registry",
          "_priceInWei": "- Bid price in acceptedToken currency"
        }
      },
      "setOwnerCutPerMillion(uint256)": {
        "details": "Sets the share cut for the owner of the contract that's  charged to the seller on a successful sale",
        "params": {
          "_cutPerMillion": "- Share amount, from 0 to 99,999"
        }
      },
      "setPaused(bool)": {
        "details": "Sets the paused failsafe. Can only be called by owner",
        "params": {
          "_setPaused": "- paused state"
        }
      },
      "transferOwnership(address)": {
        "details": "Transfers ownership of the contract to a new account (`newOwner`). Can only be called by the current owner."
      },
      "updateOrder(address,uint256,uint256,uint256)": {
        "details": "Update an already published order  can only be updated by seller",
        "params": {
          "_assetId": "- ID of the published NFT",
          "_nftAddress": "- Address of the NFT registry"
        }
      }
    },
    "version": 1
  },
  "userdoc": {
    "kind": "user",
    "methods": {},
    "version": 1
  }
}