{
  "contractName": "TrustMarketplace",
  "abi": [
    {
      "inputs": [
        {
          "internalType": "address",
          "name": "_acceptedToken",
          "type": "address"
        }
      ],
      "stateMutability": "nonpayable",
      "type": "constructor"
    },
    {
      "anonymous": false,
      "inputs": [
        {
          "indexed": false,
          "internalType": "bytes32",
          "name": "id",
          "type": "bytes32"
        }
      ],
      "name": "BidAccepted",
      "type": "event"
    },
    {
      "anonymous": false,
      "inputs": [
        {
          "indexed": false,
          "internalType": "bytes32",
          "name": "id",
          "type": "bytes32"
        }
      ],
      "name": "BidCancelled",
      "type": "event"
    },
    {
      "anonymous": false,
      "inputs": [
        {
          "indexed": false,
          "internalType": "bytes32",
          "name": "id",
          "type": "bytes32"
        },
        {
          "indexed": true,
          "internalType": "address",
          "name": "nftAddress",
          "type": "address"
        },
        {
          "indexed": true,
          "internalType": "uint256",
          "name": "assetId",
          "type": "uint256"
        },
        {
          "indexed": true,
          "internalType": "address",
          "name": "bidder",
          "type": "address"
        },
        {
          "indexed": false,
          "internalType": "uint256",
          "name": "priceInWei",
          "type": "uint256"
        },
        {
          "indexed": false,
          "internalType": "uint256",
          "name": "expiresAt",
          "type": "uint256"
        }
      ],
      "name": "BidCreated",
      "type": "event"
    },
    {
      "anonymous": false,
      "inputs": [
        {
          "indexed": false,
          "internalType": "uint256",
          "name": "cutPerMillion",
          "type": "uint256"
        }
      ],
      "name": "ChangedFeePerMillion",
      "type": "event"
    },
    {
      "anonymous": false,
      "inputs": [
        {
          "indexed": false,
          "internalType": "bytes32",
          "name": "id",
          "type": "bytes32"
        }
      ],
      "name": "OrderCancelled",
      "type": "event"
    },
    {
      "anonymous": false,
      "inputs": [
        {
          "indexed": false,
          "internalType": "bytes32",
          "name": "id",
          "type": "bytes32"
        },
        {
          "indexed": true,
          "internalType": "address",
          "name": "seller",
          "type": "address"
        },
        {
          "indexed": true,
          "internalType": "address",
          "name": "nftAddress",
          "type": "address"
        },
        {
          "indexed": true,
          "internalType": "uint256",
          "name": "assetId",
          "type": "uint256"
        },
        {
          "indexed": false,
          "internalType": "uint256",
          "name": "priceInWei",
          "type": "uint256"
        },
        {
          "indexed": false,
          "internalType": "uint256",
          "name": "expiresAt",
          "type": "uint256"
        }
      ],
      "name": "OrderCreated",
      "type": "event"
    },
    {
      "anonymous": false,
      "inputs": [
        {
          "indexed": false,
          "internalType": "bytes32",
          "name": "id",
          "type": "bytes32"
        },
        {
          "indexed": true,
          "internalType": "address",
          "name": "buyer",
          "type": "address"
        },
        {
          "indexed": false,
          "internalType": "uint256",
          "name": "priceInWei",
          "type": "uint256"
        }
      ],
      "name": "OrderSuccessful",
      "type": "event"
    },
    {
      "anonymous": false,
      "inputs": [
        {
          "indexed": false,
          "internalType": "bytes32",
          "name": "id",
          "type": "bytes32"
        },
        {
          "indexed": false,
          "internalType": "uint256",
          "name": "priceInWei",
          "type": "uint256"
        },
        {
          "indexed": false,
          "internalType": "uint256",
          "name": "expiresAt",
          "type": "uint256"
        }
      ],
      "name": "OrderUpdated",
      "type": "event"
    },
    {
      "anonymous": false,
      "inputs": [
        {
          "indexed": true,
          "internalType": "address",
          "name": "previousOwner",
          "type": "address"
        },
        {
          "indexed": true,
          "internalType": "address",
          "name": "newOwner",
          "type": "address"
        }
      ],
      "name": "OwnershipTransferred",
      "type": "event"
    },
    {
      "anonymous": false,
      "inputs": [
        {
          "indexed": false,
          "internalType": "address",
          "name": "account",
          "type": "address"
        }
      ],
      "name": "Paused",
      "type": "event"
    },
    {
      "anonymous": false,
      "inputs": [
        {
          "indexed": false,
          "internalType": "address",
          "name": "account",
          "type": "address"
        }
      ],
      "name": "Unpaused",
      "type": "event"
    },
    {
      "inputs": [],
      "name": "_INTERFACE_ID_ERC721",
      "outputs": [
        {
          "internalType": "bytes4",
          "name": "",
          "type": "bytes4"
        }
      ],
      "stateMutability": "view",
      "type": "function",
      "constant": true
    },
    {
      "inputs": [],
      "name": "acceptedToken",
      "outputs": [
        {
          "internalType": "contract IERC20",
          "name": "",
          "type": "address"
        }
      ],
      "stateMutability": "view",
      "type": "function",
      "constant": true
    },
    {
      "inputs": [
        {
          "internalType": "address",
          "name": "",
          "type": "address"
        },
        {
          "internalType": "uint256",
          "name": "",
          "type": "uint256"
        }
      ],
      "name": "bidByOrderId",
      "outputs": [
        {
          "internalType": "bytes32",
          "name": "id",
          "type": "bytes32"
        },
        {
          "internalType": "address",
          "name": "bidder",
          "type": "address"
        },
        {
          "internalType": "uint256",
          "name": "price",
          "type": "uint256"
        },
        {
          "internalType": "uint256",
          "name": "expiresAt",
          "type": "uint256"
        }
      ],
      "stateMutability": "view",
      "type": "function",
      "constant": true
    },
    {
      "inputs": [],
      "name": "cutPerMillion",
      "outputs": [
        {
          "internalType": "uint256",
          "name": "",
          "type": "uint256"
        }
      ],
      "stateMutability": "view",
      "type": "function",
      "constant": true
    },
    {
      "inputs": [],
      "name": "maxCutPerMillion",
      "outputs": [
        {
          "internalType": "uint256",
          "name": "",
          "type": "uint256"
        }
      ],
      "stateMutability": "view",
      "type": "function",
      "constant": true
    },
    {
      "inputs": [
        {
          "internalType": "address",
          "name": "",
          "type": "address"
        },
        {
          "internalType": "address",
          "name": "",
          "type": "address"
        },
        {
          "internalType": "uint256",
          "name": "",
          "type": "uint256"
        },
        {
          "internalType": "bytes",
          "name": "",
          "type": "bytes"
        }
      ],
      "name": "onERC721Received",
      "outputs": [
        {
          "internalType": "bytes4",
          "name": "",
          "type": "bytes4"
        }
      ],
      "stateMutability": "nonpayable",
      "type": "function"
    },
    {
      "inputs": [
        {
          "internalType": "address",
          "name": "",
          "type": "address"
        },
        {
          "internalType": "uint256",
          "name": "",
          "type": "uint256"
        }
      ],
      "name": "orderByAssetId",
      "outputs": [
        {
          "internalType": "bytes32",
          "name": "id",
          "type": "bytes32"
        },
        {
          "internalType": "address",
          "name": "seller",
          "type": "address"
        },
        {
          "internalType": "address",
          "name": "nftAddress",
          "type": "address"
        },
        {
          "internalType": "uint256",
          "name": "price",
          "type": "uint256"
        },
        {
          "internalType": "uint256",
          "name": "expiresAt",
          "type": "uint256"
        }
      ],
      "stateMutability": "view",
      "type": "function",
      "constant": true
    },
    {
      "inputs": [],
      "name": "owner",
      "outputs": [
        {
          "internalType": "address",
          "name": "",
          "type": "address"
        }
      ],
      "stateMutability": "view",
      "type": "function",
      "constant": true
    },
    {
      "inputs": [],
      "name": "paused",
      "outputs": [
        {
          "internalType": "bool",
          "name": "",
          "type": "bool"
        }
      ],
      "stateMutability": "view",
      "type": "function",
      "constant": true
    },
    {
      "inputs": [],
      "name": "renounceOwnership",
      "outputs": [],
      "stateMutability": "nonpayable",
      "type": "function"
    },
    {
      "inputs": [
        {
          "internalType": "uint256",
          "name": "_cutPerMillion",
          "type": "uint256"
        }
      ],
      "name": "setOwnerCutPerMillion",
      "outputs": [],
      "stateMutability": "nonpayable",
      "type": "function"
    },
    {
      "inputs": [
        {
          "internalType": "address",
          "name": "newOwner",
          "type": "address"
        }
      ],
      "name": "transferOwnership",
      "outputs": [],
      "stateMutability": "nonpayable",
      "type": "function"
    },
    {
      "inputs": [
        {
          "internalType": "bool",
          "name": "_setPaused",
          "type": "bool"
        }
      ],
      "name": "setPaused",
      "outputs": [],
      "stateMutability": "nonpayable",
      "type": "function"
    },
    {
      "inputs": [
        {
          "internalType": "address",
          "name": "_nftAddress",
          "type": "address"
        },
        {
          "internalType": "uint256",
          "name": "_assetId",
          "type": "uint256"
        },
        {
          "internalType": "uint256",
          "name": "_priceInWei",
          "type": "uint256"
        },
        {
          "internalType": "uint256",
          "name": "_expiresAt",
          "type": "uint256"
        }
      ],
      "name": "createOrder",
      "outputs": [],
      "stateMutability": "nonpayable",
      "type": "function"
    },
    {
      "inputs": [
        {
          "internalType": "address",
          "name": "_nftAddress",
          "type": "address"
        },
        {
          "internalType": "uint256",
          "name": "_assetId",
          "type": "uint256"
        }
      ],
      "name": "cancelOrder",
      "outputs": [],
      "stateMutability": "nonpayable",
      "type": "function"
    },
    {
      "inputs": [
        {
          "internalType": "address",
          "name": "_nftAddress",
          "type": "address"
        },
        {
          "internalType": "uint256",
          "name": "_assetId",
          "type": "uint256"
        },
        {
          "internalType": "uint256",
          "name": "_priceInWei",
          "type": "uint256"
        },
        {
          "internalType": "uint256",
          "name": "_expiresAt",
          "type": "uint256"
        }
      ],
      "name": "updateOrder",
      "outputs": [],
      "stateMutability": "nonpayable",
      "type": "function"
    },
    {
      "inputs": [
        {
          "internalType": "address",
          "name": "_nftAddress",
          "type": "address"
        },
        {
          "internalType": "uint256",
          "name": "_assetId",
          "type": "uint256"
        },
        {
          "internalType": "uint256",
          "name": "_priceInWei",
          "type": "uint256"
        }
      ],
      "name": "safeExecuteOrder",
      "outputs": [],
      "stateMutability": "nonpayable",
      "type": "function"
    },
    {
      "inputs": [
        {
          "internalType": "address",
          "name": "_nftAddress",
          "type": "address"
        },
        {
          "internalType": "uint256",
          "name": "_assetId",
          "type": "uint256"
        },
        {
          "internalType": "uint256",
          "name": "_priceInWei",
          "type": "uint256"
        },
        {
          "internalType": "uint256",
          "name": "_expiresAt",
          "type": "uint256"
        }
      ],
      "name": "safePlaceBid",
      "outputs": [],
      "stateMutability": "nonpayable",
      "type": "function"
    },
    {
      "inputs": [
        {
          "internalType": "address",
          "name": "_nftAddress",
          "type": "address"
        },
        {
          "internalType": "uint256",
          "name": "_assetId",
          "type": "uint256"
        }
      ],
      "name": "cancelBid",
      "outputs": [],
      "stateMutability": "nonpayable",
      "type": "function"
    },
    {
      "inputs": [
        {
          "internalType": "address",
          "name": "_nftAddress",
          "type": "address"
        },
        {
          "internalType": "uint256",
          "name": "_assetId",
          "type": "uint256"
        },
        {
          "internalType": "uint256",
          "name": "_priceInWei",
          "type": "uint256"
        }
      ],
      "name": "acceptBid",
      "outputs": [],
      "stateMutability": "nonpayable",
      "type": "function"
    }
  ],
  "bytecode": "0x60806040523480156200001157600080fd5b50604051620047c3380380620047c383398181016040528101906200003791906200021d565b620000576200004b6200012760201b60201c565b6200012f60201b60201c565b60008060146101000a81548160ff0219169083151502179055506200009d8173ffffffffffffffffffffffffffffffffffffffff16620001f360201b620018261760201c565b620000df576040517f08c379a0000000000000000000000000000000000000000000000000000000008152600401620000d69062000270565b60405180910390fd5b80600260006101000a81548173ffffffffffffffffffffffffffffffffffffffff021916908373ffffffffffffffffffffffffffffffffffffffff1602179055505062000340565b600033905090565b60008060009054906101000a900473ffffffffffffffffffffffffffffffffffffffff169050816000806101000a81548173ffffffffffffffffffffffffffffffffffffffff021916908373ffffffffffffffffffffffffffffffffffffffff1602179055508173ffffffffffffffffffffffffffffffffffffffff168173ffffffffffffffffffffffffffffffffffffffff167f8be0079c531659141344cd1fd0a4f28419497f9722a3daafe3b4186f6b6457e060405160405180910390a35050565b600080823b905060008111915050919050565b600081519050620002178162000326565b92915050565b6000602082840312156200023057600080fd5b6000620002408482850162000206565b91505092915050565b60006200025860368362000292565b91506200026582620002d7565b604082019050919050565b600060208201905081810360008301526200028b8162000249565b9050919050565b600082825260208201905092915050565b6000620002b082620002b7565b9050919050565b600073ffffffffffffffffffffffffffffffffffffffff82169050919050565b7f54686520616363657074656420746f6b656e2061646472657373206d7573742060008201527f62652061206465706c6f79656420636f6e747261637400000000000000000000602082015250565b6200033181620002a3565b81146200033d57600080fd5b50565b61447380620003506000396000f3fe608060405234801561001057600080fd5b506004361061012c5760003560e01c80636f652e1a116100ad578063cf7ce01f11610071578063cf7ce01f146102f8578063dece685414610314578063e13a40f014610332578063e61f38511461034e578063f2fde38b146103825761012c565b80636f652e1a14610263578063715018a61461027f5780638da5cb5b14610289578063c555e050146102a7578063cd08bfe1146102c55761012c565b806339b6b1e5116100f457806339b6b1e5146101d1578063451c3d80146101ed5780635c975abb1461020b578063673c8553146102295780636a206137146102475761012c565b8063150b7a021461013157806316c38b3c1461016157806319dad16d1461017d5780631d22da911461019957806338940b5b146101b5575b600080fd5b61014b60048036038101906101469190612e77565b61039e565b604051610158919061372a565b60405180910390f35b61017b60048036038101906101769190612fe0565b6103b2565b005b61019760048036038101906101929190613032565b61044c565b005b6101b360048036038101906101ae9190612f7d565b610550565b005b6101cf60048036038101906101ca9190612f2e565b6105aa565b005b6101eb60048036038101906101e69190612ef2565b6108c5565b005b6101f5610aad565b6040516102029190613745565b60405180910390f35b610213610ad3565b60405161022091906135fc565b60405180910390f35b610231610ae9565b60405161023e9190613a82565b60405180910390f35b610261600480360381019061025c9190612ef2565b610aef565b005b61027d60048036038101906102789190612f7d565b610e20565b005b610287610e7a565b005b610291610f02565b60405161029e9190613581565b60405180910390f35b6102af610f2b565b6040516102bc9190613a82565b60405180910390f35b6102df60048036038101906102da9190612ef2565b610f32565b6040516102ef9493929190613685565b60405180910390f35b610312600480360381019061030d9190612f7d565b610f8f565b005b61031c6112f5565b604051610329919061372a565b60405180910390f35b61034c60048036038101906103479190612f2e565b611300565b005b61036860048036038101906103639190612ef2565b6116ab565b604051610379959493929190613632565b60405180910390f35b61039c60048036038101906103979190612e25565b61172e565b005b600063150b7a0260e01b9050949350505050565b6103ba611839565b73ffffffffffffffffffffffffffffffffffffffff166103d8610f02565b73ffffffffffffffffffffffffffffffffffffffff161461042e576040517f08c379a000000000000000000000000000000000000000000000000000000000815260040161042590613962565b60405180910390fd5b806104405761043b611841565b610449565b6104486118e2565b5b50565b610454611839565b73ffffffffffffffffffffffffffffffffffffffff16610472610f02565b73ffffffffffffffffffffffffffffffffffffffff16146104c8576040517f08c379a00000000000000000000000000000000000000000000000000000000081526004016104bf90613962565b60405180910390fd5b620186a0811061050d576040517f08c379a000000000000000000000000000000000000000000000000000000000815260040161050490613a62565b60405180910390fd5b806001819055507fdb629698afb23c88e17ec4d29f97b3907c3e1fbfd116fa15f97569c7c16b3e4d6001546040516105459190613a82565b60405180910390a150565b610558610ad3565b15610598576040517f08c379a000000000000000000000000000000000000000000000000000000000815260040161058f906138c2565b60405180910390fd5b6105a484848484611985565b50505050565b6105b2610ad3565b156105f2576040517f08c379a00000000000000000000000000000000000000000000000000000000081526004016105e9906138c2565b60405180910390fd5b60006105fe8484611d6c565b905081816060015114610646576040517f08c379a000000000000000000000000000000000000000000000000000000000815260040161063d906139a2565b60405180910390fd5b3373ffffffffffffffffffffffffffffffffffffffff16816020015173ffffffffffffffffffffffffffffffffffffffff1614156106b9576040517f08c379a00000000000000000000000000000000000000000000000000000000081526004016106b0906138e2565b60405180910390fd5b6000806001541115610748576106ef620f42406106e160015486611f3290919063ffffffff16565b611f4890919063ffffffff16565b9050610747336106fd610f02565b83600260009054906101000a900473ffffffffffffffffffffffffffffffffffffffff1673ffffffffffffffffffffffffffffffffffffffff16611f5e909392919063ffffffff16565b5b6107b1338360200151610768848660600151611fe790919063ffffffff16565b600260009054906101000a900473ffffffffffffffffffffffffffffffffffffffff1673ffffffffffffffffffffffffffffffffffffffff16611f5e909392919063ffffffff16565b6000600460008773ffffffffffffffffffffffffffffffffffffffff1673ffffffffffffffffffffffffffffffffffffffff1681526020019081526020016000206000868152602001908152602001600020604051806080016040529081600082015481526020016001820160009054906101000a900473ffffffffffffffffffffffffffffffffffffffff1673ffffffffffffffffffffffffffffffffffffffff1673ffffffffffffffffffffffffffffffffffffffff1681526020016002820154815260200160038201548152505090506000801b8160000151146108ac576108ab8160000151878784602001518560400151611ffd565b5b6108bd83600001513388888861211a565b505050505050565b6108cd610ad3565b1561090d576040517f08c379a0000000000000000000000000000000000000000000000000000000008152600401610904906138c2565b60405180910390fd5b6000600460008473ffffffffffffffffffffffffffffffffffffffff1673ffffffffffffffffffffffffffffffffffffffff1681526020019081526020016000206000838152602001908152602001600020604051806080016040529081600082015481526020016001820160009054906101000a900473ffffffffffffffffffffffffffffffffffffffff1673ffffffffffffffffffffffffffffffffffffffff1673ffffffffffffffffffffffffffffffffffffffff1681526020016002820154815260200160038201548152505090503373ffffffffffffffffffffffffffffffffffffffff16816020015173ffffffffffffffffffffffffffffffffffffffff161480610a505750610a21610f02565b73ffffffffffffffffffffffffffffffffffffffff163373ffffffffffffffffffffffffffffffffffffffff16145b610a8f576040517f08c379a0000000000000000000000000000000000000000000000000000000008152600401610a8690613822565b60405180910390fd5b610aa88160000151848484602001518560400151611ffd565b505050565b600260009054906101000a900473ffffffffffffffffffffffffffffffffffffffff1681565b60008060149054906101000a900460ff16905090565b60015481565b610af7610ad3565b15610b37576040517f08c379a0000000000000000000000000000000000000000000000000000000008152600401610b2e906138c2565b60405180910390fd5b6000600360008473ffffffffffffffffffffffffffffffffffffffff1673ffffffffffffffffffffffffffffffffffffffff16815260200190815260200160002060008381526020019081526020016000206040518060a0016040529081600082015481526020016001820160009054906101000a900473ffffffffffffffffffffffffffffffffffffffff1673ffffffffffffffffffffffffffffffffffffffff1673ffffffffffffffffffffffffffffffffffffffff1681526020016002820160009054906101000a900473ffffffffffffffffffffffffffffffffffffffff1673ffffffffffffffffffffffffffffffffffffffff1673ffffffffffffffffffffffffffffffffffffffff1681526020016003820154815260200160048201548152505090503373ffffffffffffffffffffffffffffffffffffffff16816020015173ffffffffffffffffffffffffffffffffffffffff161480610cd05750610ca1610f02565b73ffffffffffffffffffffffffffffffffffffffff163373ffffffffffffffffffffffffffffffffffffffff16145b610d0f576040517f08c379a0000000000000000000000000000000000000000000000000000000008152600401610d06906138e2565b60405180910390fd5b6000600460008573ffffffffffffffffffffffffffffffffffffffff1673ffffffffffffffffffffffffffffffffffffffff1681526020019081526020016000206000848152602001908152602001600020604051806080016040529081600082015481526020016001820160009054906101000a900473ffffffffffffffffffffffffffffffffffffffff1673ffffffffffffffffffffffffffffffffffffffff1673ffffffffffffffffffffffffffffffffffffffff1681526020016002820154815260200160038201548152505090506000801b816000015114610e0a57610e098160000151858584602001518560400151611ffd565b5b610e1a8260000151858533612299565b50505050565b610e28610ad3565b15610e68576040517f08c379a0000000000000000000000000000000000000000000000000000000008152600401610e5f906138c2565b60405180910390fd5b610e74848484846123fe565b50505050565b610e82611839565b73ffffffffffffffffffffffffffffffffffffffff16610ea0610f02565b73ffffffffffffffffffffffffffffffffffffffff1614610ef6576040517f08c379a0000000000000000000000000000000000000000000000000000000008152600401610eed90613962565b60405180910390fd5b610f006000612805565b565b60008060009054906101000a900473ffffffffffffffffffffffffffffffffffffffff16905090565b620186a081565b6004602052816000526040600020602052806000526040600020600091509150508060000154908060010160009054906101000a900473ffffffffffffffffffffffffffffffffffffffff16908060020154908060030154905084565b610f97610ad3565b15610fd7576040517f08c379a0000000000000000000000000000000000000000000000000000000008152600401610fce906138c2565b60405180910390fd5b6000600360008673ffffffffffffffffffffffffffffffffffffffff1673ffffffffffffffffffffffffffffffffffffffff16815260200190815260200160002060008581526020019081526020016000206040518060a0016040529081600082015481526020016001820160009054906101000a900473ffffffffffffffffffffffffffffffffffffffff1673ffffffffffffffffffffffffffffffffffffffff1673ffffffffffffffffffffffffffffffffffffffff1681526020016002820160009054906101000a900473ffffffffffffffffffffffffffffffffffffffff1673ffffffffffffffffffffffffffffffffffffffff1673ffffffffffffffffffffffffffffffffffffffff1681526020016003820154815260200160048201548152505090506000801b8160000151141561114a576040517f08c379a000000000000000000000000000000000000000000000000000000000815260040161114190613902565b60405180910390fd5b3373ffffffffffffffffffffffffffffffffffffffff16816020015173ffffffffffffffffffffffffffffffffffffffff16146111bc576040517f08c379a00000000000000000000000000000000000000000000000000000000081526004016111b390613982565b60405180910390fd5b4281608001511015611203576040517f08c379a00000000000000000000000000000000000000000000000000000000081526004016111fa906137a2565b60405180910390fd5b60008311611246576040517f08c379a000000000000000000000000000000000000000000000000000000000815260040161123d90613802565b60405180910390fd5b61125a603c426128c990919063ffffffff16565b821161129b576040517f08c379a0000000000000000000000000000000000000000000000000000000008152600401611292906137e2565b60405180910390fd5b82816060018181525050818160800181815250507f37de993802f8ab9c75f6d7d3065ba8ab95ce30051219b14251415925e68e0a48816000015184846040516112e6939291906136f3565b60405180910390a15050505050565b6380ac58cd60e01b81565b611308610ad3565b15611348576040517f08c379a000000000000000000000000000000000000000000000000000000000815260040161133f906138c2565b60405180910390fd5b60006113548484611d6c565b90503373ffffffffffffffffffffffffffffffffffffffff16816020015173ffffffffffffffffffffffffffffffffffffffff16146113c8576040517f08c379a00000000000000000000000000000000000000000000000000000000081526004016113bf906138e2565b60405180910390fd5b6000600460008673ffffffffffffffffffffffffffffffffffffffff1673ffffffffffffffffffffffffffffffffffffffff1681526020019081526020016000206000858152602001908152602001600020604051806080016040529081600082015481526020016001820160009054906101000a900473ffffffffffffffffffffffffffffffffffffffff1673ffffffffffffffffffffffffffffffffffffffff1673ffffffffffffffffffffffffffffffffffffffff168152602001600282015481526020016003820154815250509050828160400151146114e1576040517f08c379a00000000000000000000000000000000000000000000000000000000081526004016114d890613922565b60405180910390fd5b4281606001511015611528576040517f08c379a000000000000000000000000000000000000000000000000000000000815260040161151f90613942565b60405180910390fd5b600460008673ffffffffffffffffffffffffffffffffffffffff1673ffffffffffffffffffffffffffffffffffffffff16815260200190815260200160002060008581526020019081526020016000206000808201600090556001820160006101000a81549073ffffffffffffffffffffffffffffffffffffffff02191690556002820160009055600382016000905550507ff8c7d5572fa269efc040934ae7553d57f8906bffd616254bef0b94e2b569e41681600001516040516115ed9190613617565b60405180910390a16000611625620f42406116176001548560400151611f3290919063ffffffff16565b611f4890919063ffffffff16565b905061168e8260200151611646838560400151611fe790919063ffffffff16565b600260009054906101000a900473ffffffffffffffffffffffffffffffffffffffff1673ffffffffffffffffffffffffffffffffffffffff166128df9092919063ffffffff16565b6116a38360000151836020015188888861211a565b505050505050565b6003602052816000526040600020602052806000526040600020600091509150508060000154908060010160009054906101000a900473ffffffffffffffffffffffffffffffffffffffff16908060020160009054906101000a900473ffffffffffffffffffffffffffffffffffffffff16908060030154908060040154905085565b611736611839565b73ffffffffffffffffffffffffffffffffffffffff16611754610f02565b73ffffffffffffffffffffffffffffffffffffffff16146117aa576040517f08c379a00000000000000000000000000000000000000000000000000000000081526004016117a190613962565b60405180910390fd5b600073ffffffffffffffffffffffffffffffffffffffff168173ffffffffffffffffffffffffffffffffffffffff16141561181a576040517f08c379a0000000000000000000000000000000000000000000000000000000008152600401611811906137c2565b60405180910390fd5b61182381612805565b50565b600080823b905060008111915050919050565b600033905090565b611849610ad3565b611888576040517f08c379a000000000000000000000000000000000000000000000000000000000815260040161187f90613782565b60405180910390fd5b60008060146101000a81548160ff0219169083151502179055507f5db9ee0a495bf2e6ff9c91a7834c1ba4fdd244a5e8aa4e537bd38aeae4b073aa6118cb611839565b6040516118d89190613581565b60405180910390a1565b6118ea610ad3565b1561192a576040517f08c379a0000000000000000000000000000000000000000000000000000000008152600401611921906138c2565b60405180910390fd5b6001600060146101000a81548160ff0219169083151502179055507f62e78cea01bee320cd4e420270b5ea74000d11b0c9f74754ebdbfc544b05a25861196e611839565b60405161197b9190613581565b60405180910390a1565b60006119918585611d6c565b905080608001518211156119a757806080015191505b6000600460008773ffffffffffffffffffffffffffffffffffffffff1673ffffffffffffffffffffffffffffffffffffffff1681526020019081526020016000206000868152602001908152602001600020604051806080016040529081600082015481526020016001820160009054906101000a900473ffffffffffffffffffffffffffffffffffffffff1673ffffffffffffffffffffffffffffffffffffffff1673ffffffffffffffffffffffffffffffffffffffff1681526020016002820154815260200160038201548152505090506000801b816000015114611b405742816060015110611ade5780604001518411611ad9576040517f08c379a0000000000000000000000000000000000000000000000000000000008152600401611ad090613a22565b60405180910390fd5b611b22565b60008411611b21576040517f08c379a0000000000000000000000000000000000000000000000000000000008152600401611b1890613a02565b60405180910390fd5b5b611b3b8160000151878784602001518560400151611ffd565b611b84565b60008411611b83576040517f08c379a0000000000000000000000000000000000000000000000000000000008152600401611b7a90613a02565b60405180910390fd5b5b611bd3333086600260009054906101000a900473ffffffffffffffffffffffffffffffffffffffff1673ffffffffffffffffffffffffffffffffffffffff16611f5e909392919063ffffffff16565b6000423384600001518787604051602001611bf2959493929190613522565b60405160208183030381529060405280519060200120905060405180608001604052808281526020013373ffffffffffffffffffffffffffffffffffffffff16815260200186815260200185815250600460008973ffffffffffffffffffffffffffffffffffffffff1673ffffffffffffffffffffffffffffffffffffffff16815260200190815260200160002060008881526020019081526020016000206000820151816000015560208201518160010160006101000a81548173ffffffffffffffffffffffffffffffffffffffff021916908373ffffffffffffffffffffffffffffffffffffffff16021790555060408201518160020155606082015181600301559050503373ffffffffffffffffffffffffffffffffffffffff16868873ffffffffffffffffffffffffffffffffffffffff167fae7b5aee7763f3e7771076de8f7b61accb70ad42245fee23308e19c8bcd518e4848989604051611d5b939291906136f3565b60405180910390a450505050505050565b611d74612cf6565b600360008473ffffffffffffffffffffffffffffffffffffffff1673ffffffffffffffffffffffffffffffffffffffff16815260200190815260200160002060008381526020019081526020016000206040518060a0016040529081600082015481526020016001820160009054906101000a900473ffffffffffffffffffffffffffffffffffffffff1673ffffffffffffffffffffffffffffffffffffffff1673ffffffffffffffffffffffffffffffffffffffff1681526020016002820160009054906101000a900473ffffffffffffffffffffffffffffffffffffffff1673ffffffffffffffffffffffffffffffffffffffff1673ffffffffffffffffffffffffffffffffffffffff1681526020016003820154815260200160048201548152505090506000801b81600001511415611ee5576040517f08c379a0000000000000000000000000000000000000000000000000000000008152600401611edc90613902565b60405180910390fd5b4281608001511015611f2c576040517f08c379a0000000000000000000000000000000000000000000000000000000008152600401611f23906137a2565b60405180910390fd5b92915050565b60008183611f409190613bac565b905092915050565b60008183611f569190613b7b565b905092915050565b611fe1846323b872dd60e01b858585604051602401611f7f9392919061359c565b604051602081830303815290604052907bffffffffffffffffffffffffffffffffffffffffffffffffffffffff19166020820180517bffffffffffffffffffffffffffffffffffffffffffffffffffffffff8381831617835250505050612965565b50505050565b60008183611ff59190613c06565b905092915050565b600460008573ffffffffffffffffffffffffffffffffffffffff1673ffffffffffffffffffffffffffffffffffffffff16815260200190815260200160002060008481526020019081526020016000206000808201600090556001820160006101000a81549073ffffffffffffffffffffffffffffffffffffffff02191690556002820160009055600382016000905550506120dc8282600260009054906101000a900473ffffffffffffffffffffffffffffffffffffffff1673ffffffffffffffffffffffffffffffffffffffff166128df9092919063ffffffff16565b7fb56dc4096011ba5fd2e46e5c3e7b04dec423b5e7b5fce9a17a419d77c832177c8560405161210b9190613617565b60405180910390a15050505050565b600360008473ffffffffffffffffffffffffffffffffffffffff1673ffffffffffffffffffffffffffffffffffffffff16815260200190815260200160002060008381526020019081526020016000206000808201600090556001820160006101000a81549073ffffffffffffffffffffffffffffffffffffffff02191690556002820160006101000a81549073ffffffffffffffffffffffffffffffffffffffff02191690556003820160009055600482016000905550508273ffffffffffffffffffffffffffffffffffffffff166342842e0e3086856040518463ffffffff1660e01b81526004016122109392919061359c565b600060405180830381600087803b15801561222a57600080fd5b505af115801561223e573d6000803e3d6000fd5b505050508373ffffffffffffffffffffffffffffffffffffffff167f012d66d656f295c1a84576b9b7f0a83474ed09578e80f7f1a715fb958e1d5463868360405161228a9291906136ca565b60405180910390a25050505050565b600360008473ffffffffffffffffffffffffffffffffffffffff1673ffffffffffffffffffffffffffffffffffffffff16815260200190815260200160002060008381526020019081526020016000206000808201600090556001820160006101000a81549073ffffffffffffffffffffffffffffffffffffffff02191690556002820160006101000a81549073ffffffffffffffffffffffffffffffffffffffff02191690556003820160009055600482016000905550508273ffffffffffffffffffffffffffffffffffffffff166342842e0e3083856040518463ffffffff1660e01b815260040161238f9392919061359c565b600060405180830381600087803b1580156123a957600080fd5b505af11580156123bd573d6000803e3d6000fd5b505050507f5152abf959f6564662358c2e52b702259b78bac5ee7842a0f01937e670efcc7d846040516123f09190613617565b60405180910390a150505050565b600061240985612a2c565b905060008173ffffffffffffffffffffffffffffffffffffffff16636352211e866040518263ffffffff1660e01b81526004016124469190613a82565b60206040518083038186803b15801561245e57600080fd5b505afa158015612472573d6000803e3d6000fd5b505050506040513d601f19601f820116820180604052508101906124969190612e4e565b90503373ffffffffffffffffffffffffffffffffffffffff168173ffffffffffffffffffffffffffffffffffffffff1614612506576040517f08c379a00000000000000000000000000000000000000000000000000000000081526004016124fd90613842565b60405180910390fd5b60008411612549576040517f08c379a000000000000000000000000000000000000000000000000000000000815260040161254090613802565b60405180910390fd5b61255d603c426128c990919063ffffffff16565b831161259e576040517f08c379a000000000000000000000000000000000000000000000000000000000815260040161259590613862565b60405180910390fd5b8173ffffffffffffffffffffffffffffffffffffffff166342842e0e8230886040518463ffffffff1660e01b81526004016125db9392919061359c565b600060405180830381600087803b1580156125f557600080fd5b505af1158015612609573d6000803e3d6000fd5b50505050600042828888886040516020016126289594939291906134c3565b6040516020818303038152906040528051906020012090506040518060a001604052808281526020018373ffffffffffffffffffffffffffffffffffffffff1681526020018873ffffffffffffffffffffffffffffffffffffffff16815260200186815260200185815250600360008973ffffffffffffffffffffffffffffffffffffffff1673ffffffffffffffffffffffffffffffffffffffff16815260200190815260200160002060008881526020019081526020016000206000820151816000015560208201518160010160006101000a81548173ffffffffffffffffffffffffffffffffffffffff021916908373ffffffffffffffffffffffffffffffffffffffff16021790555060408201518160020160006101000a81548173ffffffffffffffffffffffffffffffffffffffff021916908373ffffffffffffffffffffffffffffffffffffffff1602179055506060820151816003015560808201518160040155905050858773ffffffffffffffffffffffffffffffffffffffff168373ffffffffffffffffffffffffffffffffffffffff167f3b8c4041eabe54c6d50899a3a79a85ff44abb0867c400f5a7c8d8a55a8488cd68489896040516127f4939291906136f3565b60405180910390a450505050505050565b60008060009054906101000a900473ffffffffffffffffffffffffffffffffffffffff169050816000806101000a81548173ffffffffffffffffffffffffffffffffffffffff021916908373ffffffffffffffffffffffffffffffffffffffff1602179055508173ffffffffffffffffffffffffffffffffffffffff168173ffffffffffffffffffffffffffffffffffffffff167f8be0079c531659141344cd1fd0a4f28419497f9722a3daafe3b4186f6b6457e060405160405180910390a35050565b600081836128d79190613b25565b905092915050565b6129608363a9059cbb60e01b84846040516024016128fe9291906135d3565b604051602081830303815290604052907bffffffffffffffffffffffffffffffffffffffffffffffffffffffff19166020820180517bffffffffffffffffffffffffffffffffffffffffffffffffffffffff8381831617835250505050612965565b505050565b60006129c7826040518060400160405280602081526020017f5361666545524332303a206c6f772d6c6576656c2063616c6c206661696c65648152508573ffffffffffffffffffffffffffffffffffffffff16612b639092919063ffffffff16565b9050600081511115612a2757808060200190518101906129e79190613009565b612a26576040517f08c379a0000000000000000000000000000000000000000000000000000000008152600401612a1d90613a42565b60405180910390fd5b5b505050565b6000612a4d8273ffffffffffffffffffffffffffffffffffffffff16611826565b612a8c576040517f08c379a0000000000000000000000000000000000000000000000000000000008152600401612a83906139c2565b60405180910390fd5b8173ffffffffffffffffffffffffffffffffffffffff166301ffc9a76380ac58cd60e01b6040518263ffffffff1660e01b8152600401612acc919061372a565b60206040518083038186803b158015612ae457600080fd5b505afa158015612af8573d6000803e3d6000fd5b505050506040513d601f19601f82011682018060405250810190612b1c9190613009565b612b5b576040517f08c379a0000000000000000000000000000000000000000000000000000000008152600401612b5290613882565b60405180910390fd5b819050919050565b6060612b728484600085612b7b565b90509392505050565b606082471015612bc0576040517f08c379a0000000000000000000000000000000000000000000000000000000008152600401612bb7906138a2565b60405180910390fd5b612bc985611826565b612c08576040517f08c379a0000000000000000000000000000000000000000000000000000000008152600401612bff906139e2565b60405180910390fd5b6000808673ffffffffffffffffffffffffffffffffffffffff168587604051612c3191906134ac565b60006040518083038185875af1925050503d8060008114612c6e576040519150601f19603f3d011682016040523d82523d6000602084013e612c73565b606091505b5091509150612c83828286612c8f565b92505050949350505050565b60608315612c9f57829050612cef565b600083511115612cb25782518084602001fd5b816040517f08c379a0000000000000000000000000000000000000000000000000000000008152600401612ce69190613760565b60405180910390fd5b9392505050565b6040518060a0016040528060008019168152602001600073ffffffffffffffffffffffffffffffffffffffff168152602001600073ffffffffffffffffffffffffffffffffffffffff16815260200160008152602001600081525090565b6000612d67612d6284613ac2565b613a9d565b905082815260208101848484011115612d7f57600080fd5b612d8a848285613cdc565b509392505050565b600081359050612da1816143f8565b92915050565b600081519050612db6816143f8565b92915050565b600081359050612dcb8161440f565b92915050565b600081519050612de08161440f565b92915050565b600082601f830112612df757600080fd5b8135612e07848260208601612d54565b91505092915050565b600081359050612e1f81614426565b92915050565b600060208284031215612e3757600080fd5b6000612e4584828501612d92565b91505092915050565b600060208284031215612e6057600080fd5b6000612e6e84828501612da7565b91505092915050565b60008060008060808587031215612e8d57600080fd5b6000612e9b87828801612d92565b9450506020612eac87828801612d92565b9350506040612ebd87828801612e10565b925050606085013567ffffffffffffffff811115612eda57600080fd5b612ee687828801612de6565b91505092959194509250565b60008060408385031215612f0557600080fd5b6000612f1385828601612d92565b9250506020612f2485828601612e10565b9150509250929050565b600080600060608486031215612f4357600080fd5b6000612f5186828701612d92565b9350506020612f6286828701612e10565b9250506040612f7386828701612e10565b9150509250925092565b60008060008060808587031215612f9357600080fd5b6000612fa187828801612d92565b9450506020612fb287828801612e10565b9350506040612fc387828801612e10565b9250506060612fd487828801612e10565b91505092959194509250565b600060208284031215612ff257600080fd5b600061300084828501612dbc565b91505092915050565b60006020828403121561301b57600080fd5b600061302984828501612dd1565b91505092915050565b60006020828403121561304457600080fd5b600061305284828501612e10565b91505092915050565b61306481613c3a565b82525050565b61307b61307682613c3a565b613d4f565b82525050565b61308a81613c4c565b82525050565b61309981613c58565b82525050565b6130b06130ab82613c58565b613d61565b82525050565b6130bf81613c62565b82525050565b60006130d082613af3565b6130da8185613b09565b93506130ea818560208601613ceb565b80840191505092915050565b6130ff81613cb8565b82525050565b600061311082613afe565b61311a8185613b14565b935061312a818560208601613ceb565b61313381613e14565b840191505092915050565b600061314b601483613b14565b915061315682613e32565b602082019050919050565b600061316e601a83613b14565b915061317982613e5b565b602082019050919050565b6000613191602683613b14565b915061319c82613e84565b604082019050919050565b60006131b4604383613b14565b91506131bf82613ed3565b606082019050919050565b60006131d7602a83613b14565b91506131e282613f48565b604082019050919050565b60006131fa602083613b14565b915061320582613f97565b602082019050919050565b600061321d603383613b14565b915061322882613fc0565b604082019050919050565b6000613240604383613b14565b915061324b8261400f565b606082019050919050565b6000613263603583613b14565b915061326e82614084565b604082019050919050565b6000613286602683613b14565b9150613291826140d3565b604082019050919050565b60006132a9601083613b14565b91506132b482614122565b602082019050919050565b60006132cc602083613b14565b91506132d78261414b565b602082019050919050565b60006132ef602083613b14565b91506132fa82614174565b602082019050919050565b6000613312601e83613b14565b915061331d8261419d565b602082019050919050565b6000613335601c83613b14565b9150613340826141c6565b602082019050919050565b6000613358602083613b14565b9150613363826141ef565b602082019050919050565b600061337b601f83613b14565b915061338682614218565b602082019050919050565b600061339e601a83613b14565b91506133a982614241565b602082019050919050565b60006133c1602483613b14565b91506133cc8261426a565b604082019050919050565b60006133e4601d83613b14565b91506133ef826142b9565b602082019050919050565b6000613407601e83613b14565b9150613412826142e2565b602082019050919050565b600061342a603583613b14565b91506134358261430b565b604082019050919050565b600061344d602a83613b14565b91506134588261435a565b604082019050919050565b6000613470603683613b14565b915061347b826143a9565b604082019050919050565b61348f81613cae565b82525050565b6134a66134a182613cae565b613d7d565b82525050565b60006134b882846130c5565b915081905092915050565b60006134cf8288613495565b6020820191506134df828761306a565b6014820191506134ef828661306a565b6014820191506134ff8285613495565b60208201915061350f8284613495565b6020820191508190509695505050505050565b600061352e8288613495565b60208201915061353e828761306a565b60148201915061354e828661309f565b60208201915061355e8285613495565b60208201915061356e8284613495565b6020820191508190509695505050505050565b6000602082019050613596600083018461305b565b92915050565b60006060820190506135b1600083018661305b565b6135be602083018561305b565b6135cb6040830184613486565b949350505050565b60006040820190506135e8600083018561305b565b6135f56020830184613486565b9392505050565b60006020820190506136116000830184613081565b92915050565b600060208201905061362c6000830184613090565b92915050565b600060a0820190506136476000830188613090565b613654602083018761305b565b613661604083018661305b565b61366e6060830185613486565b61367b6080830184613486565b9695505050505050565b600060808201905061369a6000830187613090565b6136a7602083018661305b565b6136b46040830185613486565b6136c16060830184613486565b95945050505050565b60006040820190506136df6000830185613090565b6136ec6020830184613486565b9392505050565b60006060820190506137086000830186613090565b6137156020830185613486565b6137226040830184613486565b949350505050565b600060208201905061373f60008301846130b6565b92915050565b600060208201905061375a60008301846130f6565b92915050565b6000602082019050818103600083015261377a8184613105565b905092915050565b6000602082019050818103600083015261379b8161313e565b9050919050565b600060208201905081810360008301526137bb81613161565b9050919050565b600060208201905081810360008301526137db81613184565b9050919050565b600060208201905081810360008301526137fb816131a7565b9050919050565b6000602082019050818103600083015261381b816131ca565b9050919050565b6000602082019050818103600083015261383b816131ed565b9050919050565b6000602082019050818103600083015261385b81613210565b9050919050565b6000602082019050818103600083015261387b81613233565b9050919050565b6000602082019050818103600083015261389b81613256565b9050919050565b600060208201905081810360008301526138bb81613279565b9050919050565b600060208201905081810360008301526138db8161329c565b9050919050565b600060208201905081810360008301526138fb816132bf565b9050919050565b6000602082019050818103600083015261391b816132e2565b9050919050565b6000602082019050818103600083015261393b81613305565b9050919050565b6000602082019050818103600083015261395b81613328565b9050919050565b6000602082019050818103600083015261397b8161334b565b9050919050565b6000602082019050818103600083015261399b8161336e565b9050919050565b600060208201905081810360008301526139bb81613391565b9050919050565b600060208201905081810360008301526139db816133b4565b9050919050565b600060208201905081810360008301526139fb816133d7565b9050919050565b60006020820190508181036000830152613a1b816133fa565b9050919050565b60006020820190508181036000830152613a3b8161341d565b9050919050565b60006020820190508181036000830152613a5b81613440565b9050919050565b60006020820190508181036000830152613a7b81613463565b9050919050565b6000602082019050613a976000830184613486565b92915050565b6000613aa7613ab8565b9050613ab38282613d1e565b919050565b6000604051905090565b600067ffffffffffffffff821115613add57613adc613de5565b5b613ae682613e14565b9050602081019050919050565b600081519050919050565b600081519050919050565b600081905092915050565b600082825260208201905092915050565b6000613b3082613cae565b9150613b3b83613cae565b9250827fffffffffffffffffffffffffffffffffffffffffffffffffffffffffffffffff03821115613b7057613b6f613d87565b5b828201905092915050565b6000613b8682613cae565b9150613b9183613cae565b925082613ba157613ba0613db6565b5b828204905092915050565b6000613bb782613cae565b9150613bc283613cae565b9250817fffffffffffffffffffffffffffffffffffffffffffffffffffffffffffffffff0483118215151615613bfb57613bfa613d87565b5b828202905092915050565b6000613c1182613cae565b9150613c1c83613cae565b925082821015613c2f57613c2e613d87565b5b828203905092915050565b6000613c4582613c8e565b9050919050565b60008115159050919050565b6000819050919050565b60007fffffffff0000000000000000000000000000000000000000000000000000000082169050919050565b600073ffffffffffffffffffffffffffffffffffffffff82169050919050565b6000819050919050565b6000613cc382613cca565b9050919050565b6000613cd582613c8e565b9050919050565b82818337600083830152505050565b60005b83811015613d09578082015181840152602081019050613cee565b83811115613d18576000848401525b50505050565b613d2782613e14565b810181811067ffffffffffffffff82111715613d4657613d45613de5565b5b80604052505050565b6000613d5a82613d6b565b9050919050565b6000819050919050565b6000613d7682613e25565b9050919050565b6000819050919050565b7f4e487b7100000000000000000000000000000000000000000000000000000000600052601160045260246000fd5b7f4e487b7100000000000000000000000000000000000000000000000000000000600052601260045260246000fd5b7f4e487b7100000000000000000000000000000000000000000000000000000000600052604160045260246000fd5b6000601f19601f8301169050919050565b60008160601b9050919050565b7f5061757361626c653a206e6f7420706175736564000000000000000000000000600082015250565b7f4d61726b6574706c6163653a206f726465722065787069726564000000000000600082015250565b7f4f776e61626c653a206e6577206f776e657220697320746865207a65726f206160008201527f6464726573730000000000000000000000000000000000000000000000000000602082015250565b7f4d61726b6574706c6163653a204578706972652074696d652073686f756c642060008201527f6265206d6f7265207468616e2031206d696e75746520696e207468652066757460208201527f7572650000000000000000000000000000000000000000000000000000000000604082015250565b7f4d61726b6574706c6163653a2050726963652073686f756c642062652062696760008201527f676572207468616e203000000000000000000000000000000000000000000000602082015250565b7f4d61726b6574706c6163653a20556e617574686f72697a65642073656e646572600082015250565b7f4d61726b6574706c6163653a204f6e6c7920746865206173736574206f776e6560008201527f722063616e20637265617465206f726465727300000000000000000000000000602082015250565b7f4d61726b6574706c6163653a205075626c69636174696f6e2073686f756c642060008201527f6265206d6f7265207468616e2031206d696e75746520696e207468652066757460208201527f7572650000000000000000000000000000000000000000000000000000000000604082015250565b7f546865204e465420636f6e74726163742068617320616e20696e76616c69642060008201527f45524337323120696d706c656d656e746174696f6e0000000000000000000000602082015250565b7f416464726573733a20696e73756666696369656e742062616c616e636520666f60008201527f722063616c6c0000000000000000000000000000000000000000000000000000602082015250565b7f5061757361626c653a2070617573656400000000000000000000000000000000600082015250565b7f4d61726b6574706c6163653a20756e617574686f72697a65642073656e646572600082015250565b7f4d61726b6574706c6163653a206173736574206e6f74207075626c6973686564600082015250565b7f4d61726b6574706c6163653a20696e76616c6964206269642070726963650000600082015250565b7f4d61726b6574706c6163653a2074686520626964206578706972656400000000600082015250565b7f4f776e61626c653a2063616c6c6572206973206e6f7420746865206f776e6572600082015250565b7f4d61726b6574706c6163653a2073656e646572206e6f7420616c6c6f77656400600082015250565b7f4d61726b6574706c6163653a20696e76616c6964207072696365000000000000600082015250565b7f546865204e465420416464726573732073686f756c64206265206120636f6e7460008201527f7261637400000000000000000000000000000000000000000000000000000000602082015250565b7f416464726573733a2063616c6c20746f206e6f6e2d636f6e7472616374000000600082015250565b7f4d61726b6574706c6163653a206269642073686f756c64206265203e20300000600082015250565b7f4d61726b6574706c6163653a206269642070726963652073686f756c6420626560008201527f20686967686572207468616e206c617374206269640000000000000000000000602082015250565b7f5361666545524332303a204552433230206f7065726174696f6e20646964206e60008201527f6f74207375636365656400000000000000000000000000000000000000000000602082015250565b7f546865206f776e6572206375742073686f756c64206265206265747765656e2060008201527f3020616e64206d61784375745065724d696c6c696f6e00000000000000000000602082015250565b61440181613c3a565b811461440c57600080fd5b50565b61441881613c4c565b811461442357600080fd5b50565b61442f81613cae565b811461443a57600080fd5b5056fea26469706673582212205efaff778ea62dc2223ce568e56b29c1a9da5c56b3e1af4fcf8a59893b80424764736f6c63430008040033",
  "immutableReferences": {},
  "source": "// SPDX-License-Identifier: MIT\npragma solidity ^0.8.0;\n\nimport \"@openzeppelin/contracts/access/Ownable.sol\";\nimport \"@openzeppelin/contracts/utils/math/SafeMath.sol\";\n\nimport \"@openzeppelin/contracts/utils/Address.sol\";\nimport \"@openzeppelin/contracts/security/Pausable.sol\";\n\nimport \"@openzeppelin/contracts/token/ERC721/utils/ERC721Holder.sol\";\nimport \"@openzeppelin/contracts/token/ERC20/utils/SafeERC20.sol\";\n\nimport \"@openzeppelin/contracts/token/ERC721/IERC721.sol\";\nimport \"./interfaces/ITrustMarketplace.sol\";\nimport \"./FeeManager.sol\";\n\n\ncontract TrustMarketplace is Ownable, Pausable, FeeManager, ITrustMarketplace, ERC721Holder {\n\n    using Address for address;\n    using SafeMath for uint256;\n    using SafeERC20 for IERC20;\n\n    IERC20 public acceptedToken;\n\n    // From ERC721 registry assetId to Order (to avoid asset collision)\n    mapping(address => mapping(uint256 => Order)) public orderByAssetId;\n\n    // From ERC721 registry assetId to Bid (to avoid asset collision)\n    mapping(address => mapping(uint256 => Bid)) public bidByOrderId;\n\n    // 721 Interfaces\n    bytes4 public constant _INTERFACE_ID_ERC721 = 0x80ac58cd;\n\n    /**\n     * @dev Initialize this contract. Acts as a constructor\n     * @param _acceptedToken - currency for payments\n     */\n    constructor(address _acceptedToken) Ownable() {\n        require(\n            _acceptedToken.isContract(),\n            \"The accepted token address must be a deployed contract\"\n        );\n        acceptedToken = IERC20(_acceptedToken);\n    }\n\n    /**\n     * @dev Sets the paused failsafe. Can only be called by owner\n     * @param _setPaused - paused state\n     */\n    function setPaused(bool _setPaused) public onlyOwner {\n        return (_setPaused) ? _pause() : _unpause();\n    }\n\n    /**\n     * @dev Creates a new order\n     * @param _nftAddress - Non fungible registry address\n     * @param _assetId - ID of the published NFT\n     * @param _priceInWei - Price in Wei for the supported coin\n     * @param _expiresAt - Duration of the order (in hours)\n     */\n    function createOrder(\n        address _nftAddress,\n        uint256 _assetId,\n        uint256 _priceInWei,\n        uint256 _expiresAt\n    )\n        public whenNotPaused\n    {\n        _createOrder(_nftAddress, _assetId, _priceInWei, _expiresAt);\n    }\n\n\n    /**\n     * @dev Cancel an already published order\n     *  can only be canceled by seller or the contract owner\n     * @param _nftAddress - Address of the NFT registry\n     * @param _assetId - ID of the published NFT\n     */\n    function cancelOrder(\n        address _nftAddress,\n        uint256 _assetId\n    )\n        public whenNotPaused\n    {\n        Order memory order = orderByAssetId[_nftAddress][_assetId];\n\n        require(\n            order.seller == msg.sender || msg.sender == owner(),\n            \"Marketplace: unauthorized sender\"\n        );\n\n        // Remove pending bid if any\n        Bid memory bid = bidByOrderId[_nftAddress][_assetId];\n\n        if (bid.id != 0) {\n            _cancelBid(\n                bid.id,\n                _nftAddress,\n                _assetId,\n                bid.bidder,\n                bid.price\n            );\n        }\n\n        // Cancel order.\n        _cancelOrder(\n            order.id,\n            _nftAddress,\n            _assetId,\n            msg.sender\n        );\n    }\n\n\n    /**\n     * @dev Update an already published order\n     *  can only be updated by seller\n     * @param _nftAddress - Address of the NFT registry\n     * @param _assetId - ID of the published NFT\n     */\n    function updateOrder(\n        address _nftAddress,\n        uint256 _assetId,\n        uint256 _priceInWei,\n        uint256 _expiresAt\n    )\n        public whenNotPaused\n    {\n        Order memory order = orderByAssetId[_nftAddress][_assetId];\n\n        // Check valid order to update\n        require(order.id != 0, \"Marketplace: asset not published\");\n        require(order.seller == msg.sender, \"Marketplace: sender not allowed\");\n        require(order.expiresAt >= block.timestamp, \"Marketplace: order expired\");\n\n        // check order updated params\n        require(_priceInWei > 0, \"Marketplace: Price should be bigger than 0\");\n        require(\n            _expiresAt > block.timestamp.add(1 minutes),\n            \"Marketplace: Expire time should be more than 1 minute in the future\"\n        );\n\n        order.price = _priceInWei;\n        order.expiresAt = _expiresAt;\n\n        emit OrderUpdated(order.id, _priceInWei, _expiresAt);\n    }\n\n\n    /**\n     * @dev Executes the sale for a published NFT and checks for the asset fingerprint\n     * @param _nftAddress - Address of the NFT registry\n     * @param _assetId - ID of the published NFT\n     * @param _priceInWei - Order price\n     */\n    function safeExecuteOrder(\n        address _nftAddress,\n        uint256 _assetId,\n        uint256 _priceInWei\n    )\n        public whenNotPaused\n    {\n        // Get the current valid order for the asset or fail\n        Order memory order = _getValidOrder(\n            _nftAddress,\n            _assetId\n        );\n\n        /// Check the execution price matches the order price\n        require(order.price == _priceInWei, \"Marketplace: invalid price\");\n        require(order.seller != msg.sender, \"Marketplace: unauthorized sender\");\n\n        // market fee to cut\n        uint256 saleShareAmount = 0;\n\n        // Send market fees to owner\n        if (FeeManager.cutPerMillion > 0) {\n            // Calculate sale share\n            saleShareAmount = _priceInWei\n                .mul(FeeManager.cutPerMillion)\n                .div(1e6);\n\n            // Transfer share amount for marketplace Owner\n            acceptedToken.safeTransferFrom(\n                msg.sender, //buyer\n                owner(),\n                saleShareAmount\n            );\n        }\n\n        // Transfer accepted token amount minus market fee to seller\n        acceptedToken.safeTransferFrom(\n            msg.sender, // buyer\n            order.seller, // seller\n            order.price.sub(saleShareAmount)\n        );\n\n        // Remove pending bid if any\n        Bid memory bid = bidByOrderId[_nftAddress][_assetId];\n\n        if (bid.id != 0) {\n            _cancelBid(\n                bid.id,\n                _nftAddress,\n                _assetId,\n                bid.bidder,\n                bid.price\n            );\n        }\n\n        _executeOrder(\n            order.id,\n            msg.sender, // buyer\n            _nftAddress,\n            _assetId,\n            _priceInWei\n        );\n    }\n\n\n    /**\n     * @dev Places a bid for a published NFT and checks for the asset fingerprint\n     * @param _nftAddress - Address of the NFT registry\n     * @param _assetId - ID of the published NFT\n     * @param _priceInWei - Bid price in acceptedToken currency\n     * @param _expiresAt - Bid expiration time\n     */\n    function safePlaceBid(\n        address _nftAddress,\n        uint256 _assetId,\n        uint256 _priceInWei,\n        uint256 _expiresAt\n    )\n        public whenNotPaused\n    {\n        _createBid(\n            _nftAddress,\n            _assetId,\n            _priceInWei,\n            _expiresAt\n        );\n    }\n\n\n    /**\n     * @dev Cancel an already published bid\n     *  can only be canceled by seller or the contract owner\n     * @param _nftAddress - Address of the NFT registry\n     * @param _assetId - ID of the published NFT\n     */\n    function cancelBid(\n        address _nftAddress,\n        uint256 _assetId\n    )\n        public whenNotPaused\n    {\n        Bid memory bid = bidByOrderId[_nftAddress][_assetId];\n\n        require(\n            bid.bidder == msg.sender || msg.sender == owner(),\n            \"Marketplace: Unauthorized sender\"\n        );\n\n        _cancelBid(\n            bid.id,\n            _nftAddress,\n            _assetId,\n            bid.bidder,\n            bid.price\n        );\n    }\n\n\n    /**\n     * @dev Executes the sale for a published NFT by accepting a current bid\n     * @param _nftAddress - Address of the NFT registry\n     * @param _assetId - ID of the published NFT\n     * @param _priceInWei - Bid price in wei in acceptedTokens currency\n     */\n    function acceptBid(\n        address _nftAddress,\n        uint256 _assetId,\n        uint256 _priceInWei\n    )\n        public whenNotPaused\n    {\n        // check order validity\n        Order memory order = _getValidOrder(_nftAddress, _assetId);\n\n        // item seller is the only allowed to accept a bid\n        require(order.seller == msg.sender, \"Marketplace: unauthorized sender\");\n\n        Bid memory bid = bidByOrderId[_nftAddress][_assetId];\n\n        require(bid.price == _priceInWei, \"Marketplace: invalid bid price\");\n        require(bid.expiresAt >= block.timestamp, \"Marketplace: the bid expired\");\n\n        // remove bid\n        delete bidByOrderId[_nftAddress][_assetId];\n\n        emit BidAccepted(bid.id);\n\n        // calc market fees\n        uint256 saleShareAmount = bid.price\n            .mul(FeeManager.cutPerMillion)\n            .div(1e6);\n\n        // transfer escrowed bid amount minus market fee to seller\n        acceptedToken.safeTransfer(\n            bid.bidder,\n            bid.price.sub(saleShareAmount)\n        );\n\n        _executeOrder(\n            order.id,\n            bid.bidder,\n            _nftAddress,\n            _assetId,\n            _priceInWei\n        );\n    }\n\n\n    /**\n     * @dev Internal function gets Order by nftRegistry and assetId. Checks for the order validity\n     * @param _nftAddress - Address of the NFT registry\n     * @param _assetId - ID of the published NFT\n     */\n    function _getValidOrder(\n        address _nftAddress,\n        uint256 _assetId\n    )\n        internal view returns (Order memory order)\n    {\n        order = orderByAssetId[_nftAddress][_assetId];\n\n        require(order.id != 0, \"Marketplace: asset not published\");\n        require(order.expiresAt >= block.timestamp, \"Marketplace: order expired\");\n    }\n\n\n    /**\n     * @dev Executes the sale for a published NFT\n     * @param _orderId - Order Id to execute\n     * @param _buyer - address\n     * @param _nftAddress - Address of the NFT registry\n     * @param _assetId - NFT id\n     * @param _priceInWei - Order price\n     */\n    function _executeOrder(\n        bytes32 _orderId,\n        address _buyer,\n        address _nftAddress,\n        uint256 _assetId,\n        uint256 _priceInWei\n    )\n        internal\n    {\n        // remove order\n        delete orderByAssetId[_nftAddress][_assetId];\n\n        // Transfer NFT asset\n        IERC721(_nftAddress).safeTransferFrom(\n            address(this),\n            _buyer,\n            _assetId\n        );\n\n        // Notify ..\n        emit OrderSuccessful(\n            _orderId,\n            _buyer,\n            _priceInWei\n        );\n    }\n\n\n    /**\n     * @dev Creates a new order\n     * @param _nftAddress - Non fungible registry address\n     * @param _assetId - ID of the published NFT\n     * @param _priceInWei - Price in Wei for the supported coin\n     * @param _expiresAt - Expiration time for the order\n     */\n    function _createOrder(\n        address _nftAddress,\n        uint256 _assetId,\n        uint256 _priceInWei,\n        uint256 _expiresAt\n    )\n        internal\n    {\n        // Check nft registry\n        IERC721 nftRegistry = _requireERC721(_nftAddress);\n\n        // Check order creator is the asset owner\n        address assetOwner = nftRegistry.ownerOf(_assetId);\n\n        require(\n            assetOwner == msg.sender,\n            \"Marketplace: Only the asset owner can create orders\"\n        );\n\n        require(_priceInWei > 0, \"Marketplace: Price should be bigger than 0\");\n\n        require(\n            _expiresAt > block.timestamp.add(1 minutes),\n            \"Marketplace: Publication should be more than 1 minute in the future\"\n        );\n\n        // get NFT asset from seller\n        nftRegistry.safeTransferFrom(\n            assetOwner,\n            address(this),\n            _assetId\n        );\n\n        // create the orderId\n        bytes32 orderId = keccak256(\n            abi.encodePacked(\n                block.timestamp,\n                assetOwner,\n                _nftAddress,\n                _assetId,\n                _priceInWei\n            )\n        );\n\n        // save order\n        orderByAssetId[_nftAddress][_assetId] = Order({\n            id: orderId,\n            seller: assetOwner,\n            nftAddress: _nftAddress,\n            price: _priceInWei,\n            expiresAt: _expiresAt\n        });\n\n        emit OrderCreated(\n            orderId,\n            assetOwner,\n            _nftAddress,\n            _assetId,\n            _priceInWei,\n            _expiresAt\n        );\n    }\n\n\n    /**\n     * @dev Creates a new bid on a existing order\n     * @param _nftAddress - Non fungible registry address\n     * @param _assetId - ID of the published NFT\n     * @param _priceInWei - Price in Wei for the supported coin\n     * @param _expiresAt - expires time\n     */\n    function _createBid(\n        address _nftAddress,\n        uint256 _assetId,\n        uint256 _priceInWei,\n        uint256 _expiresAt\n    )\n        internal\n    {\n        // Checks order validity\n        Order memory order = _getValidOrder(_nftAddress, _assetId);\n\n        // check on expire time\n        if (_expiresAt > order.expiresAt) {\n            _expiresAt = order.expiresAt;\n        }\n\n        // Check price if theres previous a bid\n        Bid memory bid = bidByOrderId[_nftAddress][_assetId];\n\n        // if theres no previous bid, just check price > 0\n        if (bid.id != 0) {\n            if (bid.expiresAt >= block.timestamp) {\n                require(\n                    _priceInWei > bid.price,\n                    \"Marketplace: bid price should be higher than last bid\"\n                );\n\n            } else {\n                require(_priceInWei > 0, \"Marketplace: bid should be > 0\");\n            }\n\n            _cancelBid(\n                bid.id,\n                _nftAddress,\n                _assetId,\n                bid.bidder,\n                bid.price\n            );\n\n        } else {\n            require(_priceInWei > 0, \"Marketplace: bid should be > 0\");\n        }\n\n        // Transfer sale amount from bidder to escrow\n        acceptedToken.safeTransferFrom(\n            msg.sender, // bidder\n            address(this),\n            _priceInWei\n        );\n\n        // Create bid\n        bytes32 bidId = keccak256(\n            abi.encodePacked(\n                block.timestamp,\n                msg.sender,\n                order.id,\n                _priceInWei,\n                _expiresAt\n            )\n        );\n\n        // Save Bid for this order\n        bidByOrderId[_nftAddress][_assetId] = Bid({\n            id: bidId,\n            bidder: msg.sender,\n            price: _priceInWei,\n            expiresAt: _expiresAt\n        });\n\n        emit BidCreated(\n            bidId,\n            _nftAddress,\n            _assetId,\n            msg.sender, // bidder\n            _priceInWei,\n            _expiresAt\n        );\n    }\n\n\n    /**\n     * @dev Cancel an already published order\n     *  can only be canceled by seller or the contract owner\n     * @param _orderId - Bid identifier\n     * @param _nftAddress - Address of the NFT registry\n     * @param _assetId - ID of the published NFT\n     * @param _seller - Address\n     */\n    function _cancelOrder(\n        bytes32 _orderId,\n        address _nftAddress,\n        uint256 _assetId,\n        address _seller\n    )\n        internal\n    {\n        delete orderByAssetId[_nftAddress][_assetId];\n\n        /// send asset back to seller\n        IERC721(_nftAddress).safeTransferFrom(\n            address(this),\n            _seller,\n            _assetId\n        );\n\n        emit OrderCancelled(_orderId);\n    }\n\n\n    /**\n     * @dev Cancel bid from an already published order\n     *  can only be canceled by seller or the contract owner\n     * @param _bidId - Bid identifier\n     * @param _nftAddress - registry address\n     * @param _assetId - ID of the published NFT\n     * @param _bidder - Address\n     * @param _escrowAmount - in acceptenToken currency\n     */\n    function _cancelBid(\n        bytes32 _bidId,\n        address _nftAddress,\n        uint256 _assetId,\n        address _bidder,\n        uint256 _escrowAmount\n    )\n        internal\n    {\n        delete bidByOrderId[_nftAddress][_assetId];\n\n        // return escrow to canceled bidder\n        acceptedToken.safeTransfer(\n            _bidder,\n            _escrowAmount\n        );\n\n        emit BidCancelled(_bidId);\n    }\n\n\n    function _requireERC721(address _nftAddress) internal view returns (IERC721) {\n        require(\n            _nftAddress.isContract(),\n            \"The NFT Address should be a contract\"\n        );\n        require(\n            IERC721(_nftAddress).supportsInterface(_INTERFACE_ID_ERC721),\n            \"The NFT contract has an invalid ERC721 implementation\"\n        );\n        return IERC721(_nftAddress);\n    }\n}",
  "sourcePath": "/Users/tuminfei/Code/Nodejs/uniarts-eth-dao/contracts/core/TrustMarketplace.sol",
  "compiler": {
    "name": "solc",
    "version": "0.8.4+commit.c7e474f2.Emscripten.clang"
  },
  "schemaVersion": "3.3.0",
  "updatedAt": "2021-08-26T03:56:37.685Z",
  "networkType": "ethereum",
  "devdoc": {
    "kind": "dev",
    "methods": {
      "acceptBid(address,uint256,uint256)": {
        "details": "Executes the sale for a published NFT by accepting a current bid",
        "params": {
          "_assetId": "- ID of the published NFT",
          "_nftAddress": "- Address of the NFT registry",
          "_priceInWei": "- Bid price in wei in acceptedTokens currency"
        }
      },
      "cancelBid(address,uint256)": {
        "details": "Cancel an already published bid  can only be canceled by seller or the contract owner",
        "params": {
          "_assetId": "- ID of the published NFT",
          "_nftAddress": "- Address of the NFT registry"
        }
      },
      "cancelOrder(address,uint256)": {
        "details": "Cancel an already published order  can only be canceled by seller or the contract owner",
        "params": {
          "_assetId": "- ID of the published NFT",
          "_nftAddress": "- Address of the NFT registry"
        }
      },
      "constructor": {
        "details": "Initialize this contract. Acts as a constructor",
        "params": {
          "_acceptedToken": "- currency for payments"
        }
      },
      "createOrder(address,uint256,uint256,uint256)": {
        "details": "Creates a new order",
        "params": {
          "_assetId": "- ID of the published NFT",
          "_expiresAt": "- Duration of the order (in hours)",
          "_nftAddress": "- Non fungible registry address",
          "_priceInWei": "- Price in Wei for the supported coin"
        }
      },
      "onERC721Received(address,address,uint256,bytes)": {
        "details": "See {IERC721Receiver-onERC721Received}. Always returns `IERC721Receiver.onERC721Received.selector`."
      },
      "owner()": {
        "details": "Returns the address of the current owner."
      },
      "paused()": {
        "details": "Returns true if the contract is paused, and false otherwise."
      },
      "renounceOwnership()": {
        "details": "Leaves the contract without owner. It will not be possible to call `onlyOwner` functions anymore. Can only be called by the current owner. NOTE: Renouncing ownership will leave the contract without an owner, thereby removing any functionality that is only available to the owner."
      },
      "safeExecuteOrder(address,uint256,uint256)": {
        "details": "Executes the sale for a published NFT and checks for the asset fingerprint",
        "params": {
          "_assetId": "- ID of the published NFT",
          "_nftAddress": "- Address of the NFT registry",
          "_priceInWei": "- Order price"
        }
      },
      "safePlaceBid(address,uint256,uint256,uint256)": {
        "details": "Places a bid for a published NFT and checks for the asset fingerprint",
        "params": {
          "_assetId": "- ID of the published NFT",
          "_expiresAt": "- Bid expiration time",
          "_nftAddress": "- Address of the NFT registry",
          "_priceInWei": "- Bid price in acceptedToken currency"
        }
      },
      "setOwnerCutPerMillion(uint256)": {
        "details": "Sets the share cut for the owner of the contract that's  charged to the seller on a successful sale",
        "params": {
          "_cutPerMillion": "- Share amount, from 0 to 99,999"
        }
      },
      "setPaused(bool)": {
        "details": "Sets the paused failsafe. Can only be called by owner",
        "params": {
          "_setPaused": "- paused state"
        }
      },
      "transferOwnership(address)": {
        "details": "Transfers ownership of the contract to a new account (`newOwner`). Can only be called by the current owner."
      },
      "updateOrder(address,uint256,uint256,uint256)": {
        "details": "Update an already published order  can only be updated by seller",
        "params": {
          "_assetId": "- ID of the published NFT",
          "_nftAddress": "- Address of the NFT registry"
        }
      }
    },
    "version": 1
  },
  "userdoc": {
    "kind": "user",
    "methods": {},
    "version": 1
  }
}