{
  "contractName": "TrustMarketplace",
  "abi": [
    {
      "inputs": [
        {
          "internalType": "address",
          "name": "_acceptedToken",
          "type": "address"
        }
      ],
      "stateMutability": "nonpayable",
      "type": "constructor"
    },
    {
      "anonymous": false,
      "inputs": [
        {
          "indexed": false,
          "internalType": "bytes32",
          "name": "id",
          "type": "bytes32"
        }
      ],
      "name": "BidAccepted",
      "type": "event"
    },
    {
      "anonymous": false,
      "inputs": [
        {
          "indexed": false,
          "internalType": "bytes32",
          "name": "id",
          "type": "bytes32"
        }
      ],
      "name": "BidCancelled",
      "type": "event"
    },
    {
      "anonymous": false,
      "inputs": [
        {
          "indexed": false,
          "internalType": "bytes32",
          "name": "id",
          "type": "bytes32"
        },
        {
          "indexed": true,
          "internalType": "address",
          "name": "nftAddress",
          "type": "address"
        },
        {
          "indexed": true,
          "internalType": "uint256",
          "name": "assetId",
          "type": "uint256"
        },
        {
          "indexed": true,
          "internalType": "address",
          "name": "bidder",
          "type": "address"
        },
        {
          "indexed": false,
          "internalType": "uint256",
          "name": "priceInWei",
          "type": "uint256"
        },
        {
          "indexed": false,
          "internalType": "uint256",
          "name": "expiresAt",
          "type": "uint256"
        }
      ],
      "name": "BidCreated",
      "type": "event"
    },
    {
      "anonymous": false,
      "inputs": [
        {
          "indexed": false,
          "internalType": "uint256",
          "name": "cutPerMillion",
          "type": "uint256"
        }
      ],
      "name": "ChangedFeePerMillion",
      "type": "event"
    },
    {
      "anonymous": false,
      "inputs": [
        {
          "indexed": false,
          "internalType": "bytes32",
          "name": "id",
          "type": "bytes32"
        }
      ],
      "name": "OrderCancelled",
      "type": "event"
    },
    {
      "anonymous": false,
      "inputs": [
        {
          "indexed": false,
          "internalType": "bytes32",
          "name": "id",
          "type": "bytes32"
        },
        {
          "indexed": true,
          "internalType": "address",
          "name": "seller",
          "type": "address"
        },
        {
          "indexed": true,
          "internalType": "address",
          "name": "nftAddress",
          "type": "address"
        },
        {
          "indexed": true,
          "internalType": "uint256",
          "name": "assetId",
          "type": "uint256"
        },
        {
          "indexed": false,
          "internalType": "uint256",
          "name": "priceInWei",
          "type": "uint256"
        },
        {
          "indexed": false,
          "internalType": "uint256",
          "name": "expiresAt",
          "type": "uint256"
        }
      ],
      "name": "OrderCreated",
      "type": "event"
    },
    {
      "anonymous": false,
      "inputs": [
        {
          "indexed": false,
          "internalType": "bytes32",
          "name": "id",
          "type": "bytes32"
        },
        {
          "indexed": true,
          "internalType": "address",
          "name": "buyer",
          "type": "address"
        },
        {
          "indexed": false,
          "internalType": "uint256",
          "name": "priceInWei",
          "type": "uint256"
        }
      ],
      "name": "OrderSuccessful",
      "type": "event"
    },
    {
      "anonymous": false,
      "inputs": [
        {
          "indexed": false,
          "internalType": "bytes32",
          "name": "id",
          "type": "bytes32"
        },
        {
          "indexed": false,
          "internalType": "uint256",
          "name": "priceInWei",
          "type": "uint256"
        },
        {
          "indexed": false,
          "internalType": "uint256",
          "name": "expiresAt",
          "type": "uint256"
        }
      ],
      "name": "OrderUpdated",
      "type": "event"
    },
    {
      "anonymous": false,
      "inputs": [
        {
          "indexed": true,
          "internalType": "address",
          "name": "previousOwner",
          "type": "address"
        },
        {
          "indexed": true,
          "internalType": "address",
          "name": "newOwner",
          "type": "address"
        }
      ],
      "name": "OwnershipTransferred",
      "type": "event"
    },
    {
      "anonymous": false,
      "inputs": [
        {
          "indexed": false,
          "internalType": "address",
          "name": "account",
          "type": "address"
        }
      ],
      "name": "Paused",
      "type": "event"
    },
    {
      "anonymous": false,
      "inputs": [
        {
          "indexed": false,
          "internalType": "address",
          "name": "account",
          "type": "address"
        }
      ],
      "name": "Unpaused",
      "type": "event"
    },
    {
      "inputs": [],
      "name": "_INTERFACE_ID_ERC721",
      "outputs": [
        {
          "internalType": "bytes4",
          "name": "",
          "type": "bytes4"
        }
      ],
      "stateMutability": "view",
      "type": "function"
    },
    {
      "inputs": [],
      "name": "acceptedToken",
      "outputs": [
        {
          "internalType": "contract IERC20",
          "name": "",
          "type": "address"
        }
      ],
      "stateMutability": "view",
      "type": "function"
    },
    {
      "inputs": [
        {
          "internalType": "address",
          "name": "",
          "type": "address"
        },
        {
          "internalType": "uint256",
          "name": "",
          "type": "uint256"
        }
      ],
      "name": "bidByOrderId",
      "outputs": [
        {
          "internalType": "bytes32",
          "name": "id",
          "type": "bytes32"
        },
        {
          "internalType": "address",
          "name": "bidder",
          "type": "address"
        },
        {
          "internalType": "uint256",
          "name": "price",
          "type": "uint256"
        },
        {
          "internalType": "uint256",
          "name": "expiresAt",
          "type": "uint256"
        }
      ],
      "stateMutability": "view",
      "type": "function"
    },
    {
      "inputs": [],
      "name": "cutPerMillion",
      "outputs": [
        {
          "internalType": "uint256",
          "name": "",
          "type": "uint256"
        }
      ],
      "stateMutability": "view",
      "type": "function"
    },
    {
      "inputs": [],
      "name": "maxCutPerMillion",
      "outputs": [
        {
          "internalType": "uint256",
          "name": "",
          "type": "uint256"
        }
      ],
      "stateMutability": "view",
      "type": "function"
    },
    {
      "inputs": [
        {
          "internalType": "address",
          "name": "",
          "type": "address"
        },
        {
          "internalType": "address",
          "name": "",
          "type": "address"
        },
        {
          "internalType": "uint256",
          "name": "",
          "type": "uint256"
        },
        {
          "internalType": "bytes",
          "name": "",
          "type": "bytes"
        }
      ],
      "name": "onERC721Received",
      "outputs": [
        {
          "internalType": "bytes4",
          "name": "",
          "type": "bytes4"
        }
      ],
      "stateMutability": "nonpayable",
      "type": "function"
    },
    {
      "inputs": [
        {
          "internalType": "address",
          "name": "",
          "type": "address"
        },
        {
          "internalType": "uint256",
          "name": "",
          "type": "uint256"
        }
      ],
      "name": "orderByAssetId",
      "outputs": [
        {
          "internalType": "bytes32",
          "name": "id",
          "type": "bytes32"
        },
        {
          "internalType": "address",
          "name": "seller",
          "type": "address"
        },
        {
          "internalType": "address",
          "name": "nftAddress",
          "type": "address"
        },
        {
          "internalType": "uint256",
          "name": "price",
          "type": "uint256"
        },
        {
          "internalType": "uint256",
          "name": "expiresAt",
          "type": "uint256"
        }
      ],
      "stateMutability": "view",
      "type": "function"
    },
    {
      "inputs": [],
      "name": "owner",
      "outputs": [
        {
          "internalType": "address",
          "name": "",
          "type": "address"
        }
      ],
      "stateMutability": "view",
      "type": "function"
    },
    {
      "inputs": [],
      "name": "paused",
      "outputs": [
        {
          "internalType": "bool",
          "name": "",
          "type": "bool"
        }
      ],
      "stateMutability": "view",
      "type": "function"
    },
    {
      "inputs": [],
      "name": "renounceOwnership",
      "outputs": [],
      "stateMutability": "nonpayable",
      "type": "function"
    },
    {
      "inputs": [
        {
          "internalType": "uint256",
          "name": "_cutPerMillion",
          "type": "uint256"
        }
      ],
      "name": "setOwnerCutPerMillion",
      "outputs": [],
      "stateMutability": "nonpayable",
      "type": "function"
    },
    {
      "inputs": [
        {
          "internalType": "address",
          "name": "newOwner",
          "type": "address"
        }
      ],
      "name": "transferOwnership",
      "outputs": [],
      "stateMutability": "nonpayable",
      "type": "function"
    },
    {
      "inputs": [
        {
          "internalType": "bool",
          "name": "_setPaused",
          "type": "bool"
        }
      ],
      "name": "setPaused",
      "outputs": [],
      "stateMutability": "nonpayable",
      "type": "function"
    },
    {
      "inputs": [
        {
          "internalType": "address",
          "name": "_nftAddress",
          "type": "address"
        },
        {
          "internalType": "uint256",
          "name": "_assetId",
          "type": "uint256"
        },
        {
          "internalType": "uint256",
          "name": "_priceInWei",
          "type": "uint256"
        },
        {
          "internalType": "uint256",
          "name": "_expiresAt",
          "type": "uint256"
        }
      ],
      "name": "createOrder",
      "outputs": [],
      "stateMutability": "nonpayable",
      "type": "function"
    },
    {
      "inputs": [
        {
          "internalType": "address",
          "name": "_nftAddress",
          "type": "address"
        },
        {
          "internalType": "uint256",
          "name": "_assetId",
          "type": "uint256"
        }
      ],
      "name": "cancelOrder",
      "outputs": [],
      "stateMutability": "nonpayable",
      "type": "function"
    },
    {
      "inputs": [
        {
          "internalType": "address",
          "name": "_nftAddress",
          "type": "address"
        },
        {
          "internalType": "uint256",
          "name": "_assetId",
          "type": "uint256"
        },
        {
          "internalType": "uint256",
          "name": "_priceInWei",
          "type": "uint256"
        },
        {
          "internalType": "uint256",
          "name": "_expiresAt",
          "type": "uint256"
        }
      ],
      "name": "updateOrder",
      "outputs": [],
      "stateMutability": "nonpayable",
      "type": "function"
    },
    {
      "inputs": [
        {
          "internalType": "address",
          "name": "_nftAddress",
          "type": "address"
        },
        {
          "internalType": "uint256",
          "name": "_assetId",
          "type": "uint256"
        },
        {
          "internalType": "uint256",
          "name": "_priceInWei",
          "type": "uint256"
        }
      ],
      "name": "safeExecuteOrder",
      "outputs": [],
      "stateMutability": "nonpayable",
      "type": "function"
    },
    {
      "inputs": [
        {
          "internalType": "address",
          "name": "_nftAddress",
          "type": "address"
        },
        {
          "internalType": "uint256",
          "name": "_assetId",
          "type": "uint256"
        },
        {
          "internalType": "uint256",
          "name": "_priceInWei",
          "type": "uint256"
        },
        {
          "internalType": "uint256",
          "name": "_expiresAt",
          "type": "uint256"
        }
      ],
      "name": "safePlaceBid",
      "outputs": [],
      "stateMutability": "nonpayable",
      "type": "function"
    },
    {
      "inputs": [
        {
          "internalType": "address",
          "name": "_nftAddress",
          "type": "address"
        },
        {
          "internalType": "uint256",
          "name": "_assetId",
          "type": "uint256"
        }
      ],
      "name": "cancelBid",
      "outputs": [],
      "stateMutability": "nonpayable",
      "type": "function"
    },
    {
      "inputs": [
        {
          "internalType": "address",
          "name": "_nftAddress",
          "type": "address"
        },
        {
          "internalType": "uint256",
          "name": "_assetId",
          "type": "uint256"
        },
        {
          "internalType": "uint256",
          "name": "_priceInWei",
          "type": "uint256"
        }
      ],
      "name": "acceptBid",
      "outputs": [],
      "stateMutability": "nonpayable",
      "type": "function"
    }
  ],
  "bytecode": "0x60806040523480156200001157600080fd5b50604051620028dc380380620028dc83398101604081905262000034916200019d565b6200005a6200004b64010000000062000143810204565b64010000000062000147810204565b6000805460a060020a60ff02191690556200008c600160a060020a03821664010000000062000fe96200019782021704565b6200011d576040517f08c379a000000000000000000000000000000000000000000000000000000000815260206004820152603660248201527f54686520616363657074656420746f6b656e2061646472657373206d7573742060448201527f62652061206465706c6f79656420636f6e747261637400000000000000000000606482015260840160405180910390fd5b60028054600160a060020a031916600160a060020a0392909216919091179055620001cd565b3390565b60008054600160a060020a03838116600160a060020a0319831681178455604051919092169283917f8be0079c531659141344cd1fd0a4f28419497f9722a3daafe3b4186f6b6457e09190a35050565b3b151590565b600060208284031215620001af578081fd5b8151600160a060020a0381168114620001c6578182fd5b9392505050565b6126ff80620001dd6000396000f3fe608060405234801561001057600080fd5b5060043610610149576000357c0100000000000000000000000000000000000000000000000000000000900480636f652e1a116100ca578063cf7ce01f1161008e578063cf7ce01f14610333578063dece685414610346578063e13a40f01461036d578063e61f385114610380578063f2fde38b1461040557600080fd5b80636f652e1a1461028b578063715018a61461029e5780638da5cb5b146102a6578063c555e050146102b7578063cd08bfe1146102c157600080fd5b806339b6b1e51161011157806339b6b1e514610206578063451c3d80146102195780635c975abb14610244578063673c8553146102615780636a2061371461027857600080fd5b8063150b7a021461014e57806316c38b3c146101b857806319dad16d146101cd5780631d22da91146101e057806338940b5b146101f3575b600080fd5b61018561015c366004612262565b7f150b7a0200000000000000000000000000000000000000000000000000000000949350505050565b6040517bffffffffffffffffffffffffffffffffffffffffffffffffffffffff1990911681526020015b60405180910390f35b6101cb6101c63660046123d4565b610418565b005b6101cb6101db36600461240c565b610466565b6101cb6101ee36600461239a565b610549565b6101cb610201366004612366565b610588565b6101cb61021436600461233b565b610764565b60025461022c90600160a060020a031681565b604051600160a060020a0390911681526020016101af565b60005460a060020a900460ff1660405190151581526020016101af565b61026a60015481565b6040519081526020016101af565b6101cb61028636600461233b565b61086b565b6101cb61029936600461239a565b6109b4565b6101cb6109ed565b600054600160a060020a031661022c565b61026a620186a081565b61030b6102cf36600461233b565b600460209081526000928352604080842090915290825290208054600182015460028301546003909301549192600160a060020a039091169184565b60408051948552600160a060020a0390931660208501529183015260608201526080016101af565b6101cb61034136600461239a565b610a26565b6101857f80ac58cd0000000000000000000000000000000000000000000000000000000081565b6101cb61037b366004612366565b610cdd565b6103d161038e36600461233b565b60036020818152600093845260408085209091529183529120805460018201546002830154938301546004909301549193600160a060020a039182169391169185565b60408051958652600160a060020a03948516602087015292909316918401919091526060830152608082015260a0016101af565b6101cb61041336600461222a565b610f34565b600054600160a060020a0316331461044e5760405160e560020a62461bcd02815260040161044590612560565b60405180910390fd5b8061045e5761045b610fef565b50565b61045b6110a9565b600054600160a060020a031633146104935760405160e560020a62461bcd02815260040161044590612560565b620186a0811061050e5760405160e560020a62461bcd02815260206004820152603660248201527f546865206f776e6572206375742073686f756c64206265206265747765656e2060448201527f3020616e64206d61784375745065724d696c6c696f6e000000000000000000006064820152608401610445565b60018190556040518181527fdb629698afb23c88e17ec4d29f97b3907c3e1fbfd116fa15f97569c7c16b3e4d9060200160405180910390a150565b60005460a060020a900460ff16156105765760405160e560020a62461bcd028152600401610445906124f4565b61058284848484611122565b50505050565b60005460a060020a900460ff16156105b55760405160e560020a62461bcd028152600401610445906124f4565b60006105c18484611479565b9050818160600151146106195760405160e560020a62461bcd02815260206004820152601a60248201527f4d61726b6574706c6163653a20696e76616c69642070726963650000000000006044820152606401610445565b6020810151600160a060020a03163314156106495760405160e560020a62461bcd0281526004016104459061252b565b600154600090156106a257610676620f4240610670600154866115b490919063ffffffff16565b906115c7565b90506106a23361068e600054600160a060020a031690565b600254600160a060020a03169190846115d3565b6106d63383602001516106c284866060015161167190919063ffffffff16565b600254600160a060020a03169291906115d3565b600160a060020a038086166000908152600460209081526040808320888452825291829020825160808101845281548082526001830154909516928101929092526002810154928201929092526003909101546060820152901561074d5761074d816000015187878460200151856040015161167d565b825161075c9033888888611711565b505050505050565b60005460a060020a900460ff16156107915760405160e560020a62461bcd028152600401610445906124f4565b600160a060020a038083166000908152600460209081526040808320858452825291829020825160808101845281548152600182015490941691840182905260028101549284019290925260039091015460608301523314806107fe5750600054600160a060020a031633145b61084d5760405160e560020a62461bcd02815260206004820181905260248201527f4d61726b6574706c6163653a20556e617574686f72697a65642073656e6465726044820152606401610445565b610866816000015184848460200151856040015161167d565b505050565b60005460a060020a900460ff16156108985760405160e560020a62461bcd028152600401610445906124f4565b600160a060020a038083166000908152600360208181526040808420868552825292839020835160a081018552815481526001820154861692810183905260028201549095169385019390935290820154606084015260049091015460808301523314806109105750600054600160a060020a031633145b61092f5760405160e560020a62461bcd0281526004016104459061252b565b600160a060020a03808416600090815260046020908152604080832086845282529182902082516080810184528154808252600183015490951692810192909252600281015492820192909252600390910154606082015290156109a6576109a6816000015185858460200151856040015161167d565b81516105829085853361182c565b60005460a060020a900460ff16156109e15760405160e560020a62461bcd028152600401610445906124f4565b6105828484848461193b565b600054600160a060020a03163314610a1a5760405160e560020a62461bcd02815260040161044590612560565b610a246000611d4d565b565b60005460a060020a900460ff1615610a535760405160e560020a62461bcd028152600401610445906124f4565b600160a060020a038085166000908152600360208181526040808420888552825292839020835160a081018552815480825260018301548716938201939093526002820154909516938501939093529082015460608401526004909101546080830152610b055760405160e560020a62461bcd02815260206004820181905260248201527f4d61726b6574706c6163653a206173736574206e6f74207075626c69736865646044820152606401610445565b6020810151600160a060020a03163314610b645760405160e560020a62461bcd02815260206004820152601f60248201527f4d61726b6574706c6163653a2073656e646572206e6f7420616c6c6f776564006044820152606401610445565b4281608001511015610bbb5760405160e560020a62461bcd02815260206004820152601a60248201527f4d61726b6574706c6163653a206f7264657220657870697265640000000000006044820152606401610445565b60008311610bde5760405160e560020a62461bcd02815260040161044590612497565b610be942603c611daa565b8211610c865760405160e560020a62461bcd02815260206004820152604360248201527f4d61726b6574706c6163653a204578706972652074696d652073686f756c642060448201527f6265206d6f7265207468616e2031206d696e75746520696e207468652066757460648201527f7572650000000000000000000000000000000000000000000000000000000000608482015260a401610445565b6060818101849052608082018390528151604080519182526020820186905281018490527f37de993802f8ab9c75f6d7d3065ba8ab95ce30051219b14251415925e68e0a4891015b60405180910390a15050505050565b60005460a060020a900460ff1615610d0a5760405160e560020a62461bcd028152600401610445906124f4565b6000610d168484611479565b6020810151909150600160a060020a03163314610d485760405160e560020a62461bcd0281526004016104459061252b565b600160a060020a03808516600090815260046020908152604080832087845282529182902082516080810184528154815260018201549094169184019190915260028101549183018290526003015460608301528314610ded5760405160e560020a62461bcd02815260206004820152601e60248201527f4d61726b6574706c6163653a20696e76616c69642062696420707269636500006044820152606401610445565b4281606001511015610e445760405160e560020a62461bcd02815260206004820152601c60248201527f4d61726b6574706c6163653a20746865206269642065787069726564000000006044820152606401610445565b600160a060020a0385166000908152600460209081526040808320878452825280832083815560018101805473ffffffffffffffffffffffffffffffffffffffff191690556002810184905560030192909255825191519182527ff8c7d5572fa269efc040934ae7553d57f8906bffd616254bef0b94e2b569e416910160405180910390a16000610eeb620f424061067060015485604001516115b490919063ffffffff16565b9050610f1f8260200151610f0c83856040015161167190919063ffffffff16565b600254600160a060020a03169190611db6565b61075c83600001518360200151888888611711565b600054600160a060020a03163314610f615760405160e560020a62461bcd02815260040161044590612560565b600160a060020a038116610fe05760405160e560020a62461bcd02815260206004820152602660248201527f4f776e61626c653a206e6577206f776e657220697320746865207a65726f206160448201527f64647265737300000000000000000000000000000000000000000000000000006064820152608401610445565b61045b81611d4d565b3b151590565b60005460a060020a900460ff1661104b5760405160e560020a62461bcd02815260206004820152601460248201527f5061757361626c653a206e6f74207061757365640000000000000000000000006044820152606401610445565b6000805474ff0000000000000000000000000000000000000000191690557f5db9ee0a495bf2e6ff9c91a7834c1ba4fdd244a5e8aa4e537bd38aeae4b073aa335b604051600160a060020a03909116815260200160405180910390a1565b60005460a060020a900460ff16156110d65760405160e560020a62461bcd028152600401610445906124f4565b6000805474ff0000000000000000000000000000000000000000191660a060020a1790557f62e78cea01bee320cd4e420270b5ea74000d11b0c9f74754ebdbfc544b05a25861108c3390565b600061112e8585611479565b9050806080015182111561114457806080015191505b600160a060020a038086166000908152600460209081526040808320888452825291829020825160808101845281548082526001830154909516928101929092526002810154928201929092526003909101546060820152901561129f574281606001511061122e57806040015184116112295760405160e560020a62461bcd02815260206004820152603560248201527f4d61726b6574706c6163653a206269642070726963652073686f756c6420626560448201527f20686967686572207468616e206c6173742062696400000000000000000000006064820152608401610445565b611281565b600084116112815760405160e560020a62461bcd02815260206004820152601e60248201527f4d61726b6574706c6163653a206269642073686f756c64206265203e203000006044820152606401610445565b61129a816000015187878460200151856040015161167d565b6112f2565b600084116112f25760405160e560020a62461bcd02815260206004820152601e60248201527f4d61726b6574706c6163653a206269642073686f756c64206265203e203000006044820152606401610445565b60025461130a90600160a060020a03163330876115d3565b8151604080514260208201526c010000000000000000000000003302918101919091526054810191909152607481018590526094810184905260009060b401604051602081830303815290604052805190602001209050604051806080016040528082815260200133600160a060020a03168152602001868152602001858152506004600089600160a060020a0316600160a060020a0316815260200190815260200160002060008881526020019081526020016000206000820151816000015560208201518160010160006101000a815481600160a060020a030219169083600160a060020a03160217905550604082015181600201556060820151816003015590505033600160a060020a03168688600160a060020a03167fae7b5aee7763f3e7771076de8f7b61accb70ad42245fee23308e19c8bcd518e4848989604051611468939291909283526020830191909152604082015260600190565b60405180910390a450505050505050565b6040805160a08101825260008082526020820181905291810182905260608101829052608081019190915250600160a060020a038083166000908152600360208181526040808420868552825292839020835160a0810185528154808252600183015487169382019390935260028201549095169385019390935290820154606084015260049091015460808301526115575760405160e560020a62461bcd02815260206004820181905260248201527f4d61726b6574706c6163653a206173736574206e6f74207075626c69736865646044820152606401610445565b42816080015110156115ae5760405160e560020a62461bcd02815260206004820152601a60248201527f4d61726b6574706c6163653a206f7264657220657870697265640000000000006044820152606401610445565b92915050565b60006115c082846125e6565b9392505050565b60006115c082846125ad565b610582846323b872dd7c01000000000000000000000000000000000000000000000000000000000285858560405160240161161093929190612440565b60408051601f198184030181529190526020810180517bffffffffffffffffffffffffffffffffffffffffffffffffffffffff167bffffffffffffffffffffffffffffffffffffffffffffffffffffffff1990931692909217909152611dff565b60006115c08284612605565b600160a060020a038085166000908152600460209081526040808320878452909152812081815560018101805473ffffffffffffffffffffffffffffffffffffffff191690556002808201839055600390910191909155546116e191168383611db6565b6040518581527fb56dc4096011ba5fd2e46e5c3e7b04dec423b5e7b5fce9a17a419d77c832177c90602001610cce565b600160a060020a038316600081815260036020818152604080842087855290915280832083815560018101805473ffffffffffffffffffffffffffffffffffffffff19908116909155600282018054909116905591820183905560049182019290925590517f42842e0e0000000000000000000000000000000000000000000000000000000081526342842e0e916117af9130918991889101612440565b600060405180830381600087803b1580156117c957600080fd5b505af11580156117dd573d6000803e3d6000fd5b50506040805188815260208101859052600160a060020a03881693507f012d66d656f295c1a84576b9b7f0a83474ed09578e80f7f1a715fb958e1d546392500160405180910390a25050505050565b600160a060020a038316600081815260036020818152604080842087855290915280832083815560018101805473ffffffffffffffffffffffffffffffffffffffff19908116909155600282018054909116905591820183905560049182019290925590517f42842e0e0000000000000000000000000000000000000000000000000000000081526342842e0e916118ca9130918691889101612440565b600060405180830381600087803b1580156118e457600080fd5b505af11580156118f8573d6000803e3d6000fd5b505050507f5152abf959f6564662358c2e52b702259b78bac5ee7842a0f01937e670efcc7d8460405161192d91815260200190565b60405180910390a150505050565b600061194685611ee7565b6040517f6352211e00000000000000000000000000000000000000000000000000000000815260048101869052909150600090600160a060020a03831690636352211e9060240160206040518083038186803b1580156119a557600080fd5b505afa1580156119b9573d6000803e3d6000fd5b505050506040513d601f19601f820116820180604052508101906119dd9190612246565b9050600160a060020a0381163314611a605760405160e560020a62461bcd02815260206004820152603360248201527f4d61726b6574706c6163653a204f6e6c7920746865206173736574206f776e6560448201527f722063616e20637265617465206f7264657273000000000000000000000000006064820152608401610445565b60008411611a835760405160e560020a62461bcd02815260040161044590612497565b611a8e42603c611daa565b8311611b2b5760405160e560020a62461bcd02815260206004820152604360248201527f4d61726b6574706c6163653a205075626c69636174696f6e2073686f756c642060448201527f6265206d6f7265207468616e2031206d696e75746520696e207468652066757460648201527f7572650000000000000000000000000000000000000000000000000000000000608482015260a401610445565b6040517f42842e0e000000000000000000000000000000000000000000000000000000008152600160a060020a038316906342842e0e90611b7490849030908a90600401612440565b600060405180830381600087803b158015611b8e57600080fd5b505af1158015611ba2573d6000803e3d6000fd5b5050604080514260208201526c01000000000000000000000000600160a060020a03808716820293830193909352918a16909102605482015260688101889052608881018790526000925060a80190506040516020818303038152906040528051906020012090506040518060a0016040528082815260200183600160a060020a0316815260200188600160a060020a03168152602001868152602001858152506003600089600160a060020a0316600160a060020a0316815260200190815260200160002060008881526020019081526020016000206000820151816000015560208201518160010160006101000a815481600160a060020a030219169083600160a060020a0316021790555060408201518160020160006101000a815481600160a060020a030219169083600160a060020a0316021790555060608201518160030155608082015181600401559050508587600160a060020a031683600160a060020a03167f3b8c4041eabe54c6d50899a3a79a85ff44abb0867c400f5a7c8d8a55a8488cd6848989604051611468939291909283526020830191909152604082015260600190565b60008054600160a060020a0383811673ffffffffffffffffffffffffffffffffffffffff19831681178455604051919092169283917f8be0079c531659141344cd1fd0a4f28419497f9722a3daafe3b4186f6b6457e09190a35050565b60006115c08284612595565b604051600160a060020a0383166024820152604481018290526108669084907fa9059cbb0000000000000000000000000000000000000000000000000000000090606401611610565b6000611e54826040518060400160405280602081526020017f5361666545524332303a206c6f772d6c6576656c2063616c6c206661696c656481525085600160a060020a03166120919092919063ffffffff16565b8051909150156108665780806020019051810190611e7291906123f0565b6108665760405160e560020a62461bcd02815260206004820152602a60248201527f5361666545524332303a204552433230206f7065726174696f6e20646964206e60448201527f6f742073756363656564000000000000000000000000000000000000000000006064820152608401610445565b6000600160a060020a0382163b611f685760405160e560020a62461bcd028152602060048201526024808201527f546865204e465420416464726573732073686f756c64206265206120636f6e7460448201527f72616374000000000000000000000000000000000000000000000000000000006064820152608401610445565b6040517f01ffc9a70000000000000000000000000000000000000000000000000000000081527f80ac58cd000000000000000000000000000000000000000000000000000000006004820152600160a060020a038316906301ffc9a79060240160206040518083038186803b158015611fe057600080fd5b505afa158015611ff4573d6000803e3d6000fd5b505050506040513d601f19601f8201168201806040525081019061201891906123f0565b61208d5760405160e560020a62461bcd02815260206004820152603560248201527f546865204e465420636f6e74726163742068617320616e20696e76616c69642060448201527f45524337323120696d706c656d656e746174696f6e00000000000000000000006064820152608401610445565b5090565b60606120a084846000856120a8565b949350505050565b606030318311156121245760405160e560020a62461bcd02815260206004820152602660248201527f416464726573733a20696e73756666696369656e742062616c616e636520666f60448201527f722063616c6c00000000000000000000000000000000000000000000000000006064820152608401610445565b843b6121755760405160e560020a62461bcd02815260206004820152601d60248201527f416464726573733a2063616c6c20746f206e6f6e2d636f6e74726163740000006044820152606401610445565b60008086600160a060020a031685876040516121919190612424565b60006040518083038185875af1925050503d80600081146121ce576040519150601f19603f3d011682016040523d82523d6000602084013e6121d3565b606091505b50915091506121e38282866121ee565b979650505050505050565b606083156121fd5750816115c0565b82511561220d5782518084602001fd5b8160405160e560020a62461bcd0281526004016104459190612464565b60006020828403121561223b578081fd5b81356115c0816126a6565b600060208284031215612257578081fd5b81516115c0816126a6565b60008060008060808587031215612277578283fd5b8435612282816126a6565b93506020850135612292816126a6565b925060408501359150606085013567ffffffffffffffff808211156122b5578283fd5b818701915087601f8301126122c8578283fd5b8135818111156122da576122da612677565b604051601f8201601f19908116603f0116810190838211818310171561230257612302612677565b816040528281528a602084870101111561231a578586fd5b82602086016020830137918201602001949094529598949750929550505050565b6000806040838503121561234d578182fd5b8235612358816126a6565b946020939093013593505050565b60008060006060848603121561237a578283fd5b8335612385816126a6565b95602085013595506040909401359392505050565b600080600080608085870312156123af578384fd5b84356123ba816126a6565b966020860135965060408601359560600135945092505050565b6000602082840312156123e5578081fd5b81356115c0816126bb565b600060208284031215612401578081fd5b81516115c0816126bb565b60006020828403121561241d578081fd5b5035919050565b6000825161243681846020870161261c565b9190910192915050565b600160a060020a039384168152919092166020820152604081019190915260600190565b602081526000825180602084015261248381604085016020870161261c565b601f01601f19169190910160400192915050565b6020808252602a908201527f4d61726b6574706c6163653a2050726963652073686f756c642062652062696760408201527f676572207468616e203000000000000000000000000000000000000000000000606082015260800190565b60208082526010908201527f5061757361626c653a2070617573656400000000000000000000000000000000604082015260600190565b6020808252818101527f4d61726b6574706c6163653a20756e617574686f72697a65642073656e646572604082015260600190565b6020808252818101527f4f776e61626c653a2063616c6c6572206973206e6f7420746865206f776e6572604082015260600190565b600082198211156125a8576125a8612648565b500190565b6000826125e1577f4e487b710000000000000000000000000000000000000000000000000000000081526012600452602481fd5b500490565b600081600019048311821515161561260057612600612648565b500290565b60008282101561261757612617612648565b500390565b60005b8381101561263757818101518382015260200161261f565b838111156105825750506000910152565b7f4e487b7100000000000000000000000000000000000000000000000000000000600052601160045260246000fd5b7f4e487b7100000000000000000000000000000000000000000000000000000000600052604160045260246000fd5b600160a060020a038116811461045b57600080fd5b801515811461045b57600080fdfea26469706673582212203a97f5704ac2696469b86eb211585699cc60845bf4c97db89945580d7bb6d1e564736f6c63430008040033",
  "immutableReferences": {},
  "source": "// SPDX-License-Identifier: MIT\npragma solidity ^0.8.0;\n\nimport \"@openzeppelin/contracts/access/Ownable.sol\";\nimport \"@openzeppelin/contracts/utils/math/SafeMath.sol\";\n\nimport \"@openzeppelin/contracts/utils/Address.sol\";\nimport \"@openzeppelin/contracts/security/Pausable.sol\";\n\nimport \"@openzeppelin/contracts/token/ERC721/utils/ERC721Holder.sol\";\nimport \"@openzeppelin/contracts/token/ERC20/utils/SafeERC20.sol\";\n\nimport \"@openzeppelin/contracts/token/ERC721/IERC721.sol\";\nimport \"./interfaces/ITrustMarketplace.sol\";\nimport \"./FeeManager.sol\";\n\n\ncontract TrustMarketplace is Ownable, Pausable, FeeManager, ITrustMarketplace, ERC721Holder {\n\n    using Address for address;\n    using SafeMath for uint256;\n    using SafeERC20 for IERC20;\n\n    IERC20 public acceptedToken;\n\n    // From ERC721 registry assetId to Order (to avoid asset collision)\n    mapping(address => mapping(uint256 => Order)) public orderByAssetId;\n\n    // From ERC721 registry assetId to Bid (to avoid asset collision)\n    mapping(address => mapping(uint256 => Bid)) public bidByOrderId;\n\n    // 721 Interfaces\n    bytes4 public constant _INTERFACE_ID_ERC721 = 0x80ac58cd;\n\n    /**\n     * @dev Initialize this contract. Acts as a constructor\n     * @param _acceptedToken - currency for payments\n     */\n    constructor(address _acceptedToken) Ownable() {\n        require(\n            _acceptedToken.isContract(),\n            \"The accepted token address must be a deployed contract\"\n        );\n        acceptedToken = IERC20(_acceptedToken);\n    }\n\n    /**\n     * @dev Sets the paused failsafe. Can only be called by owner\n     * @param _setPaused - paused state\n     */\n    function setPaused(bool _setPaused) public onlyOwner {\n        return (_setPaused) ? _pause() : _unpause();\n    }\n\n    /**\n     * @dev Creates a new order\n     * @param _nftAddress - Non fungible registry address\n     * @param _assetId - ID of the published NFT\n     * @param _priceInWei - Price in Wei for the supported coin\n     * @param _expiresAt - Duration of the order (in hours)\n     */\n    function createOrder(\n        address _nftAddress,\n        uint256 _assetId,\n        uint256 _priceInWei,\n        uint256 _expiresAt\n    )\n        public whenNotPaused\n    {\n        _createOrder(_nftAddress, _assetId, _priceInWei, _expiresAt);\n    }\n\n\n    /**\n     * @dev Cancel an already published order\n     *  can only be canceled by seller or the contract owner\n     * @param _nftAddress - Address of the NFT registry\n     * @param _assetId - ID of the published NFT\n     */\n    function cancelOrder(\n        address _nftAddress,\n        uint256 _assetId\n    )\n        public whenNotPaused\n    {\n        Order memory order = orderByAssetId[_nftAddress][_assetId];\n\n        require(\n            order.seller == msg.sender || msg.sender == owner(),\n            \"Marketplace: unauthorized sender\"\n        );\n\n        // Remove pending bid if any\n        Bid memory bid = bidByOrderId[_nftAddress][_assetId];\n\n        if (bid.id != 0) {\n            _cancelBid(\n                bid.id,\n                _nftAddress,\n                _assetId,\n                bid.bidder,\n                bid.price\n            );\n        }\n\n        // Cancel order.\n        _cancelOrder(\n            order.id,\n            _nftAddress,\n            _assetId,\n            msg.sender\n        );\n    }\n\n\n    /**\n     * @dev Update an already published order\n     *  can only be updated by seller\n     * @param _nftAddress - Address of the NFT registry\n     * @param _assetId - ID of the published NFT\n     */\n    function updateOrder(\n        address _nftAddress,\n        uint256 _assetId,\n        uint256 _priceInWei,\n        uint256 _expiresAt\n    )\n        public whenNotPaused\n    {\n        Order memory order = orderByAssetId[_nftAddress][_assetId];\n\n        // Check valid order to update\n        require(order.id != 0, \"Marketplace: asset not published\");\n        require(order.seller == msg.sender, \"Marketplace: sender not allowed\");\n        require(order.expiresAt >= block.timestamp, \"Marketplace: order expired\");\n\n        // check order updated params\n        require(_priceInWei > 0, \"Marketplace: Price should be bigger than 0\");\n        require(\n            _expiresAt > block.timestamp.add(1 minutes),\n            \"Marketplace: Expire time should be more than 1 minute in the future\"\n        );\n\n        order.price = _priceInWei;\n        order.expiresAt = _expiresAt;\n\n        emit OrderUpdated(order.id, _priceInWei, _expiresAt);\n    }\n\n\n    /**\n     * @dev Executes the sale for a published NFT and checks for the asset fingerprint\n     * @param _nftAddress - Address of the NFT registry\n     * @param _assetId - ID of the published NFT\n     * @param _priceInWei - Order price\n     */\n    function safeExecuteOrder(\n        address _nftAddress,\n        uint256 _assetId,\n        uint256 _priceInWei\n    )\n        public whenNotPaused\n    {\n        // Get the current valid order for the asset or fail\n        Order memory order = _getValidOrder(\n            _nftAddress,\n            _assetId\n        );\n\n        /// Check the execution price matches the order price\n        require(order.price == _priceInWei, \"Marketplace: invalid price\");\n        require(order.seller != msg.sender, \"Marketplace: unauthorized sender\");\n\n        // market fee to cut\n        uint256 saleShareAmount = 0;\n\n        // Send market fees to owner\n        if (FeeManager.cutPerMillion > 0) {\n            // Calculate sale share\n            saleShareAmount = _priceInWei\n                .mul(FeeManager.cutPerMillion)\n                .div(1e6);\n\n            // Transfer share amount for marketplace Owner\n            acceptedToken.safeTransferFrom(\n                msg.sender, //buyer\n                owner(),\n                saleShareAmount\n            );\n        }\n\n        // Transfer accepted token amount minus market fee to seller\n        acceptedToken.safeTransferFrom(\n            msg.sender, // buyer\n            order.seller, // seller\n            order.price.sub(saleShareAmount)\n        );\n\n        // Remove pending bid if any\n        Bid memory bid = bidByOrderId[_nftAddress][_assetId];\n\n        if (bid.id != 0) {\n            _cancelBid(\n                bid.id,\n                _nftAddress,\n                _assetId,\n                bid.bidder,\n                bid.price\n            );\n        }\n\n        _executeOrder(\n            order.id,\n            msg.sender, // buyer\n            _nftAddress,\n            _assetId,\n            _priceInWei\n        );\n    }\n\n\n    /**\n     * @dev Places a bid for a published NFT and checks for the asset fingerprint\n     * @param _nftAddress - Address of the NFT registry\n     * @param _assetId - ID of the published NFT\n     * @param _priceInWei - Bid price in acceptedToken currency\n     * @param _expiresAt - Bid expiration time\n     */\n    function safePlaceBid(\n        address _nftAddress,\n        uint256 _assetId,\n        uint256 _priceInWei,\n        uint256 _expiresAt\n    )\n        public whenNotPaused\n    {\n        _createBid(\n            _nftAddress,\n            _assetId,\n            _priceInWei,\n            _expiresAt\n        );\n    }\n\n\n    /**\n     * @dev Cancel an already published bid\n     *  can only be canceled by seller or the contract owner\n     * @param _nftAddress - Address of the NFT registry\n     * @param _assetId - ID of the published NFT\n     */\n    function cancelBid(\n        address _nftAddress,\n        uint256 _assetId\n    )\n        public whenNotPaused\n    {\n        Bid memory bid = bidByOrderId[_nftAddress][_assetId];\n\n        require(\n            bid.bidder == msg.sender || msg.sender == owner(),\n            \"Marketplace: Unauthorized sender\"\n        );\n\n        _cancelBid(\n            bid.id,\n            _nftAddress,\n            _assetId,\n            bid.bidder,\n            bid.price\n        );\n    }\n\n\n    /**\n     * @dev Executes the sale for a published NFT by accepting a current bid\n     * @param _nftAddress - Address of the NFT registry\n     * @param _assetId - ID of the published NFT\n     * @param _priceInWei - Bid price in wei in acceptedTokens currency\n     */\n    function acceptBid(\n        address _nftAddress,\n        uint256 _assetId,\n        uint256 _priceInWei\n    )\n        public whenNotPaused\n    {\n        // check order validity\n        Order memory order = _getValidOrder(_nftAddress, _assetId);\n\n        // item seller is the only allowed to accept a bid\n        require(order.seller == msg.sender, \"Marketplace: unauthorized sender\");\n\n        Bid memory bid = bidByOrderId[_nftAddress][_assetId];\n\n        require(bid.price == _priceInWei, \"Marketplace: invalid bid price\");\n        require(bid.expiresAt >= block.timestamp, \"Marketplace: the bid expired\");\n\n        // remove bid\n        delete bidByOrderId[_nftAddress][_assetId];\n\n        emit BidAccepted(bid.id);\n\n        // calc market fees\n        uint256 saleShareAmount = bid.price\n            .mul(FeeManager.cutPerMillion)\n            .div(1e6);\n\n        // transfer escrowed bid amount minus market fee to seller\n        acceptedToken.safeTransfer(\n            bid.bidder,\n            bid.price.sub(saleShareAmount)\n        );\n\n        _executeOrder(\n            order.id,\n            bid.bidder,\n            _nftAddress,\n            _assetId,\n            _priceInWei\n        );\n    }\n\n\n    /**\n     * @dev Internal function gets Order by nftRegistry and assetId. Checks for the order validity\n     * @param _nftAddress - Address of the NFT registry\n     * @param _assetId - ID of the published NFT\n     */\n    function _getValidOrder(\n        address _nftAddress,\n        uint256 _assetId\n    )\n        internal view returns (Order memory order)\n    {\n        order = orderByAssetId[_nftAddress][_assetId];\n\n        require(order.id != 0, \"Marketplace: asset not published\");\n        require(order.expiresAt >= block.timestamp, \"Marketplace: order expired\");\n    }\n\n\n    /**\n     * @dev Executes the sale for a published NFT\n     * @param _orderId - Order Id to execute\n     * @param _buyer - address\n     * @param _nftAddress - Address of the NFT registry\n     * @param _assetId - NFT id\n     * @param _priceInWei - Order price\n     */\n    function _executeOrder(\n        bytes32 _orderId,\n        address _buyer,\n        address _nftAddress,\n        uint256 _assetId,\n        uint256 _priceInWei\n    )\n        internal\n    {\n        // remove order\n        delete orderByAssetId[_nftAddress][_assetId];\n\n        // Transfer NFT asset\n        IERC721(_nftAddress).safeTransferFrom(\n            address(this),\n            _buyer,\n            _assetId\n        );\n\n        // Notify ..\n        emit OrderSuccessful(\n            _orderId,\n            _buyer,\n            _priceInWei\n        );\n    }\n\n\n    /**\n     * @dev Creates a new order\n     * @param _nftAddress - Non fungible registry address\n     * @param _assetId - ID of the published NFT\n     * @param _priceInWei - Price in Wei for the supported coin\n     * @param _expiresAt - Expiration time for the order\n     */\n    function _createOrder(\n        address _nftAddress,\n        uint256 _assetId,\n        uint256 _priceInWei,\n        uint256 _expiresAt\n    )\n        internal\n    {\n        // Check nft registry\n        IERC721 nftRegistry = _requireERC721(_nftAddress);\n\n        // Check order creator is the asset owner\n        address assetOwner = nftRegistry.ownerOf(_assetId);\n\n        require(\n            assetOwner == msg.sender,\n            \"Marketplace: Only the asset owner can create orders\"\n        );\n\n        require(_priceInWei > 0, \"Marketplace: Price should be bigger than 0\");\n\n        require(\n            _expiresAt > block.timestamp.add(1 minutes),\n            \"Marketplace: Publication should be more than 1 minute in the future\"\n        );\n\n        // get NFT asset from seller\n        nftRegistry.safeTransferFrom(\n            assetOwner,\n            address(this),\n            _assetId\n        );\n\n        // create the orderId\n        bytes32 orderId = keccak256(\n            abi.encodePacked(\n                block.timestamp,\n                assetOwner,\n                _nftAddress,\n                _assetId,\n                _priceInWei\n            )\n        );\n\n        // save order\n        orderByAssetId[_nftAddress][_assetId] = Order({\n            id: orderId,\n            seller: assetOwner,\n            nftAddress: _nftAddress,\n            price: _priceInWei,\n            expiresAt: _expiresAt\n        });\n\n        emit OrderCreated(\n            orderId,\n            assetOwner,\n            _nftAddress,\n            _assetId,\n            _priceInWei,\n            _expiresAt\n        );\n    }\n\n\n    /**\n     * @dev Creates a new bid on a existing order\n     * @param _nftAddress - Non fungible registry address\n     * @param _assetId - ID of the published NFT\n     * @param _priceInWei - Price in Wei for the supported coin\n     * @param _expiresAt - expires time\n     */\n    function _createBid(\n        address _nftAddress,\n        uint256 _assetId,\n        uint256 _priceInWei,\n        uint256 _expiresAt\n    )\n        internal\n    {\n        // Checks order validity\n        Order memory order = _getValidOrder(_nftAddress, _assetId);\n\n        // check on expire time\n        if (_expiresAt > order.expiresAt) {\n            _expiresAt = order.expiresAt;\n        }\n\n        // Check price if theres previous a bid\n        Bid memory bid = bidByOrderId[_nftAddress][_assetId];\n\n        // if theres no previous bid, just check price > 0\n        if (bid.id != 0) {\n            if (bid.expiresAt >= block.timestamp) {\n                require(\n                    _priceInWei > bid.price,\n                    \"Marketplace: bid price should be higher than last bid\"\n                );\n\n            } else {\n                require(_priceInWei > 0, \"Marketplace: bid should be > 0\");\n            }\n\n            _cancelBid(\n                bid.id,\n                _nftAddress,\n                _assetId,\n                bid.bidder,\n                bid.price\n            );\n\n        } else {\n            require(_priceInWei > 0, \"Marketplace: bid should be > 0\");\n        }\n\n        // Transfer sale amount from bidder to escrow\n        acceptedToken.safeTransferFrom(\n            msg.sender, // bidder\n            address(this),\n            _priceInWei\n        );\n\n        // Create bid\n        bytes32 bidId = keccak256(\n            abi.encodePacked(\n                block.timestamp,\n                msg.sender,\n                order.id,\n                _priceInWei,\n                _expiresAt\n            )\n        );\n\n        // Save Bid for this order\n        bidByOrderId[_nftAddress][_assetId] = Bid({\n            id: bidId,\n            bidder: msg.sender,\n            price: _priceInWei,\n            expiresAt: _expiresAt\n        });\n\n        emit BidCreated(\n            bidId,\n            _nftAddress,\n            _assetId,\n            msg.sender, // bidder\n            _priceInWei,\n            _expiresAt\n        );\n    }\n\n\n    /**\n     * @dev Cancel an already published order\n     *  can only be canceled by seller or the contract owner\n     * @param _orderId - Bid identifier\n     * @param _nftAddress - Address of the NFT registry\n     * @param _assetId - ID of the published NFT\n     * @param _seller - Address\n     */\n    function _cancelOrder(\n        bytes32 _orderId,\n        address _nftAddress,\n        uint256 _assetId,\n        address _seller\n    )\n        internal\n    {\n        delete orderByAssetId[_nftAddress][_assetId];\n\n        /// send asset back to seller\n        IERC721(_nftAddress).safeTransferFrom(\n            address(this),\n            _seller,\n            _assetId\n        );\n\n        emit OrderCancelled(_orderId);\n    }\n\n\n    /**\n     * @dev Cancel bid from an already published order\n     *  can only be canceled by seller or the contract owner\n     * @param _bidId - Bid identifier\n     * @param _nftAddress - registry address\n     * @param _assetId - ID of the published NFT\n     * @param _bidder - Address\n     * @param _escrowAmount - in acceptenToken currency\n     */\n    function _cancelBid(\n        bytes32 _bidId,\n        address _nftAddress,\n        uint256 _assetId,\n        address _bidder,\n        uint256 _escrowAmount\n    )\n        internal\n    {\n        delete bidByOrderId[_nftAddress][_assetId];\n\n        // return escrow to canceled bidder\n        acceptedToken.safeTransfer(\n            _bidder,\n            _escrowAmount\n        );\n\n        emit BidCancelled(_bidId);\n    }\n\n\n    function _requireERC721(address _nftAddress) internal view returns (IERC721) {\n        require(\n            _nftAddress.isContract(),\n            \"The NFT Address should be a contract\"\n        );\n        require(\n            IERC721(_nftAddress).supportsInterface(_INTERFACE_ID_ERC721),\n            \"The NFT contract has an invalid ERC721 implementation\"\n        );\n        return IERC721(_nftAddress);\n    }\n}",
  "sourcePath": "/Users/tuminfei/Code/Nodejs/uniarts-eth-dao/contracts/core/TrustMarketplace.sol",
  "compiler": {
    "name": "solc",
    "version": "0.8.4+commit.c7e474f2.Emscripten.clang"
  },
  "schemaVersion": "3.3.0",
  "updatedAt": "2021-09-14T02:31:16.228Z",
  "devdoc": {
    "kind": "dev",
    "methods": {
      "acceptBid(address,uint256,uint256)": {
        "details": "Executes the sale for a published NFT by accepting a current bid",
        "params": {
          "_assetId": "- ID of the published NFT",
          "_nftAddress": "- Address of the NFT registry",
          "_priceInWei": "- Bid price in wei in acceptedTokens currency"
        }
      },
      "cancelBid(address,uint256)": {
        "details": "Cancel an already published bid  can only be canceled by seller or the contract owner",
        "params": {
          "_assetId": "- ID of the published NFT",
          "_nftAddress": "- Address of the NFT registry"
        }
      },
      "cancelOrder(address,uint256)": {
        "details": "Cancel an already published order  can only be canceled by seller or the contract owner",
        "params": {
          "_assetId": "- ID of the published NFT",
          "_nftAddress": "- Address of the NFT registry"
        }
      },
      "constructor": {
        "details": "Initialize this contract. Acts as a constructor",
        "params": {
          "_acceptedToken": "- currency for payments"
        }
      },
      "createOrder(address,uint256,uint256,uint256)": {
        "details": "Creates a new order",
        "params": {
          "_assetId": "- ID of the published NFT",
          "_expiresAt": "- Duration of the order (in hours)",
          "_nftAddress": "- Non fungible registry address",
          "_priceInWei": "- Price in Wei for the supported coin"
        }
      },
      "onERC721Received(address,address,uint256,bytes)": {
        "details": "See {IERC721Receiver-onERC721Received}. Always returns `IERC721Receiver.onERC721Received.selector`."
      },
      "owner()": {
        "details": "Returns the address of the current owner."
      },
      "paused()": {
        "details": "Returns true if the contract is paused, and false otherwise."
      },
      "renounceOwnership()": {
        "details": "Leaves the contract without owner. It will not be possible to call `onlyOwner` functions anymore. Can only be called by the current owner. NOTE: Renouncing ownership will leave the contract without an owner, thereby removing any functionality that is only available to the owner."
      },
      "safeExecuteOrder(address,uint256,uint256)": {
        "details": "Executes the sale for a published NFT and checks for the asset fingerprint",
        "params": {
          "_assetId": "- ID of the published NFT",
          "_nftAddress": "- Address of the NFT registry",
          "_priceInWei": "- Order price"
        }
      },
      "safePlaceBid(address,uint256,uint256,uint256)": {
        "details": "Places a bid for a published NFT and checks for the asset fingerprint",
        "params": {
          "_assetId": "- ID of the published NFT",
          "_expiresAt": "- Bid expiration time",
          "_nftAddress": "- Address of the NFT registry",
          "_priceInWei": "- Bid price in acceptedToken currency"
        }
      },
      "setOwnerCutPerMillion(uint256)": {
        "details": "Sets the share cut for the owner of the contract that's  charged to the seller on a successful sale",
        "params": {
          "_cutPerMillion": "- Share amount, from 0 to 99,999"
        }
      },
      "setPaused(bool)": {
        "details": "Sets the paused failsafe. Can only be called by owner",
        "params": {
          "_setPaused": "- paused state"
        }
      },
      "transferOwnership(address)": {
        "details": "Transfers ownership of the contract to a new account (`newOwner`). Can only be called by the current owner."
      },
      "updateOrder(address,uint256,uint256,uint256)": {
        "details": "Update an already published order  can only be updated by seller",
        "params": {
          "_assetId": "- ID of the published NFT",
          "_nftAddress": "- Address of the NFT registry"
        }
      }
    },
    "version": 1
  },
  "userdoc": {
    "kind": "user",
    "methods": {},
    "version": 1
  }
}