{
  "contractName": "TrustMarketplace",
  "abi": [
    {
      "inputs": [
        {
          "internalType": "address",
          "name": "_acceptedToken",
          "type": "address"
        }
      ],
      "stateMutability": "nonpayable",
      "type": "constructor"
    },
    {
      "anonymous": false,
      "inputs": [
        {
          "indexed": false,
          "internalType": "bytes32",
          "name": "id",
          "type": "bytes32"
        }
      ],
      "name": "BidAccepted",
      "type": "event"
    },
    {
      "anonymous": false,
      "inputs": [
        {
          "indexed": false,
          "internalType": "bytes32",
          "name": "id",
          "type": "bytes32"
        }
      ],
      "name": "BidCancelled",
      "type": "event"
    },
    {
      "anonymous": false,
      "inputs": [
        {
          "indexed": false,
          "internalType": "bytes32",
          "name": "id",
          "type": "bytes32"
        },
        {
          "indexed": true,
          "internalType": "address",
          "name": "nftAddress",
          "type": "address"
        },
        {
          "indexed": true,
          "internalType": "uint256",
          "name": "assetId",
          "type": "uint256"
        },
        {
          "indexed": true,
          "internalType": "address",
          "name": "bidder",
          "type": "address"
        },
        {
          "indexed": false,
          "internalType": "uint256",
          "name": "priceInWei",
          "type": "uint256"
        },
        {
          "indexed": false,
          "internalType": "uint256",
          "name": "expiresAt",
          "type": "uint256"
        }
      ],
      "name": "BidCreated",
      "type": "event"
    },
    {
      "anonymous": false,
      "inputs": [
        {
          "indexed": false,
          "internalType": "uint256",
          "name": "cutPerMillion",
          "type": "uint256"
        }
      ],
      "name": "ChangedFeePerMillion",
      "type": "event"
    },
    {
      "anonymous": false,
      "inputs": [
        {
          "indexed": false,
          "internalType": "bytes32",
          "name": "id",
          "type": "bytes32"
        }
      ],
      "name": "OrderCancelled",
      "type": "event"
    },
    {
      "anonymous": false,
      "inputs": [
        {
          "indexed": false,
          "internalType": "bytes32",
          "name": "id",
          "type": "bytes32"
        },
        {
          "indexed": true,
          "internalType": "address",
          "name": "seller",
          "type": "address"
        },
        {
          "indexed": true,
          "internalType": "address",
          "name": "nftAddress",
          "type": "address"
        },
        {
          "indexed": true,
          "internalType": "uint256",
          "name": "assetId",
          "type": "uint256"
        },
        {
          "indexed": false,
          "internalType": "uint256",
          "name": "priceInWei",
          "type": "uint256"
        },
        {
          "indexed": false,
          "internalType": "uint256",
          "name": "expiresAt",
          "type": "uint256"
        }
      ],
      "name": "OrderCreated",
      "type": "event"
    },
    {
      "anonymous": false,
      "inputs": [
        {
          "indexed": false,
          "internalType": "bytes32",
          "name": "id",
          "type": "bytes32"
        },
        {
          "indexed": true,
          "internalType": "address",
          "name": "buyer",
          "type": "address"
        },
        {
          "indexed": false,
          "internalType": "uint256",
          "name": "priceInWei",
          "type": "uint256"
        }
      ],
      "name": "OrderSuccessful",
      "type": "event"
    },
    {
      "anonymous": false,
      "inputs": [
        {
          "indexed": false,
          "internalType": "bytes32",
          "name": "id",
          "type": "bytes32"
        },
        {
          "indexed": false,
          "internalType": "uint256",
          "name": "priceInWei",
          "type": "uint256"
        },
        {
          "indexed": false,
          "internalType": "uint256",
          "name": "expiresAt",
          "type": "uint256"
        }
      ],
      "name": "OrderUpdated",
      "type": "event"
    },
    {
      "anonymous": false,
      "inputs": [
        {
          "indexed": true,
          "internalType": "address",
          "name": "previousOwner",
          "type": "address"
        },
        {
          "indexed": true,
          "internalType": "address",
          "name": "newOwner",
          "type": "address"
        }
      ],
      "name": "OwnershipTransferred",
      "type": "event"
    },
    {
      "anonymous": false,
      "inputs": [
        {
          "indexed": false,
          "internalType": "address",
          "name": "account",
          "type": "address"
        }
      ],
      "name": "Paused",
      "type": "event"
    },
    {
      "anonymous": false,
      "inputs": [
        {
          "indexed": false,
          "internalType": "address",
          "name": "account",
          "type": "address"
        }
      ],
      "name": "Unpaused",
      "type": "event"
    },
    {
      "inputs": [],
      "name": "_INTERFACE_ID_ERC721",
      "outputs": [
        {
          "internalType": "bytes4",
          "name": "",
          "type": "bytes4"
        }
      ],
      "stateMutability": "view",
      "type": "function"
    },
    {
      "inputs": [],
      "name": "acceptedToken",
      "outputs": [
        {
          "internalType": "contract IERC20",
          "name": "",
          "type": "address"
        }
      ],
      "stateMutability": "view",
      "type": "function"
    },
    {
      "inputs": [
        {
          "internalType": "address",
          "name": "",
          "type": "address"
        },
        {
          "internalType": "uint256",
          "name": "",
          "type": "uint256"
        }
      ],
      "name": "bidByOrderId",
      "outputs": [
        {
          "internalType": "bytes32",
          "name": "id",
          "type": "bytes32"
        },
        {
          "internalType": "address",
          "name": "bidder",
          "type": "address"
        },
        {
          "internalType": "uint256",
          "name": "price",
          "type": "uint256"
        },
        {
          "internalType": "uint256",
          "name": "expiresAt",
          "type": "uint256"
        }
      ],
      "stateMutability": "view",
      "type": "function"
    },
    {
      "inputs": [],
      "name": "cutPerMillion",
      "outputs": [
        {
          "internalType": "uint256",
          "name": "",
          "type": "uint256"
        }
      ],
      "stateMutability": "view",
      "type": "function"
    },
    {
      "inputs": [],
      "name": "maxCutPerMillion",
      "outputs": [
        {
          "internalType": "uint256",
          "name": "",
          "type": "uint256"
        }
      ],
      "stateMutability": "view",
      "type": "function"
    },
    {
      "inputs": [
        {
          "internalType": "address",
          "name": "",
          "type": "address"
        },
        {
          "internalType": "address",
          "name": "",
          "type": "address"
        },
        {
          "internalType": "uint256",
          "name": "",
          "type": "uint256"
        },
        {
          "internalType": "bytes",
          "name": "",
          "type": "bytes"
        }
      ],
      "name": "onERC721Received",
      "outputs": [
        {
          "internalType": "bytes4",
          "name": "",
          "type": "bytes4"
        }
      ],
      "stateMutability": "nonpayable",
      "type": "function"
    },
    {
      "inputs": [
        {
          "internalType": "address",
          "name": "",
          "type": "address"
        },
        {
          "internalType": "uint256",
          "name": "",
          "type": "uint256"
        }
      ],
      "name": "orderByAssetId",
      "outputs": [
        {
          "internalType": "bytes32",
          "name": "id",
          "type": "bytes32"
        },
        {
          "internalType": "address",
          "name": "seller",
          "type": "address"
        },
        {
          "internalType": "address",
          "name": "nftAddress",
          "type": "address"
        },
        {
          "internalType": "uint256",
          "name": "price",
          "type": "uint256"
        },
        {
          "internalType": "uint256",
          "name": "expiresAt",
          "type": "uint256"
        }
      ],
      "stateMutability": "view",
      "type": "function"
    },
    {
      "inputs": [],
      "name": "owner",
      "outputs": [
        {
          "internalType": "address",
          "name": "",
          "type": "address"
        }
      ],
      "stateMutability": "view",
      "type": "function"
    },
    {
      "inputs": [],
      "name": "paused",
      "outputs": [
        {
          "internalType": "bool",
          "name": "",
          "type": "bool"
        }
      ],
      "stateMutability": "view",
      "type": "function"
    },
    {
      "inputs": [],
      "name": "renounceOwnership",
      "outputs": [],
      "stateMutability": "nonpayable",
      "type": "function"
    },
    {
      "inputs": [
        {
          "internalType": "uint256",
          "name": "_cutPerMillion",
          "type": "uint256"
        }
      ],
      "name": "setOwnerCutPerMillion",
      "outputs": [],
      "stateMutability": "nonpayable",
      "type": "function"
    },
    {
      "inputs": [
        {
          "internalType": "address",
          "name": "newOwner",
          "type": "address"
        }
      ],
      "name": "transferOwnership",
      "outputs": [],
      "stateMutability": "nonpayable",
      "type": "function"
    },
    {
      "inputs": [
        {
          "internalType": "bool",
          "name": "_setPaused",
          "type": "bool"
        }
      ],
      "name": "setPaused",
      "outputs": [],
      "stateMutability": "nonpayable",
      "type": "function"
    },
    {
      "inputs": [
        {
          "internalType": "address",
          "name": "_nftAddress",
          "type": "address"
        },
        {
          "internalType": "uint256",
          "name": "_assetId",
          "type": "uint256"
        },
        {
          "internalType": "uint256",
          "name": "_priceInWei",
          "type": "uint256"
        },
        {
          "internalType": "uint256",
          "name": "_expiresAt",
          "type": "uint256"
        }
      ],
      "name": "createOrder",
      "outputs": [],
      "stateMutability": "nonpayable",
      "type": "function"
    },
    {
      "inputs": [
        {
          "internalType": "address",
          "name": "_nftAddress",
          "type": "address"
        },
        {
          "internalType": "uint256",
          "name": "_assetId",
          "type": "uint256"
        }
      ],
      "name": "cancelOrder",
      "outputs": [],
      "stateMutability": "nonpayable",
      "type": "function"
    },
    {
      "inputs": [
        {
          "internalType": "address",
          "name": "_nftAddress",
          "type": "address"
        },
        {
          "internalType": "uint256",
          "name": "_assetId",
          "type": "uint256"
        },
        {
          "internalType": "uint256",
          "name": "_priceInWei",
          "type": "uint256"
        },
        {
          "internalType": "uint256",
          "name": "_expiresAt",
          "type": "uint256"
        }
      ],
      "name": "updateOrder",
      "outputs": [],
      "stateMutability": "nonpayable",
      "type": "function"
    },
    {
      "inputs": [
        {
          "internalType": "address",
          "name": "_nftAddress",
          "type": "address"
        },
        {
          "internalType": "uint256",
          "name": "_assetId",
          "type": "uint256"
        },
        {
          "internalType": "uint256",
          "name": "_priceInWei",
          "type": "uint256"
        }
      ],
      "name": "safeExecuteOrder",
      "outputs": [],
      "stateMutability": "nonpayable",
      "type": "function"
    },
    {
      "inputs": [
        {
          "internalType": "address",
          "name": "_nftAddress",
          "type": "address"
        },
        {
          "internalType": "uint256",
          "name": "_assetId",
          "type": "uint256"
        },
        {
          "internalType": "uint256",
          "name": "_priceInWei",
          "type": "uint256"
        },
        {
          "internalType": "uint256",
          "name": "_expiresAt",
          "type": "uint256"
        }
      ],
      "name": "createBid",
      "outputs": [],
      "stateMutability": "nonpayable",
      "type": "function"
    },
    {
      "inputs": [
        {
          "internalType": "address",
          "name": "_nftAddress",
          "type": "address"
        },
        {
          "internalType": "uint256",
          "name": "_assetId",
          "type": "uint256"
        },
        {
          "internalType": "uint256",
          "name": "_priceInWei",
          "type": "uint256"
        },
        {
          "internalType": "uint256",
          "name": "_expiresAt",
          "type": "uint256"
        }
      ],
      "name": "safePlaceBid",
      "outputs": [],
      "stateMutability": "nonpayable",
      "type": "function"
    },
    {
      "inputs": [
        {
          "internalType": "address",
          "name": "_nftAddress",
          "type": "address"
        },
        {
          "internalType": "uint256",
          "name": "_assetId",
          "type": "uint256"
        }
      ],
      "name": "cancelBid",
      "outputs": [],
      "stateMutability": "nonpayable",
      "type": "function"
    },
    {
      "inputs": [
        {
          "internalType": "address",
          "name": "_nftAddress",
          "type": "address"
        },
        {
          "internalType": "uint256",
          "name": "_assetId",
          "type": "uint256"
        },
        {
          "internalType": "uint256",
          "name": "_priceInWei",
          "type": "uint256"
        }
      ],
      "name": "acceptBid",
      "outputs": [],
      "stateMutability": "nonpayable",
      "type": "function"
    }
  ],
  "bytecode": "0x60806040523480156200001157600080fd5b5060405162002a5338038062002a5383398101604081905262000034916200019d565b6200005a6200004b64010000000062000143810204565b64010000000062000147810204565b6000805460a060020a60ff02191690556200008c600160a060020a038216640100000000620011646200019782021704565b6200011d576040517f08c379a000000000000000000000000000000000000000000000000000000000815260206004820152603660248201527f54686520616363657074656420746f6b656e2061646472657373206d7573742060448201527f62652061206465706c6f79656420636f6e747261637400000000000000000000606482015260840160405180910390fd5b60028054600160a060020a031916600160a060020a0392909216919091179055620001cd565b3390565b60008054600160a060020a03838116600160a060020a0319831681178455604051919092169283917f8be0079c531659141344cd1fd0a4f28419497f9722a3daafe3b4186f6b6457e09190a35050565b3b151590565b600060208284031215620001af578081fd5b8151600160a060020a0381168114620001c6578182fd5b9392505050565b61287680620001dd6000396000f3fe608060405234801561001057600080fd5b5060043610610154576000357c0100000000000000000000000000000000000000000000000000000000900480636a206137116100d5578063cd08bfe111610099578063cd08bfe1146102df578063cf7ce01f14610351578063dece685414610364578063e13a40f01461038b578063e61f38511461039e578063f2fde38b1461042357600080fd5b80636a206137146102965780636f652e1a146102a9578063715018a6146102bc5780638da5cb5b146102c4578063c555e050146102d557600080fd5b806339b6b1e51161011c57806339b6b1e514610211578063451c3d80146102245780635c1bce741461024f5780635c975abb14610262578063673c85531461027f57600080fd5b8063150b7a021461015957806316c38b3c146101c357806319dad16d146101d85780631d22da91146101eb57806338940b5b146101fe575b600080fd5b6101906101673660046123d9565b7f150b7a0200000000000000000000000000000000000000000000000000000000949350505050565b6040517bffffffffffffffffffffffffffffffffffffffffffffffffffffffff1990911681526020015b60405180910390f35b6101d66101d136600461254b565b610436565b005b6101d66101e6366004612583565b610484565b6101d66101f9366004612511565b610567565b6101d661020c3660046124dd565b6106dd565b6101d661021f3660046124b2565b6108b3565b60025461023790600160a060020a031681565b604051600160a060020a0390911681526020016101ba565b6101d661025d366004612511565b6109ba565b60005460a060020a900460ff1660405190151581526020016101ba565b61028860015481565b6040519081526020016101ba565b6101d66102a43660046124b2565b6109f9565b6101d66102b7366004612511565b610b42565b6101d6610b7b565b600054600160a060020a0316610237565b61028862030d4081565b6103296102ed3660046124b2565b600460209081526000928352604080842090915290825290208054600182015460028301546003909301549192600160a060020a039091169184565b60408051948552600160a060020a0390931660208501529183015260608201526080016101ba565b6101d661035f366004612511565b610bb4565b6101907f80ac58cd0000000000000000000000000000000000000000000000000000000081565b6101d66103993660046124dd565b610e6b565b6103ef6103ac3660046124b2565b60036020818152600093845260408085209091529183529120805460018201546002830154938301546004909301549193600160a060020a039182169391169185565b60408051958652600160a060020a03948516602087015292909316918401919091526060830152608082015260a0016101ba565b6101d66104313660046123a1565b6110af565b600054600160a060020a0316331461046c5760405160e560020a62461bcd028152600401610463906126d7565b60405180910390fd5b8061047c5761047961116a565b50565b610479611224565b600054600160a060020a031633146104b15760405160e560020a62461bcd028152600401610463906126d7565b62030d40811061052c5760405160e560020a62461bcd02815260206004820152603660248201527f546865206f776e6572206375742073686f756c64206265206265747765656e2060448201527f3020616e64206d61784375745065724d696c6c696f6e000000000000000000006064820152608401610463565b60018190556040518181527fdb629698afb23c88e17ec4d29f97b3907c3e1fbfd116fa15f97569c7c16b3e4d9060200160405180910390a150565b60005460a060020a900460ff16156105945760405160e560020a62461bcd0281526004016104639061266b565b6105a08484848461129d565b60006105ac85856115f4565b600160a060020a038681166000908152600460209081526040808320898452808352818420825160808101845281548152600182018054978816828701526002830180548387015260038401805460608501528e89529487529287905573ffffffffffffffffffffffffffffffffffffffff19909716909655849055929092558251915191825292935090917ff8c7d5572fa269efc040934ae7553d57f8906bffd616254bef0b94e2b569e416910160405180910390a1600061068b620f4240610685600154856040015161172f90919063ffffffff16565b90611742565b90506106bf83602001516106ac83856040015161174e90919063ffffffff16565b600254600160a060020a0316919061175a565b6106d483600001518360200151898989611800565b50505050505050565b60005460a060020a900460ff161561070a5760405160e560020a62461bcd0281526004016104639061266b565b600061071684846115f4565b90508181606001511461076e5760405160e560020a62461bcd02815260206004820152601a60248201527f4d61726b6574706c6163653a20696e76616c69642070726963650000000000006044820152606401610463565b6020810151600160a060020a031633141561079e5760405160e560020a62461bcd028152600401610463906126a2565b600154600090156107f1576107c5620f42406106856001548661172f90919063ffffffff16565b90506107f1336107dd600054600160a060020a031690565b600254600160a060020a031691908461191b565b61082533836020015161081184866060015161174e90919063ffffffff16565b600254600160a060020a031692919061191b565b600160a060020a038086166000908152600460209081526040808320888452825291829020825160808101845281548082526001830154909516928101929092526002810154928201929092526003909101546060820152901561089c5761089c8160000151878784602001518560400151611958565b82516108ab9033888888611800565b505050505050565b60005460a060020a900460ff16156108e05760405160e560020a62461bcd0281526004016104639061266b565b600160a060020a0380831660009081526004602090815260408083208584528252918290208251608081018452815481526001820154909416918401829052600281015492840192909252600390910154606083015233148061094d5750600054600160a060020a031633145b61099c5760405160e560020a62461bcd02815260206004820181905260248201527f4d61726b6574706c6163653a20556e617574686f72697a65642073656e6465726044820152606401610463565b6109b58160000151848484602001518560400151611958565b505050565b60005460a060020a900460ff16156109e75760405160e560020a62461bcd0281526004016104639061266b565b6109f38484848461129d565b50505050565b60005460a060020a900460ff1615610a265760405160e560020a62461bcd0281526004016104639061266b565b600160a060020a038083166000908152600360208181526040808420868552825292839020835160a08101855281548152600182015486169281018390526002820154909516938501939093529082015460608401526004909101546080830152331480610a9e5750600054600160a060020a031633145b610abd5760405160e560020a62461bcd028152600401610463906126a2565b600160a060020a0380841660009081526004602090815260408083208684528252918290208251608081018452815480825260018301549095169281019290925260028101549282019290925260039091015460608201529015610b3457610b348160000151858584602001518560400151611958565b81516109f3908585336119ec565b60005460a060020a900460ff1615610b6f5760405160e560020a62461bcd0281526004016104639061266b565b6109f384848484611afb565b600054600160a060020a03163314610ba85760405160e560020a62461bcd028152600401610463906126d7565b610bb26000611f0d565b565b60005460a060020a900460ff1615610be15760405160e560020a62461bcd0281526004016104639061266b565b600160a060020a038085166000908152600360208181526040808420888552825292839020835160a081018552815480825260018301548716938201939093526002820154909516938501939093529082015460608401526004909101546080830152610c935760405160e560020a62461bcd02815260206004820181905260248201527f4d61726b6574706c6163653a206173736574206e6f74207075626c69736865646044820152606401610463565b6020810151600160a060020a03163314610cf25760405160e560020a62461bcd02815260206004820152601f60248201527f4d61726b6574706c6163653a2073656e646572206e6f7420616c6c6f776564006044820152606401610463565b4281608001511015610d495760405160e560020a62461bcd02815260206004820152601a60248201527f4d61726b6574706c6163653a206f7264657220657870697265640000000000006044820152606401610463565b60008311610d6c5760405160e560020a62461bcd0281526004016104639061260e565b610d7742603c611f6a565b8211610e145760405160e560020a62461bcd02815260206004820152604360248201527f4d61726b6574706c6163653a204578706972652074696d652073686f756c642060448201527f6265206d6f7265207468616e2031206d696e75746520696e207468652066757460648201527f7572650000000000000000000000000000000000000000000000000000000000608482015260a401610463565b6060818101849052608082018390528151604080519182526020820186905281018490527f37de993802f8ab9c75f6d7d3065ba8ab95ce30051219b14251415925e68e0a4891015b60405180910390a15050505050565b60005460a060020a900460ff1615610e985760405160e560020a62461bcd0281526004016104639061266b565b6000610ea484846115f4565b6020810151909150600160a060020a03163314610ed65760405160e560020a62461bcd028152600401610463906126a2565b600160a060020a03808516600090815260046020908152604080832087845282529182902082516080810184528154815260018201549094169184019190915260028101549183018290526003015460608301528314610f7b5760405160e560020a62461bcd02815260206004820152601e60248201527f4d61726b6574706c6163653a20696e76616c69642062696420707269636500006044820152606401610463565b4281606001511015610fd25760405160e560020a62461bcd02815260206004820152601c60248201527f4d61726b6574706c6163653a20746865206269642065787069726564000000006044820152606401610463565b600160a060020a0385166000908152600460209081526040808320878452825280832083815560018101805473ffffffffffffffffffffffffffffffffffffffff191690556002810184905560030192909255825191519182527ff8c7d5572fa269efc040934ae7553d57f8906bffd616254bef0b94e2b569e416910160405180910390a16000611079620f4240610685600154856040015161172f90919063ffffffff16565b905061109a83602001516106ac83856040015161174e90919063ffffffff16565b6108ab83600001518360200151888888611800565b600054600160a060020a031633146110dc5760405160e560020a62461bcd028152600401610463906126d7565b600160a060020a03811661115b5760405160e560020a62461bcd02815260206004820152602660248201527f4f776e61626c653a206e6577206f776e657220697320746865207a65726f206160448201527f64647265737300000000000000000000000000000000000000000000000000006064820152608401610463565b61047981611f0d565b3b151590565b60005460a060020a900460ff166111c65760405160e560020a62461bcd02815260206004820152601460248201527f5061757361626c653a206e6f74207061757365640000000000000000000000006044820152606401610463565b6000805474ff0000000000000000000000000000000000000000191690557f5db9ee0a495bf2e6ff9c91a7834c1ba4fdd244a5e8aa4e537bd38aeae4b073aa335b604051600160a060020a03909116815260200160405180910390a1565b60005460a060020a900460ff16156112515760405160e560020a62461bcd0281526004016104639061266b565b6000805474ff0000000000000000000000000000000000000000191660a060020a1790557f62e78cea01bee320cd4e420270b5ea74000d11b0c9f74754ebdbfc544b05a2586112073390565b60006112a985856115f4565b905080608001518211156112bf57806080015191505b600160a060020a038086166000908152600460209081526040808320888452825291829020825160808101845281548082526001830154909516928101929092526002810154928201929092526003909101546060820152901561141a57428160600151106113a957806040015184116113a45760405160e560020a62461bcd02815260206004820152603560248201527f4d61726b6574706c6163653a206269642070726963652073686f756c6420626560448201527f20686967686572207468616e206c6173742062696400000000000000000000006064820152608401610463565b6113fc565b600084116113fc5760405160e560020a62461bcd02815260206004820152601e60248201527f4d61726b6574706c6163653a206269642073686f756c64206265203e203000006044820152606401610463565b6114158160000151878784602001518560400151611958565b61146d565b6000841161146d5760405160e560020a62461bcd02815260206004820152601e60248201527f4d61726b6574706c6163653a206269642073686f756c64206265203e203000006044820152606401610463565b60025461148590600160a060020a031633308761191b565b8151604080514260208201526c010000000000000000000000003302918101919091526054810191909152607481018590526094810184905260009060b401604051602081830303815290604052805190602001209050604051806080016040528082815260200133600160a060020a03168152602001868152602001858152506004600089600160a060020a0316600160a060020a0316815260200190815260200160002060008881526020019081526020016000206000820151816000015560208201518160010160006101000a815481600160a060020a030219169083600160a060020a03160217905550604082015181600201556060820151816003015590505033600160a060020a03168688600160a060020a03167fae7b5aee7763f3e7771076de8f7b61accb70ad42245fee23308e19c8bcd518e48489896040516115e3939291909283526020830191909152604082015260600190565b60405180910390a450505050505050565b6040805160a08101825260008082526020820181905291810182905260608101829052608081019190915250600160a060020a038083166000908152600360208181526040808420868552825292839020835160a0810185528154808252600183015487169382019390935260028201549095169385019390935290820154606084015260049091015460808301526116d25760405160e560020a62461bcd02815260206004820181905260248201527f4d61726b6574706c6163653a206173736574206e6f74207075626c69736865646044820152606401610463565b42816080015110156117295760405160e560020a62461bcd02815260206004820152601a60248201527f4d61726b6574706c6163653a206f7264657220657870697265640000000000006044820152606401610463565b92915050565b600061173b828461275d565b9392505050565b600061173b8284612724565b600061173b828461277c565b604051600160a060020a0383166024820152604481018290526109b59084907fa9059cbb00000000000000000000000000000000000000000000000000000000906064015b60408051601f198184030181529190526020810180517bffffffffffffffffffffffffffffffffffffffffffffffffffffffff167bffffffffffffffffffffffffffffffffffffffffffffffffffffffff1990931692909217909152611f76565b600160a060020a038316600081815260036020818152604080842087855290915280832083815560018101805473ffffffffffffffffffffffffffffffffffffffff19908116909155600282018054909116905591820183905560049182019290925590517f42842e0e0000000000000000000000000000000000000000000000000000000081526342842e0e9161189e91309189918891016125b7565b600060405180830381600087803b1580156118b857600080fd5b505af11580156118cc573d6000803e3d6000fd5b50506040805188815260208101859052600160a060020a03881693507f012d66d656f295c1a84576b9b7f0a83474ed09578e80f7f1a715fb958e1d546392500160405180910390a25050505050565b6109f3846323b872dd7c01000000000000000000000000000000000000000000000000000000000285858560405160240161179f939291906125b7565b600160a060020a038085166000908152600460209081526040808320878452909152812081815560018101805473ffffffffffffffffffffffffffffffffffffffff191690556002808201839055600390910191909155546119bc9116838361175a565b6040518581527fb56dc4096011ba5fd2e46e5c3e7b04dec423b5e7b5fce9a17a419d77c832177c90602001610e5c565b600160a060020a038316600081815260036020818152604080842087855290915280832083815560018101805473ffffffffffffffffffffffffffffffffffffffff19908116909155600282018054909116905591820183905560049182019290925590517f42842e0e0000000000000000000000000000000000000000000000000000000081526342842e0e91611a8a91309186918891016125b7565b600060405180830381600087803b158015611aa457600080fd5b505af1158015611ab8573d6000803e3d6000fd5b505050507f5152abf959f6564662358c2e52b702259b78bac5ee7842a0f01937e670efcc7d84604051611aed91815260200190565b60405180910390a150505050565b6000611b068561205e565b6040517f6352211e00000000000000000000000000000000000000000000000000000000815260048101869052909150600090600160a060020a03831690636352211e9060240160206040518083038186803b158015611b6557600080fd5b505afa158015611b79573d6000803e3d6000fd5b505050506040513d601f19601f82011682018060405250810190611b9d91906123bd565b9050600160a060020a0381163314611c205760405160e560020a62461bcd02815260206004820152603360248201527f4d61726b6574706c6163653a204f6e6c7920746865206173736574206f776e6560448201527f722063616e20637265617465206f7264657273000000000000000000000000006064820152608401610463565b60008411611c435760405160e560020a62461bcd0281526004016104639061260e565b611c4e42603c611f6a565b8311611ceb5760405160e560020a62461bcd02815260206004820152604360248201527f4d61726b6574706c6163653a205075626c69636174696f6e2073686f756c642060448201527f6265206d6f7265207468616e2031206d696e75746520696e207468652066757460648201527f7572650000000000000000000000000000000000000000000000000000000000608482015260a401610463565b6040517f42842e0e000000000000000000000000000000000000000000000000000000008152600160a060020a038316906342842e0e90611d3490849030908a906004016125b7565b600060405180830381600087803b158015611d4e57600080fd5b505af1158015611d62573d6000803e3d6000fd5b5050604080514260208201526c01000000000000000000000000600160a060020a03808716820293830193909352918a16909102605482015260688101889052608881018790526000925060a80190506040516020818303038152906040528051906020012090506040518060a0016040528082815260200183600160a060020a0316815260200188600160a060020a03168152602001868152602001858152506003600089600160a060020a0316600160a060020a0316815260200190815260200160002060008881526020019081526020016000206000820151816000015560208201518160010160006101000a815481600160a060020a030219169083600160a060020a0316021790555060408201518160020160006101000a815481600160a060020a030219169083600160a060020a0316021790555060608201518160030155608082015181600401559050508587600160a060020a031683600160a060020a03167f3b8c4041eabe54c6d50899a3a79a85ff44abb0867c400f5a7c8d8a55a8488cd68489896040516115e3939291909283526020830191909152604082015260600190565b60008054600160a060020a0383811673ffffffffffffffffffffffffffffffffffffffff19831681178455604051919092169283917f8be0079c531659141344cd1fd0a4f28419497f9722a3daafe3b4186f6b6457e09190a35050565b600061173b828461270c565b6000611fcb826040518060400160405280602081526020017f5361666545524332303a206c6f772d6c6576656c2063616c6c206661696c656481525085600160a060020a03166122089092919063ffffffff16565b8051909150156109b55780806020019051810190611fe99190612567565b6109b55760405160e560020a62461bcd02815260206004820152602a60248201527f5361666545524332303a204552433230206f7065726174696f6e20646964206e60448201527f6f742073756363656564000000000000000000000000000000000000000000006064820152608401610463565b6000600160a060020a0382163b6120df5760405160e560020a62461bcd028152602060048201526024808201527f546865204e465420416464726573732073686f756c64206265206120636f6e7460448201527f72616374000000000000000000000000000000000000000000000000000000006064820152608401610463565b6040517f01ffc9a70000000000000000000000000000000000000000000000000000000081527f80ac58cd000000000000000000000000000000000000000000000000000000006004820152600160a060020a038316906301ffc9a79060240160206040518083038186803b15801561215757600080fd5b505afa15801561216b573d6000803e3d6000fd5b505050506040513d601f19601f8201168201806040525081019061218f9190612567565b6122045760405160e560020a62461bcd02815260206004820152603560248201527f546865204e465420636f6e74726163742068617320616e20696e76616c69642060448201527f45524337323120696d706c656d656e746174696f6e00000000000000000000006064820152608401610463565b5090565b6060612217848460008561221f565b949350505050565b6060303183111561229b5760405160e560020a62461bcd02815260206004820152602660248201527f416464726573733a20696e73756666696369656e742062616c616e636520666f60448201527f722063616c6c00000000000000000000000000000000000000000000000000006064820152608401610463565b843b6122ec5760405160e560020a62461bcd02815260206004820152601d60248201527f416464726573733a2063616c6c20746f206e6f6e2d636f6e74726163740000006044820152606401610463565b60008086600160a060020a03168587604051612308919061259b565b60006040518083038185875af1925050503d8060008114612345576040519150601f19603f3d011682016040523d82523d6000602084013e61234a565b606091505b509150915061235a828286612365565b979650505050505050565b6060831561237457508161173b565b8251156123845782518084602001fd5b8160405160e560020a62461bcd02815260040161046391906125db565b6000602082840312156123b2578081fd5b813561173b8161281d565b6000602082840312156123ce578081fd5b815161173b8161281d565b600080600080608085870312156123ee578283fd5b84356123f98161281d565b935060208501356124098161281d565b925060408501359150606085013567ffffffffffffffff8082111561242c578283fd5b818701915087601f83011261243f578283fd5b813581811115612451576124516127ee565b604051601f8201601f19908116603f01168101908382118183101715612479576124796127ee565b816040528281528a6020848701011115612491578586fd5b82602086016020830137918201602001949094529598949750929550505050565b600080604083850312156124c4578182fd5b82356124cf8161281d565b946020939093013593505050565b6000806000606084860312156124f1578283fd5b83356124fc8161281d565b95602085013595506040909401359392505050565b60008060008060808587031215612526578384fd5b84356125318161281d565b966020860135965060408601359560600135945092505050565b60006020828403121561255c578081fd5b813561173b81612832565b600060208284031215612578578081fd5b815161173b81612832565b600060208284031215612594578081fd5b5035919050565b600082516125ad818460208701612793565b9190910192915050565b600160a060020a039384168152919092166020820152604081019190915260600190565b60208152600082518060208401526125fa816040850160208701612793565b601f01601f19169190910160400192915050565b6020808252602a908201527f4d61726b6574706c6163653a2050726963652073686f756c642062652062696760408201527f676572207468616e203000000000000000000000000000000000000000000000606082015260800190565b60208082526010908201527f5061757361626c653a2070617573656400000000000000000000000000000000604082015260600190565b6020808252818101527f4d61726b6574706c6163653a20756e617574686f72697a65642073656e646572604082015260600190565b6020808252818101527f4f776e61626c653a2063616c6c6572206973206e6f7420746865206f776e6572604082015260600190565b6000821982111561271f5761271f6127bf565b500190565b600082612758577f4e487b710000000000000000000000000000000000000000000000000000000081526012600452602481fd5b500490565b6000816000190483118215151615612777576127776127bf565b500290565b60008282101561278e5761278e6127bf565b500390565b60005b838110156127ae578181015183820152602001612796565b838111156109f35750506000910152565b7f4e487b7100000000000000000000000000000000000000000000000000000000600052601160045260246000fd5b7f4e487b7100000000000000000000000000000000000000000000000000000000600052604160045260246000fd5b600160a060020a038116811461047957600080fd5b801515811461047957600080fdfea2646970667358221220222ce41dff37b936bcd0f3e71bbdda27db9553f50bedc8a0fe26ad8a0b1114c164736f6c63430008040033",
  "immutableReferences": {},
  "source": "// SPDX-License-Identifier: MIT\npragma solidity ^0.8.0;\n\nimport \"@openzeppelin/contracts/access/Ownable.sol\";\nimport \"@openzeppelin/contracts/utils/math/SafeMath.sol\";\n\nimport \"@openzeppelin/contracts/utils/Address.sol\";\nimport \"@openzeppelin/contracts/security/Pausable.sol\";\n\nimport \"@openzeppelin/contracts/token/ERC721/utils/ERC721Holder.sol\";\nimport \"@openzeppelin/contracts/token/ERC20/utils/SafeERC20.sol\";\n\nimport \"@openzeppelin/contracts/token/ERC721/IERC721.sol\";\nimport \"./interfaces/ITrustMarketplace.sol\";\nimport \"./FeeManager.sol\";\n\n\ncontract TrustMarketplace is Ownable, Pausable, FeeManager, ITrustMarketplace, ERC721Holder {\n\n    using Address for address;\n    using SafeMath for uint256;\n    using SafeERC20 for IERC20;\n\n    IERC20 public acceptedToken;\n\n    // From ERC721 registry assetId to Order (to avoid asset collision)\n    mapping(address => mapping(uint256 => Order)) public orderByAssetId;\n\n    // From ERC721 registry assetId to Bid (to avoid asset collision)\n    mapping(address => mapping(uint256 => Bid)) public bidByOrderId;\n\n    // 721 Interfaces\n    bytes4 public constant _INTERFACE_ID_ERC721 = 0x80ac58cd;\n\n    /**\n     * @dev Initialize this contract. Acts as a constructor\n     * @param _acceptedToken - currency for payments\n     */\n    constructor(address _acceptedToken) Ownable() {\n        require(\n            _acceptedToken.isContract(),\n            \"The accepted token address must be a deployed contract\"\n        );\n        acceptedToken = IERC20(_acceptedToken);\n    }\n\n    /**\n     * @dev Sets the paused failsafe. Can only be called by owner\n     * @param _setPaused - paused state\n     */\n    function setPaused(bool _setPaused) public onlyOwner {\n        return (_setPaused) ? _pause() : _unpause();\n    }\n\n    /**\n     * @dev Creates a new order\n     * @param _nftAddress - Non fungible registry address\n     * @param _assetId - ID of the published NFT\n     * @param _priceInWei - Price in Wei for the supported coin\n     * @param _expiresAt - Duration of the order (in hours)\n     */\n    function createOrder(\n        address _nftAddress,\n        uint256 _assetId,\n        uint256 _priceInWei,\n        uint256 _expiresAt\n    )\n        public whenNotPaused\n    {\n        _createOrder(_nftAddress, _assetId, _priceInWei, _expiresAt);\n    }\n\n\n    /**\n     * @dev Cancel an already published order\n     *  can only be canceled by seller or the contract owner\n     * @param _nftAddress - Address of the NFT registry\n     * @param _assetId - ID of the published NFT\n     */\n    function cancelOrder(\n        address _nftAddress,\n        uint256 _assetId\n    )\n        public whenNotPaused\n    {\n        Order memory order = orderByAssetId[_nftAddress][_assetId];\n\n        require(\n            order.seller == msg.sender || msg.sender == owner(),\n            \"Marketplace: unauthorized sender\"\n        );\n\n        // Remove pending bid if any\n        Bid memory bid = bidByOrderId[_nftAddress][_assetId];\n\n        if (bid.id != 0) {\n            _cancelBid(\n                bid.id,\n                _nftAddress,\n                _assetId,\n                bid.bidder,\n                bid.price\n            );\n        }\n\n        // Cancel order.\n        _cancelOrder(\n            order.id,\n            _nftAddress,\n            _assetId,\n            msg.sender\n        );\n    }\n\n\n    /**\n     * @dev Update an already published order\n     *  can only be updated by seller\n     * @param _nftAddress - Address of the NFT registry\n     * @param _assetId - ID of the published NFT\n     */\n    function updateOrder(\n        address _nftAddress,\n        uint256 _assetId,\n        uint256 _priceInWei,\n        uint256 _expiresAt\n    )\n        public whenNotPaused\n    {\n        Order memory order = orderByAssetId[_nftAddress][_assetId];\n\n        // Check valid order to update\n        require(order.id != 0, \"Marketplace: asset not published\");\n        require(order.seller == msg.sender, \"Marketplace: sender not allowed\");\n        require(order.expiresAt >= block.timestamp, \"Marketplace: order expired\");\n\n        // check order updated params\n        require(_priceInWei > 0, \"Marketplace: Price should be bigger than 0\");\n        require(\n            _expiresAt > block.timestamp.add(1 minutes),\n            \"Marketplace: Expire time should be more than 1 minute in the future\"\n        );\n\n        order.price = _priceInWei;\n        order.expiresAt = _expiresAt;\n\n        emit OrderUpdated(order.id, _priceInWei, _expiresAt);\n    }\n\n\n    /**\n     * @dev Executes the sale for a published NFT and checks for the asset fingerprint\n     * @param _nftAddress - Address of the NFT registry\n     * @param _assetId - ID of the published NFT\n     * @param _priceInWei - Order price\n     */\n    function safeExecuteOrder(\n        address _nftAddress,\n        uint256 _assetId,\n        uint256 _priceInWei\n    )\n        public whenNotPaused\n    {\n        // Get the current valid order for the asset or fail\n        Order memory order = _getValidOrder(\n            _nftAddress,\n            _assetId\n        );\n\n        /// Check the execution price matches the order price\n        require(order.price == _priceInWei, \"Marketplace: invalid price\");\n        require(order.seller != msg.sender, \"Marketplace: unauthorized sender\");\n\n        // market fee to cut\n        uint256 saleShareAmount = 0;\n\n        // Send market fees to owner\n        if (FeeManager.cutPerMillion > 0) {\n            // Calculate sale share\n            saleShareAmount = _priceInWei\n                .mul(FeeManager.cutPerMillion)\n                .div(1e6);\n\n            // Transfer share amount for marketplace Owner\n            acceptedToken.safeTransferFrom(\n                msg.sender, //buyer\n                owner(),\n                saleShareAmount\n            );\n        }\n\n        // Transfer accepted token amount minus market fee to seller\n        acceptedToken.safeTransferFrom(\n            msg.sender, // buyer\n            order.seller, // seller\n            order.price.sub(saleShareAmount)\n        );\n\n        // Remove pending bid if any\n        Bid memory bid = bidByOrderId[_nftAddress][_assetId];\n\n        if (bid.id != 0) {\n            _cancelBid(\n                bid.id,\n                _nftAddress,\n                _assetId,\n                bid.bidder,\n                bid.price\n            );\n        }\n\n        _executeOrder(\n            order.id,\n            msg.sender, // buyer\n            _nftAddress,\n            _assetId,\n            _priceInWei\n        );\n    }\n\n\n    /**\n     * @dev Places a bid for a published NFT and checks for the asset fingerprint\n     * @param _nftAddress - Address of the NFT registry\n     * @param _assetId - ID of the published NFT\n     * @param _priceInWei - Bid price in acceptedToken currency\n     * @param _expiresAt - Bid expiration time\n     */\n    function createBid(\n        address _nftAddress,\n        uint256 _assetId,\n        uint256 _priceInWei,\n        uint256 _expiresAt\n    )\n        public whenNotPaused\n    {\n        _createBid(\n            _nftAddress,\n            _assetId,\n            _priceInWei,\n            _expiresAt\n        );\n    }\n\n    /**\n     * @dev Places a bid for a published NFT and checks for the asset fingerprint\n     * @param _nftAddress - Address of the NFT registry\n     * @param _assetId - ID of the published NFT\n     * @param _priceInWei - Bid price in acceptedToken currency\n     * @param _expiresAt - Bid expiration time\n     */\n    function safePlaceBid(\n        address _nftAddress,\n        uint256 _assetId,\n        uint256 _priceInWei,\n        uint256 _expiresAt\n    )\n        public whenNotPaused\n    {\n        _createBid(\n            _nftAddress,\n            _assetId,\n            _priceInWei,\n            _expiresAt\n        );\n\n        Order memory order = _getValidOrder(_nftAddress, _assetId);\n\n        Bid memory bid = bidByOrderId[_nftAddress][_assetId];\n\n        // remove bid\n        delete bidByOrderId[_nftAddress][_assetId];\n\n        emit BidAccepted(bid.id);\n\n        // calc market fees\n        uint256 saleShareAmount = bid.price\n            .mul(FeeManager.cutPerMillion)\n            .div(1e6);\n\n        // transfer escrowed bid amount minus market fee to seller\n        acceptedToken.safeTransfer(\n            order.seller,\n            bid.price.sub(saleShareAmount)\n        );\n\n        _executeOrder(\n            order.id,\n            bid.bidder,\n            _nftAddress,\n            _assetId,\n            _priceInWei\n        );\n    }\n\n\n    /**\n     * @dev Cancel an already published bid\n     *  can only be canceled by seller or the contract owner\n     * @param _nftAddress - Address of the NFT registry\n     * @param _assetId - ID of the published NFT\n     */\n    function cancelBid(\n        address _nftAddress,\n        uint256 _assetId\n    )\n        public whenNotPaused\n    {\n        Bid memory bid = bidByOrderId[_nftAddress][_assetId];\n\n        require(\n            bid.bidder == msg.sender || msg.sender == owner(),\n            \"Marketplace: Unauthorized sender\"\n        );\n\n        _cancelBid(\n            bid.id,\n            _nftAddress,\n            _assetId,\n            bid.bidder,\n            bid.price\n        );\n    }\n\n\n    /**\n     * @dev Executes the sale for a published NFT by accepting a current bid\n     * @param _nftAddress - Address of the NFT registry\n     * @param _assetId - ID of the published NFT\n     * @param _priceInWei - Bid price in wei in acceptedTokens currency\n     */\n    function acceptBid(\n        address _nftAddress,\n        uint256 _assetId,\n        uint256 _priceInWei\n    )\n        public whenNotPaused\n    {\n        // check order validity\n        Order memory order = _getValidOrder(_nftAddress, _assetId);\n\n        // item seller is the only allowed to accept a bid\n        require(order.seller == msg.sender, \"Marketplace: unauthorized sender\");\n\n        Bid memory bid = bidByOrderId[_nftAddress][_assetId];\n\n        require(bid.price == _priceInWei, \"Marketplace: invalid bid price\");\n        require(bid.expiresAt >= block.timestamp, \"Marketplace: the bid expired\");\n\n        // remove bid\n        delete bidByOrderId[_nftAddress][_assetId];\n\n        emit BidAccepted(bid.id);\n\n        // calc market fees\n        uint256 saleShareAmount = bid.price\n            .mul(FeeManager.cutPerMillion)\n            .div(1e6);\n\n        // transfer escrowed bid amount minus market fee to seller\n        acceptedToken.safeTransfer(\n            order.seller,\n            bid.price.sub(saleShareAmount)\n        );\n\n        _executeOrder(\n            order.id,\n            bid.bidder,\n            _nftAddress,\n            _assetId,\n            _priceInWei\n        );\n    }\n\n\n    /**\n     * @dev Internal function gets Order by nftRegistry and assetId. Checks for the order validity\n     * @param _nftAddress - Address of the NFT registry\n     * @param _assetId - ID of the published NFT\n     */\n    function _getValidOrder(\n        address _nftAddress,\n        uint256 _assetId\n    )\n        internal view returns (Order memory order)\n    {\n        order = orderByAssetId[_nftAddress][_assetId];\n\n        require(order.id != 0, \"Marketplace: asset not published\");\n        require(order.expiresAt >= block.timestamp, \"Marketplace: order expired\");\n    }\n\n\n    /**\n     * @dev Executes the sale for a published NFT\n     * @param _orderId - Order Id to execute\n     * @param _buyer - address\n     * @param _nftAddress - Address of the NFT registry\n     * @param _assetId - NFT id\n     * @param _priceInWei - Order price\n     */\n    function _executeOrder(\n        bytes32 _orderId,\n        address _buyer,\n        address _nftAddress,\n        uint256 _assetId,\n        uint256 _priceInWei\n    )\n        internal\n    {\n        // remove order\n        delete orderByAssetId[_nftAddress][_assetId];\n\n        // Transfer NFT asset\n        IERC721(_nftAddress).safeTransferFrom(\n            address(this),\n            _buyer,\n            _assetId\n        );\n\n        // Notify ..\n        emit OrderSuccessful(\n            _orderId,\n            _buyer,\n            _priceInWei\n        );\n    }\n\n\n    /**\n     * @dev Creates a new order\n     * @param _nftAddress - Non fungible registry address\n     * @param _assetId - ID of the published NFT\n     * @param _priceInWei - Price in Wei for the supported coin\n     * @param _expiresAt - Expiration time for the order\n     */\n    function _createOrder(\n        address _nftAddress,\n        uint256 _assetId,\n        uint256 _priceInWei,\n        uint256 _expiresAt\n    )\n        internal\n    {\n        // Check nft registry\n        IERC721 nftRegistry = _requireERC721(_nftAddress);\n\n        // Check order creator is the asset owner\n        address assetOwner = nftRegistry.ownerOf(_assetId);\n\n        require(\n            assetOwner == msg.sender,\n            \"Marketplace: Only the asset owner can create orders\"\n        );\n\n        require(_priceInWei > 0, \"Marketplace: Price should be bigger than 0\");\n\n        require(\n            _expiresAt > block.timestamp.add(1 minutes),\n            \"Marketplace: Publication should be more than 1 minute in the future\"\n        );\n\n        // get NFT asset from seller\n        nftRegistry.safeTransferFrom(\n            assetOwner,\n            address(this),\n            _assetId\n        );\n\n        // create the orderId\n        bytes32 orderId = keccak256(\n            abi.encodePacked(\n                block.timestamp,\n                assetOwner,\n                _nftAddress,\n                _assetId,\n                _priceInWei\n            )\n        );\n\n        // save order\n        orderByAssetId[_nftAddress][_assetId] = Order({\n            id: orderId,\n            seller: assetOwner,\n            nftAddress: _nftAddress,\n            price: _priceInWei,\n            expiresAt: _expiresAt\n        });\n\n        emit OrderCreated(\n            orderId,\n            assetOwner,\n            _nftAddress,\n            _assetId,\n            _priceInWei,\n            _expiresAt\n        );\n    }\n\n\n    /**\n     * @dev Creates a new bid on a existing order\n     * @param _nftAddress - Non fungible registry address\n     * @param _assetId - ID of the published NFT\n     * @param _priceInWei - Price in Wei for the supported coin\n     * @param _expiresAt - expires time\n     */\n    function _createBid(\n        address _nftAddress,\n        uint256 _assetId,\n        uint256 _priceInWei,\n        uint256 _expiresAt\n    )\n        internal\n    {\n        // Checks order validity\n        Order memory order = _getValidOrder(_nftAddress, _assetId);\n\n        // check on expire time\n        if (_expiresAt > order.expiresAt) {\n            _expiresAt = order.expiresAt;\n        }\n\n        // Check price if theres previous a bid\n        Bid memory bid = bidByOrderId[_nftAddress][_assetId];\n\n        // if theres no previous bid, just check price > 0\n        if (bid.id != 0) {\n            if (bid.expiresAt >= block.timestamp) {\n                require(\n                    _priceInWei > bid.price,\n                    \"Marketplace: bid price should be higher than last bid\"\n                );\n\n            } else {\n                require(_priceInWei > 0, \"Marketplace: bid should be > 0\");\n            }\n\n            _cancelBid(\n                bid.id,\n                _nftAddress,\n                _assetId,\n                bid.bidder,\n                bid.price\n            );\n\n        } else {\n            require(_priceInWei > 0, \"Marketplace: bid should be > 0\");\n        }\n\n        // Transfer sale amount from bidder to escrow\n        acceptedToken.safeTransferFrom(\n            msg.sender, // bidder\n            address(this),\n            _priceInWei\n        );\n\n        // Create bid\n        bytes32 bidId = keccak256(\n            abi.encodePacked(\n                block.timestamp,\n                msg.sender,\n                order.id,\n                _priceInWei,\n                _expiresAt\n            )\n        );\n\n        // Save Bid for this order\n        bidByOrderId[_nftAddress][_assetId] = Bid({\n            id: bidId,\n            bidder: msg.sender,\n            price: _priceInWei,\n            expiresAt: _expiresAt\n        });\n\n        emit BidCreated(\n            bidId,\n            _nftAddress,\n            _assetId,\n            msg.sender, // bidder\n            _priceInWei,\n            _expiresAt\n        );\n    }\n\n\n    /**\n     * @dev Cancel an already published order\n     *  can only be canceled by seller or the contract owner\n     * @param _orderId - Bid identifier\n     * @param _nftAddress - Address of the NFT registry\n     * @param _assetId - ID of the published NFT\n     * @param _seller - Address\n     */\n    function _cancelOrder(\n        bytes32 _orderId,\n        address _nftAddress,\n        uint256 _assetId,\n        address _seller\n    )\n        internal\n    {\n        delete orderByAssetId[_nftAddress][_assetId];\n\n        /// send asset back to seller\n        IERC721(_nftAddress).safeTransferFrom(\n            address(this),\n            _seller,\n            _assetId\n        );\n\n        emit OrderCancelled(_orderId);\n    }\n\n\n    /**\n     * @dev Cancel bid from an already published order\n     *  can only be canceled by seller or the contract owner\n     * @param _bidId - Bid identifier\n     * @param _nftAddress - registry address\n     * @param _assetId - ID of the published NFT\n     * @param _bidder - Address\n     * @param _escrowAmount - in acceptenToken currency\n     */\n    function _cancelBid(\n        bytes32 _bidId,\n        address _nftAddress,\n        uint256 _assetId,\n        address _bidder,\n        uint256 _escrowAmount\n    )\n        internal\n    {\n        delete bidByOrderId[_nftAddress][_assetId];\n\n        // return escrow to canceled bidder\n        acceptedToken.safeTransfer(\n            _bidder,\n            _escrowAmount\n        );\n\n        emit BidCancelled(_bidId);\n    }\n\n\n    function _requireERC721(address _nftAddress) internal view returns (IERC721) {\n        require(\n            _nftAddress.isContract(),\n            \"The NFT Address should be a contract\"\n        );\n        require(\n            IERC721(_nftAddress).supportsInterface(_INTERFACE_ID_ERC721),\n            \"The NFT contract has an invalid ERC721 implementation\"\n        );\n        return IERC721(_nftAddress);\n    }\n}",
  "sourcePath": "/Users/yxf/app/uniarts-eth-dao/contracts/core/TrustMarketplace.sol",
  "compiler": {
    "name": "solc",
    "version": "0.8.4+commit.c7e474f2.Emscripten.clang"
  },
  "schemaVersion": "3.2.3",
  "updatedAt": "2021-10-12T08:14:18.550Z",
  "devdoc": {
    "kind": "dev",
    "methods": {
      "acceptBid(address,uint256,uint256)": {
        "details": "Executes the sale for a published NFT by accepting a current bid",
        "params": {
          "_assetId": "- ID of the published NFT",
          "_nftAddress": "- Address of the NFT registry",
          "_priceInWei": "- Bid price in wei in acceptedTokens currency"
        }
      },
      "cancelBid(address,uint256)": {
        "details": "Cancel an already published bid  can only be canceled by seller or the contract owner",
        "params": {
          "_assetId": "- ID of the published NFT",
          "_nftAddress": "- Address of the NFT registry"
        }
      },
      "cancelOrder(address,uint256)": {
        "details": "Cancel an already published order  can only be canceled by seller or the contract owner",
        "params": {
          "_assetId": "- ID of the published NFT",
          "_nftAddress": "- Address of the NFT registry"
        }
      },
      "constructor": {
        "details": "Initialize this contract. Acts as a constructor",
        "params": {
          "_acceptedToken": "- currency for payments"
        }
      },
      "createBid(address,uint256,uint256,uint256)": {
        "details": "Places a bid for a published NFT and checks for the asset fingerprint",
        "params": {
          "_assetId": "- ID of the published NFT",
          "_expiresAt": "- Bid expiration time",
          "_nftAddress": "- Address of the NFT registry",
          "_priceInWei": "- Bid price in acceptedToken currency"
        }
      },
      "createOrder(address,uint256,uint256,uint256)": {
        "details": "Creates a new order",
        "params": {
          "_assetId": "- ID of the published NFT",
          "_expiresAt": "- Duration of the order (in hours)",
          "_nftAddress": "- Non fungible registry address",
          "_priceInWei": "- Price in Wei for the supported coin"
        }
      },
      "onERC721Received(address,address,uint256,bytes)": {
        "details": "See {IERC721Receiver-onERC721Received}. Always returns `IERC721Receiver.onERC721Received.selector`."
      },
      "owner()": {
        "details": "Returns the address of the current owner."
      },
      "paused()": {
        "details": "Returns true if the contract is paused, and false otherwise."
      },
      "renounceOwnership()": {
        "details": "Leaves the contract without owner. It will not be possible to call `onlyOwner` functions anymore. Can only be called by the current owner. NOTE: Renouncing ownership will leave the contract without an owner, thereby removing any functionality that is only available to the owner."
      },
      "safeExecuteOrder(address,uint256,uint256)": {
        "details": "Executes the sale for a published NFT and checks for the asset fingerprint",
        "params": {
          "_assetId": "- ID of the published NFT",
          "_nftAddress": "- Address of the NFT registry",
          "_priceInWei": "- Order price"
        }
      },
      "safePlaceBid(address,uint256,uint256,uint256)": {
        "details": "Places a bid for a published NFT and checks for the asset fingerprint",
        "params": {
          "_assetId": "- ID of the published NFT",
          "_expiresAt": "- Bid expiration time",
          "_nftAddress": "- Address of the NFT registry",
          "_priceInWei": "- Bid price in acceptedToken currency"
        }
      },
      "setOwnerCutPerMillion(uint256)": {
        "details": "Sets the share cut for the owner of the contract that's  charged to the seller on a successful sale",
        "params": {
          "_cutPerMillion": "- Share amount, from 0 to 99,999"
        }
      },
      "setPaused(bool)": {
        "details": "Sets the paused failsafe. Can only be called by owner",
        "params": {
          "_setPaused": "- paused state"
        }
      },
      "transferOwnership(address)": {
        "details": "Transfers ownership of the contract to a new account (`newOwner`). Can only be called by the current owner."
      },
      "updateOrder(address,uint256,uint256,uint256)": {
        "details": "Update an already published order  can only be updated by seller",
        "params": {
          "_assetId": "- ID of the published NFT",
          "_nftAddress": "- Address of the NFT registry"
        }
      }
    },
    "version": 1
  },
  "userdoc": {
    "kind": "user",
    "methods": {},
    "version": 1
  }
}