{
  "contractName": "UinkTreasury",
  "abi": [
    {
      "inputs": [
        {
          "internalType": "address",
          "name": "_uink",
          "type": "address"
        }
      ],
      "stateMutability": "nonpayable",
      "type": "constructor"
    },
    {
      "anonymous": false,
      "inputs": [
        {
          "indexed": true,
          "internalType": "address",
          "name": "previousOwner",
          "type": "address"
        },
        {
          "indexed": true,
          "internalType": "address",
          "name": "newOwner",
          "type": "address"
        }
      ],
      "name": "OwnershipTransferred",
      "type": "event"
    },
    {
      "anonymous": false,
      "inputs": [
        {
          "indexed": true,
          "internalType": "address",
          "name": "to",
          "type": "address"
        },
        {
          "indexed": false,
          "internalType": "uint256",
          "name": "amount",
          "type": "uint256"
        }
      ],
      "name": "Reward",
      "type": "event"
    },
    {
      "inputs": [
        {
          "internalType": "address",
          "name": "",
          "type": "address"
        }
      ],
      "name": "operators",
      "outputs": [
        {
          "internalType": "bool",
          "name": "",
          "type": "bool"
        }
      ],
      "stateMutability": "view",
      "type": "function"
    },
    {
      "inputs": [],
      "name": "owner",
      "outputs": [
        {
          "internalType": "address",
          "name": "",
          "type": "address"
        }
      ],
      "stateMutability": "view",
      "type": "function"
    },
    {
      "inputs": [],
      "name": "renounceOwnership",
      "outputs": [],
      "stateMutability": "nonpayable",
      "type": "function"
    },
    {
      "inputs": [
        {
          "internalType": "address",
          "name": "newOwner",
          "type": "address"
        }
      ],
      "name": "transferOwnership",
      "outputs": [],
      "stateMutability": "nonpayable",
      "type": "function"
    },
    {
      "inputs": [],
      "name": "uink",
      "outputs": [
        {
          "internalType": "contract IERC20",
          "name": "",
          "type": "address"
        }
      ],
      "stateMutability": "view",
      "type": "function"
    },
    {
      "inputs": [
        {
          "internalType": "address",
          "name": "user",
          "type": "address"
        }
      ],
      "name": "addOperator",
      "outputs": [],
      "stateMutability": "nonpayable",
      "type": "function"
    },
    {
      "inputs": [
        {
          "internalType": "address",
          "name": "user",
          "type": "address"
        }
      ],
      "name": "removeOperator",
      "outputs": [],
      "stateMutability": "nonpayable",
      "type": "function"
    },
    {
      "inputs": [
        {
          "internalType": "address",
          "name": "to",
          "type": "address"
        },
        {
          "internalType": "uint256",
          "name": "amount",
          "type": "uint256"
        }
      ],
      "name": "sendRewards",
      "outputs": [
        {
          "internalType": "uint256",
          "name": "val",
          "type": "uint256"
        }
      ],
      "stateMutability": "nonpayable",
      "type": "function"
    },
    {
      "inputs": [
        {
          "internalType": "address",
          "name": "token",
          "type": "address"
        },
        {
          "internalType": "uint256",
          "name": "amount",
          "type": "uint256"
        },
        {
          "internalType": "address",
          "name": "to",
          "type": "address"
        }
      ],
      "name": "withdraw",
      "outputs": [],
      "stateMutability": "nonpayable",
      "type": "function"
    }
  ],
  "bytecode": "0x608060405234801561001057600080fd5b5060405161095738038061095783398101604081905261002f916100ca565b610051610043640100000000610076810204565b64010000000061007a810204565b60018054600160a060020a031916600160a060020a03929092169190911790556100f8565b3390565b60008054600160a060020a03838116600160a060020a0319831681178455604051919092169283917f8be0079c531659141344cd1fd0a4f28419497f9722a3daafe3b4186f6b6457e09190a35050565b6000602082840312156100db578081fd5b8151600160a060020a03811681146100f1578182fd5b9392505050565b610850806101076000396000f3fe608060405234801561001057600080fd5b50600436106100b0576000357c0100000000000000000000000000000000000000000000000000000000900480639870d7fe116100835780639870d7fe1461012f578063a88d8fea14610142578063ac8a584a14610155578063c8773af214610168578063f2fde38b1461018957600080fd5b806313e7c9d8146100b557806369328dec146100ed578063715018a6146101025780638da5cb5b1461010a575b600080fd5b6100d86100c3366004610728565b60026020526000908152604090205460ff1681565b60405190151581526020015b60405180910390f35b6101006100fb366004610772565b61019c565b005b610100610273565b600054600160a060020a03165b604051600160a060020a0390911681526020016100e4565b61010061013d366004610728565b6102ac565b60015461011790600160a060020a031681565b610100610163366004610728565b6102fd565b61017b610176366004610749565b61034b565b6040519081526020016100e4565b610100610197366004610728565b610402565b600054600160a060020a031633146101d25760405160e560020a62461bcd0281526004016101c9906107e5565b60405180910390fd5b6040517fa9059cbb000000000000000000000000000000000000000000000000000000008152600160a060020a0382811660048301526024820184905284169063a9059cbb90604401602060405180830381600087803b15801561023557600080fd5b505af1158015610249573d6000803e3d6000fd5b505050506040513d601f19601f8201168201806040525081019061026d91906107ad565b50505050565b600054600160a060020a031633146102a05760405160e560020a62461bcd0281526004016101c9906107e5565b6102aa60006104ba565b565b600054600160a060020a031633146102d95760405160e560020a62461bcd0281526004016101c9906107e5565b600160a060020a03166000908152600260205260409020805460ff19166001179055565b600054600160a060020a0316331461032a5760405160e560020a62461bcd0281526004016101c9906107e5565b600160a060020a03166000908152600260205260409020805460ff19169055565b3360009081526002602052604081205460ff166103ad5760405160e560020a62461bcd02815260206004820152600c60248201527f4e6f74204f70657261746f72000000000000000000000000000000000000000060448201526064016101c9565b6103b78383610517565b905082600160a060020a03167f619caafabdd75649b302ba8419e48cccf64f37f1983ac4727cfb38b57703ffc9826040516103f491815260200190565b60405180910390a292915050565b600054600160a060020a0316331461042f5760405160e560020a62461bcd0281526004016101c9906107e5565b600160a060020a0381166104ae5760405160e560020a62461bcd02815260206004820152602660248201527f4f776e61626c653a206e6577206f776e657220697320746865207a65726f206160448201527f646472657373000000000000000000000000000000000000000000000000000060648201526084016101c9565b6104b7816104ba565b50565b60008054600160a060020a0383811673ffffffffffffffffffffffffffffffffffffffff19831681178455604051919092169283917f8be0079c531659141344cd1fd0a4f28419497f9722a3daafe3b4186f6b6457e09190a35050565b6001546040517f70a082310000000000000000000000000000000000000000000000000000000081523060048201526000918291600160a060020a03909116906370a082319060240160206040518083038186803b15801561057857600080fd5b505afa15801561058c573d6000803e3d6000fd5b505050506040513d601f19601f820116820180604052508101906105b091906107cd565b905080831115610661576001546040517fa9059cbb000000000000000000000000000000000000000000000000000000008152600160a060020a038681166004830152602482018490529091169063a9059cbb90604401602060405180830381600087803b15801561062157600080fd5b505af1158015610635573d6000803e3d6000fd5b505050506040513d601f19601f8201168201806040525081019061065991906107ad565b509050610706565b6001546040517fa9059cbb000000000000000000000000000000000000000000000000000000008152600160a060020a038681166004830152602482018690529091169063a9059cbb90604401602060405180830381600087803b1580156106c857600080fd5b505af11580156106dc573d6000803e3d6000fd5b505050506040513d601f19601f8201168201806040525081019061070091906107ad565b50829150505b92915050565b8035600160a060020a038116811461072357600080fd5b919050565b600060208284031215610739578081fd5b6107428261070c565b9392505050565b6000806040838503121561075b578081fd5b6107648361070c565b946020939093013593505050565b600080600060608486031215610786578081fd5b61078f8461070c565b9250602084013591506107a46040850161070c565b90509250925092565b6000602082840312156107be578081fd5b81518015158114610742578182fd5b6000602082840312156107de578081fd5b5051919050565b6020808252818101527f4f776e61626c653a2063616c6c6572206973206e6f7420746865206f776e657260408201526060019056fea26469706673582212201029dcef2b462740d57c60b2699dcd41e6cf5280a386bd5aaeeb279090ac5a6464736f6c63430008040033",
  "immutableReferences": {},
  "source": "// SPDX-License-Identifier: MIT\npragma solidity ^0.8.0;\nimport \"@openzeppelin/contracts/access/Ownable.sol\";\nimport \"@openzeppelin/contracts/utils/math/SafeMath.sol\";\nimport \"@openzeppelin/contracts/token/ERC20/IERC20.sol\";\n\ncontract UinkTreasury is Ownable {\n  using SafeMath for uint256;\n\n  IERC20 public uink;\n\n  mapping (address => bool) public operators;\n\n  modifier onlyOperator() {\n    require(operators[msg.sender], \"Not Operator\");\n    _; \n  }\n  \n  function addOperator(address user) public onlyOwner {\n    operators[user] = true;\n  }\n\n  function removeOperator(address user) public onlyOwner {\n    operators[user] = false;\n  }\n\n  event Reward(address indexed to, uint256 amount);\n\n\n  constructor(address _uink) {\n    uink = IERC20(_uink);\n  }\n\n  function sendRewards(address to, uint256 amount) external onlyOperator returns(uint256 val) {\n    val = safeTransfer(to, amount);\n    emit Reward(to, val);\n  }\n\n  function withdraw(address token, uint256 amount, address to) public onlyOwner {\n    IERC20(token).transfer(to, amount);\n  }\n\n  function safeTransfer(address to, uint256 amount) internal returns(uint256) {\n    uint256 bal = uink.balanceOf(address(this));\n    if (amount > bal) {\n      uink.transfer(to, bal);\n      return bal;\n    } else {\n      uink.transfer(to, amount);\n      return amount;\n    }\n  }\n}",
  "sourcePath": "/Users/tuminfei/Code/Nodejs/uniarts-eth-dao/contracts/UinkTreasury.sol",
  "compiler": {
    "name": "solc",
    "version": "0.8.4+commit.c7e474f2.Emscripten.clang"
  },
  "schemaVersion": "3.3.0",
  "updatedAt": "2021-09-14T02:31:15.661Z",
  "devdoc": {
    "kind": "dev",
    "methods": {
      "owner()": {
        "details": "Returns the address of the current owner."
      },
      "renounceOwnership()": {
        "details": "Leaves the contract without owner. It will not be possible to call `onlyOwner` functions anymore. Can only be called by the current owner. NOTE: Renouncing ownership will leave the contract without an owner, thereby removing any functionality that is only available to the owner."
      },
      "transferOwnership(address)": {
        "details": "Transfers ownership of the contract to a new account (`newOwner`). Can only be called by the current owner."
      }
    },
    "version": 1
  },
  "userdoc": {
    "kind": "user",
    "methods": {},
    "version": 1
  }
}