{
  "contractName": "UniArtsNFT",
  "abi": [
    {
      "inputs": [
        {
          "internalType": "address",
          "name": "minter",
          "type": "address"
        },
        {
          "internalType": "string",
          "name": "baseURIValue_",
          "type": "string"
        }
      ],
      "stateMutability": "nonpayable",
      "type": "constructor"
    },
    {
      "anonymous": false,
      "inputs": [
        {
          "indexed": true,
          "internalType": "address",
          "name": "owner",
          "type": "address"
        },
        {
          "indexed": true,
          "internalType": "address",
          "name": "approved",
          "type": "address"
        },
        {
          "indexed": true,
          "internalType": "uint256",
          "name": "tokenId",
          "type": "uint256"
        }
      ],
      "name": "Approval",
      "type": "event"
    },
    {
      "anonymous": false,
      "inputs": [
        {
          "indexed": true,
          "internalType": "address",
          "name": "owner",
          "type": "address"
        },
        {
          "indexed": true,
          "internalType": "address",
          "name": "operator",
          "type": "address"
        },
        {
          "indexed": false,
          "internalType": "bool",
          "name": "approved",
          "type": "bool"
        }
      ],
      "name": "ApprovalForAll",
      "type": "event"
    },
    {
      "anonymous": false,
      "inputs": [
        {
          "indexed": true,
          "internalType": "bytes32",
          "name": "role",
          "type": "bytes32"
        },
        {
          "indexed": true,
          "internalType": "bytes32",
          "name": "previousAdminRole",
          "type": "bytes32"
        },
        {
          "indexed": true,
          "internalType": "bytes32",
          "name": "newAdminRole",
          "type": "bytes32"
        }
      ],
      "name": "RoleAdminChanged",
      "type": "event"
    },
    {
      "anonymous": false,
      "inputs": [
        {
          "indexed": true,
          "internalType": "bytes32",
          "name": "role",
          "type": "bytes32"
        },
        {
          "indexed": true,
          "internalType": "address",
          "name": "account",
          "type": "address"
        },
        {
          "indexed": true,
          "internalType": "address",
          "name": "sender",
          "type": "address"
        }
      ],
      "name": "RoleGranted",
      "type": "event"
    },
    {
      "anonymous": false,
      "inputs": [
        {
          "indexed": true,
          "internalType": "bytes32",
          "name": "role",
          "type": "bytes32"
        },
        {
          "indexed": true,
          "internalType": "address",
          "name": "account",
          "type": "address"
        },
        {
          "indexed": true,
          "internalType": "address",
          "name": "sender",
          "type": "address"
        }
      ],
      "name": "RoleRevoked",
      "type": "event"
    },
    {
      "anonymous": false,
      "inputs": [
        {
          "indexed": true,
          "internalType": "address",
          "name": "from",
          "type": "address"
        },
        {
          "indexed": true,
          "internalType": "address",
          "name": "to",
          "type": "address"
        },
        {
          "indexed": true,
          "internalType": "uint256",
          "name": "tokenId",
          "type": "uint256"
        }
      ],
      "name": "Transfer",
      "type": "event"
    },
    {
      "inputs": [],
      "name": "DEFAULT_ADMIN_ROLE",
      "outputs": [
        {
          "internalType": "bytes32",
          "name": "",
          "type": "bytes32"
        }
      ],
      "stateMutability": "view",
      "type": "function"
    },
    {
      "inputs": [],
      "name": "MINTER_ROLE",
      "outputs": [
        {
          "internalType": "bytes32",
          "name": "",
          "type": "bytes32"
        }
      ],
      "stateMutability": "view",
      "type": "function"
    },
    {
      "inputs": [
        {
          "internalType": "address",
          "name": "to",
          "type": "address"
        },
        {
          "internalType": "uint256",
          "name": "tokenId",
          "type": "uint256"
        }
      ],
      "name": "approve",
      "outputs": [],
      "stateMutability": "nonpayable",
      "type": "function"
    },
    {
      "inputs": [
        {
          "internalType": "address",
          "name": "owner",
          "type": "address"
        }
      ],
      "name": "balanceOf",
      "outputs": [
        {
          "internalType": "uint256",
          "name": "",
          "type": "uint256"
        }
      ],
      "stateMutability": "view",
      "type": "function"
    },
    {
      "inputs": [
        {
          "internalType": "uint256",
          "name": "tokenId",
          "type": "uint256"
        }
      ],
      "name": "getApproved",
      "outputs": [
        {
          "internalType": "address",
          "name": "",
          "type": "address"
        }
      ],
      "stateMutability": "view",
      "type": "function"
    },
    {
      "inputs": [
        {
          "internalType": "bytes32",
          "name": "role",
          "type": "bytes32"
        }
      ],
      "name": "getRoleAdmin",
      "outputs": [
        {
          "internalType": "bytes32",
          "name": "",
          "type": "bytes32"
        }
      ],
      "stateMutability": "view",
      "type": "function"
    },
    {
      "inputs": [
        {
          "internalType": "bytes32",
          "name": "role",
          "type": "bytes32"
        },
        {
          "internalType": "address",
          "name": "account",
          "type": "address"
        }
      ],
      "name": "grantRole",
      "outputs": [],
      "stateMutability": "nonpayable",
      "type": "function"
    },
    {
      "inputs": [
        {
          "internalType": "bytes32",
          "name": "role",
          "type": "bytes32"
        },
        {
          "internalType": "address",
          "name": "account",
          "type": "address"
        }
      ],
      "name": "hasRole",
      "outputs": [
        {
          "internalType": "bool",
          "name": "",
          "type": "bool"
        }
      ],
      "stateMutability": "view",
      "type": "function"
    },
    {
      "inputs": [
        {
          "internalType": "address",
          "name": "owner",
          "type": "address"
        },
        {
          "internalType": "address",
          "name": "operator",
          "type": "address"
        }
      ],
      "name": "isApprovedForAll",
      "outputs": [
        {
          "internalType": "bool",
          "name": "",
          "type": "bool"
        }
      ],
      "stateMutability": "view",
      "type": "function"
    },
    {
      "inputs": [],
      "name": "name",
      "outputs": [
        {
          "internalType": "string",
          "name": "",
          "type": "string"
        }
      ],
      "stateMutability": "view",
      "type": "function"
    },
    {
      "inputs": [
        {
          "internalType": "uint256",
          "name": "tokenId",
          "type": "uint256"
        }
      ],
      "name": "ownerOf",
      "outputs": [
        {
          "internalType": "address",
          "name": "",
          "type": "address"
        }
      ],
      "stateMutability": "view",
      "type": "function"
    },
    {
      "inputs": [
        {
          "internalType": "bytes32",
          "name": "role",
          "type": "bytes32"
        },
        {
          "internalType": "address",
          "name": "account",
          "type": "address"
        }
      ],
      "name": "renounceRole",
      "outputs": [],
      "stateMutability": "nonpayable",
      "type": "function"
    },
    {
      "inputs": [
        {
          "internalType": "bytes32",
          "name": "role",
          "type": "bytes32"
        },
        {
          "internalType": "address",
          "name": "account",
          "type": "address"
        }
      ],
      "name": "revokeRole",
      "outputs": [],
      "stateMutability": "nonpayable",
      "type": "function"
    },
    {
      "inputs": [
        {
          "internalType": "address",
          "name": "from",
          "type": "address"
        },
        {
          "internalType": "address",
          "name": "to",
          "type": "address"
        },
        {
          "internalType": "uint256",
          "name": "tokenId",
          "type": "uint256"
        }
      ],
      "name": "safeTransferFrom",
      "outputs": [],
      "stateMutability": "nonpayable",
      "type": "function"
    },
    {
      "inputs": [
        {
          "internalType": "address",
          "name": "from",
          "type": "address"
        },
        {
          "internalType": "address",
          "name": "to",
          "type": "address"
        },
        {
          "internalType": "uint256",
          "name": "tokenId",
          "type": "uint256"
        },
        {
          "internalType": "bytes",
          "name": "_data",
          "type": "bytes"
        }
      ],
      "name": "safeTransferFrom",
      "outputs": [],
      "stateMutability": "nonpayable",
      "type": "function"
    },
    {
      "inputs": [
        {
          "internalType": "address",
          "name": "operator",
          "type": "address"
        },
        {
          "internalType": "bool",
          "name": "approved",
          "type": "bool"
        }
      ],
      "name": "setApprovalForAll",
      "outputs": [],
      "stateMutability": "nonpayable",
      "type": "function"
    },
    {
      "inputs": [],
      "name": "symbol",
      "outputs": [
        {
          "internalType": "string",
          "name": "",
          "type": "string"
        }
      ],
      "stateMutability": "view",
      "type": "function"
    },
    {
      "inputs": [
        {
          "internalType": "uint256",
          "name": "index",
          "type": "uint256"
        }
      ],
      "name": "tokenByIndex",
      "outputs": [
        {
          "internalType": "uint256",
          "name": "",
          "type": "uint256"
        }
      ],
      "stateMutability": "view",
      "type": "function"
    },
    {
      "inputs": [
        {
          "internalType": "address",
          "name": "owner",
          "type": "address"
        },
        {
          "internalType": "uint256",
          "name": "index",
          "type": "uint256"
        }
      ],
      "name": "tokenOfOwnerByIndex",
      "outputs": [
        {
          "internalType": "uint256",
          "name": "",
          "type": "uint256"
        }
      ],
      "stateMutability": "view",
      "type": "function"
    },
    {
      "inputs": [
        {
          "internalType": "uint256",
          "name": "tokenId",
          "type": "uint256"
        }
      ],
      "name": "tokenURI",
      "outputs": [
        {
          "internalType": "string",
          "name": "",
          "type": "string"
        }
      ],
      "stateMutability": "view",
      "type": "function"
    },
    {
      "inputs": [
        {
          "internalType": "uint256",
          "name": "",
          "type": "uint256"
        }
      ],
      "name": "token_infos",
      "outputs": [
        {
          "internalType": "string",
          "name": "title",
          "type": "string"
        },
        {
          "internalType": "uint8",
          "name": "class_id",
          "type": "uint8"
        },
        {
          "internalType": "uint8",
          "name": "size",
          "type": "uint8"
        }
      ],
      "stateMutability": "view",
      "type": "function"
    },
    {
      "inputs": [],
      "name": "totalSupply",
      "outputs": [
        {
          "internalType": "uint256",
          "name": "",
          "type": "uint256"
        }
      ],
      "stateMutability": "view",
      "type": "function"
    },
    {
      "inputs": [
        {
          "internalType": "address",
          "name": "from",
          "type": "address"
        },
        {
          "internalType": "address",
          "name": "to",
          "type": "address"
        },
        {
          "internalType": "uint256",
          "name": "tokenId",
          "type": "uint256"
        }
      ],
      "name": "transferFrom",
      "outputs": [],
      "stateMutability": "nonpayable",
      "type": "function"
    },
    {
      "inputs": [],
      "name": "baseURI",
      "outputs": [
        {
          "internalType": "string",
          "name": "",
          "type": "string"
        }
      ],
      "stateMutability": "view",
      "type": "function"
    },
    {
      "inputs": [
        {
          "internalType": "string",
          "name": "newBase",
          "type": "string"
        }
      ],
      "name": "setBaseURI",
      "outputs": [],
      "stateMutability": "nonpayable",
      "type": "function"
    },
    {
      "inputs": [
        {
          "internalType": "address",
          "name": "user_address",
          "type": "address"
        },
        {
          "internalType": "string",
          "name": "title",
          "type": "string"
        },
        {
          "internalType": "uint8",
          "name": "class_id",
          "type": "uint8"
        },
        {
          "internalType": "uint8",
          "name": "size",
          "type": "uint8"
        }
      ],
      "name": "createNFT",
      "outputs": [],
      "stateMutability": "nonpayable",
      "type": "function"
    },
    {
      "inputs": [
        {
          "internalType": "uint256",
          "name": "tokenId",
          "type": "uint256"
        }
      ],
      "name": "getNFT",
      "outputs": [
        {
          "internalType": "string",
          "name": "title",
          "type": "string"
        },
        {
          "internalType": "uint8",
          "name": "class_id",
          "type": "uint8"
        },
        {
          "internalType": "uint8",
          "name": "size",
          "type": "uint8"
        }
      ],
      "stateMutability": "view",
      "type": "function"
    },
    {
      "inputs": [
        {
          "internalType": "bytes4",
          "name": "interfaceId",
          "type": "bytes4"
        }
      ],
      "name": "supportsInterface",
      "outputs": [
        {
          "internalType": "bool",
          "name": "",
          "type": "bool"
        }
      ],
      "stateMutability": "view",
      "type": "function"
    }
  ],
  "bytecode": "0x60806040523480156200001157600080fd5b5060405162002bbc38038062002bbc8339810160408190526200003491620002c2565b604080518082018252600a81527f556e69417274734e46540000000000000000000000000000000000000000000060208083019182528351808501909452600584527f55414e4654000000000000000000000000000000000000000000000000000000908401528151919291620000ae916000916200021c565b508051620000c49060019060208401906200021c565b505050620001027f9f2df0fed2c77648de5860a4cc508cd0818c85b8b8a1ab4ceeef8d981c8956a68362000136640100000000026401000000009004565b6200011860008364010000000062000136810204565b80516200012d90600b9060208401906200021c565b50505062000441565b6200014b82826401000000006200014f810204565b5050565b620001648282640100000000620001ed810204565b6200014b576000828152600a60209081526040808320600160a060020a03851684529091529020805460ff19166001179055620001a964010000000062000218810204565b600160a060020a031681600160a060020a0316837f2f8788117e7eff1d82e926ec794901d17c78024a50270940304540a733656f0d60405160405180910390a45050565b6000918252600a60209081526040808420600160a060020a0393909316845291905290205460ff1690565b3390565b8280546200022a90620003bc565b90600052602060002090601f0160209004810192826200024e576000855562000299565b82601f106200026957805160ff191683800117855562000299565b8280016001018555821562000299579182015b82811115620002995782518255916020019190600101906200027c565b50620002a7929150620002ab565b5090565b5b80821115620002a75760008155600101620002ac565b60008060408385031215620002d5578182fd5b8251600160a060020a0381168114620002ec578283fd5b8092505060208084015167ffffffffffffffff808211156200030c578384fd5b818601915086601f83011262000320578384fd5b81518181111562000335576200033562000412565b604051601f8201601f19908116603f0116810190838211818310171562000360576200036062000412565b81604052828152898684870101111562000378578687fd5b8693505b828410156200039b57848401860151818501870152928501926200037c565b82841115620003ac57868684830101525b8096505050505050509250929050565b600281046001821680620003d157607f821691505b602082108114156200040c577f4e487b7100000000000000000000000000000000000000000000000000000000600052602260045260246000fd5b50919050565b7f4e487b7100000000000000000000000000000000000000000000000000000000600052604160045260246000fd5b61276b80620004516000396000f3fe608060405234801561001057600080fd5b50600436106101e1576000357c0100000000000000000000000000000000000000000000000000000000900480635c1d7a6a11610116578063a217fddf116100b4578063c87b56dd1161008e578063c87b56dd146103dc578063d5391393146103ef578063d547741f14610416578063e985e9c51461042957600080fd5b8063a217fddf146103ae578063a22cb465146103b6578063b88d4fde146103c957600080fd5b80636c0360eb116100f05780636c0360eb1461037857806370a082311461038057806391d148541461039357806395d89b41146103a657600080fd5b80635c1d7a6a1461033f5780635e82866e146103525780636352211e1461036557600080fd5b80632f2ff15d1161018357806342842e0e1161015d57806342842e0e146102e45780634f6ccce7146102f757806355f804b31461030a578063576f7ea71461031d57600080fd5b80632f2ff15d146102ab5780632f745c59146102be57806336568abe146102d157600080fd5b8063095ea7b3116101bf578063095ea7b31461024e57806318160ddd1461026357806323b872dd14610275578063248a9ca31461028857600080fd5b806301ffc9a7146101e657806306fdde031461020e578063081812fc14610223575b600080fd5b6101f96101f436600461232f565b610465565b60405190151581526020015b60405180910390f35b610216610476565b60405161020591906124c5565b6102366102313660046122f5565b610508565b604051600160a060020a039091168152602001610205565b61026161025c3660046122cc565b6105b6565b005b6008545b604051908152602001610205565b61026161028336600461213e565b6106ee565b6102676102963660046122f5565b6000908152600a602052604090206001015490565b6102616102b936600461230d565b610722565b6102676102cc3660046122cc565b610748565b6102616102df36600461230d565b6107f3565b6102616102f236600461213e565b610882565b6102676103053660046122f5565b61089d565b610261610318366004612367565b610955565b61033061032b3660046122f5565b6109c2565b604051610205939291906124d8565b61026161034d36600461222c565b610b1b565b6103306103603660046122f5565b610c69565b6102366103733660046122f5565b610d31565b610216610dbf565b61026761038e3660046120f2565b610dce565b6101f96103a136600461230d565b610e6b565b610216610e96565b610267600081565b6102616103c43660046121f2565b610ea5565b6102616103d7366004612179565b610f6d565b6102166103ea3660046122f5565b610fa8565b6102677f9f2df0fed2c77648de5860a4cc508cd0818c85b8b8a1ab4ceeef8d981c8956a681565b61026161042436600461230d565b611094565b6101f961043736600461210c565b600160a060020a03918216600090815260056020908152604080832093909416825291909152205460ff1690565b6000610470826110ba565b92915050565b60606000805461048590612664565b80601f01602080910402602001604051908101604052809291908181526020018280546104b190612664565b80156104fe5780601f106104d3576101008083540402835291602001916104fe565b820191906000526020600020905b8154815290600101906020018083116104e157829003601f168201915b5050505050905090565b600081815260026020526040812054600160a060020a031661059a5760405160e560020a62461bcd02815260206004820152602c60248201527f4552433732313a20617070726f76656420717565727920666f72206e6f6e657860448201527f697374656e7420746f6b656e000000000000000000000000000000000000000060648201526084015b60405180910390fd5b50600090815260046020526040902054600160a060020a031690565b60006105c182610d31565b905080600160a060020a031683600160a060020a0316141561064e5760405160e560020a62461bcd02815260206004820152602160248201527f4552433732313a20617070726f76616c20746f2063757272656e74206f776e6560448201527f72000000000000000000000000000000000000000000000000000000000000006064820152608401610591565b33600160a060020a038216148061066a575061066a8133610437565b6106df5760405160e560020a62461bcd02815260206004820152603860248201527f4552433732313a20617070726f76652063616c6c6572206973206e6f74206f7760448201527f6e6572206e6f7220617070726f76656420666f7220616c6c00000000000000006064820152608401610591565b6106e983836110f8565b505050565b6106f83382611173565b6107175760405160e560020a62461bcd02815260040161059190612562565b6106e983838361127e565b6000828152600a602052604090206001015461073e8133611469565b6106e983836114d0565b600061075383610dce565b82106107ca5760405160e560020a62461bcd02815260206004820152602b60248201527f455243373231456e756d657261626c653a206f776e657220696e646578206f7560448201527f74206f6620626f756e64730000000000000000000000000000000000000000006064820152608401610591565b50600160a060020a03919091166000908152600660209081526040808320938352929052205490565b600160a060020a03811633146108745760405160e560020a62461bcd02815260206004820152602f60248201527f416363657373436f6e74726f6c3a2063616e206f6e6c792072656e6f756e636560448201527f20726f6c657320666f722073656c6600000000000000000000000000000000006064820152608401610591565b61087e8282611556565b5050565b6106e983838360405180602001604052806000815250610f6d565b60006108a860085490565b821061091f5760405160e560020a62461bcd02815260206004820152602c60248201527f455243373231456e756d657261626c653a20676c6f62616c20696e646578206f60448201527f7574206f6620626f756e647300000000000000000000000000000000000000006064820152608401610591565b600882815481106109435760e060020a634e487b7102600052603260045260246000fd5b90600052602060002001549050919050565b610960600033610e6b565b6109af5760405160e560020a62461bcd02815260206004820152601560248201527f43616c6c6572206973206e6f7420612061646d696e00000000000000000000006044820152606401610591565b805161087e90600b906020840190611fb6565b6060600080600c84815481106109eb5760e060020a634e487b7102600052603260045260246000fd5b9060005260206000209060020201600001600c8581548110610a205760e060020a634e487b7102600052603260045260246000fd5b906000526020600020906002020160010160009054906101000a900460ff16600c8681548110610a635760e060020a634e487b7102600052603260045260246000fd5b906000526020600020906002020160010160019054906101000a900460ff16828054610a8e90612664565b80601f0160208091040260200160405190810160405280929190818152602001828054610aba90612664565b8015610b075780601f10610adc57610100808354040283529160200191610b07565b820191906000526020600020905b815481529060010190602001808311610aea57829003601f168201915b505050505092509250925092509193909250565b610b457f9f2df0fed2c77648de5860a4cc508cd0818c85b8b8a1ab4ceeef8d981c8956a633610e6b565b610b945760405160e560020a62461bcd02815260206004820152601660248201527f43616c6c6572206973206e6f742061206d696e746572000000000000000000006044820152606401610591565b6040805160806020601f8701819004028201810190925260608101858152600c928291908890889081908501838280828437600092018290525093855250505060ff808716602080850191909152908616604090930192909252835460018101855593815281902082518051939460020290910192610c169284920190611fb6565b5060208201516001918201805460409094015160ff9081166101000261ffff1990951692169190911792909217909155600c54600091610c559161260a565b9050610c6186826115bd565b505050505050565b600c8181548110610c7957600080fd5b9060005260206000209060020201600091509050806000018054610c9c90612664565b80601f0160208091040260200160405190810160405280929190818152602001828054610cc890612664565b8015610d155780601f10610cea57610100808354040283529160200191610d15565b820191906000526020600020905b815481529060010190602001808311610cf857829003601f168201915b5050506001909301549192505060ff8082169161010090041683565b600081815260026020526040812054600160a060020a0316806104705760405160e560020a62461bcd02815260206004820152602960248201527f4552433732313a206f776e657220717565727920666f72206e6f6e657869737460448201527f656e7420746f6b656e00000000000000000000000000000000000000000000006064820152608401610591565b6060610dc961171e565b905090565b6000600160a060020a038216610e4f5760405160e560020a62461bcd02815260206004820152602a60248201527f4552433732313a2062616c616e636520717565727920666f7220746865207a6560448201527f726f2061646472657373000000000000000000000000000000000000000000006064820152608401610591565b50600160a060020a031660009081526003602052604090205490565b6000918252600a60209081526040808420600160a060020a0393909316845291905290205460ff1690565b60606001805461048590612664565b600160a060020a038216331415610f015760405160e560020a62461bcd02815260206004820152601960248201527f4552433732313a20617070726f766520746f2063616c6c6572000000000000006044820152606401610591565b336000818152600560209081526040808320600160a060020a03871680855290835292819020805460ff191686151590811790915590519081529192917f17307eab39ab6107e8899845ad3d59bd9653f200f220920489ca2b5937696c31910160405180910390a35050565b610f773383611173565b610f965760405160e560020a62461bcd02815260040161059190612562565b610fa28484848461172d565b50505050565b600081815260026020526040902054606090600160a060020a03166110385760405160e560020a62461bcd02815260206004820152602f60248201527f4552433732314d657461646174613a2055524920717565727920666f72206e6f60448201527f6e6578697374656e7420746f6b656e00000000000000000000000000000000006064820152608401610591565b600061104261171e565b90506000815111611062576040518060200160405280600081525061108d565b8061106c84611763565b60405160200161107d9291906123d9565b6040516020818303038152906040525b9392505050565b6000828152600a60205260409020600101546110b08133611469565b6106e98383611556565b6000600160e060020a031982167f7965db0b0000000000000000000000000000000000000000000000000000000014806104705750610470826118be565b6000818152600460205260409020805473ffffffffffffffffffffffffffffffffffffffff1916600160a060020a038416908117909155819061113a82610d31565b600160a060020a03167f8c5be1e5ebec7d5bd14f71427d1e84f3dd0314c0f7b2291e5b200ac8c7c3b92560405160405180910390a45050565b600081815260026020526040812054600160a060020a03166112005760405160e560020a62461bcd02815260206004820152602c60248201527f4552433732313a206f70657261746f7220717565727920666f72206e6f6e657860448201527f697374656e7420746f6b656e00000000000000000000000000000000000000006064820152608401610591565b600061120b83610d31565b905080600160a060020a031684600160a060020a03161480611246575083600160a060020a031661123b84610508565b600160a060020a0316145b806112765750600160a060020a0380821660009081526005602090815260408083209388168352929052205460ff165b949350505050565b82600160a060020a031661129182610d31565b600160a060020a0316146113105760405160e560020a62461bcd02815260206004820152602960248201527f4552433732313a207472616e73666572206f6620746f6b656e2074686174206960448201527f73206e6f74206f776e00000000000000000000000000000000000000000000006064820152608401610591565b600160a060020a03821661138e5760405160e560020a62461bcd028152602060048201526024808201527f4552433732313a207472616e7366657220746f20746865207a65726f2061646460448201527f72657373000000000000000000000000000000000000000000000000000000006064820152608401610591565b6113998383836118fc565b6113a46000826110f8565b600160a060020a03831660009081526003602052604081208054600192906113cd90849061260a565b9091555050600160a060020a03821660009081526003602052604081208054600192906113fb9084906125bf565b9091555050600081815260026020526040808220805473ffffffffffffffffffffffffffffffffffffffff1916600160a060020a0386811691821790925591518493918716917fddf252ad1be2c89b69c2b068fc378daa952ba7f163c4a11628f55a4df523b3ef91a4505050565b6114738282610e6b565b61087e5761148b81600160a060020a03166014611907565b611496836020611907565b6040516020016114a7929190612408565b60408051601f198184030181529082905260e560020a62461bcd028252610591916004016124c5565b6114da8282610e6b565b61087e576000828152600a60209081526040808320600160a060020a03851684529091529020805460ff191660011790556115123390565b600160a060020a031681600160a060020a0316837f2f8788117e7eff1d82e926ec794901d17c78024a50270940304540a733656f0d60405160405180910390a45050565b6115608282610e6b565b1561087e576000828152600a60209081526040808320600160a060020a0385168085529252808320805460ff1916905551339285917ff6391f5c32d9c69d2a47ea670b442974b53935d1edc7fd64eb21e047a839171b9190a45050565b600160a060020a0382166116165760405160e560020a62461bcd02815260206004820181905260248201527f4552433732313a206d696e7420746f20746865207a65726f20616464726573736044820152606401610591565b600081815260026020526040902054600160a060020a03161561167e5760405160e560020a62461bcd02815260206004820152601c60248201527f4552433732313a20746f6b656e20616c7265616479206d696e746564000000006044820152606401610591565b61168a600083836118fc565b600160a060020a03821660009081526003602052604081208054600192906116b39084906125bf565b9091555050600081815260026020526040808220805473ffffffffffffffffffffffffffffffffffffffff1916600160a060020a03861690811790915590518392907fddf252ad1be2c89b69c2b068fc378daa952ba7f163c4a11628f55a4df523b3ef908290a45050565b6060600b805461048590612664565b61173884848461127e565b61174484848484611b5e565b610fa25760405160e560020a62461bcd02815260040161059190612505565b6060816117a357505060408051808201909152600181527f3000000000000000000000000000000000000000000000000000000000000000602082015290565b8160005b81156117cd57806117b7816126a2565b91506117c69050600a836125d7565b91506117a7565b60008167ffffffffffffffff8111156117f95760e060020a634e487b7102600052604160045260246000fd5b6040519080825280601f01601f191660200182016040528015611823576020820181803683370190505b5090505b84156112765761183860018361260a565b9150611845600a866126bd565b6118509060306125bf565b7f0100000000000000000000000000000000000000000000000000000000000000028183815181106118955760e060020a634e487b7102600052603260045260246000fd5b6020010190600160f860020a031916908160001a9053506118b7600a866125d7565b9450611827565b6000600160e060020a031982167f780e9d63000000000000000000000000000000000000000000000000000000001480610470575061047082611ca0565b6106e9838383611d3b565b606060006119168360026125eb565b6119219060026125bf565b67ffffffffffffffff81111561194a5760e060020a634e487b7102600052604160045260246000fd5b6040519080825280601f01601f191660200182016040528015611974576020820181803683370190505b5090507f3000000000000000000000000000000000000000000000000000000000000000816000815181106119bc5760e060020a634e487b7102600052603260045260246000fd5b6020010190600160f860020a031916908160001a9053507f780000000000000000000000000000000000000000000000000000000000000081600181518110611a185760e060020a634e487b7102600052603260045260246000fd5b6020010190600160f860020a031916908160001a9053506000611a3c8460026125eb565b611a479060016125bf565b90505b6001811115611b0c577f303132333435363738396162636465660000000000000000000000000000000085600f1660108110611a995760e060020a634e487b7102600052603260045260246000fd5b1a7f010000000000000000000000000000000000000000000000000000000000000002828281518110611adf5760e060020a634e487b7102600052603260045260246000fd5b6020010190600160f860020a031916908160001a905350601090940493611b058161264d565b9050611a4a565b50831561108d5760405160e560020a62461bcd02815260206004820181905260248201527f537472696e67733a20686578206c656e67746820696e73756666696369656e746044820152606401610591565b6000600160a060020a0384163b15611c95576040517f150b7a02000000000000000000000000000000000000000000000000000000008152600160a060020a0385169063150b7a0290611bbb903390899088908890600401612489565b602060405180830381600087803b158015611bd557600080fd5b505af1925050508015611c05575060408051601f3d908101601f19168201909252611c029181019061234b565b60015b611c62573d808015611c33576040519150601f19603f3d011682016040523d82523d6000602084013e611c38565b606091505b508051611c5a5760405160e560020a62461bcd02815260040161059190612505565b805181602001fd5b600160e060020a0319167f150b7a0200000000000000000000000000000000000000000000000000000000149050611276565b506001949350505050565b6000600160e060020a031982167f80ac58cd000000000000000000000000000000000000000000000000000000001480611d035750600160e060020a031982167f5b5e139f00000000000000000000000000000000000000000000000000000000145b8061047057507f01ffc9a700000000000000000000000000000000000000000000000000000000600160e060020a0319831614610470565b600160a060020a038316611d9657611d9181600880546000838152600960205260408120829055600182018355919091527ff3f7a9fe364faab93b216da50a3214154f22a0a2b415b23a84c8169e8b636ee30155565b611db9565b81600160a060020a031683600160a060020a031614611db957611db98382611df3565b600160a060020a038216611dd0576106e981611e90565b82600160a060020a031682600160a060020a0316146106e9576106e98282611f72565b60006001611e0084610dce565b611e0a919061260a565b600083815260076020526040902054909150808214611e5d57600160a060020a03841660009081526006602090815260408083208584528252808320548484528184208190558352600790915290208190555b506000918252600760209081526040808420849055600160a060020a039094168352600681528383209183525290812055565b600854600090611ea29060019061260a565b60008381526009602052604081205460088054939450909284908110611edb5760e060020a634e487b7102600052603260045260246000fd5b906000526020600020015490508060088381548110611f0d5760e060020a634e487b7102600052603260045260246000fd5b6000918252602080832090910192909255828152600990915260408082208490558582528120556008805480611f565760e060020a634e487b7102600052603160045260246000fd5b6001900381819060005260206000200160009055905550505050565b6000611f7d83610dce565b600160a060020a039093166000908152600660209081526040808320868452825280832085905593825260079052919091209190915550565b828054611fc290612664565b90600052602060002090601f016020900481019282611fe4576000855561202a565b82601f10611ffd57805160ff191683800117855561202a565b8280016001018555821561202a579182015b8281111561202a57825182559160200191906001019061200f565b5061203692915061203a565b5090565b5b80821115612036576000815560010161203b565b600067ffffffffffffffff8084111561206a5761206a612703565b604051601f8501601f19908116603f0116810190828211818310171561209257612092612703565b816040528093508581528686860111156120ab57600080fd5b858560208301376000602087830101525050509392505050565b8035600160a060020a03811681146120dc57600080fd5b919050565b803560ff811681146120dc57600080fd5b600060208284031215612103578081fd5b61108d826120c5565b6000806040838503121561211e578081fd5b612127836120c5565b9150612135602084016120c5565b90509250929050565b600080600060608486031215612152578081fd5b61215b846120c5565b9250612169602085016120c5565b9150604084013590509250925092565b6000806000806080858703121561218e578081fd5b612197856120c5565b93506121a5602086016120c5565b925060408501359150606085013567ffffffffffffffff8111156121c7578182fd5b8501601f810187136121d7578182fd5b6121e68782356020840161204f565b91505092959194509250565b60008060408385031215612204578182fd5b61220d836120c5565b915060208301358015158114612221578182fd5b809150509250929050565b600080600080600060808688031215612243578081fd5b61224c866120c5565b9450602086013567ffffffffffffffff80821115612268578283fd5b818801915088601f83011261227b578283fd5b813581811115612289578384fd5b89602082850101111561229a578384fd5b6020830196508095505050506122b2604087016120e1565b91506122c0606087016120e1565b90509295509295909350565b600080604083850312156122de578182fd5b6122e7836120c5565b946020939093013593505050565b600060208284031215612306578081fd5b5035919050565b6000806040838503121561231f578182fd5b82359150612135602084016120c5565b600060208284031215612340578081fd5b813561108d8161271c565b60006020828403121561235c578081fd5b815161108d8161271c565b600060208284031215612378578081fd5b813567ffffffffffffffff81111561238e578182fd5b8201601f8101841361239e578182fd5b6112768482356020840161204f565b600081518084526123c5816020860160208601612621565b601f01601f19169290920160200192915050565b600083516123eb818460208801612621565b8351908301906123ff818360208801612621565b01949350505050565b7f416363657373436f6e74726f6c3a206163636f756e7420000000000000000000815260008351612440816017850160208801612621565b7f206973206d697373696e6720726f6c6520000000000000000000000000000000601791840191820152835161247d816028840160208801612621565b01602801949350505050565b6000600160a060020a038087168352808616602084015250836040830152608060608301526124bb60808301846123ad565b9695505050505050565b60208152600061108d60208301846123ad565b6060815260006124eb60608301866123ad565b60ff94851660208401529290931660409091015292915050565b60208082526032908201527f4552433732313a207472616e7366657220746f206e6f6e20455243373231526560408201527f63656976657220696d706c656d656e7465720000000000000000000000000000606082015260800190565b60208082526031908201527f4552433732313a207472616e736665722063616c6c6572206973206e6f74206f60408201527f776e6572206e6f7220617070726f766564000000000000000000000000000000606082015260800190565b600082198211156125d2576125d26126d1565b500190565b6000826125e6576125e66126ea565b500490565b6000816000190483118215151615612605576126056126d1565b500290565b60008282101561261c5761261c6126d1565b500390565b60005b8381101561263c578181015183820152602001612624565b83811115610fa25750506000910152565b60008161265c5761265c6126d1565b506000190190565b60028104600182168061267857607f821691505b6020821081141561269c5760e060020a634e487b7102600052602260045260246000fd5b50919050565b60006000198214156126b6576126b66126d1565b5060010190565b6000826126cc576126cc6126ea565b500690565b60e060020a634e487b7102600052601160045260246000fd5b60e060020a634e487b7102600052601260045260246000fd5b60e060020a634e487b7102600052604160045260246000fd5b600160e060020a03198116811461273257600080fd5b5056fea2646970667358221220cd3ee9c513fafa8c22a25a758e944468d11bbf07ca9e363f918f2e633da57e7764736f6c63430008040033",
  "immutableReferences": {},
  "source": "// SPDX-License-Identifier: MIT\npragma solidity ^0.8.0;\n\nimport \"@openzeppelin/contracts/access/AccessControl.sol\";\nimport \"@openzeppelin/contracts/token/ERC721/ERC721.sol\";\nimport \"@openzeppelin/contracts/token/ERC721/extensions/ERC721Enumerable.sol\";\n\ncontract UniArtsNFT is ERC721, ERC721Enumerable, AccessControl {\n  // Create a new role identifier for the minter role\n  bytes32 public constant MINTER_ROLE = keccak256(\"MINTER_ROLE\");\n\n  string _baseURIValue;\n\n  struct TokenInfo {\n    string title;\n    uint8 class_id;\n    uint8 size;\n  }\n\n  /* Our tokeninfo are stored here */\n  TokenInfo[] public token_infos;\n\n  constructor(address minter, string memory baseURIValue_) ERC721(\"UniArtsNFT\", \"UANFT\") {\n    // Grant the minter role to a specified account\n    _setupRole(MINTER_ROLE, minter);\n    _setupRole(DEFAULT_ADMIN_ROLE, minter);\n    _baseURIValue = baseURIValue_;\n  }\n\n  function _baseURI() internal view override returns (string memory) {\n    return _baseURIValue;\n  }\n\n  function baseURI() public view returns (string memory) {\n    return _baseURI();\n  }\n\n  function setBaseURI(string memory newBase) public {\n    // Only admin can setBaseURI\n    require(hasRole(DEFAULT_ADMIN_ROLE, msg.sender), \"Caller is not a admin\");\n    _baseURIValue = newBase;\n  }\n  \n  function createNFT(address user_address, string calldata title, uint8 class_id, uint8 size) external {\n    // Only minters can mint\n    // Check that the calling account has the minter role\n    require(hasRole(MINTER_ROLE, msg.sender), \"Caller is not a minter\");\n\n    token_infos.push(TokenInfo({title: title, class_id: class_id, size: size}));\n    uint tokenId = token_infos.length - 1;\n    _mint(user_address, tokenId);\n  }\n\n  function getNFT(\n    uint tokenId\n  ) external view returns (\n    string memory title,\n    uint8 class_id,\n    uint8 size\n  ) {\n    return (\n      token_infos[tokenId].title,\n      token_infos[tokenId].class_id,\n      token_infos[tokenId].size\n    );\n  }\n\n  function _beforeTokenTransfer(\n      address from,\n      address to,\n      uint256 tokenId\n  ) internal virtual override(ERC721, ERC721Enumerable) {\n    super._beforeTokenTransfer(from, to, tokenId);\n  }\n\n  /**\n  * override(ERC721, ERC721Enumerable, AccessControl) -> here you're specifying only two base classes ERC721, AccessControl\n  * */\n  function supportsInterface(bytes4 interfaceId)\n      public\n      view\n      override(ERC721, ERC721Enumerable, AccessControl)\n      returns (bool)\n  {\n      return super.supportsInterface(interfaceId);\n  }\n}\n",
  "sourcePath": "/Users/tuminfei/Code/Nodejs/uniarts-eth-dao/contracts/ERC721/UniArtsNFT.sol",
  "compiler": {
    "name": "solc",
    "version": "0.8.4+commit.c7e474f2.Emscripten.clang"
  },
  "schemaVersion": "3.3.0",
  "updatedAt": "2021-10-28T06:51:17.270Z",
  "devdoc": {
    "kind": "dev",
    "methods": {
      "approve(address,uint256)": {
        "details": "See {IERC721-approve}."
      },
      "balanceOf(address)": {
        "details": "See {IERC721-balanceOf}."
      },
      "getApproved(uint256)": {
        "details": "See {IERC721-getApproved}."
      },
      "getRoleAdmin(bytes32)": {
        "details": "Returns the admin role that controls `role`. See {grantRole} and {revokeRole}. To change a role's admin, use {_setRoleAdmin}."
      },
      "grantRole(bytes32,address)": {
        "details": "Grants `role` to `account`. If `account` had not been already granted `role`, emits a {RoleGranted} event. Requirements: - the caller must have ``role``'s admin role."
      },
      "hasRole(bytes32,address)": {
        "details": "Returns `true` if `account` has been granted `role`."
      },
      "isApprovedForAll(address,address)": {
        "details": "See {IERC721-isApprovedForAll}."
      },
      "name()": {
        "details": "See {IERC721Metadata-name}."
      },
      "ownerOf(uint256)": {
        "details": "See {IERC721-ownerOf}."
      },
      "renounceRole(bytes32,address)": {
        "details": "Revokes `role` from the calling account. Roles are often managed via {grantRole} and {revokeRole}: this function's purpose is to provide a mechanism for accounts to lose their privileges if they are compromised (such as when a trusted device is misplaced). If the calling account had been granted `role`, emits a {RoleRevoked} event. Requirements: - the caller must be `account`."
      },
      "revokeRole(bytes32,address)": {
        "details": "Revokes `role` from `account`. If `account` had been granted `role`, emits a {RoleRevoked} event. Requirements: - the caller must have ``role``'s admin role."
      },
      "safeTransferFrom(address,address,uint256)": {
        "details": "See {IERC721-safeTransferFrom}."
      },
      "safeTransferFrom(address,address,uint256,bytes)": {
        "details": "See {IERC721-safeTransferFrom}."
      },
      "setApprovalForAll(address,bool)": {
        "details": "See {IERC721-setApprovalForAll}."
      },
      "symbol()": {
        "details": "See {IERC721Metadata-symbol}."
      },
      "tokenByIndex(uint256)": {
        "details": "See {IERC721Enumerable-tokenByIndex}."
      },
      "tokenOfOwnerByIndex(address,uint256)": {
        "details": "See {IERC721Enumerable-tokenOfOwnerByIndex}."
      },
      "tokenURI(uint256)": {
        "details": "See {IERC721Metadata-tokenURI}."
      },
      "totalSupply()": {
        "details": "See {IERC721Enumerable-totalSupply}."
      },
      "transferFrom(address,address,uint256)": {
        "details": "See {IERC721-transferFrom}."
      }
    },
    "version": 1
  },
  "userdoc": {
    "kind": "user",
    "methods": {
      "supportsInterface(bytes4)": {
        "notice": "override(ERC721, ERC721Enumerable, AccessControl) -> here you're specifying only two base classes ERC721, AccessControl "
      }
    },
    "version": 1
  }
}