{
  "contractName": "UniArtsNFT",
  "abi": [
    {
      "inputs": [
        {
          "internalType": "address",
          "name": "minter",
          "type": "address"
        },
        {
          "internalType": "string",
          "name": "baseURIValue_",
          "type": "string"
        }
      ],
      "stateMutability": "nonpayable",
      "type": "constructor"
    },
    {
      "anonymous": false,
      "inputs": [
        {
          "indexed": true,
          "internalType": "address",
          "name": "owner",
          "type": "address"
        },
        {
          "indexed": true,
          "internalType": "address",
          "name": "approved",
          "type": "address"
        },
        {
          "indexed": true,
          "internalType": "uint256",
          "name": "tokenId",
          "type": "uint256"
        }
      ],
      "name": "Approval",
      "type": "event"
    },
    {
      "anonymous": false,
      "inputs": [
        {
          "indexed": true,
          "internalType": "address",
          "name": "owner",
          "type": "address"
        },
        {
          "indexed": true,
          "internalType": "address",
          "name": "operator",
          "type": "address"
        },
        {
          "indexed": false,
          "internalType": "bool",
          "name": "approved",
          "type": "bool"
        }
      ],
      "name": "ApprovalForAll",
      "type": "event"
    },
    {
      "anonymous": false,
      "inputs": [
        {
          "indexed": true,
          "internalType": "bytes32",
          "name": "role",
          "type": "bytes32"
        },
        {
          "indexed": true,
          "internalType": "bytes32",
          "name": "previousAdminRole",
          "type": "bytes32"
        },
        {
          "indexed": true,
          "internalType": "bytes32",
          "name": "newAdminRole",
          "type": "bytes32"
        }
      ],
      "name": "RoleAdminChanged",
      "type": "event"
    },
    {
      "anonymous": false,
      "inputs": [
        {
          "indexed": true,
          "internalType": "bytes32",
          "name": "role",
          "type": "bytes32"
        },
        {
          "indexed": true,
          "internalType": "address",
          "name": "account",
          "type": "address"
        },
        {
          "indexed": true,
          "internalType": "address",
          "name": "sender",
          "type": "address"
        }
      ],
      "name": "RoleGranted",
      "type": "event"
    },
    {
      "anonymous": false,
      "inputs": [
        {
          "indexed": true,
          "internalType": "bytes32",
          "name": "role",
          "type": "bytes32"
        },
        {
          "indexed": true,
          "internalType": "address",
          "name": "account",
          "type": "address"
        },
        {
          "indexed": true,
          "internalType": "address",
          "name": "sender",
          "type": "address"
        }
      ],
      "name": "RoleRevoked",
      "type": "event"
    },
    {
      "anonymous": false,
      "inputs": [
        {
          "indexed": true,
          "internalType": "address",
          "name": "from",
          "type": "address"
        },
        {
          "indexed": true,
          "internalType": "address",
          "name": "to",
          "type": "address"
        },
        {
          "indexed": true,
          "internalType": "uint256",
          "name": "tokenId",
          "type": "uint256"
        }
      ],
      "name": "Transfer",
      "type": "event"
    },
    {
      "inputs": [],
      "name": "DEFAULT_ADMIN_ROLE",
      "outputs": [
        {
          "internalType": "bytes32",
          "name": "",
          "type": "bytes32"
        }
      ],
      "stateMutability": "view",
      "type": "function"
    },
    {
      "inputs": [],
      "name": "MINTER_ROLE",
      "outputs": [
        {
          "internalType": "bytes32",
          "name": "",
          "type": "bytes32"
        }
      ],
      "stateMutability": "view",
      "type": "function"
    },
    {
      "inputs": [
        {
          "internalType": "address",
          "name": "to",
          "type": "address"
        },
        {
          "internalType": "uint256",
          "name": "tokenId",
          "type": "uint256"
        }
      ],
      "name": "approve",
      "outputs": [],
      "stateMutability": "nonpayable",
      "type": "function"
    },
    {
      "inputs": [
        {
          "internalType": "address",
          "name": "owner",
          "type": "address"
        }
      ],
      "name": "balanceOf",
      "outputs": [
        {
          "internalType": "uint256",
          "name": "",
          "type": "uint256"
        }
      ],
      "stateMutability": "view",
      "type": "function"
    },
    {
      "inputs": [
        {
          "internalType": "uint256",
          "name": "tokenId",
          "type": "uint256"
        }
      ],
      "name": "getApproved",
      "outputs": [
        {
          "internalType": "address",
          "name": "",
          "type": "address"
        }
      ],
      "stateMutability": "view",
      "type": "function"
    },
    {
      "inputs": [
        {
          "internalType": "bytes32",
          "name": "role",
          "type": "bytes32"
        }
      ],
      "name": "getRoleAdmin",
      "outputs": [
        {
          "internalType": "bytes32",
          "name": "",
          "type": "bytes32"
        }
      ],
      "stateMutability": "view",
      "type": "function"
    },
    {
      "inputs": [
        {
          "internalType": "bytes32",
          "name": "role",
          "type": "bytes32"
        },
        {
          "internalType": "address",
          "name": "account",
          "type": "address"
        }
      ],
      "name": "grantRole",
      "outputs": [],
      "stateMutability": "nonpayable",
      "type": "function"
    },
    {
      "inputs": [
        {
          "internalType": "bytes32",
          "name": "role",
          "type": "bytes32"
        },
        {
          "internalType": "address",
          "name": "account",
          "type": "address"
        }
      ],
      "name": "hasRole",
      "outputs": [
        {
          "internalType": "bool",
          "name": "",
          "type": "bool"
        }
      ],
      "stateMutability": "view",
      "type": "function"
    },
    {
      "inputs": [
        {
          "internalType": "address",
          "name": "owner",
          "type": "address"
        },
        {
          "internalType": "address",
          "name": "operator",
          "type": "address"
        }
      ],
      "name": "isApprovedForAll",
      "outputs": [
        {
          "internalType": "bool",
          "name": "",
          "type": "bool"
        }
      ],
      "stateMutability": "view",
      "type": "function"
    },
    {
      "inputs": [],
      "name": "name",
      "outputs": [
        {
          "internalType": "string",
          "name": "",
          "type": "string"
        }
      ],
      "stateMutability": "view",
      "type": "function"
    },
    {
      "inputs": [
        {
          "internalType": "uint256",
          "name": "tokenId",
          "type": "uint256"
        }
      ],
      "name": "ownerOf",
      "outputs": [
        {
          "internalType": "address",
          "name": "",
          "type": "address"
        }
      ],
      "stateMutability": "view",
      "type": "function"
    },
    {
      "inputs": [
        {
          "internalType": "bytes32",
          "name": "role",
          "type": "bytes32"
        },
        {
          "internalType": "address",
          "name": "account",
          "type": "address"
        }
      ],
      "name": "renounceRole",
      "outputs": [],
      "stateMutability": "nonpayable",
      "type": "function"
    },
    {
      "inputs": [
        {
          "internalType": "bytes32",
          "name": "role",
          "type": "bytes32"
        },
        {
          "internalType": "address",
          "name": "account",
          "type": "address"
        }
      ],
      "name": "revokeRole",
      "outputs": [],
      "stateMutability": "nonpayable",
      "type": "function"
    },
    {
      "inputs": [
        {
          "internalType": "address",
          "name": "from",
          "type": "address"
        },
        {
          "internalType": "address",
          "name": "to",
          "type": "address"
        },
        {
          "internalType": "uint256",
          "name": "tokenId",
          "type": "uint256"
        }
      ],
      "name": "safeTransferFrom",
      "outputs": [],
      "stateMutability": "nonpayable",
      "type": "function"
    },
    {
      "inputs": [
        {
          "internalType": "address",
          "name": "from",
          "type": "address"
        },
        {
          "internalType": "address",
          "name": "to",
          "type": "address"
        },
        {
          "internalType": "uint256",
          "name": "tokenId",
          "type": "uint256"
        },
        {
          "internalType": "bytes",
          "name": "_data",
          "type": "bytes"
        }
      ],
      "name": "safeTransferFrom",
      "outputs": [],
      "stateMutability": "nonpayable",
      "type": "function"
    },
    {
      "inputs": [
        {
          "internalType": "address",
          "name": "operator",
          "type": "address"
        },
        {
          "internalType": "bool",
          "name": "approved",
          "type": "bool"
        }
      ],
      "name": "setApprovalForAll",
      "outputs": [],
      "stateMutability": "nonpayable",
      "type": "function"
    },
    {
      "inputs": [],
      "name": "symbol",
      "outputs": [
        {
          "internalType": "string",
          "name": "",
          "type": "string"
        }
      ],
      "stateMutability": "view",
      "type": "function"
    },
    {
      "inputs": [
        {
          "internalType": "uint256",
          "name": "index",
          "type": "uint256"
        }
      ],
      "name": "tokenByIndex",
      "outputs": [
        {
          "internalType": "uint256",
          "name": "",
          "type": "uint256"
        }
      ],
      "stateMutability": "view",
      "type": "function"
    },
    {
      "inputs": [
        {
          "internalType": "address",
          "name": "owner",
          "type": "address"
        },
        {
          "internalType": "uint256",
          "name": "index",
          "type": "uint256"
        }
      ],
      "name": "tokenOfOwnerByIndex",
      "outputs": [
        {
          "internalType": "uint256",
          "name": "",
          "type": "uint256"
        }
      ],
      "stateMutability": "view",
      "type": "function"
    },
    {
      "inputs": [
        {
          "internalType": "uint256",
          "name": "tokenId",
          "type": "uint256"
        }
      ],
      "name": "tokenURI",
      "outputs": [
        {
          "internalType": "string",
          "name": "",
          "type": "string"
        }
      ],
      "stateMutability": "view",
      "type": "function"
    },
    {
      "inputs": [
        {
          "internalType": "uint256",
          "name": "",
          "type": "uint256"
        }
      ],
      "name": "token_infos",
      "outputs": [
        {
          "internalType": "string",
          "name": "title",
          "type": "string"
        },
        {
          "internalType": "uint8",
          "name": "class_id",
          "type": "uint8"
        },
        {
          "internalType": "uint8",
          "name": "size",
          "type": "uint8"
        }
      ],
      "stateMutability": "view",
      "type": "function"
    },
    {
      "inputs": [],
      "name": "totalSupply",
      "outputs": [
        {
          "internalType": "uint256",
          "name": "",
          "type": "uint256"
        }
      ],
      "stateMutability": "view",
      "type": "function"
    },
    {
      "inputs": [
        {
          "internalType": "address",
          "name": "from",
          "type": "address"
        },
        {
          "internalType": "address",
          "name": "to",
          "type": "address"
        },
        {
          "internalType": "uint256",
          "name": "tokenId",
          "type": "uint256"
        }
      ],
      "name": "transferFrom",
      "outputs": [],
      "stateMutability": "nonpayable",
      "type": "function"
    },
    {
      "inputs": [],
      "name": "baseURI",
      "outputs": [
        {
          "internalType": "string",
          "name": "",
          "type": "string"
        }
      ],
      "stateMutability": "view",
      "type": "function"
    },
    {
      "inputs": [
        {
          "internalType": "string",
          "name": "newBase",
          "type": "string"
        }
      ],
      "name": "setBaseURI",
      "outputs": [],
      "stateMutability": "nonpayable",
      "type": "function"
    },
    {
      "inputs": [
        {
          "internalType": "address",
          "name": "user_address",
          "type": "address"
        },
        {
          "internalType": "string",
          "name": "title",
          "type": "string"
        },
        {
          "internalType": "uint8",
          "name": "class_id",
          "type": "uint8"
        },
        {
          "internalType": "uint8",
          "name": "size",
          "type": "uint8"
        }
      ],
      "name": "createNFT",
      "outputs": [],
      "stateMutability": "nonpayable",
      "type": "function"
    },
    {
      "inputs": [
        {
          "internalType": "uint256",
          "name": "tokenId",
          "type": "uint256"
        }
      ],
      "name": "getNFT",
      "outputs": [
        {
          "internalType": "string",
          "name": "title",
          "type": "string"
        },
        {
          "internalType": "uint8",
          "name": "class_id",
          "type": "uint8"
        },
        {
          "internalType": "uint8",
          "name": "size",
          "type": "uint8"
        }
      ],
      "stateMutability": "view",
      "type": "function"
    },
    {
      "inputs": [
        {
          "internalType": "bytes4",
          "name": "interfaceId",
          "type": "bytes4"
        }
      ],
      "name": "supportsInterface",
      "outputs": [
        {
          "internalType": "bool",
          "name": "",
          "type": "bool"
        }
      ],
      "stateMutability": "view",
      "type": "function"
    }
  ],
  "bytecode": "0x60806040523480156200001157600080fd5b5060405162004a1e38038062004a1e8339818101604052810190620000379190620003f3565b6040518060400160405280600a81526020017f556e69417274734e4654000000000000000000000000000000000000000000008152506040518060400160405280600581526020017f55414e46540000000000000000000000000000000000000000000000000000008152508160009080519060200190620000bb929190620002ba565b508060019080519060200190620000d4929190620002ba565b505050620001097f9f2df0fed2c77648de5860a4cc508cd0818c85b8b8a1ab4ceeef8d981c8956a6836200013f60201b60201c565b6200011e6000801b836200013f60201b60201c565b80600b908051906020019062000136929190620002ba565b5050506200060b565b6200015182826200015560201b60201c565b5050565b6200016782826200024760201b60201c565b62000243576001600a600084815260200190815260200160002060000160008373ffffffffffffffffffffffffffffffffffffffff1673ffffffffffffffffffffffffffffffffffffffff16815260200190815260200160002060006101000a81548160ff021916908315150217905550620001e8620002b260201b60201c565b73ffffffffffffffffffffffffffffffffffffffff168173ffffffffffffffffffffffffffffffffffffffff16837f2f8788117e7eff1d82e926ec794901d17c78024a50270940304540a733656f0d60405160405180910390a45b5050565b6000600a600084815260200190815260200160002060000160008373ffffffffffffffffffffffffffffffffffffffff1673ffffffffffffffffffffffffffffffffffffffff16815260200190815260200160002060009054906101000a900460ff16905092915050565b600033905090565b828054620002c89062000516565b90600052602060002090601f016020900481019282620002ec576000855562000338565b82601f106200030757805160ff191683800117855562000338565b8280016001018555821562000338579182015b82811115620003375782518255916020019190600101906200031a565b5b5090506200034791906200034b565b5090565b5b80821115620003665760008160009055506001016200034c565b5090565b6000620003816200037b8462000476565b6200044d565b9050828152602081018484840111156200039a57600080fd5b620003a7848285620004e0565b509392505050565b600081519050620003c081620005f1565b92915050565b600082601f830112620003d857600080fd5b8151620003ea8482602086016200036a565b91505092915050565b600080604083850312156200040757600080fd5b60006200041785828601620003af565b925050602083015167ffffffffffffffff8111156200043557600080fd5b6200044385828601620003c6565b9150509250929050565b6000620004596200046c565b90506200046782826200054c565b919050565b6000604051905090565b600067ffffffffffffffff821115620004945762000493620005b1565b5b6200049f82620005e0565b9050602081019050919050565b6000620004b982620004c0565b9050919050565b600073ffffffffffffffffffffffffffffffffffffffff82169050919050565b60005b8381101562000500578082015181840152602081019050620004e3565b8381111562000510576000848401525b50505050565b600060028204905060018216806200052f57607f821691505b6020821081141562000546576200054562000582565b5b50919050565b6200055782620005e0565b810181811067ffffffffffffffff82111715620005795762000578620005b1565b5b80604052505050565b7f4e487b7100000000000000000000000000000000000000000000000000000000600052602260045260246000fd5b7f4e487b7100000000000000000000000000000000000000000000000000000000600052604160045260246000fd5b6000601f19601f8301169050919050565b620005fc81620004ac565b81146200060857600080fd5b50565b614403806200061b6000396000f3fe608060405234801561001057600080fd5b50600436106101c45760003560e01c80635c1d7a6a116100f9578063a217fddf11610097578063c87b56dd11610071578063c87b56dd1461053f578063d53913931461056f578063d547741f1461058d578063e985e9c5146105a9576101c4565b8063a217fddf146104e9578063a22cb46514610507578063b88d4fde14610523576101c4565b80636c0360eb116100d35780636c0360eb1461044d57806370a082311461046b57806391d148541461049b57806395d89b41146104cb576101c4565b80635c1d7a6a146103cf5780635e82866e146103eb5780636352211e1461041d576101c4565b80632f2ff15d1161016657806342842e0e1161014057806342842e0e146103355780634f6ccce71461035157806355f804b314610381578063576f7ea71461039d576101c4565b80632f2ff15d146102cd5780632f745c59146102e957806336568abe14610319576101c4565b8063095ea7b3116101a2578063095ea7b31461024757806318160ddd1461026357806323b872dd14610281578063248a9ca31461029d576101c4565b806301ffc9a7146101c957806306fdde03146101f9578063081812fc14610217575b600080fd5b6101e360048036038101906101de9190613087565b6105d9565b6040516101f091906135f8565b60405180910390f35b6102016105eb565b60405161020e919061362e565b60405180910390f35b610231600480360381019061022c919061311a565b61067d565b60405161023e9190613591565b60405180910390f35b610261600480360381019061025c9190612fe6565b610702565b005b61026b61081a565b604051610278919061390e565b60405180910390f35b61029b60048036038101906102969190612e60565b610827565b005b6102b760048036038101906102b29190613022565b610887565b6040516102c49190613613565b60405180910390f35b6102e760048036038101906102e2919061304b565b6108a7565b005b61030360048036038101906102fe9190612fe6565b6108d0565b604051610310919061390e565b60405180910390f35b610333600480360381019061032e919061304b565b610975565b005b61034f600480360381019061034a9190612e60565b6109f8565b005b61036b6004803603810190610366919061311a565b610a18565b604051610378919061390e565b60405180910390f35b61039b600480360381019061039691906130d9565b610aaf565b005b6103b760048036038101906103b2919061311a565b610b15565b6040516103c693929190613650565b60405180910390f35b6103e960048036038101906103e49190612f66565b610cb0565b005b6104056004803603810190610400919061311a565b610e32565b60405161041493929190613650565b60405180910390f35b6104376004803603810190610432919061311a565b610f0e565b6040516104449190613591565b60405180910390f35b610455610fc0565b604051610462919061362e565b60405180910390f35b61048560048036038101906104809190612dfb565b610fcf565b604051610492919061390e565b60405180910390f35b6104b560048036038101906104b0919061304b565b611087565b6040516104c291906135f8565b60405180910390f35b6104d36110f2565b6040516104e0919061362e565b60405180910390f35b6104f1611184565b6040516104fe9190613613565b60405180910390f35b610521600480360381019061051c9190612f2a565b61118b565b005b61053d60048036038101906105389190612eaf565b61130c565b005b6105596004803603810190610554919061311a565b61136e565b604051610566919061362e565b60405180910390f35b610577611415565b6040516105849190613613565b60405180910390f35b6105a760048036038101906105a2919061304b565b611439565b005b6105c360048036038101906105be9190612e24565b611462565b6040516105d091906135f8565b60405180910390f35b60006105e4826114f6565b9050919050565b6060600080546105fa90613bff565b80601f016020809104026020016040519081016040528092919081815260200182805461062690613bff565b80156106735780601f1061064857610100808354040283529160200191610673565b820191906000526020600020905b81548152906001019060200180831161065657829003601f168201915b5050505050905090565b600061068882611570565b6106c7576040517f08c379a00000000000000000000000000000000000000000000000000000000081526004016106be9061382e565b60405180910390fd5b6004600083815260200190815260200160002060009054906101000a900473ffffffffffffffffffffffffffffffffffffffff169050919050565b600061070d82610f0e565b90508073ffffffffffffffffffffffffffffffffffffffff168373ffffffffffffffffffffffffffffffffffffffff16141561077e576040517f08c379a00000000000000000000000000000000000000000000000000000000081526004016107759061388e565b60405180910390fd5b8073ffffffffffffffffffffffffffffffffffffffff1661079d6115dc565b73ffffffffffffffffffffffffffffffffffffffff1614806107cc57506107cb816107c66115dc565b611462565b5b61080b576040517f08c379a00000000000000000000000000000000000000000000000000000000081526004016108029061378e565b60405180910390fd5b61081583836115e4565b505050565b6000600880549050905090565b6108386108326115dc565b8261169d565b610877576040517f08c379a000000000000000000000000000000000000000000000000000000000815260040161086e906138ae565b60405180910390fd5b61088283838361177b565b505050565b6000600a6000838152602001908152602001600020600101549050919050565b6108b082610887565b6108c1816108bc6115dc565b6119d7565b6108cb8383611a74565b505050565b60006108db83610fcf565b821061091c576040517f08c379a0000000000000000000000000000000000000000000000000000000008152600401610913906136ce565b60405180910390fd5b600660008473ffffffffffffffffffffffffffffffffffffffff1673ffffffffffffffffffffffffffffffffffffffff168152602001908152602001600020600083815260200190815260200160002054905092915050565b61097d6115dc565b73ffffffffffffffffffffffffffffffffffffffff168173ffffffffffffffffffffffffffffffffffffffff16146109ea576040517f08c379a00000000000000000000000000000000000000000000000000000000081526004016109e1906138ee565b60405180910390fd5b6109f48282611b55565b5050565b610a138383836040518060200160405280600081525061130c565b505050565b6000610a2261081a565b8210610a63576040517f08c379a0000000000000000000000000000000000000000000000000000000008152600401610a5a906138ce565b60405180910390fd5b60088281548110610a9d577f4e487b7100000000000000000000000000000000000000000000000000000000600052603260045260246000fd5b90600052602060002001549050919050565b610abc6000801b33611087565b610afb576040517f08c379a0000000000000000000000000000000000000000000000000000000008152600401610af29061368e565b60405180910390fd5b80600b9080519060200190610b11929190612bab565b5050565b6060600080600c8481548110610b54577f4e487b7100000000000000000000000000000000000000000000000000000000600052603260045260246000fd5b9060005260206000209060020201600001600c8581548110610b9f577f4e487b7100000000000000000000000000000000000000000000000000000000600052603260045260246000fd5b906000526020600020906002020160010160009054906101000a900460ff16600c8681548110610bf8577f4e487b7100000000000000000000000000000000000000000000000000000000600052603260045260246000fd5b906000526020600020906002020160010160019054906101000a900460ff16828054610c2390613bff565b80601f0160208091040260200160405190810160405280929190818152602001828054610c4f90613bff565b8015610c9c5780601f10610c7157610100808354040283529160200191610c9c565b820191906000526020600020905b815481529060010190602001808311610c7f57829003601f168201915b505050505092509250925092509193909250565b610cda7f9f2df0fed2c77648de5860a4cc508cd0818c85b8b8a1ab4ceeef8d981c8956a633611087565b610d19576040517f08c379a0000000000000000000000000000000000000000000000000000000008152600401610d10906137ae565b60405180910390fd5b600c604051806060016040528086868080601f016020809104026020016040519081016040528093929190818152602001838380828437600081840152601f19601f8201169050808301925050505050505081526020018460ff1681526020018360ff1681525090806001815401808255809150506001900390600052602060002090600202016000909190919091506000820151816000019080519060200190610dc5929190612bab565b5060208201518160010160006101000a81548160ff021916908360ff16021790555060408201518160010160016101000a81548160ff021916908360ff160217905550505060006001600c80549050610e1e9190613ad4565b9050610e2a8682611c37565b505050505050565b600c8181548110610e4257600080fd5b9060005260206000209060020201600091509050806000018054610e6590613bff565b80601f0160208091040260200160405190810160405280929190818152602001828054610e9190613bff565b8015610ede5780601f10610eb357610100808354040283529160200191610ede565b820191906000526020600020905b815481529060010190602001808311610ec157829003601f168201915b5050505050908060010160009054906101000a900460ff16908060010160019054906101000a900460ff16905083565b6000806002600084815260200190815260200160002060009054906101000a900473ffffffffffffffffffffffffffffffffffffffff169050600073ffffffffffffffffffffffffffffffffffffffff168173ffffffffffffffffffffffffffffffffffffffff161415610fb7576040517f08c379a0000000000000000000000000000000000000000000000000000000008152600401610fae906137ee565b60405180910390fd5b80915050919050565b6060610fca611e05565b905090565b60008073ffffffffffffffffffffffffffffffffffffffff168273ffffffffffffffffffffffffffffffffffffffff161415611040576040517f08c379a0000000000000000000000000000000000000000000000000000000008152600401611037906137ce565b60405180910390fd5b600360008373ffffffffffffffffffffffffffffffffffffffff1673ffffffffffffffffffffffffffffffffffffffff168152602001908152602001600020549050919050565b6000600a600084815260200190815260200160002060000160008373ffffffffffffffffffffffffffffffffffffffff1673ffffffffffffffffffffffffffffffffffffffff16815260200190815260200160002060009054906101000a900460ff16905092915050565b60606001805461110190613bff565b80601f016020809104026020016040519081016040528092919081815260200182805461112d90613bff565b801561117a5780601f1061114f5761010080835404028352916020019161117a565b820191906000526020600020905b81548152906001019060200180831161115d57829003601f168201915b5050505050905090565b6000801b81565b6111936115dc565b73ffffffffffffffffffffffffffffffffffffffff168273ffffffffffffffffffffffffffffffffffffffff161415611201576040517f08c379a00000000000000000000000000000000000000000000000000000000081526004016111f89061374e565b60405180910390fd5b806005600061120e6115dc565b73ffffffffffffffffffffffffffffffffffffffff1673ffffffffffffffffffffffffffffffffffffffff16815260200190815260200160002060008473ffffffffffffffffffffffffffffffffffffffff1673ffffffffffffffffffffffffffffffffffffffff16815260200190815260200160002060006101000a81548160ff0219169083151502179055508173ffffffffffffffffffffffffffffffffffffffff166112bb6115dc565b73ffffffffffffffffffffffffffffffffffffffff167f17307eab39ab6107e8899845ad3d59bd9653f200f220920489ca2b5937696c318360405161130091906135f8565b60405180910390a35050565b61131d6113176115dc565b8361169d565b61135c576040517f08c379a0000000000000000000000000000000000000000000000000000000008152600401611353906138ae565b60405180910390fd5b61136884848484611e97565b50505050565b606061137982611570565b6113b8576040517f08c379a00000000000000000000000000000000000000000000000000000000081526004016113af9061386e565b60405180910390fd5b60006113c2611e05565b905060008151116113e2576040518060200160405280600081525061140d565b806113ec84611ef3565b6040516020016113fd929190613533565b6040516020818303038152906040525b915050919050565b7f9f2df0fed2c77648de5860a4cc508cd0818c85b8b8a1ab4ceeef8d981c8956a681565b61144282610887565b6114538161144e6115dc565b6119d7565b61145d8383611b55565b505050565b6000600560008473ffffffffffffffffffffffffffffffffffffffff1673ffffffffffffffffffffffffffffffffffffffff16815260200190815260200160002060008373ffffffffffffffffffffffffffffffffffffffff1673ffffffffffffffffffffffffffffffffffffffff16815260200190815260200160002060009054906101000a900460ff16905092915050565b60007f7965db0b000000000000000000000000000000000000000000000000000000007bffffffffffffffffffffffffffffffffffffffffffffffffffffffff1916827bffffffffffffffffffffffffffffffffffffffffffffffffffffffff191614806115695750611568826120a0565b5b9050919050565b60008073ffffffffffffffffffffffffffffffffffffffff166002600084815260200190815260200160002060009054906101000a900473ffffffffffffffffffffffffffffffffffffffff1673ffffffffffffffffffffffffffffffffffffffff1614159050919050565b600033905090565b816004600083815260200190815260200160002060006101000a81548173ffffffffffffffffffffffffffffffffffffffff021916908373ffffffffffffffffffffffffffffffffffffffff160217905550808273ffffffffffffffffffffffffffffffffffffffff1661165783610f0e565b73ffffffffffffffffffffffffffffffffffffffff167f8c5be1e5ebec7d5bd14f71427d1e84f3dd0314c0f7b2291e5b200ac8c7c3b92560405160405180910390a45050565b60006116a882611570565b6116e7576040517f08c379a00000000000000000000000000000000000000000000000000000000081526004016116de9061376e565b60405180910390fd5b60006116f283610f0e565b90508073ffffffffffffffffffffffffffffffffffffffff168473ffffffffffffffffffffffffffffffffffffffff16148061176157508373ffffffffffffffffffffffffffffffffffffffff166117498461067d565b73ffffffffffffffffffffffffffffffffffffffff16145b8061177257506117718185611462565b5b91505092915050565b8273ffffffffffffffffffffffffffffffffffffffff1661179b82610f0e565b73ffffffffffffffffffffffffffffffffffffffff16146117f1576040517f08c379a00000000000000000000000000000000000000000000000000000000081526004016117e89061384e565b60405180910390fd5b600073ffffffffffffffffffffffffffffffffffffffff168273ffffffffffffffffffffffffffffffffffffffff161415611861576040517f08c379a00000000000000000000000000000000000000000000000000000000081526004016118589061372e565b60405180910390fd5b61186c83838361211a565b6118776000826115e4565b6001600360008573ffffffffffffffffffffffffffffffffffffffff1673ffffffffffffffffffffffffffffffffffffffff16815260200190815260200160002060008282546118c79190613ad4565b925050819055506001600360008473ffffffffffffffffffffffffffffffffffffffff1673ffffffffffffffffffffffffffffffffffffffff168152602001908152602001600020600082825461191e91906139f3565b92505081905550816002600083815260200190815260200160002060006101000a81548173ffffffffffffffffffffffffffffffffffffffff021916908373ffffffffffffffffffffffffffffffffffffffff160217905550808273ffffffffffffffffffffffffffffffffffffffff168473ffffffffffffffffffffffffffffffffffffffff167fddf252ad1be2c89b69c2b068fc378daa952ba7f163c4a11628f55a4df523b3ef60405160405180910390a4505050565b6119e18282611087565b611a7057611a068173ffffffffffffffffffffffffffffffffffffffff16601461212a565b611a148360001c602061212a565b604051602001611a25929190613557565b6040516020818303038152906040526040517f08c379a0000000000000000000000000000000000000000000000000000000008152600401611a67919061362e565b60405180910390fd5b5050565b611a7e8282611087565b611b51576001600a600084815260200190815260200160002060000160008373ffffffffffffffffffffffffffffffffffffffff1673ffffffffffffffffffffffffffffffffffffffff16815260200190815260200160002060006101000a81548160ff021916908315150217905550611af66115dc565b73ffffffffffffffffffffffffffffffffffffffff168173ffffffffffffffffffffffffffffffffffffffff16837f2f8788117e7eff1d82e926ec794901d17c78024a50270940304540a733656f0d60405160405180910390a45b5050565b611b5f8282611087565b15611c33576000600a600084815260200190815260200160002060000160008373ffffffffffffffffffffffffffffffffffffffff1673ffffffffffffffffffffffffffffffffffffffff16815260200190815260200160002060006101000a81548160ff021916908315150217905550611bd86115dc565b73ffffffffffffffffffffffffffffffffffffffff168173ffffffffffffffffffffffffffffffffffffffff16837ff6391f5c32d9c69d2a47ea670b442974b53935d1edc7fd64eb21e047a839171b60405160405180910390a45b5050565b600073ffffffffffffffffffffffffffffffffffffffff168273ffffffffffffffffffffffffffffffffffffffff161415611ca7576040517f08c379a0000000000000000000000000000000000000000000000000000000008152600401611c9e9061380e565b60405180910390fd5b611cb081611570565b15611cf0576040517f08c379a0000000000000000000000000000000000000000000000000000000008152600401611ce79061370e565b60405180910390fd5b611cfc6000838361211a565b6001600360008473ffffffffffffffffffffffffffffffffffffffff1673ffffffffffffffffffffffffffffffffffffffff1681526020019081526020016000206000828254611d4c91906139f3565b92505081905550816002600083815260200190815260200160002060006101000a81548173ffffffffffffffffffffffffffffffffffffffff021916908373ffffffffffffffffffffffffffffffffffffffff160217905550808273ffffffffffffffffffffffffffffffffffffffff16600073ffffffffffffffffffffffffffffffffffffffff167fddf252ad1be2c89b69c2b068fc378daa952ba7f163c4a11628f55a4df523b3ef60405160405180910390a45050565b6060600b8054611e1490613bff565b80601f0160208091040260200160405190810160405280929190818152602001828054611e4090613bff565b8015611e8d5780601f10611e6257610100808354040283529160200191611e8d565b820191906000526020600020905b815481529060010190602001808311611e7057829003601f168201915b5050505050905090565b611ea284848461177b565b611eae84848484612424565b611eed576040517f08c379a0000000000000000000000000000000000000000000000000000000008152600401611ee4906136ee565b60405180910390fd5b50505050565b60606000821415611f3b576040518060400160405280600181526020017f3000000000000000000000000000000000000000000000000000000000000000815250905061209b565b600082905060005b60008214611f6d578080611f5690613c62565b915050600a82611f669190613a49565b9150611f43565b60008167ffffffffffffffff811115611faf577f4e487b7100000000000000000000000000000000000000000000000000000000600052604160045260246000fd5b6040519080825280601f01601f191660200182016040528015611fe15781602001600182028036833780820191505090505b5090505b6000851461209457600182611ffa9190613ad4565b9150600a856120099190613cab565b603061201591906139f3565b60f81b818381518110612051577f4e487b7100000000000000000000000000000000000000000000000000000000600052603260045260246000fd5b60200101907effffffffffffffffffffffffffffffffffffffffffffffffffffffffffffff1916908160001a905350600a8561208d9190613a49565b9450611fe5565b8093505050505b919050565b60007f780e9d63000000000000000000000000000000000000000000000000000000007bffffffffffffffffffffffffffffffffffffffffffffffffffffffff1916827bffffffffffffffffffffffffffffffffffffffffffffffffffffffff191614806121135750612112826125bb565b5b9050919050565b61212583838361269d565b505050565b60606000600283600261213d9190613a7a565b61214791906139f3565b67ffffffffffffffff811115612186577f4e487b7100000000000000000000000000000000000000000000000000000000600052604160045260246000fd5b6040519080825280601f01601f1916602001820160405280156121b85781602001600182028036833780820191505090505b5090507f300000000000000000000000000000000000000000000000000000000000000081600081518110612216577f4e487b7100000000000000000000000000000000000000000000000000000000600052603260045260246000fd5b60200101907effffffffffffffffffffffffffffffffffffffffffffffffffffffffffffff1916908160001a9053507f7800000000000000000000000000000000000000000000000000000000000000816001815181106122a0577f4e487b7100000000000000000000000000000000000000000000000000000000600052603260045260246000fd5b60200101907effffffffffffffffffffffffffffffffffffffffffffffffffffffffffffff1916908160001a905350600060018460026122e09190613a7a565b6122ea91906139f3565b90505b60018111156123d6577f3031323334353637383961626364656600000000000000000000000000000000600f861660108110612352577f4e487b7100000000000000000000000000000000000000000000000000000000600052603260045260246000fd5b1a60f81b82828151811061238f577f4e487b7100000000000000000000000000000000000000000000000000000000600052603260045260246000fd5b60200101907effffffffffffffffffffffffffffffffffffffffffffffffffffffffffffff1916908160001a905350600485901c9450806123cf90613bd5565b90506122ed565b506000841461241a576040517f08c379a0000000000000000000000000000000000000000000000000000000008152600401612411906136ae565b60405180910390fd5b8091505092915050565b60006124458473ffffffffffffffffffffffffffffffffffffffff166127b1565b156125ae578373ffffffffffffffffffffffffffffffffffffffff1663150b7a0261246e6115dc565b8786866040518563ffffffff1660e01b815260040161249094939291906135ac565b602060405180830381600087803b1580156124aa57600080fd5b505af19250505080156124db57506040513d601f19601f820116820180604052508101906124d891906130b0565b60015b61255e573d806000811461250b576040519150601f19603f3d011682016040523d82523d6000602084013e612510565b606091505b50600081511415612556576040517f08c379a000000000000000000000000000000000000000000000000000000000815260040161254d906136ee565b60405180910390fd5b805181602001fd5b63150b7a0260e01b7bffffffffffffffffffffffffffffffffffffffffffffffffffffffff1916817bffffffffffffffffffffffffffffffffffffffffffffffffffffffff1916149150506125b3565b600190505b949350505050565b60007f80ac58cd000000000000000000000000000000000000000000000000000000007bffffffffffffffffffffffffffffffffffffffffffffffffffffffff1916827bffffffffffffffffffffffffffffffffffffffffffffffffffffffff1916148061268657507f5b5e139f000000000000000000000000000000000000000000000000000000007bffffffffffffffffffffffffffffffffffffffffffffffffffffffff1916827bffffffffffffffffffffffffffffffffffffffffffffffffffffffff1916145b806126965750612695826127c4565b5b9050919050565b6126a883838361282e565b600073ffffffffffffffffffffffffffffffffffffffff168373ffffffffffffffffffffffffffffffffffffffff1614156126eb576126e681612833565b61272a565b8173ffffffffffffffffffffffffffffffffffffffff168373ffffffffffffffffffffffffffffffffffffffff161461272957612728838261287c565b5b5b600073ffffffffffffffffffffffffffffffffffffffff168273ffffffffffffffffffffffffffffffffffffffff16141561276d57612768816129e9565b6127ac565b8273ffffffffffffffffffffffffffffffffffffffff168273ffffffffffffffffffffffffffffffffffffffff16146127ab576127aa8282612b2c565b5b5b505050565b600080823b905060008111915050919050565b60007f01ffc9a7000000000000000000000000000000000000000000000000000000007bffffffffffffffffffffffffffffffffffffffffffffffffffffffff1916827bffffffffffffffffffffffffffffffffffffffffffffffffffffffff1916149050919050565b505050565b6008805490506009600083815260200190815260200160002081905550600881908060018154018082558091505060019003906000526020600020016000909190919091505550565b6000600161288984610fcf565b6128939190613ad4565b9050600060076000848152602001908152602001600020549050818114612978576000600660008673ffffffffffffffffffffffffffffffffffffffff1673ffffffffffffffffffffffffffffffffffffffff168152602001908152602001600020600084815260200190815260200160002054905080600660008773ffffffffffffffffffffffffffffffffffffffff1673ffffffffffffffffffffffffffffffffffffffff168152602001908152602001600020600084815260200190815260200160002081905550816007600083815260200190815260200160002081905550505b6007600084815260200190815260200160002060009055600660008573ffffffffffffffffffffffffffffffffffffffff1673ffffffffffffffffffffffffffffffffffffffff16815260200190815260200160002060008381526020019081526020016000206000905550505050565b600060016008805490506129fd9190613ad4565b9050600060096000848152602001908152602001600020549050600060088381548110612a53577f4e487b7100000000000000000000000000000000000000000000000000000000600052603260045260246000fd5b906000526020600020015490508060088381548110612a9b577f4e487b7100000000000000000000000000000000000000000000000000000000600052603260045260246000fd5b906000526020600020018190555081600960008381526020019081526020016000208190555060096000858152602001908152602001600020600090556008805480612b10577f4e487b7100000000000000000000000000000000000000000000000000000000600052603160045260246000fd5b6001900381819060005260206000200160009055905550505050565b6000612b3783610fcf565b905081600660008573ffffffffffffffffffffffffffffffffffffffff1673ffffffffffffffffffffffffffffffffffffffff168152602001908152602001600020600083815260200190815260200160002081905550806007600084815260200190815260200160002081905550505050565b828054612bb790613bff565b90600052602060002090601f016020900481019282612bd95760008555612c20565b82601f10612bf257805160ff1916838001178555612c20565b82800160010185558215612c20579182015b82811115612c1f578251825591602001919060010190612c04565b5b509050612c2d9190612c31565b5090565b5b80821115612c4a576000816000905550600101612c32565b5090565b6000612c61612c5c8461394e565b613929565b905082815260208101848484011115612c7957600080fd5b612c84848285613b93565b509392505050565b6000612c9f612c9a8461397f565b613929565b905082815260208101848484011115612cb757600080fd5b612cc2848285613b93565b509392505050565b600081359050612cd981614343565b92915050565b600081359050612cee8161435a565b92915050565b600081359050612d0381614371565b92915050565b600081359050612d1881614388565b92915050565b600081519050612d2d81614388565b92915050565b600082601f830112612d4457600080fd5b8135612d54848260208601612c4e565b91505092915050565b60008083601f840112612d6f57600080fd5b8235905067ffffffffffffffff811115612d8857600080fd5b602083019150836001820283011115612da057600080fd5b9250929050565b600082601f830112612db857600080fd5b8135612dc8848260208601612c8c565b91505092915050565b600081359050612de08161439f565b92915050565b600081359050612df5816143b6565b92915050565b600060208284031215612e0d57600080fd5b6000612e1b84828501612cca565b91505092915050565b60008060408385031215612e3757600080fd5b6000612e4585828601612cca565b9250506020612e5685828601612cca565b9150509250929050565b600080600060608486031215612e7557600080fd5b6000612e8386828701612cca565b9350506020612e9486828701612cca565b9250506040612ea586828701612dd1565b9150509250925092565b60008060008060808587031215612ec557600080fd5b6000612ed387828801612cca565b9450506020612ee487828801612cca565b9350506040612ef587828801612dd1565b925050606085013567ffffffffffffffff811115612f1257600080fd5b612f1e87828801612d33565b91505092959194509250565b60008060408385031215612f3d57600080fd5b6000612f4b85828601612cca565b9250506020612f5c85828601612cdf565b9150509250929050565b600080600080600060808688031215612f7e57600080fd5b6000612f8c88828901612cca565b955050602086013567ffffffffffffffff811115612fa957600080fd5b612fb588828901612d5d565b94509450506040612fc888828901612de6565b9250506060612fd988828901612de6565b9150509295509295909350565b60008060408385031215612ff957600080fd5b600061300785828601612cca565b925050602061301885828601612dd1565b9150509250929050565b60006020828403121561303457600080fd5b600061304284828501612cf4565b91505092915050565b6000806040838503121561305e57600080fd5b600061306c85828601612cf4565b925050602061307d85828601612cca565b9150509250929050565b60006020828403121561309957600080fd5b60006130a784828501612d09565b91505092915050565b6000602082840312156130c257600080fd5b60006130d084828501612d1e565b91505092915050565b6000602082840312156130eb57600080fd5b600082013567ffffffffffffffff81111561310557600080fd5b61311184828501612da7565b91505092915050565b60006020828403121561312c57600080fd5b600061313a84828501612dd1565b91505092915050565b61314c81613b08565b82525050565b61315b81613b1a565b82525050565b61316a81613b26565b82525050565b600061317b826139b0565b61318581856139c6565b9350613195818560208601613ba2565b61319e81613d98565b840191505092915050565b60006131b4826139bb565b6131be81856139d7565b93506131ce818560208601613ba2565b6131d781613d98565b840191505092915050565b60006131ed826139bb565b6131f781856139e8565b9350613207818560208601613ba2565b80840191505092915050565b60006132206015836139d7565b915061322b82613da9565b602082019050919050565b60006132436020836139d7565b915061324e82613dd2565b602082019050919050565b6000613266602b836139d7565b915061327182613dfb565b604082019050919050565b60006132896032836139d7565b915061329482613e4a565b604082019050919050565b60006132ac601c836139d7565b91506132b782613e99565b602082019050919050565b60006132cf6024836139d7565b91506132da82613ec2565b604082019050919050565b60006132f26019836139d7565b91506132fd82613f11565b602082019050919050565b6000613315602c836139d7565b915061332082613f3a565b604082019050919050565b60006133386038836139d7565b915061334382613f89565b604082019050919050565b600061335b6016836139d7565b915061336682613fd8565b602082019050919050565b600061337e602a836139d7565b915061338982614001565b604082019050919050565b60006133a16029836139d7565b91506133ac82614050565b604082019050919050565b60006133c46020836139d7565b91506133cf8261409f565b602082019050919050565b60006133e7602c836139d7565b91506133f2826140c8565b604082019050919050565b600061340a6029836139d7565b915061341582614117565b604082019050919050565b600061342d602f836139d7565b915061343882614166565b604082019050919050565b60006134506021836139d7565b915061345b826141b5565b604082019050919050565b60006134736031836139d7565b915061347e82614204565b604082019050919050565b6000613496602c836139d7565b91506134a182614253565b604082019050919050565b60006134b96017836139e8565b91506134c4826142a2565b601782019050919050565b60006134dc6011836139e8565b91506134e7826142cb565b601182019050919050565b60006134ff602f836139d7565b915061350a826142f4565b604082019050919050565b61351e81613b7c565b82525050565b61352d81613b86565b82525050565b600061353f82856131e2565b915061354b82846131e2565b91508190509392505050565b6000613562826134ac565b915061356e82856131e2565b9150613579826134cf565b915061358582846131e2565b91508190509392505050565b60006020820190506135a66000830184613143565b92915050565b60006080820190506135c16000830187613143565b6135ce6020830186613143565b6135db6040830185613515565b81810360608301526135ed8184613170565b905095945050505050565b600060208201905061360d6000830184613152565b92915050565b60006020820190506136286000830184613161565b92915050565b6000602082019050818103600083015261364881846131a9565b905092915050565b6000606082019050818103600083015261366a81866131a9565b90506136796020830185613524565b6136866040830184613524565b949350505050565b600060208201905081810360008301526136a781613213565b9050919050565b600060208201905081810360008301526136c781613236565b9050919050565b600060208201905081810360008301526136e781613259565b9050919050565b600060208201905081810360008301526137078161327c565b9050919050565b600060208201905081810360008301526137278161329f565b9050919050565b60006020820190508181036000830152613747816132c2565b9050919050565b60006020820190508181036000830152613767816132e5565b9050919050565b6000602082019050818103600083015261378781613308565b9050919050565b600060208201905081810360008301526137a78161332b565b9050919050565b600060208201905081810360008301526137c78161334e565b9050919050565b600060208201905081810360008301526137e781613371565b9050919050565b6000602082019050818103600083015261380781613394565b9050919050565b60006020820190508181036000830152613827816133b7565b9050919050565b60006020820190508181036000830152613847816133da565b9050919050565b60006020820190508181036000830152613867816133fd565b9050919050565b6000602082019050818103600083015261388781613420565b9050919050565b600060208201905081810360008301526138a781613443565b9050919050565b600060208201905081810360008301526138c781613466565b9050919050565b600060208201905081810360008301526138e781613489565b9050919050565b60006020820190508181036000830152613907816134f2565b9050919050565b60006020820190506139236000830184613515565b92915050565b6000613933613944565b905061393f8282613c31565b919050565b6000604051905090565b600067ffffffffffffffff82111561396957613968613d69565b5b61397282613d98565b9050602081019050919050565b600067ffffffffffffffff82111561399a57613999613d69565b5b6139a382613d98565b9050602081019050919050565b600081519050919050565b600081519050919050565b600082825260208201905092915050565b600082825260208201905092915050565b600081905092915050565b60006139fe82613b7c565b9150613a0983613b7c565b9250827fffffffffffffffffffffffffffffffffffffffffffffffffffffffffffffffff03821115613a3e57613a3d613cdc565b5b828201905092915050565b6000613a5482613b7c565b9150613a5f83613b7c565b925082613a6f57613a6e613d0b565b5b828204905092915050565b6000613a8582613b7c565b9150613a9083613b7c565b9250817fffffffffffffffffffffffffffffffffffffffffffffffffffffffffffffffff0483118215151615613ac957613ac8613cdc565b5b828202905092915050565b6000613adf82613b7c565b9150613aea83613b7c565b925082821015613afd57613afc613cdc565b5b828203905092915050565b6000613b1382613b5c565b9050919050565b60008115159050919050565b6000819050919050565b60007fffffffff0000000000000000000000000000000000000000000000000000000082169050919050565b600073ffffffffffffffffffffffffffffffffffffffff82169050919050565b6000819050919050565b600060ff82169050919050565b82818337600083830152505050565b60005b83811015613bc0578082015181840152602081019050613ba5565b83811115613bcf576000848401525b50505050565b6000613be082613b7c565b91506000821415613bf457613bf3613cdc565b5b600182039050919050565b60006002820490506001821680613c1757607f821691505b60208210811415613c2b57613c2a613d3a565b5b50919050565b613c3a82613d98565b810181811067ffffffffffffffff82111715613c5957613c58613d69565b5b80604052505050565b6000613c6d82613b7c565b91507fffffffffffffffffffffffffffffffffffffffffffffffffffffffffffffffff821415613ca057613c9f613cdc565b5b600182019050919050565b6000613cb682613b7c565b9150613cc183613b7c565b925082613cd157613cd0613d0b565b5b828206905092915050565b7f4e487b7100000000000000000000000000000000000000000000000000000000600052601160045260246000fd5b7f4e487b7100000000000000000000000000000000000000000000000000000000600052601260045260246000fd5b7f4e487b7100000000000000000000000000000000000000000000000000000000600052602260045260246000fd5b7f4e487b7100000000000000000000000000000000000000000000000000000000600052604160045260246000fd5b6000601f19601f8301169050919050565b7f43616c6c6572206973206e6f7420612061646d696e0000000000000000000000600082015250565b7f537472696e67733a20686578206c656e67746820696e73756666696369656e74600082015250565b7f455243373231456e756d657261626c653a206f776e657220696e646578206f7560008201527f74206f6620626f756e6473000000000000000000000000000000000000000000602082015250565b7f4552433732313a207472616e7366657220746f206e6f6e20455243373231526560008201527f63656976657220696d706c656d656e7465720000000000000000000000000000602082015250565b7f4552433732313a20746f6b656e20616c7265616479206d696e74656400000000600082015250565b7f4552433732313a207472616e7366657220746f20746865207a65726f2061646460008201527f7265737300000000000000000000000000000000000000000000000000000000602082015250565b7f4552433732313a20617070726f766520746f2063616c6c657200000000000000600082015250565b7f4552433732313a206f70657261746f7220717565727920666f72206e6f6e657860008201527f697374656e7420746f6b656e0000000000000000000000000000000000000000602082015250565b7f4552433732313a20617070726f76652063616c6c6572206973206e6f74206f7760008201527f6e6572206e6f7220617070726f76656420666f7220616c6c0000000000000000602082015250565b7f43616c6c6572206973206e6f742061206d696e74657200000000000000000000600082015250565b7f4552433732313a2062616c616e636520717565727920666f7220746865207a6560008201527f726f206164647265737300000000000000000000000000000000000000000000602082015250565b7f4552433732313a206f776e657220717565727920666f72206e6f6e657869737460008201527f656e7420746f6b656e0000000000000000000000000000000000000000000000602082015250565b7f4552433732313a206d696e7420746f20746865207a65726f2061646472657373600082015250565b7f4552433732313a20617070726f76656420717565727920666f72206e6f6e657860008201527f697374656e7420746f6b656e0000000000000000000000000000000000000000602082015250565b7f4552433732313a207472616e73666572206f6620746f6b656e2074686174206960008201527f73206e6f74206f776e0000000000000000000000000000000000000000000000602082015250565b7f4552433732314d657461646174613a2055524920717565727920666f72206e6f60008201527f6e6578697374656e7420746f6b656e0000000000000000000000000000000000602082015250565b7f4552433732313a20617070726f76616c20746f2063757272656e74206f776e6560008201527f7200000000000000000000000000000000000000000000000000000000000000602082015250565b7f4552433732313a207472616e736665722063616c6c6572206973206e6f74206f60008201527f776e6572206e6f7220617070726f766564000000000000000000000000000000602082015250565b7f455243373231456e756d657261626c653a20676c6f62616c20696e646578206f60008201527f7574206f6620626f756e64730000000000000000000000000000000000000000602082015250565b7f416363657373436f6e74726f6c3a206163636f756e7420000000000000000000600082015250565b7f206973206d697373696e6720726f6c6520000000000000000000000000000000600082015250565b7f416363657373436f6e74726f6c3a2063616e206f6e6c792072656e6f756e636560008201527f20726f6c657320666f722073656c660000000000000000000000000000000000602082015250565b61434c81613b08565b811461435757600080fd5b50565b61436381613b1a565b811461436e57600080fd5b50565b61437a81613b26565b811461438557600080fd5b50565b61439181613b30565b811461439c57600080fd5b50565b6143a881613b7c565b81146143b357600080fd5b50565b6143bf81613b86565b81146143ca57600080fd5b5056fea26469706673582212209c5a0e159275eb23b841f7e4d94f8ce9195c414f5271b3a0d346c8493456912964736f6c63430008040033",
  "immutableReferences": {},
  "source": "// SPDX-License-Identifier: MIT\npragma solidity ^0.8.0;\n\nimport \"@openzeppelin/contracts/access/AccessControl.sol\";\nimport \"@openzeppelin/contracts/token/ERC721/ERC721.sol\";\nimport \"@openzeppelin/contracts/token/ERC721/extensions/ERC721Enumerable.sol\";\n\ncontract UniArtsNFT is ERC721, ERC721Enumerable, AccessControl {\n  // Create a new role identifier for the minter role\n  bytes32 public constant MINTER_ROLE = keccak256(\"MINTER_ROLE\");\n\n  string _baseURIValue;\n\n  struct TokenInfo {\n    string title;\n    uint8 class_id;\n    uint8 size;\n  }\n\n  /* Our tokeninfo are stored here */\n  TokenInfo[] public token_infos;\n\n  constructor(address minter, string memory baseURIValue_) ERC721(\"UniArtsNFT\", \"UANFT\") {\n    // Grant the minter role to a specified account\n    _setupRole(MINTER_ROLE, minter);\n    _setupRole(DEFAULT_ADMIN_ROLE, minter);\n    _baseURIValue = baseURIValue_;\n  }\n\n  function _baseURI() internal view override returns (string memory) {\n    return _baseURIValue;\n  }\n\n  function baseURI() public view returns (string memory) {\n    return _baseURI();\n  }\n\n  function setBaseURI(string memory newBase) public {\n    // Only admin can setBaseURI\n    require(hasRole(DEFAULT_ADMIN_ROLE, msg.sender), \"Caller is not a admin\");\n    _baseURIValue = newBase;\n  }\n  \n  function createNFT(address user_address, string calldata title, uint8 class_id, uint8 size) external {\n    // Only minters can mint\n    // Check that the calling account has the minter role\n    require(hasRole(MINTER_ROLE, msg.sender), \"Caller is not a minter\");\n\n    token_infos.push(TokenInfo({title: title, class_id: class_id, size: size}));\n    uint tokenId = token_infos.length - 1;\n    _mint(user_address, tokenId);\n  }\n\n  function getNFT(\n    uint tokenId\n  ) external view returns (\n    string memory title,\n    uint8 class_id,\n    uint8 size\n  ) {\n    return (\n      token_infos[tokenId].title,\n      token_infos[tokenId].class_id,\n      token_infos[tokenId].size\n    );\n  }\n\n  function _beforeTokenTransfer(\n      address from,\n      address to,\n      uint256 tokenId\n  ) internal virtual override(ERC721, ERC721Enumerable) {\n    super._beforeTokenTransfer(from, to, tokenId);\n  }\n\n  /**\n  * override(ERC721, ERC721Enumerable, AccessControl) -> here you're specifying only two base classes ERC721, AccessControl\n  * */\n  function supportsInterface(bytes4 interfaceId)\n      public\n      view\n      override(ERC721, ERC721Enumerable, AccessControl)\n      returns (bool)\n  {\n      return super.supportsInterface(interfaceId);\n  }\n}\n",
  "sourcePath": "/Users/tuminfei/Code/Nodejs/uniarts-eth-dao/contracts/ERC721/UniArtsNFT.sol",
  "compiler": {
    "name": "solc",
    "version": "0.8.4+commit.c7e474f2.Emscripten.clang"
  },
  "schemaVersion": "3.3.0",
  "updatedAt": "2021-09-07T02:03:47.976Z",
  "devdoc": {
    "kind": "dev",
    "methods": {
      "approve(address,uint256)": {
        "details": "See {IERC721-approve}."
      },
      "balanceOf(address)": {
        "details": "See {IERC721-balanceOf}."
      },
      "getApproved(uint256)": {
        "details": "See {IERC721-getApproved}."
      },
      "getRoleAdmin(bytes32)": {
        "details": "Returns the admin role that controls `role`. See {grantRole} and {revokeRole}. To change a role's admin, use {_setRoleAdmin}."
      },
      "grantRole(bytes32,address)": {
        "details": "Grants `role` to `account`. If `account` had not been already granted `role`, emits a {RoleGranted} event. Requirements: - the caller must have ``role``'s admin role."
      },
      "hasRole(bytes32,address)": {
        "details": "Returns `true` if `account` has been granted `role`."
      },
      "isApprovedForAll(address,address)": {
        "details": "See {IERC721-isApprovedForAll}."
      },
      "name()": {
        "details": "See {IERC721Metadata-name}."
      },
      "ownerOf(uint256)": {
        "details": "See {IERC721-ownerOf}."
      },
      "renounceRole(bytes32,address)": {
        "details": "Revokes `role` from the calling account. Roles are often managed via {grantRole} and {revokeRole}: this function's purpose is to provide a mechanism for accounts to lose their privileges if they are compromised (such as when a trusted device is misplaced). If the calling account had been granted `role`, emits a {RoleRevoked} event. Requirements: - the caller must be `account`."
      },
      "revokeRole(bytes32,address)": {
        "details": "Revokes `role` from `account`. If `account` had been granted `role`, emits a {RoleRevoked} event. Requirements: - the caller must have ``role``'s admin role."
      },
      "safeTransferFrom(address,address,uint256)": {
        "details": "See {IERC721-safeTransferFrom}."
      },
      "safeTransferFrom(address,address,uint256,bytes)": {
        "details": "See {IERC721-safeTransferFrom}."
      },
      "setApprovalForAll(address,bool)": {
        "details": "See {IERC721-setApprovalForAll}."
      },
      "symbol()": {
        "details": "See {IERC721Metadata-symbol}."
      },
      "tokenByIndex(uint256)": {
        "details": "See {IERC721Enumerable-tokenByIndex}."
      },
      "tokenOfOwnerByIndex(address,uint256)": {
        "details": "See {IERC721Enumerable-tokenOfOwnerByIndex}."
      },
      "tokenURI(uint256)": {
        "details": "See {IERC721Metadata-tokenURI}."
      },
      "totalSupply()": {
        "details": "See {IERC721Enumerable-totalSupply}."
      },
      "transferFrom(address,address,uint256)": {
        "details": "See {IERC721-transferFrom}."
      }
    },
    "version": 1
  },
  "userdoc": {
    "kind": "user",
    "methods": {
      "supportsInterface(bytes4)": {
        "notice": "override(ERC721, ERC721Enumerable, AccessControl) -> here you're specifying only two base classes ERC721, AccessControl "
      }
    },
    "version": 1
  }
}