{
  "contractName": "UniArtsSouvenirs",
  "abi": [
    {
      "inputs": [
        {
          "internalType": "string",
          "name": "_uri",
          "type": "string"
        }
      ],
      "stateMutability": "nonpayable",
      "type": "constructor"
    },
    {
      "anonymous": false,
      "inputs": [
        {
          "indexed": true,
          "internalType": "address",
          "name": "account",
          "type": "address"
        },
        {
          "indexed": true,
          "internalType": "address",
          "name": "operator",
          "type": "address"
        },
        {
          "indexed": false,
          "internalType": "bool",
          "name": "approved",
          "type": "bool"
        }
      ],
      "name": "ApprovalForAll",
      "type": "event"
    },
    {
      "anonymous": false,
      "inputs": [
        {
          "indexed": false,
          "internalType": "address",
          "name": "account",
          "type": "address"
        }
      ],
      "name": "Paused",
      "type": "event"
    },
    {
      "anonymous": false,
      "inputs": [
        {
          "indexed": true,
          "internalType": "bytes32",
          "name": "role",
          "type": "bytes32"
        },
        {
          "indexed": true,
          "internalType": "bytes32",
          "name": "previousAdminRole",
          "type": "bytes32"
        },
        {
          "indexed": true,
          "internalType": "bytes32",
          "name": "newAdminRole",
          "type": "bytes32"
        }
      ],
      "name": "RoleAdminChanged",
      "type": "event"
    },
    {
      "anonymous": false,
      "inputs": [
        {
          "indexed": true,
          "internalType": "bytes32",
          "name": "role",
          "type": "bytes32"
        },
        {
          "indexed": true,
          "internalType": "address",
          "name": "account",
          "type": "address"
        },
        {
          "indexed": true,
          "internalType": "address",
          "name": "sender",
          "type": "address"
        }
      ],
      "name": "RoleGranted",
      "type": "event"
    },
    {
      "anonymous": false,
      "inputs": [
        {
          "indexed": true,
          "internalType": "bytes32",
          "name": "role",
          "type": "bytes32"
        },
        {
          "indexed": true,
          "internalType": "address",
          "name": "account",
          "type": "address"
        },
        {
          "indexed": true,
          "internalType": "address",
          "name": "sender",
          "type": "address"
        }
      ],
      "name": "RoleRevoked",
      "type": "event"
    },
    {
      "anonymous": false,
      "inputs": [
        {
          "indexed": true,
          "internalType": "address",
          "name": "operator",
          "type": "address"
        },
        {
          "indexed": true,
          "internalType": "address",
          "name": "from",
          "type": "address"
        },
        {
          "indexed": true,
          "internalType": "address",
          "name": "to",
          "type": "address"
        },
        {
          "indexed": false,
          "internalType": "uint256[]",
          "name": "ids",
          "type": "uint256[]"
        },
        {
          "indexed": false,
          "internalType": "uint256[]",
          "name": "values",
          "type": "uint256[]"
        }
      ],
      "name": "TransferBatch",
      "type": "event"
    },
    {
      "anonymous": false,
      "inputs": [
        {
          "indexed": true,
          "internalType": "address",
          "name": "operator",
          "type": "address"
        },
        {
          "indexed": true,
          "internalType": "address",
          "name": "from",
          "type": "address"
        },
        {
          "indexed": true,
          "internalType": "address",
          "name": "to",
          "type": "address"
        },
        {
          "indexed": false,
          "internalType": "uint256",
          "name": "id",
          "type": "uint256"
        },
        {
          "indexed": false,
          "internalType": "uint256",
          "name": "value",
          "type": "uint256"
        }
      ],
      "name": "TransferSingle",
      "type": "event"
    },
    {
      "anonymous": false,
      "inputs": [
        {
          "indexed": false,
          "internalType": "string",
          "name": "value",
          "type": "string"
        },
        {
          "indexed": true,
          "internalType": "uint256",
          "name": "id",
          "type": "uint256"
        }
      ],
      "name": "URI",
      "type": "event"
    },
    {
      "anonymous": false,
      "inputs": [
        {
          "indexed": false,
          "internalType": "address",
          "name": "account",
          "type": "address"
        }
      ],
      "name": "Unpaused",
      "type": "event"
    },
    {
      "inputs": [],
      "name": "BURNER_ROLE",
      "outputs": [
        {
          "internalType": "bytes32",
          "name": "",
          "type": "bytes32"
        }
      ],
      "stateMutability": "view",
      "type": "function"
    },
    {
      "inputs": [],
      "name": "DEFAULT_ADMIN_ROLE",
      "outputs": [
        {
          "internalType": "bytes32",
          "name": "",
          "type": "bytes32"
        }
      ],
      "stateMutability": "view",
      "type": "function"
    },
    {
      "inputs": [],
      "name": "MINTER_ROLE",
      "outputs": [
        {
          "internalType": "bytes32",
          "name": "",
          "type": "bytes32"
        }
      ],
      "stateMutability": "view",
      "type": "function"
    },
    {
      "inputs": [],
      "name": "PAUSER_ROLE",
      "outputs": [
        {
          "internalType": "bytes32",
          "name": "",
          "type": "bytes32"
        }
      ],
      "stateMutability": "view",
      "type": "function"
    },
    {
      "inputs": [
        {
          "internalType": "address",
          "name": "account",
          "type": "address"
        },
        {
          "internalType": "uint256",
          "name": "id",
          "type": "uint256"
        }
      ],
      "name": "balanceOf",
      "outputs": [
        {
          "internalType": "uint256",
          "name": "",
          "type": "uint256"
        }
      ],
      "stateMutability": "view",
      "type": "function"
    },
    {
      "inputs": [
        {
          "internalType": "address[]",
          "name": "accounts",
          "type": "address[]"
        },
        {
          "internalType": "uint256[]",
          "name": "ids",
          "type": "uint256[]"
        }
      ],
      "name": "balanceOfBatch",
      "outputs": [
        {
          "internalType": "uint256[]",
          "name": "",
          "type": "uint256[]"
        }
      ],
      "stateMutability": "view",
      "type": "function"
    },
    {
      "inputs": [
        {
          "internalType": "address",
          "name": "_initialOwner",
          "type": "address"
        },
        {
          "internalType": "uint256",
          "name": "_initialSupply",
          "type": "uint256"
        },
        {
          "internalType": "string",
          "name": "_uri",
          "type": "string"
        },
        {
          "internalType": "bytes",
          "name": "_data",
          "type": "bytes"
        }
      ],
      "name": "create",
      "outputs": [
        {
          "internalType": "uint256",
          "name": "",
          "type": "uint256"
        }
      ],
      "stateMutability": "nonpayable",
      "type": "function"
    },
    {
      "inputs": [
        {
          "internalType": "uint256",
          "name": "",
          "type": "uint256"
        }
      ],
      "name": "creators",
      "outputs": [
        {
          "internalType": "address",
          "name": "",
          "type": "address"
        }
      ],
      "stateMutability": "view",
      "type": "function"
    },
    {
      "inputs": [
        {
          "internalType": "bytes32",
          "name": "role",
          "type": "bytes32"
        }
      ],
      "name": "getRoleAdmin",
      "outputs": [
        {
          "internalType": "bytes32",
          "name": "",
          "type": "bytes32"
        }
      ],
      "stateMutability": "view",
      "type": "function"
    },
    {
      "inputs": [
        {
          "internalType": "bytes32",
          "name": "role",
          "type": "bytes32"
        },
        {
          "internalType": "uint256",
          "name": "index",
          "type": "uint256"
        }
      ],
      "name": "getRoleMember",
      "outputs": [
        {
          "internalType": "address",
          "name": "",
          "type": "address"
        }
      ],
      "stateMutability": "view",
      "type": "function"
    },
    {
      "inputs": [
        {
          "internalType": "bytes32",
          "name": "role",
          "type": "bytes32"
        }
      ],
      "name": "getRoleMemberCount",
      "outputs": [
        {
          "internalType": "uint256",
          "name": "",
          "type": "uint256"
        }
      ],
      "stateMutability": "view",
      "type": "function"
    },
    {
      "inputs": [
        {
          "internalType": "bytes32",
          "name": "role",
          "type": "bytes32"
        },
        {
          "internalType": "address",
          "name": "account",
          "type": "address"
        }
      ],
      "name": "grantRole",
      "outputs": [],
      "stateMutability": "nonpayable",
      "type": "function"
    },
    {
      "inputs": [
        {
          "internalType": "bytes32",
          "name": "role",
          "type": "bytes32"
        },
        {
          "internalType": "address",
          "name": "account",
          "type": "address"
        }
      ],
      "name": "hasRole",
      "outputs": [
        {
          "internalType": "bool",
          "name": "",
          "type": "bool"
        }
      ],
      "stateMutability": "view",
      "type": "function"
    },
    {
      "inputs": [
        {
          "internalType": "address",
          "name": "account",
          "type": "address"
        },
        {
          "internalType": "address",
          "name": "operator",
          "type": "address"
        }
      ],
      "name": "isApprovedForAll",
      "outputs": [
        {
          "internalType": "bool",
          "name": "",
          "type": "bool"
        }
      ],
      "stateMutability": "view",
      "type": "function"
    },
    {
      "inputs": [],
      "name": "name",
      "outputs": [
        {
          "internalType": "string",
          "name": "",
          "type": "string"
        }
      ],
      "stateMutability": "view",
      "type": "function"
    },
    {
      "inputs": [],
      "name": "pause",
      "outputs": [],
      "stateMutability": "nonpayable",
      "type": "function"
    },
    {
      "inputs": [],
      "name": "paused",
      "outputs": [
        {
          "internalType": "bool",
          "name": "",
          "type": "bool"
        }
      ],
      "stateMutability": "view",
      "type": "function"
    },
    {
      "inputs": [
        {
          "internalType": "bytes32",
          "name": "role",
          "type": "bytes32"
        },
        {
          "internalType": "address",
          "name": "account",
          "type": "address"
        }
      ],
      "name": "renounceRole",
      "outputs": [],
      "stateMutability": "nonpayable",
      "type": "function"
    },
    {
      "inputs": [
        {
          "internalType": "bytes32",
          "name": "role",
          "type": "bytes32"
        },
        {
          "internalType": "address",
          "name": "account",
          "type": "address"
        }
      ],
      "name": "revokeRole",
      "outputs": [],
      "stateMutability": "nonpayable",
      "type": "function"
    },
    {
      "inputs": [
        {
          "internalType": "address",
          "name": "from",
          "type": "address"
        },
        {
          "internalType": "address",
          "name": "to",
          "type": "address"
        },
        {
          "internalType": "uint256[]",
          "name": "ids",
          "type": "uint256[]"
        },
        {
          "internalType": "uint256[]",
          "name": "amounts",
          "type": "uint256[]"
        },
        {
          "internalType": "bytes",
          "name": "data",
          "type": "bytes"
        }
      ],
      "name": "safeBatchTransferFrom",
      "outputs": [],
      "stateMutability": "nonpayable",
      "type": "function"
    },
    {
      "inputs": [
        {
          "internalType": "address",
          "name": "from",
          "type": "address"
        },
        {
          "internalType": "address",
          "name": "to",
          "type": "address"
        },
        {
          "internalType": "uint256",
          "name": "id",
          "type": "uint256"
        },
        {
          "internalType": "uint256",
          "name": "amount",
          "type": "uint256"
        },
        {
          "internalType": "bytes",
          "name": "data",
          "type": "bytes"
        }
      ],
      "name": "safeTransferFrom",
      "outputs": [],
      "stateMutability": "nonpayable",
      "type": "function"
    },
    {
      "inputs": [
        {
          "internalType": "address",
          "name": "operator",
          "type": "address"
        },
        {
          "internalType": "bool",
          "name": "approved",
          "type": "bool"
        }
      ],
      "name": "setApprovalForAll",
      "outputs": [],
      "stateMutability": "nonpayable",
      "type": "function"
    },
    {
      "inputs": [
        {
          "internalType": "string",
          "name": "newBase",
          "type": "string"
        }
      ],
      "name": "setBaseURI",
      "outputs": [],
      "stateMutability": "nonpayable",
      "type": "function"
    },
    {
      "inputs": [
        {
          "internalType": "bytes4",
          "name": "interfaceId",
          "type": "bytes4"
        }
      ],
      "name": "supportsInterface",
      "outputs": [
        {
          "internalType": "bool",
          "name": "",
          "type": "bool"
        }
      ],
      "stateMutability": "view",
      "type": "function"
    },
    {
      "inputs": [],
      "name": "symbol",
      "outputs": [
        {
          "internalType": "string",
          "name": "",
          "type": "string"
        }
      ],
      "stateMutability": "view",
      "type": "function"
    },
    {
      "inputs": [
        {
          "internalType": "uint256",
          "name": "id",
          "type": "uint256"
        }
      ],
      "name": "totalSupply",
      "outputs": [
        {
          "internalType": "uint256",
          "name": "",
          "type": "uint256"
        }
      ],
      "stateMutability": "view",
      "type": "function"
    },
    {
      "inputs": [],
      "name": "unpause",
      "outputs": [],
      "stateMutability": "nonpayable",
      "type": "function"
    },
    {
      "inputs": [
        {
          "internalType": "uint256",
          "name": "_id",
          "type": "uint256"
        }
      ],
      "name": "uri",
      "outputs": [
        {
          "internalType": "string",
          "name": "",
          "type": "string"
        }
      ],
      "stateMutability": "view",
      "type": "function"
    }
  ],
  "bytecode": "0x608060405260006007553480156200001657600080fd5b506040516200336438038062003364833981016040819052620000399162000444565b604080518082018252601081527f556e6941727473536f7576656e697273000000000000000000000000000000006020808301919091528251808401909352600383527f5541530000000000000000000000000000000000000000000000000000000000908301526002805460ff191690559082620000d56000620000c6640100000000620001c7810204565b640100000000620001cb810204565b6200010d7f9f2df0fed2c77648de5860a4cc508cd0818c85b8b8a1ab4ceeef8d981c8956a6620000c6640100000000620001c7810204565b620001457f3c11d16cbaffd01df69ce1c404f6340ee057498f5f00246190ea54220576a848620000c6640100000000620001c7810204565b6200017d7f65d7a28e3265b37a6474929f336521b332c1681b933f6cb9f3376673440d862a620000c6640100000000620001c7810204565b8251620001929060099060208601906200039e565b508151620001a890600a9060208501906200039e565b50620001bd8164010000000062000212810204565b50505050620005a0565b3390565b620001e5828264010000000062000e916200022b82021704565b60008281526001602052604090206200020d908264010000000062000e9f6200024082021704565b505050565b8051620002279060069060208401906200039e565b5050565b62000227828264010000000062000269810204565b60006200026083600160a060020a03841664010000000062000305810204565b90505b92915050565b6200027e82826401000000006200035d810204565b6200022757600082815260208181526040808320600160a060020a03851684529091529020805460ff19166001179055620002c1640100000000620001c7810204565b600160a060020a031681600160a060020a0316837f2f8788117e7eff1d82e926ec794901d17c78024a50270940304540a733656f0d60405160405180910390a45050565b60006200031c838364010000000062000386810204565b620003545750815460018181018455600084815260208082209093018490558454848252828601909352604090209190915562000263565b50600062000263565b600091825260208281526040808420600160a060020a0393909316845291905290205460ff1690565b60009081526001919091016020526040902054151590565b828054620003ac906200051b565b90600052602060002090601f016020900481019282620003d057600085556200041b565b82601f10620003eb57805160ff19168380011785556200041b565b828001600101855582156200041b579182015b828111156200041b578251825591602001919060010190620003fe565b50620004299291506200042d565b5090565b5b808211156200042957600081556001016200042e565b6000602080838503121562000457578182fd5b825167ffffffffffffffff808211156200046f578384fd5b818501915085601f83011262000483578384fd5b81518181111562000498576200049862000571565b604051601f8201601f19908116603f01168101908382118183101715620004c357620004c362000571565b816040528281528886848701011115620004db578687fd5b8693505b82841015620004fe5784840186015181850187015292850192620004df565b828411156200050f57868684830101525b98975050505050505050565b6002810460018216806200053057607f821691505b602082108114156200056b577f4e487b7100000000000000000000000000000000000000000000000000000000600052602260045260246000fd5b50919050565b7f4e487b7100000000000000000000000000000000000000000000000000000000600052604160045260246000fd5b612db480620005b06000396000f3fe608060405234801561001057600080fd5b50600436106101e0576000357c0100000000000000000000000000000000000000000000000000000000900480639010d07c11610116578063cd53d08e116100b4578063e38e3b241161008e578063e38e3b2414610420578063e63ab1e914610433578063e985e9c51461045a578063f242432a1461049657600080fd5b8063cd53d08e146103bd578063d5391393146103e6578063d547741f1461040d57600080fd5b8063a217fddf116100f0578063a217fddf1461036f578063a22cb46514610377578063bd85b0391461038a578063ca15c873146103aa57600080fd5b80639010d07c1461032957806391d148541461035457806395d89b411461036757600080fd5b80632f2ff15d116101835780634e1273f41161015d5780634e1273f4146102e357806355f804b3146103035780635c975abb146103165780638456cb591461032157600080fd5b80632f2ff15d146102b557806336568abe146102c85780633f4ba83a146102db57600080fd5b80630e89341c116101bf5780630e89341c14610243578063248a9ca314610256578063282c51f3146102795780632eb2c2d6146102a057600080fd5b8062fdd58e146101e557806301ffc9a71461020b57806306fdde031461022e575b600080fd5b6101f86101f33660046124a7565b6104a9565b6040519081526020015b60405180910390f35b61021e61021936600461267b565b61055a565b6040519015158152602001610202565b6102366105cc565b60405161020291906129ad565b610236610251366004612620565b61065a565b6101f8610264366004612620565b60009081526020819052604090206001015490565b6101f87f3c11d16cbaffd01df69ce1c404f6340ee057498f5f00246190ea54220576a84881565b6102b36102ae366004612364565b61071c565b005b6102b36102c3366004612638565b6107c1565b6102b36102d6366004612638565b6107e8565b6102b361080a565b6102f66102f1366004612557565b6108a1565b6040516102029190612946565b6102b36103113660046126b3565b610a26565b60025460ff1661021e565b6102b3610a8c565b61033c61033736600461265a565b610b21565b604051600160a060020a039091168152602001610202565b61021e610362366004612638565b610b40565b610236610b69565b6101f8600081565b6102b361038536600461246d565b610b76565b6101f8610398366004612620565b60009081526003602052604090205490565b6101f86103b8366004612620565b610c64565b61033c6103cb366004612620565b600860205260009081526040902054600160a060020a031681565b6101f87f9f2df0fed2c77648de5860a4cc508cd0818c85b8b8a1ab4ceeef8d981c8956a681565b6102b361041b366004612638565b610c7b565b6101f861042e3660046124d0565b610c85565b6101f87f65d7a28e3265b37a6474929f336521b332c1681b933f6cb9f3376673440d862a81565b61021e610468366004612332565b600160a060020a03918216600090815260056020908152604080832093909416825291909152205460ff1690565b6102b36104a436600461240a565b610df3565b6000600160a060020a03831661052f5760405160e560020a62461bcd02815260206004820152602b60248201527f455243313135353a2062616c616e636520717565727920666f7220746865207a60448201527f65726f206164647265737300000000000000000000000000000000000000000060648201526084015b60405180910390fd5b506000818152600460209081526040808320600160a060020a03861684529091529020545b92915050565b6000600160e060020a031982167fd9b67a260000000000000000000000000000000000000000000000000000000014806105bd5750600160e060020a031982167f0e89341c00000000000000000000000000000000000000000000000000000000145b80610554575061055482610eb4565b600980546105d990612ba4565b80601f016020809104026020016040519081016040528092919081815260200182805461060590612ba4565b80156106525780601f1061062757610100808354040283529160200191610652565b820191906000526020600020905b81548152906001019060200180831161063557829003601f168201915b505050505081565b600081815260086020526040902054606090600160a060020a03166106ea5760405160e560020a62461bcd02815260206004820152602560248201527f4552433732315472616461626c65237572693a204e4f4e4558495354454e545f60448201527f544f4b454e0000000000000000000000000000000000000000000000000000006064820152608401610526565b60066106f583610ef2565b60405160200161070692919061277b565b6040516020818303038152906040529050919050565b600160a060020a03851633148061073857506107388533610468565b6107ad5760405160e560020a62461bcd02815260206004820152603260248201527f455243313135353a207472616e736665722063616c6c6572206973206e6f742060448201527f6f776e6572206e6f7220617070726f76656400000000000000000000000000006064820152608401610526565b6107ba8585858585611055565b5050505050565b6107cb8282611283565b60008281526001602052604090206107e39082610e9f565b505050565b6107f282826112a9565b60008281526001602052604090206107e39082611334565b6108347f65d7a28e3265b37a6474929f336521b332c1681b933f6cb9f3376673440d862a33610b40565b6108975760405160e560020a62461bcd02815260206004820152603b6024820152600080516020612d5f83398151915260448201527f686176652070617573657220726f6c6520746f20756e706175736500000000006064820152608401610526565b61089f611349565b565b6060815183511461091d5760405160e560020a62461bcd02815260206004820152602960248201527f455243313135353a206163636f756e747320616e6420696473206c656e67746860448201527f206d69736d6174636800000000000000000000000000000000000000000000006064820152608401610526565b6000835167ffffffffffffffff81111561094a5760e060020a634e487b7102600052604160045260246000fd5b604051908082528060200260200182016040528015610973578160200160208202803683370190505b50905060005b8451811015610a1e576109e08582815181106109a85760e060020a634e487b7102600052603260045260246000fd5b60200260200101518583815181106109d35760e060020a634e487b7102600052603260045260246000fd5b60200260200101516104a9565b828281518110610a035760e060020a634e487b7102600052603260045260246000fd5b6020908102919091010152610a1781612c0f565b9050610979565b509392505050565b610a31600033610b40565b610a805760405160e560020a62461bcd02815260206004820152601560248201527f43616c6c6572206973206e6f7420612061646d696e00000000000000000000006044820152606401610526565b610a89816113e8565b50565b610ab67f65d7a28e3265b37a6474929f336521b332c1681b933f6cb9f3376673440d862a33610b40565b610b195760405160e560020a62461bcd0281526020600482015260396024820152600080516020612d5f83398151915260448201527f686176652070617573657220726f6c6520746f207061757365000000000000006064820152608401610526565b61089f6113fb565b6000828152600160205260408120610b399083611486565b9392505050565b600091825260208281526040808420600160a060020a0393909316845291905290205460ff1690565b600a80546105d990612ba4565b33600160a060020a0383161415610bf85760405160e560020a62461bcd02815260206004820152602960248201527f455243313135353a2073657474696e6720617070726f76616c2073746174757360448201527f20666f722073656c6600000000000000000000000000000000000000000000006064820152608401610526565b336000818152600560209081526040808320600160a060020a03871680855290835292819020805460ff191686151590811790915590519081529192917f17307eab39ab6107e8899845ad3d59bd9653f200f220920489ca2b5937696c31910160405180910390a35050565b600081815260016020526040812061055490611492565b6107f2828261149c565b6000610cb17f9f2df0fed2c77648de5860a4cc508cd0818c85b8b8a1ab4ceeef8d981c8956a633610b40565b610d145760405160e560020a62461bcd02815260206004820152603a6024820152600080516020612d5f83398151915260448201527f68617665206d696e74657220726f6c6520746f206372656174650000000000006064820152608401610526565b6000610d1e6114c2565b9050610d286114d8565b6000818152600860205260409020805473ffffffffffffffffffffffffffffffffffffffff1916331790558415610d9457807f6bb7ff708619ba0610cba295a58592e0451dee2622938c8755667688daf3529b8787604051610d8b92919061297e565b60405180910390a25b610dd688828987878080601f0160208091040260200160405190810160405280939291908181526020018383808284376000920191909152506114ef92505050565b600081815260036020526040902087905590509695505050505050565b600160a060020a038516331480610e0f5750610e0f8533610468565b610e845760405160e560020a62461bcd02815260206004820152602960248201527f455243313135353a2063616c6c6572206973206e6f74206f776e6572206e6f7260448201527f20617070726f76656400000000000000000000000000000000000000000000006064820152608401610526565b6107ba85858585856116d0565b610e9b82826117f7565b5050565b6000610b3983600160a060020a03841661187b565b6000600160e060020a031982167f5a05180f0000000000000000000000000000000000000000000000000000000014806105545750610554826118ca565b606081610f3257505060408051808201909152600181527f3000000000000000000000000000000000000000000000000000000000000000602082015290565b8160005b8115610f5c5780610f4681612c0f565b9150610f559050600a83612b13565b9150610f36565b60008167ffffffffffffffff811115610f885760e060020a634e487b7102600052604160045260246000fd5b6040519080825280601f01601f191660200182016040528015610fb2576020820181803683370190505b5090505b841561104d57610fc7600183612b46565b9150610fd4600a86612c2a565b610fdf906030612afb565b7f0100000000000000000000000000000000000000000000000000000000000000028183815181106110245760e060020a634e487b7102600052603260045260246000fd5b6020010190600160f860020a031916908160001a905350611046600a86612b13565b9450610fb6565b949350505050565b81518351146110cf5760405160e560020a62461bcd02815260206004820152602860248201527f455243313135353a2069647320616e6420616d6f756e7473206c656e6774682060448201527f6d69736d617463680000000000000000000000000000000000000000000000006064820152608401610526565b600160a060020a0384166110f85760405160e560020a62461bcd02815260040161052690612a1d565b33611107818787878787611931565b60005b84518110156112155760008582815181106111385760e060020a634e487b7102600052603260045260246000fd5b6020026020010151905060008583815181106111675760e060020a634e487b7102600052603260045260246000fd5b6020908102919091018101516000848152600483526040808220600160a060020a038e1683529093529190912054909150818110156111bb5760405160e560020a62461bcd02815260040161052690612a7a565b6000838152600460209081526040808320600160a060020a038e8116855292528083208585039055908b168252812080548492906111fa908490612afb565b925050819055505050508061120e90612c0f565b905061110a565b5084600160a060020a031686600160a060020a031682600160a060020a03167f4a39dc06d4c0dbc64b70af90fd698a233a518aa5d07e595d983b8c0526c8f7fb8787604051611265929190612959565b60405180910390a461127b8187878787876119ad565b505050505050565b60008281526020819052604090206001015461129f8133611b5c565b6107e383836117f7565b600160a060020a038116331461132a5760405160e560020a62461bcd02815260206004820152602f60248201527f416363657373436f6e74726f6c3a2063616e206f6e6c792072656e6f756e636560448201527f20726f6c657320666f722073656c6600000000000000000000000000000000006064820152608401610526565b610e9b8282611bc3565b6000610b3983600160a060020a038416611c28565b60025460ff1661139e5760405160e560020a62461bcd02815260206004820152601460248201527f5061757361626c653a206e6f74207061757365640000000000000000000000006044820152606401610526565b6002805460ff191690557f5db9ee0a495bf2e6ff9c91a7834c1ba4fdd244a5e8aa4e537bd38aeae4b073aa335b604051600160a060020a03909116815260200160405180910390a1565b8051610e9b906006906020840190612147565b60025460ff16156114515760405160e560020a62461bcd02815260206004820152601060248201527f5061757361626c653a20706175736564000000000000000000000000000000006044820152606401610526565b6002805460ff191660011790557f62e78cea01bee320cd4e420270b5ea74000d11b0c9f74754ebdbfc544b05a2586113cb3390565b6000610b398383611d4e565b6000610554825490565b6000828152602081905260409020600101546114b88133611b5c565b6107e38383611bc3565b6007546000906114d3906001611d89565b905090565b600780549060006114e883612c0f565b9190505550565b6115197f9f2df0fed2c77648de5860a4cc508cd0818c85b8b8a1ab4ceeef8d981c8956a633610b40565b61157c5760405160e560020a62461bcd0281526020600482015260386024820152600080516020612d5f83398151915260448201527f68617665206d696e74657220726f6c6520746f206d696e7400000000000000006064820152608401610526565b600160a060020a0384166115fb5760405160e560020a62461bcd02815260206004820152602160248201527f455243313135353a206d696e7420746f20746865207a65726f2061646472657360448201527f73000000000000000000000000000000000000000000000000000000000000006064820152608401610526565b3361161b8160008761160c88611d95565b61161588611d95565b87611931565b6000848152600460209081526040808320600160a060020a03891684529091528120805485929061164d908490612afb565b909155505060008481526003602052604081208054859290611670908490612afb565b90915550506040805185815260208101859052600160a060020a0380881692600092918516917fc3d58168c5ae7397731d063d5bbf3d657854427343f4c083240f7aacaa2d0f62910160405180910390a46107ba81600087878787611df1565b600160a060020a0384166116f95760405160e560020a62461bcd02815260040161052690612a1d565b3361170981878761160c88611d95565b6000848152600460209081526040808320600160a060020a038a1684529091529020548381101561174f5760405160e560020a62461bcd02815260040161052690612a7a565b6000858152600460209081526040808320600160a060020a038b811685529252808320878503905590881682528120805486929061178e908490612afb565b90915550506040805186815260208101869052600160a060020a03808916928a821692918616917fc3d58168c5ae7397731d063d5bbf3d657854427343f4c083240f7aacaa2d0f62910160405180910390a46117ee828888888888611df1565b50505050505050565b6118018282610b40565b610e9b57600082815260208181526040808320600160a060020a03851684529091529020805460ff191660011790556118373390565b600160a060020a031681600160a060020a0316837f2f8788117e7eff1d82e926ec794901d17c78024a50270940304540a733656f0d60405160405180910390a45050565b60008181526001830160205260408120546118c257508154600181810184556000848152602080822090930184905584548482528286019093526040902091909155610554565b506000610554565b6000600160e060020a031982167f7965db0b00000000000000000000000000000000000000000000000000000000148061055457507f01ffc9a700000000000000000000000000000000000000000000000000000000600160e060020a0319831614610554565b60025460ff161561127b5760405160e560020a62461bcd02815260206004820152602c60248201527f455243313135355061757361626c653a20746f6b656e207472616e736665722060448201527f7768696c652070617573656400000000000000000000000000000000000000006064820152608401610526565b600160a060020a0384163b1561127b576040517fbc197c81000000000000000000000000000000000000000000000000000000008152600160a060020a0385169063bc197c8190611a0a90899089908890889088906004016128a5565b602060405180830381600087803b158015611a2457600080fd5b505af1925050508015611a54575060408051601f3d908101601f19168201909252611a5191810190612697565b60015b611b1057611a60612c89565b806308c379a01415611a9d5750611a75612cbe565b80611a805750611a9f565b8060405160e560020a62461bcd02815260040161052691906129ad565b505b60405160e560020a62461bcd02815260206004820152603460248201527f455243313135353a207472616e7366657220746f206e6f6e204552433131353560448201527f526563656976657220696d706c656d656e7465720000000000000000000000006064820152608401610526565b600160e060020a031981167fbc197c8100000000000000000000000000000000000000000000000000000000146117ee5760405160e560020a62461bcd028152600401610526906129c0565b611b668282610b40565b610e9b57611b7e81600160a060020a03166014611ef0565b611b89836020611ef0565b604051602001611b9a929190612824565b60408051601f198184030181529082905260e560020a62461bcd028252610526916004016129ad565b611bcd8282610b40565b15610e9b57600082815260208181526040808320600160a060020a0385168085529252808320805460ff1916905551339285917ff6391f5c32d9c69d2a47ea670b442974b53935d1edc7fd64eb21e047a839171b9190a45050565b60008181526001830160205260408120548015611d44576000611c4c600183612b46565b8554909150600090611c6090600190612b46565b9050818114611ce7576000866000018281548110611c915760e060020a634e487b7102600052603260045260246000fd5b9060005260206000200154905080876000018481548110611cc55760e060020a634e487b7102600052603260045260246000fd5b6000918252602080832090910192909255918252600188019052604090208390555b8554869080611d095760e060020a634e487b7102600052603160045260246000fd5b600190038181906000526020600020016000905590558560010160008681526020019081526020016000206000905560019350505050610554565b6000915050610554565b6000826000018281548110611d765760e060020a634e487b7102600052603260045260246000fd5b9060005260206000200154905092915050565b6000610b398284612afb565b60408051600180825281830190925260609160009190602080830190803683370190505090508281600081518110611de05760e060020a634e487b7102600052603260045260246000fd5b602090810291909101015292915050565b600160a060020a0384163b1561127b576040517ff23a6e61000000000000000000000000000000000000000000000000000000008152600160a060020a0385169063f23a6e6190611e4e9089908990889088908890600401612903565b602060405180830381600087803b158015611e6857600080fd5b505af1925050508015611e98575060408051601f3d908101601f19168201909252611e9591810190612697565b60015b611ea457611a60612c89565b600160e060020a031981167ff23a6e6100000000000000000000000000000000000000000000000000000000146117ee5760405160e560020a62461bcd028152600401610526906129c0565b60606000611eff836002612b27565b611f0a906002612afb565b67ffffffffffffffff811115611f335760e060020a634e487b7102600052604160045260246000fd5b6040519080825280601f01601f191660200182016040528015611f5d576020820181803683370190505b5090507f300000000000000000000000000000000000000000000000000000000000000081600081518110611fa55760e060020a634e487b7102600052603260045260246000fd5b6020010190600160f860020a031916908160001a9053507f7800000000000000000000000000000000000000000000000000000000000000816001815181106120015760e060020a634e487b7102600052603260045260246000fd5b6020010190600160f860020a031916908160001a9053506000612025846002612b27565b612030906001612afb565b90505b60018111156120f5577f303132333435363738396162636465660000000000000000000000000000000085600f16601081106120825760e060020a634e487b7102600052603260045260246000fd5b1a7f0100000000000000000000000000000000000000000000000000000000000000028282815181106120c85760e060020a634e487b7102600052603260045260246000fd5b6020010190600160f860020a031916908160001a9053506010909404936120ee81612b8d565b9050612033565b508315610b395760405160e560020a62461bcd02815260206004820181905260248201527f537472696e67733a20686578206c656e67746820696e73756666696369656e746044820152606401610526565b82805461215390612ba4565b90600052602060002090601f01602090048101928261217557600085556121bb565b82601f1061218e57805160ff19168380011785556121bb565b828001600101855582156121bb579182015b828111156121bb5782518255916020019190600101906121a0565b506121c79291506121cb565b5090565b5b808211156121c757600081556001016121cc565b600067ffffffffffffffff8311156121fa576121fa612c70565b604051612211601f8501601f191660200182612be2565b80915083815284848401111561222657600080fd5b83836020830137600060208583010152509392505050565b8035600160a060020a038116811461225557600080fd5b919050565b600082601f83011261226a578081fd5b8135602061227782612ad7565b6040516122848282612be2565b8381528281019150858301838502870184018810156122a1578586fd5b855b858110156122bf578135845292840192908401906001016122a3565b5090979650505050505050565b60008083601f8401126122dd578182fd5b50813567ffffffffffffffff8111156122f4578182fd5b60208301915083602082850101111561230c57600080fd5b9250929050565b600082601f830112612323578081fd5b610b39838335602085016121e0565b60008060408385031215612344578182fd5b61234d8361223e565b915061235b6020840161223e565b90509250929050565b600080600080600060a0868803121561237b578081fd5b6123848661223e565b94506123926020870161223e565b9350604086013567ffffffffffffffff808211156123ae578283fd5b6123ba89838a0161225a565b945060608801359150808211156123cf578283fd5b6123db89838a0161225a565b935060808801359150808211156123f0578283fd5b506123fd88828901612313565b9150509295509295909350565b600080600080600060a08688031215612421578081fd5b61242a8661223e565b94506124386020870161223e565b93506040860135925060608601359150608086013567ffffffffffffffff811115612461578182fd5b6123fd88828901612313565b6000806040838503121561247f578182fd5b6124888361223e565b91506020830135801515811461249c578182fd5b809150509250929050565b600080604083850312156124b9578182fd5b6124c28361223e565b946020939093013593505050565b600080600080600080608087890312156124e8578081fd5b6124f18761223e565b955060208701359450604087013567ffffffffffffffff80821115612514578283fd5b6125208a838b016122cc565b90965094506060890135915080821115612538578283fd5b5061254589828a016122cc565b979a9699509497509295939492505050565b60008060408385031215612569578182fd5b823567ffffffffffffffff80821115612580578384fd5b818501915085601f830112612593578384fd5b813560206125a082612ad7565b6040516125ad8282612be2565b8381528281019150858301838502870184018b10156125ca578889fd5b8896505b848710156125f3576125df8161223e565b8352600196909601959183019183016125ce565b5096505086013592505080821115612609578283fd5b506126168582860161225a565b9150509250929050565b600060208284031215612631578081fd5b5035919050565b6000806040838503121561264a578182fd5b8235915061235b6020840161223e565b6000806040838503121561266c578182fd5b50508035926020909101359150565b60006020828403121561268c578081fd5b8135610b3981612d48565b6000602082840312156126a8578081fd5b8151610b3981612d48565b6000602082840312156126c4578081fd5b813567ffffffffffffffff8111156126da578182fd5b8201601f810184136126ea578182fd5b61104d848235602084016121e0565b6000815180845260208085019450808401835b838110156127285781518752958201959082019060010161270c565b509495945050505050565b6000815180845261274b816020860160208601612b5d565b601f01601f19169290920160200192915050565b60008151612771818560208601612b5d565b9290920192915050565b825460009081906002810460018083168061279757607f831692505b60208084108214156127ba5760e060020a634e487b710287526022600452602487fd5b8180156127ce57600181146127df5761280b565b60ff1986168952848901965061280b565b60008b815260209020885b868110156128035781548b8201529085019083016127ea565b505084890196505b50505050505061281b818561275f565b95945050505050565b7f416363657373436f6e74726f6c3a206163636f756e742000000000000000000081526000835161285c816017850160208801612b5d565b7f206973206d697373696e6720726f6c65200000000000000000000000000000006017918401918201528351612899816028840160208801612b5d565b01602801949350505050565b6000600160a060020a03808816835280871660208401525060a060408301526128d160a08301866126f9565b82810360608401526128e381866126f9565b905082810360808401526128f78185612733565b98975050505050505050565b6000600160a060020a03808816835280871660208401525084604083015283606083015260a0608083015261293b60a0830184612733565b979650505050505050565b602081526000610b3960208301846126f9565b60408152600061296c60408301856126f9565b828103602084015261281b81856126f9565b60208152816020820152818360408301376000818301604090810191909152601f909201601f19160101919050565b602081526000610b396020830184612733565b60208082526028908201527f455243313135353a204552433131353552656365697665722072656a6563746560408201527f6420746f6b656e73000000000000000000000000000000000000000000000000606082015260800190565b60208082526025908201527f455243313135353a207472616e7366657220746f20746865207a65726f20616460408201527f6472657373000000000000000000000000000000000000000000000000000000606082015260800190565b6020808252602a908201527f455243313135353a20696e73756666696369656e742062616c616e636520666f60408201527f72207472616e7366657200000000000000000000000000000000000000000000606082015260800190565b600067ffffffffffffffff821115612af157612af1612c70565b5060209081020190565b60008219821115612b0e57612b0e612c3e565b500190565b600082612b2257612b22612c57565b500490565b6000816000190483118215151615612b4157612b41612c3e565b500290565b600082821015612b5857612b58612c3e565b500390565b60005b83811015612b78578181015183820152602001612b60565b83811115612b87576000848401525b50505050565b600081612b9c57612b9c612c3e565b506000190190565b600281046001821680612bb857607f821691505b60208210811415612bdc5760e060020a634e487b7102600052602260045260246000fd5b50919050565b601f8201601f1916810167ffffffffffffffff81118282101715612c0857612c08612c70565b6040525050565b6000600019821415612c2357612c23612c3e565b5060010190565b600082612c3957612c39612c57565b500690565b60e060020a634e487b7102600052601160045260246000fd5b60e060020a634e487b7102600052601260045260246000fd5b60e060020a634e487b7102600052604160045260246000fd5b600060033d1115612cbb57600481823e517c010000000000000000000000000000000000000000000000000000000090045b90565b600060443d1015612ccc5790565b6040516003193d81016004833e81513d67ffffffffffffffff8160248401118184111715612cfc57505050505090565b8285019150815181811115612d145750505050505090565b843d8701016020828501011115612d2e5750505050505090565b612d3d60208286010187612be2565b509095945050505050565b600160e060020a031981168114610a8957600080fdfe455243313135355072657365744d696e7465725061757365723a206d75737420a26469706673582212207366f0b5755b1c28e2dbf41dd65ae6ba5e005b334fb48a58772828d9fe05f6bb64736f6c63430008040033",
  "immutableReferences": {},
  "source": "pragma solidity ^0.8.0;\n\nimport \"./ERC1155Tradable.sol\";\n\n\n/**\n * @title UniArtsCollectible\n */\ncontract UniArtsSouvenirs is ERC1155Tradable  {\n  constructor(string memory _uri)\n  ERC1155Tradable(\n    \"UniArtsSouvenirs\",\n    \"UAS\",\n    _uri\n  ) public {}\n}",
  "sourcePath": "/Users/tuminfei/Code/Nodejs/uniarts-eth-dao/contracts/ERC1155/UniArtsSouvenirs.sol",
  "compiler": {
    "name": "solc",
    "version": "0.8.4+commit.c7e474f2.Emscripten.clang"
  },
  "schemaVersion": "3.4.3",
  "updatedAt": "2022-02-09T09:26:29.545Z",
  "devdoc": {
    "kind": "dev",
    "methods": {
      "balanceOf(address,uint256)": {
        "details": "See {IERC1155-balanceOf}. Requirements: - `account` cannot be the zero address."
      },
      "balanceOfBatch(address[],uint256[])": {
        "details": "See {IERC1155-balanceOfBatch}. Requirements: - `accounts` and `ids` must have the same length."
      },
      "create(address,uint256,string,bytes)": {
        "details": "Creates a new token type and assigns _initialSupply to an address NOTE: remove onlyOwner if you want third parties to create new tokens on your contract (which may change your IDs)",
        "params": {
          "_data": "Data to pass if receiver is contract",
          "_initialOwner": "address of the first owner of the token",
          "_initialSupply": "amount to supply the first owner",
          "_uri": "Optional URI for this token type"
        },
        "returns": {
          "_0": "The newly created token ID"
        }
      },
      "getRoleAdmin(bytes32)": {
        "details": "Returns the admin role that controls `role`. See {grantRole} and {revokeRole}. To change a role's admin, use {_setRoleAdmin}."
      },
      "getRoleMember(bytes32,uint256)": {
        "details": "Returns one of the accounts that have `role`. `index` must be a value between 0 and {getRoleMemberCount}, non-inclusive. Role bearers are not sorted in any particular way, and their ordering may change at any point. WARNING: When using {getRoleMember} and {getRoleMemberCount}, make sure you perform all queries on the same block. See the following https://forum.openzeppelin.com/t/iterating-over-elements-on-enumerableset-in-openzeppelin-contracts/2296[forum post] for more information."
      },
      "getRoleMemberCount(bytes32)": {
        "details": "Returns the number of accounts that have `role`. Can be used together with {getRoleMember} to enumerate all bearers of a role."
      },
      "grantRole(bytes32,address)": {
        "details": "Overload {grantRole} to track enumerable memberships"
      },
      "hasRole(bytes32,address)": {
        "details": "Returns `true` if `account` has been granted `role`."
      },
      "isApprovedForAll(address,address)": {
        "details": "See {IERC1155-isApprovedForAll}."
      },
      "pause()": {
        "details": "Pauses all token transfers. See {ERC1155Pausable} and {Pausable-_pause}. Requirements: - the caller must have the `PAUSER_ROLE`."
      },
      "paused()": {
        "details": "Returns true if the contract is paused, and false otherwise."
      },
      "renounceRole(bytes32,address)": {
        "details": "Overload {renounceRole} to track enumerable memberships"
      },
      "revokeRole(bytes32,address)": {
        "details": "Overload {revokeRole} to track enumerable memberships"
      },
      "safeBatchTransferFrom(address,address,uint256[],uint256[],bytes)": {
        "details": "See {IERC1155-safeBatchTransferFrom}."
      },
      "safeTransferFrom(address,address,uint256,uint256,bytes)": {
        "details": "See {IERC1155-safeTransferFrom}."
      },
      "setApprovalForAll(address,bool)": {
        "details": "See {IERC1155-setApprovalForAll}."
      },
      "supportsInterface(bytes4)": {
        "details": "See {IERC165-supportsInterface}."
      },
      "totalSupply(uint256)": {
        "details": "Total amount of tokens in with a given id."
      },
      "unpause()": {
        "details": "Unpauses all token transfers. See {ERC1155Pausable} and {Pausable-_unpause}. Requirements: - the caller must have the `PAUSER_ROLE`."
      },
      "uri(uint256)": {
        "details": "See {IERC1155MetadataURI-uri}. This implementation returns the same URI for *all* token types. It relies on the token type ID substitution mechanism https://eips.ethereum.org/EIPS/eip-1155#metadata[defined in the EIP]. Clients calling this function must replace the `\\{id\\}` substring with the actual token type ID."
      }
    },
    "title": "UniArtsCollectible",
    "version": 1
  },
  "userdoc": {
    "kind": "user",
    "methods": {},
    "version": 1
  }
}