{
  "contractName": "UniArtsDaoNFT",
  "abi": [
    {
      "inputs": [
        {
          "internalType": "address",
          "name": "minter",
          "type": "address"
        },
        {
          "internalType": "string",
          "name": "baseURIValue_",
          "type": "string"
        }
      ],
      "stateMutability": "nonpayable",
      "type": "constructor"
    },
    {
      "anonymous": false,
      "inputs": [
        {
          "indexed": true,
          "internalType": "address",
          "name": "owner",
          "type": "address"
        },
        {
          "indexed": true,
          "internalType": "address",
          "name": "approved",
          "type": "address"
        },
        {
          "indexed": true,
          "internalType": "uint256",
          "name": "tokenId",
          "type": "uint256"
        }
      ],
      "name": "Approval",
      "type": "event"
    },
    {
      "anonymous": false,
      "inputs": [
        {
          "indexed": true,
          "internalType": "address",
          "name": "owner",
          "type": "address"
        },
        {
          "indexed": true,
          "internalType": "address",
          "name": "operator",
          "type": "address"
        },
        {
          "indexed": false,
          "internalType": "bool",
          "name": "approved",
          "type": "bool"
        }
      ],
      "name": "ApprovalForAll",
      "type": "event"
    },
    {
      "anonymous": false,
      "inputs": [
        {
          "indexed": true,
          "internalType": "bytes32",
          "name": "role",
          "type": "bytes32"
        },
        {
          "indexed": true,
          "internalType": "bytes32",
          "name": "previousAdminRole",
          "type": "bytes32"
        },
        {
          "indexed": true,
          "internalType": "bytes32",
          "name": "newAdminRole",
          "type": "bytes32"
        }
      ],
      "name": "RoleAdminChanged",
      "type": "event"
    },
    {
      "anonymous": false,
      "inputs": [
        {
          "indexed": true,
          "internalType": "bytes32",
          "name": "role",
          "type": "bytes32"
        },
        {
          "indexed": true,
          "internalType": "address",
          "name": "account",
          "type": "address"
        },
        {
          "indexed": true,
          "internalType": "address",
          "name": "sender",
          "type": "address"
        }
      ],
      "name": "RoleGranted",
      "type": "event"
    },
    {
      "anonymous": false,
      "inputs": [
        {
          "indexed": true,
          "internalType": "bytes32",
          "name": "role",
          "type": "bytes32"
        },
        {
          "indexed": true,
          "internalType": "address",
          "name": "account",
          "type": "address"
        },
        {
          "indexed": true,
          "internalType": "address",
          "name": "sender",
          "type": "address"
        }
      ],
      "name": "RoleRevoked",
      "type": "event"
    },
    {
      "anonymous": false,
      "inputs": [
        {
          "indexed": true,
          "internalType": "address",
          "name": "from",
          "type": "address"
        },
        {
          "indexed": true,
          "internalType": "address",
          "name": "to",
          "type": "address"
        },
        {
          "indexed": true,
          "internalType": "uint256",
          "name": "tokenId",
          "type": "uint256"
        }
      ],
      "name": "Transfer",
      "type": "event"
    },
    {
      "inputs": [],
      "name": "DEFAULT_ADMIN_ROLE",
      "outputs": [
        {
          "internalType": "bytes32",
          "name": "",
          "type": "bytes32"
        }
      ],
      "stateMutability": "view",
      "type": "function"
    },
    {
      "inputs": [],
      "name": "MERKLE_ROLE",
      "outputs": [
        {
          "internalType": "bytes32",
          "name": "",
          "type": "bytes32"
        }
      ],
      "stateMutability": "view",
      "type": "function"
    },
    {
      "inputs": [],
      "name": "MINTER_ROLE",
      "outputs": [
        {
          "internalType": "bytes32",
          "name": "",
          "type": "bytes32"
        }
      ],
      "stateMutability": "view",
      "type": "function"
    },
    {
      "inputs": [
        {
          "internalType": "address",
          "name": "to",
          "type": "address"
        },
        {
          "internalType": "uint256",
          "name": "tokenId",
          "type": "uint256"
        }
      ],
      "name": "approve",
      "outputs": [],
      "stateMutability": "nonpayable",
      "type": "function"
    },
    {
      "inputs": [
        {
          "internalType": "address",
          "name": "owner",
          "type": "address"
        }
      ],
      "name": "balanceOf",
      "outputs": [
        {
          "internalType": "uint256",
          "name": "",
          "type": "uint256"
        }
      ],
      "stateMutability": "view",
      "type": "function"
    },
    {
      "inputs": [
        {
          "internalType": "uint256",
          "name": "tokenId",
          "type": "uint256"
        }
      ],
      "name": "getApproved",
      "outputs": [
        {
          "internalType": "address",
          "name": "",
          "type": "address"
        }
      ],
      "stateMutability": "view",
      "type": "function"
    },
    {
      "inputs": [
        {
          "internalType": "bytes32",
          "name": "role",
          "type": "bytes32"
        }
      ],
      "name": "getRoleAdmin",
      "outputs": [
        {
          "internalType": "bytes32",
          "name": "",
          "type": "bytes32"
        }
      ],
      "stateMutability": "view",
      "type": "function"
    },
    {
      "inputs": [
        {
          "internalType": "bytes32",
          "name": "role",
          "type": "bytes32"
        },
        {
          "internalType": "address",
          "name": "account",
          "type": "address"
        }
      ],
      "name": "grantRole",
      "outputs": [],
      "stateMutability": "nonpayable",
      "type": "function"
    },
    {
      "inputs": [
        {
          "internalType": "bytes32",
          "name": "role",
          "type": "bytes32"
        },
        {
          "internalType": "address",
          "name": "account",
          "type": "address"
        }
      ],
      "name": "hasRole",
      "outputs": [
        {
          "internalType": "bool",
          "name": "",
          "type": "bool"
        }
      ],
      "stateMutability": "view",
      "type": "function"
    },
    {
      "inputs": [
        {
          "internalType": "address",
          "name": "owner",
          "type": "address"
        },
        {
          "internalType": "address",
          "name": "operator",
          "type": "address"
        }
      ],
      "name": "isApprovedForAll",
      "outputs": [
        {
          "internalType": "bool",
          "name": "",
          "type": "bool"
        }
      ],
      "stateMutability": "view",
      "type": "function"
    },
    {
      "inputs": [],
      "name": "name",
      "outputs": [
        {
          "internalType": "string",
          "name": "",
          "type": "string"
        }
      ],
      "stateMutability": "view",
      "type": "function"
    },
    {
      "inputs": [
        {
          "internalType": "uint256",
          "name": "tokenId",
          "type": "uint256"
        }
      ],
      "name": "ownerOf",
      "outputs": [
        {
          "internalType": "address",
          "name": "",
          "type": "address"
        }
      ],
      "stateMutability": "view",
      "type": "function"
    },
    {
      "inputs": [
        {
          "internalType": "bytes32",
          "name": "role",
          "type": "bytes32"
        },
        {
          "internalType": "address",
          "name": "account",
          "type": "address"
        }
      ],
      "name": "renounceRole",
      "outputs": [],
      "stateMutability": "nonpayable",
      "type": "function"
    },
    {
      "inputs": [
        {
          "internalType": "bytes32",
          "name": "role",
          "type": "bytes32"
        },
        {
          "internalType": "address",
          "name": "account",
          "type": "address"
        }
      ],
      "name": "revokeRole",
      "outputs": [],
      "stateMutability": "nonpayable",
      "type": "function"
    },
    {
      "inputs": [
        {
          "internalType": "address",
          "name": "from",
          "type": "address"
        },
        {
          "internalType": "address",
          "name": "to",
          "type": "address"
        },
        {
          "internalType": "uint256",
          "name": "tokenId",
          "type": "uint256"
        }
      ],
      "name": "safeTransferFrom",
      "outputs": [],
      "stateMutability": "nonpayable",
      "type": "function"
    },
    {
      "inputs": [
        {
          "internalType": "address",
          "name": "from",
          "type": "address"
        },
        {
          "internalType": "address",
          "name": "to",
          "type": "address"
        },
        {
          "internalType": "uint256",
          "name": "tokenId",
          "type": "uint256"
        },
        {
          "internalType": "bytes",
          "name": "_data",
          "type": "bytes"
        }
      ],
      "name": "safeTransferFrom",
      "outputs": [],
      "stateMutability": "nonpayable",
      "type": "function"
    },
    {
      "inputs": [
        {
          "internalType": "address",
          "name": "operator",
          "type": "address"
        },
        {
          "internalType": "bool",
          "name": "approved",
          "type": "bool"
        }
      ],
      "name": "setApprovalForAll",
      "outputs": [],
      "stateMutability": "nonpayable",
      "type": "function"
    },
    {
      "inputs": [],
      "name": "symbol",
      "outputs": [
        {
          "internalType": "string",
          "name": "",
          "type": "string"
        }
      ],
      "stateMutability": "view",
      "type": "function"
    },
    {
      "inputs": [
        {
          "internalType": "uint256",
          "name": "index",
          "type": "uint256"
        }
      ],
      "name": "tokenByIndex",
      "outputs": [
        {
          "internalType": "uint256",
          "name": "",
          "type": "uint256"
        }
      ],
      "stateMutability": "view",
      "type": "function"
    },
    {
      "inputs": [
        {
          "internalType": "address",
          "name": "owner",
          "type": "address"
        },
        {
          "internalType": "uint256",
          "name": "index",
          "type": "uint256"
        }
      ],
      "name": "tokenOfOwnerByIndex",
      "outputs": [
        {
          "internalType": "uint256",
          "name": "",
          "type": "uint256"
        }
      ],
      "stateMutability": "view",
      "type": "function"
    },
    {
      "inputs": [
        {
          "internalType": "uint256",
          "name": "tokenId",
          "type": "uint256"
        }
      ],
      "name": "tokenURI",
      "outputs": [
        {
          "internalType": "string",
          "name": "",
          "type": "string"
        }
      ],
      "stateMutability": "view",
      "type": "function"
    },
    {
      "inputs": [],
      "name": "totalSupply",
      "outputs": [
        {
          "internalType": "uint256",
          "name": "",
          "type": "uint256"
        }
      ],
      "stateMutability": "view",
      "type": "function"
    },
    {
      "inputs": [
        {
          "internalType": "address",
          "name": "from",
          "type": "address"
        },
        {
          "internalType": "address",
          "name": "to",
          "type": "address"
        },
        {
          "internalType": "uint256",
          "name": "tokenId",
          "type": "uint256"
        }
      ],
      "name": "transferFrom",
      "outputs": [],
      "stateMutability": "nonpayable",
      "type": "function"
    },
    {
      "inputs": [],
      "name": "baseURI",
      "outputs": [
        {
          "internalType": "string",
          "name": "",
          "type": "string"
        }
      ],
      "stateMutability": "view",
      "type": "function"
    },
    {
      "inputs": [
        {
          "internalType": "string",
          "name": "newBase",
          "type": "string"
        }
      ],
      "name": "setBaseURI",
      "outputs": [],
      "stateMutability": "nonpayable",
      "type": "function"
    },
    {
      "inputs": [
        {
          "internalType": "address",
          "name": "user_address",
          "type": "address"
        }
      ],
      "name": "createNFT",
      "outputs": [],
      "stateMutability": "nonpayable",
      "type": "function"
    },
    {
      "inputs": [
        {
          "internalType": "address",
          "name": "user_address",
          "type": "address"
        }
      ],
      "name": "createMerkleNFT",
      "outputs": [
        {
          "internalType": "bool",
          "name": "",
          "type": "bool"
        }
      ],
      "stateMutability": "nonpayable",
      "type": "function"
    },
    {
      "inputs": [
        {
          "internalType": "address",
          "name": "user_address",
          "type": "address"
        },
        {
          "internalType": "uint256",
          "name": "mint_count",
          "type": "uint256"
        }
      ],
      "name": "batchMint",
      "outputs": [],
      "stateMutability": "nonpayable",
      "type": "function"
    },
    {
      "inputs": [
        {
          "internalType": "bytes4",
          "name": "interfaceId",
          "type": "bytes4"
        }
      ],
      "name": "supportsInterface",
      "outputs": [
        {
          "internalType": "bool",
          "name": "",
          "type": "bool"
        }
      ],
      "stateMutability": "view",
      "type": "function"
    }
  ],
  "bytecode": "0x6080604052611388600c8190556000600d556200001e9060016200040e565b600e553480156200002e57600080fd5b5060405162002abb38038062002abb833981016040819052620000519162000314565b604080518082018252600d81527f556e694172747344616f4e46540000000000000000000000000000000000000060208083019182528351808501909452600684527f5541444e46540000000000000000000000000000000000000000000000000000908401528151919291620000cb916000916200026e565b508051620000e19060019060208401906200026e565b5050506200011f7f9f2df0fed2c77648de5860a4cc508cd0818c85b8b8a1ab4ceeef8d981c8956a68362000188640100000000026401000000009004565b620001547fefb9a0764f88417a6977b3a6851c8fb991983b58bf47fec627571b2120bd9d138364010000000062000188810204565b6200016a60008364010000000062000188810204565b80516200017f90600b9060208401906200026e565b505050620004d1565b6200019d8282640100000000620001a1810204565b5050565b620001b682826401000000006200023f810204565b6200019d576000828152600a60209081526040808320600160a060020a03851684529091529020805460ff19166001179055620001fb6401000000006200026a810204565b600160a060020a031681600160a060020a0316837f2f8788117e7eff1d82e926ec794901d17c78024a50270940304540a733656f0d60405160405180910390a45050565b6000918252600a60209081526040808420600160a060020a0393909316845291905290205460ff1690565b3390565b8280546200027c906200044c565b90600052602060002090601f016020900481019282620002a05760008555620002eb565b82601f10620002bb57805160ff1916838001178555620002eb565b82800160010185558215620002eb579182015b82811115620002eb578251825591602001919060010190620002ce565b50620002f9929150620002fd565b5090565b5b80821115620002f95760008155600101620002fe565b6000806040838503121562000327578182fd5b8251600160a060020a03811681146200033e578283fd5b8092505060208084015167ffffffffffffffff808211156200035e578384fd5b818601915086601f83011262000372578384fd5b815181811115620003875762000387620004a2565b604051601f8201601f19908116603f01168101908382118183101715620003b257620003b2620004a2565b816040528281528986848701011115620003ca578687fd5b8693505b82841015620003ed5784840186015181850187015292850192620003ce565b82841115620003fe57868684830101525b8096505050505050509250929050565b6000821982111562000447577f4e487b710000000000000000000000000000000000000000000000000000000081526011600452602481fd5b500190565b6002810460018216806200046157607f821691505b602082108114156200049c577f4e487b7100000000000000000000000000000000000000000000000000000000600052602260045260246000fd5b50919050565b7f4e487b7100000000000000000000000000000000000000000000000000000000600052604160045260246000fd5b6125da80620004e16000396000f3fe608060405234801561001057600080fd5b50600436106101ec576000357c01000000000000000000000000000000000000000000000000000000009004806355f804b311610121578063a22cb465116100bf578063d547741f1161008e578063d547741f146103ff578063d90f2c2714610412578063e985e9c514610425578063fd54b8c91461046157600080fd5b8063a22cb4651461039f578063b88d4fde146103b2578063c87b56dd146103c5578063d5391393146103d857600080fd5b806370a08231116100fb57806370a082311461036957806391d148541461037c57806395d89b411461038f578063a217fddf1461039757600080fd5b806355f804b31461033b5780636352211e1461034e5780636c0360eb1461036157600080fd5b8063248a9ca31161018e57806336568abe1161016857806336568abe146102ef57806342842e0e1461030257806343508b05146103155780634f6ccce71461032857600080fd5b8063248a9ca3146102a65780632f2ff15d146102c95780632f745c59146102dc57600080fd5b8063095ea7b3116101ca578063095ea7b31461025957806317e5883c1461026e57806318160ddd1461028157806323b872dd1461029357600080fd5b806301ffc9a7146101f157806306fdde0314610219578063081812fc1461022e575b600080fd5b6102046101ff3660046121cb565b610488565b60405190151581526020015b60405180910390f35b610221610499565b6040516102109190612361565b61024161023c366004612191565b61052b565b604051600160a060020a039091168152602001610210565b61026c610267366004612168565b6105d9565b005b61026c61027c36600461202e565b610711565b6008545b604051908152602001610210565b61026c6102a136600461207a565b6107ac565b6102856102b4366004612191565b6000908152600a602052604090206001015490565b61026c6102d73660046121a9565b6107e0565b6102856102ea366004612168565b610806565b61026c6102fd3660046121a9565b6108b1565b61026c61031036600461207a565b61093c565b61026c610323366004612168565b610957565b610285610336366004612191565b610a0b565b61026c610349366004612203565b610ac3565b61024161035c366004612191565b610b30565b610221610bbe565b61028561037736600461202e565b610bcd565b61020461038a3660046121a9565b610c6a565b610221610c95565b610285600081565b61026c6103ad36600461212e565b610ca4565b61026c6103c03660046120b5565b610d6c565b6102216103d3366004612191565b610da7565b6102857f9f2df0fed2c77648de5860a4cc508cd0818c85b8b8a1ab4ceeef8d981c8956a681565b61026c61040d3660046121a9565b610e93565b61020461042036600461202e565b610eb9565b610204610433366004612048565b600160a060020a03918216600090815260056020908152604080832093909416825291909152205460ff1690565b6102857fefb9a0764f88417a6977b3a6851c8fb991983b58bf47fec627571b2120bd9d1381565b600061049382610fb2565b92915050565b6060600080546104a8906124d3565b80601f01602080910402602001604051908101604052809291908181526020018280546104d4906124d3565b80156105215780601f106104f657610100808354040283529160200191610521565b820191906000526020600020905b81548152906001019060200180831161050457829003601f168201915b5050505050905090565b600081815260026020526040812054600160a060020a03166105bd5760405160e560020a62461bcd02815260206004820152602c60248201527f4552433732313a20617070726f76656420717565727920666f72206e6f6e657860448201527f697374656e7420746f6b656e000000000000000000000000000000000000000060648201526084015b60405180910390fd5b50600090815260046020526040902054600160a060020a031690565b60006105e482610b30565b905080600160a060020a031683600160a060020a031614156106715760405160e560020a62461bcd02815260206004820152602160248201527f4552433732313a20617070726f76616c20746f2063757272656e74206f776e6560448201527f720000000000000000000000000000000000000000000000000000000000000060648201526084016105b4565b33600160a060020a038216148061068d575061068d8133610433565b6107025760405160e560020a62461bcd02815260206004820152603860248201527f4552433732313a20617070726f76652063616c6c6572206973206e6f74206f7760448201527f6e6572206e6f7220617070726f76656420666f7220616c6c000000000000000060648201526084016105b4565b61070c8383610ff0565b505050565b61073b7f9f2df0fed2c77648de5860a4cc508cd0818c85b8b8a1ab4ceeef8d981c8956a633610c6a565b61078a5760405160e560020a62461bcd02815260206004820152601660248201527f43616c6c6572206973206e6f742061206d696e7465720000000000000000000060448201526064016105b4565b600061079461106b565b905061079e61107c565b6107a88282611093565b5050565b6107b633826111f4565b6107d55760405160e560020a62461bcd0281526004016105b4906123d1565b61070c8383836112ff565b6000828152600a60205260409020600101546107fc81336114ea565b61070c8383611551565b600061081183610bcd565b82106108885760405160e560020a62461bcd02815260206004820152602b60248201527f455243373231456e756d657261626c653a206f776e657220696e646578206f7560448201527f74206f6620626f756e647300000000000000000000000000000000000000000060648201526084016105b4565b50600160a060020a03919091166000908152600660209081526040808320938352929052205490565b600160a060020a03811633146109325760405160e560020a62461bcd02815260206004820152602f60248201527f416363657373436f6e74726f6c3a2063616e206f6e6c792072656e6f756e636560448201527f20726f6c657320666f722073656c66000000000000000000000000000000000060648201526084016105b4565b6107a882826115d7565b61070c83838360405180602001604052806000815250610d6c565b6109817f9f2df0fed2c77648de5860a4cc508cd0818c85b8b8a1ab4ceeef8d981c8956a633610c6a565b6109d05760405160e560020a62461bcd02815260206004820152601660248201527f43616c6c6572206973206e6f742061206d696e7465720000000000000000000060448201526064016105b4565b60005b81811161070c5760006109e461106b565b90506109ee61107c565b6109f88482611093565b5080610a0381612511565b9150506109d3565b6000610a1660085490565b8210610a8d5760405160e560020a62461bcd02815260206004820152602c60248201527f455243373231456e756d657261626c653a20676c6f62616c20696e646578206f60448201527f7574206f6620626f756e6473000000000000000000000000000000000000000060648201526084016105b4565b60088281548110610ab15760e060020a634e487b7102600052603260045260246000fd5b90600052602060002001549050919050565b610ace600033610c6a565b610b1d5760405160e560020a62461bcd02815260206004820152601560248201527f43616c6c6572206973206e6f7420612061646d696e000000000000000000000060448201526064016105b4565b80516107a890600b906020840190611f03565b600081815260026020526040812054600160a060020a0316806104935760405160e560020a62461bcd02815260206004820152602960248201527f4552433732313a206f776e657220717565727920666f72206e6f6e657869737460448201527f656e7420746f6b656e000000000000000000000000000000000000000000000060648201526084016105b4565b6060610bc861163e565b905090565b6000600160a060020a038216610c4e5760405160e560020a62461bcd02815260206004820152602a60248201527f4552433732313a2062616c616e636520717565727920666f7220746865207a6560448201527f726f20616464726573730000000000000000000000000000000000000000000060648201526084016105b4565b50600160a060020a031660009081526003602052604090205490565b6000918252600a60209081526040808420600160a060020a0393909316845291905290205460ff1690565b6060600180546104a8906124d3565b600160a060020a038216331415610d005760405160e560020a62461bcd02815260206004820152601960248201527f4552433732313a20617070726f766520746f2063616c6c65720000000000000060448201526064016105b4565b336000818152600560209081526040808320600160a060020a03871680855290835292819020805460ff191686151590811790915590519081529192917f17307eab39ab6107e8899845ad3d59bd9653f200f220920489ca2b5937696c31910160405180910390a35050565b610d7633836111f4565b610d955760405160e560020a62461bcd0281526004016105b4906123d1565b610da18484848461164d565b50505050565b600081815260026020526040902054606090600160a060020a0316610e375760405160e560020a62461bcd02815260206004820152602f60248201527f4552433732314d657461646174613a2055524920717565727920666f72206e6f60448201527f6e6578697374656e7420746f6b656e000000000000000000000000000000000060648201526084016105b4565b6000610e4161163e565b90506000815111610e615760405180602001604052806000815250610e8c565b80610e6b84611683565b604051602001610e7c929190612275565b6040516020818303038152906040525b9392505050565b6000828152600a6020526040902060010154610eaf81336114ea565b61070c83836115d7565b6000610ee57fefb9a0764f88417a6977b3a6851c8fb991983b58bf47fec627571b2120bd9d1333610c6a565b610f345760405160e560020a62461bcd02815260206004820152601d60248201527f43616c6c6572206973206e6f742061206d65726b6c65206d696e74657200000060448201526064016105b4565b600c54600d541115610f8b5760405160e560020a62461bcd02815260206004820152601260248201527f5265736572766564204d617820436f756e74000000000000000000000000000060448201526064016105b4565b6000610f956117de565b9050610f9f6117ef565b610fa98382611093565b50600192915050565b6000600160e060020a031982167f7965db0b0000000000000000000000000000000000000000000000000000000014806104935750610493826117ff565b6000818152600460205260409020805473ffffffffffffffffffffffffffffffffffffffff1916600160a060020a038416908117909155819061103282610b30565b600160a060020a03167f8c5be1e5ebec7d5bd14f71427d1e84f3dd0314c0f7b2291e5b200ac8c7c3b92560405160405180910390a45050565b600e54600090610bc890600161183d565b600e805490600061108c83612511565b9190505550565b600160a060020a0382166110ec5760405160e560020a62461bcd02815260206004820181905260248201527f4552433732313a206d696e7420746f20746865207a65726f206164647265737360448201526064016105b4565b600081815260026020526040902054600160a060020a0316156111545760405160e560020a62461bcd02815260206004820152601c60248201527f4552433732313a20746f6b656e20616c7265616479206d696e7465640000000060448201526064016105b4565b61116060008383611849565b600160a060020a038216600090815260036020526040812080546001929061118990849061242e565b9091555050600081815260026020526040808220805473ffffffffffffffffffffffffffffffffffffffff1916600160a060020a03861690811790915590518392907fddf252ad1be2c89b69c2b068fc378daa952ba7f163c4a11628f55a4df523b3ef908290a45050565b600081815260026020526040812054600160a060020a03166112815760405160e560020a62461bcd02815260206004820152602c60248201527f4552433732313a206f70657261746f7220717565727920666f72206e6f6e657860448201527f697374656e7420746f6b656e000000000000000000000000000000000000000060648201526084016105b4565b600061128c83610b30565b905080600160a060020a031684600160a060020a031614806112c7575083600160a060020a03166112bc8461052b565b600160a060020a0316145b806112f75750600160a060020a0380821660009081526005602090815260408083209388168352929052205460ff165b949350505050565b82600160a060020a031661131282610b30565b600160a060020a0316146113915760405160e560020a62461bcd02815260206004820152602960248201527f4552433732313a207472616e73666572206f6620746f6b656e2074686174206960448201527f73206e6f74206f776e000000000000000000000000000000000000000000000060648201526084016105b4565b600160a060020a03821661140f5760405160e560020a62461bcd028152602060048201526024808201527f4552433732313a207472616e7366657220746f20746865207a65726f2061646460448201527f726573730000000000000000000000000000000000000000000000000000000060648201526084016105b4565b61141a838383611849565b611425600082610ff0565b600160a060020a038316600090815260036020526040812080546001929061144e908490612479565b9091555050600160a060020a038216600090815260036020526040812080546001929061147c90849061242e565b9091555050600081815260026020526040808220805473ffffffffffffffffffffffffffffffffffffffff1916600160a060020a0386811691821790925591518493918716917fddf252ad1be2c89b69c2b068fc378daa952ba7f163c4a11628f55a4df523b3ef91a4505050565b6114f48282610c6a565b6107a85761150c81600160a060020a03166014611854565b611517836020611854565b6040516020016115289291906122a4565b60408051601f198184030181529082905260e560020a62461bcd0282526105b491600401612361565b61155b8282610c6a565b6107a8576000828152600a60209081526040808320600160a060020a03851684529091529020805460ff191660011790556115933390565b600160a060020a031681600160a060020a0316837f2f8788117e7eff1d82e926ec794901d17c78024a50270940304540a733656f0d60405160405180910390a45050565b6115e18282610c6a565b156107a8576000828152600a60209081526040808320600160a060020a0385168085529252808320805460ff1916905551339285917ff6391f5c32d9c69d2a47ea670b442974b53935d1edc7fd64eb21e047a839171b9190a45050565b6060600b80546104a8906124d3565b6116588484846112ff565b61166484848484611aab565b610da15760405160e560020a62461bcd0281526004016105b490612374565b6060816116c357505060408051808201909152600181527f3000000000000000000000000000000000000000000000000000000000000000602082015290565b8160005b81156116ed57806116d781612511565b91506116e69050600a83612446565b91506116c7565b60008167ffffffffffffffff8111156117195760e060020a634e487b7102600052604160045260246000fd5b6040519080825280601f01601f191660200182016040528015611743576020820181803683370190505b5090505b84156112f757611758600183612479565b9150611765600a8661252c565b61177090603061242e565b7f0100000000000000000000000000000000000000000000000000000000000000028183815181106117b55760e060020a634e487b7102600052603260045260246000fd5b6020010190600160f860020a031916908160001a9053506117d7600a86612446565b9450611747565b600d54600090610bc890600161183d565b600d805490600061108c83612511565b6000600160e060020a031982167f780e9d63000000000000000000000000000000000000000000000000000000001480610493575061049382611bed565b6000610e8c828461242e565b61070c838383611c88565b6060600061186383600261245a565b61186e90600261242e565b67ffffffffffffffff8111156118975760e060020a634e487b7102600052604160045260246000fd5b6040519080825280601f01601f1916602001820160405280156118c1576020820181803683370190505b5090507f3000000000000000000000000000000000000000000000000000000000000000816000815181106119095760e060020a634e487b7102600052603260045260246000fd5b6020010190600160f860020a031916908160001a9053507f7800000000000000000000000000000000000000000000000000000000000000816001815181106119655760e060020a634e487b7102600052603260045260246000fd5b6020010190600160f860020a031916908160001a905350600061198984600261245a565b61199490600161242e565b90505b6001811115611a59577f303132333435363738396162636465660000000000000000000000000000000085600f16601081106119e65760e060020a634e487b7102600052603260045260246000fd5b1a7f010000000000000000000000000000000000000000000000000000000000000002828281518110611a2c5760e060020a634e487b7102600052603260045260246000fd5b6020010190600160f860020a031916908160001a905350601090940493611a52816124bc565b9050611997565b508315610e8c5760405160e560020a62461bcd02815260206004820181905260248201527f537472696e67733a20686578206c656e67746820696e73756666696369656e7460448201526064016105b4565b6000600160a060020a0384163b15611be2576040517f150b7a02000000000000000000000000000000000000000000000000000000008152600160a060020a0385169063150b7a0290611b08903390899088908890600401612325565b602060405180830381600087803b158015611b2257600080fd5b505af1925050508015611b52575060408051601f3d908101601f19168201909252611b4f918101906121e7565b60015b611baf573d808015611b80576040519150601f19603f3d011682016040523d82523d6000602084013e611b85565b606091505b508051611ba75760405160e560020a62461bcd0281526004016105b490612374565b805181602001fd5b600160e060020a0319167f150b7a02000000000000000000000000000000000000000000000000000000001490506112f7565b506001949350505050565b6000600160e060020a031982167f80ac58cd000000000000000000000000000000000000000000000000000000001480611c505750600160e060020a031982167f5b5e139f00000000000000000000000000000000000000000000000000000000145b8061049357507f01ffc9a700000000000000000000000000000000000000000000000000000000600160e060020a0319831614610493565b600160a060020a038316611ce357611cde81600880546000838152600960205260408120829055600182018355919091527ff3f7a9fe364faab93b216da50a3214154f22a0a2b415b23a84c8169e8b636ee30155565b611d06565b81600160a060020a031683600160a060020a031614611d0657611d068382611d40565b600160a060020a038216611d1d5761070c81611ddd565b82600160a060020a031682600160a060020a03161461070c5761070c8282611ebf565b60006001611d4d84610bcd565b611d579190612479565b600083815260076020526040902054909150808214611daa57600160a060020a03841660009081526006602090815260408083208584528252808320548484528184208190558352600790915290208190555b506000918252600760209081526040808420849055600160a060020a039094168352600681528383209183525290812055565b600854600090611def90600190612479565b60008381526009602052604081205460088054939450909284908110611e285760e060020a634e487b7102600052603260045260246000fd5b906000526020600020015490508060088381548110611e5a5760e060020a634e487b7102600052603260045260246000fd5b6000918252602080832090910192909255828152600990915260408082208490558582528120556008805480611ea35760e060020a634e487b7102600052603160045260246000fd5b6001900381819060005260206000200160009055905550505050565b6000611eca83610bcd565b600160a060020a039093166000908152600660209081526040808320868452825280832085905593825260079052919091209190915550565b828054611f0f906124d3565b90600052602060002090601f016020900481019282611f315760008555611f77565b82601f10611f4a57805160ff1916838001178555611f77565b82800160010185558215611f77579182015b82811115611f77578251825591602001919060010190611f5c565b50611f83929150611f87565b5090565b5b80821115611f835760008155600101611f88565b600067ffffffffffffffff80841115611fb757611fb7612572565b604051601f8501601f19908116603f01168101908282118183101715611fdf57611fdf612572565b81604052809350858152868686011115611ff857600080fd5b858560208301376000602087830101525050509392505050565b8035600160a060020a038116811461202957600080fd5b919050565b60006020828403121561203f578081fd5b610e8c82612012565b6000806040838503121561205a578081fd5b61206383612012565b915061207160208401612012565b90509250929050565b60008060006060848603121561208e578081fd5b61209784612012565b92506120a560208501612012565b9150604084013590509250925092565b600080600080608085870312156120ca578081fd5b6120d385612012565b93506120e160208601612012565b925060408501359150606085013567ffffffffffffffff811115612103578182fd5b8501601f81018713612113578182fd5b61212287823560208401611f9c565b91505092959194509250565b60008060408385031215612140578182fd5b61214983612012565b91506020830135801515811461215d578182fd5b809150509250929050565b6000806040838503121561217a578182fd5b61218383612012565b946020939093013593505050565b6000602082840312156121a2578081fd5b5035919050565b600080604083850312156121bb578182fd5b8235915061207160208401612012565b6000602082840312156121dc578081fd5b8135610e8c8161258b565b6000602082840312156121f8578081fd5b8151610e8c8161258b565b600060208284031215612214578081fd5b813567ffffffffffffffff81111561222a578182fd5b8201601f8101841361223a578182fd5b6112f784823560208401611f9c565b60008151808452612261816020860160208601612490565b601f01601f19169290920160200192915050565b60008351612287818460208801612490565b83519083019061229b818360208801612490565b01949350505050565b7f416363657373436f6e74726f6c3a206163636f756e74200000000000000000008152600083516122dc816017850160208801612490565b7f206973206d697373696e6720726f6c65200000000000000000000000000000006017918401918201528351612319816028840160208801612490565b01602801949350505050565b6000600160a060020a038087168352808616602084015250836040830152608060608301526123576080830184612249565b9695505050505050565b602081526000610e8c6020830184612249565b60208082526032908201527f4552433732313a207472616e7366657220746f206e6f6e20455243373231526560408201527f63656976657220696d706c656d656e7465720000000000000000000000000000606082015260800190565b60208082526031908201527f4552433732313a207472616e736665722063616c6c6572206973206e6f74206f60408201527f776e6572206e6f7220617070726f766564000000000000000000000000000000606082015260800190565b6000821982111561244157612441612540565b500190565b60008261245557612455612559565b500490565b600081600019048311821515161561247457612474612540565b500290565b60008282101561248b5761248b612540565b500390565b60005b838110156124ab578181015183820152602001612493565b83811115610da15750506000910152565b6000816124cb576124cb612540565b506000190190565b6002810460018216806124e757607f821691505b6020821081141561250b5760e060020a634e487b7102600052602260045260246000fd5b50919050565b600060001982141561252557612525612540565b5060010190565b60008261253b5761253b612559565b500690565b60e060020a634e487b7102600052601160045260246000fd5b60e060020a634e487b7102600052601260045260246000fd5b60e060020a634e487b7102600052604160045260246000fd5b600160e060020a0319811681146125a157600080fd5b5056fea26469706673582212207a88af99a83ccf896d46458199fe011884e13d01feb7c734e676f7cbe15767d064736f6c63430008040033",
  "immutableReferences": {},
  "source": "// SPDX-License-Identifier: MIT\npragma solidity ^0.8.0;\n\nimport \"@openzeppelin/contracts/access/AccessControl.sol\";\nimport \"@openzeppelin/contracts/utils/math/SafeMath.sol\";\nimport \"@openzeppelin/contracts/token/ERC721/ERC721.sol\";\nimport \"@openzeppelin/contracts/token/ERC721/extensions/ERC721Enumerable.sol\";\n\ncontract UniArtsDaoNFT is ERC721, ERC721Enumerable, AccessControl {\n  using SafeMath for uint256;\n\n  // Create a new role identifier for the minter role\n  bytes32 public constant MINTER_ROLE = keccak256(\"MINTER_ROLE\");\n  // Create a new role identifier for the minter role\n  bytes32 public constant MERKLE_ROLE = keccak256(\"MERKLE_ROLE\");\n\n  string _baseURIValue;\n\n  // current TokenID\n  uint256 private _reservedMaxCount = 5000;\n  uint256 private _reservedTokenID = 0;\n\n  // current TokenID\n  uint256 private _currentTokenID = _reservedMaxCount + 1;\n\n  constructor(address minter, string memory baseURIValue_) ERC721(\"UniArtsDaoNFT\", \"UADNFT\") {\n    // Grant the minter role to a specified account\n    _setupRole(MINTER_ROLE, minter);\n    _setupRole(MERKLE_ROLE, minter);\n    _setupRole(DEFAULT_ADMIN_ROLE, minter);\n    _baseURIValue = baseURIValue_;\n  }\n\n  function _baseURI() internal view override returns (string memory) {\n    return _baseURIValue;\n  }\n\n  function baseURI() public view returns (string memory) {\n    return _baseURI();\n  }\n\n  function setBaseURI(string memory newBase) public {\n    // Only admin can setBaseURI\n    require(hasRole(DEFAULT_ADMIN_ROLE, msg.sender), \"Caller is not a admin\");\n    _baseURIValue = newBase;\n  }\n  \n  function createNFT(address user_address) external {\n    // Only minters can mint\n    // Check that the calling account has the minter role\n    require(hasRole(MINTER_ROLE, msg.sender), \"Caller is not a minter\");\n\n    uint256 tokenId = _getNextTokenID();\n    _incrementTokenTypeId();\n    _mint(user_address, tokenId);\n  }\n\n  function createMerkleNFT(address user_address) external returns (bool) {\n    // Only minters can mint\n    // Check that the calling account has the minter role\n    require(hasRole(MERKLE_ROLE, msg.sender), \"Caller is not a merkle minter\");\n\n    require(_reservedTokenID <= _reservedMaxCount, \"Reserved Max Count\");\n\n    uint256 tokenId = _getReservedNextTokenID();\n    _incrementReservedTokenId();\n    _mint(user_address, tokenId);\n    return true;\n  }\n\n  function batchMint(address user_address, uint mint_count) external {\n    // Only minters can mint\n    // Check that the calling account has the minter role\n    require(hasRole(MINTER_ROLE, msg.sender), \"Caller is not a minter\");\n\n    for(uint i = 0; i<=mint_count; i++){\n      uint256 tokenId = _getNextTokenID();\n      _incrementTokenTypeId();\n      _mint(user_address, tokenId);\n    }\n  }\n\n  function _beforeTokenTransfer(\n      address from,\n      address to,\n      uint256 tokenId\n  ) internal virtual override(ERC721, ERC721Enumerable) {\n    super._beforeTokenTransfer(from, to, tokenId);\n  }\n\n  /**\n    * @dev calculates the next token ID based on value of _currentTokenID\n    * @return uint256 for the next token ID\n    */\n  function _getReservedNextTokenID() private view returns (uint256) {\n      return _reservedTokenID.add(1);\n  }\n\n  /**\n    * @dev calculates the next token ID based on value of _currentTokenID\n    * @return uint256 for the next token ID\n    */\n  function _getNextTokenID() private view returns (uint256) {\n      return _currentTokenID.add(1);\n  }\n\n  /**\n    * @dev increments the value of _currentTokenID\n    */\n  function _incrementTokenTypeId() private  {\n      _currentTokenID++;\n  }\n\n  /**\n    * @dev increments the value of _reservedTokenID\n    */\n  function _incrementReservedTokenId() private  {\n      _reservedTokenID++;\n  }\n\n  /**\n  * override(ERC721, ERC721Enumerable, AccessControl) -> here you're specifying only two base classes ERC721, AccessControl\n  * */\n  function supportsInterface(bytes4 interfaceId)\n      public\n      view\n      override(ERC721, ERC721Enumerable, AccessControl)\n      returns (bool)\n  {\n      return super.supportsInterface(interfaceId);\n  }\n}\n",
  "sourcePath": "/Users/tuminfei/Code/Nodejs/uniarts-eth-dao/contracts/ERC721/UniArtsDaoNFT.sol",
  "compiler": {
    "name": "solc",
    "version": "0.8.4+commit.c7e474f2.Emscripten.clang"
  },
  "schemaVersion": "3.4.3",
  "updatedAt": "2022-01-21T01:24:55.729Z",
  "devdoc": {
    "kind": "dev",
    "methods": {
      "approve(address,uint256)": {
        "details": "See {IERC721-approve}."
      },
      "balanceOf(address)": {
        "details": "See {IERC721-balanceOf}."
      },
      "getApproved(uint256)": {
        "details": "See {IERC721-getApproved}."
      },
      "getRoleAdmin(bytes32)": {
        "details": "Returns the admin role that controls `role`. See {grantRole} and {revokeRole}. To change a role's admin, use {_setRoleAdmin}."
      },
      "grantRole(bytes32,address)": {
        "details": "Grants `role` to `account`. If `account` had not been already granted `role`, emits a {RoleGranted} event. Requirements: - the caller must have ``role``'s admin role."
      },
      "hasRole(bytes32,address)": {
        "details": "Returns `true` if `account` has been granted `role`."
      },
      "isApprovedForAll(address,address)": {
        "details": "See {IERC721-isApprovedForAll}."
      },
      "name()": {
        "details": "See {IERC721Metadata-name}."
      },
      "ownerOf(uint256)": {
        "details": "See {IERC721-ownerOf}."
      },
      "renounceRole(bytes32,address)": {
        "details": "Revokes `role` from the calling account. Roles are often managed via {grantRole} and {revokeRole}: this function's purpose is to provide a mechanism for accounts to lose their privileges if they are compromised (such as when a trusted device is misplaced). If the calling account had been granted `role`, emits a {RoleRevoked} event. Requirements: - the caller must be `account`."
      },
      "revokeRole(bytes32,address)": {
        "details": "Revokes `role` from `account`. If `account` had been granted `role`, emits a {RoleRevoked} event. Requirements: - the caller must have ``role``'s admin role."
      },
      "safeTransferFrom(address,address,uint256)": {
        "details": "See {IERC721-safeTransferFrom}."
      },
      "safeTransferFrom(address,address,uint256,bytes)": {
        "details": "See {IERC721-safeTransferFrom}."
      },
      "setApprovalForAll(address,bool)": {
        "details": "See {IERC721-setApprovalForAll}."
      },
      "symbol()": {
        "details": "See {IERC721Metadata-symbol}."
      },
      "tokenByIndex(uint256)": {
        "details": "See {IERC721Enumerable-tokenByIndex}."
      },
      "tokenOfOwnerByIndex(address,uint256)": {
        "details": "See {IERC721Enumerable-tokenOfOwnerByIndex}."
      },
      "tokenURI(uint256)": {
        "details": "See {IERC721Metadata-tokenURI}."
      },
      "totalSupply()": {
        "details": "See {IERC721Enumerable-totalSupply}."
      },
      "transferFrom(address,address,uint256)": {
        "details": "See {IERC721-transferFrom}."
      }
    },
    "version": 1
  },
  "userdoc": {
    "kind": "user",
    "methods": {
      "supportsInterface(bytes4)": {
        "notice": "override(ERC721, ERC721Enumerable, AccessControl) -> here you're specifying only two base classes ERC721, AccessControl "
      }
    },
    "version": 1
  }
}