{
  "contractName": "USDT",
  "abi": [
    {
      "inputs": [],
      "stateMutability": "nonpayable",
      "type": "constructor"
    },
    {
      "anonymous": false,
      "inputs": [
        {
          "indexed": true,
          "internalType": "address",
          "name": "owner",
          "type": "address"
        },
        {
          "indexed": true,
          "internalType": "address",
          "name": "spender",
          "type": "address"
        },
        {
          "indexed": false,
          "internalType": "uint256",
          "name": "value",
          "type": "uint256"
        }
      ],
      "name": "Approval",
      "type": "event"
    },
    {
      "anonymous": false,
      "inputs": [
        {
          "indexed": true,
          "internalType": "address",
          "name": "from",
          "type": "address"
        },
        {
          "indexed": true,
          "internalType": "address",
          "name": "to",
          "type": "address"
        },
        {
          "indexed": false,
          "internalType": "uint256",
          "name": "value",
          "type": "uint256"
        }
      ],
      "name": "Transfer",
      "type": "event"
    },
    {
      "inputs": [],
      "name": "DECIMALS",
      "outputs": [
        {
          "internalType": "uint8",
          "name": "",
          "type": "uint8"
        }
      ],
      "stateMutability": "view",
      "type": "function"
    },
    {
      "inputs": [],
      "name": "INITIAL_SUPPLY",
      "outputs": [
        {
          "internalType": "uint256",
          "name": "",
          "type": "uint256"
        }
      ],
      "stateMutability": "view",
      "type": "function"
    },
    {
      "inputs": [],
      "name": "MILLION",
      "outputs": [
        {
          "internalType": "uint256",
          "name": "",
          "type": "uint256"
        }
      ],
      "stateMutability": "view",
      "type": "function"
    },
    {
      "inputs": [],
      "name": "NAME",
      "outputs": [
        {
          "internalType": "string",
          "name": "",
          "type": "string"
        }
      ],
      "stateMutability": "view",
      "type": "function"
    },
    {
      "inputs": [],
      "name": "SYMBOL",
      "outputs": [
        {
          "internalType": "string",
          "name": "",
          "type": "string"
        }
      ],
      "stateMutability": "view",
      "type": "function"
    },
    {
      "inputs": [
        {
          "internalType": "address",
          "name": "owner",
          "type": "address"
        },
        {
          "internalType": "address",
          "name": "spender",
          "type": "address"
        }
      ],
      "name": "allowance",
      "outputs": [
        {
          "internalType": "uint256",
          "name": "",
          "type": "uint256"
        }
      ],
      "stateMutability": "view",
      "type": "function"
    },
    {
      "inputs": [
        {
          "internalType": "address",
          "name": "spender",
          "type": "address"
        },
        {
          "internalType": "uint256",
          "name": "amount",
          "type": "uint256"
        }
      ],
      "name": "approve",
      "outputs": [
        {
          "internalType": "bool",
          "name": "",
          "type": "bool"
        }
      ],
      "stateMutability": "nonpayable",
      "type": "function"
    },
    {
      "inputs": [
        {
          "internalType": "address",
          "name": "account",
          "type": "address"
        }
      ],
      "name": "balanceOf",
      "outputs": [
        {
          "internalType": "uint256",
          "name": "",
          "type": "uint256"
        }
      ],
      "stateMutability": "view",
      "type": "function"
    },
    {
      "inputs": [],
      "name": "decimals",
      "outputs": [
        {
          "internalType": "uint8",
          "name": "",
          "type": "uint8"
        }
      ],
      "stateMutability": "view",
      "type": "function"
    },
    {
      "inputs": [
        {
          "internalType": "address",
          "name": "spender",
          "type": "address"
        },
        {
          "internalType": "uint256",
          "name": "subtractedValue",
          "type": "uint256"
        }
      ],
      "name": "decreaseAllowance",
      "outputs": [
        {
          "internalType": "bool",
          "name": "",
          "type": "bool"
        }
      ],
      "stateMutability": "nonpayable",
      "type": "function"
    },
    {
      "inputs": [
        {
          "internalType": "address",
          "name": "spender",
          "type": "address"
        },
        {
          "internalType": "uint256",
          "name": "addedValue",
          "type": "uint256"
        }
      ],
      "name": "increaseAllowance",
      "outputs": [
        {
          "internalType": "bool",
          "name": "",
          "type": "bool"
        }
      ],
      "stateMutability": "nonpayable",
      "type": "function"
    },
    {
      "inputs": [],
      "name": "name",
      "outputs": [
        {
          "internalType": "string",
          "name": "",
          "type": "string"
        }
      ],
      "stateMutability": "view",
      "type": "function"
    },
    {
      "inputs": [],
      "name": "symbol",
      "outputs": [
        {
          "internalType": "string",
          "name": "",
          "type": "string"
        }
      ],
      "stateMutability": "view",
      "type": "function"
    },
    {
      "inputs": [],
      "name": "totalSupply",
      "outputs": [
        {
          "internalType": "uint256",
          "name": "",
          "type": "uint256"
        }
      ],
      "stateMutability": "view",
      "type": "function"
    },
    {
      "inputs": [
        {
          "internalType": "address",
          "name": "recipient",
          "type": "address"
        },
        {
          "internalType": "uint256",
          "name": "amount",
          "type": "uint256"
        }
      ],
      "name": "transfer",
      "outputs": [
        {
          "internalType": "bool",
          "name": "",
          "type": "bool"
        }
      ],
      "stateMutability": "nonpayable",
      "type": "function"
    },
    {
      "inputs": [
        {
          "internalType": "address",
          "name": "sender",
          "type": "address"
        },
        {
          "internalType": "address",
          "name": "recipient",
          "type": "address"
        },
        {
          "internalType": "uint256",
          "name": "amount",
          "type": "uint256"
        }
      ],
      "name": "transferFrom",
      "outputs": [
        {
          "internalType": "bool",
          "name": "",
          "type": "bool"
        }
      ],
      "stateMutability": "nonpayable",
      "type": "function"
    }
  ],
  "bytecode": "0x60806040523480156200001157600080fd5b506040518060400160405280600981526020017f55534454205445535400000000000000000000000000000000000000000000008152506040518060400160405280600481526020017f55534454000000000000000000000000000000000000000000000000000000008152508160039080519060200190620000969291906200027d565b508060049080519060200190620000af9291906200027d565b505050620000f433601260ff16600a620000ca91906200046d565b620f4240620000da9190620005aa565b6064620000e89190620005aa565b620000fa60201b60201c565b620006df565b600073ffffffffffffffffffffffffffffffffffffffff168273ffffffffffffffffffffffffffffffffffffffff1614156200016d576040517f08c379a0000000000000000000000000000000000000000000000000000000008152600401620001649062000365565b60405180910390fd5b62000181600083836200027360201b60201c565b8060026000828254620001959190620003b5565b92505081905550806000808473ffffffffffffffffffffffffffffffffffffffff1673ffffffffffffffffffffffffffffffffffffffff1681526020019081526020016000206000828254620001ec9190620003b5565b925050819055508173ffffffffffffffffffffffffffffffffffffffff16600073ffffffffffffffffffffffffffffffffffffffff167fddf252ad1be2c89b69c2b068fc378daa952ba7f163c4a11628f55a4df523b3ef8360405162000253919062000387565b60405180910390a36200026f600083836200027860201b60201c565b5050565b505050565b505050565b8280546200028b9062000615565b90600052602060002090601f016020900481019282620002af5760008555620002fb565b82601f10620002ca57805160ff1916838001178555620002fb565b82800160010185558215620002fb579182015b82811115620002fa578251825591602001919060010190620002dd565b5b5090506200030a91906200030e565b5090565b5b80821115620003295760008160009055506001016200030f565b5090565b60006200033c601f83620003a4565b91506200034982620006b6565b602082019050919050565b6200035f816200060b565b82525050565b6000602082019050818103600083015262000380816200032d565b9050919050565b60006020820190506200039e600083018462000354565b92915050565b600082825260208201905092915050565b6000620003c2826200060b565b9150620003cf836200060b565b9250827fffffffffffffffffffffffffffffffffffffffffffffffffffffffffffffffff038211156200040757620004066200064b565b5b828201905092915050565b6000808291508390505b600185111562000464578086048111156200043c576200043b6200064b565b5b60018516156200044c5780820291505b80810290506200045c85620006a9565b94506200041c565b94509492505050565b60006200047a826200060b565b915062000487836200060b565b9250620004b67fffffffffffffffffffffffffffffffffffffffffffffffffffffffffffffffff8484620004be565b905092915050565b600082620004d05760019050620005a3565b81620004e05760009050620005a3565b8160018114620004f9576002811462000504576200053a565b6001915050620005a3565b60ff8411156200051957620005186200064b565b5b8360020a9150848211156200053357620005326200064b565b5b50620005a3565b5060208310610133831016604e8410600b8410161715620005745782820a9050838111156200056e576200056d6200064b565b5b620005a3565b62000583848484600162000412565b925090508184048111156200059d576200059c6200064b565b5b81810290505b9392505050565b6000620005b7826200060b565b9150620005c4836200060b565b9250817fffffffffffffffffffffffffffffffffffffffffffffffffffffffffffffffff04831182151516156200060057620005ff6200064b565b5b828202905092915050565b6000819050919050565b600060028204905060018216806200062e57607f821691505b602082108114156200064557620006446200067a565b5b50919050565b7f4e487b7100000000000000000000000000000000000000000000000000000000600052601160045260246000fd5b7f4e487b7100000000000000000000000000000000000000000000000000000000600052602260045260246000fd5b60008160011c9050919050565b7f45524332303a206d696e7420746f20746865207a65726f206164647265737300600082015250565b61172180620006ef6000396000f3fe608060405234801561001057600080fd5b50600436106101005760003560e01c80633950935111610097578063a457c2d711610066578063a457c2d7146102b5578063a9059cbb146102e5578063dd62ed3e14610315578063f76f8d781461034557610100565b8063395093511461021957806370a082311461024957806395d89b4114610279578063a3f4df7e1461029757610100565b80632e0f2625116100d35780632e0f2625146101a15780632ff2e9dc146101bf578063313ce567146101dd57806332bc934c146101fb57610100565b806306fdde0314610105578063095ea7b31461012357806318160ddd1461015357806323b872dd14610171575b600080fd5b61010d610363565b60405161011a9190610fe9565b60405180910390f35b61013d60048036038101906101389190610e37565b6103f5565b60405161014a9190610fce565b60405180910390f35b61015b610413565b60405161016891906110eb565b60405180910390f35b61018b60048036038101906101869190610de8565b61041d565b6040516101989190610fce565b60405180910390f35b6101a9610515565b6040516101b69190611106565b60405180910390f35b6101c761051a565b6040516101d491906110eb565b60405180910390f35b6101e5610548565b6040516101f29190611106565b60405180910390f35b610203610551565b60405161021091906110eb565b60405180910390f35b610233600480360381019061022e9190610e37565b610573565b6040516102409190610fce565b60405180910390f35b610263600480360381019061025e9190610d83565b61061f565b60405161027091906110eb565b60405180910390f35b610281610667565b60405161028e9190610fe9565b60405180910390f35b61029f6106f9565b6040516102ac9190610fe9565b60405180910390f35b6102cf60048036038101906102ca9190610e37565b610732565b6040516102dc9190610fce565b60405180910390f35b6102ff60048036038101906102fa9190610e37565b61081d565b60405161030c9190610fce565b60405180910390f35b61032f600480360381019061032a9190610dac565b61083b565b60405161033c91906110eb565b60405180910390f35b61034d6108c2565b60405161035a9190610fe9565b60405180910390f35b606060038054610372906113e6565b80601f016020809104026020016040519081016040528092919081815260200182805461039e906113e6565b80156103eb5780601f106103c0576101008083540402835291602001916103eb565b820191906000526020600020905b8154815290600101906020018083116103ce57829003601f168201915b5050505050905090565b60006104096104026108fb565b8484610903565b6001905092915050565b6000600254905090565b600061042a848484610ace565b6000600160008673ffffffffffffffffffffffffffffffffffffffff1673ffffffffffffffffffffffffffffffffffffffff16815260200190815260200160002060006104756108fb565b73ffffffffffffffffffffffffffffffffffffffff1673ffffffffffffffffffffffffffffffffffffffff168152602001908152602001600020549050828110156104f5576040517f08c379a00000000000000000000000000000000000000000000000000000000081526004016104ec9061106b565b60405180910390fd5b610509856105016108fb565b858403610903565b60019150509392505050565b601281565b601260ff16600a61052b91906111e6565b620f42406105399190611304565b60646105459190611304565b81565b60006012905090565b601260ff16600a61056291906111e6565b620f42406105709190611304565b81565b60006106156105806108fb565b84846001600061058e6108fb565b73ffffffffffffffffffffffffffffffffffffffff1673ffffffffffffffffffffffffffffffffffffffff16815260200190815260200160002060008873ffffffffffffffffffffffffffffffffffffffff1673ffffffffffffffffffffffffffffffffffffffff16815260200190815260200160002054610610919061113d565b610903565b6001905092915050565b60008060008373ffffffffffffffffffffffffffffffffffffffff1673ffffffffffffffffffffffffffffffffffffffff168152602001908152602001600020549050919050565b606060048054610676906113e6565b80601f01602080910402602001604051908101604052809291908181526020018280546106a2906113e6565b80156106ef5780601f106106c4576101008083540402835291602001916106ef565b820191906000526020600020905b8154815290600101906020018083116106d257829003601f168201915b5050505050905090565b6040518060400160405280600981526020017f555344542054455354000000000000000000000000000000000000000000000081525081565b600080600160006107416108fb565b73ffffffffffffffffffffffffffffffffffffffff1673ffffffffffffffffffffffffffffffffffffffff16815260200190815260200160002060008573ffffffffffffffffffffffffffffffffffffffff1673ffffffffffffffffffffffffffffffffffffffff168152602001908152602001600020549050828110156107fe576040517f08c379a00000000000000000000000000000000000000000000000000000000081526004016107f5906110cb565b60405180910390fd5b6108126108096108fb565b85858403610903565b600191505092915050565b600061083161082a6108fb565b8484610ace565b6001905092915050565b6000600160008473ffffffffffffffffffffffffffffffffffffffff1673ffffffffffffffffffffffffffffffffffffffff16815260200190815260200160002060008373ffffffffffffffffffffffffffffffffffffffff1673ffffffffffffffffffffffffffffffffffffffff16815260200190815260200160002054905092915050565b6040518060400160405280600481526020017f555344540000000000000000000000000000000000000000000000000000000081525081565b600033905090565b600073ffffffffffffffffffffffffffffffffffffffff168373ffffffffffffffffffffffffffffffffffffffff161415610973576040517f08c379a000000000000000000000000000000000000000000000000000000000815260040161096a906110ab565b60405180910390fd5b600073ffffffffffffffffffffffffffffffffffffffff168273ffffffffffffffffffffffffffffffffffffffff1614156109e3576040517f08c379a00000000000000000000000000000000000000000000000000000000081526004016109da9061102b565b60405180910390fd5b80600160008573ffffffffffffffffffffffffffffffffffffffff1673ffffffffffffffffffffffffffffffffffffffff16815260200190815260200160002060008473ffffffffffffffffffffffffffffffffffffffff1673ffffffffffffffffffffffffffffffffffffffff168152602001908152602001600020819055508173ffffffffffffffffffffffffffffffffffffffff168373ffffffffffffffffffffffffffffffffffffffff167f8c5be1e5ebec7d5bd14f71427d1e84f3dd0314c0f7b2291e5b200ac8c7c3b92583604051610ac191906110eb565b60405180910390a3505050565b600073ffffffffffffffffffffffffffffffffffffffff168373ffffffffffffffffffffffffffffffffffffffff161415610b3e576040517f08c379a0000000000000000000000000000000000000000000000000000000008152600401610b359061108b565b60405180910390fd5b600073ffffffffffffffffffffffffffffffffffffffff168273ffffffffffffffffffffffffffffffffffffffff161415610bae576040517f08c379a0000000000000000000000000000000000000000000000000000000008152600401610ba59061100b565b60405180910390fd5b610bb9838383610d4f565b60008060008573ffffffffffffffffffffffffffffffffffffffff1673ffffffffffffffffffffffffffffffffffffffff16815260200190815260200160002054905081811015610c3f576040517f08c379a0000000000000000000000000000000000000000000000000000000008152600401610c369061104b565b60405180910390fd5b8181036000808673ffffffffffffffffffffffffffffffffffffffff1673ffffffffffffffffffffffffffffffffffffffff16815260200190815260200160002081905550816000808573ffffffffffffffffffffffffffffffffffffffff1673ffffffffffffffffffffffffffffffffffffffff1681526020019081526020016000206000828254610cd2919061113d565b925050819055508273ffffffffffffffffffffffffffffffffffffffff168473ffffffffffffffffffffffffffffffffffffffff167fddf252ad1be2c89b69c2b068fc378daa952ba7f163c4a11628f55a4df523b3ef84604051610d3691906110eb565b60405180910390a3610d49848484610d54565b50505050565b505050565b505050565b600081359050610d68816116bd565b92915050565b600081359050610d7d816116d4565b92915050565b600060208284031215610d9557600080fd5b6000610da384828501610d59565b91505092915050565b60008060408385031215610dbf57600080fd5b6000610dcd85828601610d59565b9250506020610dde85828601610d59565b9150509250929050565b600080600060608486031215610dfd57600080fd5b6000610e0b86828701610d59565b9350506020610e1c86828701610d59565b9250506040610e2d86828701610d6e565b9150509250925092565b60008060408385031215610e4a57600080fd5b6000610e5885828601610d59565b9250506020610e6985828601610d6e565b9150509250929050565b610e7c81611370565b82525050565b6000610e8d82611121565b610e97818561112c565b9350610ea78185602086016113b3565b610eb081611476565b840191505092915050565b6000610ec860238361112c565b9150610ed382611494565b604082019050919050565b6000610eeb60228361112c565b9150610ef6826114e3565b604082019050919050565b6000610f0e60268361112c565b9150610f1982611532565b604082019050919050565b6000610f3160288361112c565b9150610f3c82611581565b604082019050919050565b6000610f5460258361112c565b9150610f5f826115d0565b604082019050919050565b6000610f7760248361112c565b9150610f828261161f565b604082019050919050565b6000610f9a60258361112c565b9150610fa58261166e565b604082019050919050565b610fb98161139c565b82525050565b610fc8816113a6565b82525050565b6000602082019050610fe36000830184610e73565b92915050565b600060208201905081810360008301526110038184610e82565b905092915050565b6000602082019050818103600083015261102481610ebb565b9050919050565b6000602082019050818103600083015261104481610ede565b9050919050565b6000602082019050818103600083015261106481610f01565b9050919050565b6000602082019050818103600083015261108481610f24565b9050919050565b600060208201905081810360008301526110a481610f47565b9050919050565b600060208201905081810360008301526110c481610f6a565b9050919050565b600060208201905081810360008301526110e481610f8d565b9050919050565b60006020820190506111006000830184610fb0565b92915050565b600060208201905061111b6000830184610fbf565b92915050565b600081519050919050565b600082825260208201905092915050565b60006111488261139c565b91506111538361139c565b9250827fffffffffffffffffffffffffffffffffffffffffffffffffffffffffffffffff0382111561118857611187611418565b5b828201905092915050565b6000808291508390505b60018511156111dd578086048111156111b9576111b8611418565b5b60018516156111c85780820291505b80810290506111d685611487565b945061119d565b94509492505050565b60006111f18261139c565b91506111fc8361139c565b92506112297fffffffffffffffffffffffffffffffffffffffffffffffffffffffffffffffff8484611231565b905092915050565b60008261124157600190506112fd565b8161124f57600090506112fd565b8160018114611265576002811461126f5761129e565b60019150506112fd565b60ff84111561128157611280611418565b5b8360020a91508482111561129857611297611418565b5b506112fd565b5060208310610133831016604e8410600b84101617156112d35782820a9050838111156112ce576112cd611418565b5b6112fd565b6112e08484846001611193565b925090508184048111156112f7576112f6611418565b5b81810290505b9392505050565b600061130f8261139c565b915061131a8361139c565b9250817fffffffffffffffffffffffffffffffffffffffffffffffffffffffffffffffff048311821515161561135357611352611418565b5b828202905092915050565b60006113698261137c565b9050919050565b60008115159050919050565b600073ffffffffffffffffffffffffffffffffffffffff82169050919050565b6000819050919050565b600060ff82169050919050565b60005b838110156113d15780820151818401526020810190506113b6565b838111156113e0576000848401525b50505050565b600060028204905060018216806113fe57607f821691505b6020821081141561141257611411611447565b5b50919050565b7f4e487b7100000000000000000000000000000000000000000000000000000000600052601160045260246000fd5b7f4e487b7100000000000000000000000000000000000000000000000000000000600052602260045260246000fd5b6000601f19601f8301169050919050565b60008160011c9050919050565b7f45524332303a207472616e7366657220746f20746865207a65726f206164647260008201527f6573730000000000000000000000000000000000000000000000000000000000602082015250565b7f45524332303a20617070726f766520746f20746865207a65726f20616464726560008201527f7373000000000000000000000000000000000000000000000000000000000000602082015250565b7f45524332303a207472616e7366657220616d6f756e742065786365656473206260008201527f616c616e63650000000000000000000000000000000000000000000000000000602082015250565b7f45524332303a207472616e7366657220616d6f756e742065786365656473206160008201527f6c6c6f77616e6365000000000000000000000000000000000000000000000000602082015250565b7f45524332303a207472616e736665722066726f6d20746865207a65726f20616460008201527f6472657373000000000000000000000000000000000000000000000000000000602082015250565b7f45524332303a20617070726f76652066726f6d20746865207a65726f2061646460008201527f7265737300000000000000000000000000000000000000000000000000000000602082015250565b7f45524332303a2064656372656173656420616c6c6f77616e63652062656c6f7760008201527f207a65726f000000000000000000000000000000000000000000000000000000602082015250565b6116c68161135e565b81146116d157600080fd5b50565b6116dd8161139c565b81146116e857600080fd5b5056fea2646970667358221220134aeb48fe19b983d06a6173ce24d11d3bce5bbcd2baad9795aeee0444f6d73a64736f6c63430008040033",
  "immutableReferences": {},
  "source": "// SPDX-License-Identifier: MIT\npragma solidity ^0.8.0;\n\nimport '@openzeppelin/contracts/token/ERC20/ERC20.sol';\n\ncontract USDT is ERC20 {\n    // modify token name\n    string public constant NAME = \"USDT TEST\";\n    // modify token symbol\n    string public constant SYMBOL = \"USDT\";\n    // modify token decimals\n    uint8 public constant DECIMALS = 18;\n    // modify MILLION\n    uint256 public constant MILLION = 10**6 * (10 ** uint256(DECIMALS));\n    // modify initial token supply\n    uint256 public constant INITIAL_SUPPLY = 100 * MILLION; \n\n    constructor() ERC20(NAME, SYMBOL) {\n        _mint(msg.sender, INITIAL_SUPPLY);\n    }\n}",
  "sourcePath": "/Users/tuminfei/Code/Nodejs/uniarts-eth-dao/contracts/ERC20/USDT.sol",
  "compiler": {
    "name": "solc",
    "version": "0.8.4+commit.c7e474f2.Emscripten.clang"
  },
  "schemaVersion": "3.4.3",
  "updatedAt": "2021-08-19T02:04:52.550Z",
  "devdoc": {
    "kind": "dev",
    "methods": {
      "allowance(address,address)": {
        "details": "See {IERC20-allowance}."
      },
      "approve(address,uint256)": {
        "details": "See {IERC20-approve}. Requirements: - `spender` cannot be the zero address."
      },
      "balanceOf(address)": {
        "details": "See {IERC20-balanceOf}."
      },
      "decimals()": {
        "details": "Returns the number of decimals used to get its user representation. For example, if `decimals` equals `2`, a balance of `505` tokens should be displayed to a user as `5.05` (`505 / 10 ** 2`). Tokens usually opt for a value of 18, imitating the relationship between Ether and Wei. This is the value {ERC20} uses, unless this function is overridden; NOTE: This information is only used for _display_ purposes: it in no way affects any of the arithmetic of the contract, including {IERC20-balanceOf} and {IERC20-transfer}."
      },
      "decreaseAllowance(address,uint256)": {
        "details": "Atomically decreases the allowance granted to `spender` by the caller. This is an alternative to {approve} that can be used as a mitigation for problems described in {IERC20-approve}. Emits an {Approval} event indicating the updated allowance. Requirements: - `spender` cannot be the zero address. - `spender` must have allowance for the caller of at least `subtractedValue`."
      },
      "increaseAllowance(address,uint256)": {
        "details": "Atomically increases the allowance granted to `spender` by the caller. This is an alternative to {approve} that can be used as a mitigation for problems described in {IERC20-approve}. Emits an {Approval} event indicating the updated allowance. Requirements: - `spender` cannot be the zero address."
      },
      "name()": {
        "details": "Returns the name of the token."
      },
      "symbol()": {
        "details": "Returns the symbol of the token, usually a shorter version of the name."
      },
      "totalSupply()": {
        "details": "See {IERC20-totalSupply}."
      },
      "transfer(address,uint256)": {
        "details": "See {IERC20-transfer}. Requirements: - `recipient` cannot be the zero address. - the caller must have a balance of at least `amount`."
      },
      "transferFrom(address,address,uint256)": {
        "details": "See {IERC20-transferFrom}. Emits an {Approval} event indicating the updated allowance. This is not required by the EIP. See the note at the beginning of {ERC20}. Requirements: - `sender` and `recipient` cannot be the zero address. - `sender` must have a balance of at least `amount`. - the caller must have allowance for ``sender``'s tokens of at least `amount`."
      }
    },
    "version": 1
  },
  "userdoc": {
    "kind": "user",
    "methods": {},
    "version": 1
  }
}