{
  "contractName": "VoteMining",
  "abi": [
    {
      "inputs": [
        {
          "internalType": "address",
          "name": "_treasury",
          "type": "address"
        },
        {
          "internalType": "address",
          "name": "_tokenLocker",
          "type": "address"
        }
      ],
      "stateMutability": "nonpayable",
      "type": "constructor"
    },
    {
      "anonymous": false,
      "inputs": [
        {
          "indexed": true,
          "internalType": "address",
          "name": "previousOwner",
          "type": "address"
        },
        {
          "indexed": true,
          "internalType": "address",
          "name": "newOwner",
          "type": "address"
        }
      ],
      "name": "OwnershipTransferred",
      "type": "event"
    },
    {
      "anonymous": false,
      "inputs": [
        {
          "indexed": true,
          "internalType": "address",
          "name": "user",
          "type": "address"
        },
        {
          "indexed": false,
          "internalType": "address",
          "name": "token",
          "type": "address"
        },
        {
          "indexed": false,
          "internalType": "uint256",
          "name": "amount",
          "type": "uint256"
        }
      ],
      "name": "Redeem",
      "type": "event"
    },
    {
      "anonymous": false,
      "inputs": [
        {
          "indexed": true,
          "internalType": "address",
          "name": "user",
          "type": "address"
        },
        {
          "indexed": false,
          "internalType": "uint256",
          "name": "amount",
          "type": "uint256"
        },
        {
          "indexed": false,
          "internalType": "uint256",
          "name": "at",
          "type": "uint256"
        }
      ],
      "name": "Unbond",
      "type": "event"
    },
    {
      "inputs": [],
      "name": "VOTE_DAYS",
      "outputs": [
        {
          "internalType": "uint256",
          "name": "",
          "type": "uint256"
        }
      ],
      "stateMutability": "view",
      "type": "function"
    },
    {
      "inputs": [],
      "name": "VOTE_DURATION",
      "outputs": [
        {
          "internalType": "uint256",
          "name": "",
          "type": "uint256"
        }
      ],
      "stateMutability": "view",
      "type": "function"
    },
    {
      "inputs": [],
      "name": "VOTE_TIME_UNIT",
      "outputs": [
        {
          "internalType": "uint256",
          "name": "",
          "type": "uint256"
        }
      ],
      "stateMutability": "view",
      "type": "function"
    },
    {
      "inputs": [],
      "name": "auction",
      "outputs": [
        {
          "internalType": "address",
          "name": "",
          "type": "address"
        }
      ],
      "stateMutability": "view",
      "type": "function"
    },
    {
      "inputs": [
        {
          "internalType": "address",
          "name": "",
          "type": "address"
        },
        {
          "internalType": "address",
          "name": "",
          "type": "address"
        },
        {
          "internalType": "uint256",
          "name": "",
          "type": "uint256"
        }
      ],
      "name": "balances",
      "outputs": [
        {
          "internalType": "uint256",
          "name": "available",
          "type": "uint256"
        },
        {
          "internalType": "uint256",
          "name": "freezed",
          "type": "uint256"
        },
        {
          "internalType": "uint256",
          "name": "votedAt",
          "type": "uint256"
        }
      ],
      "stateMutability": "view",
      "type": "function"
    },
    {
      "inputs": [],
      "name": "bonusCap",
      "outputs": [
        {
          "internalType": "uint256",
          "name": "",
          "type": "uint256"
        }
      ],
      "stateMutability": "view",
      "type": "function"
    },
    {
      "inputs": [
        {
          "internalType": "address",
          "name": "",
          "type": "address"
        },
        {
          "internalType": "uint256",
          "name": "",
          "type": "uint256"
        }
      ],
      "name": "bonusRewardsClaimed",
      "outputs": [
        {
          "internalType": "bool",
          "name": "",
          "type": "bool"
        }
      ],
      "stateMutability": "view",
      "type": "function"
    },
    {
      "inputs": [],
      "name": "currentGroupId",
      "outputs": [
        {
          "internalType": "uint256",
          "name": "",
          "type": "uint256"
        }
      ],
      "stateMutability": "view",
      "type": "function"
    },
    {
      "inputs": [],
      "name": "dailyVoteRewardCap",
      "outputs": [
        {
          "internalType": "uint256",
          "name": "",
          "type": "uint256"
        }
      ],
      "stateMutability": "view",
      "type": "function"
    },
    {
      "inputs": [
        {
          "internalType": "uint256",
          "name": "",
          "type": "uint256"
        },
        {
          "internalType": "uint256",
          "name": "",
          "type": "uint256"
        }
      ],
      "name": "dayVotes",
      "outputs": [
        {
          "internalType": "uint256",
          "name": "",
          "type": "uint256"
        }
      ],
      "stateMutability": "view",
      "type": "function"
    },
    {
      "inputs": [
        {
          "internalType": "uint256",
          "name": "",
          "type": "uint256"
        },
        {
          "internalType": "uint256",
          "name": "",
          "type": "uint256"
        }
      ],
      "name": "groupNFTs",
      "outputs": [
        {
          "internalType": "uint256",
          "name": "uid",
          "type": "uint256"
        },
        {
          "internalType": "address",
          "name": "addr",
          "type": "address"
        },
        {
          "internalType": "uint256",
          "name": "id",
          "type": "uint256"
        },
        {
          "internalType": "address",
          "name": "owner",
          "type": "address"
        }
      ],
      "stateMutability": "view",
      "type": "function"
    },
    {
      "inputs": [
        {
          "internalType": "uint256",
          "name": "",
          "type": "uint256"
        },
        {
          "internalType": "address",
          "name": "",
          "type": "address"
        },
        {
          "internalType": "address",
          "name": "",
          "type": "address"
        }
      ],
      "name": "groupTokenBalances",
      "outputs": [
        {
          "internalType": "uint256",
          "name": "",
          "type": "uint256"
        }
      ],
      "stateMutability": "view",
      "type": "function"
    },
    {
      "inputs": [
        {
          "internalType": "uint256",
          "name": "",
          "type": "uint256"
        }
      ],
      "name": "groupVotes",
      "outputs": [
        {
          "internalType": "uint256",
          "name": "",
          "type": "uint256"
        }
      ],
      "stateMutability": "view",
      "type": "function"
    },
    {
      "inputs": [
        {
          "internalType": "uint256",
          "name": "",
          "type": "uint256"
        }
      ],
      "name": "groups",
      "outputs": [
        {
          "internalType": "uint256",
          "name": "",
          "type": "uint256"
        }
      ],
      "stateMutability": "view",
      "type": "function"
    },
    {
      "inputs": [
        {
          "internalType": "uint256",
          "name": "",
          "type": "uint256"
        }
      ],
      "name": "hasFinished",
      "outputs": [
        {
          "internalType": "bool",
          "name": "",
          "type": "bool"
        }
      ],
      "stateMutability": "view",
      "type": "function"
    },
    {
      "inputs": [
        {
          "internalType": "uint256",
          "name": "",
          "type": "uint256"
        }
      ],
      "name": "matches",
      "outputs": [
        {
          "internalType": "string",
          "name": "",
          "type": "string"
        }
      ],
      "stateMutability": "view",
      "type": "function"
    },
    {
      "inputs": [],
      "name": "mintRewardCap",
      "outputs": [
        {
          "internalType": "uint256",
          "name": "",
          "type": "uint256"
        }
      ],
      "stateMutability": "view",
      "type": "function"
    },
    {
      "inputs": [
        {
          "internalType": "uint256",
          "name": "",
          "type": "uint256"
        }
      ],
      "name": "mintRewardsClaimed",
      "outputs": [
        {
          "internalType": "bool",
          "name": "",
          "type": "bool"
        }
      ],
      "stateMutability": "view",
      "type": "function"
    },
    {
      "inputs": [],
      "name": "nextNFTId",
      "outputs": [
        {
          "internalType": "uint256",
          "name": "",
          "type": "uint256"
        }
      ],
      "stateMutability": "view",
      "type": "function"
    },
    {
      "inputs": [
        {
          "internalType": "uint256",
          "name": "",
          "type": "uint256"
        }
      ],
      "name": "nftGroup",
      "outputs": [
        {
          "internalType": "uint256",
          "name": "",
          "type": "uint256"
        }
      ],
      "stateMutability": "view",
      "type": "function"
    },
    {
      "inputs": [
        {
          "internalType": "uint256",
          "name": "",
          "type": "uint256"
        }
      ],
      "name": "nftTradedPrices",
      "outputs": [
        {
          "internalType": "uint256",
          "name": "",
          "type": "uint256"
        }
      ],
      "stateMutability": "view",
      "type": "function"
    },
    {
      "inputs": [
        {
          "internalType": "uint256",
          "name": "",
          "type": "uint256"
        }
      ],
      "name": "nftVotes",
      "outputs": [
        {
          "internalType": "uint256",
          "name": "",
          "type": "uint256"
        }
      ],
      "stateMutability": "view",
      "type": "function"
    },
    {
      "inputs": [
        {
          "internalType": "address",
          "name": "",
          "type": "address"
        },
        {
          "internalType": "uint256",
          "name": "",
          "type": "uint256"
        }
      ],
      "name": "nfts",
      "outputs": [
        {
          "internalType": "uint256",
          "name": "",
          "type": "uint256"
        }
      ],
      "stateMutability": "view",
      "type": "function"
    },
    {
      "inputs": [
        {
          "internalType": "address",
          "name": "",
          "type": "address"
        }
      ],
      "name": "operators",
      "outputs": [
        {
          "internalType": "bool",
          "name": "",
          "type": "bool"
        }
      ],
      "stateMutability": "view",
      "type": "function"
    },
    {
      "inputs": [],
      "name": "owner",
      "outputs": [
        {
          "internalType": "address",
          "name": "",
          "type": "address"
        }
      ],
      "stateMutability": "view",
      "type": "function"
    },
    {
      "inputs": [],
      "name": "pinAddress",
      "outputs": [
        {
          "internalType": "address",
          "name": "",
          "type": "address"
        }
      ],
      "stateMutability": "view",
      "type": "function"
    },
    {
      "inputs": [],
      "name": "renounceOwnership",
      "outputs": [],
      "stateMutability": "nonpayable",
      "type": "function"
    },
    {
      "inputs": [
        {
          "internalType": "uint256",
          "name": "",
          "type": "uint256"
        }
      ],
      "name": "stakingBases",
      "outputs": [
        {
          "internalType": "uint256",
          "name": "",
          "type": "uint256"
        }
      ],
      "stateMutability": "view",
      "type": "function"
    },
    {
      "inputs": [],
      "name": "tokenLockId",
      "outputs": [
        {
          "internalType": "uint256",
          "name": "",
          "type": "uint256"
        }
      ],
      "stateMutability": "view",
      "type": "function"
    },
    {
      "inputs": [],
      "name": "tokenLocker",
      "outputs": [
        {
          "internalType": "address",
          "name": "",
          "type": "address"
        }
      ],
      "stateMutability": "view",
      "type": "function"
    },
    {
      "inputs": [
        {
          "internalType": "address",
          "name": "",
          "type": "address"
        }
      ],
      "name": "totalVotedBalances",
      "outputs": [
        {
          "internalType": "uint256",
          "name": "",
          "type": "uint256"
        }
      ],
      "stateMutability": "view",
      "type": "function"
    },
    {
      "inputs": [
        {
          "internalType": "address",
          "name": "newOwner",
          "type": "address"
        }
      ],
      "name": "transferOwnership",
      "outputs": [],
      "stateMutability": "nonpayable",
      "type": "function"
    },
    {
      "inputs": [],
      "name": "treasury",
      "outputs": [
        {
          "internalType": "contract ITreasury",
          "name": "",
          "type": "address"
        }
      ],
      "stateMutability": "view",
      "type": "function"
    },
    {
      "inputs": [],
      "name": "uink",
      "outputs": [
        {
          "internalType": "address",
          "name": "",
          "type": "address"
        }
      ],
      "stateMutability": "view",
      "type": "function"
    },
    {
      "inputs": [
        {
          "internalType": "address",
          "name": "",
          "type": "address"
        }
      ],
      "name": "unbondedBalances",
      "outputs": [
        {
          "internalType": "uint256",
          "name": "",
          "type": "uint256"
        }
      ],
      "stateMutability": "view",
      "type": "function"
    },
    {
      "inputs": [
        {
          "internalType": "address",
          "name": "",
          "type": "address"
        },
        {
          "internalType": "uint256",
          "name": "",
          "type": "uint256"
        }
      ],
      "name": "unbondingBalances",
      "outputs": [
        {
          "internalType": "uint256",
          "name": "value",
          "type": "uint256"
        },
        {
          "internalType": "uint256",
          "name": "unbondedAt",
          "type": "uint256"
        },
        {
          "internalType": "uint256",
          "name": "redeemed",
          "type": "uint256"
        }
      ],
      "stateMutability": "view",
      "type": "function"
    },
    {
      "inputs": [
        {
          "internalType": "address",
          "name": "",
          "type": "address"
        },
        {
          "internalType": "uint256",
          "name": "",
          "type": "uint256"
        },
        {
          "internalType": "uint256",
          "name": "",
          "type": "uint256"
        }
      ],
      "name": "userDailyVotes",
      "outputs": [
        {
          "internalType": "uint256",
          "name": "",
          "type": "uint256"
        }
      ],
      "stateMutability": "view",
      "type": "function"
    },
    {
      "inputs": [
        {
          "internalType": "address",
          "name": "",
          "type": "address"
        },
        {
          "internalType": "uint256",
          "name": "",
          "type": "uint256"
        }
      ],
      "name": "userNFTVotes",
      "outputs": [
        {
          "internalType": "uint256",
          "name": "",
          "type": "uint256"
        }
      ],
      "stateMutability": "view",
      "type": "function"
    },
    {
      "inputs": [
        {
          "internalType": "address",
          "name": "",
          "type": "address"
        },
        {
          "internalType": "uint256",
          "name": "",
          "type": "uint256"
        },
        {
          "internalType": "uint256",
          "name": "",
          "type": "uint256"
        }
      ],
      "name": "userVotes",
      "outputs": [
        {
          "internalType": "uint256",
          "name": "",
          "type": "uint256"
        }
      ],
      "stateMutability": "view",
      "type": "function"
    },
    {
      "inputs": [
        {
          "internalType": "address",
          "name": "",
          "type": "address"
        }
      ],
      "name": "voteRatio",
      "outputs": [
        {
          "internalType": "uint256",
          "name": "",
          "type": "uint256"
        }
      ],
      "stateMutability": "view",
      "type": "function"
    },
    {
      "inputs": [],
      "name": "voteRatioMax",
      "outputs": [
        {
          "internalType": "uint256",
          "name": "",
          "type": "uint256"
        }
      ],
      "stateMutability": "view",
      "type": "function"
    },
    {
      "inputs": [
        {
          "internalType": "address",
          "name": "",
          "type": "address"
        },
        {
          "internalType": "uint256",
          "name": "",
          "type": "uint256"
        },
        {
          "internalType": "uint256",
          "name": "",
          "type": "uint256"
        }
      ],
      "name": "voteRewardsClaimed",
      "outputs": [
        {
          "internalType": "bool",
          "name": "",
          "type": "bool"
        }
      ],
      "stateMutability": "view",
      "type": "function"
    },
    {
      "inputs": [
        {
          "internalType": "uint256",
          "name": "",
          "type": "uint256"
        }
      ],
      "name": "voteTokens",
      "outputs": [
        {
          "internalType": "address",
          "name": "",
          "type": "address"
        }
      ],
      "stateMutability": "view",
      "type": "function"
    },
    {
      "inputs": [
        {
          "internalType": "address",
          "name": "",
          "type": "address"
        },
        {
          "internalType": "uint256",
          "name": "",
          "type": "uint256"
        }
      ],
      "name": "votedBalances",
      "outputs": [
        {
          "internalType": "uint256",
          "name": "available",
          "type": "uint256"
        },
        {
          "internalType": "uint256",
          "name": "freezed",
          "type": "uint256"
        },
        {
          "internalType": "uint256",
          "name": "votedAt",
          "type": "uint256"
        }
      ],
      "stateMutability": "view",
      "type": "function"
    },
    {
      "inputs": [],
      "name": "weeklyCap",
      "outputs": [
        {
          "internalType": "uint256",
          "name": "",
          "type": "uint256"
        }
      ],
      "stateMutability": "view",
      "type": "function"
    },
    {
      "inputs": [
        {
          "internalType": "address",
          "name": "_token",
          "type": "address"
        },
        {
          "internalType": "uint256",
          "name": "_ratio",
          "type": "uint256"
        }
      ],
      "name": "addVoteToken",
      "outputs": [],
      "stateMutability": "nonpayable",
      "type": "function"
    },
    {
      "inputs": [
        {
          "internalType": "address",
          "name": "_auction",
          "type": "address"
        }
      ],
      "name": "setAuctionAddress",
      "outputs": [],
      "stateMutability": "nonpayable",
      "type": "function"
    },
    {
      "inputs": [
        {
          "internalType": "address",
          "name": "_pin",
          "type": "address"
        }
      ],
      "name": "setPinAddress",
      "outputs": [],
      "stateMutability": "nonpayable",
      "type": "function"
    },
    {
      "inputs": [
        {
          "internalType": "uint256",
          "name": "lockId",
          "type": "uint256"
        }
      ],
      "name": "setTokenLockId",
      "outputs": [],
      "stateMutability": "nonpayable",
      "type": "function"
    },
    {
      "inputs": [
        {
          "internalType": "address",
          "name": "operator",
          "type": "address"
        },
        {
          "internalType": "bool",
          "name": "isOperator",
          "type": "bool"
        }
      ],
      "name": "setOperator",
      "outputs": [],
      "stateMutability": "nonpayable",
      "type": "function"
    },
    {
      "inputs": [
        {
          "internalType": "uint256",
          "name": "_days",
          "type": "uint256"
        }
      ],
      "name": "setVoteDays",
      "outputs": [],
      "stateMutability": "nonpayable",
      "type": "function"
    },
    {
      "inputs": [
        {
          "internalType": "uint256",
          "name": "stakingBase",
          "type": "uint256"
        },
        {
          "internalType": "uint256",
          "name": "startTime",
          "type": "uint256"
        },
        {
          "internalType": "string",
          "name": "matchId",
          "type": "string"
        }
      ],
      "name": "addGroup",
      "outputs": [],
      "stateMutability": "nonpayable",
      "type": "function"
    },
    {
      "inputs": [
        {
          "internalType": "uint256",
          "name": "groupId",
          "type": "uint256"
        },
        {
          "internalType": "address[]",
          "name": "nftAddrs",
          "type": "address[]"
        },
        {
          "internalType": "uint256[]",
          "name": "nftIds",
          "type": "uint256[]"
        }
      ],
      "name": "addNFT",
      "outputs": [],
      "stateMutability": "nonpayable",
      "type": "function"
    },
    {
      "inputs": [
        {
          "internalType": "uint256",
          "name": "groupId",
          "type": "uint256"
        }
      ],
      "name": "groupNFTsLength",
      "outputs": [
        {
          "internalType": "uint256",
          "name": "",
          "type": "uint256"
        }
      ],
      "stateMutability": "view",
      "type": "function"
    },
    {
      "inputs": [
        {
          "internalType": "uint256",
          "name": "groupId",
          "type": "uint256"
        }
      ],
      "name": "getAuctionPrices",
      "outputs": [
        {
          "internalType": "uint256[]",
          "name": "prices",
          "type": "uint256[]"
        },
        {
          "internalType": "uint256",
          "name": "totalAmount",
          "type": "uint256"
        }
      ],
      "stateMutability": "view",
      "type": "function"
    },
    {
      "inputs": [
        {
          "internalType": "uint256",
          "name": "ts",
          "type": "uint256"
        }
      ],
      "name": "getDate",
      "outputs": [
        {
          "internalType": "uint256",
          "name": "",
          "type": "uint256"
        }
      ],
      "stateMutability": "view",
      "type": "function"
    },
    {
      "inputs": [
        {
          "internalType": "uint256",
          "name": "groupId",
          "type": "uint256"
        }
      ],
      "name": "getVotableDates",
      "outputs": [
        {
          "internalType": "uint256[]",
          "name": "dates",
          "type": "uint256[]"
        }
      ],
      "stateMutability": "view",
      "type": "function"
    },
    {
      "inputs": [
        {
          "internalType": "address",
          "name": "user",
          "type": "address"
        },
        {
          "internalType": "address",
          "name": "nftAddr",
          "type": "address"
        },
        {
          "internalType": "uint256",
          "name": "nftId",
          "type": "uint256"
        }
      ],
      "name": "getUserNFTVotes",
      "outputs": [
        {
          "internalType": "uint256",
          "name": "",
          "type": "uint256"
        }
      ],
      "stateMutability": "view",
      "type": "function"
    },
    {
      "inputs": [
        {
          "internalType": "address",
          "name": "nftAddr",
          "type": "address"
        },
        {
          "internalType": "uint256",
          "name": "nftId",
          "type": "uint256"
        }
      ],
      "name": "getNFTVotes",
      "outputs": [
        {
          "internalType": "uint256",
          "name": "",
          "type": "uint256"
        }
      ],
      "stateMutability": "view",
      "type": "function"
    },
    {
      "inputs": [
        {
          "internalType": "address",
          "name": "user",
          "type": "address"
        },
        {
          "internalType": "address",
          "name": "token",
          "type": "address"
        },
        {
          "internalType": "address",
          "name": "nftAddr",
          "type": "address"
        },
        {
          "internalType": "uint256",
          "name": "nftId",
          "type": "uint256"
        }
      ],
      "name": "getAvailableBalance",
      "outputs": [
        {
          "internalType": "uint256",
          "name": "",
          "type": "uint256"
        }
      ],
      "stateMutability": "view",
      "type": "function"
    },
    {
      "inputs": [
        {
          "internalType": "address",
          "name": "nftAddr",
          "type": "address"
        },
        {
          "internalType": "uint256",
          "name": "nftId",
          "type": "uint256"
        },
        {
          "internalType": "address",
          "name": "token",
          "type": "address"
        },
        {
          "internalType": "uint256",
          "name": "amount",
          "type": "uint256"
        }
      ],
      "name": "stake",
      "outputs": [],
      "stateMutability": "nonpayable",
      "type": "function"
    },
    {
      "inputs": [
        {
          "internalType": "address",
          "name": "nftAddr",
          "type": "address"
        },
        {
          "internalType": "uint256",
          "name": "nftId",
          "type": "uint256"
        },
        {
          "internalType": "address",
          "name": "token",
          "type": "address"
        },
        {
          "internalType": "uint256",
          "name": "amount",
          "type": "uint256"
        }
      ],
      "name": "unstake",
      "outputs": [],
      "stateMutability": "nonpayable",
      "type": "function"
    },
    {
      "inputs": [
        {
          "internalType": "address",
          "name": "user",
          "type": "address"
        },
        {
          "internalType": "address",
          "name": "token",
          "type": "address"
        }
      ],
      "name": "getRedeemableBalance",
      "outputs": [
        {
          "internalType": "uint256",
          "name": "",
          "type": "uint256"
        }
      ],
      "stateMutability": "view",
      "type": "function"
    },
    {
      "inputs": [
        {
          "internalType": "address",
          "name": "token",
          "type": "address"
        }
      ],
      "name": "redeemToken",
      "outputs": [],
      "stateMutability": "nonpayable",
      "type": "function"
    },
    {
      "inputs": [
        {
          "internalType": "uint256",
          "name": "groupId",
          "type": "uint256"
        },
        {
          "internalType": "address",
          "name": "token",
          "type": "address"
        }
      ],
      "name": "redeemToken",
      "outputs": [],
      "stateMutability": "nonpayable",
      "type": "function"
    },
    {
      "inputs": [
        {
          "internalType": "address",
          "name": "token",
          "type": "address"
        },
        {
          "internalType": "uint256",
          "name": "amount",
          "type": "uint256"
        }
      ],
      "name": "rescueToken",
      "outputs": [],
      "stateMutability": "nonpayable",
      "type": "function"
    },
    {
      "inputs": [
        {
          "internalType": "address",
          "name": "user",
          "type": "address"
        }
      ],
      "name": "getTotalRewards",
      "outputs": [
        {
          "internalType": "uint256",
          "name": "",
          "type": "uint256"
        }
      ],
      "stateMutability": "view",
      "type": "function"
    },
    {
      "inputs": [
        {
          "internalType": "address",
          "name": "user",
          "type": "address"
        },
        {
          "internalType": "uint256",
          "name": "groupId",
          "type": "uint256"
        }
      ],
      "name": "getBaseRewards",
      "outputs": [
        {
          "internalType": "uint256",
          "name": "",
          "type": "uint256"
        }
      ],
      "stateMutability": "view",
      "type": "function"
    },
    {
      "inputs": [
        {
          "internalType": "address",
          "name": "user",
          "type": "address"
        },
        {
          "internalType": "uint256",
          "name": "groupId",
          "type": "uint256"
        }
      ],
      "name": "getAuctionRewards",
      "outputs": [
        {
          "internalType": "uint256",
          "name": "",
          "type": "uint256"
        }
      ],
      "stateMutability": "view",
      "type": "function"
    },
    {
      "inputs": [
        {
          "internalType": "address",
          "name": "user",
          "type": "address"
        }
      ],
      "name": "getBondedBalance",
      "outputs": [
        {
          "internalType": "uint256",
          "name": "",
          "type": "uint256"
        }
      ],
      "stateMutability": "view",
      "type": "function"
    },
    {
      "inputs": [
        {
          "internalType": "address",
          "name": "user",
          "type": "address"
        },
        {
          "internalType": "address",
          "name": "nftAddr",
          "type": "address"
        },
        {
          "internalType": "uint256",
          "name": "nftId",
          "type": "uint256"
        }
      ],
      "name": "getUnvotableBalance",
      "outputs": [
        {
          "internalType": "uint256",
          "name": "",
          "type": "uint256"
        }
      ],
      "stateMutability": "view",
      "type": "function"
    },
    {
      "inputs": [
        {
          "internalType": "address",
          "name": "nftAddr",
          "type": "address"
        },
        {
          "internalType": "uint256",
          "name": "nftId",
          "type": "uint256"
        }
      ],
      "name": "voteFromLock",
      "outputs": [],
      "stateMutability": "nonpayable",
      "type": "function"
    },
    {
      "inputs": [
        {
          "internalType": "address",
          "name": "nftAddr",
          "type": "address"
        },
        {
          "internalType": "uint256",
          "name": "nftId",
          "type": "uint256"
        },
        {
          "internalType": "uint256",
          "name": "amount",
          "type": "uint256"
        }
      ],
      "name": "voteBonded",
      "outputs": [],
      "stateMutability": "nonpayable",
      "type": "function"
    },
    {
      "inputs": [
        {
          "internalType": "address",
          "name": "nftAddr",
          "type": "address"
        },
        {
          "internalType": "uint256",
          "name": "nftId",
          "type": "uint256"
        },
        {
          "internalType": "uint256",
          "name": "amount",
          "type": "uint256"
        }
      ],
      "name": "unvoteBonded",
      "outputs": [],
      "stateMutability": "nonpayable",
      "type": "function"
    },
    {
      "inputs": [
        {
          "internalType": "address",
          "name": "user",
          "type": "address"
        }
      ],
      "name": "getUnbondingBalancesLength",
      "outputs": [
        {
          "internalType": "uint256",
          "name": "",
          "type": "uint256"
        }
      ],
      "stateMutability": "view",
      "type": "function"
    },
    {
      "inputs": [
        {
          "internalType": "uint256",
          "name": "amount",
          "type": "uint256"
        }
      ],
      "name": "unbond",
      "outputs": [],
      "stateMutability": "nonpayable",
      "type": "function"
    },
    {
      "inputs": [
        {
          "internalType": "uint256",
          "name": "index",
          "type": "uint256"
        }
      ],
      "name": "redeemUnbonding",
      "outputs": [],
      "stateMutability": "nonpayable",
      "type": "function"
    },
    {
      "inputs": [
        {
          "internalType": "address",
          "name": "nftAddr",
          "type": "address"
        },
        {
          "internalType": "uint256",
          "name": "nftId",
          "type": "uint256"
        },
        {
          "internalType": "address",
          "name": "to",
          "type": "address"
        }
      ],
      "name": "claimMintRewards",
      "outputs": [],
      "stateMutability": "nonpayable",
      "type": "function"
    },
    {
      "inputs": [
        {
          "internalType": "uint256",
          "name": "groupId",
          "type": "uint256"
        }
      ],
      "name": "getTradeWeights",
      "outputs": [
        {
          "internalType": "uint256[]",
          "name": "weights",
          "type": "uint256[]"
        }
      ],
      "stateMutability": "view",
      "type": "function"
    },
    {
      "inputs": [
        {
          "internalType": "uint256",
          "name": "groupId",
          "type": "uint256"
        }
      ],
      "name": "setAuctionFinish",
      "outputs": [],
      "stateMutability": "nonpayable",
      "type": "function"
    },
    {
      "inputs": [
        {
          "internalType": "uint256",
          "name": "groupId",
          "type": "uint256"
        }
      ],
      "name": "getAuctionRewardRates",
      "outputs": [
        {
          "internalType": "uint256[]",
          "name": "auctionRewardRates",
          "type": "uint256[]"
        }
      ],
      "stateMutability": "view",
      "type": "function"
    },
    {
      "inputs": [
        {
          "internalType": "uint256",
          "name": "groupId",
          "type": "uint256"
        },
        {
          "internalType": "uint256",
          "name": "date",
          "type": "uint256"
        }
      ],
      "name": "getDailyVotes",
      "outputs": [
        {
          "internalType": "uint256",
          "name": "",
          "type": "uint256"
        }
      ],
      "stateMutability": "view",
      "type": "function"
    },
    {
      "inputs": [
        {
          "internalType": "uint256",
          "name": "groupId",
          "type": "uint256"
        }
      ],
      "name": "getWeightsAndInflations",
      "outputs": [
        {
          "internalType": "uint256[]",
          "name": "weights",
          "type": "uint256[]"
        },
        {
          "internalType": "uint256[]",
          "name": "inflations",
          "type": "uint256[]"
        }
      ],
      "stateMutability": "view",
      "type": "function"
    },
    {
      "inputs": [
        {
          "internalType": "uint256",
          "name": "groupId",
          "type": "uint256"
        }
      ],
      "name": "getBaseRewardRates",
      "outputs": [
        {
          "internalType": "uint256[]",
          "name": "rewardRates",
          "type": "uint256[]"
        }
      ],
      "stateMutability": "view",
      "type": "function"
    },
    {
      "inputs": [
        {
          "internalType": "uint256",
          "name": "groupId",
          "type": "uint256"
        }
      ],
      "name": "getMintRewardsPerNFT",
      "outputs": [
        {
          "internalType": "uint256[]",
          "name": "mintRewards",
          "type": "uint256[]"
        }
      ],
      "stateMutability": "view",
      "type": "function"
    },
    {
      "inputs": [
        {
          "internalType": "address",
          "name": "nftAddr",
          "type": "address"
        },
        {
          "internalType": "uint256",
          "name": "nftId",
          "type": "uint256"
        }
      ],
      "name": "getMintRewards",
      "outputs": [
        {
          "internalType": "uint256",
          "name": "",
          "type": "uint256"
        }
      ],
      "stateMutability": "view",
      "type": "function"
    }
  ],
  "bytecode": "0x6080604052610e10600155600e60025560015460025462000021919062000318565b60035567058d15e1762800006004556004600254600454620000449190620002de565b620000509190620002de565b60055560048054620000639190620002de565b6006556002600454620000779190620002de565b6007556000600d556000601655612710601c5560006029553480156200009c57600080fd5b506040516200566038038062005660833981016040819052620000bf91620002a7565b620000e5620000d664010000000062000212810204565b64010000000062000216810204565b600a8054600160a060020a031916600160a060020a038416908117909155604080517fa88d8fea000000000000000000000000000000000000000000000000000000008152905163a88d8fea91600480820192602092909190829003018186803b1580156200015357600080fd5b505afa15801562000168573d6000803e3d6000fd5b505050506040513d601f19601f820116820180604052508101906200018e919062000283565b60098054600160a060020a03928316600160a060020a031991821681178355602a805495851695831695909517909455601a8054600181019091557f057c384a7d1c54f3a1b2e5e67b2617b8224fdfd1ea7234eea573a6ff665ff63e018054909116909317909255601c549154166000908152601b6020526040902055506200035d565b3390565b60008054600160a060020a03838116600160a060020a0319831681178455604051919092169283917f8be0079c531659141344cd1fd0a4f28419497f9722a3daafe3b4186f6b6457e09190a35050565b8051600160a060020a03811681146200027e57600080fd5b919050565b60006020828403121562000295578081fd5b620002a08262000266565b9392505050565b60008060408385031215620002ba578081fd5b620002c58362000266565b9150620002d56020840162000266565b90509250929050565b60008262000313577f4e487b710000000000000000000000000000000000000000000000000000000081526012600452602481fd5b500490565b600081600019048311821515161562000358577f4e487b710000000000000000000000000000000000000000000000000000000081526011600452602481fd5b500290565b6152f3806200036d6000396000f3fe608060405234801561001057600080fd5b50600436106104c65760003560e060020a90048063715018a61161027c578063ad3bac1a11610160578063d0b5efa9116100d2578063f298e49311610096578063f298e49314610cd4578063f2fde38b14610ce7578063f44e3ce114610cfa578063f7a64da314610d0d578063f8df0cd314610d3e578063fa119fee14610d5157600080fd5b8063d0b5efa914610c89578063d0f86b2614610c9c578063da043af314610caf578063e325fb4b14610cc2578063eb7a700d14610ccb57600080fd5b8063c108a85d11610124578063c108a85d14610c11578063c3501ff614610c1a578063c4f6da1214610c2d578063c7780c7314610c4d578063c7c8895614610c60578063c909adc014610c8057600080fd5b8063ad3bac1a14610b8e578063b0aad77714610ba1578063b5345afa14610baa578063bae5435314610bde578063bba1189a14610bfe57600080fd5b80638503d2cd116101f957806396324bd4116101bd57806396324bd414610af15780639d9d9a1014610b11578063a80bf3e614610b24578063a88d8fea14610b37578063ac80b61214610b4a578063acceea7514610b7b57600080fd5b80638503d2cd14610a5f5780638da5cb5b14610a725780638f4d41e814610a83578063938f173714610aa457806393ac363814610ade57600080fd5b80637d9f6db5116102405780637d9f6db5146109d25780638049e17b146109e5578063814e7c0f14610a1657806383fd1a5414610a39578063842fc1a314610a4c57600080fd5b8063715018a6146109855780637523d4bd1461098d57806376821827146109ad57806376ec17b7146109b6578063776498d4146109c957600080fd5b80633dbc65c7116103ae578063558a7297116103205780636482ff98116102e45780636482ff98146108a357806364ebaaeb146108b6578063660dbeb8146108e457806366edd87b146108f75780636b942b861461090a5780636f700e251461096557600080fd5b8063558a729714610811578063563c5e30146108245780635a8542be1461084f57806361d027b31461087057806363c0ea101461088357600080fd5b80634dc1a3e0116103725780634dc1a3e01461075f5780634e4b61c31461078a5780634f8d32be146107aa578063502a1d3f146107b3578063515cc532146107d357806352a437fe146107e657600080fd5b80633dbc65c7146106ba57806343af356b146106cd5780634654ff05146106f857806346aa25a2146107015780634768d4ef1461073f57600080fd5b8063171b612c1161044757806327de9e321161040b57806327de9e32146106525780632b57298b146106655780632bcf161c1461067857806333f3d6281461068b57806334e7a1a81461069e57806337867c94146106b157600080fd5b8063171b612c146105f057806317a9c7bd146105f95780631d1a7fe8146106195780632281dfa41461062c578063259239a11461063f57600080fd5b80630d265df91161048e5780630d265df91461053f5780631152df0f1461055f57806311ef14dd14610587578063126f648c1461059a57806313e7c9d8146105cd57600080fd5b8063040308e4146104cb5780630713ee7e146104f1578063079dc7f414610506578063083559d3146105195780630971823f1461052c575b600080fd5b6104de6104d93660046149ca565b610d64565b6040519081526020015b60405180910390f35b6105046104ff366004614b57565b610e0c565b005b6104de610514366004614ca8565b610ff9565b6104de610527366004614a1a565b61109b565b6104de61053a366004614a87565b6111b3565b61055261054d366004614ba7565b61130e565b6040516104e89190614d9f565b6104de61056d36600461495a565b600160a060020a0316600090815260208052604090205490565b610504610595366004614ba7565b6114b0565b6105bd6105a8366004614ba7565b600f6020526000908152604090205460ff1681565b60405190151581526020016104e8565b6105bd6105db36600461495a565b60276020526000908152604090205460ff1681565b6104de60055481565b6104de610607366004614ba7565b60186020526000908152604090205481565b6104de610627366004614a87565b6114e2565b61050461063a366004614a87565b61157c565b61050461064d366004614b20565b6117a3565b610504610660366004614ba7565b611afc565b6104de610673366004614ba7565b611c1f565b6104de61068636600461495a565b611c40565b610504610699366004614a87565b611c91565b6105046106ac366004614ba7565b611d46565b6104de600d5481565b6104de6106c8366004614992565b611e96565b6104de6106db366004614a87565b601560209081526000928352604080842090915290825290205481565b6104de60035481565b61071461070f366004614ca8565b611f17565b60408051948552600160a060020a0393841660208601528401919091521660608201526080016104e8565b61075261074d366004614ba7565b611f69565b6040516104e89190614e02565b60285461077290600160a060020a031681565b604051600160a060020a0390911681526020016104e8565b6104de610798366004614ba7565b60226020526000908152604090205481565b6104de60045481565b6104de6107c136600461495a565b601b6020526000908152604090205481565b6105526107e1366004614ba7565b612003565b6104de6107f4366004614ca8565b601160209081526000928352604080842090915290825290205481565b61050461081f366004614a5a565b612170565b6104de610832366004614a87565b601460209081526000928352604080842090915290825290205481565b61086261085d366004614ba7565b6121c8565b6040516104e8929190614de0565b600a5461077290600160a060020a031681565b6104de610891366004614ba7565b60176020526000908152604090205481565b6107726108b1366004614ba7565b612361565b6105bd6108c4366004614a87565b602460209081526000928352604080842090915290825290205460ff1681565b6104de6108f2366004614a1a565b61238b565b6104de610905366004614a87565b612427565b61094a610918366004614a1a565b601d60209081526000938452604080852082529284528284209052825290208054600182015460029092015490919083565b604080519384526020840192909252908201526060016104e8565b6104de61097336600461495a565b601f6020526000908152604090205481565b6105046124ef565b6104de61099b36600461495a565b60216020526000908152604090205481565b6104de60295481565b6105046109c4366004614b20565b612528565b6104de601c5481565b600b5461077290600160a060020a031681565b6104de6109f3366004614b57565b601260209081526000938452604080852082529284528284209052825290205481565b6105bd610a24366004614ba7565b60256020526000908152604090205460ff1681565b610504610a47366004614b57565b612846565b610504610a5a36600461495a565b612a06565b610504610a6d366004614c31565b612b2c565b600054600160a060020a0316610772565b610a96610a91366004614ba7565b612f88565b6040516104e8929190614db2565b61094a610ab2366004614a87565b601e60209081526000928352604080842090915290825290208054600182015460029092015490919083565b610504610aec36600461495a565b613262565b6104de610aff366004614ba7565b600c6020526000908152604090205481565b610552610b1f366004614ba7565b6132be565b602a5461077290600160a060020a031681565b60095461077290600160a060020a031681565b6104de610b58366004614bfb565b602660209081526000938452604080852082529284528284209052825290205481565b6104de610b8936600461495a565b613418565b610504610b9c36600461495a565b613478565b6104de60025481565b6105bd610bb8366004614b57565b602360209081526000938452604080852082529284528284209052825290205460ff1681565b6104de610bec366004614ba7565b60009081526010602052604090205490565b610504610c0c366004614cc9565b6134d4565b6104de60065481565b610504610c28366004614bd7565b613649565b6104de610c3b366004614ba7565b60086020526000908152604090205481565b610552610c5b366004614ba7565b6137ce565b6104de610c6e366004614ba7565b60196020526000908152604090205481565b6104de60165481565b610504610c97366004614ba7565b613a97565b6104de610caa366004614a87565b613af9565b610504610cbd366004614a87565b613c19565b6104de60075481565b6104de60015481565b610504610ce2366004614ba7565b613d45565b610504610cf536600461495a565b613d77565b610504610d08366004614adf565b613e2f565b6104de610d1b366004614b57565b601360209081526000938452604080852082529284528284209052825290205481565b61094a610d4c366004614a87565b614090565b610552610d5f366004614ba7565b6140d1565b600160a060020a0380831660009081526015602090815260408083208584528252808320548885168452601d835281842094881684529382528083208484528252808320815160608101835281548082526001830154948201949094526002909101549181019190915291929190610ddb42611c1f565b610de88360400151611c1f565b1015610e01576020820151610dfe9082906141ae565b90505b979650505050505050565b600d546000908152600c6020526040902054421015610e495760405160e560020a62461bcd028152600401610e4090614f07565b60405180910390fd5b600354600d546000908152600c60205260409020544291610e6a91906141ae565b1015610e8b5760405160e560020a62461bcd028152600401610e4090614f3e565b600160a060020a038316600090815260156020908152604080832085845290915290205483908390610ed25760405160e560020a62461bcd028152600401610e4090614f75565b6000610edd33613418565b905083811015610f325760405160e560020a62461bcd02815260206004820152601b60248201527f496e73756666696369656e7420626f6e6465642062616c616e636500000000006044820152606401610e40565b610f3e338787876141c1565b600160a060020a0386166000908152601560209081526040808320888452825280832054338452601e8352818420818552909252909120610f7e42611c1f565b610f8b8260020154611c1f565b1015610fab5760018101548154610fa1916141ae565b8155600060018201555b6001810154610fba90876141ae565b6001820155426002820155336000908152601f6020526040902054610fdf90876141ae565b336000908152601f60205260409020555050505050505050565b600080805b6000858152601060205260409020548110156110915760008581526010602052604081208054839081106110455760e060020a634e487b7102600052603260045260246000fd5b6000918252602080832060049092029091015487835260118252604080842082855290925291205490915061107b9084906141ae565b92505080806110899061521b565b915050610ffe565b5090505b92915050565b6000806110a742611c1f565b905060006110b6600d546140d1565b600160a060020a0386166000908152601560209081526040808320888452909152812054919250805b83518110156111a7578484828151811061110c5760e060020a634e487b7102600052603260045260246000fd5b60200260200101511161119557600160a060020a03891660009081526012602052604081208551611192929087908590811061115b5760e060020a634e487b7102600052603260045260246000fd5b60200260200101518152602001908152602001600020600085815260200190815260200160002054836141ae90919063ffffffff16565b91505b8061119f8161521b565b9150506110df565b50979650505050505050565b6000806111bf836140d1565b905060006111cc84612003565b90506000806111da42611c1f565b905060005b8451811015611302578185828151811061120c5760e060020a634e487b7102600052603260045260246000fd5b60200260200101511061121e57611302565b60006112e0670de0b6b3a76400006112da8785815181106112525760e060020a634e487b7102600052603260045260246000fd5b6020026020010151601360008e600160a060020a0316600160a060020a0316815260200190815260200160002060008d815260200190815260200160002060008b88815181106112b55760e060020a634e487b7102600052603260045260246000fd5b602002602001015181526020019081526020016000205461441090919063ffffffff16565b9061441c565b90506112ec84826141ae565b93505080806112fa9061521b565b9150506111df565b50909695505050505050565b6000818152601060209081526040808320805482518185028101850190935280835260609493849084015b8282101561139d576000848152602090819020604080516080810182526004860290920180548352600180820154600160a060020a039081168587015260028301549385019390935260039091015490911660608301529083529092019101611339565b505050509050805167ffffffffffffffff8111156113ce5760e060020a634e487b7102600052604160045260246000fd5b6040519080825280602002602001820160405280156113f7578160200160208202803683370190505b509150600080611406856121c8565b909250905080156114a85760005b83518110156114a657611466826112da670de0b6b3a76400008685815181106114505760e060020a634e487b7102600052603260045260246000fd5b602002602001015161441090919063ffffffff16565b8582815181106114895760e060020a634e487b7102600052603260045260246000fd5b60209081029190910101528061149e8161521b565b915050611414565b505b505050919050565b600054600160a060020a031633146114dd5760405160e560020a62461bcd028152600401610e4090614fe3565b600255565b600160a060020a03821660009081526015602090815260408083208484528252808320548352601982528083205480845260179092528220541561157257600081815260176020908152604080832054600654600160a060020a0389168552601584528285208886528452828520548552601890935292205461156a92916112da9190614410565b915050611095565b6000915050611095565b600d546000908152600c60205260409020544210156115b05760405160e560020a62461bcd028152600401610e4090614f07565b600354600d546000908152600c602052604090205442916115d191906141ae565b10156115f25760405160e560020a62461bcd028152600401610e4090614f3e565b600160a060020a0382166000908152601560209081526040808320848452909152902054829082906116395760405160e560020a62461bcd028152600401610e4090614f75565b602a546029546040517fc7b1e3f20000000000000000000000000000000000000000000000000000000081526004810191909152336024820152600091600160a060020a03169063c7b1e3f290604401602060405180830381600087803b1580156116a357600080fd5b505af11580156116b7573d6000803e3d6000fd5b505050506040513d601f19601f820116820180604052508101906116db9190614bbf565b90506116e9338686846141c1565b600160a060020a0385166000908152601560209081526040808320878452825280832054338452601e835281842081855290925290912061172942611c1f565b6117368260020154611c1f565b1015611756576001810154815461174c916141ae565b8155600060018201555b600181015461176590846141ae565b6001820155426002820155336000908152601f602052604090205461178a90846141ae565b336000908152601f602052604090205550505050505050565b816000805b601a548110156118165782600160a060020a0316601a82815481106117e05760e060020a634e487b7102600052603260045260246000fd5b600091825260209091200154600160a060020a031614156118045760019150611816565b8061180e8161521b565b9150506117a8565b50806118675760405160e560020a62461bcd02815260206004820152601260248201527f496e76616c696420566f746520546f6b656e00000000000000000000000000006044820152606401610e40565b600d546000908152600c602052604090205442101561189b5760405160e560020a62461bcd028152600401610e4090614f07565b600354600d546000908152600c602052604090205442916118bc91906141ae565b10156118dd5760405160e560020a62461bcd028152600401610e4090614f3e565b600160a060020a0386166000908152601560209081526040808320888452909152902054869086906119245760405160e560020a62461bcd028152600401610e4090614f75565b600085116119475760405160e560020a62461bcd028152600401610e4090614fac565b60006119538787614428565b9050611961338a8a846141c1565b6040517f23b872dd00000000000000000000000000000000000000000000000000000000815233600482015230602482015260448101879052600160a060020a038816906323b872dd90606401602060405180830381600087803b1580156119c857600080fd5b505af11580156119dc573d6000803e3d6000fd5b505050506040513d601f19601f82011682018060405250810190611a009190614b8b565b50600d5460009081526026602090815260408083203384528252808320600160a060020a038b168452909152902054611a3990876141ae565b600d54600090815260266020908152604080832033808552908352818420600160a060020a038d811680875291855283862096909655948e168452601583528184208d8552835281842054908452601d83528184209484529382528083208484529091529020611aa842611c1f565b611ab58260020154611c1f565b1015611ad55760018101548154611acb916141ae565b8155600060018201555b6001810154611ae490896141ae565b60018201554260029091015550505050505050505050565b6000611b0733613418565b905081811015611b5c5760405160e560020a62461bcd02815260206004820152601b60248201527f496e73756666696369656e7420626f6e6465642062616c616e636500000000006044820152606401610e40565b33600081815260208080526040808320815160608101835287815242818501908152818401868152835460018181018655948852868820935160039091029093019283559051928201929092559051600290910155928252602190522054611bc490836141ae565b33600081815260216020526040908190209290925590517f7659747cd8571f1071eea946fdc648adcf181cad916f32a05f82c3a52597604890611c139085904290918252602082015260400190565b60405180910390a25050565b6000611095611c39600154846145be90919063ffffffff16565b83906145ca565b60008060015b600d548111611c8a57611c76611c5c8583613af9565b611c70611c6987856111b3565b85906141ae565b906141ae565b915080611c828161521b565b915050611c46565b5092915050565b600054600160a060020a03163314611cbe5760405160e560020a62461bcd028152600401610e4090614fe3565b60405160e060020a63a9059cbb02815233600482015260248101829052600160a060020a0383169063a9059cbb90604401602060405180830381600087803b158015611d0957600080fd5b505af1158015611d1d573d6000803e3d6000fd5b505050506040513d601f19601f82011682018060405250810190611d419190614b8b565b505050565b3360009081526020805260408120805483908110611d775760e060020a634e487b7102600052603260045260246000fd5b906000526020600020906003020190506000611dae6001546112da611d9f8560010154611c1f565b611da842611c1f565b906145ca565b90506000611dce603c6112da85600001548561441090919063ffffffff16565b90506000611de98460020154836145ca90919063ffffffff16565b60028501839055600a546040517fc8773af200000000000000000000000000000000000000000000000000000000815233600482015260248101839052919250600160a060020a03169063c8773af290604401602060405180830381600087803b158015611e5657600080fd5b505af1158015611e6a573d6000803e3d6000fd5b505050506040513d601f19601f82011682018060405250810190611e8e9190614bbf565b505050505050565b60008060015b600d548111611091576003546000828152600c60205260409020544291611ec29161504f565b1015611f05576000818152602660209081526040808320600160a060020a03808a1685529083528184209088168452909152902054611f029083906141ae565b91505b80611f0f8161521b565b915050611e9c565b60106020528160005260406000208181548110611f3357600080fd5b60009182526020909120600490910201805460018201546002830154600390930154919450600160a060020a0390811693501684565b600e6020526000908152604090208054611f82906151e3565b80601f0160208091040260200160405190810160405280929190818152602001828054611fae906151e3565b8015611ffb5780601f10611fd057610100808354040283529160200191611ffb565b820191906000526020600020905b815481529060010190602001808311611fde57829003601f168201915b505050505081565b60606000612010836140d1565b9050600061201d84612f88565b915050815167ffffffffffffffff81111561204b5760e060020a634e487b7102600052604160045260246000fd5b604051908082528060200260200182016040528015612074578160200160208202803683370190505b50925060005b82518110156114a85761208c42611c1f565b8382815181106120af5760e060020a634e487b7102600052603260045260246000fd5b602002602001015111156120c2576114a8565b60006120f8868584815181106120eb5760e060020a634e487b7102600052603260045260246000fd5b6020026020010151610ff9565b9050801561215d5761212d816112da6005548686815181106114505760e060020a634e487b7102600052603260045260246000fd5b8583815181106121505760e060020a634e487b7102600052603260045260246000fd5b6020026020010181815250505b50806121688161521b565b91505061207a565b600054600160a060020a0316331461219d5760405160e560020a62461bcd028152600401610e4090614fe3565b600160a060020a03919091166000908152602760205260409020805460ff1916911515919091179055565b6000818152601060205260408120546060919067ffffffffffffffff8111156122045760e060020a634e487b7102600052604160045260246000fd5b60405190808252806020026020018201604052801561222d578160200160208202803683370190505b50915060005b60008481526010602052604090205481101561235b57600b546000858152600e602052604080822090517fe3c6623d00000000000000000000000000000000000000000000000000000000815291928392600160a060020a039091169163e3c6623d916122a591908790600401614e55565b604080518083038186803b1580156122bc57600080fd5b505afa1580156122d0573d6000803e3d6000fd5b505050506040513d601f19601f820116820180604052508101906122f49190614ab2565b9092509050600160a060020a03821661230b575060005b8085848151811061232f5760e060020a634e487b7102600052603260045260246000fd5b602090810291909101015261234484826141ae565b9350505080806123539061521b565b915050612233565b50915091565b601a818154811061237157600080fd5b600091825260209091200154600160a060020a0316905081565b600160a060020a0380831660009081526015602090815260408083208584528252808320549387168352601e825280832084845282528083208151606081018352815480825260018301549482019490945260029091015491810191909152919291906123f742611c1f565b6124048360400151611c1f565b101561241d57602082015161241a9082906141ae565b90505b9695505050505050565b60008061243342611c1f565b90506000612442600d546140d1565b600160a060020a0386166000908152601560209081526040808320888452909152812054919250805b83518110156124e457848482815181106124985760e060020a634e487b7102600052603260045260246000fd5b6020026020010151116124d2576124cf6011600086848151811061115b5760e060020a634e487b7102600052603260045260246000fd5b91505b806124dc8161521b565b91505061246b565b509695505050505050565b600054600160a060020a0316331461251c5760405160e560020a62461bcd028152600401610e4090614fe3565b61252660006145d6565b565b816000805b601a5481101561259b5782600160a060020a0316601a82815481106125655760e060020a634e487b7102600052603260045260246000fd5b600091825260209091200154600160a060020a03161415612589576001915061259b565b806125938161521b565b91505061252d565b50806125ec5760405160e560020a62461bcd02815260206004820152601260248201527f496e76616c696420566f746520546f6b656e00000000000000000000000000006044820152606401610e40565b600160a060020a0386166000908152601560209081526040808320888452909152902054869086906126335760405160e560020a62461bcd028152600401610e4090614f75565b600085116126565760405160e560020a62461bcd028152600401610e4090614fac565b600061266433888b8b610d64565b9050858110156126b95760405160e560020a62461bcd02815260206004820152601460248201527f496e73756666696369656e742062616c616e63650000000000000000000000006044820152606401610e40565b60006126c58888614428565b90506126d3338b8b84614633565b60405160e060020a63a9059cbb02815233600482015260248101889052600160a060020a0389169063a9059cbb90604401602060405180830381600087803b15801561271e57600080fd5b505af1158015612732573d6000803e3d6000fd5b505050506040513d601f19601f820116820180604052508101906127569190614b8b565b50600d5460009081526026602090815260408083203384528252808320600160a060020a038c16845290915290205461278f90886145ca565b600d54600090815260266020908152604080832033808552908352818420600160a060020a038e811680875291855283862096909655948f168452601583528184208e8552835281842054908452601d835281842094845293825280832084845290915290206127fe42611c1f565b61280b8260020154611c1f565b101561282b5760018101548154612821916141ae565b8155600060018201555b8054612837908a6145ca565b90555050505050505050505050565b600d546000908152600c602052604090205442101561287a5760405160e560020a62461bcd028152600401610e4090614f07565b600354600d546000908152600c6020526040902054429161289b91906141ae565b10156128bc5760405160e560020a62461bcd028152600401610e4090614f3e565b600160a060020a0383166000908152601560209081526040808320858452909152902054839083906129035760405160e560020a62461bcd028152600401610e4090614f75565b600061291033878761238b565b9050838110156129655760405160e560020a62461bcd02815260206004820152601e60248201527f496e73756666696369656e7420756e766f7461626c652062616c616e636500006044820152606401610e40565b61297133878787614633565b600160a060020a0386166000908152601560209081526040808320888452825280832054338452601e83528184208185529092529091206129b142611c1f565b6129be8260020154611c1f565b10156129de57600181015481546129d4916141ae565b8155600060018201555b80546129ea90876145ca565b8155336000908152601f6020526040902054610fdf90876145ca565b6000612a123383611e96565b905060008111612a675760405160e560020a62461bcd02815260206004820152601460248201527f576974686472617761626c65206973207a65726f0000000000000000000000006044820152606401610e40565b60405160e060020a63a9059cbb02815233600482015260248101829052600160a060020a0383169063a9059cbb90604401602060405180830381600087803b158015612ab257600080fd5b505af1158015612ac6573d6000803e3d6000fd5b505050506040513d601f19601f82011682018060405250810190612aea9190614b8b565b5060408051600160a060020a03841681526020810183905233917fd12200efa34901b99367694174c3b0d32c99585fdf37c7c26892136ddd0836d99101611c13565b3360009081526027602052604090205460ff1680612b545750600054600160a060020a031633145b612b735760405160e560020a62461bcd028152600401610e4090615018565b828114612bc55760405160e560020a62461bcd02815260206004820152600e60248201527f496e76616c696420706172616d730000000000000000000000000000000000006044820152606401610e40565b6000858152601060205260408120905b84811015612f7f5760156000878784818110612c045760e060020a634e487b7102600052603260045260246000fd5b9050602002016020810190612c19919061495a565b600160a060020a0316600160a060020a031681526020019081526020016000206000858584818110612c5e5760e060020a634e487b7102600052603260045260246000fd5b90506020020135815260200190815260200160002054600014612cc65760405160e560020a62461bcd02815260206004820152601260248201527f4e465420686173206265656e20616464656400000000000000000000000000006044820152606401610e40565b60168054906000612cd68361521b565b919050555060165460156000888885818110612d055760e060020a634e487b7102600052603260045260246000fd5b9050602002016020810190612d1a919061495a565b600160a060020a0316600160a060020a031681526020019081526020016000206000868685818110612d5f5760e060020a634e487b7102600052603260045260246000fd5b905060200201358152602001908152602001600020819055506000868683818110612d9d5760e060020a634e487b7102600052603260045260246000fd5b9050602002016020810190612db2919061495a565b600160a060020a0316636352211e868685818110612de35760e060020a634e487b7102600052603260045260246000fd5b905060200201356040518263ffffffff1660e060020a028152600401612e0b91815260200190565b60206040518083038186803b158015612e2357600080fd5b505afa158015612e37573d6000803e3d6000fd5b505050506040513d601f19601f82011682018060405250810190612e5b9190614976565b90508260405180608001604052806016548152602001898986818110612e945760e060020a634e487b7102600052603260045260246000fd5b9050602002016020810190612ea9919061495a565b600160a060020a03168152602001878786818110612eda5760e060020a634e487b7102600052603260045260246000fd5b60209081029290920135835250600160a060020a03948516918101919091528254600181810185556000948552828520845160049093020191825583830151908201805491871673ffffffffffffffffffffffffffffffffffffffff1992831617905560408085015160028401556060909401516003909201805492909616911617909355601654825260199092522087905580612f778161521b565b915050612bd5565b50505050505050565b6060806000612f96846140d1565b9050805167ffffffffffffffff811115612fc35760e060020a634e487b7102600052604160045260246000fd5b604051908082528060200260200182016040528015612fec578160200160208202803683370190505b509250805167ffffffffffffffff81111561301a5760e060020a634e487b7102600052604160045260246000fd5b604051908082528060200260200182016040528015613043578160200160208202803683370190505b50915060005b815181101561325b57600061307b868484815181106120eb5760e060020a634e487b7102600052603260045260246000fd5b6000878152600860205260409020549091506130a3906112da83670de0b6b3a7640000614410565b8583815181106130c65760e060020a634e487b7102600052603260045260246000fd5b602002602001018181525050670429d069189e00008583815181106130fe5760e060020a634e487b7102600052603260045260246000fd5b60200260200101511015613149576702c68af0bb1400008483815181106131385760e060020a634e487b7102600052603260045260246000fd5b602002602001018181525050613248565b670429d069189e00008583815181106131755760e060020a634e487b7102600052603260045260246000fd5b6020026020010151101580156131bc57506709b6e64a8ec600008583815181106131b25760e060020a634e487b7102600052603260045260246000fd5b6020026020010151105b1561320f578482815181106131e45760e060020a634e487b7102600052603260045260246000fd5b60200260200101518483815181106131385760e060020a634e487b7102600052603260045260246000fd5b670de0b6b3a764000084838151811061323b5760e060020a634e487b7102600052603260045260246000fd5b6020026020010181815250505b50806132538161521b565b915050613049565b5050915091565b600054600160a060020a0316331461328f5760405160e560020a62461bcd028152600401610e4090614fe3565b600b805473ffffffffffffffffffffffffffffffffffffffff1916600160a060020a0392909216919091179055565b60008181526010602052604090205460609067ffffffffffffffff8111156132f95760e060020a634e487b7102600052604160045260246000fd5b604051908082528060200260200182016040528015613322578160200160208202803683370190505b50905060005b600083815260106020526040902054811015613412576000838152601760205260409020541561340057600083815260176020908152604080832054600654601090935290832080546133d09492936112da939092601892889081106133a15760e060020a634e487b7102600052603260045260246000fd5b90600052602060002090600402016000015481526020019081526020016000205461441090919063ffffffff16565b8282815181106133f35760e060020a634e487b7102600052603260045260246000fd5b6020026020010181815250505b8061340a8161521b565b915050613328565b50919050565b60008061342483611c40565b600160a060020a038416600090815260216020908152604080832054601f9092528220549293509091613456916141ae565b9050808211613466576000613470565b61347082826145ca565b949350505050565b600054600160a060020a031633146134a55760405160e560020a62461bcd028152600401610e4090614fe3565b6028805473ffffffffffffffffffffffffffffffffffffffff1916600160a060020a0392909216919091179055565b3360009081526027602052604090205460ff16806134fc5750600054600160a060020a031633145b61351b5760405160e560020a62461bcd028152600401610e4090615018565b600d5415806135495750600354600d546000908152600c6020526040902054429161354691906141ae565b11155b6135985760405160e560020a62461bcd02815260206004820152601b60248201527f50726576696f75732067726f7570206973206e6f74206f7665722e00000000006044820152606401610e40565b6135a142611c1f565b8310156135f35760405160e560020a62461bcd02815260206004820152601260248201527f496e76616c69642073746172742074696d6500000000000000000000000000006044820152606401610e40565b600d80549060006136038361521b565b9091555050600d80546000908152600c60209081526040808320879055835483526008825280832088905592548252600e905220613642908383614878565b5050505050565b6003546000838152600c602052604090205442916136669161504f565b106136b65760405160e560020a62461bcd02815260206004820152601060248201527f566f7465206973206e6f74206f766572000000000000000000000000000000006044820152606401610e40565b60008281526026602090815260408083203384528252808320600160a060020a0385168452909152902054806137015760405160e560020a62461bcd028152600401610e4090614fac565b60405160e060020a63a9059cbb02815233600482015260248101829052600160a060020a0383169063a9059cbb90604401602060405180830381600087803b15801561374c57600080fd5b505af1158015613760573d6000803e3d6000fd5b505050506040513d601f19601f820116820180604052508101906137849190614b8b565b5060408051600160a060020a03841681526020810183905233917fd12200efa34901b99367694174c3b0d32c99585fdf37c7c26892136ddd0836d9910160405180910390a2505050565b606060006137db8361130e565b9050600060106000858152602001908152602001600020805480602002602001604051908101604052809291908181526020016000905b82821015613876576000848152602090819020604080516080810182526004860290920180548352600180820154600160a060020a039081168587015260028301549385019390935260039091015490911660608301529083529092019101613812565b505050509050805167ffffffffffffffff8111156138a75760e060020a634e487b7102600052604160045260246000fd5b6040519080825280602002602001820160405280156138d0578160200160208202803683370190505b50925060006138de85612f88565b915050600061393b670de0b6b3a76400006112da846001865161390191906151cc565b815181106139225760e060020a634e487b7102600052603260045260246000fd5b602002602001015160075461441090919063ffffffff16565b905060005b8351811015613a8d57601860008583815181106139705760e060020a634e487b7102600052603260045260246000fd5b602002602001015160000151815260200190815260200160002054600014156139c95760008682815181106139b85760e060020a634e487b7102600052603260045260246000fd5b602002602001018181525050613a7b565b613a4b601860008684815181106139f35760e060020a634e487b7102600052603260045260246000fd5b6020026020010151600001518152602001908152602001600020546112da878481518110613a345760e060020a634e487b7102600052603260045260246000fd5b60200260200101518561441090919063ffffffff16565b868281518110613a6e5760e060020a634e487b7102600052603260045260246000fd5b6020026020010181815250505b80613a858161521b565b915050613940565b5050505050919050565b3360009081526027602052604090205460ff1680613abf5750600054600160a060020a031633145b613ade5760405160e560020a62461bcd028152600401610e4090615018565b6000908152600f60205260409020805460ff19166001179055565b6000818152600f602052604081205460ff16613b1757506000611095565b600080613b23846137ce565b905060005b600085815260106020526040902054811015613c0f57600160a060020a038616600090815260146020908152604080832088845260109092528220805483919085908110613b895760e060020a634e487b7102600052603260045260246000fd5b9060005260206000209060040201600001548152602001908152602001600020549050613bf984611c70670de0b6b3a76400006112da878781518110613be25760e060020a634e487b7102600052603260045260246000fd5b60200260200101518661441090919063ffffffff16565b9350508080613c079061521b565b915050613b28565b5090949350505050565b3360009081526027602052604090205460ff1680613c415750600054600160a060020a031633145b613c605760405160e560020a62461bcd028152600401610e4090615018565b600160a060020a0382166000908152601b602052604081208290555b601a54811015613ce65782600160a060020a0316601a8281548110613cb45760e060020a634e487b7102600052603260045260246000fd5b600091825260209091200154600160a060020a03161415613cd457505050565b80613cde8161521b565b915050613c7c565b50601a80546001810182556000919091527f057c384a7d1c54f3a1b2e5e67b2617b8224fdfd1ea7234eea573a6ff665ff63e018054600160a060020a03841673ffffffffffffffffffffffffffffffffffffffff199091161790555050565b600054600160a060020a03163314613d725760405160e560020a62461bcd028152600401610e4090614fe3565b602955565b600054600160a060020a03163314613da45760405160e560020a62461bcd028152600401610e4090614fe3565b600160a060020a038116613e235760405160e560020a62461bcd02815260206004820152602660248201527f4f776e61626c653a206e6577206f776e657220697320746865207a65726f206160448201527f64647265737300000000000000000000000000000000000000000000000000006064820152608401610e40565b613e2c816145d6565b50565b602854600160a060020a03163314613e8c5760405160e560020a62461bcd02815260206004820152600960248201527f466f7262696464656e00000000000000000000000000000000000000000000006044820152606401610e40565b600160a060020a03831660009081526015602090815260408083208584528252808320548084526019835281842054602590935292205460ff1615613f165760405160e560020a62461bcd02815260206004820152600760248201527f436c61696d6564000000000000000000000000000000000000000000000000006044820152606401610e40565b6000805b600083815260106020526040902054811015613fc8576000838152601060205260409020805485919083908110613f645760e060020a634e487b7102600052603260045260246000fd5b9060005260206000209060040201600001541415613fb657613f85836132be565b8181518110613fa75760e060020a634e487b7102600052603260045260246000fd5b60200260200101519150613fc8565b80613fc08161521b565b915050613f1a565b508015611e8e57600a546040517fc8773af2000000000000000000000000000000000000000000000000000000008152600160a060020a038681166004830152602482018490529091169063c8773af290604401602060405180830381600087803b15801561403657600080fd5b505af115801561404a573d6000803e3d6000fd5b505050506040513d601f19601f8201168201806040525081019061406e9190614bbf565b506000838152602560205260409020805460ff19166001179055505050505050565b6020805281600052604060002081815481106140ab57600080fd5b600091825260209091206003909102018054600182015460029092015490935090915083565b6000818152600c60205260409020546002546060919067ffffffffffffffff8111156141105760e060020a634e487b7102600052604160045260246000fd5b604051908082528060200260200182016040528015614139578160200160208202803683370190505b509150600061414782611c1f565b905060005b6002548110156114a85761416e60015482614167919061516c565b83906141ae565b8482815181106141915760e060020a634e487b7102600052603260045260246000fd5b6020908102919091010152806141a68161521b565b91505061414c565b60006141ba828461504f565b9392505050565b60006141cc42611c1f565b905060006141db600d546140d1565b600160a060020a03861660009081526015602090815260408083208884529091528120549192505b825181101561440657838382815181106142305760e060020a634e487b7102600052603260045260246000fd5b6020026020010151106143f45760008382815181106142625760e060020a634e487b7102600052603260045260246000fd5b6020908102919091018101516000818152601183526040808220878352909352919091205490915061429490876141ae565b6000828152601160209081526040808320878452825280832093909355600160a060020a038c168252601281528282208483528152828220868352905220546142dd90876141ae565b600160a060020a038a166000818152601260209081526040808320868452825280832088845282528083209490945591815260138252828120600d5482528252828120848252909152205461433290876141ae565b600160a060020a038a166000818152601360209081526040808320600d548452825280832086845282528083209490945591815260148252828120868252909152205461437f90876141ae565b600160a060020a038a1660009081526014602090815260408083208784528252808320939093556018905220546143b690876141ae565b600084815260186020908152604080832093909355600d5482526017905220546143e090876141ae565b600d54600090815260176020526040902055505b806143fe8161521b565b915050614203565b5050505050505050565b60006141ba828461516c565b60006141ba8284615067565b600080600960009054906101000a9004600160a060020a0316600160a060020a031663313ce5676040518163ffffffff1660e060020a02815260040160206040518083038186803b15801561447c57600080fd5b505afa158015614490573d6000803e3d6000fd5b505050506040513d601f19601f820116820180604052508101906144b49190614d44565b84600160a060020a031663313ce5676040518163ffffffff1660e060020a02815260040160206040518083038186803b1580156144f057600080fd5b505afa158015614504573d6000803e3d6000fd5b505050506040513d601f19601f820116820180604052508101906145289190614d44565b614532919061518b565b905060008160000b126145765761156a61454d82600a6150c0565b601c54600160a060020a0387166000908152601b60205260409020546112da9190829088614410565b61156a6145828261524a565b61458d90600a6150c0565b601c54600160a060020a0387166000908152601b60205260409020546145b891906112da9088614410565b90614410565b60006141ba8284615236565b60006141ba82846151cc565b60008054600160a060020a0383811673ffffffffffffffffffffffffffffffffffffffff19831681178455604051919092169283917f8be0079c531659141344cd1fd0a4f28419497f9722a3daafe3b4186f6b6457e09190a35050565b600061463e42611c1f565b9050600061464d600d546140d1565b600160a060020a03861660009081526015602090815260408083208884529091528120549192505b825181101561440657838382815181106146a25760e060020a634e487b7102600052603260045260246000fd5b6020026020010151106148665760008382815181106146d45760e060020a634e487b7102600052603260045260246000fd5b6020908102919091018101516000818152601183526040808220878352909352919091205490915061470690876145ca565b6000828152601160209081526040808320878452825280832093909355600160a060020a038c1682526012815282822084835281528282208683529052205461474f90876145ca565b600160a060020a038a166000818152601260209081526040808320868452825280832088845282528083209490945591815260138252828120600d548252825282812084825290915220546147a490876145ca565b600160a060020a038a166000818152601360209081526040808320600d54845282528083208684528252808320949094559181526014825282812086825290915220546147f190876145ca565b600160a060020a038a16600090815260146020908152604080832087845282528083209390935560189052205461482890876145ca565b600084815260186020908152604080832093909355600d54825260179052205461485290876145ca565b600d54600090815260176020526040902055505b806148708161521b565b915050614675565b828054614884906151e3565b90600052602060002090601f0160209004810192826148a657600085556148ec565b82601f106148bf5782800160ff198235161785556148ec565b828001600101855582156148ec579182015b828111156148ec5782358255916020019190600101906148d1565b506148f89291506148fc565b5090565b5b808211156148f857600081556001016148fd565b60008083601f840112614922578182fd5b50813567ffffffffffffffff811115614939578182fd5b602083019150836020808302850101111561495357600080fd5b9250929050565b60006020828403121561496b578081fd5b81356141ba8161529a565b600060208284031215614987578081fd5b81516141ba8161529a565b600080604083850312156149a4578081fd5b82356149af8161529a565b915060208301356149bf8161529a565b809150509250929050565b600080600080608085870312156149df578182fd5b84356149ea8161529a565b935060208501356149fa8161529a565b92506040850135614a0a8161529a565b9396929550929360600135925050565b600080600060608486031215614a2e578283fd5b8335614a398161529a565b92506020840135614a498161529a565b929592945050506040919091013590565b60008060408385031215614a6c578182fd5b8235614a778161529a565b915060208301356149bf816152af565b60008060408385031215614a99578182fd5b8235614aa48161529a565b946020939093013593505050565b60008060408385031215614ac4578182fd5b8251614acf8161529a565b6020939093015192949293505050565b600080600060608486031215614af3578283fd5b8335614afe8161529a565b9250602084013591506040840135614b158161529a565b809150509250925092565b60008060008060808587031215614b35578384fd5b8435614b408161529a565b9350602085013592506040850135614a0a8161529a565b600080600060608486031215614b6b578283fd5b8335614b768161529a565b95602085013595506040909401359392505050565b600060208284031215614b9c578081fd5b81516141ba816152af565b600060208284031215614bb8578081fd5b5035919050565b600060208284031215614bd0578081fd5b5051919050565b60008060408385031215614be9578182fd5b8235915060208301356149bf8161529a565b600080600060608486031215614c0f578081fd5b833592506020840135614c218161529a565b91506040840135614b158161529a565b600080600080600060608688031215614c48578283fd5b85359450602086013567ffffffffffffffff80821115614c66578485fd5b614c7289838a01614911565b90965094506040880135915080821115614c8a578283fd5b50614c9788828901614911565b969995985093965092949392505050565b60008060408385031215614cba578182fd5b50508035926020909101359150565b60008060008060608587031215614cde578182fd5b8435935060208501359250604085013567ffffffffffffffff80821115614d03578384fd5b818701915087601f830112614d16578384fd5b813581811115614d24578485fd5b886020828501011115614d35578485fd5b95989497505060200194505050565b600060208284031215614d55578081fd5b815160ff811681146141ba578182fd5b6000815180845260208085019450808401835b83811015614d9457815187529582019590820190600101614d78565b509495945050505050565b6020815260006141ba6020830184614d65565b604081526000614dc56040830185614d65565b8281036020840152614dd78185614d65565b95945050505050565b604081526000614df36040830185614d65565b90508260208301529392505050565b6000602080835283518082850152825b81811015614e2e57858101830151858201604001528201614e12565b81811115614e3f5783604083870101525b50601f01601f1916929092016040019392505050565b604081528254600090819060028104600180831680614e7557607f831692505b6020808410821415614e985760e060020a634e487b710287526022600452602487fd5b6040880184905260608801828015614eb75760018114614ec857614ef2565b60ff19871682528282019750614ef2565b60008c815260209020895b87811015614eec57815484820152908601908401614ed3565b83019850505b50509690960196909652509095945050505050565b60208082526013908201527f566f74696e67206973206e6f7420737461727400000000000000000000000000604082015260600190565b6020808252600e908201527f566f74696e67206973206f766572000000000000000000000000000000000000604082015260600190565b6020808252600b908201527f496e76616c6964204e4654000000000000000000000000000000000000000000604082015260600190565b6020808252600e908201527f416d6f756e74206973207a65726f000000000000000000000000000000000000604082015260600190565b6020808252818101527f4f776e61626c653a2063616c6c6572206973206e6f7420746865206f776e6572604082015260600190565b6020808252600c908201527f4e6f74206f70657261746f720000000000000000000000000000000000000000604082015260600190565b6000821982111561506257615062615268565b500190565b60008261507657615076615281565b500490565b600181815b808511156150b857816000190482111561509c5761509c615268565b808516156150a957918102915b60029094049390800290615080565b509250929050565b60006141ba60ff8416836000826150d957506001611095565b816150e657506000611095565b81600181146150fc576002811461510657615123565b6001915050611095565b60ff84111561511757615117615268565b8360020a915050611095565b5060208310610133831016604e8410600b8410161715615146575081810a611095565b615150838361507b565b806000190482111561516457615164615268565b029392505050565b600081600019048311821515161561518657615186615268565b500290565b600081810b83820b8281128015607f198301841216156151ad576151ad615268565b81607f0183138116156151c2576151c2615268565b5090039392505050565b6000828210156151de576151de615268565b500390565b6002810460018216806151f757607f821691505b602082108114156134125760e060020a634e487b7102600052602260045260246000fd5b600060001982141561522f5761522f615268565b5060010190565b60008261524557615245615281565b500690565b600081810b607f1981141561526157615261615268565b9003919050565b60e060020a634e487b7102600052601160045260246000fd5b60e060020a634e487b7102600052601260045260246000fd5b600160a060020a0381168114613e2c57600080fd5b8015158114613e2c57600080fdfea264697066735822122030f6b86c4decedfb415863ad5d232d4f47d6b941188f77956cbcedee680b786d64736f6c63430008040033",
  "immutableReferences": {},
  "source": "// SPDX-License-Identifier: MIT\npragma solidity ^0.8.0;\n\nimport \"@openzeppelin/contracts/access/Ownable.sol\";\nimport \"@openzeppelin/contracts/utils/math/SafeMath.sol\";\nimport \"@openzeppelin/contracts/token/ERC20/IERC20.sol\";\nimport \"@openzeppelin/contracts/token/ERC721/IERC721.sol\";\nimport \"@openzeppelin/contracts/token/ERC20/extensions/IERC20Metadata.sol\";\n\n\ninterface ITreasury {\n\tfunction sendRewards(address to, uint256 amount) external returns(uint256 val);\n\tfunction uink() external view returns(address);\n}\n\ninterface IAuction {\n\tfunction matchResults(string calldata matchId, uint index) external view returns(address, uint);\n}\n\ninterface ITokenLocker {\n\tfunction subLockForVote(uint256 lockId, address accountAddress) external returns(uint);\n}\n\n\ncontract VoteMining is Ownable {\n\tusing SafeMath for uint256;\n\n\tuint public VOTE_TIME_UNIT = 1 hours;\n\tuint public VOTE_DAYS = 14;\n\tuint public VOTE_DURATION = VOTE_DAYS * VOTE_TIME_UNIT;\n\n\tuint public weeklyCap = 400000 * 1e12;\n\tuint public dailyVoteRewardCap = weeklyCap / VOTE_DAYS / 4; // 25% of daily cap \n\tuint public mintRewardCap = weeklyCap / 4; // 25% of daily cap \n\tuint public bonusCap = weeklyCap  / 2; // 50% of weekly cap\n\t// group id => amount\n\tmapping (uint => uint) public stakingBases;\n\n\n\taddress public uink;\n\tITreasury public treasury;\n\taddress public auction;\n\n\tstruct NFT {\n\t\tuint uid;\n\t\taddress addr;\n\t\tuint id;\n\t\taddress owner;\n\t}\n\t// id => start time\n\tmapping (uint => uint) public groups;\n\tuint public currentGroupId = 0;\n\t// group id => matchId\n\tmapping (uint => string) public matches;\n\t// group id => finished or not\n\tmapping (uint => bool) public hasFinished;\n\t\n\t\n\t// group id => NFT[]\n\tmapping (uint => NFT[]) public groupNFTs;\n\n\t// date => NFT uid => votes\n\tmapping (uint => mapping (uint => uint)) public dayVotes;\n\n\t// user => date => NFT id => amount\n\tmapping (address => mapping (uint => mapping (uint => uint))) public userVotes;\n\n\t// user => groupId => date => votes\n\tmapping (address => mapping (uint => mapping (uint => uint))) public userDailyVotes;\n\n\t// user => nft uid => votes \n\tmapping (address => mapping (uint => uint)) public userNFTVotes;\n\t\n\n\t// nft address => nftId => internal id\n\tmapping (address => mapping (uint => uint)) public nfts;\n\tuint public nextNFTId = 0;\n\n\t// group id => votes\n\tmapping (uint => uint) public groupVotes;\n\n\t// uid => votes\n\tmapping (uint => uint) public nftVotes;\n\n\t// date => votes\n\t// mapping (uint => uint) public dailyTotalVotes;\n\t\n\n\t// uid => group id\n\tmapping (uint => uint) public nftGroup;\n\t\n\taddress[] public voteTokens;\n\t// token => ratio\n\tmapping (address => uint) public voteRatio;\n\n\tuint public voteRatioMax = 10000;\n\t\n\n\tstruct Balance {\n\t\tuint available;\n\t\tuint freezed;\n\t\tuint votedAt;\n\t}\n\n\tstruct UnbondingBalance {\n\t\tuint value;\n\t\tuint unbondedAt;\n\t\tuint redeemed;\n\t}\n\n\t// user => token => uid => Balance\n\tmapping (address => mapping (address => mapping (uint => Balance))) public balances;\n\n\t// user => uid => Balance\n\tmapping (address => mapping (uint => Balance)) public votedBalances; // bonded => voted \n\t\n\t// user => bonded amount\n\tmapping (address => uint) public totalVotedBalances;\n\n\t// user => UnbondingBalance[]\n\tmapping (address => UnbondingBalance[]) public unbondingBalances;\n\t\n\t// user => total unbonded amount\n\tmapping (address => uint) public unbondedBalances;\n\t\n\n\t// uid => price\n\tmapping (uint => uint) public nftTradedPrices;\n\t// user => group => date => bool\n\tmapping (address => mapping (uint => mapping (uint => bool))) public voteRewardsClaimed;\n\t// user = > group id => bool\n\tmapping (address => mapping (uint => bool)) public bonusRewardsClaimed;\n\t// nft uid => bool\n\tmapping (uint => bool) public mintRewardsClaimed;\n\n\t// groupId => user => token => balance\n\tmapping (uint => mapping (address => mapping (address => uint))) public groupTokenBalances;\n\t\t\n\n\tmapping (address => bool) public operators;\n\n\taddress public pinAddress;\n\n\tuint public tokenLockId = 0;\n\n\taddress public tokenLocker;\n\n\tevent Redeem(address indexed user, address token, uint amount);\n\tevent Unbond(address indexed user, uint amount, uint at);\n\n\t\n\n\tmodifier checkNFT(address nftAddr, uint nftId) { \n\t\trequire(nfts[nftAddr][nftId] > 0, \"Invalid NFT\");\n\t\t_; \n\t}\n\n\tmodifier onlyPin() { \n\t\trequire(msg.sender == pinAddress, \"Forbidden\"); \n\t\t_; \n\t}\n\n\tmodifier onlyOperator() { \n\t\trequire (operators[msg.sender] || owner() == _msgSender(), \"Not operator\"); \n\t\t_; \n\t}\n\t\n\t\n\n\tmodifier checkVotingTime() { \n\t\trequire(groups[currentGroupId] <= block.timestamp, \"Voting is not start\");\n\t\trequire(groups[currentGroupId].add(VOTE_DURATION) >= block.timestamp, \"Voting is over\");\n\t\t_; \n\t}\n\n\tmodifier checkVoteToken(address _token) { \n\t\tbool isValid = false;\n\t\tfor(uint i = 0; i < voteTokens.length; i++) {\n\t\t\tif(voteTokens[i] == _token) {\n\t\t\t\tisValid = true;\n\t\t\t\tbreak;\n\t\t\t}\n\t\t}\n\t\trequire(isValid, \"Invalid Vote Token\");\n\t\t_; \n\t}\n\n\tconstructor(address _treasury, address _tokenLocker){\n\t\ttreasury = ITreasury(_treasury);\n\t\tuink = treasury.uink();\n\t\ttokenLocker = _tokenLocker;\n\n\t\tvoteTokens.push(uink);\n\t\tvoteRatio[uink] = voteRatioMax;\n\t}\n\n\tfunction addVoteToken(address _token, uint _ratio) external onlyOperator {\n\t\tvoteRatio[_token] = _ratio;\n\t\tfor(uint i = 0; i < voteTokens.length; i++) {\n\t\t\tif(voteTokens[i] == _token) {\n\t\t\t\treturn;\n\t\t\t}\n\t\t}\n\t\tvoteTokens.push(_token);\n\t}\n\n\tfunction setAuctionAddress(address _auction) external onlyOwner {\n\t\tauction = _auction;\n\t}\n\n\tfunction setPinAddress(address _pin) external onlyOwner {\n\t\tpinAddress = _pin;\n\t}\n\n\tfunction setTokenLockId(uint lockId) external onlyOwner {\n\t\ttokenLockId = lockId;\n\t}\n\n\tfunction setOperator(address operator, bool isOperator) external onlyOwner {\n\t\toperators[operator] = isOperator;\n\t}\n\n\tfunction setVoteDays(uint _days) external onlyOwner {\n\t\tVOTE_DAYS = _days;\n\t}\n\n\n\tfunction addGroup(uint stakingBase, uint startTime, string calldata matchId) external onlyOperator {\n\t\trequire(currentGroupId == 0 || groups[currentGroupId].add(VOTE_DURATION) <= block.timestamp, \"Previous group is not over.\");\n\t\trequire(startTime >= getDate(block.timestamp), \"Invalid start time\");\n\t\tcurrentGroupId++;\n\t\tgroups[currentGroupId] = startTime;\n\t\tstakingBases[currentGroupId] = stakingBase;\n\t\tmatches[currentGroupId] = matchId;\n\t}\n\n\tfunction addNFT(uint groupId, address[] calldata nftAddrs, uint[] calldata nftIds) external onlyOperator {\n\t\trequire(nftAddrs.length == nftIds.length, \"Invalid params\");\n\t\tNFT[] storage inputNFTs = groupNFTs[groupId];\n\n\t\tfor(uint i = 0; i < nftAddrs.length; i++) {\n\t\t\trequire(nfts[nftAddrs[i]][nftIds[i]] == 0, \"NFT has been added\");\n\t\t\tnextNFTId++;\n\t\t\tnfts[nftAddrs[i]][nftIds[i]] = nextNFTId;\n\t\t\taddress nftOwner = IERC721(nftAddrs[i]).ownerOf(nftIds[i]);\n\t\t\tinputNFTs.push(NFT({\n\t\t\t\tuid: nextNFTId,\n\t\t\t\taddr: nftAddrs[i],\n\t\t\t\tid: nftIds[i],\n\t\t\t\towner: nftOwner\n\t\t\t}));\n\t\t\tnftGroup[nextNFTId] = groupId;\n\t\t}\n\t}\n\n\tfunction groupNFTsLength(uint groupId) public view returns(uint256) {\n\t\treturn groupNFTs[groupId].length;\n\t}\n\n\tfunction getAuctionPrices(uint groupId) public view returns(uint[] memory prices, uint totalAmount) {\n\t\tprices = new uint[](groupNFTs[groupId].length);\n\t\tfor(uint i = 0; i < groupNFTs[groupId].length; i++) {\n\t\t\t(address bidder, uint price) = IAuction(auction).matchResults(matches[groupId], i);\n\t\t\tif(bidder == address(0)) {\n\t\t\t\tprice = 0;\n\t\t\t}\n\t\t\tprices[i] = price;\n\t\t\ttotalAmount = totalAmount.add(price);\n\t\t}\n\t}\n\n\t\n\tfunction getDate(uint256 ts) public view returns(uint256) {\n\t\treturn ts.sub(ts.mod(VOTE_TIME_UNIT));\n\t}\n\n\tfunction getVotableDates(uint groupId) public view returns(uint[] memory dates) {\n\t\tuint start = groups[groupId];\n\t\tdates = new uint[](VOTE_DAYS);\n\t\tuint firstDate = getDate(start);\n\t\tfor(uint i = 0; i < VOTE_DAYS; i++) {\n\t\t\tdates[i] = firstDate.add(i * VOTE_TIME_UNIT);\n\t\t}\n\t}\n\n\tfunction _vote(address user, address nftAddr, uint nftId, uint votes) internal {\n\t\tuint today = getDate(block.timestamp);\n\t\tuint[] memory dates = getVotableDates(currentGroupId);\n\t\tuint uid = nfts[nftAddr][nftId];\n\n\t\tfor(uint i = 0; i < dates.length; i++) {\n\t\t\tif(dates[i] >= today) {\n\t\t\t\tuint date = dates[i];\n\t\t\t\tdayVotes[date][uid] = dayVotes[date][uid].add(votes);\n\t\t\t\tuserVotes[user][date][uid] = userVotes[user][date][uid].add(votes);\n\t\t\t\tuserDailyVotes[user][currentGroupId][date] = userDailyVotes[user][currentGroupId][date].add(votes);\n\t\t\t\tuserNFTVotes[user][uid] = userNFTVotes[user][uid].add(votes);\n\t\t\t\t\n\t\t\t\tnftVotes[uid] = nftVotes[uid].add(votes);\n\t\t\t\tgroupVotes[currentGroupId] = groupVotes[currentGroupId].add(votes);\n\t\t\t}\n\t\t}\n\t}\n\n\tfunction getUserNFTVotes(address user, address nftAddr, uint nftId) public view returns(uint256) {\n\t\tuint today = getDate(block.timestamp);\n\t\tuint[] memory dates = getVotableDates(currentGroupId);\n\t\tuint uid = nfts[nftAddr][nftId];\n\t\tuint votes = 0;\n\t\tfor(uint i = 0; i < dates.length; i++) {\n\t\t\tif(dates[i] <= today) {\n\t\t\t\tvotes = votes.add(userVotes[user][dates[i]][uid]);\n\t\t\t}\n\t\t}\n\t\treturn votes;\n\t}\n\n\tfunction getNFTVotes(address nftAddr, uint nftId) public view returns(uint256) {\n\t\tuint today = getDate(block.timestamp);\n\t\tuint[] memory dates = getVotableDates(currentGroupId);\n\t\tuint uid = nfts[nftAddr][nftId];\n\t\t\n\t\tuint votes = 0;\n\t\tfor(uint i = 0; i < dates.length; i++) {\n\t\t\tif(dates[i] <= today) {\n\t\t\t\tvotes = votes.add(dayVotes[dates[i]][uid]);\n\t\t\t}\n\t\t}\n\t\treturn votes;\n\t}\n\n\tfunction _unvote(address user, address nftAddr, uint nftId, uint votes) internal {\n\t\tuint today = getDate(block.timestamp);\n\t\tuint[] memory dates = getVotableDates(currentGroupId);\n\t\tuint uid = nfts[nftAddr][nftId];\n\n\t\tfor(uint i = 0; i < dates.length; i++) {\n\t\t\tif(dates[i] >= today) {\n\t\t\t\tuint date = dates[i];\n\t\t\t\tdayVotes[date][uid] = dayVotes[date][uid].sub(votes);\n\t\t\t\tuserVotes[user][date][uid] = userVotes[user][date][uid].sub(votes);\n\t\t\t\tuserDailyVotes[user][currentGroupId][date] = userDailyVotes[user][currentGroupId][date].sub(votes);\n\t\t\t\tuserNFTVotes[user][uid] = userNFTVotes[user][uid].sub(votes);\n\t\t\t\t\n\t\t\t\tnftVotes[uid] = nftVotes[uid].sub(votes);\n\t\t\t\tgroupVotes[currentGroupId] = groupVotes[currentGroupId].sub(votes);\n\t\t\t}\n\t\t}\n\t\t\n\t}\n\n\tfunction calcVotes(address token, uint amount) internal view returns(uint256) {\n\t\tint8 delta = int8(IERC20Metadata(token).decimals()) - int8(IERC20Metadata(uink).decimals());\n\t\tif(delta >= 0) {\n\t\t\treturn voteRatio[token].mul(amount).div(voteRatioMax).div(10 ** uint8(delta));\n\t\t} else {\n\t\t\treturn voteRatio[token].mul(amount).div(voteRatioMax).mul(10 ** uint8(-delta));\n\t\t}\n\t}\n\n\tfunction getAvailableBalance(address user, address token, address nftAddr, uint nftId) public view returns(uint256) {\n\t\tuint uid = nfts[nftAddr][nftId];\n\t\tBalance memory balance = balances[user][token][uid];\n\t\tuint available = balance.available;\n\t\tif(getDate(balance.votedAt) < getDate(block.timestamp)) {\n\t\t\tavailable = available.add(balance.freezed);\n\t\t}\n\t\treturn available;\n\t}\n\n\t// stake and vote\n\tfunction stake(address nftAddr, uint nftId, address token, uint amount)\n\t\texternal \n\t\tcheckVoteToken(token)\n\t\tcheckVotingTime\n\t\tcheckNFT(nftAddr, nftId)\n\t{\n\t\trequire(amount > 0, \"Amount is zero\");\n\t\tuint votes = calcVotes(token, amount);\n\t\t_vote(msg.sender, nftAddr, nftId, votes);\n\n\t\tIERC20(token).transferFrom(msg.sender, address(this), amount);\n\t\tgroupTokenBalances[currentGroupId][msg.sender][token] = groupTokenBalances[currentGroupId][msg.sender][token].add(amount);\n\n\t\tuint uid = nfts[nftAddr][nftId];\n\n\n\t\tBalance storage balance = balances[msg.sender][token][uid];\n\t\tif(getDate(balance.votedAt) < getDate(block.timestamp)) {\n\t\t\tbalance.available = balance.available.add(balance.freezed);\n\t\t\tbalance.freezed = 0;\n\t\t}\n\t\tbalance.freezed = balance.freezed.add(amount);\n\t\tbalance.votedAt = block.timestamp;\n\t}\n\n\tfunction unstake(address nftAddr, uint nftId, address token, uint amount)\n\t\texternal \n\t\tcheckVoteToken(token)\n\t\tcheckNFT(nftAddr, nftId)\n\t{\n\t\trequire(amount > 0, \"Amount is zero\");\n\t\t\n\t\tuint available = getAvailableBalance(msg.sender, token, nftAddr, nftId);\n\t\trequire(available >= amount, \"Insufficient balance\");\n\n\t\tuint votes = calcVotes(token, amount);\n\t\t_unvote(msg.sender, nftAddr, nftId, votes);\n\n\t\tIERC20(token).transfer(msg.sender, amount);\n\n\t\tgroupTokenBalances[currentGroupId][msg.sender][token] = groupTokenBalances[currentGroupId][msg.sender][token].sub(amount);\n\n\t\tuint uid = nfts[nftAddr][nftId];\n\t\tBalance storage balance = balances[msg.sender][token][uid];\n\t\tif(getDate(balance.votedAt) < getDate(block.timestamp)) {\n\t\t\tbalance.available = balance.available.add(balance.freezed);\n\t\t\tbalance.freezed = 0;\n\t\t}\n\t\tbalance.available = balance.available.sub(amount);\n\t}\n\n\t// redeem token after vote finished\n\tfunction redeemToken(uint groupId, address token) external {\n\t\trequire(groups[groupId] + VOTE_DURATION < block.timestamp, \"Vote is not over\");\n\t\tuint amount = groupTokenBalances[groupId][msg.sender][token];\n\t\trequire(amount > 0, \"Amount is zero\");\n\t\tIERC20(token).transfer(msg.sender, amount);\n\t\temit Redeem(msg.sender, token, amount);\n\t}\n\n\tfunction getRedeemableBalance(address user, address token) public view returns(uint256) {\n\t\tuint total = 0;\n\t\tfor(uint groupId = 1; groupId <= currentGroupId; groupId++){\n\t\t\tif(groups[groupId] + VOTE_DURATION < block.timestamp) {\n\t\t\t\ttotal = total.add(groupTokenBalances[groupId][user][token]);\n\t\t\t}\n\t\t}\n\t\treturn total;\n\t}\n\n\tfunction redeemToken(address token) external {\n\t\tuint total = getRedeemableBalance(msg.sender, token);\n\t\trequire(total > 0, \"Withdrawable is zero\");\n\t\tIERC20(token).transfer(msg.sender, total);\n\t\temit Redeem(msg.sender, token, total);\n\t}\n\n\tfunction rescueToken(address token, uint amount) external onlyOwner {\n\t\tIERC20(token).transfer(msg.sender, amount);\n\t}\n\n\tfunction getTotalRewards(address user) public view returns(uint) {\n\t\tuint rewards = 0;\n\t\tfor(uint groupId = 1; groupId <= currentGroupId; groupId++) {\n\t\t\trewards = rewards.add(getBaseRewards(user, groupId)).add(getAuctionRewards(user, groupId));\n\t\t}\n\t\treturn rewards;\n\t}\n\n\tfunction getBaseRewards(address user, uint groupId) public view returns(uint) {\n\t\tuint[] memory dates = getVotableDates(groupId);\n\t\tuint[] memory rawardRates = getBaseRewardRates(groupId);\n\t\tuint rewards = 0;\n\t\tuint today = getDate(block.timestamp);\n\n\t\tfor(uint i = 0; i < dates.length; i++) {\n\t\t\tif(dates[i] >= today) {\n\t\t\t\tbreak;\n\t\t\t}\n\t\t\tuint dayRewards = userDailyVotes[user][groupId][dates[i]].mul(rawardRates[i]).div(1e18);\n\t\t\trewards = rewards.add(dayRewards);\n\t\t}\n\t\treturn rewards;\n\t}\n\n\tfunction getAuctionRewards(address user, uint groupId) public view returns(uint) {\n\t\tif(!hasFinished[groupId]) {\n\t\t\treturn 0;\n\t\t}\n\t\tuint rewards = 0;\n\t\tuint[] memory rewardRates = getAuctionRewardRates(groupId);\n\t\tfor(uint i = 0; i < groupNFTs[groupId].length; i++) {\n\t\t\tuint votes = userNFTVotes[user][groupNFTs[groupId][i].uid];\n\t\t\trewards = votes.mul(rewardRates[i]).div(1e18).add(rewards);\n\t\t}\n\t\treturn rewards;\n\t}\n\n\tfunction getBondedBalance(address user) public view returns(uint) {\n\t\tuint rewards = getTotalRewards(user);\n\t\tuint freezedBalance = totalVotedBalances[user].add(unbondedBalances[user]);\n\t\treturn rewards > freezedBalance ? rewards.sub(freezedBalance) : 0;\n\t}\n\n\tfunction getUnvotableBalance(address user, address nftAddr, uint nftId) public view returns(uint256) {\n\t\tuint uid = nfts[nftAddr][nftId];\n\t\tBalance memory balance = votedBalances[user][uid];\n\t\tuint available = balance.available;\n\t\tif(getDate(balance.votedAt) < getDate(block.timestamp)) {\n\t\t\tavailable = available.add(balance.freezed);\n\t\t}\n\t\treturn available;\n\t}\n\n\tfunction voteFromLock(address nftAddr, uint nftId) \n\t\texternal \n\t\tcheckVotingTime\n\t\tcheckNFT(nftAddr, nftId)\n\t{\n\n\t\tuint amount = ITokenLocker(tokenLocker).subLockForVote(tokenLockId, msg.sender);\n\t\t_vote(msg.sender, nftAddr, nftId, amount);\n\t\t\n\t\tuint uid = nfts[nftAddr][nftId];\n\t\tBalance storage votedBalance = votedBalances[msg.sender][uid];\n\n\t\tif(getDate(votedBalance.votedAt) < getDate(block.timestamp)) {\n\t\t\tvotedBalance.available = votedBalance.available.add(votedBalance.freezed);\n\t\t\tvotedBalance.freezed = 0;\n\t\t}\n\t\tvotedBalance.freezed = votedBalance.freezed.add(amount);\n\t\tvotedBalance.votedAt = block.timestamp;\n\n\t\ttotalVotedBalances[msg.sender] = totalVotedBalances[msg.sender].add(amount);\n\t}\n\n\t\n\tfunction voteBonded(address nftAddr, uint nftId, uint amount) \n\t\texternal \n\t\tcheckVotingTime\n\t\tcheckNFT(nftAddr, nftId)\n\t{\n\t\tuint bondedBalance = getBondedBalance(msg.sender);\n\t\trequire(bondedBalance >= amount, \"Insufficient bonded balance\");\n\n\t\t_vote(msg.sender, nftAddr, nftId, amount);\n\n\t\tuint uid = nfts[nftAddr][nftId];\n\t\tBalance storage votedBalance = votedBalances[msg.sender][uid];\n\n\t\tif(getDate(votedBalance.votedAt) < getDate(block.timestamp)) {\n\t\t\tvotedBalance.available = votedBalance.available.add(votedBalance.freezed);\n\t\t\tvotedBalance.freezed = 0;\n\t\t}\n\t\tvotedBalance.freezed = votedBalance.freezed.add(amount);\n\t\tvotedBalance.votedAt = block.timestamp;\n\n\t\ttotalVotedBalances[msg.sender] = totalVotedBalances[msg.sender].add(amount);\n\t}\n\n\tfunction unvoteBonded(address nftAddr, uint nftId, uint amount)\n\t\texternal \n\t\tcheckVotingTime\n\t\tcheckNFT(nftAddr, nftId)\n\t{\n\t\tuint unvotable = getUnvotableBalance(msg.sender, nftAddr, nftId);\n\t\trequire(unvotable >= amount, \"Insufficient unvotable balance\");\n\t\t_unvote(msg.sender, nftAddr, nftId, amount);\n\n\t\tuint uid = nfts[nftAddr][nftId];\n\t\tBalance storage votedBalance = votedBalances[msg.sender][uid];\n\n\t\tif(getDate(votedBalance.votedAt) < getDate(block.timestamp)) {\n\t\t\tvotedBalance.available = votedBalance.available.add(votedBalance.freezed);\n\t\t\tvotedBalance.freezed = 0;\n\t\t}\n\t\tvotedBalance.available = votedBalance.available.sub(amount);\n\n\t\ttotalVotedBalances[msg.sender] = totalVotedBalances[msg.sender].sub(amount);\n\t}\n\n\tfunction getUnbondingBalancesLength(address user) public view returns(uint) {\n\t\treturn unbondingBalances[user].length;\n\t}\n\n\tfunction unbond(uint amount) external {\n\t\tuint bondedBalance = getBondedBalance(msg.sender);\n\t\trequire(bondedBalance >= amount, \"Insufficient bonded balance\");\n\n\t\tunbondingBalances[msg.sender].push(UnbondingBalance({\n\t\t\tvalue: amount,\n\t\t\tunbondedAt: block.timestamp,\n\t\t\tredeemed: 0\n\t\t}));\n\t\t\n\t\tunbondedBalances[msg.sender] = unbondedBalances[msg.sender].add(amount);\n\n\t\temit Unbond(msg.sender, amount, block.timestamp);\n\t}\n\n\tfunction redeemUnbonding(uint index) \n\t\texternal \n\t{ \n\t\tUnbondingBalance storage unbondingBalance = unbondingBalances[msg.sender][index];\n\t\tuint passDays = getDate(block.timestamp).sub(getDate(unbondingBalance.unbondedAt)).div(VOTE_TIME_UNIT);\n\t\tuint released = passDays.mul(unbondingBalance.value).div(60);\n\t\tuint available = released.sub(unbondingBalance.redeemed);\n\t\tunbondingBalance.redeemed = released;\n\n\t\ttreasury.sendRewards(msg.sender, available);\n\t}\n\n\n\t// function getUserVotesByNFT(address user, uint groupId, uint uid) public view returns(uint) {\n\t// \tuint[] memory dates = getVotableDates(groupId);\n\t// \tuint votes = 0;\n\t// \tfor(uint i = 0; i < dates.length; i++) {\n\t// \t\tvotes = userVotes[user][dates[i]][uid].add(votes);\n\t// \t}\n\t// \treturn votes;\n\t// }\n\n\tfunction claimMintRewards(address nftAddr, uint nftId, address to) external onlyPin {\n\t\tuint uid = nfts[nftAddr][nftId];\n\t\tuint groupId = nftGroup[nfts[nftAddr][nftId]];\n\t\trequire(!mintRewardsClaimed[uid], \"Claimed\");\n\n\t\tuint rewards = 0;\n\t\tfor(uint i = 0; i < groupNFTs[groupId].length; i++) {\n\t\t\tif(groupNFTs[groupId][i].uid == uid) {\n\t\t\t\trewards = getMintRewardsPerNFT(groupId)[i];\n\t\t\t\tbreak;\n\t\t\t}\n\t\t}\n\t\tif(rewards > 0) {\n\t\t\ttreasury.sendRewards(to, rewards);\n\t\t\tmintRewardsClaimed[uid] = true;\n\t\t}\n\t}\n\n\tfunction getTradeWeights(uint groupId) public view returns(uint[] memory weights) {\n\t\tNFT[] memory gNFTs = groupNFTs[groupId];\n\t\tweights = new uint[](gNFTs.length);\n\t\t\n\t\t(uint[] memory prices, uint total) = getAuctionPrices(groupId);\n\n\t\tif(total > 0) {\n\t\t\tfor(uint i = 0; i < gNFTs.length; i++){\n\t\t\t\tweights[i] = prices[i].mul(1e18).div(total);\n\t\t\t}\n\t\t}\n\t}\n\n\tfunction setAuctionFinish(uint groupId) external onlyOperator {\n\t\thasFinished[groupId] = true;\n\t}\n\n\tfunction getAuctionRewardRates(uint groupId) public view returns(uint[] memory auctionRewardRates) {\n\t\tuint[] memory weights = getTradeWeights(groupId);\n\t\tNFT[] memory gNFTs = groupNFTs[groupId];\n\t\tauctionRewardRates = new uint[](gNFTs.length);\n\t\t(, uint[] memory inflations) = getWeightsAndInflations(groupId);\n\t\tuint bonus = bonusCap.mul(inflations[inflations.length - 1]).div(1e18);\n\n\t\tfor(uint i = 0; i < gNFTs.length; i++) {\n\t\t\tif(nftVotes[gNFTs[i].uid] == 0) {\n\t\t\t\tauctionRewardRates[i] = 0;\n\t\t\t} else {\n\t\t\t\tauctionRewardRates[i] = bonus.mul(weights[i]).div(nftVotes[gNFTs[i].uid]);\n\t\t\t}\n\t\t}\n\t}\n\n\tfunction getDailyVotes(uint groupId, uint date) public view returns(uint256) {\n\t\tuint votes = 0;\n\t\tfor(uint i = 0; i < groupNFTs[groupId].length; i++) {\n\t\t\tuint uid = groupNFTs[groupId][i].uid;\n\t\t\tvotes = votes.add(dayVotes[date][uid]);\n\t\t}\n\t\treturn votes;\n\t}\n\n\tfunction getWeightsAndInflations(uint groupId)\n\t\tpublic\n\t\tview\n\t\treturns(\n\t\t\tuint[] memory weights,\n\t\t\tuint[] memory inflations\n\t\t) \n\t{\n\n\t\tuint[] memory dates = getVotableDates(groupId);\n\t\tweights = new uint[](dates.length);\n\t\tinflations = new uint[](dates.length);\n\n\t\tfor(uint i = 0; i < dates.length; i++) {\n\t\t\tuint dailyVotes = getDailyVotes(groupId, dates[i]);\n\t\t\tweights[i] = dailyVotes.mul(1e18).div(stakingBases[groupId]);\n\t\t\tif(weights[i] < 3 * 1e17) {\n\t\t\t\tinflations[i] = 2 * 1e17;\n\t\t\t} else if(weights[i] >= 3 * 1e17 &&  weights[i] < 7 * 1e17) {\n\t\t\t\tinflations[i] = weights[i];\n\t\t\t} else {\n\t\t\t\tinflations[i] = 1e18;\n\t\t\t}\n\t\t}\n\t}\n\n\tfunction getBaseRewardRates(uint groupId) \n\t\tpublic view \n\t\treturns(uint[] memory rewardRates) \n\t{\n\n\t\tuint[] memory dates = getVotableDates(groupId);\n\t\t(,uint[] memory inflations) = getWeightsAndInflations(groupId);\n\t\trewardRates = new uint[](dates.length);\n\n\t\tfor(uint i = 0; i < dates.length; i++) {\n\t\t\tif(dates[i] > getDate(block.timestamp)) {\n\t\t\t\tbreak;\n\t\t\t}\n\t\t\tuint dailyTotalVotes = getDailyVotes(groupId, dates[i]);\n\t\t\tif(dailyTotalVotes > 0) {\n\t\t\t\trewardRates[i] = inflations[i].mul(dailyVoteRewardCap).div(dailyTotalVotes);\n\t\t\t}\n\t\t}\n\t}\n\n\tfunction getMintRewardsPerNFT(uint groupId)\n\t\tpublic view \n\t\treturns(uint[] memory mintRewards) \n\t{\n\t\tmintRewards = new uint[](groupNFTs[groupId].length);\n\t\tfor(uint i = 0; i < groupNFTs[groupId].length; i++) {\n\t\t\tif(groupVotes[groupId] > 0) {\n\t\t\t\tmintRewards[i] = nftVotes[groupNFTs[groupId][i].uid].mul(mintRewardCap).div(groupVotes[groupId]);\n\t\t\t}\n\t\t}\n\t}\n\n\tfunction getMintRewards(address nftAddr, uint nftId) public view returns(uint) {\n\t\tuint groupId = nftGroup[nfts[nftAddr][nftId]];\n\t\tif(groupVotes[groupId] > 0) {\n\t\t\treturn nftVotes[nfts[nftAddr][nftId]].mul(mintRewardCap).div(groupVotes[groupId]);\n\t\t} else {\n\t\t\treturn 0;\n\t\t}\n\t}\n}",
  "sourcePath": "/Users/yxf/app/uniarts-eth-dao/contracts/VoteMining.sol",
  "compiler": {
    "name": "solc",
    "version": "0.8.4+commit.c7e474f2.Emscripten.clang"
  },
  "schemaVersion": "3.2.3",
  "updatedAt": "2021-10-12T09:29:07.685Z",
  "devdoc": {
    "kind": "dev",
    "methods": {
      "owner()": {
        "details": "Returns the address of the current owner."
      },
      "renounceOwnership()": {
        "details": "Leaves the contract without owner. It will not be possible to call `onlyOwner` functions anymore. Can only be called by the current owner. NOTE: Renouncing ownership will leave the contract without an owner, thereby removing any functionality that is only available to the owner."
      },
      "transferOwnership(address)": {
        "details": "Transfers ownership of the contract to a new account (`newOwner`). Can only be called by the current owner."
      }
    },
    "version": 1
  },
  "userdoc": {
    "kind": "user",
    "methods": {},
    "version": 1
  }
}