{
  "contractName": "VoteMining",
  "abi": [
    {
      "inputs": [
        {
          "internalType": "address",
          "name": "_treasury",
          "type": "address"
        },
        {
          "internalType": "address",
          "name": "_tokenLocker",
          "type": "address"
        }
      ],
      "stateMutability": "nonpayable",
      "type": "constructor"
    },
    {
      "anonymous": false,
      "inputs": [
        {
          "indexed": true,
          "internalType": "address",
          "name": "previousOwner",
          "type": "address"
        },
        {
          "indexed": true,
          "internalType": "address",
          "name": "newOwner",
          "type": "address"
        }
      ],
      "name": "OwnershipTransferred",
      "type": "event"
    },
    {
      "anonymous": false,
      "inputs": [
        {
          "indexed": true,
          "internalType": "address",
          "name": "user",
          "type": "address"
        },
        {
          "indexed": false,
          "internalType": "address",
          "name": "token",
          "type": "address"
        },
        {
          "indexed": false,
          "internalType": "uint256",
          "name": "amount",
          "type": "uint256"
        }
      ],
      "name": "Redeem",
      "type": "event"
    },
    {
      "anonymous": false,
      "inputs": [
        {
          "indexed": true,
          "internalType": "address",
          "name": "user",
          "type": "address"
        },
        {
          "indexed": false,
          "internalType": "uint256",
          "name": "amount",
          "type": "uint256"
        },
        {
          "indexed": false,
          "internalType": "uint256",
          "name": "at",
          "type": "uint256"
        }
      ],
      "name": "Unbond",
      "type": "event"
    },
    {
      "inputs": [],
      "name": "auction",
      "outputs": [
        {
          "internalType": "address",
          "name": "",
          "type": "address"
        }
      ],
      "stateMutability": "view",
      "type": "function"
    },
    {
      "inputs": [
        {
          "internalType": "address",
          "name": "",
          "type": "address"
        },
        {
          "internalType": "address",
          "name": "",
          "type": "address"
        },
        {
          "internalType": "uint256",
          "name": "",
          "type": "uint256"
        }
      ],
      "name": "balances",
      "outputs": [
        {
          "internalType": "uint256",
          "name": "available",
          "type": "uint256"
        },
        {
          "internalType": "uint256",
          "name": "freezed",
          "type": "uint256"
        },
        {
          "internalType": "uint256",
          "name": "votedAt",
          "type": "uint256"
        }
      ],
      "stateMutability": "view",
      "type": "function"
    },
    {
      "inputs": [],
      "name": "bonusCap",
      "outputs": [
        {
          "internalType": "uint256",
          "name": "",
          "type": "uint256"
        }
      ],
      "stateMutability": "view",
      "type": "function"
    },
    {
      "inputs": [
        {
          "internalType": "address",
          "name": "",
          "type": "address"
        },
        {
          "internalType": "uint256",
          "name": "",
          "type": "uint256"
        }
      ],
      "name": "bonusRewardsClaimed",
      "outputs": [
        {
          "internalType": "bool",
          "name": "",
          "type": "bool"
        }
      ],
      "stateMutability": "view",
      "type": "function"
    },
    {
      "inputs": [],
      "name": "currentGroupId",
      "outputs": [
        {
          "internalType": "uint256",
          "name": "",
          "type": "uint256"
        }
      ],
      "stateMutability": "view",
      "type": "function"
    },
    {
      "inputs": [],
      "name": "dailyMintRewardCap",
      "outputs": [
        {
          "internalType": "uint256",
          "name": "",
          "type": "uint256"
        }
      ],
      "stateMutability": "view",
      "type": "function"
    },
    {
      "inputs": [],
      "name": "dailyVoteRewardCap",
      "outputs": [
        {
          "internalType": "uint256",
          "name": "",
          "type": "uint256"
        }
      ],
      "stateMutability": "view",
      "type": "function"
    },
    {
      "inputs": [
        {
          "internalType": "uint256",
          "name": "",
          "type": "uint256"
        },
        {
          "internalType": "uint256",
          "name": "",
          "type": "uint256"
        }
      ],
      "name": "dayVotes",
      "outputs": [
        {
          "internalType": "uint256",
          "name": "",
          "type": "uint256"
        }
      ],
      "stateMutability": "view",
      "type": "function"
    },
    {
      "inputs": [
        {
          "internalType": "uint256",
          "name": "",
          "type": "uint256"
        },
        {
          "internalType": "uint256",
          "name": "",
          "type": "uint256"
        }
      ],
      "name": "groupNFTs",
      "outputs": [
        {
          "internalType": "uint256",
          "name": "uid",
          "type": "uint256"
        },
        {
          "internalType": "address",
          "name": "addr",
          "type": "address"
        },
        {
          "internalType": "uint256",
          "name": "id",
          "type": "uint256"
        },
        {
          "internalType": "address",
          "name": "owner",
          "type": "address"
        }
      ],
      "stateMutability": "view",
      "type": "function"
    },
    {
      "inputs": [
        {
          "internalType": "uint256",
          "name": "",
          "type": "uint256"
        },
        {
          "internalType": "address",
          "name": "",
          "type": "address"
        },
        {
          "internalType": "address",
          "name": "",
          "type": "address"
        }
      ],
      "name": "groupTokenBalances",
      "outputs": [
        {
          "internalType": "uint256",
          "name": "",
          "type": "uint256"
        }
      ],
      "stateMutability": "view",
      "type": "function"
    },
    {
      "inputs": [
        {
          "internalType": "uint256",
          "name": "",
          "type": "uint256"
        }
      ],
      "name": "groupVotes",
      "outputs": [
        {
          "internalType": "uint256",
          "name": "",
          "type": "uint256"
        }
      ],
      "stateMutability": "view",
      "type": "function"
    },
    {
      "inputs": [
        {
          "internalType": "uint256",
          "name": "",
          "type": "uint256"
        }
      ],
      "name": "groups",
      "outputs": [
        {
          "internalType": "uint256",
          "name": "",
          "type": "uint256"
        }
      ],
      "stateMutability": "view",
      "type": "function"
    },
    {
      "inputs": [
        {
          "internalType": "uint256",
          "name": "",
          "type": "uint256"
        }
      ],
      "name": "hasFinished",
      "outputs": [
        {
          "internalType": "bool",
          "name": "",
          "type": "bool"
        }
      ],
      "stateMutability": "view",
      "type": "function"
    },
    {
      "inputs": [
        {
          "internalType": "uint256",
          "name": "",
          "type": "uint256"
        }
      ],
      "name": "matches",
      "outputs": [
        {
          "internalType": "string",
          "name": "",
          "type": "string"
        }
      ],
      "stateMutability": "view",
      "type": "function"
    },
    {
      "inputs": [
        {
          "internalType": "uint256",
          "name": "",
          "type": "uint256"
        }
      ],
      "name": "mintRewardsClaimed",
      "outputs": [
        {
          "internalType": "bool",
          "name": "",
          "type": "bool"
        }
      ],
      "stateMutability": "view",
      "type": "function"
    },
    {
      "inputs": [],
      "name": "nextNFTId",
      "outputs": [
        {
          "internalType": "uint256",
          "name": "",
          "type": "uint256"
        }
      ],
      "stateMutability": "view",
      "type": "function"
    },
    {
      "inputs": [
        {
          "internalType": "uint256",
          "name": "",
          "type": "uint256"
        }
      ],
      "name": "nftGroup",
      "outputs": [
        {
          "internalType": "uint256",
          "name": "",
          "type": "uint256"
        }
      ],
      "stateMutability": "view",
      "type": "function"
    },
    {
      "inputs": [
        {
          "internalType": "uint256",
          "name": "",
          "type": "uint256"
        }
      ],
      "name": "nftTradedPrices",
      "outputs": [
        {
          "internalType": "uint256",
          "name": "",
          "type": "uint256"
        }
      ],
      "stateMutability": "view",
      "type": "function"
    },
    {
      "inputs": [
        {
          "internalType": "uint256",
          "name": "",
          "type": "uint256"
        }
      ],
      "name": "nftVotes",
      "outputs": [
        {
          "internalType": "uint256",
          "name": "",
          "type": "uint256"
        }
      ],
      "stateMutability": "view",
      "type": "function"
    },
    {
      "inputs": [
        {
          "internalType": "address",
          "name": "",
          "type": "address"
        },
        {
          "internalType": "uint256",
          "name": "",
          "type": "uint256"
        }
      ],
      "name": "nfts",
      "outputs": [
        {
          "internalType": "uint256",
          "name": "",
          "type": "uint256"
        }
      ],
      "stateMutability": "view",
      "type": "function"
    },
    {
      "inputs": [
        {
          "internalType": "address",
          "name": "",
          "type": "address"
        }
      ],
      "name": "operators",
      "outputs": [
        {
          "internalType": "bool",
          "name": "",
          "type": "bool"
        }
      ],
      "stateMutability": "view",
      "type": "function"
    },
    {
      "inputs": [],
      "name": "owner",
      "outputs": [
        {
          "internalType": "address",
          "name": "",
          "type": "address"
        }
      ],
      "stateMutability": "view",
      "type": "function"
    },
    {
      "inputs": [],
      "name": "pinAddress",
      "outputs": [
        {
          "internalType": "address",
          "name": "",
          "type": "address"
        }
      ],
      "stateMutability": "view",
      "type": "function"
    },
    {
      "inputs": [],
      "name": "renounceOwnership",
      "outputs": [],
      "stateMutability": "nonpayable",
      "type": "function"
    },
    {
      "inputs": [
        {
          "internalType": "uint256",
          "name": "",
          "type": "uint256"
        }
      ],
      "name": "stakingBases",
      "outputs": [
        {
          "internalType": "uint256",
          "name": "",
          "type": "uint256"
        }
      ],
      "stateMutability": "view",
      "type": "function"
    },
    {
      "inputs": [],
      "name": "tokenLockId",
      "outputs": [
        {
          "internalType": "uint256",
          "name": "",
          "type": "uint256"
        }
      ],
      "stateMutability": "view",
      "type": "function"
    },
    {
      "inputs": [],
      "name": "tokenLocker",
      "outputs": [
        {
          "internalType": "address",
          "name": "",
          "type": "address"
        }
      ],
      "stateMutability": "view",
      "type": "function"
    },
    {
      "inputs": [
        {
          "internalType": "address",
          "name": "",
          "type": "address"
        }
      ],
      "name": "totalVotedBalances",
      "outputs": [
        {
          "internalType": "uint256",
          "name": "",
          "type": "uint256"
        }
      ],
      "stateMutability": "view",
      "type": "function"
    },
    {
      "inputs": [
        {
          "internalType": "address",
          "name": "newOwner",
          "type": "address"
        }
      ],
      "name": "transferOwnership",
      "outputs": [],
      "stateMutability": "nonpayable",
      "type": "function"
    },
    {
      "inputs": [],
      "name": "treasury",
      "outputs": [
        {
          "internalType": "contract ITreasury",
          "name": "",
          "type": "address"
        }
      ],
      "stateMutability": "view",
      "type": "function"
    },
    {
      "inputs": [],
      "name": "uink",
      "outputs": [
        {
          "internalType": "address",
          "name": "",
          "type": "address"
        }
      ],
      "stateMutability": "view",
      "type": "function"
    },
    {
      "inputs": [
        {
          "internalType": "address",
          "name": "",
          "type": "address"
        }
      ],
      "name": "unbondedBalances",
      "outputs": [
        {
          "internalType": "uint256",
          "name": "",
          "type": "uint256"
        }
      ],
      "stateMutability": "view",
      "type": "function"
    },
    {
      "inputs": [
        {
          "internalType": "address",
          "name": "",
          "type": "address"
        },
        {
          "internalType": "uint256",
          "name": "",
          "type": "uint256"
        }
      ],
      "name": "unbondingBalances",
      "outputs": [
        {
          "internalType": "uint256",
          "name": "value",
          "type": "uint256"
        },
        {
          "internalType": "uint256",
          "name": "unbondedAt",
          "type": "uint256"
        },
        {
          "internalType": "uint256",
          "name": "redeemed",
          "type": "uint256"
        }
      ],
      "stateMutability": "view",
      "type": "function"
    },
    {
      "inputs": [
        {
          "internalType": "address",
          "name": "",
          "type": "address"
        },
        {
          "internalType": "uint256",
          "name": "",
          "type": "uint256"
        },
        {
          "internalType": "uint256",
          "name": "",
          "type": "uint256"
        }
      ],
      "name": "userDailyVotes",
      "outputs": [
        {
          "internalType": "uint256",
          "name": "",
          "type": "uint256"
        }
      ],
      "stateMutability": "view",
      "type": "function"
    },
    {
      "inputs": [
        {
          "internalType": "address",
          "name": "",
          "type": "address"
        },
        {
          "internalType": "uint256",
          "name": "",
          "type": "uint256"
        }
      ],
      "name": "userNFTVotes",
      "outputs": [
        {
          "internalType": "uint256",
          "name": "",
          "type": "uint256"
        }
      ],
      "stateMutability": "view",
      "type": "function"
    },
    {
      "inputs": [
        {
          "internalType": "address",
          "name": "",
          "type": "address"
        },
        {
          "internalType": "uint256",
          "name": "",
          "type": "uint256"
        },
        {
          "internalType": "uint256",
          "name": "",
          "type": "uint256"
        }
      ],
      "name": "userVotes",
      "outputs": [
        {
          "internalType": "uint256",
          "name": "",
          "type": "uint256"
        }
      ],
      "stateMutability": "view",
      "type": "function"
    },
    {
      "inputs": [
        {
          "internalType": "address",
          "name": "",
          "type": "address"
        }
      ],
      "name": "voteRatio",
      "outputs": [
        {
          "internalType": "uint256",
          "name": "",
          "type": "uint256"
        }
      ],
      "stateMutability": "view",
      "type": "function"
    },
    {
      "inputs": [],
      "name": "voteRatioMax",
      "outputs": [
        {
          "internalType": "uint256",
          "name": "",
          "type": "uint256"
        }
      ],
      "stateMutability": "view",
      "type": "function"
    },
    {
      "inputs": [
        {
          "internalType": "address",
          "name": "",
          "type": "address"
        },
        {
          "internalType": "uint256",
          "name": "",
          "type": "uint256"
        },
        {
          "internalType": "uint256",
          "name": "",
          "type": "uint256"
        }
      ],
      "name": "voteRewardsClaimed",
      "outputs": [
        {
          "internalType": "bool",
          "name": "",
          "type": "bool"
        }
      ],
      "stateMutability": "view",
      "type": "function"
    },
    {
      "inputs": [
        {
          "internalType": "uint256",
          "name": "",
          "type": "uint256"
        }
      ],
      "name": "voteTokens",
      "outputs": [
        {
          "internalType": "address",
          "name": "",
          "type": "address"
        }
      ],
      "stateMutability": "view",
      "type": "function"
    },
    {
      "inputs": [
        {
          "internalType": "address",
          "name": "",
          "type": "address"
        },
        {
          "internalType": "uint256",
          "name": "",
          "type": "uint256"
        }
      ],
      "name": "votedBalances",
      "outputs": [
        {
          "internalType": "uint256",
          "name": "available",
          "type": "uint256"
        },
        {
          "internalType": "uint256",
          "name": "freezed",
          "type": "uint256"
        },
        {
          "internalType": "uint256",
          "name": "votedAt",
          "type": "uint256"
        }
      ],
      "stateMutability": "view",
      "type": "function"
    },
    {
      "inputs": [],
      "name": "weeklyCap",
      "outputs": [
        {
          "internalType": "uint256",
          "name": "",
          "type": "uint256"
        }
      ],
      "stateMutability": "view",
      "type": "function"
    },
    {
      "inputs": [
        {
          "internalType": "address",
          "name": "_token",
          "type": "address"
        },
        {
          "internalType": "uint256",
          "name": "_ratio",
          "type": "uint256"
        }
      ],
      "name": "addVoteToken",
      "outputs": [],
      "stateMutability": "nonpayable",
      "type": "function"
    },
    {
      "inputs": [
        {
          "internalType": "address",
          "name": "_auction",
          "type": "address"
        }
      ],
      "name": "setAuctionAddress",
      "outputs": [],
      "stateMutability": "nonpayable",
      "type": "function"
    },
    {
      "inputs": [
        {
          "internalType": "address",
          "name": "_pin",
          "type": "address"
        }
      ],
      "name": "setPinAddress",
      "outputs": [],
      "stateMutability": "nonpayable",
      "type": "function"
    },
    {
      "inputs": [
        {
          "internalType": "uint256",
          "name": "lockId",
          "type": "uint256"
        }
      ],
      "name": "setTokenLockId",
      "outputs": [],
      "stateMutability": "nonpayable",
      "type": "function"
    },
    {
      "inputs": [
        {
          "internalType": "address",
          "name": "operator",
          "type": "address"
        },
        {
          "internalType": "bool",
          "name": "isOperator",
          "type": "bool"
        }
      ],
      "name": "setOperator",
      "outputs": [],
      "stateMutability": "nonpayable",
      "type": "function"
    },
    {
      "inputs": [
        {
          "internalType": "uint256",
          "name": "stakingBase",
          "type": "uint256"
        },
        {
          "internalType": "uint256",
          "name": "startTime",
          "type": "uint256"
        },
        {
          "internalType": "string",
          "name": "matchId",
          "type": "string"
        }
      ],
      "name": "addGroup",
      "outputs": [],
      "stateMutability": "nonpayable",
      "type": "function"
    },
    {
      "inputs": [
        {
          "internalType": "uint256",
          "name": "groupId",
          "type": "uint256"
        },
        {
          "internalType": "address[]",
          "name": "nftAddrs",
          "type": "address[]"
        },
        {
          "internalType": "uint256[]",
          "name": "nftIds",
          "type": "uint256[]"
        }
      ],
      "name": "addNFT",
      "outputs": [],
      "stateMutability": "nonpayable",
      "type": "function"
    },
    {
      "inputs": [
        {
          "internalType": "uint256",
          "name": "groupId",
          "type": "uint256"
        }
      ],
      "name": "getAuctionPrices",
      "outputs": [
        {
          "internalType": "uint256[]",
          "name": "prices",
          "type": "uint256[]"
        },
        {
          "internalType": "uint256",
          "name": "totalAmount",
          "type": "uint256"
        }
      ],
      "stateMutability": "view",
      "type": "function"
    },
    {
      "inputs": [
        {
          "internalType": "uint256",
          "name": "ts",
          "type": "uint256"
        }
      ],
      "name": "getDate",
      "outputs": [
        {
          "internalType": "uint256",
          "name": "",
          "type": "uint256"
        }
      ],
      "stateMutability": "pure",
      "type": "function"
    },
    {
      "inputs": [
        {
          "internalType": "uint256",
          "name": "groupId",
          "type": "uint256"
        }
      ],
      "name": "getVotableDates",
      "outputs": [
        {
          "internalType": "uint256[]",
          "name": "dates",
          "type": "uint256[]"
        }
      ],
      "stateMutability": "view",
      "type": "function"
    },
    {
      "inputs": [
        {
          "internalType": "address",
          "name": "user",
          "type": "address"
        },
        {
          "internalType": "address",
          "name": "token",
          "type": "address"
        },
        {
          "internalType": "address",
          "name": "nftAddr",
          "type": "address"
        },
        {
          "internalType": "uint256",
          "name": "nftId",
          "type": "uint256"
        }
      ],
      "name": "getAvailableBalance",
      "outputs": [
        {
          "internalType": "uint256",
          "name": "",
          "type": "uint256"
        }
      ],
      "stateMutability": "view",
      "type": "function"
    },
    {
      "inputs": [
        {
          "internalType": "address",
          "name": "nftAddr",
          "type": "address"
        },
        {
          "internalType": "uint256",
          "name": "nftId",
          "type": "uint256"
        },
        {
          "internalType": "address",
          "name": "token",
          "type": "address"
        },
        {
          "internalType": "uint256",
          "name": "amount",
          "type": "uint256"
        }
      ],
      "name": "stake",
      "outputs": [],
      "stateMutability": "nonpayable",
      "type": "function"
    },
    {
      "inputs": [
        {
          "internalType": "address",
          "name": "nftAddr",
          "type": "address"
        },
        {
          "internalType": "uint256",
          "name": "nftId",
          "type": "uint256"
        },
        {
          "internalType": "address",
          "name": "token",
          "type": "address"
        },
        {
          "internalType": "uint256",
          "name": "amount",
          "type": "uint256"
        }
      ],
      "name": "unstake",
      "outputs": [],
      "stateMutability": "nonpayable",
      "type": "function"
    },
    {
      "inputs": [
        {
          "internalType": "uint256",
          "name": "groupId",
          "type": "uint256"
        },
        {
          "internalType": "address",
          "name": "token",
          "type": "address"
        }
      ],
      "name": "redeemToken",
      "outputs": [],
      "stateMutability": "nonpayable",
      "type": "function"
    },
    {
      "inputs": [
        {
          "internalType": "address",
          "name": "token",
          "type": "address"
        },
        {
          "internalType": "uint256",
          "name": "amount",
          "type": "uint256"
        }
      ],
      "name": "rescueToken",
      "outputs": [],
      "stateMutability": "nonpayable",
      "type": "function"
    },
    {
      "inputs": [
        {
          "internalType": "address",
          "name": "user",
          "type": "address"
        }
      ],
      "name": "getTotalRewards",
      "outputs": [
        {
          "internalType": "uint256",
          "name": "",
          "type": "uint256"
        }
      ],
      "stateMutability": "view",
      "type": "function"
    },
    {
      "inputs": [
        {
          "internalType": "address",
          "name": "user",
          "type": "address"
        },
        {
          "internalType": "uint256",
          "name": "groupId",
          "type": "uint256"
        }
      ],
      "name": "getBaseRewards",
      "outputs": [
        {
          "internalType": "uint256",
          "name": "",
          "type": "uint256"
        }
      ],
      "stateMutability": "view",
      "type": "function"
    },
    {
      "inputs": [
        {
          "internalType": "address",
          "name": "user",
          "type": "address"
        },
        {
          "internalType": "uint256",
          "name": "groupId",
          "type": "uint256"
        }
      ],
      "name": "getAuctionRewards",
      "outputs": [
        {
          "internalType": "uint256",
          "name": "",
          "type": "uint256"
        }
      ],
      "stateMutability": "view",
      "type": "function"
    },
    {
      "inputs": [
        {
          "internalType": "address",
          "name": "user",
          "type": "address"
        },
        {
          "internalType": "address",
          "name": "nftAddr",
          "type": "address"
        },
        {
          "internalType": "uint256",
          "name": "nftId",
          "type": "uint256"
        }
      ],
      "name": "getUnvotableBalance",
      "outputs": [
        {
          "internalType": "uint256",
          "name": "",
          "type": "uint256"
        }
      ],
      "stateMutability": "view",
      "type": "function"
    },
    {
      "inputs": [
        {
          "internalType": "address",
          "name": "nftAddr",
          "type": "address"
        },
        {
          "internalType": "uint256",
          "name": "nftId",
          "type": "uint256"
        }
      ],
      "name": "voteFromLock",
      "outputs": [],
      "stateMutability": "nonpayable",
      "type": "function"
    },
    {
      "inputs": [
        {
          "internalType": "address",
          "name": "nftAddr",
          "type": "address"
        },
        {
          "internalType": "uint256",
          "name": "nftId",
          "type": "uint256"
        },
        {
          "internalType": "uint256",
          "name": "amount",
          "type": "uint256"
        }
      ],
      "name": "voteBonded",
      "outputs": [],
      "stateMutability": "nonpayable",
      "type": "function"
    },
    {
      "inputs": [
        {
          "internalType": "address",
          "name": "nftAddr",
          "type": "address"
        },
        {
          "internalType": "uint256",
          "name": "nftId",
          "type": "uint256"
        },
        {
          "internalType": "uint256",
          "name": "amount",
          "type": "uint256"
        }
      ],
      "name": "unvoteBonded",
      "outputs": [],
      "stateMutability": "nonpayable",
      "type": "function"
    },
    {
      "inputs": [
        {
          "internalType": "uint256",
          "name": "amount",
          "type": "uint256"
        }
      ],
      "name": "unbond",
      "outputs": [],
      "stateMutability": "nonpayable",
      "type": "function"
    },
    {
      "inputs": [
        {
          "internalType": "uint256",
          "name": "index",
          "type": "uint256"
        }
      ],
      "name": "redeemUnbonding",
      "outputs": [],
      "stateMutability": "nonpayable",
      "type": "function"
    },
    {
      "inputs": [
        {
          "internalType": "address",
          "name": "nftAddr",
          "type": "address"
        },
        {
          "internalType": "uint256",
          "name": "nftId",
          "type": "uint256"
        },
        {
          "internalType": "address",
          "name": "to",
          "type": "address"
        }
      ],
      "name": "claimMintRewards",
      "outputs": [],
      "stateMutability": "nonpayable",
      "type": "function"
    },
    {
      "inputs": [
        {
          "internalType": "uint256",
          "name": "groupId",
          "type": "uint256"
        }
      ],
      "name": "getTradeWeights",
      "outputs": [
        {
          "internalType": "uint256[]",
          "name": "weights",
          "type": "uint256[]"
        }
      ],
      "stateMutability": "view",
      "type": "function"
    },
    {
      "inputs": [
        {
          "internalType": "uint256",
          "name": "groupId",
          "type": "uint256"
        }
      ],
      "name": "setAuctionFinish",
      "outputs": [],
      "stateMutability": "nonpayable",
      "type": "function"
    },
    {
      "inputs": [
        {
          "internalType": "uint256",
          "name": "groupId",
          "type": "uint256"
        }
      ],
      "name": "getAuctionRewardRates",
      "outputs": [
        {
          "internalType": "uint256[]",
          "name": "auctionRewardRates",
          "type": "uint256[]"
        }
      ],
      "stateMutability": "view",
      "type": "function"
    },
    {
      "inputs": [
        {
          "internalType": "uint256",
          "name": "groupId",
          "type": "uint256"
        },
        {
          "internalType": "uint256",
          "name": "date",
          "type": "uint256"
        }
      ],
      "name": "getDailyVotes",
      "outputs": [
        {
          "internalType": "uint256",
          "name": "",
          "type": "uint256"
        }
      ],
      "stateMutability": "view",
      "type": "function"
    },
    {
      "inputs": [
        {
          "internalType": "uint256",
          "name": "groupId",
          "type": "uint256"
        }
      ],
      "name": "getWeightsAndInflations",
      "outputs": [
        {
          "internalType": "uint256[]",
          "name": "weights",
          "type": "uint256[]"
        },
        {
          "internalType": "uint256[]",
          "name": "inflations",
          "type": "uint256[]"
        }
      ],
      "stateMutability": "view",
      "type": "function"
    },
    {
      "inputs": [
        {
          "internalType": "uint256",
          "name": "groupId",
          "type": "uint256"
        }
      ],
      "name": "getBaseRewardRates",
      "outputs": [
        {
          "internalType": "uint256[]",
          "name": "rewardRates",
          "type": "uint256[]"
        }
      ],
      "stateMutability": "view",
      "type": "function"
    },
    {
      "inputs": [
        {
          "internalType": "uint256",
          "name": "groupId",
          "type": "uint256"
        }
      ],
      "name": "getMintRewardsPerNFT",
      "outputs": [
        {
          "internalType": "uint256[]",
          "name": "mintRewards",
          "type": "uint256[]"
        }
      ],
      "stateMutability": "view",
      "type": "function"
    }
  ],
  "bytecode": "0x608060405266b1a2bc2ec5000060015560046007600154620000229190620002cb565b6200002e9190620002cb565b60025560046007600154620000449190620002cb565b620000509190620002cb565b6003556002600154620000649190620002cb565b6004556000600a55600060135561271060195560006027553480156200008957600080fd5b5060405162004fd238038062004fd2833981016040819052620000ac9162000294565b620000d2620000c3640100000000620001ff810204565b64010000000062000203810204565b60078054600160a060020a031916600160a060020a038416908117909155604080517fa88d8fea000000000000000000000000000000000000000000000000000000008152905163a88d8fea91600480820192602092909190829003018186803b1580156200014057600080fd5b505afa15801562000155573d6000803e3d6000fd5b505050506040513d601f19601f820116820180604052508101906200017b919062000270565b60068054600160a060020a03928316600160a060020a031991821681178355602880549585169583169590951790945560178054600181019091557fc624b66cc0138b8fabc209247f72d758e1cf3343756d543badbf24212bed8c150180549091169093179092556019549154166000908152601860205260409020555062000305565b3390565b60008054600160a060020a03838116600160a060020a0319831681178455604051919092169283917f8be0079c531659141344cd1fd0a4f28419497f9722a3daafe3b4186f6b6457e09190a35050565b8051600160a060020a03811681146200026b57600080fd5b919050565b60006020828403121562000282578081fd5b6200028d8262000253565b9392505050565b60008060408385031215620002a7578081fd5b620002b28362000253565b9150620002c26020840162000253565b90509250929050565b60008262000300577f4e487b710000000000000000000000000000000000000000000000000000000081526012600452602481fd5b500490565b614cbd80620003156000396000f3fe608060405234801561001057600080fd5b50600436106104425760003560e060020a90048063715018a61161023a578063ac80b6121161013f578063d0b5efa9116100c7578063f2fde38b1161008b578063f2fde38b14610b79578063f44e3ce114610b8c578063f7a64da314610b9f578063f8df0cd314610bd0578063fa119fee14610be357600080fd5b8063d0b5efa914610b24578063d0f86b2614610b37578063da043af314610b4a578063e325fb4b14610b5d578063f298e49314610b6657600080fd5b8063c3501ff61161010e578063c3501ff614610ab5578063c4f6da1214610ac8578063c7780c7314610ae8578063c7c8895614610afb578063c909adc014610b1b57600080fd5b8063ac80b61214610a2c578063ad3bac1a14610a5d578063b5345afa14610a70578063bba1189a14610aa257600080fd5b80638503d2cd116101c257806393ac36381161019157806393ac3638146109c057806396324bd4146109d35780639d9d9a10146109f3578063a80bf3e614610a06578063a88d8fea14610a1957600080fd5b80638503d2cd146109415780638da5cb5b146109545780638f4d41e814610965578063938f17371461098657600080fd5b8063776498d411610209578063776498d4146108be5780637d9f6db5146108c75780638049e17b146108da578063814e7c0f1461090b57806383fd1a541461092e57600080fd5b8063715018a61461087a5780637523d4bd1461088257806376821827146108a257806376ec17b7146108ab57600080fd5b806343af356b1161034b578063558a7297116102d35780636482ff98116102975780636482ff98146107ab57806364ebaaeb146107be578063660dbeb8146107ec5780636b942b86146107ff5780636f700e251461085a57600080fd5b8063558a729714610719578063563c5e301461072c5780635a8542be1461075757806361d027b31461077857806363c0ea101461078b57600080fd5b80634e4b61c31161031a5780634e4b61c3146106925780634f8d32be146106b2578063502a1d3f146106bb578063515cc532146106db57806352a437fe146106ee57600080fd5b806343af356b146105de57806346aa25a2146106095780634768d4ef146106475780634dc1a3e01461066757600080fd5b80632281dfa4116103ce5780632b57298b1161039d5780632b57298b146105895780632bcf161c1461059c57806333f3d628146105af57806334e7a1a8146105c257806337867c94146105d557600080fd5b80632281dfa414610547578063259239a11461055a57806327de9e321461056d57806328ad5ba61461058057600080fd5b80630d265df9116104155780630d265df9146104a8578063126f648c146104c857806313e7c9d8146104fb578063171b612c1461051e57806317a9c7bd1461052757600080fd5b8063040308e4146104475780630713ee7e1461046d578063079dc7f4146104825780630971823f14610495575b600080fd5b61045a610455366004614389565b610bf6565b6040519081526020015b60405180910390f35b61048061047b366004614521565b610c9e565b005b61045a610490366004614672565b610eaf565b61045a6104a3366004614451565b610f51565b6104bb6104b6366004614571565b6110ac565b6040516104649190614769565b6104eb6104d6366004614571565b600c6020526000908152604090205460ff1681565b6040519015158152602001610464565b6104eb610509366004614351565b60256020526000908152604090205460ff1681565b61045a60025481565b61045a610535366004614571565b60156020526000908152604090205481565b610480610555366004614451565b61124e565b6104806105683660046144ea565b611495565b61048061057b366004614571565b61180f565b61045a60035481565b61045a610597366004614571565b611958565b61045a6105aa366004614351565b611971565b6104806105bd366004614451565b6119c2565b6104806105d0366004614571565b611a8d565b61045a600a5481565b61045a6105ec366004614451565b601260209081526000928352604080842090915290825290205481565b61061c610617366004614672565b611c04565b60408051948552600160a060020a039384166020860152840191909152166060820152608001610464565b61065a610655366004614571565b611c56565b60405161046491906147cc565b60265461067a90600160a060020a031681565b604051600160a060020a039091168152602001610464565b61045a6106a0366004614571565b601f6020526000908152604090205481565b61045a60015481565b61045a6106c9366004614351565b60186020526000908152604090205481565b6104bb6106e9366004614571565b611cf0565b61045a6106fc366004614672565b600e60209081526000928352604080842090915290825290205481565b610480610727366004614419565b611e5d565b61045a61073a366004614451565b601160209081526000928352604080842090915290825290205481565b61076a610765366004614571565b611eb5565b6040516104649291906147aa565b60075461067a90600160a060020a031681565b61045a610799366004614571565b60146020526000908152604090205481565b61067a6107b9366004614571565b612034565b6104eb6107cc366004614451565b602160209081526000928352604080842090915290825290205460ff1681565b61045a6107fa3660046143d9565b61205e565b61083f61080d3660046143d9565b601a60209081526000938452604080852082529284528284209052825290208054600182015460029092015490919083565b60408051938452602084019290925290820152606001610464565b61045a610868366004614351565b601c6020526000908152604090205481565b6104806120fa565b61045a610890366004614351565b601e6020526000908152604090205481565b61045a60275481565b6104806108b93660046144ea565b612133565b61045a60195481565b60085461067a90600160a060020a031681565b61045a6108e8366004614521565b600f60209081526000938452604080852082529284528284209052825290205481565b6104eb610919366004614571565b60226020526000908152604090205460ff1681565b61048061093c366004614521565b612519565b61048061094f3660046145fb565b6126fc565b600054600160a060020a031661067a565b610978610973366004614571565b612a66565b60405161046492919061477c565b61083f610994366004614451565b601b60209081526000928352604080842090915290825290208054600182015460029092015490919083565b6104806109ce366004614351565b612d40565b61045a6109e1366004614571565b60096020526000908152604090205481565b6104bb610a01366004614571565b612d9c565b60285461067a90600160a060020a031681565b60065461067a90600160a060020a031681565b61045a610a3a3660046145c5565b602460209081526000938452604080852082529284528284209052825290205481565b610480610a6b366004614351565b612ef6565b6104eb610a7e366004614521565b60208080526000938452604080852082529284528284209052825290205460ff1681565b610480610ab0366004614693565b612f52565b610480610ac33660046145a1565b612fef565b61045a610ad6366004614571565b60056020526000908152604090205481565b6104bb610af6366004614571565b613183565b61045a610b09366004614571565b60166020526000908152604090205481565b61045a60135481565b610480610b32366004614571565b61344c565b61045a610b45366004614451565b6134ae565b610480610b58366004614451565b6135ce565b61045a60045481565b610480610b74366004614571565b6136fa565b610480610b87366004614351565b61372c565b610480610b9a3660046144a9565b6137e4565b61045a610bad366004614521565b601060209081526000938452604080852082529284528284209052825290205481565b61083f610bde366004614451565b613a46565b6104bb610bf1366004614571565b613a88565b600160a060020a0380831660009081526012602090815260408083208584528252808320548885168452601a835281842094881684529382528083208484528252808320815160608101835281548082526001830154948201949094526002909101549181019190915291929190610c6d42611958565b610c7a8360400151611958565b1015610c93576020820151610c90908290613b41565b90505b979650505050505050565b600a54600090815260096020526040902054421015610cdb5760405160e560020a62461bcd028152600401610cd2906148d1565b60405180910390fd5b600a546000908152600960205260409020544290610cfc9062093a80613b41565b1015610d1d5760405160e560020a62461bcd028152600401610cd290614908565b600160a060020a038316600090815260126020908152604080832085845290915290205483908390610d645760405160e560020a62461bcd028152600401610cd29061493f565b33610d6e81611971565b600160a060020a038216600090815260236020526040812091909155610d9333613b54565b9050848111610de75760405160e560020a62461bcd02815260206004820152601b60248201527f496e73756666696369656e7420626f6e6465642062616c616e636500000000006044820152606401610cd2565b610df333888888613bb0565b600160a060020a0387166000908152601260209081526040808320898452825280832054338452601b8352818420818552909252909120610e3342611958565b610e408260020154611958565b1015610e605760018101548154610e5691613b41565b8155600060018201555b6001810154610e6f9088613b41565b6001820155426002820155336000908152601c6020526040902054610e949088613b41565b336000908152601c6020526040902055505050505050505050565b600080805b6000858152600d6020526040902054811015610f47576000858152600d60205260408120805483908110610efb5760e060020a634e487b7102600052603260045260246000fd5b60009182526020808320600490920290910154878352600e82526040808420828552909252912054909150610f31908490613b41565b9250508080610f3f90614be5565b915050610eb4565b5090505b92915050565b600080610f5d83613a88565b90506000610f6a84611cf0565b9050600080610f7842611958565b905060005b84518110156110a05781858281518110610faa5760e060020a634e487b7102600052603260045260246000fd5b602002602001015110610fbc576110a0565b600061107e670de0b6b3a7640000611078878581518110610ff05760e060020a634e487b7102600052603260045260246000fd5b6020026020010151601060008e600160a060020a0316600160a060020a0316815260200190815260200160002060008d815260200190815260200160002060008b88815181106110535760e060020a634e487b7102600052603260045260246000fd5b6020026020010151815260200190815260200160002054613dff90919063ffffffff16565b90613e0b565b905061108a8482613b41565b935050808061109890614be5565b915050610f7d565b50909695505050505050565b6000818152600d60209081526040808320805482518185028101850190935280835260609493849084015b8282101561113b576000848152602090819020604080516080810182526004860290920180548352600180820154600160a060020a0390811685870152600283015493850193909352600390910154909116606083015290835290920191016110d7565b505050509050805167ffffffffffffffff81111561116c5760e060020a634e487b7102600052604160045260246000fd5b604051908082528060200260200182016040528015611195578160200160208202803683370190505b5091506000806111a485611eb5565b909250905080156112465760005b83518110156112445761120482611078670de0b6b3a76400008685815181106111ee5760e060020a634e487b7102600052603260045260246000fd5b6020026020010151613dff90919063ffffffff16565b8582815181106112275760e060020a634e487b7102600052603260045260246000fd5b60209081029190910101528061123c81614be5565b9150506111b2565b505b505050919050565b600a546000908152600960205260409020544210156112825760405160e560020a62461bcd028152600401610cd2906148d1565b600a5460009081526009602052604090205442906112a39062093a80613b41565b10156112c45760405160e560020a62461bcd028152600401610cd290614908565b600160a060020a03821660009081526012602090815260408083208484529091529020548290829061130b5760405160e560020a62461bcd028152600401610cd29061493f565b3361131581611971565b600160a060020a038281166000908152602360205260408082209390935560285460275493517fc7b1e3f20000000000000000000000000000000000000000000000000000000081526004810194909452336024850152909291169063c7b1e3f290604401602060405180830381600087803b15801561139457600080fd5b505af11580156113a8573d6000803e3d6000fd5b505050506040513d601f19601f820116820180604052508101906113cc9190614589565b90506113da33878784613bb0565b600160a060020a0386166000908152601260209081526040808320888452825280832054338452601b835281842081855290925290912061141a42611958565b6114278260020154611958565b1015611447576001810154815461143d91613b41565b8155600060018201555b60018101546114569084613b41565b6001820155426002820155336000908152601c602052604090205461147b9084613b41565b336000908152601c60205260409020555050505050505050565b816000805b6017548110156115085782600160a060020a0316601782815481106114d25760e060020a634e487b7102600052603260045260246000fd5b600091825260209091200154600160a060020a031614156114f65760019150611508565b8061150081614be5565b91505061149a565b50806115595760405160e560020a62461bcd02815260206004820152601260248201527f496e76616c696420566f746520546f6b656e00000000000000000000000000006044820152606401610cd2565b600a5460009081526009602052604090205442101561158d5760405160e560020a62461bcd028152600401610cd2906148d1565b600a5460009081526009602052604090205442906115ae9062093a80613b41565b10156115cf5760405160e560020a62461bcd028152600401610cd290614908565b600160a060020a0386166000908152601260209081526040808320888452909152902054869086906116165760405160e560020a62461bcd028152600401610cd29061493f565b3361162081611971565b600160a060020a038216600090815260236020526040902055856116595760405160e560020a62461bcd028152600401610cd290614976565b60006116658888613e17565b9050611673338b8b84613bb0565b6040517f23b872dd00000000000000000000000000000000000000000000000000000000815233600482015230602482015260448101889052600160a060020a038916906323b872dd90606401602060405180830381600087803b1580156116da57600080fd5b505af11580156116ee573d6000803e3d6000fd5b505050506040513d601f19601f820116820180604052508101906117129190614555565b50600a5460009081526024602090815260408083203384528252808320600160a060020a038c16845290915290205461174b9088613b41565b600a54600090815260246020908152604080832033808552908352818420600160a060020a038e811680875291855283862096909655948f168452601283528184208e8552835281842054908452601a835281842094845293825280832084845290915290206117ba42611958565b6117c78260020154611958565b10156117e757600181015481546117dd91613b41565b8155600060018201555b60018101546117f6908a613b41565b6001820155426002909101555050505050505050505050565b3361181981611971565b600160a060020a03821660009081526023602052604081209190915561183e33613b54565b90508281116118925760405160e560020a62461bcd02815260206004820152601b60248201527f496e73756666696369656e7420626f6e6465642062616c616e636500000000006044820152606401610cd2565b336000818152601d60209081526040808320815160608101835288815242818501908152818401868152835460018181018655948852868820935160039091029093019283559051928201929092559051600290910155928252601e905220546118fc9084613b41565b336000818152601e6020526040908190209290925590517f7659747cd8571f1071eea946fdc648adcf181cad916f32a05f82c3a5259760489061194b9086904290918252602082015260400190565b60405180910390a2505050565b6000610f4b61196a8362015180613fb5565b8390613fc1565b60008060015b600a5481116119bb576119a761198d85836134ae565b6119a161199a8785610f51565b8590613b41565b90613b41565b9150806119b381614be5565b915050611977565b5092915050565b600054600160a060020a031633146119ef5760405160e560020a62461bcd028152600401610cd2906149ad565b6040517fa9059cbb00000000000000000000000000000000000000000000000000000000815233600482015260248101829052600160a060020a0383169063a9059cbb90604401602060405180830381600087803b158015611a5057600080fd5b505af1158015611a64573d6000803e3d6000fd5b505050506040513d601f19601f82011682018060405250810190611a889190614555565b505050565b33611a9781611971565b600160a060020a038216600090815260236020908152604080832093909355338252601d9052908120805484908110611ae35760e060020a634e487b7102600052603260045260246000fd5b906000526020600020906003020190506000611b1b62015180611078611b0c8560010154611958565b611b1542611958565b90613fc1565b90506000611b3b603c611078856000015485613dff90919063ffffffff16565b90506000611b56846002015483613fc190919063ffffffff16565b600285018390556007546040517fc8773af200000000000000000000000000000000000000000000000000000000815233600482015260248101839052919250600160a060020a03169063c8773af290604401602060405180830381600087803b158015611bc357600080fd5b505af1158015611bd7573d6000803e3d6000fd5b505050506040513d601f19601f82011682018060405250810190611bfb9190614589565b50505050505050565b600d6020528160005260406000208181548110611c2057600080fd5b60009182526020909120600490910201805460018201546002830154600390930154919450600160a060020a0390811693501684565b600b6020526000908152604090208054611c6f90614bad565b80601f0160208091040260200160405190810160405280929190818152602001828054611c9b90614bad565b8015611ce85780601f10611cbd57610100808354040283529160200191611ce8565b820191906000526020600020905b815481529060010190602001808311611ccb57829003601f168201915b505050505081565b60606000611cfd83613a88565b90506000611d0a84612a66565b915050815167ffffffffffffffff811115611d385760e060020a634e487b7102600052604160045260246000fd5b604051908082528060200260200182016040528015611d61578160200160208202803683370190505b50925060005b825181101561124657611d7942611958565b838281518110611d9c5760e060020a634e487b7102600052603260045260246000fd5b60200260200101511115611daf57611246565b6000611de586858481518110611dd85760e060020a634e487b7102600052603260045260246000fd5b6020026020010151610eaf565b90508015611e4a57611e1a816110786002548686815181106111ee5760e060020a634e487b7102600052603260045260246000fd5b858381518110611e3d5760e060020a634e487b7102600052603260045260246000fd5b6020026020010181815250505b5080611e5581614be5565b915050611d67565b600054600160a060020a03163314611e8a5760405160e560020a62461bcd028152600401610cd2906149ad565b600160a060020a03919091166000908152602560205260409020805460ff1916911515919091179055565b6000818152600d60205260408120546060919067ffffffffffffffff811115611ef15760e060020a634e487b7102600052604160045260246000fd5b604051908082528060200260200182016040528015611f1a578160200160208202803683370190505b50915060005b6000848152600d602052604090205481101561202e576008546000858152600b602052604080822090517fe3c6623d0000000000000000000000000000000000000000000000000000000081529192600160a060020a03169163e3c6623d91611f8d91869060040161481f565b604080518083038186803b158015611fa457600080fd5b505afa158015611fb8573d6000803e3d6000fd5b505050506040513d601f19601f82011682018060405250810190611fdc919061447c565b915050808483815181106120035760e060020a634e487b7102600052603260045260246000fd5b60209081029190910101526120188382613b41565b925050808061202690614be5565b915050611f20565b50915091565b6017818154811061204457600080fd5b600091825260209091200154600160a060020a0316905081565b600160a060020a0380831660009081526012602090815260408083208584528252808320549387168352601b825280832084845282528083208151606081018352815480825260018301549482019490945260029091015491810191909152919291906120ca42611958565b6120d78360400151611958565b10156120f05760208201516120ed908290613b41565b90505b9695505050505050565b600054600160a060020a031633146121275760405160e560020a62461bcd028152600401610cd2906149ad565b6121316000613fcd565b565b816000805b6017548110156121a65782600160a060020a0316601782815481106121705760e060020a634e487b7102600052603260045260246000fd5b600091825260209091200154600160a060020a0316141561219457600191506121a6565b8061219e81614be5565b915050612138565b50806121f75760405160e560020a62461bcd02815260206004820152601260248201527f496e76616c696420566f746520546f6b656e00000000000000000000000000006044820152606401610cd2565b600160a060020a03861660009081526012602090815260408083208884529091529020548690869061223e5760405160e560020a62461bcd028152600401610cd29061493f565b3361224881611971565b600160a060020a038216600090815260236020526040902055856122815760405160e560020a62461bcd028152600401610cd290614976565b600061228f33898c8c610bf6565b9050868110156122e45760405160e560020a62461bcd02815260206004820152601460248201527f496e73756666696369656e742062616c616e63650000000000000000000000006044820152606401610cd2565b60006122f08989613e17565b90506122fe338c8c8461402a565b6040517fa9059cbb00000000000000000000000000000000000000000000000000000000815233600482015260248101899052600160a060020a038a169063a9059cbb90604401602060405180830381600087803b15801561235f57600080fd5b505af1158015612373573d6000803e3d6000fd5b505050506040513d601f19601f820116820180604052508101906123979190614555565b50600a5460009081526024602090815260408083203384528252808320600160a060020a038d1684529091529020546123d09089613fc1565b60246000600a548152602001908152602001600020600033600160a060020a0316600160a060020a0316815260200190815260200160002060008b600160a060020a0316600160a060020a03168152602001908152602001600020819055506000601260008d600160a060020a0316600160a060020a0316815260200190815260200160002060008c81526020019081526020016000205490506000601a600033600160a060020a0316600160a060020a0316815260200190815260200160002060008c600160a060020a0316600160a060020a03168152602001908152602001600020600083815260200190815260200160002090506124d042611958565b6124dd8260020154611958565b10156124fd57600181015481546124f391613b41565b8155600060018201555b8054612509908b613fc1565b9055505050505050505050505050565b600a5460009081526009602052604090205442101561254d5760405160e560020a62461bcd028152600401610cd2906148d1565b600a54600090815260096020526040902054429061256e9062093a80613b41565b101561258f5760405160e560020a62461bcd028152600401610cd290614908565b600160a060020a0383166000908152601260209081526040808320858452909152902054839083906125d65760405160e560020a62461bcd028152600401610cd29061493f565b336125e081611971565b600160a060020a03821660009081526023602052604081209190915561260733888861205e565b905084811161265b5760405160e560020a62461bcd02815260206004820152601e60248201527f496e73756666696369656e7420756e766f7461626c652062616c616e636500006044820152606401610cd2565b6126673388888861402a565b600160a060020a0387166000908152601260209081526040808320898452825280832054338452601b83528184208185529092529091206126a742611958565b6126b48260020154611958565b10156126d457600181015481546126ca91613b41565b8155600060018201555b80546126e09088613fc1565b8155336000908152601c6020526040902054610e949088613fc1565b3360009081526025602052604090205460ff16806127245750600054600160a060020a031633145b6127435760405160e560020a62461bcd028152600401610cd2906149e2565b8281146127955760405160e560020a62461bcd02815260206004820152600e60248201527f496e76616c696420706172616d730000000000000000000000000000000000006044820152606401610cd2565b6000858152600d60205260408120905b84811015611bfb57601380549060006127bd83614be5565b9190505550601354601260008888858181106127ec5760e060020a634e487b7102600052603260045260246000fd5b90506020020160208101906128019190614351565b600160a060020a0316600160a060020a0316815260200190815260200160002060008686858181106128465760e060020a634e487b7102600052603260045260246000fd5b9050602002013581526020019081526020016000208190555060008686838181106128845760e060020a634e487b7102600052603260045260246000fd5b90506020020160208101906128999190614351565b600160a060020a0316636352211e8686858181106128ca5760e060020a634e487b7102600052603260045260246000fd5b905060200201356040518263ffffffff1660e060020a0281526004016128f291815260200190565b60206040518083038186803b15801561290a57600080fd5b505afa15801561291e573d6000803e3d6000fd5b505050506040513d601f19601f82011682018060405250810190612942919061436d565b9050826040518060800160405280601354815260200189898681811061297b5760e060020a634e487b7102600052603260045260246000fd5b90506020020160208101906129909190614351565b600160a060020a031681526020018787868181106129c15760e060020a634e487b7102600052603260045260246000fd5b60209081029290920135835250600160a060020a03948516918101919091528254600181810185556000948552828520845160049093020191825583830151908201805491871673ffffffffffffffffffffffffffffffffffffffff1992831617905560408085015160028401556060909401516003909201805492909616911617909355601354825260169092522087905580612a5e81614be5565b9150506127a5565b6060806000612a7484613a88565b9050805167ffffffffffffffff811115612aa15760e060020a634e487b7102600052604160045260246000fd5b604051908082528060200260200182016040528015612aca578160200160208202803683370190505b509250805167ffffffffffffffff811115612af85760e060020a634e487b7102600052604160045260246000fd5b604051908082528060200260200182016040528015612b21578160200160208202803683370190505b50915060005b8151811015612d39576000612b5986848481518110611dd85760e060020a634e487b7102600052603260045260246000fd5b600087815260056020526040902054909150612b819061107883670de0b6b3a7640000613dff565b858381518110612ba45760e060020a634e487b7102600052603260045260246000fd5b602002602001018181525050670429d069189e0000858381518110612bdc5760e060020a634e487b7102600052603260045260246000fd5b60200260200101511015612c27576702c68af0bb140000848381518110612c165760e060020a634e487b7102600052603260045260246000fd5b602002602001018181525050612d26565b670429d069189e0000858381518110612c535760e060020a634e487b7102600052603260045260246000fd5b602002602001015110158015612c9a57506709b6e64a8ec60000858381518110612c905760e060020a634e487b7102600052603260045260246000fd5b6020026020010151105b15612ced57848281518110612cc25760e060020a634e487b7102600052603260045260246000fd5b6020026020010151848381518110612c165760e060020a634e487b7102600052603260045260246000fd5b670de0b6b3a7640000848381518110612d195760e060020a634e487b7102600052603260045260246000fd5b6020026020010181815250505b5080612d3181614be5565b915050612b27565b5050915091565b600054600160a060020a03163314612d6d5760405160e560020a62461bcd028152600401610cd2906149ad565b6008805473ffffffffffffffffffffffffffffffffffffffff1916600160a060020a0392909216919091179055565b6000818152600d602052604090205460609067ffffffffffffffff811115612dd75760e060020a634e487b7102600052604160045260246000fd5b604051908082528060200260200182016040528015612e00578160200160208202803683370190505b50905060005b6000838152600d6020526040902054811015612ef05760008381526014602052604090205415612ede57600083815260146020908152604080832054600354600d9093529083208054612eae94929361107893909260159288908110612e7f5760e060020a634e487b7102600052603260045260246000fd5b906000526020600020906004020160000154815260200190815260200160002054613dff90919063ffffffff16565b828281518110612ed15760e060020a634e487b7102600052603260045260246000fd5b6020026020010181815250505b80612ee881614be5565b915050612e06565b50919050565b600054600160a060020a03163314612f235760405160e560020a62461bcd028152600401610cd2906149ad565b6026805473ffffffffffffffffffffffffffffffffffffffff1916600160a060020a0392909216919091179055565b3360009081526025602052604090205460ff1680612f7a5750600054600160a060020a031633145b612f995760405160e560020a62461bcd028152600401610cd2906149e2565b600a8054906000612fa983614be5565b9091555050600a80546000908152600960209081526040808320879055835483526005825280832088905592548252600b905220612fe890838361426f565b5050505050565b600082815260096020526040902054429061300d9062093a80614a19565b1061305d5760405160e560020a62461bcd02815260206004820152601060248201527f566f7465206973206e6f74206f766572000000000000000000000000000000006044820152606401610cd2565b60008281526024602090815260408083203384528252808320600160a060020a0385168452909152902054806130a85760405160e560020a62461bcd028152600401610cd290614976565b6040517fa9059cbb00000000000000000000000000000000000000000000000000000000815233600482015260248101829052600160a060020a0383169063a9059cbb90604401602060405180830381600087803b15801561310957600080fd5b505af115801561311d573d6000803e3d6000fd5b505050506040513d601f19601f820116820180604052508101906131419190614555565b5060408051600160a060020a03841681526020810183905233917fd12200efa34901b99367694174c3b0d32c99585fdf37c7c26892136ddd0836d9910161194b565b60606000613190836110ac565b90506000600d6000858152602001908152602001600020805480602002602001604051908101604052809291908181526020016000905b8282101561322b576000848152602090819020604080516080810182526004860290920180548352600180820154600160a060020a0390811685870152600283015493850193909352600390910154909116606083015290835290920191016131c7565b505050509050805167ffffffffffffffff81111561325c5760e060020a634e487b7102600052604160045260246000fd5b604051908082528060200260200182016040528015613285578160200160208202803683370190505b509250600061329385612a66565b91505060006132f0670de0b6b3a764000061107884600186516132b69190614b96565b815181106132d75760e060020a634e487b7102600052603260045260246000fd5b6020026020010151600454613dff90919063ffffffff16565b905060005b835181101561344257601560008583815181106133255760e060020a634e487b7102600052603260045260246000fd5b6020026020010151600001518152602001908152602001600020546000141561337e57600086828151811061336d5760e060020a634e487b7102600052603260045260246000fd5b602002602001018181525050613430565b613400601560008684815181106133a85760e060020a634e487b7102600052603260045260246000fd5b6020026020010151600001518152602001908152602001600020546110788784815181106133e95760e060020a634e487b7102600052603260045260246000fd5b602002602001015185613dff90919063ffffffff16565b8682815181106134235760e060020a634e487b7102600052603260045260246000fd5b6020026020010181815250505b8061343a81614be5565b9150506132f5565b5050505050919050565b3360009081526025602052604090205460ff16806134745750600054600160a060020a031633145b6134935760405160e560020a62461bcd028152600401610cd2906149e2565b6000908152600c60205260409020805460ff19166001179055565b6000818152600c602052604081205460ff166134cc57506000610f4b565b6000806134d884613183565b905060005b6000858152600d60205260409020548110156135c457600160a060020a0386166000908152601160209081526040808320888452600d909252822080548391908590811061353e5760e060020a634e487b7102600052603260045260246000fd5b90600052602060002090600402016000015481526020019081526020016000205490506135ae846119a1670de0b6b3a76400006110788787815181106135975760e060020a634e487b7102600052603260045260246000fd5b602002602001015186613dff90919063ffffffff16565b93505080806135bc90614be5565b9150506134dd565b5090949350505050565b3360009081526025602052604090205460ff16806135f65750600054600160a060020a031633145b6136155760405160e560020a62461bcd028152600401610cd2906149e2565b600160a060020a03821660009081526018602052604081208290555b60175481101561369b5782600160a060020a0316601782815481106136695760e060020a634e487b7102600052603260045260246000fd5b600091825260209091200154600160a060020a0316141561368957505050565b8061369381614be5565b915050613631565b50601780546001810182556000919091527fc624b66cc0138b8fabc209247f72d758e1cf3343756d543badbf24212bed8c15018054600160a060020a03841673ffffffffffffffffffffffffffffffffffffffff199091161790555050565b600054600160a060020a031633146137275760405160e560020a62461bcd028152600401610cd2906149ad565b602755565b600054600160a060020a031633146137595760405160e560020a62461bcd028152600401610cd2906149ad565b600160a060020a0381166137d85760405160e560020a62461bcd02815260206004820152602660248201527f4f776e61626c653a206e6577206f776e657220697320746865207a65726f206160448201527f64647265737300000000000000000000000000000000000000000000000000006064820152608401610cd2565b6137e181613fcd565b50565b602654600160a060020a031633146138415760405160e560020a62461bcd02815260206004820152600960248201527f466f7262696464656e00000000000000000000000000000000000000000000006044820152606401610cd2565b600160a060020a03831660009081526012602090815260408083208584528252808320548084526016835281842054602290935292205460ff16156138cb5760405160e560020a62461bcd02815260206004820152600760248201527f436c61696d6564000000000000000000000000000000000000000000000000006044820152606401610cd2565b6000805b6000838152600d602052604090205481101561397d576000838152600d602052604090208054859190839081106139195760e060020a634e487b7102600052603260045260246000fd5b906000526020600020906004020160000154141561396b5761393a83612d9c565b818151811061395c5760e060020a634e487b7102600052603260045260246000fd5b6020026020010151915061397d565b8061397581614be5565b9150506138cf565b508015613a3e576007546040517fc8773af2000000000000000000000000000000000000000000000000000000008152600160a060020a038681166004830152602482018490529091169063c8773af290604401602060405180830381600087803b1580156139eb57600080fd5b505af11580156139ff573d6000803e3d6000fd5b505050506040513d601f19601f82011682018060405250810190613a239190614589565b506000838152602260205260409020805460ff191660011790555b505050505050565b601d6020528160005260406000208181548110613a6257600080fd5b600091825260209091206003909102018054600182015460029092015490935090915083565b60008181526009602052604090819020548151600780825261010082019093526060928160200160208202803683370190505091506000613ac882611958565b905060005b600781101561124657613b01613ae4826018614b36565b613aef90603c614b36565b613afa90603c614b36565b8390613b41565b848281518110613b245760e060020a634e487b7102600052603260045260246000fd5b602090810291909101015280613b3981614be5565b915050613acd565b6000613b4d8284614a19565b9392505050565b600160a060020a038116600090815260236020908152604080832054601e835281842054601c9093529083205490918391613b8e91613b41565b9050808211613b9e576000613ba8565b613ba88282613fc1565b949350505050565b6000613bbb42611958565b90506000613bca600a54613a88565b600160a060020a03861660009081526012602090815260408083208884529091528120549192505b8251811015613df55783838281518110613c1f5760e060020a634e487b7102600052603260045260246000fd5b602002602001015110613de3576000838281518110613c515760e060020a634e487b7102600052603260045260246000fd5b6020908102919091018101516000818152600e835260408082208783529093529190912054909150613c839087613b41565b6000828152600e60209081526040808320878452825280832093909355600160a060020a038c168252600f8152828220848352815282822086835290522054613ccc9087613b41565b600160a060020a038a166000818152600f60209081526040808320868452825280832088845282528083209490945591815260108252828120600a54825282528281208482529091522054613d219087613b41565b600160a060020a038a166000818152601060209081526040808320600a5484528252808320868452825280832094909455918152601182528281208682529091522054613d6e9087613b41565b600160a060020a038a166000908152601160209081526040808320878452825280832093909355601590522054613da59087613b41565b600084815260156020908152604080832093909355600a548252601490522054613dcf9087613b41565b600a54600090815260146020526040902055505b80613ded81614be5565b915050613bf2565b5050505050505050565b6000613b4d8284614b36565b6000613b4d8284614a31565b600080600660009054906101000a9004600160a060020a0316600160a060020a031663313ce5676040518163ffffffff1660e060020a02815260040160206040518083038186803b158015613e6b57600080fd5b505afa158015613e7f573d6000803e3d6000fd5b505050506040513d601f19601f82011682018060405250810190613ea3919061470e565b84600160a060020a031663313ce5676040518163ffffffff1660e060020a02815260040160206040518083038186803b158015613edf57600080fd5b505afa158015613ef3573d6000803e3d6000fd5b505050506040513d601f19601f82011682018060405250810190613f17919061470e565b613f219190614b55565b905060008160000b12613f6d57613f65613f3c82600a614a8a565b601954600160a060020a0387166000908152601860205260409020546110789190829088613dff565b915050610f4b565b613f65613f7982614c14565b613f8490600a614a8a565b601954600160a060020a038716600090815260186020526040902054613faf91906110789088613dff565b90613dff565b6000613b4d8284614c00565b6000613b4d8284614b96565b60008054600160a060020a0383811673ffffffffffffffffffffffffffffffffffffffff19831681178455604051919092169283917f8be0079c531659141344cd1fd0a4f28419497f9722a3daafe3b4186f6b6457e09190a35050565b600061403542611958565b90506000614044600a54613a88565b600160a060020a03861660009081526012602090815260408083208884529091528120549192505b8251811015613df557838382815181106140995760e060020a634e487b7102600052603260045260246000fd5b60200260200101511061425d5760008382815181106140cb5760e060020a634e487b7102600052603260045260246000fd5b6020908102919091018101516000818152600e8352604080822087835290935291909120549091506140fd9087613fc1565b6000828152600e60209081526040808320878452825280832093909355600160a060020a038c168252600f81528282208483528152828220868352905220546141469087613fc1565b600160a060020a038a166000818152600f60209081526040808320868452825280832088845282528083209490945591815260108252828120600a5482528252828120848252909152205461419b9087613fc1565b600160a060020a038a166000818152601060209081526040808320600a54845282528083208684528252808320949094559181526011825282812086825290915220546141e89087613fc1565b600160a060020a038a16600090815260116020908152604080832087845282528083209390935560159052205461421f9087613fc1565b600084815260156020908152604080832093909355600a5482526014905220546142499087613fc1565b600a54600090815260146020526040902055505b8061426781614be5565b91505061406c565b82805461427b90614bad565b90600052602060002090601f01602090048101928261429d57600085556142e3565b82601f106142b65782800160ff198235161785556142e3565b828001600101855582156142e3579182015b828111156142e35782358255916020019190600101906142c8565b506142ef9291506142f3565b5090565b5b808211156142ef57600081556001016142f4565b60008083601f840112614319578182fd5b50813567ffffffffffffffff811115614330578182fd5b602083019150836020808302850101111561434a57600080fd5b9250929050565b600060208284031215614362578081fd5b8135613b4d81614c64565b60006020828403121561437e578081fd5b8151613b4d81614c64565b6000806000806080858703121561439e578283fd5b84356143a981614c64565b935060208501356143b981614c64565b925060408501356143c981614c64565b9396929550929360600135925050565b6000806000606084860312156143ed578283fd5b83356143f881614c64565b9250602084013561440881614c64565b929592945050506040919091013590565b6000806040838503121561442b578182fd5b823561443681614c64565b9150602083013561444681614c79565b809150509250929050565b60008060408385031215614463578182fd5b823561446e81614c64565b946020939093013593505050565b6000806040838503121561448e578182fd5b825161449981614c64565b6020939093015192949293505050565b6000806000606084860312156144bd578283fd5b83356144c881614c64565b92506020840135915060408401356144df81614c64565b809150509250925092565b600080600080608085870312156144ff578384fd5b843561450a81614c64565b93506020850135925060408501356143c981614c64565b600080600060608486031215614535578283fd5b833561454081614c64565b95602085013595506040909401359392505050565b600060208284031215614566578081fd5b8151613b4d81614c79565b600060208284031215614582578081fd5b5035919050565b60006020828403121561459a578081fd5b5051919050565b600080604083850312156145b3578182fd5b82359150602083013561444681614c64565b6000806000606084860312156145d9578081fd5b8335925060208401356145eb81614c64565b915060408401356144df81614c64565b600080600080600060608688031215614612578283fd5b85359450602086013567ffffffffffffffff80821115614630578485fd5b61463c89838a01614308565b90965094506040880135915080821115614654578283fd5b5061466188828901614308565b969995985093965092949392505050565b60008060408385031215614684578182fd5b50508035926020909101359150565b600080600080606085870312156146a8578182fd5b8435935060208501359250604085013567ffffffffffffffff808211156146cd578384fd5b818701915087601f8301126146e0578384fd5b8135818111156146ee578485fd5b8860208285010111156146ff578485fd5b95989497505060200194505050565b60006020828403121561471f578081fd5b815160ff81168114613b4d578182fd5b6000815180845260208085019450808401835b8381101561475e57815187529582019590820190600101614742565b509495945050505050565b602081526000613b4d602083018461472f565b60408152600061478f604083018561472f565b82810360208401526147a1818561472f565b95945050505050565b6040815260006147bd604083018561472f565b90508260208301529392505050565b6000602080835283518082850152825b818110156147f8578581018301518582016040015282016147dc565b818111156148095783604083870101525b50601f01601f1916929092016040019392505050565b60408152825460009081906002810460018083168061483f57607f831692505b60208084108214156148625760e060020a634e487b710287526022600452602487fd5b60408801849052606088018280156148815760018114614892576148bc565b60ff198716825282820197506148bc565b60008c815260209020895b878110156148b65781548482015290860190840161489d565b83019850505b50509690960196909652509095945050505050565b60208082526013908201527f566f74696e67206973206e6f7420737461727400000000000000000000000000604082015260600190565b6020808252600e908201527f566f74696e67206973206f766572000000000000000000000000000000000000604082015260600190565b6020808252600b908201527f496e76616c6964204e4654000000000000000000000000000000000000000000604082015260600190565b6020808252600e908201527f416d6f756e74206973207a65726f000000000000000000000000000000000000604082015260600190565b6020808252818101527f4f776e61626c653a2063616c6c6572206973206e6f7420746865206f776e6572604082015260600190565b6020808252600c908201527f4e6f74206f70657261746f720000000000000000000000000000000000000000604082015260600190565b60008219821115614a2c57614a2c614c32565b500190565b600082614a4057614a40614c4b565b500490565b600181815b80851115614a82578160001904821115614a6657614a66614c32565b80851615614a7357918102915b60029094049390800290614a4a565b509250929050565b6000613b4d60ff841683600082614aa357506001610f4b565b81614ab057506000610f4b565b8160018114614ac65760028114614ad057614aed565b6001915050610f4b565b60ff841115614ae157614ae1614c32565b8360020a915050610f4b565b5060208310610133831016604e8410600b8410161715614b10575081810a610f4b565b614b1a8383614a45565b8060001904821115614b2e57614b2e614c32565b029392505050565b6000816000190483118215151615614b5057614b50614c32565b500290565b600081810b83820b8281128015607f19830184121615614b7757614b77614c32565b81607f018313811615614b8c57614b8c614c32565b5090039392505050565b600082821015614ba857614ba8614c32565b500390565b600281046001821680614bc157607f821691505b60208210811415612ef05760e060020a634e487b7102600052602260045260246000fd5b6000600019821415614bf957614bf9614c32565b5060010190565b600082614c0f57614c0f614c4b565b500690565b600081810b607f19811415614c2b57614c2b614c32565b9003919050565b60e060020a634e487b7102600052601160045260246000fd5b60e060020a634e487b7102600052601260045260246000fd5b600160a060020a03811681146137e157600080fd5b80151581146137e157600080fdfea2646970667358221220e2a7a03e8f163277a896792f3c4faafc53774c7e2db77074706acfadf0695d7464736f6c63430008040033",
  "immutableReferences": {},
  "source": "// SPDX-License-Identifier: MIT\npragma solidity ^0.8.0;\n\nimport \"@openzeppelin/contracts/access/Ownable.sol\";\nimport \"@openzeppelin/contracts/utils/math/SafeMath.sol\";\nimport \"@openzeppelin/contracts/token/ERC20/IERC20.sol\";\nimport \"@openzeppelin/contracts/token/ERC721/IERC721.sol\";\nimport \"@openzeppelin/contracts/token/ERC20/extensions/IERC20Metadata.sol\";\n\n\ninterface ITreasury {\n\tfunction sendRewards(address to, uint256 amount) external returns(uint256 val);\n\tfunction uink() external view returns(address);\n}\n\ninterface IAuction {\n\tfunction matchResults(string calldata matchId, uint index) external view returns(address, uint);\n}\n\ninterface ITokenLocker {\n\tfunction subLockForVote(uint256 lockId, address accountAddress) external returns(uint);\n}\n\n\ncontract VoteMining is Ownable {\n\tusing SafeMath for uint256;\n\n\tuint public weeklyCap = 50000 * 1e12;\n\tuint public dailyVoteRewardCap = weeklyCap / 7 / 4; // 25% of daily cap \n\tuint public dailyMintRewardCap = weeklyCap / 7 / 4; // 25% of daily cap \n\tuint public bonusCap = weeklyCap  / 2; // 50% of weekly cap\n\t// group id => amount\n\tmapping (uint => uint) public stakingBases;\n\n\n\taddress public uink;\n\tITreasury public treasury;\n\taddress public auction;\n\n\tstruct NFT {\n\t\tuint uid;\n\t\taddress addr;\n\t\tuint id;\n\t\taddress owner;\n\t}\n\t// id => start time\n\tmapping (uint => uint) public groups;\n\tuint public currentGroupId = 0;\n\t// group id => matchId\n\tmapping (uint => string) public matches;\n\t// group id => finished or not\n\tmapping (uint => bool) public hasFinished;\n\t\n\t\n\t// group id => NFT[]\n\tmapping (uint => NFT[]) public groupNFTs;\n\n\t// date => NFT uid => votes\n\tmapping (uint => mapping (uint => uint)) public dayVotes;\n\n\t// user => date => NFT id => amount\n\tmapping (address => mapping (uint => mapping (uint => uint))) public userVotes;\n\n\t// user => groupId => date => votes\n\tmapping (address => mapping (uint => mapping (uint => uint))) public userDailyVotes;\n\n\t// user => nft uid => votes \n\tmapping (address => mapping (uint => uint)) public userNFTVotes;\n\t\n\n\t// nft address => nftId => internal id\n\tmapping (address => mapping (uint => uint)) public nfts;\n\tuint public nextNFTId = 0;\n\n\t// group id => votes\n\tmapping (uint => uint) public groupVotes;\n\n\t// uid => votes\n\tmapping (uint => uint) public nftVotes;\n\n\t// date => votes\n\t// mapping (uint => uint) public dailyTotalVotes;\n\t\n\n\t// uid => group id\n\tmapping (uint => uint) public nftGroup;\n\t\n\taddress[] public voteTokens;\n\t// token => ratio\n\tmapping (address => uint) public voteRatio;\n\n\tuint public voteRatioMax = 10000;\n\t\n\n\tstruct Balance {\n\t\tuint available;\n\t\tuint freezed;\n\t\tuint votedAt;\n\t}\n\n\tstruct UnbondingBalance {\n\t\tuint value;\n\t\tuint unbondedAt;\n\t\tuint redeemed;\n\t}\n\n\t// user => token => uid => Balance\n\tmapping (address => mapping (address => mapping (uint => Balance))) public balances;\n\n\t// user => uid => Balance\n\tmapping (address => mapping (uint => Balance)) public votedBalances; // bonded voted balance\n\t\n\t// user => bonded amount\n\tmapping (address => uint) public totalVotedBalances;\n\n\t// user => UnbondingBalance[]\n\tmapping (address => UnbondingBalance[]) public unbondingBalances;\n\t\n\t// user => total unbonded amount\n\tmapping (address => uint) public unbondedBalances;\n\t\n\n\t\n\t// uid => price\n\tmapping (uint => uint) public nftTradedPrices;\n\t// user => group => date => bool\n\tmapping (address => mapping (uint => mapping (uint => bool))) public voteRewardsClaimed;\n\t// user = > group id => bool\n\tmapping (address => mapping (uint => bool)) public bonusRewardsClaimed;\n\t// nft uid => bool\n\tmapping (uint => bool) public mintRewardsClaimed;\n\n\tmapping (address => uint) private userRewards;\n\n\t// groupId => user => token => balance\n\tmapping (uint => mapping (address => mapping (address => uint))) public groupTokenBalances;\n\t\n\t\n\t\n\n\tmapping (address => bool) public operators;\n\n\taddress public pinAddress;\n\n\tuint public tokenLockId = 0;\n\n\taddress public tokenLocker;\n\n\tevent Redeem(address indexed user, address token, uint amount);\n\tevent Unbond(address indexed user, uint amount, uint at);\n\n\t\n\n\tmodifier checkNFT(address nftAddr, uint nftId) { \n\t\trequire(nfts[nftAddr][nftId] > 0, \"Invalid NFT\");\n\t\t_; \n\t}\n\n\tmodifier onlyPin() { \n\t\trequire(msg.sender == pinAddress, \"Forbidden\"); \n\t\t_; \n\t}\n\n\tmodifier onlyOperator() { \n\t\trequire (operators[msg.sender] || owner() == _msgSender(), \"Not operator\"); \n\t\t_; \n\t}\n\t\n\t\n\n\tmodifier checkVotingTime() { \n\t\trequire(groups[currentGroupId] <= block.timestamp, \"Voting is not start\");\n\t\trequire(groups[currentGroupId].add(7 days) >= block.timestamp, \"Voting is over\");\n\t\t_; \n\t}\n\n\tmodifier checkVoteToken(address _token) { \n\t\tbool isValid = false;\n\t\tfor(uint i = 0; i < voteTokens.length; i++) {\n\t\t\tif(voteTokens[i] == _token) {\n\t\t\t\tisValid = true;\n\t\t\t\tbreak;\n\t\t\t}\n\t\t}\n\t\trequire(isValid, \"Invalid Vote Token\");\n\t\t_; \n\t}\n\n\tmodifier updateReward(address user) {\n\t\tuserRewards[user] = getTotalRewards(user);\n\t\t_; \n\t}\n\t\n\n\tconstructor(address _treasury, address _tokenLocker){\n\t\ttreasury = ITreasury(_treasury);\n\t\tuink = treasury.uink();\n\t\ttokenLocker = _tokenLocker;\n\n\t\tvoteTokens.push(uink);\n\t\tvoteRatio[uink] = voteRatioMax;\n\t}\n\n\tfunction addVoteToken(address _token, uint _ratio) external onlyOperator {\n\t\tvoteRatio[_token] = _ratio;\n\t\tfor(uint i = 0; i < voteTokens.length; i++) {\n\t\t\tif(voteTokens[i] == _token) {\n\t\t\t\treturn;\n\t\t\t}\n\t\t}\n\t\tvoteTokens.push(_token);\n\t}\n\n\tfunction setAuctionAddress(address _auction) external onlyOwner {\n\t\tauction = _auction;\n\t}\n\n\tfunction setPinAddress(address _pin) external onlyOwner {\n\t\tpinAddress = _pin;\n\t}\n\n\tfunction setTokenLockId(uint lockId) external onlyOwner {\n\t\ttokenLockId = lockId;\n\t}\n\n\tfunction setOperator(address operator, bool isOperator) external onlyOwner {\n\t\toperators[operator] = isOperator;\n\t}\n\n\tfunction addGroup(uint stakingBase, uint startTime, string calldata matchId) external onlyOperator {\n\t\tcurrentGroupId++;\n\t\tgroups[currentGroupId] = startTime;\n\t\tstakingBases[currentGroupId] = stakingBase;\n\t\tmatches[currentGroupId] = matchId;\n\t}\n\n\tfunction addNFT(uint groupId, address[] calldata nftAddrs, uint[] calldata nftIds) external onlyOperator {\n\t\trequire(nftAddrs.length == nftIds.length, \"Invalid params\");\n\t\tNFT[] storage inputNFTs = groupNFTs[groupId];\n\n\t\tfor(uint i = 0; i < nftAddrs.length; i++) {\n\t\t\tnextNFTId++;\n\t\t\tnfts[nftAddrs[i]][nftIds[i]] = nextNFTId;\n\t\t\taddress nftOwner = IERC721(nftAddrs[i]).ownerOf(nftIds[i]);\n\t\t\tinputNFTs.push(NFT({\n\t\t\t\tuid: nextNFTId,\n\t\t\t\taddr: nftAddrs[i],\n\t\t\t\tid: nftIds[i],\n\t\t\t\towner: nftOwner\n\t\t\t}));\n\t\t\tnftGroup[nextNFTId] = groupId;\n\t\t}\n\t}\n\n\tfunction getAuctionPrices(uint groupId) public view returns(uint[] memory prices, uint totalAmount) {\n\t\tprices = new uint[](groupNFTs[groupId].length);\n\t\tfor(uint i = 0; i < groupNFTs[groupId].length; i++) {\n\t\t\t(, uint price) = IAuction(auction).matchResults(matches[groupId], i);\n\t\t\tprices[i] = price;\n\t\t\ttotalAmount = totalAmount.add(price);\n\t\t}\n\t}\n\n\t\n\tfunction getDate(uint256 ts) public pure returns(uint256) {\n\t\treturn ts.sub(ts.mod(1 days));\n\t}\n\n\tfunction getVotableDates(uint groupId) public view returns(uint[] memory dates) {\n\t\tuint start = groups[groupId];\n\t\tdates = new uint[](7);\n\t\tuint firstDate = getDate(start);\n\t\tfor(uint i = 0; i < 7; i++) {\n\t\t\tdates[i] = firstDate.add(i * 24 * 60 * 60);\n\t\t}\n\t}\n\n\tfunction _vote(address user, address nftAddr, uint nftId, uint votes) internal {\n\t\tuint today = getDate(block.timestamp);\n\t\tuint[] memory dates = getVotableDates(currentGroupId);\n\t\tuint uid = nfts[nftAddr][nftId];\n\n\t\tfor(uint i = 0; i < dates.length; i++) {\n\t\t\tif(dates[i] >= today) {\n\t\t\t\tuint date = dates[i];\n\t\t\t\tdayVotes[date][uid] = dayVotes[date][uid].add(votes);\n\t\t\t\tuserVotes[user][date][uid] = userVotes[user][date][uid].add(votes);\n\t\t\t\tuserDailyVotes[user][currentGroupId][date] = userDailyVotes[user][currentGroupId][date].add(votes);\n\t\t\t\tuserNFTVotes[user][uid] = userNFTVotes[user][uid].add(votes);\n\t\t\t\t\n\t\t\t\tnftVotes[uid] = nftVotes[uid].add(votes);\n\t\t\t\tgroupVotes[currentGroupId] = groupVotes[currentGroupId].add(votes);\n\t\t\t}\n\t\t}\n\t\t\n\t}\n\n\n\tfunction _unvote(address user, address nftAddr, uint nftId, uint votes) internal {\n\t\tuint today = getDate(block.timestamp);\n\t\tuint[] memory dates = getVotableDates(currentGroupId);\n\t\tuint uid = nfts[nftAddr][nftId];\n\n\t\tfor(uint i = 0; i < dates.length; i++) {\n\t\t\tif(dates[i] >= today) {\n\t\t\t\tuint date = dates[i];\n\t\t\t\tdayVotes[date][uid] = dayVotes[date][uid].sub(votes);\n\t\t\t\tuserVotes[user][date][uid] = userVotes[user][date][uid].sub(votes);\n\t\t\t\tuserDailyVotes[user][currentGroupId][date] = userDailyVotes[user][currentGroupId][date].sub(votes);\n\t\t\t\tuserNFTVotes[user][uid] = userNFTVotes[user][uid].sub(votes);\n\t\t\t\t\n\t\t\t\tnftVotes[uid] = nftVotes[uid].sub(votes);\n\t\t\t\tgroupVotes[currentGroupId] = groupVotes[currentGroupId].sub(votes);\n\t\t\t}\n\t\t}\n\t\t\n\t}\n\n\tfunction calcVotes(address token, uint amount) internal view returns(uint256) {\n\t\tint8 delta = int8(IERC20Metadata(token).decimals()) - int8(IERC20Metadata(uink).decimals());\n\t\tif(delta >= 0) {\n\t\t\treturn voteRatio[token].mul(amount).div(voteRatioMax).div(10 ** uint8(delta));\n\t\t} else {\n\t\t\treturn voteRatio[token].mul(amount).div(voteRatioMax).mul(10 ** uint8(-delta));\n\t\t}\n\t}\n\n\tfunction getAvailableBalance(address user, address token, address nftAddr, uint nftId) public view returns(uint256) {\n\t\tuint uid = nfts[nftAddr][nftId];\n\t\tBalance memory balance = balances[user][token][uid];\n\t\tuint available = balance.available;\n\t\tif(getDate(balance.votedAt) < getDate(block.timestamp)) {\n\t\t\tavailable = available.add(balance.freezed);\n\t\t}\n\t\treturn available;\n\t}\n\n\t// stake and vote\n\tfunction stake(address nftAddr, uint nftId, address token, uint amount)\n\t\texternal \n\t\tcheckVoteToken(token)\n\t\tcheckVotingTime\n\t\tcheckNFT(nftAddr, nftId)\n\t\tupdateReward(msg.sender)\n\t{\n\t\trequire(amount > 0, \"Amount is zero\");\n\t\tuint votes = calcVotes(token, amount);\n\t\t_vote(msg.sender, nftAddr, nftId, votes);\n\n\t\tIERC20(token).transferFrom(msg.sender, address(this), amount);\n\t\tgroupTokenBalances[currentGroupId][msg.sender][token] = groupTokenBalances[currentGroupId][msg.sender][token].add(amount);\n\n\t\tuint uid = nfts[nftAddr][nftId];\n\n\n\t\tBalance storage balance = balances[msg.sender][token][uid];\n\t\tif(getDate(balance.votedAt) < getDate(block.timestamp)) {\n\t\t\tbalance.available = balance.available.add(balance.freezed);\n\t\t\tbalance.freezed = 0;\n\t\t}\n\t\tbalance.freezed = balance.freezed.add(amount);\n\t\tbalance.votedAt = block.timestamp;\n\t}\n\n\tfunction unstake(address nftAddr, uint nftId, address token, uint amount)\n\t\texternal \n\t\tcheckVoteToken(token)\n\t\tcheckNFT(nftAddr, nftId)\n\t\tupdateReward(msg.sender)\n\t{\n\t\trequire(amount > 0, \"Amount is zero\");\n\t\t\n\t\tuint available = getAvailableBalance(msg.sender, token, nftAddr, nftId);\n\t\trequire(available >= amount, \"Insufficient balance\");\n\n\t\tuint votes = calcVotes(token, amount);\n\t\t_unvote(msg.sender, nftAddr, nftId, votes);\n\n\t\tIERC20(token).transfer(msg.sender, amount);\n\n\t\tgroupTokenBalances[currentGroupId][msg.sender][token] = groupTokenBalances[currentGroupId][msg.sender][token].sub(amount);\n\n\t\tuint uid = nfts[nftAddr][nftId];\n\t\tBalance storage balance = balances[msg.sender][token][uid];\n\t\tif(getDate(balance.votedAt) < getDate(block.timestamp)) {\n\t\t\tbalance.available = balance.available.add(balance.freezed);\n\t\t\tbalance.freezed = 0;\n\t\t}\n\t\tbalance.available = balance.available.sub(amount);\n\t}\n\n\t// redeem token after vote finished\n\tfunction redeemToken(uint groupId, address token) external {\n\t\trequire(groups[groupId] + 7 days < block.timestamp, \"Vote is not over\");\n\t\tuint amount = groupTokenBalances[groupId][msg.sender][token];\n\t\trequire(amount > 0, \"Amount is zero\");\n\t\tIERC20(token).transfer(msg.sender, amount);\n\t\temit Redeem(msg.sender, token, amount);\n\t}\n\n\tfunction rescueToken(address token, uint amount) external onlyOwner {\n\t\tIERC20(token).transfer(msg.sender, amount);\n\t}\n\n\tfunction getTotalRewards(address user) public view returns(uint) {\n\t\tuint rewards = 0;\n\t\tfor(uint groupId = 1; groupId <= currentGroupId; groupId++) {\n\t\t\trewards = rewards.add(getBaseRewards(user, groupId)).add(getAuctionRewards(user, groupId));\n\t\t}\n\t\treturn rewards;\n\t}\n\n\tfunction getBaseRewards(address user, uint groupId) public view returns(uint) {\n\t\tuint[] memory dates = getVotableDates(groupId);\n\t\tuint[] memory rawardRates = getBaseRewardRates(groupId);\n\t\tuint rewards = 0;\n\t\tuint today = getDate(block.timestamp);\n\n\t\tfor(uint i = 0; i < dates.length; i++) {\n\t\t\tif(dates[i] >= today) {\n\t\t\t\tbreak;\n\t\t\t}\n\t\t\tuint dayRewards = userDailyVotes[user][groupId][dates[i]].mul(rawardRates[i]).div(1e18);\n\t\t\trewards = rewards.add(dayRewards);\n\t\t}\n\t\treturn rewards;\n\t}\n\n\tfunction getAuctionRewards(address user, uint groupId) public view returns(uint) {\n\t\tif(!hasFinished[groupId]) {\n\t\t\treturn 0;\n\t\t}\n\t\tuint rewards = 0;\n\t\tuint[] memory rewardRates = getAuctionRewardRates(groupId);\n\t\tfor(uint i = 0; i < groupNFTs[groupId].length; i++) {\n\t\t\tuint votes = userNFTVotes[user][groupNFTs[groupId][i].uid];\n\t\t\trewards = votes.mul(rewardRates[i]).div(1e18).add(rewards);\n\t\t}\n\t\treturn rewards;\n\t}\n\n\tfunction getBondedBalance(address user) internal view returns(uint) {\n\t\tuint rewards = userRewards[user];\n\t\tuint freezedBalance = totalVotedBalances[user].add(unbondedBalances[user]);\n\t\treturn rewards > freezedBalance ? rewards.sub(freezedBalance) : 0;\n\t}\n\n\tfunction getUnvotableBalance(address user, address nftAddr, uint nftId) public view returns(uint256) {\n\t\tuint uid = nfts[nftAddr][nftId];\n\t\tBalance memory balance = votedBalances[user][uid];\n\t\tuint available = balance.available;\n\t\tif(getDate(balance.votedAt) < getDate(block.timestamp)) {\n\t\t\tavailable = available.add(balance.freezed);\n\t\t}\n\t\treturn available;\n\t}\n\n\tfunction voteFromLock(address nftAddr, uint nftId) \n\t\texternal \n\t\tcheckVotingTime\n\t\tcheckNFT(nftAddr, nftId)\n\t\tupdateReward(msg.sender)\n\t{\n\n\t\tuint amount = ITokenLocker(tokenLocker).subLockForVote(tokenLockId, msg.sender);\n\t\t_vote(msg.sender, nftAddr, nftId, amount);\n\t\t\n\t\tuint uid = nfts[nftAddr][nftId];\n\t\tBalance storage votedBalance = votedBalances[msg.sender][uid];\n\n\t\tif(getDate(votedBalance.votedAt) < getDate(block.timestamp)) {\n\t\t\tvotedBalance.available = votedBalance.available.add(votedBalance.freezed);\n\t\t\tvotedBalance.freezed = 0;\n\t\t}\n\t\tvotedBalance.freezed = votedBalance.freezed.add(amount);\n\t\tvotedBalance.votedAt = block.timestamp;\n\n\t\ttotalVotedBalances[msg.sender] = totalVotedBalances[msg.sender].add(amount);\n\t}\n\n\t\n\tfunction voteBonded(address nftAddr, uint nftId, uint amount) \n\t\texternal \n\t\tcheckVotingTime\n\t\tcheckNFT(nftAddr, nftId)\n\t\tupdateReward(msg.sender)\n\t{\n\t\tuint bondedBalance = getBondedBalance(msg.sender);\n\t\trequire(bondedBalance > amount, \"Insufficient bonded balance\");\n\n\t\t_vote(msg.sender, nftAddr, nftId, amount);\n\n\t\tuint uid = nfts[nftAddr][nftId];\n\t\tBalance storage votedBalance = votedBalances[msg.sender][uid];\n\n\t\tif(getDate(votedBalance.votedAt) < getDate(block.timestamp)) {\n\t\t\tvotedBalance.available = votedBalance.available.add(votedBalance.freezed);\n\t\t\tvotedBalance.freezed = 0;\n\t\t}\n\t\tvotedBalance.freezed = votedBalance.freezed.add(amount);\n\t\tvotedBalance.votedAt = block.timestamp;\n\n\t\ttotalVotedBalances[msg.sender] = totalVotedBalances[msg.sender].add(amount);\n\t}\n\n\tfunction unvoteBonded(address nftAddr, uint nftId, uint amount)\n\t\texternal \n\t\tcheckVotingTime\n\t\tcheckNFT(nftAddr, nftId)\n\t\tupdateReward(msg.sender)\n\t{\n\t\tuint unvotable = getUnvotableBalance(msg.sender, nftAddr, nftId);\n\t\trequire(unvotable > amount, \"Insufficient unvotable balance\");\n\t\t_unvote(msg.sender, nftAddr, nftId, amount);\n\n\t\tuint uid = nfts[nftAddr][nftId];\n\t\tBalance storage votedBalance = votedBalances[msg.sender][uid];\n\n\t\tif(getDate(votedBalance.votedAt) < getDate(block.timestamp)) {\n\t\t\tvotedBalance.available = votedBalance.available.add(votedBalance.freezed);\n\t\t\tvotedBalance.freezed = 0;\n\t\t}\n\t\tvotedBalance.available = votedBalance.available.sub(amount);\n\n\t\ttotalVotedBalances[msg.sender] = totalVotedBalances[msg.sender].sub(amount);\n\t}\n\n\n\tfunction unbond(uint amount) \n\t\texternal \n\t\tupdateReward(msg.sender)\n\t{\n\t\tuint bondedBalance = getBondedBalance(msg.sender);\n\t\trequire(bondedBalance > amount, \"Insufficient bonded balance\");\n\n\t\tunbondingBalances[msg.sender].push(UnbondingBalance({\n\t\t\tvalue: amount,\n\t\t\tunbondedAt: block.timestamp,\n\t\t\tredeemed: 0\n\t\t}));\n\t\t\n\t\tunbondedBalances[msg.sender] = unbondedBalances[msg.sender].add(amount);\n\n\t\temit Unbond(msg.sender, amount, block.timestamp);\n\t}\n\n\tfunction redeemUnbonding(uint index) \n\t\texternal \n\t\tupdateReward(msg.sender)\n\t{ \n\t\tUnbondingBalance storage unbondingBalance = unbondingBalances[msg.sender][index];\n\t\tuint passDays = getDate(block.timestamp).sub(getDate(unbondingBalance.unbondedAt)).div(1 days);\n\t\tuint released = passDays.mul(unbondingBalance.value).div(60);\n\t\tuint available = released.sub(unbondingBalance.redeemed);\n\t\tunbondingBalance.redeemed = released;\n\n\t\ttreasury.sendRewards(msg.sender, available);\n\t}\n\n\n\t// function getUserVotesByNFT(address user, uint groupId, uint uid) public view returns(uint) {\n\t// \tuint[] memory dates = getVotableDates(groupId);\n\t// \tuint votes = 0;\n\t// \tfor(uint i = 0; i < dates.length; i++) {\n\t// \t\tvotes = userVotes[user][dates[i]][uid].add(votes);\n\t// \t}\n\t// \treturn votes;\n\t// }\n\n\tfunction claimMintRewards(address nftAddr, uint nftId, address to) external onlyPin {\n\t\tuint uid = nfts[nftAddr][nftId];\n\t\tuint groupId = nftGroup[nfts[nftAddr][nftId]];\n\t\trequire(!mintRewardsClaimed[uid], \"Claimed\");\n\n\t\tuint rewards = 0;\n\t\tfor(uint i = 0; i < groupNFTs[groupId].length; i++) {\n\t\t\tif(groupNFTs[groupId][i].uid == uid) {\n\t\t\t\trewards = getMintRewardsPerNFT(groupId)[i];\n\t\t\t\tbreak;\n\t\t\t}\n\t\t}\n\t\tif(rewards > 0) {\n\t\t\ttreasury.sendRewards(to, rewards);\n\t\t\tmintRewardsClaimed[uid] = true;\n\t\t}\n\t}\n\n\tfunction getTradeWeights(uint groupId) public view returns(uint[] memory weights) {\n\t\tNFT[] memory gNFTs = groupNFTs[groupId];\n\t\tweights = new uint[](gNFTs.length);\n\t\t\n\t\t(uint[] memory prices, uint total) = getAuctionPrices(groupId);\n\n\t\tif(total > 0) {\n\t\t\tfor(uint i = 0; i < gNFTs.length; i++){\n\t\t\t\tweights[i] = prices[i].mul(1e18).div(total);\n\t\t\t}\n\t\t}\n\t}\n\n\tfunction setAuctionFinish(uint groupId) external onlyOperator {\n\t\thasFinished[groupId] = true;\n\t}\n\n\tfunction getAuctionRewardRates(uint groupId) public view returns(uint[] memory auctionRewardRates) {\n\t\tuint[] memory weights = getTradeWeights(groupId);\n\t\tNFT[] memory gNFTs = groupNFTs[groupId];\n\t\tauctionRewardRates = new uint[](gNFTs.length);\n\t\t(, uint[] memory inflations) = getWeightsAndInflations(groupId);\n\t\tuint bonus = bonusCap.mul(inflations[inflations.length - 1]).div(1e18);\n\n\t\tfor(uint i = 0; i < gNFTs.length; i++) {\n\t\t\tif(nftVotes[gNFTs[i].uid] == 0) {\n\t\t\t\tauctionRewardRates[i] = 0;\n\t\t\t} else {\n\t\t\t\tauctionRewardRates[i] = bonus.mul(weights[i]).div(nftVotes[gNFTs[i].uid]);\n\t\t\t}\n\t\t}\n\t}\n\n\tfunction getDailyVotes(uint groupId, uint date) public view returns(uint256) {\n\t\tuint votes = 0;\n\t\tfor(uint i = 0; i < groupNFTs[groupId].length; i++) {\n\t\t\tuint uid = groupNFTs[groupId][i].uid;\n\t\t\tvotes = votes.add(dayVotes[date][uid]);\n\t\t}\n\t\treturn votes;\n\t}\n\n\tfunction getWeightsAndInflations(uint groupId)\n\t\tpublic\n\t\tview\n\t\treturns(\n\t\t\tuint[] memory weights,\n\t\t\tuint[] memory inflations\n\t\t) \n\t{\n\n\t\tuint[] memory dates = getVotableDates(groupId);\n\t\tweights = new uint[](dates.length);\n\t\tinflations = new uint[](dates.length);\n\n\t\tfor(uint i = 0; i < dates.length; i++) {\n\t\t\tuint dailyVotes = getDailyVotes(groupId, dates[i]);\n\t\t\tweights[i] = dailyVotes.mul(1e18).div(stakingBases[groupId]);\n\t\t\tif(weights[i] < 3 * 1e17) {\n\t\t\t\tinflations[i] = 2 * 1e17;\n\t\t\t} else if(weights[i] >= 3 * 1e17 &&  weights[i] < 7 * 1e17) {\n\t\t\t\tinflations[i] = weights[i];\n\t\t\t} else {\n\t\t\t\tinflations[i] = 1e18;\n\t\t\t}\n\t\t}\n\t}\n\n\tfunction getBaseRewardRates(uint groupId) \n\t\tpublic view \n\t\treturns(uint[] memory rewardRates) \n\t{\n\n\t\tuint[] memory dates = getVotableDates(groupId);\n\t\t(,uint[] memory inflations) = getWeightsAndInflations(groupId);\n\t\trewardRates = new uint[](dates.length);\n\n\t\tfor(uint i = 0; i < dates.length; i++) {\n\t\t\tif(dates[i] > getDate(block.timestamp)) {\n\t\t\t\tbreak;\n\t\t\t}\n\t\t\tuint dailyTotalVotes = getDailyVotes(groupId, dates[i]);\n\t\t\tif(dailyTotalVotes > 0) {\n\t\t\t\trewardRates[i] = inflations[i].mul(dailyVoteRewardCap).div(dailyTotalVotes);\n\t\t\t}\n\t\t}\n\t}\n\n\tfunction getMintRewardsPerNFT(uint groupId)\n\t\tpublic view \n\t\treturns(uint[] memory mintRewards) \n\t{\n\t\tmintRewards = new uint[](groupNFTs[groupId].length);\n\t\tfor(uint i = 0; i < groupNFTs[groupId].length; i++) {\n\t\t\tif(groupVotes[groupId] > 0) {\n\t\t\t\tmintRewards[i] = nftVotes[groupNFTs[groupId][i].uid].mul(dailyMintRewardCap).div(groupVotes[groupId]);\n\t\t\t}\n\t\t}\n\t}\n}",
  "sourcePath": "/Users/yxf/app/uniarts-eth-dao/contracts/VoteMining.sol",
  "compiler": {
    "name": "solc",
    "version": "0.8.4+commit.c7e474f2.Emscripten.clang"
  },
  "schemaVersion": "3.2.3",
  "updatedAt": "2021-09-17T09:06:50.737Z",
  "devdoc": {
    "kind": "dev",
    "methods": {
      "owner()": {
        "details": "Returns the address of the current owner."
      },
      "renounceOwnership()": {
        "details": "Leaves the contract without owner. It will not be possible to call `onlyOwner` functions anymore. Can only be called by the current owner. NOTE: Renouncing ownership will leave the contract without an owner, thereby removing any functionality that is only available to the owner."
      },
      "transferOwnership(address)": {
        "details": "Transfers ownership of the contract to a new account (`newOwner`). Can only be called by the current owner."
      }
    },
    "version": 1
  },
  "userdoc": {
    "kind": "user",
    "methods": {},
    "version": 1
  }
}