{
  "contractName": "VoteMining",
  "abi": [
    {
      "inputs": [
        {
          "internalType": "address",
          "name": "_treasury",
          "type": "address"
        }
      ],
      "stateMutability": "nonpayable",
      "type": "constructor"
    },
    {
      "anonymous": false,
      "inputs": [
        {
          "indexed": true,
          "internalType": "address",
          "name": "previousOwner",
          "type": "address"
        },
        {
          "indexed": true,
          "internalType": "address",
          "name": "newOwner",
          "type": "address"
        }
      ],
      "name": "OwnershipTransferred",
      "type": "event"
    },
    {
      "inputs": [
        {
          "internalType": "address",
          "name": "",
          "type": "address"
        }
      ],
      "name": "balances",
      "outputs": [
        {
          "internalType": "uint256",
          "name": "",
          "type": "uint256"
        }
      ],
      "stateMutability": "view",
      "type": "function"
    },
    {
      "inputs": [],
      "name": "bonusCap",
      "outputs": [
        {
          "internalType": "uint256",
          "name": "",
          "type": "uint256"
        }
      ],
      "stateMutability": "view",
      "type": "function"
    },
    {
      "inputs": [
        {
          "internalType": "address",
          "name": "",
          "type": "address"
        },
        {
          "internalType": "uint256",
          "name": "",
          "type": "uint256"
        }
      ],
      "name": "bonusRewardsClaimed",
      "outputs": [
        {
          "internalType": "bool",
          "name": "",
          "type": "bool"
        }
      ],
      "stateMutability": "view",
      "type": "function"
    },
    {
      "inputs": [],
      "name": "currentGroupId",
      "outputs": [
        {
          "internalType": "uint256",
          "name": "",
          "type": "uint256"
        }
      ],
      "stateMutability": "view",
      "type": "function"
    },
    {
      "inputs": [],
      "name": "dailyMintRewardCap",
      "outputs": [
        {
          "internalType": "uint256",
          "name": "",
          "type": "uint256"
        }
      ],
      "stateMutability": "view",
      "type": "function"
    },
    {
      "inputs": [],
      "name": "dailyVoteRewardCap",
      "outputs": [
        {
          "internalType": "uint256",
          "name": "",
          "type": "uint256"
        }
      ],
      "stateMutability": "view",
      "type": "function"
    },
    {
      "inputs": [
        {
          "internalType": "uint256",
          "name": "",
          "type": "uint256"
        }
      ],
      "name": "groupVotes",
      "outputs": [
        {
          "internalType": "uint256",
          "name": "",
          "type": "uint256"
        }
      ],
      "stateMutability": "view",
      "type": "function"
    },
    {
      "inputs": [
        {
          "internalType": "uint256",
          "name": "",
          "type": "uint256"
        }
      ],
      "name": "groups",
      "outputs": [
        {
          "internalType": "uint256",
          "name": "",
          "type": "uint256"
        }
      ],
      "stateMutability": "view",
      "type": "function"
    },
    {
      "inputs": [
        {
          "internalType": "address",
          "name": "",
          "type": "address"
        },
        {
          "internalType": "uint256",
          "name": "",
          "type": "uint256"
        }
      ],
      "name": "mintRewardsClaimed",
      "outputs": [
        {
          "internalType": "bool",
          "name": "",
          "type": "bool"
        }
      ],
      "stateMutability": "view",
      "type": "function"
    },
    {
      "inputs": [],
      "name": "nextNFTId",
      "outputs": [
        {
          "internalType": "uint256",
          "name": "",
          "type": "uint256"
        }
      ],
      "stateMutability": "view",
      "type": "function"
    },
    {
      "inputs": [
        {
          "internalType": "address",
          "name": "",
          "type": "address"
        },
        {
          "internalType": "uint256",
          "name": "",
          "type": "uint256"
        }
      ],
      "name": "nextVotableBalances",
      "outputs": [
        {
          "internalType": "uint256",
          "name": "balance",
          "type": "uint256"
        },
        {
          "internalType": "uint256",
          "name": "releaseAt",
          "type": "uint256"
        }
      ],
      "stateMutability": "view",
      "type": "function"
    },
    {
      "inputs": [
        {
          "internalType": "uint256",
          "name": "",
          "type": "uint256"
        }
      ],
      "name": "nftTradedPrices",
      "outputs": [
        {
          "internalType": "uint256",
          "name": "",
          "type": "uint256"
        }
      ],
      "stateMutability": "view",
      "type": "function"
    },
    {
      "inputs": [
        {
          "internalType": "uint256",
          "name": "",
          "type": "uint256"
        }
      ],
      "name": "nftVotes",
      "outputs": [
        {
          "internalType": "uint256",
          "name": "",
          "type": "uint256"
        }
      ],
      "stateMutability": "view",
      "type": "function"
    },
    {
      "inputs": [
        {
          "internalType": "address",
          "name": "",
          "type": "address"
        }
      ],
      "name": "operators",
      "outputs": [
        {
          "internalType": "bool",
          "name": "",
          "type": "bool"
        }
      ],
      "stateMutability": "view",
      "type": "function"
    },
    {
      "inputs": [],
      "name": "owner",
      "outputs": [
        {
          "internalType": "address",
          "name": "",
          "type": "address"
        }
      ],
      "stateMutability": "view",
      "type": "function"
    },
    {
      "inputs": [],
      "name": "renounceOwnership",
      "outputs": [],
      "stateMutability": "nonpayable",
      "type": "function"
    },
    {
      "inputs": [
        {
          "internalType": "uint256",
          "name": "",
          "type": "uint256"
        }
      ],
      "name": "stakingBases",
      "outputs": [
        {
          "internalType": "uint256",
          "name": "",
          "type": "uint256"
        }
      ],
      "stateMutability": "view",
      "type": "function"
    },
    {
      "inputs": [
        {
          "internalType": "address",
          "name": "newOwner",
          "type": "address"
        }
      ],
      "name": "transferOwnership",
      "outputs": [],
      "stateMutability": "nonpayable",
      "type": "function"
    },
    {
      "inputs": [],
      "name": "treasury",
      "outputs": [
        {
          "internalType": "contract ITreasury",
          "name": "",
          "type": "address"
        }
      ],
      "stateMutability": "view",
      "type": "function"
    },
    {
      "inputs": [],
      "name": "uink",
      "outputs": [
        {
          "internalType": "address",
          "name": "",
          "type": "address"
        }
      ],
      "stateMutability": "view",
      "type": "function"
    },
    {
      "inputs": [
        {
          "internalType": "address",
          "name": "",
          "type": "address"
        },
        {
          "internalType": "uint256",
          "name": "",
          "type": "uint256"
        },
        {
          "internalType": "uint256",
          "name": "",
          "type": "uint256"
        }
      ],
      "name": "voteRewardsClaimed",
      "outputs": [
        {
          "internalType": "bool",
          "name": "",
          "type": "bool"
        }
      ],
      "stateMutability": "view",
      "type": "function"
    },
    {
      "inputs": [],
      "name": "weeklyCap",
      "outputs": [
        {
          "internalType": "uint256",
          "name": "",
          "type": "uint256"
        }
      ],
      "stateMutability": "view",
      "type": "function"
    },
    {
      "inputs": [
        {
          "internalType": "address",
          "name": "_operator",
          "type": "address"
        }
      ],
      "name": "addOperator",
      "outputs": [],
      "stateMutability": "nonpayable",
      "type": "function"
    },
    {
      "inputs": [
        {
          "internalType": "address",
          "name": "_operator",
          "type": "address"
        }
      ],
      "name": "removeOperator",
      "outputs": [],
      "stateMutability": "nonpayable",
      "type": "function"
    },
    {
      "inputs": [
        {
          "internalType": "uint256",
          "name": "stakingBase",
          "type": "uint256"
        },
        {
          "internalType": "uint256",
          "name": "startTime",
          "type": "uint256"
        }
      ],
      "name": "addGroup",
      "outputs": [],
      "stateMutability": "nonpayable",
      "type": "function"
    },
    {
      "inputs": [
        {
          "internalType": "uint256",
          "name": "groupId",
          "type": "uint256"
        },
        {
          "internalType": "address[]",
          "name": "nftAddrs",
          "type": "address[]"
        },
        {
          "internalType": "uint256[]",
          "name": "nftIds",
          "type": "uint256[]"
        }
      ],
      "name": "addNFT",
      "outputs": [],
      "stateMutability": "nonpayable",
      "type": "function"
    },
    {
      "inputs": [
        {
          "internalType": "address",
          "name": "nftAddr",
          "type": "address"
        },
        {
          "internalType": "uint256",
          "name": "nftId",
          "type": "uint256"
        },
        {
          "internalType": "uint256",
          "name": "price",
          "type": "uint256"
        }
      ],
      "name": "setNFTTradedPrice",
      "outputs": [],
      "stateMutability": "nonpayable",
      "type": "function"
    },
    {
      "inputs": [
        {
          "internalType": "uint256",
          "name": "ts",
          "type": "uint256"
        }
      ],
      "name": "getDate",
      "outputs": [
        {
          "internalType": "uint256",
          "name": "",
          "type": "uint256"
        }
      ],
      "stateMutability": "pure",
      "type": "function"
    },
    {
      "inputs": [
        {
          "internalType": "uint256",
          "name": "groupId",
          "type": "uint256"
        }
      ],
      "name": "getVotableDates",
      "outputs": [
        {
          "internalType": "uint256[]",
          "name": "dates",
          "type": "uint256[]"
        }
      ],
      "stateMutability": "view",
      "type": "function"
    },
    {
      "inputs": [
        {
          "internalType": "address",
          "name": "user",
          "type": "address"
        }
      ],
      "name": "getVotableBalance",
      "outputs": [
        {
          "internalType": "uint256",
          "name": "",
          "type": "uint256"
        }
      ],
      "stateMutability": "view",
      "type": "function"
    },
    {
      "inputs": [
        {
          "internalType": "address",
          "name": "user",
          "type": "address"
        }
      ],
      "name": "getAvailableBalance",
      "outputs": [
        {
          "internalType": "uint256",
          "name": "",
          "type": "uint256"
        }
      ],
      "stateMutability": "view",
      "type": "function"
    },
    {
      "inputs": [
        {
          "internalType": "address",
          "name": "user",
          "type": "address"
        }
      ],
      "name": "getVotedBalance",
      "outputs": [
        {
          "internalType": "uint256",
          "name": "",
          "type": "uint256"
        }
      ],
      "stateMutability": "view",
      "type": "function"
    },
    {
      "inputs": [
        {
          "internalType": "address",
          "name": "nftAddr",
          "type": "address"
        },
        {
          "internalType": "uint256",
          "name": "nftId",
          "type": "uint256"
        },
        {
          "internalType": "uint256",
          "name": "amount",
          "type": "uint256"
        }
      ],
      "name": "stake",
      "outputs": [],
      "stateMutability": "nonpayable",
      "type": "function"
    },
    {
      "inputs": [
        {
          "internalType": "address",
          "name": "nftAddr",
          "type": "address"
        },
        {
          "internalType": "uint256",
          "name": "nftId",
          "type": "uint256"
        },
        {
          "internalType": "uint256",
          "name": "amount",
          "type": "uint256"
        }
      ],
      "name": "vote",
      "outputs": [],
      "stateMutability": "nonpayable",
      "type": "function"
    },
    {
      "inputs": [],
      "name": "redeem",
      "outputs": [],
      "stateMutability": "nonpayable",
      "type": "function"
    },
    {
      "inputs": [
        {
          "internalType": "address",
          "name": "user",
          "type": "address"
        },
        {
          "internalType": "uint256",
          "name": "groupId",
          "type": "uint256"
        },
        {
          "internalType": "uint256",
          "name": "date",
          "type": "uint256"
        }
      ],
      "name": "getUserDailyVotes",
      "outputs": [
        {
          "internalType": "uint256",
          "name": "",
          "type": "uint256"
        }
      ],
      "stateMutability": "view",
      "type": "function"
    },
    {
      "inputs": [
        {
          "internalType": "address",
          "name": "user",
          "type": "address"
        },
        {
          "internalType": "uint256",
          "name": "groupId",
          "type": "uint256"
        },
        {
          "internalType": "uint256",
          "name": "uid",
          "type": "uint256"
        }
      ],
      "name": "getUserVotesByNFT",
      "outputs": [
        {
          "internalType": "uint256",
          "name": "",
          "type": "uint256"
        }
      ],
      "stateMutability": "view",
      "type": "function"
    },
    {
      "inputs": [
        {
          "internalType": "uint256",
          "name": "groupId",
          "type": "uint256"
        }
      ],
      "name": "claimVoteRewards",
      "outputs": [],
      "stateMutability": "nonpayable",
      "type": "function"
    },
    {
      "inputs": [
        {
          "internalType": "uint256",
          "name": "groupId",
          "type": "uint256"
        }
      ],
      "name": "claimMintRewards",
      "outputs": [],
      "stateMutability": "nonpayable",
      "type": "function"
    },
    {
      "inputs": [
        {
          "internalType": "uint256",
          "name": "groupId",
          "type": "uint256"
        }
      ],
      "name": "claimBonusRewards",
      "outputs": [],
      "stateMutability": "nonpayable",
      "type": "function"
    },
    {
      "inputs": [
        {
          "internalType": "uint256",
          "name": "groupId",
          "type": "uint256"
        }
      ],
      "name": "getTradeWeights",
      "outputs": [
        {
          "internalType": "uint256[]",
          "name": "weights",
          "type": "uint256[]"
        }
      ],
      "stateMutability": "view",
      "type": "function"
    },
    {
      "inputs": [
        {
          "internalType": "uint256",
          "name": "groupId",
          "type": "uint256"
        }
      ],
      "name": "getBonusRewardRates",
      "outputs": [
        {
          "internalType": "uint256[]",
          "name": "bonusRewardRates",
          "type": "uint256[]"
        }
      ],
      "stateMutability": "view",
      "type": "function"
    },
    {
      "inputs": [
        {
          "internalType": "uint256",
          "name": "groupId",
          "type": "uint256"
        },
        {
          "internalType": "uint256",
          "name": "date",
          "type": "uint256"
        }
      ],
      "name": "getDailyVotes",
      "outputs": [
        {
          "internalType": "uint256",
          "name": "",
          "type": "uint256"
        }
      ],
      "stateMutability": "view",
      "type": "function"
    },
    {
      "inputs": [
        {
          "internalType": "uint256",
          "name": "groupId",
          "type": "uint256"
        }
      ],
      "name": "getWeightsAndInflations",
      "outputs": [
        {
          "internalType": "uint256[]",
          "name": "weights",
          "type": "uint256[]"
        },
        {
          "internalType": "uint256[]",
          "name": "inflations",
          "type": "uint256[]"
        }
      ],
      "stateMutability": "view",
      "type": "function"
    },
    {
      "inputs": [
        {
          "internalType": "uint256",
          "name": "groupId",
          "type": "uint256"
        }
      ],
      "name": "getBaseRewardRates",
      "outputs": [
        {
          "internalType": "uint256[]",
          "name": "rewardRates",
          "type": "uint256[]"
        }
      ],
      "stateMutability": "view",
      "type": "function"
    },
    {
      "inputs": [
        {
          "internalType": "uint256",
          "name": "groupId",
          "type": "uint256"
        }
      ],
      "name": "getMintRewardsPerNFT",
      "outputs": [
        {
          "internalType": "uint256[]",
          "name": "mintRewards",
          "type": "uint256[]"
        }
      ],
      "stateMutability": "view",
      "type": "function"
    }
  ],
  "bytecode": "0x6080604052690a968163f0a57b4000006001556004600760015462000025919062000302565b62000031919062000302565b6002556004600760015462000047919062000302565b62000053919062000302565b600355600260015462000067919062000302565b60045560006009556000600e553480156200008157600080fd5b5060405162005211380380620052118339818101604052810190620000a79190620002d6565b620000c7620000bb620001f360201b60201c565b620001fb60201b60201c565b80600760006101000a81548173ffffffffffffffffffffffffffffffffffffffff021916908373ffffffffffffffffffffffffffffffffffffffff160217905550600760009054906101000a900473ffffffffffffffffffffffffffffffffffffffff1673ffffffffffffffffffffffffffffffffffffffff1663a88d8fea6040518163ffffffff1660e01b815260040160206040518083038186803b1580156200017157600080fd5b505afa15801562000186573d6000803e3d6000fd5b505050506040513d601f19601f82011682018060405250810190620001ac9190620002d6565b600660006101000a81548173ffffffffffffffffffffffffffffffffffffffff021916908373ffffffffffffffffffffffffffffffffffffffff16021790555050620003c1565b600033905090565b60008060009054906101000a900473ffffffffffffffffffffffffffffffffffffffff169050816000806101000a81548173ffffffffffffffffffffffffffffffffffffffff021916908373ffffffffffffffffffffffffffffffffffffffff1602179055508173ffffffffffffffffffffffffffffffffffffffff168173ffffffffffffffffffffffffffffffffffffffff167f8be0079c531659141344cd1fd0a4f28419497f9722a3daafe3b4186f6b6457e060405160405180910390a35050565b600081519050620002d081620003a7565b92915050565b600060208284031215620002e957600080fd5b6000620002f984828501620002bf565b91505092915050565b60006200030f826200036e565b91506200031c836200036e565b9250826200032f576200032e62000378565b5b828204905092915050565b600062000347826200034e565b9050919050565b600073ffffffffffffffffffffffffffffffffffffffff82169050919050565b6000819050919050565b7f4e487b7100000000000000000000000000000000000000000000000000000000600052601260045260246000fd5b620003b2816200033a565b8114620003be57600080fd5b50565b614e4080620003d16000396000f3fe608060405234801561001057600080fd5b506004361061028a5760003560e01c8063715018a61161015c578063a88d8fea116100ce578063c909adc011610087578063c909adc01461087f578063d98f893a1461089d578063e325fb4b146108cd578063eeaa3585146108eb578063f2fde38b1461091b578063fa119fee146109375761028a565b8063a88d8fea146107bf578063ac8a584a146107dd578063b5345afa146107f9578063be040fb014610829578063c05de80e14610833578063c4f6da121461084f5761028a565b80638da5cb5b116101205780638da5cb5b146106c45780638f4d41e8146106e257806396324bd4146107135780639870d7fe146107435780639d9d9a101461075f578063a54e119f1461078f5761028a565b8063715018a61461062257806379741e4e1461062c5780637ce26d65146106485780638503d2cd14610678578063886a9342146106945761028a565b80632a4a1b7311610200578063515cc532116101b9578063515cc5321461051457806361d027b31461054457806363c0ea101461056257806364ebaaeb146105925780636c24a76f146105c25780636c55a967146105f25761028a565b80632a4a1b73146104405780632b57298b1461045c57806337867c941461048c5780634a1577a3146104aa5780634e4b61c3146104c65780634f8d32be146104f65761028a565b806313e7c9d81161025257806313e7c9d814610358578063171b612c1461038857806317a9c7bd146103a65780631d113c81146103d657806327e235e3146103f257806328ad5ba6146104225761028a565b8063079dc7f41461028f57806307c1b52c146102bf5780630c51b88f146102f05780630d265df91461030c57806311d07bb31461033c575b600080fd5b6102a960048036038101906102a49190614479565b610967565b6040516102b6919061491e565b60405180910390f35b6102d960048036038101906102d491906142ea565b610a48565b6040516102e7929190614939565b60405180910390f35b61030a60048036038101906103059190614326565b610a79565b005b6103266004803603810190610321919061439e565b610de4565b604051610333919061474f565b60405180910390f35b6103566004803603810190610351919061439e565b61110c565b005b610372600480360381019061036d9190614298565b61144a565b60405161037f91906147a8565b60405180910390f35b61039061146a565b60405161039d919061491e565b60405180910390f35b6103c060048036038101906103bb919061439e565b611470565b6040516103cd919061491e565b60405180910390f35b6103f060048036038101906103eb919061439e565b611488565b005b61040c60048036038101906104079190614298565b6117ef565b604051610419919061491e565b60405180910390f35b61042a611807565b604051610437919061491e565b60405180910390f35b61045a60048036038101906104559190614326565b61180d565b005b6104766004803603810190610471919061439e565b611b11565b604051610483919061491e565b60405180910390f35b610494611b42565b6040516104a1919061491e565b60405180910390f35b6104c460048036038101906104bf9190614479565b611b48565b005b6104e060048036038101906104db919061439e565b611c14565b6040516104ed919061491e565b60405180910390f35b6104fe611c2c565b60405161050b919061491e565b60405180910390f35b61052e6004803603810190610529919061439e565b611c32565b60405161053b919061474f565b60405180910390f35b61054c611e39565b60405161055991906147c3565b60405180910390f35b61057c6004803603810190610577919061439e565b611e5f565b604051610589919061491e565b60405180910390f35b6105ac60048036038101906105a791906142ea565b611e77565b6040516105b991906147a8565b60405180910390f35b6105dc60048036038101906105d79190614298565b611ea6565b6040516105e9919061491e565b60405180910390f35b61060c60048036038101906106079190614326565b611f89565b604051610619919061491e565b60405180910390f35b61062a61207a565b005b61064660048036038101906106419190614326565b612102565b005b610662600480360381019061065d919061439e565b6121f1565b60405161066f919061474f565b60405180910390f35b610692600480360381019061068d91906143f0565b612604565b005b6106ae60048036038101906106a991906142ea565b612ac7565b6040516106bb91906147a8565b60405180910390f35b6106cc612af6565b6040516106d991906146d4565b60405180910390f35b6106fc60048036038101906106f7919061439e565b612b1f565b60405161070a929190614771565b60405180910390f35b61072d6004803603810190610728919061439e565b612f2f565b60405161073a919061491e565b60405180910390f35b61075d60048036038101906107589190614298565b612f47565b005b6107796004803603810190610774919061439e565b61301e565b604051610786919061474f565b60405180910390f35b6107a960048036038101906107a49190614298565b6131ec565b6040516107b6919061491e565b60405180910390f35b6107c76132ba565b6040516107d491906146d4565b60405180910390f35b6107f760048036038101906107f29190614298565b6132e0565b005b610813600480360381019061080e9190614326565b6133b7565b60405161082091906147a8565b60405180910390f35b6108316133f3565b005b61084d6004803603810190610848919061439e565b61355a565b005b6108696004803603810190610864919061439e565b613844565b604051610876919061491e565b60405180910390f35b61088761385c565b604051610894919061491e565b60405180910390f35b6108b760048036038101906108b29190614298565b613862565b6040516108c4919061491e565b60405180910390f35b6108d5613930565b6040516108e2919061491e565b60405180910390f35b61090560048036038101906109009190614326565b613936565b604051610912919061491e565b60405180910390f35b61093560048036038101906109309190614298565b613b50565b005b610951600480360381019061094c919061439e565b613c48565b60405161095e919061474f565b60405180910390f35b6000806000905060005b600a600086815260200190815260200160002080549050811015610a3d576000600a600087815260200190815260200160002082815481106109dc577f4e487b7100000000000000000000000000000000000000000000000000000000600052603260045260246000fd5b9060005260206000209060040201600001549050610a27600b600087815260200190815260200160002060008381526020019081526020016000205484613d8390919063ffffffff16565b9250508080610a3590614b2d565b915050610971565b508091505092915050565b6012602052816000526040600020602052806000526040600020600091509150508060000154908060010154905082565b42600860006009548152602001908152602001600020541115610ad1576040517f08c379a0000000000000000000000000000000000000000000000000000000008152600401610ac89061485e565b60405180910390fd5b42610afd62093a8060086000600954815260200190815260200160002054613d8390919063ffffffff16565b1015610b3e576040517f08c379a0000000000000000000000000000000000000000000000000000000008152600401610b359061487e565b60405180910390fd5b82826000600d60008473ffffffffffffffffffffffffffffffffffffffff1673ffffffffffffffffffffffffffffffffffffffff16815260200190815260200160002060008381526020019081526020016000205411610bd3576040517f08c379a0000000000000000000000000000000000000000000000000000000008152600401610bca9061489e565b60405180910390fd5b610bdf33868686613d99565b600660009054906101000a900473ffffffffffffffffffffffffffffffffffffffff1673ffffffffffffffffffffffffffffffffffffffff166323b872dd3330866040518463ffffffff1660e01b8152600401610c3e939291906146ef565b602060405180830381600087803b158015610c5857600080fd5b505af1158015610c6c573d6000803e3d6000fd5b505050506040513d601f19601f82011682018060405250810190610c909190614375565b50610ce383601160003373ffffffffffffffffffffffffffffffffffffffff1673ffffffffffffffffffffffffffffffffffffffff16815260200190815260200160002054613d8390919063ffffffff16565b601160003373ffffffffffffffffffffffffffffffffffffffff1673ffffffffffffffffffffffffffffffffffffffff168152602001908152602001600020819055506000601260003373ffffffffffffffffffffffffffffffffffffffff1673ffffffffffffffffffffffffffffffffffffffff168152602001908152602001600020600060095481526020019081526020016000209050610d93848260000154613d8390919063ffffffff16565b8160000181905550600081600101541415610ddc57610dd36212750060086000600954815260200190815260200160002054613d8390919063ffffffff16565b81600101819055505b505050505050565b60606000600a6000848152602001908152602001600020805480602002602001604051908101604052809291908181526020016000905b82821015610f0d5783829060005260206000209060040201604051806080016040529081600082015481526020016001820160009054906101000a900473ffffffffffffffffffffffffffffffffffffffff1673ffffffffffffffffffffffffffffffffffffffff1673ffffffffffffffffffffffffffffffffffffffff168152602001600282015481526020016003820160009054906101000a900473ffffffffffffffffffffffffffffffffffffffff1673ffffffffffffffffffffffffffffffffffffffff1673ffffffffffffffffffffffffffffffffffffffff168152505081526020019060010190610e1b565b505050509050805167ffffffffffffffff811115610f54577f4e487b7100000000000000000000000000000000000000000000000000000000600052604160045260246000fd5b604051908082528060200260200182016040528015610f825781602001602082028036833780820191505090505b5091506000805b825181101561101157610ffc60136000858481518110610fd2577f4e487b7100000000000000000000000000000000000000000000000000000000600052603260045260246000fd5b60200260200101516000015181526020019081526020016000205483613d8390919063ffffffff16565b9150808061100990614b2d565b915050610f89565b5060008111156111055760005b8251811015611103576110ab8261109d670de0b6b3a764000060136000888781518110611074577f4e487b7100000000000000000000000000000000000000000000000000000000600052603260045260246000fd5b60200260200101516000015181526020019081526020016000205461407790919063ffffffff16565b61408d90919063ffffffff16565b8482815181106110e4577f4e487b7100000000000000000000000000000000000000000000000000000000600052603260045260246000fd5b60200260200101818152505080806110fb90614b2d565b91505061101e565b505b5050919050565b601560003373ffffffffffffffffffffffffffffffffffffffff1673ffffffffffffffffffffffffffffffffffffffff168152602001908152602001600020600082815260200190815260200160002060009054906101000a900460ff16156111aa576040517f08c379a00000000000000000000000000000000000000000000000000000000081526004016111a1906148de565b60405180910390fd5b60006111b5826121f1565b90506000805b600a60008581526020019081526020016000208054905081101561138a573373ffffffffffffffffffffffffffffffffffffffff16600a6000868152602001908152602001600020828154811061123b577f4e487b7100000000000000000000000000000000000000000000000000000000600052603260045260246000fd5b906000526020600020906004020160030160009054906101000a900473ffffffffffffffffffffffffffffffffffffffff1673ffffffffffffffffffffffffffffffffffffffff1614156113775760006112f23386600a600089815260200190815260200160002085815481106112db577f4e487b7100000000000000000000000000000000000000000000000000000000600052603260045260246000fd5b906000526020600020906004020160000154611f89565b905061137383611365670de0b6b3a7640000611357888781518110611340577f4e487b7100000000000000000000000000000000000000000000000000000000600052603260045260246000fd5b60200260200101518661407790919063ffffffff16565b61408d90919063ffffffff16565b613d8390919063ffffffff16565b9250505b808061138290614b2d565b9150506111bb565b50600081111561144557600760009054906101000a900473ffffffffffffffffffffffffffffffffffffffff1673ffffffffffffffffffffffffffffffffffffffff1663c8773af233836040518363ffffffff1660e01b81526004016113f1929190614726565b602060405180830381600087803b15801561140b57600080fd5b505af115801561141f573d6000803e3d6000fd5b505050506040513d601f19601f8201168201806040525081019061144391906143c7565b505b505050565b60176020528060005260406000206000915054906101000a900460ff1681565b60025481565b60106020528060005260406000206000915090505481565b601660003373ffffffffffffffffffffffffffffffffffffffff1673ffffffffffffffffffffffffffffffffffffffff168152602001908152602001600020600082815260200190815260200160002060009054906101000a900460ff1615611526576040517f08c379a000000000000000000000000000000000000000000000000000000000815260040161151d906148de565b60405180910390fd5b600954811115801561154b575060006008600083815260200190815260200160002054115b61158a576040517f08c379a0000000000000000000000000000000000000000000000000000000008152600401611581906148fe565b60405180910390fd5b4262093a8060086000848152602001908152602001600020546115ad91906149ac565b106115ed576040517f08c379a00000000000000000000000000000000000000000000000000000000081526004016115e4906147de565b60405180910390fd5b6000805b600a600084815260200190815260200160002080549050811015611730573373ffffffffffffffffffffffffffffffffffffffff16600a60008581526020019081526020016000208281548110611671577f4e487b7100000000000000000000000000000000000000000000000000000000600052603260045260246000fd5b906000526020600020906004020160030160009054906101000a900473ffffffffffffffffffffffffffffffffffffffff1673ffffffffffffffffffffffffffffffffffffffff16141561171d5761171a6116cb8461301e565b8281518110611703577f4e487b7100000000000000000000000000000000000000000000000000000000600052603260045260246000fd5b602002602001015183613d8390919063ffffffff16565b91505b808061172890614b2d565b9150506115f1565b5060008111156117eb57600760009054906101000a900473ffffffffffffffffffffffffffffffffffffffff1673ffffffffffffffffffffffffffffffffffffffff1663c8773af233836040518363ffffffff1660e01b8152600401611797929190614726565b602060405180830381600087803b1580156117b157600080fd5b505af11580156117c5573d6000803e3d6000fd5b505050506040513d601f19601f820116820180604052508101906117e991906143c7565b505b5050565b60116020528060005260406000206000915090505481565b60035481565b42600860006009548152602001908152602001600020541115611865576040517f08c379a000000000000000000000000000000000000000000000000000000000815260040161185c9061485e565b60405180910390fd5b4261189162093a8060086000600954815260200190815260200160002054613d8390919063ffffffff16565b10156118d2576040517f08c379a00000000000000000000000000000000000000000000000000000000081526004016118c99061487e565b60405180910390fd5b82826000600d60008473ffffffffffffffffffffffffffffffffffffffff1673ffffffffffffffffffffffffffffffffffffffff16815260200190815260200160002060008381526020019081526020016000205411611967576040517f08c379a000000000000000000000000000000000000000000000000000000000815260040161195e9061489e565b60405180910390fd5b600061197233613862565b9050838110156119b7576040517f08c379a00000000000000000000000000000000000000000000000000000000081526004016119ae906147fe565b60405180910390fd5b6119c333878787613d99565b6000601260003373ffffffffffffffffffffffffffffffffffffffff1673ffffffffffffffffffffffffffffffffffffffff16815260200190815260200160002060006001600954611a159190614a8d565b815260200190815260200160002090504281600101541115611a5157611a488582600001546140a390919063ffffffff16565b81600001819055505b6000601260003373ffffffffffffffffffffffffffffffffffffffff1673ffffffffffffffffffffffffffffffffffffffff168152602001908152602001600020600060095481526020019081526020016000209050611abe868260000154613d8390919063ffffffff16565b8160000181905550600081600101541415611b0757611afe6212750060086000600954815260200190815260200160002054613d8390919063ffffffff16565b81600101819055505b5050505050505050565b6000611b3b611b2c62015180846140b990919063ffffffff16565b836140a390919063ffffffff16565b9050919050565b60095481565b611b506140cf565b73ffffffffffffffffffffffffffffffffffffffff16611b6e612af6565b73ffffffffffffffffffffffffffffffffffffffff1614611bc4576040517f08c379a0000000000000000000000000000000000000000000000000000000008152600401611bbb906148be565b60405180910390fd5b60096000815480929190611bd790614b2d565b9190505550806008600060095481526020019081526020016000208190555081600560006009548152602001908152602001600020819055505050565b60136020528060005260406000206000915090505481565b60015481565b60606000611c3f83613c48565b90506000611c4c84612b1f565b915050815167ffffffffffffffff811115611c90577f4e487b7100000000000000000000000000000000000000000000000000000000600052604160045260246000fd5b604051908082528060200260200182016040528015611cbe5781602001602082028036833780820191505090505b50925060005b8251811015611e3157611cd642611b11565b838281518110611d0f577f4e487b7100000000000000000000000000000000000000000000000000000000600052603260045260246000fd5b60200260200101511115611d2257611e1e565b6000611d6e86858481518110611d61577f4e487b7100000000000000000000000000000000000000000000000000000000600052603260045260246000fd5b6020026020010151610967565b9050611dd781611dc9600254868681518110611db3577f4e487b7100000000000000000000000000000000000000000000000000000000600052603260045260246000fd5b602002602001015161407790919063ffffffff16565b61408d90919063ffffffff16565b858381518110611e10577f4e487b7100000000000000000000000000000000000000000000000000000000600052603260045260246000fd5b602002602001018181525050505b8080611e2990614b2d565b915050611cc4565b505050919050565b600760009054906101000a900473ffffffffffffffffffffffffffffffffffffffff1681565b600f6020528060005260406000206000915090505481565b60156020528160005260406000206020528060005260406000206000915091509054906101000a900460ff1681565b6000806000905060006009541415611ec15780915050611f84565b6000600190505b6009548111611f7e576000601260008673ffffffffffffffffffffffffffffffffffffffff1673ffffffffffffffffffffffffffffffffffffffff16815260200190815260200160002060008381526020019081526020016000206040518060400160405290816000820154815260200160018201548152505090504281602001511015611f6a57611f67816000015184613d8390919063ffffffff16565b92505b508080611f7690614b2d565b915050611ec8565b50809150505b919050565b600080611f9584613c48565b90506000805b825181101561206d5761205882600c60008a73ffffffffffffffffffffffffffffffffffffffff1673ffffffffffffffffffffffffffffffffffffffff1681526020019081526020016000206000868581518110612022577f4e487b7100000000000000000000000000000000000000000000000000000000600052603260045260246000fd5b60200260200101518152602001908152602001600020600088815260200190815260200160002054613d8390919063ffffffff16565b9150808061206590614b2d565b915050611f9b565b5080925050509392505050565b6120826140cf565b73ffffffffffffffffffffffffffffffffffffffff166120a0612af6565b73ffffffffffffffffffffffffffffffffffffffff16146120f6576040517f08c379a00000000000000000000000000000000000000000000000000000000081526004016120ed906148be565b60405180910390fd5b61210060006140d7565b565b61210a6140cf565b73ffffffffffffffffffffffffffffffffffffffff16612128612af6565b73ffffffffffffffffffffffffffffffffffffffff161461217e576040517f08c379a0000000000000000000000000000000000000000000000000000000008152600401612175906148be565b60405180910390fd5b6000600d60008573ffffffffffffffffffffffffffffffffffffffff1673ffffffffffffffffffffffffffffffffffffffff168152602001908152602001600020600084815260200190815260200160002054905081601360008381526020019081526020016000208190555050505050565b606060006121fe83610de4565b90506000600a6000858152602001908152602001600020805480602002602001604051908101604052809291908181526020016000905b828210156123275783829060005260206000209060040201604051806080016040529081600082015481526020016001820160009054906101000a900473ffffffffffffffffffffffffffffffffffffffff1673ffffffffffffffffffffffffffffffffffffffff1673ffffffffffffffffffffffffffffffffffffffff168152602001600282015481526020016003820160009054906101000a900473ffffffffffffffffffffffffffffffffffffffff1673ffffffffffffffffffffffffffffffffffffffff1673ffffffffffffffffffffffffffffffffffffffff168152505081526020019060010190612235565b505050509050805167ffffffffffffffff81111561236e577f4e487b7100000000000000000000000000000000000000000000000000000000600052604160045260246000fd5b60405190808252806020026020018201604052801561239c5781602001602082028036833780820191505090505b50925060006123aa85612b1f565b915050600061242b670de0b6b3a764000061241d84600186516123cd9190614a8d565b81518110612404577f4e487b7100000000000000000000000000000000000000000000000000000000600052603260045260246000fd5b602002602001015160045461407790919063ffffffff16565b61408d90919063ffffffff16565b905060005b83518110156125fa57600060106000868481518110612478577f4e487b7100000000000000000000000000000000000000000000000000000000600052603260045260246000fd5b60200260200101516000015181526020019081526020016000205414156124e55760008682815181106124d4577f4e487b7100000000000000000000000000000000000000000000000000000000600052603260045260246000fd5b6020026020010181815250506125e7565b6125a160106000868481518110612525577f4e487b7100000000000000000000000000000000000000000000000000000000600052603260045260246000fd5b60200260200101516000015181526020019081526020016000205461259387848151811061257c577f4e487b7100000000000000000000000000000000000000000000000000000000600052603260045260246000fd5b60200260200101518561407790919063ffffffff16565b61408d90919063ffffffff16565b8682815181106125da577f4e487b7100000000000000000000000000000000000000000000000000000000600052603260045260246000fd5b6020026020010181815250505b80806125f290614b2d565b915050612430565b5050505050919050565b61260c6140cf565b73ffffffffffffffffffffffffffffffffffffffff1661262a612af6565b73ffffffffffffffffffffffffffffffffffffffff1614612680576040517f08c379a0000000000000000000000000000000000000000000000000000000008152600401612677906148be565b60405180910390fd5b8181905084849050146126c8576040517f08c379a00000000000000000000000000000000000000000000000000000000081526004016126bf9061483e565b60405180910390fd5b6000600a6000878152602001908152602001600020905060005b85859050811015612abe57600e600081548092919061270090614b2d565b9190505550600e54600d6000888885818110612745577f4e487b7100000000000000000000000000000000000000000000000000000000600052603260045260246000fd5b905060200201602081019061275a9190614298565b73ffffffffffffffffffffffffffffffffffffffff1673ffffffffffffffffffffffffffffffffffffffff16815260200190815260200160002060008686858181106127cf577f4e487b7100000000000000000000000000000000000000000000000000000000600052603260045260246000fd5b905060200201358152602001908152602001600020819055506000868683818110612823577f4e487b7100000000000000000000000000000000000000000000000000000000600052603260045260246000fd5b90506020020160208101906128389190614298565b73ffffffffffffffffffffffffffffffffffffffff16636352211e86868581811061288c577f4e487b7100000000000000000000000000000000000000000000000000000000600052603260045260246000fd5b905060200201356040518263ffffffff1660e01b81526004016128af919061491e565b60206040518083038186803b1580156128c757600080fd5b505afa1580156128db573d6000803e3d6000fd5b505050506040513d601f19601f820116820180604052508101906128ff91906142c1565b9050826040518060800160405280600e54815260200189898681811061294e577f4e487b7100000000000000000000000000000000000000000000000000000000600052603260045260246000fd5b90506020020160208101906129639190614298565b73ffffffffffffffffffffffffffffffffffffffff1681526020018787868181106129b7577f4e487b7100000000000000000000000000000000000000000000000000000000600052603260045260246000fd5b9050602002013581526020018373ffffffffffffffffffffffffffffffffffffffff1681525090806001815401808255809150506001900390600052602060002090600402016000909190919091506000820151816000015560208201518160010160006101000a81548173ffffffffffffffffffffffffffffffffffffffff021916908373ffffffffffffffffffffffffffffffffffffffff1602179055506040820151816002015560608201518160030160006101000a81548173ffffffffffffffffffffffffffffffffffffffff021916908373ffffffffffffffffffffffffffffffffffffffff1602179055505050508080612ab690614b2d565b9150506126e2565b50505050505050565b60166020528160005260406000206020528060005260406000206000915091509054906101000a900460ff1681565b60008060009054906101000a900473ffffffffffffffffffffffffffffffffffffffff16905090565b6060806000612b2d84613c48565b9050805167ffffffffffffffff811115612b70577f4e487b7100000000000000000000000000000000000000000000000000000000600052604160045260246000fd5b604051908082528060200260200182016040528015612b9e5781602001602082028036833780820191505090505b509250805167ffffffffffffffff811115612be2577f4e487b7100000000000000000000000000000000000000000000000000000000600052604160045260246000fd5b604051908082528060200260200182016040528015612c105781602001602082028036833780820191505090505b50915060005b8151811015612f28576000612c6b86848481518110612c5e577f4e487b7100000000000000000000000000000000000000000000000000000000600052603260045260246000fd5b6020026020010151610967565b9050612cad6005600088815260200190815260200160002054612c9f670de0b6b3a76400008461407790919063ffffffff16565b61408d90919063ffffffff16565b858381518110612ce6577f4e487b7100000000000000000000000000000000000000000000000000000000600052603260045260246000fd5b602002602001018181525050670429d069189e0000858381518110612d34577f4e487b7100000000000000000000000000000000000000000000000000000000600052603260045260246000fd5b60200260200101511015612d95576702c68af0bb140000848381518110612d84577f4e487b7100000000000000000000000000000000000000000000000000000000600052603260045260246000fd5b602002602001018181525050612f14565b670429d069189e0000858381518110612dd7577f4e487b7100000000000000000000000000000000000000000000000000000000600052603260045260246000fd5b602002602001015110158015612e3457506709b6e64a8ec60000858381518110612e2a577f4e487b7100000000000000000000000000000000000000000000000000000000600052603260045260246000fd5b6020026020010151105b15612ec457848281518110612e72577f4e487b7100000000000000000000000000000000000000000000000000000000600052603260045260246000fd5b6020026020010151848381518110612eb3577f4e487b7100000000000000000000000000000000000000000000000000000000600052603260045260246000fd5b602002602001018181525050612f13565b670de0b6b3a7640000848381518110612f06577f4e487b7100000000000000000000000000000000000000000000000000000000600052603260045260246000fd5b6020026020010181815250505b5b508080612f2090614b2d565b915050612c16565b5050915091565b60086020528060005260406000206000915090505481565b612f4f6140cf565b73ffffffffffffffffffffffffffffffffffffffff16612f6d612af6565b73ffffffffffffffffffffffffffffffffffffffff1614612fc3576040517f08c379a0000000000000000000000000000000000000000000000000000000008152600401612fba906148be565b60405180910390fd5b6001601760008373ffffffffffffffffffffffffffffffffffffffff1673ffffffffffffffffffffffffffffffffffffffff16815260200190815260200160002060006101000a81548160ff02191690831515021790555050565b6060600a60008381526020019081526020016000208054905067ffffffffffffffff811115613076577f4e487b7100000000000000000000000000000000000000000000000000000000600052604160045260246000fd5b6040519080825280602002602001820160405280156130a45781602001602082028036833780820191505090505b50905060005b600a6000848152602001908152602001600020805490508110156131e6576000600f60008581526020019081526020016000205411156131d35761318d600f60008581526020019081526020016000205461317f60035460106000600a60008a81526020019081526020016000208781548110613150577f4e487b7100000000000000000000000000000000000000000000000000000000600052603260045260246000fd5b90600052602060002090600402016000015481526020019081526020016000205461407790919063ffffffff16565b61408d90919063ffffffff16565b8282815181106131c6577f4e487b7100000000000000000000000000000000000000000000000000000000600052603260045260246000fd5b6020026020010181815250505b80806131de90614b2d565b9150506130aa565b50919050565b600080600090506000600190505b60095481116132b0576000601260008673ffffffffffffffffffffffffffffffffffffffff1673ffffffffffffffffffffffffffffffffffffffff1681526020019081526020016000206000838152602001908152602001600020604051806040016040529081600082015481526020016001820154815250509050428160200151111561329c57613299816000015184613d8390919063ffffffff16565b92505b5080806132a890614b2d565b9150506131fa565b5080915050919050565b600660009054906101000a900473ffffffffffffffffffffffffffffffffffffffff1681565b6132e86140cf565b73ffffffffffffffffffffffffffffffffffffffff16613306612af6565b73ffffffffffffffffffffffffffffffffffffffff161461335c576040517f08c379a0000000000000000000000000000000000000000000000000000000008152600401613353906148be565b60405180910390fd5b6000601760008373ffffffffffffffffffffffffffffffffffffffff1673ffffffffffffffffffffffffffffffffffffffff16815260200190815260200160002060006101000a81548160ff02191690831515021790555050565b6014602052826000526040600020602052816000526040600020602052806000526040600020600092509250509054906101000a900460ff1681565b600080600190505b600954811161349c576000601260003373ffffffffffffffffffffffffffffffffffffffff1673ffffffffffffffffffffffffffffffffffffffff1681526020019081526020016000206000838152602001908152602001600020905042816001015410156134885761347b816000015484613d8390919063ffffffff16565b9250600081600001819055505b50808061349490614b2d565b9150506133fb565b50600081111561355757600660009054906101000a900473ffffffffffffffffffffffffffffffffffffffff1673ffffffffffffffffffffffffffffffffffffffff1663a9059cbb33836040518363ffffffff1660e01b8152600401613503929190614726565b602060405180830381600087803b15801561351d57600080fd5b505af1158015613531573d6000803e3d6000fd5b505050506040513d601f19601f820116820180604052508101906135559190614375565b505b50565b600061356582613c48565b9050600061357283611c32565b905060008061358042611b11565b905060005b845181101561378257818582815181106135c8577f4e487b7100000000000000000000000000000000000000000000000000000000600052603260045260246000fd5b6020026020010151106135da57613782565b601460003373ffffffffffffffffffffffffffffffffffffffff1673ffffffffffffffffffffffffffffffffffffffff16815260200190815260200160002060008781526020019081526020016000206000868381518110613665577f4e487b7100000000000000000000000000000000000000000000000000000000600052603260045260246000fd5b6020026020010151815260200190815260200160002060009054906101000a900460ff16156136935761376f565b600061374c670de0b6b3a764000061373e8785815181106136dd577f4e487b7100000000000000000000000000000000000000000000000000000000600052603260045260246000fd5b6020026020010151613730338c8c8981518110613723577f4e487b7100000000000000000000000000000000000000000000000000000000600052603260045260246000fd5b6020026020010151613936565b61407790919063ffffffff16565b61408d90919063ffffffff16565b9050600081111561376d5761376a8185613d8390919063ffffffff16565b93505b505b808061377a90614b2d565b915050613585565b50600082111561383d57600760009054906101000a900473ffffffffffffffffffffffffffffffffffffffff1673ffffffffffffffffffffffffffffffffffffffff1663c8773af233846040518363ffffffff1660e01b81526004016137e9929190614726565b602060405180830381600087803b15801561380357600080fd5b505af1158015613817573d6000803e3d6000fd5b505050506040513d601f19601f8201168201806040525081019061383b91906143c7565b505b5050505050565b60056020528060005260406000206000915090505481565b600e5481565b600080600090506000600954141561387e57600091505061392b565b6000601260008573ffffffffffffffffffffffffffffffffffffffff1673ffffffffffffffffffffffffffffffffffffffff168152602001908152602001600020600060016009546138d09190614a8d565b8152602001908152602001600020604051806040016040529081600082015481526020016001820154815250509050428160200151111561392557613922816000015183613d8390919063ffffffff16565b91505b81925050505b919050565b60045481565b600080600090506000600a6000868152602001908152602001600020805480602002602001604051908101604052809291908181526020016000905b82821015613a645783829060005260206000209060040201604051806080016040529081600082015481526020016001820160009054906101000a900473ffffffffffffffffffffffffffffffffffffffff1673ffffffffffffffffffffffffffffffffffffffff1673ffffffffffffffffffffffffffffffffffffffff168152602001600282015481526020016003820160009054906101000a900473ffffffffffffffffffffffffffffffffffffffff1673ffffffffffffffffffffffffffffffffffffffff1673ffffffffffffffffffffffffffffffffffffffff168152505081526020019060010190613972565b50505050905060005b8151811015613b4357613b2e83600c60008a73ffffffffffffffffffffffffffffffffffffffff1673ffffffffffffffffffffffffffffffffffffffff16815260200190815260200160002060008881526020019081526020016000206000858581518110613b05577f4e487b7100000000000000000000000000000000000000000000000000000000600052603260045260246000fd5b602002602001015160000151815260200190815260200160002054613d8390919063ffffffff16565b92508080613b3b90614b2d565b915050613a6d565b5081925050509392505050565b613b586140cf565b73ffffffffffffffffffffffffffffffffffffffff16613b76612af6565b73ffffffffffffffffffffffffffffffffffffffff1614613bcc576040517f08c379a0000000000000000000000000000000000000000000000000000000008152600401613bc3906148be565b60405180910390fd5b600073ffffffffffffffffffffffffffffffffffffffff168173ffffffffffffffffffffffffffffffffffffffff161415613c3c576040517f08c379a0000000000000000000000000000000000000000000000000000000008152600401613c339061481e565b60405180910390fd5b613c45816140d7565b50565b6060600060086000848152602001908152602001600020549050600767ffffffffffffffff811115613ca3577f4e487b7100000000000000000000000000000000000000000000000000000000600052604160045260246000fd5b604051908082528060200260200182016040528015613cd15781602001602082028036833780820191505090505b5091506000613cdf82611b11565b905060005b6007811015613d7b57613d23603c80601884613d009190614a33565b613d0a9190614a33565b613d149190614a33565b83613d8390919063ffffffff16565b848281518110613d5c577f4e487b7100000000000000000000000000000000000000000000000000000000600052603260045260246000fd5b6020026020010181815250508080613d7390614b2d565b915050613ce4565b505050919050565b60008183613d9191906149ac565b905092915050565b6000613da442611b11565b90506000613db3600954613c48565b90506000600d60008773ffffffffffffffffffffffffffffffffffffffff1673ffffffffffffffffffffffffffffffffffffffff168152602001908152602001600020600086815260200190815260200160002054905060005b8251811015613fef5783838281518110613e50577f4e487b7100000000000000000000000000000000000000000000000000000000600052603260045260246000fd5b602002602001015110613fdc576000838281518110613e98577f4e487b7100000000000000000000000000000000000000000000000000000000600052603260045260246000fd5b60200260200101519050613ed986600b6000848152602001908152602001600020600086815260200190815260200160002054613d8390919063ffffffff16565b600b6000838152602001908152602001600020600085815260200190815260200160002081905550613f7586600c60008c73ffffffffffffffffffffffffffffffffffffffff1673ffffffffffffffffffffffffffffffffffffffff1681526020019081526020016000206000848152602001908152602001600020600086815260200190815260200160002054613d8390919063ffffffff16565b600c60008b73ffffffffffffffffffffffffffffffffffffffff1673ffffffffffffffffffffffffffffffffffffffff1681526020019081526020016000206000838152602001908152602001600020600085815260200190815260200160002081905550505b8080613fe790614b2d565b915050613e0d565b50614016846010600084815260200190815260200160002054613d8390919063ffffffff16565b601060008381526020019081526020016000208190555061405584600f6000600954815260200190815260200160002054613d8390919063ffffffff16565b600f600060095481526020019081526020016000208190555050505050505050565b600081836140859190614a33565b905092915050565b6000818361409b9190614a02565b905092915050565b600081836140b19190614a8d565b905092915050565b600081836140c79190614b76565b905092915050565b600033905090565b60008060009054906101000a900473ffffffffffffffffffffffffffffffffffffffff169050816000806101000a81548173ffffffffffffffffffffffffffffffffffffffff021916908373ffffffffffffffffffffffffffffffffffffffff1602179055508173ffffffffffffffffffffffffffffffffffffffff168173ffffffffffffffffffffffffffffffffffffffff167f8be0079c531659141344cd1fd0a4f28419497f9722a3daafe3b4186f6b6457e060405160405180910390a35050565b6000813590506141aa81614dc5565b92915050565b6000815190506141bf81614dc5565b92915050565b60008083601f8401126141d757600080fd5b8235905067ffffffffffffffff8111156141f057600080fd5b60208301915083602082028301111561420857600080fd5b9250929050565b60008083601f84011261422157600080fd5b8235905067ffffffffffffffff81111561423a57600080fd5b60208301915083602082028301111561425257600080fd5b9250929050565b60008151905061426881614ddc565b92915050565b60008135905061427d81614df3565b92915050565b60008151905061429281614df3565b92915050565b6000602082840312156142aa57600080fd5b60006142b88482850161419b565b91505092915050565b6000602082840312156142d357600080fd5b60006142e1848285016141b0565b91505092915050565b600080604083850312156142fd57600080fd5b600061430b8582860161419b565b925050602061431c8582860161426e565b9150509250929050565b60008060006060848603121561433b57600080fd5b60006143498682870161419b565b935050602061435a8682870161426e565b925050604061436b8682870161426e565b9150509250925092565b60006020828403121561438757600080fd5b600061439584828501614259565b91505092915050565b6000602082840312156143b057600080fd5b60006143be8482850161426e565b91505092915050565b6000602082840312156143d957600080fd5b60006143e784828501614283565b91505092915050565b60008060008060006060868803121561440857600080fd5b60006144168882890161426e565b955050602086013567ffffffffffffffff81111561443357600080fd5b61443f888289016141c5565b9450945050604086013567ffffffffffffffff81111561445e57600080fd5b61446a8882890161420f565b92509250509295509295909350565b6000806040838503121561448c57600080fd5b600061449a8582860161426e565b92505060206144ab8582860161426e565b9150509250929050565b60006144c183836146b6565b60208301905092915050565b6144d681614ac1565b82525050565b60006144e782614972565b6144f1818561498a565b93506144fc83614962565b8060005b8381101561452d57815161451488826144b5565b975061451f8361497d565b925050600181019050614500565b5085935050505092915050565b61454381614ad3565b82525050565b61455281614b09565b82525050565b600061456560168361499b565b915061457082614c05565b602082019050919050565b600061458860198361499b565b915061459382614c2e565b602082019050919050565b60006145ab60268361499b565b91506145b682614c57565b604082019050919050565b60006145ce600e8361499b565b91506145d982614ca6565b602082019050919050565b60006145f160138361499b565b91506145fc82614ccf565b602082019050919050565b6000614614600e8361499b565b915061461f82614cf8565b602082019050919050565b6000614637600b8361499b565b915061464282614d21565b602082019050919050565b600061465a60208361499b565b915061466582614d4a565b602082019050919050565b600061467d60078361499b565b915061468882614d73565b602082019050919050565b60006146a060108361499b565b91506146ab82614d9c565b602082019050919050565b6146bf81614aff565b82525050565b6146ce81614aff565b82525050565b60006020820190506146e960008301846144cd565b92915050565b600060608201905061470460008301866144cd565b61471160208301856144cd565b61471e60408301846146c5565b949350505050565b600060408201905061473b60008301856144cd565b61474860208301846146c5565b9392505050565b6000602082019050818103600083015261476981846144dc565b905092915050565b6000604082019050818103600083015261478b81856144dc565b9050818103602083015261479f81846144dc565b90509392505050565b60006020820190506147bd600083018461453a565b92915050565b60006020820190506147d86000830184614549565b92915050565b600060208201905081810360008301526147f781614558565b9050919050565b600060208201905081810360008301526148178161457b565b9050919050565b600060208201905081810360008301526148378161459e565b9050919050565b60006020820190508181036000830152614857816145c1565b9050919050565b60006020820190508181036000830152614877816145e4565b9050919050565b6000602082019050818103600083015261489781614607565b9050919050565b600060208201905081810360008301526148b78161462a565b9050919050565b600060208201905081810360008301526148d78161464d565b9050919050565b600060208201905081810360008301526148f781614670565b9050919050565b6000602082019050818103600083015261491781614693565b9050919050565b600060208201905061493360008301846146c5565b92915050565b600060408201905061494e60008301856146c5565b61495b60208301846146c5565b9392505050565b6000819050602082019050919050565b600081519050919050565b6000602082019050919050565b600082825260208201905092915050565b600082825260208201905092915050565b60006149b782614aff565b91506149c283614aff565b9250827fffffffffffffffffffffffffffffffffffffffffffffffffffffffffffffffff038211156149f7576149f6614ba7565b5b828201905092915050565b6000614a0d82614aff565b9150614a1883614aff565b925082614a2857614a27614bd6565b5b828204905092915050565b6000614a3e82614aff565b9150614a4983614aff565b9250817fffffffffffffffffffffffffffffffffffffffffffffffffffffffffffffffff0483118215151615614a8257614a81614ba7565b5b828202905092915050565b6000614a9882614aff565b9150614aa383614aff565b925082821015614ab657614ab5614ba7565b5b828203905092915050565b6000614acc82614adf565b9050919050565b60008115159050919050565b600073ffffffffffffffffffffffffffffffffffffffff82169050919050565b6000819050919050565b6000614b1482614b1b565b9050919050565b6000614b2682614adf565b9050919050565b6000614b3882614aff565b91507fffffffffffffffffffffffffffffffffffffffffffffffffffffffffffffffff821415614b6b57614b6a614ba7565b5b600182019050919050565b6000614b8182614aff565b9150614b8c83614aff565b925082614b9c57614b9b614bd6565b5b828206905092915050565b7f4e487b7100000000000000000000000000000000000000000000000000000000600052601160045260246000fd5b7f4e487b7100000000000000000000000000000000000000000000000000000000600052601260045260246000fd5b7f566f74696e67206973206e6f742066696e697368656400000000000000000000600082015250565b7f496e73756666696369656e7420766f74652062616c616e636500000000000000600082015250565b7f4f776e61626c653a206e6577206f776e657220697320746865207a65726f206160008201527f6464726573730000000000000000000000000000000000000000000000000000602082015250565b7f496e76616c696420706172616d73000000000000000000000000000000000000600082015250565b7f566f74696e67206973206e6f7420737461727400000000000000000000000000600082015250565b7f566f74696e67206973206f766572000000000000000000000000000000000000600082015250565b7f496e76616c6964204e4654000000000000000000000000000000000000000000600082015250565b7f4f776e61626c653a2063616c6c6572206973206e6f7420746865206f776e6572600082015250565b7f436c61696d656400000000000000000000000000000000000000000000000000600082015250565b7f496e76616c69642067726f757020494400000000000000000000000000000000600082015250565b614dce81614ac1565b8114614dd957600080fd5b50565b614de581614ad3565b8114614df057600080fd5b50565b614dfc81614aff565b8114614e0757600080fd5b5056fea2646970667358221220c1618082825b5150422bd928213e6cfe24010a0f0ce3bfee504b7c4b8c747be464736f6c63430008040033",
  "immutableReferences": {},
  "source": "// SPDX-License-Identifier: MIT\npragma solidity ^0.8.0;\n\nimport \"@openzeppelin/contracts/access/Ownable.sol\";\nimport \"@openzeppelin/contracts/utils/math/SafeMath.sol\";\nimport \"@openzeppelin/contracts/token/ERC20/IERC20.sol\";\nimport \"@openzeppelin/contracts/token/ERC721/IERC721.sol\";\n\n\ninterface ITreasury {\n\tfunction sendRewards(address to, uint256 amount) external returns(uint256 val);\n\tfunction uink() external view returns(address);\n}\n\ncontract VoteMining is Ownable {\n\tusing SafeMath for uint256;\n\n\tuint public weeklyCap = 50000 * 1e18;\n\tuint public dailyVoteRewardCap = weeklyCap / 7 / 4; // 25% of daily cap \n\tuint public dailyMintRewardCap = weeklyCap / 7 / 4; // 25% of daily cap \n\tuint public bonusCap = weeklyCap  / 2; // 50% of weekly cap\n\t// group id => amount\n\tmapping (uint => uint) public stakingBases;\n\n\n\taddress public uink;\n\tITreasury public treasury;\n\n\tstruct NFT {\n\t\tuint uid;\n\t\taddress addr;\n\t\tuint id;\n\t\taddress owner;\n\t}\n\t// id => start time\n\tmapping (uint => uint) public groups;\n\tuint public currentGroupId = 0;\n\n\t\n\t// id => NFT[]\n\tmapping (uint => NFT[]) groupNFTs;\n\t// date => NFT uid => votes\n\tmapping (uint => mapping (uint => uint)) dayVotes;\n\t// user => date => NFT id => amount\n\tmapping (address => mapping (uint => mapping (uint => uint))) userVotes;\n\t\t\n\t// address => nftId => internal id\n\tmapping (address => mapping (uint => uint)) nfts;\n\tuint public nextNFTId = 0;\n\t// group id => votes\n\tmapping (uint => uint) public groupVotes;\n\n\t// uid => votes\n\tmapping (uint => uint) public nftVotes;\n\t\n\t\n\tstruct VoteBalance {\n\t\tuint balance;\n\t\tuint releaseAt;\n\t}\n\n\t// user => amount\n\tmapping (address => uint) public balances;\n\n\t// user => group => amount\n\tmapping (address => mapping (uint => VoteBalance)) public nextVotableBalances;\n\t\n\t// uid => price\n\tmapping (uint => uint) public nftTradedPrices;\n\t// user => group => date => bool\n\tmapping (address => mapping (uint => mapping (uint => bool))) public voteRewardsClaimed;\n\t// user = > group id => bool\n\tmapping (address => mapping (uint => bool)) public bonusRewardsClaimed;\n\t// user => group id => bool\n\tmapping (address => mapping (uint => bool)) public mintRewardsClaimed;\n\t\n\n\tmapping (address => bool) public operators;\n\t\n\n\tmodifier checkNFT(address nftAddr, uint nftId) { \n\t\trequire(nfts[nftAddr][nftId] > 0, \"Invalid NFT\");\n\t\t_; \n\t}\n\n\tmodifier checkVotingTime() { \n\t\trequire(groups[currentGroupId] <= block.timestamp, \"Voting is not start\");\n\t\trequire(groups[currentGroupId].add(7 days) >= block.timestamp, \"Voting is over\");\n\t\t_; \n\t}\n\n\tmodifier onlyOperator() {\n\t\trequire(operators[msg.sender], \"Not operator\");\n\t\t_;\n\t}\n\t\n\tconstructor(address _treasury) public{\n\t\ttreasury = ITreasury(_treasury);\n\t\tuink = treasury.uink();\n\t}\n\n\tfunction addOperator(address _operator) external onlyOwner {\n\t\toperators[_operator] = true;\n\t}\n\t\n\tfunction removeOperator(address _operator) external onlyOwner {\n\t\toperators[_operator] = false;\n\t}\n\n\tfunction addGroup(uint stakingBase, uint startTime) external onlyOwner {\n\t\tcurrentGroupId++;\n\t\tgroups[currentGroupId] = startTime;\n\t\tstakingBases[currentGroupId] = stakingBase;\n\t}\n\n\tfunction addNFT(uint groupId, address[] calldata nftAddrs, uint[] calldata nftIds) external onlyOwner {\n\t\trequire(nftAddrs.length == nftIds.length, \"Invalid params\");\n\t\tNFT[] storage inputNFTs = groupNFTs[groupId];\n\n\t\tfor(uint i = 0; i < nftAddrs.length; i++) {\n\t\t\tnextNFTId++;\n\t\t\tnfts[nftAddrs[i]][nftIds[i]] = nextNFTId;\n\t\t\taddress nftOwner = IERC721(nftAddrs[i]).ownerOf(nftIds[i]);\n\t\t\tinputNFTs.push(NFT({\n\t\t\t\tuid: nextNFTId,\n\t\t\t\taddr: nftAddrs[i],\n\t\t\t\tid: nftIds[i],\n\t\t\t\towner: nftOwner\n\t\t\t}));\n\t\t}\n\t}\n\t\n\tfunction setNFTTradedPrice(address nftAddr, uint nftId, uint price) external onlyOwner {\n\t\tuint uid = nfts[nftAddr][nftId];\n\t\tnftTradedPrices[uid] = price;\n\t}\n\t\n\tfunction getDate(uint256 ts) public pure returns(uint256) {\n\t\treturn ts.sub(ts.mod(1 days));\n\t}\n\n\tfunction getVotableDates(uint groupId) public view returns(uint[] memory dates) {\n\t\tuint start = groups[groupId];\n\t\tdates = new uint[](7);\n\t\tuint firstDate = getDate(start);\n\t\tfor(uint i = 0; i < 7; i++) {\n\t\t\tdates[i] = firstDate.add(i * 24 * 60 * 60);\n\t\t}\n\t}\n\n\tfunction getVotableBalance(address user) public view returns(uint) {\n\t\tuint balance = 0;\n\t\tif(currentGroupId == 0) {\n\t\t\treturn 0;\n\t\t}\n\n\t\tVoteBalance memory preVotableBalance = nextVotableBalances[user][currentGroupId - 1];\n\t\tif(preVotableBalance.releaseAt > block.timestamp) {\n\t\t\tbalance = balance.add(preVotableBalance.balance);\n\t\t}\n\n\t\treturn balance;\n\t}\n\n\tfunction getAvailableBalance(address user) public view returns(uint) {\n\t\tuint balance = 0;\n\t\tif(currentGroupId == 0) {\n\t\t\treturn balance;\n\t\t}\n\n\t\tfor(uint i = 1; i <= currentGroupId; i++) {\n\t\t\tVoteBalance memory nvBalance = nextVotableBalances[user][i];\n\t\t\tif(nvBalance.releaseAt < block.timestamp) {\n\t\t\t\tbalance = balance.add(nvBalance.balance);\n\t\t\t}\n\t\t}\n\t\treturn balance;\n\t}\n\n\tfunction getVotedBalance(address user) public view returns(uint) {\n\t\tuint balance = 0;\n\t\tfor(uint i = 1; i <= currentGroupId; i++) {\n\t\t\tVoteBalance memory nvBalance = nextVotableBalances[user][i];\n\t\t\tif(nvBalance.releaseAt > block.timestamp) {\n\t\t\t\tbalance = balance.add(nvBalance.balance);\n\t\t\t}\n\t\t}\n\t\treturn balance;\n\t}\n\n\n\n\tfunction _vote(address user, address nftAddr, uint nftId, uint amount) internal {\n\t\tuint today = getDate(block.timestamp);\n\t\tuint[] memory dates = getVotableDates(currentGroupId);\n\t\tuint uid = nfts[nftAddr][nftId];\n\n\t\tfor(uint i = 0; i < dates.length; i++) {\n\t\t\tif(dates[i] >= today) {\n\t\t\t\tuint date = dates[i];\n\t\t\t\tdayVotes[date][uid] = dayVotes[date][uid].add(amount);\n\t\t\t\tuserVotes[user][date][uid] = userVotes[user][date][uid].add(amount);\n\t\t\t}\n\t\t}\n\t\tnftVotes[uid] = nftVotes[uid].add(amount);\n\t\tgroupVotes[currentGroupId] = groupVotes[currentGroupId].add(amount);\n\t}\n\n\t// stake and vote\n\tfunction stake(address nftAddr, uint nftId, uint amount)\n\t\texternal \n\t\tcheckVotingTime\n\t\tcheckNFT(nftAddr, nftId) \n\t{\n\t\t_vote(msg.sender, nftAddr, nftId, amount);\n\n\t\tIERC20(uink).transferFrom(msg.sender, address(this), amount);\n\t\tbalances[msg.sender] = balances[msg.sender].add(amount);\n\n\n\t\tVoteBalance storage nvBalance = nextVotableBalances[msg.sender][currentGroupId];\n\t\tnvBalance.balance = nvBalance.balance.add(amount);\n\t\tif(nvBalance.releaseAt == 0) {\n\t\t\tnvBalance.releaseAt = groups[currentGroupId].add(14 days); \n\t\t}\n\t}\n\n\tfunction vote(address nftAddr, uint nftId, uint amount) \n\t\texternal \n\t\tcheckVotingTime\n\t\tcheckNFT(nftAddr, nftId)\n\t{\n\t\tuint votableBalance = getVotableBalance(msg.sender);\n\t\trequire(votableBalance >= amount, \"Insufficient vote balance\");\n\t\t_vote(msg.sender, nftAddr, nftId, amount);\n\n\n\t\tVoteBalance storage pvBalance = nextVotableBalances[msg.sender][currentGroupId - 1];\n\t\tif(pvBalance.releaseAt > block.timestamp) {\n\t\t\tpvBalance.balance = pvBalance.balance.sub(amount);\n\t\t}\n\n\t\tVoteBalance storage nvBalance = nextVotableBalances[msg.sender][currentGroupId];\n\t\tnvBalance.balance = nvBalance.balance.add(amount);\n\t\tif(nvBalance.releaseAt == 0) {\n\t\t\tnvBalance.releaseAt = groups[currentGroupId].add(14 days);\t\t\t\n\t\t}\n\t}\n\n\n\tfunction redeem() external {\n\t\tuint total = 0;\n\t\tfor(uint i = 1; i <= currentGroupId; i++) {\n\t\t\tVoteBalance storage nvBalance = nextVotableBalances[msg.sender][i];\n\t\t\tif(nvBalance.releaseAt < block.timestamp) {\n\t\t\t\ttotal = total.add(nvBalance.balance);\n\t\t\t\tnvBalance.balance = 0;\n\t\t\t}\n\t\t}\n\n\t\tif(total > 0) {\n\t\t\tIERC20(uink).transfer(msg.sender, total);\t\n\t\t}\n\t}\n\n\tfunction getUserDailyVotes(address user, uint groupId, uint date) public view returns(uint) {\n\t\tuint votes = 0;\n\t\tNFT[] memory gNFTs = groupNFTs[groupId];\n\t\tfor(uint i = 0; i < gNFTs.length; i++) {\n\t\t\tvotes = userVotes[user][date][gNFTs[i].uid].add(votes);\n\t\t}\n\t\treturn votes;\n\t}\n\n\tfunction getUserVotesByNFT(address user, uint groupId, uint uid) public view returns(uint) {\n\t\tuint[] memory dates = getVotableDates(groupId);\n\t\tuint votes = 0;\n\t\tfor(uint i = 0; i < dates.length; i++) {\n\t\t\tvotes = userVotes[user][dates[i]][uid].add(votes);\n\t\t}\n\t\treturn votes;\n\t}\n\n\tfunction claimVoteRewards(uint groupId) external {\n\n\n\t\tuint[] memory dates = getVotableDates(groupId);\n\t\tuint[] memory rawardRates = getBaseRewardRates(groupId);\n\n\t\tuint rewards = 0;\n\t\tuint today = getDate(block.timestamp);\n\t\tfor(uint i = 0; i < dates.length; i++) {\n\t\t\tif(dates[i] >= today){\n\t\t\t\tbreak;\n\t\t\t}\n\t\t\tif(voteRewardsClaimed[msg.sender][groupId][dates[i]]){\n\t\t\t\tcontinue;\n\t\t\t}\n\n\t\t\tuint dayRewards = getUserDailyVotes(msg.sender, groupId, dates[i]).mul(rawardRates[i]).div(1e18);\n\t\t\tif(dayRewards > 0) {\n\t\t\t\trewards = rewards.add(dayRewards);\n\t\t\t}\n\t\t}\n\n\t\tif(rewards > 0) {\n\t\t\ttreasury.sendRewards(msg.sender, rewards);\n\t\t}\n\t}\n\n\n\tfunction claimMintRewards(uint groupId) external {\n\t\trequire(!mintRewardsClaimed[msg.sender][groupId], \"Claimed\");\n\t\trequire(groupId <= currentGroupId && groups[groupId] > 0, \"Invalid group ID\");\n\t\trequire(groups[groupId] + 7 days < block.timestamp, \"Voting is not finished\");\n\t\tuint rewards = 0;\n\t\tfor(uint i = 0; i < groupNFTs[groupId].length; i++) {\n\t\t\tif(groupNFTs[groupId][i].owner == msg.sender) {\n\t\t\t\trewards = rewards.add(getMintRewardsPerNFT(groupId)[i]);\n\t\t\t}\n\t\t}\n\t\tif(rewards > 0) {\n\t\t\ttreasury.sendRewards(msg.sender, rewards);\n\t\t}\n\t}\n\n\tfunction claimBonusRewards(uint groupId) external {\n\t\trequire(!bonusRewardsClaimed[msg.sender][groupId], \"Claimed\");\n\t\tuint[] memory rewardRates = getBonusRewardRates(groupId);\n\t\tuint rewards = 0;\n\t\tfor(uint i = 0; i < groupNFTs[groupId].length; i++) {\n\t\t\tif(groupNFTs[groupId][i].owner == msg.sender) {\n\t\t\t\tuint votes = getUserVotesByNFT(msg.sender, groupId, groupNFTs[groupId][i].uid);\n\t\t\t\trewards = votes.mul(rewardRates[i]).div(1e18).add(rewards);\n\t\t\t}\n\t\t}\n\t\tif(rewards > 0) {\n\t\t\ttreasury.sendRewards(msg.sender, rewards);\n\t\t}\n\t}\n\n\tfunction getTradeWeights(uint groupId) public view returns(uint[] memory weights) {\n\t\tNFT[] memory gNFTs = groupNFTs[groupId];\n\t\tweights = new uint[](gNFTs.length);\n\t\tuint total = 0;\n\t\tfor(uint i = 0; i < gNFTs.length; i++){\n\t\t\ttotal = total.add(nftTradedPrices[gNFTs[i].uid]);\n\t\t}\n\n\t\tif(total > 0) {\n\t\t\tfor(uint i = 0; i < gNFTs.length; i++){\n\t\t\t\tweights[i] = nftTradedPrices[gNFTs[i].uid].mul(1e18).div(total);\n\t\t\t}\n\t\t}\n\t}\n\n\tfunction getBonusRewardRates(uint groupId) public view returns(uint[] memory bonusRewardRates) {\n\t\tuint[] memory weights = getTradeWeights(groupId);\n\t\tNFT[] memory gNFTs = groupNFTs[groupId];\n\t\tbonusRewardRates = new uint[](gNFTs.length);\n\t\t(, uint[] memory inflations) = getWeightsAndInflations(groupId);\n\t\tuint bonus = bonusCap.mul(inflations[inflations.length - 1]).div(1e18);\n\n\t\tfor(uint i = 0; i < gNFTs.length; i++) {\n\t\t\tif(nftVotes[gNFTs[i].uid] == 0) {\n\t\t\t\tbonusRewardRates[i] = 0;\n\t\t\t} else {\n\t\t\t\tbonusRewardRates[i] = bonus.mul(weights[i]).div(nftVotes[gNFTs[i].uid]);\n\t\t\t}\n\t\t}\n\t}\n\n\tfunction getDailyVotes(uint groupId, uint date) public view returns(uint256) {\n\t\tuint votes = 0;\n\t\tfor(uint i = 0; i < groupNFTs[groupId].length; i++) {\n\t\t\tuint uid = groupNFTs[groupId][i].uid;\n\t\t\tvotes = votes.add(dayVotes[date][uid]);\n\t\t}\n\t\treturn votes;\n\t}\n\n\tfunction getWeightsAndInflations(uint groupId)\n\t\tpublic\n\t\tview\n\t\treturns(\n\t\t\tuint[] memory weights,\n\t\t\tuint[] memory inflations\n\t\t) \n\t{\n\n\t\tuint[] memory dates = getVotableDates(groupId);\n\t\tweights = new uint[](dates.length);\n\t\tinflations = new uint[](dates.length);\n\n\t\tfor(uint i = 0; i < dates.length; i++) {\n\t\t\tuint dailyVotes = getDailyVotes(groupId, dates[i]);\n\t\t\tweights[i] = dailyVotes.mul(1e18).div(stakingBases[groupId]);\n\t\t\tif(weights[i] < 3 * 1e17) {\n\t\t\t\tinflations[i] = 2 * 1e17;\n\t\t\t} else if(weights[i] >= 3 * 1e17 &&  weights[i] < 7 * 1e17) {\n\t\t\t\tinflations[i] = weights[i];\n\t\t\t} else {\n\t\t\t\tinflations[i] = 1e18;\n\t\t\t}\n\t\t}\n\t}\n\n\tfunction getBaseRewardRates(uint groupId) \n\t\tpublic view \n\t\treturns(uint[] memory rewardRates) \n\t{\n\n\t\tuint[] memory dates = getVotableDates(groupId);\n\t\t(,uint[] memory inflations) = getWeightsAndInflations(groupId);\n\t\trewardRates = new uint[](dates.length);\n\n\t\tfor(uint i = 0; i < dates.length; i++) {\n\t\t\tif(dates[i] > getDate(block.timestamp)) {\n\t\t\t\tcontinue;\n\t\t\t}\n\t\t\tuint dailyTotalVotes = getDailyVotes(groupId, dates[i]);\n\t\t\trewardRates[i] = inflations[i].mul(dailyVoteRewardCap).div(dailyTotalVotes);\n\t\t}\n\t}\n\n\tfunction getMintRewardsPerNFT(uint groupId)\n\t\tpublic view \n\t\treturns(uint[] memory mintRewards) \n\t{\n\t\tmintRewards = new uint[](groupNFTs[groupId].length);\n\t\tfor(uint i = 0; i < groupNFTs[groupId].length; i++) {\n\t\t\tif(groupVotes[groupId] > 0) {\n\t\t\t\tmintRewards[i] = nftVotes[groupNFTs[groupId][i].uid].mul(dailyMintRewardCap).div(groupVotes[groupId]);\n\t\t\t}\n\t\t}\n\t}\n}",
  "sourcePath": "/Users/yxf/app/uniarts-eth-dao/contracts/VoteMining.sol",
  "compiler": {
    "name": "solc",
    "version": "0.8.4+commit.c7e474f2.Emscripten.clang"
  },
  "schemaVersion": "3.2.3",
  "updatedAt": "2021-08-18T03:32:36.170Z",
  "devdoc": {
    "kind": "dev",
    "methods": {
      "owner()": {
        "details": "Returns the address of the current owner."
      },
      "renounceOwnership()": {
        "details": "Leaves the contract without owner. It will not be possible to call `onlyOwner` functions anymore. Can only be called by the current owner. NOTE: Renouncing ownership will leave the contract without an owner, thereby removing any functionality that is only available to the owner."
      },
      "transferOwnership(address)": {
        "details": "Transfers ownership of the contract to a new account (`newOwner`). Can only be called by the current owner."
      }
    },
    "version": 1
  },
  "userdoc": {
    "kind": "user",
    "methods": {},
    "version": 1
  }
}