{
  "contractName": "VoteMining",
  "abi": [
    {
      "inputs": [
        {
          "internalType": "address",
          "name": "_treasury",
          "type": "address"
        },
        {
          "internalType": "address",
          "name": "_auction",
          "type": "address"
        },
        {
          "internalType": "address",
          "name": "_tokenLocker",
          "type": "address"
        }
      ],
      "stateMutability": "nonpayable",
      "type": "constructor"
    },
    {
      "anonymous": false,
      "inputs": [
        {
          "indexed": true,
          "internalType": "address",
          "name": "previousOwner",
          "type": "address"
        },
        {
          "indexed": true,
          "internalType": "address",
          "name": "newOwner",
          "type": "address"
        }
      ],
      "name": "OwnershipTransferred",
      "type": "event"
    },
    {
      "inputs": [],
      "name": "auction",
      "outputs": [
        {
          "internalType": "address",
          "name": "",
          "type": "address"
        }
      ],
      "stateMutability": "view",
      "type": "function"
    },
    {
      "inputs": [
        {
          "internalType": "address",
          "name": "",
          "type": "address"
        }
      ],
      "name": "balances",
      "outputs": [
        {
          "internalType": "uint256",
          "name": "",
          "type": "uint256"
        }
      ],
      "stateMutability": "view",
      "type": "function"
    },
    {
      "inputs": [],
      "name": "bonusCap",
      "outputs": [
        {
          "internalType": "uint256",
          "name": "",
          "type": "uint256"
        }
      ],
      "stateMutability": "view",
      "type": "function"
    },
    {
      "inputs": [
        {
          "internalType": "address",
          "name": "",
          "type": "address"
        },
        {
          "internalType": "uint256",
          "name": "",
          "type": "uint256"
        }
      ],
      "name": "bonusRewardsClaimed",
      "outputs": [
        {
          "internalType": "bool",
          "name": "",
          "type": "bool"
        }
      ],
      "stateMutability": "view",
      "type": "function"
    },
    {
      "inputs": [],
      "name": "currentGroupId",
      "outputs": [
        {
          "internalType": "uint256",
          "name": "",
          "type": "uint256"
        }
      ],
      "stateMutability": "view",
      "type": "function"
    },
    {
      "inputs": [],
      "name": "dailyMintRewardCap",
      "outputs": [
        {
          "internalType": "uint256",
          "name": "",
          "type": "uint256"
        }
      ],
      "stateMutability": "view",
      "type": "function"
    },
    {
      "inputs": [],
      "name": "dailyVoteRewardCap",
      "outputs": [
        {
          "internalType": "uint256",
          "name": "",
          "type": "uint256"
        }
      ],
      "stateMutability": "view",
      "type": "function"
    },
    {
      "inputs": [
        {
          "internalType": "uint256",
          "name": "",
          "type": "uint256"
        }
      ],
      "name": "groupVotes",
      "outputs": [
        {
          "internalType": "uint256",
          "name": "",
          "type": "uint256"
        }
      ],
      "stateMutability": "view",
      "type": "function"
    },
    {
      "inputs": [
        {
          "internalType": "uint256",
          "name": "",
          "type": "uint256"
        }
      ],
      "name": "groups",
      "outputs": [
        {
          "internalType": "uint256",
          "name": "",
          "type": "uint256"
        }
      ],
      "stateMutability": "view",
      "type": "function"
    },
    {
      "inputs": [
        {
          "internalType": "uint256",
          "name": "",
          "type": "uint256"
        }
      ],
      "name": "hasFinished",
      "outputs": [
        {
          "internalType": "bool",
          "name": "",
          "type": "bool"
        }
      ],
      "stateMutability": "view",
      "type": "function"
    },
    {
      "inputs": [
        {
          "internalType": "uint256",
          "name": "",
          "type": "uint256"
        }
      ],
      "name": "matches",
      "outputs": [
        {
          "internalType": "string",
          "name": "",
          "type": "string"
        }
      ],
      "stateMutability": "view",
      "type": "function"
    },
    {
      "inputs": [
        {
          "internalType": "uint256",
          "name": "",
          "type": "uint256"
        }
      ],
      "name": "mintRewardsClaimed",
      "outputs": [
        {
          "internalType": "bool",
          "name": "",
          "type": "bool"
        }
      ],
      "stateMutability": "view",
      "type": "function"
    },
    {
      "inputs": [],
      "name": "nextNFTId",
      "outputs": [
        {
          "internalType": "uint256",
          "name": "",
          "type": "uint256"
        }
      ],
      "stateMutability": "view",
      "type": "function"
    },
    {
      "inputs": [
        {
          "internalType": "address",
          "name": "",
          "type": "address"
        },
        {
          "internalType": "uint256",
          "name": "",
          "type": "uint256"
        }
      ],
      "name": "nextVotableBalances",
      "outputs": [
        {
          "internalType": "uint256",
          "name": "balance",
          "type": "uint256"
        },
        {
          "internalType": "uint256",
          "name": "releaseAt",
          "type": "uint256"
        }
      ],
      "stateMutability": "view",
      "type": "function"
    },
    {
      "inputs": [
        {
          "internalType": "uint256",
          "name": "",
          "type": "uint256"
        }
      ],
      "name": "nftGroup",
      "outputs": [
        {
          "internalType": "uint256",
          "name": "",
          "type": "uint256"
        }
      ],
      "stateMutability": "view",
      "type": "function"
    },
    {
      "inputs": [
        {
          "internalType": "uint256",
          "name": "",
          "type": "uint256"
        }
      ],
      "name": "nftTradedPrices",
      "outputs": [
        {
          "internalType": "uint256",
          "name": "",
          "type": "uint256"
        }
      ],
      "stateMutability": "view",
      "type": "function"
    },
    {
      "inputs": [
        {
          "internalType": "uint256",
          "name": "",
          "type": "uint256"
        }
      ],
      "name": "nftVotes",
      "outputs": [
        {
          "internalType": "uint256",
          "name": "",
          "type": "uint256"
        }
      ],
      "stateMutability": "view",
      "type": "function"
    },
    {
      "inputs": [
        {
          "internalType": "address",
          "name": "",
          "type": "address"
        }
      ],
      "name": "operators",
      "outputs": [
        {
          "internalType": "bool",
          "name": "",
          "type": "bool"
        }
      ],
      "stateMutability": "view",
      "type": "function"
    },
    {
      "inputs": [],
      "name": "owner",
      "outputs": [
        {
          "internalType": "address",
          "name": "",
          "type": "address"
        }
      ],
      "stateMutability": "view",
      "type": "function"
    },
    {
      "inputs": [],
      "name": "pinAddress",
      "outputs": [
        {
          "internalType": "address",
          "name": "",
          "type": "address"
        }
      ],
      "stateMutability": "view",
      "type": "function"
    },
    {
      "inputs": [],
      "name": "renounceOwnership",
      "outputs": [],
      "stateMutability": "nonpayable",
      "type": "function"
    },
    {
      "inputs": [
        {
          "internalType": "uint256",
          "name": "",
          "type": "uint256"
        }
      ],
      "name": "stakingBases",
      "outputs": [
        {
          "internalType": "uint256",
          "name": "",
          "type": "uint256"
        }
      ],
      "stateMutability": "view",
      "type": "function"
    },
    {
      "inputs": [],
      "name": "tokenLockId",
      "outputs": [
        {
          "internalType": "uint256",
          "name": "",
          "type": "uint256"
        }
      ],
      "stateMutability": "view",
      "type": "function"
    },
    {
      "inputs": [],
      "name": "tokenLocker",
      "outputs": [
        {
          "internalType": "address",
          "name": "",
          "type": "address"
        }
      ],
      "stateMutability": "view",
      "type": "function"
    },
    {
      "inputs": [
        {
          "internalType": "address",
          "name": "newOwner",
          "type": "address"
        }
      ],
      "name": "transferOwnership",
      "outputs": [],
      "stateMutability": "nonpayable",
      "type": "function"
    },
    {
      "inputs": [],
      "name": "treasury",
      "outputs": [
        {
          "internalType": "contract ITreasury",
          "name": "",
          "type": "address"
        }
      ],
      "stateMutability": "view",
      "type": "function"
    },
    {
      "inputs": [],
      "name": "uink",
      "outputs": [
        {
          "internalType": "address",
          "name": "",
          "type": "address"
        }
      ],
      "stateMutability": "view",
      "type": "function"
    },
    {
      "inputs": [
        {
          "internalType": "address",
          "name": "",
          "type": "address"
        },
        {
          "internalType": "uint256",
          "name": "",
          "type": "uint256"
        },
        {
          "internalType": "uint256",
          "name": "",
          "type": "uint256"
        }
      ],
      "name": "voteRewardsClaimed",
      "outputs": [
        {
          "internalType": "bool",
          "name": "",
          "type": "bool"
        }
      ],
      "stateMutability": "view",
      "type": "function"
    },
    {
      "inputs": [],
      "name": "weeklyCap",
      "outputs": [
        {
          "internalType": "uint256",
          "name": "",
          "type": "uint256"
        }
      ],
      "stateMutability": "view",
      "type": "function"
    },
    {
      "inputs": [
        {
          "internalType": "address",
          "name": "_pin",
          "type": "address"
        }
      ],
      "name": "setPinAddress",
      "outputs": [],
      "stateMutability": "nonpayable",
      "type": "function"
    },
    {
      "inputs": [
        {
          "internalType": "uint256",
          "name": "lockId",
          "type": "uint256"
        }
      ],
      "name": "setTokenLockId",
      "outputs": [],
      "stateMutability": "nonpayable",
      "type": "function"
    },
    {
      "inputs": [
        {
          "internalType": "uint256",
          "name": "stakingBase",
          "type": "uint256"
        },
        {
          "internalType": "uint256",
          "name": "startTime",
          "type": "uint256"
        },
        {
          "internalType": "string",
          "name": "matchId",
          "type": "string"
        }
      ],
      "name": "addGroup",
      "outputs": [],
      "stateMutability": "nonpayable",
      "type": "function"
    },
    {
      "inputs": [
        {
          "internalType": "uint256",
          "name": "groupId",
          "type": "uint256"
        },
        {
          "internalType": "address[]",
          "name": "nftAddrs",
          "type": "address[]"
        },
        {
          "internalType": "uint256[]",
          "name": "nftIds",
          "type": "uint256[]"
        }
      ],
      "name": "addNFT",
      "outputs": [],
      "stateMutability": "nonpayable",
      "type": "function"
    },
    {
      "inputs": [
        {
          "internalType": "uint256",
          "name": "groupId",
          "type": "uint256"
        }
      ],
      "name": "getAuctionPrices",
      "outputs": [
        {
          "internalType": "uint256[]",
          "name": "prices",
          "type": "uint256[]"
        },
        {
          "internalType": "uint256",
          "name": "totalAmount",
          "type": "uint256"
        }
      ],
      "stateMutability": "view",
      "type": "function"
    },
    {
      "inputs": [
        {
          "internalType": "uint256",
          "name": "ts",
          "type": "uint256"
        }
      ],
      "name": "getDate",
      "outputs": [
        {
          "internalType": "uint256",
          "name": "",
          "type": "uint256"
        }
      ],
      "stateMutability": "pure",
      "type": "function"
    },
    {
      "inputs": [
        {
          "internalType": "uint256",
          "name": "groupId",
          "type": "uint256"
        }
      ],
      "name": "getVotableDates",
      "outputs": [
        {
          "internalType": "uint256[]",
          "name": "dates",
          "type": "uint256[]"
        }
      ],
      "stateMutability": "view",
      "type": "function"
    },
    {
      "inputs": [
        {
          "internalType": "address",
          "name": "user",
          "type": "address"
        }
      ],
      "name": "getVotableBalance",
      "outputs": [
        {
          "internalType": "uint256",
          "name": "",
          "type": "uint256"
        }
      ],
      "stateMutability": "view",
      "type": "function"
    },
    {
      "inputs": [
        {
          "internalType": "address",
          "name": "user",
          "type": "address"
        }
      ],
      "name": "getAvailableBalance",
      "outputs": [
        {
          "internalType": "uint256",
          "name": "",
          "type": "uint256"
        }
      ],
      "stateMutability": "view",
      "type": "function"
    },
    {
      "inputs": [
        {
          "internalType": "address",
          "name": "user",
          "type": "address"
        }
      ],
      "name": "getVotedBalance",
      "outputs": [
        {
          "internalType": "uint256",
          "name": "",
          "type": "uint256"
        }
      ],
      "stateMutability": "view",
      "type": "function"
    },
    {
      "inputs": [
        {
          "internalType": "address",
          "name": "nftAddr",
          "type": "address"
        },
        {
          "internalType": "uint256",
          "name": "nftId",
          "type": "uint256"
        }
      ],
      "name": "stakeFromLock",
      "outputs": [],
      "stateMutability": "nonpayable",
      "type": "function"
    },
    {
      "inputs": [
        {
          "internalType": "address",
          "name": "nftAddr",
          "type": "address"
        },
        {
          "internalType": "uint256",
          "name": "nftId",
          "type": "uint256"
        },
        {
          "internalType": "uint256",
          "name": "amount",
          "type": "uint256"
        }
      ],
      "name": "stake",
      "outputs": [],
      "stateMutability": "nonpayable",
      "type": "function"
    },
    {
      "inputs": [
        {
          "internalType": "address",
          "name": "nftAddr",
          "type": "address"
        },
        {
          "internalType": "uint256",
          "name": "nftId",
          "type": "uint256"
        },
        {
          "internalType": "uint256",
          "name": "amount",
          "type": "uint256"
        }
      ],
      "name": "vote",
      "outputs": [],
      "stateMutability": "nonpayable",
      "type": "function"
    },
    {
      "inputs": [],
      "name": "redeem",
      "outputs": [],
      "stateMutability": "nonpayable",
      "type": "function"
    },
    {
      "inputs": [
        {
          "internalType": "address",
          "name": "user",
          "type": "address"
        },
        {
          "internalType": "uint256",
          "name": "groupId",
          "type": "uint256"
        },
        {
          "internalType": "uint256",
          "name": "date",
          "type": "uint256"
        }
      ],
      "name": "getUserDailyVotes",
      "outputs": [
        {
          "internalType": "uint256",
          "name": "",
          "type": "uint256"
        }
      ],
      "stateMutability": "view",
      "type": "function"
    },
    {
      "inputs": [
        {
          "internalType": "address",
          "name": "user",
          "type": "address"
        },
        {
          "internalType": "uint256",
          "name": "groupId",
          "type": "uint256"
        },
        {
          "internalType": "uint256",
          "name": "uid",
          "type": "uint256"
        }
      ],
      "name": "getUserVotesByNFT",
      "outputs": [
        {
          "internalType": "uint256",
          "name": "",
          "type": "uint256"
        }
      ],
      "stateMutability": "view",
      "type": "function"
    },
    {
      "inputs": [
        {
          "internalType": "uint256",
          "name": "groupId",
          "type": "uint256"
        }
      ],
      "name": "claimVoteRewards",
      "outputs": [],
      "stateMutability": "nonpayable",
      "type": "function"
    },
    {
      "inputs": [
        {
          "internalType": "address",
          "name": "nftAddr",
          "type": "address"
        },
        {
          "internalType": "uint256",
          "name": "nftId",
          "type": "uint256"
        },
        {
          "internalType": "address",
          "name": "to",
          "type": "address"
        }
      ],
      "name": "claimMintRewards",
      "outputs": [],
      "stateMutability": "nonpayable",
      "type": "function"
    },
    {
      "inputs": [
        {
          "internalType": "uint256",
          "name": "groupId",
          "type": "uint256"
        }
      ],
      "name": "claimBonusRewards",
      "outputs": [],
      "stateMutability": "nonpayable",
      "type": "function"
    },
    {
      "inputs": [
        {
          "internalType": "uint256",
          "name": "groupId",
          "type": "uint256"
        }
      ],
      "name": "getTradeWeights",
      "outputs": [
        {
          "internalType": "uint256[]",
          "name": "weights",
          "type": "uint256[]"
        }
      ],
      "stateMutability": "view",
      "type": "function"
    },
    {
      "inputs": [
        {
          "internalType": "uint256",
          "name": "groupId",
          "type": "uint256"
        }
      ],
      "name": "setAuctionFinish",
      "outputs": [],
      "stateMutability": "nonpayable",
      "type": "function"
    },
    {
      "inputs": [
        {
          "internalType": "uint256",
          "name": "groupId",
          "type": "uint256"
        }
      ],
      "name": "getBonusRewardRates",
      "outputs": [
        {
          "internalType": "uint256[]",
          "name": "bonusRewardRates",
          "type": "uint256[]"
        }
      ],
      "stateMutability": "view",
      "type": "function"
    },
    {
      "inputs": [
        {
          "internalType": "uint256",
          "name": "groupId",
          "type": "uint256"
        },
        {
          "internalType": "uint256",
          "name": "date",
          "type": "uint256"
        }
      ],
      "name": "getDailyVotes",
      "outputs": [
        {
          "internalType": "uint256",
          "name": "",
          "type": "uint256"
        }
      ],
      "stateMutability": "view",
      "type": "function"
    },
    {
      "inputs": [
        {
          "internalType": "uint256",
          "name": "groupId",
          "type": "uint256"
        }
      ],
      "name": "getWeightsAndInflations",
      "outputs": [
        {
          "internalType": "uint256[]",
          "name": "weights",
          "type": "uint256[]"
        },
        {
          "internalType": "uint256[]",
          "name": "inflations",
          "type": "uint256[]"
        }
      ],
      "stateMutability": "view",
      "type": "function"
    },
    {
      "inputs": [
        {
          "internalType": "uint256",
          "name": "groupId",
          "type": "uint256"
        }
      ],
      "name": "getBaseRewardRates",
      "outputs": [
        {
          "internalType": "uint256[]",
          "name": "rewardRates",
          "type": "uint256[]"
        }
      ],
      "stateMutability": "view",
      "type": "function"
    },
    {
      "inputs": [
        {
          "internalType": "uint256",
          "name": "groupId",
          "type": "uint256"
        }
      ],
      "name": "getMintRewardsPerNFT",
      "outputs": [
        {
          "internalType": "uint256[]",
          "name": "mintRewards",
          "type": "uint256[]"
        }
      ],
      "stateMutability": "view",
      "type": "function"
    }
  ],
  "bytecode": "0x6080604052690a968163f0a57b40000060015560046007600154620000259190620003e1565b620000319190620003e1565b60025560046007600154620000479190620003e1565b620000539190620003e1565b6003556002600154620000679190620003e1565b6004556000600a5560006011556000601d553480156200008657600080fd5b5060405162005f3938038062005f398339818101604052810190620000ac91906200038b565b620000cc620000c06200027c60201b60201c565b6200028460201b60201c565b82600760006101000a81548173ffffffffffffffffffffffffffffffffffffffff021916908373ffffffffffffffffffffffffffffffffffffffff16021790555081600860006101000a81548173ffffffffffffffffffffffffffffffffffffffff021916908373ffffffffffffffffffffffffffffffffffffffff160217905550600760009054906101000a900473ffffffffffffffffffffffffffffffffffffffff1673ffffffffffffffffffffffffffffffffffffffff1663a88d8fea6040518163ffffffff1660e01b815260040160206040518083038186803b158015620001b757600080fd5b505afa158015620001cc573d6000803e3d6000fd5b505050506040513d601f19601f82011682018060405250810190620001f291906200035f565b600660006101000a81548173ffffffffffffffffffffffffffffffffffffffff021916908373ffffffffffffffffffffffffffffffffffffffff16021790555080601e60006101000a81548173ffffffffffffffffffffffffffffffffffffffff021916908373ffffffffffffffffffffffffffffffffffffffff160217905550505050620004a0565b600033905090565b60008060009054906101000a900473ffffffffffffffffffffffffffffffffffffffff169050816000806101000a81548173ffffffffffffffffffffffffffffffffffffffff021916908373ffffffffffffffffffffffffffffffffffffffff1602179055508173ffffffffffffffffffffffffffffffffffffffff168173ffffffffffffffffffffffffffffffffffffffff167f8be0079c531659141344cd1fd0a4f28419497f9722a3daafe3b4186f6b6457e060405160405180910390a35050565b600081519050620003598162000486565b92915050565b6000602082840312156200037257600080fd5b6000620003828482850162000348565b91505092915050565b600080600060608486031215620003a157600080fd5b6000620003b18682870162000348565b9350506020620003c48682870162000348565b9250506040620003d78682870162000348565b9150509250925092565b6000620003ee826200044d565b9150620003fb836200044d565b9250826200040e576200040d62000457565b5b828204905092915050565b600062000426826200042d565b9050919050565b600073ffffffffffffffffffffffffffffffffffffffff82169050919050565b6000819050919050565b7f4e487b7100000000000000000000000000000000000000000000000000000000600052601260045260246000fd5b620004918162000419565b81146200049d57600080fd5b50565b615a8980620004b06000396000f3fe608060405234801561001057600080fd5b506004361061035d5760003560e01c806376821827116101d3578063bba1189a11610104578063d98f893a116100a2578063f298e4931161007c578063f298e49314610b0b578063f2fde38b14610b27578063f44e3ce114610b43578063fa119fee14610b5f5761035d565b8063d98f893a14610a8d578063e325fb4b14610abd578063eeaa358514610adb5761035d565b8063c4f6da12116100de578063c4f6da12146109f3578063c7c8895614610a23578063c909adc014610a53578063d0b5efa914610a715761035d565b8063bba1189a146109b1578063be040fb0146109cd578063c05de80e146109d75761035d565b806396324bd411610171578063a80bf3e61161014b578063a80bf3e614610929578063a88d8fea14610947578063ad3bac1a14610965578063b5345afa146109815761035d565b806396324bd4146108995780639d9d9a10146108c9578063a54e119f146108f95761035d565b8063814e7c0f116101ad578063814e7c0f146107fe5780638503d2cd1461082e5780638da5cb5b1461084a5780638f4d41e8146108685761035d565b806376821827146107925780637ce26d65146107b05780637d9f6db5146107e05761035d565b806337867c94116102ad57806361d027b31161024b5780636a017f24116102255780636a017f241461070c5780636c24a76f146107285780636c55a96714610758578063715018a6146107885761035d565b806361d027b31461068e57806363c0ea10146106ac57806364ebaaeb146106dc5761035d565b80634e4b61c3116102875780634e4b61c3146105df5780634f8d32be1461060f578063515cc5321461062d5780635a8542be1461065d5761035d565b806337867c94146105735780634768d4ef146105915780634dc1a3e0146105c15761035d565b806313e7c9d81161031a57806327e235e3116102f457806327e235e3146104d957806328ad5ba6146105095780632a4a1b73146105275780632b57298b146105435761035d565b806313e7c9d81461045b578063171b612c1461048b57806317a9c7bd146104a95761035d565b8063079dc7f41461036257806307c1b52c146103925780630c51b88f146103c35780630d265df9146103df57806311d07bb31461040f578063126f648c1461042b575b600080fd5b61037c60048036038101906103779190614e2d565b610b8f565b6040516103899190615479565b60405180910390f35b6103ac60048036038101906103a79190614c13565b610c70565b6040516103ba9291906154bd565b60405180910390f35b6103dd60048036038101906103d89190614cda565b610ca1565b005b6103f960048036038101906103f49190614d52565b61100c565b6040516104069190615228565b60405180910390f35b61042960048036038101906104249190614d52565b6112a1565b005b61044560048036038101906104409190614d52565b61163f565b60405161045291906152b1565b60405180910390f35b61047560048036038101906104709190614bc1565b61165f565b60405161048291906152b1565b60405180910390f35b61049361167f565b6040516104a09190615479565b60405180910390f35b6104c360048036038101906104be9190614d52565b611685565b6040516104d09190615479565b60405180910390f35b6104f360048036038101906104ee9190614bc1565b61169d565b6040516105009190615479565b60405180910390f35b6105116116b5565b60405161051e9190615479565b60405180910390f35b610541600480360381019061053c9190614cda565b6116bb565b005b61055d60048036038101906105589190614d52565b6119bf565b60405161056a9190615479565b60405180910390f35b61057b6119f0565b6040516105889190615479565b60405180910390f35b6105ab60048036038101906105a69190614d52565b6119f6565b6040516105b891906152e7565b60405180910390f35b6105c9611a96565b6040516105d691906151ad565b60405180910390f35b6105f960048036038101906105f49190614d52565b611abc565b6040516106069190615479565b60405180910390f35b610617611ad4565b6040516106249190615479565b60405180910390f35b61064760048036038101906106429190614d52565b611ada565b6040516106549190615228565b60405180910390f35b61067760048036038101906106729190614d52565b611ce1565b604051610685929190615281565b60405180910390f35b610696611ec5565b6040516106a391906152cc565b60405180910390f35b6106c660048036038101906106c19190614d52565b611eeb565b6040516106d39190615479565b60405180910390f35b6106f660048036038101906106f19190614c13565b611f03565b60405161070391906152b1565b60405180910390f35b61072660048036038101906107219190614c13565b611f32565b005b610742600480360381019061073d9190614bc1565b6122a0565b60405161074f9190615479565b60405180910390f35b610772600480360381019061076d9190614cda565b612383565b60405161077f9190615479565b60405180910390f35b610790612474565b005b61079a6124fc565b6040516107a79190615479565b60405180910390f35b6107ca60048036038101906107c59190614d52565b612502565b6040516107d79190615228565b60405180910390f35b6107e8612915565b6040516107f591906151ad565b60405180910390f35b61081860048036038101906108139190614d52565b61293b565b60405161082591906152b1565b60405180910390f35b61084860048036038101906108439190614da4565b61295b565b005b610852612e38565b60405161085f91906151ad565b60405180910390f35b610882600480360381019061087d9190614d52565b612e61565b60405161089092919061524a565b60405180910390f35b6108b360048036038101906108ae9190614d52565b613271565b6040516108c09190615479565b60405180910390f35b6108e360048036038101906108de9190614d52565b613289565b6040516108f09190615228565b60405180910390f35b610913600480360381019061090e9190614bc1565b613457565b6040516109209190615479565b60405180910390f35b610931613525565b60405161093e91906151ad565b60405180910390f35b61094f61354b565b60405161095c91906151ad565b60405180910390f35b61097f600480360381019061097a9190614bc1565b613571565b005b61099b60048036038101906109969190614cda565b613631565b6040516109a891906152b1565b60405180910390f35b6109cb60048036038101906109c69190614e69565b61366d565b005b6109d5613760565b005b6109f160048036038101906109ec9190614d52565b6138c7565b005b610a0d6004803603810190610a089190614d52565b613bb1565b604051610a1a9190615479565b60405180910390f35b610a3d6004803603810190610a389190614d52565b613bc9565b604051610a4a9190615479565b60405180910390f35b610a5b613be1565b604051610a689190615479565b60405180910390f35b610a8b6004803603810190610a869190614d52565b613be7565b005b610aa76004803603810190610aa29190614bc1565b613c92565b604051610ab49190615479565b60405180910390f35b610ac5613d60565b604051610ad29190615479565b60405180910390f35b610af56004803603810190610af09190614cda565b613d66565b604051610b029190615479565b60405180910390f35b610b256004803603810190610b209190614d52565b613f80565b005b610b416004803603810190610b3c9190614bc1565b614006565b005b610b5d6004803603810190610b589190614c8b565b6140fe565b005b610b796004803603810190610b749190614d52565b614484565b604051610b869190615228565b60405180910390f35b6000806000905060005b600d600086815260200190815260200160002080549050811015610c65576000600d60008781526020019081526020016000208281548110610c04577f4e487b7100000000000000000000000000000000000000000000000000000000600052603260045260246000fd5b9060005260206000209060040201600001549050610c4f600e6000878152602001908152602001600020600083815260200190815260200160002054846145bf90919063ffffffff16565b9250508080610c5d90615736565b915050610b99565b508091505092915050565b6016602052816000526040600020602052806000526040600020600091509150508060000154908060010154905082565b4260096000600a548152602001908152602001600020541115610cf9576040517f08c379a0000000000000000000000000000000000000000000000000000000008152600401610cf090615399565b60405180910390fd5b42610d2562093a8060096000600a548152602001908152602001600020546145bf90919063ffffffff16565b1015610d66576040517f08c379a0000000000000000000000000000000000000000000000000000000008152600401610d5d906153d9565b60405180910390fd5b82826000601060008473ffffffffffffffffffffffffffffffffffffffff1673ffffffffffffffffffffffffffffffffffffffff16815260200190815260200160002060008381526020019081526020016000205411610dfb576040517f08c379a0000000000000000000000000000000000000000000000000000000008152600401610df2906153f9565b60405180910390fd5b610e07338686866145d5565b600660009054906101000a900473ffffffffffffffffffffffffffffffffffffffff1673ffffffffffffffffffffffffffffffffffffffff166323b872dd3330866040518463ffffffff1660e01b8152600401610e66939291906151c8565b602060405180830381600087803b158015610e8057600080fd5b505af1158015610e94573d6000803e3d6000fd5b505050506040513d601f19601f82011682018060405250810190610eb89190614d29565b50610f0b83601560003373ffffffffffffffffffffffffffffffffffffffff1673ffffffffffffffffffffffffffffffffffffffff168152602001908152602001600020546145bf90919063ffffffff16565b601560003373ffffffffffffffffffffffffffffffffffffffff1673ffffffffffffffffffffffffffffffffffffffff168152602001908152602001600020819055506000601660003373ffffffffffffffffffffffffffffffffffffffff1673ffffffffffffffffffffffffffffffffffffffff1681526020019081526020016000206000600a5481526020019081526020016000209050610fbb8482600001546145bf90919063ffffffff16565b816000018190555060008160010154141561100457610ffb6212750060096000600a548152602001908152602001600020546145bf90919063ffffffff16565b81600101819055505b505050505050565b60606000600d6000848152602001908152602001600020805480602002602001604051908101604052809291908181526020016000905b828210156111355783829060005260206000209060040201604051806080016040529081600082015481526020016001820160009054906101000a900473ffffffffffffffffffffffffffffffffffffffff1673ffffffffffffffffffffffffffffffffffffffff1673ffffffffffffffffffffffffffffffffffffffff168152602001600282015481526020016003820160009054906101000a900473ffffffffffffffffffffffffffffffffffffffff1673ffffffffffffffffffffffffffffffffffffffff1673ffffffffffffffffffffffffffffffffffffffff168152505081526020019060010190611043565b505050509050805167ffffffffffffffff81111561117c577f4e487b7100000000000000000000000000000000000000000000000000000000600052604160045260246000fd5b6040519080825280602002602001820160405280156111aa5781602001602082028036833780820191505090505b5091506000806111b985611ce1565b9150915060008111156112995760005b83518110156112975761123f82611231670de0b6b3a764000086858151811061121b577f4e487b7100000000000000000000000000000000000000000000000000000000600052603260045260246000fd5b60200260200101516148b390919063ffffffff16565b6148c990919063ffffffff16565b858281518110611278577f4e487b7100000000000000000000000000000000000000000000000000000000600052603260045260246000fd5b602002602001018181525050808061128f90615736565b9150506111c9565b505b505050919050565b600c600082815260200190815260200160002060009054906101000a900460ff16611301576040517f08c379a00000000000000000000000000000000000000000000000000000000081526004016112f890615459565b60405180910390fd5b601960003373ffffffffffffffffffffffffffffffffffffffff1673ffffffffffffffffffffffffffffffffffffffff168152602001908152602001600020600082815260200190815260200160002060009054906101000a900460ff161561139f576040517f08c379a000000000000000000000000000000000000000000000000000000000815260040161139690615439565b60405180910390fd5b60006113aa82612502565b90506000805b600d60008581526020019081526020016000208054905081101561157f573373ffffffffffffffffffffffffffffffffffffffff16600d60008681526020019081526020016000208281548110611430577f4e487b7100000000000000000000000000000000000000000000000000000000600052603260045260246000fd5b906000526020600020906004020160030160009054906101000a900473ffffffffffffffffffffffffffffffffffffffff1673ffffffffffffffffffffffffffffffffffffffff16141561156c5760006114e73386600d600089815260200190815260200160002085815481106114d0577f4e487b7100000000000000000000000000000000000000000000000000000000600052603260045260246000fd5b906000526020600020906004020160000154612383565b90506115688361155a670de0b6b3a764000061154c888781518110611535577f4e487b7100000000000000000000000000000000000000000000000000000000600052603260045260246000fd5b6020026020010151866148b390919063ffffffff16565b6148c990919063ffffffff16565b6145bf90919063ffffffff16565b9250505b808061157790615736565b9150506113b0565b50600081111561163a57600760009054906101000a900473ffffffffffffffffffffffffffffffffffffffff1673ffffffffffffffffffffffffffffffffffffffff1663c8773af233836040518363ffffffff1660e01b81526004016115e69291906151ff565b602060405180830381600087803b15801561160057600080fd5b505af1158015611614573d6000803e3d6000fd5b505050506040513d601f19601f820116820180604052508101906116389190614d7b565b505b505050565b600c6020528060005260406000206000915054906101000a900460ff1681565b601b6020528060005260406000206000915054906101000a900460ff1681565b60025481565b60136020528060005260406000206000915090505481565b60156020528060005260406000206000915090505481565b60035481565b4260096000600a548152602001908152602001600020541115611713576040517f08c379a000000000000000000000000000000000000000000000000000000000815260040161170a90615399565b60405180910390fd5b4261173f62093a8060096000600a548152602001908152602001600020546145bf90919063ffffffff16565b1015611780576040517f08c379a0000000000000000000000000000000000000000000000000000000008152600401611777906153d9565b60405180910390fd5b82826000601060008473ffffffffffffffffffffffffffffffffffffffff1673ffffffffffffffffffffffffffffffffffffffff16815260200190815260200160002060008381526020019081526020016000205411611815576040517f08c379a000000000000000000000000000000000000000000000000000000000815260040161180c906153f9565b60405180910390fd5b600061182033613c92565b905083811015611865576040517f08c379a000000000000000000000000000000000000000000000000000000000815260040161185c90615339565b60405180910390fd5b611871338787876145d5565b6000601660003373ffffffffffffffffffffffffffffffffffffffff1673ffffffffffffffffffffffffffffffffffffffff16815260200190815260200160002060006001600a546118c39190615631565b8152602001908152602001600020905042816001015411156118ff576118f68582600001546148df90919063ffffffff16565b81600001819055505b6000601660003373ffffffffffffffffffffffffffffffffffffffff1673ffffffffffffffffffffffffffffffffffffffff1681526020019081526020016000206000600a548152602001908152602001600020905061196c8682600001546145bf90919063ffffffff16565b81600001819055506000816001015414156119b5576119ac6212750060096000600a548152602001908152602001600020546145bf90919063ffffffff16565b81600101819055505b5050505050505050565b60006119e96119da62015180846148f590919063ffffffff16565b836148df90919063ffffffff16565b9050919050565b600a5481565b600b6020528060005260406000206000915090508054611a1590615704565b80601f0160208091040260200160405190810160405280929190818152602001828054611a4190615704565b8015611a8e5780601f10611a6357610100808354040283529160200191611a8e565b820191906000526020600020905b815481529060010190602001808311611a7157829003601f168201915b505050505081565b601c60009054906101000a900473ffffffffffffffffffffffffffffffffffffffff1681565b60176020528060005260406000206000915090505481565b60015481565b60606000611ae783614484565b90506000611af484612e61565b915050815167ffffffffffffffff811115611b38577f4e487b7100000000000000000000000000000000000000000000000000000000600052604160045260246000fd5b604051908082528060200260200182016040528015611b665781602001602082028036833780820191505090505b50925060005b8251811015611cd957611b7e426119bf565b838281518110611bb7577f4e487b7100000000000000000000000000000000000000000000000000000000600052603260045260246000fd5b60200260200101511115611bca57611cc6565b6000611c1686858481518110611c09577f4e487b7100000000000000000000000000000000000000000000000000000000600052603260045260246000fd5b6020026020010151610b8f565b9050611c7f81611c71600254868681518110611c5b577f4e487b7100000000000000000000000000000000000000000000000000000000600052603260045260246000fd5b60200260200101516148b390919063ffffffff16565b6148c990919063ffffffff16565b858381518110611cb8577f4e487b7100000000000000000000000000000000000000000000000000000000600052603260045260246000fd5b602002602001018181525050505b8080611cd190615736565b915050611b6c565b505050919050565b60606000600d60008481526020019081526020016000208054905067ffffffffffffffff811115611d3b577f4e487b7100000000000000000000000000000000000000000000000000000000600052604160045260246000fd5b604051908082528060200260200182016040528015611d695781602001602082028036833780820191505090505b50915060005b600d600085815260200190815260200160002080549050811015611ebf576000600860009054906101000a900473ffffffffffffffffffffffffffffffffffffffff1673ffffffffffffffffffffffffffffffffffffffff1663e3c6623d600b6000888152602001908152602001600020846040518363ffffffff1660e01b8152600401611dfe929190615309565b604080518083038186803b158015611e1557600080fd5b505afa158015611e29573d6000803e3d6000fd5b505050506040513d601f19601f82011682018060405250810190611e4d9190614c4f565b91505080848381518110611e8a577f4e487b7100000000000000000000000000000000000000000000000000000000600052603260045260246000fd5b602002602001018181525050611ea981846145bf90919063ffffffff16565b9250508080611eb790615736565b915050611d6f565b50915091565b600760009054906101000a900473ffffffffffffffffffffffffffffffffffffffff1681565b60126020528060005260406000206000915090505481565b60196020528160005260406000206020528060005260406000206000915091509054906101000a900460ff1681565b4260096000600a548152602001908152602001600020541115611f8a576040517f08c379a0000000000000000000000000000000000000000000000000000000008152600401611f8190615399565b60405180910390fd5b42611fb662093a8060096000600a548152602001908152602001600020546145bf90919063ffffffff16565b1015611ff7576040517f08c379a0000000000000000000000000000000000000000000000000000000008152600401611fee906153d9565b60405180910390fd5b81816000601060008473ffffffffffffffffffffffffffffffffffffffff1673ffffffffffffffffffffffffffffffffffffffff1681526020019081526020016000206000838152602001908152602001600020541161208c576040517f08c379a0000000000000000000000000000000000000000000000000000000008152600401612083906153f9565b60405180910390fd5b6000601e60009054906101000a900473ffffffffffffffffffffffffffffffffffffffff1673ffffffffffffffffffffffffffffffffffffffff1663c7b1e3f2601d54336040518363ffffffff1660e01b81526004016120ed929190615494565b602060405180830381600087803b15801561210757600080fd5b505af115801561211b573d6000803e3d6000fd5b505050506040513d601f19601f8201168201806040525081019061213f9190614d7b565b905061214d338686846145d5565b61219f81601560003373ffffffffffffffffffffffffffffffffffffffff1673ffffffffffffffffffffffffffffffffffffffff168152602001908152602001600020546145bf90919063ffffffff16565b601560003373ffffffffffffffffffffffffffffffffffffffff1673ffffffffffffffffffffffffffffffffffffffff168152602001908152602001600020819055506000601660003373ffffffffffffffffffffffffffffffffffffffff1673ffffffffffffffffffffffffffffffffffffffff1681526020019081526020016000206000600a548152602001908152602001600020905061224f8282600001546145bf90919063ffffffff16565b81600001819055506000816001015414156122985761228f6212750060096000600a548152602001908152602001600020546145bf90919063ffffffff16565b81600101819055505b505050505050565b600080600090506000600a5414156122bb578091505061237e565b6000600190505b600a548111612378576000601660008673ffffffffffffffffffffffffffffffffffffffff1673ffffffffffffffffffffffffffffffffffffffff16815260200190815260200160002060008381526020019081526020016000206040518060400160405290816000820154815260200160018201548152505090504281602001511015612364576123618160000151846145bf90919063ffffffff16565b92505b50808061237090615736565b9150506122c2565b50809150505b919050565b60008061238f84614484565b90506000805b82518110156124675761245282600f60008a73ffffffffffffffffffffffffffffffffffffffff1673ffffffffffffffffffffffffffffffffffffffff168152602001908152602001600020600086858151811061241c577f4e487b7100000000000000000000000000000000000000000000000000000000600052603260045260246000fd5b602002602001015181526020019081526020016000206000888152602001908152602001600020546145bf90919063ffffffff16565b9150808061245f90615736565b915050612395565b5080925050509392505050565b61247c61490b565b73ffffffffffffffffffffffffffffffffffffffff1661249a612e38565b73ffffffffffffffffffffffffffffffffffffffff16146124f0576040517f08c379a00000000000000000000000000000000000000000000000000000000081526004016124e790615419565b60405180910390fd5b6124fa6000614913565b565b601d5481565b6060600061250f8361100c565b90506000600d6000858152602001908152602001600020805480602002602001604051908101604052809291908181526020016000905b828210156126385783829060005260206000209060040201604051806080016040529081600082015481526020016001820160009054906101000a900473ffffffffffffffffffffffffffffffffffffffff1673ffffffffffffffffffffffffffffffffffffffff1673ffffffffffffffffffffffffffffffffffffffff168152602001600282015481526020016003820160009054906101000a900473ffffffffffffffffffffffffffffffffffffffff1673ffffffffffffffffffffffffffffffffffffffff1673ffffffffffffffffffffffffffffffffffffffff168152505081526020019060010190612546565b505050509050805167ffffffffffffffff81111561267f577f4e487b7100000000000000000000000000000000000000000000000000000000600052604160045260246000fd5b6040519080825280602002602001820160405280156126ad5781602001602082028036833780820191505090505b50925060006126bb85612e61565b915050600061273c670de0b6b3a764000061272e84600186516126de9190615631565b81518110612715577f4e487b7100000000000000000000000000000000000000000000000000000000600052603260045260246000fd5b60200260200101516004546148b390919063ffffffff16565b6148c990919063ffffffff16565b905060005b835181101561290b57600060136000868481518110612789577f4e487b7100000000000000000000000000000000000000000000000000000000600052603260045260246000fd5b60200260200101516000015181526020019081526020016000205414156127f65760008682815181106127e5577f4e487b7100000000000000000000000000000000000000000000000000000000600052603260045260246000fd5b6020026020010181815250506128f8565b6128b260136000868481518110612836577f4e487b7100000000000000000000000000000000000000000000000000000000600052603260045260246000fd5b6020026020010151600001518152602001908152602001600020546128a487848151811061288d577f4e487b7100000000000000000000000000000000000000000000000000000000600052603260045260246000fd5b6020026020010151856148b390919063ffffffff16565b6148c990919063ffffffff16565b8682815181106128eb577f4e487b7100000000000000000000000000000000000000000000000000000000600052603260045260246000fd5b6020026020010181815250505b808061290390615736565b915050612741565b5050505050919050565b600860009054906101000a900473ffffffffffffffffffffffffffffffffffffffff1681565b601a6020528060005260406000206000915054906101000a900460ff1681565b61296361490b565b73ffffffffffffffffffffffffffffffffffffffff16612981612e38565b73ffffffffffffffffffffffffffffffffffffffff16146129d7576040517f08c379a00000000000000000000000000000000000000000000000000000000081526004016129ce90615419565b60405180910390fd5b818190508484905014612a1f576040517f08c379a0000000000000000000000000000000000000000000000000000000008152600401612a1690615379565b60405180910390fd5b6000600d6000878152602001908152602001600020905060005b85859050811015612e2f5760116000815480929190612a5790615736565b919050555060115460106000888885818110612a9c577f4e487b7100000000000000000000000000000000000000000000000000000000600052603260045260246000fd5b9050602002016020810190612ab19190614bc1565b73ffffffffffffffffffffffffffffffffffffffff1673ffffffffffffffffffffffffffffffffffffffff1681526020019081526020016000206000868685818110612b26577f4e487b7100000000000000000000000000000000000000000000000000000000600052603260045260246000fd5b905060200201358152602001908152602001600020819055506000868683818110612b7a577f4e487b7100000000000000000000000000000000000000000000000000000000600052603260045260246000fd5b9050602002016020810190612b8f9190614bc1565b73ffffffffffffffffffffffffffffffffffffffff16636352211e868685818110612be3577f4e487b7100000000000000000000000000000000000000000000000000000000600052603260045260246000fd5b905060200201356040518263ffffffff1660e01b8152600401612c069190615479565b60206040518083038186803b158015612c1e57600080fd5b505afa158015612c32573d6000803e3d6000fd5b505050506040513d601f19601f82011682018060405250810190612c569190614bea565b90508260405180608001604052806011548152602001898986818110612ca5577f4e487b7100000000000000000000000000000000000000000000000000000000600052603260045260246000fd5b9050602002016020810190612cba9190614bc1565b73ffffffffffffffffffffffffffffffffffffffff168152602001878786818110612d0e577f4e487b7100000000000000000000000000000000000000000000000000000000600052603260045260246000fd5b9050602002013581526020018373ffffffffffffffffffffffffffffffffffffffff1681525090806001815401808255809150506001900390600052602060002090600402016000909190919091506000820151816000015560208201518160010160006101000a81548173ffffffffffffffffffffffffffffffffffffffff021916908373ffffffffffffffffffffffffffffffffffffffff1602179055506040820151816002015560608201518160030160006101000a81548173ffffffffffffffffffffffffffffffffffffffff021916908373ffffffffffffffffffffffffffffffffffffffff16021790555050508760146000601154815260200190815260200160002081905550508080612e2790615736565b915050612a39565b50505050505050565b60008060009054906101000a900473ffffffffffffffffffffffffffffffffffffffff16905090565b6060806000612e6f84614484565b9050805167ffffffffffffffff811115612eb2577f4e487b7100000000000000000000000000000000000000000000000000000000600052604160045260246000fd5b604051908082528060200260200182016040528015612ee05781602001602082028036833780820191505090505b509250805167ffffffffffffffff811115612f24577f4e487b7100000000000000000000000000000000000000000000000000000000600052604160045260246000fd5b604051908082528060200260200182016040528015612f525781602001602082028036833780820191505090505b50915060005b815181101561326a576000612fad86848481518110612fa0577f4e487b7100000000000000000000000000000000000000000000000000000000600052603260045260246000fd5b6020026020010151610b8f565b9050612fef6005600088815260200190815260200160002054612fe1670de0b6b3a7640000846148b390919063ffffffff16565b6148c990919063ffffffff16565b858381518110613028577f4e487b7100000000000000000000000000000000000000000000000000000000600052603260045260246000fd5b602002602001018181525050670429d069189e0000858381518110613076577f4e487b7100000000000000000000000000000000000000000000000000000000600052603260045260246000fd5b602002602001015110156130d7576702c68af0bb1400008483815181106130c6577f4e487b7100000000000000000000000000000000000000000000000000000000600052603260045260246000fd5b602002602001018181525050613256565b670429d069189e0000858381518110613119577f4e487b7100000000000000000000000000000000000000000000000000000000600052603260045260246000fd5b60200260200101511015801561317657506709b6e64a8ec6000085838151811061316c577f4e487b7100000000000000000000000000000000000000000000000000000000600052603260045260246000fd5b6020026020010151105b15613206578482815181106131b4577f4e487b7100000000000000000000000000000000000000000000000000000000600052603260045260246000fd5b60200260200101518483815181106131f5577f4e487b7100000000000000000000000000000000000000000000000000000000600052603260045260246000fd5b602002602001018181525050613255565b670de0b6b3a7640000848381518110613248577f4e487b7100000000000000000000000000000000000000000000000000000000600052603260045260246000fd5b6020026020010181815250505b5b50808061326290615736565b915050612f58565b5050915091565b60096020528060005260406000206000915090505481565b6060600d60008381526020019081526020016000208054905067ffffffffffffffff8111156132e1577f4e487b7100000000000000000000000000000000000000000000000000000000600052604160045260246000fd5b60405190808252806020026020018201604052801561330f5781602001602082028036833780820191505090505b50905060005b600d6000848152602001908152602001600020805490508110156134515760006012600085815260200190815260200160002054111561343e576133f860126000858152602001908152602001600020546133ea60035460136000600d60008a815260200190815260200160002087815481106133bb577f4e487b7100000000000000000000000000000000000000000000000000000000600052603260045260246000fd5b9060005260206000209060040201600001548152602001908152602001600020546148b390919063ffffffff16565b6148c990919063ffffffff16565b828281518110613431577f4e487b7100000000000000000000000000000000000000000000000000000000600052603260045260246000fd5b6020026020010181815250505b808061344990615736565b915050613315565b50919050565b600080600090506000600190505b600a54811161351b576000601660008673ffffffffffffffffffffffffffffffffffffffff1673ffffffffffffffffffffffffffffffffffffffff16815260200190815260200160002060008381526020019081526020016000206040518060400160405290816000820154815260200160018201548152505090504281602001511115613507576135048160000151846145bf90919063ffffffff16565b92505b50808061351390615736565b915050613465565b5080915050919050565b601e60009054906101000a900473ffffffffffffffffffffffffffffffffffffffff1681565b600660009054906101000a900473ffffffffffffffffffffffffffffffffffffffff1681565b61357961490b565b73ffffffffffffffffffffffffffffffffffffffff16613597612e38565b73ffffffffffffffffffffffffffffffffffffffff16146135ed576040517f08c379a00000000000000000000000000000000000000000000000000000000081526004016135e490615419565b60405180910390fd5b80601c60006101000a81548173ffffffffffffffffffffffffffffffffffffffff021916908373ffffffffffffffffffffffffffffffffffffffff16021790555050565b6018602052826000526040600020602052816000526040600020602052806000526040600020600092509250509054906101000a900460ff1681565b61367561490b565b73ffffffffffffffffffffffffffffffffffffffff16613693612e38565b73ffffffffffffffffffffffffffffffffffffffff16146136e9576040517f08c379a00000000000000000000000000000000000000000000000000000000081526004016136e090615419565b60405180910390fd5b600a60008154809291906136fc90615736565b91905055508260096000600a548152602001908152602001600020819055508360056000600a548152602001908152602001600020819055508181600b6000600a54815260200190815260200160002091906137599291906149d7565b5050505050565b600080600190505b600a548111613809576000601660003373ffffffffffffffffffffffffffffffffffffffff1673ffffffffffffffffffffffffffffffffffffffff1681526020019081526020016000206000838152602001908152602001600020905042816001015410156137f5576137e88160000154846145bf90919063ffffffff16565b9250600081600001819055505b50808061380190615736565b915050613768565b5060008111156138c457600660009054906101000a900473ffffffffffffffffffffffffffffffffffffffff1673ffffffffffffffffffffffffffffffffffffffff1663a9059cbb33836040518363ffffffff1660e01b81526004016138709291906151ff565b602060405180830381600087803b15801561388a57600080fd5b505af115801561389e573d6000803e3d6000fd5b505050506040513d601f19601f820116820180604052508101906138c29190614d29565b505b50565b60006138d282614484565b905060006138df83611ada565b90506000806138ed426119bf565b905060005b8451811015613aef5781858281518110613935577f4e487b7100000000000000000000000000000000000000000000000000000000600052603260045260246000fd5b60200260200101511061394757613aef565b601860003373ffffffffffffffffffffffffffffffffffffffff1673ffffffffffffffffffffffffffffffffffffffff168152602001908152602001600020600087815260200190815260200160002060008683815181106139d2577f4e487b7100000000000000000000000000000000000000000000000000000000600052603260045260246000fd5b6020026020010151815260200190815260200160002060009054906101000a900460ff1615613a0057613adc565b6000613ab9670de0b6b3a7640000613aab878581518110613a4a577f4e487b7100000000000000000000000000000000000000000000000000000000600052603260045260246000fd5b6020026020010151613a9d338c8c8981518110613a90577f4e487b7100000000000000000000000000000000000000000000000000000000600052603260045260246000fd5b6020026020010151613d66565b6148b390919063ffffffff16565b6148c990919063ffffffff16565b90506000811115613ada57613ad781856145bf90919063ffffffff16565b93505b505b8080613ae790615736565b9150506138f2565b506000821115613baa57600760009054906101000a900473ffffffffffffffffffffffffffffffffffffffff1673ffffffffffffffffffffffffffffffffffffffff1663c8773af233846040518363ffffffff1660e01b8152600401613b569291906151ff565b602060405180830381600087803b158015613b7057600080fd5b505af1158015613b84573d6000803e3d6000fd5b505050506040513d601f19601f82011682018060405250810190613ba89190614d7b565b505b5050505050565b60056020528060005260406000206000915090505481565b60146020528060005260406000206000915090505481565b60115481565b613bef61490b565b73ffffffffffffffffffffffffffffffffffffffff16613c0d612e38565b73ffffffffffffffffffffffffffffffffffffffff1614613c63576040517f08c379a0000000000000000000000000000000000000000000000000000000008152600401613c5a90615419565b60405180910390fd5b6001600c600083815260200190815260200160002060006101000a81548160ff02191690831515021790555050565b600080600090506000600a541415613cae576000915050613d5b565b6000601660008573ffffffffffffffffffffffffffffffffffffffff1673ffffffffffffffffffffffffffffffffffffffff16815260200190815260200160002060006001600a54613d009190615631565b81526020019081526020016000206040518060400160405290816000820154815260200160018201548152505090504281602001511115613d5557613d528160000151836145bf90919063ffffffff16565b91505b81925050505b919050565b60045481565b600080600090506000600d6000868152602001908152602001600020805480602002602001604051908101604052809291908181526020016000905b82821015613e945783829060005260206000209060040201604051806080016040529081600082015481526020016001820160009054906101000a900473ffffffffffffffffffffffffffffffffffffffff1673ffffffffffffffffffffffffffffffffffffffff1673ffffffffffffffffffffffffffffffffffffffff168152602001600282015481526020016003820160009054906101000a900473ffffffffffffffffffffffffffffffffffffffff1673ffffffffffffffffffffffffffffffffffffffff1673ffffffffffffffffffffffffffffffffffffffff168152505081526020019060010190613da2565b50505050905060005b8151811015613f7357613f5e83600f60008a73ffffffffffffffffffffffffffffffffffffffff1673ffffffffffffffffffffffffffffffffffffffff16815260200190815260200160002060008881526020019081526020016000206000858581518110613f35577f4e487b7100000000000000000000000000000000000000000000000000000000600052603260045260246000fd5b6020026020010151600001518152602001908152602001600020546145bf90919063ffffffff16565b92508080613f6b90615736565b915050613e9d565b5081925050509392505050565b613f8861490b565b73ffffffffffffffffffffffffffffffffffffffff16613fa6612e38565b73ffffffffffffffffffffffffffffffffffffffff1614613ffc576040517f08c379a0000000000000000000000000000000000000000000000000000000008152600401613ff390615419565b60405180910390fd5b80601d8190555050565b61400e61490b565b73ffffffffffffffffffffffffffffffffffffffff1661402c612e38565b73ffffffffffffffffffffffffffffffffffffffff1614614082576040517f08c379a000000000000000000000000000000000000000000000000000000000815260040161407990615419565b60405180910390fd5b600073ffffffffffffffffffffffffffffffffffffffff168173ffffffffffffffffffffffffffffffffffffffff1614156140f2576040517f08c379a00000000000000000000000000000000000000000000000000000000081526004016140e990615359565b60405180910390fd5b6140fb81614913565b50565b601c60009054906101000a900473ffffffffffffffffffffffffffffffffffffffff1673ffffffffffffffffffffffffffffffffffffffff163373ffffffffffffffffffffffffffffffffffffffff161461418e576040517f08c379a0000000000000000000000000000000000000000000000000000000008152600401614185906153b9565b60405180910390fd5b6000601060008573ffffffffffffffffffffffffffffffffffffffff1673ffffffffffffffffffffffffffffffffffffffff1681526020019081526020016000206000848152602001908152602001600020549050600060146000601060008873ffffffffffffffffffffffffffffffffffffffff1673ffffffffffffffffffffffffffffffffffffffff1681526020019081526020016000206000878152602001908152602001600020548152602001908152602001600020549050601a600083815260200190815260200160002060009054906101000a900460ff16156142ac576040517f08c379a00000000000000000000000000000000000000000000000000000000081526004016142a390615439565b60405180910390fd5b6000805b600d6000848152602001908152602001600020805490508110156143955783600d6000858152602001908152602001600020828154811061431a577f4e487b7100000000000000000000000000000000000000000000000000000000600052603260045260246000fd5b90600052602060002090600402016000015414156143825761433b83613289565b8181518110614373577f4e487b7100000000000000000000000000000000000000000000000000000000600052603260045260246000fd5b60200260200101519150614395565b808061438d90615736565b9150506142b0565b50600081111561447c57600760009054906101000a900473ffffffffffffffffffffffffffffffffffffffff1673ffffffffffffffffffffffffffffffffffffffff1663c8773af285836040518363ffffffff1660e01b81526004016143fc9291906151ff565b602060405180830381600087803b15801561441657600080fd5b505af115801561442a573d6000803e3d6000fd5b505050506040513d601f19601f8201168201806040525081019061444e9190614d7b565b506001601a600085815260200190815260200160002060006101000a81548160ff0219169083151502179055505b505050505050565b6060600060096000848152602001908152602001600020549050600767ffffffffffffffff8111156144df577f4e487b7100000000000000000000000000000000000000000000000000000000600052604160045260246000fd5b60405190808252806020026020018201604052801561450d5781602001602082028036833780820191505090505b509150600061451b826119bf565b905060005b60078110156145b75761455f603c8060188461453c91906155d7565b61454691906155d7565b61455091906155d7565b836145bf90919063ffffffff16565b848281518110614598577f4e487b7100000000000000000000000000000000000000000000000000000000600052603260045260246000fd5b60200260200101818152505080806145af90615736565b915050614520565b505050919050565b600081836145cd9190615550565b905092915050565b60006145e0426119bf565b905060006145ef600a54614484565b90506000601060008773ffffffffffffffffffffffffffffffffffffffff1673ffffffffffffffffffffffffffffffffffffffff168152602001908152602001600020600086815260200190815260200160002054905060005b825181101561482b578383828151811061468c577f4e487b7100000000000000000000000000000000000000000000000000000000600052603260045260246000fd5b6020026020010151106148185760008382815181106146d4577f4e487b7100000000000000000000000000000000000000000000000000000000600052603260045260246000fd5b6020026020010151905061471586600e60008481526020019081526020016000206000868152602001908152602001600020546145bf90919063ffffffff16565b600e60008381526020019081526020016000206000858152602001908152602001600020819055506147b186600f60008c73ffffffffffffffffffffffffffffffffffffffff1673ffffffffffffffffffffffffffffffffffffffff16815260200190815260200160002060008481526020019081526020016000206000868152602001908152602001600020546145bf90919063ffffffff16565b600f60008b73ffffffffffffffffffffffffffffffffffffffff1673ffffffffffffffffffffffffffffffffffffffff1681526020019081526020016000206000838152602001908152602001600020600085815260200190815260200160002081905550505b808061482390615736565b915050614649565b506148528460136000848152602001908152602001600020546145bf90919063ffffffff16565b60136000838152602001908152602001600020819055506148918460126000600a548152602001908152602001600020546145bf90919063ffffffff16565b60126000600a5481526020019081526020016000208190555050505050505050565b600081836148c191906155d7565b905092915050565b600081836148d791906155a6565b905092915050565b600081836148ed9190615631565b905092915050565b60008183614903919061577f565b905092915050565b600033905090565b60008060009054906101000a900473ffffffffffffffffffffffffffffffffffffffff169050816000806101000a81548173ffffffffffffffffffffffffffffffffffffffff021916908373ffffffffffffffffffffffffffffffffffffffff1602179055508173ffffffffffffffffffffffffffffffffffffffff168173ffffffffffffffffffffffffffffffffffffffff167f8be0079c531659141344cd1fd0a4f28419497f9722a3daafe3b4186f6b6457e060405160405180910390a35050565b8280546149e390615704565b90600052602060002090601f016020900481019282614a055760008555614a4c565b82601f10614a1e57803560ff1916838001178555614a4c565b82800160010185558215614a4c579182015b82811115614a4b578235825591602001919060010190614a30565b5b509050614a599190614a5d565b5090565b5b80821115614a76576000816000905550600101614a5e565b5090565b600081359050614a8981615a0e565b92915050565b600081519050614a9e81615a0e565b92915050565b60008083601f840112614ab657600080fd5b8235905067ffffffffffffffff811115614acf57600080fd5b602083019150836020820283011115614ae757600080fd5b9250929050565b60008083601f840112614b0057600080fd5b8235905067ffffffffffffffff811115614b1957600080fd5b602083019150836020820283011115614b3157600080fd5b9250929050565b600081519050614b4781615a25565b92915050565b60008083601f840112614b5f57600080fd5b8235905067ffffffffffffffff811115614b7857600080fd5b602083019150836001820283011115614b9057600080fd5b9250929050565b600081359050614ba681615a3c565b92915050565b600081519050614bbb81615a3c565b92915050565b600060208284031215614bd357600080fd5b6000614be184828501614a7a565b91505092915050565b600060208284031215614bfc57600080fd5b6000614c0a84828501614a8f565b91505092915050565b60008060408385031215614c2657600080fd5b6000614c3485828601614a7a565b9250506020614c4585828601614b97565b9150509250929050565b60008060408385031215614c6257600080fd5b6000614c7085828601614a8f565b9250506020614c8185828601614bac565b9150509250929050565b600080600060608486031215614ca057600080fd5b6000614cae86828701614a7a565b9350506020614cbf86828701614b97565b9250506040614cd086828701614a7a565b9150509250925092565b600080600060608486031215614cef57600080fd5b6000614cfd86828701614a7a565b9350506020614d0e86828701614b97565b9250506040614d1f86828701614b97565b9150509250925092565b600060208284031215614d3b57600080fd5b6000614d4984828501614b38565b91505092915050565b600060208284031215614d6457600080fd5b6000614d7284828501614b97565b91505092915050565b600060208284031215614d8d57600080fd5b6000614d9b84828501614bac565b91505092915050565b600080600080600060608688031215614dbc57600080fd5b6000614dca88828901614b97565b955050602086013567ffffffffffffffff811115614de757600080fd5b614df388828901614aa4565b9450945050604086013567ffffffffffffffff811115614e1257600080fd5b614e1e88828901614aee565b92509250509295509295909350565b60008060408385031215614e4057600080fd5b6000614e4e85828601614b97565b9250506020614e5f85828601614b97565b9150509250929050565b60008060008060608587031215614e7f57600080fd5b6000614e8d87828801614b97565b9450506020614e9e87828801614b97565b935050604085013567ffffffffffffffff811115614ebb57600080fd5b614ec787828801614b4d565b925092505092959194509250565b6000614ee1838361518f565b60208301905092915050565b614ef681615665565b82525050565b6000614f078261550b565b614f11818561552e565b9350614f1c836154e6565b8060005b83811015614f4d578151614f348882614ed5565b9750614f3f83615521565b925050600181019050614f20565b5085935050505092915050565b614f6381615677565b82525050565b614f72816156ad565b82525050565b6000614f8382615516565b614f8d818561553f565b9350614f9d8185602086016156d1565b614fa68161583d565b840191505092915050565b60008154614fbe81615704565b614fc8818661553f565b94506001821660008114614fe35760018114614ff557615028565b60ff1983168652602086019350615028565b614ffe856154f6565b60005b8381101561502057815481890152600182019150602081019050615001565b808801955050505b50505092915050565b600061503e60198361553f565b91506150498261584e565b602082019050919050565b600061506160268361553f565b915061506c82615877565b604082019050919050565b6000615084600e8361553f565b915061508f826158c6565b602082019050919050565b60006150a760138361553f565b91506150b2826158ef565b602082019050919050565b60006150ca60098361553f565b91506150d582615918565b602082019050919050565b60006150ed600e8361553f565b91506150f882615941565b602082019050919050565b6000615110600b8361553f565b915061511b8261596a565b602082019050919050565b600061513360208361553f565b915061513e82615993565b602082019050919050565b600061515660078361553f565b9150615161826159bc565b602082019050919050565b600061517960138361553f565b9150615184826159e5565b602082019050919050565b615198816156a3565b82525050565b6151a7816156a3565b82525050565b60006020820190506151c26000830184614eed565b92915050565b60006060820190506151dd6000830186614eed565b6151ea6020830185614eed565b6151f7604083018461519e565b949350505050565b60006040820190506152146000830185614eed565b615221602083018461519e565b9392505050565b600060208201905081810360008301526152428184614efc565b905092915050565b600060408201905081810360008301526152648185614efc565b905081810360208301526152788184614efc565b90509392505050565b6000604082019050818103600083015261529b8185614efc565b90506152aa602083018461519e565b9392505050565b60006020820190506152c66000830184614f5a565b92915050565b60006020820190506152e16000830184614f69565b92915050565b600060208201905081810360008301526153018184614f78565b905092915050565b600060408201905081810360008301526153238185614fb1565b9050615332602083018461519e565b9392505050565b6000602082019050818103600083015261535281615031565b9050919050565b6000602082019050818103600083015261537281615054565b9050919050565b6000602082019050818103600083015261539281615077565b9050919050565b600060208201905081810360008301526153b28161509a565b9050919050565b600060208201905081810360008301526153d2816150bd565b9050919050565b600060208201905081810360008301526153f2816150e0565b9050919050565b6000602082019050818103600083015261541281615103565b9050919050565b6000602082019050818103600083015261543281615126565b9050919050565b6000602082019050818103600083015261545281615149565b9050919050565b600060208201905081810360008301526154728161516c565b9050919050565b600060208201905061548e600083018461519e565b92915050565b60006040820190506154a9600083018561519e565b6154b66020830184614eed565b9392505050565b60006040820190506154d2600083018561519e565b6154df602083018461519e565b9392505050565b6000819050602082019050919050565b60008190508160005260206000209050919050565b600081519050919050565b600081519050919050565b6000602082019050919050565b600082825260208201905092915050565b600082825260208201905092915050565b600061555b826156a3565b9150615566836156a3565b9250827fffffffffffffffffffffffffffffffffffffffffffffffffffffffffffffffff0382111561559b5761559a6157b0565b5b828201905092915050565b60006155b1826156a3565b91506155bc836156a3565b9250826155cc576155cb6157df565b5b828204905092915050565b60006155e2826156a3565b91506155ed836156a3565b9250817fffffffffffffffffffffffffffffffffffffffffffffffffffffffffffffffff0483118215151615615626576156256157b0565b5b828202905092915050565b600061563c826156a3565b9150615647836156a3565b92508282101561565a576156596157b0565b5b828203905092915050565b600061567082615683565b9050919050565b60008115159050919050565b600073ffffffffffffffffffffffffffffffffffffffff82169050919050565b6000819050919050565b60006156b8826156bf565b9050919050565b60006156ca82615683565b9050919050565b60005b838110156156ef5780820151818401526020810190506156d4565b838111156156fe576000848401525b50505050565b6000600282049050600182168061571c57607f821691505b602082108114156157305761572f61580e565b5b50919050565b6000615741826156a3565b91507fffffffffffffffffffffffffffffffffffffffffffffffffffffffffffffffff821415615774576157736157b0565b5b600182019050919050565b600061578a826156a3565b9150615795836156a3565b9250826157a5576157a46157df565b5b828206905092915050565b7f4e487b7100000000000000000000000000000000000000000000000000000000600052601160045260246000fd5b7f4e487b7100000000000000000000000000000000000000000000000000000000600052601260045260246000fd5b7f4e487b7100000000000000000000000000000000000000000000000000000000600052602260045260246000fd5b6000601f19601f8301169050919050565b7f496e73756666696369656e7420766f74652062616c616e636500000000000000600082015250565b7f4f776e61626c653a206e6577206f776e657220697320746865207a65726f206160008201527f6464726573730000000000000000000000000000000000000000000000000000602082015250565b7f496e76616c696420706172616d73000000000000000000000000000000000000600082015250565b7f566f74696e67206973206e6f7420737461727400000000000000000000000000600082015250565b7f466f7262696464656e0000000000000000000000000000000000000000000000600082015250565b7f566f74696e67206973206f766572000000000000000000000000000000000000600082015250565b7f496e76616c6964204e4654000000000000000000000000000000000000000000600082015250565b7f4f776e61626c653a2063616c6c6572206973206e6f7420746865206f776e6572600082015250565b7f436c61696d656400000000000000000000000000000000000000000000000000600082015250565b7f41637574696f6e206973206e6f74206f76657200000000000000000000000000600082015250565b615a1781615665565b8114615a2257600080fd5b50565b615a2e81615677565b8114615a3957600080fd5b50565b615a45816156a3565b8114615a5057600080fd5b5056fea264697066735822122072d01d8a5e9ed503a2d574d08292e2829e1d957d0c6d6e79e403826c0901e33764736f6c63430008040033",
  "immutableReferences": {},
  "source": "// SPDX-License-Identifier: MIT\npragma solidity ^0.8.0;\n\nimport \"@openzeppelin/contracts/access/Ownable.sol\";\nimport \"@openzeppelin/contracts/utils/math/SafeMath.sol\";\nimport \"@openzeppelin/contracts/token/ERC20/IERC20.sol\";\nimport \"@openzeppelin/contracts/token/ERC721/IERC721.sol\";\n\n\ninterface ITreasury {\n\tfunction sendRewards(address to, uint256 amount) external returns(uint256 val);\n\tfunction uink() external view returns(address);\n}\n\ninterface IAuction {\n\tfunction matchResults(string calldata matchId, uint index) external view returns(address, uint);\n}\n\ninterface ITokenLocker {\n\tfunction subLockForVote(uint256 lockId, address accountAddress) external returns(uint);\n}\n\n\ncontract VoteMining is Ownable {\n\tusing SafeMath for uint256;\n\n\tuint public weeklyCap = 50000 * 1e18;\n\tuint public dailyVoteRewardCap = weeklyCap / 7 / 4; // 25% of daily cap \n\tuint public dailyMintRewardCap = weeklyCap / 7 / 4; // 25% of daily cap \n\tuint public bonusCap = weeklyCap  / 2; // 50% of weekly cap\n\t// group id => amount\n\tmapping (uint => uint) public stakingBases;\n\n\n\taddress public uink;\n\tITreasury public treasury;\n\taddress public auction;\n\n\tstruct NFT {\n\t\tuint uid;\n\t\taddress addr;\n\t\tuint id;\n\t\taddress owner;\n\t}\n\t// id => start time\n\tmapping (uint => uint) public groups;\n\tuint public currentGroupId = 0;\n\t// group id => matchId\n\tmapping (uint => string) public matches;\n\t// group id => finished or not\n\tmapping (uint => bool) public hasFinished;\n\t\n\t\n\n\t\n\t// group id => NFT[]\n\tmapping (uint => NFT[]) groupNFTs;\n\t// date => NFT uid => votes\n\tmapping (uint => mapping (uint => uint)) dayVotes;\n\t// user => date => NFT id => amount\n\tmapping (address => mapping (uint => mapping (uint => uint))) userVotes;\n\t\t\n\t// nft address => nftId => internal id\n\tmapping (address => mapping (uint => uint)) nfts;\n\tuint public nextNFTId = 0;\n\t// group id => votes\n\tmapping (uint => uint) public groupVotes;\n\n\t// uid => votes\n\tmapping (uint => uint) public nftVotes;\n\n\t// uid => group id\n\tmapping (uint => uint) public nftGroup;\n\t\n\t\n\t\n\tstruct VoteBalance {\n\t\tuint balance;\n\t\tuint releaseAt;\n\t}\n\n\t// user => amount\n\tmapping (address => uint) public balances;\n\n\t// user => group => amount\n\tmapping (address => mapping (uint => VoteBalance)) public nextVotableBalances;\n\t\n\t// uid => price\n\tmapping (uint => uint) public nftTradedPrices;\n\t// user => group => date => bool\n\tmapping (address => mapping (uint => mapping (uint => bool))) public voteRewardsClaimed;\n\t// user = > group id => bool\n\tmapping (address => mapping (uint => bool)) public bonusRewardsClaimed;\n\t// nft uid => bool\n\tmapping (uint => bool) public mintRewardsClaimed;\n\t\n\n\tmapping (address => bool) public operators;\n\n\taddress public pinAddress;\n\n\tuint public tokenLockId = 0;\n\n\taddress public tokenLocker;\n\t\n\n\tmodifier checkNFT(address nftAddr, uint nftId) { \n\t\trequire(nfts[nftAddr][nftId] > 0, \"Invalid NFT\");\n\t\t_; \n\t}\n\n\tmodifier onlyPin() { \n\t\trequire(msg.sender == pinAddress, \"Forbidden\"); \n\t\t_; \n\t}\n\t\n\n\tmodifier checkVotingTime() { \n\t\trequire(groups[currentGroupId] <= block.timestamp, \"Voting is not start\");\n\t\trequire(groups[currentGroupId].add(7 days) >= block.timestamp, \"Voting is over\");\n\t\t_; \n\t}\n\n\t\n\t\n\tconstructor(address _treasury, address _auction, address _tokenLocker){\n\t\ttreasury = ITreasury(_treasury);\n\t\tauction = _auction;\n\t\tuink = treasury.uink();\n\t\ttokenLocker = _tokenLocker;\n\t}\n\t// modifier onlyOperator() {\n\t// \trequire(operators[msg.sender], \"Not operator\");\n\t// \t_;\n\t// }\n\t// function addOperator(address _operator) external onlyOwner {\n\t// \toperators[_operator] = true;\n\t// }\n\t\n\t// function removeOperator(address _operator) external onlyOwner {\n\t// \toperators[_operator] = false;\n\t// }\n\n\tfunction setPinAddress(address _pin) external onlyOwner {\n\t\tpinAddress = _pin;\n\t}\n\n\tfunction setTokenLockId(uint lockId) external onlyOwner {\n\t\ttokenLockId = lockId;\n\t}\n\n\tfunction addGroup(uint stakingBase, uint startTime, string calldata matchId) external onlyOwner {\n\t\tcurrentGroupId++;\n\t\tgroups[currentGroupId] = startTime;\n\t\tstakingBases[currentGroupId] = stakingBase;\n\t\tmatches[currentGroupId] = matchId;\n\t}\n\n\tfunction addNFT(uint groupId, address[] calldata nftAddrs, uint[] calldata nftIds) external onlyOwner {\n\t\trequire(nftAddrs.length == nftIds.length, \"Invalid params\");\n\t\tNFT[] storage inputNFTs = groupNFTs[groupId];\n\n\t\tfor(uint i = 0; i < nftAddrs.length; i++) {\n\t\t\tnextNFTId++;\n\t\t\tnfts[nftAddrs[i]][nftIds[i]] = nextNFTId;\n\t\t\taddress nftOwner = IERC721(nftAddrs[i]).ownerOf(nftIds[i]);\n\t\t\tinputNFTs.push(NFT({\n\t\t\t\tuid: nextNFTId,\n\t\t\t\taddr: nftAddrs[i],\n\t\t\t\tid: nftIds[i],\n\t\t\t\towner: nftOwner\n\t\t\t}));\n\t\t\tnftGroup[nextNFTId] = groupId;\n\t\t}\n\t}\n\n\tfunction getAuctionPrices(uint groupId) public view returns(uint[] memory prices, uint totalAmount) {\n\t\tprices = new uint[](groupNFTs[groupId].length);\n\t\tfor(uint i = 0; i < groupNFTs[groupId].length; i++) {\n\t\t\t(, uint price) = IAuction(auction).matchResults(matches[groupId], i);\n\t\t\tprices[i] = price;\n\t\t\ttotalAmount = totalAmount.add(price);\n\t\t}\n\t}\n\n\t\n\tfunction getDate(uint256 ts) public pure returns(uint256) {\n\t\treturn ts.sub(ts.mod(1 days));\n\t}\n\n\tfunction getVotableDates(uint groupId) public view returns(uint[] memory dates) {\n\t\tuint start = groups[groupId];\n\t\tdates = new uint[](7);\n\t\tuint firstDate = getDate(start);\n\t\tfor(uint i = 0; i < 7; i++) {\n\t\t\tdates[i] = firstDate.add(i * 24 * 60 * 60);\n\t\t}\n\t}\n\n\tfunction getVotableBalance(address user) public view returns(uint) {\n\t\tuint balance = 0;\n\t\tif(currentGroupId == 0) {\n\t\t\treturn 0;\n\t\t}\n\n\t\tVoteBalance memory preVotableBalance = nextVotableBalances[user][currentGroupId - 1];\n\t\tif(preVotableBalance.releaseAt > block.timestamp) {\n\t\t\tbalance = balance.add(preVotableBalance.balance);\n\t\t}\n\n\t\treturn balance;\n\t}\n\n\tfunction getAvailableBalance(address user) public view returns(uint) {\n\t\tuint balance = 0;\n\t\tif(currentGroupId == 0) {\n\t\t\treturn balance;\n\t\t}\n\n\t\tfor(uint i = 1; i <= currentGroupId; i++) {\n\t\t\tVoteBalance memory nvBalance = nextVotableBalances[user][i];\n\t\t\tif(nvBalance.releaseAt < block.timestamp) {\n\t\t\t\tbalance = balance.add(nvBalance.balance);\n\t\t\t}\n\t\t}\n\t\treturn balance;\n\t}\n\n\tfunction getVotedBalance(address user) public view returns(uint) {\n\t\tuint balance = 0;\n\t\tfor(uint i = 1; i <= currentGroupId; i++) {\n\t\t\tVoteBalance memory nvBalance = nextVotableBalances[user][i];\n\t\t\tif(nvBalance.releaseAt > block.timestamp) {\n\t\t\t\tbalance = balance.add(nvBalance.balance);\n\t\t\t}\n\t\t}\n\t\treturn balance;\n\t}\n\n\n\n\tfunction _vote(address user, address nftAddr, uint nftId, uint amount) internal {\n\t\tuint today = getDate(block.timestamp);\n\t\tuint[] memory dates = getVotableDates(currentGroupId);\n\t\tuint uid = nfts[nftAddr][nftId];\n\n\t\tfor(uint i = 0; i < dates.length; i++) {\n\t\t\tif(dates[i] >= today) {\n\t\t\t\tuint date = dates[i];\n\t\t\t\tdayVotes[date][uid] = dayVotes[date][uid].add(amount);\n\t\t\t\tuserVotes[user][date][uid] = userVotes[user][date][uid].add(amount);\n\t\t\t}\n\t\t}\n\t\tnftVotes[uid] = nftVotes[uid].add(amount);\n\t\tgroupVotes[currentGroupId] = groupVotes[currentGroupId].add(amount);\n\t}\n\n\tfunction stakeFromLock(address nftAddr, uint nftId) \n\t\texternal \n\t\tcheckVotingTime\n\t\tcheckNFT(nftAddr, nftId) \n\t{\n\n\t\tuint amount = ITokenLocker(tokenLocker).subLockForVote(tokenLockId, msg.sender);\n\t\t_vote(msg.sender, nftAddr, nftId, amount);\n\n\t\tbalances[msg.sender] = balances[msg.sender].add(amount);\n\n\t\tVoteBalance storage nvBalance = nextVotableBalances[msg.sender][currentGroupId];\n\t\tnvBalance.balance = nvBalance.balance.add(amount);\n\t\tif(nvBalance.releaseAt == 0) {\n\t\t\tnvBalance.releaseAt = groups[currentGroupId].add(14 days); \n\t\t}\n\t}\n\n\t// stake and vote\n\tfunction stake(address nftAddr, uint nftId, uint amount)\n\t\texternal \n\t\tcheckVotingTime\n\t\tcheckNFT(nftAddr, nftId) \n\t{\n\t\t_vote(msg.sender, nftAddr, nftId, amount);\n\n\t\tIERC20(uink).transferFrom(msg.sender, address(this), amount);\n\t\tbalances[msg.sender] = balances[msg.sender].add(amount);\n\n\n\t\tVoteBalance storage nvBalance = nextVotableBalances[msg.sender][currentGroupId];\n\t\tnvBalance.balance = nvBalance.balance.add(amount);\n\t\tif(nvBalance.releaseAt == 0) {\n\t\t\tnvBalance.releaseAt = groups[currentGroupId].add(14 days); \n\t\t}\n\t}\n\n\tfunction vote(address nftAddr, uint nftId, uint amount) \n\t\texternal \n\t\tcheckVotingTime\n\t\tcheckNFT(nftAddr, nftId)\n\t{\n\t\tuint votableBalance = getVotableBalance(msg.sender);\n\t\trequire(votableBalance >= amount, \"Insufficient vote balance\");\n\t\t_vote(msg.sender, nftAddr, nftId, amount);\n\n\n\t\tVoteBalance storage pvBalance = nextVotableBalances[msg.sender][currentGroupId - 1];\n\t\tif(pvBalance.releaseAt > block.timestamp) {\n\t\t\tpvBalance.balance = pvBalance.balance.sub(amount);\n\t\t}\n\n\t\tVoteBalance storage nvBalance = nextVotableBalances[msg.sender][currentGroupId];\n\t\tnvBalance.balance = nvBalance.balance.add(amount);\n\t\tif(nvBalance.releaseAt == 0) {\n\t\t\tnvBalance.releaseAt = groups[currentGroupId].add(14 days);\t\t\t\n\t\t}\n\t}\n\n\n\tfunction redeem() external {\n\t\tuint total = 0;\n\t\tfor(uint i = 1; i <= currentGroupId; i++) {\n\t\t\tVoteBalance storage nvBalance = nextVotableBalances[msg.sender][i];\n\t\t\tif(nvBalance.releaseAt < block.timestamp) {\n\t\t\t\ttotal = total.add(nvBalance.balance);\n\t\t\t\tnvBalance.balance = 0;\n\t\t\t}\n\t\t}\n\n\t\tif(total > 0) {\n\t\t\tIERC20(uink).transfer(msg.sender, total);\t\n\t\t}\n\t}\n\n\tfunction getUserDailyVotes(address user, uint groupId, uint date) public view returns(uint) {\n\t\tuint votes = 0;\n\t\tNFT[] memory gNFTs = groupNFTs[groupId];\n\t\tfor(uint i = 0; i < gNFTs.length; i++) {\n\t\t\tvotes = userVotes[user][date][gNFTs[i].uid].add(votes);\n\t\t}\n\t\treturn votes;\n\t}\n\n\tfunction getUserVotesByNFT(address user, uint groupId, uint uid) public view returns(uint) {\n\t\tuint[] memory dates = getVotableDates(groupId);\n\t\tuint votes = 0;\n\t\tfor(uint i = 0; i < dates.length; i++) {\n\t\t\tvotes = userVotes[user][dates[i]][uid].add(votes);\n\t\t}\n\t\treturn votes;\n\t}\n\n\tfunction claimVoteRewards(uint groupId) external {\n\n\n\t\tuint[] memory dates = getVotableDates(groupId);\n\t\tuint[] memory rawardRates = getBaseRewardRates(groupId);\n\n\t\tuint rewards = 0;\n\t\tuint today = getDate(block.timestamp);\n\t\tfor(uint i = 0; i < dates.length; i++) {\n\t\t\tif(dates[i] >= today){\n\t\t\t\tbreak;\n\t\t\t}\n\t\t\tif(voteRewardsClaimed[msg.sender][groupId][dates[i]]){\n\t\t\t\tcontinue;\n\t\t\t}\n\n\t\t\tuint dayRewards = getUserDailyVotes(msg.sender, groupId, dates[i]).mul(rawardRates[i]).div(1e18);\n\t\t\tif(dayRewards > 0) {\n\t\t\t\trewards = rewards.add(dayRewards);\n\t\t\t}\n\t\t}\n\n\t\tif(rewards > 0) {\n\t\t\ttreasury.sendRewards(msg.sender, rewards);\n\t\t}\n\t}\n\n\n\t// function claimMintRewards(uint groupId) external {\n\t// \trequire(!mintRewardsClaimed[msg.sender][groupId], \"Claimed\");\n\t// \trequire(groupId <= currentGroupId && groups[groupId] > 0, \"Invalid group ID\");\n\t// \trequire(groups[groupId] + 7 days < block.timestamp, \"Voting is not finished\");\n\t// \tuint rewards = 0;\n\t// \tfor(uint i = 0; i < groupNFTs[groupId].length; i++) {\n\t// \t\tif(groupNFTs[groupId][i].owner == msg.sender) {\n\t// \t\t\trewards = rewards.add(getMintRewardsPerNFT(groupId)[i]);\n\t// \t\t}\n\t// \t}\n\t// \tif(rewards > 0) {\n\t// \t\ttreasury.sendRewards(msg.sender, rewards);\n\t// \t}\n\t// }\n\n\tfunction claimMintRewards(address nftAddr, uint nftId, address to) external onlyPin {\n\t\tuint uid = nfts[nftAddr][nftId];\n\t\tuint groupId = nftGroup[nfts[nftAddr][nftId]];\n\t\trequire(!mintRewardsClaimed[uid], \"Claimed\");\n\n\t\tuint rewards = 0;\n\t\tfor(uint i = 0; i < groupNFTs[groupId].length; i++) {\n\t\t\tif(groupNFTs[groupId][i].uid == uid) {\n\t\t\t\trewards = getMintRewardsPerNFT(groupId)[i];\n\t\t\t\tbreak;\n\t\t\t}\n\t\t}\n\t\tif(rewards > 0) {\n\t\t\ttreasury.sendRewards(to, rewards);\n\t\t\tmintRewardsClaimed[uid] = true;\n\t\t}\n\t}\n\n\tfunction claimBonusRewards(uint groupId) external {\n\t\trequire(hasFinished[groupId], \"Acution is not over\");\n\t\trequire(!bonusRewardsClaimed[msg.sender][groupId], \"Claimed\");\n\t\tuint[] memory rewardRates = getBonusRewardRates(groupId);\n\t\tuint rewards = 0;\n\t\tfor(uint i = 0; i < groupNFTs[groupId].length; i++) {\n\t\t\tif(groupNFTs[groupId][i].owner == msg.sender) {\n\t\t\t\tuint votes = getUserVotesByNFT(msg.sender, groupId, groupNFTs[groupId][i].uid);\n\t\t\t\trewards = votes.mul(rewardRates[i]).div(1e18).add(rewards);\n\t\t\t}\n\t\t}\n\t\tif(rewards > 0) {\n\t\t\ttreasury.sendRewards(msg.sender, rewards);\n\t\t}\n\t}\n\n\tfunction getTradeWeights(uint groupId) public view returns(uint[] memory weights) {\n\t\tNFT[] memory gNFTs = groupNFTs[groupId];\n\t\tweights = new uint[](gNFTs.length);\n\t\t\n\t\t(uint[] memory prices, uint total) = getAuctionPrices(groupId);\n\n\t\tif(total > 0) {\n\t\t\tfor(uint i = 0; i < gNFTs.length; i++){\n\t\t\t\tweights[i] = prices[i].mul(1e18).div(total);\n\t\t\t}\n\t\t}\n\t}\n\n\tfunction setAuctionFinish(uint groupId) external onlyOwner {\n\t\thasFinished[groupId] = true;\n\t}\n\n\tfunction getBonusRewardRates(uint groupId) public view returns(uint[] memory bonusRewardRates) {\n\t\tuint[] memory weights = getTradeWeights(groupId);\n\t\tNFT[] memory gNFTs = groupNFTs[groupId];\n\t\tbonusRewardRates = new uint[](gNFTs.length);\n\t\t(, uint[] memory inflations) = getWeightsAndInflations(groupId);\n\t\tuint bonus = bonusCap.mul(inflations[inflations.length - 1]).div(1e18);\n\n\t\tfor(uint i = 0; i < gNFTs.length; i++) {\n\t\t\tif(nftVotes[gNFTs[i].uid] == 0) {\n\t\t\t\tbonusRewardRates[i] = 0;\n\t\t\t} else {\n\t\t\t\tbonusRewardRates[i] = bonus.mul(weights[i]).div(nftVotes[gNFTs[i].uid]);\n\t\t\t}\n\t\t}\n\t}\n\n\tfunction getDailyVotes(uint groupId, uint date) public view returns(uint256) {\n\t\tuint votes = 0;\n\t\tfor(uint i = 0; i < groupNFTs[groupId].length; i++) {\n\t\t\tuint uid = groupNFTs[groupId][i].uid;\n\t\t\tvotes = votes.add(dayVotes[date][uid]);\n\t\t}\n\t\treturn votes;\n\t}\n\n\tfunction getWeightsAndInflations(uint groupId)\n\t\tpublic\n\t\tview\n\t\treturns(\n\t\t\tuint[] memory weights,\n\t\t\tuint[] memory inflations\n\t\t) \n\t{\n\n\t\tuint[] memory dates = getVotableDates(groupId);\n\t\tweights = new uint[](dates.length);\n\t\tinflations = new uint[](dates.length);\n\n\t\tfor(uint i = 0; i < dates.length; i++) {\n\t\t\tuint dailyVotes = getDailyVotes(groupId, dates[i]);\n\t\t\tweights[i] = dailyVotes.mul(1e18).div(stakingBases[groupId]);\n\t\t\tif(weights[i] < 3 * 1e17) {\n\t\t\t\tinflations[i] = 2 * 1e17;\n\t\t\t} else if(weights[i] >= 3 * 1e17 &&  weights[i] < 7 * 1e17) {\n\t\t\t\tinflations[i] = weights[i];\n\t\t\t} else {\n\t\t\t\tinflations[i] = 1e18;\n\t\t\t}\n\t\t}\n\t}\n\n\tfunction getBaseRewardRates(uint groupId) \n\t\tpublic view \n\t\treturns(uint[] memory rewardRates) \n\t{\n\n\t\tuint[] memory dates = getVotableDates(groupId);\n\t\t(,uint[] memory inflations) = getWeightsAndInflations(groupId);\n\t\trewardRates = new uint[](dates.length);\n\n\t\tfor(uint i = 0; i < dates.length; i++) {\n\t\t\tif(dates[i] > getDate(block.timestamp)) {\n\t\t\t\tcontinue;\n\t\t\t}\n\t\t\tuint dailyTotalVotes = getDailyVotes(groupId, dates[i]);\n\t\t\trewardRates[i] = inflations[i].mul(dailyVoteRewardCap).div(dailyTotalVotes);\n\t\t}\n\t}\n\n\tfunction getMintRewardsPerNFT(uint groupId)\n\t\tpublic view \n\t\treturns(uint[] memory mintRewards) \n\t{\n\t\tmintRewards = new uint[](groupNFTs[groupId].length);\n\t\tfor(uint i = 0; i < groupNFTs[groupId].length; i++) {\n\t\t\tif(groupVotes[groupId] > 0) {\n\t\t\t\tmintRewards[i] = nftVotes[groupNFTs[groupId][i].uid].mul(dailyMintRewardCap).div(groupVotes[groupId]);\n\t\t\t}\n\t\t}\n\t}\n}",
  "sourcePath": "/Users/tuminfei/Code/Nodejs/uniarts-eth-dao/contracts/VoteMining.sol",
  "compiler": {
    "name": "solc",
    "version": "0.8.4+commit.c7e474f2.Emscripten.clang"
  },
  "schemaVersion": "3.3.0",
  "updatedAt": "2021-09-07T02:03:48.123Z",
  "devdoc": {
    "kind": "dev",
    "methods": {
      "owner()": {
        "details": "Returns the address of the current owner."
      },
      "renounceOwnership()": {
        "details": "Leaves the contract without owner. It will not be possible to call `onlyOwner` functions anymore. Can only be called by the current owner. NOTE: Renouncing ownership will leave the contract without an owner, thereby removing any functionality that is only available to the owner."
      },
      "transferOwnership(address)": {
        "details": "Transfers ownership of the contract to a new account (`newOwner`). Can only be called by the current owner."
      }
    },
    "version": 1
  },
  "userdoc": {
    "kind": "user",
    "methods": {},
    "version": 1
  }
}