{
  "contractName": "VoteMining",
  "abi": [
    {
      "inputs": [
        {
          "internalType": "address",
          "name": "_treasury",
          "type": "address"
        },
        {
          "internalType": "address",
          "name": "_tokenLocker",
          "type": "address"
        }
      ],
      "stateMutability": "nonpayable",
      "type": "constructor"
    },
    {
      "anonymous": false,
      "inputs": [
        {
          "indexed": true,
          "internalType": "address",
          "name": "previousOwner",
          "type": "address"
        },
        {
          "indexed": true,
          "internalType": "address",
          "name": "newOwner",
          "type": "address"
        }
      ],
      "name": "OwnershipTransferred",
      "type": "event"
    },
    {
      "anonymous": false,
      "inputs": [
        {
          "indexed": true,
          "internalType": "address",
          "name": "user",
          "type": "address"
        },
        {
          "indexed": false,
          "internalType": "address",
          "name": "token",
          "type": "address"
        },
        {
          "indexed": false,
          "internalType": "uint256",
          "name": "amount",
          "type": "uint256"
        }
      ],
      "name": "Redeem",
      "type": "event"
    },
    {
      "anonymous": false,
      "inputs": [
        {
          "indexed": true,
          "internalType": "address",
          "name": "user",
          "type": "address"
        },
        {
          "indexed": false,
          "internalType": "uint256",
          "name": "amount",
          "type": "uint256"
        },
        {
          "indexed": false,
          "internalType": "uint256",
          "name": "at",
          "type": "uint256"
        }
      ],
      "name": "Unbond",
      "type": "event"
    },
    {
      "inputs": [],
      "name": "VOTE_DAYS",
      "outputs": [
        {
          "internalType": "uint256",
          "name": "",
          "type": "uint256"
        }
      ],
      "stateMutability": "view",
      "type": "function"
    },
    {
      "inputs": [],
      "name": "VOTE_DURATION",
      "outputs": [
        {
          "internalType": "uint256",
          "name": "",
          "type": "uint256"
        }
      ],
      "stateMutability": "view",
      "type": "function"
    },
    {
      "inputs": [],
      "name": "VOTE_TIME_UNIT",
      "outputs": [
        {
          "internalType": "uint256",
          "name": "",
          "type": "uint256"
        }
      ],
      "stateMutability": "view",
      "type": "function"
    },
    {
      "inputs": [],
      "name": "auction",
      "outputs": [
        {
          "internalType": "address",
          "name": "",
          "type": "address"
        }
      ],
      "stateMutability": "view",
      "type": "function"
    },
    {
      "inputs": [
        {
          "internalType": "address",
          "name": "",
          "type": "address"
        },
        {
          "internalType": "address",
          "name": "",
          "type": "address"
        },
        {
          "internalType": "uint256",
          "name": "",
          "type": "uint256"
        }
      ],
      "name": "balances",
      "outputs": [
        {
          "internalType": "uint256",
          "name": "available",
          "type": "uint256"
        },
        {
          "internalType": "uint256",
          "name": "freezed",
          "type": "uint256"
        },
        {
          "internalType": "uint256",
          "name": "votedAt",
          "type": "uint256"
        }
      ],
      "stateMutability": "view",
      "type": "function"
    },
    {
      "inputs": [],
      "name": "bonusCap",
      "outputs": [
        {
          "internalType": "uint256",
          "name": "",
          "type": "uint256"
        }
      ],
      "stateMutability": "view",
      "type": "function"
    },
    {
      "inputs": [
        {
          "internalType": "address",
          "name": "",
          "type": "address"
        },
        {
          "internalType": "uint256",
          "name": "",
          "type": "uint256"
        }
      ],
      "name": "bonusRewardsClaimed",
      "outputs": [
        {
          "internalType": "bool",
          "name": "",
          "type": "bool"
        }
      ],
      "stateMutability": "view",
      "type": "function"
    },
    {
      "inputs": [],
      "name": "currentGroupId",
      "outputs": [
        {
          "internalType": "uint256",
          "name": "",
          "type": "uint256"
        }
      ],
      "stateMutability": "view",
      "type": "function"
    },
    {
      "inputs": [],
      "name": "dailyVoteRewardCap",
      "outputs": [
        {
          "internalType": "uint256",
          "name": "",
          "type": "uint256"
        }
      ],
      "stateMutability": "view",
      "type": "function"
    },
    {
      "inputs": [
        {
          "internalType": "uint256",
          "name": "",
          "type": "uint256"
        },
        {
          "internalType": "uint256",
          "name": "",
          "type": "uint256"
        }
      ],
      "name": "dayVotes",
      "outputs": [
        {
          "internalType": "uint256",
          "name": "",
          "type": "uint256"
        }
      ],
      "stateMutability": "view",
      "type": "function"
    },
    {
      "inputs": [
        {
          "internalType": "uint256",
          "name": "",
          "type": "uint256"
        },
        {
          "internalType": "uint256",
          "name": "",
          "type": "uint256"
        }
      ],
      "name": "groupNFTs",
      "outputs": [
        {
          "internalType": "uint256",
          "name": "uid",
          "type": "uint256"
        },
        {
          "internalType": "address",
          "name": "addr",
          "type": "address"
        },
        {
          "internalType": "uint256",
          "name": "id",
          "type": "uint256"
        },
        {
          "internalType": "address",
          "name": "owner",
          "type": "address"
        }
      ],
      "stateMutability": "view",
      "type": "function"
    },
    {
      "inputs": [
        {
          "internalType": "uint256",
          "name": "",
          "type": "uint256"
        },
        {
          "internalType": "address",
          "name": "",
          "type": "address"
        },
        {
          "internalType": "address",
          "name": "",
          "type": "address"
        }
      ],
      "name": "groupTokenBalances",
      "outputs": [
        {
          "internalType": "uint256",
          "name": "",
          "type": "uint256"
        }
      ],
      "stateMutability": "view",
      "type": "function"
    },
    {
      "inputs": [
        {
          "internalType": "uint256",
          "name": "",
          "type": "uint256"
        }
      ],
      "name": "groupVotes",
      "outputs": [
        {
          "internalType": "uint256",
          "name": "",
          "type": "uint256"
        }
      ],
      "stateMutability": "view",
      "type": "function"
    },
    {
      "inputs": [
        {
          "internalType": "uint256",
          "name": "",
          "type": "uint256"
        }
      ],
      "name": "groups",
      "outputs": [
        {
          "internalType": "uint256",
          "name": "",
          "type": "uint256"
        }
      ],
      "stateMutability": "view",
      "type": "function"
    },
    {
      "inputs": [
        {
          "internalType": "uint256",
          "name": "",
          "type": "uint256"
        }
      ],
      "name": "hasFinished",
      "outputs": [
        {
          "internalType": "bool",
          "name": "",
          "type": "bool"
        }
      ],
      "stateMutability": "view",
      "type": "function"
    },
    {
      "inputs": [
        {
          "internalType": "uint256",
          "name": "",
          "type": "uint256"
        }
      ],
      "name": "matches",
      "outputs": [
        {
          "internalType": "string",
          "name": "",
          "type": "string"
        }
      ],
      "stateMutability": "view",
      "type": "function"
    },
    {
      "inputs": [],
      "name": "mintRewardCap",
      "outputs": [
        {
          "internalType": "uint256",
          "name": "",
          "type": "uint256"
        }
      ],
      "stateMutability": "view",
      "type": "function"
    },
    {
      "inputs": [
        {
          "internalType": "uint256",
          "name": "",
          "type": "uint256"
        }
      ],
      "name": "mintRewardsClaimed",
      "outputs": [
        {
          "internalType": "bool",
          "name": "",
          "type": "bool"
        }
      ],
      "stateMutability": "view",
      "type": "function"
    },
    {
      "inputs": [],
      "name": "nextNFTId",
      "outputs": [
        {
          "internalType": "uint256",
          "name": "",
          "type": "uint256"
        }
      ],
      "stateMutability": "view",
      "type": "function"
    },
    {
      "inputs": [
        {
          "internalType": "uint256",
          "name": "",
          "type": "uint256"
        }
      ],
      "name": "nftGroup",
      "outputs": [
        {
          "internalType": "uint256",
          "name": "",
          "type": "uint256"
        }
      ],
      "stateMutability": "view",
      "type": "function"
    },
    {
      "inputs": [
        {
          "internalType": "uint256",
          "name": "",
          "type": "uint256"
        }
      ],
      "name": "nftTradedPrices",
      "outputs": [
        {
          "internalType": "uint256",
          "name": "",
          "type": "uint256"
        }
      ],
      "stateMutability": "view",
      "type": "function"
    },
    {
      "inputs": [
        {
          "internalType": "uint256",
          "name": "",
          "type": "uint256"
        }
      ],
      "name": "nftVotes",
      "outputs": [
        {
          "internalType": "uint256",
          "name": "",
          "type": "uint256"
        }
      ],
      "stateMutability": "view",
      "type": "function"
    },
    {
      "inputs": [
        {
          "internalType": "address",
          "name": "",
          "type": "address"
        },
        {
          "internalType": "uint256",
          "name": "",
          "type": "uint256"
        }
      ],
      "name": "nfts",
      "outputs": [
        {
          "internalType": "uint256",
          "name": "",
          "type": "uint256"
        }
      ],
      "stateMutability": "view",
      "type": "function"
    },
    {
      "inputs": [
        {
          "internalType": "address",
          "name": "",
          "type": "address"
        }
      ],
      "name": "operators",
      "outputs": [
        {
          "internalType": "bool",
          "name": "",
          "type": "bool"
        }
      ],
      "stateMutability": "view",
      "type": "function"
    },
    {
      "inputs": [],
      "name": "owner",
      "outputs": [
        {
          "internalType": "address",
          "name": "",
          "type": "address"
        }
      ],
      "stateMutability": "view",
      "type": "function"
    },
    {
      "inputs": [],
      "name": "pinAddress",
      "outputs": [
        {
          "internalType": "address",
          "name": "",
          "type": "address"
        }
      ],
      "stateMutability": "view",
      "type": "function"
    },
    {
      "inputs": [],
      "name": "renounceOwnership",
      "outputs": [],
      "stateMutability": "nonpayable",
      "type": "function"
    },
    {
      "inputs": [
        {
          "internalType": "uint256",
          "name": "",
          "type": "uint256"
        }
      ],
      "name": "stakingBases",
      "outputs": [
        {
          "internalType": "uint256",
          "name": "",
          "type": "uint256"
        }
      ],
      "stateMutability": "view",
      "type": "function"
    },
    {
      "inputs": [],
      "name": "tokenLockId",
      "outputs": [
        {
          "internalType": "uint256",
          "name": "",
          "type": "uint256"
        }
      ],
      "stateMutability": "view",
      "type": "function"
    },
    {
      "inputs": [],
      "name": "tokenLocker",
      "outputs": [
        {
          "internalType": "address",
          "name": "",
          "type": "address"
        }
      ],
      "stateMutability": "view",
      "type": "function"
    },
    {
      "inputs": [
        {
          "internalType": "address",
          "name": "",
          "type": "address"
        }
      ],
      "name": "totalVotedBalances",
      "outputs": [
        {
          "internalType": "uint256",
          "name": "",
          "type": "uint256"
        }
      ],
      "stateMutability": "view",
      "type": "function"
    },
    {
      "inputs": [
        {
          "internalType": "address",
          "name": "newOwner",
          "type": "address"
        }
      ],
      "name": "transferOwnership",
      "outputs": [],
      "stateMutability": "nonpayable",
      "type": "function"
    },
    {
      "inputs": [],
      "name": "treasury",
      "outputs": [
        {
          "internalType": "contract ITreasury",
          "name": "",
          "type": "address"
        }
      ],
      "stateMutability": "view",
      "type": "function"
    },
    {
      "inputs": [],
      "name": "uink",
      "outputs": [
        {
          "internalType": "address",
          "name": "",
          "type": "address"
        }
      ],
      "stateMutability": "view",
      "type": "function"
    },
    {
      "inputs": [
        {
          "internalType": "address",
          "name": "",
          "type": "address"
        }
      ],
      "name": "unbondedBalances",
      "outputs": [
        {
          "internalType": "uint256",
          "name": "",
          "type": "uint256"
        }
      ],
      "stateMutability": "view",
      "type": "function"
    },
    {
      "inputs": [
        {
          "internalType": "address",
          "name": "",
          "type": "address"
        },
        {
          "internalType": "uint256",
          "name": "",
          "type": "uint256"
        }
      ],
      "name": "unbondingBalances",
      "outputs": [
        {
          "internalType": "uint256",
          "name": "value",
          "type": "uint256"
        },
        {
          "internalType": "uint256",
          "name": "unbondedAt",
          "type": "uint256"
        },
        {
          "internalType": "uint256",
          "name": "redeemed",
          "type": "uint256"
        }
      ],
      "stateMutability": "view",
      "type": "function"
    },
    {
      "inputs": [
        {
          "internalType": "address",
          "name": "",
          "type": "address"
        },
        {
          "internalType": "uint256",
          "name": "",
          "type": "uint256"
        },
        {
          "internalType": "uint256",
          "name": "",
          "type": "uint256"
        }
      ],
      "name": "userDailyVotes",
      "outputs": [
        {
          "internalType": "uint256",
          "name": "",
          "type": "uint256"
        }
      ],
      "stateMutability": "view",
      "type": "function"
    },
    {
      "inputs": [
        {
          "internalType": "address",
          "name": "",
          "type": "address"
        },
        {
          "internalType": "uint256",
          "name": "",
          "type": "uint256"
        }
      ],
      "name": "userNFTVotes",
      "outputs": [
        {
          "internalType": "uint256",
          "name": "",
          "type": "uint256"
        }
      ],
      "stateMutability": "view",
      "type": "function"
    },
    {
      "inputs": [
        {
          "internalType": "address",
          "name": "",
          "type": "address"
        },
        {
          "internalType": "address",
          "name": "",
          "type": "address"
        }
      ],
      "name": "userTokenBalances",
      "outputs": [
        {
          "internalType": "uint256",
          "name": "",
          "type": "uint256"
        }
      ],
      "stateMutability": "view",
      "type": "function"
    },
    {
      "inputs": [
        {
          "internalType": "address",
          "name": "",
          "type": "address"
        },
        {
          "internalType": "uint256",
          "name": "",
          "type": "uint256"
        },
        {
          "internalType": "uint256",
          "name": "",
          "type": "uint256"
        }
      ],
      "name": "userVotes",
      "outputs": [
        {
          "internalType": "uint256",
          "name": "",
          "type": "uint256"
        }
      ],
      "stateMutability": "view",
      "type": "function"
    },
    {
      "inputs": [
        {
          "internalType": "address",
          "name": "",
          "type": "address"
        }
      ],
      "name": "voteRatio",
      "outputs": [
        {
          "internalType": "uint256",
          "name": "",
          "type": "uint256"
        }
      ],
      "stateMutability": "view",
      "type": "function"
    },
    {
      "inputs": [],
      "name": "voteRatioMax",
      "outputs": [
        {
          "internalType": "uint256",
          "name": "",
          "type": "uint256"
        }
      ],
      "stateMutability": "view",
      "type": "function"
    },
    {
      "inputs": [
        {
          "internalType": "address",
          "name": "",
          "type": "address"
        },
        {
          "internalType": "uint256",
          "name": "",
          "type": "uint256"
        },
        {
          "internalType": "uint256",
          "name": "",
          "type": "uint256"
        }
      ],
      "name": "voteRewardsClaimed",
      "outputs": [
        {
          "internalType": "bool",
          "name": "",
          "type": "bool"
        }
      ],
      "stateMutability": "view",
      "type": "function"
    },
    {
      "inputs": [
        {
          "internalType": "uint256",
          "name": "",
          "type": "uint256"
        }
      ],
      "name": "voteTokens",
      "outputs": [
        {
          "internalType": "address",
          "name": "",
          "type": "address"
        }
      ],
      "stateMutability": "view",
      "type": "function"
    },
    {
      "inputs": [
        {
          "internalType": "address",
          "name": "",
          "type": "address"
        },
        {
          "internalType": "uint256",
          "name": "",
          "type": "uint256"
        }
      ],
      "name": "votedBalances",
      "outputs": [
        {
          "internalType": "uint256",
          "name": "available",
          "type": "uint256"
        },
        {
          "internalType": "uint256",
          "name": "freezed",
          "type": "uint256"
        },
        {
          "internalType": "uint256",
          "name": "votedAt",
          "type": "uint256"
        }
      ],
      "stateMutability": "view",
      "type": "function"
    },
    {
      "inputs": [],
      "name": "weeklyCap",
      "outputs": [
        {
          "internalType": "uint256",
          "name": "",
          "type": "uint256"
        }
      ],
      "stateMutability": "view",
      "type": "function"
    },
    {
      "inputs": [
        {
          "internalType": "address",
          "name": "_token",
          "type": "address"
        },
        {
          "internalType": "uint256",
          "name": "_ratio",
          "type": "uint256"
        }
      ],
      "name": "addVoteToken",
      "outputs": [],
      "stateMutability": "nonpayable",
      "type": "function"
    },
    {
      "inputs": [
        {
          "internalType": "address",
          "name": "_auction",
          "type": "address"
        }
      ],
      "name": "setAuctionAddress",
      "outputs": [],
      "stateMutability": "nonpayable",
      "type": "function"
    },
    {
      "inputs": [
        {
          "internalType": "address",
          "name": "_pin",
          "type": "address"
        }
      ],
      "name": "setPinAddress",
      "outputs": [],
      "stateMutability": "nonpayable",
      "type": "function"
    },
    {
      "inputs": [
        {
          "internalType": "uint256",
          "name": "lockId",
          "type": "uint256"
        }
      ],
      "name": "setTokenLockId",
      "outputs": [],
      "stateMutability": "nonpayable",
      "type": "function"
    },
    {
      "inputs": [
        {
          "internalType": "address",
          "name": "operator",
          "type": "address"
        },
        {
          "internalType": "bool",
          "name": "isOperator",
          "type": "bool"
        }
      ],
      "name": "setOperator",
      "outputs": [],
      "stateMutability": "nonpayable",
      "type": "function"
    },
    {
      "inputs": [
        {
          "internalType": "uint256",
          "name": "_days",
          "type": "uint256"
        }
      ],
      "name": "setVoteDays",
      "outputs": [],
      "stateMutability": "nonpayable",
      "type": "function"
    },
    {
      "inputs": [
        {
          "internalType": "uint256",
          "name": "groupId",
          "type": "uint256"
        },
        {
          "internalType": "string",
          "name": "matchId",
          "type": "string"
        }
      ],
      "name": "setMatchId",
      "outputs": [],
      "stateMutability": "nonpayable",
      "type": "function"
    },
    {
      "inputs": [
        {
          "internalType": "uint256",
          "name": "stakingBase",
          "type": "uint256"
        },
        {
          "internalType": "uint256",
          "name": "startTime",
          "type": "uint256"
        },
        {
          "internalType": "string",
          "name": "matchId",
          "type": "string"
        }
      ],
      "name": "addGroup",
      "outputs": [],
      "stateMutability": "nonpayable",
      "type": "function"
    },
    {
      "inputs": [
        {
          "internalType": "uint256",
          "name": "groupId",
          "type": "uint256"
        },
        {
          "internalType": "address[]",
          "name": "nftAddrs",
          "type": "address[]"
        },
        {
          "internalType": "uint256[]",
          "name": "nftIds",
          "type": "uint256[]"
        }
      ],
      "name": "addNFT",
      "outputs": [],
      "stateMutability": "nonpayable",
      "type": "function"
    },
    {
      "inputs": [
        {
          "internalType": "uint256",
          "name": "groupId",
          "type": "uint256"
        }
      ],
      "name": "groupNFTsLength",
      "outputs": [
        {
          "internalType": "uint256",
          "name": "",
          "type": "uint256"
        }
      ],
      "stateMutability": "view",
      "type": "function"
    },
    {
      "inputs": [
        {
          "internalType": "uint256",
          "name": "groupId",
          "type": "uint256"
        }
      ],
      "name": "getAuctionPrices",
      "outputs": [
        {
          "internalType": "uint256[]",
          "name": "prices",
          "type": "uint256[]"
        },
        {
          "internalType": "uint256",
          "name": "totalAmount",
          "type": "uint256"
        }
      ],
      "stateMutability": "view",
      "type": "function"
    },
    {
      "inputs": [
        {
          "internalType": "uint256",
          "name": "ts",
          "type": "uint256"
        }
      ],
      "name": "getDate",
      "outputs": [
        {
          "internalType": "uint256",
          "name": "",
          "type": "uint256"
        }
      ],
      "stateMutability": "view",
      "type": "function"
    },
    {
      "inputs": [
        {
          "internalType": "uint256",
          "name": "groupId",
          "type": "uint256"
        }
      ],
      "name": "getVotableDates",
      "outputs": [
        {
          "internalType": "uint256[]",
          "name": "dates",
          "type": "uint256[]"
        }
      ],
      "stateMutability": "view",
      "type": "function"
    },
    {
      "inputs": [
        {
          "internalType": "address",
          "name": "user",
          "type": "address"
        },
        {
          "internalType": "address",
          "name": "nftAddr",
          "type": "address"
        },
        {
          "internalType": "uint256",
          "name": "nftId",
          "type": "uint256"
        }
      ],
      "name": "getUserNFTVotes",
      "outputs": [
        {
          "internalType": "uint256",
          "name": "",
          "type": "uint256"
        }
      ],
      "stateMutability": "view",
      "type": "function"
    },
    {
      "inputs": [
        {
          "internalType": "address",
          "name": "nftAddr",
          "type": "address"
        },
        {
          "internalType": "uint256",
          "name": "nftId",
          "type": "uint256"
        }
      ],
      "name": "getNFTVotes",
      "outputs": [
        {
          "internalType": "uint256",
          "name": "",
          "type": "uint256"
        }
      ],
      "stateMutability": "view",
      "type": "function"
    },
    {
      "inputs": [
        {
          "internalType": "address",
          "name": "user",
          "type": "address"
        },
        {
          "internalType": "address",
          "name": "token",
          "type": "address"
        },
        {
          "internalType": "address",
          "name": "nftAddr",
          "type": "address"
        },
        {
          "internalType": "uint256",
          "name": "nftId",
          "type": "uint256"
        }
      ],
      "name": "getAvailableBalance",
      "outputs": [
        {
          "internalType": "uint256",
          "name": "",
          "type": "uint256"
        }
      ],
      "stateMutability": "view",
      "type": "function"
    },
    {
      "inputs": [
        {
          "internalType": "address",
          "name": "nftAddr",
          "type": "address"
        },
        {
          "internalType": "uint256",
          "name": "nftId",
          "type": "uint256"
        },
        {
          "internalType": "address",
          "name": "token",
          "type": "address"
        },
        {
          "internalType": "uint256",
          "name": "amount",
          "type": "uint256"
        }
      ],
      "name": "stake",
      "outputs": [],
      "stateMutability": "nonpayable",
      "type": "function"
    },
    {
      "inputs": [
        {
          "internalType": "address",
          "name": "nftAddr",
          "type": "address"
        },
        {
          "internalType": "uint256",
          "name": "nftId",
          "type": "uint256"
        },
        {
          "internalType": "address",
          "name": "token",
          "type": "address"
        },
        {
          "internalType": "uint256",
          "name": "amount",
          "type": "uint256"
        }
      ],
      "name": "unstake",
      "outputs": [],
      "stateMutability": "nonpayable",
      "type": "function"
    },
    {
      "inputs": [
        {
          "internalType": "address",
          "name": "user",
          "type": "address"
        },
        {
          "internalType": "address",
          "name": "token",
          "type": "address"
        }
      ],
      "name": "getRedeemableBalance",
      "outputs": [
        {
          "internalType": "uint256",
          "name": "",
          "type": "uint256"
        }
      ],
      "stateMutability": "view",
      "type": "function"
    },
    {
      "inputs": [
        {
          "internalType": "address",
          "name": "token",
          "type": "address"
        }
      ],
      "name": "redeemToken",
      "outputs": [],
      "stateMutability": "nonpayable",
      "type": "function"
    },
    {
      "inputs": [
        {
          "internalType": "uint256",
          "name": "groupId",
          "type": "uint256"
        },
        {
          "internalType": "address",
          "name": "token",
          "type": "address"
        }
      ],
      "name": "redeemToken",
      "outputs": [],
      "stateMutability": "nonpayable",
      "type": "function"
    },
    {
      "inputs": [
        {
          "internalType": "address",
          "name": "token",
          "type": "address"
        },
        {
          "internalType": "uint256",
          "name": "amount",
          "type": "uint256"
        }
      ],
      "name": "rescueToken",
      "outputs": [],
      "stateMutability": "nonpayable",
      "type": "function"
    },
    {
      "inputs": [
        {
          "internalType": "address",
          "name": "user",
          "type": "address"
        }
      ],
      "name": "getTotalRewards",
      "outputs": [
        {
          "internalType": "uint256",
          "name": "",
          "type": "uint256"
        }
      ],
      "stateMutability": "view",
      "type": "function"
    },
    {
      "inputs": [
        {
          "internalType": "address",
          "name": "user",
          "type": "address"
        },
        {
          "internalType": "uint256",
          "name": "groupId",
          "type": "uint256"
        }
      ],
      "name": "getBaseRewards",
      "outputs": [
        {
          "internalType": "uint256",
          "name": "",
          "type": "uint256"
        }
      ],
      "stateMutability": "view",
      "type": "function"
    },
    {
      "inputs": [
        {
          "internalType": "address",
          "name": "user",
          "type": "address"
        },
        {
          "internalType": "uint256",
          "name": "groupId",
          "type": "uint256"
        }
      ],
      "name": "getAuctionRewards",
      "outputs": [
        {
          "internalType": "uint256",
          "name": "",
          "type": "uint256"
        }
      ],
      "stateMutability": "view",
      "type": "function"
    },
    {
      "inputs": [
        {
          "internalType": "address",
          "name": "user",
          "type": "address"
        }
      ],
      "name": "getBondedBalance",
      "outputs": [
        {
          "internalType": "uint256",
          "name": "",
          "type": "uint256"
        }
      ],
      "stateMutability": "view",
      "type": "function"
    },
    {
      "inputs": [
        {
          "internalType": "address",
          "name": "user",
          "type": "address"
        },
        {
          "internalType": "address",
          "name": "nftAddr",
          "type": "address"
        },
        {
          "internalType": "uint256",
          "name": "nftId",
          "type": "uint256"
        }
      ],
      "name": "getUnvotableBalance",
      "outputs": [
        {
          "internalType": "uint256",
          "name": "",
          "type": "uint256"
        }
      ],
      "stateMutability": "view",
      "type": "function"
    },
    {
      "inputs": [
        {
          "internalType": "address",
          "name": "nftAddr",
          "type": "address"
        },
        {
          "internalType": "uint256",
          "name": "nftId",
          "type": "uint256"
        }
      ],
      "name": "voteFromLock",
      "outputs": [],
      "stateMutability": "nonpayable",
      "type": "function"
    },
    {
      "inputs": [
        {
          "internalType": "address",
          "name": "nftAddr",
          "type": "address"
        },
        {
          "internalType": "uint256",
          "name": "nftId",
          "type": "uint256"
        },
        {
          "internalType": "uint256",
          "name": "amount",
          "type": "uint256"
        }
      ],
      "name": "voteBonded",
      "outputs": [],
      "stateMutability": "nonpayable",
      "type": "function"
    },
    {
      "inputs": [
        {
          "internalType": "address",
          "name": "nftAddr",
          "type": "address"
        },
        {
          "internalType": "uint256",
          "name": "nftId",
          "type": "uint256"
        },
        {
          "internalType": "uint256",
          "name": "amount",
          "type": "uint256"
        }
      ],
      "name": "unvoteBonded",
      "outputs": [],
      "stateMutability": "nonpayable",
      "type": "function"
    },
    {
      "inputs": [
        {
          "internalType": "address",
          "name": "user",
          "type": "address"
        }
      ],
      "name": "getUnbondingBalancesLength",
      "outputs": [
        {
          "internalType": "uint256",
          "name": "",
          "type": "uint256"
        }
      ],
      "stateMutability": "view",
      "type": "function"
    },
    {
      "inputs": [
        {
          "internalType": "uint256",
          "name": "amount",
          "type": "uint256"
        }
      ],
      "name": "unbond",
      "outputs": [],
      "stateMutability": "nonpayable",
      "type": "function"
    },
    {
      "inputs": [
        {
          "internalType": "uint256",
          "name": "index",
          "type": "uint256"
        }
      ],
      "name": "redeemUnbonding",
      "outputs": [],
      "stateMutability": "nonpayable",
      "type": "function"
    },
    {
      "inputs": [
        {
          "internalType": "address",
          "name": "nftAddr",
          "type": "address"
        },
        {
          "internalType": "uint256",
          "name": "nftId",
          "type": "uint256"
        },
        {
          "internalType": "address",
          "name": "to",
          "type": "address"
        }
      ],
      "name": "claimMintRewards",
      "outputs": [],
      "stateMutability": "nonpayable",
      "type": "function"
    },
    {
      "inputs": [
        {
          "internalType": "uint256",
          "name": "groupId",
          "type": "uint256"
        }
      ],
      "name": "getTradeWeights",
      "outputs": [
        {
          "internalType": "uint256[]",
          "name": "weights",
          "type": "uint256[]"
        }
      ],
      "stateMutability": "view",
      "type": "function"
    },
    {
      "inputs": [
        {
          "internalType": "uint256",
          "name": "groupId",
          "type": "uint256"
        }
      ],
      "name": "setAuctionFinish",
      "outputs": [],
      "stateMutability": "nonpayable",
      "type": "function"
    },
    {
      "inputs": [
        {
          "internalType": "uint256",
          "name": "groupId",
          "type": "uint256"
        }
      ],
      "name": "getAuctionRewardRates",
      "outputs": [
        {
          "internalType": "uint256[]",
          "name": "auctionRewardRates",
          "type": "uint256[]"
        }
      ],
      "stateMutability": "view",
      "type": "function"
    },
    {
      "inputs": [
        {
          "internalType": "uint256",
          "name": "groupId",
          "type": "uint256"
        },
        {
          "internalType": "uint256",
          "name": "date",
          "type": "uint256"
        }
      ],
      "name": "getDailyVotes",
      "outputs": [
        {
          "internalType": "uint256",
          "name": "",
          "type": "uint256"
        }
      ],
      "stateMutability": "view",
      "type": "function"
    },
    {
      "inputs": [
        {
          "internalType": "uint256",
          "name": "groupId",
          "type": "uint256"
        }
      ],
      "name": "getWeightsAndInflations",
      "outputs": [
        {
          "internalType": "uint256[]",
          "name": "weights",
          "type": "uint256[]"
        },
        {
          "internalType": "uint256[]",
          "name": "inflations",
          "type": "uint256[]"
        }
      ],
      "stateMutability": "view",
      "type": "function"
    },
    {
      "inputs": [
        {
          "internalType": "uint256",
          "name": "groupId",
          "type": "uint256"
        }
      ],
      "name": "getBaseRewardRates",
      "outputs": [
        {
          "internalType": "uint256[]",
          "name": "rewardRates",
          "type": "uint256[]"
        }
      ],
      "stateMutability": "view",
      "type": "function"
    },
    {
      "inputs": [
        {
          "internalType": "uint256",
          "name": "groupId",
          "type": "uint256"
        }
      ],
      "name": "getMintRewardsPerNFT",
      "outputs": [
        {
          "internalType": "uint256[]",
          "name": "mintRewards",
          "type": "uint256[]"
        }
      ],
      "stateMutability": "view",
      "type": "function"
    },
    {
      "inputs": [
        {
          "internalType": "address",
          "name": "nftAddr",
          "type": "address"
        },
        {
          "internalType": "uint256",
          "name": "nftId",
          "type": "uint256"
        }
      ],
      "name": "getMintRewards",
      "outputs": [
        {
          "internalType": "uint256",
          "name": "",
          "type": "uint256"
        }
      ],
      "stateMutability": "view",
      "type": "function"
    }
  ],
  "bytecode": "0x6080604052610e10600155600e60025560015460025462000021919062000318565b60035567058d15e1762800006004556004600254600454620000449190620002de565b620000509190620002de565b60055560048054620000639190620002de565b6006556002600454620000779190620002de565b6007556000600d556000601655612710601c556000602a553480156200009c57600080fd5b50604051620058ec380380620058ec833981016040819052620000bf91620002a7565b620000e5620000d664010000000062000212810204565b64010000000062000216810204565b600a8054600160a060020a031916600160a060020a038416908117909155604080517fa88d8fea000000000000000000000000000000000000000000000000000000008152905163a88d8fea91600480820192602092909190829003018186803b1580156200015357600080fd5b505afa15801562000168573d6000803e3d6000fd5b505050506040513d601f19601f820116820180604052508101906200018e919062000283565b60098054600160a060020a03928316600160a060020a031991821681178355602b805495851695831695909517909455601a8054600181019091557f057c384a7d1c54f3a1b2e5e67b2617b8224fdfd1ea7234eea573a6ff665ff63e018054909116909317909255601c549154166000908152601b6020526040902055506200035d565b3390565b60008054600160a060020a03838116600160a060020a0319831681178455604051919092169283917f8be0079c531659141344cd1fd0a4f28419497f9722a3daafe3b4186f6b6457e09190a35050565b8051600160a060020a03811681146200027e57600080fd5b919050565b60006020828403121562000295578081fd5b620002a08262000266565b9392505050565b60008060408385031215620002ba578081fd5b620002c58362000266565b9150620002d56020840162000266565b90509250929050565b60008262000313577f4e487b710000000000000000000000000000000000000000000000000000000081526012600452602481fd5b500490565b600081600019048311821515161562000358577f4e487b710000000000000000000000000000000000000000000000000000000081526011600452602481fd5b500290565b61557f806200036d6000396000f3fe608060405234801561001057600080fd5b50600436106104dc5760003560e060020a900480636f700e2511610287578063ad3bac1a11610160578063d0b5efa9116100d2578063f298e49311610096578063f298e49314610d28578063f2fde38b14610d3b578063f44e3ce114610d4e578063f7a64da314610d61578063f8df0cd314610d92578063fa119fee14610da557600080fd5b8063d0b5efa914610cdd578063d0f86b2614610cf0578063da043af314610d03578063e325fb4b14610d16578063eb7a700d14610d1f57600080fd5b8063c108a85d11610124578063c108a85d14610c65578063c3501ff614610c6e578063c4f6da1214610c81578063c7780c7314610ca1578063c7c8895614610cb4578063c909adc014610cd457600080fd5b8063ad3bac1a14610be2578063b0aad77714610bf5578063b5345afa14610bfe578063bae5435314610c32578063bba1189a14610c5257600080fd5b80638503d2cd116101f957806396324bd4116101bd57806396324bd414610b455780639d9d9a1014610b65578063a80bf3e614610b78578063a88d8fea14610b8b578063ac80b61214610b9e578063acceea7514610bcf57600080fd5b80638503d2cd14610ab35780638da5cb5b14610ac65780638f4d41e814610ad7578063938f173714610af857806393ac363814610b3257600080fd5b8063776498d41161024b578063776498d414610a1d5780637d9f6db514610a265780638049e17b14610a39578063814e7c0f14610a6a57806383fd1a5414610a8d578063842fc1a314610aa057600080fd5b80636f700e25146109ba578063715018a6146109d95780637523d4bd146109e15780637682182714610a0157806376ec17b714610a0a57600080fd5b80633dbc65c7116103b957806352a437fe1161032b57806363c0ea10116102ef57806363c0ea10146108d85780636482ff98146108f857806364ebaaeb1461090b578063660dbeb81461093957806366edd87b1461094c5780636b942b861461095f57600080fd5b806352a437fe1461083b578063558a729714610866578063563c5e30146108795780635a8542be146108a457806361d027b3146108c557600080fd5b80634768d4ef1161037d5780634768d4ef146107945780634dc1a3e0146107b45780634e4b61c3146107df5780634f8d32be146107ff578063502a1d3f14610808578063515cc5321461082857600080fd5b80633dbc65c7146106e457806343af356b146106f757806345f2d105146107225780634654ff051461074d57806346aa25a21461075657600080fd5b8063171b612c1161045257806327de9e321161041657806327de9e321461067c5780632b57298b1461068f5780632bcf161c146106a257806333f3d628146106b557806334e7a1a8146106c857806337867c94146106db57600080fd5b8063171b612c1461061a57806317a9c7bd146106235780631d1a7fe8146106435780632281dfa414610656578063259239a11461066957600080fd5b80630b1fcfde116104a45780630b1fcfde146105555780630d265df9146105685780631152df0f1461058857806311ef14dd146105b1578063126f648c146105c457806313e7c9d8146105f757600080fd5b8063040308e4146104e15780630713ee7e14610507578063079dc7f41461051c578063083559d31461052f5780630971823f14610542575b600080fd5b6104f46104ef366004614c2d565b610db8565b6040519081526020015b60405180910390f35b61051a610515366004614d8d565b610e60565b005b6104f461052a366004614f5e565b611099565b6104f461053d366004614c7d565b61113b565b6104f4610550366004614cea565b611253565b61051a610563366004614f14565b6113ae565b61057b610576366004614e13565b611414565b6040516104fe919061502b565b6104f4610596366004614bbd565b600160a060020a031660009081526021602052604090205490565b61051a6105bf366004614e13565b6115b6565b6105e76105d2366004614e13565b600f6020526000908152604090205460ff1681565b60405190151581526020016104fe565b6105e7610605366004614bbd565b60286020526000908152604090205460ff1681565b6104f460055481565b6104f4610631366004614e13565b60186020526000908152604090205481565b6104f4610651366004614cea565b6115e8565b61051a610664366004614cea565b611682565b61051a610677366004614d56565b6118f5565b61051a61068a366004614e13565b611ca6565b6104f461069d366004614e13565b611dcb565b6104f46106b0366004614bbd565b611dec565b61051a6106c3366004614cea565b611e3d565b61051a6106d6366004614e13565b611ef2565b6104f4600d5481565b6104f46106f2366004614bf5565b612043565b6104f4610705366004614cea565b601560209081526000928352604080842090915290825290205481565b6104f4610730366004614bf5565b601e60209081526000928352604080842090915290825290205481565b6104f460035481565b610769610764366004614f5e565b6120c4565b60408051948552600160a060020a0393841660208601528401919091521660608201526080016104fe565b6107a76107a2366004614e13565b612116565b6040516104fe919061508e565b6029546107c790600160a060020a031681565b604051600160a060020a0390911681526020016104fe565b6104f46107ed366004614e13565b60236020526000908152604090205481565b6104f460045481565b6104f4610816366004614bbd565b601b6020526000908152604090205481565b61057b610836366004614e13565b6121b0565b6104f4610849366004614f5e565b601160209081526000928352604080842090915290825290205481565b61051a610874366004614cbd565b61231d565b6104f4610887366004614cea565b601460209081526000928352604080842090915290825290205481565b6108b76108b2366004614e13565b612375565b6040516104fe92919061506c565b600a546107c790600160a060020a031681565b6104f46108e6366004614e13565b60176020526000908152604090205481565b6107c7610906366004614e13565b6124f6565b6105e7610919366004614cea565b602560209081526000928352604080842090915290825290205460ff1681565b6104f4610947366004614c7d565b612520565b6104f461095a366004614cea565b6125bc565b61099f61096d366004614c7d565b601d60209081526000938452604080852082529284528284209052825290208054600182015460029092015490919083565b604080519384526020840192909252908201526060016104fe565b6104f46109c8366004614bbd565b602080526000908152604090205481565b61051a612684565b6104f46109ef366004614bbd565b60226020526000908152604090205481565b6104f4602a5481565b61051a610a18366004614d56565b6126bd565b6104f4601c5481565b600b546107c790600160a060020a031681565b6104f4610a47366004614d8d565b601260209081526000938452604080852082529284528284209052825290205481565b6105e7610a78366004614e13565b60266020526000908152604090205460ff1681565b61051a610a9b366004614d8d565b612a34565b61051a610aae366004614bbd565b612c2a565b61051a610ac1366004614e9d565b612d50565b600054600160a060020a03166107c7565b610aea610ae5366004614e13565b6131ac565b6040516104fe92919061503e565b61099f610b06366004614cea565b601f60209081526000928352604080842090915290825290208054600182015460029092015490919083565b61051a610b40366004614bbd565b613486565b6104f4610b53366004614e13565b600c6020526000908152604090205481565b61057b610b73366004614e13565b6134e2565b602b546107c790600160a060020a031681565b6009546107c790600160a060020a031681565b6104f4610bac366004614e67565b602760209081526000938452604080852082529284528284209052825290205481565b6104f4610bdd366004614bbd565b61363c565b61051a610bf0366004614bbd565b61369a565b6104f460025481565b6105e7610c0c366004614d8d565b602460209081526000938452604080852082529284528284209052825290205460ff1681565b6104f4610c40366004614e13565b60009081526010602052604090205490565b61051a610c60366004614f7f565b6136f6565b6104f460065481565b61051a610c7c366004614e43565b61386b565b6104f4610c8f366004614e13565b60086020526000908152604090205481565b61057b610caf366004614e13565b6139f0565b6104f4610cc2366004614e13565b60196020526000908152604090205481565b6104f460165481565b61051a610ceb366004614e13565b613cb9565b6104f4610cfe366004614cea565b613d1b565b61051a610d11366004614cea565b613e3b565b6104f460075481565b6104f460015481565b61051a610d36366004614e13565b613f67565b61051a610d49366004614bbd565b613f99565b61051a610d5c366004614d15565b614051565b6104f4610d6f366004614d8d565b601360209081526000938452604080852082529284528284209052825290205481565b61099f610da0366004614cea565b6142b2565b61057b610db3366004614e13565b6142f4565b600160a060020a0380831660009081526015602090815260408083208584528252808320548885168452601d835281842094881684529382528083208484528252808320815160608101835281548082526001830154948201949094526002909101549181019190915291929190610e2f42611dcb565b610e3c8360400151611dcb565b1015610e55576020820151610e529082906143d1565b90505b979650505050505050565b600d546000908152600c6020526040902054421015610e9d5760405160e560020a62461bcd028152600401610e9490615193565b60405180910390fd5b600354600d546000908152600c60205260409020544291610ebe91906143d1565b1015610edf5760405160e560020a62461bcd028152600401610e94906151ca565b600160a060020a038316600090815260156020908152604080832085845290915290205483908390610f265760405160e560020a62461bcd028152600401610e9490615201565b6000610f313361363c565b905083811015610f865760405160e560020a62461bcd02815260206004820152601b60248201527f496e73756666696369656e7420626f6e6465642062616c616e636500000000006044820152606401610e94565b610f92338787876143e4565b600160a060020a0386166000908152601560209081526040808320888452825280832054338452601f8352818420818552909252909120610fd242611dcb565b610fdf8260020154611dcb565b1015610fff5760018101548154610ff5916143d1565b8155600060018201555b600181015461100e90876143d1565b600182015542600282015533600090815260208052604090205461103290876143d1565b3360009081526020808052604080832093909355601e8152828220600954600160a060020a031683529052205461106990876143d1565b336000908152601e60209081526040808320600954600160a060020a031684529091529020555050505050505050565b600080805b6000858152601060205260409020548110156111315760008581526010602052604081208054839081106110e55760e060020a634e487b7102600052603260045260246000fd5b6000918252602080832060049092029091015487835260118252604080842082855290925291205490915061111b9084906143d1565b9250508080611129906154a7565b91505061109e565b5090505b92915050565b60008061114742611dcb565b90506000611156600d546142f4565b600160a060020a0386166000908152601560209081526040808320888452909152812054919250805b835181101561124757848482815181106111ac5760e060020a634e487b7102600052603260045260246000fd5b60200260200101511161123557600160a060020a0389166000908152601260205260408120855161123292908790859081106111fb5760e060020a634e487b7102600052603260045260246000fd5b60200260200101518152602001908152602001600020600085815260200190815260200160002054836143d190919063ffffffff16565b91505b8061123f816154a7565b91505061117f565b50979650505050505050565b60008061125f836142f4565b9050600061126c846121b0565b905060008061127a42611dcb565b905060005b84518110156113a257818582815181106112ac5760e060020a634e487b7102600052603260045260246000fd5b6020026020010151106112be576113a2565b6000611380670de0b6b3a764000061137a8785815181106112f25760e060020a634e487b7102600052603260045260246000fd5b6020026020010151601360008e600160a060020a0316600160a060020a0316815260200190815260200160002060008d815260200190815260200160002060008b88815181106113555760e060020a634e487b7102600052603260045260246000fd5b602002602001015181526020019081526020016000205461463390919063ffffffff16565b9061463f565b905061138c84826143d1565b935050808061139a906154a7565b91505061127f565b50909695505050505050565b3360009081526028602052604090205460ff16806113d65750600054600160a060020a031633145b6113f55760405160e560020a62461bcd028152600401610e94906152a4565b6000838152600e6020526040902061140e908383614a9b565b50505050565b6000818152601060209081526040808320805482518185028101850190935280835260609493849084015b828210156114a3576000848152602090819020604080516080810182526004860290920180548352600180820154600160a060020a03908116858701526002830154938501939093526003909101549091166060830152908352909201910161143f565b505050509050805167ffffffffffffffff8111156114d45760e060020a634e487b7102600052604160045260246000fd5b6040519080825280602002602001820160405280156114fd578160200160208202803683370190505b50915060008061150c85612375565b909250905080156115ae5760005b83518110156115ac5761156c8261137a670de0b6b3a76400008685815181106115565760e060020a634e487b7102600052603260045260246000fd5b602002602001015161463390919063ffffffff16565b85828151811061158f5760e060020a634e487b7102600052603260045260246000fd5b6020908102919091010152806115a4816154a7565b91505061151a565b505b505050919050565b600054600160a060020a031633146115e35760405160e560020a62461bcd028152600401610e949061526f565b600255565b600160a060020a03821660009081526015602090815260408083208484528252808320548352601982528083205480845260179092528220541561167857600081815260176020908152604080832054600654600160a060020a03891685526015845282852088865284528285205485526018909352922054611670929161137a9190614633565b915050611135565b6000915050611135565b600d546000908152600c60205260409020544210156116b65760405160e560020a62461bcd028152600401610e9490615193565b600354600d546000908152600c602052604090205442916116d791906143d1565b10156116f85760405160e560020a62461bcd028152600401610e94906151ca565b600160a060020a03821660009081526015602090815260408083208484529091529020548290829061173f5760405160e560020a62461bcd028152600401610e9490615201565b602b54602a546040517fc7b1e3f20000000000000000000000000000000000000000000000000000000081526004810191909152336024820152600091600160a060020a03169063c7b1e3f290604401602060405180830381600087803b1580156117a957600080fd5b505af11580156117bd573d6000803e3d6000fd5b505050506040513d601f19601f820116820180604052508101906117e19190614e2b565b90506117ef338686846143e4565b600160a060020a0385166000908152601560209081526040808320878452825280832054338452601f835281842081855290925290912061182f42611dcb565b61183c8260020154611dcb565b101561185c5760018101548154611852916143d1565b8155600060018201555b600181015461186b90846143d1565b600182015542600282015533600090815260208052604090205461188f90846143d1565b3360009081526020808052604080832093909355601e8152828220600954600160a060020a03168352905220546118c690846143d1565b336000908152601e60209081526040808320600954600160a060020a0316845290915290205550505050505050565b816000805b601a548110156119685782600160a060020a0316601a82815481106119325760e060020a634e487b7102600052603260045260246000fd5b600091825260209091200154600160a060020a031614156119565760019150611968565b80611960816154a7565b9150506118fa565b50806119b95760405160e560020a62461bcd02815260206004820152601260248201527f496e76616c696420566f746520546f6b656e00000000000000000000000000006044820152606401610e94565b600d546000908152600c60205260409020544210156119ed5760405160e560020a62461bcd028152600401610e9490615193565b600354600d546000908152600c60205260409020544291611a0e91906143d1565b1015611a2f5760405160e560020a62461bcd028152600401610e94906151ca565b600160a060020a038616600090815260156020908152604080832088845290915290205486908690611a765760405160e560020a62461bcd028152600401610e9490615201565b60008511611a995760405160e560020a62461bcd028152600401610e9490615238565b6000611aa5878761464b565b9050611ab3338a8a846143e4565b6040517f23b872dd00000000000000000000000000000000000000000000000000000000815233600482015230602482015260448101879052600160a060020a038816906323b872dd90606401602060405180830381600087803b158015611b1a57600080fd5b505af1158015611b2e573d6000803e3d6000fd5b505050506040513d601f19601f82011682018060405250810190611b529190614df7565b50600d5460009081526027602090815260408083203384528252808320600160a060020a038b168452909152902054611b8b90876143d1565b600d54600090815260276020908152604080832033808552908352818420600160a060020a038d811680875291855283862096909655948e168452601583528184208d8552835281842054908452601d83528184209484529382528083208484529091529020611bfa42611dcb565b611c078260020154611dcb565b1015611c275760018101548154611c1d916143d1565b8155600060018201555b6001810154611c3690896143d1565b6001820155426002820155336000908152601e60209081526040808320600160a060020a038d168452909152902054611c6f90896143d1565b336000908152601e60209081526040808320600160a060020a039d909d1683529b9052999099209890985550505050505050505050565b6000611cb13361363c565b905081811015611d065760405160e560020a62461bcd02815260206004820152601b60248201527f496e73756666696369656e7420626f6e6465642062616c616e636500000000006044820152606401610e94565b336000818152602160209081526040808320815160608101835287815242818501908152818401868152835460018181018655948852868820935160039091029093019283559051928201929092559051600290910155928252602290522054611d7090836143d1565b33600081815260226020526040908190209290925590517f7659747cd8571f1071eea946fdc648adcf181cad916f32a05f82c3a52597604890611dbf9085904290918252602082015260400190565b60405180910390a25050565b6000611135611de5600154846147e190919063ffffffff16565b83906147ed565b60008060015b600d548111611e3657611e22611e088583613d1b565b611e1c611e158785611253565b85906143d1565b906143d1565b915080611e2e816154a7565b915050611df2565b5092915050565b600054600160a060020a03163314611e6a5760405160e560020a62461bcd028152600401610e949061526f565b60405160e060020a63a9059cbb02815233600482015260248101829052600160a060020a0383169063a9059cbb90604401602060405180830381600087803b158015611eb557600080fd5b505af1158015611ec9573d6000803e3d6000fd5b505050506040513d601f19601f82011682018060405250810190611eed9190614df7565b505050565b336000908152602160205260408120805483908110611f245760e060020a634e487b7102600052603260045260246000fd5b906000526020600020906003020190506000611f5b60015461137a611f4c8560010154611dcb565b611f5542611dcb565b906147ed565b90506000611f7b603c61137a85600001548561463390919063ffffffff16565b90506000611f968460020154836147ed90919063ffffffff16565b60028501839055600a546040517fc8773af200000000000000000000000000000000000000000000000000000000815233600482015260248101839052919250600160a060020a03169063c8773af290604401602060405180830381600087803b15801561200357600080fd5b505af1158015612017573d6000803e3d6000fd5b505050506040513d601f19601f8201168201806040525081019061203b9190614e2b565b505050505050565b60008060015b600d548111611131576003546000828152600c6020526040902054429161206f916152db565b10156120b2576000818152602760209081526040808320600160a060020a03808a16855290835281842090881684529091529020546120af9083906143d1565b91505b806120bc816154a7565b915050612049565b601060205281600052604060002081815481106120e057600080fd5b60009182526020909120600490910201805460018201546002830154600390930154919450600160a060020a0390811693501684565b600e602052600090815260409020805461212f9061546f565b80601f016020809104026020016040519081016040528092919081815260200182805461215b9061546f565b80156121a85780601f1061217d576101008083540402835291602001916121a8565b820191906000526020600020905b81548152906001019060200180831161218b57829003601f168201915b505050505081565b606060006121bd836142f4565b905060006121ca846131ac565b915050815167ffffffffffffffff8111156121f85760e060020a634e487b7102600052604160045260246000fd5b604051908082528060200260200182016040528015612221578160200160208202803683370190505b50925060005b82518110156115ae5761223942611dcb565b83828151811061225c5760e060020a634e487b7102600052603260045260246000fd5b6020026020010151111561226f576115ae565b60006122a5868584815181106122985760e060020a634e487b7102600052603260045260246000fd5b6020026020010151611099565b9050801561230a576122da8161137a6005548686815181106115565760e060020a634e487b7102600052603260045260246000fd5b8583815181106122fd5760e060020a634e487b7102600052603260045260246000fd5b6020026020010181815250505b5080612315816154a7565b915050612227565b600054600160a060020a0316331461234a5760405160e560020a62461bcd028152600401610e949061526f565b600160a060020a03919091166000908152602860205260409020805460ff1916911515919091179055565b6000818152601060205260408120546060919067ffffffffffffffff8111156123b15760e060020a634e487b7102600052604160045260246000fd5b6040519080825280602002602001820160405280156123da578160200160208202803683370190505b50915060005b6000848152601060205260409020548110156124f057600b546000858152600e602052604080822090517fe3c6623d0000000000000000000000000000000000000000000000000000000081529192600160a060020a03169163e3c6623d9161244d9186906004016150e1565b60606040518083038186803b15801561246557600080fd5b505afa158015612479573d6000803e3d6000fd5b505050506040513d601f19601f8201168201806040525081019061249d9190614dc1565b92505050808483815181106124c55760e060020a634e487b7102600052603260045260246000fd5b60209081029190910101526124da83826143d1565b92505080806124e8906154a7565b9150506123e0565b50915091565b601a818154811061250657600080fd5b600091825260209091200154600160a060020a0316905081565b600160a060020a0380831660009081526015602090815260408083208584528252808320549387168352601f8252808320848452825280832081516060810183528154808252600183015494820194909452600290910154918101919091529192919061258c42611dcb565b6125998360400151611dcb565b10156125b25760208201516125af9082906143d1565b90505b9695505050505050565b6000806125c842611dcb565b905060006125d7600d546142f4565b600160a060020a0386166000908152601560209081526040808320888452909152812054919250805b8351811015612679578484828151811061262d5760e060020a634e487b7102600052603260045260246000fd5b60200260200101511161266757612664601160008684815181106111fb5760e060020a634e487b7102600052603260045260246000fd5b91505b80612671816154a7565b915050612600565b509695505050505050565b600054600160a060020a031633146126b15760405160e560020a62461bcd028152600401610e949061526f565b6126bb60006147f9565b565b816000805b601a548110156127305782600160a060020a0316601a82815481106126fa5760e060020a634e487b7102600052603260045260246000fd5b600091825260209091200154600160a060020a0316141561271e5760019150612730565b80612728816154a7565b9150506126c2565b50806127815760405160e560020a62461bcd02815260206004820152601260248201527f496e76616c696420566f746520546f6b656e00000000000000000000000000006044820152606401610e94565b600160a060020a0386166000908152601560209081526040808320888452909152902054869086906127c85760405160e560020a62461bcd028152600401610e9490615201565b600085116127eb5760405160e560020a62461bcd028152600401610e9490615238565b60006127f933888b8b610db8565b90508581101561284e5760405160e560020a62461bcd02815260206004820152601460248201527f496e73756666696369656e742062616c616e63650000000000000000000000006044820152606401610e94565b600061285a888861464b565b9050612868338b8b84614856565b60405160e060020a63a9059cbb02815233600482015260248101889052600160a060020a0389169063a9059cbb90604401602060405180830381600087803b1580156128b357600080fd5b505af11580156128c7573d6000803e3d6000fd5b505050506040513d601f19601f820116820180604052508101906128eb9190614df7565b50600d5460009081526027602090815260408083203384528252808320600160a060020a038c16845290915290205461292490886147ed565b600d54600090815260276020908152604080832033808552908352818420600160a060020a038e811680875291855283862096909655948f168452601583528184208e8552835281842054908452601d8352818420948452938252808320848452909152902061299342611dcb565b6129a08260020154611dcb565b10156129c057600181015481546129b6916143d1565b8155600060018201555b80546129cc908a6147ed565b8155336000908152601e60209081526040808320600160a060020a038e1684529091529020546129fc908a6147ed565b336000908152601e60209081526040808320600160a060020a039e909e1683529c90529a909a20999099555050505050505050505050565b600d546000908152600c6020526040902054421015612a685760405160e560020a62461bcd028152600401610e9490615193565b600354600d546000908152600c60205260409020544291612a8991906143d1565b1015612aaa5760405160e560020a62461bcd028152600401610e94906151ca565b600160a060020a038316600090815260156020908152604080832085845290915290205483908390612af15760405160e560020a62461bcd028152600401610e9490615201565b6000612afe338787612520565b905083811015612b535760405160e560020a62461bcd02815260206004820152601e60248201527f496e73756666696369656e7420756e766f7461626c652062616c616e636500006044820152606401610e94565b612b5f33878787614856565b600160a060020a0386166000908152601560209081526040808320888452825280832054338452601f8352818420818552909252909120612b9f42611dcb565b612bac8260020154611dcb565b1015612bcc5760018101548154612bc2916143d1565b8155600060018201555b8054612bd890876147ed565b8155336000908152602080526040902054612bf390876147ed565b3360009081526020808052604080832093909355601e8152828220600954600160a060020a031683529052205461106990876147ed565b6000612c363383612043565b905060008111612c8b5760405160e560020a62461bcd02815260206004820152601460248201527f576974686472617761626c65206973207a65726f0000000000000000000000006044820152606401610e94565b60405160e060020a63a9059cbb02815233600482015260248101829052600160a060020a0383169063a9059cbb90604401602060405180830381600087803b158015612cd657600080fd5b505af1158015612cea573d6000803e3d6000fd5b505050506040513d601f19601f82011682018060405250810190612d0e9190614df7565b5060408051600160a060020a03841681526020810183905233917fd12200efa34901b99367694174c3b0d32c99585fdf37c7c26892136ddd0836d99101611dbf565b3360009081526028602052604090205460ff1680612d785750600054600160a060020a031633145b612d975760405160e560020a62461bcd028152600401610e94906152a4565b828114612de95760405160e560020a62461bcd02815260206004820152600e60248201527f496e76616c696420706172616d730000000000000000000000000000000000006044820152606401610e94565b6000858152601060205260408120905b848110156131a35760156000878784818110612e285760e060020a634e487b7102600052603260045260246000fd5b9050602002016020810190612e3d9190614bbd565b600160a060020a0316600160a060020a031681526020019081526020016000206000858584818110612e825760e060020a634e487b7102600052603260045260246000fd5b90506020020135815260200190815260200160002054600014612eea5760405160e560020a62461bcd02815260206004820152601260248201527f4e465420686173206265656e20616464656400000000000000000000000000006044820152606401610e94565b60168054906000612efa836154a7565b919050555060165460156000888885818110612f295760e060020a634e487b7102600052603260045260246000fd5b9050602002016020810190612f3e9190614bbd565b600160a060020a0316600160a060020a031681526020019081526020016000206000868685818110612f835760e060020a634e487b7102600052603260045260246000fd5b905060200201358152602001908152602001600020819055506000868683818110612fc15760e060020a634e487b7102600052603260045260246000fd5b9050602002016020810190612fd69190614bbd565b600160a060020a0316636352211e8686858181106130075760e060020a634e487b7102600052603260045260246000fd5b905060200201356040518263ffffffff1660e060020a02815260040161302f91815260200190565b60206040518083038186803b15801561304757600080fd5b505afa15801561305b573d6000803e3d6000fd5b505050506040513d601f19601f8201168201806040525081019061307f9190614bd9565b905082604051806080016040528060165481526020018989868181106130b85760e060020a634e487b7102600052603260045260246000fd5b90506020020160208101906130cd9190614bbd565b600160a060020a031681526020018787868181106130fe5760e060020a634e487b7102600052603260045260246000fd5b60209081029290920135835250600160a060020a03948516918101919091528254600181810185556000948552828520845160049093020191825583830151908201805491871673ffffffffffffffffffffffffffffffffffffffff199283161790556040808501516002840155606090940151600390920180549290961691161790935560165482526019909252208790558061319b816154a7565b915050612df9565b50505050505050565b60608060006131ba846142f4565b9050805167ffffffffffffffff8111156131e75760e060020a634e487b7102600052604160045260246000fd5b604051908082528060200260200182016040528015613210578160200160208202803683370190505b509250805167ffffffffffffffff81111561323e5760e060020a634e487b7102600052604160045260246000fd5b604051908082528060200260200182016040528015613267578160200160208202803683370190505b50915060005b815181101561347f57600061329f868484815181106122985760e060020a634e487b7102600052603260045260246000fd5b6000878152600860205260409020549091506132c79061137a83670de0b6b3a7640000614633565b8583815181106132ea5760e060020a634e487b7102600052603260045260246000fd5b602002602001018181525050670429d069189e00008583815181106133225760e060020a634e487b7102600052603260045260246000fd5b6020026020010151101561336d576702c68af0bb14000084838151811061335c5760e060020a634e487b7102600052603260045260246000fd5b60200260200101818152505061346c565b670429d069189e00008583815181106133995760e060020a634e487b7102600052603260045260246000fd5b6020026020010151101580156133e057506709b6e64a8ec600008583815181106133d65760e060020a634e487b7102600052603260045260246000fd5b6020026020010151105b15613433578482815181106134085760e060020a634e487b7102600052603260045260246000fd5b602002602001015184838151811061335c5760e060020a634e487b7102600052603260045260246000fd5b670de0b6b3a764000084838151811061345f5760e060020a634e487b7102600052603260045260246000fd5b6020026020010181815250505b5080613477816154a7565b91505061326d565b5050915091565b600054600160a060020a031633146134b35760405160e560020a62461bcd028152600401610e949061526f565b600b805473ffffffffffffffffffffffffffffffffffffffff1916600160a060020a0392909216919091179055565b60008181526010602052604090205460609067ffffffffffffffff81111561351d5760e060020a634e487b7102600052604160045260246000fd5b604051908082528060200260200182016040528015613546578160200160208202803683370190505b50905060005b600083815260106020526040902054811015613636576000838152601760205260409020541561362457600083815260176020908152604080832054600654601090935290832080546135f494929361137a939092601892889081106135c55760e060020a634e487b7102600052603260045260246000fd5b90600052602060002090600402016000015481526020019081526020016000205461463390919063ffffffff16565b8282815181106136175760e060020a634e487b7102600052603260045260246000fd5b6020026020010181815250505b8061362e816154a7565b91505061354c565b50919050565b60008061364883611dec565b600160a060020a0384166000908152602260209081526040808320549180528220549293509091613678916143d1565b9050808211613688576000613692565b61369282826147ed565b949350505050565b600054600160a060020a031633146136c75760405160e560020a62461bcd028152600401610e949061526f565b6029805473ffffffffffffffffffffffffffffffffffffffff1916600160a060020a0392909216919091179055565b3360009081526028602052604090205460ff168061371e5750600054600160a060020a031633145b61373d5760405160e560020a62461bcd028152600401610e94906152a4565b600d54158061376b5750600354600d546000908152600c6020526040902054429161376891906143d1565b11155b6137ba5760405160e560020a62461bcd02815260206004820152601b60248201527f50726576696f75732067726f7570206973206e6f74206f7665722e00000000006044820152606401610e94565b6137c342611dcb565b8310156138155760405160e560020a62461bcd02815260206004820152601260248201527f496e76616c69642073746172742074696d6500000000000000000000000000006044820152606401610e94565b600d8054906000613825836154a7565b9091555050600d80546000908152600c60209081526040808320879055835483526008825280832088905592548252600e905220613864908383614a9b565b5050505050565b6003546000838152600c60205260409020544291613888916152db565b106138d85760405160e560020a62461bcd02815260206004820152601060248201527f566f7465206973206e6f74206f766572000000000000000000000000000000006044820152606401610e94565b60008281526027602090815260408083203384528252808320600160a060020a0385168452909152902054806139235760405160e560020a62461bcd028152600401610e9490615238565b60405160e060020a63a9059cbb02815233600482015260248101829052600160a060020a0383169063a9059cbb90604401602060405180830381600087803b15801561396e57600080fd5b505af1158015613982573d6000803e3d6000fd5b505050506040513d601f19601f820116820180604052508101906139a69190614df7565b5060408051600160a060020a03841681526020810183905233917fd12200efa34901b99367694174c3b0d32c99585fdf37c7c26892136ddd0836d9910160405180910390a2505050565b606060006139fd83611414565b9050600060106000858152602001908152602001600020805480602002602001604051908101604052809291908181526020016000905b82821015613a98576000848152602090819020604080516080810182526004860290920180548352600180820154600160a060020a039081168587015260028301549385019390935260039091015490911660608301529083529092019101613a34565b505050509050805167ffffffffffffffff811115613ac95760e060020a634e487b7102600052604160045260246000fd5b604051908082528060200260200182016040528015613af2578160200160208202803683370190505b5092506000613b00856131ac565b9150506000613b5d670de0b6b3a764000061137a8460018651613b239190615458565b81518110613b445760e060020a634e487b7102600052603260045260246000fd5b602002602001015160075461463390919063ffffffff16565b905060005b8351811015613caf5760186000858381518110613b925760e060020a634e487b7102600052603260045260246000fd5b60200260200101516000015181526020019081526020016000205460001415613beb576000868281518110613bda5760e060020a634e487b7102600052603260045260246000fd5b602002602001018181525050613c9d565b613c6d60186000868481518110613c155760e060020a634e487b7102600052603260045260246000fd5b60200260200101516000015181526020019081526020016000205461137a878481518110613c565760e060020a634e487b7102600052603260045260246000fd5b60200260200101518561463390919063ffffffff16565b868281518110613c905760e060020a634e487b7102600052603260045260246000fd5b6020026020010181815250505b80613ca7816154a7565b915050613b62565b5050505050919050565b3360009081526028602052604090205460ff1680613ce15750600054600160a060020a031633145b613d005760405160e560020a62461bcd028152600401610e94906152a4565b6000908152600f60205260409020805460ff19166001179055565b6000818152600f602052604081205460ff16613d3957506000611135565b600080613d45846139f0565b905060005b600085815260106020526040902054811015613e3157600160a060020a038616600090815260146020908152604080832088845260109092528220805483919085908110613dab5760e060020a634e487b7102600052603260045260246000fd5b9060005260206000209060040201600001548152602001908152602001600020549050613e1b84611e1c670de0b6b3a764000061137a878781518110613e045760e060020a634e487b7102600052603260045260246000fd5b60200260200101518661463390919063ffffffff16565b9350508080613e29906154a7565b915050613d4a565b5090949350505050565b3360009081526028602052604090205460ff1680613e635750600054600160a060020a031633145b613e825760405160e560020a62461bcd028152600401610e94906152a4565b600160a060020a0382166000908152601b602052604081208290555b601a54811015613f085782600160a060020a0316601a8281548110613ed65760e060020a634e487b7102600052603260045260246000fd5b600091825260209091200154600160a060020a03161415613ef657505050565b80613f00816154a7565b915050613e9e565b50601a80546001810182556000919091527f057c384a7d1c54f3a1b2e5e67b2617b8224fdfd1ea7234eea573a6ff665ff63e018054600160a060020a03841673ffffffffffffffffffffffffffffffffffffffff199091161790555050565b600054600160a060020a03163314613f945760405160e560020a62461bcd028152600401610e949061526f565b602a55565b600054600160a060020a03163314613fc65760405160e560020a62461bcd028152600401610e949061526f565b600160a060020a0381166140455760405160e560020a62461bcd02815260206004820152602660248201527f4f776e61626c653a206e6577206f776e657220697320746865207a65726f206160448201527f64647265737300000000000000000000000000000000000000000000000000006064820152608401610e94565b61404e816147f9565b50565b602954600160a060020a031633146140ae5760405160e560020a62461bcd02815260206004820152600960248201527f466f7262696464656e00000000000000000000000000000000000000000000006044820152606401610e94565b600160a060020a03831660009081526015602090815260408083208584528252808320548084526019835281842054602690935292205460ff16156141385760405160e560020a62461bcd02815260206004820152600760248201527f436c61696d6564000000000000000000000000000000000000000000000000006044820152606401610e94565b6000805b6000838152601060205260409020548110156141ea5760008381526010602052604090208054859190839081106141865760e060020a634e487b7102600052603260045260246000fd5b90600052602060002090600402016000015414156141d8576141a7836134e2565b81815181106141c95760e060020a634e487b7102600052603260045260246000fd5b602002602001015191506141ea565b806141e2816154a7565b91505061413c565b50801561203b57600a546040517fc8773af2000000000000000000000000000000000000000000000000000000008152600160a060020a038681166004830152602482018490529091169063c8773af290604401602060405180830381600087803b15801561425857600080fd5b505af115801561426c573d6000803e3d6000fd5b505050506040513d601f19601f820116820180604052508101906142909190614e2b565b506000838152602660205260409020805460ff19166001179055505050505050565b602160205281600052604060002081815481106142ce57600080fd5b600091825260209091206003909102018054600182015460029092015490935090915083565b6000818152600c60205260409020546002546060919067ffffffffffffffff8111156143335760e060020a634e487b7102600052604160045260246000fd5b60405190808252806020026020018201604052801561435c578160200160208202803683370190505b509150600061436a82611dcb565b905060005b6002548110156115ae576143916001548261438a91906153f8565b83906143d1565b8482815181106143b45760e060020a634e487b7102600052603260045260246000fd5b6020908102919091010152806143c9816154a7565b91505061436f565b60006143dd82846152db565b9392505050565b60006143ef42611dcb565b905060006143fe600d546142f4565b600160a060020a03861660009081526015602090815260408083208884529091528120549192505b825181101561462957838382815181106144535760e060020a634e487b7102600052603260045260246000fd5b6020026020010151106146175760008382815181106144855760e060020a634e487b7102600052603260045260246000fd5b602090810291909101810151600081815260118352604080822087835290935291909120549091506144b790876143d1565b6000828152601160209081526040808320878452825280832093909355600160a060020a038c1682526012815282822084835281528282208683529052205461450090876143d1565b600160a060020a038a166000818152601260209081526040808320868452825280832088845282528083209490945591815260138252828120600d5482528252828120848252909152205461455590876143d1565b600160a060020a038a166000818152601360209081526040808320600d54845282528083208684528252808320949094559181526014825282812086825290915220546145a290876143d1565b600160a060020a038a1660009081526014602090815260408083208784528252808320939093556018905220546145d990876143d1565b600084815260186020908152604080832093909355600d54825260179052205461460390876143d1565b600d54600090815260176020526040902055505b80614621816154a7565b915050614426565b5050505050505050565b60006143dd82846153f8565b60006143dd82846152f3565b600080600960009054906101000a9004600160a060020a0316600160a060020a031663313ce5676040518163ffffffff1660e060020a02815260040160206040518083038186803b15801561469f57600080fd5b505afa1580156146b3573d6000803e3d6000fd5b505050506040513d601f19601f820116820180604052508101906146d79190614fd0565b84600160a060020a031663313ce5676040518163ffffffff1660e060020a02815260040160206040518083038186803b15801561471357600080fd5b505afa158015614727573d6000803e3d6000fd5b505050506040513d601f19601f8201168201806040525081019061474b9190614fd0565b6147559190615417565b905060008160000b126147995761167061477082600a61534c565b601c54600160a060020a0387166000908152601b602052604090205461137a9190829088614633565b6116706147a5826154d6565b6147b090600a61534c565b601c54600160a060020a0387166000908152601b60205260409020546147db919061137a9088614633565b90614633565b60006143dd82846154c2565b60006143dd8284615458565b60008054600160a060020a0383811673ffffffffffffffffffffffffffffffffffffffff19831681178455604051919092169283917f8be0079c531659141344cd1fd0a4f28419497f9722a3daafe3b4186f6b6457e09190a35050565b600061486142611dcb565b90506000614870600d546142f4565b600160a060020a03861660009081526015602090815260408083208884529091528120549192505b825181101561462957838382815181106148c55760e060020a634e487b7102600052603260045260246000fd5b602002602001015110614a895760008382815181106148f75760e060020a634e487b7102600052603260045260246000fd5b6020908102919091018101516000818152601183526040808220878352909352919091205490915061492990876147ed565b6000828152601160209081526040808320878452825280832093909355600160a060020a038c1682526012815282822084835281528282208683529052205461497290876147ed565b600160a060020a038a166000818152601260209081526040808320868452825280832088845282528083209490945591815260138252828120600d548252825282812084825290915220546149c790876147ed565b600160a060020a038a166000818152601360209081526040808320600d5484528252808320868452825280832094909455918152601482528281208682529091522054614a1490876147ed565b600160a060020a038a166000908152601460209081526040808320878452825280832093909355601890522054614a4b90876147ed565b600084815260186020908152604080832093909355600d548252601790522054614a7590876147ed565b600d54600090815260176020526040902055505b80614a93816154a7565b915050614898565b828054614aa79061546f565b90600052602060002090601f016020900481019282614ac95760008555614b0f565b82601f10614ae25782800160ff19823516178555614b0f565b82800160010185558215614b0f579182015b82811115614b0f578235825591602001919060010190614af4565b50614b1b929150614b1f565b5090565b5b80821115614b1b5760008155600101614b20565b60008083601f840112614b45578182fd5b50813567ffffffffffffffff811115614b5c578182fd5b6020830191508360208083028501011115614b7657600080fd5b9250929050565b60008083601f840112614b8e578182fd5b50813567ffffffffffffffff811115614ba5578182fd5b602083019150836020828501011115614b7657600080fd5b600060208284031215614bce578081fd5b81356143dd81615526565b600060208284031215614bea578081fd5b81516143dd81615526565b60008060408385031215614c07578081fd5b8235614c1281615526565b91506020830135614c2281615526565b809150509250929050565b60008060008060808587031215614c42578182fd5b8435614c4d81615526565b93506020850135614c5d81615526565b92506040850135614c6d81615526565b9396929550929360600135925050565b600080600060608486031215614c91578283fd5b8335614c9c81615526565b92506020840135614cac81615526565b929592945050506040919091013590565b60008060408385031215614ccf578182fd5b8235614cda81615526565b91506020830135614c228161553b565b60008060408385031215614cfc578182fd5b8235614d0781615526565b946020939093013593505050565b600080600060608486031215614d29578283fd5b8335614d3481615526565b9250602084013591506040840135614d4b81615526565b809150509250925092565b60008060008060808587031215614d6b578384fd5b8435614d7681615526565b9350602085013592506040850135614c6d81615526565b600080600060608486031215614da1578283fd5b8335614dac81615526565b95602085013595506040909401359392505050565b600080600060608486031215614dd5578283fd5b8351614de081615526565b602085015160409095015190969495509392505050565b600060208284031215614e08578081fd5b81516143dd8161553b565b600060208284031215614e24578081fd5b5035919050565b600060208284031215614e3c578081fd5b5051919050565b60008060408385031215614e55578182fd5b823591506020830135614c2281615526565b600080600060608486031215614e7b578081fd5b833592506020840135614e8d81615526565b91506040840135614d4b81615526565b600080600080600060608688031215614eb4578283fd5b85359450602086013567ffffffffffffffff80821115614ed2578485fd5b614ede89838a01614b34565b90965094506040880135915080821115614ef6578283fd5b50614f0388828901614b34565b969995985093965092949392505050565b600080600060408486031215614f28578081fd5b83359250602084013567ffffffffffffffff811115614f45578182fd5b614f5186828701614b7d565b9497909650939450505050565b60008060408385031215614f70578182fd5b50508035926020909101359150565b60008060008060608587031215614f94578182fd5b8435935060208501359250604085013567ffffffffffffffff811115614fb8578283fd5b614fc487828801614b7d565b95989497509550505050565b600060208284031215614fe1578081fd5b815160ff811681146143dd578182fd5b6000815180845260208085019450808401835b8381101561502057815187529582019590820190600101615004565b509495945050505050565b6020815260006143dd6020830184614ff1565b6040815260006150516040830185614ff1565b82810360208401526150638185614ff1565b95945050505050565b60408152600061507f6040830185614ff1565b90508260208301529392505050565b6000602080835283518082850152825b818110156150ba5785810183015185820160400152820161509e565b818111156150cb5783604083870101525b50601f01601f1916929092016040019392505050565b60408152825460009081906002810460018083168061510157607f831692505b60208084108214156151245760e060020a634e487b710287526022600452602487fd5b604088018490526060880182801561514357600181146151545761517e565b60ff1987168252828201975061517e565b60008c815260209020895b878110156151785781548482015290860190840161515f565b83019850505b50509690960196909652509095945050505050565b60208082526013908201527f566f74696e67206973206e6f7420737461727400000000000000000000000000604082015260600190565b6020808252600e908201527f566f74696e67206973206f766572000000000000000000000000000000000000604082015260600190565b6020808252600b908201527f496e76616c6964204e4654000000000000000000000000000000000000000000604082015260600190565b6020808252600e908201527f416d6f756e74206973207a65726f000000000000000000000000000000000000604082015260600190565b6020808252818101527f4f776e61626c653a2063616c6c6572206973206e6f7420746865206f776e6572604082015260600190565b6020808252600c908201527f4e6f74206f70657261746f720000000000000000000000000000000000000000604082015260600190565b600082198211156152ee576152ee6154f4565b500190565b6000826153025761530261550d565b500490565b600181815b80851115615344578160001904821115615328576153286154f4565b8085161561533557918102915b6002909404939080029061530c565b509250929050565b60006143dd60ff84168360008261536557506001611135565b8161537257506000611135565b81600181146153885760028114615392576153af565b6001915050611135565b60ff8411156153a3576153a36154f4565b8360020a915050611135565b5060208310610133831016604e8410600b84101617156153d2575081810a611135565b6153dc8383615307565b80600019048211156153f0576153f06154f4565b029392505050565b6000816000190483118215151615615412576154126154f4565b500290565b600081810b83820b8281128015607f19830184121615615439576154396154f4565b81607f01831381161561544e5761544e6154f4565b5090039392505050565b60008282101561546a5761546a6154f4565b500390565b60028104600182168061548357607f821691505b602082108114156136365760e060020a634e487b7102600052602260045260246000fd5b60006000198214156154bb576154bb6154f4565b5060010190565b6000826154d1576154d161550d565b500690565b600081810b607f198114156154ed576154ed6154f4565b9003919050565b60e060020a634e487b7102600052601160045260246000fd5b60e060020a634e487b7102600052601260045260246000fd5b600160a060020a038116811461404e57600080fd5b801515811461404e57600080fdfea26469706673582212201cc261ae8054a3f613165b9e1b0e17569794f1c80d605ba9cfdb0b498692651864736f6c63430008040033",
  "immutableReferences": {},
  "source": "// SPDX-License-Identifier: MIT\npragma solidity ^0.8.0;\n\nimport \"@openzeppelin/contracts/access/Ownable.sol\";\nimport \"@openzeppelin/contracts/utils/math/SafeMath.sol\";\nimport \"@openzeppelin/contracts/token/ERC20/IERC20.sol\";\nimport \"@openzeppelin/contracts/token/ERC721/IERC721.sol\";\nimport \"@openzeppelin/contracts/token/ERC20/extensions/IERC20Metadata.sol\";\n\n\ninterface ITreasury {\n\tfunction sendRewards(address to, uint256 amount) external returns(uint256 val);\n\tfunction uink() external view returns(address);\n}\n\ninterface IAuction {\n\tfunction matchResults(string calldata matchId, uint index) external view returns(address, uint, uint);\n}\n\ninterface ITokenLocker {\n\tfunction subLockForVote(uint256 lockId, address accountAddress) external returns(uint);\n}\n\n\ncontract VoteMining is Ownable {\n\tusing SafeMath for uint256;\n\n\tuint public VOTE_TIME_UNIT = 1 hours;\n\tuint public VOTE_DAYS = 14;\n\tuint public VOTE_DURATION = VOTE_DAYS * VOTE_TIME_UNIT;\n\n\tuint public weeklyCap = 400000 * 1e12;\n\tuint public dailyVoteRewardCap = weeklyCap / VOTE_DAYS / 4; // 25% of daily cap \n\tuint public mintRewardCap = weeklyCap / 4; // 25% of daily cap \n\tuint public bonusCap = weeklyCap  / 2; // 50% of weekly cap\n\t// group id => amount\n\tmapping (uint => uint) public stakingBases;\n\n\n\taddress public uink;\n\tITreasury public treasury;\n\taddress public auction;\n\n\tstruct NFT {\n\t\tuint uid;\n\t\taddress addr;\n\t\tuint id;\n\t\taddress owner;\n\t}\n\t// id => start time\n\tmapping (uint => uint) public groups;\n\tuint public currentGroupId = 0;\n\t// group id => matchId\n\tmapping (uint => string) public matches;\n\t// group id => finished or not\n\tmapping (uint => bool) public hasFinished;\n\t\n\t\n\t// group id => NFT[]\n\tmapping (uint => NFT[]) public groupNFTs;\n\n\t// date => NFT uid => votes\n\tmapping (uint => mapping (uint => uint)) public dayVotes;\n\n\t// user => date => NFT id => amount\n\tmapping (address => mapping (uint => mapping (uint => uint))) public userVotes;\n\n\t// user => groupId => date => votes\n\tmapping (address => mapping (uint => mapping (uint => uint))) public userDailyVotes;\n\n\t// user => nft uid => votes \n\tmapping (address => mapping (uint => uint)) public userNFTVotes;\n\t\n\n\t// nft address => nftId => internal id\n\tmapping (address => mapping (uint => uint)) public nfts;\n\tuint public nextNFTId = 0;\n\n\t// group id => votes\n\tmapping (uint => uint) public groupVotes;\n\n\t// uid => votes\n\tmapping (uint => uint) public nftVotes;\n\n\t// date => votes\n\t// mapping (uint => uint) public dailyTotalVotes;\n\t\n\n\t// uid => group id\n\tmapping (uint => uint) public nftGroup;\n\t\n\taddress[] public voteTokens;\n\t// token => ratio\n\tmapping (address => uint) public voteRatio;\n\n\tuint public voteRatioMax = 10000;\n\t\n\n\tstruct Balance {\n\t\tuint available;\n\t\tuint freezed;\n\t\tuint votedAt;\n\t}\n\n\tstruct UnbondingBalance {\n\t\tuint value;\n\t\tuint unbondedAt;\n\t\tuint redeemed;\n\t}\n\n\t// user => token => uid => Balance\n\tmapping (address => mapping (address => mapping (uint => Balance))) public balances;\n\n\t// user => token => balance\n\tmapping (address => mapping (address => uint)) public userTokenBalances;\n\n\t// user => uid => Balance\n\tmapping (address => mapping (uint => Balance)) public votedBalances; // bonded => voted \n\t\n\t// user => bonded amount\n\tmapping (address => uint) public totalVotedBalances;\n\n\t// user => UnbondingBalance[]\n\tmapping (address => UnbondingBalance[]) public unbondingBalances;\n\t\n\t// user => total unbonded amount\n\tmapping (address => uint) public unbondedBalances;\n\t\n\n\t// uid => price\n\tmapping (uint => uint) public nftTradedPrices;\n\t// user => group => date => bool\n\tmapping (address => mapping (uint => mapping (uint => bool))) public voteRewardsClaimed;\n\t// user = > group id => bool\n\tmapping (address => mapping (uint => bool)) public bonusRewardsClaimed;\n\t// nft uid => bool\n\tmapping (uint => bool) public mintRewardsClaimed;\n\n\t// groupId => user => token => balance\n\tmapping (uint => mapping (address => mapping (address => uint))) public groupTokenBalances;\n\t\t\n\n\tmapping (address => bool) public operators;\n\n\taddress public pinAddress;\n\n\tuint public tokenLockId = 0;\n\n\taddress public tokenLocker;\n\n\tevent Redeem(address indexed user, address token, uint amount);\n\tevent Unbond(address indexed user, uint amount, uint at);\n\n\t\n\n\tmodifier checkNFT(address nftAddr, uint nftId) { \n\t\trequire(nfts[nftAddr][nftId] > 0, \"Invalid NFT\");\n\t\t_; \n\t}\n\n\tmodifier onlyPin() { \n\t\trequire(msg.sender == pinAddress, \"Forbidden\"); \n\t\t_; \n\t}\n\n\tmodifier onlyOperator() { \n\t\trequire (operators[msg.sender] || owner() == _msgSender(), \"Not operator\"); \n\t\t_; \n\t}\n\t\n\t\n\n\tmodifier checkVotingTime() { \n\t\trequire(groups[currentGroupId] <= block.timestamp, \"Voting is not start\");\n\t\trequire(groups[currentGroupId].add(VOTE_DURATION) >= block.timestamp, \"Voting is over\");\n\t\t_; \n\t}\n\n\tmodifier checkVoteToken(address _token) { \n\t\tbool isValid = false;\n\t\tfor(uint i = 0; i < voteTokens.length; i++) {\n\t\t\tif(voteTokens[i] == _token) {\n\t\t\t\tisValid = true;\n\t\t\t\tbreak;\n\t\t\t}\n\t\t}\n\t\trequire(isValid, \"Invalid Vote Token\");\n\t\t_; \n\t}\n\n\tconstructor(address _treasury, address _tokenLocker){\n\t\ttreasury = ITreasury(_treasury);\n\t\tuink = treasury.uink();\n\t\ttokenLocker = _tokenLocker;\n\n\t\tvoteTokens.push(uink);\n\t\tvoteRatio[uink] = voteRatioMax;\n\t}\n\n\tfunction addVoteToken(address _token, uint _ratio) external onlyOperator {\n\t\tvoteRatio[_token] = _ratio;\n\t\tfor(uint i = 0; i < voteTokens.length; i++) {\n\t\t\tif(voteTokens[i] == _token) {\n\t\t\t\treturn;\n\t\t\t}\n\t\t}\n\t\tvoteTokens.push(_token);\n\t}\n\n\tfunction setAuctionAddress(address _auction) external onlyOwner {\n\t\tauction = _auction;\n\t}\n\n\tfunction setPinAddress(address _pin) external onlyOwner {\n\t\tpinAddress = _pin;\n\t}\n\n\tfunction setTokenLockId(uint lockId) external onlyOwner {\n\t\ttokenLockId = lockId;\n\t}\n\n\tfunction setOperator(address operator, bool isOperator) external onlyOwner {\n\t\toperators[operator] = isOperator;\n\t}\n\n\tfunction setVoteDays(uint _days) external onlyOwner {\n\t\tVOTE_DAYS = _days;\n\t}\n\n\tfunction setMatchId(uint groupId, string calldata matchId) external onlyOperator {\n\t\tmatches[groupId] = matchId;\n\t}\n\n\tfunction addGroup(uint stakingBase, uint startTime, string calldata matchId) external onlyOperator {\n\t\trequire(currentGroupId == 0 || groups[currentGroupId].add(VOTE_DURATION) <= block.timestamp, \"Previous group is not over.\");\n\t\trequire(startTime >= getDate(block.timestamp), \"Invalid start time\");\n\t\tcurrentGroupId++;\n\t\tgroups[currentGroupId] = startTime;\n\t\tstakingBases[currentGroupId] = stakingBase;\n\t\tmatches[currentGroupId] = matchId;\n\t}\n\n\tfunction addNFT(uint groupId, address[] calldata nftAddrs, uint[] calldata nftIds) external onlyOperator {\n\t\trequire(nftAddrs.length == nftIds.length, \"Invalid params\");\n\t\tNFT[] storage inputNFTs = groupNFTs[groupId];\n\n\t\tfor(uint i = 0; i < nftAddrs.length; i++) {\n\t\t\trequire(nfts[nftAddrs[i]][nftIds[i]] == 0, \"NFT has been added\");\n\t\t\tnextNFTId++;\n\t\t\tnfts[nftAddrs[i]][nftIds[i]] = nextNFTId;\n\t\t\taddress nftOwner = IERC721(nftAddrs[i]).ownerOf(nftIds[i]);\n\t\t\tinputNFTs.push(NFT({\n\t\t\t\tuid: nextNFTId,\n\t\t\t\taddr: nftAddrs[i],\n\t\t\t\tid: nftIds[i],\n\t\t\t\towner: nftOwner\n\t\t\t}));\n\t\t\tnftGroup[nextNFTId] = groupId;\n\t\t}\n\t}\n\n\tfunction groupNFTsLength(uint groupId) public view returns(uint256) {\n\t\treturn groupNFTs[groupId].length;\n\t}\n\n\tfunction getAuctionPrices(uint groupId) public view returns(uint[] memory prices, uint totalAmount) {\n\t\tprices = new uint[](groupNFTs[groupId].length);\n\t\tfor(uint i = 0; i < groupNFTs[groupId].length; i++) {\n\t\t\t(,, uint price) = IAuction(auction).matchResults(matches[groupId], i);\n\t\t\tprices[i] = price;\n\t\t\ttotalAmount = totalAmount.add(price);\n\t\t}\n\t}\n\n\t\n\tfunction getDate(uint256 ts) public view returns(uint256) {\n\t\treturn ts.sub(ts.mod(VOTE_TIME_UNIT));\n\t}\n\n\tfunction getVotableDates(uint groupId) public view returns(uint[] memory dates) {\n\t\tuint start = groups[groupId];\n\t\tdates = new uint[](VOTE_DAYS);\n\t\tuint firstDate = getDate(start);\n\t\tfor(uint i = 0; i < VOTE_DAYS; i++) {\n\t\t\tdates[i] = firstDate.add(i * VOTE_TIME_UNIT);\n\t\t}\n\t}\n\n\tfunction _vote(address user, address nftAddr, uint nftId, uint votes) internal {\n\t\tuint today = getDate(block.timestamp);\n\t\tuint[] memory dates = getVotableDates(currentGroupId);\n\t\tuint uid = nfts[nftAddr][nftId];\n\n\t\tfor(uint i = 0; i < dates.length; i++) {\n\t\t\tif(dates[i] >= today) {\n\t\t\t\tuint date = dates[i];\n\t\t\t\tdayVotes[date][uid] = dayVotes[date][uid].add(votes);\n\t\t\t\tuserVotes[user][date][uid] = userVotes[user][date][uid].add(votes);\n\t\t\t\tuserDailyVotes[user][currentGroupId][date] = userDailyVotes[user][currentGroupId][date].add(votes);\n\t\t\t\tuserNFTVotes[user][uid] = userNFTVotes[user][uid].add(votes);\n\t\t\t\t\n\t\t\t\tnftVotes[uid] = nftVotes[uid].add(votes);\n\t\t\t\tgroupVotes[currentGroupId] = groupVotes[currentGroupId].add(votes);\n\t\t\t}\n\t\t}\n\t}\n\n\tfunction getUserNFTVotes(address user, address nftAddr, uint nftId) public view returns(uint256) {\n\t\tuint today = getDate(block.timestamp);\n\t\tuint[] memory dates = getVotableDates(currentGroupId);\n\t\tuint uid = nfts[nftAddr][nftId];\n\t\tuint votes = 0;\n\t\tfor(uint i = 0; i < dates.length; i++) {\n\t\t\tif(dates[i] <= today) {\n\t\t\t\tvotes = votes.add(userVotes[user][dates[i]][uid]);\n\t\t\t}\n\t\t}\n\t\treturn votes;\n\t}\n\n\tfunction getNFTVotes(address nftAddr, uint nftId) public view returns(uint256) {\n\t\tuint today = getDate(block.timestamp);\n\t\tuint[] memory dates = getVotableDates(currentGroupId);\n\t\tuint uid = nfts[nftAddr][nftId];\n\t\t\n\t\tuint votes = 0;\n\t\tfor(uint i = 0; i < dates.length; i++) {\n\t\t\tif(dates[i] <= today) {\n\t\t\t\tvotes = votes.add(dayVotes[dates[i]][uid]);\n\t\t\t}\n\t\t}\n\t\treturn votes;\n\t}\n\n\tfunction _unvote(address user, address nftAddr, uint nftId, uint votes) internal {\n\t\tuint today = getDate(block.timestamp);\n\t\tuint[] memory dates = getVotableDates(currentGroupId);\n\t\tuint uid = nfts[nftAddr][nftId];\n\n\t\tfor(uint i = 0; i < dates.length; i++) {\n\t\t\tif(dates[i] >= today) {\n\t\t\t\tuint date = dates[i];\n\t\t\t\tdayVotes[date][uid] = dayVotes[date][uid].sub(votes);\n\t\t\t\tuserVotes[user][date][uid] = userVotes[user][date][uid].sub(votes);\n\t\t\t\tuserDailyVotes[user][currentGroupId][date] = userDailyVotes[user][currentGroupId][date].sub(votes);\n\t\t\t\tuserNFTVotes[user][uid] = userNFTVotes[user][uid].sub(votes);\n\t\t\t\t\n\t\t\t\tnftVotes[uid] = nftVotes[uid].sub(votes);\n\t\t\t\tgroupVotes[currentGroupId] = groupVotes[currentGroupId].sub(votes);\n\t\t\t}\n\t\t}\n\t}\n\n\tfunction calcVotes(address token, uint amount) internal view returns(uint256) {\n\t\tint8 delta = int8(IERC20Metadata(token).decimals()) - int8(IERC20Metadata(uink).decimals());\n\t\tif(delta >= 0) {\n\t\t\treturn voteRatio[token].mul(amount).div(voteRatioMax).div(10 ** uint8(delta));\n\t\t} else {\n\t\t\treturn voteRatio[token].mul(amount).div(voteRatioMax).mul(10 ** uint8(-delta));\n\t\t}\n\t}\n\n\tfunction getAvailableBalance(address user, address token, address nftAddr, uint nftId) public view returns(uint256) {\n\t\tuint uid = nfts[nftAddr][nftId];\n\t\tBalance memory balance = balances[user][token][uid];\n\t\tuint available = balance.available;\n\t\tif(getDate(balance.votedAt) < getDate(block.timestamp)) {\n\t\t\tavailable = available.add(balance.freezed);\n\t\t}\n\t\treturn available;\n\t}\n\n\t// stake and vote\n\tfunction stake(address nftAddr, uint nftId, address token, uint amount)\n\t\texternal \n\t\tcheckVoteToken(token)\n\t\tcheckVotingTime\n\t\tcheckNFT(nftAddr, nftId)\n\t{\n\t\trequire(amount > 0, \"Amount is zero\");\n\t\tuint votes = calcVotes(token, amount);\n\t\t_vote(msg.sender, nftAddr, nftId, votes);\n\n\t\tIERC20(token).transferFrom(msg.sender, address(this), amount);\n\t\tgroupTokenBalances[currentGroupId][msg.sender][token] = groupTokenBalances[currentGroupId][msg.sender][token].add(amount);\n\n\t\tuint uid = nfts[nftAddr][nftId];\n\n\n\t\tBalance storage balance = balances[msg.sender][token][uid];\n\t\tif(getDate(balance.votedAt) < getDate(block.timestamp)) {\n\t\t\tbalance.available = balance.available.add(balance.freezed);\n\t\t\tbalance.freezed = 0;\n\t\t}\n\t\tbalance.freezed = balance.freezed.add(amount);\n\t\tbalance.votedAt = block.timestamp;\n\n\t\tuserTokenBalances[msg.sender][token] = userTokenBalances[msg.sender][token].add(amount);\n\t}\n\n\tfunction unstake(address nftAddr, uint nftId, address token, uint amount)\n\t\texternal \n\t\tcheckVoteToken(token)\n\t\tcheckNFT(nftAddr, nftId)\n\t{\n\t\trequire(amount > 0, \"Amount is zero\");\n\t\t\n\t\tuint available = getAvailableBalance(msg.sender, token, nftAddr, nftId);\n\t\trequire(available >= amount, \"Insufficient balance\");\n\n\t\tuint votes = calcVotes(token, amount);\n\t\t_unvote(msg.sender, nftAddr, nftId, votes);\n\n\t\tIERC20(token).transfer(msg.sender, amount);\n\n\t\tgroupTokenBalances[currentGroupId][msg.sender][token] = groupTokenBalances[currentGroupId][msg.sender][token].sub(amount);\n\n\t\tuint uid = nfts[nftAddr][nftId];\n\t\tBalance storage balance = balances[msg.sender][token][uid];\n\t\tif(getDate(balance.votedAt) < getDate(block.timestamp)) {\n\t\t\tbalance.available = balance.available.add(balance.freezed);\n\t\t\tbalance.freezed = 0;\n\t\t}\n\t\tbalance.available = balance.available.sub(amount);\n\n\t\tuserTokenBalances[msg.sender][token] = userTokenBalances[msg.sender][token].sub(amount);\n\t}\n\n\t// redeem token after vote finished\n\tfunction redeemToken(uint groupId, address token) external {\n\t\trequire(groups[groupId] + VOTE_DURATION < block.timestamp, \"Vote is not over\");\n\t\tuint amount = groupTokenBalances[groupId][msg.sender][token];\n\t\trequire(amount > 0, \"Amount is zero\");\n\t\tIERC20(token).transfer(msg.sender, amount);\n\t\temit Redeem(msg.sender, token, amount);\n\t}\n\n\tfunction getRedeemableBalance(address user, address token) public view returns(uint256) {\n\t\tuint total = 0;\n\t\tfor(uint groupId = 1; groupId <= currentGroupId; groupId++){\n\t\t\tif(groups[groupId] + VOTE_DURATION < block.timestamp) {\n\t\t\t\ttotal = total.add(groupTokenBalances[groupId][user][token]);\n\t\t\t}\n\t\t}\n\t\treturn total;\n\t}\n\n\tfunction redeemToken(address token) external {\n\t\tuint total = getRedeemableBalance(msg.sender, token);\n\t\trequire(total > 0, \"Withdrawable is zero\");\n\t\tIERC20(token).transfer(msg.sender, total);\n\t\temit Redeem(msg.sender, token, total);\n\t}\n\n\tfunction rescueToken(address token, uint amount) external onlyOwner {\n\t\tIERC20(token).transfer(msg.sender, amount);\n\t}\n\n\tfunction getTotalRewards(address user) public view returns(uint) {\n\t\tuint rewards = 0;\n\t\tfor(uint groupId = 1; groupId <= currentGroupId; groupId++) {\n\t\t\trewards = rewards.add(getBaseRewards(user, groupId)).add(getAuctionRewards(user, groupId));\n\t\t}\n\t\treturn rewards;\n\t}\n\n\tfunction getBaseRewards(address user, uint groupId) public view returns(uint) {\n\t\tuint[] memory dates = getVotableDates(groupId);\n\t\tuint[] memory rawardRates = getBaseRewardRates(groupId);\n\t\tuint rewards = 0;\n\t\tuint today = getDate(block.timestamp);\n\n\t\tfor(uint i = 0; i < dates.length; i++) {\n\t\t\tif(dates[i] >= today) {\n\t\t\t\tbreak;\n\t\t\t}\n\t\t\tuint dayRewards = userDailyVotes[user][groupId][dates[i]].mul(rawardRates[i]).div(1e18);\n\t\t\trewards = rewards.add(dayRewards);\n\t\t}\n\t\treturn rewards;\n\t}\n\n\tfunction getAuctionRewards(address user, uint groupId) public view returns(uint) {\n\t\tif(!hasFinished[groupId]) {\n\t\t\treturn 0;\n\t\t}\n\t\tuint rewards = 0;\n\t\tuint[] memory rewardRates = getAuctionRewardRates(groupId);\n\t\tfor(uint i = 0; i < groupNFTs[groupId].length; i++) {\n\t\t\tuint votes = userNFTVotes[user][groupNFTs[groupId][i].uid];\n\t\t\trewards = votes.mul(rewardRates[i]).div(1e18).add(rewards);\n\t\t}\n\t\treturn rewards;\n\t}\n\n\tfunction getBondedBalance(address user) public view returns(uint) {\n\t\tuint rewards = getTotalRewards(user);\n\t\tuint freezedBalance = totalVotedBalances[user].add(unbondedBalances[user]);\n\t\treturn rewards > freezedBalance ? rewards.sub(freezedBalance) : 0;\n\t}\n\n\tfunction getUnvotableBalance(address user, address nftAddr, uint nftId) public view returns(uint256) {\n\t\tuint uid = nfts[nftAddr][nftId];\n\t\tBalance memory balance = votedBalances[user][uid];\n\t\tuint available = balance.available;\n\t\tif(getDate(balance.votedAt) < getDate(block.timestamp)) {\n\t\t\tavailable = available.add(balance.freezed);\n\t\t}\n\t\treturn available;\n\t}\n\n\tfunction voteFromLock(address nftAddr, uint nftId) \n\t\texternal \n\t\tcheckVotingTime\n\t\tcheckNFT(nftAddr, nftId)\n\t{\n\n\t\tuint amount = ITokenLocker(tokenLocker).subLockForVote(tokenLockId, msg.sender);\n\t\t_vote(msg.sender, nftAddr, nftId, amount);\n\t\t\n\t\tuint uid = nfts[nftAddr][nftId];\n\t\tBalance storage votedBalance = votedBalances[msg.sender][uid];\n\n\t\tif(getDate(votedBalance.votedAt) < getDate(block.timestamp)) {\n\t\t\tvotedBalance.available = votedBalance.available.add(votedBalance.freezed);\n\t\t\tvotedBalance.freezed = 0;\n\t\t}\n\t\tvotedBalance.freezed = votedBalance.freezed.add(amount);\n\t\tvotedBalance.votedAt = block.timestamp;\n\n\t\ttotalVotedBalances[msg.sender] = totalVotedBalances[msg.sender].add(amount);\n\n\t\tuserTokenBalances[msg.sender][uink] = userTokenBalances[msg.sender][uink].add(amount);\n\t}\n\n\t\n\tfunction voteBonded(address nftAddr, uint nftId, uint amount) \n\t\texternal \n\t\tcheckVotingTime\n\t\tcheckNFT(nftAddr, nftId)\n\t{\n\t\tuint bondedBalance = getBondedBalance(msg.sender);\n\t\trequire(bondedBalance >= amount, \"Insufficient bonded balance\");\n\n\t\t_vote(msg.sender, nftAddr, nftId, amount);\n\n\t\tuint uid = nfts[nftAddr][nftId];\n\t\tBalance storage votedBalance = votedBalances[msg.sender][uid];\n\n\t\tif(getDate(votedBalance.votedAt) < getDate(block.timestamp)) {\n\t\t\tvotedBalance.available = votedBalance.available.add(votedBalance.freezed);\n\t\t\tvotedBalance.freezed = 0;\n\t\t}\n\t\tvotedBalance.freezed = votedBalance.freezed.add(amount);\n\t\tvotedBalance.votedAt = block.timestamp;\n\n\t\ttotalVotedBalances[msg.sender] = totalVotedBalances[msg.sender].add(amount);\n\t\tuserTokenBalances[msg.sender][uink] = userTokenBalances[msg.sender][uink].add(amount);\n\t}\n\n\tfunction unvoteBonded(address nftAddr, uint nftId, uint amount)\n\t\texternal \n\t\tcheckVotingTime\n\t\tcheckNFT(nftAddr, nftId)\n\t{\n\t\tuint unvotable = getUnvotableBalance(msg.sender, nftAddr, nftId);\n\t\trequire(unvotable >= amount, \"Insufficient unvotable balance\");\n\t\t_unvote(msg.sender, nftAddr, nftId, amount);\n\n\t\tuint uid = nfts[nftAddr][nftId];\n\t\tBalance storage votedBalance = votedBalances[msg.sender][uid];\n\n\t\tif(getDate(votedBalance.votedAt) < getDate(block.timestamp)) {\n\t\t\tvotedBalance.available = votedBalance.available.add(votedBalance.freezed);\n\t\t\tvotedBalance.freezed = 0;\n\t\t}\n\t\tvotedBalance.available = votedBalance.available.sub(amount);\n\n\t\ttotalVotedBalances[msg.sender] = totalVotedBalances[msg.sender].sub(amount);\n\t\tuserTokenBalances[msg.sender][uink] = userTokenBalances[msg.sender][uink].sub(amount);\n\t}\n\n\tfunction getUnbondingBalancesLength(address user) public view returns(uint) {\n\t\treturn unbondingBalances[user].length;\n\t}\n\n\tfunction unbond(uint amount) external {\n\t\tuint bondedBalance = getBondedBalance(msg.sender);\n\t\trequire(bondedBalance >= amount, \"Insufficient bonded balance\");\n\n\t\tunbondingBalances[msg.sender].push(UnbondingBalance({\n\t\t\tvalue: amount,\n\t\t\tunbondedAt: block.timestamp,\n\t\t\tredeemed: 0\n\t\t}));\n\t\t\n\t\tunbondedBalances[msg.sender] = unbondedBalances[msg.sender].add(amount);\n\n\t\temit Unbond(msg.sender, amount, block.timestamp);\n\t}\n\n\tfunction redeemUnbonding(uint index) \n\t\texternal \n\t{ \n\t\tUnbondingBalance storage unbondingBalance = unbondingBalances[msg.sender][index];\n\t\tuint passDays = getDate(block.timestamp).sub(getDate(unbondingBalance.unbondedAt)).div(VOTE_TIME_UNIT);\n\t\tuint released = passDays.mul(unbondingBalance.value).div(60);\n\t\tuint available = released.sub(unbondingBalance.redeemed);\n\t\tunbondingBalance.redeemed = released;\n\n\t\ttreasury.sendRewards(msg.sender, available);\n\t}\n\n\n\t// function getUserVotesByNFT(address user, uint groupId, uint uid) public view returns(uint) {\n\t// \tuint[] memory dates = getVotableDates(groupId);\n\t// \tuint votes = 0;\n\t// \tfor(uint i = 0; i < dates.length; i++) {\n\t// \t\tvotes = userVotes[user][dates[i]][uid].add(votes);\n\t// \t}\n\t// \treturn votes;\n\t// }\n\n\tfunction claimMintRewards(address nftAddr, uint nftId, address to) external onlyPin {\n\t\tuint uid = nfts[nftAddr][nftId];\n\t\tuint groupId = nftGroup[nfts[nftAddr][nftId]];\n\t\trequire(!mintRewardsClaimed[uid], \"Claimed\");\n\n\t\tuint rewards = 0;\n\t\tfor(uint i = 0; i < groupNFTs[groupId].length; i++) {\n\t\t\tif(groupNFTs[groupId][i].uid == uid) {\n\t\t\t\trewards = getMintRewardsPerNFT(groupId)[i];\n\t\t\t\tbreak;\n\t\t\t}\n\t\t}\n\t\tif(rewards > 0) {\n\t\t\ttreasury.sendRewards(to, rewards);\n\t\t\tmintRewardsClaimed[uid] = true;\n\t\t}\n\t}\n\n\tfunction getTradeWeights(uint groupId) public view returns(uint[] memory weights) {\n\t\tNFT[] memory gNFTs = groupNFTs[groupId];\n\t\tweights = new uint[](gNFTs.length);\n\t\t\n\t\t(uint[] memory prices, uint total) = getAuctionPrices(groupId);\n\n\t\tif(total > 0) {\n\t\t\tfor(uint i = 0; i < gNFTs.length; i++){\n\t\t\t\tweights[i] = prices[i].mul(1e18).div(total);\n\t\t\t}\n\t\t}\n\t}\n\n\tfunction setAuctionFinish(uint groupId) external onlyOperator {\n\t\thasFinished[groupId] = true;\n\t}\n\n\tfunction getAuctionRewardRates(uint groupId) public view returns(uint[] memory auctionRewardRates) {\n\t\tuint[] memory weights = getTradeWeights(groupId);\n\t\tNFT[] memory gNFTs = groupNFTs[groupId];\n\t\tauctionRewardRates = new uint[](gNFTs.length);\n\t\t(, uint[] memory inflations) = getWeightsAndInflations(groupId);\n\t\tuint bonus = bonusCap.mul(inflations[inflations.length - 1]).div(1e18);\n\n\t\tfor(uint i = 0; i < gNFTs.length; i++) {\n\t\t\tif(nftVotes[gNFTs[i].uid] == 0) {\n\t\t\t\tauctionRewardRates[i] = 0;\n\t\t\t} else {\n\t\t\t\tauctionRewardRates[i] = bonus.mul(weights[i]).div(nftVotes[gNFTs[i].uid]);\n\t\t\t}\n\t\t}\n\t}\n\n\tfunction getDailyVotes(uint groupId, uint date) public view returns(uint256) {\n\t\tuint votes = 0;\n\t\tfor(uint i = 0; i < groupNFTs[groupId].length; i++) {\n\t\t\tuint uid = groupNFTs[groupId][i].uid;\n\t\t\tvotes = votes.add(dayVotes[date][uid]);\n\t\t}\n\t\treturn votes;\n\t}\n\n\tfunction getWeightsAndInflations(uint groupId)\n\t\tpublic\n\t\tview\n\t\treturns(\n\t\t\tuint[] memory weights,\n\t\t\tuint[] memory inflations\n\t\t) \n\t{\n\n\t\tuint[] memory dates = getVotableDates(groupId);\n\t\tweights = new uint[](dates.length);\n\t\tinflations = new uint[](dates.length);\n\n\t\tfor(uint i = 0; i < dates.length; i++) {\n\t\t\tuint dailyVotes = getDailyVotes(groupId, dates[i]);\n\t\t\tweights[i] = dailyVotes.mul(1e18).div(stakingBases[groupId]);\n\t\t\tif(weights[i] < 3 * 1e17) {\n\t\t\t\tinflations[i] = 2 * 1e17;\n\t\t\t} else if(weights[i] >= 3 * 1e17 &&  weights[i] < 7 * 1e17) {\n\t\t\t\tinflations[i] = weights[i];\n\t\t\t} else {\n\t\t\t\tinflations[i] = 1e18;\n\t\t\t}\n\t\t}\n\t}\n\n\tfunction getBaseRewardRates(uint groupId) \n\t\tpublic view \n\t\treturns(uint[] memory rewardRates) \n\t{\n\n\t\tuint[] memory dates = getVotableDates(groupId);\n\t\t(,uint[] memory inflations) = getWeightsAndInflations(groupId);\n\t\trewardRates = new uint[](dates.length);\n\n\t\tfor(uint i = 0; i < dates.length; i++) {\n\t\t\tif(dates[i] > getDate(block.timestamp)) {\n\t\t\t\tbreak;\n\t\t\t}\n\t\t\tuint dailyTotalVotes = getDailyVotes(groupId, dates[i]);\n\t\t\tif(dailyTotalVotes > 0) {\n\t\t\t\trewardRates[i] = inflations[i].mul(dailyVoteRewardCap).div(dailyTotalVotes);\n\t\t\t}\n\t\t}\n\t}\n\n\tfunction getMintRewardsPerNFT(uint groupId)\n\t\tpublic view \n\t\treturns(uint[] memory mintRewards) \n\t{\n\t\tmintRewards = new uint[](groupNFTs[groupId].length);\n\t\tfor(uint i = 0; i < groupNFTs[groupId].length; i++) {\n\t\t\tif(groupVotes[groupId] > 0) {\n\t\t\t\tmintRewards[i] = nftVotes[groupNFTs[groupId][i].uid].mul(mintRewardCap).div(groupVotes[groupId]);\n\t\t\t}\n\t\t}\n\t}\n\n\tfunction getMintRewards(address nftAddr, uint nftId) public view returns(uint) {\n\t\tuint groupId = nftGroup[nfts[nftAddr][nftId]];\n\t\tif(groupVotes[groupId] > 0) {\n\t\t\treturn nftVotes[nfts[nftAddr][nftId]].mul(mintRewardCap).div(groupVotes[groupId]);\n\t\t} else {\n\t\t\treturn 0;\n\t\t}\n\t}\n}",
  "sourcePath": "/Users/yxf/app/uniarts-eth-dao/contracts/VoteMining.sol",
  "compiler": {
    "name": "solc",
    "version": "0.8.4+commit.c7e474f2.Emscripten.clang"
  },
  "schemaVersion": "3.2.3",
  "updatedAt": "2021-10-14T06:07:46.534Z",
  "devdoc": {
    "kind": "dev",
    "methods": {
      "owner()": {
        "details": "Returns the address of the current owner."
      },
      "renounceOwnership()": {
        "details": "Leaves the contract without owner. It will not be possible to call `onlyOwner` functions anymore. Can only be called by the current owner. NOTE: Renouncing ownership will leave the contract without an owner, thereby removing any functionality that is only available to the owner."
      },
      "transferOwnership(address)": {
        "details": "Transfers ownership of the contract to a new account (`newOwner`). Can only be called by the current owner."
      }
    },
    "version": 1
  },
  "userdoc": {
    "kind": "user",
    "methods": {},
    "version": 1
  }
}