{
  "contractName": "VoteMining",
  "abi": [
    {
      "inputs": [
        {
          "internalType": "address",
          "name": "_treasury",
          "type": "address"
        },
        {
          "internalType": "address",
          "name": "_tokenLocker",
          "type": "address"
        }
      ],
      "stateMutability": "nonpayable",
      "type": "constructor"
    },
    {
      "anonymous": false,
      "inputs": [
        {
          "indexed": true,
          "internalType": "address",
          "name": "previousOwner",
          "type": "address"
        },
        {
          "indexed": true,
          "internalType": "address",
          "name": "newOwner",
          "type": "address"
        }
      ],
      "name": "OwnershipTransferred",
      "type": "event"
    },
    {
      "anonymous": false,
      "inputs": [
        {
          "indexed": true,
          "internalType": "address",
          "name": "user",
          "type": "address"
        },
        {
          "indexed": false,
          "internalType": "uint256",
          "name": "amount",
          "type": "uint256"
        },
        {
          "indexed": false,
          "internalType": "uint256",
          "name": "at",
          "type": "uint256"
        }
      ],
      "name": "Unbond",
      "type": "event"
    },
    {
      "inputs": [],
      "name": "auction",
      "outputs": [
        {
          "internalType": "address",
          "name": "",
          "type": "address"
        }
      ],
      "stateMutability": "view",
      "type": "function"
    },
    {
      "inputs": [
        {
          "internalType": "address",
          "name": "",
          "type": "address"
        },
        {
          "internalType": "address",
          "name": "",
          "type": "address"
        },
        {
          "internalType": "uint256",
          "name": "",
          "type": "uint256"
        }
      ],
      "name": "balances",
      "outputs": [
        {
          "internalType": "uint256",
          "name": "available",
          "type": "uint256"
        },
        {
          "internalType": "uint256",
          "name": "freezed",
          "type": "uint256"
        },
        {
          "internalType": "uint256",
          "name": "votedAt",
          "type": "uint256"
        }
      ],
      "stateMutability": "view",
      "type": "function"
    },
    {
      "inputs": [],
      "name": "bonusCap",
      "outputs": [
        {
          "internalType": "uint256",
          "name": "",
          "type": "uint256"
        }
      ],
      "stateMutability": "view",
      "type": "function"
    },
    {
      "inputs": [
        {
          "internalType": "address",
          "name": "",
          "type": "address"
        },
        {
          "internalType": "uint256",
          "name": "",
          "type": "uint256"
        }
      ],
      "name": "bonusRewardsClaimed",
      "outputs": [
        {
          "internalType": "bool",
          "name": "",
          "type": "bool"
        }
      ],
      "stateMutability": "view",
      "type": "function"
    },
    {
      "inputs": [],
      "name": "currentGroupId",
      "outputs": [
        {
          "internalType": "uint256",
          "name": "",
          "type": "uint256"
        }
      ],
      "stateMutability": "view",
      "type": "function"
    },
    {
      "inputs": [],
      "name": "dailyMintRewardCap",
      "outputs": [
        {
          "internalType": "uint256",
          "name": "",
          "type": "uint256"
        }
      ],
      "stateMutability": "view",
      "type": "function"
    },
    {
      "inputs": [],
      "name": "dailyVoteRewardCap",
      "outputs": [
        {
          "internalType": "uint256",
          "name": "",
          "type": "uint256"
        }
      ],
      "stateMutability": "view",
      "type": "function"
    },
    {
      "inputs": [
        {
          "internalType": "uint256",
          "name": "",
          "type": "uint256"
        }
      ],
      "name": "groupVotes",
      "outputs": [
        {
          "internalType": "uint256",
          "name": "",
          "type": "uint256"
        }
      ],
      "stateMutability": "view",
      "type": "function"
    },
    {
      "inputs": [
        {
          "internalType": "uint256",
          "name": "",
          "type": "uint256"
        }
      ],
      "name": "groups",
      "outputs": [
        {
          "internalType": "uint256",
          "name": "",
          "type": "uint256"
        }
      ],
      "stateMutability": "view",
      "type": "function"
    },
    {
      "inputs": [
        {
          "internalType": "uint256",
          "name": "",
          "type": "uint256"
        }
      ],
      "name": "hasFinished",
      "outputs": [
        {
          "internalType": "bool",
          "name": "",
          "type": "bool"
        }
      ],
      "stateMutability": "view",
      "type": "function"
    },
    {
      "inputs": [
        {
          "internalType": "uint256",
          "name": "",
          "type": "uint256"
        }
      ],
      "name": "matches",
      "outputs": [
        {
          "internalType": "string",
          "name": "",
          "type": "string"
        }
      ],
      "stateMutability": "view",
      "type": "function"
    },
    {
      "inputs": [
        {
          "internalType": "uint256",
          "name": "",
          "type": "uint256"
        }
      ],
      "name": "mintRewardsClaimed",
      "outputs": [
        {
          "internalType": "bool",
          "name": "",
          "type": "bool"
        }
      ],
      "stateMutability": "view",
      "type": "function"
    },
    {
      "inputs": [],
      "name": "nextNFTId",
      "outputs": [
        {
          "internalType": "uint256",
          "name": "",
          "type": "uint256"
        }
      ],
      "stateMutability": "view",
      "type": "function"
    },
    {
      "inputs": [
        {
          "internalType": "uint256",
          "name": "",
          "type": "uint256"
        }
      ],
      "name": "nftGroup",
      "outputs": [
        {
          "internalType": "uint256",
          "name": "",
          "type": "uint256"
        }
      ],
      "stateMutability": "view",
      "type": "function"
    },
    {
      "inputs": [
        {
          "internalType": "uint256",
          "name": "",
          "type": "uint256"
        }
      ],
      "name": "nftTradedPrices",
      "outputs": [
        {
          "internalType": "uint256",
          "name": "",
          "type": "uint256"
        }
      ],
      "stateMutability": "view",
      "type": "function"
    },
    {
      "inputs": [
        {
          "internalType": "uint256",
          "name": "",
          "type": "uint256"
        }
      ],
      "name": "nftVotes",
      "outputs": [
        {
          "internalType": "uint256",
          "name": "",
          "type": "uint256"
        }
      ],
      "stateMutability": "view",
      "type": "function"
    },
    {
      "inputs": [
        {
          "internalType": "address",
          "name": "",
          "type": "address"
        }
      ],
      "name": "operators",
      "outputs": [
        {
          "internalType": "bool",
          "name": "",
          "type": "bool"
        }
      ],
      "stateMutability": "view",
      "type": "function"
    },
    {
      "inputs": [],
      "name": "owner",
      "outputs": [
        {
          "internalType": "address",
          "name": "",
          "type": "address"
        }
      ],
      "stateMutability": "view",
      "type": "function"
    },
    {
      "inputs": [],
      "name": "pinAddress",
      "outputs": [
        {
          "internalType": "address",
          "name": "",
          "type": "address"
        }
      ],
      "stateMutability": "view",
      "type": "function"
    },
    {
      "inputs": [],
      "name": "renounceOwnership",
      "outputs": [],
      "stateMutability": "nonpayable",
      "type": "function"
    },
    {
      "inputs": [
        {
          "internalType": "uint256",
          "name": "",
          "type": "uint256"
        }
      ],
      "name": "stakingBases",
      "outputs": [
        {
          "internalType": "uint256",
          "name": "",
          "type": "uint256"
        }
      ],
      "stateMutability": "view",
      "type": "function"
    },
    {
      "inputs": [],
      "name": "tokenLockId",
      "outputs": [
        {
          "internalType": "uint256",
          "name": "",
          "type": "uint256"
        }
      ],
      "stateMutability": "view",
      "type": "function"
    },
    {
      "inputs": [],
      "name": "tokenLocker",
      "outputs": [
        {
          "internalType": "address",
          "name": "",
          "type": "address"
        }
      ],
      "stateMutability": "view",
      "type": "function"
    },
    {
      "inputs": [
        {
          "internalType": "address",
          "name": "",
          "type": "address"
        }
      ],
      "name": "totalVotedBalances",
      "outputs": [
        {
          "internalType": "uint256",
          "name": "",
          "type": "uint256"
        }
      ],
      "stateMutability": "view",
      "type": "function"
    },
    {
      "inputs": [
        {
          "internalType": "address",
          "name": "newOwner",
          "type": "address"
        }
      ],
      "name": "transferOwnership",
      "outputs": [],
      "stateMutability": "nonpayable",
      "type": "function"
    },
    {
      "inputs": [],
      "name": "treasury",
      "outputs": [
        {
          "internalType": "contract ITreasury",
          "name": "",
          "type": "address"
        }
      ],
      "stateMutability": "view",
      "type": "function"
    },
    {
      "inputs": [],
      "name": "uink",
      "outputs": [
        {
          "internalType": "address",
          "name": "",
          "type": "address"
        }
      ],
      "stateMutability": "view",
      "type": "function"
    },
    {
      "inputs": [
        {
          "internalType": "address",
          "name": "",
          "type": "address"
        }
      ],
      "name": "unbondedBalances",
      "outputs": [
        {
          "internalType": "uint256",
          "name": "",
          "type": "uint256"
        }
      ],
      "stateMutability": "view",
      "type": "function"
    },
    {
      "inputs": [
        {
          "internalType": "address",
          "name": "",
          "type": "address"
        },
        {
          "internalType": "uint256",
          "name": "",
          "type": "uint256"
        }
      ],
      "name": "unbondingBalances",
      "outputs": [
        {
          "internalType": "uint256",
          "name": "value",
          "type": "uint256"
        },
        {
          "internalType": "uint256",
          "name": "unbondedAt",
          "type": "uint256"
        },
        {
          "internalType": "uint256",
          "name": "redeemed",
          "type": "uint256"
        }
      ],
      "stateMutability": "view",
      "type": "function"
    },
    {
      "inputs": [
        {
          "internalType": "address",
          "name": "",
          "type": "address"
        }
      ],
      "name": "voteRatio",
      "outputs": [
        {
          "internalType": "uint256",
          "name": "",
          "type": "uint256"
        }
      ],
      "stateMutability": "view",
      "type": "function"
    },
    {
      "inputs": [],
      "name": "voteRatioMax",
      "outputs": [
        {
          "internalType": "uint256",
          "name": "",
          "type": "uint256"
        }
      ],
      "stateMutability": "view",
      "type": "function"
    },
    {
      "inputs": [
        {
          "internalType": "address",
          "name": "",
          "type": "address"
        },
        {
          "internalType": "uint256",
          "name": "",
          "type": "uint256"
        },
        {
          "internalType": "uint256",
          "name": "",
          "type": "uint256"
        }
      ],
      "name": "voteRewardsClaimed",
      "outputs": [
        {
          "internalType": "bool",
          "name": "",
          "type": "bool"
        }
      ],
      "stateMutability": "view",
      "type": "function"
    },
    {
      "inputs": [
        {
          "internalType": "uint256",
          "name": "",
          "type": "uint256"
        }
      ],
      "name": "voteTokens",
      "outputs": [
        {
          "internalType": "address",
          "name": "",
          "type": "address"
        }
      ],
      "stateMutability": "view",
      "type": "function"
    },
    {
      "inputs": [
        {
          "internalType": "address",
          "name": "",
          "type": "address"
        },
        {
          "internalType": "uint256",
          "name": "",
          "type": "uint256"
        }
      ],
      "name": "votedBalances",
      "outputs": [
        {
          "internalType": "uint256",
          "name": "available",
          "type": "uint256"
        },
        {
          "internalType": "uint256",
          "name": "freezed",
          "type": "uint256"
        },
        {
          "internalType": "uint256",
          "name": "votedAt",
          "type": "uint256"
        }
      ],
      "stateMutability": "view",
      "type": "function"
    },
    {
      "inputs": [],
      "name": "weeklyCap",
      "outputs": [
        {
          "internalType": "uint256",
          "name": "",
          "type": "uint256"
        }
      ],
      "stateMutability": "view",
      "type": "function"
    },
    {
      "inputs": [
        {
          "internalType": "address",
          "name": "_token",
          "type": "address"
        },
        {
          "internalType": "uint256",
          "name": "_ratio",
          "type": "uint256"
        }
      ],
      "name": "addVoteToken",
      "outputs": [],
      "stateMutability": "nonpayable",
      "type": "function"
    },
    {
      "inputs": [
        {
          "internalType": "address",
          "name": "_auction",
          "type": "address"
        }
      ],
      "name": "setAuctionAddress",
      "outputs": [],
      "stateMutability": "nonpayable",
      "type": "function"
    },
    {
      "inputs": [
        {
          "internalType": "address",
          "name": "_pin",
          "type": "address"
        }
      ],
      "name": "setPinAddress",
      "outputs": [],
      "stateMutability": "nonpayable",
      "type": "function"
    },
    {
      "inputs": [
        {
          "internalType": "uint256",
          "name": "lockId",
          "type": "uint256"
        }
      ],
      "name": "setTokenLockId",
      "outputs": [],
      "stateMutability": "nonpayable",
      "type": "function"
    },
    {
      "inputs": [
        {
          "internalType": "uint256",
          "name": "stakingBase",
          "type": "uint256"
        },
        {
          "internalType": "uint256",
          "name": "startTime",
          "type": "uint256"
        },
        {
          "internalType": "string",
          "name": "matchId",
          "type": "string"
        }
      ],
      "name": "addGroup",
      "outputs": [],
      "stateMutability": "nonpayable",
      "type": "function"
    },
    {
      "inputs": [
        {
          "internalType": "uint256",
          "name": "groupId",
          "type": "uint256"
        },
        {
          "internalType": "address[]",
          "name": "nftAddrs",
          "type": "address[]"
        },
        {
          "internalType": "uint256[]",
          "name": "nftIds",
          "type": "uint256[]"
        }
      ],
      "name": "addNFT",
      "outputs": [],
      "stateMutability": "nonpayable",
      "type": "function"
    },
    {
      "inputs": [
        {
          "internalType": "uint256",
          "name": "groupId",
          "type": "uint256"
        }
      ],
      "name": "getAuctionPrices",
      "outputs": [
        {
          "internalType": "uint256[]",
          "name": "prices",
          "type": "uint256[]"
        },
        {
          "internalType": "uint256",
          "name": "totalAmount",
          "type": "uint256"
        }
      ],
      "stateMutability": "view",
      "type": "function"
    },
    {
      "inputs": [
        {
          "internalType": "uint256",
          "name": "ts",
          "type": "uint256"
        }
      ],
      "name": "getDate",
      "outputs": [
        {
          "internalType": "uint256",
          "name": "",
          "type": "uint256"
        }
      ],
      "stateMutability": "pure",
      "type": "function"
    },
    {
      "inputs": [
        {
          "internalType": "uint256",
          "name": "groupId",
          "type": "uint256"
        }
      ],
      "name": "getVotableDates",
      "outputs": [
        {
          "internalType": "uint256[]",
          "name": "dates",
          "type": "uint256[]"
        }
      ],
      "stateMutability": "view",
      "type": "function"
    },
    {
      "inputs": [
        {
          "internalType": "address",
          "name": "user",
          "type": "address"
        },
        {
          "internalType": "address",
          "name": "token",
          "type": "address"
        },
        {
          "internalType": "address",
          "name": "nftAddr",
          "type": "address"
        },
        {
          "internalType": "uint256",
          "name": "nftId",
          "type": "uint256"
        }
      ],
      "name": "getAvailableBalance",
      "outputs": [
        {
          "internalType": "uint256",
          "name": "",
          "type": "uint256"
        }
      ],
      "stateMutability": "view",
      "type": "function"
    },
    {
      "inputs": [
        {
          "internalType": "address",
          "name": "nftAddr",
          "type": "address"
        },
        {
          "internalType": "uint256",
          "name": "nftId",
          "type": "uint256"
        },
        {
          "internalType": "address",
          "name": "token",
          "type": "address"
        },
        {
          "internalType": "uint256",
          "name": "amount",
          "type": "uint256"
        }
      ],
      "name": "stake",
      "outputs": [],
      "stateMutability": "nonpayable",
      "type": "function"
    },
    {
      "inputs": [
        {
          "internalType": "address",
          "name": "nftAddr",
          "type": "address"
        },
        {
          "internalType": "uint256",
          "name": "nftId",
          "type": "uint256"
        },
        {
          "internalType": "address",
          "name": "token",
          "type": "address"
        },
        {
          "internalType": "uint256",
          "name": "amount",
          "type": "uint256"
        }
      ],
      "name": "unstake",
      "outputs": [],
      "stateMutability": "nonpayable",
      "type": "function"
    },
    {
      "inputs": [
        {
          "internalType": "address",
          "name": "user",
          "type": "address"
        }
      ],
      "name": "getTotalRewards",
      "outputs": [
        {
          "internalType": "uint256",
          "name": "",
          "type": "uint256"
        }
      ],
      "stateMutability": "view",
      "type": "function"
    },
    {
      "inputs": [
        {
          "internalType": "address",
          "name": "user",
          "type": "address"
        },
        {
          "internalType": "uint256",
          "name": "groupId",
          "type": "uint256"
        }
      ],
      "name": "getBaseRewards",
      "outputs": [
        {
          "internalType": "uint256",
          "name": "",
          "type": "uint256"
        }
      ],
      "stateMutability": "view",
      "type": "function"
    },
    {
      "inputs": [
        {
          "internalType": "address",
          "name": "user",
          "type": "address"
        },
        {
          "internalType": "uint256",
          "name": "groupId",
          "type": "uint256"
        }
      ],
      "name": "getAuctionRewards",
      "outputs": [
        {
          "internalType": "uint256",
          "name": "",
          "type": "uint256"
        }
      ],
      "stateMutability": "view",
      "type": "function"
    },
    {
      "inputs": [
        {
          "internalType": "address",
          "name": "user",
          "type": "address"
        },
        {
          "internalType": "address",
          "name": "nftAddr",
          "type": "address"
        },
        {
          "internalType": "uint256",
          "name": "nftId",
          "type": "uint256"
        }
      ],
      "name": "getUnvotableBalance",
      "outputs": [
        {
          "internalType": "uint256",
          "name": "",
          "type": "uint256"
        }
      ],
      "stateMutability": "view",
      "type": "function"
    },
    {
      "inputs": [
        {
          "internalType": "address",
          "name": "nftAddr",
          "type": "address"
        },
        {
          "internalType": "uint256",
          "name": "nftId",
          "type": "uint256"
        }
      ],
      "name": "voteFromLock",
      "outputs": [],
      "stateMutability": "nonpayable",
      "type": "function"
    },
    {
      "inputs": [
        {
          "internalType": "address",
          "name": "nftAddr",
          "type": "address"
        },
        {
          "internalType": "uint256",
          "name": "nftId",
          "type": "uint256"
        },
        {
          "internalType": "uint256",
          "name": "amount",
          "type": "uint256"
        }
      ],
      "name": "voteBonded",
      "outputs": [],
      "stateMutability": "nonpayable",
      "type": "function"
    },
    {
      "inputs": [
        {
          "internalType": "address",
          "name": "nftAddr",
          "type": "address"
        },
        {
          "internalType": "uint256",
          "name": "nftId",
          "type": "uint256"
        },
        {
          "internalType": "uint256",
          "name": "amount",
          "type": "uint256"
        }
      ],
      "name": "unvoteBonded",
      "outputs": [],
      "stateMutability": "nonpayable",
      "type": "function"
    },
    {
      "inputs": [
        {
          "internalType": "uint256",
          "name": "amount",
          "type": "uint256"
        }
      ],
      "name": "unbond",
      "outputs": [],
      "stateMutability": "nonpayable",
      "type": "function"
    },
    {
      "inputs": [
        {
          "internalType": "uint256",
          "name": "index",
          "type": "uint256"
        }
      ],
      "name": "redeemUnbonding",
      "outputs": [],
      "stateMutability": "nonpayable",
      "type": "function"
    },
    {
      "inputs": [
        {
          "internalType": "address",
          "name": "nftAddr",
          "type": "address"
        },
        {
          "internalType": "uint256",
          "name": "nftId",
          "type": "uint256"
        },
        {
          "internalType": "address",
          "name": "to",
          "type": "address"
        }
      ],
      "name": "claimMintRewards",
      "outputs": [],
      "stateMutability": "nonpayable",
      "type": "function"
    },
    {
      "inputs": [
        {
          "internalType": "uint256",
          "name": "groupId",
          "type": "uint256"
        }
      ],
      "name": "getTradeWeights",
      "outputs": [
        {
          "internalType": "uint256[]",
          "name": "weights",
          "type": "uint256[]"
        }
      ],
      "stateMutability": "view",
      "type": "function"
    },
    {
      "inputs": [
        {
          "internalType": "uint256",
          "name": "groupId",
          "type": "uint256"
        }
      ],
      "name": "setAuctionFinish",
      "outputs": [],
      "stateMutability": "nonpayable",
      "type": "function"
    },
    {
      "inputs": [
        {
          "internalType": "uint256",
          "name": "groupId",
          "type": "uint256"
        }
      ],
      "name": "getAuctionRewardRates",
      "outputs": [
        {
          "internalType": "uint256[]",
          "name": "auctionRewardRates",
          "type": "uint256[]"
        }
      ],
      "stateMutability": "view",
      "type": "function"
    },
    {
      "inputs": [
        {
          "internalType": "uint256",
          "name": "groupId",
          "type": "uint256"
        },
        {
          "internalType": "uint256",
          "name": "date",
          "type": "uint256"
        }
      ],
      "name": "getDailyVotes",
      "outputs": [
        {
          "internalType": "uint256",
          "name": "",
          "type": "uint256"
        }
      ],
      "stateMutability": "view",
      "type": "function"
    },
    {
      "inputs": [
        {
          "internalType": "uint256",
          "name": "groupId",
          "type": "uint256"
        }
      ],
      "name": "getWeightsAndInflations",
      "outputs": [
        {
          "internalType": "uint256[]",
          "name": "weights",
          "type": "uint256[]"
        },
        {
          "internalType": "uint256[]",
          "name": "inflations",
          "type": "uint256[]"
        }
      ],
      "stateMutability": "view",
      "type": "function"
    },
    {
      "inputs": [
        {
          "internalType": "uint256",
          "name": "groupId",
          "type": "uint256"
        }
      ],
      "name": "getBaseRewardRates",
      "outputs": [
        {
          "internalType": "uint256[]",
          "name": "rewardRates",
          "type": "uint256[]"
        }
      ],
      "stateMutability": "view",
      "type": "function"
    },
    {
      "inputs": [
        {
          "internalType": "uint256",
          "name": "groupId",
          "type": "uint256"
        }
      ],
      "name": "getMintRewardsPerNFT",
      "outputs": [
        {
          "internalType": "uint256[]",
          "name": "mintRewards",
          "type": "uint256[]"
        }
      ],
      "stateMutability": "view",
      "type": "function"
    }
  ],
  "bytecode": "0x6080604052690a968163f0a57b40000060015560046007600154620000259190620002ce565b620000319190620002ce565b60025560046007600154620000479190620002ce565b620000539190620002ce565b6003556002600154620000679190620002ce565b6004556000600a55600060135561271060195560006026553480156200008c57600080fd5b50604051620045c2380380620045c2833981016040819052620000af9162000297565b620000d5620000c664010000000062000202810204565b64010000000062000206810204565b60078054600160a060020a031916600160a060020a038416908117909155604080517fa88d8fea000000000000000000000000000000000000000000000000000000008152905163a88d8fea91600480820192602092909190829003018186803b1580156200014357600080fd5b505afa15801562000158573d6000803e3d6000fd5b505050506040513d601f19601f820116820180604052508101906200017e919062000273565b60068054600160a060020a03928316600160a060020a031991821681178355602780549585169583169590951790945560178054600181019091557fc624b66cc0138b8fabc209247f72d758e1cf3343756d543badbf24212bed8c150180549091169093179092556019549154166000908152601860205260409020555062000308565b3390565b60008054600160a060020a03838116600160a060020a0319831681178455604051919092169283917f8be0079c531659141344cd1fd0a4f28419497f9722a3daafe3b4186f6b6457e09190a35050565b8051600160a060020a03811681146200026e57600080fd5b919050565b60006020828403121562000285578081fd5b620002908262000256565b9392505050565b60008060408385031215620002aa578081fd5b620002b58362000256565b9150620002c56020840162000256565b90509250929050565b60008262000303577f4e487b710000000000000000000000000000000000000000000000000000000081526012600452602481fd5b500490565b6142aa80620003186000396000f3fe608060405234801561001057600080fd5b50600436106103ed576000357c0100000000000000000000000000000000000000000000000000000000900480637523d4bd1161021c578063ad3bac1a11610137578063d0f86b26116100ca578063f2fde38b11610099578063f2fde38b146109ca578063f44e3ce1146109dd578063f8df0cd3146109f0578063fa119fee14610a0357600080fd5b8063d0f86b2614610988578063da043af31461099b578063e325fb4b146109ae578063f298e493146109b757600080fd5b8063c7780c7311610106578063c7780c7314610939578063c7c889561461094c578063c909adc01461096c578063d0b5efa91461097557600080fd5b8063ad3bac1a146108c1578063b5345afa146108d4578063bba1189a14610906578063c4f6da121461091957600080fd5b80638da5cb5b116101af57806396324bd41161017e57806396324bd4146108685780639d9d9a1014610888578063a80bf3e61461089b578063a88d8fea146108ae57600080fd5b80638da5cb5b146107e95780638f4d41e8146107fa578063938f17371461081b57806393ac36381461085557600080fd5b80637d9f6db5116101eb5780637d9f6db51461078d578063814e7c0f146107a057806383fd1a54146107c35780638503d2cd146107d657600080fd5b80637523d4bd14610748578063768218271461076857806376ec17b714610771578063776498d41461078457600080fd5b806337867c941161030c57806361d027b31161029f578063660dbeb81161026e578063660dbeb8146106b25780636b942b86146106c55780636f700e2514610720578063715018a61461074057600080fd5b806361d027b31461063e57806363c0ea10146106515780636482ff981461067157806364ebaaeb1461068457600080fd5b80634f8d32be116102db5780634f8d32be146105e1578063502a1d3f146105ea578063515cc5321461060a5780635a8542be1461061d57600080fd5b806337867c941461056d5780634768d4ef146105765780634dc1a3e0146105965780634e4b61c3146105c157600080fd5b806317a9c7bd1161038457806328ad5ba61161035357806328ad5ba61461052b5780632b57298b146105345780632bcf161c1461054757806334e7a1a81461055a57600080fd5b806317a9c7bd146104d25780632281dfa4146104f2578063259239a11461050557806327de9e321461051857600080fd5b80630d265df9116103c05780630d265df914610453578063126f648c1461047357806313e7c9d8146104a6578063171b612c146104c957600080fd5b8063040308e4146103f25780630713ee7e14610418578063079dc7f41461042d5780630971823f14610440575b600080fd5b610405610400366004613bf1565b610a16565b6040519081526020015b60405180910390f35b61042b610426366004613d51565b610abe565b005b61040561043b366004613e4c565b610ccf565b61040561044e366004613c81565b610d71565b610466610461366004613da5565b610ecc565b60405161040f9190613f22565b610496610481366004613da5565b600c6020526000908152604090205460ff1681565b604051901515815260200161040f565b6104966104b4366004613bb9565b60246020526000908152604090205460ff1681565b61040560025481565b6104056104e0366004613da5565b60156020526000908152604090205481565b61042b610500366004613c81565b61106e565b61042b610513366004613d1a565b6112b5565b61042b610526366004613da5565b611603565b61040560035481565b610405610542366004613da5565b61174c565b610405610555366004613bb9565b611765565b61042b610568366004613da5565b6117b6565b610405600a5481565b610589610584366004613da5565b61192d565b60405161040f9190613f85565b6025546105a990600160a060020a031681565b604051600160a060020a03909116815260200161040f565b6104056105cf366004613da5565b601f6020526000908152604090205481565b61040560015481565b6104056105f8366004613bb9565b60186020526000908152604090205481565b610466610618366004613da5565b6119c7565b61063061062b366004613da5565b611b34565b60405161040f929190613f63565b6007546105a990600160a060020a031681565b61040561065f366004613da5565b60146020526000908152604090205481565b6105a961067f366004613da5565b611cb3565b610496610692366004613c81565b602160209081526000928352604080842090915290825290205460ff1681565b6104056106c0366004613c41565b611cdd565b6107056106d3366004613c41565b601a60209081526000938452604080852082529284528284209052825290208054600182015460029092015490919083565b6040805193845260208401929092529082015260600161040f565b61040561072e366004613bb9565b601c6020526000908152604090205481565b61042b611d79565b610405610756366004613bb9565b601e6020526000908152604090205481565b61040560265481565b61042b61077f366004613d1a565b611db2565b61040560195481565b6008546105a990600160a060020a031681565b6104966107ae366004613da5565b60226020526000908152604090205460ff1681565b61042b6107d1366004613d51565b6120db565b61042b6107e4366004613dd5565b6122be565b600054600160a060020a03166105a9565b61080d610808366004613da5565b612627565b60405161040f929190613f35565b610705610829366004613c81565b601b60209081526000928352604080842090915290825290208054600182015460029092015490919083565b61042b610863366004613bb9565b612901565b610405610876366004613da5565b60096020526000908152604090205481565b610466610896366004613da5565b61295d565b6027546105a990600160a060020a031681565b6006546105a990600160a060020a031681565b61042b6108cf366004613bb9565b612ab7565b6104966108e2366004613d51565b60208080526000938452604080852082529284528284209052825290205460ff1681565b61042b610914366004613e6d565b612b13565b610405610927366004613da5565b60056020526000908152604090205481565b610466610947366004613da5565b612b96565b61040561095a366004613da5565b60166020526000908152604090205481565b61040560135481565b61042b610983366004613da5565b612e5f565b610405610996366004613c81565b612ea7565b61042b6109a9366004613c81565b612fc7565b61040560045481565b61042b6109c5366004613da5565b6130d9565b61042b6109d8366004613bb9565b61310b565b61042b6109eb366004613cd9565b6131c3565b6107056109fe366004613c81565b613425565b610466610a11366004613da5565b613467565b600160a060020a0380831660009081526012602090815260408083208584528252808320548885168452601a835281842094881684529382528083208484528252808320815160608101835281548082526001830154948201949094526002909101549181019190915291929190610a8d4261174c565b610a9a836040015161174c565b1015610ab3576020820151610ab0908290613520565b90505b979650505050505050565b600a54600090815260096020526040902054421015610afb5760405160e560020a62461bcd028152600401610af29061408a565b60405180910390fd5b600a546000908152600960205260409020544290610b1c9062093a80613520565b1015610b3d5760405160e560020a62461bcd028152600401610af2906140c1565b600160a060020a038316600090815260126020908152604080832085845290915290205483908390610b845760405160e560020a62461bcd028152600401610af2906140f8565b33610b8e81611765565b600160a060020a038216600090815260236020526040812091909155610bb333613533565b9050848111610c075760405160e560020a62461bcd02815260206004820152601b60248201527f496e73756666696369656e7420626f6e6465642062616c616e636500000000006044820152606401610af2565b610c133388888861358f565b600160a060020a0387166000908152601260209081526040808320898452825280832054338452601b8352818420818552909252909120610c534261174c565b610c60826002015461174c565b1015610c805760018101548154610c7691613520565b8155600060018201555b6001810154610c8f9088613520565b6001820155426002820155336000908152601c6020526040902054610cb49088613520565b336000908152601c6020526040902055505050505050505050565b600080805b6000858152600d6020526040902054811015610d67576000858152600d60205260408120805483908110610d1b5760e060020a634e487b7102600052603260045260246000fd5b60009182526020808320600490920290910154878352600e82526040808420828552909252912054909150610d51908490613520565b9250508080610d5f906141fe565b915050610cd4565b5090505b92915050565b600080610d7d83613467565b90506000610d8a846119c7565b9050600080610d984261174c565b905060005b8451811015610ec05781858281518110610dca5760e060020a634e487b7102600052603260045260246000fd5b602002602001015110610ddc57610ec0565b6000610e9e670de0b6b3a7640000610e98878581518110610e105760e060020a634e487b7102600052603260045260246000fd5b6020026020010151601060008e600160a060020a0316600160a060020a0316815260200190815260200160002060008d815260200190815260200160002060008b8881518110610e735760e060020a634e487b7102600052603260045260246000fd5b60200260200101518152602001908152602001600020546137e490919063ffffffff16565b906137f0565b9050610eaa8482613520565b9350508080610eb8906141fe565b915050610d9d565b50909695505050505050565b6000818152600d60209081526040808320805482518185028101850190935280835260609493849084015b82821015610f5b576000848152602090819020604080516080810182526004860290920180548352600180820154600160a060020a039081168587015260028301549385019390935260039091015490911660608301529083529092019101610ef7565b505050509050805167ffffffffffffffff811115610f8c5760e060020a634e487b7102600052604160045260246000fd5b604051908082528060200260200182016040528015610fb5578160200160208202803683370190505b509150600080610fc485611b34565b909250905080156110665760005b83518110156110645761102482610e98670de0b6b3a764000086858151811061100e5760e060020a634e487b7102600052603260045260246000fd5b60200260200101516137e490919063ffffffff16565b8582815181106110475760e060020a634e487b7102600052603260045260246000fd5b60209081029190910101528061105c816141fe565b915050610fd2565b505b505050919050565b600a546000908152600960205260409020544210156110a25760405160e560020a62461bcd028152600401610af29061408a565b600a5460009081526009602052604090205442906110c39062093a80613520565b10156110e45760405160e560020a62461bcd028152600401610af2906140c1565b600160a060020a03821660009081526012602090815260408083208484529091529020548290829061112b5760405160e560020a62461bcd028152600401610af2906140f8565b3361113581611765565b600160a060020a038281166000908152602360205260408082209390935560275460265493517fc7b1e3f20000000000000000000000000000000000000000000000000000000081526004810194909452336024850152909291169063c7b1e3f290604401602060405180830381600087803b1580156111b457600080fd5b505af11580156111c8573d6000803e3d6000fd5b505050506040513d601f19601f820116820180604052508101906111ec9190613dbd565b90506111fa3387878461358f565b600160a060020a0386166000908152601260209081526040808320888452825280832054338452601b835281842081855290925290912061123a4261174c565b611247826002015461174c565b1015611267576001810154815461125d91613520565b8155600060018201555b60018101546112769084613520565b6001820155426002820155336000908152601c602052604090205461129b9084613520565b336000908152601c60205260409020555050505050505050565b816000805b6017548110156113285782600160a060020a0316601782815481106112f25760e060020a634e487b7102600052603260045260246000fd5b600091825260209091200154600160a060020a031614156113165760019150611328565b80611320816141fe565b9150506112ba565b50806113795760405160e560020a62461bcd02815260206004820152601260248201527f496e76616c696420566f746520546f6b656e00000000000000000000000000006044820152606401610af2565b600a546000908152600960205260409020544210156113ad5760405160e560020a62461bcd028152600401610af29061408a565b600a5460009081526009602052604090205442906113ce9062093a80613520565b10156113ef5760405160e560020a62461bcd028152600401610af2906140c1565b600160a060020a0386166000908152601260209081526040808320888452909152902054869086906114365760405160e560020a62461bcd028152600401610af2906140f8565b3361144081611765565b600160a060020a038216600090815260236020526040902055856114a95760405160e560020a62461bcd02815260206004820152600e60248201527f416d6f756e74206973207a65726f0000000000000000000000000000000000006044820152606401610af2565b60006114b588886137fc565b90506114c3338b8b8461358f565b6040517f23b872dd00000000000000000000000000000000000000000000000000000000815233600482015230602482015260448101889052600160a060020a038916906323b872dd90606401602060405180830381600087803b15801561152a57600080fd5b505af115801561153e573d6000803e3d6000fd5b505050506040513d601f19601f820116820180604052508101906115629190613d85565b50600160a060020a03808b1660009081526012602090815260408083208d8452825280832054338452601a8352818420948d16845293825280832084845290915290206115ae4261174c565b6115bb826002015461174c565b10156115db57600181015481546115d191613520565b8155600060018201555b60018101546115ea908a613520565b6001820155426002909101555050505050505050505050565b3361160d81611765565b600160a060020a03821660009081526023602052604081209190915561163233613533565b90508281116116865760405160e560020a62461bcd02815260206004820152601b60248201527f496e73756666696369656e7420626f6e6465642062616c616e636500000000006044820152606401610af2565b336000818152601d60209081526040808320815160608101835288815242818501908152818401868152835460018181018655948852868820935160039091029093019283559051928201929092559051600290910155928252601e905220546116f09084613520565b336000818152601e6020526040908190209290925590517f7659747cd8571f1071eea946fdc648adcf181cad916f32a05f82c3a5259760489061173f9086904290918252602082015260400190565b60405180910390a2505050565b6000610d6b61175e8362015180613828565b8390613834565b60008060015b600a5481116117af5761179b6117818583612ea7565b61179561178e8785610d71565b8590613520565b90613520565b9150806117a7816141fe565b91505061176b565b5092915050565b336117c081611765565b600160a060020a038216600090815260236020908152604080832093909355338252601d905290812080548490811061180c5760e060020a634e487b7102600052603260045260246000fd5b90600052602060002090600302019050600061184462015180610e98611835856001015461174c565b61183e4261174c565b90613834565b90506000611864603c610e988560000154856137e490919063ffffffff16565b9050600061187f84600201548361383490919063ffffffff16565b600285018390556007546040517fc8773af200000000000000000000000000000000000000000000000000000000815233600482015260248101839052919250600160a060020a03169063c8773af290604401602060405180830381600087803b1580156118ec57600080fd5b505af1158015611900573d6000803e3d6000fd5b505050506040513d601f19601f820116820180604052508101906119249190613dbd565b50505050505050565b600b6020526000908152604090208054611946906141c6565b80601f0160208091040260200160405190810160405280929190818152602001828054611972906141c6565b80156119bf5780601f10611994576101008083540402835291602001916119bf565b820191906000526020600020905b8154815290600101906020018083116119a257829003601f168201915b505050505081565b606060006119d483613467565b905060006119e184612627565b915050815167ffffffffffffffff811115611a0f5760e060020a634e487b7102600052604160045260246000fd5b604051908082528060200260200182016040528015611a38578160200160208202803683370190505b50925060005b825181101561106657611a504261174c565b838281518110611a735760e060020a634e487b7102600052603260045260246000fd5b60200260200101511115611a8657611066565b6000611abc86858481518110611aaf5760e060020a634e487b7102600052603260045260246000fd5b6020026020010151610ccf565b90508015611b2157611af181610e9860025486868151811061100e5760e060020a634e487b7102600052603260045260246000fd5b858381518110611b145760e060020a634e487b7102600052603260045260246000fd5b6020026020010181815250505b5080611b2c816141fe565b915050611a3e565b6000818152600d60205260408120546060919067ffffffffffffffff811115611b705760e060020a634e487b7102600052604160045260246000fd5b604051908082528060200260200182016040528015611b99578160200160208202803683370190505b50915060005b6000848152600d6020526040902054811015611cad576008546000858152600b602052604080822090517fe3c6623d0000000000000000000000000000000000000000000000000000000081529192600160a060020a03169163e3c6623d91611c0c918690600401613fd8565b604080518083038186803b158015611c2357600080fd5b505afa158015611c37573d6000803e3d6000fd5b505050506040513d601f19601f82011682018060405250810190611c5b9190613cac565b91505080848381518110611c825760e060020a634e487b7102600052603260045260246000fd5b6020908102919091010152611c978382613520565b9250508080611ca5906141fe565b915050611b9f565b50915091565b60178181548110611cc357600080fd5b600091825260209091200154600160a060020a0316905081565b600160a060020a0380831660009081526012602090815260408083208584528252808320549387168352601b82528083208484528252808320815160608101835281548082526001830154948201949094526002909101549181019190915291929190611d494261174c565b611d56836040015161174c565b1015611d6f576020820151611d6c908290613520565b90505b9695505050505050565b600054600160a060020a03163314611da65760405160e560020a62461bcd028152600401610af29061412f565b611db06000613840565b565b816000805b601754811015611e255782600160a060020a031660178281548110611def5760e060020a634e487b7102600052603260045260246000fd5b600091825260209091200154600160a060020a03161415611e135760019150611e25565b80611e1d816141fe565b915050611db7565b5080611e765760405160e560020a62461bcd02815260206004820152601260248201527f496e76616c696420566f746520546f6b656e00000000000000000000000000006044820152606401610af2565b600160a060020a038616600090815260126020908152604080832088845290915290205486908690611ebd5760405160e560020a62461bcd028152600401610af2906140f8565b33611ec781611765565b600160a060020a03821660009081526023602052604090205585611f305760405160e560020a62461bcd02815260206004820152600e60248201527f416d6f756e74206973207a65726f0000000000000000000000000000000000006044820152606401610af2565b6000611f3e33898c8c610a16565b905086811015611f935760405160e560020a62461bcd02815260206004820152601460248201527f496e73756666696369656e742062616c616e63650000000000000000000000006044820152606401610af2565b6000611f9f89896137fc565b9050611fad338c8c8461389d565b6040517fa9059cbb00000000000000000000000000000000000000000000000000000000815233600482015260248101899052600160a060020a038a169063a9059cbb90604401602060405180830381600087803b15801561200e57600080fd5b505af1158015612022573d6000803e3d6000fd5b505050506040513d601f19601f820116820180604052508101906120469190613d85565b50600160a060020a03808c1660009081526012602090815260408083208e8452825280832054338452601a8352818420948e16845293825280832084845290915290206120924261174c565b61209f826002015461174c565b10156120bf57600181015481546120b591613520565b8155600060018201555b80546120cb908b613834565b9055505050505050505050505050565b600a5460009081526009602052604090205442101561210f5760405160e560020a62461bcd028152600401610af29061408a565b600a5460009081526009602052604090205442906121309062093a80613520565b10156121515760405160e560020a62461bcd028152600401610af2906140c1565b600160a060020a0383166000908152601260209081526040808320858452909152902054839083906121985760405160e560020a62461bcd028152600401610af2906140f8565b336121a281611765565b600160a060020a0382166000908152602360205260408120919091556121c9338888611cdd565b905084811161221d5760405160e560020a62461bcd02815260206004820152601e60248201527f496e73756666696369656e7420756e766f7461626c652062616c616e636500006044820152606401610af2565b6122293388888861389d565b600160a060020a0387166000908152601260209081526040808320898452825280832054338452601b83528184208185529092529091206122694261174c565b612276826002015461174c565b1015612296576001810154815461228c91613520565b8155600060018201555b80546122a29088613834565b8155336000908152601c6020526040902054610cb49088613834565b600054600160a060020a031633146122eb5760405160e560020a62461bcd028152600401610af29061412f565b82811461233d5760405160e560020a62461bcd02815260206004820152600e60248201527f496e76616c696420706172616d730000000000000000000000000000000000006044820152606401610af2565b6000858152600d60205260408120905b848110156119245760138054906000612365836141fe565b9190505550601354601260008888858181106123945760e060020a634e487b7102600052603260045260246000fd5b90506020020160208101906123a99190613bb9565b600160a060020a0316600160a060020a0316815260200190815260200160002060008686858181106123ee5760e060020a634e487b7102600052603260045260246000fd5b90506020020135815260200190815260200160002081905550600086868381811061242c5760e060020a634e487b7102600052603260045260246000fd5b90506020020160208101906124419190613bb9565b600160a060020a0316636352211e8686858181106124725760e060020a634e487b7102600052603260045260246000fd5b905060200201356040518263ffffffff167c01000000000000000000000000000000000000000000000000000000000281526004016124b391815260200190565b60206040518083038186803b1580156124cb57600080fd5b505afa1580156124df573d6000803e3d6000fd5b505050506040513d601f19601f820116820180604052508101906125039190613bd5565b9050826040518060800160405280601354815260200189898681811061253c5760e060020a634e487b7102600052603260045260246000fd5b90506020020160208101906125519190613bb9565b600160a060020a031681526020018787868181106125825760e060020a634e487b7102600052603260045260246000fd5b60209081029290920135835250600160a060020a03948516918101919091528254600181810185556000948552828520845160049093020191825583830151908201805491871673ffffffffffffffffffffffffffffffffffffffff199283161790556040808501516002840155606090940151600390920180549290961691161790935560135482526016909252208790558061261f816141fe565b91505061234d565b606080600061263584613467565b9050805167ffffffffffffffff8111156126625760e060020a634e487b7102600052604160045260246000fd5b60405190808252806020026020018201604052801561268b578160200160208202803683370190505b509250805167ffffffffffffffff8111156126b95760e060020a634e487b7102600052604160045260246000fd5b6040519080825280602002602001820160405280156126e2578160200160208202803683370190505b50915060005b81518110156128fa57600061271a86848481518110611aaf5760e060020a634e487b7102600052603260045260246000fd5b60008781526005602052604090205490915061274290610e9883670de0b6b3a76400006137e4565b8583815181106127655760e060020a634e487b7102600052603260045260246000fd5b602002602001018181525050670429d069189e000085838151811061279d5760e060020a634e487b7102600052603260045260246000fd5b602002602001015110156127e8576702c68af0bb1400008483815181106127d75760e060020a634e487b7102600052603260045260246000fd5b6020026020010181815250506128e7565b670429d069189e00008583815181106128145760e060020a634e487b7102600052603260045260246000fd5b60200260200101511015801561285b57506709b6e64a8ec600008583815181106128515760e060020a634e487b7102600052603260045260246000fd5b6020026020010151105b156128ae578482815181106128835760e060020a634e487b7102600052603260045260246000fd5b60200260200101518483815181106127d75760e060020a634e487b7102600052603260045260246000fd5b670de0b6b3a76400008483815181106128da5760e060020a634e487b7102600052603260045260246000fd5b6020026020010181815250505b50806128f2816141fe565b9150506126e8565b5050915091565b600054600160a060020a0316331461292e5760405160e560020a62461bcd028152600401610af29061412f565b6008805473ffffffffffffffffffffffffffffffffffffffff1916600160a060020a0392909216919091179055565b6000818152600d602052604090205460609067ffffffffffffffff8111156129985760e060020a634e487b7102600052604160045260246000fd5b6040519080825280602002602001820160405280156129c1578160200160208202803683370190505b50905060005b6000838152600d6020526040902054811015612ab15760008381526014602052604090205415612a9f57600083815260146020908152604080832054600354600d9093529083208054612a6f949293610e9893909260159288908110612a405760e060020a634e487b7102600052603260045260246000fd5b9060005260206000209060040201600001548152602001908152602001600020546137e490919063ffffffff16565b828281518110612a925760e060020a634e487b7102600052603260045260246000fd5b6020026020010181815250505b80612aa9816141fe565b9150506129c7565b50919050565b600054600160a060020a03163314612ae45760405160e560020a62461bcd028152600401610af29061412f565b6025805473ffffffffffffffffffffffffffffffffffffffff1916600160a060020a0392909216919091179055565b600054600160a060020a03163314612b405760405160e560020a62461bcd028152600401610af29061412f565b600a8054906000612b50836141fe565b9091555050600a80546000908152600960209081526040808320879055835483526005825280832088905592548252600b905220612b8f908383613ad7565b5050505050565b60606000612ba383610ecc565b90506000600d6000858152602001908152602001600020805480602002602001604051908101604052809291908181526020016000905b82821015612c3e576000848152602090819020604080516080810182526004860290920180548352600180820154600160a060020a039081168587015260028301549385019390935260039091015490911660608301529083529092019101612bda565b505050509050805167ffffffffffffffff811115612c6f5760e060020a634e487b7102600052604160045260246000fd5b604051908082528060200260200182016040528015612c98578160200160208202803683370190505b5092506000612ca685612627565b9150506000612d03670de0b6b3a7640000610e988460018651612cc991906141af565b81518110612cea5760e060020a634e487b7102600052603260045260246000fd5b60200260200101516004546137e490919063ffffffff16565b905060005b8351811015612e555760156000858381518110612d385760e060020a634e487b7102600052603260045260246000fd5b60200260200101516000015181526020019081526020016000205460001415612d91576000868281518110612d805760e060020a634e487b7102600052603260045260246000fd5b602002602001018181525050612e43565b612e1360156000868481518110612dbb5760e060020a634e487b7102600052603260045260246000fd5b602002602001015160000151815260200190815260200160002054610e98878481518110612dfc5760e060020a634e487b7102600052603260045260246000fd5b6020026020010151856137e490919063ffffffff16565b868281518110612e365760e060020a634e487b7102600052603260045260246000fd5b6020026020010181815250505b80612e4d816141fe565b915050612d08565b5050505050919050565b600054600160a060020a03163314612e8c5760405160e560020a62461bcd028152600401610af29061412f565b6000908152600c60205260409020805460ff19166001179055565b6000818152600c602052604081205460ff16612ec557506000610d6b565b600080612ed184612b96565b905060005b6000858152600d6020526040902054811015612fbd57600160a060020a0386166000908152601160209081526040808320888452600d9092528220805483919085908110612f375760e060020a634e487b7102600052603260045260246000fd5b9060005260206000209060040201600001548152602001908152602001600020549050612fa784611795670de0b6b3a7640000610e98878781518110612f905760e060020a634e487b7102600052603260045260246000fd5b6020026020010151866137e490919063ffffffff16565b9350508080612fb5906141fe565b915050612ed6565b5090949350505050565b600054600160a060020a03163314612ff45760405160e560020a62461bcd028152600401610af29061412f565b600160a060020a03821660009081526018602052604081208290555b60175481101561307a5782600160a060020a0316601782815481106130485760e060020a634e487b7102600052603260045260246000fd5b600091825260209091200154600160a060020a0316141561306857505050565b80613072816141fe565b915050613010565b50601780546001810182556000919091527fc624b66cc0138b8fabc209247f72d758e1cf3343756d543badbf24212bed8c15018054600160a060020a03841673ffffffffffffffffffffffffffffffffffffffff199091161790555050565b600054600160a060020a031633146131065760405160e560020a62461bcd028152600401610af29061412f565b602655565b600054600160a060020a031633146131385760405160e560020a62461bcd028152600401610af29061412f565b600160a060020a0381166131b75760405160e560020a62461bcd02815260206004820152602660248201527f4f776e61626c653a206e6577206f776e657220697320746865207a65726f206160448201527f64647265737300000000000000000000000000000000000000000000000000006064820152608401610af2565b6131c081613840565b50565b602554600160a060020a031633146132205760405160e560020a62461bcd02815260206004820152600960248201527f466f7262696464656e00000000000000000000000000000000000000000000006044820152606401610af2565b600160a060020a03831660009081526012602090815260408083208584528252808320548084526016835281842054602290935292205460ff16156132aa5760405160e560020a62461bcd02815260206004820152600760248201527f436c61696d6564000000000000000000000000000000000000000000000000006044820152606401610af2565b6000805b6000838152600d602052604090205481101561335c576000838152600d602052604090208054859190839081106132f85760e060020a634e487b7102600052603260045260246000fd5b906000526020600020906004020160000154141561334a576133198361295d565b818151811061333b5760e060020a634e487b7102600052603260045260246000fd5b6020026020010151915061335c565b80613354816141fe565b9150506132ae565b50801561341d576007546040517fc8773af2000000000000000000000000000000000000000000000000000000008152600160a060020a038681166004830152602482018490529091169063c8773af290604401602060405180830381600087803b1580156133ca57600080fd5b505af11580156133de573d6000803e3d6000fd5b505050506040513d601f19601f820116820180604052508101906134029190613dbd565b506000838152602260205260409020805460ff191660011790555b505050505050565b601d602052816000526040600020818154811061344157600080fd5b600091825260209091206003909102018054600182015460029092015490935090915083565b600081815260096020526040908190205481516007808252610100820190935260609281602001602082028036833701905050915060006134a78261174c565b905060005b6007811015611066576134e06134c3826018614190565b6134ce90603c614190565b6134d990603c614190565b8390613520565b8482815181106135035760e060020a634e487b7102600052603260045260246000fd5b602090810291909101015280613518816141fe565b9150506134ac565b600061352c8284614164565b9392505050565b600160a060020a038116600090815260236020908152604080832054601e835281842054601c909352908320549091839161356d91613520565b905080821161357d576000613587565b6135878282613834565b949350505050565b600061359a4261174c565b905060006135a9600a54613467565b600160a060020a03861660009081526012602090815260408083208884529091528120549192505b825181101561378557838382815181106135fe5760e060020a634e487b7102600052603260045260246000fd5b6020026020010151106137735760008382815181106136305760e060020a634e487b7102600052603260045260246000fd5b6020908102919091018101516000818152600e8352604080822087835290935291909120549091506136629087613520565b6000828152600e60209081526040808320878452825280832093909355600160a060020a038c168252600f81528282208483528152828220868352905220546136ab9087613520565b600160a060020a038a166000818152600f60209081526040808320868452825280832088845282528083209490945591815260108252828120600a548252825282812084825290915220546137009087613520565b600160a060020a038a166000818152601060209081526040808320600a548452825280832086845282528083209490945591815260118252828120868252909152205461374d9087613520565b600160a060020a038a166000908152601160209081526040808320878452909152902055505b8061377d816141fe565b9150506135d1565b5060008181526015602052604090205461379f9085613520565b600082815260156020908152604080832093909355600a5482526014905220546137c99085613520565b600a5460009081526014602052604090205550505050505050565b600061352c8284614190565b600061352c828461417c565b601954600160a060020a038316600090815260186020526040812054909161352c91610e9890856137e4565b600061352c8284614219565b600061352c82846141af565b60008054600160a060020a0383811673ffffffffffffffffffffffffffffffffffffffff19831681178455604051919092169283917f8be0079c531659141344cd1fd0a4f28419497f9722a3daafe3b4186f6b6457e09190a35050565b60006138a84261174c565b905060006138b7600a54613467565b600160a060020a03861660009081526012602090815260408083208884529091528120549192505b8251811015613a93578383828151811061390c5760e060020a634e487b7102600052603260045260246000fd5b602002602001015110613a8157600083828151811061393e5760e060020a634e487b7102600052603260045260246000fd5b6020908102919091018101516000818152600e8352604080822087835290935291909120549091506139709087613834565b6000828152600e60209081526040808320878452825280832093909355600160a060020a038c168252600f81528282208483528152828220868352905220546139b99087613834565b600160a060020a038a166000818152600f60209081526040808320868452825280832088845282528083209490945591815260108252828120600a54825282528281208482529091522054613a0e9087613834565b600160a060020a038a166000818152601060209081526040808320600a5484528252808320868452825280832094909455918152601182528281208682529091522054613a5b9087613834565b600160a060020a038a166000908152601160209081526040808320878452909152902055505b80613a8b816141fe565b9150506138df565b50600081815260156020526040902054613aad9085613834565b600082815260156020908152604080832093909355600a5482526014905220546137c99085613834565b828054613ae3906141c6565b90600052602060002090601f016020900481019282613b055760008555613b4b565b82601f10613b1e5782800160ff19823516178555613b4b565b82800160010185558215613b4b579182015b82811115613b4b578235825591602001919060010190613b30565b50613b57929150613b5b565b5090565b5b80821115613b575760008155600101613b5c565b60008083601f840112613b81578182fd5b50813567ffffffffffffffff811115613b98578182fd5b6020830191508360208083028501011115613bb257600080fd5b9250929050565b600060208284031215613bca578081fd5b813561352c8161425f565b600060208284031215613be6578081fd5b815161352c8161425f565b60008060008060808587031215613c06578283fd5b8435613c118161425f565b93506020850135613c218161425f565b92506040850135613c318161425f565b9396929550929360600135925050565b600080600060608486031215613c55578283fd5b8335613c608161425f565b92506020840135613c708161425f565b929592945050506040919091013590565b60008060408385031215613c93578182fd5b8235613c9e8161425f565b946020939093013593505050565b60008060408385031215613cbe578182fd5b8251613cc98161425f565b6020939093015192949293505050565b600080600060608486031215613ced578283fd5b8335613cf88161425f565b9250602084013591506040840135613d0f8161425f565b809150509250925092565b60008060008060808587031215613d2f578384fd5b8435613d3a8161425f565b9350602085013592506040850135613c318161425f565b600080600060608486031215613d65578283fd5b8335613d708161425f565b95602085013595506040909401359392505050565b600060208284031215613d96578081fd5b8151801515811461352c578182fd5b600060208284031215613db6578081fd5b5035919050565b600060208284031215613dce578081fd5b5051919050565b600080600080600060608688031215613dec578081fd5b85359450602086013567ffffffffffffffff80821115613e0a578283fd5b613e1689838a01613b70565b90965094506040880135915080821115613e2e578283fd5b50613e3b88828901613b70565b969995985093965092949392505050565b60008060408385031215613e5e578182fd5b50508035926020909101359150565b60008060008060608587031215613e82578182fd5b8435935060208501359250604085013567ffffffffffffffff80821115613ea7578384fd5b818701915087601f830112613eba578384fd5b813581811115613ec8578485fd5b886020828501011115613ed9578485fd5b95989497505060200194505050565b6000815180845260208085019450808401835b83811015613f1757815187529582019590820190600101613efb565b509495945050505050565b60208152600061352c6020830184613ee8565b604081526000613f486040830185613ee8565b8281036020840152613f5a8185613ee8565b95945050505050565b604081526000613f766040830185613ee8565b90508260208301529392505050565b6000602080835283518082850152825b81811015613fb157858101830151858201604001528201613f95565b81811115613fc25783604083870101525b50601f01601f1916929092016040019392505050565b604081528254600090819060028104600180831680613ff857607f831692505b602080841082141561401b5760e060020a634e487b710287526022600452602487fd5b604088018490526060880182801561403a576001811461404b57614075565b60ff19871682528282019750614075565b60008c815260209020895b8781101561406f57815484820152908601908401614056565b83019850505b50509690960196909652509095945050505050565b60208082526013908201527f566f74696e67206973206e6f7420737461727400000000000000000000000000604082015260600190565b6020808252600e908201527f566f74696e67206973206f766572000000000000000000000000000000000000604082015260600190565b6020808252600b908201527f496e76616c6964204e4654000000000000000000000000000000000000000000604082015260600190565b6020808252818101527f4f776e61626c653a2063616c6c6572206973206e6f7420746865206f776e6572604082015260600190565b600082198211156141775761417761422d565b500190565b60008261418b5761418b614246565b500490565b60008160001904831182151516156141aa576141aa61422d565b500290565b6000828210156141c1576141c161422d565b500390565b6002810460018216806141da57607f821691505b60208210811415612ab15760e060020a634e487b7102600052602260045260246000fd5b60006000198214156142125761421261422d565b5060010190565b60008261422857614228614246565b500690565b60e060020a634e487b7102600052601160045260246000fd5b60e060020a634e487b7102600052601260045260246000fd5b600160a060020a03811681146131c057600080fdfea264697066735822122076dc41a19c1256799ecf1904f90d85aaddbda9a05ac72a0dd7a487b9c39e2b1764736f6c63430008040033",
  "immutableReferences": {},
  "source": "// SPDX-License-Identifier: MIT\npragma solidity ^0.8.0;\n\nimport \"@openzeppelin/contracts/access/Ownable.sol\";\nimport \"@openzeppelin/contracts/utils/math/SafeMath.sol\";\nimport \"@openzeppelin/contracts/token/ERC20/IERC20.sol\";\nimport \"@openzeppelin/contracts/token/ERC721/IERC721.sol\";\n\n\ninterface ITreasury {\n\tfunction sendRewards(address to, uint256 amount) external returns(uint256 val);\n\tfunction uink() external view returns(address);\n}\n\ninterface IAuction {\n\tfunction matchResults(string calldata matchId, uint index) external view returns(address, uint);\n}\n\ninterface ITokenLocker {\n\tfunction subLockForVote(uint256 lockId, address accountAddress) external returns(uint);\n}\n\n\ncontract VoteMining is Ownable {\n\tusing SafeMath for uint256;\n\n\tuint public weeklyCap = 50000 * 1e18;\n\tuint public dailyVoteRewardCap = weeklyCap / 7 / 4; // 25% of daily cap \n\tuint public dailyMintRewardCap = weeklyCap / 7 / 4; // 25% of daily cap \n\tuint public bonusCap = weeklyCap  / 2; // 50% of weekly cap\n\t// group id => amount\n\tmapping (uint => uint) public stakingBases;\n\n\n\taddress public uink;\n\tITreasury public treasury;\n\taddress public auction;\n\n\tstruct NFT {\n\t\tuint uid;\n\t\taddress addr;\n\t\tuint id;\n\t\taddress owner;\n\t}\n\t// id => start time\n\tmapping (uint => uint) public groups;\n\tuint public currentGroupId = 0;\n\t// group id => matchId\n\tmapping (uint => string) public matches;\n\t// group id => finished or not\n\tmapping (uint => bool) public hasFinished;\n\t\n\t\n\t// group id => NFT[]\n\tmapping (uint => NFT[]) groupNFTs;\n\n\t// date => NFT uid => votes\n\tmapping (uint => mapping (uint => uint)) dayVotes;\n\n\t// user => date => NFT id => amount\n\tmapping (address => mapping (uint => mapping (uint => uint))) userVotes;\n\n\t// user => groupId => date => votes\n\tmapping (address => mapping (uint => mapping (uint => uint))) userDailyVotes;\n\n\t// user => nft uid => votes \n\tmapping (address => mapping (uint => uint)) userNFTVotes;\n\t\n\n\t// nft address => nftId => internal id\n\tmapping (address => mapping (uint => uint)) nfts;\n\tuint public nextNFTId = 0;\n\n\t// group id => votes\n\tmapping (uint => uint) public groupVotes;\n\n\t// uid => votes\n\tmapping (uint => uint) public nftVotes;\n\n\t// date => votes\n\t// mapping (uint => uint) public dailyTotalVotes;\n\t\n\n\t// uid => group id\n\tmapping (uint => uint) public nftGroup;\n\t\n\taddress[] public voteTokens;\n\t// token => ratio\n\tmapping (address => uint) public voteRatio;\n\n\tuint public voteRatioMax = 10000;\n\t\n\n\tstruct Balance {\n\t\tuint available;\n\t\tuint freezed;\n\t\tuint votedAt;\n\t}\n\n\tstruct UnbondingBalance {\n\t\tuint value;\n\t\tuint unbondedAt;\n\t\tuint redeemed;\n\t}\n\n\t// user => token => uid => Balance\n\tmapping (address => mapping (address => mapping (uint => Balance))) public balances;\n\n\t// user => uid => Balance\n\tmapping (address => mapping (uint => Balance)) public votedBalances; // bonded voted balance\n\t\n\t// user => bonded amount\n\tmapping (address => uint) public totalVotedBalances;\n\n\t// user => UnbondingBalance[]\n\tmapping (address => UnbondingBalance[]) public unbondingBalances;\n\t\n\t// user => total unbonded amount\n\tmapping (address => uint) public unbondedBalances;\n\t\n\n\t\n\t// uid => price\n\tmapping (uint => uint) public nftTradedPrices;\n\t// user => group => date => bool\n\tmapping (address => mapping (uint => mapping (uint => bool))) public voteRewardsClaimed;\n\t// user = > group id => bool\n\tmapping (address => mapping (uint => bool)) public bonusRewardsClaimed;\n\t// nft uid => bool\n\tmapping (uint => bool) public mintRewardsClaimed;\n\n\tmapping (address => uint) private userRewards;\n\t\n\t\n\n\tmapping (address => bool) public operators;\n\n\taddress public pinAddress;\n\n\tuint public tokenLockId = 0;\n\n\taddress public tokenLocker;\n\n\tevent Unbond(address indexed user, uint amount, uint at);\n\t\n\n\tmodifier checkNFT(address nftAddr, uint nftId) { \n\t\trequire(nfts[nftAddr][nftId] > 0, \"Invalid NFT\");\n\t\t_; \n\t}\n\n\tmodifier onlyPin() { \n\t\trequire(msg.sender == pinAddress, \"Forbidden\"); \n\t\t_; \n\t}\n\t\n\n\tmodifier checkVotingTime() { \n\t\trequire(groups[currentGroupId] <= block.timestamp, \"Voting is not start\");\n\t\trequire(groups[currentGroupId].add(7 days) >= block.timestamp, \"Voting is over\");\n\t\t_; \n\t}\n\n\tmodifier checkVoteToken(address _token) { \n\t\tbool isValid = false;\n\t\tfor(uint i = 0; i < voteTokens.length; i++) {\n\t\t\tif(voteTokens[i] == _token) {\n\t\t\t\tisValid = true;\n\t\t\t\tbreak;\n\t\t\t}\n\t\t}\n\t\trequire(isValid, \"Invalid Vote Token\");\n\t\t_; \n\t}\n\n\tmodifier updateReward(address user) {\n\t\tuserRewards[user] = getTotalRewards(user);\n\t\t_; \n\t}\n\t\n\n\tconstructor(address _treasury, address _tokenLocker){\n\t\ttreasury = ITreasury(_treasury);\n\t\tuink = treasury.uink();\n\t\ttokenLocker = _tokenLocker;\n\n\t\tvoteTokens.push(uink);\n\t\tvoteRatio[uink] = voteRatioMax;\n\t}\n\n\tfunction addVoteToken(address _token, uint _ratio) external onlyOwner {\n\t\tvoteRatio[_token] = _ratio;\n\t\tfor(uint i = 0; i < voteTokens.length; i++) {\n\t\t\tif(voteTokens[i] == _token) {\n\t\t\t\treturn;\n\t\t\t}\n\t\t}\n\t\tvoteTokens.push(_token);\n\t}\n\n\tfunction setAuctionAddress(address _auction) external onlyOwner {\n\t\tauction = _auction;\n\t}\n\n\tfunction setPinAddress(address _pin) external onlyOwner {\n\t\tpinAddress = _pin;\n\t}\n\n\tfunction setTokenLockId(uint lockId) external onlyOwner {\n\t\ttokenLockId = lockId;\n\t}\n\n\tfunction addGroup(uint stakingBase, uint startTime, string calldata matchId) external onlyOwner {\n\t\tcurrentGroupId++;\n\t\tgroups[currentGroupId] = startTime;\n\t\tstakingBases[currentGroupId] = stakingBase;\n\t\tmatches[currentGroupId] = matchId;\n\t}\n\n\tfunction addNFT(uint groupId, address[] calldata nftAddrs, uint[] calldata nftIds) external onlyOwner {\n\t\trequire(nftAddrs.length == nftIds.length, \"Invalid params\");\n\t\tNFT[] storage inputNFTs = groupNFTs[groupId];\n\n\t\tfor(uint i = 0; i < nftAddrs.length; i++) {\n\t\t\tnextNFTId++;\n\t\t\tnfts[nftAddrs[i]][nftIds[i]] = nextNFTId;\n\t\t\taddress nftOwner = IERC721(nftAddrs[i]).ownerOf(nftIds[i]);\n\t\t\tinputNFTs.push(NFT({\n\t\t\t\tuid: nextNFTId,\n\t\t\t\taddr: nftAddrs[i],\n\t\t\t\tid: nftIds[i],\n\t\t\t\towner: nftOwner\n\t\t\t}));\n\t\t\tnftGroup[nextNFTId] = groupId;\n\t\t}\n\t}\n\n\tfunction getAuctionPrices(uint groupId) public view returns(uint[] memory prices, uint totalAmount) {\n\t\tprices = new uint[](groupNFTs[groupId].length);\n\t\tfor(uint i = 0; i < groupNFTs[groupId].length; i++) {\n\t\t\t(, uint price) = IAuction(auction).matchResults(matches[groupId], i);\n\t\t\tprices[i] = price;\n\t\t\ttotalAmount = totalAmount.add(price);\n\t\t}\n\t}\n\n\t\n\tfunction getDate(uint256 ts) public pure returns(uint256) {\n\t\treturn ts.sub(ts.mod(1 days));\n\t}\n\n\tfunction getVotableDates(uint groupId) public view returns(uint[] memory dates) {\n\t\tuint start = groups[groupId];\n\t\tdates = new uint[](7);\n\t\tuint firstDate = getDate(start);\n\t\tfor(uint i = 0; i < 7; i++) {\n\t\t\tdates[i] = firstDate.add(i * 24 * 60 * 60);\n\t\t}\n\t}\n\n\tfunction _vote(address user, address nftAddr, uint nftId, uint votes) internal {\n\t\tuint today = getDate(block.timestamp);\n\t\tuint[] memory dates = getVotableDates(currentGroupId);\n\t\tuint uid = nfts[nftAddr][nftId];\n\n\t\tfor(uint i = 0; i < dates.length; i++) {\n\t\t\tif(dates[i] >= today) {\n\t\t\t\tuint date = dates[i];\n\t\t\t\tdayVotes[date][uid] = dayVotes[date][uid].add(votes);\n\t\t\t\tuserVotes[user][date][uid] = userVotes[user][date][uid].add(votes);\n\t\t\t\tuserDailyVotes[user][currentGroupId][date] = userDailyVotes[user][currentGroupId][date].add(votes);\n\t\t\t\tuserNFTVotes[user][uid] = userNFTVotes[user][uid].add(votes);\n\t\t\t}\n\t\t}\n\t\tnftVotes[uid] = nftVotes[uid].add(votes);\n\t\tgroupVotes[currentGroupId] = groupVotes[currentGroupId].add(votes);\n\t}\n\n\tfunction _unvote(address user, address nftAddr, uint nftId, uint votes) internal {\n\t\tuint today = getDate(block.timestamp);\n\t\tuint[] memory dates = getVotableDates(currentGroupId);\n\t\tuint uid = nfts[nftAddr][nftId];\n\n\t\tfor(uint i = 0; i < dates.length; i++) {\n\t\t\tif(dates[i] >= today) {\n\t\t\t\tuint date = dates[i];\n\t\t\t\tdayVotes[date][uid] = dayVotes[date][uid].sub(votes);\n\t\t\t\tuserVotes[user][date][uid] = userVotes[user][date][uid].sub(votes);\n\t\t\t\tuserDailyVotes[user][currentGroupId][date] = userDailyVotes[user][currentGroupId][date].sub(votes);\n\t\t\t\tuserNFTVotes[user][uid] = userNFTVotes[user][uid].sub(votes);\n\t\t\t}\n\t\t}\n\t\tnftVotes[uid] = nftVotes[uid].sub(votes);\n\t\tgroupVotes[currentGroupId] = groupVotes[currentGroupId].sub(votes);\n\t}\n\n\tfunction calcVotes(address token, uint amount) internal view returns(uint256) {\n\t\treturn voteRatio[token].mul(amount).div(voteRatioMax);\n\t}\n\n\tfunction getAvailableBalance(address user, address token, address nftAddr, uint nftId) public view returns(uint256) {\n\t\tuint uid = nfts[nftAddr][nftId];\n\t\tBalance memory balance = balances[user][token][uid];\n\t\tuint available = balance.available;\n\t\tif(getDate(balance.votedAt) < getDate(block.timestamp)) {\n\t\t\tavailable = available.add(balance.freezed);\n\t\t}\n\t\treturn available;\n\t}\n\n\t// stake and vote\n\tfunction stake(address nftAddr, uint nftId, address token, uint amount)\n\t\texternal \n\t\tcheckVoteToken(token)\n\t\tcheckVotingTime\n\t\tcheckNFT(nftAddr, nftId)\n\t\tupdateReward(msg.sender)\n\t{\n\t\trequire(amount > 0, \"Amount is zero\");\n\t\tuint votes = calcVotes(token, amount);\n\t\t_vote(msg.sender, nftAddr, nftId, votes);\n\n\t\tIERC20(token).transferFrom(msg.sender, address(this), amount);\n\n\t\tuint uid = nfts[nftAddr][nftId];\n\n\n\t\tBalance storage balance = balances[msg.sender][token][uid];\n\t\tif(getDate(balance.votedAt) < getDate(block.timestamp)) {\n\t\t\tbalance.available = balance.available.add(balance.freezed);\n\t\t\tbalance.freezed = 0;\n\t\t}\n\t\tbalance.freezed = balance.freezed.add(amount);\n\t\tbalance.votedAt = block.timestamp;\n\t}\n\n\tfunction unstake(address nftAddr, uint nftId, address token, uint amount)\n\t\texternal \n\t\tcheckVoteToken(token)\n\t\tcheckNFT(nftAddr, nftId)\n\t\tupdateReward(msg.sender)\n\t{\n\t\trequire(amount > 0, \"Amount is zero\");\n\t\t\n\t\tuint available = getAvailableBalance(msg.sender, token, nftAddr, nftId);\n\t\trequire(available >= amount, \"Insufficient balance\");\n\n\t\tuint votes = calcVotes(token, amount);\n\t\t_unvote(msg.sender, nftAddr, nftId, votes);\n\n\t\tIERC20(token).transfer(msg.sender, amount);\n\t\tuint uid = nfts[nftAddr][nftId];\n\t\tBalance storage balance = balances[msg.sender][token][uid];\n\t\tif(getDate(balance.votedAt) < getDate(block.timestamp)) {\n\t\t\tbalance.available = balance.available.add(balance.freezed);\n\t\t\tbalance.freezed = 0;\n\t\t}\n\t\tbalance.available = balance.available.sub(amount);\n\t}\n\n\tfunction getTotalRewards(address user) public view returns(uint) {\n\t\tuint rewards = 0;\n\t\tfor(uint groupId = 1; groupId <= currentGroupId; groupId++) {\n\t\t\trewards = rewards.add(getBaseRewards(user, groupId)).add(getAuctionRewards(user, groupId));\n\t\t}\n\t\treturn rewards;\n\t}\n\n\tfunction getBaseRewards(address user, uint groupId) public view returns(uint) {\n\t\tuint[] memory dates = getVotableDates(groupId);\n\t\tuint[] memory rawardRates = getBaseRewardRates(groupId);\n\t\tuint rewards = 0;\n\t\tuint today = getDate(block.timestamp);\n\n\t\tfor(uint i = 0; i < dates.length; i++) {\n\t\t\tif(dates[i] >= today) {\n\t\t\t\tbreak;\n\t\t\t}\n\t\t\tuint dayRewards = userDailyVotes[user][groupId][dates[i]].mul(rawardRates[i]).div(1e18);\n\t\t\trewards = rewards.add(dayRewards);\n\t\t}\n\t\treturn rewards;\n\t}\n\n\tfunction getAuctionRewards(address user, uint groupId) public view returns(uint) {\n\t\tif(!hasFinished[groupId]) {\n\t\t\treturn 0;\n\t\t}\n\t\tuint rewards = 0;\n\t\tuint[] memory rewardRates = getAuctionRewardRates(groupId);\n\t\tfor(uint i = 0; i < groupNFTs[groupId].length; i++) {\n\t\t\tuint votes = userNFTVotes[user][groupNFTs[groupId][i].uid];\n\t\t\trewards = votes.mul(rewardRates[i]).div(1e18).add(rewards);\n\t\t}\n\t\treturn rewards;\n\t}\n\n\tfunction getBondedBalance(address user) internal view returns(uint) {\n\t\tuint rewards = userRewards[user];\n\t\tuint freezedBalance = totalVotedBalances[user].add(unbondedBalances[user]);\n\t\treturn rewards > freezedBalance ? rewards.sub(freezedBalance) : 0;\n\t}\n\n\tfunction getUnvotableBalance(address user, address nftAddr, uint nftId) public view returns(uint256) {\n\t\tuint uid = nfts[nftAddr][nftId];\n\t\tBalance memory balance = votedBalances[user][uid];\n\t\tuint available = balance.available;\n\t\tif(getDate(balance.votedAt) < getDate(block.timestamp)) {\n\t\t\tavailable = available.add(balance.freezed);\n\t\t}\n\t\treturn available;\n\t}\n\n\tfunction voteFromLock(address nftAddr, uint nftId) \n\t\texternal \n\t\tcheckVotingTime\n\t\tcheckNFT(nftAddr, nftId)\n\t\tupdateReward(msg.sender)\n\t{\n\n\t\tuint amount = ITokenLocker(tokenLocker).subLockForVote(tokenLockId, msg.sender);\n\t\t_vote(msg.sender, nftAddr, nftId, amount);\n\t\t\n\t\tuint uid = nfts[nftAddr][nftId];\n\t\tBalance storage votedBalance = votedBalances[msg.sender][uid];\n\n\t\tif(getDate(votedBalance.votedAt) < getDate(block.timestamp)) {\n\t\t\tvotedBalance.available = votedBalance.available.add(votedBalance.freezed);\n\t\t\tvotedBalance.freezed = 0;\n\t\t}\n\t\tvotedBalance.freezed = votedBalance.freezed.add(amount);\n\t\tvotedBalance.votedAt = block.timestamp;\n\n\t\ttotalVotedBalances[msg.sender] = totalVotedBalances[msg.sender].add(amount);\n\t}\n\n\t\n\tfunction voteBonded(address nftAddr, uint nftId, uint amount) \n\t\texternal \n\t\tcheckVotingTime\n\t\tcheckNFT(nftAddr, nftId)\n\t\tupdateReward(msg.sender)\n\t{\n\t\tuint bondedBalance = getBondedBalance(msg.sender);\n\t\trequire(bondedBalance > amount, \"Insufficient bonded balance\");\n\n\t\t_vote(msg.sender, nftAddr, nftId, amount);\n\n\t\tuint uid = nfts[nftAddr][nftId];\n\t\tBalance storage votedBalance = votedBalances[msg.sender][uid];\n\n\t\tif(getDate(votedBalance.votedAt) < getDate(block.timestamp)) {\n\t\t\tvotedBalance.available = votedBalance.available.add(votedBalance.freezed);\n\t\t\tvotedBalance.freezed = 0;\n\t\t}\n\t\tvotedBalance.freezed = votedBalance.freezed.add(amount);\n\t\tvotedBalance.votedAt = block.timestamp;\n\n\t\ttotalVotedBalances[msg.sender] = totalVotedBalances[msg.sender].add(amount);\n\t}\n\n\tfunction unvoteBonded(address nftAddr, uint nftId, uint amount)\n\t\texternal \n\t\tcheckVotingTime\n\t\tcheckNFT(nftAddr, nftId)\n\t\tupdateReward(msg.sender)\n\t{\n\t\tuint unvotable = getUnvotableBalance(msg.sender, nftAddr, nftId);\n\t\trequire(unvotable > amount, \"Insufficient unvotable balance\");\n\t\t_unvote(msg.sender, nftAddr, nftId, amount);\n\n\t\tuint uid = nfts[nftAddr][nftId];\n\t\tBalance storage votedBalance = votedBalances[msg.sender][uid];\n\n\t\tif(getDate(votedBalance.votedAt) < getDate(block.timestamp)) {\n\t\t\tvotedBalance.available = votedBalance.available.add(votedBalance.freezed);\n\t\t\tvotedBalance.freezed = 0;\n\t\t}\n\t\tvotedBalance.available = votedBalance.available.sub(amount);\n\n\t\ttotalVotedBalances[msg.sender] = totalVotedBalances[msg.sender].sub(amount);\n\t}\n\n\n\tfunction unbond(uint amount) \n\t\texternal \n\t\tupdateReward(msg.sender)\n\t{\n\t\tuint bondedBalance = getBondedBalance(msg.sender);\n\t\trequire(bondedBalance > amount, \"Insufficient bonded balance\");\n\n\t\tunbondingBalances[msg.sender].push(UnbondingBalance({\n\t\t\tvalue: amount,\n\t\t\tunbondedAt: block.timestamp,\n\t\t\tredeemed: 0\n\t\t}));\n\t\t\n\t\tunbondedBalances[msg.sender] = unbondedBalances[msg.sender].add(amount);\n\n\t\temit Unbond(msg.sender, amount, block.timestamp);\n\t}\n\n\tfunction redeemUnbonding(uint index) \n\t\texternal \n\t\tupdateReward(msg.sender)\n\t{ \n\t\tUnbondingBalance storage unbondingBalance = unbondingBalances[msg.sender][index];\n\t\tuint passDays = getDate(block.timestamp).sub(getDate(unbondingBalance.unbondedAt)).div(1 days);\n\t\tuint released = passDays.mul(unbondingBalance.value).div(60);\n\t\tuint available = released.sub(unbondingBalance.redeemed);\n\t\tunbondingBalance.redeemed = released;\n\n\t\ttreasury.sendRewards(msg.sender, available);\n\t}\n\n\n\t// function getUserVotesByNFT(address user, uint groupId, uint uid) public view returns(uint) {\n\t// \tuint[] memory dates = getVotableDates(groupId);\n\t// \tuint votes = 0;\n\t// \tfor(uint i = 0; i < dates.length; i++) {\n\t// \t\tvotes = userVotes[user][dates[i]][uid].add(votes);\n\t// \t}\n\t// \treturn votes;\n\t// }\n\n\tfunction claimMintRewards(address nftAddr, uint nftId, address to) external onlyPin {\n\t\tuint uid = nfts[nftAddr][nftId];\n\t\tuint groupId = nftGroup[nfts[nftAddr][nftId]];\n\t\trequire(!mintRewardsClaimed[uid], \"Claimed\");\n\n\t\tuint rewards = 0;\n\t\tfor(uint i = 0; i < groupNFTs[groupId].length; i++) {\n\t\t\tif(groupNFTs[groupId][i].uid == uid) {\n\t\t\t\trewards = getMintRewardsPerNFT(groupId)[i];\n\t\t\t\tbreak;\n\t\t\t}\n\t\t}\n\t\tif(rewards > 0) {\n\t\t\ttreasury.sendRewards(to, rewards);\n\t\t\tmintRewardsClaimed[uid] = true;\n\t\t}\n\t}\n\n\tfunction getTradeWeights(uint groupId) public view returns(uint[] memory weights) {\n\t\tNFT[] memory gNFTs = groupNFTs[groupId];\n\t\tweights = new uint[](gNFTs.length);\n\t\t\n\t\t(uint[] memory prices, uint total) = getAuctionPrices(groupId);\n\n\t\tif(total > 0) {\n\t\t\tfor(uint i = 0; i < gNFTs.length; i++){\n\t\t\t\tweights[i] = prices[i].mul(1e18).div(total);\n\t\t\t}\n\t\t}\n\t}\n\n\tfunction setAuctionFinish(uint groupId) external onlyOwner {\n\t\thasFinished[groupId] = true;\n\t}\n\n\tfunction getAuctionRewardRates(uint groupId) public view returns(uint[] memory auctionRewardRates) {\n\t\tuint[] memory weights = getTradeWeights(groupId);\n\t\tNFT[] memory gNFTs = groupNFTs[groupId];\n\t\tauctionRewardRates = new uint[](gNFTs.length);\n\t\t(, uint[] memory inflations) = getWeightsAndInflations(groupId);\n\t\tuint bonus = bonusCap.mul(inflations[inflations.length - 1]).div(1e18);\n\n\t\tfor(uint i = 0; i < gNFTs.length; i++) {\n\t\t\tif(nftVotes[gNFTs[i].uid] == 0) {\n\t\t\t\tauctionRewardRates[i] = 0;\n\t\t\t} else {\n\t\t\t\tauctionRewardRates[i] = bonus.mul(weights[i]).div(nftVotes[gNFTs[i].uid]);\n\t\t\t}\n\t\t}\n\t}\n\n\tfunction getDailyVotes(uint groupId, uint date) public view returns(uint256) {\n\t\tuint votes = 0;\n\t\tfor(uint i = 0; i < groupNFTs[groupId].length; i++) {\n\t\t\tuint uid = groupNFTs[groupId][i].uid;\n\t\t\tvotes = votes.add(dayVotes[date][uid]);\n\t\t}\n\t\treturn votes;\n\t}\n\n\tfunction getWeightsAndInflations(uint groupId)\n\t\tpublic\n\t\tview\n\t\treturns(\n\t\t\tuint[] memory weights,\n\t\t\tuint[] memory inflations\n\t\t) \n\t{\n\n\t\tuint[] memory dates = getVotableDates(groupId);\n\t\tweights = new uint[](dates.length);\n\t\tinflations = new uint[](dates.length);\n\n\t\tfor(uint i = 0; i < dates.length; i++) {\n\t\t\tuint dailyVotes = getDailyVotes(groupId, dates[i]);\n\t\t\tweights[i] = dailyVotes.mul(1e18).div(stakingBases[groupId]);\n\t\t\tif(weights[i] < 3 * 1e17) {\n\t\t\t\tinflations[i] = 2 * 1e17;\n\t\t\t} else if(weights[i] >= 3 * 1e17 &&  weights[i] < 7 * 1e17) {\n\t\t\t\tinflations[i] = weights[i];\n\t\t\t} else {\n\t\t\t\tinflations[i] = 1e18;\n\t\t\t}\n\t\t}\n\t}\n\n\tfunction getBaseRewardRates(uint groupId) \n\t\tpublic view \n\t\treturns(uint[] memory rewardRates) \n\t{\n\n\t\tuint[] memory dates = getVotableDates(groupId);\n\t\t(,uint[] memory inflations) = getWeightsAndInflations(groupId);\n\t\trewardRates = new uint[](dates.length);\n\n\t\tfor(uint i = 0; i < dates.length; i++) {\n\t\t\tif(dates[i] > getDate(block.timestamp)) {\n\t\t\t\tbreak;\n\t\t\t}\n\t\t\tuint dailyTotalVotes = getDailyVotes(groupId, dates[i]);\n\t\t\tif(dailyTotalVotes > 0) {\n\t\t\t\trewardRates[i] = inflations[i].mul(dailyVoteRewardCap).div(dailyTotalVotes);\n\t\t\t}\n\t\t}\n\t}\n\n\tfunction getMintRewardsPerNFT(uint groupId)\n\t\tpublic view \n\t\treturns(uint[] memory mintRewards) \n\t{\n\t\tmintRewards = new uint[](groupNFTs[groupId].length);\n\t\tfor(uint i = 0; i < groupNFTs[groupId].length; i++) {\n\t\t\tif(groupVotes[groupId] > 0) {\n\t\t\t\tmintRewards[i] = nftVotes[groupNFTs[groupId][i].uid].mul(dailyMintRewardCap).div(groupVotes[groupId]);\n\t\t\t}\n\t\t}\n\t}\n}",
  "sourcePath": "/Users/tuminfei/Code/Nodejs/uniarts-eth-dao/contracts/VoteMining.sol",
  "compiler": {
    "name": "solc",
    "version": "0.8.4+commit.c7e474f2.Emscripten.clang"
  },
  "schemaVersion": "3.3.0",
  "updatedAt": "2021-09-14T02:31:15.881Z",
  "devdoc": {
    "kind": "dev",
    "methods": {
      "owner()": {
        "details": "Returns the address of the current owner."
      },
      "renounceOwnership()": {
        "details": "Leaves the contract without owner. It will not be possible to call `onlyOwner` functions anymore. Can only be called by the current owner. NOTE: Renouncing ownership will leave the contract without an owner, thereby removing any functionality that is only available to the owner."
      },
      "transferOwnership(address)": {
        "details": "Transfers ownership of the contract to a new account (`newOwner`). Can only be called by the current owner."
      }
    },
    "version": 1
  },
  "userdoc": {
    "kind": "user",
    "methods": {},
    "version": 1
  }
}