{
  "contractName": "VoteMining",
  "abi": [
    {
      "inputs": [
        {
          "internalType": "address",
          "name": "_treasury",
          "type": "address"
        },
        {
          "internalType": "address",
          "name": "_tokenLocker",
          "type": "address"
        }
      ],
      "stateMutability": "nonpayable",
      "type": "constructor"
    },
    {
      "anonymous": false,
      "inputs": [
        {
          "indexed": true,
          "internalType": "address",
          "name": "previousOwner",
          "type": "address"
        },
        {
          "indexed": true,
          "internalType": "address",
          "name": "newOwner",
          "type": "address"
        }
      ],
      "name": "OwnershipTransferred",
      "type": "event"
    },
    {
      "anonymous": false,
      "inputs": [
        {
          "indexed": true,
          "internalType": "address",
          "name": "user",
          "type": "address"
        },
        {
          "indexed": false,
          "internalType": "address",
          "name": "token",
          "type": "address"
        },
        {
          "indexed": false,
          "internalType": "uint256",
          "name": "amount",
          "type": "uint256"
        }
      ],
      "name": "Redeem",
      "type": "event"
    },
    {
      "anonymous": false,
      "inputs": [
        {
          "indexed": true,
          "internalType": "address",
          "name": "user",
          "type": "address"
        },
        {
          "indexed": false,
          "internalType": "uint256",
          "name": "amount",
          "type": "uint256"
        },
        {
          "indexed": false,
          "internalType": "uint256",
          "name": "at",
          "type": "uint256"
        }
      ],
      "name": "Unbond",
      "type": "event"
    },
    {
      "inputs": [],
      "name": "VOTE_DAYS",
      "outputs": [
        {
          "internalType": "uint256",
          "name": "",
          "type": "uint256"
        }
      ],
      "stateMutability": "view",
      "type": "function"
    },
    {
      "inputs": [],
      "name": "VOTE_DURATION",
      "outputs": [
        {
          "internalType": "uint256",
          "name": "",
          "type": "uint256"
        }
      ],
      "stateMutability": "view",
      "type": "function"
    },
    {
      "inputs": [],
      "name": "VOTE_TIME_UNIT",
      "outputs": [
        {
          "internalType": "uint256",
          "name": "",
          "type": "uint256"
        }
      ],
      "stateMutability": "view",
      "type": "function"
    },
    {
      "inputs": [],
      "name": "auction",
      "outputs": [
        {
          "internalType": "address",
          "name": "",
          "type": "address"
        }
      ],
      "stateMutability": "view",
      "type": "function"
    },
    {
      "inputs": [
        {
          "internalType": "address",
          "name": "",
          "type": "address"
        },
        {
          "internalType": "address",
          "name": "",
          "type": "address"
        },
        {
          "internalType": "uint256",
          "name": "",
          "type": "uint256"
        }
      ],
      "name": "balances",
      "outputs": [
        {
          "internalType": "uint256",
          "name": "available",
          "type": "uint256"
        },
        {
          "internalType": "uint256",
          "name": "freezed",
          "type": "uint256"
        },
        {
          "internalType": "uint256",
          "name": "votedAt",
          "type": "uint256"
        }
      ],
      "stateMutability": "view",
      "type": "function"
    },
    {
      "inputs": [
        {
          "internalType": "address",
          "name": "",
          "type": "address"
        }
      ],
      "name": "bondedBalances",
      "outputs": [
        {
          "internalType": "uint256",
          "name": "",
          "type": "uint256"
        }
      ],
      "stateMutability": "view",
      "type": "function"
    },
    {
      "inputs": [],
      "name": "bonusCap",
      "outputs": [
        {
          "internalType": "uint256",
          "name": "",
          "type": "uint256"
        }
      ],
      "stateMutability": "view",
      "type": "function"
    },
    {
      "inputs": [
        {
          "internalType": "address",
          "name": "",
          "type": "address"
        },
        {
          "internalType": "uint256",
          "name": "",
          "type": "uint256"
        }
      ],
      "name": "bonusRewardsClaimed",
      "outputs": [
        {
          "internalType": "bool",
          "name": "",
          "type": "bool"
        }
      ],
      "stateMutability": "view",
      "type": "function"
    },
    {
      "inputs": [],
      "name": "currentGroupId",
      "outputs": [
        {
          "internalType": "uint256",
          "name": "",
          "type": "uint256"
        }
      ],
      "stateMutability": "view",
      "type": "function"
    },
    {
      "inputs": [],
      "name": "dailyVoteRewardCap",
      "outputs": [
        {
          "internalType": "uint256",
          "name": "",
          "type": "uint256"
        }
      ],
      "stateMutability": "view",
      "type": "function"
    },
    {
      "inputs": [
        {
          "internalType": "uint256",
          "name": "",
          "type": "uint256"
        },
        {
          "internalType": "uint256",
          "name": "",
          "type": "uint256"
        }
      ],
      "name": "dayVotes",
      "outputs": [
        {
          "internalType": "uint256",
          "name": "",
          "type": "uint256"
        }
      ],
      "stateMutability": "view",
      "type": "function"
    },
    {
      "inputs": [
        {
          "internalType": "uint256",
          "name": "",
          "type": "uint256"
        },
        {
          "internalType": "uint256",
          "name": "",
          "type": "uint256"
        }
      ],
      "name": "groupNFTs",
      "outputs": [
        {
          "internalType": "uint256",
          "name": "uid",
          "type": "uint256"
        },
        {
          "internalType": "address",
          "name": "addr",
          "type": "address"
        },
        {
          "internalType": "uint256",
          "name": "id",
          "type": "uint256"
        },
        {
          "internalType": "address",
          "name": "owner",
          "type": "address"
        }
      ],
      "stateMutability": "view",
      "type": "function"
    },
    {
      "inputs": [
        {
          "internalType": "uint256",
          "name": "",
          "type": "uint256"
        },
        {
          "internalType": "address",
          "name": "",
          "type": "address"
        },
        {
          "internalType": "address",
          "name": "",
          "type": "address"
        }
      ],
      "name": "groupTokenBalances",
      "outputs": [
        {
          "internalType": "uint256",
          "name": "",
          "type": "uint256"
        }
      ],
      "stateMutability": "view",
      "type": "function"
    },
    {
      "inputs": [
        {
          "internalType": "uint256",
          "name": "",
          "type": "uint256"
        }
      ],
      "name": "groupVotes",
      "outputs": [
        {
          "internalType": "uint256",
          "name": "",
          "type": "uint256"
        }
      ],
      "stateMutability": "view",
      "type": "function"
    },
    {
      "inputs": [
        {
          "internalType": "uint256",
          "name": "",
          "type": "uint256"
        }
      ],
      "name": "groups",
      "outputs": [
        {
          "internalType": "uint256",
          "name": "",
          "type": "uint256"
        }
      ],
      "stateMutability": "view",
      "type": "function"
    },
    {
      "inputs": [
        {
          "internalType": "uint256",
          "name": "",
          "type": "uint256"
        }
      ],
      "name": "hasFinished",
      "outputs": [
        {
          "internalType": "bool",
          "name": "",
          "type": "bool"
        }
      ],
      "stateMutability": "view",
      "type": "function"
    },
    {
      "inputs": [
        {
          "internalType": "uint256",
          "name": "",
          "type": "uint256"
        }
      ],
      "name": "matches",
      "outputs": [
        {
          "internalType": "string",
          "name": "",
          "type": "string"
        }
      ],
      "stateMutability": "view",
      "type": "function"
    },
    {
      "inputs": [],
      "name": "mintRewardCap",
      "outputs": [
        {
          "internalType": "uint256",
          "name": "",
          "type": "uint256"
        }
      ],
      "stateMutability": "view",
      "type": "function"
    },
    {
      "inputs": [
        {
          "internalType": "uint256",
          "name": "",
          "type": "uint256"
        }
      ],
      "name": "mintRewardsClaimed",
      "outputs": [
        {
          "internalType": "bool",
          "name": "",
          "type": "bool"
        }
      ],
      "stateMutability": "view",
      "type": "function"
    },
    {
      "inputs": [],
      "name": "nextNFTId",
      "outputs": [
        {
          "internalType": "uint256",
          "name": "",
          "type": "uint256"
        }
      ],
      "stateMutability": "view",
      "type": "function"
    },
    {
      "inputs": [
        {
          "internalType": "uint256",
          "name": "",
          "type": "uint256"
        }
      ],
      "name": "nftGroup",
      "outputs": [
        {
          "internalType": "uint256",
          "name": "",
          "type": "uint256"
        }
      ],
      "stateMutability": "view",
      "type": "function"
    },
    {
      "inputs": [
        {
          "internalType": "uint256",
          "name": "",
          "type": "uint256"
        }
      ],
      "name": "nftTradedPrices",
      "outputs": [
        {
          "internalType": "uint256",
          "name": "",
          "type": "uint256"
        }
      ],
      "stateMutability": "view",
      "type": "function"
    },
    {
      "inputs": [
        {
          "internalType": "uint256",
          "name": "",
          "type": "uint256"
        }
      ],
      "name": "nftVotes",
      "outputs": [
        {
          "internalType": "uint256",
          "name": "",
          "type": "uint256"
        }
      ],
      "stateMutability": "view",
      "type": "function"
    },
    {
      "inputs": [
        {
          "internalType": "address",
          "name": "",
          "type": "address"
        },
        {
          "internalType": "uint256",
          "name": "",
          "type": "uint256"
        }
      ],
      "name": "nfts",
      "outputs": [
        {
          "internalType": "uint256",
          "name": "",
          "type": "uint256"
        }
      ],
      "stateMutability": "view",
      "type": "function"
    },
    {
      "inputs": [
        {
          "internalType": "address",
          "name": "",
          "type": "address"
        }
      ],
      "name": "operators",
      "outputs": [
        {
          "internalType": "bool",
          "name": "",
          "type": "bool"
        }
      ],
      "stateMutability": "view",
      "type": "function"
    },
    {
      "inputs": [],
      "name": "owner",
      "outputs": [
        {
          "internalType": "address",
          "name": "",
          "type": "address"
        }
      ],
      "stateMutability": "view",
      "type": "function"
    },
    {
      "inputs": [],
      "name": "pinAddress",
      "outputs": [
        {
          "internalType": "address",
          "name": "",
          "type": "address"
        }
      ],
      "stateMutability": "view",
      "type": "function"
    },
    {
      "inputs": [],
      "name": "renounceOwnership",
      "outputs": [],
      "stateMutability": "nonpayable",
      "type": "function"
    },
    {
      "inputs": [
        {
          "internalType": "uint256",
          "name": "",
          "type": "uint256"
        }
      ],
      "name": "stakingBases",
      "outputs": [
        {
          "internalType": "uint256",
          "name": "",
          "type": "uint256"
        }
      ],
      "stateMutability": "view",
      "type": "function"
    },
    {
      "inputs": [],
      "name": "tokenLockId",
      "outputs": [
        {
          "internalType": "uint256",
          "name": "",
          "type": "uint256"
        }
      ],
      "stateMutability": "view",
      "type": "function"
    },
    {
      "inputs": [],
      "name": "tokenLocker",
      "outputs": [
        {
          "internalType": "address",
          "name": "",
          "type": "address"
        }
      ],
      "stateMutability": "view",
      "type": "function"
    },
    {
      "inputs": [
        {
          "internalType": "address",
          "name": "",
          "type": "address"
        }
      ],
      "name": "totalVotedBalances",
      "outputs": [
        {
          "internalType": "uint256",
          "name": "",
          "type": "uint256"
        }
      ],
      "stateMutability": "view",
      "type": "function"
    },
    {
      "inputs": [
        {
          "internalType": "address",
          "name": "newOwner",
          "type": "address"
        }
      ],
      "name": "transferOwnership",
      "outputs": [],
      "stateMutability": "nonpayable",
      "type": "function"
    },
    {
      "inputs": [],
      "name": "treasury",
      "outputs": [
        {
          "internalType": "contract ITreasury",
          "name": "",
          "type": "address"
        }
      ],
      "stateMutability": "view",
      "type": "function"
    },
    {
      "inputs": [],
      "name": "uink",
      "outputs": [
        {
          "internalType": "address",
          "name": "",
          "type": "address"
        }
      ],
      "stateMutability": "view",
      "type": "function"
    },
    {
      "inputs": [
        {
          "internalType": "address",
          "name": "",
          "type": "address"
        }
      ],
      "name": "unbondedBalances",
      "outputs": [
        {
          "internalType": "uint256",
          "name": "",
          "type": "uint256"
        }
      ],
      "stateMutability": "view",
      "type": "function"
    },
    {
      "inputs": [
        {
          "internalType": "address",
          "name": "",
          "type": "address"
        },
        {
          "internalType": "uint256",
          "name": "",
          "type": "uint256"
        }
      ],
      "name": "unbondingBalances",
      "outputs": [
        {
          "internalType": "uint256",
          "name": "value",
          "type": "uint256"
        },
        {
          "internalType": "uint256",
          "name": "unbondedAt",
          "type": "uint256"
        },
        {
          "internalType": "uint256",
          "name": "redeemed",
          "type": "uint256"
        }
      ],
      "stateMutability": "view",
      "type": "function"
    },
    {
      "inputs": [
        {
          "internalType": "address",
          "name": "",
          "type": "address"
        },
        {
          "internalType": "uint256",
          "name": "",
          "type": "uint256"
        },
        {
          "internalType": "uint256",
          "name": "",
          "type": "uint256"
        }
      ],
      "name": "userDailyVotes",
      "outputs": [
        {
          "internalType": "uint256",
          "name": "",
          "type": "uint256"
        }
      ],
      "stateMutability": "view",
      "type": "function"
    },
    {
      "inputs": [
        {
          "internalType": "address",
          "name": "",
          "type": "address"
        },
        {
          "internalType": "uint256",
          "name": "",
          "type": "uint256"
        }
      ],
      "name": "userNFTVotes",
      "outputs": [
        {
          "internalType": "uint256",
          "name": "",
          "type": "uint256"
        }
      ],
      "stateMutability": "view",
      "type": "function"
    },
    {
      "inputs": [
        {
          "internalType": "address",
          "name": "",
          "type": "address"
        },
        {
          "internalType": "address",
          "name": "",
          "type": "address"
        }
      ],
      "name": "userTokenBalances",
      "outputs": [
        {
          "internalType": "uint256",
          "name": "",
          "type": "uint256"
        }
      ],
      "stateMutability": "view",
      "type": "function"
    },
    {
      "inputs": [
        {
          "internalType": "address",
          "name": "",
          "type": "address"
        },
        {
          "internalType": "uint256",
          "name": "",
          "type": "uint256"
        },
        {
          "internalType": "uint256",
          "name": "",
          "type": "uint256"
        }
      ],
      "name": "userVotes",
      "outputs": [
        {
          "internalType": "uint256",
          "name": "",
          "type": "uint256"
        }
      ],
      "stateMutability": "view",
      "type": "function"
    },
    {
      "inputs": [
        {
          "internalType": "address",
          "name": "",
          "type": "address"
        }
      ],
      "name": "voteRatio",
      "outputs": [
        {
          "internalType": "uint256",
          "name": "",
          "type": "uint256"
        }
      ],
      "stateMutability": "view",
      "type": "function"
    },
    {
      "inputs": [],
      "name": "voteRatioMax",
      "outputs": [
        {
          "internalType": "uint256",
          "name": "",
          "type": "uint256"
        }
      ],
      "stateMutability": "view",
      "type": "function"
    },
    {
      "inputs": [
        {
          "internalType": "address",
          "name": "",
          "type": "address"
        },
        {
          "internalType": "uint256",
          "name": "",
          "type": "uint256"
        },
        {
          "internalType": "uint256",
          "name": "",
          "type": "uint256"
        }
      ],
      "name": "voteRewardsClaimed",
      "outputs": [
        {
          "internalType": "bool",
          "name": "",
          "type": "bool"
        }
      ],
      "stateMutability": "view",
      "type": "function"
    },
    {
      "inputs": [
        {
          "internalType": "uint256",
          "name": "",
          "type": "uint256"
        }
      ],
      "name": "voteTokens",
      "outputs": [
        {
          "internalType": "address",
          "name": "",
          "type": "address"
        }
      ],
      "stateMutability": "view",
      "type": "function"
    },
    {
      "inputs": [
        {
          "internalType": "address",
          "name": "",
          "type": "address"
        },
        {
          "internalType": "uint256",
          "name": "",
          "type": "uint256"
        }
      ],
      "name": "votedBalances",
      "outputs": [
        {
          "internalType": "uint256",
          "name": "available",
          "type": "uint256"
        },
        {
          "internalType": "uint256",
          "name": "freezed",
          "type": "uint256"
        },
        {
          "internalType": "uint256",
          "name": "votedAt",
          "type": "uint256"
        }
      ],
      "stateMutability": "view",
      "type": "function"
    },
    {
      "inputs": [],
      "name": "weeklyCap",
      "outputs": [
        {
          "internalType": "uint256",
          "name": "",
          "type": "uint256"
        }
      ],
      "stateMutability": "view",
      "type": "function"
    },
    {
      "inputs": [
        {
          "internalType": "address",
          "name": "_token",
          "type": "address"
        },
        {
          "internalType": "uint256",
          "name": "_ratio",
          "type": "uint256"
        }
      ],
      "name": "addVoteToken",
      "outputs": [],
      "stateMutability": "nonpayable",
      "type": "function"
    },
    {
      "inputs": [
        {
          "internalType": "address",
          "name": "_auction",
          "type": "address"
        }
      ],
      "name": "setAuctionAddress",
      "outputs": [],
      "stateMutability": "nonpayable",
      "type": "function"
    },
    {
      "inputs": [
        {
          "internalType": "address",
          "name": "_pin",
          "type": "address"
        }
      ],
      "name": "setPinAddress",
      "outputs": [],
      "stateMutability": "nonpayable",
      "type": "function"
    },
    {
      "inputs": [
        {
          "internalType": "uint256",
          "name": "lockId",
          "type": "uint256"
        }
      ],
      "name": "setTokenLockId",
      "outputs": [],
      "stateMutability": "nonpayable",
      "type": "function"
    },
    {
      "inputs": [
        {
          "internalType": "address",
          "name": "operator",
          "type": "address"
        },
        {
          "internalType": "bool",
          "name": "isOperator",
          "type": "bool"
        }
      ],
      "name": "setOperator",
      "outputs": [],
      "stateMutability": "nonpayable",
      "type": "function"
    },
    {
      "inputs": [
        {
          "internalType": "uint256",
          "name": "_days",
          "type": "uint256"
        }
      ],
      "name": "setVoteDays",
      "outputs": [],
      "stateMutability": "nonpayable",
      "type": "function"
    },
    {
      "inputs": [
        {
          "internalType": "uint256",
          "name": "groupId",
          "type": "uint256"
        },
        {
          "internalType": "string",
          "name": "matchId",
          "type": "string"
        }
      ],
      "name": "setMatchId",
      "outputs": [],
      "stateMutability": "nonpayable",
      "type": "function"
    },
    {
      "inputs": [
        {
          "internalType": "uint256",
          "name": "stakingBase",
          "type": "uint256"
        },
        {
          "internalType": "uint256",
          "name": "startTime",
          "type": "uint256"
        },
        {
          "internalType": "string",
          "name": "matchId",
          "type": "string"
        }
      ],
      "name": "addGroup",
      "outputs": [],
      "stateMutability": "nonpayable",
      "type": "function"
    },
    {
      "inputs": [
        {
          "internalType": "uint256",
          "name": "groupId",
          "type": "uint256"
        },
        {
          "internalType": "address[]",
          "name": "nftAddrs",
          "type": "address[]"
        },
        {
          "internalType": "uint256[]",
          "name": "nftIds",
          "type": "uint256[]"
        }
      ],
      "name": "addNFT",
      "outputs": [],
      "stateMutability": "nonpayable",
      "type": "function"
    },
    {
      "inputs": [
        {
          "internalType": "uint256",
          "name": "groupId",
          "type": "uint256"
        }
      ],
      "name": "groupNFTsLength",
      "outputs": [
        {
          "internalType": "uint256",
          "name": "",
          "type": "uint256"
        }
      ],
      "stateMutability": "view",
      "type": "function"
    },
    {
      "inputs": [
        {
          "internalType": "uint256",
          "name": "groupId",
          "type": "uint256"
        }
      ],
      "name": "getAuctionPrices",
      "outputs": [
        {
          "internalType": "uint256[]",
          "name": "prices",
          "type": "uint256[]"
        },
        {
          "internalType": "uint256",
          "name": "totalAmount",
          "type": "uint256"
        }
      ],
      "stateMutability": "view",
      "type": "function"
    },
    {
      "inputs": [
        {
          "internalType": "uint256",
          "name": "ts",
          "type": "uint256"
        }
      ],
      "name": "getDate",
      "outputs": [
        {
          "internalType": "uint256",
          "name": "",
          "type": "uint256"
        }
      ],
      "stateMutability": "view",
      "type": "function"
    },
    {
      "inputs": [
        {
          "internalType": "uint256",
          "name": "groupId",
          "type": "uint256"
        }
      ],
      "name": "getVotableDates",
      "outputs": [
        {
          "internalType": "uint256[]",
          "name": "dates",
          "type": "uint256[]"
        }
      ],
      "stateMutability": "view",
      "type": "function"
    },
    {
      "inputs": [
        {
          "internalType": "address",
          "name": "user",
          "type": "address"
        },
        {
          "internalType": "address",
          "name": "nftAddr",
          "type": "address"
        },
        {
          "internalType": "uint256",
          "name": "nftId",
          "type": "uint256"
        }
      ],
      "name": "getUserNFTVotes",
      "outputs": [
        {
          "internalType": "uint256",
          "name": "",
          "type": "uint256"
        }
      ],
      "stateMutability": "view",
      "type": "function"
    },
    {
      "inputs": [
        {
          "internalType": "address",
          "name": "nftAddr",
          "type": "address"
        },
        {
          "internalType": "uint256",
          "name": "nftId",
          "type": "uint256"
        }
      ],
      "name": "getNFTVotes",
      "outputs": [
        {
          "internalType": "uint256",
          "name": "",
          "type": "uint256"
        }
      ],
      "stateMutability": "view",
      "type": "function"
    },
    {
      "inputs": [
        {
          "internalType": "address",
          "name": "user",
          "type": "address"
        },
        {
          "internalType": "address",
          "name": "token",
          "type": "address"
        },
        {
          "internalType": "address",
          "name": "nftAddr",
          "type": "address"
        },
        {
          "internalType": "uint256",
          "name": "nftId",
          "type": "uint256"
        }
      ],
      "name": "getAvailableBalance",
      "outputs": [
        {
          "internalType": "uint256",
          "name": "",
          "type": "uint256"
        }
      ],
      "stateMutability": "view",
      "type": "function"
    },
    {
      "inputs": [
        {
          "internalType": "address",
          "name": "nftAddr",
          "type": "address"
        },
        {
          "internalType": "uint256",
          "name": "nftId",
          "type": "uint256"
        },
        {
          "internalType": "address",
          "name": "token",
          "type": "address"
        },
        {
          "internalType": "uint256",
          "name": "amount",
          "type": "uint256"
        }
      ],
      "name": "stake",
      "outputs": [],
      "stateMutability": "nonpayable",
      "type": "function"
    },
    {
      "inputs": [
        {
          "internalType": "address",
          "name": "nftAddr",
          "type": "address"
        },
        {
          "internalType": "uint256",
          "name": "nftId",
          "type": "uint256"
        },
        {
          "internalType": "address",
          "name": "token",
          "type": "address"
        },
        {
          "internalType": "uint256",
          "name": "amount",
          "type": "uint256"
        }
      ],
      "name": "unstake",
      "outputs": [],
      "stateMutability": "nonpayable",
      "type": "function"
    },
    {
      "inputs": [
        {
          "internalType": "address",
          "name": "user",
          "type": "address"
        },
        {
          "internalType": "address",
          "name": "token",
          "type": "address"
        }
      ],
      "name": "getRedeemableBalance",
      "outputs": [
        {
          "internalType": "uint256",
          "name": "",
          "type": "uint256"
        }
      ],
      "stateMutability": "view",
      "type": "function"
    },
    {
      "inputs": [
        {
          "internalType": "address",
          "name": "token",
          "type": "address"
        }
      ],
      "name": "redeemToken",
      "outputs": [],
      "stateMutability": "nonpayable",
      "type": "function"
    },
    {
      "inputs": [
        {
          "internalType": "uint256",
          "name": "groupId",
          "type": "uint256"
        },
        {
          "internalType": "address",
          "name": "token",
          "type": "address"
        }
      ],
      "name": "redeemToken",
      "outputs": [],
      "stateMutability": "nonpayable",
      "type": "function"
    },
    {
      "inputs": [
        {
          "internalType": "address",
          "name": "token",
          "type": "address"
        },
        {
          "internalType": "uint256",
          "name": "amount",
          "type": "uint256"
        }
      ],
      "name": "rescueToken",
      "outputs": [],
      "stateMutability": "nonpayable",
      "type": "function"
    },
    {
      "inputs": [
        {
          "internalType": "address",
          "name": "user",
          "type": "address"
        }
      ],
      "name": "getTotalRewards",
      "outputs": [
        {
          "internalType": "uint256",
          "name": "",
          "type": "uint256"
        }
      ],
      "stateMutability": "view",
      "type": "function"
    },
    {
      "inputs": [
        {
          "internalType": "address",
          "name": "user",
          "type": "address"
        },
        {
          "internalType": "uint256",
          "name": "groupId",
          "type": "uint256"
        }
      ],
      "name": "getBaseRewards",
      "outputs": [
        {
          "internalType": "uint256",
          "name": "",
          "type": "uint256"
        }
      ],
      "stateMutability": "view",
      "type": "function"
    },
    {
      "inputs": [
        {
          "internalType": "address",
          "name": "user",
          "type": "address"
        },
        {
          "internalType": "uint256",
          "name": "groupId",
          "type": "uint256"
        }
      ],
      "name": "getAuctionRewards",
      "outputs": [
        {
          "internalType": "uint256",
          "name": "",
          "type": "uint256"
        }
      ],
      "stateMutability": "view",
      "type": "function"
    },
    {
      "inputs": [
        {
          "internalType": "address",
          "name": "user",
          "type": "address"
        }
      ],
      "name": "getBondedBalance",
      "outputs": [
        {
          "internalType": "uint256",
          "name": "",
          "type": "uint256"
        }
      ],
      "stateMutability": "view",
      "type": "function"
    },
    {
      "inputs": [
        {
          "internalType": "address",
          "name": "user",
          "type": "address"
        },
        {
          "internalType": "address",
          "name": "nftAddr",
          "type": "address"
        },
        {
          "internalType": "uint256",
          "name": "nftId",
          "type": "uint256"
        }
      ],
      "name": "getUnvotableBalance",
      "outputs": [
        {
          "internalType": "uint256",
          "name": "",
          "type": "uint256"
        }
      ],
      "stateMutability": "view",
      "type": "function"
    },
    {
      "inputs": [
        {
          "internalType": "uint256",
          "name": "lockId",
          "type": "uint256"
        }
      ],
      "name": "collectFromLock",
      "outputs": [],
      "stateMutability": "nonpayable",
      "type": "function"
    },
    {
      "inputs": [
        {
          "internalType": "address",
          "name": "nftAddr",
          "type": "address"
        },
        {
          "internalType": "uint256",
          "name": "nftId",
          "type": "uint256"
        },
        {
          "internalType": "uint256",
          "name": "amount",
          "type": "uint256"
        }
      ],
      "name": "voteBonded",
      "outputs": [],
      "stateMutability": "nonpayable",
      "type": "function"
    },
    {
      "inputs": [
        {
          "internalType": "address",
          "name": "nftAddr",
          "type": "address"
        },
        {
          "internalType": "uint256",
          "name": "nftId",
          "type": "uint256"
        },
        {
          "internalType": "uint256",
          "name": "amount",
          "type": "uint256"
        }
      ],
      "name": "unvoteBonded",
      "outputs": [],
      "stateMutability": "nonpayable",
      "type": "function"
    },
    {
      "inputs": [
        {
          "internalType": "address",
          "name": "user",
          "type": "address"
        }
      ],
      "name": "getUnbondingBalancesLength",
      "outputs": [
        {
          "internalType": "uint256",
          "name": "",
          "type": "uint256"
        }
      ],
      "stateMutability": "view",
      "type": "function"
    },
    {
      "inputs": [
        {
          "internalType": "uint256",
          "name": "amount",
          "type": "uint256"
        }
      ],
      "name": "unbond",
      "outputs": [],
      "stateMutability": "nonpayable",
      "type": "function"
    },
    {
      "inputs": [
        {
          "internalType": "uint256",
          "name": "index",
          "type": "uint256"
        }
      ],
      "name": "redeemUnbonding",
      "outputs": [],
      "stateMutability": "nonpayable",
      "type": "function"
    },
    {
      "inputs": [
        {
          "internalType": "address",
          "name": "nftAddr",
          "type": "address"
        },
        {
          "internalType": "uint256",
          "name": "nftId",
          "type": "uint256"
        },
        {
          "internalType": "address",
          "name": "to",
          "type": "address"
        }
      ],
      "name": "claimMintRewards",
      "outputs": [],
      "stateMutability": "nonpayable",
      "type": "function"
    },
    {
      "inputs": [
        {
          "internalType": "uint256",
          "name": "groupId",
          "type": "uint256"
        }
      ],
      "name": "getTradeWeights",
      "outputs": [
        {
          "internalType": "uint256[]",
          "name": "weights",
          "type": "uint256[]"
        }
      ],
      "stateMutability": "view",
      "type": "function"
    },
    {
      "inputs": [
        {
          "internalType": "uint256",
          "name": "groupId",
          "type": "uint256"
        }
      ],
      "name": "setAuctionFinish",
      "outputs": [],
      "stateMutability": "nonpayable",
      "type": "function"
    },
    {
      "inputs": [
        {
          "internalType": "uint256",
          "name": "groupId",
          "type": "uint256"
        }
      ],
      "name": "getAuctionRewardRates",
      "outputs": [
        {
          "internalType": "uint256[]",
          "name": "auctionRewardRates",
          "type": "uint256[]"
        }
      ],
      "stateMutability": "view",
      "type": "function"
    },
    {
      "inputs": [
        {
          "internalType": "uint256",
          "name": "groupId",
          "type": "uint256"
        },
        {
          "internalType": "uint256",
          "name": "date",
          "type": "uint256"
        }
      ],
      "name": "getDailyVotes",
      "outputs": [
        {
          "internalType": "uint256",
          "name": "",
          "type": "uint256"
        }
      ],
      "stateMutability": "view",
      "type": "function"
    },
    {
      "inputs": [
        {
          "internalType": "uint256",
          "name": "groupId",
          "type": "uint256"
        }
      ],
      "name": "getWeightsAndInflations",
      "outputs": [
        {
          "internalType": "uint256[]",
          "name": "weights",
          "type": "uint256[]"
        },
        {
          "internalType": "uint256[]",
          "name": "inflations",
          "type": "uint256[]"
        }
      ],
      "stateMutability": "view",
      "type": "function"
    },
    {
      "inputs": [
        {
          "internalType": "uint256",
          "name": "groupId",
          "type": "uint256"
        }
      ],
      "name": "getBaseRewardRates",
      "outputs": [
        {
          "internalType": "uint256[]",
          "name": "rewardRates",
          "type": "uint256[]"
        }
      ],
      "stateMutability": "view",
      "type": "function"
    },
    {
      "inputs": [
        {
          "internalType": "uint256",
          "name": "groupId",
          "type": "uint256"
        }
      ],
      "name": "getMintRewardsPerNFT",
      "outputs": [
        {
          "internalType": "uint256[]",
          "name": "mintRewards",
          "type": "uint256[]"
        }
      ],
      "stateMutability": "view",
      "type": "function"
    },
    {
      "inputs": [
        {
          "internalType": "address",
          "name": "nftAddr",
          "type": "address"
        },
        {
          "internalType": "uint256",
          "name": "nftId",
          "type": "uint256"
        }
      ],
      "name": "getMintRewards",
      "outputs": [
        {
          "internalType": "uint256",
          "name": "",
          "type": "uint256"
        }
      ],
      "stateMutability": "view",
      "type": "function"
    }
  ],
  "bytecode": "0x608060405262015180600155600e60025560015460025462000022919062000319565b60035567058d15e1762800006004556004600254600454620000459190620002df565b620000519190620002df565b60055560048054620000649190620002df565b6006556002600454620000789190620002df565b6007556000600d556000601655612710601c556000602b553480156200009d57600080fd5b506040516200584538038062005845833981016040819052620000c091620002a8565b620000e6620000d764010000000062000213810204565b64010000000062000217810204565b600a8054600160a060020a031916600160a060020a038416908117909155604080517fa88d8fea000000000000000000000000000000000000000000000000000000008152905163a88d8fea91600480820192602092909190829003018186803b1580156200015457600080fd5b505afa15801562000169573d6000803e3d6000fd5b505050506040513d601f19601f820116820180604052508101906200018f919062000284565b60098054600160a060020a03928316600160a060020a031991821681178355602c805495851695831695909517909455601a8054600181019091557f057c384a7d1c54f3a1b2e5e67b2617b8224fdfd1ea7234eea573a6ff665ff63e018054909116909317909255601c549154166000908152601b6020526040902055506200035e565b3390565b60008054600160a060020a03838116600160a060020a0319831681178455604051919092169283917f8be0079c531659141344cd1fd0a4f28419497f9722a3daafe3b4186f6b6457e09190a35050565b8051600160a060020a03811681146200027f57600080fd5b919050565b60006020828403121562000296578081fd5b620002a18262000267565b9392505050565b60008060408385031215620002bb578081fd5b620002c68362000267565b9150620002d66020840162000267565b90509250929050565b60008262000314577f4e487b710000000000000000000000000000000000000000000000000000000081526012600452602481fd5b500490565b600081600019048311821515161562000359577f4e487b710000000000000000000000000000000000000000000000000000000081526011600452602481fd5b500290565b6154d7806200036e6000396000f3fe608060405234801561001057600080fd5b50600436106104e75760003560e060020a90048063715018a611610292578063acceea751161016b578063c909adc0116100dd578063f298e49311610096578063f298e49314610d53578063f2fde38b14610d66578063f44e3ce114610d79578063f7a64da314610d8c578063f8df0cd314610dbd578063fa119fee14610dd057600080fd5b8063c909adc014610cff578063d0b5efa914610d08578063d0f86b2614610d1b578063da043af314610d2e578063e325fb4b14610d41578063eb7a700d14610d4a57600080fd5b8063bba1189a1161012f578063bba1189a14610c7d578063c108a85d14610c90578063c3501ff614610c99578063c4f6da1214610cac578063c7780c7314610ccc578063c7c8895614610cdf57600080fd5b8063acceea7514610bfa578063ad3bac1a14610c0d578063b0aad77714610c20578063b5345afa14610c29578063bae5435314610c5d57600080fd5b80638da5cb5b1161020457806396324bd4116101c857806396324bd414610b5d5780639d9d9a1014610b7d578063a80bf3e614610b90578063a88d8fea14610ba3578063ab803e9914610bb6578063ac80b61214610bc957600080fd5b80638da5cb5b14610abe5780638f4d41e814610acf578063916c42dc14610af0578063938f173714610b1057806393ac363814610b4a57600080fd5b80637d9f6db5116102565780637d9f6db514610a1e5780638049e17b14610a31578063814e7c0f14610a6257806383fd1a5414610a85578063842fc1a314610a985780638503d2cd14610aab57600080fd5b8063715018a6146109d15780637523d4bd146109d957806376821827146109f957806376ec17b714610a02578063776498d414610a1557600080fd5b806343af356b116103c4578063558a7297116103365780636482ff98116102fa5780636482ff98146108f057806364ebaaeb14610903578063660dbeb81461093157806366edd87b146109445780636b942b86146109575780636f700e25146109b257600080fd5b8063558a72971461085e578063563c5e30146108715780635a8542be1461089c57806361d027b3146108bd57806363c0ea10146108d057600080fd5b80634dc1a3e0116103885780634dc1a3e0146107ac5780634e4b61c3146107d75780634f8d32be146107f7578063502a1d3f14610800578063515cc5321461082057806352a437fe1461083357600080fd5b806343af356b146106ef57806345f2d1051461071a5780634654ff051461074557806346aa25a21461074e5780634768d4ef1461078c57600080fd5b8063171b612c1161045d5780632b57298b116104215780632b57298b146106875780632bcf161c1461069a57806333f3d628146106ad57806334e7a1a8146106c057806337867c94146106d35780633dbc65c7146106dc57600080fd5b8063171b612c1461062557806317a9c7bd1461062e5780631d1a7fe81461064e578063259239a11461066157806327de9e321461067457600080fd5b80630b1fcfde116104af5780630b1fcfde146105605780630d265df9146105735780631152df0f1461059357806311ef14dd146105bc578063126f648c146105cf57806313e7c9d81461060257600080fd5b8063040308e4146104ec5780630713ee7e14610512578063079dc7f414610527578063083559d31461053a5780630971823f1461054d575b600080fd5b6104ff6104fa366004614b85565b610de3565b6040519081526020015b60405180910390f35b610525610520366004614ce5565b610e8b565b005b6104ff610535366004614eb6565b6110c4565b6104ff610548366004614bd5565b611166565b6104ff61055b366004614c42565b61127e565b61052561056e366004614e6c565b6113d9565b610586610581366004614d6b565b61143f565b6040516105099190614f83565b6104ff6105a1366004614b15565b600160a060020a031660009081526022602052604090205490565b6105256105ca366004614d6b565b6115e1565b6105f26105dd366004614d6b565b600f6020526000908152604090205460ff1681565b6040519015158152602001610509565b6105f2610610366004614b15565b60296020526000908152604090205460ff1681565b6104ff60055481565b6104ff61063c366004614d6b565b60186020526000908152604090205481565b6104ff61065c366004614c42565b611613565b61052561066f366004614cae565b6116ad565b610525610682366004614d6b565b611a5e565b6104ff610695366004614d6b565b611b83565b6104ff6106a8366004614b15565b611ba4565b6105256106bb366004614c42565b611bf5565b6105256106ce366004614d6b565b611caa565b6104ff600d5481565b6104ff6106ea366004614b4d565b611e61565b6104ff6106fd366004614c42565b601560209081526000928352604080842090915290825290205481565b6104ff610728366004614b4d565b601e60209081526000928352604080842090915290825290205481565b6104ff60035481565b61076161075c366004614eb6565b611ee2565b60408051948552600160a060020a039384166020860152840191909152166060820152608001610509565b61079f61079a366004614d6b565b611f34565b6040516105099190614fe6565b602a546107bf90600160a060020a031681565b604051600160a060020a039091168152602001610509565b6104ff6107e5366004614d6b565b60246020526000908152604090205481565b6104ff60045481565b6104ff61080e366004614b15565b601b6020526000908152604090205481565b61058661082e366004614d6b565b611fce565b6104ff610841366004614eb6565b601160209081526000928352604080842090915290825290205481565b61052561086c366004614c15565b61213b565b6104ff61087f366004614c42565b601460209081526000928352604080842090915290825290205481565b6108af6108aa366004614d6b565b612193565b604051610509929190614fc4565b600a546107bf90600160a060020a031681565b6104ff6108de366004614d6b565b60176020526000908152604090205481565b6107bf6108fe366004614d6b565b612314565b6105f2610911366004614c42565b602660209081526000928352604080842090915290825290205460ff1681565b6104ff61093f366004614bd5565b61233e565b6104ff610952366004614c42565b6123da565b610997610965366004614bd5565b601d60209081526000938452604080852082529284528284209052825290208054600182015460029092015490919083565b60408051938452602084019290925290820152606001610509565b6104ff6109c0366004614b15565b602080526000908152604090205481565b6105256124a2565b6104ff6109e7366004614b15565b60236020526000908152604090205481565b6104ff602b5481565b610525610a10366004614cae565b6124db565b6104ff601c5481565b600b546107bf90600160a060020a031681565b6104ff610a3f366004614ce5565b601260209081526000938452604080852082529284528284209052825290205481565b6105f2610a70366004614d6b565b60276020526000908152604090205460ff1681565b610525610a93366004614ce5565b612852565b610525610aa6366004614b15565b612a48565b610525610ab9366004614df5565b612b6e565b600054600160a060020a03166107bf565b610ae2610add366004614d6b565b612fca565b604051610509929190614f96565b6104ff610afe366004614b15565b60216020526000908152604090205481565b610997610b1e366004614c42565b601f60209081526000928352604080842090915290825290208054600182015460029092015490919083565b610525610b58366004614b15565b6132a4565b6104ff610b6b366004614d6b565b600c6020526000908152604090205481565b610586610b8b366004614d6b565b613300565b602c546107bf90600160a060020a031681565b6009546107bf90600160a060020a031681565b610525610bc4366004614d6b565b61345a565b6104ff610bd7366004614dbf565b602860209081526000938452604080852082529284528284209052825290205481565b6104ff610c08366004614b15565b613578565b610525610c1b366004614b15565b6135f2565b6104ff60025481565b6105f2610c37366004614ce5565b602560209081526000938452604080852082529284528284209052825290205460ff1681565b6104ff610c6b366004614d6b565b60009081526010602052604090205490565b610525610c8b366004614ed7565b61364e565b6104ff60065481565b610525610ca7366004614d9b565b6137c3565b6104ff610cba366004614d6b565b60086020526000908152604090205481565b610586610cda366004614d6b565b613948565b6104ff610ced366004614d6b565b60196020526000908152604090205481565b6104ff60165481565b610525610d16366004614d6b565b613c11565b6104ff610d29366004614c42565b613c73565b610525610d3c366004614c42565b613d93565b6104ff60075481565b6104ff60015481565b610525610d61366004614d6b565b613ebf565b610525610d74366004614b15565b613ef1565b610525610d87366004614c6d565b613fa9565b6104ff610d9a366004614ce5565b601360209081526000938452604080852082529284528284209052825290205481565b610997610dcb366004614c42565b61420a565b610586610dde366004614d6b565b61424c565b600160a060020a0380831660009081526015602090815260408083208584528252808320548885168452601d835281842094881684529382528083208484528252808320815160608101835281548082526001830154948201949094526002909101549181019190915291929190610e5a42611b83565b610e678360400151611b83565b1015610e80576020820151610e7d908290614329565b90505b979650505050505050565b600d546000908152600c6020526040902054421015610ec85760405160e560020a62461bcd028152600401610ebf906150eb565b60405180910390fd5b600354600d546000908152600c60205260409020544291610ee99190614329565b1015610f0a5760405160e560020a62461bcd028152600401610ebf90615122565b600160a060020a038316600090815260156020908152604080832085845290915290205483908390610f515760405160e560020a62461bcd028152600401610ebf90615159565b6000610f5c33613578565b905083811015610fb15760405160e560020a62461bcd02815260206004820152601b60248201527f496e73756666696369656e7420626f6e6465642062616c616e636500000000006044820152606401610ebf565b610fbd3387878761433c565b600160a060020a0386166000908152601560209081526040808320888452825280832054338452601f8352818420818552909252909120610ffd42611b83565b61100a8260020154611b83565b101561102a576001810154815461102091614329565b8155600060018201555b60018101546110399087614329565b600182015542600282015533600090815260208052604090205461105d9087614329565b3360009081526020808052604080832093909355601e8152828220600954600160a060020a03168352905220546110949087614329565b336000908152601e60209081526040808320600954600160a060020a031684529091529020555050505050505050565b600080805b60008581526010602052604090205481101561115c5760008581526010602052604081208054839081106111105760e060020a634e487b7102600052603260045260246000fd5b60009182526020808320600490920290910154878352601182526040808420828552909252912054909150611146908490614329565b9250508080611154906153ff565b9150506110c9565b5090505b92915050565b60008061117242611b83565b90506000611181600d5461424c565b600160a060020a0386166000908152601560209081526040808320888452909152812054919250805b835181101561127257848482815181106111d75760e060020a634e487b7102600052603260045260246000fd5b60200260200101511161126057600160a060020a0389166000908152601260205260408120855161125d92908790859081106112265760e060020a634e487b7102600052603260045260246000fd5b602002602001015181526020019081526020016000206000858152602001908152602001600020548361432990919063ffffffff16565b91505b8061126a816153ff565b9150506111aa565b50979650505050505050565b60008061128a8361424c565b9050600061129784611fce565b90506000806112a542611b83565b905060005b84518110156113cd57818582815181106112d75760e060020a634e487b7102600052603260045260246000fd5b6020026020010151106112e9576113cd565b60006113ab670de0b6b3a76400006113a587858151811061131d5760e060020a634e487b7102600052603260045260246000fd5b6020026020010151601360008e600160a060020a0316600160a060020a0316815260200190815260200160002060008d815260200190815260200160002060008b88815181106113805760e060020a634e487b7102600052603260045260246000fd5b602002602001015181526020019081526020016000205461458b90919063ffffffff16565b90614597565b90506113b78482614329565b93505080806113c5906153ff565b9150506112aa565b50909695505050505050565b3360009081526029602052604090205460ff16806114015750600054600160a060020a031633145b6114205760405160e560020a62461bcd028152600401610ebf906151fc565b6000838152600e602052604090206114399083836149f3565b50505050565b6000818152601060209081526040808320805482518185028101850190935280835260609493849084015b828210156114ce576000848152602090819020604080516080810182526004860290920180548352600180820154600160a060020a03908116858701526002830154938501939093526003909101549091166060830152908352909201910161146a565b505050509050805167ffffffffffffffff8111156114ff5760e060020a634e487b7102600052604160045260246000fd5b604051908082528060200260200182016040528015611528578160200160208202803683370190505b50915060008061153785612193565b909250905080156115d95760005b83518110156115d757611597826113a5670de0b6b3a76400008685815181106115815760e060020a634e487b7102600052603260045260246000fd5b602002602001015161458b90919063ffffffff16565b8582815181106115ba5760e060020a634e487b7102600052603260045260246000fd5b6020908102919091010152806115cf816153ff565b915050611545565b505b505050919050565b600054600160a060020a0316331461160e5760405160e560020a62461bcd028152600401610ebf906151c7565b600255565b600160a060020a0382166000908152601560209081526040808320848452825280832054835260198252808320548084526017909252822054156116a357600081815260176020908152604080832054600654600160a060020a0389168552601584528285208886528452828520548552601890935292205461169b92916113a5919061458b565b915050611160565b6000915050611160565b816000805b601a548110156117205782600160a060020a0316601a82815481106116ea5760e060020a634e487b7102600052603260045260246000fd5b600091825260209091200154600160a060020a0316141561170e5760019150611720565b80611718816153ff565b9150506116b2565b50806117715760405160e560020a62461bcd02815260206004820152601260248201527f496e76616c696420566f746520546f6b656e00000000000000000000000000006044820152606401610ebf565b600d546000908152600c60205260409020544210156117a55760405160e560020a62461bcd028152600401610ebf906150eb565b600354600d546000908152600c602052604090205442916117c69190614329565b10156117e75760405160e560020a62461bcd028152600401610ebf90615122565b600160a060020a03861660009081526015602090815260408083208884529091529020548690869061182e5760405160e560020a62461bcd028152600401610ebf90615159565b600085116118515760405160e560020a62461bcd028152600401610ebf90615190565b600061185d87876145a3565b905061186b338a8a8461433c565b6040517f23b872dd00000000000000000000000000000000000000000000000000000000815233600482015230602482015260448101879052600160a060020a038816906323b872dd90606401602060405180830381600087803b1580156118d257600080fd5b505af11580156118e6573d6000803e3d6000fd5b505050506040513d601f19601f8201168201806040525081019061190a9190614d4f565b50600d5460009081526028602090815260408083203384528252808320600160a060020a038b1684529091529020546119439087614329565b600d54600090815260286020908152604080832033808552908352818420600160a060020a038d811680875291855283862096909655948e168452601583528184208d8552835281842054908452601d835281842094845293825280832084845290915290206119b242611b83565b6119bf8260020154611b83565b10156119df57600181015481546119d591614329565b8155600060018201555b60018101546119ee9089614329565b6001820155426002820155336000908152601e60209081526040808320600160a060020a038d168452909152902054611a279089614329565b336000908152601e60209081526040808320600160a060020a039d909d1683529b9052999099209890985550505050505050505050565b6000611a6933613578565b905081811015611abe5760405160e560020a62461bcd02815260206004820152601b60248201527f496e73756666696369656e7420626f6e6465642062616c616e636500000000006044820152606401610ebf565b336000818152602260209081526040808320815160608101835287815242818501908152818401868152835460018181018655948852868820935160039091029093019283559051928201929092559051600290910155928252602390522054611b289083614329565b33600081815260236020526040908190209290925590517f7659747cd8571f1071eea946fdc648adcf181cad916f32a05f82c3a52597604890611b779085904290918252602082015260400190565b60405180910390a25050565b6000611160611b9d6001548461473990919063ffffffff16565b8390614745565b60008060015b600d548111611bee57611bda611bc08583613c73565b611bd4611bcd878561127e565b8590614329565b90614329565b915080611be6816153ff565b915050611baa565b5092915050565b600054600160a060020a03163314611c225760405160e560020a62461bcd028152600401610ebf906151c7565b60405160e060020a63a9059cbb02815233600482015260248101829052600160a060020a0383169063a9059cbb90604401602060405180830381600087803b158015611c6d57600080fd5b505af1158015611c81573d6000803e3d6000fd5b505050506040513d601f19601f82011682018060405250810190611ca59190614d4f565b505050565b336000908152602260205260408120805483908110611cdc5760e060020a634e487b7102600052603260045260246000fd5b906000526020600020906003020190506000611d136001546113a5611d048560010154611b83565b611d0d42611b83565b90614745565b9050603c811115611d225750603c5b6000611d40603c6113a585600001548561458b90919063ffffffff16565b90506000611d5b84600201548361474590919063ffffffff16565b60028501839055600a546040517fc8773af200000000000000000000000000000000000000000000000000000000815233600482015260248101839052919250600091600160a060020a039091169063c8773af290604401602060405180830381600087803b158015611dcd57600080fd5b505af1158015611de1573d6000803e3d6000fd5b505050506040513d601f19601f82011682018060405250810190611e059190614d83565b9050818114611e595760405160e560020a62461bcd02815260206004820152601d60248201527f496e73756666696369656e742074726561737572792062616c616e63650000006044820152606401610ebf565b505050505050565b60008060015b600d54811161115c576003546000828152600c60205260409020544291611e8d91615233565b1015611ed0576000818152602860209081526040808320600160a060020a03808a1685529083528184209088168452909152902054611ecd908390614329565b91505b80611eda816153ff565b915050611e67565b60106020528160005260406000208181548110611efe57600080fd5b60009182526020909120600490910201805460018201546002830154600390930154919450600160a060020a0390811693501684565b600e6020526000908152604090208054611f4d906153c7565b80601f0160208091040260200160405190810160405280929190818152602001828054611f79906153c7565b8015611fc65780601f10611f9b57610100808354040283529160200191611fc6565b820191906000526020600020905b815481529060010190602001808311611fa957829003601f168201915b505050505081565b60606000611fdb8361424c565b90506000611fe884612fca565b915050815167ffffffffffffffff8111156120165760e060020a634e487b7102600052604160045260246000fd5b60405190808252806020026020018201604052801561203f578160200160208202803683370190505b50925060005b82518110156115d95761205742611b83565b83828151811061207a5760e060020a634e487b7102600052603260045260246000fd5b6020026020010151111561208d576115d9565b60006120c3868584815181106120b65760e060020a634e487b7102600052603260045260246000fd5b60200260200101516110c4565b90508015612128576120f8816113a56005548686815181106115815760e060020a634e487b7102600052603260045260246000fd5b85838151811061211b5760e060020a634e487b7102600052603260045260246000fd5b6020026020010181815250505b5080612133816153ff565b915050612045565b600054600160a060020a031633146121685760405160e560020a62461bcd028152600401610ebf906151c7565b600160a060020a03919091166000908152602960205260409020805460ff1916911515919091179055565b6000818152601060205260408120546060919067ffffffffffffffff8111156121cf5760e060020a634e487b7102600052604160045260246000fd5b6040519080825280602002602001820160405280156121f8578160200160208202803683370190505b50915060005b60008481526010602052604090205481101561230e57600b546000858152600e602052604080822090517fe3c6623d0000000000000000000000000000000000000000000000000000000081529192600160a060020a03169163e3c6623d9161226b918690600401615039565b60606040518083038186803b15801561228357600080fd5b505afa158015612297573d6000803e3d6000fd5b505050506040513d601f19601f820116820180604052508101906122bb9190614d19565b92505050808483815181106122e35760e060020a634e487b7102600052603260045260246000fd5b60209081029190910101526122f88382614329565b9250508080612306906153ff565b9150506121fe565b50915091565b601a818154811061232457600080fd5b600091825260209091200154600160a060020a0316905081565b600160a060020a0380831660009081526015602090815260408083208584528252808320549387168352601f825280832084845282528083208151606081018352815480825260018301549482019490945260029091015491810191909152919291906123aa42611b83565b6123b78360400151611b83565b10156123d05760208201516123cd908290614329565b90505b9695505050505050565b6000806123e642611b83565b905060006123f5600d5461424c565b600160a060020a0386166000908152601560209081526040808320888452909152812054919250805b8351811015612497578484828151811061244b5760e060020a634e487b7102600052603260045260246000fd5b60200260200101511161248557612482601160008684815181106112265760e060020a634e487b7102600052603260045260246000fd5b91505b8061248f816153ff565b91505061241e565b509695505050505050565b600054600160a060020a031633146124cf5760405160e560020a62461bcd028152600401610ebf906151c7565b6124d96000614751565b565b816000805b601a5481101561254e5782600160a060020a0316601a82815481106125185760e060020a634e487b7102600052603260045260246000fd5b600091825260209091200154600160a060020a0316141561253c576001915061254e565b80612546816153ff565b9150506124e0565b508061259f5760405160e560020a62461bcd02815260206004820152601260248201527f496e76616c696420566f746520546f6b656e00000000000000000000000000006044820152606401610ebf565b600160a060020a0386166000908152601560209081526040808320888452909152902054869086906125e65760405160e560020a62461bcd028152600401610ebf90615159565b600085116126095760405160e560020a62461bcd028152600401610ebf90615190565b600061261733888b8b610de3565b90508581101561266c5760405160e560020a62461bcd02815260206004820152601460248201527f496e73756666696369656e742062616c616e63650000000000000000000000006044820152606401610ebf565b600061267888886145a3565b9050612686338b8b846147ae565b60405160e060020a63a9059cbb02815233600482015260248101889052600160a060020a0389169063a9059cbb90604401602060405180830381600087803b1580156126d157600080fd5b505af11580156126e5573d6000803e3d6000fd5b505050506040513d601f19601f820116820180604052508101906127099190614d4f565b50600d5460009081526028602090815260408083203384528252808320600160a060020a038c1684529091529020546127429088614745565b600d54600090815260286020908152604080832033808552908352818420600160a060020a038e811680875291855283862096909655948f168452601583528184208e8552835281842054908452601d835281842094845293825280832084845290915290206127b142611b83565b6127be8260020154611b83565b10156127de57600181015481546127d491614329565b8155600060018201555b80546127ea908a614745565b8155336000908152601e60209081526040808320600160a060020a038e16845290915290205461281a908a614745565b336000908152601e60209081526040808320600160a060020a039e909e1683529c90529a909a20999099555050505050505050505050565b600d546000908152600c60205260409020544210156128865760405160e560020a62461bcd028152600401610ebf906150eb565b600354600d546000908152600c602052604090205442916128a79190614329565b10156128c85760405160e560020a62461bcd028152600401610ebf90615122565b600160a060020a03831660009081526015602090815260408083208584529091529020548390839061290f5760405160e560020a62461bcd028152600401610ebf90615159565b600061291c33878761233e565b9050838110156129715760405160e560020a62461bcd02815260206004820152601e60248201527f496e73756666696369656e7420756e766f7461626c652062616c616e636500006044820152606401610ebf565b61297d338787876147ae565b600160a060020a0386166000908152601560209081526040808320888452825280832054338452601f83528184208185529092529091206129bd42611b83565b6129ca8260020154611b83565b10156129ea57600181015481546129e091614329565b8155600060018201555b80546129f69087614745565b8155336000908152602080526040902054612a119087614745565b3360009081526020808052604080832093909355601e8152828220600954600160a060020a03168352905220546110949087614745565b6000612a543383611e61565b905060008111612aa95760405160e560020a62461bcd02815260206004820152601460248201527f576974686472617761626c65206973207a65726f0000000000000000000000006044820152606401610ebf565b60405160e060020a63a9059cbb02815233600482015260248101829052600160a060020a0383169063a9059cbb90604401602060405180830381600087803b158015612af457600080fd5b505af1158015612b08573d6000803e3d6000fd5b505050506040513d601f19601f82011682018060405250810190612b2c9190614d4f565b5060408051600160a060020a03841681526020810183905233917fd12200efa34901b99367694174c3b0d32c99585fdf37c7c26892136ddd0836d99101611b77565b3360009081526029602052604090205460ff1680612b965750600054600160a060020a031633145b612bb55760405160e560020a62461bcd028152600401610ebf906151fc565b828114612c075760405160e560020a62461bcd02815260206004820152600e60248201527f496e76616c696420706172616d730000000000000000000000000000000000006044820152606401610ebf565b6000858152601060205260408120905b84811015612fc15760156000878784818110612c465760e060020a634e487b7102600052603260045260246000fd5b9050602002016020810190612c5b9190614b15565b600160a060020a0316600160a060020a031681526020019081526020016000206000858584818110612ca05760e060020a634e487b7102600052603260045260246000fd5b90506020020135815260200190815260200160002054600014612d085760405160e560020a62461bcd02815260206004820152601260248201527f4e465420686173206265656e20616464656400000000000000000000000000006044820152606401610ebf565b60168054906000612d18836153ff565b919050555060165460156000888885818110612d475760e060020a634e487b7102600052603260045260246000fd5b9050602002016020810190612d5c9190614b15565b600160a060020a0316600160a060020a031681526020019081526020016000206000868685818110612da15760e060020a634e487b7102600052603260045260246000fd5b905060200201358152602001908152602001600020819055506000868683818110612ddf5760e060020a634e487b7102600052603260045260246000fd5b9050602002016020810190612df49190614b15565b600160a060020a0316636352211e868685818110612e255760e060020a634e487b7102600052603260045260246000fd5b905060200201356040518263ffffffff1660e060020a028152600401612e4d91815260200190565b60206040518083038186803b158015612e6557600080fd5b505afa158015612e79573d6000803e3d6000fd5b505050506040513d601f19601f82011682018060405250810190612e9d9190614b31565b90508260405180608001604052806016548152602001898986818110612ed65760e060020a634e487b7102600052603260045260246000fd5b9050602002016020810190612eeb9190614b15565b600160a060020a03168152602001878786818110612f1c5760e060020a634e487b7102600052603260045260246000fd5b60209081029290920135835250600160a060020a03948516918101919091528254600181810185556000948552828520845160049093020191825583830151908201805491871673ffffffffffffffffffffffffffffffffffffffff1992831617905560408085015160028401556060909401516003909201805492909616911617909355601654825260199092522087905580612fb9816153ff565b915050612c17565b50505050505050565b6060806000612fd88461424c565b9050805167ffffffffffffffff8111156130055760e060020a634e487b7102600052604160045260246000fd5b60405190808252806020026020018201604052801561302e578160200160208202803683370190505b509250805167ffffffffffffffff81111561305c5760e060020a634e487b7102600052604160045260246000fd5b604051908082528060200260200182016040528015613085578160200160208202803683370190505b50915060005b815181101561329d5760006130bd868484815181106120b65760e060020a634e487b7102600052603260045260246000fd5b6000878152600860205260409020549091506130e5906113a583670de0b6b3a764000061458b565b8583815181106131085760e060020a634e487b7102600052603260045260246000fd5b602002602001018181525050670429d069189e00008583815181106131405760e060020a634e487b7102600052603260045260246000fd5b6020026020010151101561318b576702c68af0bb14000084838151811061317a5760e060020a634e487b7102600052603260045260246000fd5b60200260200101818152505061328a565b670429d069189e00008583815181106131b75760e060020a634e487b7102600052603260045260246000fd5b6020026020010151101580156131fe57506709b6e64a8ec600008583815181106131f45760e060020a634e487b7102600052603260045260246000fd5b6020026020010151105b15613251578482815181106132265760e060020a634e487b7102600052603260045260246000fd5b602002602001015184838151811061317a5760e060020a634e487b7102600052603260045260246000fd5b670de0b6b3a764000084838151811061327d5760e060020a634e487b7102600052603260045260246000fd5b6020026020010181815250505b5080613295816153ff565b91505061308b565b5050915091565b600054600160a060020a031633146132d15760405160e560020a62461bcd028152600401610ebf906151c7565b600b805473ffffffffffffffffffffffffffffffffffffffff1916600160a060020a0392909216919091179055565b60008181526010602052604090205460609067ffffffffffffffff81111561333b5760e060020a634e487b7102600052604160045260246000fd5b604051908082528060200260200182016040528015613364578160200160208202803683370190505b50905060005b600083815260106020526040902054811015613454576000838152601760205260409020541561344257600083815260176020908152604080832054600654601090935290832080546134129492936113a5939092601892889081106133e35760e060020a634e487b7102600052603260045260246000fd5b90600052602060002090600402016000015481526020019081526020016000205461458b90919063ffffffff16565b8282815181106134355760e060020a634e487b7102600052603260045260246000fd5b6020026020010181815250505b8061344c816153ff565b91505061336a565b50919050565b602c546040517fc7b1e3f200000000000000000000000000000000000000000000000000000000815260048101839052336024820152600091600160a060020a03169063c7b1e3f290604401602060405180830381600087803b1580156134c057600080fd5b505af11580156134d4573d6000803e3d6000fd5b505050506040513d601f19601f820116820180604052508101906134f89190614d83565b336000908152602160205260409020549091506135159082614329565b33600090815260216020908152604080832093909355601e8152828220600954600160a060020a031683529052205461354e9082614329565b336000908152601e60209081526040808320600954600160a060020a031684529091529020555050565b600160a060020a03811660009081526021602052604081205481906135a090611bd485611ba4565b600160a060020a03841660009081526023602090815260408083205491805282205492935090916135d091614329565b90508082116135e05760006135ea565b6135ea8282614745565b949350505050565b600054600160a060020a0316331461361f5760405160e560020a62461bcd028152600401610ebf906151c7565b602a805473ffffffffffffffffffffffffffffffffffffffff1916600160a060020a0392909216919091179055565b3360009081526029602052604090205460ff16806136765750600054600160a060020a031633145b6136955760405160e560020a62461bcd028152600401610ebf906151fc565b600d5415806136c35750600354600d546000908152600c602052604090205442916136c09190614329565b11155b6137125760405160e560020a62461bcd02815260206004820152601b60248201527f50726576696f75732067726f7570206973206e6f74206f7665722e00000000006044820152606401610ebf565b61371b42611b83565b83101561376d5760405160e560020a62461bcd02815260206004820152601260248201527f496e76616c69642073746172742074696d6500000000000000000000000000006044820152606401610ebf565b600d805490600061377d836153ff565b9091555050600d80546000908152600c60209081526040808320879055835483526008825280832088905592548252600e9052206137bc9083836149f3565b5050505050565b6003546000838152600c602052604090205442916137e091615233565b106138305760405160e560020a62461bcd02815260206004820152601060248201527f566f7465206973206e6f74206f766572000000000000000000000000000000006044820152606401610ebf565b60008281526028602090815260408083203384528252808320600160a060020a03851684529091529020548061387b5760405160e560020a62461bcd028152600401610ebf90615190565b60405160e060020a63a9059cbb02815233600482015260248101829052600160a060020a0383169063a9059cbb90604401602060405180830381600087803b1580156138c657600080fd5b505af11580156138da573d6000803e3d6000fd5b505050506040513d601f19601f820116820180604052508101906138fe9190614d4f565b5060408051600160a060020a03841681526020810183905233917fd12200efa34901b99367694174c3b0d32c99585fdf37c7c26892136ddd0836d9910160405180910390a2505050565b606060006139558361143f565b9050600060106000858152602001908152602001600020805480602002602001604051908101604052809291908181526020016000905b828210156139f0576000848152602090819020604080516080810182526004860290920180548352600180820154600160a060020a03908116858701526002830154938501939093526003909101549091166060830152908352909201910161398c565b505050509050805167ffffffffffffffff811115613a215760e060020a634e487b7102600052604160045260246000fd5b604051908082528060200260200182016040528015613a4a578160200160208202803683370190505b5092506000613a5885612fca565b9150506000613ab5670de0b6b3a76400006113a58460018651613a7b91906153b0565b81518110613a9c5760e060020a634e487b7102600052603260045260246000fd5b602002602001015160075461458b90919063ffffffff16565b905060005b8351811015613c075760186000858381518110613aea5760e060020a634e487b7102600052603260045260246000fd5b60200260200101516000015181526020019081526020016000205460001415613b43576000868281518110613b325760e060020a634e487b7102600052603260045260246000fd5b602002602001018181525050613bf5565b613bc560186000868481518110613b6d5760e060020a634e487b7102600052603260045260246000fd5b6020026020010151600001518152602001908152602001600020546113a5878481518110613bae5760e060020a634e487b7102600052603260045260246000fd5b60200260200101518561458b90919063ffffffff16565b868281518110613be85760e060020a634e487b7102600052603260045260246000fd5b6020026020010181815250505b80613bff816153ff565b915050613aba565b5050505050919050565b3360009081526029602052604090205460ff1680613c395750600054600160a060020a031633145b613c585760405160e560020a62461bcd028152600401610ebf906151fc565b6000908152600f60205260409020805460ff19166001179055565b6000818152600f602052604081205460ff16613c9157506000611160565b600080613c9d84613948565b905060005b600085815260106020526040902054811015613d8957600160a060020a038616600090815260146020908152604080832088845260109092528220805483919085908110613d035760e060020a634e487b7102600052603260045260246000fd5b9060005260206000209060040201600001548152602001908152602001600020549050613d7384611bd4670de0b6b3a76400006113a5878781518110613d5c5760e060020a634e487b7102600052603260045260246000fd5b60200260200101518661458b90919063ffffffff16565b9350508080613d81906153ff565b915050613ca2565b5090949350505050565b3360009081526029602052604090205460ff1680613dbb5750600054600160a060020a031633145b613dda5760405160e560020a62461bcd028152600401610ebf906151fc565b600160a060020a0382166000908152601b602052604081208290555b601a54811015613e605782600160a060020a0316601a8281548110613e2e5760e060020a634e487b7102600052603260045260246000fd5b600091825260209091200154600160a060020a03161415613e4e57505050565b80613e58816153ff565b915050613df6565b50601a80546001810182556000919091527f057c384a7d1c54f3a1b2e5e67b2617b8224fdfd1ea7234eea573a6ff665ff63e018054600160a060020a03841673ffffffffffffffffffffffffffffffffffffffff199091161790555050565b600054600160a060020a03163314613eec5760405160e560020a62461bcd028152600401610ebf906151c7565b602b55565b600054600160a060020a03163314613f1e5760405160e560020a62461bcd028152600401610ebf906151c7565b600160a060020a038116613f9d5760405160e560020a62461bcd02815260206004820152602660248201527f4f776e61626c653a206e6577206f776e657220697320746865207a65726f206160448201527f64647265737300000000000000000000000000000000000000000000000000006064820152608401610ebf565b613fa681614751565b50565b602a54600160a060020a031633146140065760405160e560020a62461bcd02815260206004820152600960248201527f466f7262696464656e00000000000000000000000000000000000000000000006044820152606401610ebf565b600160a060020a03831660009081526015602090815260408083208584528252808320548084526019835281842054602790935292205460ff16156140905760405160e560020a62461bcd02815260206004820152600760248201527f436c61696d6564000000000000000000000000000000000000000000000000006044820152606401610ebf565b6000805b6000838152601060205260409020548110156141425760008381526010602052604090208054859190839081106140de5760e060020a634e487b7102600052603260045260246000fd5b9060005260206000209060040201600001541415614130576140ff83613300565b81815181106141215760e060020a634e487b7102600052603260045260246000fd5b60200260200101519150614142565b8061413a816153ff565b915050614094565b508015611e5957600a546040517fc8773af2000000000000000000000000000000000000000000000000000000008152600160a060020a038681166004830152602482018490529091169063c8773af290604401602060405180830381600087803b1580156141b057600080fd5b505af11580156141c4573d6000803e3d6000fd5b505050506040513d601f19601f820116820180604052508101906141e89190614d83565b506000838152602760205260409020805460ff19166001179055505050505050565b6022602052816000526040600020818154811061422657600080fd5b600091825260209091206003909102018054600182015460029092015490935090915083565b6000818152600c60205260409020546002546060919067ffffffffffffffff81111561428b5760e060020a634e487b7102600052604160045260246000fd5b6040519080825280602002602001820160405280156142b4578160200160208202803683370190505b50915060006142c282611b83565b905060005b6002548110156115d9576142e9600154826142e29190615350565b8390614329565b84828151811061430c5760e060020a634e487b7102600052603260045260246000fd5b602090810291909101015280614321816153ff565b9150506142c7565b60006143358284615233565b9392505050565b600061434742611b83565b90506000614356600d5461424c565b600160a060020a03861660009081526015602090815260408083208884529091528120549192505b825181101561458157838382815181106143ab5760e060020a634e487b7102600052603260045260246000fd5b60200260200101511061456f5760008382815181106143dd5760e060020a634e487b7102600052603260045260246000fd5b6020908102919091018101516000818152601183526040808220878352909352919091205490915061440f9087614329565b6000828152601160209081526040808320878452825280832093909355600160a060020a038c168252601281528282208483528152828220868352905220546144589087614329565b600160a060020a038a166000818152601260209081526040808320868452825280832088845282528083209490945591815260138252828120600d548252825282812084825290915220546144ad9087614329565b600160a060020a038a166000818152601360209081526040808320600d54845282528083208684528252808320949094559181526014825282812086825290915220546144fa9087614329565b600160a060020a038a1660009081526014602090815260408083208784528252808320939093556018905220546145319087614329565b600084815260186020908152604080832093909355600d54825260179052205461455b9087614329565b600d54600090815260176020526040902055505b80614579816153ff565b91505061437e565b5050505050505050565b60006143358284615350565b6000614335828461524b565b600080600960009054906101000a9004600160a060020a0316600160a060020a031663313ce5676040518163ffffffff1660e060020a02815260040160206040518083038186803b1580156145f757600080fd5b505afa15801561460b573d6000803e3d6000fd5b505050506040513d601f19601f8201168201806040525081019061462f9190614f28565b84600160a060020a031663313ce5676040518163ffffffff1660e060020a02815260040160206040518083038186803b15801561466b57600080fd5b505afa15801561467f573d6000803e3d6000fd5b505050506040513d601f19601f820116820180604052508101906146a39190614f28565b6146ad919061536f565b905060008160000b126146f15761169b6146c882600a6152a4565b601c54600160a060020a0387166000908152601b60205260409020546113a5919082908861458b565b61169b6146fd8261542e565b61470890600a6152a4565b601c54600160a060020a0387166000908152601b602052604090205461473391906113a5908861458b565b9061458b565b6000614335828461541a565b600061433582846153b0565b60008054600160a060020a0383811673ffffffffffffffffffffffffffffffffffffffff19831681178455604051919092169283917f8be0079c531659141344cd1fd0a4f28419497f9722a3daafe3b4186f6b6457e09190a35050565b60006147b942611b83565b905060006147c8600d5461424c565b600160a060020a03861660009081526015602090815260408083208884529091528120549192505b8251811015614581578383828151811061481d5760e060020a634e487b7102600052603260045260246000fd5b6020026020010151106149e157600083828151811061484f5760e060020a634e487b7102600052603260045260246000fd5b602090810291909101810151600081815260118352604080822087835290935291909120549091506148819087614745565b6000828152601160209081526040808320878452825280832093909355600160a060020a038c168252601281528282208483528152828220868352905220546148ca9087614745565b600160a060020a038a166000818152601260209081526040808320868452825280832088845282528083209490945591815260138252828120600d5482528252828120848252909152205461491f9087614745565b600160a060020a038a166000818152601360209081526040808320600d548452825280832086845282528083209490945591815260148252828120868252909152205461496c9087614745565b600160a060020a038a1660009081526014602090815260408083208784528252808320939093556018905220546149a39087614745565b600084815260186020908152604080832093909355600d5482526017905220546149cd9087614745565b600d54600090815260176020526040902055505b806149eb816153ff565b9150506147f0565b8280546149ff906153c7565b90600052602060002090601f016020900481019282614a215760008555614a67565b82601f10614a3a5782800160ff19823516178555614a67565b82800160010185558215614a67579182015b82811115614a67578235825591602001919060010190614a4c565b50614a73929150614a77565b5090565b5b80821115614a735760008155600101614a78565b60008083601f840112614a9d578182fd5b50813567ffffffffffffffff811115614ab4578182fd5b6020830191508360208083028501011115614ace57600080fd5b9250929050565b60008083601f840112614ae6578182fd5b50813567ffffffffffffffff811115614afd578182fd5b602083019150836020828501011115614ace57600080fd5b600060208284031215614b26578081fd5b81356143358161547e565b600060208284031215614b42578081fd5b81516143358161547e565b60008060408385031215614b5f578081fd5b8235614b6a8161547e565b91506020830135614b7a8161547e565b809150509250929050565b60008060008060808587031215614b9a578182fd5b8435614ba58161547e565b93506020850135614bb58161547e565b92506040850135614bc58161547e565b9396929550929360600135925050565b600080600060608486031215614be9578283fd5b8335614bf48161547e565b92506020840135614c048161547e565b929592945050506040919091013590565b60008060408385031215614c27578182fd5b8235614c328161547e565b91506020830135614b7a81615493565b60008060408385031215614c54578182fd5b8235614c5f8161547e565b946020939093013593505050565b600080600060608486031215614c81578283fd5b8335614c8c8161547e565b9250602084013591506040840135614ca38161547e565b809150509250925092565b60008060008060808587031215614cc3578384fd5b8435614cce8161547e565b9350602085013592506040850135614bc58161547e565b600080600060608486031215614cf9578283fd5b8335614d048161547e565b95602085013595506040909401359392505050565b600080600060608486031215614d2d578283fd5b8351614d388161547e565b602085015160409095015190969495509392505050565b600060208284031215614d60578081fd5b815161433581615493565b600060208284031215614d7c578081fd5b5035919050565b600060208284031215614d94578081fd5b5051919050565b60008060408385031215614dad578182fd5b823591506020830135614b7a8161547e565b600080600060608486031215614dd3578081fd5b833592506020840135614de58161547e565b91506040840135614ca38161547e565b600080600080600060608688031215614e0c578283fd5b85359450602086013567ffffffffffffffff80821115614e2a578485fd5b614e3689838a01614a8c565b90965094506040880135915080821115614e4e578283fd5b50614e5b88828901614a8c565b969995985093965092949392505050565b600080600060408486031215614e80578081fd5b83359250602084013567ffffffffffffffff811115614e9d578182fd5b614ea986828701614ad5565b9497909650939450505050565b60008060408385031215614ec8578182fd5b50508035926020909101359150565b60008060008060608587031215614eec578182fd5b8435935060208501359250604085013567ffffffffffffffff811115614f10578283fd5b614f1c87828801614ad5565b95989497509550505050565b600060208284031215614f39578081fd5b815160ff81168114614335578182fd5b6000815180845260208085019450808401835b83811015614f7857815187529582019590820190600101614f5c565b509495945050505050565b6020815260006143356020830184614f49565b604081526000614fa96040830185614f49565b8281036020840152614fbb8185614f49565b95945050505050565b604081526000614fd76040830185614f49565b90508260208301529392505050565b6000602080835283518082850152825b8181101561501257858101830151858201604001528201614ff6565b818111156150235783604083870101525b50601f01601f1916929092016040019392505050565b60408152825460009081906002810460018083168061505957607f831692505b602080841082141561507c5760e060020a634e487b710287526022600452602487fd5b604088018490526060880182801561509b57600181146150ac576150d6565b60ff198716825282820197506150d6565b60008c815260209020895b878110156150d0578154848201529086019084016150b7565b83019850505b50509690960196909652509095945050505050565b60208082526013908201527f566f74696e67206973206e6f7420737461727400000000000000000000000000604082015260600190565b6020808252600e908201527f566f74696e67206973206f766572000000000000000000000000000000000000604082015260600190565b6020808252600b908201527f496e76616c6964204e4654000000000000000000000000000000000000000000604082015260600190565b6020808252600e908201527f416d6f756e74206973207a65726f000000000000000000000000000000000000604082015260600190565b6020808252818101527f4f776e61626c653a2063616c6c6572206973206e6f7420746865206f776e6572604082015260600190565b6020808252600c908201527f4e6f74206f70657261746f720000000000000000000000000000000000000000604082015260600190565b600082198211156152465761524661544c565b500190565b60008261525a5761525a615465565b500490565b600181815b8085111561529c5781600019048211156152805761528061544c565b8085161561528d57918102915b60029094049390800290615264565b509250929050565b600061433560ff8416836000826152bd57506001611160565b816152ca57506000611160565b81600181146152e057600281146152ea57615307565b6001915050611160565b60ff8411156152fb576152fb61544c565b8360020a915050611160565b5060208310610133831016604e8410600b841016171561532a575081810a611160565b615334838361525f565b80600019048211156153485761534861544c565b029392505050565b600081600019048311821515161561536a5761536a61544c565b500290565b600081810b83820b8281128015607f198301841216156153915761539161544c565b81607f0183138116156153a6576153a661544c565b5090039392505050565b6000828210156153c2576153c261544c565b500390565b6002810460018216806153db57607f821691505b602082108114156134545760e060020a634e487b7102600052602260045260246000fd5b60006000198214156154135761541361544c565b5060010190565b60008261542957615429615465565b500690565b600081810b607f198114156154455761544561544c565b9003919050565b60e060020a634e487b7102600052601160045260246000fd5b60e060020a634e487b7102600052601260045260246000fd5b600160a060020a0381168114613fa657600080fd5b8015158114613fa657600080fdfea2646970667358221220d48950b5620c4dc7c68c7ea030b97a147f34a659978431ab4c658c704a34b50664736f6c63430008040033",
  "immutableReferences": {},
  "source": "// SPDX-License-Identifier: MIT\npragma solidity ^0.8.0;\n\nimport \"@openzeppelin/contracts/access/Ownable.sol\";\nimport \"@openzeppelin/contracts/utils/math/SafeMath.sol\";\nimport \"@openzeppelin/contracts/token/ERC20/IERC20.sol\";\nimport \"@openzeppelin/contracts/token/ERC721/IERC721.sol\";\nimport \"@openzeppelin/contracts/token/ERC20/extensions/IERC20Metadata.sol\";\n\n\ninterface ITreasury {\n\tfunction sendRewards(address to, uint256 amount) external returns(uint256 val);\n\tfunction uink() external view returns(address);\n}\n\ninterface IAuction {\n\tfunction matchResults(string calldata matchId, uint index) external view returns(address, uint, uint);\n}\n\ninterface ITokenLocker {\n\tfunction subLockForVote(uint256 lockId, address accountAddress) external returns(uint);\n}\n\n\ncontract VoteMining is Ownable {\n\tusing SafeMath for uint256;\n\n\tuint public VOTE_TIME_UNIT = 1 days;\n\tuint public VOTE_DAYS = 14;\n\tuint public VOTE_DURATION = VOTE_DAYS * VOTE_TIME_UNIT;\n\n\tuint public weeklyCap = 400000 * 1e12;\n\tuint public dailyVoteRewardCap = weeklyCap / VOTE_DAYS / 4; // 25% of daily cap \n\tuint public mintRewardCap = weeklyCap / 4; // 25% of daily cap \n\tuint public bonusCap = weeklyCap  / 2; // 50% of weekly cap\n\t// group id => amount\n\tmapping (uint => uint) public stakingBases;\n\n\n\taddress public uink;\n\tITreasury public treasury;\n\taddress public auction;\n\n\tstruct NFT {\n\t\tuint uid;\n\t\taddress addr;\n\t\tuint id;\n\t\taddress owner;\n\t}\n\t// id => start time\n\tmapping (uint => uint) public groups;\n\tuint public currentGroupId = 0;\n\t// group id => matchId\n\tmapping (uint => string) public matches;\n\t// group id => finished or not\n\tmapping (uint => bool) public hasFinished;\n\t\n\t\n\t// group id => NFT[]\n\tmapping (uint => NFT[]) public groupNFTs;\n\n\t// date => NFT uid => votes\n\tmapping (uint => mapping (uint => uint)) public dayVotes;\n\n\t// user => date => NFT id => amount\n\tmapping (address => mapping (uint => mapping (uint => uint))) public userVotes;\n\n\t// user => groupId => date => votes\n\tmapping (address => mapping (uint => mapping (uint => uint))) public userDailyVotes;\n\n\t// user => nft uid => votes \n\tmapping (address => mapping (uint => uint)) public userNFTVotes;\n\t\n\n\t// nft address => nftId => internal id\n\tmapping (address => mapping (uint => uint)) public nfts;\n\tuint public nextNFTId = 0;\n\n\t// group id => votes\n\tmapping (uint => uint) public groupVotes;\n\n\t// uid => votes\n\tmapping (uint => uint) public nftVotes;\n\n\t// date => votes\n\t// mapping (uint => uint) public dailyTotalVotes;\n\t\n\n\t// uid => group id\n\tmapping (uint => uint) public nftGroup;\n\t\n\taddress[] public voteTokens;\n\t// token => ratio\n\tmapping (address => uint) public voteRatio;\n\n\tuint public voteRatioMax = 10000;\n\t\n\n\tstruct Balance {\n\t\tuint available;\n\t\tuint freezed;\n\t\tuint votedAt;\n\t}\n\n\tstruct UnbondingBalance {\n\t\tuint value;\n\t\tuint unbondedAt;\n\t\tuint redeemed;\n\t}\n\n\t// user => token => uid => Balance\n\tmapping (address => mapping (address => mapping (uint => Balance))) public balances;\n\n\t// user => token => balance\n\tmapping (address => mapping (address => uint)) public userTokenBalances;\n\n\t// user => uid => Balance\n\tmapping (address => mapping (uint => Balance)) public votedBalances; // bonded => voted \n\t\n\t// user => voted amount\n\tmapping (address => uint) public totalVotedBalances;\n\n\t// user => bonded amount\n\tmapping (address => uint) public bondedBalances;\n\n\t// user => UnbondingBalance[]\n\tmapping (address => UnbondingBalance[]) public unbondingBalances;\n\t\n\t// user => total unbonded amount\n\tmapping (address => uint) public unbondedBalances;\n\t\n\n\t// uid => price\n\tmapping (uint => uint) public nftTradedPrices;\n\t// user => group => date => bool\n\tmapping (address => mapping (uint => mapping (uint => bool))) public voteRewardsClaimed;\n\t// user = > group id => bool\n\tmapping (address => mapping (uint => bool)) public bonusRewardsClaimed;\n\t// nft uid => bool\n\tmapping (uint => bool) public mintRewardsClaimed;\n\n\t// groupId => user => token => balance\n\tmapping (uint => mapping (address => mapping (address => uint))) public groupTokenBalances;\n\t\t\n\n\tmapping (address => bool) public operators;\n\n\taddress public pinAddress;\n\n\tuint public tokenLockId = 0;\n\n\taddress public tokenLocker;\n\n\tevent Redeem(address indexed user, address token, uint amount);\n\tevent Unbond(address indexed user, uint amount, uint at);\n\n\t\n\n\tmodifier checkNFT(address nftAddr, uint nftId) { \n\t\trequire(nfts[nftAddr][nftId] > 0, \"Invalid NFT\");\n\t\t_; \n\t}\n\n\tmodifier onlyPin() { \n\t\trequire(msg.sender == pinAddress, \"Forbidden\"); \n\t\t_; \n\t}\n\n\tmodifier onlyOperator() { \n\t\trequire (operators[msg.sender] || owner() == _msgSender(), \"Not operator\"); \n\t\t_; \n\t}\n\t\n\t\n\n\tmodifier checkVotingTime() { \n\t\trequire(groups[currentGroupId] <= block.timestamp, \"Voting is not start\");\n\t\trequire(groups[currentGroupId].add(VOTE_DURATION) >= block.timestamp, \"Voting is over\");\n\t\t_; \n\t}\n\n\tmodifier checkVoteToken(address _token) { \n\t\tbool isValid = false;\n\t\tfor(uint i = 0; i < voteTokens.length; i++) {\n\t\t\tif(voteTokens[i] == _token) {\n\t\t\t\tisValid = true;\n\t\t\t\tbreak;\n\t\t\t}\n\t\t}\n\t\trequire(isValid, \"Invalid Vote Token\");\n\t\t_; \n\t}\n\n\tconstructor(address _treasury, address _tokenLocker){\n\t\ttreasury = ITreasury(_treasury);\n\t\tuink = treasury.uink();\n\t\ttokenLocker = _tokenLocker;\n\n\t\tvoteTokens.push(uink);\n\t\tvoteRatio[uink] = voteRatioMax;\n\t}\n\n\tfunction addVoteToken(address _token, uint _ratio) external onlyOperator {\n\t\tvoteRatio[_token] = _ratio;\n\t\tfor(uint i = 0; i < voteTokens.length; i++) {\n\t\t\tif(voteTokens[i] == _token) {\n\t\t\t\treturn;\n\t\t\t}\n\t\t}\n\t\tvoteTokens.push(_token);\n\t}\n\n\tfunction setAuctionAddress(address _auction) external onlyOwner {\n\t\tauction = _auction;\n\t}\n\n\tfunction setPinAddress(address _pin) external onlyOwner {\n\t\tpinAddress = _pin;\n\t}\n\n\tfunction setTokenLockId(uint lockId) external onlyOwner {\n\t\ttokenLockId = lockId;\n\t}\n\n\tfunction setOperator(address operator, bool isOperator) external onlyOwner {\n\t\toperators[operator] = isOperator;\n\t}\n\n\tfunction setVoteDays(uint _days) external onlyOwner {\n\t\tVOTE_DAYS = _days;\n\t}\n\n\tfunction setMatchId(uint groupId, string calldata matchId) external onlyOperator {\n\t\tmatches[groupId] = matchId;\n\t}\n\n\tfunction addGroup(uint stakingBase, uint startTime, string calldata matchId) external onlyOperator {\n\t\trequire(currentGroupId == 0 || groups[currentGroupId].add(VOTE_DURATION) <= block.timestamp, \"Previous group is not over.\");\n\t\trequire(startTime >= getDate(block.timestamp), \"Invalid start time\");\n\t\tcurrentGroupId++;\n\t\tgroups[currentGroupId] = startTime;\n\t\tstakingBases[currentGroupId] = stakingBase;\n\t\tmatches[currentGroupId] = matchId;\n\t}\n\n\tfunction addNFT(uint groupId, address[] calldata nftAddrs, uint[] calldata nftIds) external onlyOperator {\n\t\trequire(nftAddrs.length == nftIds.length, \"Invalid params\");\n\t\tNFT[] storage inputNFTs = groupNFTs[groupId];\n\n\t\tfor(uint i = 0; i < nftAddrs.length; i++) {\n\t\t\trequire(nfts[nftAddrs[i]][nftIds[i]] == 0, \"NFT has been added\");\n\t\t\tnextNFTId++;\n\t\t\tnfts[nftAddrs[i]][nftIds[i]] = nextNFTId;\n\t\t\taddress nftOwner = IERC721(nftAddrs[i]).ownerOf(nftIds[i]);\n\t\t\tinputNFTs.push(NFT({\n\t\t\t\tuid: nextNFTId,\n\t\t\t\taddr: nftAddrs[i],\n\t\t\t\tid: nftIds[i],\n\t\t\t\towner: nftOwner\n\t\t\t}));\n\t\t\tnftGroup[nextNFTId] = groupId;\n\t\t}\n\t}\n\n\tfunction groupNFTsLength(uint groupId) public view returns(uint256) {\n\t\treturn groupNFTs[groupId].length;\n\t}\n\n\tfunction getAuctionPrices(uint groupId) public view returns(uint[] memory prices, uint totalAmount) {\n\t\tprices = new uint[](groupNFTs[groupId].length);\n\t\tfor(uint i = 0; i < groupNFTs[groupId].length; i++) {\n\t\t\t(,, uint price) = IAuction(auction).matchResults(matches[groupId], i);\n\t\t\tprices[i] = price;\n\t\t\ttotalAmount = totalAmount.add(price);\n\t\t}\n\t}\n\n\t\n\tfunction getDate(uint256 ts) public view returns(uint256) {\n\t\treturn ts.sub(ts.mod(VOTE_TIME_UNIT));\n\t}\n\n\tfunction getVotableDates(uint groupId) public view returns(uint[] memory dates) {\n\t\tuint start = groups[groupId];\n\t\tdates = new uint[](VOTE_DAYS);\n\t\tuint firstDate = getDate(start);\n\t\tfor(uint i = 0; i < VOTE_DAYS; i++) {\n\t\t\tdates[i] = firstDate.add(i * VOTE_TIME_UNIT);\n\t\t}\n\t}\n\n\tfunction _vote(address user, address nftAddr, uint nftId, uint votes) internal {\n\t\tuint today = getDate(block.timestamp);\n\t\tuint[] memory dates = getVotableDates(currentGroupId);\n\t\tuint uid = nfts[nftAddr][nftId];\n\n\t\tfor(uint i = 0; i < dates.length; i++) {\n\t\t\tif(dates[i] >= today) {\n\t\t\t\tuint date = dates[i];\n\t\t\t\tdayVotes[date][uid] = dayVotes[date][uid].add(votes);\n\t\t\t\tuserVotes[user][date][uid] = userVotes[user][date][uid].add(votes);\n\t\t\t\tuserDailyVotes[user][currentGroupId][date] = userDailyVotes[user][currentGroupId][date].add(votes);\n\t\t\t\tuserNFTVotes[user][uid] = userNFTVotes[user][uid].add(votes);\n\t\t\t\t\n\t\t\t\tnftVotes[uid] = nftVotes[uid].add(votes);\n\t\t\t\tgroupVotes[currentGroupId] = groupVotes[currentGroupId].add(votes);\n\t\t\t}\n\t\t}\n\t}\n\n\tfunction getUserNFTVotes(address user, address nftAddr, uint nftId) public view returns(uint256) {\n\t\tuint today = getDate(block.timestamp);\n\t\tuint[] memory dates = getVotableDates(currentGroupId);\n\t\tuint uid = nfts[nftAddr][nftId];\n\t\tuint votes = 0;\n\t\tfor(uint i = 0; i < dates.length; i++) {\n\t\t\tif(dates[i] <= today) {\n\t\t\t\tvotes = votes.add(userVotes[user][dates[i]][uid]);\n\t\t\t}\n\t\t}\n\t\treturn votes;\n\t}\n\n\tfunction getNFTVotes(address nftAddr, uint nftId) public view returns(uint256) {\n\t\tuint today = getDate(block.timestamp);\n\t\tuint[] memory dates = getVotableDates(currentGroupId);\n\t\tuint uid = nfts[nftAddr][nftId];\n\t\t\n\t\tuint votes = 0;\n\t\tfor(uint i = 0; i < dates.length; i++) {\n\t\t\tif(dates[i] <= today) {\n\t\t\t\tvotes = votes.add(dayVotes[dates[i]][uid]);\n\t\t\t}\n\t\t}\n\t\treturn votes;\n\t}\n\n\tfunction _unvote(address user, address nftAddr, uint nftId, uint votes) internal {\n\t\tuint today = getDate(block.timestamp);\n\t\tuint[] memory dates = getVotableDates(currentGroupId);\n\t\tuint uid = nfts[nftAddr][nftId];\n\n\t\tfor(uint i = 0; i < dates.length; i++) {\n\t\t\tif(dates[i] >= today) {\n\t\t\t\tuint date = dates[i];\n\t\t\t\tdayVotes[date][uid] = dayVotes[date][uid].sub(votes);\n\t\t\t\tuserVotes[user][date][uid] = userVotes[user][date][uid].sub(votes);\n\t\t\t\tuserDailyVotes[user][currentGroupId][date] = userDailyVotes[user][currentGroupId][date].sub(votes);\n\t\t\t\tuserNFTVotes[user][uid] = userNFTVotes[user][uid].sub(votes);\n\t\t\t\t\n\t\t\t\tnftVotes[uid] = nftVotes[uid].sub(votes);\n\t\t\t\tgroupVotes[currentGroupId] = groupVotes[currentGroupId].sub(votes);\n\t\t\t}\n\t\t}\n\t}\n\n\tfunction calcVotes(address token, uint amount) internal view returns(uint256) {\n\t\tint8 delta = int8(IERC20Metadata(token).decimals()) - int8(IERC20Metadata(uink).decimals());\n\t\tif(delta >= 0) {\n\t\t\treturn voteRatio[token].mul(amount).div(voteRatioMax).div(10 ** uint8(delta));\n\t\t} else {\n\t\t\treturn voteRatio[token].mul(amount).div(voteRatioMax).mul(10 ** uint8(-delta));\n\t\t}\n\t}\n\n\tfunction getAvailableBalance(address user, address token, address nftAddr, uint nftId) public view returns(uint256) {\n\t\tuint uid = nfts[nftAddr][nftId];\n\t\tBalance memory balance = balances[user][token][uid];\n\t\tuint available = balance.available;\n\t\tif(getDate(balance.votedAt) < getDate(block.timestamp)) {\n\t\t\tavailable = available.add(balance.freezed);\n\t\t}\n\t\treturn available;\n\t}\n\n\t// stake and vote\n\tfunction stake(address nftAddr, uint nftId, address token, uint amount)\n\t\texternal \n\t\tcheckVoteToken(token)\n\t\tcheckVotingTime\n\t\tcheckNFT(nftAddr, nftId)\n\t{\n\t\trequire(amount > 0, \"Amount is zero\");\n\t\tuint votes = calcVotes(token, amount);\n\t\t_vote(msg.sender, nftAddr, nftId, votes);\n\n\t\tIERC20(token).transferFrom(msg.sender, address(this), amount);\n\t\tgroupTokenBalances[currentGroupId][msg.sender][token] = groupTokenBalances[currentGroupId][msg.sender][token].add(amount);\n\n\t\tuint uid = nfts[nftAddr][nftId];\n\n\n\t\tBalance storage balance = balances[msg.sender][token][uid];\n\t\tif(getDate(balance.votedAt) < getDate(block.timestamp)) {\n\t\t\tbalance.available = balance.available.add(balance.freezed);\n\t\t\tbalance.freezed = 0;\n\t\t}\n\t\tbalance.freezed = balance.freezed.add(amount);\n\t\tbalance.votedAt = block.timestamp;\n\n\t\tuserTokenBalances[msg.sender][token] = userTokenBalances[msg.sender][token].add(amount);\n\t}\n\n\tfunction unstake(address nftAddr, uint nftId, address token, uint amount)\n\t\texternal \n\t\tcheckVoteToken(token)\n\t\tcheckNFT(nftAddr, nftId)\n\t{\n\t\trequire(amount > 0, \"Amount is zero\");\n\t\t\n\t\tuint available = getAvailableBalance(msg.sender, token, nftAddr, nftId);\n\t\trequire(available >= amount, \"Insufficient balance\");\n\n\t\tuint votes = calcVotes(token, amount);\n\t\t_unvote(msg.sender, nftAddr, nftId, votes);\n\n\t\tIERC20(token).transfer(msg.sender, amount);\n\n\t\tgroupTokenBalances[currentGroupId][msg.sender][token] = groupTokenBalances[currentGroupId][msg.sender][token].sub(amount);\n\n\t\tuint uid = nfts[nftAddr][nftId];\n\t\tBalance storage balance = balances[msg.sender][token][uid];\n\t\tif(getDate(balance.votedAt) < getDate(block.timestamp)) {\n\t\t\tbalance.available = balance.available.add(balance.freezed);\n\t\t\tbalance.freezed = 0;\n\t\t}\n\t\tbalance.available = balance.available.sub(amount);\n\n\t\tuserTokenBalances[msg.sender][token] = userTokenBalances[msg.sender][token].sub(amount);\n\t}\n\n\t// redeem token after vote finished\n\tfunction redeemToken(uint groupId, address token) external {\n\t\trequire(groups[groupId] + VOTE_DURATION < block.timestamp, \"Vote is not over\");\n\t\tuint amount = groupTokenBalances[groupId][msg.sender][token];\n\t\trequire(amount > 0, \"Amount is zero\");\n\t\tIERC20(token).transfer(msg.sender, amount);\n\t\temit Redeem(msg.sender, token, amount);\n\t}\n\n\tfunction getRedeemableBalance(address user, address token) public view returns(uint256) {\n\t\tuint total = 0;\n\t\tfor(uint groupId = 1; groupId <= currentGroupId; groupId++){\n\t\t\tif(groups[groupId] + VOTE_DURATION < block.timestamp) {\n\t\t\t\ttotal = total.add(groupTokenBalances[groupId][user][token]);\n\t\t\t}\n\t\t}\n\t\treturn total;\n\t}\n\n\tfunction redeemToken(address token) external {\n\t\tuint total = getRedeemableBalance(msg.sender, token);\n\t\trequire(total > 0, \"Withdrawable is zero\");\n\t\tIERC20(token).transfer(msg.sender, total);\n\t\temit Redeem(msg.sender, token, total);\n\t}\n\n\tfunction rescueToken(address token, uint amount) external onlyOwner {\n\t\tIERC20(token).transfer(msg.sender, amount);\n\t}\n\n\tfunction getTotalRewards(address user) public view returns(uint) {\n\t\tuint rewards = 0;\n\t\tfor(uint groupId = 1; groupId <= currentGroupId; groupId++) {\n\t\t\trewards = rewards.add(getBaseRewards(user, groupId)).add(getAuctionRewards(user, groupId));\n\t\t}\n\t\treturn rewards;\n\t}\n\n\tfunction getBaseRewards(address user, uint groupId) public view returns(uint) {\n\t\tuint[] memory dates = getVotableDates(groupId);\n\t\tuint[] memory rawardRates = getBaseRewardRates(groupId);\n\t\tuint rewards = 0;\n\t\tuint today = getDate(block.timestamp);\n\n\t\tfor(uint i = 0; i < dates.length; i++) {\n\t\t\tif(dates[i] >= today) {\n\t\t\t\tbreak;\n\t\t\t}\n\t\t\tuint dayRewards = userDailyVotes[user][groupId][dates[i]].mul(rawardRates[i]).div(1e18);\n\t\t\trewards = rewards.add(dayRewards);\n\t\t}\n\t\treturn rewards;\n\t}\n\n\tfunction getAuctionRewards(address user, uint groupId) public view returns(uint) {\n\t\tif(!hasFinished[groupId]) {\n\t\t\treturn 0;\n\t\t}\n\t\tuint rewards = 0;\n\t\tuint[] memory rewardRates = getAuctionRewardRates(groupId);\n\t\tfor(uint i = 0; i < groupNFTs[groupId].length; i++) {\n\t\t\tuint votes = userNFTVotes[user][groupNFTs[groupId][i].uid];\n\t\t\trewards = votes.mul(rewardRates[i]).div(1e18).add(rewards);\n\t\t}\n\t\treturn rewards;\n\t}\n\n\tfunction getBondedBalance(address user) public view returns(uint) {\n\t\tuint balance = getTotalRewards(user).add(bondedBalances[user]);\n\t\tuint freezedBalance = totalVotedBalances[user].add(unbondedBalances[user]);\n\t\treturn balance > freezedBalance ? balance.sub(freezedBalance) : 0;\n\t}\n\n\tfunction getUnvotableBalance(address user, address nftAddr, uint nftId) public view returns(uint256) {\n\t\tuint uid = nfts[nftAddr][nftId];\n\t\tBalance memory balance = votedBalances[user][uid];\n\t\tuint available = balance.available;\n\t\tif(getDate(balance.votedAt) < getDate(block.timestamp)) {\n\t\t\tavailable = available.add(balance.freezed);\n\t\t}\n\t\treturn available;\n\t}\n\n\tfunction collectFromLock(uint lockId) \n\t\texternal \n\t{\n\t\tuint amount = ITokenLocker(tokenLocker).subLockForVote(lockId, msg.sender);\n\t\tbondedBalances[msg.sender] = bondedBalances[msg.sender].add(amount);\n\t\tuserTokenBalances[msg.sender][uink] = userTokenBalances[msg.sender][uink].add(amount);\n\t}\n\n\t\n\tfunction voteBonded(address nftAddr, uint nftId, uint amount) \n\t\texternal \n\t\tcheckVotingTime\n\t\tcheckNFT(nftAddr, nftId)\n\t{\n\t\tuint bondedBalance = getBondedBalance(msg.sender);\n\t\trequire(bondedBalance >= amount, \"Insufficient bonded balance\");\n\n\t\t_vote(msg.sender, nftAddr, nftId, amount);\n\n\t\tuint uid = nfts[nftAddr][nftId];\n\t\tBalance storage votedBalance = votedBalances[msg.sender][uid];\n\n\t\tif(getDate(votedBalance.votedAt) < getDate(block.timestamp)) {\n\t\t\tvotedBalance.available = votedBalance.available.add(votedBalance.freezed);\n\t\t\tvotedBalance.freezed = 0;\n\t\t}\n\t\tvotedBalance.freezed = votedBalance.freezed.add(amount);\n\t\tvotedBalance.votedAt = block.timestamp;\n\n\t\ttotalVotedBalances[msg.sender] = totalVotedBalances[msg.sender].add(amount);\n\t\tuserTokenBalances[msg.sender][uink] = userTokenBalances[msg.sender][uink].add(amount);\n\t}\n\n\tfunction unvoteBonded(address nftAddr, uint nftId, uint amount)\n\t\texternal \n\t\tcheckVotingTime\n\t\tcheckNFT(nftAddr, nftId)\n\t{\n\t\tuint unvotable = getUnvotableBalance(msg.sender, nftAddr, nftId);\n\t\trequire(unvotable >= amount, \"Insufficient unvotable balance\");\n\t\t_unvote(msg.sender, nftAddr, nftId, amount);\n\n\t\tuint uid = nfts[nftAddr][nftId];\n\t\tBalance storage votedBalance = votedBalances[msg.sender][uid];\n\n\t\tif(getDate(votedBalance.votedAt) < getDate(block.timestamp)) {\n\t\t\tvotedBalance.available = votedBalance.available.add(votedBalance.freezed);\n\t\t\tvotedBalance.freezed = 0;\n\t\t}\n\t\tvotedBalance.available = votedBalance.available.sub(amount);\n\n\t\ttotalVotedBalances[msg.sender] = totalVotedBalances[msg.sender].sub(amount);\n\t\tuserTokenBalances[msg.sender][uink] = userTokenBalances[msg.sender][uink].sub(amount);\n\t}\n\n\tfunction getUnbondingBalancesLength(address user) public view returns(uint) {\n\t\treturn unbondingBalances[user].length;\n\t}\n\n\tfunction unbond(uint amount) external {\n\t\tuint bondedBalance = getBondedBalance(msg.sender);\n\t\trequire(bondedBalance >= amount, \"Insufficient bonded balance\");\n\n\t\tunbondingBalances[msg.sender].push(UnbondingBalance({\n\t\t\tvalue: amount,\n\t\t\tunbondedAt: block.timestamp,\n\t\t\tredeemed: 0\n\t\t}));\n\t\t\n\t\tunbondedBalances[msg.sender] = unbondedBalances[msg.sender].add(amount);\n\n\t\temit Unbond(msg.sender, amount, block.timestamp);\n\t}\n\n\tfunction redeemUnbonding(uint index) \n\t\texternal \n\t{ \n\t\tUnbondingBalance storage unbondingBalance = unbondingBalances[msg.sender][index];\n\t\tuint passDays = getDate(block.timestamp).sub(getDate(unbondingBalance.unbondedAt)).div(VOTE_TIME_UNIT);\n\t\tif(passDays > 60) {\n\t\t\tpassDays = 60;\n\t\t}\n\t\tuint released = passDays.mul(unbondingBalance.value).div(60);\n\t\tuint available = released.sub(unbondingBalance.redeemed);\n\t\tunbondingBalance.redeemed = released;\n\t\tuint sent = treasury.sendRewards(msg.sender, available);\n\t\trequire(sent == available, \"Insufficient treasury balance\");\n\t}\n\n\tfunction claimMintRewards(address nftAddr, uint nftId, address to) external onlyPin {\n\t\tuint uid = nfts[nftAddr][nftId];\n\t\tuint groupId = nftGroup[nfts[nftAddr][nftId]];\n\t\trequire(!mintRewardsClaimed[uid], \"Claimed\");\n\n\t\tuint rewards = 0;\n\t\tfor(uint i = 0; i < groupNFTs[groupId].length; i++) {\n\t\t\tif(groupNFTs[groupId][i].uid == uid) {\n\t\t\t\trewards = getMintRewardsPerNFT(groupId)[i];\n\t\t\t\tbreak;\n\t\t\t}\n\t\t}\n\t\tif(rewards > 0) {\n\t\t\ttreasury.sendRewards(to, rewards);\n\t\t\tmintRewardsClaimed[uid] = true;\n\t\t}\n\t}\n\n\tfunction getTradeWeights(uint groupId) public view returns(uint[] memory weights) {\n\t\tNFT[] memory gNFTs = groupNFTs[groupId];\n\t\tweights = new uint[](gNFTs.length);\n\t\t\n\t\t(uint[] memory prices, uint total) = getAuctionPrices(groupId);\n\n\t\tif(total > 0) {\n\t\t\tfor(uint i = 0; i < gNFTs.length; i++){\n\t\t\t\tweights[i] = prices[i].mul(1e18).div(total);\n\t\t\t}\n\t\t}\n\t}\n\n\tfunction setAuctionFinish(uint groupId) external onlyOperator {\n\t\thasFinished[groupId] = true;\n\t}\n\n\tfunction getAuctionRewardRates(uint groupId) public view returns(uint[] memory auctionRewardRates) {\n\t\tuint[] memory weights = getTradeWeights(groupId);\n\t\tNFT[] memory gNFTs = groupNFTs[groupId];\n\t\tauctionRewardRates = new uint[](gNFTs.length);\n\t\t(, uint[] memory inflations) = getWeightsAndInflations(groupId);\n\t\tuint bonus = bonusCap.mul(inflations[inflations.length - 1]).div(1e18);\n\n\t\tfor(uint i = 0; i < gNFTs.length; i++) {\n\t\t\tif(nftVotes[gNFTs[i].uid] == 0) {\n\t\t\t\tauctionRewardRates[i] = 0;\n\t\t\t} else {\n\t\t\t\tauctionRewardRates[i] = bonus.mul(weights[i]).div(nftVotes[gNFTs[i].uid]);\n\t\t\t}\n\t\t}\n\t}\n\n\tfunction getDailyVotes(uint groupId, uint date) public view returns(uint256) {\n\t\tuint votes = 0;\n\t\tfor(uint i = 0; i < groupNFTs[groupId].length; i++) {\n\t\t\tuint uid = groupNFTs[groupId][i].uid;\n\t\t\tvotes = votes.add(dayVotes[date][uid]);\n\t\t}\n\t\treturn votes;\n\t}\n\n\tfunction getWeightsAndInflations(uint groupId)\n\t\tpublic\n\t\tview\n\t\treturns(\n\t\t\tuint[] memory weights,\n\t\t\tuint[] memory inflations\n\t\t) \n\t{\n\n\t\tuint[] memory dates = getVotableDates(groupId);\n\t\tweights = new uint[](dates.length);\n\t\tinflations = new uint[](dates.length);\n\n\t\tfor(uint i = 0; i < dates.length; i++) {\n\t\t\tuint dailyVotes = getDailyVotes(groupId, dates[i]);\n\t\t\tweights[i] = dailyVotes.mul(1e18).div(stakingBases[groupId]);\n\t\t\tif(weights[i] < 3 * 1e17) {\n\t\t\t\tinflations[i] = 2 * 1e17;\n\t\t\t} else if(weights[i] >= 3 * 1e17 &&  weights[i] < 7 * 1e17) {\n\t\t\t\tinflations[i] = weights[i];\n\t\t\t} else {\n\t\t\t\tinflations[i] = 1e18;\n\t\t\t}\n\t\t}\n\t}\n\n\tfunction getBaseRewardRates(uint groupId) \n\t\tpublic view \n\t\treturns(uint[] memory rewardRates) \n\t{\n\n\t\tuint[] memory dates = getVotableDates(groupId);\n\t\t(,uint[] memory inflations) = getWeightsAndInflations(groupId);\n\t\trewardRates = new uint[](dates.length);\n\n\t\tfor(uint i = 0; i < dates.length; i++) {\n\t\t\tif(dates[i] > getDate(block.timestamp)) {\n\t\t\t\tbreak;\n\t\t\t}\n\t\t\tuint dailyTotalVotes = getDailyVotes(groupId, dates[i]);\n\t\t\tif(dailyTotalVotes > 0) {\n\t\t\t\trewardRates[i] = inflations[i].mul(dailyVoteRewardCap).div(dailyTotalVotes);\n\t\t\t}\n\t\t}\n\t}\n\n\tfunction getMintRewardsPerNFT(uint groupId)\n\t\tpublic view \n\t\treturns(uint[] memory mintRewards) \n\t{\n\t\tmintRewards = new uint[](groupNFTs[groupId].length);\n\t\tfor(uint i = 0; i < groupNFTs[groupId].length; i++) {\n\t\t\tif(groupVotes[groupId] > 0) {\n\t\t\t\tmintRewards[i] = nftVotes[groupNFTs[groupId][i].uid].mul(mintRewardCap).div(groupVotes[groupId]);\n\t\t\t}\n\t\t}\n\t}\n\n\tfunction getMintRewards(address nftAddr, uint nftId) public view returns(uint) {\n\t\tuint groupId = nftGroup[nfts[nftAddr][nftId]];\n\t\tif(groupVotes[groupId] > 0) {\n\t\t\treturn nftVotes[nfts[nftAddr][nftId]].mul(mintRewardCap).div(groupVotes[groupId]);\n\t\t} else {\n\t\t\treturn 0;\n\t\t}\n\t}\n}",
  "sourcePath": "/Users/yxf/app/uniarts-eth-dao/contracts/VoteMining.sol",
  "compiler": {
    "name": "solc",
    "version": "0.8.4+commit.c7e474f2.Emscripten.clang"
  },
  "schemaVersion": "3.2.3",
  "updatedAt": "2021-10-28T09:13:37.804Z",
  "devdoc": {
    "kind": "dev",
    "methods": {
      "owner()": {
        "details": "Returns the address of the current owner."
      },
      "renounceOwnership()": {
        "details": "Leaves the contract without owner. It will not be possible to call `onlyOwner` functions anymore. Can only be called by the current owner. NOTE: Renouncing ownership will leave the contract without an owner, thereby removing any functionality that is only available to the owner."
      },
      "transferOwnership(address)": {
        "details": "Transfers ownership of the contract to a new account (`newOwner`). Can only be called by the current owner."
      }
    },
    "version": 1
  },
  "userdoc": {
    "kind": "user",
    "methods": {},
    "version": 1
  }
}