{
  "contractName": "VoteMining",
  "abi": [
    {
      "inputs": [
        {
          "internalType": "address",
          "name": "_treasury",
          "type": "address"
        },
        {
          "internalType": "address",
          "name": "_auction",
          "type": "address"
        }
      ],
      "stateMutability": "nonpayable",
      "type": "constructor"
    },
    {
      "anonymous": false,
      "inputs": [
        {
          "indexed": true,
          "internalType": "address",
          "name": "previousOwner",
          "type": "address"
        },
        {
          "indexed": true,
          "internalType": "address",
          "name": "newOwner",
          "type": "address"
        }
      ],
      "name": "OwnershipTransferred",
      "type": "event"
    },
    {
      "inputs": [],
      "name": "auction",
      "outputs": [
        {
          "internalType": "address",
          "name": "",
          "type": "address"
        }
      ],
      "stateMutability": "view",
      "type": "function"
    },
    {
      "inputs": [
        {
          "internalType": "address",
          "name": "",
          "type": "address"
        }
      ],
      "name": "balances",
      "outputs": [
        {
          "internalType": "uint256",
          "name": "",
          "type": "uint256"
        }
      ],
      "stateMutability": "view",
      "type": "function"
    },
    {
      "inputs": [],
      "name": "bonusCap",
      "outputs": [
        {
          "internalType": "uint256",
          "name": "",
          "type": "uint256"
        }
      ],
      "stateMutability": "view",
      "type": "function"
    },
    {
      "inputs": [
        {
          "internalType": "address",
          "name": "",
          "type": "address"
        },
        {
          "internalType": "uint256",
          "name": "",
          "type": "uint256"
        }
      ],
      "name": "bonusRewardsClaimed",
      "outputs": [
        {
          "internalType": "bool",
          "name": "",
          "type": "bool"
        }
      ],
      "stateMutability": "view",
      "type": "function"
    },
    {
      "inputs": [],
      "name": "currentGroupId",
      "outputs": [
        {
          "internalType": "uint256",
          "name": "",
          "type": "uint256"
        }
      ],
      "stateMutability": "view",
      "type": "function"
    },
    {
      "inputs": [],
      "name": "dailyMintRewardCap",
      "outputs": [
        {
          "internalType": "uint256",
          "name": "",
          "type": "uint256"
        }
      ],
      "stateMutability": "view",
      "type": "function"
    },
    {
      "inputs": [],
      "name": "dailyVoteRewardCap",
      "outputs": [
        {
          "internalType": "uint256",
          "name": "",
          "type": "uint256"
        }
      ],
      "stateMutability": "view",
      "type": "function"
    },
    {
      "inputs": [
        {
          "internalType": "uint256",
          "name": "",
          "type": "uint256"
        }
      ],
      "name": "groupVotes",
      "outputs": [
        {
          "internalType": "uint256",
          "name": "",
          "type": "uint256"
        }
      ],
      "stateMutability": "view",
      "type": "function"
    },
    {
      "inputs": [
        {
          "internalType": "uint256",
          "name": "",
          "type": "uint256"
        }
      ],
      "name": "groups",
      "outputs": [
        {
          "internalType": "uint256",
          "name": "",
          "type": "uint256"
        }
      ],
      "stateMutability": "view",
      "type": "function"
    },
    {
      "inputs": [
        {
          "internalType": "uint256",
          "name": "",
          "type": "uint256"
        }
      ],
      "name": "hasFinished",
      "outputs": [
        {
          "internalType": "bool",
          "name": "",
          "type": "bool"
        }
      ],
      "stateMutability": "view",
      "type": "function"
    },
    {
      "inputs": [
        {
          "internalType": "uint256",
          "name": "",
          "type": "uint256"
        }
      ],
      "name": "matches",
      "outputs": [
        {
          "internalType": "string",
          "name": "",
          "type": "string"
        }
      ],
      "stateMutability": "view",
      "type": "function"
    },
    {
      "inputs": [
        {
          "internalType": "address",
          "name": "",
          "type": "address"
        },
        {
          "internalType": "uint256",
          "name": "",
          "type": "uint256"
        }
      ],
      "name": "mintRewardsClaimed",
      "outputs": [
        {
          "internalType": "bool",
          "name": "",
          "type": "bool"
        }
      ],
      "stateMutability": "view",
      "type": "function"
    },
    {
      "inputs": [],
      "name": "nextNFTId",
      "outputs": [
        {
          "internalType": "uint256",
          "name": "",
          "type": "uint256"
        }
      ],
      "stateMutability": "view",
      "type": "function"
    },
    {
      "inputs": [
        {
          "internalType": "address",
          "name": "",
          "type": "address"
        },
        {
          "internalType": "uint256",
          "name": "",
          "type": "uint256"
        }
      ],
      "name": "nextVotableBalances",
      "outputs": [
        {
          "internalType": "uint256",
          "name": "balance",
          "type": "uint256"
        },
        {
          "internalType": "uint256",
          "name": "releaseAt",
          "type": "uint256"
        }
      ],
      "stateMutability": "view",
      "type": "function"
    },
    {
      "inputs": [
        {
          "internalType": "uint256",
          "name": "",
          "type": "uint256"
        }
      ],
      "name": "nftTradedPrices",
      "outputs": [
        {
          "internalType": "uint256",
          "name": "",
          "type": "uint256"
        }
      ],
      "stateMutability": "view",
      "type": "function"
    },
    {
      "inputs": [
        {
          "internalType": "uint256",
          "name": "",
          "type": "uint256"
        }
      ],
      "name": "nftVotes",
      "outputs": [
        {
          "internalType": "uint256",
          "name": "",
          "type": "uint256"
        }
      ],
      "stateMutability": "view",
      "type": "function"
    },
    {
      "inputs": [
        {
          "internalType": "address",
          "name": "",
          "type": "address"
        }
      ],
      "name": "operators",
      "outputs": [
        {
          "internalType": "bool",
          "name": "",
          "type": "bool"
        }
      ],
      "stateMutability": "view",
      "type": "function"
    },
    {
      "inputs": [],
      "name": "owner",
      "outputs": [
        {
          "internalType": "address",
          "name": "",
          "type": "address"
        }
      ],
      "stateMutability": "view",
      "type": "function"
    },
    {
      "inputs": [],
      "name": "renounceOwnership",
      "outputs": [],
      "stateMutability": "nonpayable",
      "type": "function"
    },
    {
      "inputs": [
        {
          "internalType": "uint256",
          "name": "",
          "type": "uint256"
        }
      ],
      "name": "stakingBases",
      "outputs": [
        {
          "internalType": "uint256",
          "name": "",
          "type": "uint256"
        }
      ],
      "stateMutability": "view",
      "type": "function"
    },
    {
      "inputs": [
        {
          "internalType": "address",
          "name": "newOwner",
          "type": "address"
        }
      ],
      "name": "transferOwnership",
      "outputs": [],
      "stateMutability": "nonpayable",
      "type": "function"
    },
    {
      "inputs": [],
      "name": "treasury",
      "outputs": [
        {
          "internalType": "contract ITreasury",
          "name": "",
          "type": "address"
        }
      ],
      "stateMutability": "view",
      "type": "function"
    },
    {
      "inputs": [],
      "name": "uink",
      "outputs": [
        {
          "internalType": "address",
          "name": "",
          "type": "address"
        }
      ],
      "stateMutability": "view",
      "type": "function"
    },
    {
      "inputs": [
        {
          "internalType": "address",
          "name": "",
          "type": "address"
        },
        {
          "internalType": "uint256",
          "name": "",
          "type": "uint256"
        },
        {
          "internalType": "uint256",
          "name": "",
          "type": "uint256"
        }
      ],
      "name": "voteRewardsClaimed",
      "outputs": [
        {
          "internalType": "bool",
          "name": "",
          "type": "bool"
        }
      ],
      "stateMutability": "view",
      "type": "function"
    },
    {
      "inputs": [],
      "name": "weeklyCap",
      "outputs": [
        {
          "internalType": "uint256",
          "name": "",
          "type": "uint256"
        }
      ],
      "stateMutability": "view",
      "type": "function"
    },
    {
      "inputs": [
        {
          "internalType": "uint256",
          "name": "stakingBase",
          "type": "uint256"
        },
        {
          "internalType": "uint256",
          "name": "startTime",
          "type": "uint256"
        },
        {
          "internalType": "string",
          "name": "matchId",
          "type": "string"
        }
      ],
      "name": "addGroup",
      "outputs": [],
      "stateMutability": "nonpayable",
      "type": "function"
    },
    {
      "inputs": [
        {
          "internalType": "uint256",
          "name": "groupId",
          "type": "uint256"
        },
        {
          "internalType": "address[]",
          "name": "nftAddrs",
          "type": "address[]"
        },
        {
          "internalType": "uint256[]",
          "name": "nftIds",
          "type": "uint256[]"
        }
      ],
      "name": "addNFT",
      "outputs": [],
      "stateMutability": "nonpayable",
      "type": "function"
    },
    {
      "inputs": [
        {
          "internalType": "uint256",
          "name": "groupId",
          "type": "uint256"
        }
      ],
      "name": "getAuctionPrices",
      "outputs": [
        {
          "internalType": "uint256[]",
          "name": "prices",
          "type": "uint256[]"
        },
        {
          "internalType": "uint256",
          "name": "totalAmount",
          "type": "uint256"
        }
      ],
      "stateMutability": "view",
      "type": "function"
    },
    {
      "inputs": [
        {
          "internalType": "uint256",
          "name": "ts",
          "type": "uint256"
        }
      ],
      "name": "getDate",
      "outputs": [
        {
          "internalType": "uint256",
          "name": "",
          "type": "uint256"
        }
      ],
      "stateMutability": "pure",
      "type": "function"
    },
    {
      "inputs": [
        {
          "internalType": "uint256",
          "name": "groupId",
          "type": "uint256"
        }
      ],
      "name": "getVotableDates",
      "outputs": [
        {
          "internalType": "uint256[]",
          "name": "dates",
          "type": "uint256[]"
        }
      ],
      "stateMutability": "view",
      "type": "function"
    },
    {
      "inputs": [
        {
          "internalType": "address",
          "name": "user",
          "type": "address"
        }
      ],
      "name": "getVotableBalance",
      "outputs": [
        {
          "internalType": "uint256",
          "name": "",
          "type": "uint256"
        }
      ],
      "stateMutability": "view",
      "type": "function"
    },
    {
      "inputs": [
        {
          "internalType": "address",
          "name": "user",
          "type": "address"
        }
      ],
      "name": "getAvailableBalance",
      "outputs": [
        {
          "internalType": "uint256",
          "name": "",
          "type": "uint256"
        }
      ],
      "stateMutability": "view",
      "type": "function"
    },
    {
      "inputs": [
        {
          "internalType": "address",
          "name": "user",
          "type": "address"
        }
      ],
      "name": "getVotedBalance",
      "outputs": [
        {
          "internalType": "uint256",
          "name": "",
          "type": "uint256"
        }
      ],
      "stateMutability": "view",
      "type": "function"
    },
    {
      "inputs": [
        {
          "internalType": "address",
          "name": "nftAddr",
          "type": "address"
        },
        {
          "internalType": "uint256",
          "name": "nftId",
          "type": "uint256"
        },
        {
          "internalType": "uint256",
          "name": "amount",
          "type": "uint256"
        }
      ],
      "name": "stake",
      "outputs": [],
      "stateMutability": "nonpayable",
      "type": "function"
    },
    {
      "inputs": [
        {
          "internalType": "address",
          "name": "nftAddr",
          "type": "address"
        },
        {
          "internalType": "uint256",
          "name": "nftId",
          "type": "uint256"
        },
        {
          "internalType": "uint256",
          "name": "amount",
          "type": "uint256"
        }
      ],
      "name": "vote",
      "outputs": [],
      "stateMutability": "nonpayable",
      "type": "function"
    },
    {
      "inputs": [],
      "name": "redeem",
      "outputs": [],
      "stateMutability": "nonpayable",
      "type": "function"
    },
    {
      "inputs": [
        {
          "internalType": "address",
          "name": "user",
          "type": "address"
        },
        {
          "internalType": "uint256",
          "name": "groupId",
          "type": "uint256"
        },
        {
          "internalType": "uint256",
          "name": "date",
          "type": "uint256"
        }
      ],
      "name": "getUserDailyVotes",
      "outputs": [
        {
          "internalType": "uint256",
          "name": "",
          "type": "uint256"
        }
      ],
      "stateMutability": "view",
      "type": "function"
    },
    {
      "inputs": [
        {
          "internalType": "address",
          "name": "user",
          "type": "address"
        },
        {
          "internalType": "uint256",
          "name": "groupId",
          "type": "uint256"
        },
        {
          "internalType": "uint256",
          "name": "uid",
          "type": "uint256"
        }
      ],
      "name": "getUserVotesByNFT",
      "outputs": [
        {
          "internalType": "uint256",
          "name": "",
          "type": "uint256"
        }
      ],
      "stateMutability": "view",
      "type": "function"
    },
    {
      "inputs": [
        {
          "internalType": "uint256",
          "name": "groupId",
          "type": "uint256"
        }
      ],
      "name": "claimVoteRewards",
      "outputs": [],
      "stateMutability": "nonpayable",
      "type": "function"
    },
    {
      "inputs": [
        {
          "internalType": "uint256",
          "name": "groupId",
          "type": "uint256"
        }
      ],
      "name": "claimMintRewards",
      "outputs": [],
      "stateMutability": "nonpayable",
      "type": "function"
    },
    {
      "inputs": [
        {
          "internalType": "uint256",
          "name": "groupId",
          "type": "uint256"
        }
      ],
      "name": "claimBonusRewards",
      "outputs": [],
      "stateMutability": "nonpayable",
      "type": "function"
    },
    {
      "inputs": [
        {
          "internalType": "uint256",
          "name": "groupId",
          "type": "uint256"
        }
      ],
      "name": "getTradeWeights",
      "outputs": [
        {
          "internalType": "uint256[]",
          "name": "weights",
          "type": "uint256[]"
        }
      ],
      "stateMutability": "view",
      "type": "function"
    },
    {
      "inputs": [
        {
          "internalType": "uint256",
          "name": "groupId",
          "type": "uint256"
        }
      ],
      "name": "setAuctionFinish",
      "outputs": [],
      "stateMutability": "nonpayable",
      "type": "function"
    },
    {
      "inputs": [
        {
          "internalType": "uint256",
          "name": "groupId",
          "type": "uint256"
        }
      ],
      "name": "getBonusRewardRates",
      "outputs": [
        {
          "internalType": "uint256[]",
          "name": "bonusRewardRates",
          "type": "uint256[]"
        }
      ],
      "stateMutability": "view",
      "type": "function"
    },
    {
      "inputs": [
        {
          "internalType": "uint256",
          "name": "groupId",
          "type": "uint256"
        },
        {
          "internalType": "uint256",
          "name": "date",
          "type": "uint256"
        }
      ],
      "name": "getDailyVotes",
      "outputs": [
        {
          "internalType": "uint256",
          "name": "",
          "type": "uint256"
        }
      ],
      "stateMutability": "view",
      "type": "function"
    },
    {
      "inputs": [
        {
          "internalType": "uint256",
          "name": "groupId",
          "type": "uint256"
        }
      ],
      "name": "getWeightsAndInflations",
      "outputs": [
        {
          "internalType": "uint256[]",
          "name": "weights",
          "type": "uint256[]"
        },
        {
          "internalType": "uint256[]",
          "name": "inflations",
          "type": "uint256[]"
        }
      ],
      "stateMutability": "view",
      "type": "function"
    },
    {
      "inputs": [
        {
          "internalType": "uint256",
          "name": "groupId",
          "type": "uint256"
        }
      ],
      "name": "getBaseRewardRates",
      "outputs": [
        {
          "internalType": "uint256[]",
          "name": "rewardRates",
          "type": "uint256[]"
        }
      ],
      "stateMutability": "view",
      "type": "function"
    },
    {
      "inputs": [
        {
          "internalType": "uint256",
          "name": "groupId",
          "type": "uint256"
        }
      ],
      "name": "getMintRewardsPerNFT",
      "outputs": [
        {
          "internalType": "uint256[]",
          "name": "mintRewards",
          "type": "uint256[]"
        }
      ],
      "stateMutability": "view",
      "type": "function"
    }
  ],
  "bytecode": "0x6080604052690a968163f0a57b4000006001556004600760015462000025919062000385565b62000031919062000385565b6002556004600760015462000047919062000385565b62000053919062000385565b600355600260015462000067919062000385565b6004556000600a5560006011553480156200008157600080fd5b50604051620057ee380380620057ee8339818101604052810190620000a7919062000344565b620000c7620000bb6200023560201b60201c565b6200023d60201b60201c565b81600760006101000a81548173ffffffffffffffffffffffffffffffffffffffff021916908373ffffffffffffffffffffffffffffffffffffffff16021790555080600860006101000a81548173ffffffffffffffffffffffffffffffffffffffff021916908373ffffffffffffffffffffffffffffffffffffffff160217905550600760009054906101000a900473ffffffffffffffffffffffffffffffffffffffff1673ffffffffffffffffffffffffffffffffffffffff1663a88d8fea6040518163ffffffff1660e01b815260040160206040518083038186803b158015620001b257600080fd5b505afa158015620001c7573d6000803e3d6000fd5b505050506040513d601f19601f82011682018060405250810190620001ed919062000318565b600660006101000a81548173ffffffffffffffffffffffffffffffffffffffff021916908373ffffffffffffffffffffffffffffffffffffffff160217905550505062000444565b600033905090565b60008060009054906101000a900473ffffffffffffffffffffffffffffffffffffffff169050816000806101000a81548173ffffffffffffffffffffffffffffffffffffffff021916908373ffffffffffffffffffffffffffffffffffffffff1602179055508173ffffffffffffffffffffffffffffffffffffffff168173ffffffffffffffffffffffffffffffffffffffff167f8be0079c531659141344cd1fd0a4f28419497f9722a3daafe3b4186f6b6457e060405160405180910390a35050565b60008151905062000312816200042a565b92915050565b6000602082840312156200032b57600080fd5b60006200033b8482850162000301565b91505092915050565b600080604083850312156200035857600080fd5b6000620003688582860162000301565b92505060206200037b8582860162000301565b9150509250929050565b60006200039282620003f1565b91506200039f83620003f1565b925082620003b257620003b1620003fb565b5b828204905092915050565b6000620003ca82620003d1565b9050919050565b600073ffffffffffffffffffffffffffffffffffffffff82169050919050565b6000819050919050565b7f4e487b7100000000000000000000000000000000000000000000000000000000600052601260045260246000fd5b6200043581620003bd565b81146200044157600080fd5b50565b61539a80620004546000396000f3fe608060405234801561001057600080fd5b50600436106102a05760003560e01c80636c55a96711610167578063b5345afa116100ce578063d0b5efa911610087578063d0b5efa91461090e578063d98f893a1461092a578063e325fb4b1461095a578063eeaa358514610978578063f2fde38b146109a8578063fa119fee146109c4576102a0565b8063b5345afa1461084e578063bba1189a1461087e578063be040fb01461089a578063c05de80e146108a4578063c4f6da12146108c0578063c909adc0146108f0576102a0565b80638da5cb5b116101205780638da5cb5b146107515780638f4d41e81461076f57806396324bd4146107a05780639d9d9a10146107d0578063a54e119f14610800578063a88d8fea14610830576102a0565b80636c55a9671461067d578063715018a6146106ad5780637ce26d65146106b75780637d9f6db5146106e75780638503d2cd14610705578063886a934214610721576102a0565b80632a4a1b731161020b578063515cc532116101c4578063515cc5321461056e5780635a8542be1461059e57806361d027b3146105cf57806363c0ea10146105ed57806364ebaaeb1461061d5780636c24a76f1461064d576102a0565b80632a4a1b73146104865780632b57298b146104a257806337867c94146104d25780634768d4ef146104f05780634e4b61c3146105205780634f8d32be14610550576102a0565b806313e7c9d81161025d57806313e7c9d81461039e578063171b612c146103ce57806317a9c7bd146103ec5780631d113c811461041c57806327e235e31461043857806328ad5ba614610468576102a0565b8063079dc7f4146102a557806307c1b52c146102d55780630c51b88f146103065780630d265df91461032257806311d07bb314610352578063126f648c1461036e575b600080fd5b6102bf60048036038101906102ba91906146fb565b6109f4565b6040516102cc9190614d8a565b60405180910390f35b6102ef60048036038101906102ea9190614530565b610ad5565b6040516102fd929190614da5565b60405180910390f35b610320600480360381019061031b91906145a8565b610b06565b005b61033c60048036038101906103379190614620565b610e71565b6040516103499190614b19565b60405180910390f35b61036c60048036038101906103679190614620565b611106565b005b61038860048036038101906103839190614620565b6114a4565b6040516103959190614ba2565b60405180910390f35b6103b860048036038101906103b391906144de565b6114c4565b6040516103c59190614ba2565b60405180910390f35b6103d66114e4565b6040516103e39190614d8a565b60405180910390f35b61040660048036038101906104019190614620565b6114ea565b6040516104139190614d8a565b60405180910390f35b61043660048036038101906104319190614620565b611502565b005b610452600480360381019061044d91906144de565b611869565b60405161045f9190614d8a565b60405180910390f35b610470611881565b60405161047d9190614d8a565b60405180910390f35b6104a0600480360381019061049b91906145a8565b611887565b005b6104bc60048036038101906104b79190614620565b611b8b565b6040516104c99190614d8a565b60405180910390f35b6104da611bbc565b6040516104e79190614d8a565b60405180910390f35b61050a60048036038101906105059190614620565b611bc2565b6040516105179190614bd8565b60405180910390f35b61053a60048036038101906105359190614620565b611c62565b6040516105479190614d8a565b60405180910390f35b610558611c7a565b6040516105659190614d8a565b60405180910390f35b61058860048036038101906105839190614620565b611c80565b6040516105959190614b19565b60405180910390f35b6105b860048036038101906105b39190614620565b611e87565b6040516105c6929190614b72565b60405180910390f35b6105d761206b565b6040516105e49190614bbd565b60405180910390f35b61060760048036038101906106029190614620565b612091565b6040516106149190614d8a565b60405180910390f35b61063760048036038101906106329190614530565b6120a9565b6040516106449190614ba2565b60405180910390f35b610667600480360381019061066291906144de565b6120d8565b6040516106749190614d8a565b60405180910390f35b610697600480360381019061069291906145a8565b6121bb565b6040516106a49190614d8a565b60405180910390f35b6106b56122ac565b005b6106d160048036038101906106cc9190614620565b612334565b6040516106de9190614b19565b60405180910390f35b6106ef612747565b6040516106fc9190614a9e565b60405180910390f35b61071f600480360381019061071a9190614672565b61276d565b005b61073b60048036038101906107369190614530565b612c30565b6040516107489190614ba2565b60405180910390f35b610759612c5f565b6040516107669190614a9e565b60405180910390f35b61078960048036038101906107849190614620565b612c88565b604051610797929190614b3b565b60405180910390f35b6107ba60048036038101906107b59190614620565b613098565b6040516107c79190614d8a565b60405180910390f35b6107ea60048036038101906107e59190614620565b6130b0565b6040516107f79190614b19565b60405180910390f35b61081a600480360381019061081591906144de565b61327e565b6040516108279190614d8a565b60405180910390f35b61083861334c565b6040516108459190614a9e565b60405180910390f35b610868600480360381019061086391906145a8565b613372565b6040516108759190614ba2565b60405180910390f35b61089860048036038101906108939190614737565b6133ae565b005b6108a26134a1565b005b6108be60048036038101906108b99190614620565b613608565b005b6108da60048036038101906108d59190614620565b6138f2565b6040516108e79190614d8a565b60405180910390f35b6108f861390a565b6040516109059190614d8a565b60405180910390f35b61092860048036038101906109239190614620565b613910565b005b610944600480360381019061093f91906144de565b6139bb565b6040516109519190614d8a565b60405180910390f35b610962613a89565b60405161096f9190614d8a565b60405180910390f35b610992600480360381019061098d91906145a8565b613a8f565b60405161099f9190614d8a565b60405180910390f35b6109c260048036038101906109bd91906144de565b613ca9565b005b6109de60048036038101906109d99190614620565b613da1565b6040516109eb9190614b19565b60405180910390f35b6000806000905060005b600d600086815260200190815260200160002080549050811015610aca576000600d60008781526020019081526020016000208281548110610a69577f4e487b7100000000000000000000000000000000000000000000000000000000600052603260045260246000fd5b9060005260206000209060040201600001549050610ab4600e600087815260200190815260200160002060008381526020019081526020016000205484613edc90919063ffffffff16565b9250508080610ac29061501e565b9150506109fe565b508091505092915050565b6015602052816000526040600020602052806000526040600020600091509150508060000154908060010154905082565b4260096000600a548152602001908152602001600020541115610b5e576040517f08c379a0000000000000000000000000000000000000000000000000000000008152600401610b5590614caa565b60405180910390fd5b42610b8a62093a8060096000600a54815260200190815260200160002054613edc90919063ffffffff16565b1015610bcb576040517f08c379a0000000000000000000000000000000000000000000000000000000008152600401610bc290614cca565b60405180910390fd5b82826000601060008473ffffffffffffffffffffffffffffffffffffffff1673ffffffffffffffffffffffffffffffffffffffff16815260200190815260200160002060008381526020019081526020016000205411610c60576040517f08c379a0000000000000000000000000000000000000000000000000000000008152600401610c5790614cea565b60405180910390fd5b610c6c33868686613ef2565b600660009054906101000a900473ffffffffffffffffffffffffffffffffffffffff1673ffffffffffffffffffffffffffffffffffffffff166323b872dd3330866040518463ffffffff1660e01b8152600401610ccb93929190614ab9565b602060405180830381600087803b158015610ce557600080fd5b505af1158015610cf9573d6000803e3d6000fd5b505050506040513d601f19601f82011682018060405250810190610d1d91906145f7565b50610d7083601460003373ffffffffffffffffffffffffffffffffffffffff1673ffffffffffffffffffffffffffffffffffffffff16815260200190815260200160002054613edc90919063ffffffff16565b601460003373ffffffffffffffffffffffffffffffffffffffff1673ffffffffffffffffffffffffffffffffffffffff168152602001908152602001600020819055506000601560003373ffffffffffffffffffffffffffffffffffffffff1673ffffffffffffffffffffffffffffffffffffffff1681526020019081526020016000206000600a5481526020019081526020016000209050610e20848260000154613edc90919063ffffffff16565b8160000181905550600081600101541415610e6957610e606212750060096000600a54815260200190815260200160002054613edc90919063ffffffff16565b81600101819055505b505050505050565b60606000600d6000848152602001908152602001600020805480602002602001604051908101604052809291908181526020016000905b82821015610f9a5783829060005260206000209060040201604051806080016040529081600082015481526020016001820160009054906101000a900473ffffffffffffffffffffffffffffffffffffffff1673ffffffffffffffffffffffffffffffffffffffff1673ffffffffffffffffffffffffffffffffffffffff168152602001600282015481526020016003820160009054906101000a900473ffffffffffffffffffffffffffffffffffffffff1673ffffffffffffffffffffffffffffffffffffffff1673ffffffffffffffffffffffffffffffffffffffff168152505081526020019060010190610ea8565b505050509050805167ffffffffffffffff811115610fe1577f4e487b7100000000000000000000000000000000000000000000000000000000600052604160045260246000fd5b60405190808252806020026020018201604052801561100f5781602001602082028036833780820191505090505b50915060008061101e85611e87565b9150915060008111156110fe5760005b83518110156110fc576110a482611096670de0b6b3a7640000868581518110611080577f4e487b7100000000000000000000000000000000000000000000000000000000600052603260045260246000fd5b60200260200101516141d090919063ffffffff16565b6141e690919063ffffffff16565b8582815181106110dd577f4e487b7100000000000000000000000000000000000000000000000000000000600052603260045260246000fd5b60200260200101818152505080806110f49061501e565b91505061102e565b505b505050919050565b600c600082815260200190815260200160002060009054906101000a900460ff16611166576040517f08c379a000000000000000000000000000000000000000000000000000000000815260040161115d90614d4a565b60405180910390fd5b601860003373ffffffffffffffffffffffffffffffffffffffff1673ffffffffffffffffffffffffffffffffffffffff168152602001908152602001600020600082815260200190815260200160002060009054906101000a900460ff1615611204576040517f08c379a00000000000000000000000000000000000000000000000000000000081526004016111fb90614d2a565b60405180910390fd5b600061120f82612334565b90506000805b600d6000858152602001908152602001600020805490508110156113e4573373ffffffffffffffffffffffffffffffffffffffff16600d60008681526020019081526020016000208281548110611295577f4e487b7100000000000000000000000000000000000000000000000000000000600052603260045260246000fd5b906000526020600020906004020160030160009054906101000a900473ffffffffffffffffffffffffffffffffffffffff1673ffffffffffffffffffffffffffffffffffffffff1614156113d157600061134c3386600d60008981526020019081526020016000208581548110611335577f4e487b7100000000000000000000000000000000000000000000000000000000600052603260045260246000fd5b9060005260206000209060040201600001546121bb565b90506113cd836113bf670de0b6b3a76400006113b188878151811061139a577f4e487b7100000000000000000000000000000000000000000000000000000000600052603260045260246000fd5b6020026020010151866141d090919063ffffffff16565b6141e690919063ffffffff16565b613edc90919063ffffffff16565b9250505b80806113dc9061501e565b915050611215565b50600081111561149f57600760009054906101000a900473ffffffffffffffffffffffffffffffffffffffff1673ffffffffffffffffffffffffffffffffffffffff1663c8773af233836040518363ffffffff1660e01b815260040161144b929190614af0565b602060405180830381600087803b15801561146557600080fd5b505af1158015611479573d6000803e3d6000fd5b505050506040513d601f19601f8201168201806040525081019061149d9190614649565b505b505050565b600c6020528060005260406000206000915054906101000a900460ff1681565b601a6020528060005260406000206000915054906101000a900460ff1681565b60025481565b60136020528060005260406000206000915090505481565b601960003373ffffffffffffffffffffffffffffffffffffffff1673ffffffffffffffffffffffffffffffffffffffff168152602001908152602001600020600082815260200190815260200160002060009054906101000a900460ff16156115a0576040517f08c379a000000000000000000000000000000000000000000000000000000000815260040161159790614d2a565b60405180910390fd5b600a5481111580156115c5575060006009600083815260200190815260200160002054115b611604576040517f08c379a00000000000000000000000000000000000000000000000000000000081526004016115fb90614d6a565b60405180910390fd5b4262093a8060096000848152602001908152602001600020546116279190614e38565b10611667576040517f08c379a000000000000000000000000000000000000000000000000000000000815260040161165e90614c2a565b60405180910390fd5b6000805b600d6000848152602001908152602001600020805490508110156117aa573373ffffffffffffffffffffffffffffffffffffffff16600d600085815260200190815260200160002082815481106116eb577f4e487b7100000000000000000000000000000000000000000000000000000000600052603260045260246000fd5b906000526020600020906004020160030160009054906101000a900473ffffffffffffffffffffffffffffffffffffffff1673ffffffffffffffffffffffffffffffffffffffff16141561179757611794611745846130b0565b828151811061177d577f4e487b7100000000000000000000000000000000000000000000000000000000600052603260045260246000fd5b602002602001015183613edc90919063ffffffff16565b91505b80806117a29061501e565b91505061166b565b50600081111561186557600760009054906101000a900473ffffffffffffffffffffffffffffffffffffffff1673ffffffffffffffffffffffffffffffffffffffff1663c8773af233836040518363ffffffff1660e01b8152600401611811929190614af0565b602060405180830381600087803b15801561182b57600080fd5b505af115801561183f573d6000803e3d6000fd5b505050506040513d601f19601f820116820180604052508101906118639190614649565b505b5050565b60146020528060005260406000206000915090505481565b60035481565b4260096000600a5481526020019081526020016000205411156118df576040517f08c379a00000000000000000000000000000000000000000000000000000000081526004016118d690614caa565b60405180910390fd5b4261190b62093a8060096000600a54815260200190815260200160002054613edc90919063ffffffff16565b101561194c576040517f08c379a000000000000000000000000000000000000000000000000000000000815260040161194390614cca565b60405180910390fd5b82826000601060008473ffffffffffffffffffffffffffffffffffffffff1673ffffffffffffffffffffffffffffffffffffffff168152602001908152602001600020600083815260200190815260200160002054116119e1576040517f08c379a00000000000000000000000000000000000000000000000000000000081526004016119d890614cea565b60405180910390fd5b60006119ec336139bb565b905083811015611a31576040517f08c379a0000000000000000000000000000000000000000000000000000000008152600401611a2890614c4a565b60405180910390fd5b611a3d33878787613ef2565b6000601560003373ffffffffffffffffffffffffffffffffffffffff1673ffffffffffffffffffffffffffffffffffffffff16815260200190815260200160002060006001600a54611a8f9190614f19565b815260200190815260200160002090504281600101541115611acb57611ac28582600001546141fc90919063ffffffff16565b81600001819055505b6000601560003373ffffffffffffffffffffffffffffffffffffffff1673ffffffffffffffffffffffffffffffffffffffff1681526020019081526020016000206000600a5481526020019081526020016000209050611b38868260000154613edc90919063ffffffff16565b8160000181905550600081600101541415611b8157611b786212750060096000600a54815260200190815260200160002054613edc90919063ffffffff16565b81600101819055505b5050505050505050565b6000611bb5611ba6620151808461421290919063ffffffff16565b836141fc90919063ffffffff16565b9050919050565b600a5481565b600b6020528060005260406000206000915090508054611be190614fec565b80601f0160208091040260200160405190810160405280929190818152602001828054611c0d90614fec565b8015611c5a5780601f10611c2f57610100808354040283529160200191611c5a565b820191906000526020600020905b815481529060010190602001808311611c3d57829003601f168201915b505050505081565b60166020528060005260406000206000915090505481565b60015481565b60606000611c8d83613da1565b90506000611c9a84612c88565b915050815167ffffffffffffffff811115611cde577f4e487b7100000000000000000000000000000000000000000000000000000000600052604160045260246000fd5b604051908082528060200260200182016040528015611d0c5781602001602082028036833780820191505090505b50925060005b8251811015611e7f57611d2442611b8b565b838281518110611d5d577f4e487b7100000000000000000000000000000000000000000000000000000000600052603260045260246000fd5b60200260200101511115611d7057611e6c565b6000611dbc86858481518110611daf577f4e487b7100000000000000000000000000000000000000000000000000000000600052603260045260246000fd5b60200260200101516109f4565b9050611e2581611e17600254868681518110611e01577f4e487b7100000000000000000000000000000000000000000000000000000000600052603260045260246000fd5b60200260200101516141d090919063ffffffff16565b6141e690919063ffffffff16565b858381518110611e5e577f4e487b7100000000000000000000000000000000000000000000000000000000600052603260045260246000fd5b602002602001018181525050505b8080611e779061501e565b915050611d12565b505050919050565b60606000600d60008481526020019081526020016000208054905067ffffffffffffffff811115611ee1577f4e487b7100000000000000000000000000000000000000000000000000000000600052604160045260246000fd5b604051908082528060200260200182016040528015611f0f5781602001602082028036833780820191505090505b50915060005b600d600085815260200190815260200160002080549050811015612065576000600860009054906101000a900473ffffffffffffffffffffffffffffffffffffffff1673ffffffffffffffffffffffffffffffffffffffff1663e3c6623d600b6000888152602001908152602001600020846040518363ffffffff1660e01b8152600401611fa4929190614bfa565b604080518083038186803b158015611fbb57600080fd5b505afa158015611fcf573d6000803e3d6000fd5b505050506040513d601f19601f82011682018060405250810190611ff3919061456c565b91505080848381518110612030577f4e487b7100000000000000000000000000000000000000000000000000000000600052603260045260246000fd5b60200260200101818152505061204f8184613edc90919063ffffffff16565b925050808061205d9061501e565b915050611f15565b50915091565b600760009054906101000a900473ffffffffffffffffffffffffffffffffffffffff1681565b60126020528060005260406000206000915090505481565b60186020528160005260406000206020528060005260406000206000915091509054906101000a900460ff1681565b600080600090506000600a5414156120f357809150506121b6565b6000600190505b600a5481116121b0576000601560008673ffffffffffffffffffffffffffffffffffffffff1673ffffffffffffffffffffffffffffffffffffffff1681526020019081526020016000206000838152602001908152602001600020604051806040016040529081600082015481526020016001820154815250509050428160200151101561219c57612199816000015184613edc90919063ffffffff16565b92505b5080806121a89061501e565b9150506120fa565b50809150505b919050565b6000806121c784613da1565b90506000805b825181101561229f5761228a82600f60008a73ffffffffffffffffffffffffffffffffffffffff1673ffffffffffffffffffffffffffffffffffffffff1681526020019081526020016000206000868581518110612254577f4e487b7100000000000000000000000000000000000000000000000000000000600052603260045260246000fd5b60200260200101518152602001908152602001600020600088815260200190815260200160002054613edc90919063ffffffff16565b915080806122979061501e565b9150506121cd565b5080925050509392505050565b6122b4614228565b73ffffffffffffffffffffffffffffffffffffffff166122d2612c5f565b73ffffffffffffffffffffffffffffffffffffffff1614612328576040517f08c379a000000000000000000000000000000000000000000000000000000000815260040161231f90614d0a565b60405180910390fd5b6123326000614230565b565b6060600061234183610e71565b90506000600d6000858152602001908152602001600020805480602002602001604051908101604052809291908181526020016000905b8282101561246a5783829060005260206000209060040201604051806080016040529081600082015481526020016001820160009054906101000a900473ffffffffffffffffffffffffffffffffffffffff1673ffffffffffffffffffffffffffffffffffffffff1673ffffffffffffffffffffffffffffffffffffffff168152602001600282015481526020016003820160009054906101000a900473ffffffffffffffffffffffffffffffffffffffff1673ffffffffffffffffffffffffffffffffffffffff1673ffffffffffffffffffffffffffffffffffffffff168152505081526020019060010190612378565b505050509050805167ffffffffffffffff8111156124b1577f4e487b7100000000000000000000000000000000000000000000000000000000600052604160045260246000fd5b6040519080825280602002602001820160405280156124df5781602001602082028036833780820191505090505b50925060006124ed85612c88565b915050600061256e670de0b6b3a764000061256084600186516125109190614f19565b81518110612547577f4e487b7100000000000000000000000000000000000000000000000000000000600052603260045260246000fd5b60200260200101516004546141d090919063ffffffff16565b6141e690919063ffffffff16565b905060005b835181101561273d576000601360008684815181106125bb577f4e487b7100000000000000000000000000000000000000000000000000000000600052603260045260246000fd5b6020026020010151600001518152602001908152602001600020541415612628576000868281518110612617577f4e487b7100000000000000000000000000000000000000000000000000000000600052603260045260246000fd5b60200260200101818152505061272a565b6126e460136000868481518110612668577f4e487b7100000000000000000000000000000000000000000000000000000000600052603260045260246000fd5b6020026020010151600001518152602001908152602001600020546126d68784815181106126bf577f4e487b7100000000000000000000000000000000000000000000000000000000600052603260045260246000fd5b6020026020010151856141d090919063ffffffff16565b6141e690919063ffffffff16565b86828151811061271d577f4e487b7100000000000000000000000000000000000000000000000000000000600052603260045260246000fd5b6020026020010181815250505b80806127359061501e565b915050612573565b5050505050919050565b600860009054906101000a900473ffffffffffffffffffffffffffffffffffffffff1681565b612775614228565b73ffffffffffffffffffffffffffffffffffffffff16612793612c5f565b73ffffffffffffffffffffffffffffffffffffffff16146127e9576040517f08c379a00000000000000000000000000000000000000000000000000000000081526004016127e090614d0a565b60405180910390fd5b818190508484905014612831576040517f08c379a000000000000000000000000000000000000000000000000000000000815260040161282890614c8a565b60405180910390fd5b6000600d6000878152602001908152602001600020905060005b85859050811015612c2757601160008154809291906128699061501e565b9190505550601154601060008888858181106128ae577f4e487b7100000000000000000000000000000000000000000000000000000000600052603260045260246000fd5b90506020020160208101906128c391906144de565b73ffffffffffffffffffffffffffffffffffffffff1673ffffffffffffffffffffffffffffffffffffffff1681526020019081526020016000206000868685818110612938577f4e487b7100000000000000000000000000000000000000000000000000000000600052603260045260246000fd5b90506020020135815260200190815260200160002081905550600086868381811061298c577f4e487b7100000000000000000000000000000000000000000000000000000000600052603260045260246000fd5b90506020020160208101906129a191906144de565b73ffffffffffffffffffffffffffffffffffffffff16636352211e8686858181106129f5577f4e487b7100000000000000000000000000000000000000000000000000000000600052603260045260246000fd5b905060200201356040518263ffffffff1660e01b8152600401612a189190614d8a565b60206040518083038186803b158015612a3057600080fd5b505afa158015612a44573d6000803e3d6000fd5b505050506040513d601f19601f82011682018060405250810190612a689190614507565b90508260405180608001604052806011548152602001898986818110612ab7577f4e487b7100000000000000000000000000000000000000000000000000000000600052603260045260246000fd5b9050602002016020810190612acc91906144de565b73ffffffffffffffffffffffffffffffffffffffff168152602001878786818110612b20577f4e487b7100000000000000000000000000000000000000000000000000000000600052603260045260246000fd5b9050602002013581526020018373ffffffffffffffffffffffffffffffffffffffff1681525090806001815401808255809150506001900390600052602060002090600402016000909190919091506000820151816000015560208201518160010160006101000a81548173ffffffffffffffffffffffffffffffffffffffff021916908373ffffffffffffffffffffffffffffffffffffffff1602179055506040820151816002015560608201518160030160006101000a81548173ffffffffffffffffffffffffffffffffffffffff021916908373ffffffffffffffffffffffffffffffffffffffff1602179055505050508080612c1f9061501e565b91505061284b565b50505050505050565b60196020528160005260406000206020528060005260406000206000915091509054906101000a900460ff1681565b60008060009054906101000a900473ffffffffffffffffffffffffffffffffffffffff16905090565b6060806000612c9684613da1565b9050805167ffffffffffffffff811115612cd9577f4e487b7100000000000000000000000000000000000000000000000000000000600052604160045260246000fd5b604051908082528060200260200182016040528015612d075781602001602082028036833780820191505090505b509250805167ffffffffffffffff811115612d4b577f4e487b7100000000000000000000000000000000000000000000000000000000600052604160045260246000fd5b604051908082528060200260200182016040528015612d795781602001602082028036833780820191505090505b50915060005b8151811015613091576000612dd486848481518110612dc7577f4e487b7100000000000000000000000000000000000000000000000000000000600052603260045260246000fd5b60200260200101516109f4565b9050612e166005600088815260200190815260200160002054612e08670de0b6b3a7640000846141d090919063ffffffff16565b6141e690919063ffffffff16565b858381518110612e4f577f4e487b7100000000000000000000000000000000000000000000000000000000600052603260045260246000fd5b602002602001018181525050670429d069189e0000858381518110612e9d577f4e487b7100000000000000000000000000000000000000000000000000000000600052603260045260246000fd5b60200260200101511015612efe576702c68af0bb140000848381518110612eed577f4e487b7100000000000000000000000000000000000000000000000000000000600052603260045260246000fd5b60200260200101818152505061307d565b670429d069189e0000858381518110612f40577f4e487b7100000000000000000000000000000000000000000000000000000000600052603260045260246000fd5b602002602001015110158015612f9d57506709b6e64a8ec60000858381518110612f93577f4e487b7100000000000000000000000000000000000000000000000000000000600052603260045260246000fd5b6020026020010151105b1561302d57848281518110612fdb577f4e487b7100000000000000000000000000000000000000000000000000000000600052603260045260246000fd5b602002602001015184838151811061301c577f4e487b7100000000000000000000000000000000000000000000000000000000600052603260045260246000fd5b60200260200101818152505061307c565b670de0b6b3a764000084838151811061306f577f4e487b7100000000000000000000000000000000000000000000000000000000600052603260045260246000fd5b6020026020010181815250505b5b5080806130899061501e565b915050612d7f565b5050915091565b60096020528060005260406000206000915090505481565b6060600d60008381526020019081526020016000208054905067ffffffffffffffff811115613108577f4e487b7100000000000000000000000000000000000000000000000000000000600052604160045260246000fd5b6040519080825280602002602001820160405280156131365781602001602082028036833780820191505090505b50905060005b600d600084815260200190815260200160002080549050811015613278576000601260008581526020019081526020016000205411156132655761321f601260008581526020019081526020016000205461321160035460136000600d60008a815260200190815260200160002087815481106131e2577f4e487b7100000000000000000000000000000000000000000000000000000000600052603260045260246000fd5b9060005260206000209060040201600001548152602001908152602001600020546141d090919063ffffffff16565b6141e690919063ffffffff16565b828281518110613258577f4e487b7100000000000000000000000000000000000000000000000000000000600052603260045260246000fd5b6020026020010181815250505b80806132709061501e565b91505061313c565b50919050565b600080600090506000600190505b600a548111613342576000601560008673ffffffffffffffffffffffffffffffffffffffff1673ffffffffffffffffffffffffffffffffffffffff1681526020019081526020016000206000838152602001908152602001600020604051806040016040529081600082015481526020016001820154815250509050428160200151111561332e5761332b816000015184613edc90919063ffffffff16565b92505b50808061333a9061501e565b91505061328c565b5080915050919050565b600660009054906101000a900473ffffffffffffffffffffffffffffffffffffffff1681565b6017602052826000526040600020602052816000526040600020602052806000526040600020600092509250509054906101000a900460ff1681565b6133b6614228565b73ffffffffffffffffffffffffffffffffffffffff166133d4612c5f565b73ffffffffffffffffffffffffffffffffffffffff161461342a576040517f08c379a000000000000000000000000000000000000000000000000000000000815260040161342190614d0a565b60405180910390fd5b600a600081548092919061343d9061501e565b91905055508260096000600a548152602001908152602001600020819055508360056000600a548152602001908152602001600020819055508181600b6000600a548152602001908152602001600020919061349a9291906142f4565b5050505050565b600080600190505b600a54811161354a576000601560003373ffffffffffffffffffffffffffffffffffffffff1673ffffffffffffffffffffffffffffffffffffffff16815260200190815260200160002060008381526020019081526020016000209050428160010154101561353657613529816000015484613edc90919063ffffffff16565b9250600081600001819055505b5080806135429061501e565b9150506134a9565b50600081111561360557600660009054906101000a900473ffffffffffffffffffffffffffffffffffffffff1673ffffffffffffffffffffffffffffffffffffffff1663a9059cbb33836040518363ffffffff1660e01b81526004016135b1929190614af0565b602060405180830381600087803b1580156135cb57600080fd5b505af11580156135df573d6000803e3d6000fd5b505050506040513d601f19601f8201168201806040525081019061360391906145f7565b505b50565b600061361382613da1565b9050600061362083611c80565b905060008061362e42611b8b565b905060005b84518110156138305781858281518110613676577f4e487b7100000000000000000000000000000000000000000000000000000000600052603260045260246000fd5b60200260200101511061368857613830565b601760003373ffffffffffffffffffffffffffffffffffffffff1673ffffffffffffffffffffffffffffffffffffffff16815260200190815260200160002060008781526020019081526020016000206000868381518110613713577f4e487b7100000000000000000000000000000000000000000000000000000000600052603260045260246000fd5b6020026020010151815260200190815260200160002060009054906101000a900460ff16156137415761381d565b60006137fa670de0b6b3a76400006137ec87858151811061378b577f4e487b7100000000000000000000000000000000000000000000000000000000600052603260045260246000fd5b60200260200101516137de338c8c89815181106137d1577f4e487b7100000000000000000000000000000000000000000000000000000000600052603260045260246000fd5b6020026020010151613a8f565b6141d090919063ffffffff16565b6141e690919063ffffffff16565b9050600081111561381b576138188185613edc90919063ffffffff16565b93505b505b80806138289061501e565b915050613633565b5060008211156138eb57600760009054906101000a900473ffffffffffffffffffffffffffffffffffffffff1673ffffffffffffffffffffffffffffffffffffffff1663c8773af233846040518363ffffffff1660e01b8152600401613897929190614af0565b602060405180830381600087803b1580156138b157600080fd5b505af11580156138c5573d6000803e3d6000fd5b505050506040513d601f19601f820116820180604052508101906138e99190614649565b505b5050505050565b60056020528060005260406000206000915090505481565b60115481565b613918614228565b73ffffffffffffffffffffffffffffffffffffffff16613936612c5f565b73ffffffffffffffffffffffffffffffffffffffff161461398c576040517f08c379a000000000000000000000000000000000000000000000000000000000815260040161398390614d0a565b60405180910390fd5b6001600c600083815260200190815260200160002060006101000a81548160ff02191690831515021790555050565b600080600090506000600a5414156139d7576000915050613a84565b6000601560008573ffffffffffffffffffffffffffffffffffffffff1673ffffffffffffffffffffffffffffffffffffffff16815260200190815260200160002060006001600a54613a299190614f19565b81526020019081526020016000206040518060400160405290816000820154815260200160018201548152505090504281602001511115613a7e57613a7b816000015183613edc90919063ffffffff16565b91505b81925050505b919050565b60045481565b600080600090506000600d6000868152602001908152602001600020805480602002602001604051908101604052809291908181526020016000905b82821015613bbd5783829060005260206000209060040201604051806080016040529081600082015481526020016001820160009054906101000a900473ffffffffffffffffffffffffffffffffffffffff1673ffffffffffffffffffffffffffffffffffffffff1673ffffffffffffffffffffffffffffffffffffffff168152602001600282015481526020016003820160009054906101000a900473ffffffffffffffffffffffffffffffffffffffff1673ffffffffffffffffffffffffffffffffffffffff1673ffffffffffffffffffffffffffffffffffffffff168152505081526020019060010190613acb565b50505050905060005b8151811015613c9c57613c8783600f60008a73ffffffffffffffffffffffffffffffffffffffff1673ffffffffffffffffffffffffffffffffffffffff16815260200190815260200160002060008881526020019081526020016000206000858581518110613c5e577f4e487b7100000000000000000000000000000000000000000000000000000000600052603260045260246000fd5b602002602001015160000151815260200190815260200160002054613edc90919063ffffffff16565b92508080613c949061501e565b915050613bc6565b5081925050509392505050565b613cb1614228565b73ffffffffffffffffffffffffffffffffffffffff16613ccf612c5f565b73ffffffffffffffffffffffffffffffffffffffff1614613d25576040517f08c379a0000000000000000000000000000000000000000000000000000000008152600401613d1c90614d0a565b60405180910390fd5b600073ffffffffffffffffffffffffffffffffffffffff168173ffffffffffffffffffffffffffffffffffffffff161415613d95576040517f08c379a0000000000000000000000000000000000000000000000000000000008152600401613d8c90614c6a565b60405180910390fd5b613d9e81614230565b50565b6060600060096000848152602001908152602001600020549050600767ffffffffffffffff811115613dfc577f4e487b7100000000000000000000000000000000000000000000000000000000600052604160045260246000fd5b604051908082528060200260200182016040528015613e2a5781602001602082028036833780820191505090505b5091506000613e3882611b8b565b905060005b6007811015613ed457613e7c603c80601884613e599190614ebf565b613e639190614ebf565b613e6d9190614ebf565b83613edc90919063ffffffff16565b848281518110613eb5577f4e487b7100000000000000000000000000000000000000000000000000000000600052603260045260246000fd5b6020026020010181815250508080613ecc9061501e565b915050613e3d565b505050919050565b60008183613eea9190614e38565b905092915050565b6000613efd42611b8b565b90506000613f0c600a54613da1565b90506000601060008773ffffffffffffffffffffffffffffffffffffffff1673ffffffffffffffffffffffffffffffffffffffff168152602001908152602001600020600086815260200190815260200160002054905060005b82518110156141485783838281518110613fa9577f4e487b7100000000000000000000000000000000000000000000000000000000600052603260045260246000fd5b602002602001015110614135576000838281518110613ff1577f4e487b7100000000000000000000000000000000000000000000000000000000600052603260045260246000fd5b6020026020010151905061403286600e6000848152602001908152602001600020600086815260200190815260200160002054613edc90919063ffffffff16565b600e60008381526020019081526020016000206000858152602001908152602001600020819055506140ce86600f60008c73ffffffffffffffffffffffffffffffffffffffff1673ffffffffffffffffffffffffffffffffffffffff1681526020019081526020016000206000848152602001908152602001600020600086815260200190815260200160002054613edc90919063ffffffff16565b600f60008b73ffffffffffffffffffffffffffffffffffffffff1673ffffffffffffffffffffffffffffffffffffffff1681526020019081526020016000206000838152602001908152602001600020600085815260200190815260200160002081905550505b80806141409061501e565b915050613f66565b5061416f846013600084815260200190815260200160002054613edc90919063ffffffff16565b60136000838152602001908152602001600020819055506141ae8460126000600a54815260200190815260200160002054613edc90919063ffffffff16565b60126000600a5481526020019081526020016000208190555050505050505050565b600081836141de9190614ebf565b905092915050565b600081836141f49190614e8e565b905092915050565b6000818361420a9190614f19565b905092915050565b600081836142209190615067565b905092915050565b600033905090565b60008060009054906101000a900473ffffffffffffffffffffffffffffffffffffffff169050816000806101000a81548173ffffffffffffffffffffffffffffffffffffffff021916908373ffffffffffffffffffffffffffffffffffffffff1602179055508173ffffffffffffffffffffffffffffffffffffffff168173ffffffffffffffffffffffffffffffffffffffff167f8be0079c531659141344cd1fd0a4f28419497f9722a3daafe3b4186f6b6457e060405160405180910390a35050565b82805461430090614fec565b90600052602060002090601f0160209004810192826143225760008555614369565b82601f1061433b57803560ff1916838001178555614369565b82800160010185558215614369579182015b8281111561436857823582559160200191906001019061434d565b5b509050614376919061437a565b5090565b5b8082111561439357600081600090555060010161437b565b5090565b6000813590506143a68161531f565b92915050565b6000815190506143bb8161531f565b92915050565b60008083601f8401126143d357600080fd5b8235905067ffffffffffffffff8111156143ec57600080fd5b60208301915083602082028301111561440457600080fd5b9250929050565b60008083601f84011261441d57600080fd5b8235905067ffffffffffffffff81111561443657600080fd5b60208301915083602082028301111561444e57600080fd5b9250929050565b60008151905061446481615336565b92915050565b60008083601f84011261447c57600080fd5b8235905067ffffffffffffffff81111561449557600080fd5b6020830191508360018202830111156144ad57600080fd5b9250929050565b6000813590506144c38161534d565b92915050565b6000815190506144d88161534d565b92915050565b6000602082840312156144f057600080fd5b60006144fe84828501614397565b91505092915050565b60006020828403121561451957600080fd5b6000614527848285016143ac565b91505092915050565b6000806040838503121561454357600080fd5b600061455185828601614397565b9250506020614562858286016144b4565b9150509250929050565b6000806040838503121561457f57600080fd5b600061458d858286016143ac565b925050602061459e858286016144c9565b9150509250929050565b6000806000606084860312156145bd57600080fd5b60006145cb86828701614397565b93505060206145dc868287016144b4565b92505060406145ed868287016144b4565b9150509250925092565b60006020828403121561460957600080fd5b600061461784828501614455565b91505092915050565b60006020828403121561463257600080fd5b6000614640848285016144b4565b91505092915050565b60006020828403121561465b57600080fd5b6000614669848285016144c9565b91505092915050565b60008060008060006060868803121561468a57600080fd5b6000614698888289016144b4565b955050602086013567ffffffffffffffff8111156146b557600080fd5b6146c1888289016143c1565b9450945050604086013567ffffffffffffffff8111156146e057600080fd5b6146ec8882890161440b565b92509250509295509295909350565b6000806040838503121561470e57600080fd5b600061471c858286016144b4565b925050602061472d858286016144b4565b9150509250929050565b6000806000806060858703121561474d57600080fd5b600061475b878288016144b4565b945050602061476c878288016144b4565b935050604085013567ffffffffffffffff81111561478957600080fd5b6147958782880161446a565b925092505092959194509250565b60006147af8383614a80565b60208301905092915050565b6147c481614f4d565b82525050565b60006147d582614df3565b6147df8185614e16565b93506147ea83614dce565b8060005b8381101561481b57815161480288826147a3565b975061480d83614e09565b9250506001810190506147ee565b5085935050505092915050565b61483181614f5f565b82525050565b61484081614f95565b82525050565b600061485182614dfe565b61485b8185614e27565b935061486b818560208601614fb9565b61487481615125565b840191505092915050565b6000815461488c81614fec565b6148968186614e27565b945060018216600081146148b157600181146148c3576148f6565b60ff19831686526020860193506148f6565b6148cc85614dde565b60005b838110156148ee578154818901526001820191506020810190506148cf565b808801955050505b50505092915050565b600061490c601683614e27565b915061491782615136565b602082019050919050565b600061492f601983614e27565b915061493a8261515f565b602082019050919050565b6000614952602683614e27565b915061495d82615188565b604082019050919050565b6000614975600e83614e27565b9150614980826151d7565b602082019050919050565b6000614998601383614e27565b91506149a382615200565b602082019050919050565b60006149bb600e83614e27565b91506149c682615229565b602082019050919050565b60006149de600b83614e27565b91506149e982615252565b602082019050919050565b6000614a01602083614e27565b9150614a0c8261527b565b602082019050919050565b6000614a24600783614e27565b9150614a2f826152a4565b602082019050919050565b6000614a47601383614e27565b9150614a52826152cd565b602082019050919050565b6000614a6a601083614e27565b9150614a75826152f6565b602082019050919050565b614a8981614f8b565b82525050565b614a9881614f8b565b82525050565b6000602082019050614ab360008301846147bb565b92915050565b6000606082019050614ace60008301866147bb565b614adb60208301856147bb565b614ae86040830184614a8f565b949350505050565b6000604082019050614b0560008301856147bb565b614b126020830184614a8f565b9392505050565b60006020820190508181036000830152614b3381846147ca565b905092915050565b60006040820190508181036000830152614b5581856147ca565b90508181036020830152614b6981846147ca565b90509392505050565b60006040820190508181036000830152614b8c81856147ca565b9050614b9b6020830184614a8f565b9392505050565b6000602082019050614bb76000830184614828565b92915050565b6000602082019050614bd26000830184614837565b92915050565b60006020820190508181036000830152614bf28184614846565b905092915050565b60006040820190508181036000830152614c14818561487f565b9050614c236020830184614a8f565b9392505050565b60006020820190508181036000830152614c43816148ff565b9050919050565b60006020820190508181036000830152614c6381614922565b9050919050565b60006020820190508181036000830152614c8381614945565b9050919050565b60006020820190508181036000830152614ca381614968565b9050919050565b60006020820190508181036000830152614cc38161498b565b9050919050565b60006020820190508181036000830152614ce3816149ae565b9050919050565b60006020820190508181036000830152614d03816149d1565b9050919050565b60006020820190508181036000830152614d23816149f4565b9050919050565b60006020820190508181036000830152614d4381614a17565b9050919050565b60006020820190508181036000830152614d6381614a3a565b9050919050565b60006020820190508181036000830152614d8381614a5d565b9050919050565b6000602082019050614d9f6000830184614a8f565b92915050565b6000604082019050614dba6000830185614a8f565b614dc76020830184614a8f565b9392505050565b6000819050602082019050919050565b60008190508160005260206000209050919050565b600081519050919050565b600081519050919050565b6000602082019050919050565b600082825260208201905092915050565b600082825260208201905092915050565b6000614e4382614f8b565b9150614e4e83614f8b565b9250827fffffffffffffffffffffffffffffffffffffffffffffffffffffffffffffffff03821115614e8357614e82615098565b5b828201905092915050565b6000614e9982614f8b565b9150614ea483614f8b565b925082614eb457614eb36150c7565b5b828204905092915050565b6000614eca82614f8b565b9150614ed583614f8b565b9250817fffffffffffffffffffffffffffffffffffffffffffffffffffffffffffffffff0483118215151615614f0e57614f0d615098565b5b828202905092915050565b6000614f2482614f8b565b9150614f2f83614f8b565b925082821015614f4257614f41615098565b5b828203905092915050565b6000614f5882614f6b565b9050919050565b60008115159050919050565b600073ffffffffffffffffffffffffffffffffffffffff82169050919050565b6000819050919050565b6000614fa082614fa7565b9050919050565b6000614fb282614f6b565b9050919050565b60005b83811015614fd7578082015181840152602081019050614fbc565b83811115614fe6576000848401525b50505050565b6000600282049050600182168061500457607f821691505b60208210811415615018576150176150f6565b5b50919050565b600061502982614f8b565b91507fffffffffffffffffffffffffffffffffffffffffffffffffffffffffffffffff82141561505c5761505b615098565b5b600182019050919050565b600061507282614f8b565b915061507d83614f8b565b92508261508d5761508c6150c7565b5b828206905092915050565b7f4e487b7100000000000000000000000000000000000000000000000000000000600052601160045260246000fd5b7f4e487b7100000000000000000000000000000000000000000000000000000000600052601260045260246000fd5b7f4e487b7100000000000000000000000000000000000000000000000000000000600052602260045260246000fd5b6000601f19601f8301169050919050565b7f566f74696e67206973206e6f742066696e697368656400000000000000000000600082015250565b7f496e73756666696369656e7420766f74652062616c616e636500000000000000600082015250565b7f4f776e61626c653a206e6577206f776e657220697320746865207a65726f206160008201527f6464726573730000000000000000000000000000000000000000000000000000602082015250565b7f496e76616c696420706172616d73000000000000000000000000000000000000600082015250565b7f566f74696e67206973206e6f7420737461727400000000000000000000000000600082015250565b7f566f74696e67206973206f766572000000000000000000000000000000000000600082015250565b7f496e76616c6964204e4654000000000000000000000000000000000000000000600082015250565b7f4f776e61626c653a2063616c6c6572206973206e6f7420746865206f776e6572600082015250565b7f436c61696d656400000000000000000000000000000000000000000000000000600082015250565b7f41637574696f6e206973206e6f74206f76657200000000000000000000000000600082015250565b7f496e76616c69642067726f757020494400000000000000000000000000000000600082015250565b61532881614f4d565b811461533357600080fd5b50565b61533f81614f5f565b811461534a57600080fd5b50565b61535681614f8b565b811461536157600080fd5b5056fea26469706673582212208bbe1387f41ce59414888d3242c45a95de8154c39231c746169c31eeb3d3b52164736f6c63430008040033",
  "immutableReferences": {},
  "source": "// SPDX-License-Identifier: MIT\npragma solidity ^0.8.0;\n\nimport \"@openzeppelin/contracts/access/Ownable.sol\";\nimport \"@openzeppelin/contracts/utils/math/SafeMath.sol\";\nimport \"@openzeppelin/contracts/token/ERC20/IERC20.sol\";\nimport \"@openzeppelin/contracts/token/ERC721/IERC721.sol\";\n\n\ninterface ITreasury {\n\tfunction sendRewards(address to, uint256 amount) external returns(uint256 val);\n\tfunction uink() external view returns(address);\n}\n\ninterface IAuction {\n\tfunction matchResults(string calldata matchId, uint index) external view returns(address, uint);\n}\n\ncontract VoteMining is Ownable {\n\tusing SafeMath for uint256;\n\n\tuint public weeklyCap = 50000 * 1e18;\n\tuint public dailyVoteRewardCap = weeklyCap / 7 / 4; // 25% of daily cap \n\tuint public dailyMintRewardCap = weeklyCap / 7 / 4; // 25% of daily cap \n\tuint public bonusCap = weeklyCap  / 2; // 50% of weekly cap\n\t// group id => amount\n\tmapping (uint => uint) public stakingBases;\n\n\n\taddress public uink;\n\tITreasury public treasury;\n\taddress public auction;\n\n\tstruct NFT {\n\t\tuint uid;\n\t\taddress addr;\n\t\tuint id;\n\t\taddress owner;\n\t}\n\t// id => start time\n\tmapping (uint => uint) public groups;\n\tuint public currentGroupId = 0;\n\t// group id => matchId\n\tmapping (uint => string) public matches;\n\t// group id => finished or not\n\tmapping (uint => bool) public hasFinished;\n\t\n\t\n\n\t\n\t// id => NFT[]\n\tmapping (uint => NFT[]) groupNFTs;\n\t// date => NFT uid => votes\n\tmapping (uint => mapping (uint => uint)) dayVotes;\n\t// user => date => NFT id => amount\n\tmapping (address => mapping (uint => mapping (uint => uint))) userVotes;\n\t\t\n\t// address => nftId => internal id\n\tmapping (address => mapping (uint => uint)) nfts;\n\tuint public nextNFTId = 0;\n\t// group id => votes\n\tmapping (uint => uint) public groupVotes;\n\n\t// uid => votes\n\tmapping (uint => uint) public nftVotes;\n\t\n\t\n\tstruct VoteBalance {\n\t\tuint balance;\n\t\tuint releaseAt;\n\t}\n\n\t// user => amount\n\tmapping (address => uint) public balances;\n\n\t// user => group => amount\n\tmapping (address => mapping (uint => VoteBalance)) public nextVotableBalances;\n\t\n\t// uid => price\n\tmapping (uint => uint) public nftTradedPrices;\n\t// user => group => date => bool\n\tmapping (address => mapping (uint => mapping (uint => bool))) public voteRewardsClaimed;\n\t// user = > group id => bool\n\tmapping (address => mapping (uint => bool)) public bonusRewardsClaimed;\n\t// user => group id => bool\n\tmapping (address => mapping (uint => bool)) public mintRewardsClaimed;\n\t\n\n\tmapping (address => bool) public operators;\n\t\n\n\tmodifier checkNFT(address nftAddr, uint nftId) { \n\t\trequire(nfts[nftAddr][nftId] > 0, \"Invalid NFT\");\n\t\t_; \n\t}\n\n\tmodifier checkVotingTime() { \n\t\trequire(groups[currentGroupId] <= block.timestamp, \"Voting is not start\");\n\t\trequire(groups[currentGroupId].add(7 days) >= block.timestamp, \"Voting is over\");\n\t\t_; \n\t}\n\n\t\n\t\n\tconstructor(address _treasury, address _auction){\n\t\ttreasury = ITreasury(_treasury);\n\t\tauction = _auction;\n\t\tuink = treasury.uink();\n\t}\n\t// modifier onlyOperator() {\n\t// \trequire(operators[msg.sender], \"Not operator\");\n\t// \t_;\n\t// }\n\t// function addOperator(address _operator) external onlyOwner {\n\t// \toperators[_operator] = true;\n\t// }\n\t\n\t// function removeOperator(address _operator) external onlyOwner {\n\t// \toperators[_operator] = false;\n\t// }\n\n\tfunction addGroup(uint stakingBase, uint startTime, string calldata matchId) external onlyOwner {\n\t\tcurrentGroupId++;\n\t\tgroups[currentGroupId] = startTime;\n\t\tstakingBases[currentGroupId] = stakingBase;\n\t\tmatches[currentGroupId] = matchId;\n\t}\n\n\tfunction addNFT(uint groupId, address[] calldata nftAddrs, uint[] calldata nftIds) external onlyOwner {\n\t\trequire(nftAddrs.length == nftIds.length, \"Invalid params\");\n\t\tNFT[] storage inputNFTs = groupNFTs[groupId];\n\n\t\tfor(uint i = 0; i < nftAddrs.length; i++) {\n\t\t\tnextNFTId++;\n\t\t\tnfts[nftAddrs[i]][nftIds[i]] = nextNFTId;\n\t\t\taddress nftOwner = IERC721(nftAddrs[i]).ownerOf(nftIds[i]);\n\t\t\tinputNFTs.push(NFT({\n\t\t\t\tuid: nextNFTId,\n\t\t\t\taddr: nftAddrs[i],\n\t\t\t\tid: nftIds[i],\n\t\t\t\towner: nftOwner\n\t\t\t}));\n\t\t}\n\t}\n\n\tfunction getAuctionPrices(uint groupId) public view returns(uint[] memory prices, uint totalAmount) {\n\t\tprices = new uint[](groupNFTs[groupId].length);\n\t\tfor(uint i = 0; i < groupNFTs[groupId].length; i++) {\n\t\t\t(, uint price) = IAuction(auction).matchResults(matches[groupId], i);\n\t\t\tprices[i] = price;\n\t\t\ttotalAmount = totalAmount.add(price);\n\t\t}\n\t}\n\n\t\n\tfunction getDate(uint256 ts) public pure returns(uint256) {\n\t\treturn ts.sub(ts.mod(1 days));\n\t}\n\n\tfunction getVotableDates(uint groupId) public view returns(uint[] memory dates) {\n\t\tuint start = groups[groupId];\n\t\tdates = new uint[](7);\n\t\tuint firstDate = getDate(start);\n\t\tfor(uint i = 0; i < 7; i++) {\n\t\t\tdates[i] = firstDate.add(i * 24 * 60 * 60);\n\t\t}\n\t}\n\n\tfunction getVotableBalance(address user) public view returns(uint) {\n\t\tuint balance = 0;\n\t\tif(currentGroupId == 0) {\n\t\t\treturn 0;\n\t\t}\n\n\t\tVoteBalance memory preVotableBalance = nextVotableBalances[user][currentGroupId - 1];\n\t\tif(preVotableBalance.releaseAt > block.timestamp) {\n\t\t\tbalance = balance.add(preVotableBalance.balance);\n\t\t}\n\n\t\treturn balance;\n\t}\n\n\tfunction getAvailableBalance(address user) public view returns(uint) {\n\t\tuint balance = 0;\n\t\tif(currentGroupId == 0) {\n\t\t\treturn balance;\n\t\t}\n\n\t\tfor(uint i = 1; i <= currentGroupId; i++) {\n\t\t\tVoteBalance memory nvBalance = nextVotableBalances[user][i];\n\t\t\tif(nvBalance.releaseAt < block.timestamp) {\n\t\t\t\tbalance = balance.add(nvBalance.balance);\n\t\t\t}\n\t\t}\n\t\treturn balance;\n\t}\n\n\tfunction getVotedBalance(address user) public view returns(uint) {\n\t\tuint balance = 0;\n\t\tfor(uint i = 1; i <= currentGroupId; i++) {\n\t\t\tVoteBalance memory nvBalance = nextVotableBalances[user][i];\n\t\t\tif(nvBalance.releaseAt > block.timestamp) {\n\t\t\t\tbalance = balance.add(nvBalance.balance);\n\t\t\t}\n\t\t}\n\t\treturn balance;\n\t}\n\n\n\n\tfunction _vote(address user, address nftAddr, uint nftId, uint amount) internal {\n\t\tuint today = getDate(block.timestamp);\n\t\tuint[] memory dates = getVotableDates(currentGroupId);\n\t\tuint uid = nfts[nftAddr][nftId];\n\n\t\tfor(uint i = 0; i < dates.length; i++) {\n\t\t\tif(dates[i] >= today) {\n\t\t\t\tuint date = dates[i];\n\t\t\t\tdayVotes[date][uid] = dayVotes[date][uid].add(amount);\n\t\t\t\tuserVotes[user][date][uid] = userVotes[user][date][uid].add(amount);\n\t\t\t}\n\t\t}\n\t\tnftVotes[uid] = nftVotes[uid].add(amount);\n\t\tgroupVotes[currentGroupId] = groupVotes[currentGroupId].add(amount);\n\t}\n\n\t// stake and vote\n\tfunction stake(address nftAddr, uint nftId, uint amount)\n\t\texternal \n\t\tcheckVotingTime\n\t\tcheckNFT(nftAddr, nftId) \n\t{\n\t\t_vote(msg.sender, nftAddr, nftId, amount);\n\n\t\tIERC20(uink).transferFrom(msg.sender, address(this), amount);\n\t\tbalances[msg.sender] = balances[msg.sender].add(amount);\n\n\n\t\tVoteBalance storage nvBalance = nextVotableBalances[msg.sender][currentGroupId];\n\t\tnvBalance.balance = nvBalance.balance.add(amount);\n\t\tif(nvBalance.releaseAt == 0) {\n\t\t\tnvBalance.releaseAt = groups[currentGroupId].add(14 days); \n\t\t}\n\t}\n\n\tfunction vote(address nftAddr, uint nftId, uint amount) \n\t\texternal \n\t\tcheckVotingTime\n\t\tcheckNFT(nftAddr, nftId)\n\t{\n\t\tuint votableBalance = getVotableBalance(msg.sender);\n\t\trequire(votableBalance >= amount, \"Insufficient vote balance\");\n\t\t_vote(msg.sender, nftAddr, nftId, amount);\n\n\n\t\tVoteBalance storage pvBalance = nextVotableBalances[msg.sender][currentGroupId - 1];\n\t\tif(pvBalance.releaseAt > block.timestamp) {\n\t\t\tpvBalance.balance = pvBalance.balance.sub(amount);\n\t\t}\n\n\t\tVoteBalance storage nvBalance = nextVotableBalances[msg.sender][currentGroupId];\n\t\tnvBalance.balance = nvBalance.balance.add(amount);\n\t\tif(nvBalance.releaseAt == 0) {\n\t\t\tnvBalance.releaseAt = groups[currentGroupId].add(14 days);\t\t\t\n\t\t}\n\t}\n\n\n\tfunction redeem() external {\n\t\tuint total = 0;\n\t\tfor(uint i = 1; i <= currentGroupId; i++) {\n\t\t\tVoteBalance storage nvBalance = nextVotableBalances[msg.sender][i];\n\t\t\tif(nvBalance.releaseAt < block.timestamp) {\n\t\t\t\ttotal = total.add(nvBalance.balance);\n\t\t\t\tnvBalance.balance = 0;\n\t\t\t}\n\t\t}\n\n\t\tif(total > 0) {\n\t\t\tIERC20(uink).transfer(msg.sender, total);\t\n\t\t}\n\t}\n\n\tfunction getUserDailyVotes(address user, uint groupId, uint date) public view returns(uint) {\n\t\tuint votes = 0;\n\t\tNFT[] memory gNFTs = groupNFTs[groupId];\n\t\tfor(uint i = 0; i < gNFTs.length; i++) {\n\t\t\tvotes = userVotes[user][date][gNFTs[i].uid].add(votes);\n\t\t}\n\t\treturn votes;\n\t}\n\n\tfunction getUserVotesByNFT(address user, uint groupId, uint uid) public view returns(uint) {\n\t\tuint[] memory dates = getVotableDates(groupId);\n\t\tuint votes = 0;\n\t\tfor(uint i = 0; i < dates.length; i++) {\n\t\t\tvotes = userVotes[user][dates[i]][uid].add(votes);\n\t\t}\n\t\treturn votes;\n\t}\n\n\tfunction claimVoteRewards(uint groupId) external {\n\n\n\t\tuint[] memory dates = getVotableDates(groupId);\n\t\tuint[] memory rawardRates = getBaseRewardRates(groupId);\n\n\t\tuint rewards = 0;\n\t\tuint today = getDate(block.timestamp);\n\t\tfor(uint i = 0; i < dates.length; i++) {\n\t\t\tif(dates[i] >= today){\n\t\t\t\tbreak;\n\t\t\t}\n\t\t\tif(voteRewardsClaimed[msg.sender][groupId][dates[i]]){\n\t\t\t\tcontinue;\n\t\t\t}\n\n\t\t\tuint dayRewards = getUserDailyVotes(msg.sender, groupId, dates[i]).mul(rawardRates[i]).div(1e18);\n\t\t\tif(dayRewards > 0) {\n\t\t\t\trewards = rewards.add(dayRewards);\n\t\t\t}\n\t\t}\n\n\t\tif(rewards > 0) {\n\t\t\ttreasury.sendRewards(msg.sender, rewards);\n\t\t}\n\t}\n\n\n\tfunction claimMintRewards(uint groupId) external {\n\t\trequire(!mintRewardsClaimed[msg.sender][groupId], \"Claimed\");\n\t\trequire(groupId <= currentGroupId && groups[groupId] > 0, \"Invalid group ID\");\n\t\trequire(groups[groupId] + 7 days < block.timestamp, \"Voting is not finished\");\n\t\tuint rewards = 0;\n\t\tfor(uint i = 0; i < groupNFTs[groupId].length; i++) {\n\t\t\tif(groupNFTs[groupId][i].owner == msg.sender) {\n\t\t\t\trewards = rewards.add(getMintRewardsPerNFT(groupId)[i]);\n\t\t\t}\n\t\t}\n\t\tif(rewards > 0) {\n\t\t\ttreasury.sendRewards(msg.sender, rewards);\n\t\t}\n\t}\n\n\tfunction claimBonusRewards(uint groupId) external {\n\t\trequire(hasFinished[groupId], \"Acution is not over\");\n\t\trequire(!bonusRewardsClaimed[msg.sender][groupId], \"Claimed\");\n\t\tuint[] memory rewardRates = getBonusRewardRates(groupId);\n\t\tuint rewards = 0;\n\t\tfor(uint i = 0; i < groupNFTs[groupId].length; i++) {\n\t\t\tif(groupNFTs[groupId][i].owner == msg.sender) {\n\t\t\t\tuint votes = getUserVotesByNFT(msg.sender, groupId, groupNFTs[groupId][i].uid);\n\t\t\t\trewards = votes.mul(rewardRates[i]).div(1e18).add(rewards);\n\t\t\t}\n\t\t}\n\t\tif(rewards > 0) {\n\t\t\ttreasury.sendRewards(msg.sender, rewards);\n\t\t}\n\t}\n\n\tfunction getTradeWeights(uint groupId) public view returns(uint[] memory weights) {\n\t\tNFT[] memory gNFTs = groupNFTs[groupId];\n\t\tweights = new uint[](gNFTs.length);\n\t\t\n\t\t(uint[] memory prices, uint total) = getAuctionPrices(groupId);\n\n\t\tif(total > 0) {\n\t\t\tfor(uint i = 0; i < gNFTs.length; i++){\n\t\t\t\tweights[i] = prices[i].mul(1e18).div(total);\n\t\t\t}\n\t\t}\n\t}\n\n\tfunction setAuctionFinish(uint groupId) external onlyOwner {\n\t\thasFinished[groupId] = true;\n\t}\n\n\tfunction getBonusRewardRates(uint groupId) public view returns(uint[] memory bonusRewardRates) {\n\t\tuint[] memory weights = getTradeWeights(groupId);\n\t\tNFT[] memory gNFTs = groupNFTs[groupId];\n\t\tbonusRewardRates = new uint[](gNFTs.length);\n\t\t(, uint[] memory inflations) = getWeightsAndInflations(groupId);\n\t\tuint bonus = bonusCap.mul(inflations[inflations.length - 1]).div(1e18);\n\n\t\tfor(uint i = 0; i < gNFTs.length; i++) {\n\t\t\tif(nftVotes[gNFTs[i].uid] == 0) {\n\t\t\t\tbonusRewardRates[i] = 0;\n\t\t\t} else {\n\t\t\t\tbonusRewardRates[i] = bonus.mul(weights[i]).div(nftVotes[gNFTs[i].uid]);\n\t\t\t}\n\t\t}\n\t}\n\n\tfunction getDailyVotes(uint groupId, uint date) public view returns(uint256) {\n\t\tuint votes = 0;\n\t\tfor(uint i = 0; i < groupNFTs[groupId].length; i++) {\n\t\t\tuint uid = groupNFTs[groupId][i].uid;\n\t\t\tvotes = votes.add(dayVotes[date][uid]);\n\t\t}\n\t\treturn votes;\n\t}\n\n\tfunction getWeightsAndInflations(uint groupId)\n\t\tpublic\n\t\tview\n\t\treturns(\n\t\t\tuint[] memory weights,\n\t\t\tuint[] memory inflations\n\t\t) \n\t{\n\n\t\tuint[] memory dates = getVotableDates(groupId);\n\t\tweights = new uint[](dates.length);\n\t\tinflations = new uint[](dates.length);\n\n\t\tfor(uint i = 0; i < dates.length; i++) {\n\t\t\tuint dailyVotes = getDailyVotes(groupId, dates[i]);\n\t\t\tweights[i] = dailyVotes.mul(1e18).div(stakingBases[groupId]);\n\t\t\tif(weights[i] < 3 * 1e17) {\n\t\t\t\tinflations[i] = 2 * 1e17;\n\t\t\t} else if(weights[i] >= 3 * 1e17 &&  weights[i] < 7 * 1e17) {\n\t\t\t\tinflations[i] = weights[i];\n\t\t\t} else {\n\t\t\t\tinflations[i] = 1e18;\n\t\t\t}\n\t\t}\n\t}\n\n\tfunction getBaseRewardRates(uint groupId) \n\t\tpublic view \n\t\treturns(uint[] memory rewardRates) \n\t{\n\n\t\tuint[] memory dates = getVotableDates(groupId);\n\t\t(,uint[] memory inflations) = getWeightsAndInflations(groupId);\n\t\trewardRates = new uint[](dates.length);\n\n\t\tfor(uint i = 0; i < dates.length; i++) {\n\t\t\tif(dates[i] > getDate(block.timestamp)) {\n\t\t\t\tcontinue;\n\t\t\t}\n\t\t\tuint dailyTotalVotes = getDailyVotes(groupId, dates[i]);\n\t\t\trewardRates[i] = inflations[i].mul(dailyVoteRewardCap).div(dailyTotalVotes);\n\t\t}\n\t}\n\n\tfunction getMintRewardsPerNFT(uint groupId)\n\t\tpublic view \n\t\treturns(uint[] memory mintRewards) \n\t{\n\t\tmintRewards = new uint[](groupNFTs[groupId].length);\n\t\tfor(uint i = 0; i < groupNFTs[groupId].length; i++) {\n\t\t\tif(groupVotes[groupId] > 0) {\n\t\t\t\tmintRewards[i] = nftVotes[groupNFTs[groupId][i].uid].mul(dailyMintRewardCap).div(groupVotes[groupId]);\n\t\t\t}\n\t\t}\n\t}\n}",
  "sourcePath": "/Users/tuminfei/Code/Nodejs/uniarts-eth-dao/contracts/VoteMining.sol",
  "compiler": {
    "name": "solc",
    "version": "0.8.4+commit.c7e474f2.Emscripten.clang"
  },
  "schemaVersion": "3.3.0",
  "updatedAt": "2021-08-24T02:40:11.132Z",
  "devdoc": {
    "kind": "dev",
    "methods": {
      "owner()": {
        "details": "Returns the address of the current owner."
      },
      "renounceOwnership()": {
        "details": "Leaves the contract without owner. It will not be possible to call `onlyOwner` functions anymore. Can only be called by the current owner. NOTE: Renouncing ownership will leave the contract without an owner, thereby removing any functionality that is only available to the owner."
      },
      "transferOwnership(address)": {
        "details": "Transfers ownership of the contract to a new account (`newOwner`). Can only be called by the current owner."
      }
    },
    "version": 1
  },
  "userdoc": {
    "kind": "user",
    "methods": {},
    "version": 1
  }
}