{
  "contractName": "VoteMining",
  "abi": [
    {
      "inputs": [
        {
          "internalType": "address",
          "name": "_treasury",
          "type": "address"
        },
        {
          "internalType": "address",
          "name": "_tokenLocker",
          "type": "address"
        }
      ],
      "stateMutability": "nonpayable",
      "type": "constructor"
    },
    {
      "anonymous": false,
      "inputs": [
        {
          "indexed": true,
          "internalType": "address",
          "name": "previousOwner",
          "type": "address"
        },
        {
          "indexed": true,
          "internalType": "address",
          "name": "newOwner",
          "type": "address"
        }
      ],
      "name": "OwnershipTransferred",
      "type": "event"
    },
    {
      "anonymous": false,
      "inputs": [
        {
          "indexed": true,
          "internalType": "address",
          "name": "user",
          "type": "address"
        },
        {
          "indexed": false,
          "internalType": "address",
          "name": "token",
          "type": "address"
        },
        {
          "indexed": false,
          "internalType": "uint256",
          "name": "amount",
          "type": "uint256"
        }
      ],
      "name": "Redeem",
      "type": "event"
    },
    {
      "anonymous": false,
      "inputs": [
        {
          "indexed": true,
          "internalType": "address",
          "name": "user",
          "type": "address"
        },
        {
          "indexed": false,
          "internalType": "uint256",
          "name": "amount",
          "type": "uint256"
        },
        {
          "indexed": false,
          "internalType": "uint256",
          "name": "at",
          "type": "uint256"
        }
      ],
      "name": "Unbond",
      "type": "event"
    },
    {
      "inputs": [],
      "name": "VOTE_DAYS",
      "outputs": [
        {
          "internalType": "uint256",
          "name": "",
          "type": "uint256"
        }
      ],
      "stateMutability": "view",
      "type": "function"
    },
    {
      "inputs": [],
      "name": "VOTE_DURATION",
      "outputs": [
        {
          "internalType": "uint256",
          "name": "",
          "type": "uint256"
        }
      ],
      "stateMutability": "view",
      "type": "function"
    },
    {
      "inputs": [],
      "name": "VOTE_TIME_UNIT",
      "outputs": [
        {
          "internalType": "uint256",
          "name": "",
          "type": "uint256"
        }
      ],
      "stateMutability": "view",
      "type": "function"
    },
    {
      "inputs": [],
      "name": "auction",
      "outputs": [
        {
          "internalType": "address",
          "name": "",
          "type": "address"
        }
      ],
      "stateMutability": "view",
      "type": "function"
    },
    {
      "inputs": [
        {
          "internalType": "address",
          "name": "",
          "type": "address"
        },
        {
          "internalType": "address",
          "name": "",
          "type": "address"
        },
        {
          "internalType": "uint256",
          "name": "",
          "type": "uint256"
        }
      ],
      "name": "balances",
      "outputs": [
        {
          "internalType": "uint256",
          "name": "available",
          "type": "uint256"
        },
        {
          "internalType": "uint256",
          "name": "freezed",
          "type": "uint256"
        },
        {
          "internalType": "uint256",
          "name": "votedAt",
          "type": "uint256"
        }
      ],
      "stateMutability": "view",
      "type": "function"
    },
    {
      "inputs": [],
      "name": "bonusCap",
      "outputs": [
        {
          "internalType": "uint256",
          "name": "",
          "type": "uint256"
        }
      ],
      "stateMutability": "view",
      "type": "function"
    },
    {
      "inputs": [
        {
          "internalType": "address",
          "name": "",
          "type": "address"
        },
        {
          "internalType": "uint256",
          "name": "",
          "type": "uint256"
        }
      ],
      "name": "bonusRewardsClaimed",
      "outputs": [
        {
          "internalType": "bool",
          "name": "",
          "type": "bool"
        }
      ],
      "stateMutability": "view",
      "type": "function"
    },
    {
      "inputs": [],
      "name": "currentGroupId",
      "outputs": [
        {
          "internalType": "uint256",
          "name": "",
          "type": "uint256"
        }
      ],
      "stateMutability": "view",
      "type": "function"
    },
    {
      "inputs": [],
      "name": "dailyVoteRewardCap",
      "outputs": [
        {
          "internalType": "uint256",
          "name": "",
          "type": "uint256"
        }
      ],
      "stateMutability": "view",
      "type": "function"
    },
    {
      "inputs": [
        {
          "internalType": "uint256",
          "name": "",
          "type": "uint256"
        },
        {
          "internalType": "uint256",
          "name": "",
          "type": "uint256"
        }
      ],
      "name": "dayVotes",
      "outputs": [
        {
          "internalType": "uint256",
          "name": "",
          "type": "uint256"
        }
      ],
      "stateMutability": "view",
      "type": "function"
    },
    {
      "inputs": [
        {
          "internalType": "uint256",
          "name": "",
          "type": "uint256"
        },
        {
          "internalType": "uint256",
          "name": "",
          "type": "uint256"
        }
      ],
      "name": "groupNFTs",
      "outputs": [
        {
          "internalType": "uint256",
          "name": "uid",
          "type": "uint256"
        },
        {
          "internalType": "address",
          "name": "addr",
          "type": "address"
        },
        {
          "internalType": "uint256",
          "name": "id",
          "type": "uint256"
        },
        {
          "internalType": "address",
          "name": "owner",
          "type": "address"
        }
      ],
      "stateMutability": "view",
      "type": "function"
    },
    {
      "inputs": [
        {
          "internalType": "uint256",
          "name": "",
          "type": "uint256"
        },
        {
          "internalType": "address",
          "name": "",
          "type": "address"
        },
        {
          "internalType": "address",
          "name": "",
          "type": "address"
        }
      ],
      "name": "groupTokenBalances",
      "outputs": [
        {
          "internalType": "uint256",
          "name": "",
          "type": "uint256"
        }
      ],
      "stateMutability": "view",
      "type": "function"
    },
    {
      "inputs": [
        {
          "internalType": "uint256",
          "name": "",
          "type": "uint256"
        }
      ],
      "name": "groupVotes",
      "outputs": [
        {
          "internalType": "uint256",
          "name": "",
          "type": "uint256"
        }
      ],
      "stateMutability": "view",
      "type": "function"
    },
    {
      "inputs": [
        {
          "internalType": "uint256",
          "name": "",
          "type": "uint256"
        }
      ],
      "name": "groups",
      "outputs": [
        {
          "internalType": "uint256",
          "name": "",
          "type": "uint256"
        }
      ],
      "stateMutability": "view",
      "type": "function"
    },
    {
      "inputs": [
        {
          "internalType": "uint256",
          "name": "",
          "type": "uint256"
        }
      ],
      "name": "hasFinished",
      "outputs": [
        {
          "internalType": "bool",
          "name": "",
          "type": "bool"
        }
      ],
      "stateMutability": "view",
      "type": "function"
    },
    {
      "inputs": [
        {
          "internalType": "uint256",
          "name": "",
          "type": "uint256"
        }
      ],
      "name": "matches",
      "outputs": [
        {
          "internalType": "string",
          "name": "",
          "type": "string"
        }
      ],
      "stateMutability": "view",
      "type": "function"
    },
    {
      "inputs": [],
      "name": "mintRewardCap",
      "outputs": [
        {
          "internalType": "uint256",
          "name": "",
          "type": "uint256"
        }
      ],
      "stateMutability": "view",
      "type": "function"
    },
    {
      "inputs": [
        {
          "internalType": "uint256",
          "name": "",
          "type": "uint256"
        }
      ],
      "name": "mintRewardsClaimed",
      "outputs": [
        {
          "internalType": "bool",
          "name": "",
          "type": "bool"
        }
      ],
      "stateMutability": "view",
      "type": "function"
    },
    {
      "inputs": [],
      "name": "nextNFTId",
      "outputs": [
        {
          "internalType": "uint256",
          "name": "",
          "type": "uint256"
        }
      ],
      "stateMutability": "view",
      "type": "function"
    },
    {
      "inputs": [
        {
          "internalType": "uint256",
          "name": "",
          "type": "uint256"
        }
      ],
      "name": "nftGroup",
      "outputs": [
        {
          "internalType": "uint256",
          "name": "",
          "type": "uint256"
        }
      ],
      "stateMutability": "view",
      "type": "function"
    },
    {
      "inputs": [
        {
          "internalType": "uint256",
          "name": "",
          "type": "uint256"
        }
      ],
      "name": "nftTradedPrices",
      "outputs": [
        {
          "internalType": "uint256",
          "name": "",
          "type": "uint256"
        }
      ],
      "stateMutability": "view",
      "type": "function"
    },
    {
      "inputs": [
        {
          "internalType": "uint256",
          "name": "",
          "type": "uint256"
        }
      ],
      "name": "nftVotes",
      "outputs": [
        {
          "internalType": "uint256",
          "name": "",
          "type": "uint256"
        }
      ],
      "stateMutability": "view",
      "type": "function"
    },
    {
      "inputs": [
        {
          "internalType": "address",
          "name": "",
          "type": "address"
        },
        {
          "internalType": "uint256",
          "name": "",
          "type": "uint256"
        }
      ],
      "name": "nfts",
      "outputs": [
        {
          "internalType": "uint256",
          "name": "",
          "type": "uint256"
        }
      ],
      "stateMutability": "view",
      "type": "function"
    },
    {
      "inputs": [
        {
          "internalType": "address",
          "name": "",
          "type": "address"
        }
      ],
      "name": "operators",
      "outputs": [
        {
          "internalType": "bool",
          "name": "",
          "type": "bool"
        }
      ],
      "stateMutability": "view",
      "type": "function"
    },
    {
      "inputs": [],
      "name": "owner",
      "outputs": [
        {
          "internalType": "address",
          "name": "",
          "type": "address"
        }
      ],
      "stateMutability": "view",
      "type": "function"
    },
    {
      "inputs": [],
      "name": "pinAddress",
      "outputs": [
        {
          "internalType": "address",
          "name": "",
          "type": "address"
        }
      ],
      "stateMutability": "view",
      "type": "function"
    },
    {
      "inputs": [],
      "name": "renounceOwnership",
      "outputs": [],
      "stateMutability": "nonpayable",
      "type": "function"
    },
    {
      "inputs": [
        {
          "internalType": "uint256",
          "name": "",
          "type": "uint256"
        }
      ],
      "name": "stakingBases",
      "outputs": [
        {
          "internalType": "uint256",
          "name": "",
          "type": "uint256"
        }
      ],
      "stateMutability": "view",
      "type": "function"
    },
    {
      "inputs": [],
      "name": "tokenLockId",
      "outputs": [
        {
          "internalType": "uint256",
          "name": "",
          "type": "uint256"
        }
      ],
      "stateMutability": "view",
      "type": "function"
    },
    {
      "inputs": [],
      "name": "tokenLocker",
      "outputs": [
        {
          "internalType": "address",
          "name": "",
          "type": "address"
        }
      ],
      "stateMutability": "view",
      "type": "function"
    },
    {
      "inputs": [
        {
          "internalType": "address",
          "name": "",
          "type": "address"
        }
      ],
      "name": "totalVotedBalances",
      "outputs": [
        {
          "internalType": "uint256",
          "name": "",
          "type": "uint256"
        }
      ],
      "stateMutability": "view",
      "type": "function"
    },
    {
      "inputs": [
        {
          "internalType": "address",
          "name": "newOwner",
          "type": "address"
        }
      ],
      "name": "transferOwnership",
      "outputs": [],
      "stateMutability": "nonpayable",
      "type": "function"
    },
    {
      "inputs": [],
      "name": "treasury",
      "outputs": [
        {
          "internalType": "contract ITreasury",
          "name": "",
          "type": "address"
        }
      ],
      "stateMutability": "view",
      "type": "function"
    },
    {
      "inputs": [],
      "name": "uink",
      "outputs": [
        {
          "internalType": "address",
          "name": "",
          "type": "address"
        }
      ],
      "stateMutability": "view",
      "type": "function"
    },
    {
      "inputs": [
        {
          "internalType": "address",
          "name": "",
          "type": "address"
        }
      ],
      "name": "unbondedBalances",
      "outputs": [
        {
          "internalType": "uint256",
          "name": "",
          "type": "uint256"
        }
      ],
      "stateMutability": "view",
      "type": "function"
    },
    {
      "inputs": [
        {
          "internalType": "address",
          "name": "",
          "type": "address"
        },
        {
          "internalType": "uint256",
          "name": "",
          "type": "uint256"
        }
      ],
      "name": "unbondingBalances",
      "outputs": [
        {
          "internalType": "uint256",
          "name": "value",
          "type": "uint256"
        },
        {
          "internalType": "uint256",
          "name": "unbondedAt",
          "type": "uint256"
        },
        {
          "internalType": "uint256",
          "name": "redeemed",
          "type": "uint256"
        }
      ],
      "stateMutability": "view",
      "type": "function"
    },
    {
      "inputs": [
        {
          "internalType": "address",
          "name": "",
          "type": "address"
        },
        {
          "internalType": "uint256",
          "name": "",
          "type": "uint256"
        },
        {
          "internalType": "uint256",
          "name": "",
          "type": "uint256"
        }
      ],
      "name": "userDailyVotes",
      "outputs": [
        {
          "internalType": "uint256",
          "name": "",
          "type": "uint256"
        }
      ],
      "stateMutability": "view",
      "type": "function"
    },
    {
      "inputs": [
        {
          "internalType": "address",
          "name": "",
          "type": "address"
        },
        {
          "internalType": "uint256",
          "name": "",
          "type": "uint256"
        }
      ],
      "name": "userNFTVotes",
      "outputs": [
        {
          "internalType": "uint256",
          "name": "",
          "type": "uint256"
        }
      ],
      "stateMutability": "view",
      "type": "function"
    },
    {
      "inputs": [
        {
          "internalType": "address",
          "name": "",
          "type": "address"
        },
        {
          "internalType": "address",
          "name": "",
          "type": "address"
        }
      ],
      "name": "userTokenBalances",
      "outputs": [
        {
          "internalType": "uint256",
          "name": "",
          "type": "uint256"
        }
      ],
      "stateMutability": "view",
      "type": "function"
    },
    {
      "inputs": [
        {
          "internalType": "address",
          "name": "",
          "type": "address"
        },
        {
          "internalType": "uint256",
          "name": "",
          "type": "uint256"
        },
        {
          "internalType": "uint256",
          "name": "",
          "type": "uint256"
        }
      ],
      "name": "userVotes",
      "outputs": [
        {
          "internalType": "uint256",
          "name": "",
          "type": "uint256"
        }
      ],
      "stateMutability": "view",
      "type": "function"
    },
    {
      "inputs": [
        {
          "internalType": "address",
          "name": "",
          "type": "address"
        }
      ],
      "name": "voteRatio",
      "outputs": [
        {
          "internalType": "uint256",
          "name": "",
          "type": "uint256"
        }
      ],
      "stateMutability": "view",
      "type": "function"
    },
    {
      "inputs": [],
      "name": "voteRatioMax",
      "outputs": [
        {
          "internalType": "uint256",
          "name": "",
          "type": "uint256"
        }
      ],
      "stateMutability": "view",
      "type": "function"
    },
    {
      "inputs": [
        {
          "internalType": "address",
          "name": "",
          "type": "address"
        },
        {
          "internalType": "uint256",
          "name": "",
          "type": "uint256"
        },
        {
          "internalType": "uint256",
          "name": "",
          "type": "uint256"
        }
      ],
      "name": "voteRewardsClaimed",
      "outputs": [
        {
          "internalType": "bool",
          "name": "",
          "type": "bool"
        }
      ],
      "stateMutability": "view",
      "type": "function"
    },
    {
      "inputs": [
        {
          "internalType": "uint256",
          "name": "",
          "type": "uint256"
        }
      ],
      "name": "voteTokens",
      "outputs": [
        {
          "internalType": "address",
          "name": "",
          "type": "address"
        }
      ],
      "stateMutability": "view",
      "type": "function"
    },
    {
      "inputs": [
        {
          "internalType": "address",
          "name": "",
          "type": "address"
        },
        {
          "internalType": "uint256",
          "name": "",
          "type": "uint256"
        }
      ],
      "name": "votedBalances",
      "outputs": [
        {
          "internalType": "uint256",
          "name": "available",
          "type": "uint256"
        },
        {
          "internalType": "uint256",
          "name": "freezed",
          "type": "uint256"
        },
        {
          "internalType": "uint256",
          "name": "votedAt",
          "type": "uint256"
        }
      ],
      "stateMutability": "view",
      "type": "function"
    },
    {
      "inputs": [],
      "name": "weeklyCap",
      "outputs": [
        {
          "internalType": "uint256",
          "name": "",
          "type": "uint256"
        }
      ],
      "stateMutability": "view",
      "type": "function"
    },
    {
      "inputs": [
        {
          "internalType": "address",
          "name": "_token",
          "type": "address"
        },
        {
          "internalType": "uint256",
          "name": "_ratio",
          "type": "uint256"
        }
      ],
      "name": "addVoteToken",
      "outputs": [],
      "stateMutability": "nonpayable",
      "type": "function"
    },
    {
      "inputs": [
        {
          "internalType": "address",
          "name": "_auction",
          "type": "address"
        }
      ],
      "name": "setAuctionAddress",
      "outputs": [],
      "stateMutability": "nonpayable",
      "type": "function"
    },
    {
      "inputs": [
        {
          "internalType": "address",
          "name": "_pin",
          "type": "address"
        }
      ],
      "name": "setPinAddress",
      "outputs": [],
      "stateMutability": "nonpayable",
      "type": "function"
    },
    {
      "inputs": [
        {
          "internalType": "uint256",
          "name": "lockId",
          "type": "uint256"
        }
      ],
      "name": "setTokenLockId",
      "outputs": [],
      "stateMutability": "nonpayable",
      "type": "function"
    },
    {
      "inputs": [
        {
          "internalType": "address",
          "name": "operator",
          "type": "address"
        },
        {
          "internalType": "bool",
          "name": "isOperator",
          "type": "bool"
        }
      ],
      "name": "setOperator",
      "outputs": [],
      "stateMutability": "nonpayable",
      "type": "function"
    },
    {
      "inputs": [
        {
          "internalType": "uint256",
          "name": "_days",
          "type": "uint256"
        }
      ],
      "name": "setVoteDays",
      "outputs": [],
      "stateMutability": "nonpayable",
      "type": "function"
    },
    {
      "inputs": [
        {
          "internalType": "uint256",
          "name": "stakingBase",
          "type": "uint256"
        },
        {
          "internalType": "uint256",
          "name": "startTime",
          "type": "uint256"
        },
        {
          "internalType": "string",
          "name": "matchId",
          "type": "string"
        }
      ],
      "name": "addGroup",
      "outputs": [],
      "stateMutability": "nonpayable",
      "type": "function"
    },
    {
      "inputs": [
        {
          "internalType": "uint256",
          "name": "groupId",
          "type": "uint256"
        },
        {
          "internalType": "address[]",
          "name": "nftAddrs",
          "type": "address[]"
        },
        {
          "internalType": "uint256[]",
          "name": "nftIds",
          "type": "uint256[]"
        }
      ],
      "name": "addNFT",
      "outputs": [],
      "stateMutability": "nonpayable",
      "type": "function"
    },
    {
      "inputs": [
        {
          "internalType": "uint256",
          "name": "groupId",
          "type": "uint256"
        }
      ],
      "name": "groupNFTsLength",
      "outputs": [
        {
          "internalType": "uint256",
          "name": "",
          "type": "uint256"
        }
      ],
      "stateMutability": "view",
      "type": "function"
    },
    {
      "inputs": [
        {
          "internalType": "uint256",
          "name": "groupId",
          "type": "uint256"
        }
      ],
      "name": "getAuctionPrices",
      "outputs": [
        {
          "internalType": "uint256[]",
          "name": "prices",
          "type": "uint256[]"
        },
        {
          "internalType": "uint256",
          "name": "totalAmount",
          "type": "uint256"
        }
      ],
      "stateMutability": "view",
      "type": "function"
    },
    {
      "inputs": [
        {
          "internalType": "uint256",
          "name": "ts",
          "type": "uint256"
        }
      ],
      "name": "getDate",
      "outputs": [
        {
          "internalType": "uint256",
          "name": "",
          "type": "uint256"
        }
      ],
      "stateMutability": "view",
      "type": "function"
    },
    {
      "inputs": [
        {
          "internalType": "uint256",
          "name": "groupId",
          "type": "uint256"
        }
      ],
      "name": "getVotableDates",
      "outputs": [
        {
          "internalType": "uint256[]",
          "name": "dates",
          "type": "uint256[]"
        }
      ],
      "stateMutability": "view",
      "type": "function"
    },
    {
      "inputs": [
        {
          "internalType": "address",
          "name": "user",
          "type": "address"
        },
        {
          "internalType": "address",
          "name": "nftAddr",
          "type": "address"
        },
        {
          "internalType": "uint256",
          "name": "nftId",
          "type": "uint256"
        }
      ],
      "name": "getUserNFTVotes",
      "outputs": [
        {
          "internalType": "uint256",
          "name": "",
          "type": "uint256"
        }
      ],
      "stateMutability": "view",
      "type": "function"
    },
    {
      "inputs": [
        {
          "internalType": "address",
          "name": "nftAddr",
          "type": "address"
        },
        {
          "internalType": "uint256",
          "name": "nftId",
          "type": "uint256"
        }
      ],
      "name": "getNFTVotes",
      "outputs": [
        {
          "internalType": "uint256",
          "name": "",
          "type": "uint256"
        }
      ],
      "stateMutability": "view",
      "type": "function"
    },
    {
      "inputs": [
        {
          "internalType": "address",
          "name": "user",
          "type": "address"
        },
        {
          "internalType": "address",
          "name": "token",
          "type": "address"
        },
        {
          "internalType": "address",
          "name": "nftAddr",
          "type": "address"
        },
        {
          "internalType": "uint256",
          "name": "nftId",
          "type": "uint256"
        }
      ],
      "name": "getAvailableBalance",
      "outputs": [
        {
          "internalType": "uint256",
          "name": "",
          "type": "uint256"
        }
      ],
      "stateMutability": "view",
      "type": "function"
    },
    {
      "inputs": [
        {
          "internalType": "address",
          "name": "nftAddr",
          "type": "address"
        },
        {
          "internalType": "uint256",
          "name": "nftId",
          "type": "uint256"
        },
        {
          "internalType": "address",
          "name": "token",
          "type": "address"
        },
        {
          "internalType": "uint256",
          "name": "amount",
          "type": "uint256"
        }
      ],
      "name": "stake",
      "outputs": [],
      "stateMutability": "nonpayable",
      "type": "function"
    },
    {
      "inputs": [
        {
          "internalType": "address",
          "name": "nftAddr",
          "type": "address"
        },
        {
          "internalType": "uint256",
          "name": "nftId",
          "type": "uint256"
        },
        {
          "internalType": "address",
          "name": "token",
          "type": "address"
        },
        {
          "internalType": "uint256",
          "name": "amount",
          "type": "uint256"
        }
      ],
      "name": "unstake",
      "outputs": [],
      "stateMutability": "nonpayable",
      "type": "function"
    },
    {
      "inputs": [
        {
          "internalType": "address",
          "name": "user",
          "type": "address"
        },
        {
          "internalType": "address",
          "name": "token",
          "type": "address"
        }
      ],
      "name": "getRedeemableBalance",
      "outputs": [
        {
          "internalType": "uint256",
          "name": "",
          "type": "uint256"
        }
      ],
      "stateMutability": "view",
      "type": "function"
    },
    {
      "inputs": [
        {
          "internalType": "address",
          "name": "token",
          "type": "address"
        }
      ],
      "name": "redeemToken",
      "outputs": [],
      "stateMutability": "nonpayable",
      "type": "function"
    },
    {
      "inputs": [
        {
          "internalType": "uint256",
          "name": "groupId",
          "type": "uint256"
        },
        {
          "internalType": "address",
          "name": "token",
          "type": "address"
        }
      ],
      "name": "redeemToken",
      "outputs": [],
      "stateMutability": "nonpayable",
      "type": "function"
    },
    {
      "inputs": [
        {
          "internalType": "address",
          "name": "token",
          "type": "address"
        },
        {
          "internalType": "uint256",
          "name": "amount",
          "type": "uint256"
        }
      ],
      "name": "rescueToken",
      "outputs": [],
      "stateMutability": "nonpayable",
      "type": "function"
    },
    {
      "inputs": [
        {
          "internalType": "address",
          "name": "user",
          "type": "address"
        }
      ],
      "name": "getTotalRewards",
      "outputs": [
        {
          "internalType": "uint256",
          "name": "",
          "type": "uint256"
        }
      ],
      "stateMutability": "view",
      "type": "function"
    },
    {
      "inputs": [
        {
          "internalType": "address",
          "name": "user",
          "type": "address"
        },
        {
          "internalType": "uint256",
          "name": "groupId",
          "type": "uint256"
        }
      ],
      "name": "getBaseRewards",
      "outputs": [
        {
          "internalType": "uint256",
          "name": "",
          "type": "uint256"
        }
      ],
      "stateMutability": "view",
      "type": "function"
    },
    {
      "inputs": [
        {
          "internalType": "address",
          "name": "user",
          "type": "address"
        },
        {
          "internalType": "uint256",
          "name": "groupId",
          "type": "uint256"
        }
      ],
      "name": "getAuctionRewards",
      "outputs": [
        {
          "internalType": "uint256",
          "name": "",
          "type": "uint256"
        }
      ],
      "stateMutability": "view",
      "type": "function"
    },
    {
      "inputs": [
        {
          "internalType": "address",
          "name": "user",
          "type": "address"
        }
      ],
      "name": "getBondedBalance",
      "outputs": [
        {
          "internalType": "uint256",
          "name": "",
          "type": "uint256"
        }
      ],
      "stateMutability": "view",
      "type": "function"
    },
    {
      "inputs": [
        {
          "internalType": "address",
          "name": "user",
          "type": "address"
        },
        {
          "internalType": "address",
          "name": "nftAddr",
          "type": "address"
        },
        {
          "internalType": "uint256",
          "name": "nftId",
          "type": "uint256"
        }
      ],
      "name": "getUnvotableBalance",
      "outputs": [
        {
          "internalType": "uint256",
          "name": "",
          "type": "uint256"
        }
      ],
      "stateMutability": "view",
      "type": "function"
    },
    {
      "inputs": [
        {
          "internalType": "address",
          "name": "nftAddr",
          "type": "address"
        },
        {
          "internalType": "uint256",
          "name": "nftId",
          "type": "uint256"
        }
      ],
      "name": "voteFromLock",
      "outputs": [],
      "stateMutability": "nonpayable",
      "type": "function"
    },
    {
      "inputs": [
        {
          "internalType": "address",
          "name": "nftAddr",
          "type": "address"
        },
        {
          "internalType": "uint256",
          "name": "nftId",
          "type": "uint256"
        },
        {
          "internalType": "uint256",
          "name": "amount",
          "type": "uint256"
        }
      ],
      "name": "voteBonded",
      "outputs": [],
      "stateMutability": "nonpayable",
      "type": "function"
    },
    {
      "inputs": [
        {
          "internalType": "address",
          "name": "nftAddr",
          "type": "address"
        },
        {
          "internalType": "uint256",
          "name": "nftId",
          "type": "uint256"
        },
        {
          "internalType": "uint256",
          "name": "amount",
          "type": "uint256"
        }
      ],
      "name": "unvoteBonded",
      "outputs": [],
      "stateMutability": "nonpayable",
      "type": "function"
    },
    {
      "inputs": [
        {
          "internalType": "address",
          "name": "user",
          "type": "address"
        }
      ],
      "name": "getUnbondingBalancesLength",
      "outputs": [
        {
          "internalType": "uint256",
          "name": "",
          "type": "uint256"
        }
      ],
      "stateMutability": "view",
      "type": "function"
    },
    {
      "inputs": [
        {
          "internalType": "uint256",
          "name": "amount",
          "type": "uint256"
        }
      ],
      "name": "unbond",
      "outputs": [],
      "stateMutability": "nonpayable",
      "type": "function"
    },
    {
      "inputs": [
        {
          "internalType": "uint256",
          "name": "index",
          "type": "uint256"
        }
      ],
      "name": "redeemUnbonding",
      "outputs": [],
      "stateMutability": "nonpayable",
      "type": "function"
    },
    {
      "inputs": [
        {
          "internalType": "address",
          "name": "nftAddr",
          "type": "address"
        },
        {
          "internalType": "uint256",
          "name": "nftId",
          "type": "uint256"
        },
        {
          "internalType": "address",
          "name": "to",
          "type": "address"
        }
      ],
      "name": "claimMintRewards",
      "outputs": [],
      "stateMutability": "nonpayable",
      "type": "function"
    },
    {
      "inputs": [
        {
          "internalType": "uint256",
          "name": "groupId",
          "type": "uint256"
        }
      ],
      "name": "getTradeWeights",
      "outputs": [
        {
          "internalType": "uint256[]",
          "name": "weights",
          "type": "uint256[]"
        }
      ],
      "stateMutability": "view",
      "type": "function"
    },
    {
      "inputs": [
        {
          "internalType": "uint256",
          "name": "groupId",
          "type": "uint256"
        }
      ],
      "name": "setAuctionFinish",
      "outputs": [],
      "stateMutability": "nonpayable",
      "type": "function"
    },
    {
      "inputs": [
        {
          "internalType": "uint256",
          "name": "groupId",
          "type": "uint256"
        }
      ],
      "name": "getAuctionRewardRates",
      "outputs": [
        {
          "internalType": "uint256[]",
          "name": "auctionRewardRates",
          "type": "uint256[]"
        }
      ],
      "stateMutability": "view",
      "type": "function"
    },
    {
      "inputs": [
        {
          "internalType": "uint256",
          "name": "groupId",
          "type": "uint256"
        },
        {
          "internalType": "uint256",
          "name": "date",
          "type": "uint256"
        }
      ],
      "name": "getDailyVotes",
      "outputs": [
        {
          "internalType": "uint256",
          "name": "",
          "type": "uint256"
        }
      ],
      "stateMutability": "view",
      "type": "function"
    },
    {
      "inputs": [
        {
          "internalType": "uint256",
          "name": "groupId",
          "type": "uint256"
        }
      ],
      "name": "getWeightsAndInflations",
      "outputs": [
        {
          "internalType": "uint256[]",
          "name": "weights",
          "type": "uint256[]"
        },
        {
          "internalType": "uint256[]",
          "name": "inflations",
          "type": "uint256[]"
        }
      ],
      "stateMutability": "view",
      "type": "function"
    },
    {
      "inputs": [
        {
          "internalType": "uint256",
          "name": "groupId",
          "type": "uint256"
        }
      ],
      "name": "getBaseRewardRates",
      "outputs": [
        {
          "internalType": "uint256[]",
          "name": "rewardRates",
          "type": "uint256[]"
        }
      ],
      "stateMutability": "view",
      "type": "function"
    },
    {
      "inputs": [
        {
          "internalType": "uint256",
          "name": "groupId",
          "type": "uint256"
        }
      ],
      "name": "getMintRewardsPerNFT",
      "outputs": [
        {
          "internalType": "uint256[]",
          "name": "mintRewards",
          "type": "uint256[]"
        }
      ],
      "stateMutability": "view",
      "type": "function"
    },
    {
      "inputs": [
        {
          "internalType": "address",
          "name": "nftAddr",
          "type": "address"
        },
        {
          "internalType": "uint256",
          "name": "nftId",
          "type": "uint256"
        }
      ],
      "name": "getMintRewards",
      "outputs": [
        {
          "internalType": "uint256",
          "name": "",
          "type": "uint256"
        }
      ],
      "stateMutability": "view",
      "type": "function"
    }
  ],
  "bytecode": "0x6080604052610e10600155600e60025560015460025462000021919062000318565b60035567058d15e1762800006004556004600254600454620000449190620002de565b620000509190620002de565b60055560048054620000639190620002de565b6006556002600454620000779190620002de565b6007556000600d556000601655612710601c556000602a553480156200009c57600080fd5b506040516200581738038062005817833981016040819052620000bf91620002a7565b620000e5620000d664010000000062000212810204565b64010000000062000216810204565b600a8054600160a060020a031916600160a060020a038416908117909155604080517fa88d8fea000000000000000000000000000000000000000000000000000000008152905163a88d8fea91600480820192602092909190829003018186803b1580156200015357600080fd5b505afa15801562000168573d6000803e3d6000fd5b505050506040513d601f19601f820116820180604052508101906200018e919062000283565b60098054600160a060020a03928316600160a060020a031991821681178355602b805495851695831695909517909455601a8054600181019091557f057c384a7d1c54f3a1b2e5e67b2617b8224fdfd1ea7234eea573a6ff665ff63e018054909116909317909255601c549154166000908152601b6020526040902055506200035d565b3390565b60008054600160a060020a03838116600160a060020a0319831681178455604051919092169283917f8be0079c531659141344cd1fd0a4f28419497f9722a3daafe3b4186f6b6457e09190a35050565b8051600160a060020a03811681146200027e57600080fd5b919050565b60006020828403121562000295578081fd5b620002a08262000266565b9392505050565b60008060408385031215620002ba578081fd5b620002c58362000266565b9150620002d56020840162000266565b90509250929050565b60008262000313577f4e487b710000000000000000000000000000000000000000000000000000000081526012600452602481fd5b500490565b600081600019048311821515161562000358577f4e487b710000000000000000000000000000000000000000000000000000000081526011600452602481fd5b500290565b6154aa806200036d6000396000f3fe608060405234801561001057600080fd5b50600436106104d15760003560e060020a900480636f700e2511610287578063ad3bac1a11610160578063d0b5efa9116100d2578063f298e49311610096578063f298e49314610d0a578063f2fde38b14610d1d578063f44e3ce114610d30578063f7a64da314610d43578063f8df0cd314610d74578063fa119fee14610d8757600080fd5b8063d0b5efa914610cbf578063d0f86b2614610cd2578063da043af314610ce5578063e325fb4b14610cf8578063eb7a700d14610d0157600080fd5b8063c108a85d11610124578063c108a85d14610c47578063c3501ff614610c50578063c4f6da1214610c63578063c7780c7314610c83578063c7c8895614610c96578063c909adc014610cb657600080fd5b8063ad3bac1a14610bc4578063b0aad77714610bd7578063b5345afa14610be0578063bae5435314610c14578063bba1189a14610c3457600080fd5b80638503d2cd116101f957806396324bd4116101bd57806396324bd414610b275780639d9d9a1014610b47578063a80bf3e614610b5a578063a88d8fea14610b6d578063ac80b61214610b80578063acceea7514610bb157600080fd5b80638503d2cd14610a955780638da5cb5b14610aa85780638f4d41e814610ab9578063938f173714610ada57806393ac363814610b1457600080fd5b8063776498d41161024b578063776498d4146109ff5780637d9f6db514610a085780638049e17b14610a1b578063814e7c0f14610a4c57806383fd1a5414610a6f578063842fc1a314610a8257600080fd5b80636f700e251461099c578063715018a6146109bb5780637523d4bd146109c357806376821827146109e357806376ec17b7146109ec57600080fd5b80633dbc65c7116103b957806352a437fe1161032b57806363c0ea10116102ef57806363c0ea10146108ba5780636482ff98146108da57806364ebaaeb146108ed578063660dbeb81461091b57806366edd87b1461092e5780636b942b861461094157600080fd5b806352a437fe1461081d578063558a729714610848578063563c5e301461085b5780635a8542be1461088657806361d027b3146108a757600080fd5b80634768d4ef1161037d5780634768d4ef146107765780634dc1a3e0146107965780634e4b61c3146107c15780634f8d32be146107e1578063502a1d3f146107ea578063515cc5321461080a57600080fd5b80633dbc65c7146106c657806343af356b146106d957806345f2d105146107045780634654ff051461072f57806346aa25a21461073857600080fd5b8063171b612c1161045257806327de9e321161041657806327de9e321461065e5780632b57298b146106715780632bcf161c1461068457806333f3d6281461069757806334e7a1a8146106aa57806337867c94146106bd57600080fd5b8063171b612c146105fc57806317a9c7bd146106055780631d1a7fe8146106255780632281dfa414610638578063259239a11461064b57600080fd5b80630d265df9116104995780630d265df91461054a5780631152df0f1461056a57806311ef14dd14610593578063126f648c146105a657806313e7c9d8146105d957600080fd5b8063040308e4146104d65780630713ee7e146104fc578063079dc7f414610511578063083559d3146105245780630971823f14610537575b600080fd5b6104e96104e4366004614b81565b610d9a565b6040519081526020015b60405180910390f35b61050f61050a366004614d0e565b610e42565b005b6104e961051f366004614e5f565b61107b565b6104e9610532366004614bd1565b61111d565b6104e9610545366004614c3e565b611235565b61055d610558366004614d5e565b611390565b6040516104f39190614f56565b6104e9610578366004614b11565b600160a060020a031660009081526021602052604090205490565b61050f6105a1366004614d5e565b611532565b6105c96105b4366004614d5e565b600f6020526000908152604090205460ff1681565b60405190151581526020016104f3565b6105c96105e7366004614b11565b60286020526000908152604090205460ff1681565b6104e960055481565b6104e9610613366004614d5e565b60186020526000908152604090205481565b6104e9610633366004614c3e565b611564565b61050f610646366004614c3e565b6115fe565b61050f610659366004614cd7565b611871565b61050f61066c366004614d5e565b611c22565b6104e961067f366004614d5e565b611d47565b6104e9610692366004614b11565b611d68565b61050f6106a5366004614c3e565b611db9565b61050f6106b8366004614d5e565b611e6e565b6104e9600d5481565b6104e96106d4366004614b49565b611fbf565b6104e96106e7366004614c3e565b601560209081526000928352604080842090915290825290205481565b6104e9610712366004614b49565b601e60209081526000928352604080842090915290825290205481565b6104e960035481565b61074b610746366004614e5f565b612040565b60408051948552600160a060020a0393841660208601528401919091521660608201526080016104f3565b610789610784366004614d5e565b612092565b6040516104f39190614fb9565b6029546107a990600160a060020a031681565b604051600160a060020a0390911681526020016104f3565b6104e96107cf366004614d5e565b60236020526000908152604090205481565b6104e960045481565b6104e96107f8366004614b11565b601b6020526000908152604090205481565b61055d610818366004614d5e565b61212c565b6104e961082b366004614e5f565b601160209081526000928352604080842090915290825290205481565b61050f610856366004614c11565b612299565b6104e9610869366004614c3e565b601460209081526000928352604080842090915290825290205481565b610899610894366004614d5e565b6122f1565b6040516104f3929190614f97565b600a546107a990600160a060020a031681565b6104e96108c8366004614d5e565b60176020526000908152604090205481565b6107a96108e8366004614d5e565b61248a565b6105c96108fb366004614c3e565b602560209081526000928352604080842090915290825290205460ff1681565b6104e9610929366004614bd1565b6124b4565b6104e961093c366004614c3e565b612550565b61098161094f366004614bd1565b601d60209081526000938452604080852082529284528284209052825290208054600182015460029092015490919083565b604080519384526020840192909252908201526060016104f3565b6104e96109aa366004614b11565b602080526000908152604090205481565b61050f612618565b6104e96109d1366004614b11565b60226020526000908152604090205481565b6104e9602a5481565b61050f6109fa366004614cd7565b612651565b6104e9601c5481565b600b546107a990600160a060020a031681565b6104e9610a29366004614d0e565b601260209081526000938452604080852082529284528284209052825290205481565b6105c9610a5a366004614d5e565b60266020526000908152604090205460ff1681565b61050f610a7d366004614d0e565b6129c8565b61050f610a90366004614b11565b612bbe565b61050f610aa3366004614de8565b612ce4565b600054600160a060020a03166107a9565b610acc610ac7366004614d5e565b613140565b6040516104f3929190614f69565b610981610ae8366004614c3e565b601f60209081526000928352604080842090915290825290208054600182015460029092015490919083565b61050f610b22366004614b11565b61341a565b6104e9610b35366004614d5e565b600c6020526000908152604090205481565b61055d610b55366004614d5e565b613476565b602b546107a990600160a060020a031681565b6009546107a990600160a060020a031681565b6104e9610b8e366004614db2565b602760209081526000938452604080852082529284528284209052825290205481565b6104e9610bbf366004614b11565b6135d0565b61050f610bd2366004614b11565b61362e565b6104e960025481565b6105c9610bee366004614d0e565b602460209081526000938452604080852082529284528284209052825290205460ff1681565b6104e9610c22366004614d5e565b60009081526010602052604090205490565b61050f610c42366004614e80565b61368a565b6104e960065481565b61050f610c5e366004614d8e565b6137ff565b6104e9610c71366004614d5e565b60086020526000908152604090205481565b61055d610c91366004614d5e565b613984565b6104e9610ca4366004614d5e565b60196020526000908152604090205481565b6104e960165481565b61050f610ccd366004614d5e565b613c4d565b6104e9610ce0366004614c3e565b613caf565b61050f610cf3366004614c3e565b613dcf565b6104e960075481565b6104e960015481565b61050f610d18366004614d5e565b613efb565b61050f610d2b366004614b11565b613f2d565b61050f610d3e366004614c96565b613fe5565b6104e9610d51366004614d0e565b601360209081526000938452604080852082529284528284209052825290205481565b610981610d82366004614c3e565b614246565b61055d610d95366004614d5e565b614288565b600160a060020a0380831660009081526015602090815260408083208584528252808320548885168452601d835281842094881684529382528083208484528252808320815160608101835281548082526001830154948201949094526002909101549181019190915291929190610e1142611d47565b610e1e8360400151611d47565b1015610e37576020820151610e34908290614365565b90505b979650505050505050565b600d546000908152600c6020526040902054421015610e7f5760405160e560020a62461bcd028152600401610e76906150be565b60405180910390fd5b600354600d546000908152600c60205260409020544291610ea09190614365565b1015610ec15760405160e560020a62461bcd028152600401610e76906150f5565b600160a060020a038316600090815260156020908152604080832085845290915290205483908390610f085760405160e560020a62461bcd028152600401610e769061512c565b6000610f13336135d0565b905083811015610f685760405160e560020a62461bcd02815260206004820152601b60248201527f496e73756666696369656e7420626f6e6465642062616c616e636500000000006044820152606401610e76565b610f7433878787614378565b600160a060020a0386166000908152601560209081526040808320888452825280832054338452601f8352818420818552909252909120610fb442611d47565b610fc18260020154611d47565b1015610fe15760018101548154610fd791614365565b8155600060018201555b6001810154610ff09087614365565b60018201554260028201553360009081526020805260409020546110149087614365565b3360009081526020808052604080832093909355601e8152828220600954600160a060020a031683529052205461104b9087614365565b336000908152601e60209081526040808320600954600160a060020a031684529091529020555050505050505050565b600080805b6000858152601060205260409020548110156111135760008581526010602052604081208054839081106110c75760e060020a634e487b7102600052603260045260246000fd5b600091825260208083206004909202909101548783526011825260408084208285529092529120549091506110fd908490614365565b925050808061110b906153d2565b915050611080565b5090505b92915050565b60008061112942611d47565b90506000611138600d54614288565b600160a060020a0386166000908152601560209081526040808320888452909152812054919250805b8351811015611229578484828151811061118e5760e060020a634e487b7102600052603260045260246000fd5b60200260200101511161121757600160a060020a0389166000908152601260205260408120855161121492908790859081106111dd5760e060020a634e487b7102600052603260045260246000fd5b602002602001015181526020019081526020016000206000858152602001908152602001600020548361436590919063ffffffff16565b91505b80611221816153d2565b915050611161565b50979650505050505050565b60008061124183614288565b9050600061124e8461212c565b905060008061125c42611d47565b905060005b8451811015611384578185828151811061128e5760e060020a634e487b7102600052603260045260246000fd5b6020026020010151106112a057611384565b6000611362670de0b6b3a764000061135c8785815181106112d45760e060020a634e487b7102600052603260045260246000fd5b6020026020010151601360008e600160a060020a0316600160a060020a0316815260200190815260200160002060008d815260200190815260200160002060008b88815181106113375760e060020a634e487b7102600052603260045260246000fd5b60200260200101518152602001908152602001600020546145c790919063ffffffff16565b906145d3565b905061136e8482614365565b935050808061137c906153d2565b915050611261565b50909695505050505050565b6000818152601060209081526040808320805482518185028101850190935280835260609493849084015b8282101561141f576000848152602090819020604080516080810182526004860290920180548352600180820154600160a060020a0390811685870152600283015493850193909352600390910154909116606083015290835290920191016113bb565b505050509050805167ffffffffffffffff8111156114505760e060020a634e487b7102600052604160045260246000fd5b604051908082528060200260200182016040528015611479578160200160208202803683370190505b509150600080611488856122f1565b9092509050801561152a5760005b8351811015611528576114e88261135c670de0b6b3a76400008685815181106114d25760e060020a634e487b7102600052603260045260246000fd5b60200260200101516145c790919063ffffffff16565b85828151811061150b5760e060020a634e487b7102600052603260045260246000fd5b602090810291909101015280611520816153d2565b915050611496565b505b505050919050565b600054600160a060020a0316331461155f5760405160e560020a62461bcd028152600401610e769061519a565b600255565b600160a060020a0382166000908152601560209081526040808320848452825280832054835260198252808320548084526017909252822054156115f457600081815260176020908152604080832054600654600160a060020a038916855260158452828520888652845282852054855260189093529220546115ec929161135c91906145c7565b915050611117565b6000915050611117565b600d546000908152600c60205260409020544210156116325760405160e560020a62461bcd028152600401610e76906150be565b600354600d546000908152600c602052604090205442916116539190614365565b10156116745760405160e560020a62461bcd028152600401610e76906150f5565b600160a060020a0382166000908152601560209081526040808320848452909152902054829082906116bb5760405160e560020a62461bcd028152600401610e769061512c565b602b54602a546040517fc7b1e3f20000000000000000000000000000000000000000000000000000000081526004810191909152336024820152600091600160a060020a03169063c7b1e3f290604401602060405180830381600087803b15801561172557600080fd5b505af1158015611739573d6000803e3d6000fd5b505050506040513d601f19601f8201168201806040525081019061175d9190614d76565b905061176b33868684614378565b600160a060020a0385166000908152601560209081526040808320878452825280832054338452601f83528184208185529092529091206117ab42611d47565b6117b88260020154611d47565b10156117d857600181015481546117ce91614365565b8155600060018201555b60018101546117e79084614365565b600182015542600282015533600090815260208052604090205461180b9084614365565b3360009081526020808052604080832093909355601e8152828220600954600160a060020a03168352905220546118429084614365565b336000908152601e60209081526040808320600954600160a060020a0316845290915290205550505050505050565b816000805b601a548110156118e45782600160a060020a0316601a82815481106118ae5760e060020a634e487b7102600052603260045260246000fd5b600091825260209091200154600160a060020a031614156118d257600191506118e4565b806118dc816153d2565b915050611876565b50806119355760405160e560020a62461bcd02815260206004820152601260248201527f496e76616c696420566f746520546f6b656e00000000000000000000000000006044820152606401610e76565b600d546000908152600c60205260409020544210156119695760405160e560020a62461bcd028152600401610e76906150be565b600354600d546000908152600c6020526040902054429161198a9190614365565b10156119ab5760405160e560020a62461bcd028152600401610e76906150f5565b600160a060020a0386166000908152601560209081526040808320888452909152902054869086906119f25760405160e560020a62461bcd028152600401610e769061512c565b60008511611a155760405160e560020a62461bcd028152600401610e7690615163565b6000611a2187876145df565b9050611a2f338a8a84614378565b6040517f23b872dd00000000000000000000000000000000000000000000000000000000815233600482015230602482015260448101879052600160a060020a038816906323b872dd90606401602060405180830381600087803b158015611a9657600080fd5b505af1158015611aaa573d6000803e3d6000fd5b505050506040513d601f19601f82011682018060405250810190611ace9190614d42565b50600d5460009081526027602090815260408083203384528252808320600160a060020a038b168452909152902054611b079087614365565b600d54600090815260276020908152604080832033808552908352818420600160a060020a038d811680875291855283862096909655948e168452601583528184208d8552835281842054908452601d83528184209484529382528083208484529091529020611b7642611d47565b611b838260020154611d47565b1015611ba35760018101548154611b9991614365565b8155600060018201555b6001810154611bb29089614365565b6001820155426002820155336000908152601e60209081526040808320600160a060020a038d168452909152902054611beb9089614365565b336000908152601e60209081526040808320600160a060020a039d909d1683529b9052999099209890985550505050505050505050565b6000611c2d336135d0565b905081811015611c825760405160e560020a62461bcd02815260206004820152601b60248201527f496e73756666696369656e7420626f6e6465642062616c616e636500000000006044820152606401610e76565b336000818152602160209081526040808320815160608101835287815242818501908152818401868152835460018181018655948852868820935160039091029093019283559051928201929092559051600290910155928252602290522054611cec9083614365565b33600081815260226020526040908190209290925590517f7659747cd8571f1071eea946fdc648adcf181cad916f32a05f82c3a52597604890611d3b9085904290918252602082015260400190565b60405180910390a25050565b6000611117611d616001548461477590919063ffffffff16565b8390614781565b60008060015b600d548111611db257611d9e611d848583613caf565b611d98611d918785611235565b8590614365565b90614365565b915080611daa816153d2565b915050611d6e565b5092915050565b600054600160a060020a03163314611de65760405160e560020a62461bcd028152600401610e769061519a565b60405160e060020a63a9059cbb02815233600482015260248101829052600160a060020a0383169063a9059cbb90604401602060405180830381600087803b158015611e3157600080fd5b505af1158015611e45573d6000803e3d6000fd5b505050506040513d601f19601f82011682018060405250810190611e699190614d42565b505050565b336000908152602160205260408120805483908110611ea05760e060020a634e487b7102600052603260045260246000fd5b906000526020600020906003020190506000611ed760015461135c611ec88560010154611d47565b611ed142611d47565b90614781565b90506000611ef7603c61135c8560000154856145c790919063ffffffff16565b90506000611f1284600201548361478190919063ffffffff16565b60028501839055600a546040517fc8773af200000000000000000000000000000000000000000000000000000000815233600482015260248101839052919250600160a060020a03169063c8773af290604401602060405180830381600087803b158015611f7f57600080fd5b505af1158015611f93573d6000803e3d6000fd5b505050506040513d601f19601f82011682018060405250810190611fb79190614d76565b505050505050565b60008060015b600d548111611113576003546000828152600c60205260409020544291611feb91615206565b101561202e576000818152602760209081526040808320600160a060020a03808a168552908352818420908816845290915290205461202b908390614365565b91505b80612038816153d2565b915050611fc5565b6010602052816000526040600020818154811061205c57600080fd5b60009182526020909120600490910201805460018201546002830154600390930154919450600160a060020a0390811693501684565b600e60205260009081526040902080546120ab9061539a565b80601f01602080910402602001604051908101604052809291908181526020018280546120d79061539a565b80156121245780601f106120f957610100808354040283529160200191612124565b820191906000526020600020905b81548152906001019060200180831161210757829003601f168201915b505050505081565b6060600061213983614288565b9050600061214684613140565b915050815167ffffffffffffffff8111156121745760e060020a634e487b7102600052604160045260246000fd5b60405190808252806020026020018201604052801561219d578160200160208202803683370190505b50925060005b825181101561152a576121b542611d47565b8382815181106121d85760e060020a634e487b7102600052603260045260246000fd5b602002602001015111156121eb5761152a565b6000612221868584815181106122145760e060020a634e487b7102600052603260045260246000fd5b602002602001015161107b565b90508015612286576122568161135c6005548686815181106114d25760e060020a634e487b7102600052603260045260246000fd5b8583815181106122795760e060020a634e487b7102600052603260045260246000fd5b6020026020010181815250505b5080612291816153d2565b9150506121a3565b600054600160a060020a031633146122c65760405160e560020a62461bcd028152600401610e769061519a565b600160a060020a03919091166000908152602860205260409020805460ff1916911515919091179055565b6000818152601060205260408120546060919067ffffffffffffffff81111561232d5760e060020a634e487b7102600052604160045260246000fd5b604051908082528060200260200182016040528015612356578160200160208202803683370190505b50915060005b60008481526010602052604090205481101561248457600b546000858152600e602052604080822090517fe3c6623d00000000000000000000000000000000000000000000000000000000815291928392600160a060020a039091169163e3c6623d916123ce9190879060040161500c565b604080518083038186803b1580156123e557600080fd5b505afa1580156123f9573d6000803e3d6000fd5b505050506040513d601f19601f8201168201806040525081019061241d9190614c69565b9092509050600160a060020a038216612434575060005b808584815181106124585760e060020a634e487b7102600052603260045260246000fd5b602090810291909101015261246d8482614365565b93505050808061247c906153d2565b91505061235c565b50915091565b601a818154811061249a57600080fd5b600091825260209091200154600160a060020a0316905081565b600160a060020a0380831660009081526015602090815260408083208584528252808320549387168352601f8252808320848452825280832081516060810183528154808252600183015494820194909452600290910154918101919091529192919061252042611d47565b61252d8360400151611d47565b1015612546576020820151612543908290614365565b90505b9695505050505050565b60008061255c42611d47565b9050600061256b600d54614288565b600160a060020a0386166000908152601560209081526040808320888452909152812054919250805b835181101561260d57848482815181106125c15760e060020a634e487b7102600052603260045260246000fd5b6020026020010151116125fb576125f8601160008684815181106111dd5760e060020a634e487b7102600052603260045260246000fd5b91505b80612605816153d2565b915050612594565b509695505050505050565b600054600160a060020a031633146126455760405160e560020a62461bcd028152600401610e769061519a565b61264f600061478d565b565b816000805b601a548110156126c45782600160a060020a0316601a828154811061268e5760e060020a634e487b7102600052603260045260246000fd5b600091825260209091200154600160a060020a031614156126b257600191506126c4565b806126bc816153d2565b915050612656565b50806127155760405160e560020a62461bcd02815260206004820152601260248201527f496e76616c696420566f746520546f6b656e00000000000000000000000000006044820152606401610e76565b600160a060020a03861660009081526015602090815260408083208884529091529020548690869061275c5760405160e560020a62461bcd028152600401610e769061512c565b6000851161277f5760405160e560020a62461bcd028152600401610e7690615163565b600061278d33888b8b610d9a565b9050858110156127e25760405160e560020a62461bcd02815260206004820152601460248201527f496e73756666696369656e742062616c616e63650000000000000000000000006044820152606401610e76565b60006127ee88886145df565b90506127fc338b8b846147ea565b60405160e060020a63a9059cbb02815233600482015260248101889052600160a060020a0389169063a9059cbb90604401602060405180830381600087803b15801561284757600080fd5b505af115801561285b573d6000803e3d6000fd5b505050506040513d601f19601f8201168201806040525081019061287f9190614d42565b50600d5460009081526027602090815260408083203384528252808320600160a060020a038c1684529091529020546128b89088614781565b600d54600090815260276020908152604080832033808552908352818420600160a060020a038e811680875291855283862096909655948f168452601583528184208e8552835281842054908452601d8352818420948452938252808320848452909152902061292742611d47565b6129348260020154611d47565b1015612954576001810154815461294a91614365565b8155600060018201555b8054612960908a614781565b8155336000908152601e60209081526040808320600160a060020a038e168452909152902054612990908a614781565b336000908152601e60209081526040808320600160a060020a039e909e1683529c90529a909a20999099555050505050505050505050565b600d546000908152600c60205260409020544210156129fc5760405160e560020a62461bcd028152600401610e76906150be565b600354600d546000908152600c60205260409020544291612a1d9190614365565b1015612a3e5760405160e560020a62461bcd028152600401610e76906150f5565b600160a060020a038316600090815260156020908152604080832085845290915290205483908390612a855760405160e560020a62461bcd028152600401610e769061512c565b6000612a923387876124b4565b905083811015612ae75760405160e560020a62461bcd02815260206004820152601e60248201527f496e73756666696369656e7420756e766f7461626c652062616c616e636500006044820152606401610e76565b612af3338787876147ea565b600160a060020a0386166000908152601560209081526040808320888452825280832054338452601f8352818420818552909252909120612b3342611d47565b612b408260020154611d47565b1015612b605760018101548154612b5691614365565b8155600060018201555b8054612b6c9087614781565b8155336000908152602080526040902054612b879087614781565b3360009081526020808052604080832093909355601e8152828220600954600160a060020a031683529052205461104b9087614781565b6000612bca3383611fbf565b905060008111612c1f5760405160e560020a62461bcd02815260206004820152601460248201527f576974686472617761626c65206973207a65726f0000000000000000000000006044820152606401610e76565b60405160e060020a63a9059cbb02815233600482015260248101829052600160a060020a0383169063a9059cbb90604401602060405180830381600087803b158015612c6a57600080fd5b505af1158015612c7e573d6000803e3d6000fd5b505050506040513d601f19601f82011682018060405250810190612ca29190614d42565b5060408051600160a060020a03841681526020810183905233917fd12200efa34901b99367694174c3b0d32c99585fdf37c7c26892136ddd0836d99101611d3b565b3360009081526028602052604090205460ff1680612d0c5750600054600160a060020a031633145b612d2b5760405160e560020a62461bcd028152600401610e76906151cf565b828114612d7d5760405160e560020a62461bcd02815260206004820152600e60248201527f496e76616c696420706172616d730000000000000000000000000000000000006044820152606401610e76565b6000858152601060205260408120905b848110156131375760156000878784818110612dbc5760e060020a634e487b7102600052603260045260246000fd5b9050602002016020810190612dd19190614b11565b600160a060020a0316600160a060020a031681526020019081526020016000206000858584818110612e165760e060020a634e487b7102600052603260045260246000fd5b90506020020135815260200190815260200160002054600014612e7e5760405160e560020a62461bcd02815260206004820152601260248201527f4e465420686173206265656e20616464656400000000000000000000000000006044820152606401610e76565b60168054906000612e8e836153d2565b919050555060165460156000888885818110612ebd5760e060020a634e487b7102600052603260045260246000fd5b9050602002016020810190612ed29190614b11565b600160a060020a0316600160a060020a031681526020019081526020016000206000868685818110612f175760e060020a634e487b7102600052603260045260246000fd5b905060200201358152602001908152602001600020819055506000868683818110612f555760e060020a634e487b7102600052603260045260246000fd5b9050602002016020810190612f6a9190614b11565b600160a060020a0316636352211e868685818110612f9b5760e060020a634e487b7102600052603260045260246000fd5b905060200201356040518263ffffffff1660e060020a028152600401612fc391815260200190565b60206040518083038186803b158015612fdb57600080fd5b505afa158015612fef573d6000803e3d6000fd5b505050506040513d601f19601f820116820180604052508101906130139190614b2d565b9050826040518060800160405280601654815260200189898681811061304c5760e060020a634e487b7102600052603260045260246000fd5b90506020020160208101906130619190614b11565b600160a060020a031681526020018787868181106130925760e060020a634e487b7102600052603260045260246000fd5b60209081029290920135835250600160a060020a03948516918101919091528254600181810185556000948552828520845160049093020191825583830151908201805491871673ffffffffffffffffffffffffffffffffffffffff199283161790556040808501516002840155606090940151600390920180549290961691161790935560165482526019909252208790558061312f816153d2565b915050612d8d565b50505050505050565b606080600061314e84614288565b9050805167ffffffffffffffff81111561317b5760e060020a634e487b7102600052604160045260246000fd5b6040519080825280602002602001820160405280156131a4578160200160208202803683370190505b509250805167ffffffffffffffff8111156131d25760e060020a634e487b7102600052604160045260246000fd5b6040519080825280602002602001820160405280156131fb578160200160208202803683370190505b50915060005b8151811015613413576000613233868484815181106122145760e060020a634e487b7102600052603260045260246000fd5b60008781526008602052604090205490915061325b9061135c83670de0b6b3a76400006145c7565b85838151811061327e5760e060020a634e487b7102600052603260045260246000fd5b602002602001018181525050670429d069189e00008583815181106132b65760e060020a634e487b7102600052603260045260246000fd5b60200260200101511015613301576702c68af0bb1400008483815181106132f05760e060020a634e487b7102600052603260045260246000fd5b602002602001018181525050613400565b670429d069189e000085838151811061332d5760e060020a634e487b7102600052603260045260246000fd5b60200260200101511015801561337457506709b6e64a8ec6000085838151811061336a5760e060020a634e487b7102600052603260045260246000fd5b6020026020010151105b156133c75784828151811061339c5760e060020a634e487b7102600052603260045260246000fd5b60200260200101518483815181106132f05760e060020a634e487b7102600052603260045260246000fd5b670de0b6b3a76400008483815181106133f35760e060020a634e487b7102600052603260045260246000fd5b6020026020010181815250505b508061340b816153d2565b915050613201565b5050915091565b600054600160a060020a031633146134475760405160e560020a62461bcd028152600401610e769061519a565b600b805473ffffffffffffffffffffffffffffffffffffffff1916600160a060020a0392909216919091179055565b60008181526010602052604090205460609067ffffffffffffffff8111156134b15760e060020a634e487b7102600052604160045260246000fd5b6040519080825280602002602001820160405280156134da578160200160208202803683370190505b50905060005b6000838152601060205260409020548110156135ca57600083815260176020526040902054156135b8576000838152601760209081526040808320546006546010909352908320805461358894929361135c939092601892889081106135595760e060020a634e487b7102600052603260045260246000fd5b9060005260206000209060040201600001548152602001908152602001600020546145c790919063ffffffff16565b8282815181106135ab5760e060020a634e487b7102600052603260045260246000fd5b6020026020010181815250505b806135c2816153d2565b9150506134e0565b50919050565b6000806135dc83611d68565b600160a060020a038416600090815260226020908152604080832054918052822054929350909161360c91614365565b905080821161361c576000613626565b6136268282614781565b949350505050565b600054600160a060020a0316331461365b5760405160e560020a62461bcd028152600401610e769061519a565b6029805473ffffffffffffffffffffffffffffffffffffffff1916600160a060020a0392909216919091179055565b3360009081526028602052604090205460ff16806136b25750600054600160a060020a031633145b6136d15760405160e560020a62461bcd028152600401610e76906151cf565b600d5415806136ff5750600354600d546000908152600c602052604090205442916136fc9190614365565b11155b61374e5760405160e560020a62461bcd02815260206004820152601b60248201527f50726576696f75732067726f7570206973206e6f74206f7665722e00000000006044820152606401610e76565b61375742611d47565b8310156137a95760405160e560020a62461bcd02815260206004820152601260248201527f496e76616c69642073746172742074696d6500000000000000000000000000006044820152606401610e76565b600d80549060006137b9836153d2565b9091555050600d80546000908152600c60209081526040808320879055835483526008825280832088905592548252600e9052206137f8908383614a2f565b5050505050565b6003546000838152600c6020526040902054429161381c91615206565b1061386c5760405160e560020a62461bcd02815260206004820152601060248201527f566f7465206973206e6f74206f766572000000000000000000000000000000006044820152606401610e76565b60008281526027602090815260408083203384528252808320600160a060020a0385168452909152902054806138b75760405160e560020a62461bcd028152600401610e7690615163565b60405160e060020a63a9059cbb02815233600482015260248101829052600160a060020a0383169063a9059cbb90604401602060405180830381600087803b15801561390257600080fd5b505af1158015613916573d6000803e3d6000fd5b505050506040513d601f19601f8201168201806040525081019061393a9190614d42565b5060408051600160a060020a03841681526020810183905233917fd12200efa34901b99367694174c3b0d32c99585fdf37c7c26892136ddd0836d9910160405180910390a2505050565b6060600061399183611390565b9050600060106000858152602001908152602001600020805480602002602001604051908101604052809291908181526020016000905b82821015613a2c576000848152602090819020604080516080810182526004860290920180548352600180820154600160a060020a0390811685870152600283015493850193909352600390910154909116606083015290835290920191016139c8565b505050509050805167ffffffffffffffff811115613a5d5760e060020a634e487b7102600052604160045260246000fd5b604051908082528060200260200182016040528015613a86578160200160208202803683370190505b5092506000613a9485613140565b9150506000613af1670de0b6b3a764000061135c8460018651613ab79190615383565b81518110613ad85760e060020a634e487b7102600052603260045260246000fd5b60200260200101516007546145c790919063ffffffff16565b905060005b8351811015613c435760186000858381518110613b265760e060020a634e487b7102600052603260045260246000fd5b60200260200101516000015181526020019081526020016000205460001415613b7f576000868281518110613b6e5760e060020a634e487b7102600052603260045260246000fd5b602002602001018181525050613c31565b613c0160186000868481518110613ba95760e060020a634e487b7102600052603260045260246000fd5b60200260200101516000015181526020019081526020016000205461135c878481518110613bea5760e060020a634e487b7102600052603260045260246000fd5b6020026020010151856145c790919063ffffffff16565b868281518110613c245760e060020a634e487b7102600052603260045260246000fd5b6020026020010181815250505b80613c3b816153d2565b915050613af6565b5050505050919050565b3360009081526028602052604090205460ff1680613c755750600054600160a060020a031633145b613c945760405160e560020a62461bcd028152600401610e76906151cf565b6000908152600f60205260409020805460ff19166001179055565b6000818152600f602052604081205460ff16613ccd57506000611117565b600080613cd984613984565b905060005b600085815260106020526040902054811015613dc557600160a060020a038616600090815260146020908152604080832088845260109092528220805483919085908110613d3f5760e060020a634e487b7102600052603260045260246000fd5b9060005260206000209060040201600001548152602001908152602001600020549050613daf84611d98670de0b6b3a764000061135c878781518110613d985760e060020a634e487b7102600052603260045260246000fd5b6020026020010151866145c790919063ffffffff16565b9350508080613dbd906153d2565b915050613cde565b5090949350505050565b3360009081526028602052604090205460ff1680613df75750600054600160a060020a031633145b613e165760405160e560020a62461bcd028152600401610e76906151cf565b600160a060020a0382166000908152601b602052604081208290555b601a54811015613e9c5782600160a060020a0316601a8281548110613e6a5760e060020a634e487b7102600052603260045260246000fd5b600091825260209091200154600160a060020a03161415613e8a57505050565b80613e94816153d2565b915050613e32565b50601a80546001810182556000919091527f057c384a7d1c54f3a1b2e5e67b2617b8224fdfd1ea7234eea573a6ff665ff63e018054600160a060020a03841673ffffffffffffffffffffffffffffffffffffffff199091161790555050565b600054600160a060020a03163314613f285760405160e560020a62461bcd028152600401610e769061519a565b602a55565b600054600160a060020a03163314613f5a5760405160e560020a62461bcd028152600401610e769061519a565b600160a060020a038116613fd95760405160e560020a62461bcd02815260206004820152602660248201527f4f776e61626c653a206e6577206f776e657220697320746865207a65726f206160448201527f64647265737300000000000000000000000000000000000000000000000000006064820152608401610e76565b613fe28161478d565b50565b602954600160a060020a031633146140425760405160e560020a62461bcd02815260206004820152600960248201527f466f7262696464656e00000000000000000000000000000000000000000000006044820152606401610e76565b600160a060020a03831660009081526015602090815260408083208584528252808320548084526019835281842054602690935292205460ff16156140cc5760405160e560020a62461bcd02815260206004820152600760248201527f436c61696d6564000000000000000000000000000000000000000000000000006044820152606401610e76565b6000805b60008381526010602052604090205481101561417e57600083815260106020526040902080548591908390811061411a5760e060020a634e487b7102600052603260045260246000fd5b906000526020600020906004020160000154141561416c5761413b83613476565b818151811061415d5760e060020a634e487b7102600052603260045260246000fd5b6020026020010151915061417e565b80614176816153d2565b9150506140d0565b508015611fb757600a546040517fc8773af2000000000000000000000000000000000000000000000000000000008152600160a060020a038681166004830152602482018490529091169063c8773af290604401602060405180830381600087803b1580156141ec57600080fd5b505af1158015614200573d6000803e3d6000fd5b505050506040513d601f19601f820116820180604052508101906142249190614d76565b506000838152602660205260409020805460ff19166001179055505050505050565b6021602052816000526040600020818154811061426257600080fd5b600091825260209091206003909102018054600182015460029092015490935090915083565b6000818152600c60205260409020546002546060919067ffffffffffffffff8111156142c75760e060020a634e487b7102600052604160045260246000fd5b6040519080825280602002602001820160405280156142f0578160200160208202803683370190505b50915060006142fe82611d47565b905060005b60025481101561152a576143256001548261431e9190615323565b8390614365565b8482815181106143485760e060020a634e487b7102600052603260045260246000fd5b60209081029190910101528061435d816153d2565b915050614303565b60006143718284615206565b9392505050565b600061438342611d47565b90506000614392600d54614288565b600160a060020a03861660009081526015602090815260408083208884529091528120549192505b82518110156145bd57838382815181106143e75760e060020a634e487b7102600052603260045260246000fd5b6020026020010151106145ab5760008382815181106144195760e060020a634e487b7102600052603260045260246000fd5b6020908102919091018101516000818152601183526040808220878352909352919091205490915061444b9087614365565b6000828152601160209081526040808320878452825280832093909355600160a060020a038c168252601281528282208483528152828220868352905220546144949087614365565b600160a060020a038a166000818152601260209081526040808320868452825280832088845282528083209490945591815260138252828120600d548252825282812084825290915220546144e99087614365565b600160a060020a038a166000818152601360209081526040808320600d54845282528083208684528252808320949094559181526014825282812086825290915220546145369087614365565b600160a060020a038a16600090815260146020908152604080832087845282528083209390935560189052205461456d9087614365565b600084815260186020908152604080832093909355600d5482526017905220546145979087614365565b600d54600090815260176020526040902055505b806145b5816153d2565b9150506143ba565b5050505050505050565b60006143718284615323565b6000614371828461521e565b600080600960009054906101000a9004600160a060020a0316600160a060020a031663313ce5676040518163ffffffff1660e060020a02815260040160206040518083038186803b15801561463357600080fd5b505afa158015614647573d6000803e3d6000fd5b505050506040513d601f19601f8201168201806040525081019061466b9190614efb565b84600160a060020a031663313ce5676040518163ffffffff1660e060020a02815260040160206040518083038186803b1580156146a757600080fd5b505afa1580156146bb573d6000803e3d6000fd5b505050506040513d601f19601f820116820180604052508101906146df9190614efb565b6146e99190615342565b905060008160000b1261472d576115ec61470482600a615277565b601c54600160a060020a0387166000908152601b602052604090205461135c91908290886145c7565b6115ec61473982615401565b61474490600a615277565b601c54600160a060020a0387166000908152601b602052604090205461476f919061135c90886145c7565b906145c7565b600061437182846153ed565b60006143718284615383565b60008054600160a060020a0383811673ffffffffffffffffffffffffffffffffffffffff19831681178455604051919092169283917f8be0079c531659141344cd1fd0a4f28419497f9722a3daafe3b4186f6b6457e09190a35050565b60006147f542611d47565b90506000614804600d54614288565b600160a060020a03861660009081526015602090815260408083208884529091528120549192505b82518110156145bd57838382815181106148595760e060020a634e487b7102600052603260045260246000fd5b602002602001015110614a1d57600083828151811061488b5760e060020a634e487b7102600052603260045260246000fd5b602090810291909101810151600081815260118352604080822087835290935291909120549091506148bd9087614781565b6000828152601160209081526040808320878452825280832093909355600160a060020a038c168252601281528282208483528152828220868352905220546149069087614781565b600160a060020a038a166000818152601260209081526040808320868452825280832088845282528083209490945591815260138252828120600d5482528252828120848252909152205461495b9087614781565b600160a060020a038a166000818152601360209081526040808320600d54845282528083208684528252808320949094559181526014825282812086825290915220546149a89087614781565b600160a060020a038a1660009081526014602090815260408083208784528252808320939093556018905220546149df9087614781565b600084815260186020908152604080832093909355600d548252601790522054614a099087614781565b600d54600090815260176020526040902055505b80614a27816153d2565b91505061482c565b828054614a3b9061539a565b90600052602060002090601f016020900481019282614a5d5760008555614aa3565b82601f10614a765782800160ff19823516178555614aa3565b82800160010185558215614aa3579182015b82811115614aa3578235825591602001919060010190614a88565b50614aaf929150614ab3565b5090565b5b80821115614aaf5760008155600101614ab4565b60008083601f840112614ad9578182fd5b50813567ffffffffffffffff811115614af0578182fd5b6020830191508360208083028501011115614b0a57600080fd5b9250929050565b600060208284031215614b22578081fd5b813561437181615451565b600060208284031215614b3e578081fd5b815161437181615451565b60008060408385031215614b5b578081fd5b8235614b6681615451565b91506020830135614b7681615451565b809150509250929050565b60008060008060808587031215614b96578182fd5b8435614ba181615451565b93506020850135614bb181615451565b92506040850135614bc181615451565b9396929550929360600135925050565b600080600060608486031215614be5578283fd5b8335614bf081615451565b92506020840135614c0081615451565b929592945050506040919091013590565b60008060408385031215614c23578182fd5b8235614c2e81615451565b91506020830135614b7681615466565b60008060408385031215614c50578182fd5b8235614c5b81615451565b946020939093013593505050565b60008060408385031215614c7b578182fd5b8251614c8681615451565b6020939093015192949293505050565b600080600060608486031215614caa578283fd5b8335614cb581615451565b9250602084013591506040840135614ccc81615451565b809150509250925092565b60008060008060808587031215614cec578384fd5b8435614cf781615451565b9350602085013592506040850135614bc181615451565b600080600060608486031215614d22578283fd5b8335614d2d81615451565b95602085013595506040909401359392505050565b600060208284031215614d53578081fd5b815161437181615466565b600060208284031215614d6f578081fd5b5035919050565b600060208284031215614d87578081fd5b5051919050565b60008060408385031215614da0578182fd5b823591506020830135614b7681615451565b600080600060608486031215614dc6578081fd5b833592506020840135614dd881615451565b91506040840135614ccc81615451565b600080600080600060608688031215614dff578283fd5b85359450602086013567ffffffffffffffff80821115614e1d578485fd5b614e2989838a01614ac8565b90965094506040880135915080821115614e41578283fd5b50614e4e88828901614ac8565b969995985093965092949392505050565b60008060408385031215614e71578182fd5b50508035926020909101359150565b60008060008060608587031215614e95578182fd5b8435935060208501359250604085013567ffffffffffffffff80821115614eba578384fd5b818701915087601f830112614ecd578384fd5b813581811115614edb578485fd5b886020828501011115614eec578485fd5b95989497505060200194505050565b600060208284031215614f0c578081fd5b815160ff81168114614371578182fd5b6000815180845260208085019450808401835b83811015614f4b57815187529582019590820190600101614f2f565b509495945050505050565b6020815260006143716020830184614f1c565b604081526000614f7c6040830185614f1c565b8281036020840152614f8e8185614f1c565b95945050505050565b604081526000614faa6040830185614f1c565b90508260208301529392505050565b6000602080835283518082850152825b81811015614fe557858101830151858201604001528201614fc9565b81811115614ff65783604083870101525b50601f01601f1916929092016040019392505050565b60408152825460009081906002810460018083168061502c57607f831692505b602080841082141561504f5760e060020a634e487b710287526022600452602487fd5b604088018490526060880182801561506e576001811461507f576150a9565b60ff198716825282820197506150a9565b60008c815260209020895b878110156150a35781548482015290860190840161508a565b83019850505b50509690960196909652509095945050505050565b60208082526013908201527f566f74696e67206973206e6f7420737461727400000000000000000000000000604082015260600190565b6020808252600e908201527f566f74696e67206973206f766572000000000000000000000000000000000000604082015260600190565b6020808252600b908201527f496e76616c6964204e4654000000000000000000000000000000000000000000604082015260600190565b6020808252600e908201527f416d6f756e74206973207a65726f000000000000000000000000000000000000604082015260600190565b6020808252818101527f4f776e61626c653a2063616c6c6572206973206e6f7420746865206f776e6572604082015260600190565b6020808252600c908201527f4e6f74206f70657261746f720000000000000000000000000000000000000000604082015260600190565b600082198211156152195761521961541f565b500190565b60008261522d5761522d615438565b500490565b600181815b8085111561526f5781600019048211156152535761525361541f565b8085161561526057918102915b60029094049390800290615237565b509250929050565b600061437160ff84168360008261529057506001611117565b8161529d57506000611117565b81600181146152b357600281146152bd576152da565b6001915050611117565b60ff8411156152ce576152ce61541f565b8360020a915050611117565b5060208310610133831016604e8410600b84101617156152fd575081810a611117565b6153078383615232565b806000190482111561531b5761531b61541f565b029392505050565b600081600019048311821515161561533d5761533d61541f565b500290565b600081810b83820b8281128015607f198301841216156153645761536461541f565b81607f0183138116156153795761537961541f565b5090039392505050565b6000828210156153955761539561541f565b500390565b6002810460018216806153ae57607f821691505b602082108114156135ca5760e060020a634e487b7102600052602260045260246000fd5b60006000198214156153e6576153e661541f565b5060010190565b6000826153fc576153fc615438565b500690565b600081810b607f198114156154185761541861541f565b9003919050565b60e060020a634e487b7102600052601160045260246000fd5b60e060020a634e487b7102600052601260045260246000fd5b600160a060020a0381168114613fe257600080fd5b8015158114613fe257600080fdfea264697066735822122016b10e7269e7040dc081ae05121cf9ff899e317a045d6b754d4645f01dcef76864736f6c63430008040033",
  "immutableReferences": {},
  "source": "// SPDX-License-Identifier: MIT\npragma solidity ^0.8.0;\n\nimport \"@openzeppelin/contracts/access/Ownable.sol\";\nimport \"@openzeppelin/contracts/utils/math/SafeMath.sol\";\nimport \"@openzeppelin/contracts/token/ERC20/IERC20.sol\";\nimport \"@openzeppelin/contracts/token/ERC721/IERC721.sol\";\nimport \"@openzeppelin/contracts/token/ERC20/extensions/IERC20Metadata.sol\";\n\n\ninterface ITreasury {\n\tfunction sendRewards(address to, uint256 amount) external returns(uint256 val);\n\tfunction uink() external view returns(address);\n}\n\ninterface IAuction {\n\tfunction matchResults(string calldata matchId, uint index) external view returns(address, uint);\n}\n\ninterface ITokenLocker {\n\tfunction subLockForVote(uint256 lockId, address accountAddress) external returns(uint);\n}\n\n\ncontract VoteMining is Ownable {\n\tusing SafeMath for uint256;\n\n\tuint public VOTE_TIME_UNIT = 1 hours;\n\tuint public VOTE_DAYS = 14;\n\tuint public VOTE_DURATION = VOTE_DAYS * VOTE_TIME_UNIT;\n\n\tuint public weeklyCap = 400000 * 1e12;\n\tuint public dailyVoteRewardCap = weeklyCap / VOTE_DAYS / 4; // 25% of daily cap \n\tuint public mintRewardCap = weeklyCap / 4; // 25% of daily cap \n\tuint public bonusCap = weeklyCap  / 2; // 50% of weekly cap\n\t// group id => amount\n\tmapping (uint => uint) public stakingBases;\n\n\n\taddress public uink;\n\tITreasury public treasury;\n\taddress public auction;\n\n\tstruct NFT {\n\t\tuint uid;\n\t\taddress addr;\n\t\tuint id;\n\t\taddress owner;\n\t}\n\t// id => start time\n\tmapping (uint => uint) public groups;\n\tuint public currentGroupId = 0;\n\t// group id => matchId\n\tmapping (uint => string) public matches;\n\t// group id => finished or not\n\tmapping (uint => bool) public hasFinished;\n\t\n\t\n\t// group id => NFT[]\n\tmapping (uint => NFT[]) public groupNFTs;\n\n\t// date => NFT uid => votes\n\tmapping (uint => mapping (uint => uint)) public dayVotes;\n\n\t// user => date => NFT id => amount\n\tmapping (address => mapping (uint => mapping (uint => uint))) public userVotes;\n\n\t// user => groupId => date => votes\n\tmapping (address => mapping (uint => mapping (uint => uint))) public userDailyVotes;\n\n\t// user => nft uid => votes \n\tmapping (address => mapping (uint => uint)) public userNFTVotes;\n\t\n\n\t// nft address => nftId => internal id\n\tmapping (address => mapping (uint => uint)) public nfts;\n\tuint public nextNFTId = 0;\n\n\t// group id => votes\n\tmapping (uint => uint) public groupVotes;\n\n\t// uid => votes\n\tmapping (uint => uint) public nftVotes;\n\n\t// date => votes\n\t// mapping (uint => uint) public dailyTotalVotes;\n\t\n\n\t// uid => group id\n\tmapping (uint => uint) public nftGroup;\n\t\n\taddress[] public voteTokens;\n\t// token => ratio\n\tmapping (address => uint) public voteRatio;\n\n\tuint public voteRatioMax = 10000;\n\t\n\n\tstruct Balance {\n\t\tuint available;\n\t\tuint freezed;\n\t\tuint votedAt;\n\t}\n\n\tstruct UnbondingBalance {\n\t\tuint value;\n\t\tuint unbondedAt;\n\t\tuint redeemed;\n\t}\n\n\t// user => token => uid => Balance\n\tmapping (address => mapping (address => mapping (uint => Balance))) public balances;\n\n\t// user => token => balance\n\tmapping (address => mapping (address => uint)) public userTokenBalances;\n\n\t// user => uid => Balance\n\tmapping (address => mapping (uint => Balance)) public votedBalances; // bonded => voted \n\t\n\t// user => bonded amount\n\tmapping (address => uint) public totalVotedBalances;\n\n\t// user => UnbondingBalance[]\n\tmapping (address => UnbondingBalance[]) public unbondingBalances;\n\t\n\t// user => total unbonded amount\n\tmapping (address => uint) public unbondedBalances;\n\t\n\n\t// uid => price\n\tmapping (uint => uint) public nftTradedPrices;\n\t// user => group => date => bool\n\tmapping (address => mapping (uint => mapping (uint => bool))) public voteRewardsClaimed;\n\t// user = > group id => bool\n\tmapping (address => mapping (uint => bool)) public bonusRewardsClaimed;\n\t// nft uid => bool\n\tmapping (uint => bool) public mintRewardsClaimed;\n\n\t// groupId => user => token => balance\n\tmapping (uint => mapping (address => mapping (address => uint))) public groupTokenBalances;\n\t\t\n\n\tmapping (address => bool) public operators;\n\n\taddress public pinAddress;\n\n\tuint public tokenLockId = 0;\n\n\taddress public tokenLocker;\n\n\tevent Redeem(address indexed user, address token, uint amount);\n\tevent Unbond(address indexed user, uint amount, uint at);\n\n\t\n\n\tmodifier checkNFT(address nftAddr, uint nftId) { \n\t\trequire(nfts[nftAddr][nftId] > 0, \"Invalid NFT\");\n\t\t_; \n\t}\n\n\tmodifier onlyPin() { \n\t\trequire(msg.sender == pinAddress, \"Forbidden\"); \n\t\t_; \n\t}\n\n\tmodifier onlyOperator() { \n\t\trequire (operators[msg.sender] || owner() == _msgSender(), \"Not operator\"); \n\t\t_; \n\t}\n\t\n\t\n\n\tmodifier checkVotingTime() { \n\t\trequire(groups[currentGroupId] <= block.timestamp, \"Voting is not start\");\n\t\trequire(groups[currentGroupId].add(VOTE_DURATION) >= block.timestamp, \"Voting is over\");\n\t\t_; \n\t}\n\n\tmodifier checkVoteToken(address _token) { \n\t\tbool isValid = false;\n\t\tfor(uint i = 0; i < voteTokens.length; i++) {\n\t\t\tif(voteTokens[i] == _token) {\n\t\t\t\tisValid = true;\n\t\t\t\tbreak;\n\t\t\t}\n\t\t}\n\t\trequire(isValid, \"Invalid Vote Token\");\n\t\t_; \n\t}\n\n\tconstructor(address _treasury, address _tokenLocker){\n\t\ttreasury = ITreasury(_treasury);\n\t\tuink = treasury.uink();\n\t\ttokenLocker = _tokenLocker;\n\n\t\tvoteTokens.push(uink);\n\t\tvoteRatio[uink] = voteRatioMax;\n\t}\n\n\tfunction addVoteToken(address _token, uint _ratio) external onlyOperator {\n\t\tvoteRatio[_token] = _ratio;\n\t\tfor(uint i = 0; i < voteTokens.length; i++) {\n\t\t\tif(voteTokens[i] == _token) {\n\t\t\t\treturn;\n\t\t\t}\n\t\t}\n\t\tvoteTokens.push(_token);\n\t}\n\n\tfunction setAuctionAddress(address _auction) external onlyOwner {\n\t\tauction = _auction;\n\t}\n\n\tfunction setPinAddress(address _pin) external onlyOwner {\n\t\tpinAddress = _pin;\n\t}\n\n\tfunction setTokenLockId(uint lockId) external onlyOwner {\n\t\ttokenLockId = lockId;\n\t}\n\n\tfunction setOperator(address operator, bool isOperator) external onlyOwner {\n\t\toperators[operator] = isOperator;\n\t}\n\n\tfunction setVoteDays(uint _days) external onlyOwner {\n\t\tVOTE_DAYS = _days;\n\t}\n\n\n\tfunction addGroup(uint stakingBase, uint startTime, string calldata matchId) external onlyOperator {\n\t\trequire(currentGroupId == 0 || groups[currentGroupId].add(VOTE_DURATION) <= block.timestamp, \"Previous group is not over.\");\n\t\trequire(startTime >= getDate(block.timestamp), \"Invalid start time\");\n\t\tcurrentGroupId++;\n\t\tgroups[currentGroupId] = startTime;\n\t\tstakingBases[currentGroupId] = stakingBase;\n\t\tmatches[currentGroupId] = matchId;\n\t}\n\n\tfunction addNFT(uint groupId, address[] calldata nftAddrs, uint[] calldata nftIds) external onlyOperator {\n\t\trequire(nftAddrs.length == nftIds.length, \"Invalid params\");\n\t\tNFT[] storage inputNFTs = groupNFTs[groupId];\n\n\t\tfor(uint i = 0; i < nftAddrs.length; i++) {\n\t\t\trequire(nfts[nftAddrs[i]][nftIds[i]] == 0, \"NFT has been added\");\n\t\t\tnextNFTId++;\n\t\t\tnfts[nftAddrs[i]][nftIds[i]] = nextNFTId;\n\t\t\taddress nftOwner = IERC721(nftAddrs[i]).ownerOf(nftIds[i]);\n\t\t\tinputNFTs.push(NFT({\n\t\t\t\tuid: nextNFTId,\n\t\t\t\taddr: nftAddrs[i],\n\t\t\t\tid: nftIds[i],\n\t\t\t\towner: nftOwner\n\t\t\t}));\n\t\t\tnftGroup[nextNFTId] = groupId;\n\t\t}\n\t}\n\n\tfunction groupNFTsLength(uint groupId) public view returns(uint256) {\n\t\treturn groupNFTs[groupId].length;\n\t}\n\n\tfunction getAuctionPrices(uint groupId) public view returns(uint[] memory prices, uint totalAmount) {\n\t\tprices = new uint[](groupNFTs[groupId].length);\n\t\tfor(uint i = 0; i < groupNFTs[groupId].length; i++) {\n\t\t\t(address bidder, uint price) = IAuction(auction).matchResults(matches[groupId], i);\n\t\t\tif(bidder == address(0)) {\n\t\t\t\tprice = 0;\n\t\t\t}\n\t\t\tprices[i] = price;\n\t\t\ttotalAmount = totalAmount.add(price);\n\t\t}\n\t}\n\n\t\n\tfunction getDate(uint256 ts) public view returns(uint256) {\n\t\treturn ts.sub(ts.mod(VOTE_TIME_UNIT));\n\t}\n\n\tfunction getVotableDates(uint groupId) public view returns(uint[] memory dates) {\n\t\tuint start = groups[groupId];\n\t\tdates = new uint[](VOTE_DAYS);\n\t\tuint firstDate = getDate(start);\n\t\tfor(uint i = 0; i < VOTE_DAYS; i++) {\n\t\t\tdates[i] = firstDate.add(i * VOTE_TIME_UNIT);\n\t\t}\n\t}\n\n\tfunction _vote(address user, address nftAddr, uint nftId, uint votes) internal {\n\t\tuint today = getDate(block.timestamp);\n\t\tuint[] memory dates = getVotableDates(currentGroupId);\n\t\tuint uid = nfts[nftAddr][nftId];\n\n\t\tfor(uint i = 0; i < dates.length; i++) {\n\t\t\tif(dates[i] >= today) {\n\t\t\t\tuint date = dates[i];\n\t\t\t\tdayVotes[date][uid] = dayVotes[date][uid].add(votes);\n\t\t\t\tuserVotes[user][date][uid] = userVotes[user][date][uid].add(votes);\n\t\t\t\tuserDailyVotes[user][currentGroupId][date] = userDailyVotes[user][currentGroupId][date].add(votes);\n\t\t\t\tuserNFTVotes[user][uid] = userNFTVotes[user][uid].add(votes);\n\t\t\t\t\n\t\t\t\tnftVotes[uid] = nftVotes[uid].add(votes);\n\t\t\t\tgroupVotes[currentGroupId] = groupVotes[currentGroupId].add(votes);\n\t\t\t}\n\t\t}\n\t}\n\n\tfunction getUserNFTVotes(address user, address nftAddr, uint nftId) public view returns(uint256) {\n\t\tuint today = getDate(block.timestamp);\n\t\tuint[] memory dates = getVotableDates(currentGroupId);\n\t\tuint uid = nfts[nftAddr][nftId];\n\t\tuint votes = 0;\n\t\tfor(uint i = 0; i < dates.length; i++) {\n\t\t\tif(dates[i] <= today) {\n\t\t\t\tvotes = votes.add(userVotes[user][dates[i]][uid]);\n\t\t\t}\n\t\t}\n\t\treturn votes;\n\t}\n\n\tfunction getNFTVotes(address nftAddr, uint nftId) public view returns(uint256) {\n\t\tuint today = getDate(block.timestamp);\n\t\tuint[] memory dates = getVotableDates(currentGroupId);\n\t\tuint uid = nfts[nftAddr][nftId];\n\t\t\n\t\tuint votes = 0;\n\t\tfor(uint i = 0; i < dates.length; i++) {\n\t\t\tif(dates[i] <= today) {\n\t\t\t\tvotes = votes.add(dayVotes[dates[i]][uid]);\n\t\t\t}\n\t\t}\n\t\treturn votes;\n\t}\n\n\tfunction _unvote(address user, address nftAddr, uint nftId, uint votes) internal {\n\t\tuint today = getDate(block.timestamp);\n\t\tuint[] memory dates = getVotableDates(currentGroupId);\n\t\tuint uid = nfts[nftAddr][nftId];\n\n\t\tfor(uint i = 0; i < dates.length; i++) {\n\t\t\tif(dates[i] >= today) {\n\t\t\t\tuint date = dates[i];\n\t\t\t\tdayVotes[date][uid] = dayVotes[date][uid].sub(votes);\n\t\t\t\tuserVotes[user][date][uid] = userVotes[user][date][uid].sub(votes);\n\t\t\t\tuserDailyVotes[user][currentGroupId][date] = userDailyVotes[user][currentGroupId][date].sub(votes);\n\t\t\t\tuserNFTVotes[user][uid] = userNFTVotes[user][uid].sub(votes);\n\t\t\t\t\n\t\t\t\tnftVotes[uid] = nftVotes[uid].sub(votes);\n\t\t\t\tgroupVotes[currentGroupId] = groupVotes[currentGroupId].sub(votes);\n\t\t\t}\n\t\t}\n\t}\n\n\tfunction calcVotes(address token, uint amount) internal view returns(uint256) {\n\t\tint8 delta = int8(IERC20Metadata(token).decimals()) - int8(IERC20Metadata(uink).decimals());\n\t\tif(delta >= 0) {\n\t\t\treturn voteRatio[token].mul(amount).div(voteRatioMax).div(10 ** uint8(delta));\n\t\t} else {\n\t\t\treturn voteRatio[token].mul(amount).div(voteRatioMax).mul(10 ** uint8(-delta));\n\t\t}\n\t}\n\n\tfunction getAvailableBalance(address user, address token, address nftAddr, uint nftId) public view returns(uint256) {\n\t\tuint uid = nfts[nftAddr][nftId];\n\t\tBalance memory balance = balances[user][token][uid];\n\t\tuint available = balance.available;\n\t\tif(getDate(balance.votedAt) < getDate(block.timestamp)) {\n\t\t\tavailable = available.add(balance.freezed);\n\t\t}\n\t\treturn available;\n\t}\n\n\t// stake and vote\n\tfunction stake(address nftAddr, uint nftId, address token, uint amount)\n\t\texternal \n\t\tcheckVoteToken(token)\n\t\tcheckVotingTime\n\t\tcheckNFT(nftAddr, nftId)\n\t{\n\t\trequire(amount > 0, \"Amount is zero\");\n\t\tuint votes = calcVotes(token, amount);\n\t\t_vote(msg.sender, nftAddr, nftId, votes);\n\n\t\tIERC20(token).transferFrom(msg.sender, address(this), amount);\n\t\tgroupTokenBalances[currentGroupId][msg.sender][token] = groupTokenBalances[currentGroupId][msg.sender][token].add(amount);\n\n\t\tuint uid = nfts[nftAddr][nftId];\n\n\n\t\tBalance storage balance = balances[msg.sender][token][uid];\n\t\tif(getDate(balance.votedAt) < getDate(block.timestamp)) {\n\t\t\tbalance.available = balance.available.add(balance.freezed);\n\t\t\tbalance.freezed = 0;\n\t\t}\n\t\tbalance.freezed = balance.freezed.add(amount);\n\t\tbalance.votedAt = block.timestamp;\n\n\t\tuserTokenBalances[msg.sender][token] = userTokenBalances[msg.sender][token].add(amount);\n\t}\n\n\tfunction unstake(address nftAddr, uint nftId, address token, uint amount)\n\t\texternal \n\t\tcheckVoteToken(token)\n\t\tcheckNFT(nftAddr, nftId)\n\t{\n\t\trequire(amount > 0, \"Amount is zero\");\n\t\t\n\t\tuint available = getAvailableBalance(msg.sender, token, nftAddr, nftId);\n\t\trequire(available >= amount, \"Insufficient balance\");\n\n\t\tuint votes = calcVotes(token, amount);\n\t\t_unvote(msg.sender, nftAddr, nftId, votes);\n\n\t\tIERC20(token).transfer(msg.sender, amount);\n\n\t\tgroupTokenBalances[currentGroupId][msg.sender][token] = groupTokenBalances[currentGroupId][msg.sender][token].sub(amount);\n\n\t\tuint uid = nfts[nftAddr][nftId];\n\t\tBalance storage balance = balances[msg.sender][token][uid];\n\t\tif(getDate(balance.votedAt) < getDate(block.timestamp)) {\n\t\t\tbalance.available = balance.available.add(balance.freezed);\n\t\t\tbalance.freezed = 0;\n\t\t}\n\t\tbalance.available = balance.available.sub(amount);\n\n\t\tuserTokenBalances[msg.sender][token] = userTokenBalances[msg.sender][token].sub(amount);\n\t}\n\n\t// redeem token after vote finished\n\tfunction redeemToken(uint groupId, address token) external {\n\t\trequire(groups[groupId] + VOTE_DURATION < block.timestamp, \"Vote is not over\");\n\t\tuint amount = groupTokenBalances[groupId][msg.sender][token];\n\t\trequire(amount > 0, \"Amount is zero\");\n\t\tIERC20(token).transfer(msg.sender, amount);\n\t\temit Redeem(msg.sender, token, amount);\n\t}\n\n\tfunction getRedeemableBalance(address user, address token) public view returns(uint256) {\n\t\tuint total = 0;\n\t\tfor(uint groupId = 1; groupId <= currentGroupId; groupId++){\n\t\t\tif(groups[groupId] + VOTE_DURATION < block.timestamp) {\n\t\t\t\ttotal = total.add(groupTokenBalances[groupId][user][token]);\n\t\t\t}\n\t\t}\n\t\treturn total;\n\t}\n\n\tfunction redeemToken(address token) external {\n\t\tuint total = getRedeemableBalance(msg.sender, token);\n\t\trequire(total > 0, \"Withdrawable is zero\");\n\t\tIERC20(token).transfer(msg.sender, total);\n\t\temit Redeem(msg.sender, token, total);\n\t}\n\n\tfunction rescueToken(address token, uint amount) external onlyOwner {\n\t\tIERC20(token).transfer(msg.sender, amount);\n\t}\n\n\tfunction getTotalRewards(address user) public view returns(uint) {\n\t\tuint rewards = 0;\n\t\tfor(uint groupId = 1; groupId <= currentGroupId; groupId++) {\n\t\t\trewards = rewards.add(getBaseRewards(user, groupId)).add(getAuctionRewards(user, groupId));\n\t\t}\n\t\treturn rewards;\n\t}\n\n\tfunction getBaseRewards(address user, uint groupId) public view returns(uint) {\n\t\tuint[] memory dates = getVotableDates(groupId);\n\t\tuint[] memory rawardRates = getBaseRewardRates(groupId);\n\t\tuint rewards = 0;\n\t\tuint today = getDate(block.timestamp);\n\n\t\tfor(uint i = 0; i < dates.length; i++) {\n\t\t\tif(dates[i] >= today) {\n\t\t\t\tbreak;\n\t\t\t}\n\t\t\tuint dayRewards = userDailyVotes[user][groupId][dates[i]].mul(rawardRates[i]).div(1e18);\n\t\t\trewards = rewards.add(dayRewards);\n\t\t}\n\t\treturn rewards;\n\t}\n\n\tfunction getAuctionRewards(address user, uint groupId) public view returns(uint) {\n\t\tif(!hasFinished[groupId]) {\n\t\t\treturn 0;\n\t\t}\n\t\tuint rewards = 0;\n\t\tuint[] memory rewardRates = getAuctionRewardRates(groupId);\n\t\tfor(uint i = 0; i < groupNFTs[groupId].length; i++) {\n\t\t\tuint votes = userNFTVotes[user][groupNFTs[groupId][i].uid];\n\t\t\trewards = votes.mul(rewardRates[i]).div(1e18).add(rewards);\n\t\t}\n\t\treturn rewards;\n\t}\n\n\tfunction getBondedBalance(address user) public view returns(uint) {\n\t\tuint rewards = getTotalRewards(user);\n\t\tuint freezedBalance = totalVotedBalances[user].add(unbondedBalances[user]);\n\t\treturn rewards > freezedBalance ? rewards.sub(freezedBalance) : 0;\n\t}\n\n\tfunction getUnvotableBalance(address user, address nftAddr, uint nftId) public view returns(uint256) {\n\t\tuint uid = nfts[nftAddr][nftId];\n\t\tBalance memory balance = votedBalances[user][uid];\n\t\tuint available = balance.available;\n\t\tif(getDate(balance.votedAt) < getDate(block.timestamp)) {\n\t\t\tavailable = available.add(balance.freezed);\n\t\t}\n\t\treturn available;\n\t}\n\n\tfunction voteFromLock(address nftAddr, uint nftId) \n\t\texternal \n\t\tcheckVotingTime\n\t\tcheckNFT(nftAddr, nftId)\n\t{\n\n\t\tuint amount = ITokenLocker(tokenLocker).subLockForVote(tokenLockId, msg.sender);\n\t\t_vote(msg.sender, nftAddr, nftId, amount);\n\t\t\n\t\tuint uid = nfts[nftAddr][nftId];\n\t\tBalance storage votedBalance = votedBalances[msg.sender][uid];\n\n\t\tif(getDate(votedBalance.votedAt) < getDate(block.timestamp)) {\n\t\t\tvotedBalance.available = votedBalance.available.add(votedBalance.freezed);\n\t\t\tvotedBalance.freezed = 0;\n\t\t}\n\t\tvotedBalance.freezed = votedBalance.freezed.add(amount);\n\t\tvotedBalance.votedAt = block.timestamp;\n\n\t\ttotalVotedBalances[msg.sender] = totalVotedBalances[msg.sender].add(amount);\n\n\t\tuserTokenBalances[msg.sender][uink] = userTokenBalances[msg.sender][uink].add(amount);\n\t}\n\n\t\n\tfunction voteBonded(address nftAddr, uint nftId, uint amount) \n\t\texternal \n\t\tcheckVotingTime\n\t\tcheckNFT(nftAddr, nftId)\n\t{\n\t\tuint bondedBalance = getBondedBalance(msg.sender);\n\t\trequire(bondedBalance >= amount, \"Insufficient bonded balance\");\n\n\t\t_vote(msg.sender, nftAddr, nftId, amount);\n\n\t\tuint uid = nfts[nftAddr][nftId];\n\t\tBalance storage votedBalance = votedBalances[msg.sender][uid];\n\n\t\tif(getDate(votedBalance.votedAt) < getDate(block.timestamp)) {\n\t\t\tvotedBalance.available = votedBalance.available.add(votedBalance.freezed);\n\t\t\tvotedBalance.freezed = 0;\n\t\t}\n\t\tvotedBalance.freezed = votedBalance.freezed.add(amount);\n\t\tvotedBalance.votedAt = block.timestamp;\n\n\t\ttotalVotedBalances[msg.sender] = totalVotedBalances[msg.sender].add(amount);\n\t\tuserTokenBalances[msg.sender][uink] = userTokenBalances[msg.sender][uink].add(amount);\n\t}\n\n\tfunction unvoteBonded(address nftAddr, uint nftId, uint amount)\n\t\texternal \n\t\tcheckVotingTime\n\t\tcheckNFT(nftAddr, nftId)\n\t{\n\t\tuint unvotable = getUnvotableBalance(msg.sender, nftAddr, nftId);\n\t\trequire(unvotable >= amount, \"Insufficient unvotable balance\");\n\t\t_unvote(msg.sender, nftAddr, nftId, amount);\n\n\t\tuint uid = nfts[nftAddr][nftId];\n\t\tBalance storage votedBalance = votedBalances[msg.sender][uid];\n\n\t\tif(getDate(votedBalance.votedAt) < getDate(block.timestamp)) {\n\t\t\tvotedBalance.available = votedBalance.available.add(votedBalance.freezed);\n\t\t\tvotedBalance.freezed = 0;\n\t\t}\n\t\tvotedBalance.available = votedBalance.available.sub(amount);\n\n\t\ttotalVotedBalances[msg.sender] = totalVotedBalances[msg.sender].sub(amount);\n\t\tuserTokenBalances[msg.sender][uink] = userTokenBalances[msg.sender][uink].sub(amount);\n\t}\n\n\tfunction getUnbondingBalancesLength(address user) public view returns(uint) {\n\t\treturn unbondingBalances[user].length;\n\t}\n\n\tfunction unbond(uint amount) external {\n\t\tuint bondedBalance = getBondedBalance(msg.sender);\n\t\trequire(bondedBalance >= amount, \"Insufficient bonded balance\");\n\n\t\tunbondingBalances[msg.sender].push(UnbondingBalance({\n\t\t\tvalue: amount,\n\t\t\tunbondedAt: block.timestamp,\n\t\t\tredeemed: 0\n\t\t}));\n\t\t\n\t\tunbondedBalances[msg.sender] = unbondedBalances[msg.sender].add(amount);\n\n\t\temit Unbond(msg.sender, amount, block.timestamp);\n\t}\n\n\tfunction redeemUnbonding(uint index) \n\t\texternal \n\t{ \n\t\tUnbondingBalance storage unbondingBalance = unbondingBalances[msg.sender][index];\n\t\tuint passDays = getDate(block.timestamp).sub(getDate(unbondingBalance.unbondedAt)).div(VOTE_TIME_UNIT);\n\t\tuint released = passDays.mul(unbondingBalance.value).div(60);\n\t\tuint available = released.sub(unbondingBalance.redeemed);\n\t\tunbondingBalance.redeemed = released;\n\n\t\ttreasury.sendRewards(msg.sender, available);\n\t}\n\n\n\t// function getUserVotesByNFT(address user, uint groupId, uint uid) public view returns(uint) {\n\t// \tuint[] memory dates = getVotableDates(groupId);\n\t// \tuint votes = 0;\n\t// \tfor(uint i = 0; i < dates.length; i++) {\n\t// \t\tvotes = userVotes[user][dates[i]][uid].add(votes);\n\t// \t}\n\t// \treturn votes;\n\t// }\n\n\tfunction claimMintRewards(address nftAddr, uint nftId, address to) external onlyPin {\n\t\tuint uid = nfts[nftAddr][nftId];\n\t\tuint groupId = nftGroup[nfts[nftAddr][nftId]];\n\t\trequire(!mintRewardsClaimed[uid], \"Claimed\");\n\n\t\tuint rewards = 0;\n\t\tfor(uint i = 0; i < groupNFTs[groupId].length; i++) {\n\t\t\tif(groupNFTs[groupId][i].uid == uid) {\n\t\t\t\trewards = getMintRewardsPerNFT(groupId)[i];\n\t\t\t\tbreak;\n\t\t\t}\n\t\t}\n\t\tif(rewards > 0) {\n\t\t\ttreasury.sendRewards(to, rewards);\n\t\t\tmintRewardsClaimed[uid] = true;\n\t\t}\n\t}\n\n\tfunction getTradeWeights(uint groupId) public view returns(uint[] memory weights) {\n\t\tNFT[] memory gNFTs = groupNFTs[groupId];\n\t\tweights = new uint[](gNFTs.length);\n\t\t\n\t\t(uint[] memory prices, uint total) = getAuctionPrices(groupId);\n\n\t\tif(total > 0) {\n\t\t\tfor(uint i = 0; i < gNFTs.length; i++){\n\t\t\t\tweights[i] = prices[i].mul(1e18).div(total);\n\t\t\t}\n\t\t}\n\t}\n\n\tfunction setAuctionFinish(uint groupId) external onlyOperator {\n\t\thasFinished[groupId] = true;\n\t}\n\n\tfunction getAuctionRewardRates(uint groupId) public view returns(uint[] memory auctionRewardRates) {\n\t\tuint[] memory weights = getTradeWeights(groupId);\n\t\tNFT[] memory gNFTs = groupNFTs[groupId];\n\t\tauctionRewardRates = new uint[](gNFTs.length);\n\t\t(, uint[] memory inflations) = getWeightsAndInflations(groupId);\n\t\tuint bonus = bonusCap.mul(inflations[inflations.length - 1]).div(1e18);\n\n\t\tfor(uint i = 0; i < gNFTs.length; i++) {\n\t\t\tif(nftVotes[gNFTs[i].uid] == 0) {\n\t\t\t\tauctionRewardRates[i] = 0;\n\t\t\t} else {\n\t\t\t\tauctionRewardRates[i] = bonus.mul(weights[i]).div(nftVotes[gNFTs[i].uid]);\n\t\t\t}\n\t\t}\n\t}\n\n\tfunction getDailyVotes(uint groupId, uint date) public view returns(uint256) {\n\t\tuint votes = 0;\n\t\tfor(uint i = 0; i < groupNFTs[groupId].length; i++) {\n\t\t\tuint uid = groupNFTs[groupId][i].uid;\n\t\t\tvotes = votes.add(dayVotes[date][uid]);\n\t\t}\n\t\treturn votes;\n\t}\n\n\tfunction getWeightsAndInflations(uint groupId)\n\t\tpublic\n\t\tview\n\t\treturns(\n\t\t\tuint[] memory weights,\n\t\t\tuint[] memory inflations\n\t\t) \n\t{\n\n\t\tuint[] memory dates = getVotableDates(groupId);\n\t\tweights = new uint[](dates.length);\n\t\tinflations = new uint[](dates.length);\n\n\t\tfor(uint i = 0; i < dates.length; i++) {\n\t\t\tuint dailyVotes = getDailyVotes(groupId, dates[i]);\n\t\t\tweights[i] = dailyVotes.mul(1e18).div(stakingBases[groupId]);\n\t\t\tif(weights[i] < 3 * 1e17) {\n\t\t\t\tinflations[i] = 2 * 1e17;\n\t\t\t} else if(weights[i] >= 3 * 1e17 &&  weights[i] < 7 * 1e17) {\n\t\t\t\tinflations[i] = weights[i];\n\t\t\t} else {\n\t\t\t\tinflations[i] = 1e18;\n\t\t\t}\n\t\t}\n\t}\n\n\tfunction getBaseRewardRates(uint groupId) \n\t\tpublic view \n\t\treturns(uint[] memory rewardRates) \n\t{\n\n\t\tuint[] memory dates = getVotableDates(groupId);\n\t\t(,uint[] memory inflations) = getWeightsAndInflations(groupId);\n\t\trewardRates = new uint[](dates.length);\n\n\t\tfor(uint i = 0; i < dates.length; i++) {\n\t\t\tif(dates[i] > getDate(block.timestamp)) {\n\t\t\t\tbreak;\n\t\t\t}\n\t\t\tuint dailyTotalVotes = getDailyVotes(groupId, dates[i]);\n\t\t\tif(dailyTotalVotes > 0) {\n\t\t\t\trewardRates[i] = inflations[i].mul(dailyVoteRewardCap).div(dailyTotalVotes);\n\t\t\t}\n\t\t}\n\t}\n\n\tfunction getMintRewardsPerNFT(uint groupId)\n\t\tpublic view \n\t\treturns(uint[] memory mintRewards) \n\t{\n\t\tmintRewards = new uint[](groupNFTs[groupId].length);\n\t\tfor(uint i = 0; i < groupNFTs[groupId].length; i++) {\n\t\t\tif(groupVotes[groupId] > 0) {\n\t\t\t\tmintRewards[i] = nftVotes[groupNFTs[groupId][i].uid].mul(mintRewardCap).div(groupVotes[groupId]);\n\t\t\t}\n\t\t}\n\t}\n\n\tfunction getMintRewards(address nftAddr, uint nftId) public view returns(uint) {\n\t\tuint groupId = nftGroup[nfts[nftAddr][nftId]];\n\t\tif(groupVotes[groupId] > 0) {\n\t\t\treturn nftVotes[nfts[nftAddr][nftId]].mul(mintRewardCap).div(groupVotes[groupId]);\n\t\t} else {\n\t\t\treturn 0;\n\t\t}\n\t}\n}",
  "sourcePath": "/Users/yxf/app/uniarts-eth-dao/contracts/VoteMining.sol",
  "compiler": {
    "name": "solc",
    "version": "0.8.4+commit.c7e474f2.Emscripten.clang"
  },
  "schemaVersion": "3.2.3",
  "updatedAt": "2021-10-12T10:10:42.694Z",
  "devdoc": {
    "kind": "dev",
    "methods": {
      "owner()": {
        "details": "Returns the address of the current owner."
      },
      "renounceOwnership()": {
        "details": "Leaves the contract without owner. It will not be possible to call `onlyOwner` functions anymore. Can only be called by the current owner. NOTE: Renouncing ownership will leave the contract without an owner, thereby removing any functionality that is only available to the owner."
      },
      "transferOwnership(address)": {
        "details": "Transfers ownership of the contract to a new account (`newOwner`). Can only be called by the current owner."
      }
    },
    "version": 1
  },
  "userdoc": {
    "kind": "user",
    "methods": {},
    "version": 1
  }
}