{
  "contractName": "VoteMining",
  "abi": [
    {
      "inputs": [
        {
          "internalType": "address",
          "name": "_treasury",
          "type": "address"
        },
        {
          "internalType": "address",
          "name": "_tokenLocker",
          "type": "address"
        }
      ],
      "stateMutability": "nonpayable",
      "type": "constructor"
    },
    {
      "anonymous": false,
      "inputs": [
        {
          "indexed": true,
          "internalType": "address",
          "name": "previousOwner",
          "type": "address"
        },
        {
          "indexed": true,
          "internalType": "address",
          "name": "newOwner",
          "type": "address"
        }
      ],
      "name": "OwnershipTransferred",
      "type": "event"
    },
    {
      "anonymous": false,
      "inputs": [
        {
          "indexed": true,
          "internalType": "address",
          "name": "user",
          "type": "address"
        },
        {
          "indexed": false,
          "internalType": "uint256",
          "name": "amount",
          "type": "uint256"
        },
        {
          "indexed": false,
          "internalType": "uint256",
          "name": "at",
          "type": "uint256"
        }
      ],
      "name": "Unbond",
      "type": "event"
    },
    {
      "inputs": [],
      "name": "auction",
      "outputs": [
        {
          "internalType": "address",
          "name": "",
          "type": "address"
        }
      ],
      "stateMutability": "view",
      "type": "function"
    },
    {
      "inputs": [
        {
          "internalType": "address",
          "name": "",
          "type": "address"
        },
        {
          "internalType": "address",
          "name": "",
          "type": "address"
        },
        {
          "internalType": "uint256",
          "name": "",
          "type": "uint256"
        }
      ],
      "name": "balances",
      "outputs": [
        {
          "internalType": "uint256",
          "name": "available",
          "type": "uint256"
        },
        {
          "internalType": "uint256",
          "name": "freezed",
          "type": "uint256"
        },
        {
          "internalType": "uint256",
          "name": "votedAt",
          "type": "uint256"
        }
      ],
      "stateMutability": "view",
      "type": "function"
    },
    {
      "inputs": [],
      "name": "bonusCap",
      "outputs": [
        {
          "internalType": "uint256",
          "name": "",
          "type": "uint256"
        }
      ],
      "stateMutability": "view",
      "type": "function"
    },
    {
      "inputs": [
        {
          "internalType": "address",
          "name": "",
          "type": "address"
        },
        {
          "internalType": "uint256",
          "name": "",
          "type": "uint256"
        }
      ],
      "name": "bonusRewardsClaimed",
      "outputs": [
        {
          "internalType": "bool",
          "name": "",
          "type": "bool"
        }
      ],
      "stateMutability": "view",
      "type": "function"
    },
    {
      "inputs": [],
      "name": "currentGroupId",
      "outputs": [
        {
          "internalType": "uint256",
          "name": "",
          "type": "uint256"
        }
      ],
      "stateMutability": "view",
      "type": "function"
    },
    {
      "inputs": [],
      "name": "dailyMintRewardCap",
      "outputs": [
        {
          "internalType": "uint256",
          "name": "",
          "type": "uint256"
        }
      ],
      "stateMutability": "view",
      "type": "function"
    },
    {
      "inputs": [],
      "name": "dailyVoteRewardCap",
      "outputs": [
        {
          "internalType": "uint256",
          "name": "",
          "type": "uint256"
        }
      ],
      "stateMutability": "view",
      "type": "function"
    },
    {
      "inputs": [
        {
          "internalType": "uint256",
          "name": "",
          "type": "uint256"
        },
        {
          "internalType": "uint256",
          "name": "",
          "type": "uint256"
        }
      ],
      "name": "dayVotes",
      "outputs": [
        {
          "internalType": "uint256",
          "name": "",
          "type": "uint256"
        }
      ],
      "stateMutability": "view",
      "type": "function"
    },
    {
      "inputs": [
        {
          "internalType": "uint256",
          "name": "",
          "type": "uint256"
        },
        {
          "internalType": "uint256",
          "name": "",
          "type": "uint256"
        }
      ],
      "name": "groupNFTs",
      "outputs": [
        {
          "internalType": "uint256",
          "name": "uid",
          "type": "uint256"
        },
        {
          "internalType": "address",
          "name": "addr",
          "type": "address"
        },
        {
          "internalType": "uint256",
          "name": "id",
          "type": "uint256"
        },
        {
          "internalType": "address",
          "name": "owner",
          "type": "address"
        }
      ],
      "stateMutability": "view",
      "type": "function"
    },
    {
      "inputs": [
        {
          "internalType": "uint256",
          "name": "",
          "type": "uint256"
        }
      ],
      "name": "groupVotes",
      "outputs": [
        {
          "internalType": "uint256",
          "name": "",
          "type": "uint256"
        }
      ],
      "stateMutability": "view",
      "type": "function"
    },
    {
      "inputs": [
        {
          "internalType": "uint256",
          "name": "",
          "type": "uint256"
        }
      ],
      "name": "groups",
      "outputs": [
        {
          "internalType": "uint256",
          "name": "",
          "type": "uint256"
        }
      ],
      "stateMutability": "view",
      "type": "function"
    },
    {
      "inputs": [
        {
          "internalType": "uint256",
          "name": "",
          "type": "uint256"
        }
      ],
      "name": "hasFinished",
      "outputs": [
        {
          "internalType": "bool",
          "name": "",
          "type": "bool"
        }
      ],
      "stateMutability": "view",
      "type": "function"
    },
    {
      "inputs": [
        {
          "internalType": "uint256",
          "name": "",
          "type": "uint256"
        }
      ],
      "name": "matches",
      "outputs": [
        {
          "internalType": "string",
          "name": "",
          "type": "string"
        }
      ],
      "stateMutability": "view",
      "type": "function"
    },
    {
      "inputs": [
        {
          "internalType": "uint256",
          "name": "",
          "type": "uint256"
        }
      ],
      "name": "mintRewardsClaimed",
      "outputs": [
        {
          "internalType": "bool",
          "name": "",
          "type": "bool"
        }
      ],
      "stateMutability": "view",
      "type": "function"
    },
    {
      "inputs": [],
      "name": "nextNFTId",
      "outputs": [
        {
          "internalType": "uint256",
          "name": "",
          "type": "uint256"
        }
      ],
      "stateMutability": "view",
      "type": "function"
    },
    {
      "inputs": [
        {
          "internalType": "uint256",
          "name": "",
          "type": "uint256"
        }
      ],
      "name": "nftGroup",
      "outputs": [
        {
          "internalType": "uint256",
          "name": "",
          "type": "uint256"
        }
      ],
      "stateMutability": "view",
      "type": "function"
    },
    {
      "inputs": [
        {
          "internalType": "uint256",
          "name": "",
          "type": "uint256"
        }
      ],
      "name": "nftTradedPrices",
      "outputs": [
        {
          "internalType": "uint256",
          "name": "",
          "type": "uint256"
        }
      ],
      "stateMutability": "view",
      "type": "function"
    },
    {
      "inputs": [
        {
          "internalType": "uint256",
          "name": "",
          "type": "uint256"
        }
      ],
      "name": "nftVotes",
      "outputs": [
        {
          "internalType": "uint256",
          "name": "",
          "type": "uint256"
        }
      ],
      "stateMutability": "view",
      "type": "function"
    },
    {
      "inputs": [
        {
          "internalType": "address",
          "name": "",
          "type": "address"
        },
        {
          "internalType": "uint256",
          "name": "",
          "type": "uint256"
        }
      ],
      "name": "nfts",
      "outputs": [
        {
          "internalType": "uint256",
          "name": "",
          "type": "uint256"
        }
      ],
      "stateMutability": "view",
      "type": "function"
    },
    {
      "inputs": [
        {
          "internalType": "address",
          "name": "",
          "type": "address"
        }
      ],
      "name": "operators",
      "outputs": [
        {
          "internalType": "bool",
          "name": "",
          "type": "bool"
        }
      ],
      "stateMutability": "view",
      "type": "function"
    },
    {
      "inputs": [],
      "name": "owner",
      "outputs": [
        {
          "internalType": "address",
          "name": "",
          "type": "address"
        }
      ],
      "stateMutability": "view",
      "type": "function"
    },
    {
      "inputs": [],
      "name": "pinAddress",
      "outputs": [
        {
          "internalType": "address",
          "name": "",
          "type": "address"
        }
      ],
      "stateMutability": "view",
      "type": "function"
    },
    {
      "inputs": [],
      "name": "renounceOwnership",
      "outputs": [],
      "stateMutability": "nonpayable",
      "type": "function"
    },
    {
      "inputs": [
        {
          "internalType": "uint256",
          "name": "",
          "type": "uint256"
        }
      ],
      "name": "stakingBases",
      "outputs": [
        {
          "internalType": "uint256",
          "name": "",
          "type": "uint256"
        }
      ],
      "stateMutability": "view",
      "type": "function"
    },
    {
      "inputs": [],
      "name": "tokenLockId",
      "outputs": [
        {
          "internalType": "uint256",
          "name": "",
          "type": "uint256"
        }
      ],
      "stateMutability": "view",
      "type": "function"
    },
    {
      "inputs": [],
      "name": "tokenLocker",
      "outputs": [
        {
          "internalType": "address",
          "name": "",
          "type": "address"
        }
      ],
      "stateMutability": "view",
      "type": "function"
    },
    {
      "inputs": [
        {
          "internalType": "address",
          "name": "",
          "type": "address"
        }
      ],
      "name": "totalVotedBalances",
      "outputs": [
        {
          "internalType": "uint256",
          "name": "",
          "type": "uint256"
        }
      ],
      "stateMutability": "view",
      "type": "function"
    },
    {
      "inputs": [
        {
          "internalType": "address",
          "name": "newOwner",
          "type": "address"
        }
      ],
      "name": "transferOwnership",
      "outputs": [],
      "stateMutability": "nonpayable",
      "type": "function"
    },
    {
      "inputs": [],
      "name": "treasury",
      "outputs": [
        {
          "internalType": "contract ITreasury",
          "name": "",
          "type": "address"
        }
      ],
      "stateMutability": "view",
      "type": "function"
    },
    {
      "inputs": [],
      "name": "uink",
      "outputs": [
        {
          "internalType": "address",
          "name": "",
          "type": "address"
        }
      ],
      "stateMutability": "view",
      "type": "function"
    },
    {
      "inputs": [
        {
          "internalType": "address",
          "name": "",
          "type": "address"
        }
      ],
      "name": "unbondedBalances",
      "outputs": [
        {
          "internalType": "uint256",
          "name": "",
          "type": "uint256"
        }
      ],
      "stateMutability": "view",
      "type": "function"
    },
    {
      "inputs": [
        {
          "internalType": "address",
          "name": "",
          "type": "address"
        },
        {
          "internalType": "uint256",
          "name": "",
          "type": "uint256"
        }
      ],
      "name": "unbondingBalances",
      "outputs": [
        {
          "internalType": "uint256",
          "name": "value",
          "type": "uint256"
        },
        {
          "internalType": "uint256",
          "name": "unbondedAt",
          "type": "uint256"
        },
        {
          "internalType": "uint256",
          "name": "redeemed",
          "type": "uint256"
        }
      ],
      "stateMutability": "view",
      "type": "function"
    },
    {
      "inputs": [
        {
          "internalType": "address",
          "name": "",
          "type": "address"
        },
        {
          "internalType": "uint256",
          "name": "",
          "type": "uint256"
        },
        {
          "internalType": "uint256",
          "name": "",
          "type": "uint256"
        }
      ],
      "name": "userDailyVotes",
      "outputs": [
        {
          "internalType": "uint256",
          "name": "",
          "type": "uint256"
        }
      ],
      "stateMutability": "view",
      "type": "function"
    },
    {
      "inputs": [
        {
          "internalType": "address",
          "name": "",
          "type": "address"
        },
        {
          "internalType": "uint256",
          "name": "",
          "type": "uint256"
        }
      ],
      "name": "userNFTVotes",
      "outputs": [
        {
          "internalType": "uint256",
          "name": "",
          "type": "uint256"
        }
      ],
      "stateMutability": "view",
      "type": "function"
    },
    {
      "inputs": [
        {
          "internalType": "address",
          "name": "",
          "type": "address"
        },
        {
          "internalType": "uint256",
          "name": "",
          "type": "uint256"
        },
        {
          "internalType": "uint256",
          "name": "",
          "type": "uint256"
        }
      ],
      "name": "userVotes",
      "outputs": [
        {
          "internalType": "uint256",
          "name": "",
          "type": "uint256"
        }
      ],
      "stateMutability": "view",
      "type": "function"
    },
    {
      "inputs": [
        {
          "internalType": "address",
          "name": "",
          "type": "address"
        }
      ],
      "name": "voteRatio",
      "outputs": [
        {
          "internalType": "uint256",
          "name": "",
          "type": "uint256"
        }
      ],
      "stateMutability": "view",
      "type": "function"
    },
    {
      "inputs": [],
      "name": "voteRatioMax",
      "outputs": [
        {
          "internalType": "uint256",
          "name": "",
          "type": "uint256"
        }
      ],
      "stateMutability": "view",
      "type": "function"
    },
    {
      "inputs": [
        {
          "internalType": "address",
          "name": "",
          "type": "address"
        },
        {
          "internalType": "uint256",
          "name": "",
          "type": "uint256"
        },
        {
          "internalType": "uint256",
          "name": "",
          "type": "uint256"
        }
      ],
      "name": "voteRewardsClaimed",
      "outputs": [
        {
          "internalType": "bool",
          "name": "",
          "type": "bool"
        }
      ],
      "stateMutability": "view",
      "type": "function"
    },
    {
      "inputs": [
        {
          "internalType": "uint256",
          "name": "",
          "type": "uint256"
        }
      ],
      "name": "voteTokens",
      "outputs": [
        {
          "internalType": "address",
          "name": "",
          "type": "address"
        }
      ],
      "stateMutability": "view",
      "type": "function"
    },
    {
      "inputs": [
        {
          "internalType": "address",
          "name": "",
          "type": "address"
        },
        {
          "internalType": "uint256",
          "name": "",
          "type": "uint256"
        }
      ],
      "name": "votedBalances",
      "outputs": [
        {
          "internalType": "uint256",
          "name": "available",
          "type": "uint256"
        },
        {
          "internalType": "uint256",
          "name": "freezed",
          "type": "uint256"
        },
        {
          "internalType": "uint256",
          "name": "votedAt",
          "type": "uint256"
        }
      ],
      "stateMutability": "view",
      "type": "function"
    },
    {
      "inputs": [],
      "name": "weeklyCap",
      "outputs": [
        {
          "internalType": "uint256",
          "name": "",
          "type": "uint256"
        }
      ],
      "stateMutability": "view",
      "type": "function"
    },
    {
      "inputs": [
        {
          "internalType": "address",
          "name": "_token",
          "type": "address"
        },
        {
          "internalType": "uint256",
          "name": "_ratio",
          "type": "uint256"
        }
      ],
      "name": "addVoteToken",
      "outputs": [],
      "stateMutability": "nonpayable",
      "type": "function"
    },
    {
      "inputs": [
        {
          "internalType": "address",
          "name": "_auction",
          "type": "address"
        }
      ],
      "name": "setAuctionAddress",
      "outputs": [],
      "stateMutability": "nonpayable",
      "type": "function"
    },
    {
      "inputs": [
        {
          "internalType": "address",
          "name": "_pin",
          "type": "address"
        }
      ],
      "name": "setPinAddress",
      "outputs": [],
      "stateMutability": "nonpayable",
      "type": "function"
    },
    {
      "inputs": [
        {
          "internalType": "uint256",
          "name": "lockId",
          "type": "uint256"
        }
      ],
      "name": "setTokenLockId",
      "outputs": [],
      "stateMutability": "nonpayable",
      "type": "function"
    },
    {
      "inputs": [
        {
          "internalType": "uint256",
          "name": "stakingBase",
          "type": "uint256"
        },
        {
          "internalType": "uint256",
          "name": "startTime",
          "type": "uint256"
        },
        {
          "internalType": "string",
          "name": "matchId",
          "type": "string"
        }
      ],
      "name": "addGroup",
      "outputs": [],
      "stateMutability": "nonpayable",
      "type": "function"
    },
    {
      "inputs": [
        {
          "internalType": "uint256",
          "name": "groupId",
          "type": "uint256"
        },
        {
          "internalType": "address[]",
          "name": "nftAddrs",
          "type": "address[]"
        },
        {
          "internalType": "uint256[]",
          "name": "nftIds",
          "type": "uint256[]"
        }
      ],
      "name": "addNFT",
      "outputs": [],
      "stateMutability": "nonpayable",
      "type": "function"
    },
    {
      "inputs": [
        {
          "internalType": "uint256",
          "name": "groupId",
          "type": "uint256"
        }
      ],
      "name": "getAuctionPrices",
      "outputs": [
        {
          "internalType": "uint256[]",
          "name": "prices",
          "type": "uint256[]"
        },
        {
          "internalType": "uint256",
          "name": "totalAmount",
          "type": "uint256"
        }
      ],
      "stateMutability": "view",
      "type": "function"
    },
    {
      "inputs": [
        {
          "internalType": "uint256",
          "name": "ts",
          "type": "uint256"
        }
      ],
      "name": "getDate",
      "outputs": [
        {
          "internalType": "uint256",
          "name": "",
          "type": "uint256"
        }
      ],
      "stateMutability": "pure",
      "type": "function"
    },
    {
      "inputs": [
        {
          "internalType": "uint256",
          "name": "groupId",
          "type": "uint256"
        }
      ],
      "name": "getVotableDates",
      "outputs": [
        {
          "internalType": "uint256[]",
          "name": "dates",
          "type": "uint256[]"
        }
      ],
      "stateMutability": "view",
      "type": "function"
    },
    {
      "inputs": [
        {
          "internalType": "address",
          "name": "user",
          "type": "address"
        },
        {
          "internalType": "address",
          "name": "token",
          "type": "address"
        },
        {
          "internalType": "address",
          "name": "nftAddr",
          "type": "address"
        },
        {
          "internalType": "uint256",
          "name": "nftId",
          "type": "uint256"
        }
      ],
      "name": "getAvailableBalance",
      "outputs": [
        {
          "internalType": "uint256",
          "name": "",
          "type": "uint256"
        }
      ],
      "stateMutability": "view",
      "type": "function"
    },
    {
      "inputs": [
        {
          "internalType": "address",
          "name": "nftAddr",
          "type": "address"
        },
        {
          "internalType": "uint256",
          "name": "nftId",
          "type": "uint256"
        },
        {
          "internalType": "address",
          "name": "token",
          "type": "address"
        },
        {
          "internalType": "uint256",
          "name": "amount",
          "type": "uint256"
        }
      ],
      "name": "stake",
      "outputs": [],
      "stateMutability": "nonpayable",
      "type": "function"
    },
    {
      "inputs": [
        {
          "internalType": "address",
          "name": "nftAddr",
          "type": "address"
        },
        {
          "internalType": "uint256",
          "name": "nftId",
          "type": "uint256"
        },
        {
          "internalType": "address",
          "name": "token",
          "type": "address"
        },
        {
          "internalType": "uint256",
          "name": "amount",
          "type": "uint256"
        }
      ],
      "name": "unstake",
      "outputs": [],
      "stateMutability": "nonpayable",
      "type": "function"
    },
    {
      "inputs": [
        {
          "internalType": "address",
          "name": "user",
          "type": "address"
        }
      ],
      "name": "getTotalRewards",
      "outputs": [
        {
          "internalType": "uint256",
          "name": "",
          "type": "uint256"
        }
      ],
      "stateMutability": "view",
      "type": "function"
    },
    {
      "inputs": [
        {
          "internalType": "address",
          "name": "user",
          "type": "address"
        },
        {
          "internalType": "uint256",
          "name": "groupId",
          "type": "uint256"
        }
      ],
      "name": "getBaseRewards",
      "outputs": [
        {
          "internalType": "uint256",
          "name": "",
          "type": "uint256"
        }
      ],
      "stateMutability": "view",
      "type": "function"
    },
    {
      "inputs": [
        {
          "internalType": "address",
          "name": "user",
          "type": "address"
        },
        {
          "internalType": "uint256",
          "name": "groupId",
          "type": "uint256"
        }
      ],
      "name": "getAuctionRewards",
      "outputs": [
        {
          "internalType": "uint256",
          "name": "",
          "type": "uint256"
        }
      ],
      "stateMutability": "view",
      "type": "function"
    },
    {
      "inputs": [
        {
          "internalType": "address",
          "name": "user",
          "type": "address"
        },
        {
          "internalType": "address",
          "name": "nftAddr",
          "type": "address"
        },
        {
          "internalType": "uint256",
          "name": "nftId",
          "type": "uint256"
        }
      ],
      "name": "getUnvotableBalance",
      "outputs": [
        {
          "internalType": "uint256",
          "name": "",
          "type": "uint256"
        }
      ],
      "stateMutability": "view",
      "type": "function"
    },
    {
      "inputs": [
        {
          "internalType": "address",
          "name": "nftAddr",
          "type": "address"
        },
        {
          "internalType": "uint256",
          "name": "nftId",
          "type": "uint256"
        }
      ],
      "name": "voteFromLock",
      "outputs": [],
      "stateMutability": "nonpayable",
      "type": "function"
    },
    {
      "inputs": [
        {
          "internalType": "address",
          "name": "nftAddr",
          "type": "address"
        },
        {
          "internalType": "uint256",
          "name": "nftId",
          "type": "uint256"
        },
        {
          "internalType": "uint256",
          "name": "amount",
          "type": "uint256"
        }
      ],
      "name": "voteBonded",
      "outputs": [],
      "stateMutability": "nonpayable",
      "type": "function"
    },
    {
      "inputs": [
        {
          "internalType": "address",
          "name": "nftAddr",
          "type": "address"
        },
        {
          "internalType": "uint256",
          "name": "nftId",
          "type": "uint256"
        },
        {
          "internalType": "uint256",
          "name": "amount",
          "type": "uint256"
        }
      ],
      "name": "unvoteBonded",
      "outputs": [],
      "stateMutability": "nonpayable",
      "type": "function"
    },
    {
      "inputs": [
        {
          "internalType": "uint256",
          "name": "amount",
          "type": "uint256"
        }
      ],
      "name": "unbond",
      "outputs": [],
      "stateMutability": "nonpayable",
      "type": "function"
    },
    {
      "inputs": [
        {
          "internalType": "uint256",
          "name": "index",
          "type": "uint256"
        }
      ],
      "name": "redeemUnbonding",
      "outputs": [],
      "stateMutability": "nonpayable",
      "type": "function"
    },
    {
      "inputs": [
        {
          "internalType": "address",
          "name": "nftAddr",
          "type": "address"
        },
        {
          "internalType": "uint256",
          "name": "nftId",
          "type": "uint256"
        },
        {
          "internalType": "address",
          "name": "to",
          "type": "address"
        }
      ],
      "name": "claimMintRewards",
      "outputs": [],
      "stateMutability": "nonpayable",
      "type": "function"
    },
    {
      "inputs": [
        {
          "internalType": "uint256",
          "name": "groupId",
          "type": "uint256"
        }
      ],
      "name": "getTradeWeights",
      "outputs": [
        {
          "internalType": "uint256[]",
          "name": "weights",
          "type": "uint256[]"
        }
      ],
      "stateMutability": "view",
      "type": "function"
    },
    {
      "inputs": [
        {
          "internalType": "uint256",
          "name": "groupId",
          "type": "uint256"
        }
      ],
      "name": "setAuctionFinish",
      "outputs": [],
      "stateMutability": "nonpayable",
      "type": "function"
    },
    {
      "inputs": [
        {
          "internalType": "uint256",
          "name": "groupId",
          "type": "uint256"
        }
      ],
      "name": "getAuctionRewardRates",
      "outputs": [
        {
          "internalType": "uint256[]",
          "name": "auctionRewardRates",
          "type": "uint256[]"
        }
      ],
      "stateMutability": "view",
      "type": "function"
    },
    {
      "inputs": [
        {
          "internalType": "uint256",
          "name": "groupId",
          "type": "uint256"
        },
        {
          "internalType": "uint256",
          "name": "date",
          "type": "uint256"
        }
      ],
      "name": "getDailyVotes",
      "outputs": [
        {
          "internalType": "uint256",
          "name": "",
          "type": "uint256"
        }
      ],
      "stateMutability": "view",
      "type": "function"
    },
    {
      "inputs": [
        {
          "internalType": "uint256",
          "name": "groupId",
          "type": "uint256"
        }
      ],
      "name": "getWeightsAndInflations",
      "outputs": [
        {
          "internalType": "uint256[]",
          "name": "weights",
          "type": "uint256[]"
        },
        {
          "internalType": "uint256[]",
          "name": "inflations",
          "type": "uint256[]"
        }
      ],
      "stateMutability": "view",
      "type": "function"
    },
    {
      "inputs": [
        {
          "internalType": "uint256",
          "name": "groupId",
          "type": "uint256"
        }
      ],
      "name": "getBaseRewardRates",
      "outputs": [
        {
          "internalType": "uint256[]",
          "name": "rewardRates",
          "type": "uint256[]"
        }
      ],
      "stateMutability": "view",
      "type": "function"
    },
    {
      "inputs": [
        {
          "internalType": "uint256",
          "name": "groupId",
          "type": "uint256"
        }
      ],
      "name": "getMintRewardsPerNFT",
      "outputs": [
        {
          "internalType": "uint256[]",
          "name": "mintRewards",
          "type": "uint256[]"
        }
      ],
      "stateMutability": "view",
      "type": "function"
    }
  ],
  "bytecode": "0x608060405266b1a2bc2ec5000060015560046007600154620000229190620002cb565b6200002e9190620002cb565b60025560046007600154620000449190620002cb565b620000509190620002cb565b6003556002600154620000649190620002cb565b6004556000600a55600060135561271060195560006026553480156200008957600080fd5b506040516200477438038062004774833981016040819052620000ac9162000294565b620000d2620000c3640100000000620001ff810204565b64010000000062000203810204565b60078054600160a060020a031916600160a060020a038416908117909155604080517fa88d8fea000000000000000000000000000000000000000000000000000000008152905163a88d8fea91600480820192602092909190829003018186803b1580156200014057600080fd5b505afa15801562000155573d6000803e3d6000fd5b505050506040513d601f19601f820116820180604052508101906200017b919062000270565b60068054600160a060020a03928316600160a060020a031991821681178355602780549585169583169590951790945560178054600181019091557fc624b66cc0138b8fabc209247f72d758e1cf3343756d543badbf24212bed8c150180549091169093179092556019549154166000908152601860205260409020555062000305565b3390565b60008054600160a060020a03838116600160a060020a0319831681178455604051919092169283917f8be0079c531659141344cd1fd0a4f28419497f9722a3daafe3b4186f6b6457e09190a35050565b8051600160a060020a03811681146200026b57600080fd5b919050565b60006020828403121562000282578081fd5b6200028d8262000253565b9392505050565b60008060408385031215620002a7578081fd5b620002b28362000253565b9150620002c26020840162000253565b90509250929050565b60008262000300577f4e487b710000000000000000000000000000000000000000000000000000000081526012600452602481fd5b500490565b61445f80620003156000396000f3fe608060405234801561001057600080fd5b506004361061042f576000357c010000000000000000000000000000000000000000000000000000000090048063715018a61161023d578063a88d8fea1161014d578063d0f86b26116100d5578063f2fde38b116100a4578063f2fde38b14610afc578063f44e3ce114610b0f578063f7a64da314610b22578063f8df0cd314610b53578063fa119fee14610b6657600080fd5b8063d0f86b2614610aba578063da043af314610acd578063e325fb4b14610ae0578063f298e49314610ae957600080fd5b8063c4f6da121161011c578063c4f6da1214610a4b578063c7780c7314610a6b578063c7c8895614610a7e578063c909adc014610a9e578063d0b5efa914610aa757600080fd5b8063a88d8fea146109e0578063ad3bac1a146109f3578063b5345afa14610a06578063bba1189a14610a3857600080fd5b806383fd1a54116101d0578063938f17371161019f578063938f17371461094d57806393ac36381461098757806396324bd41461099a5780639d9d9a10146109ba578063a80bf3e6146109cd57600080fd5b806383fd1a54146108f55780638503d2cd146109085780638da5cb5b1461091b5780638f4d41e81461092c57600080fd5b8063776498d41161020c578063776498d4146108855780637d9f6db51461088e5780638049e17b146108a1578063814e7c0f146108d257600080fd5b8063715018a6146108415780637523d4bd14610849578063768218271461086957806376ec17b71461087257600080fd5b806343af356b11610343578063563c5e30116102cb5780636482ff981161029a5780636482ff981461077257806364ebaaeb14610785578063660dbeb8146107b35780636b942b86146107c65780636f700e251461082157600080fd5b8063563c5e30146106f35780635a8542be1461071e57806361d027b31461073f57806363c0ea101461075257600080fd5b80634e4b61c3116103125780634e4b61c31461066c5780634f8d32be1461068c578063502a1d3f14610695578063515cc532146106b557806352a437fe146106c857600080fd5b806343af356b146105b857806346aa25a2146105e35780634768d4ef146106215780634dc1a3e01461064157600080fd5b806317a9c7bd116103c657806328ad5ba61161039557806328ad5ba61461056d5780632b57298b146105765780632bcf161c1461058957806334e7a1a81461059c57806337867c94146105af57600080fd5b806317a9c7bd146105145780632281dfa414610534578063259239a11461054757806327de9e321461055a57600080fd5b80630d265df9116104025780630d265df914610495578063126f648c146104b557806313e7c9d8146104e8578063171b612c1461050b57600080fd5b8063040308e4146104345780630713ee7e1461045a578063079dc7f41461046f5780630971823f14610482575b600080fd5b610447610442366004613da6565b610b79565b6040519081526020015b60405180910390f35b61046d610468366004613f06565b610c21565b005b61044761047d366004614001565b610e32565b610447610490366004613e36565b610ed4565b6104a86104a3366004613f5a565b61102f565b60405161045191906140d7565b6104d86104c3366004613f5a565b600c6020526000908152604090205460ff1681565b6040519015158152602001610451565b6104d86104f6366004613d6e565b60246020526000908152604090205460ff1681565b61044760025481565b610447610522366004613f5a565b60156020526000908152604090205481565b61046d610542366004613e36565b6111d1565b61046d610555366004613ecf565b611418565b61046d610568366004613f5a565b611766565b61044760035481565b610447610584366004613f5a565b6118af565b610447610597366004613d6e565b6118c8565b61046d6105aa366004613f5a565b611919565b610447600a5481565b6104476105c6366004613e36565b601260209081526000928352604080842090915290825290205481565b6105f66105f1366004614001565b611a90565b60408051948552600160a060020a039384166020860152840191909152166060820152608001610451565b61063461062f366004613f5a565b611ae2565b604051610451919061413a565b60255461065490600160a060020a031681565b604051600160a060020a039091168152602001610451565b61044761067a366004613f5a565b601f6020526000908152604090205481565b61044760015481565b6104476106a3366004613d6e565b60186020526000908152604090205481565b6104a86106c3366004613f5a565b611b7c565b6104476106d6366004614001565b600e60209081526000928352604080842090915290825290205481565b610447610701366004613e36565b601160209081526000928352604080842090915290825290205481565b61073161072c366004613f5a565b611ce9565b604051610451929190614118565b60075461065490600160a060020a031681565b610447610760366004613f5a565b60146020526000908152604090205481565b610654610780366004613f5a565b611e68565b6104d8610793366004613e36565b602160209081526000928352604080842090915290825290205460ff1681565b6104476107c1366004613df6565b611e92565b6108066107d4366004613df6565b601a60209081526000938452604080852082529284528284209052825290208054600182015460029092015490919083565b60408051938452602084019290925290820152606001610451565b61044761082f366004613d6e565b601c6020526000908152604090205481565b61046d611f2e565b610447610857366004613d6e565b601e6020526000908152604090205481565b61044760265481565b61046d610880366004613ecf565b611f67565b61044760195481565b60085461065490600160a060020a031681565b6104476108af366004613f06565b600f60209081526000938452604080852082529284528284209052825290205481565b6104d86108e0366004613f5a565b60226020526000908152604090205460ff1681565b61046d610903366004613f06565b612290565b61046d610916366004613f8a565b612473565b600054600160a060020a0316610654565b61093f61093a366004613f5a565b6127dc565b6040516104519291906140ea565b61080661095b366004613e36565b601b60209081526000928352604080842090915290825290208054600182015460029092015490919083565b61046d610995366004613d6e565b612ab6565b6104476109a8366004613f5a565b60096020526000908152604090205481565b6104a86109c8366004613f5a565b612b12565b60275461065490600160a060020a031681565b60065461065490600160a060020a031681565b61046d610a01366004613d6e565b612c6c565b6104d8610a14366004613f06565b60208080526000938452604080852082529284528284209052825290205460ff1681565b61046d610a46366004614022565b612cc8565b610447610a59366004613f5a565b60056020526000908152604090205481565b6104a8610a79366004613f5a565b612d4b565b610447610a8c366004613f5a565b60166020526000908152604090205481565b61044760135481565b61046d610ab5366004613f5a565b613014565b610447610ac8366004613e36565b61305c565b61046d610adb366004613e36565b61317c565b61044760045481565b61046d610af7366004613f5a565b61328e565b61046d610b0a366004613d6e565b6132c0565b61046d610b1d366004613e8e565b613378565b610447610b30366004613f06565b601060209081526000938452604080852082529284528284209052825290205481565b610806610b61366004613e36565b6135da565b6104a8610b74366004613f5a565b61361c565b600160a060020a0380831660009081526012602090815260408083208584528252808320548885168452601a835281842094881684529382528083208484528252808320815160608101835281548082526001830154948201949094526002909101549181019190915291929190610bf0426118af565b610bfd83604001516118af565b1015610c16576020820151610c139082906136d5565b90505b979650505050505050565b600a54600090815260096020526040902054421015610c5e5760405160e560020a62461bcd028152600401610c559061423f565b60405180910390fd5b600a546000908152600960205260409020544290610c7f9062093a806136d5565b1015610ca05760405160e560020a62461bcd028152600401610c5590614276565b600160a060020a038316600090815260126020908152604080832085845290915290205483908390610ce75760405160e560020a62461bcd028152600401610c55906142ad565b33610cf1816118c8565b600160a060020a038216600090815260236020526040812091909155610d16336136e8565b9050848111610d6a5760405160e560020a62461bcd02815260206004820152601b60248201527f496e73756666696369656e7420626f6e6465642062616c616e636500000000006044820152606401610c55565b610d7633888888613744565b600160a060020a0387166000908152601260209081526040808320898452825280832054338452601b8352818420818552909252909120610db6426118af565b610dc382600201546118af565b1015610de35760018101548154610dd9916136d5565b8155600060018201555b6001810154610df290886136d5565b6001820155426002820155336000908152601c6020526040902054610e1790886136d5565b336000908152601c6020526040902055505050505050505050565b600080805b6000858152600d6020526040902054811015610eca576000858152600d60205260408120805483908110610e7e5760e060020a634e487b7102600052603260045260246000fd5b60009182526020808320600490920290910154878352600e82526040808420828552909252912054909150610eb49084906136d5565b9250508080610ec2906143b3565b915050610e37565b5090505b92915050565b600080610ee08361361c565b90506000610eed84611b7c565b9050600080610efb426118af565b905060005b84518110156110235781858281518110610f2d5760e060020a634e487b7102600052603260045260246000fd5b602002602001015110610f3f57611023565b6000611001670de0b6b3a7640000610ffb878581518110610f735760e060020a634e487b7102600052603260045260246000fd5b6020026020010151601060008e600160a060020a0316600160a060020a0316815260200190815260200160002060008d815260200190815260200160002060008b8881518110610fd65760e060020a634e487b7102600052603260045260246000fd5b602002602001015181526020019081526020016000205461399990919063ffffffff16565b906139a5565b905061100d84826136d5565b935050808061101b906143b3565b915050610f00565b50909695505050505050565b6000818152600d60209081526040808320805482518185028101850190935280835260609493849084015b828210156110be576000848152602090819020604080516080810182526004860290920180548352600180820154600160a060020a03908116858701526002830154938501939093526003909101549091166060830152908352909201910161105a565b505050509050805167ffffffffffffffff8111156110ef5760e060020a634e487b7102600052604160045260246000fd5b604051908082528060200260200182016040528015611118578160200160208202803683370190505b50915060008061112785611ce9565b909250905080156111c95760005b83518110156111c75761118782610ffb670de0b6b3a76400008685815181106111715760e060020a634e487b7102600052603260045260246000fd5b602002602001015161399990919063ffffffff16565b8582815181106111aa5760e060020a634e487b7102600052603260045260246000fd5b6020908102919091010152806111bf816143b3565b915050611135565b505b505050919050565b600a546000908152600960205260409020544210156112055760405160e560020a62461bcd028152600401610c559061423f565b600a5460009081526009602052604090205442906112269062093a806136d5565b10156112475760405160e560020a62461bcd028152600401610c5590614276565b600160a060020a03821660009081526012602090815260408083208484529091529020548290829061128e5760405160e560020a62461bcd028152600401610c55906142ad565b33611298816118c8565b600160a060020a038281166000908152602360205260408082209390935560275460265493517fc7b1e3f20000000000000000000000000000000000000000000000000000000081526004810194909452336024850152909291169063c7b1e3f290604401602060405180830381600087803b15801561131757600080fd5b505af115801561132b573d6000803e3d6000fd5b505050506040513d601f19601f8201168201806040525081019061134f9190613f72565b905061135d33878784613744565b600160a060020a0386166000908152601260209081526040808320888452825280832054338452601b835281842081855290925290912061139d426118af565b6113aa82600201546118af565b10156113ca57600181015481546113c0916136d5565b8155600060018201555b60018101546113d990846136d5565b6001820155426002820155336000908152601c60205260409020546113fe90846136d5565b336000908152601c60205260409020555050505050505050565b816000805b60175481101561148b5782600160a060020a0316601782815481106114555760e060020a634e487b7102600052603260045260246000fd5b600091825260209091200154600160a060020a03161415611479576001915061148b565b80611483816143b3565b91505061141d565b50806114dc5760405160e560020a62461bcd02815260206004820152601260248201527f496e76616c696420566f746520546f6b656e00000000000000000000000000006044820152606401610c55565b600a546000908152600960205260409020544210156115105760405160e560020a62461bcd028152600401610c559061423f565b600a5460009081526009602052604090205442906115319062093a806136d5565b10156115525760405160e560020a62461bcd028152600401610c5590614276565b600160a060020a0386166000908152601260209081526040808320888452909152902054869086906115995760405160e560020a62461bcd028152600401610c55906142ad565b336115a3816118c8565b600160a060020a0382166000908152602360205260409020558561160c5760405160e560020a62461bcd02815260206004820152600e60248201527f416d6f756e74206973207a65726f0000000000000000000000000000000000006044820152606401610c55565b600061161888886139b1565b9050611626338b8b84613744565b6040517f23b872dd00000000000000000000000000000000000000000000000000000000815233600482015230602482015260448101889052600160a060020a038916906323b872dd90606401602060405180830381600087803b15801561168d57600080fd5b505af11580156116a1573d6000803e3d6000fd5b505050506040513d601f19601f820116820180604052508101906116c59190613f3a565b50600160a060020a03808b1660009081526012602090815260408083208d8452825280832054338452601a8352818420948d1684529382528083208484529091529020611711426118af565b61171e82600201546118af565b101561173e5760018101548154611734916136d5565b8155600060018201555b600181015461174d908a6136d5565b6001820155426002909101555050505050505050505050565b33611770816118c8565b600160a060020a038216600090815260236020526040812091909155611795336136e8565b90508281116117e95760405160e560020a62461bcd02815260206004820152601b60248201527f496e73756666696369656e7420626f6e6465642062616c616e636500000000006044820152606401610c55565b336000818152601d60209081526040808320815160608101835288815242818501908152818401868152835460018181018655948852868820935160039091029093019283559051928201929092559051600290910155928252601e9052205461185390846136d5565b336000818152601e6020526040908190209290925590517f7659747cd8571f1071eea946fdc648adcf181cad916f32a05f82c3a525976048906118a29086904290918252602082015260400190565b60405180910390a2505050565b6000610ece6118c183620151806139dd565b83906139e9565b60008060015b600a548111611912576118fe6118e4858361305c565b6118f86118f18785610ed4565b85906136d5565b906136d5565b91508061190a816143b3565b9150506118ce565b5092915050565b33611923816118c8565b600160a060020a038216600090815260236020908152604080832093909355338252601d905290812080548490811061196f5760e060020a634e487b7102600052603260045260246000fd5b9060005260206000209060030201905060006119a762015180610ffb61199885600101546118af565b6119a1426118af565b906139e9565b905060006119c7603c610ffb85600001548561399990919063ffffffff16565b905060006119e28460020154836139e990919063ffffffff16565b600285018390556007546040517fc8773af200000000000000000000000000000000000000000000000000000000815233600482015260248101839052919250600160a060020a03169063c8773af290604401602060405180830381600087803b158015611a4f57600080fd5b505af1158015611a63573d6000803e3d6000fd5b505050506040513d601f19601f82011682018060405250810190611a879190613f72565b50505050505050565b600d6020528160005260406000208181548110611aac57600080fd5b60009182526020909120600490910201805460018201546002830154600390930154919450600160a060020a0390811693501684565b600b6020526000908152604090208054611afb9061437b565b80601f0160208091040260200160405190810160405280929190818152602001828054611b279061437b565b8015611b745780601f10611b4957610100808354040283529160200191611b74565b820191906000526020600020905b815481529060010190602001808311611b5757829003601f168201915b505050505081565b60606000611b898361361c565b90506000611b96846127dc565b915050815167ffffffffffffffff811115611bc45760e060020a634e487b7102600052604160045260246000fd5b604051908082528060200260200182016040528015611bed578160200160208202803683370190505b50925060005b82518110156111c957611c05426118af565b838281518110611c285760e060020a634e487b7102600052603260045260246000fd5b60200260200101511115611c3b576111c9565b6000611c7186858481518110611c645760e060020a634e487b7102600052603260045260246000fd5b6020026020010151610e32565b90508015611cd657611ca681610ffb6002548686815181106111715760e060020a634e487b7102600052603260045260246000fd5b858381518110611cc95760e060020a634e487b7102600052603260045260246000fd5b6020026020010181815250505b5080611ce1816143b3565b915050611bf3565b6000818152600d60205260408120546060919067ffffffffffffffff811115611d255760e060020a634e487b7102600052604160045260246000fd5b604051908082528060200260200182016040528015611d4e578160200160208202803683370190505b50915060005b6000848152600d6020526040902054811015611e62576008546000858152600b602052604080822090517fe3c6623d0000000000000000000000000000000000000000000000000000000081529192600160a060020a03169163e3c6623d91611dc191869060040161418d565b604080518083038186803b158015611dd857600080fd5b505afa158015611dec573d6000803e3d6000fd5b505050506040513d601f19601f82011682018060405250810190611e109190613e61565b91505080848381518110611e375760e060020a634e487b7102600052603260045260246000fd5b6020908102919091010152611e4c83826136d5565b9250508080611e5a906143b3565b915050611d54565b50915091565b60178181548110611e7857600080fd5b600091825260209091200154600160a060020a0316905081565b600160a060020a0380831660009081526012602090815260408083208584528252808320549387168352601b82528083208484528252808320815160608101835281548082526001830154948201949094526002909101549181019190915291929190611efe426118af565b611f0b83604001516118af565b1015611f24576020820151611f219082906136d5565b90505b9695505050505050565b600054600160a060020a03163314611f5b5760405160e560020a62461bcd028152600401610c55906142e4565b611f6560006139f5565b565b816000805b601754811015611fda5782600160a060020a031660178281548110611fa45760e060020a634e487b7102600052603260045260246000fd5b600091825260209091200154600160a060020a03161415611fc85760019150611fda565b80611fd2816143b3565b915050611f6c565b508061202b5760405160e560020a62461bcd02815260206004820152601260248201527f496e76616c696420566f746520546f6b656e00000000000000000000000000006044820152606401610c55565b600160a060020a0386166000908152601260209081526040808320888452909152902054869086906120725760405160e560020a62461bcd028152600401610c55906142ad565b3361207c816118c8565b600160a060020a038216600090815260236020526040902055856120e55760405160e560020a62461bcd02815260206004820152600e60248201527f416d6f756e74206973207a65726f0000000000000000000000000000000000006044820152606401610c55565b60006120f333898c8c610b79565b9050868110156121485760405160e560020a62461bcd02815260206004820152601460248201527f496e73756666696369656e742062616c616e63650000000000000000000000006044820152606401610c55565b600061215489896139b1565b9050612162338c8c84613a52565b6040517fa9059cbb00000000000000000000000000000000000000000000000000000000815233600482015260248101899052600160a060020a038a169063a9059cbb90604401602060405180830381600087803b1580156121c357600080fd5b505af11580156121d7573d6000803e3d6000fd5b505050506040513d601f19601f820116820180604052508101906121fb9190613f3a565b50600160a060020a03808c1660009081526012602090815260408083208e8452825280832054338452601a8352818420948e1684529382528083208484529091529020612247426118af565b61225482600201546118af565b1015612274576001810154815461226a916136d5565b8155600060018201555b8054612280908b6139e9565b9055505050505050505050505050565b600a546000908152600960205260409020544210156122c45760405160e560020a62461bcd028152600401610c559061423f565b600a5460009081526009602052604090205442906122e59062093a806136d5565b10156123065760405160e560020a62461bcd028152600401610c5590614276565b600160a060020a03831660009081526012602090815260408083208584529091529020548390839061234d5760405160e560020a62461bcd028152600401610c55906142ad565b33612357816118c8565b600160a060020a03821660009081526023602052604081209190915561237e338888611e92565b90508481116123d25760405160e560020a62461bcd02815260206004820152601e60248201527f496e73756666696369656e7420756e766f7461626c652062616c616e636500006044820152606401610c55565b6123de33888888613a52565b600160a060020a0387166000908152601260209081526040808320898452825280832054338452601b835281842081855290925290912061241e426118af565b61242b82600201546118af565b101561244b5760018101548154612441916136d5565b8155600060018201555b805461245790886139e9565b8155336000908152601c6020526040902054610e1790886139e9565b600054600160a060020a031633146124a05760405160e560020a62461bcd028152600401610c55906142e4565b8281146124f25760405160e560020a62461bcd02815260206004820152600e60248201527f496e76616c696420706172616d730000000000000000000000000000000000006044820152606401610c55565b6000858152600d60205260408120905b84811015611a87576013805490600061251a836143b3565b9190505550601354601260008888858181106125495760e060020a634e487b7102600052603260045260246000fd5b905060200201602081019061255e9190613d6e565b600160a060020a0316600160a060020a0316815260200190815260200160002060008686858181106125a35760e060020a634e487b7102600052603260045260246000fd5b9050602002013581526020019081526020016000208190555060008686838181106125e15760e060020a634e487b7102600052603260045260246000fd5b90506020020160208101906125f69190613d6e565b600160a060020a0316636352211e8686858181106126275760e060020a634e487b7102600052603260045260246000fd5b905060200201356040518263ffffffff167c010000000000000000000000000000000000000000000000000000000002815260040161266891815260200190565b60206040518083038186803b15801561268057600080fd5b505afa158015612694573d6000803e3d6000fd5b505050506040513d601f19601f820116820180604052508101906126b89190613d8a565b905082604051806080016040528060135481526020018989868181106126f15760e060020a634e487b7102600052603260045260246000fd5b90506020020160208101906127069190613d6e565b600160a060020a031681526020018787868181106127375760e060020a634e487b7102600052603260045260246000fd5b60209081029290920135835250600160a060020a03948516918101919091528254600181810185556000948552828520845160049093020191825583830151908201805491871673ffffffffffffffffffffffffffffffffffffffff19928316179055604080850151600284015560609094015160039092018054929096169116179093556013548252601690925220879055806127d4816143b3565b915050612502565b60608060006127ea8461361c565b9050805167ffffffffffffffff8111156128175760e060020a634e487b7102600052604160045260246000fd5b604051908082528060200260200182016040528015612840578160200160208202803683370190505b509250805167ffffffffffffffff81111561286e5760e060020a634e487b7102600052604160045260246000fd5b604051908082528060200260200182016040528015612897578160200160208202803683370190505b50915060005b8151811015612aaf5760006128cf86848481518110611c645760e060020a634e487b7102600052603260045260246000fd5b6000878152600560205260409020549091506128f790610ffb83670de0b6b3a7640000613999565b85838151811061291a5760e060020a634e487b7102600052603260045260246000fd5b602002602001018181525050670429d069189e00008583815181106129525760e060020a634e487b7102600052603260045260246000fd5b6020026020010151101561299d576702c68af0bb14000084838151811061298c5760e060020a634e487b7102600052603260045260246000fd5b602002602001018181525050612a9c565b670429d069189e00008583815181106129c95760e060020a634e487b7102600052603260045260246000fd5b602002602001015110158015612a1057506709b6e64a8ec60000858381518110612a065760e060020a634e487b7102600052603260045260246000fd5b6020026020010151105b15612a6357848281518110612a385760e060020a634e487b7102600052603260045260246000fd5b602002602001015184838151811061298c5760e060020a634e487b7102600052603260045260246000fd5b670de0b6b3a7640000848381518110612a8f5760e060020a634e487b7102600052603260045260246000fd5b6020026020010181815250505b5080612aa7816143b3565b91505061289d565b5050915091565b600054600160a060020a03163314612ae35760405160e560020a62461bcd028152600401610c55906142e4565b6008805473ffffffffffffffffffffffffffffffffffffffff1916600160a060020a0392909216919091179055565b6000818152600d602052604090205460609067ffffffffffffffff811115612b4d5760e060020a634e487b7102600052604160045260246000fd5b604051908082528060200260200182016040528015612b76578160200160208202803683370190505b50905060005b6000838152600d6020526040902054811015612c665760008381526014602052604090205415612c5457600083815260146020908152604080832054600354600d9093529083208054612c24949293610ffb93909260159288908110612bf55760e060020a634e487b7102600052603260045260246000fd5b90600052602060002090600402016000015481526020019081526020016000205461399990919063ffffffff16565b828281518110612c475760e060020a634e487b7102600052603260045260246000fd5b6020026020010181815250505b80612c5e816143b3565b915050612b7c565b50919050565b600054600160a060020a03163314612c995760405160e560020a62461bcd028152600401610c55906142e4565b6025805473ffffffffffffffffffffffffffffffffffffffff1916600160a060020a0392909216919091179055565b600054600160a060020a03163314612cf55760405160e560020a62461bcd028152600401610c55906142e4565b600a8054906000612d05836143b3565b9091555050600a80546000908152600960209081526040808320879055835483526005825280832088905592548252600b905220612d44908383613c8c565b5050505050565b60606000612d588361102f565b90506000600d6000858152602001908152602001600020805480602002602001604051908101604052809291908181526020016000905b82821015612df3576000848152602090819020604080516080810182526004860290920180548352600180820154600160a060020a039081168587015260028301549385019390935260039091015490911660608301529083529092019101612d8f565b505050509050805167ffffffffffffffff811115612e245760e060020a634e487b7102600052604160045260246000fd5b604051908082528060200260200182016040528015612e4d578160200160208202803683370190505b5092506000612e5b856127dc565b9150506000612eb8670de0b6b3a7640000610ffb8460018651612e7e9190614364565b81518110612e9f5760e060020a634e487b7102600052603260045260246000fd5b602002602001015160045461399990919063ffffffff16565b905060005b835181101561300a5760156000858381518110612eed5760e060020a634e487b7102600052603260045260246000fd5b60200260200101516000015181526020019081526020016000205460001415612f46576000868281518110612f355760e060020a634e487b7102600052603260045260246000fd5b602002602001018181525050612ff8565b612fc860156000868481518110612f705760e060020a634e487b7102600052603260045260246000fd5b602002602001015160000151815260200190815260200160002054610ffb878481518110612fb15760e060020a634e487b7102600052603260045260246000fd5b60200260200101518561399990919063ffffffff16565b868281518110612feb5760e060020a634e487b7102600052603260045260246000fd5b6020026020010181815250505b80613002816143b3565b915050612ebd565b5050505050919050565b600054600160a060020a031633146130415760405160e560020a62461bcd028152600401610c55906142e4565b6000908152600c60205260409020805460ff19166001179055565b6000818152600c602052604081205460ff1661307a57506000610ece565b60008061308684612d4b565b905060005b6000858152600d602052604090205481101561317257600160a060020a0386166000908152601160209081526040808320888452600d90925282208054839190859081106130ec5760e060020a634e487b7102600052603260045260246000fd5b906000526020600020906004020160000154815260200190815260200160002054905061315c846118f8670de0b6b3a7640000610ffb8787815181106131455760e060020a634e487b7102600052603260045260246000fd5b60200260200101518661399990919063ffffffff16565b935050808061316a906143b3565b91505061308b565b5090949350505050565b600054600160a060020a031633146131a95760405160e560020a62461bcd028152600401610c55906142e4565b600160a060020a03821660009081526018602052604081208290555b60175481101561322f5782600160a060020a0316601782815481106131fd5760e060020a634e487b7102600052603260045260246000fd5b600091825260209091200154600160a060020a0316141561321d57505050565b80613227816143b3565b9150506131c5565b50601780546001810182556000919091527fc624b66cc0138b8fabc209247f72d758e1cf3343756d543badbf24212bed8c15018054600160a060020a03841673ffffffffffffffffffffffffffffffffffffffff199091161790555050565b600054600160a060020a031633146132bb5760405160e560020a62461bcd028152600401610c55906142e4565b602655565b600054600160a060020a031633146132ed5760405160e560020a62461bcd028152600401610c55906142e4565b600160a060020a03811661336c5760405160e560020a62461bcd02815260206004820152602660248201527f4f776e61626c653a206e6577206f776e657220697320746865207a65726f206160448201527f64647265737300000000000000000000000000000000000000000000000000006064820152608401610c55565b613375816139f5565b50565b602554600160a060020a031633146133d55760405160e560020a62461bcd02815260206004820152600960248201527f466f7262696464656e00000000000000000000000000000000000000000000006044820152606401610c55565b600160a060020a03831660009081526012602090815260408083208584528252808320548084526016835281842054602290935292205460ff161561345f5760405160e560020a62461bcd02815260206004820152600760248201527f436c61696d6564000000000000000000000000000000000000000000000000006044820152606401610c55565b6000805b6000838152600d6020526040902054811015613511576000838152600d602052604090208054859190839081106134ad5760e060020a634e487b7102600052603260045260246000fd5b90600052602060002090600402016000015414156134ff576134ce83612b12565b81815181106134f05760e060020a634e487b7102600052603260045260246000fd5b60200260200101519150613511565b80613509816143b3565b915050613463565b5080156135d2576007546040517fc8773af2000000000000000000000000000000000000000000000000000000008152600160a060020a038681166004830152602482018490529091169063c8773af290604401602060405180830381600087803b15801561357f57600080fd5b505af1158015613593573d6000803e3d6000fd5b505050506040513d601f19601f820116820180604052508101906135b79190613f72565b506000838152602260205260409020805460ff191660011790555b505050505050565b601d60205281600052604060002081815481106135f657600080fd5b600091825260209091206003909102018054600182015460029092015490935090915083565b6000818152600960205260409081902054815160078082526101008201909352606092816020016020820280368337019050509150600061365c826118af565b905060005b60078110156111c957613695613678826018614345565b61368390603c614345565b61368e90603c614345565b83906136d5565b8482815181106136b85760e060020a634e487b7102600052603260045260246000fd5b6020908102919091010152806136cd816143b3565b915050613661565b60006136e18284614319565b9392505050565b600160a060020a038116600090815260236020908152604080832054601e835281842054601c9093529083205490918391613722916136d5565b905080821161373257600061373c565b61373c82826139e9565b949350505050565b600061374f426118af565b9050600061375e600a5461361c565b600160a060020a03861660009081526012602090815260408083208884529091528120549192505b825181101561393a57838382815181106137b35760e060020a634e487b7102600052603260045260246000fd5b6020026020010151106139285760008382815181106137e55760e060020a634e487b7102600052603260045260246000fd5b6020908102919091018101516000818152600e83526040808220878352909352919091205490915061381790876136d5565b6000828152600e60209081526040808320878452825280832093909355600160a060020a038c168252600f815282822084835281528282208683529052205461386090876136d5565b600160a060020a038a166000818152600f60209081526040808320868452825280832088845282528083209490945591815260108252828120600a548252825282812084825290915220546138b590876136d5565b600160a060020a038a166000818152601060209081526040808320600a548452825280832086845282528083209490945591815260118252828120868252909152205461390290876136d5565b600160a060020a038a166000908152601160209081526040808320878452909152902055505b80613932816143b3565b915050613786565b5060008181526015602052604090205461395490856136d5565b600082815260156020908152604080832093909355600a54825260149052205461397e90856136d5565b600a5460009081526014602052604090205550505050505050565b60006136e18284614345565b60006136e18284614331565b601954600160a060020a03831660009081526018602052604081205490916136e191610ffb9085613999565b60006136e182846143ce565b60006136e18284614364565b60008054600160a060020a0383811673ffffffffffffffffffffffffffffffffffffffff19831681178455604051919092169283917f8be0079c531659141344cd1fd0a4f28419497f9722a3daafe3b4186f6b6457e09190a35050565b6000613a5d426118af565b90506000613a6c600a5461361c565b600160a060020a03861660009081526012602090815260408083208884529091528120549192505b8251811015613c485783838281518110613ac15760e060020a634e487b7102600052603260045260246000fd5b602002602001015110613c36576000838281518110613af35760e060020a634e487b7102600052603260045260246000fd5b6020908102919091018101516000818152600e835260408082208783529093529190912054909150613b2590876139e9565b6000828152600e60209081526040808320878452825280832093909355600160a060020a038c168252600f8152828220848352815282822086835290522054613b6e90876139e9565b600160a060020a038a166000818152600f60209081526040808320868452825280832088845282528083209490945591815260108252828120600a54825282528281208482529091522054613bc390876139e9565b600160a060020a038a166000818152601060209081526040808320600a5484528252808320868452825280832094909455918152601182528281208682529091522054613c1090876139e9565b600160a060020a038a166000908152601160209081526040808320878452909152902055505b80613c40816143b3565b915050613a94565b50600081815260156020526040902054613c6290856139e9565b600082815260156020908152604080832093909355600a54825260149052205461397e90856139e9565b828054613c989061437b565b90600052602060002090601f016020900481019282613cba5760008555613d00565b82601f10613cd35782800160ff19823516178555613d00565b82800160010185558215613d00579182015b82811115613d00578235825591602001919060010190613ce5565b50613d0c929150613d10565b5090565b5b80821115613d0c5760008155600101613d11565b60008083601f840112613d36578182fd5b50813567ffffffffffffffff811115613d4d578182fd5b6020830191508360208083028501011115613d6757600080fd5b9250929050565b600060208284031215613d7f578081fd5b81356136e181614414565b600060208284031215613d9b578081fd5b81516136e181614414565b60008060008060808587031215613dbb578283fd5b8435613dc681614414565b93506020850135613dd681614414565b92506040850135613de681614414565b9396929550929360600135925050565b600080600060608486031215613e0a578283fd5b8335613e1581614414565b92506020840135613e2581614414565b929592945050506040919091013590565b60008060408385031215613e48578182fd5b8235613e5381614414565b946020939093013593505050565b60008060408385031215613e73578182fd5b8251613e7e81614414565b6020939093015192949293505050565b600080600060608486031215613ea2578283fd5b8335613ead81614414565b9250602084013591506040840135613ec481614414565b809150509250925092565b60008060008060808587031215613ee4578384fd5b8435613eef81614414565b9350602085013592506040850135613de681614414565b600080600060608486031215613f1a578283fd5b8335613f2581614414565b95602085013595506040909401359392505050565b600060208284031215613f4b578081fd5b815180151581146136e1578182fd5b600060208284031215613f6b578081fd5b5035919050565b600060208284031215613f83578081fd5b5051919050565b600080600080600060608688031215613fa1578081fd5b85359450602086013567ffffffffffffffff80821115613fbf578283fd5b613fcb89838a01613d25565b90965094506040880135915080821115613fe3578283fd5b50613ff088828901613d25565b969995985093965092949392505050565b60008060408385031215614013578182fd5b50508035926020909101359150565b60008060008060608587031215614037578182fd5b8435935060208501359250604085013567ffffffffffffffff8082111561405c578384fd5b818701915087601f83011261406f578384fd5b81358181111561407d578485fd5b88602082850101111561408e578485fd5b95989497505060200194505050565b6000815180845260208085019450808401835b838110156140cc578151875295820195908201906001016140b0565b509495945050505050565b6020815260006136e1602083018461409d565b6040815260006140fd604083018561409d565b828103602084015261410f818561409d565b95945050505050565b60408152600061412b604083018561409d565b90508260208301529392505050565b6000602080835283518082850152825b818110156141665785810183015185820160400152820161414a565b818111156141775783604083870101525b50601f01601f1916929092016040019392505050565b6040815282546000908190600281046001808316806141ad57607f831692505b60208084108214156141d05760e060020a634e487b710287526022600452602487fd5b60408801849052606088018280156141ef57600181146142005761422a565b60ff1987168252828201975061422a565b60008c815260209020895b878110156142245781548482015290860190840161420b565b83019850505b50509690960196909652509095945050505050565b60208082526013908201527f566f74696e67206973206e6f7420737461727400000000000000000000000000604082015260600190565b6020808252600e908201527f566f74696e67206973206f766572000000000000000000000000000000000000604082015260600190565b6020808252600b908201527f496e76616c6964204e4654000000000000000000000000000000000000000000604082015260600190565b6020808252818101527f4f776e61626c653a2063616c6c6572206973206e6f7420746865206f776e6572604082015260600190565b6000821982111561432c5761432c6143e2565b500190565b600082614340576143406143fb565b500490565b600081600019048311821515161561435f5761435f6143e2565b500290565b600082821015614376576143766143e2565b500390565b60028104600182168061438f57607f821691505b60208210811415612c665760e060020a634e487b7102600052602260045260246000fd5b60006000198214156143c7576143c76143e2565b5060010190565b6000826143dd576143dd6143fb565b500690565b60e060020a634e487b7102600052601160045260246000fd5b60e060020a634e487b7102600052601260045260246000fd5b600160a060020a038116811461337557600080fdfea26469706673582212202c6daf7ef336d6099ac034080ceb1aef5ccfa0d1ad3e8ea65dc220d9c9ac98dc64736f6c63430008040033",
  "immutableReferences": {},
  "source": "// SPDX-License-Identifier: MIT\npragma solidity ^0.8.0;\n\nimport \"@openzeppelin/contracts/access/Ownable.sol\";\nimport \"@openzeppelin/contracts/utils/math/SafeMath.sol\";\nimport \"@openzeppelin/contracts/token/ERC20/IERC20.sol\";\nimport \"@openzeppelin/contracts/token/ERC721/IERC721.sol\";\n\n\ninterface ITreasury {\n\tfunction sendRewards(address to, uint256 amount) external returns(uint256 val);\n\tfunction uink() external view returns(address);\n}\n\ninterface IAuction {\n\tfunction matchResults(string calldata matchId, uint index) external view returns(address, uint);\n}\n\ninterface ITokenLocker {\n\tfunction subLockForVote(uint256 lockId, address accountAddress) external returns(uint);\n}\n\n\ncontract VoteMining is Ownable {\n\tusing SafeMath for uint256;\n\n\tuint public weeklyCap = 50000 * 1e12;\n\tuint public dailyVoteRewardCap = weeklyCap / 7 / 4; // 25% of daily cap \n\tuint public dailyMintRewardCap = weeklyCap / 7 / 4; // 25% of daily cap \n\tuint public bonusCap = weeklyCap  / 2; // 50% of weekly cap\n\t// group id => amount\n\tmapping (uint => uint) public stakingBases;\n\n\n\taddress public uink;\n\tITreasury public treasury;\n\taddress public auction;\n\n\tstruct NFT {\n\t\tuint uid;\n\t\taddress addr;\n\t\tuint id;\n\t\taddress owner;\n\t}\n\t// id => start time\n\tmapping (uint => uint) public groups;\n\tuint public currentGroupId = 0;\n\t// group id => matchId\n\tmapping (uint => string) public matches;\n\t// group id => finished or not\n\tmapping (uint => bool) public hasFinished;\n\t\n\t\n\t// group id => NFT[]\n\tmapping (uint => NFT[]) public groupNFTs;\n\n\t// date => NFT uid => votes\n\tmapping (uint => mapping (uint => uint)) public dayVotes;\n\n\t// user => date => NFT id => amount\n\tmapping (address => mapping (uint => mapping (uint => uint))) public userVotes;\n\n\t// user => groupId => date => votes\n\tmapping (address => mapping (uint => mapping (uint => uint))) public userDailyVotes;\n\n\t// user => nft uid => votes \n\tmapping (address => mapping (uint => uint)) public userNFTVotes;\n\t\n\n\t// nft address => nftId => internal id\n\tmapping (address => mapping (uint => uint)) public nfts;\n\tuint public nextNFTId = 0;\n\n\t// group id => votes\n\tmapping (uint => uint) public groupVotes;\n\n\t// uid => votes\n\tmapping (uint => uint) public nftVotes;\n\n\t// date => votes\n\t// mapping (uint => uint) public dailyTotalVotes;\n\t\n\n\t// uid => group id\n\tmapping (uint => uint) public nftGroup;\n\t\n\taddress[] public voteTokens;\n\t// token => ratio\n\tmapping (address => uint) public voteRatio;\n\n\tuint public voteRatioMax = 10000;\n\t\n\n\tstruct Balance {\n\t\tuint available;\n\t\tuint freezed;\n\t\tuint votedAt;\n\t}\n\n\tstruct UnbondingBalance {\n\t\tuint value;\n\t\tuint unbondedAt;\n\t\tuint redeemed;\n\t}\n\n\t// user => token => uid => Balance\n\tmapping (address => mapping (address => mapping (uint => Balance))) public balances;\n\n\t// user => uid => Balance\n\tmapping (address => mapping (uint => Balance)) public votedBalances; // bonded voted balance\n\t\n\t// user => bonded amount\n\tmapping (address => uint) public totalVotedBalances;\n\n\t// user => UnbondingBalance[]\n\tmapping (address => UnbondingBalance[]) public unbondingBalances;\n\t\n\t// user => total unbonded amount\n\tmapping (address => uint) public unbondedBalances;\n\t\n\n\t\n\t// uid => price\n\tmapping (uint => uint) public nftTradedPrices;\n\t// user => group => date => bool\n\tmapping (address => mapping (uint => mapping (uint => bool))) public voteRewardsClaimed;\n\t// user = > group id => bool\n\tmapping (address => mapping (uint => bool)) public bonusRewardsClaimed;\n\t// nft uid => bool\n\tmapping (uint => bool) public mintRewardsClaimed;\n\n\tmapping (address => uint) private userRewards;\n\t\n\t\n\n\tmapping (address => bool) public operators;\n\n\taddress public pinAddress;\n\n\tuint public tokenLockId = 0;\n\n\taddress public tokenLocker;\n\n\tevent Unbond(address indexed user, uint amount, uint at);\n\t\n\n\tmodifier checkNFT(address nftAddr, uint nftId) { \n\t\trequire(nfts[nftAddr][nftId] > 0, \"Invalid NFT\");\n\t\t_; \n\t}\n\n\tmodifier onlyPin() { \n\t\trequire(msg.sender == pinAddress, \"Forbidden\"); \n\t\t_; \n\t}\n\t\n\n\tmodifier checkVotingTime() { \n\t\trequire(groups[currentGroupId] <= block.timestamp, \"Voting is not start\");\n\t\trequire(groups[currentGroupId].add(7 days) >= block.timestamp, \"Voting is over\");\n\t\t_; \n\t}\n\n\tmodifier checkVoteToken(address _token) { \n\t\tbool isValid = false;\n\t\tfor(uint i = 0; i < voteTokens.length; i++) {\n\t\t\tif(voteTokens[i] == _token) {\n\t\t\t\tisValid = true;\n\t\t\t\tbreak;\n\t\t\t}\n\t\t}\n\t\trequire(isValid, \"Invalid Vote Token\");\n\t\t_; \n\t}\n\n\tmodifier updateReward(address user) {\n\t\tuserRewards[user] = getTotalRewards(user);\n\t\t_; \n\t}\n\t\n\n\tconstructor(address _treasury, address _tokenLocker){\n\t\ttreasury = ITreasury(_treasury);\n\t\tuink = treasury.uink();\n\t\ttokenLocker = _tokenLocker;\n\n\t\tvoteTokens.push(uink);\n\t\tvoteRatio[uink] = voteRatioMax;\n\t}\n\n\tfunction addVoteToken(address _token, uint _ratio) external onlyOwner {\n\t\tvoteRatio[_token] = _ratio;\n\t\tfor(uint i = 0; i < voteTokens.length; i++) {\n\t\t\tif(voteTokens[i] == _token) {\n\t\t\t\treturn;\n\t\t\t}\n\t\t}\n\t\tvoteTokens.push(_token);\n\t}\n\n\tfunction setAuctionAddress(address _auction) external onlyOwner {\n\t\tauction = _auction;\n\t}\n\n\tfunction setPinAddress(address _pin) external onlyOwner {\n\t\tpinAddress = _pin;\n\t}\n\n\tfunction setTokenLockId(uint lockId) external onlyOwner {\n\t\ttokenLockId = lockId;\n\t}\n\n\tfunction addGroup(uint stakingBase, uint startTime, string calldata matchId) external onlyOwner {\n\t\tcurrentGroupId++;\n\t\tgroups[currentGroupId] = startTime;\n\t\tstakingBases[currentGroupId] = stakingBase;\n\t\tmatches[currentGroupId] = matchId;\n\t}\n\n\tfunction addNFT(uint groupId, address[] calldata nftAddrs, uint[] calldata nftIds) external onlyOwner {\n\t\trequire(nftAddrs.length == nftIds.length, \"Invalid params\");\n\t\tNFT[] storage inputNFTs = groupNFTs[groupId];\n\n\t\tfor(uint i = 0; i < nftAddrs.length; i++) {\n\t\t\tnextNFTId++;\n\t\t\tnfts[nftAddrs[i]][nftIds[i]] = nextNFTId;\n\t\t\taddress nftOwner = IERC721(nftAddrs[i]).ownerOf(nftIds[i]);\n\t\t\tinputNFTs.push(NFT({\n\t\t\t\tuid: nextNFTId,\n\t\t\t\taddr: nftAddrs[i],\n\t\t\t\tid: nftIds[i],\n\t\t\t\towner: nftOwner\n\t\t\t}));\n\t\t\tnftGroup[nextNFTId] = groupId;\n\t\t}\n\t}\n\n\tfunction getAuctionPrices(uint groupId) public view returns(uint[] memory prices, uint totalAmount) {\n\t\tprices = new uint[](groupNFTs[groupId].length);\n\t\tfor(uint i = 0; i < groupNFTs[groupId].length; i++) {\n\t\t\t(, uint price) = IAuction(auction).matchResults(matches[groupId], i);\n\t\t\tprices[i] = price;\n\t\t\ttotalAmount = totalAmount.add(price);\n\t\t}\n\t}\n\n\t\n\tfunction getDate(uint256 ts) public pure returns(uint256) {\n\t\treturn ts.sub(ts.mod(1 days));\n\t}\n\n\tfunction getVotableDates(uint groupId) public view returns(uint[] memory dates) {\n\t\tuint start = groups[groupId];\n\t\tdates = new uint[](7);\n\t\tuint firstDate = getDate(start);\n\t\tfor(uint i = 0; i < 7; i++) {\n\t\t\tdates[i] = firstDate.add(i * 24 * 60 * 60);\n\t\t}\n\t}\n\n\tfunction _vote(address user, address nftAddr, uint nftId, uint votes) internal {\n\t\tuint today = getDate(block.timestamp);\n\t\tuint[] memory dates = getVotableDates(currentGroupId);\n\t\tuint uid = nfts[nftAddr][nftId];\n\n\t\tfor(uint i = 0; i < dates.length; i++) {\n\t\t\tif(dates[i] >= today) {\n\t\t\t\tuint date = dates[i];\n\t\t\t\tdayVotes[date][uid] = dayVotes[date][uid].add(votes);\n\t\t\t\tuserVotes[user][date][uid] = userVotes[user][date][uid].add(votes);\n\t\t\t\tuserDailyVotes[user][currentGroupId][date] = userDailyVotes[user][currentGroupId][date].add(votes);\n\t\t\t\tuserNFTVotes[user][uid] = userNFTVotes[user][uid].add(votes);\n\t\t\t}\n\t\t}\n\t\tnftVotes[uid] = nftVotes[uid].add(votes);\n\t\tgroupVotes[currentGroupId] = groupVotes[currentGroupId].add(votes);\n\t}\n\n\tfunction _unvote(address user, address nftAddr, uint nftId, uint votes) internal {\n\t\tuint today = getDate(block.timestamp);\n\t\tuint[] memory dates = getVotableDates(currentGroupId);\n\t\tuint uid = nfts[nftAddr][nftId];\n\n\t\tfor(uint i = 0; i < dates.length; i++) {\n\t\t\tif(dates[i] >= today) {\n\t\t\t\tuint date = dates[i];\n\t\t\t\tdayVotes[date][uid] = dayVotes[date][uid].sub(votes);\n\t\t\t\tuserVotes[user][date][uid] = userVotes[user][date][uid].sub(votes);\n\t\t\t\tuserDailyVotes[user][currentGroupId][date] = userDailyVotes[user][currentGroupId][date].sub(votes);\n\t\t\t\tuserNFTVotes[user][uid] = userNFTVotes[user][uid].sub(votes);\n\t\t\t}\n\t\t}\n\t\tnftVotes[uid] = nftVotes[uid].sub(votes);\n\t\tgroupVotes[currentGroupId] = groupVotes[currentGroupId].sub(votes);\n\t}\n\n\tfunction calcVotes(address token, uint amount) internal view returns(uint256) {\n\t\treturn voteRatio[token].mul(amount).div(voteRatioMax);\n\t}\n\n\tfunction getAvailableBalance(address user, address token, address nftAddr, uint nftId) public view returns(uint256) {\n\t\tuint uid = nfts[nftAddr][nftId];\n\t\tBalance memory balance = balances[user][token][uid];\n\t\tuint available = balance.available;\n\t\tif(getDate(balance.votedAt) < getDate(block.timestamp)) {\n\t\t\tavailable = available.add(balance.freezed);\n\t\t}\n\t\treturn available;\n\t}\n\n\t// stake and vote\n\tfunction stake(address nftAddr, uint nftId, address token, uint amount)\n\t\texternal \n\t\tcheckVoteToken(token)\n\t\tcheckVotingTime\n\t\tcheckNFT(nftAddr, nftId)\n\t\tupdateReward(msg.sender)\n\t{\n\t\trequire(amount > 0, \"Amount is zero\");\n\t\tuint votes = calcVotes(token, amount);\n\t\t_vote(msg.sender, nftAddr, nftId, votes);\n\n\t\tIERC20(token).transferFrom(msg.sender, address(this), amount);\n\n\t\tuint uid = nfts[nftAddr][nftId];\n\n\n\t\tBalance storage balance = balances[msg.sender][token][uid];\n\t\tif(getDate(balance.votedAt) < getDate(block.timestamp)) {\n\t\t\tbalance.available = balance.available.add(balance.freezed);\n\t\t\tbalance.freezed = 0;\n\t\t}\n\t\tbalance.freezed = balance.freezed.add(amount);\n\t\tbalance.votedAt = block.timestamp;\n\t}\n\n\tfunction unstake(address nftAddr, uint nftId, address token, uint amount)\n\t\texternal \n\t\tcheckVoteToken(token)\n\t\tcheckNFT(nftAddr, nftId)\n\t\tupdateReward(msg.sender)\n\t{\n\t\trequire(amount > 0, \"Amount is zero\");\n\t\t\n\t\tuint available = getAvailableBalance(msg.sender, token, nftAddr, nftId);\n\t\trequire(available >= amount, \"Insufficient balance\");\n\n\t\tuint votes = calcVotes(token, amount);\n\t\t_unvote(msg.sender, nftAddr, nftId, votes);\n\n\t\tIERC20(token).transfer(msg.sender, amount);\n\t\tuint uid = nfts[nftAddr][nftId];\n\t\tBalance storage balance = balances[msg.sender][token][uid];\n\t\tif(getDate(balance.votedAt) < getDate(block.timestamp)) {\n\t\t\tbalance.available = balance.available.add(balance.freezed);\n\t\t\tbalance.freezed = 0;\n\t\t}\n\t\tbalance.available = balance.available.sub(amount);\n\t}\n\n\tfunction getTotalRewards(address user) public view returns(uint) {\n\t\tuint rewards = 0;\n\t\tfor(uint groupId = 1; groupId <= currentGroupId; groupId++) {\n\t\t\trewards = rewards.add(getBaseRewards(user, groupId)).add(getAuctionRewards(user, groupId));\n\t\t}\n\t\treturn rewards;\n\t}\n\n\tfunction getBaseRewards(address user, uint groupId) public view returns(uint) {\n\t\tuint[] memory dates = getVotableDates(groupId);\n\t\tuint[] memory rawardRates = getBaseRewardRates(groupId);\n\t\tuint rewards = 0;\n\t\tuint today = getDate(block.timestamp);\n\n\t\tfor(uint i = 0; i < dates.length; i++) {\n\t\t\tif(dates[i] >= today) {\n\t\t\t\tbreak;\n\t\t\t}\n\t\t\tuint dayRewards = userDailyVotes[user][groupId][dates[i]].mul(rawardRates[i]).div(1e18);\n\t\t\trewards = rewards.add(dayRewards);\n\t\t}\n\t\treturn rewards;\n\t}\n\n\tfunction getAuctionRewards(address user, uint groupId) public view returns(uint) {\n\t\tif(!hasFinished[groupId]) {\n\t\t\treturn 0;\n\t\t}\n\t\tuint rewards = 0;\n\t\tuint[] memory rewardRates = getAuctionRewardRates(groupId);\n\t\tfor(uint i = 0; i < groupNFTs[groupId].length; i++) {\n\t\t\tuint votes = userNFTVotes[user][groupNFTs[groupId][i].uid];\n\t\t\trewards = votes.mul(rewardRates[i]).div(1e18).add(rewards);\n\t\t}\n\t\treturn rewards;\n\t}\n\n\tfunction getBondedBalance(address user) internal view returns(uint) {\n\t\tuint rewards = userRewards[user];\n\t\tuint freezedBalance = totalVotedBalances[user].add(unbondedBalances[user]);\n\t\treturn rewards > freezedBalance ? rewards.sub(freezedBalance) : 0;\n\t}\n\n\tfunction getUnvotableBalance(address user, address nftAddr, uint nftId) public view returns(uint256) {\n\t\tuint uid = nfts[nftAddr][nftId];\n\t\tBalance memory balance = votedBalances[user][uid];\n\t\tuint available = balance.available;\n\t\tif(getDate(balance.votedAt) < getDate(block.timestamp)) {\n\t\t\tavailable = available.add(balance.freezed);\n\t\t}\n\t\treturn available;\n\t}\n\n\tfunction voteFromLock(address nftAddr, uint nftId) \n\t\texternal \n\t\tcheckVotingTime\n\t\tcheckNFT(nftAddr, nftId)\n\t\tupdateReward(msg.sender)\n\t{\n\n\t\tuint amount = ITokenLocker(tokenLocker).subLockForVote(tokenLockId, msg.sender);\n\t\t_vote(msg.sender, nftAddr, nftId, amount);\n\t\t\n\t\tuint uid = nfts[nftAddr][nftId];\n\t\tBalance storage votedBalance = votedBalances[msg.sender][uid];\n\n\t\tif(getDate(votedBalance.votedAt) < getDate(block.timestamp)) {\n\t\t\tvotedBalance.available = votedBalance.available.add(votedBalance.freezed);\n\t\t\tvotedBalance.freezed = 0;\n\t\t}\n\t\tvotedBalance.freezed = votedBalance.freezed.add(amount);\n\t\tvotedBalance.votedAt = block.timestamp;\n\n\t\ttotalVotedBalances[msg.sender] = totalVotedBalances[msg.sender].add(amount);\n\t}\n\n\t\n\tfunction voteBonded(address nftAddr, uint nftId, uint amount) \n\t\texternal \n\t\tcheckVotingTime\n\t\tcheckNFT(nftAddr, nftId)\n\t\tupdateReward(msg.sender)\n\t{\n\t\tuint bondedBalance = getBondedBalance(msg.sender);\n\t\trequire(bondedBalance > amount, \"Insufficient bonded balance\");\n\n\t\t_vote(msg.sender, nftAddr, nftId, amount);\n\n\t\tuint uid = nfts[nftAddr][nftId];\n\t\tBalance storage votedBalance = votedBalances[msg.sender][uid];\n\n\t\tif(getDate(votedBalance.votedAt) < getDate(block.timestamp)) {\n\t\t\tvotedBalance.available = votedBalance.available.add(votedBalance.freezed);\n\t\t\tvotedBalance.freezed = 0;\n\t\t}\n\t\tvotedBalance.freezed = votedBalance.freezed.add(amount);\n\t\tvotedBalance.votedAt = block.timestamp;\n\n\t\ttotalVotedBalances[msg.sender] = totalVotedBalances[msg.sender].add(amount);\n\t}\n\n\tfunction unvoteBonded(address nftAddr, uint nftId, uint amount)\n\t\texternal \n\t\tcheckVotingTime\n\t\tcheckNFT(nftAddr, nftId)\n\t\tupdateReward(msg.sender)\n\t{\n\t\tuint unvotable = getUnvotableBalance(msg.sender, nftAddr, nftId);\n\t\trequire(unvotable > amount, \"Insufficient unvotable balance\");\n\t\t_unvote(msg.sender, nftAddr, nftId, amount);\n\n\t\tuint uid = nfts[nftAddr][nftId];\n\t\tBalance storage votedBalance = votedBalances[msg.sender][uid];\n\n\t\tif(getDate(votedBalance.votedAt) < getDate(block.timestamp)) {\n\t\t\tvotedBalance.available = votedBalance.available.add(votedBalance.freezed);\n\t\t\tvotedBalance.freezed = 0;\n\t\t}\n\t\tvotedBalance.available = votedBalance.available.sub(amount);\n\n\t\ttotalVotedBalances[msg.sender] = totalVotedBalances[msg.sender].sub(amount);\n\t}\n\n\n\tfunction unbond(uint amount) \n\t\texternal \n\t\tupdateReward(msg.sender)\n\t{\n\t\tuint bondedBalance = getBondedBalance(msg.sender);\n\t\trequire(bondedBalance > amount, \"Insufficient bonded balance\");\n\n\t\tunbondingBalances[msg.sender].push(UnbondingBalance({\n\t\t\tvalue: amount,\n\t\t\tunbondedAt: block.timestamp,\n\t\t\tredeemed: 0\n\t\t}));\n\t\t\n\t\tunbondedBalances[msg.sender] = unbondedBalances[msg.sender].add(amount);\n\n\t\temit Unbond(msg.sender, amount, block.timestamp);\n\t}\n\n\tfunction redeemUnbonding(uint index) \n\t\texternal \n\t\tupdateReward(msg.sender)\n\t{ \n\t\tUnbondingBalance storage unbondingBalance = unbondingBalances[msg.sender][index];\n\t\tuint passDays = getDate(block.timestamp).sub(getDate(unbondingBalance.unbondedAt)).div(1 days);\n\t\tuint released = passDays.mul(unbondingBalance.value).div(60);\n\t\tuint available = released.sub(unbondingBalance.redeemed);\n\t\tunbondingBalance.redeemed = released;\n\n\t\ttreasury.sendRewards(msg.sender, available);\n\t}\n\n\n\t// function getUserVotesByNFT(address user, uint groupId, uint uid) public view returns(uint) {\n\t// \tuint[] memory dates = getVotableDates(groupId);\n\t// \tuint votes = 0;\n\t// \tfor(uint i = 0; i < dates.length; i++) {\n\t// \t\tvotes = userVotes[user][dates[i]][uid].add(votes);\n\t// \t}\n\t// \treturn votes;\n\t// }\n\n\tfunction claimMintRewards(address nftAddr, uint nftId, address to) external onlyPin {\n\t\tuint uid = nfts[nftAddr][nftId];\n\t\tuint groupId = nftGroup[nfts[nftAddr][nftId]];\n\t\trequire(!mintRewardsClaimed[uid], \"Claimed\");\n\n\t\tuint rewards = 0;\n\t\tfor(uint i = 0; i < groupNFTs[groupId].length; i++) {\n\t\t\tif(groupNFTs[groupId][i].uid == uid) {\n\t\t\t\trewards = getMintRewardsPerNFT(groupId)[i];\n\t\t\t\tbreak;\n\t\t\t}\n\t\t}\n\t\tif(rewards > 0) {\n\t\t\ttreasury.sendRewards(to, rewards);\n\t\t\tmintRewardsClaimed[uid] = true;\n\t\t}\n\t}\n\n\tfunction getTradeWeights(uint groupId) public view returns(uint[] memory weights) {\n\t\tNFT[] memory gNFTs = groupNFTs[groupId];\n\t\tweights = new uint[](gNFTs.length);\n\t\t\n\t\t(uint[] memory prices, uint total) = getAuctionPrices(groupId);\n\n\t\tif(total > 0) {\n\t\t\tfor(uint i = 0; i < gNFTs.length; i++){\n\t\t\t\tweights[i] = prices[i].mul(1e18).div(total);\n\t\t\t}\n\t\t}\n\t}\n\n\tfunction setAuctionFinish(uint groupId) external onlyOwner {\n\t\thasFinished[groupId] = true;\n\t}\n\n\tfunction getAuctionRewardRates(uint groupId) public view returns(uint[] memory auctionRewardRates) {\n\t\tuint[] memory weights = getTradeWeights(groupId);\n\t\tNFT[] memory gNFTs = groupNFTs[groupId];\n\t\tauctionRewardRates = new uint[](gNFTs.length);\n\t\t(, uint[] memory inflations) = getWeightsAndInflations(groupId);\n\t\tuint bonus = bonusCap.mul(inflations[inflations.length - 1]).div(1e18);\n\n\t\tfor(uint i = 0; i < gNFTs.length; i++) {\n\t\t\tif(nftVotes[gNFTs[i].uid] == 0) {\n\t\t\t\tauctionRewardRates[i] = 0;\n\t\t\t} else {\n\t\t\t\tauctionRewardRates[i] = bonus.mul(weights[i]).div(nftVotes[gNFTs[i].uid]);\n\t\t\t}\n\t\t}\n\t}\n\n\tfunction getDailyVotes(uint groupId, uint date) public view returns(uint256) {\n\t\tuint votes = 0;\n\t\tfor(uint i = 0; i < groupNFTs[groupId].length; i++) {\n\t\t\tuint uid = groupNFTs[groupId][i].uid;\n\t\t\tvotes = votes.add(dayVotes[date][uid]);\n\t\t}\n\t\treturn votes;\n\t}\n\n\tfunction getWeightsAndInflations(uint groupId)\n\t\tpublic\n\t\tview\n\t\treturns(\n\t\t\tuint[] memory weights,\n\t\t\tuint[] memory inflations\n\t\t) \n\t{\n\n\t\tuint[] memory dates = getVotableDates(groupId);\n\t\tweights = new uint[](dates.length);\n\t\tinflations = new uint[](dates.length);\n\n\t\tfor(uint i = 0; i < dates.length; i++) {\n\t\t\tuint dailyVotes = getDailyVotes(groupId, dates[i]);\n\t\t\tweights[i] = dailyVotes.mul(1e18).div(stakingBases[groupId]);\n\t\t\tif(weights[i] < 3 * 1e17) {\n\t\t\t\tinflations[i] = 2 * 1e17;\n\t\t\t} else if(weights[i] >= 3 * 1e17 &&  weights[i] < 7 * 1e17) {\n\t\t\t\tinflations[i] = weights[i];\n\t\t\t} else {\n\t\t\t\tinflations[i] = 1e18;\n\t\t\t}\n\t\t}\n\t}\n\n\tfunction getBaseRewardRates(uint groupId) \n\t\tpublic view \n\t\treturns(uint[] memory rewardRates) \n\t{\n\n\t\tuint[] memory dates = getVotableDates(groupId);\n\t\t(,uint[] memory inflations) = getWeightsAndInflations(groupId);\n\t\trewardRates = new uint[](dates.length);\n\n\t\tfor(uint i = 0; i < dates.length; i++) {\n\t\t\tif(dates[i] > getDate(block.timestamp)) {\n\t\t\t\tbreak;\n\t\t\t}\n\t\t\tuint dailyTotalVotes = getDailyVotes(groupId, dates[i]);\n\t\t\tif(dailyTotalVotes > 0) {\n\t\t\t\trewardRates[i] = inflations[i].mul(dailyVoteRewardCap).div(dailyTotalVotes);\n\t\t\t}\n\t\t}\n\t}\n\n\tfunction getMintRewardsPerNFT(uint groupId)\n\t\tpublic view \n\t\treturns(uint[] memory mintRewards) \n\t{\n\t\tmintRewards = new uint[](groupNFTs[groupId].length);\n\t\tfor(uint i = 0; i < groupNFTs[groupId].length; i++) {\n\t\t\tif(groupVotes[groupId] > 0) {\n\t\t\t\tmintRewards[i] = nftVotes[groupNFTs[groupId][i].uid].mul(dailyMintRewardCap).div(groupVotes[groupId]);\n\t\t\t}\n\t\t}\n\t}\n}",
  "sourcePath": "/Users/yxf/app/uniarts-eth-dao/contracts/VoteMining.sol",
  "compiler": {
    "name": "solc",
    "version": "0.8.4+commit.c7e474f2.Emscripten.clang"
  },
  "schemaVersion": "3.2.3",
  "updatedAt": "2021-09-15T02:04:36.128Z",
  "devdoc": {
    "kind": "dev",
    "methods": {
      "owner()": {
        "details": "Returns the address of the current owner."
      },
      "renounceOwnership()": {
        "details": "Leaves the contract without owner. It will not be possible to call `onlyOwner` functions anymore. Can only be called by the current owner. NOTE: Renouncing ownership will leave the contract without an owner, thereby removing any functionality that is only available to the owner."
      },
      "transferOwnership(address)": {
        "details": "Transfers ownership of the contract to a new account (`newOwner`). Can only be called by the current owner."
      }
    },
    "version": 1
  },
  "userdoc": {
    "kind": "user",
    "methods": {},
    "version": 1
  }
}