{
  "contractName": "VoteMining",
  "abi": [
    {
      "inputs": [
        {
          "internalType": "address",
          "name": "_treasury",
          "type": "address"
        },
        {
          "internalType": "address",
          "name": "_tokenLocker",
          "type": "address"
        }
      ],
      "stateMutability": "nonpayable",
      "type": "constructor"
    },
    {
      "anonymous": false,
      "inputs": [
        {
          "indexed": true,
          "internalType": "address",
          "name": "previousOwner",
          "type": "address"
        },
        {
          "indexed": true,
          "internalType": "address",
          "name": "newOwner",
          "type": "address"
        }
      ],
      "name": "OwnershipTransferred",
      "type": "event"
    },
    {
      "anonymous": false,
      "inputs": [
        {
          "indexed": true,
          "internalType": "address",
          "name": "user",
          "type": "address"
        },
        {
          "indexed": false,
          "internalType": "address",
          "name": "token",
          "type": "address"
        },
        {
          "indexed": false,
          "internalType": "uint256",
          "name": "amount",
          "type": "uint256"
        }
      ],
      "name": "Redeem",
      "type": "event"
    },
    {
      "anonymous": false,
      "inputs": [
        {
          "indexed": true,
          "internalType": "address",
          "name": "user",
          "type": "address"
        },
        {
          "indexed": false,
          "internalType": "uint256",
          "name": "amount",
          "type": "uint256"
        },
        {
          "indexed": false,
          "internalType": "uint256",
          "name": "at",
          "type": "uint256"
        }
      ],
      "name": "Unbond",
      "type": "event"
    },
    {
      "inputs": [],
      "name": "VOTE_DAYS",
      "outputs": [
        {
          "internalType": "uint256",
          "name": "",
          "type": "uint256"
        }
      ],
      "stateMutability": "view",
      "type": "function"
    },
    {
      "inputs": [],
      "name": "VOTE_DURATION",
      "outputs": [
        {
          "internalType": "uint256",
          "name": "",
          "type": "uint256"
        }
      ],
      "stateMutability": "view",
      "type": "function"
    },
    {
      "inputs": [],
      "name": "auction",
      "outputs": [
        {
          "internalType": "address",
          "name": "",
          "type": "address"
        }
      ],
      "stateMutability": "view",
      "type": "function"
    },
    {
      "inputs": [
        {
          "internalType": "address",
          "name": "",
          "type": "address"
        },
        {
          "internalType": "address",
          "name": "",
          "type": "address"
        },
        {
          "internalType": "uint256",
          "name": "",
          "type": "uint256"
        }
      ],
      "name": "balances",
      "outputs": [
        {
          "internalType": "uint256",
          "name": "available",
          "type": "uint256"
        },
        {
          "internalType": "uint256",
          "name": "freezed",
          "type": "uint256"
        },
        {
          "internalType": "uint256",
          "name": "votedAt",
          "type": "uint256"
        }
      ],
      "stateMutability": "view",
      "type": "function"
    },
    {
      "inputs": [],
      "name": "bonusCap",
      "outputs": [
        {
          "internalType": "uint256",
          "name": "",
          "type": "uint256"
        }
      ],
      "stateMutability": "view",
      "type": "function"
    },
    {
      "inputs": [
        {
          "internalType": "address",
          "name": "",
          "type": "address"
        },
        {
          "internalType": "uint256",
          "name": "",
          "type": "uint256"
        }
      ],
      "name": "bonusRewardsClaimed",
      "outputs": [
        {
          "internalType": "bool",
          "name": "",
          "type": "bool"
        }
      ],
      "stateMutability": "view",
      "type": "function"
    },
    {
      "inputs": [],
      "name": "currentGroupId",
      "outputs": [
        {
          "internalType": "uint256",
          "name": "",
          "type": "uint256"
        }
      ],
      "stateMutability": "view",
      "type": "function"
    },
    {
      "inputs": [],
      "name": "dailyVoteRewardCap",
      "outputs": [
        {
          "internalType": "uint256",
          "name": "",
          "type": "uint256"
        }
      ],
      "stateMutability": "view",
      "type": "function"
    },
    {
      "inputs": [
        {
          "internalType": "uint256",
          "name": "",
          "type": "uint256"
        },
        {
          "internalType": "uint256",
          "name": "",
          "type": "uint256"
        }
      ],
      "name": "dayVotes",
      "outputs": [
        {
          "internalType": "uint256",
          "name": "",
          "type": "uint256"
        }
      ],
      "stateMutability": "view",
      "type": "function"
    },
    {
      "inputs": [
        {
          "internalType": "uint256",
          "name": "",
          "type": "uint256"
        },
        {
          "internalType": "uint256",
          "name": "",
          "type": "uint256"
        }
      ],
      "name": "groupNFTs",
      "outputs": [
        {
          "internalType": "uint256",
          "name": "uid",
          "type": "uint256"
        },
        {
          "internalType": "address",
          "name": "addr",
          "type": "address"
        },
        {
          "internalType": "uint256",
          "name": "id",
          "type": "uint256"
        },
        {
          "internalType": "address",
          "name": "owner",
          "type": "address"
        }
      ],
      "stateMutability": "view",
      "type": "function"
    },
    {
      "inputs": [
        {
          "internalType": "uint256",
          "name": "",
          "type": "uint256"
        },
        {
          "internalType": "address",
          "name": "",
          "type": "address"
        },
        {
          "internalType": "address",
          "name": "",
          "type": "address"
        }
      ],
      "name": "groupTokenBalances",
      "outputs": [
        {
          "internalType": "uint256",
          "name": "",
          "type": "uint256"
        }
      ],
      "stateMutability": "view",
      "type": "function"
    },
    {
      "inputs": [
        {
          "internalType": "uint256",
          "name": "",
          "type": "uint256"
        }
      ],
      "name": "groupVotes",
      "outputs": [
        {
          "internalType": "uint256",
          "name": "",
          "type": "uint256"
        }
      ],
      "stateMutability": "view",
      "type": "function"
    },
    {
      "inputs": [
        {
          "internalType": "uint256",
          "name": "",
          "type": "uint256"
        }
      ],
      "name": "groups",
      "outputs": [
        {
          "internalType": "uint256",
          "name": "",
          "type": "uint256"
        }
      ],
      "stateMutability": "view",
      "type": "function"
    },
    {
      "inputs": [
        {
          "internalType": "uint256",
          "name": "",
          "type": "uint256"
        }
      ],
      "name": "hasFinished",
      "outputs": [
        {
          "internalType": "bool",
          "name": "",
          "type": "bool"
        }
      ],
      "stateMutability": "view",
      "type": "function"
    },
    {
      "inputs": [
        {
          "internalType": "uint256",
          "name": "",
          "type": "uint256"
        }
      ],
      "name": "matches",
      "outputs": [
        {
          "internalType": "string",
          "name": "",
          "type": "string"
        }
      ],
      "stateMutability": "view",
      "type": "function"
    },
    {
      "inputs": [],
      "name": "mintRewardCap",
      "outputs": [
        {
          "internalType": "uint256",
          "name": "",
          "type": "uint256"
        }
      ],
      "stateMutability": "view",
      "type": "function"
    },
    {
      "inputs": [
        {
          "internalType": "uint256",
          "name": "",
          "type": "uint256"
        }
      ],
      "name": "mintRewardsClaimed",
      "outputs": [
        {
          "internalType": "bool",
          "name": "",
          "type": "bool"
        }
      ],
      "stateMutability": "view",
      "type": "function"
    },
    {
      "inputs": [],
      "name": "nextNFTId",
      "outputs": [
        {
          "internalType": "uint256",
          "name": "",
          "type": "uint256"
        }
      ],
      "stateMutability": "view",
      "type": "function"
    },
    {
      "inputs": [
        {
          "internalType": "uint256",
          "name": "",
          "type": "uint256"
        }
      ],
      "name": "nftGroup",
      "outputs": [
        {
          "internalType": "uint256",
          "name": "",
          "type": "uint256"
        }
      ],
      "stateMutability": "view",
      "type": "function"
    },
    {
      "inputs": [
        {
          "internalType": "uint256",
          "name": "",
          "type": "uint256"
        }
      ],
      "name": "nftTradedPrices",
      "outputs": [
        {
          "internalType": "uint256",
          "name": "",
          "type": "uint256"
        }
      ],
      "stateMutability": "view",
      "type": "function"
    },
    {
      "inputs": [
        {
          "internalType": "uint256",
          "name": "",
          "type": "uint256"
        }
      ],
      "name": "nftVotes",
      "outputs": [
        {
          "internalType": "uint256",
          "name": "",
          "type": "uint256"
        }
      ],
      "stateMutability": "view",
      "type": "function"
    },
    {
      "inputs": [
        {
          "internalType": "address",
          "name": "",
          "type": "address"
        },
        {
          "internalType": "uint256",
          "name": "",
          "type": "uint256"
        }
      ],
      "name": "nfts",
      "outputs": [
        {
          "internalType": "uint256",
          "name": "",
          "type": "uint256"
        }
      ],
      "stateMutability": "view",
      "type": "function"
    },
    {
      "inputs": [
        {
          "internalType": "address",
          "name": "",
          "type": "address"
        }
      ],
      "name": "operators",
      "outputs": [
        {
          "internalType": "bool",
          "name": "",
          "type": "bool"
        }
      ],
      "stateMutability": "view",
      "type": "function"
    },
    {
      "inputs": [],
      "name": "owner",
      "outputs": [
        {
          "internalType": "address",
          "name": "",
          "type": "address"
        }
      ],
      "stateMutability": "view",
      "type": "function"
    },
    {
      "inputs": [],
      "name": "pinAddress",
      "outputs": [
        {
          "internalType": "address",
          "name": "",
          "type": "address"
        }
      ],
      "stateMutability": "view",
      "type": "function"
    },
    {
      "inputs": [],
      "name": "renounceOwnership",
      "outputs": [],
      "stateMutability": "nonpayable",
      "type": "function"
    },
    {
      "inputs": [
        {
          "internalType": "uint256",
          "name": "",
          "type": "uint256"
        }
      ],
      "name": "stakingBases",
      "outputs": [
        {
          "internalType": "uint256",
          "name": "",
          "type": "uint256"
        }
      ],
      "stateMutability": "view",
      "type": "function"
    },
    {
      "inputs": [],
      "name": "tokenLockId",
      "outputs": [
        {
          "internalType": "uint256",
          "name": "",
          "type": "uint256"
        }
      ],
      "stateMutability": "view",
      "type": "function"
    },
    {
      "inputs": [],
      "name": "tokenLocker",
      "outputs": [
        {
          "internalType": "address",
          "name": "",
          "type": "address"
        }
      ],
      "stateMutability": "view",
      "type": "function"
    },
    {
      "inputs": [
        {
          "internalType": "address",
          "name": "",
          "type": "address"
        }
      ],
      "name": "totalVotedBalances",
      "outputs": [
        {
          "internalType": "uint256",
          "name": "",
          "type": "uint256"
        }
      ],
      "stateMutability": "view",
      "type": "function"
    },
    {
      "inputs": [
        {
          "internalType": "address",
          "name": "newOwner",
          "type": "address"
        }
      ],
      "name": "transferOwnership",
      "outputs": [],
      "stateMutability": "nonpayable",
      "type": "function"
    },
    {
      "inputs": [],
      "name": "treasury",
      "outputs": [
        {
          "internalType": "contract ITreasury",
          "name": "",
          "type": "address"
        }
      ],
      "stateMutability": "view",
      "type": "function"
    },
    {
      "inputs": [],
      "name": "uink",
      "outputs": [
        {
          "internalType": "address",
          "name": "",
          "type": "address"
        }
      ],
      "stateMutability": "view",
      "type": "function"
    },
    {
      "inputs": [
        {
          "internalType": "address",
          "name": "",
          "type": "address"
        }
      ],
      "name": "unbondedBalances",
      "outputs": [
        {
          "internalType": "uint256",
          "name": "",
          "type": "uint256"
        }
      ],
      "stateMutability": "view",
      "type": "function"
    },
    {
      "inputs": [
        {
          "internalType": "address",
          "name": "",
          "type": "address"
        },
        {
          "internalType": "uint256",
          "name": "",
          "type": "uint256"
        }
      ],
      "name": "unbondingBalances",
      "outputs": [
        {
          "internalType": "uint256",
          "name": "value",
          "type": "uint256"
        },
        {
          "internalType": "uint256",
          "name": "unbondedAt",
          "type": "uint256"
        },
        {
          "internalType": "uint256",
          "name": "redeemed",
          "type": "uint256"
        }
      ],
      "stateMutability": "view",
      "type": "function"
    },
    {
      "inputs": [
        {
          "internalType": "address",
          "name": "",
          "type": "address"
        },
        {
          "internalType": "uint256",
          "name": "",
          "type": "uint256"
        },
        {
          "internalType": "uint256",
          "name": "",
          "type": "uint256"
        }
      ],
      "name": "userDailyVotes",
      "outputs": [
        {
          "internalType": "uint256",
          "name": "",
          "type": "uint256"
        }
      ],
      "stateMutability": "view",
      "type": "function"
    },
    {
      "inputs": [
        {
          "internalType": "address",
          "name": "",
          "type": "address"
        },
        {
          "internalType": "uint256",
          "name": "",
          "type": "uint256"
        }
      ],
      "name": "userNFTVotes",
      "outputs": [
        {
          "internalType": "uint256",
          "name": "",
          "type": "uint256"
        }
      ],
      "stateMutability": "view",
      "type": "function"
    },
    {
      "inputs": [
        {
          "internalType": "address",
          "name": "",
          "type": "address"
        },
        {
          "internalType": "uint256",
          "name": "",
          "type": "uint256"
        },
        {
          "internalType": "uint256",
          "name": "",
          "type": "uint256"
        }
      ],
      "name": "userVotes",
      "outputs": [
        {
          "internalType": "uint256",
          "name": "",
          "type": "uint256"
        }
      ],
      "stateMutability": "view",
      "type": "function"
    },
    {
      "inputs": [
        {
          "internalType": "address",
          "name": "",
          "type": "address"
        }
      ],
      "name": "voteRatio",
      "outputs": [
        {
          "internalType": "uint256",
          "name": "",
          "type": "uint256"
        }
      ],
      "stateMutability": "view",
      "type": "function"
    },
    {
      "inputs": [],
      "name": "voteRatioMax",
      "outputs": [
        {
          "internalType": "uint256",
          "name": "",
          "type": "uint256"
        }
      ],
      "stateMutability": "view",
      "type": "function"
    },
    {
      "inputs": [
        {
          "internalType": "address",
          "name": "",
          "type": "address"
        },
        {
          "internalType": "uint256",
          "name": "",
          "type": "uint256"
        },
        {
          "internalType": "uint256",
          "name": "",
          "type": "uint256"
        }
      ],
      "name": "voteRewardsClaimed",
      "outputs": [
        {
          "internalType": "bool",
          "name": "",
          "type": "bool"
        }
      ],
      "stateMutability": "view",
      "type": "function"
    },
    {
      "inputs": [
        {
          "internalType": "uint256",
          "name": "",
          "type": "uint256"
        }
      ],
      "name": "voteTokens",
      "outputs": [
        {
          "internalType": "address",
          "name": "",
          "type": "address"
        }
      ],
      "stateMutability": "view",
      "type": "function"
    },
    {
      "inputs": [
        {
          "internalType": "address",
          "name": "",
          "type": "address"
        },
        {
          "internalType": "uint256",
          "name": "",
          "type": "uint256"
        }
      ],
      "name": "votedBalances",
      "outputs": [
        {
          "internalType": "uint256",
          "name": "available",
          "type": "uint256"
        },
        {
          "internalType": "uint256",
          "name": "freezed",
          "type": "uint256"
        },
        {
          "internalType": "uint256",
          "name": "votedAt",
          "type": "uint256"
        }
      ],
      "stateMutability": "view",
      "type": "function"
    },
    {
      "inputs": [],
      "name": "weeklyCap",
      "outputs": [
        {
          "internalType": "uint256",
          "name": "",
          "type": "uint256"
        }
      ],
      "stateMutability": "view",
      "type": "function"
    },
    {
      "inputs": [
        {
          "internalType": "address",
          "name": "_token",
          "type": "address"
        },
        {
          "internalType": "uint256",
          "name": "_ratio",
          "type": "uint256"
        }
      ],
      "name": "addVoteToken",
      "outputs": [],
      "stateMutability": "nonpayable",
      "type": "function"
    },
    {
      "inputs": [
        {
          "internalType": "address",
          "name": "_auction",
          "type": "address"
        }
      ],
      "name": "setAuctionAddress",
      "outputs": [],
      "stateMutability": "nonpayable",
      "type": "function"
    },
    {
      "inputs": [
        {
          "internalType": "address",
          "name": "_pin",
          "type": "address"
        }
      ],
      "name": "setPinAddress",
      "outputs": [],
      "stateMutability": "nonpayable",
      "type": "function"
    },
    {
      "inputs": [
        {
          "internalType": "uint256",
          "name": "lockId",
          "type": "uint256"
        }
      ],
      "name": "setTokenLockId",
      "outputs": [],
      "stateMutability": "nonpayable",
      "type": "function"
    },
    {
      "inputs": [
        {
          "internalType": "address",
          "name": "operator",
          "type": "address"
        },
        {
          "internalType": "bool",
          "name": "isOperator",
          "type": "bool"
        }
      ],
      "name": "setOperator",
      "outputs": [],
      "stateMutability": "nonpayable",
      "type": "function"
    },
    {
      "inputs": [
        {
          "internalType": "uint256",
          "name": "_days",
          "type": "uint256"
        }
      ],
      "name": "setVoteDays",
      "outputs": [],
      "stateMutability": "nonpayable",
      "type": "function"
    },
    {
      "inputs": [
        {
          "internalType": "uint256",
          "name": "stakingBase",
          "type": "uint256"
        },
        {
          "internalType": "uint256",
          "name": "startTime",
          "type": "uint256"
        },
        {
          "internalType": "string",
          "name": "matchId",
          "type": "string"
        }
      ],
      "name": "addGroup",
      "outputs": [],
      "stateMutability": "nonpayable",
      "type": "function"
    },
    {
      "inputs": [
        {
          "internalType": "uint256",
          "name": "groupId",
          "type": "uint256"
        },
        {
          "internalType": "address[]",
          "name": "nftAddrs",
          "type": "address[]"
        },
        {
          "internalType": "uint256[]",
          "name": "nftIds",
          "type": "uint256[]"
        }
      ],
      "name": "addNFT",
      "outputs": [],
      "stateMutability": "nonpayable",
      "type": "function"
    },
    {
      "inputs": [
        {
          "internalType": "uint256",
          "name": "groupId",
          "type": "uint256"
        }
      ],
      "name": "groupNFTsLength",
      "outputs": [
        {
          "internalType": "uint256",
          "name": "",
          "type": "uint256"
        }
      ],
      "stateMutability": "view",
      "type": "function"
    },
    {
      "inputs": [
        {
          "internalType": "uint256",
          "name": "groupId",
          "type": "uint256"
        }
      ],
      "name": "getAuctionPrices",
      "outputs": [
        {
          "internalType": "uint256[]",
          "name": "prices",
          "type": "uint256[]"
        },
        {
          "internalType": "uint256",
          "name": "totalAmount",
          "type": "uint256"
        }
      ],
      "stateMutability": "view",
      "type": "function"
    },
    {
      "inputs": [
        {
          "internalType": "uint256",
          "name": "ts",
          "type": "uint256"
        }
      ],
      "name": "getDate",
      "outputs": [
        {
          "internalType": "uint256",
          "name": "",
          "type": "uint256"
        }
      ],
      "stateMutability": "pure",
      "type": "function"
    },
    {
      "inputs": [
        {
          "internalType": "uint256",
          "name": "groupId",
          "type": "uint256"
        }
      ],
      "name": "getVotableDates",
      "outputs": [
        {
          "internalType": "uint256[]",
          "name": "dates",
          "type": "uint256[]"
        }
      ],
      "stateMutability": "view",
      "type": "function"
    },
    {
      "inputs": [
        {
          "internalType": "address",
          "name": "user",
          "type": "address"
        },
        {
          "internalType": "address",
          "name": "token",
          "type": "address"
        },
        {
          "internalType": "address",
          "name": "nftAddr",
          "type": "address"
        },
        {
          "internalType": "uint256",
          "name": "nftId",
          "type": "uint256"
        }
      ],
      "name": "getAvailableBalance",
      "outputs": [
        {
          "internalType": "uint256",
          "name": "",
          "type": "uint256"
        }
      ],
      "stateMutability": "view",
      "type": "function"
    },
    {
      "inputs": [
        {
          "internalType": "address",
          "name": "nftAddr",
          "type": "address"
        },
        {
          "internalType": "uint256",
          "name": "nftId",
          "type": "uint256"
        },
        {
          "internalType": "address",
          "name": "token",
          "type": "address"
        },
        {
          "internalType": "uint256",
          "name": "amount",
          "type": "uint256"
        }
      ],
      "name": "stake",
      "outputs": [],
      "stateMutability": "nonpayable",
      "type": "function"
    },
    {
      "inputs": [
        {
          "internalType": "address",
          "name": "nftAddr",
          "type": "address"
        },
        {
          "internalType": "uint256",
          "name": "nftId",
          "type": "uint256"
        },
        {
          "internalType": "address",
          "name": "token",
          "type": "address"
        },
        {
          "internalType": "uint256",
          "name": "amount",
          "type": "uint256"
        }
      ],
      "name": "unstake",
      "outputs": [],
      "stateMutability": "nonpayable",
      "type": "function"
    },
    {
      "inputs": [
        {
          "internalType": "address",
          "name": "user",
          "type": "address"
        },
        {
          "internalType": "address",
          "name": "token",
          "type": "address"
        }
      ],
      "name": "getRedeemableBalance",
      "outputs": [
        {
          "internalType": "uint256",
          "name": "",
          "type": "uint256"
        }
      ],
      "stateMutability": "view",
      "type": "function"
    },
    {
      "inputs": [
        {
          "internalType": "address",
          "name": "token",
          "type": "address"
        }
      ],
      "name": "redeemToken",
      "outputs": [],
      "stateMutability": "nonpayable",
      "type": "function"
    },
    {
      "inputs": [
        {
          "internalType": "uint256",
          "name": "groupId",
          "type": "uint256"
        },
        {
          "internalType": "address",
          "name": "token",
          "type": "address"
        }
      ],
      "name": "redeemToken",
      "outputs": [],
      "stateMutability": "nonpayable",
      "type": "function"
    },
    {
      "inputs": [
        {
          "internalType": "address",
          "name": "token",
          "type": "address"
        },
        {
          "internalType": "uint256",
          "name": "amount",
          "type": "uint256"
        }
      ],
      "name": "rescueToken",
      "outputs": [],
      "stateMutability": "nonpayable",
      "type": "function"
    },
    {
      "inputs": [
        {
          "internalType": "address",
          "name": "user",
          "type": "address"
        }
      ],
      "name": "getTotalRewards",
      "outputs": [
        {
          "internalType": "uint256",
          "name": "",
          "type": "uint256"
        }
      ],
      "stateMutability": "view",
      "type": "function"
    },
    {
      "inputs": [
        {
          "internalType": "address",
          "name": "user",
          "type": "address"
        },
        {
          "internalType": "uint256",
          "name": "groupId",
          "type": "uint256"
        }
      ],
      "name": "getBaseRewards",
      "outputs": [
        {
          "internalType": "uint256",
          "name": "",
          "type": "uint256"
        }
      ],
      "stateMutability": "view",
      "type": "function"
    },
    {
      "inputs": [
        {
          "internalType": "address",
          "name": "user",
          "type": "address"
        },
        {
          "internalType": "uint256",
          "name": "groupId",
          "type": "uint256"
        }
      ],
      "name": "getAuctionRewards",
      "outputs": [
        {
          "internalType": "uint256",
          "name": "",
          "type": "uint256"
        }
      ],
      "stateMutability": "view",
      "type": "function"
    },
    {
      "inputs": [
        {
          "internalType": "address",
          "name": "user",
          "type": "address"
        }
      ],
      "name": "getBondedBalance",
      "outputs": [
        {
          "internalType": "uint256",
          "name": "",
          "type": "uint256"
        }
      ],
      "stateMutability": "view",
      "type": "function"
    },
    {
      "inputs": [
        {
          "internalType": "address",
          "name": "user",
          "type": "address"
        },
        {
          "internalType": "address",
          "name": "nftAddr",
          "type": "address"
        },
        {
          "internalType": "uint256",
          "name": "nftId",
          "type": "uint256"
        }
      ],
      "name": "getUnvotableBalance",
      "outputs": [
        {
          "internalType": "uint256",
          "name": "",
          "type": "uint256"
        }
      ],
      "stateMutability": "view",
      "type": "function"
    },
    {
      "inputs": [
        {
          "internalType": "address",
          "name": "nftAddr",
          "type": "address"
        },
        {
          "internalType": "uint256",
          "name": "nftId",
          "type": "uint256"
        }
      ],
      "name": "voteFromLock",
      "outputs": [],
      "stateMutability": "nonpayable",
      "type": "function"
    },
    {
      "inputs": [
        {
          "internalType": "address",
          "name": "nftAddr",
          "type": "address"
        },
        {
          "internalType": "uint256",
          "name": "nftId",
          "type": "uint256"
        },
        {
          "internalType": "uint256",
          "name": "amount",
          "type": "uint256"
        }
      ],
      "name": "voteBonded",
      "outputs": [],
      "stateMutability": "nonpayable",
      "type": "function"
    },
    {
      "inputs": [
        {
          "internalType": "address",
          "name": "nftAddr",
          "type": "address"
        },
        {
          "internalType": "uint256",
          "name": "nftId",
          "type": "uint256"
        },
        {
          "internalType": "uint256",
          "name": "amount",
          "type": "uint256"
        }
      ],
      "name": "unvoteBonded",
      "outputs": [],
      "stateMutability": "nonpayable",
      "type": "function"
    },
    {
      "inputs": [
        {
          "internalType": "address",
          "name": "user",
          "type": "address"
        }
      ],
      "name": "getUnbondingBalancesLength",
      "outputs": [
        {
          "internalType": "uint256",
          "name": "",
          "type": "uint256"
        }
      ],
      "stateMutability": "view",
      "type": "function"
    },
    {
      "inputs": [
        {
          "internalType": "uint256",
          "name": "amount",
          "type": "uint256"
        }
      ],
      "name": "unbond",
      "outputs": [],
      "stateMutability": "nonpayable",
      "type": "function"
    },
    {
      "inputs": [
        {
          "internalType": "uint256",
          "name": "index",
          "type": "uint256"
        }
      ],
      "name": "redeemUnbonding",
      "outputs": [],
      "stateMutability": "nonpayable",
      "type": "function"
    },
    {
      "inputs": [
        {
          "internalType": "address",
          "name": "nftAddr",
          "type": "address"
        },
        {
          "internalType": "uint256",
          "name": "nftId",
          "type": "uint256"
        },
        {
          "internalType": "address",
          "name": "to",
          "type": "address"
        }
      ],
      "name": "claimMintRewards",
      "outputs": [],
      "stateMutability": "nonpayable",
      "type": "function"
    },
    {
      "inputs": [
        {
          "internalType": "uint256",
          "name": "groupId",
          "type": "uint256"
        }
      ],
      "name": "getTradeWeights",
      "outputs": [
        {
          "internalType": "uint256[]",
          "name": "weights",
          "type": "uint256[]"
        }
      ],
      "stateMutability": "view",
      "type": "function"
    },
    {
      "inputs": [
        {
          "internalType": "uint256",
          "name": "groupId",
          "type": "uint256"
        }
      ],
      "name": "setAuctionFinish",
      "outputs": [],
      "stateMutability": "nonpayable",
      "type": "function"
    },
    {
      "inputs": [
        {
          "internalType": "uint256",
          "name": "groupId",
          "type": "uint256"
        }
      ],
      "name": "getAuctionRewardRates",
      "outputs": [
        {
          "internalType": "uint256[]",
          "name": "auctionRewardRates",
          "type": "uint256[]"
        }
      ],
      "stateMutability": "view",
      "type": "function"
    },
    {
      "inputs": [
        {
          "internalType": "uint256",
          "name": "groupId",
          "type": "uint256"
        },
        {
          "internalType": "uint256",
          "name": "date",
          "type": "uint256"
        }
      ],
      "name": "getDailyVotes",
      "outputs": [
        {
          "internalType": "uint256",
          "name": "",
          "type": "uint256"
        }
      ],
      "stateMutability": "view",
      "type": "function"
    },
    {
      "inputs": [
        {
          "internalType": "uint256",
          "name": "groupId",
          "type": "uint256"
        }
      ],
      "name": "getWeightsAndInflations",
      "outputs": [
        {
          "internalType": "uint256[]",
          "name": "weights",
          "type": "uint256[]"
        },
        {
          "internalType": "uint256[]",
          "name": "inflations",
          "type": "uint256[]"
        }
      ],
      "stateMutability": "view",
      "type": "function"
    },
    {
      "inputs": [
        {
          "internalType": "uint256",
          "name": "groupId",
          "type": "uint256"
        }
      ],
      "name": "getBaseRewardRates",
      "outputs": [
        {
          "internalType": "uint256[]",
          "name": "rewardRates",
          "type": "uint256[]"
        }
      ],
      "stateMutability": "view",
      "type": "function"
    },
    {
      "inputs": [
        {
          "internalType": "uint256",
          "name": "groupId",
          "type": "uint256"
        }
      ],
      "name": "getMintRewardsPerNFT",
      "outputs": [
        {
          "internalType": "uint256[]",
          "name": "mintRewards",
          "type": "uint256[]"
        }
      ],
      "stateMutability": "view",
      "type": "function"
    },
    {
      "inputs": [
        {
          "internalType": "address",
          "name": "nftAddr",
          "type": "address"
        },
        {
          "internalType": "uint256",
          "name": "nftId",
          "type": "uint256"
        }
      ],
      "name": "getMintRewards",
      "outputs": [
        {
          "internalType": "uint256",
          "name": "",
          "type": "uint256"
        }
      ],
      "stateMutability": "view",
      "type": "function"
    }
  ],
  "bytecode": "0x6080604052600e60018190556200001a906201518062000312565b60025567058d15e17628000060035560046001546003546200003d9190620002d8565b620000499190620002d8565b60045560046003546200005d9190620002d8565b6005556002600354620000719190620002d8565b6006556000600c556000601555612710601b5560006028553480156200009657600080fd5b506040516200543538038062005435833981016040819052620000b991620002a1565b620000df620000d06401000000006200020c810204565b64010000000062000210810204565b60098054600160a060020a031916600160a060020a038416908117909155604080517fa88d8fea000000000000000000000000000000000000000000000000000000008152905163a88d8fea91600480820192602092909190829003018186803b1580156200014d57600080fd5b505afa15801562000162573d6000803e3d6000fd5b505050506040513d601f19601f820116820180604052508101906200018891906200027d565b60088054600160a060020a03928316600160a060020a031991821681178355602980549585169583169590951790945560198054600181019091557f944998273e477b495144fb8794c914197f3ccb46be2900f4698fd0ef743c9695018054909116909317909255601b549154166000908152601a60205260409020555062000357565b3390565b60008054600160a060020a03838116600160a060020a0319831681178455604051919092169283917f8be0079c531659141344cd1fd0a4f28419497f9722a3daafe3b4186f6b6457e09190a35050565b8051600160a060020a03811681146200027857600080fd5b919050565b6000602082840312156200028f578081fd5b6200029a8262000260565b9392505050565b60008060408385031215620002b4578081fd5b620002bf8362000260565b9150620002cf6020840162000260565b90509250929050565b6000826200030d577f4e487b710000000000000000000000000000000000000000000000000000000081526012600452602481fd5b500490565b600081600019048311821515161562000352577f4e487b710000000000000000000000000000000000000000000000000000000081526011600452602481fd5b500290565b6150ce80620003676000396000f3fe608060405234801561001057600080fd5b50600436106104a55760003560e060020a90048063715018a611610271578063ad3bac1a11610155578063c909adc0116100d2578063f298e49311610096578063f298e49314610c84578063f2fde38b14610c97578063f44e3ce114610caa578063f7a64da314610cbd578063f8df0cd314610cee578063fa119fee14610d0157600080fd5b8063c909adc014610c39578063d0b5efa914610c42578063d0f86b2614610c55578063da043af314610c68578063e325fb4b14610c7b57600080fd5b8063c108a85d11610119578063c108a85d14610bca578063c3501ff614610bd3578063c4f6da1214610be6578063c7780c7314610c06578063c7c8895614610c1957600080fd5b8063ad3bac1a14610b47578063b0aad77714610b5a578063b5345afa14610b63578063bae5435314610b97578063bba1189a14610bb757600080fd5b80638503d2cd116101ee57806396324bd4116101b257806396324bd414610aaa5780639d9d9a1014610aca578063a80bf3e614610add578063a88d8fea14610af0578063ac80b61214610b03578063acceea7514610b3457600080fd5b80638503d2cd14610a185780638da5cb5b14610a2b5780638f4d41e814610a3c578063938f173714610a5d57806393ac363814610a9757600080fd5b80637d9f6db5116102355780637d9f6db51461098b5780638049e17b1461099e578063814e7c0f146109cf57806383fd1a54146109f2578063842fc1a314610a0557600080fd5b8063715018a61461093f5780637523d4bd14610947578063768218271461096657806376ec17b71461096f578063776498d41461098257600080fd5b80633dbc65c71161039857806352a437fe1161031557806363c0ea10116102d957806363c0ea10146108505780636482ff981461087057806364ebaaeb14610883578063660dbeb8146108b15780636b942b86146108c45780636f700e251461091f57600080fd5b806352a437fe146107b3578063558a7297146107de578063563c5e30146107f15780635a8542be1461081c57806361d027b31461083d57600080fd5b80634dc1a3e01161035c5780634dc1a3e01461072c5780634e4b61c3146107575780634f8d32be14610777578063502a1d3f14610780578063515cc532146107a057600080fd5b80633dbc65c71461068757806343af356b1461069a5780634654ff05146106c557806346aa25a2146106ce5780634768d4ef1461070c57600080fd5b806317a9c7bd116104265780632b57298b116103ea5780632b57298b146106325780632bcf161c1461064557806333f3d6281461065857806334e7a1a81461066b57806337867c941461067e57600080fd5b806317a9c7bd146105c65780631d1a7fe8146105e65780632281dfa4146105f9578063259239a11461060c57806327de9e321461061f57600080fd5b80631152df0f1161046d5780631152df0f1461052b57806311ef14dd14610554578063126f648c1461056757806313e7c9d81461059a578063171b612c146105bd57600080fd5b8063040308e4146104aa5780630713ee7e146104d0578063079dc7f4146104e55780630971823f146104f85780630d265df91461050b575b600080fd5b6104bd6104b83660046147a5565b610d14565b6040519081526020015b60405180910390f35b6104e36104de366004614932565b610dbc565b005b6104bd6104f3366004614a83565b610fa9565b6104bd610506366004614862565b61104b565b61051e610519366004614982565b6111a6565b6040516104c79190614b7a565b6104bd610539366004614735565b600160a060020a03166000908152601f602052604090205490565b6104e3610562366004614982565b611348565b61058a610575366004614982565b600e6020526000908152604090205460ff1681565b60405190151581526020016104c7565b61058a6105a8366004614735565b60266020526000908152604090205460ff1681565b6104bd60045481565b6104bd6105d4366004614982565b60176020526000908152604090205481565b6104bd6105f4366004614862565b61137a565b6104e3610607366004614862565b611414565b6104e361061a3660046148fb565b61163b565b6104e361062d366004614982565b611994565b6104bd610640366004614982565b611ab6565b6104bd610653366004614735565b611acf565b6104e3610666366004614862565b611b20565b6104e3610679366004614982565b611bd5565b6104bd600c5481565b6104bd61069536600461476d565b611d27565b6104bd6106a8366004614862565b601460209081526000928352604080842090915290825290205481565b6104bd60025481565b6106e16106dc366004614a83565b611da8565b60408051948552600160a060020a0393841660208601528401919091521660608201526080016104c7565b61071f61071a366004614982565b611dfa565b6040516104c79190614bdd565b60275461073f90600160a060020a031681565b604051600160a060020a0390911681526020016104c7565b6104bd610765366004614982565b60216020526000908152604090205481565b6104bd60035481565b6104bd61078e366004614735565b601a6020526000908152604090205481565b61051e6107ae366004614982565b611e94565b6104bd6107c1366004614a83565b601060209081526000928352604080842090915290825290205481565b6104e36107ec366004614835565b612001565b6104bd6107ff366004614862565b601360209081526000928352604080842090915290825290205481565b61082f61082a366004614982565b612059565b6040516104c7929190614bbb565b60095461073f90600160a060020a031681565b6104bd61085e366004614982565b60166020526000908152604090205481565b61073f61087e366004614982565b6121f2565b61058a610891366004614862565b602360209081526000928352604080842090915290825290205460ff1681565b6104bd6108bf3660046147f5565b61221c565b6109046108d23660046147f5565b601c60209081526000938452604080852082529284528284209052825290208054600182015460029092015490919083565b604080519384526020840192909252908201526060016104c7565b6104bd61092d366004614735565b601e6020526000908152604090205481565b6104e36122b8565b6104bd610955366004614735565b602080526000908152604090205481565b6104bd60285481565b6104e361097d3660046148fb565b6122f1565b6104bd601b5481565b600a5461073f90600160a060020a031681565b6104bd6109ac366004614932565b601160209081526000938452604080852082529284528284209052825290205481565b61058a6109dd366004614982565b60246020526000908152604090205460ff1681565b6104e3610a00366004614932565b61260f565b6104e3610a13366004614735565b6127cf565b6104e3610a26366004614a0c565b6128f5565b600054600160a060020a031661073f565b610a4f610a4a366004614982565b612d51565b6040516104c7929190614b8d565b610904610a6b366004614862565b601d60209081526000928352604080842090915290825290208054600182015460029092015490919083565b6104e3610aa5366004614735565b61302b565b6104bd610ab8366004614982565b600b6020526000908152604090205481565b61051e610ad8366004614982565b613087565b60295461073f90600160a060020a031681565b60085461073f90600160a060020a031681565b6104bd610b113660046149d6565b602560209081526000938452604080852082529284528284209052825290205481565b6104bd610b42366004614735565b6131e1565b6104e3610b55366004614735565b61323f565b6104bd60015481565b61058a610b71366004614932565b602260209081526000938452604080852082529284528284209052825290205460ff1681565b6104bd610ba5366004614982565b6000908152600f602052604090205490565b6104e3610bc5366004614aa4565b61329b565b6104bd60055481565b6104e3610be13660046149b2565b613410565b6104bd610bf4366004614982565b60076020526000908152604090205481565b61051e610c14366004614982565b613595565b6104bd610c27366004614982565b60186020526000908152604090205481565b6104bd60155481565b6104e3610c50366004614982565b61385e565b6104bd610c63366004614862565b6138c0565b6104e3610c76366004614862565b6139e0565b6104bd60065481565b6104e3610c92366004614982565b613b0c565b6104e3610ca5366004614735565b613b3e565b6104e3610cb83660046148ba565b613bf6565b6104bd610ccb366004614932565b601260209081526000938452604080852082529284528284209052825290205481565b610904610cfc366004614862565b613e57565b61051e610d0f366004614982565b613e99565b600160a060020a0380831660009081526014602090815260408083208584528252808320548885168452601c835281842094881684529382528083208484528252808320815160608101835281548082526001830154948201949094526002909101549181019190915291929190610d8b42611ab6565b610d988360400151611ab6565b1015610db1576020820151610dae908290613f89565b90505b979650505050505050565b600c546000908152600b6020526040902054421015610df95760405160e560020a62461bcd028152600401610df090614ce2565b60405180910390fd5b600254600c546000908152600b60205260409020544291610e1a9190613f89565b1015610e3b5760405160e560020a62461bcd028152600401610df090614d19565b600160a060020a038316600090815260146020908152604080832085845290915290205483908390610e825760405160e560020a62461bcd028152600401610df090614d50565b6000610e8d336131e1565b905083811015610ee25760405160e560020a62461bcd02815260206004820152601b60248201527f496e73756666696369656e7420626f6e6465642062616c616e636500000000006044820152606401610df0565b610eee33878787613f9c565b600160a060020a0386166000908152601460209081526040808320888452825280832054338452601d8352818420818552909252909120610f2e42611ab6565b610f3b8260020154611ab6565b1015610f5b5760018101548154610f5191613f89565b8155600060018201555b6001810154610f6a9087613f89565b6001820155426002820155336000908152601e6020526040902054610f8f9087613f89565b336000908152601e60205260409020555050505050505050565b600080805b6000858152600f6020526040902054811015611041576000858152600f60205260408120805483908110610ff55760e060020a634e487b7102600052603260045260246000fd5b6000918252602080832060049092029091015487835260108252604080842082855290925291205490915061102b908490613f89565b925050808061103990614ff6565b915050610fae565b5090505b92915050565b60008061105783613e99565b9050600061106484611e94565b905060008061107242611ab6565b905060005b845181101561119a57818582815181106110a45760e060020a634e487b7102600052603260045260246000fd5b6020026020010151106110b65761119a565b6000611178670de0b6b3a76400006111728785815181106110ea5760e060020a634e487b7102600052603260045260246000fd5b6020026020010151601260008e600160a060020a0316600160a060020a0316815260200190815260200160002060008d815260200190815260200160002060008b888151811061114d5760e060020a634e487b7102600052603260045260246000fd5b60200260200101518152602001908152602001600020546141eb90919063ffffffff16565b906141f7565b90506111848482613f89565b935050808061119290614ff6565b915050611077565b50909695505050505050565b6000818152600f60209081526040808320805482518185028101850190935280835260609493849084015b82821015611235576000848152602090819020604080516080810182526004860290920180548352600180820154600160a060020a0390811685870152600283015493850193909352600390910154909116606083015290835290920191016111d1565b505050509050805167ffffffffffffffff8111156112665760e060020a634e487b7102600052604160045260246000fd5b60405190808252806020026020018201604052801561128f578160200160208202803683370190505b50915060008061129e85612059565b909250905080156113405760005b835181101561133e576112fe82611172670de0b6b3a76400008685815181106112e85760e060020a634e487b7102600052603260045260246000fd5b60200260200101516141eb90919063ffffffff16565b8582815181106113215760e060020a634e487b7102600052603260045260246000fd5b60209081029190910101528061133681614ff6565b9150506112ac565b505b505050919050565b600054600160a060020a031633146113755760405160e560020a62461bcd028152600401610df090614dbe565b600155565b600160a060020a03821660009081526014602090815260408083208484528252808320548352601882528083205480845260169092528220541561140a57600081815260166020908152604080832054600554600160a060020a03891685526014845282852088865284528285205485526017909352922054611402929161117291906141eb565b915050611045565b6000915050611045565b600c546000908152600b60205260409020544210156114485760405160e560020a62461bcd028152600401610df090614ce2565b600254600c546000908152600b602052604090205442916114699190613f89565b101561148a5760405160e560020a62461bcd028152600401610df090614d19565b600160a060020a0382166000908152601460209081526040808320848452909152902054829082906114d15760405160e560020a62461bcd028152600401610df090614d50565b6029546028546040517fc7b1e3f20000000000000000000000000000000000000000000000000000000081526004810191909152336024820152600091600160a060020a03169063c7b1e3f290604401602060405180830381600087803b15801561153b57600080fd5b505af115801561154f573d6000803e3d6000fd5b505050506040513d601f19601f82011682018060405250810190611573919061499a565b905061158133868684613f9c565b600160a060020a0385166000908152601460209081526040808320878452825280832054338452601d83528184208185529092529091206115c142611ab6565b6115ce8260020154611ab6565b10156115ee57600181015481546115e491613f89565b8155600060018201555b60018101546115fd9084613f89565b6001820155426002820155336000908152601e60205260409020546116229084613f89565b336000908152601e602052604090205550505050505050565b816000805b6019548110156116ae5782600160a060020a0316601982815481106116785760e060020a634e487b7102600052603260045260246000fd5b600091825260209091200154600160a060020a0316141561169c57600191506116ae565b806116a681614ff6565b915050611640565b50806116ff5760405160e560020a62461bcd02815260206004820152601260248201527f496e76616c696420566f746520546f6b656e00000000000000000000000000006044820152606401610df0565b600c546000908152600b60205260409020544210156117335760405160e560020a62461bcd028152600401610df090614ce2565b600254600c546000908152600b602052604090205442916117549190613f89565b10156117755760405160e560020a62461bcd028152600401610df090614d19565b600160a060020a0386166000908152601460209081526040808320888452909152902054869086906117bc5760405160e560020a62461bcd028152600401610df090614d50565b600085116117df5760405160e560020a62461bcd028152600401610df090614d87565b60006117eb8787614203565b90506117f9338a8a84613f9c565b6040517f23b872dd00000000000000000000000000000000000000000000000000000000815233600482015230602482015260448101879052600160a060020a038816906323b872dd90606401602060405180830381600087803b15801561186057600080fd5b505af1158015611874573d6000803e3d6000fd5b505050506040513d601f19601f820116820180604052508101906118989190614966565b50600c5460009081526025602090815260408083203384528252808320600160a060020a038b1684529091529020546118d19087613f89565b600c54600090815260256020908152604080832033808552908352818420600160a060020a038d811680875291855283862096909655948e168452601483528184208d8552835281842054908452601c8352818420948452938252808320848452909152902061194042611ab6565b61194d8260020154611ab6565b101561196d576001810154815461196391613f89565b8155600060018201555b600181015461197c9089613f89565b60018201554260029091015550505050505050505050565b600061199f336131e1565b9050818110156119f45760405160e560020a62461bcd02815260206004820152601b60248201527f496e73756666696369656e7420626f6e6465642062616c616e636500000000006044820152606401610df0565b336000818152601f6020908152604080832081516060810183528781524281850190815281840186815283546001818101865594885286882093516003909102909301928355905192820192909255905160029091015592825280522054611a5c9083613f89565b336000818152602080526040908190209290925590517f7659747cd8571f1071eea946fdc648adcf181cad916f32a05f82c3a52597604890611aaa9085904290918252602082015260400190565b60405180910390a25050565b6000611045611ac88362015180614399565b83906143a5565b60008060015b600c548111611b1957611b05611aeb85836138c0565b611aff611af8878561104b565b8590613f89565b90613f89565b915080611b1181614ff6565b915050611ad5565b5092915050565b600054600160a060020a03163314611b4d5760405160e560020a62461bcd028152600401610df090614dbe565b60405160e060020a63a9059cbb02815233600482015260248101829052600160a060020a0383169063a9059cbb90604401602060405180830381600087803b158015611b9857600080fd5b505af1158015611bac573d6000803e3d6000fd5b505050506040513d601f19601f82011682018060405250810190611bd09190614966565b505050565b336000908152601f60205260408120805483908110611c075760e060020a634e487b7102600052603260045260246000fd5b906000526020600020906003020190506000611c3f62015180611172611c308560010154611ab6565b611c3942611ab6565b906143a5565b90506000611c5f603c6111728560000154856141eb90919063ffffffff16565b90506000611c7a8460020154836143a590919063ffffffff16565b600285018390556009546040517fc8773af200000000000000000000000000000000000000000000000000000000815233600482015260248101839052919250600160a060020a03169063c8773af290604401602060405180830381600087803b158015611ce757600080fd5b505af1158015611cfb573d6000803e3d6000fd5b505050506040513d601f19601f82011682018060405250810190611d1f919061499a565b505050505050565b60008060015b600c548111611041576002546000828152600b60205260409020544291611d5391614e2a565b1015611d96576000818152602560209081526040808320600160a060020a03808a1685529083528184209088168452909152902054611d93908390613f89565b91505b80611da081614ff6565b915050611d2d565b600f6020528160005260406000208181548110611dc457600080fd5b60009182526020909120600490910201805460018201546002830154600390930154919450600160a060020a0390811693501684565b600d6020526000908152604090208054611e1390614fbe565b80601f0160208091040260200160405190810160405280929190818152602001828054611e3f90614fbe565b8015611e8c5780601f10611e6157610100808354040283529160200191611e8c565b820191906000526020600020905b815481529060010190602001808311611e6f57829003601f168201915b505050505081565b60606000611ea183613e99565b90506000611eae84612d51565b915050815167ffffffffffffffff811115611edc5760e060020a634e487b7102600052604160045260246000fd5b604051908082528060200260200182016040528015611f05578160200160208202803683370190505b50925060005b825181101561134057611f1d42611ab6565b838281518110611f405760e060020a634e487b7102600052603260045260246000fd5b60200260200101511115611f5357611340565b6000611f8986858481518110611f7c5760e060020a634e487b7102600052603260045260246000fd5b6020026020010151610fa9565b90508015611fee57611fbe816111726004548686815181106112e85760e060020a634e487b7102600052603260045260246000fd5b858381518110611fe15760e060020a634e487b7102600052603260045260246000fd5b6020026020010181815250505b5080611ff981614ff6565b915050611f0b565b600054600160a060020a0316331461202e5760405160e560020a62461bcd028152600401610df090614dbe565b600160a060020a03919091166000908152602660205260409020805460ff1916911515919091179055565b6000818152600f60205260408120546060919067ffffffffffffffff8111156120955760e060020a634e487b7102600052604160045260246000fd5b6040519080825280602002602001820160405280156120be578160200160208202803683370190505b50915060005b6000848152600f60205260409020548110156121ec57600a546000858152600d602052604080822090517fe3c6623d00000000000000000000000000000000000000000000000000000000815291928392600160a060020a039091169163e3c6623d9161213691908790600401614c30565b604080518083038186803b15801561214d57600080fd5b505afa158015612161573d6000803e3d6000fd5b505050506040513d601f19601f82011682018060405250810190612185919061488d565b9092509050600160a060020a03821661219c575060005b808584815181106121c05760e060020a634e487b7102600052603260045260246000fd5b60209081029190910101526121d58482613f89565b9350505080806121e490614ff6565b9150506120c4565b50915091565b6019818154811061220257600080fd5b600091825260209091200154600160a060020a0316905081565b600160a060020a0380831660009081526014602090815260408083208584528252808320549387168352601d8252808320848452825280832081516060810183528154808252600183015494820194909452600290910154918101919091529192919061228842611ab6565b6122958360400151611ab6565b10156122ae5760208201516122ab908290613f89565b90505b9695505050505050565b600054600160a060020a031633146122e55760405160e560020a62461bcd028152600401610df090614dbe565b6122ef60006143b1565b565b816000805b6019548110156123645782600160a060020a03166019828154811061232e5760e060020a634e487b7102600052603260045260246000fd5b600091825260209091200154600160a060020a031614156123525760019150612364565b8061235c81614ff6565b9150506122f6565b50806123b55760405160e560020a62461bcd02815260206004820152601260248201527f496e76616c696420566f746520546f6b656e00000000000000000000000000006044820152606401610df0565b600160a060020a0386166000908152601460209081526040808320888452909152902054869086906123fc5760405160e560020a62461bcd028152600401610df090614d50565b6000851161241f5760405160e560020a62461bcd028152600401610df090614d87565b600061242d33888b8b610d14565b9050858110156124825760405160e560020a62461bcd02815260206004820152601460248201527f496e73756666696369656e742062616c616e63650000000000000000000000006044820152606401610df0565b600061248e8888614203565b905061249c338b8b8461440e565b60405160e060020a63a9059cbb02815233600482015260248101889052600160a060020a0389169063a9059cbb90604401602060405180830381600087803b1580156124e757600080fd5b505af11580156124fb573d6000803e3d6000fd5b505050506040513d601f19601f8201168201806040525081019061251f9190614966565b50600c5460009081526025602090815260408083203384528252808320600160a060020a038c16845290915290205461255890886143a5565b600c54600090815260256020908152604080832033808552908352818420600160a060020a038e811680875291855283862096909655948f168452601483528184208e8552835281842054908452601c835281842094845293825280832084845290915290206125c742611ab6565b6125d48260020154611ab6565b10156125f457600181015481546125ea91613f89565b8155600060018201555b8054612600908a6143a5565b90555050505050505050505050565b600c546000908152600b60205260409020544210156126435760405160e560020a62461bcd028152600401610df090614ce2565b600254600c546000908152600b602052604090205442916126649190613f89565b10156126855760405160e560020a62461bcd028152600401610df090614d19565b600160a060020a0383166000908152601460209081526040808320858452909152902054839083906126cc5760405160e560020a62461bcd028152600401610df090614d50565b60006126d933878761221c565b90508381101561272e5760405160e560020a62461bcd02815260206004820152601e60248201527f496e73756666696369656e7420756e766f7461626c652062616c616e636500006044820152606401610df0565b61273a3387878761440e565b600160a060020a0386166000908152601460209081526040808320888452825280832054338452601d835281842081855290925290912061277a42611ab6565b6127878260020154611ab6565b10156127a7576001810154815461279d91613f89565b8155600060018201555b80546127b390876143a5565b8155336000908152601e6020526040902054610f8f90876143a5565b60006127db3383611d27565b9050600081116128305760405160e560020a62461bcd02815260206004820152601460248201527f576974686472617761626c65206973207a65726f0000000000000000000000006044820152606401610df0565b60405160e060020a63a9059cbb02815233600482015260248101829052600160a060020a0383169063a9059cbb90604401602060405180830381600087803b15801561287b57600080fd5b505af115801561288f573d6000803e3d6000fd5b505050506040513d601f19601f820116820180604052508101906128b39190614966565b5060408051600160a060020a03841681526020810183905233917fd12200efa34901b99367694174c3b0d32c99585fdf37c7c26892136ddd0836d99101611aaa565b3360009081526026602052604090205460ff168061291d5750600054600160a060020a031633145b61293c5760405160e560020a62461bcd028152600401610df090614df3565b82811461298e5760405160e560020a62461bcd02815260206004820152600e60248201527f496e76616c696420706172616d730000000000000000000000000000000000006044820152606401610df0565b6000858152600f60205260408120905b84811015612d4857601460008787848181106129cd5760e060020a634e487b7102600052603260045260246000fd5b90506020020160208101906129e29190614735565b600160a060020a0316600160a060020a031681526020019081526020016000206000858584818110612a275760e060020a634e487b7102600052603260045260246000fd5b90506020020135815260200190815260200160002054600014612a8f5760405160e560020a62461bcd02815260206004820152601260248201527f4e465420686173206265656e20616464656400000000000000000000000000006044820152606401610df0565b60158054906000612a9f83614ff6565b919050555060155460146000888885818110612ace5760e060020a634e487b7102600052603260045260246000fd5b9050602002016020810190612ae39190614735565b600160a060020a0316600160a060020a031681526020019081526020016000206000868685818110612b285760e060020a634e487b7102600052603260045260246000fd5b905060200201358152602001908152602001600020819055506000868683818110612b665760e060020a634e487b7102600052603260045260246000fd5b9050602002016020810190612b7b9190614735565b600160a060020a0316636352211e868685818110612bac5760e060020a634e487b7102600052603260045260246000fd5b905060200201356040518263ffffffff1660e060020a028152600401612bd491815260200190565b60206040518083038186803b158015612bec57600080fd5b505afa158015612c00573d6000803e3d6000fd5b505050506040513d601f19601f82011682018060405250810190612c249190614751565b90508260405180608001604052806015548152602001898986818110612c5d5760e060020a634e487b7102600052603260045260246000fd5b9050602002016020810190612c729190614735565b600160a060020a03168152602001878786818110612ca35760e060020a634e487b7102600052603260045260246000fd5b60209081029290920135835250600160a060020a03948516918101919091528254600181810185556000948552828520845160049093020191825583830151908201805491871673ffffffffffffffffffffffffffffffffffffffff1992831617905560408085015160028401556060909401516003909201805492909616911617909355601554825260189092522087905580612d4081614ff6565b91505061299e565b50505050505050565b6060806000612d5f84613e99565b9050805167ffffffffffffffff811115612d8c5760e060020a634e487b7102600052604160045260246000fd5b604051908082528060200260200182016040528015612db5578160200160208202803683370190505b509250805167ffffffffffffffff811115612de35760e060020a634e487b7102600052604160045260246000fd5b604051908082528060200260200182016040528015612e0c578160200160208202803683370190505b50915060005b8151811015613024576000612e4486848481518110611f7c5760e060020a634e487b7102600052603260045260246000fd5b600087815260076020526040902054909150612e6c9061117283670de0b6b3a76400006141eb565b858381518110612e8f5760e060020a634e487b7102600052603260045260246000fd5b602002602001018181525050670429d069189e0000858381518110612ec75760e060020a634e487b7102600052603260045260246000fd5b60200260200101511015612f12576702c68af0bb140000848381518110612f015760e060020a634e487b7102600052603260045260246000fd5b602002602001018181525050613011565b670429d069189e0000858381518110612f3e5760e060020a634e487b7102600052603260045260246000fd5b602002602001015110158015612f8557506709b6e64a8ec60000858381518110612f7b5760e060020a634e487b7102600052603260045260246000fd5b6020026020010151105b15612fd857848281518110612fad5760e060020a634e487b7102600052603260045260246000fd5b6020026020010151848381518110612f015760e060020a634e487b7102600052603260045260246000fd5b670de0b6b3a76400008483815181106130045760e060020a634e487b7102600052603260045260246000fd5b6020026020010181815250505b508061301c81614ff6565b915050612e12565b5050915091565b600054600160a060020a031633146130585760405160e560020a62461bcd028152600401610df090614dbe565b600a805473ffffffffffffffffffffffffffffffffffffffff1916600160a060020a0392909216919091179055565b6000818152600f602052604090205460609067ffffffffffffffff8111156130c25760e060020a634e487b7102600052604160045260246000fd5b6040519080825280602002602001820160405280156130eb578160200160208202803683370190505b50905060005b6000838152600f60205260409020548110156131db57600083815260166020526040902054156131c957600083815260166020908152604080832054600554600f90935290832080546131999492936111729390926017928890811061316a5760e060020a634e487b7102600052603260045260246000fd5b9060005260206000209060040201600001548152602001908152602001600020546141eb90919063ffffffff16565b8282815181106131bc5760e060020a634e487b7102600052603260045260246000fd5b6020026020010181815250505b806131d381614ff6565b9150506130f1565b50919050565b6000806131ed83611acf565b600160a060020a03841660009081526020808052604080832054601e909252822054929350909161321d91613f89565b905080821161322d576000613237565b61323782826143a5565b949350505050565b600054600160a060020a0316331461326c5760405160e560020a62461bcd028152600401610df090614dbe565b6027805473ffffffffffffffffffffffffffffffffffffffff1916600160a060020a0392909216919091179055565b3360009081526026602052604090205460ff16806132c35750600054600160a060020a031633145b6132e25760405160e560020a62461bcd028152600401610df090614df3565b600c5415806133105750600254600c546000908152600b6020526040902054429161330d9190613f89565b11155b61335f5760405160e560020a62461bcd02815260206004820152601b60248201527f50726576696f75732067726f7570206973206e6f74206f7665722e00000000006044820152606401610df0565b61336842611ab6565b8310156133ba5760405160e560020a62461bcd02815260206004820152601260248201527f496e76616c69642073746172742074696d6500000000000000000000000000006044820152606401610df0565b600c80549060006133ca83614ff6565b9091555050600c80546000908152600b60209081526040808320879055835483526007825280832088905592548252600d905220613409908383614653565b5050505050565b6002546000838152600b6020526040902054429161342d91614e2a565b1061347d5760405160e560020a62461bcd02815260206004820152601060248201527f566f7465206973206e6f74206f766572000000000000000000000000000000006044820152606401610df0565b60008281526025602090815260408083203384528252808320600160a060020a0385168452909152902054806134c85760405160e560020a62461bcd028152600401610df090614d87565b60405160e060020a63a9059cbb02815233600482015260248101829052600160a060020a0383169063a9059cbb90604401602060405180830381600087803b15801561351357600080fd5b505af1158015613527573d6000803e3d6000fd5b505050506040513d601f19601f8201168201806040525081019061354b9190614966565b5060408051600160a060020a03841681526020810183905233917fd12200efa34901b99367694174c3b0d32c99585fdf37c7c26892136ddd0836d9910160405180910390a2505050565b606060006135a2836111a6565b90506000600f6000858152602001908152602001600020805480602002602001604051908101604052809291908181526020016000905b8282101561363d576000848152602090819020604080516080810182526004860290920180548352600180820154600160a060020a0390811685870152600283015493850193909352600390910154909116606083015290835290920191016135d9565b505050509050805167ffffffffffffffff81111561366e5760e060020a634e487b7102600052604160045260246000fd5b604051908082528060200260200182016040528015613697578160200160208202803683370190505b50925060006136a585612d51565b9150506000613702670de0b6b3a764000061117284600186516136c89190614fa7565b815181106136e95760e060020a634e487b7102600052603260045260246000fd5b60200260200101516006546141eb90919063ffffffff16565b905060005b835181101561385457601760008583815181106137375760e060020a634e487b7102600052603260045260246000fd5b6020026020010151600001518152602001908152602001600020546000141561379057600086828151811061377f5760e060020a634e487b7102600052603260045260246000fd5b602002602001018181525050613842565b613812601760008684815181106137ba5760e060020a634e487b7102600052603260045260246000fd5b6020026020010151600001518152602001908152602001600020546111728784815181106137fb5760e060020a634e487b7102600052603260045260246000fd5b6020026020010151856141eb90919063ffffffff16565b8682815181106138355760e060020a634e487b7102600052603260045260246000fd5b6020026020010181815250505b8061384c81614ff6565b915050613707565b5050505050919050565b3360009081526026602052604090205460ff16806138865750600054600160a060020a031633145b6138a55760405160e560020a62461bcd028152600401610df090614df3565b6000908152600e60205260409020805460ff19166001179055565b6000818152600e602052604081205460ff166138de57506000611045565b6000806138ea84613595565b905060005b6000858152600f60205260409020548110156139d657600160a060020a0386166000908152601360209081526040808320888452600f90925282208054839190859081106139505760e060020a634e487b7102600052603260045260246000fd5b90600052602060002090600402016000015481526020019081526020016000205490506139c084611aff670de0b6b3a76400006111728787815181106139a95760e060020a634e487b7102600052603260045260246000fd5b6020026020010151866141eb90919063ffffffff16565b93505080806139ce90614ff6565b9150506138ef565b5090949350505050565b3360009081526026602052604090205460ff1680613a085750600054600160a060020a031633145b613a275760405160e560020a62461bcd028152600401610df090614df3565b600160a060020a0382166000908152601a602052604081208290555b601954811015613aad5782600160a060020a031660198281548110613a7b5760e060020a634e487b7102600052603260045260246000fd5b600091825260209091200154600160a060020a03161415613a9b57505050565b80613aa581614ff6565b915050613a43565b50601980546001810182556000919091527f944998273e477b495144fb8794c914197f3ccb46be2900f4698fd0ef743c9695018054600160a060020a03841673ffffffffffffffffffffffffffffffffffffffff199091161790555050565b600054600160a060020a03163314613b395760405160e560020a62461bcd028152600401610df090614dbe565b602855565b600054600160a060020a03163314613b6b5760405160e560020a62461bcd028152600401610df090614dbe565b600160a060020a038116613bea5760405160e560020a62461bcd02815260206004820152602660248201527f4f776e61626c653a206e6577206f776e657220697320746865207a65726f206160448201527f64647265737300000000000000000000000000000000000000000000000000006064820152608401610df0565b613bf3816143b1565b50565b602754600160a060020a03163314613c535760405160e560020a62461bcd02815260206004820152600960248201527f466f7262696464656e00000000000000000000000000000000000000000000006044820152606401610df0565b600160a060020a03831660009081526014602090815260408083208584528252808320548084526018835281842054602490935292205460ff1615613cdd5760405160e560020a62461bcd02815260206004820152600760248201527f436c61696d6564000000000000000000000000000000000000000000000000006044820152606401610df0565b6000805b6000838152600f6020526040902054811015613d8f576000838152600f60205260409020805485919083908110613d2b5760e060020a634e487b7102600052603260045260246000fd5b9060005260206000209060040201600001541415613d7d57613d4c83613087565b8181518110613d6e5760e060020a634e487b7102600052603260045260246000fd5b60200260200101519150613d8f565b80613d8781614ff6565b915050613ce1565b508015611d1f576009546040517fc8773af2000000000000000000000000000000000000000000000000000000008152600160a060020a038681166004830152602482018490529091169063c8773af290604401602060405180830381600087803b158015613dfd57600080fd5b505af1158015613e11573d6000803e3d6000fd5b505050506040513d601f19601f82011682018060405250810190613e35919061499a565b506000838152602460205260409020805460ff19166001179055505050505050565b601f6020528160005260406000208181548110613e7357600080fd5b600091825260209091206003909102018054600182015460029092015490935090915083565b6000818152600b60205260409020546001546060919067ffffffffffffffff811115613ed85760e060020a634e487b7102600052604160045260246000fd5b604051908082528060200260200182016040528015613f01578160200160208202803683370190505b5091506000613f0f82611ab6565b905060005b60015481101561134057613f49613f2c826018614f47565b613f3790603c614f47565b613f4290603c614f47565b8390613f89565b848281518110613f6c5760e060020a634e487b7102600052603260045260246000fd5b602090810291909101015280613f8181614ff6565b915050613f14565b6000613f958284614e2a565b9392505050565b6000613fa742611ab6565b90506000613fb6600c54613e99565b600160a060020a03861660009081526014602090815260408083208884529091528120549192505b82518110156141e1578383828151811061400b5760e060020a634e487b7102600052603260045260246000fd5b6020026020010151106141cf57600083828151811061403d5760e060020a634e487b7102600052603260045260246000fd5b6020908102919091018101516000818152601083526040808220878352909352919091205490915061406f9087613f89565b6000828152601060209081526040808320878452825280832093909355600160a060020a038c168252601181528282208483528152828220868352905220546140b89087613f89565b600160a060020a038a166000818152601160209081526040808320868452825280832088845282528083209490945591815260128252828120600c5482528252828120848252909152205461410d9087613f89565b600160a060020a038a166000818152601260209081526040808320600c548452825280832086845282528083209490945591815260138252828120868252909152205461415a9087613f89565b600160a060020a038a1660009081526013602090815260408083208784528252808320939093556017905220546141919087613f89565b600084815260176020908152604080832093909355600c5482526016905220546141bb9087613f89565b600c54600090815260166020526040902055505b806141d981614ff6565b915050613fde565b5050505050505050565b6000613f958284614f47565b6000613f958284614e42565b600080600860009054906101000a9004600160a060020a0316600160a060020a031663313ce5676040518163ffffffff1660e060020a02815260040160206040518083038186803b15801561425757600080fd5b505afa15801561426b573d6000803e3d6000fd5b505050506040513d601f19601f8201168201806040525081019061428f9190614b1f565b84600160a060020a031663313ce5676040518163ffffffff1660e060020a02815260040160206040518083038186803b1580156142cb57600080fd5b505afa1580156142df573d6000803e3d6000fd5b505050506040513d601f19601f820116820180604052508101906143039190614b1f565b61430d9190614f66565b905060008160000b126143515761140261432882600a614e9b565b601b54600160a060020a0387166000908152601a602052604090205461117291908290886141eb565b61140261435d82615025565b61436890600a614e9b565b601b54600160a060020a0387166000908152601a6020526040902054614393919061117290886141eb565b906141eb565b6000613f958284615011565b6000613f958284614fa7565b60008054600160a060020a0383811673ffffffffffffffffffffffffffffffffffffffff19831681178455604051919092169283917f8be0079c531659141344cd1fd0a4f28419497f9722a3daafe3b4186f6b6457e09190a35050565b600061441942611ab6565b90506000614428600c54613e99565b600160a060020a03861660009081526014602090815260408083208884529091528120549192505b82518110156141e1578383828151811061447d5760e060020a634e487b7102600052603260045260246000fd5b6020026020010151106146415760008382815181106144af5760e060020a634e487b7102600052603260045260246000fd5b602090810291909101810151600081815260108352604080822087835290935291909120549091506144e190876143a5565b6000828152601060209081526040808320878452825280832093909355600160a060020a038c1682526011815282822084835281528282208683529052205461452a90876143a5565b600160a060020a038a166000818152601160209081526040808320868452825280832088845282528083209490945591815260128252828120600c5482528252828120848252909152205461457f90876143a5565b600160a060020a038a166000818152601260209081526040808320600c54845282528083208684528252808320949094559181526013825282812086825290915220546145cc90876143a5565b600160a060020a038a16600090815260136020908152604080832087845282528083209390935560179052205461460390876143a5565b600084815260176020908152604080832093909355600c54825260169052205461462d90876143a5565b600c54600090815260166020526040902055505b8061464b81614ff6565b915050614450565b82805461465f90614fbe565b90600052602060002090601f01602090048101928261468157600085556146c7565b82601f1061469a5782800160ff198235161785556146c7565b828001600101855582156146c7579182015b828111156146c75782358255916020019190600101906146ac565b506146d39291506146d7565b5090565b5b808211156146d357600081556001016146d8565b60008083601f8401126146fd578182fd5b50813567ffffffffffffffff811115614714578182fd5b602083019150836020808302850101111561472e57600080fd5b9250929050565b600060208284031215614746578081fd5b8135613f9581615075565b600060208284031215614762578081fd5b8151613f9581615075565b6000806040838503121561477f578081fd5b823561478a81615075565b9150602083013561479a81615075565b809150509250929050565b600080600080608085870312156147ba578182fd5b84356147c581615075565b935060208501356147d581615075565b925060408501356147e581615075565b9396929550929360600135925050565b600080600060608486031215614809578283fd5b833561481481615075565b9250602084013561482481615075565b929592945050506040919091013590565b60008060408385031215614847578182fd5b823561485281615075565b9150602083013561479a8161508a565b60008060408385031215614874578182fd5b823561487f81615075565b946020939093013593505050565b6000806040838503121561489f578182fd5b82516148aa81615075565b6020939093015192949293505050565b6000806000606084860312156148ce578283fd5b83356148d981615075565b92506020840135915060408401356148f081615075565b809150509250925092565b60008060008060808587031215614910578384fd5b843561491b81615075565b93506020850135925060408501356147e581615075565b600080600060608486031215614946578283fd5b833561495181615075565b95602085013595506040909401359392505050565b600060208284031215614977578081fd5b8151613f958161508a565b600060208284031215614993578081fd5b5035919050565b6000602082840312156149ab578081fd5b5051919050565b600080604083850312156149c4578182fd5b82359150602083013561479a81615075565b6000806000606084860312156149ea578081fd5b8335925060208401356149fc81615075565b915060408401356148f081615075565b600080600080600060608688031215614a23578283fd5b85359450602086013567ffffffffffffffff80821115614a41578485fd5b614a4d89838a016146ec565b90965094506040880135915080821115614a65578283fd5b50614a72888289016146ec565b969995985093965092949392505050565b60008060408385031215614a95578182fd5b50508035926020909101359150565b60008060008060608587031215614ab9578182fd5b8435935060208501359250604085013567ffffffffffffffff80821115614ade578384fd5b818701915087601f830112614af1578384fd5b813581811115614aff578485fd5b886020828501011115614b10578485fd5b95989497505060200194505050565b600060208284031215614b30578081fd5b815160ff81168114613f95578182fd5b6000815180845260208085019450808401835b83811015614b6f57815187529582019590820190600101614b53565b509495945050505050565b602081526000613f956020830184614b40565b604081526000614ba06040830185614b40565b8281036020840152614bb28185614b40565b95945050505050565b604081526000614bce6040830185614b40565b90508260208301529392505050565b6000602080835283518082850152825b81811015614c0957858101830151858201604001528201614bed565b81811115614c1a5783604083870101525b50601f01601f1916929092016040019392505050565b604081528254600090819060028104600180831680614c5057607f831692505b6020808410821415614c735760e060020a634e487b710287526022600452602487fd5b6040880184905260608801828015614c925760018114614ca357614ccd565b60ff19871682528282019750614ccd565b60008c815260209020895b87811015614cc757815484820152908601908401614cae565b83019850505b50509690960196909652509095945050505050565b60208082526013908201527f566f74696e67206973206e6f7420737461727400000000000000000000000000604082015260600190565b6020808252600e908201527f566f74696e67206973206f766572000000000000000000000000000000000000604082015260600190565b6020808252600b908201527f496e76616c6964204e4654000000000000000000000000000000000000000000604082015260600190565b6020808252600e908201527f416d6f756e74206973207a65726f000000000000000000000000000000000000604082015260600190565b6020808252818101527f4f776e61626c653a2063616c6c6572206973206e6f7420746865206f776e6572604082015260600190565b6020808252600c908201527f4e6f74206f70657261746f720000000000000000000000000000000000000000604082015260600190565b60008219821115614e3d57614e3d615043565b500190565b600082614e5157614e5161505c565b500490565b600181815b80851115614e93578160001904821115614e7757614e77615043565b80851615614e8457918102915b60029094049390800290614e5b565b509250929050565b6000613f9560ff841683600082614eb457506001611045565b81614ec157506000611045565b8160018114614ed75760028114614ee157614efe565b6001915050611045565b60ff841115614ef257614ef2615043565b8360020a915050611045565b5060208310610133831016604e8410600b8410161715614f21575081810a611045565b614f2b8383614e56565b8060001904821115614f3f57614f3f615043565b029392505050565b6000816000190483118215151615614f6157614f61615043565b500290565b600081810b83820b8281128015607f19830184121615614f8857614f88615043565b81607f018313811615614f9d57614f9d615043565b5090039392505050565b600082821015614fb957614fb9615043565b500390565b600281046001821680614fd257607f821691505b602082108114156131db5760e060020a634e487b7102600052602260045260246000fd5b600060001982141561500a5761500a615043565b5060010190565b6000826150205761502061505c565b500690565b600081810b607f1981141561503c5761503c615043565b9003919050565b60e060020a634e487b7102600052601160045260246000fd5b60e060020a634e487b7102600052601260045260246000fd5b600160a060020a0381168114613bf357600080fd5b8015158114613bf357600080fdfea26469706673582212208ca7d4aa1fa5539e461b555fe8f20a9c7d8b122c694f6141d6e30ef176636f3664736f6c63430008040033",
  "immutableReferences": {},
  "source": "// SPDX-License-Identifier: MIT\npragma solidity ^0.8.0;\n\nimport \"@openzeppelin/contracts/access/Ownable.sol\";\nimport \"@openzeppelin/contracts/utils/math/SafeMath.sol\";\nimport \"@openzeppelin/contracts/token/ERC20/IERC20.sol\";\nimport \"@openzeppelin/contracts/token/ERC721/IERC721.sol\";\nimport \"@openzeppelin/contracts/token/ERC20/extensions/IERC20Metadata.sol\";\n\n\ninterface ITreasury {\n\tfunction sendRewards(address to, uint256 amount) external returns(uint256 val);\n\tfunction uink() external view returns(address);\n}\n\ninterface IAuction {\n\tfunction matchResults(string calldata matchId, uint index) external view returns(address, uint);\n}\n\ninterface ITokenLocker {\n\tfunction subLockForVote(uint256 lockId, address accountAddress) external returns(uint);\n}\n\n\ncontract VoteMining is Ownable {\n\tusing SafeMath for uint256;\n\n\tuint public VOTE_DAYS = 14;\n\tuint public VOTE_DURATION = VOTE_DAYS * 1 days;\n\n\tuint public weeklyCap = 400000 * 1e12;\n\tuint public dailyVoteRewardCap = weeklyCap / VOTE_DAYS / 4; // 25% of daily cap \n\tuint public mintRewardCap = weeklyCap / 4; // 25% of daily cap \n\tuint public bonusCap = weeklyCap  / 2; // 50% of weekly cap\n\t// group id => amount\n\tmapping (uint => uint) public stakingBases;\n\n\n\taddress public uink;\n\tITreasury public treasury;\n\taddress public auction;\n\n\tstruct NFT {\n\t\tuint uid;\n\t\taddress addr;\n\t\tuint id;\n\t\taddress owner;\n\t}\n\t// id => start time\n\tmapping (uint => uint) public groups;\n\tuint public currentGroupId = 0;\n\t// group id => matchId\n\tmapping (uint => string) public matches;\n\t// group id => finished or not\n\tmapping (uint => bool) public hasFinished;\n\t\n\t\n\t// group id => NFT[]\n\tmapping (uint => NFT[]) public groupNFTs;\n\n\t// date => NFT uid => votes\n\tmapping (uint => mapping (uint => uint)) public dayVotes;\n\n\t// user => date => NFT id => amount\n\tmapping (address => mapping (uint => mapping (uint => uint))) public userVotes;\n\n\t// user => groupId => date => votes\n\tmapping (address => mapping (uint => mapping (uint => uint))) public userDailyVotes;\n\n\t// user => nft uid => votes \n\tmapping (address => mapping (uint => uint)) public userNFTVotes;\n\t\n\n\t// nft address => nftId => internal id\n\tmapping (address => mapping (uint => uint)) public nfts;\n\tuint public nextNFTId = 0;\n\n\t// group id => votes\n\tmapping (uint => uint) public groupVotes;\n\n\t// uid => votes\n\tmapping (uint => uint) public nftVotes;\n\n\t// date => votes\n\t// mapping (uint => uint) public dailyTotalVotes;\n\t\n\n\t// uid => group id\n\tmapping (uint => uint) public nftGroup;\n\t\n\taddress[] public voteTokens;\n\t// token => ratio\n\tmapping (address => uint) public voteRatio;\n\n\tuint public voteRatioMax = 10000;\n\t\n\n\tstruct Balance {\n\t\tuint available;\n\t\tuint freezed;\n\t\tuint votedAt;\n\t}\n\n\tstruct UnbondingBalance {\n\t\tuint value;\n\t\tuint unbondedAt;\n\t\tuint redeemed;\n\t}\n\n\t// user => token => uid => Balance\n\tmapping (address => mapping (address => mapping (uint => Balance))) public balances;\n\n\t// user => uid => Balance\n\tmapping (address => mapping (uint => Balance)) public votedBalances; // bonded => voted \n\t\n\t// user => bonded amount\n\tmapping (address => uint) public totalVotedBalances;\n\n\t// user => UnbondingBalance[]\n\tmapping (address => UnbondingBalance[]) public unbondingBalances;\n\t\n\t// user => total unbonded amount\n\tmapping (address => uint) public unbondedBalances;\n\t\n\n\t// uid => price\n\tmapping (uint => uint) public nftTradedPrices;\n\t// user => group => date => bool\n\tmapping (address => mapping (uint => mapping (uint => bool))) public voteRewardsClaimed;\n\t// user = > group id => bool\n\tmapping (address => mapping (uint => bool)) public bonusRewardsClaimed;\n\t// nft uid => bool\n\tmapping (uint => bool) public mintRewardsClaimed;\n\n\t// groupId => user => token => balance\n\tmapping (uint => mapping (address => mapping (address => uint))) public groupTokenBalances;\n\t\t\n\n\tmapping (address => bool) public operators;\n\n\taddress public pinAddress;\n\n\tuint public tokenLockId = 0;\n\n\taddress public tokenLocker;\n\n\tevent Redeem(address indexed user, address token, uint amount);\n\tevent Unbond(address indexed user, uint amount, uint at);\n\n\t\n\n\tmodifier checkNFT(address nftAddr, uint nftId) { \n\t\trequire(nfts[nftAddr][nftId] > 0, \"Invalid NFT\");\n\t\t_; \n\t}\n\n\tmodifier onlyPin() { \n\t\trequire(msg.sender == pinAddress, \"Forbidden\"); \n\t\t_; \n\t}\n\n\tmodifier onlyOperator() { \n\t\trequire (operators[msg.sender] || owner() == _msgSender(), \"Not operator\"); \n\t\t_; \n\t}\n\t\n\t\n\n\tmodifier checkVotingTime() { \n\t\trequire(groups[currentGroupId] <= block.timestamp, \"Voting is not start\");\n\t\trequire(groups[currentGroupId].add(VOTE_DURATION) >= block.timestamp, \"Voting is over\");\n\t\t_; \n\t}\n\n\tmodifier checkVoteToken(address _token) { \n\t\tbool isValid = false;\n\t\tfor(uint i = 0; i < voteTokens.length; i++) {\n\t\t\tif(voteTokens[i] == _token) {\n\t\t\t\tisValid = true;\n\t\t\t\tbreak;\n\t\t\t}\n\t\t}\n\t\trequire(isValid, \"Invalid Vote Token\");\n\t\t_; \n\t}\n\n\tconstructor(address _treasury, address _tokenLocker){\n\t\ttreasury = ITreasury(_treasury);\n\t\tuink = treasury.uink();\n\t\ttokenLocker = _tokenLocker;\n\n\t\tvoteTokens.push(uink);\n\t\tvoteRatio[uink] = voteRatioMax;\n\t}\n\n\tfunction addVoteToken(address _token, uint _ratio) external onlyOperator {\n\t\tvoteRatio[_token] = _ratio;\n\t\tfor(uint i = 0; i < voteTokens.length; i++) {\n\t\t\tif(voteTokens[i] == _token) {\n\t\t\t\treturn;\n\t\t\t}\n\t\t}\n\t\tvoteTokens.push(_token);\n\t}\n\n\tfunction setAuctionAddress(address _auction) external onlyOwner {\n\t\tauction = _auction;\n\t}\n\n\tfunction setPinAddress(address _pin) external onlyOwner {\n\t\tpinAddress = _pin;\n\t}\n\n\tfunction setTokenLockId(uint lockId) external onlyOwner {\n\t\ttokenLockId = lockId;\n\t}\n\n\tfunction setOperator(address operator, bool isOperator) external onlyOwner {\n\t\toperators[operator] = isOperator;\n\t}\n\n\tfunction setVoteDays(uint _days) external onlyOwner {\n\t\tVOTE_DAYS = _days;\n\t}\n\n\tfunction addGroup(uint stakingBase, uint startTime, string calldata matchId) external onlyOperator {\n\t\trequire(currentGroupId == 0 || groups[currentGroupId].add(VOTE_DURATION) <= block.timestamp, \"Previous group is not over.\");\n\t\trequire(startTime >= getDate(block.timestamp), \"Invalid start time\");\n\t\tcurrentGroupId++;\n\t\tgroups[currentGroupId] = startTime;\n\t\tstakingBases[currentGroupId] = stakingBase;\n\t\tmatches[currentGroupId] = matchId;\n\t}\n\n\tfunction addNFT(uint groupId, address[] calldata nftAddrs, uint[] calldata nftIds) external onlyOperator {\n\t\trequire(nftAddrs.length == nftIds.length, \"Invalid params\");\n\t\tNFT[] storage inputNFTs = groupNFTs[groupId];\n\n\t\tfor(uint i = 0; i < nftAddrs.length; i++) {\n\t\t\trequire(nfts[nftAddrs[i]][nftIds[i]] == 0, \"NFT has been added\");\n\t\t\tnextNFTId++;\n\t\t\tnfts[nftAddrs[i]][nftIds[i]] = nextNFTId;\n\t\t\taddress nftOwner = IERC721(nftAddrs[i]).ownerOf(nftIds[i]);\n\t\t\tinputNFTs.push(NFT({\n\t\t\t\tuid: nextNFTId,\n\t\t\t\taddr: nftAddrs[i],\n\t\t\t\tid: nftIds[i],\n\t\t\t\towner: nftOwner\n\t\t\t}));\n\t\t\tnftGroup[nextNFTId] = groupId;\n\t\t}\n\t}\n\n\tfunction groupNFTsLength(uint groupId) public view returns(uint256) {\n\t\treturn groupNFTs[groupId].length;\n\t}\n\n\tfunction getAuctionPrices(uint groupId) public view returns(uint[] memory prices, uint totalAmount) {\n\t\tprices = new uint[](groupNFTs[groupId].length);\n\t\tfor(uint i = 0; i < groupNFTs[groupId].length; i++) {\n\t\t\t(address bidder, uint price) = IAuction(auction).matchResults(matches[groupId], i);\n\t\t\tif(bidder == address(0)) {\n\t\t\t\tprice = 0;\n\t\t\t}\n\t\t\tprices[i] = price;\n\t\t\ttotalAmount = totalAmount.add(price);\n\t\t}\n\t}\n\n\t\n\tfunction getDate(uint256 ts) public pure returns(uint256) {\n\t\treturn ts.sub(ts.mod(1 days));\n\t}\n\n\tfunction getVotableDates(uint groupId) public view returns(uint[] memory dates) {\n\t\tuint start = groups[groupId];\n\t\tdates = new uint[](VOTE_DAYS);\n\t\tuint firstDate = getDate(start);\n\t\tfor(uint i = 0; i < VOTE_DAYS; i++) {\n\t\t\tdates[i] = firstDate.add(i * 24 * 60 * 60);\n\t\t}\n\t}\n\n\tfunction _vote(address user, address nftAddr, uint nftId, uint votes) internal {\n\t\tuint today = getDate(block.timestamp);\n\t\tuint[] memory dates = getVotableDates(currentGroupId);\n\t\tuint uid = nfts[nftAddr][nftId];\n\n\t\tfor(uint i = 0; i < dates.length; i++) {\n\t\t\tif(dates[i] >= today) {\n\t\t\t\tuint date = dates[i];\n\t\t\t\tdayVotes[date][uid] = dayVotes[date][uid].add(votes);\n\t\t\t\tuserVotes[user][date][uid] = userVotes[user][date][uid].add(votes);\n\t\t\t\tuserDailyVotes[user][currentGroupId][date] = userDailyVotes[user][currentGroupId][date].add(votes);\n\t\t\t\tuserNFTVotes[user][uid] = userNFTVotes[user][uid].add(votes);\n\t\t\t\t\n\t\t\t\tnftVotes[uid] = nftVotes[uid].add(votes);\n\t\t\t\tgroupVotes[currentGroupId] = groupVotes[currentGroupId].add(votes);\n\t\t\t}\n\t\t}\n\t}\n\n\tfunction _unvote(address user, address nftAddr, uint nftId, uint votes) internal {\n\t\tuint today = getDate(block.timestamp);\n\t\tuint[] memory dates = getVotableDates(currentGroupId);\n\t\tuint uid = nfts[nftAddr][nftId];\n\n\t\tfor(uint i = 0; i < dates.length; i++) {\n\t\t\tif(dates[i] >= today) {\n\t\t\t\tuint date = dates[i];\n\t\t\t\tdayVotes[date][uid] = dayVotes[date][uid].sub(votes);\n\t\t\t\tuserVotes[user][date][uid] = userVotes[user][date][uid].sub(votes);\n\t\t\t\tuserDailyVotes[user][currentGroupId][date] = userDailyVotes[user][currentGroupId][date].sub(votes);\n\t\t\t\tuserNFTVotes[user][uid] = userNFTVotes[user][uid].sub(votes);\n\t\t\t\t\n\t\t\t\tnftVotes[uid] = nftVotes[uid].sub(votes);\n\t\t\t\tgroupVotes[currentGroupId] = groupVotes[currentGroupId].sub(votes);\n\t\t\t}\n\t\t}\n\t\t\n\t}\n\n\tfunction calcVotes(address token, uint amount) internal view returns(uint256) {\n\t\tint8 delta = int8(IERC20Metadata(token).decimals()) - int8(IERC20Metadata(uink).decimals());\n\t\tif(delta >= 0) {\n\t\t\treturn voteRatio[token].mul(amount).div(voteRatioMax).div(10 ** uint8(delta));\n\t\t} else {\n\t\t\treturn voteRatio[token].mul(amount).div(voteRatioMax).mul(10 ** uint8(-delta));\n\t\t}\n\t}\n\n\tfunction getAvailableBalance(address user, address token, address nftAddr, uint nftId) public view returns(uint256) {\n\t\tuint uid = nfts[nftAddr][nftId];\n\t\tBalance memory balance = balances[user][token][uid];\n\t\tuint available = balance.available;\n\t\tif(getDate(balance.votedAt) < getDate(block.timestamp)) {\n\t\t\tavailable = available.add(balance.freezed);\n\t\t}\n\t\treturn available;\n\t}\n\n\t// stake and vote\n\tfunction stake(address nftAddr, uint nftId, address token, uint amount)\n\t\texternal \n\t\tcheckVoteToken(token)\n\t\tcheckVotingTime\n\t\tcheckNFT(nftAddr, nftId)\n\t{\n\t\trequire(amount > 0, \"Amount is zero\");\n\t\tuint votes = calcVotes(token, amount);\n\t\t_vote(msg.sender, nftAddr, nftId, votes);\n\n\t\tIERC20(token).transferFrom(msg.sender, address(this), amount);\n\t\tgroupTokenBalances[currentGroupId][msg.sender][token] = groupTokenBalances[currentGroupId][msg.sender][token].add(amount);\n\n\t\tuint uid = nfts[nftAddr][nftId];\n\n\n\t\tBalance storage balance = balances[msg.sender][token][uid];\n\t\tif(getDate(balance.votedAt) < getDate(block.timestamp)) {\n\t\t\tbalance.available = balance.available.add(balance.freezed);\n\t\t\tbalance.freezed = 0;\n\t\t}\n\t\tbalance.freezed = balance.freezed.add(amount);\n\t\tbalance.votedAt = block.timestamp;\n\t}\n\n\tfunction unstake(address nftAddr, uint nftId, address token, uint amount)\n\t\texternal \n\t\tcheckVoteToken(token)\n\t\tcheckNFT(nftAddr, nftId)\n\t{\n\t\trequire(amount > 0, \"Amount is zero\");\n\t\t\n\t\tuint available = getAvailableBalance(msg.sender, token, nftAddr, nftId);\n\t\trequire(available >= amount, \"Insufficient balance\");\n\n\t\tuint votes = calcVotes(token, amount);\n\t\t_unvote(msg.sender, nftAddr, nftId, votes);\n\n\t\tIERC20(token).transfer(msg.sender, amount);\n\n\t\tgroupTokenBalances[currentGroupId][msg.sender][token] = groupTokenBalances[currentGroupId][msg.sender][token].sub(amount);\n\n\t\tuint uid = nfts[nftAddr][nftId];\n\t\tBalance storage balance = balances[msg.sender][token][uid];\n\t\tif(getDate(balance.votedAt) < getDate(block.timestamp)) {\n\t\t\tbalance.available = balance.available.add(balance.freezed);\n\t\t\tbalance.freezed = 0;\n\t\t}\n\t\tbalance.available = balance.available.sub(amount);\n\t}\n\n\t// redeem token after vote finished\n\tfunction redeemToken(uint groupId, address token) external {\n\t\trequire(groups[groupId] + VOTE_DURATION < block.timestamp, \"Vote is not over\");\n\t\tuint amount = groupTokenBalances[groupId][msg.sender][token];\n\t\trequire(amount > 0, \"Amount is zero\");\n\t\tIERC20(token).transfer(msg.sender, amount);\n\t\temit Redeem(msg.sender, token, amount);\n\t}\n\n\tfunction getRedeemableBalance(address user, address token) public view returns(uint256) {\n\t\tuint total = 0;\n\t\tfor(uint groupId = 1; groupId <= currentGroupId; groupId++){\n\t\t\tif(groups[groupId] + VOTE_DURATION < block.timestamp) {\n\t\t\t\ttotal = total.add(groupTokenBalances[groupId][user][token]);\n\t\t\t}\n\t\t}\n\t\treturn total;\n\t}\n\n\tfunction redeemToken(address token) external {\n\t\tuint total = getRedeemableBalance(msg.sender, token);\n\t\trequire(total > 0, \"Withdrawable is zero\");\n\t\tIERC20(token).transfer(msg.sender, total);\n\t\temit Redeem(msg.sender, token, total);\n\t}\n\n\tfunction rescueToken(address token, uint amount) external onlyOwner {\n\t\tIERC20(token).transfer(msg.sender, amount);\n\t}\n\n\tfunction getTotalRewards(address user) public view returns(uint) {\n\t\tuint rewards = 0;\n\t\tfor(uint groupId = 1; groupId <= currentGroupId; groupId++) {\n\t\t\trewards = rewards.add(getBaseRewards(user, groupId)).add(getAuctionRewards(user, groupId));\n\t\t}\n\t\treturn rewards;\n\t}\n\n\tfunction getBaseRewards(address user, uint groupId) public view returns(uint) {\n\t\tuint[] memory dates = getVotableDates(groupId);\n\t\tuint[] memory rawardRates = getBaseRewardRates(groupId);\n\t\tuint rewards = 0;\n\t\tuint today = getDate(block.timestamp);\n\n\t\tfor(uint i = 0; i < dates.length; i++) {\n\t\t\tif(dates[i] >= today) {\n\t\t\t\tbreak;\n\t\t\t}\n\t\t\tuint dayRewards = userDailyVotes[user][groupId][dates[i]].mul(rawardRates[i]).div(1e18);\n\t\t\trewards = rewards.add(dayRewards);\n\t\t}\n\t\treturn rewards;\n\t}\n\n\tfunction getAuctionRewards(address user, uint groupId) public view returns(uint) {\n\t\tif(!hasFinished[groupId]) {\n\t\t\treturn 0;\n\t\t}\n\t\tuint rewards = 0;\n\t\tuint[] memory rewardRates = getAuctionRewardRates(groupId);\n\t\tfor(uint i = 0; i < groupNFTs[groupId].length; i++) {\n\t\t\tuint votes = userNFTVotes[user][groupNFTs[groupId][i].uid];\n\t\t\trewards = votes.mul(rewardRates[i]).div(1e18).add(rewards);\n\t\t}\n\t\treturn rewards;\n\t}\n\n\tfunction getBondedBalance(address user) public view returns(uint) {\n\t\tuint rewards = getTotalRewards(user);\n\t\tuint freezedBalance = totalVotedBalances[user].add(unbondedBalances[user]);\n\t\treturn rewards > freezedBalance ? rewards.sub(freezedBalance) : 0;\n\t}\n\n\tfunction getUnvotableBalance(address user, address nftAddr, uint nftId) public view returns(uint256) {\n\t\tuint uid = nfts[nftAddr][nftId];\n\t\tBalance memory balance = votedBalances[user][uid];\n\t\tuint available = balance.available;\n\t\tif(getDate(balance.votedAt) < getDate(block.timestamp)) {\n\t\t\tavailable = available.add(balance.freezed);\n\t\t}\n\t\treturn available;\n\t}\n\n\tfunction voteFromLock(address nftAddr, uint nftId) \n\t\texternal \n\t\tcheckVotingTime\n\t\tcheckNFT(nftAddr, nftId)\n\t{\n\n\t\tuint amount = ITokenLocker(tokenLocker).subLockForVote(tokenLockId, msg.sender);\n\t\t_vote(msg.sender, nftAddr, nftId, amount);\n\t\t\n\t\tuint uid = nfts[nftAddr][nftId];\n\t\tBalance storage votedBalance = votedBalances[msg.sender][uid];\n\n\t\tif(getDate(votedBalance.votedAt) < getDate(block.timestamp)) {\n\t\t\tvotedBalance.available = votedBalance.available.add(votedBalance.freezed);\n\t\t\tvotedBalance.freezed = 0;\n\t\t}\n\t\tvotedBalance.freezed = votedBalance.freezed.add(amount);\n\t\tvotedBalance.votedAt = block.timestamp;\n\n\t\ttotalVotedBalances[msg.sender] = totalVotedBalances[msg.sender].add(amount);\n\t}\n\n\t\n\tfunction voteBonded(address nftAddr, uint nftId, uint amount) \n\t\texternal \n\t\tcheckVotingTime\n\t\tcheckNFT(nftAddr, nftId)\n\t{\n\t\tuint bondedBalance = getBondedBalance(msg.sender);\n\t\trequire(bondedBalance >= amount, \"Insufficient bonded balance\");\n\n\t\t_vote(msg.sender, nftAddr, nftId, amount);\n\n\t\tuint uid = nfts[nftAddr][nftId];\n\t\tBalance storage votedBalance = votedBalances[msg.sender][uid];\n\n\t\tif(getDate(votedBalance.votedAt) < getDate(block.timestamp)) {\n\t\t\tvotedBalance.available = votedBalance.available.add(votedBalance.freezed);\n\t\t\tvotedBalance.freezed = 0;\n\t\t}\n\t\tvotedBalance.freezed = votedBalance.freezed.add(amount);\n\t\tvotedBalance.votedAt = block.timestamp;\n\n\t\ttotalVotedBalances[msg.sender] = totalVotedBalances[msg.sender].add(amount);\n\t}\n\n\tfunction unvoteBonded(address nftAddr, uint nftId, uint amount)\n\t\texternal \n\t\tcheckVotingTime\n\t\tcheckNFT(nftAddr, nftId)\n\t{\n\t\tuint unvotable = getUnvotableBalance(msg.sender, nftAddr, nftId);\n\t\trequire(unvotable >= amount, \"Insufficient unvotable balance\");\n\t\t_unvote(msg.sender, nftAddr, nftId, amount);\n\n\t\tuint uid = nfts[nftAddr][nftId];\n\t\tBalance storage votedBalance = votedBalances[msg.sender][uid];\n\n\t\tif(getDate(votedBalance.votedAt) < getDate(block.timestamp)) {\n\t\t\tvotedBalance.available = votedBalance.available.add(votedBalance.freezed);\n\t\t\tvotedBalance.freezed = 0;\n\t\t}\n\t\tvotedBalance.available = votedBalance.available.sub(amount);\n\n\t\ttotalVotedBalances[msg.sender] = totalVotedBalances[msg.sender].sub(amount);\n\t}\n\n\tfunction getUnbondingBalancesLength(address user) public view returns(uint) {\n\t\treturn unbondingBalances[user].length;\n\t}\n\n\tfunction unbond(uint amount) external {\n\t\tuint bondedBalance = getBondedBalance(msg.sender);\n\t\trequire(bondedBalance >= amount, \"Insufficient bonded balance\");\n\n\t\tunbondingBalances[msg.sender].push(UnbondingBalance({\n\t\t\tvalue: amount,\n\t\t\tunbondedAt: block.timestamp,\n\t\t\tredeemed: 0\n\t\t}));\n\t\t\n\t\tunbondedBalances[msg.sender] = unbondedBalances[msg.sender].add(amount);\n\n\t\temit Unbond(msg.sender, amount, block.timestamp);\n\t}\n\n\tfunction redeemUnbonding(uint index) \n\t\texternal \n\t{ \n\t\tUnbondingBalance storage unbondingBalance = unbondingBalances[msg.sender][index];\n\t\tuint passDays = getDate(block.timestamp).sub(getDate(unbondingBalance.unbondedAt)).div(1 days);\n\t\tuint released = passDays.mul(unbondingBalance.value).div(60);\n\t\tuint available = released.sub(unbondingBalance.redeemed);\n\t\tunbondingBalance.redeemed = released;\n\n\t\ttreasury.sendRewards(msg.sender, available);\n\t}\n\n\n\t// function getUserVotesByNFT(address user, uint groupId, uint uid) public view returns(uint) {\n\t// \tuint[] memory dates = getVotableDates(groupId);\n\t// \tuint votes = 0;\n\t// \tfor(uint i = 0; i < dates.length; i++) {\n\t// \t\tvotes = userVotes[user][dates[i]][uid].add(votes);\n\t// \t}\n\t// \treturn votes;\n\t// }\n\n\tfunction claimMintRewards(address nftAddr, uint nftId, address to) external onlyPin {\n\t\tuint uid = nfts[nftAddr][nftId];\n\t\tuint groupId = nftGroup[nfts[nftAddr][nftId]];\n\t\trequire(!mintRewardsClaimed[uid], \"Claimed\");\n\n\t\tuint rewards = 0;\n\t\tfor(uint i = 0; i < groupNFTs[groupId].length; i++) {\n\t\t\tif(groupNFTs[groupId][i].uid == uid) {\n\t\t\t\trewards = getMintRewardsPerNFT(groupId)[i];\n\t\t\t\tbreak;\n\t\t\t}\n\t\t}\n\t\tif(rewards > 0) {\n\t\t\ttreasury.sendRewards(to, rewards);\n\t\t\tmintRewardsClaimed[uid] = true;\n\t\t}\n\t}\n\n\tfunction getTradeWeights(uint groupId) public view returns(uint[] memory weights) {\n\t\tNFT[] memory gNFTs = groupNFTs[groupId];\n\t\tweights = new uint[](gNFTs.length);\n\t\t\n\t\t(uint[] memory prices, uint total) = getAuctionPrices(groupId);\n\n\t\tif(total > 0) {\n\t\t\tfor(uint i = 0; i < gNFTs.length; i++){\n\t\t\t\tweights[i] = prices[i].mul(1e18).div(total);\n\t\t\t}\n\t\t}\n\t}\n\n\tfunction setAuctionFinish(uint groupId) external onlyOperator {\n\t\thasFinished[groupId] = true;\n\t}\n\n\tfunction getAuctionRewardRates(uint groupId) public view returns(uint[] memory auctionRewardRates) {\n\t\tuint[] memory weights = getTradeWeights(groupId);\n\t\tNFT[] memory gNFTs = groupNFTs[groupId];\n\t\tauctionRewardRates = new uint[](gNFTs.length);\n\t\t(, uint[] memory inflations) = getWeightsAndInflations(groupId);\n\t\tuint bonus = bonusCap.mul(inflations[inflations.length - 1]).div(1e18);\n\n\t\tfor(uint i = 0; i < gNFTs.length; i++) {\n\t\t\tif(nftVotes[gNFTs[i].uid] == 0) {\n\t\t\t\tauctionRewardRates[i] = 0;\n\t\t\t} else {\n\t\t\t\tauctionRewardRates[i] = bonus.mul(weights[i]).div(nftVotes[gNFTs[i].uid]);\n\t\t\t}\n\t\t}\n\t}\n\n\tfunction getDailyVotes(uint groupId, uint date) public view returns(uint256) {\n\t\tuint votes = 0;\n\t\tfor(uint i = 0; i < groupNFTs[groupId].length; i++) {\n\t\t\tuint uid = groupNFTs[groupId][i].uid;\n\t\t\tvotes = votes.add(dayVotes[date][uid]);\n\t\t}\n\t\treturn votes;\n\t}\n\n\tfunction getWeightsAndInflations(uint groupId)\n\t\tpublic\n\t\tview\n\t\treturns(\n\t\t\tuint[] memory weights,\n\t\t\tuint[] memory inflations\n\t\t) \n\t{\n\n\t\tuint[] memory dates = getVotableDates(groupId);\n\t\tweights = new uint[](dates.length);\n\t\tinflations = new uint[](dates.length);\n\n\t\tfor(uint i = 0; i < dates.length; i++) {\n\t\t\tuint dailyVotes = getDailyVotes(groupId, dates[i]);\n\t\t\tweights[i] = dailyVotes.mul(1e18).div(stakingBases[groupId]);\n\t\t\tif(weights[i] < 3 * 1e17) {\n\t\t\t\tinflations[i] = 2 * 1e17;\n\t\t\t} else if(weights[i] >= 3 * 1e17 &&  weights[i] < 7 * 1e17) {\n\t\t\t\tinflations[i] = weights[i];\n\t\t\t} else {\n\t\t\t\tinflations[i] = 1e18;\n\t\t\t}\n\t\t}\n\t}\n\n\tfunction getBaseRewardRates(uint groupId) \n\t\tpublic view \n\t\treturns(uint[] memory rewardRates) \n\t{\n\n\t\tuint[] memory dates = getVotableDates(groupId);\n\t\t(,uint[] memory inflations) = getWeightsAndInflations(groupId);\n\t\trewardRates = new uint[](dates.length);\n\n\t\tfor(uint i = 0; i < dates.length; i++) {\n\t\t\tif(dates[i] > getDate(block.timestamp)) {\n\t\t\t\tbreak;\n\t\t\t}\n\t\t\tuint dailyTotalVotes = getDailyVotes(groupId, dates[i]);\n\t\t\tif(dailyTotalVotes > 0) {\n\t\t\t\trewardRates[i] = inflations[i].mul(dailyVoteRewardCap).div(dailyTotalVotes);\n\t\t\t}\n\t\t}\n\t}\n\n\tfunction getMintRewardsPerNFT(uint groupId)\n\t\tpublic view \n\t\treturns(uint[] memory mintRewards) \n\t{\n\t\tmintRewards = new uint[](groupNFTs[groupId].length);\n\t\tfor(uint i = 0; i < groupNFTs[groupId].length; i++) {\n\t\t\tif(groupVotes[groupId] > 0) {\n\t\t\t\tmintRewards[i] = nftVotes[groupNFTs[groupId][i].uid].mul(mintRewardCap).div(groupVotes[groupId]);\n\t\t\t}\n\t\t}\n\t}\n\n\tfunction getMintRewards(address nftAddr, uint nftId) public view returns(uint) {\n\t\tuint groupId = nftGroup[nfts[nftAddr][nftId]];\n\t\tif(groupVotes[groupId] > 0) {\n\t\t\treturn nftVotes[nfts[nftAddr][nftId]].mul(mintRewardCap).div(groupVotes[groupId]);\n\t\t} else {\n\t\t\treturn 0;\n\t\t}\n\t}\n}",
  "sourcePath": "/Users/yxf/app/uniarts-eth-dao/contracts/VoteMining.sol",
  "compiler": {
    "name": "solc",
    "version": "0.8.4+commit.c7e474f2.Emscripten.clang"
  },
  "schemaVersion": "3.2.3",
  "updatedAt": "2021-10-08T04:08:38.680Z",
  "devdoc": {
    "kind": "dev",
    "methods": {
      "owner()": {
        "details": "Returns the address of the current owner."
      },
      "renounceOwnership()": {
        "details": "Leaves the contract without owner. It will not be possible to call `onlyOwner` functions anymore. Can only be called by the current owner. NOTE: Renouncing ownership will leave the contract without an owner, thereby removing any functionality that is only available to the owner."
      },
      "transferOwnership(address)": {
        "details": "Transfers ownership of the contract to a new account (`newOwner`). Can only be called by the current owner."
      }
    },
    "version": 1
  },
  "userdoc": {
    "kind": "user",
    "methods": {},
    "version": 1
  }
}