{
  "contractName": "VoteMining",
  "abi": [
    {
      "inputs": [
        {
          "internalType": "address",
          "name": "_treasury",
          "type": "address"
        },
        {
          "internalType": "address",
          "name": "_tokenLocker",
          "type": "address"
        }
      ],
      "stateMutability": "nonpayable",
      "type": "constructor"
    },
    {
      "anonymous": false,
      "inputs": [
        {
          "indexed": true,
          "internalType": "address",
          "name": "previousOwner",
          "type": "address"
        },
        {
          "indexed": true,
          "internalType": "address",
          "name": "newOwner",
          "type": "address"
        }
      ],
      "name": "OwnershipTransferred",
      "type": "event"
    },
    {
      "anonymous": false,
      "inputs": [
        {
          "indexed": true,
          "internalType": "address",
          "name": "user",
          "type": "address"
        },
        {
          "indexed": false,
          "internalType": "address",
          "name": "token",
          "type": "address"
        },
        {
          "indexed": false,
          "internalType": "uint256",
          "name": "amount",
          "type": "uint256"
        }
      ],
      "name": "Redeem",
      "type": "event"
    },
    {
      "anonymous": false,
      "inputs": [
        {
          "indexed": true,
          "internalType": "address",
          "name": "user",
          "type": "address"
        },
        {
          "indexed": false,
          "internalType": "uint256",
          "name": "amount",
          "type": "uint256"
        },
        {
          "indexed": false,
          "internalType": "uint256",
          "name": "at",
          "type": "uint256"
        }
      ],
      "name": "Unbond",
      "type": "event"
    },
    {
      "inputs": [],
      "name": "VOTE_DURATION",
      "outputs": [
        {
          "internalType": "uint256",
          "name": "",
          "type": "uint256"
        }
      ],
      "stateMutability": "view",
      "type": "function"
    },
    {
      "inputs": [],
      "name": "auction",
      "outputs": [
        {
          "internalType": "address",
          "name": "",
          "type": "address"
        }
      ],
      "stateMutability": "view",
      "type": "function"
    },
    {
      "inputs": [
        {
          "internalType": "address",
          "name": "",
          "type": "address"
        },
        {
          "internalType": "address",
          "name": "",
          "type": "address"
        },
        {
          "internalType": "uint256",
          "name": "",
          "type": "uint256"
        }
      ],
      "name": "balances",
      "outputs": [
        {
          "internalType": "uint256",
          "name": "available",
          "type": "uint256"
        },
        {
          "internalType": "uint256",
          "name": "freezed",
          "type": "uint256"
        },
        {
          "internalType": "uint256",
          "name": "votedAt",
          "type": "uint256"
        }
      ],
      "stateMutability": "view",
      "type": "function"
    },
    {
      "inputs": [],
      "name": "bonusCap",
      "outputs": [
        {
          "internalType": "uint256",
          "name": "",
          "type": "uint256"
        }
      ],
      "stateMutability": "view",
      "type": "function"
    },
    {
      "inputs": [
        {
          "internalType": "address",
          "name": "",
          "type": "address"
        },
        {
          "internalType": "uint256",
          "name": "",
          "type": "uint256"
        }
      ],
      "name": "bonusRewardsClaimed",
      "outputs": [
        {
          "internalType": "bool",
          "name": "",
          "type": "bool"
        }
      ],
      "stateMutability": "view",
      "type": "function"
    },
    {
      "inputs": [],
      "name": "currentGroupId",
      "outputs": [
        {
          "internalType": "uint256",
          "name": "",
          "type": "uint256"
        }
      ],
      "stateMutability": "view",
      "type": "function"
    },
    {
      "inputs": [],
      "name": "dailyMintRewardCap",
      "outputs": [
        {
          "internalType": "uint256",
          "name": "",
          "type": "uint256"
        }
      ],
      "stateMutability": "view",
      "type": "function"
    },
    {
      "inputs": [],
      "name": "dailyVoteRewardCap",
      "outputs": [
        {
          "internalType": "uint256",
          "name": "",
          "type": "uint256"
        }
      ],
      "stateMutability": "view",
      "type": "function"
    },
    {
      "inputs": [
        {
          "internalType": "uint256",
          "name": "",
          "type": "uint256"
        },
        {
          "internalType": "uint256",
          "name": "",
          "type": "uint256"
        }
      ],
      "name": "dayVotes",
      "outputs": [
        {
          "internalType": "uint256",
          "name": "",
          "type": "uint256"
        }
      ],
      "stateMutability": "view",
      "type": "function"
    },
    {
      "inputs": [
        {
          "internalType": "uint256",
          "name": "",
          "type": "uint256"
        },
        {
          "internalType": "uint256",
          "name": "",
          "type": "uint256"
        }
      ],
      "name": "groupNFTs",
      "outputs": [
        {
          "internalType": "uint256",
          "name": "uid",
          "type": "uint256"
        },
        {
          "internalType": "address",
          "name": "addr",
          "type": "address"
        },
        {
          "internalType": "uint256",
          "name": "id",
          "type": "uint256"
        },
        {
          "internalType": "address",
          "name": "owner",
          "type": "address"
        }
      ],
      "stateMutability": "view",
      "type": "function"
    },
    {
      "inputs": [
        {
          "internalType": "uint256",
          "name": "",
          "type": "uint256"
        },
        {
          "internalType": "address",
          "name": "",
          "type": "address"
        },
        {
          "internalType": "address",
          "name": "",
          "type": "address"
        }
      ],
      "name": "groupTokenBalances",
      "outputs": [
        {
          "internalType": "uint256",
          "name": "",
          "type": "uint256"
        }
      ],
      "stateMutability": "view",
      "type": "function"
    },
    {
      "inputs": [
        {
          "internalType": "uint256",
          "name": "",
          "type": "uint256"
        }
      ],
      "name": "groupVotes",
      "outputs": [
        {
          "internalType": "uint256",
          "name": "",
          "type": "uint256"
        }
      ],
      "stateMutability": "view",
      "type": "function"
    },
    {
      "inputs": [
        {
          "internalType": "uint256",
          "name": "",
          "type": "uint256"
        }
      ],
      "name": "groups",
      "outputs": [
        {
          "internalType": "uint256",
          "name": "",
          "type": "uint256"
        }
      ],
      "stateMutability": "view",
      "type": "function"
    },
    {
      "inputs": [
        {
          "internalType": "uint256",
          "name": "",
          "type": "uint256"
        }
      ],
      "name": "hasFinished",
      "outputs": [
        {
          "internalType": "bool",
          "name": "",
          "type": "bool"
        }
      ],
      "stateMutability": "view",
      "type": "function"
    },
    {
      "inputs": [
        {
          "internalType": "uint256",
          "name": "",
          "type": "uint256"
        }
      ],
      "name": "matches",
      "outputs": [
        {
          "internalType": "string",
          "name": "",
          "type": "string"
        }
      ],
      "stateMutability": "view",
      "type": "function"
    },
    {
      "inputs": [
        {
          "internalType": "uint256",
          "name": "",
          "type": "uint256"
        }
      ],
      "name": "mintRewardsClaimed",
      "outputs": [
        {
          "internalType": "bool",
          "name": "",
          "type": "bool"
        }
      ],
      "stateMutability": "view",
      "type": "function"
    },
    {
      "inputs": [],
      "name": "nextNFTId",
      "outputs": [
        {
          "internalType": "uint256",
          "name": "",
          "type": "uint256"
        }
      ],
      "stateMutability": "view",
      "type": "function"
    },
    {
      "inputs": [
        {
          "internalType": "uint256",
          "name": "",
          "type": "uint256"
        }
      ],
      "name": "nftGroup",
      "outputs": [
        {
          "internalType": "uint256",
          "name": "",
          "type": "uint256"
        }
      ],
      "stateMutability": "view",
      "type": "function"
    },
    {
      "inputs": [
        {
          "internalType": "uint256",
          "name": "",
          "type": "uint256"
        }
      ],
      "name": "nftTradedPrices",
      "outputs": [
        {
          "internalType": "uint256",
          "name": "",
          "type": "uint256"
        }
      ],
      "stateMutability": "view",
      "type": "function"
    },
    {
      "inputs": [
        {
          "internalType": "uint256",
          "name": "",
          "type": "uint256"
        }
      ],
      "name": "nftVotes",
      "outputs": [
        {
          "internalType": "uint256",
          "name": "",
          "type": "uint256"
        }
      ],
      "stateMutability": "view",
      "type": "function"
    },
    {
      "inputs": [
        {
          "internalType": "address",
          "name": "",
          "type": "address"
        },
        {
          "internalType": "uint256",
          "name": "",
          "type": "uint256"
        }
      ],
      "name": "nfts",
      "outputs": [
        {
          "internalType": "uint256",
          "name": "",
          "type": "uint256"
        }
      ],
      "stateMutability": "view",
      "type": "function"
    },
    {
      "inputs": [
        {
          "internalType": "address",
          "name": "",
          "type": "address"
        }
      ],
      "name": "operators",
      "outputs": [
        {
          "internalType": "bool",
          "name": "",
          "type": "bool"
        }
      ],
      "stateMutability": "view",
      "type": "function"
    },
    {
      "inputs": [],
      "name": "owner",
      "outputs": [
        {
          "internalType": "address",
          "name": "",
          "type": "address"
        }
      ],
      "stateMutability": "view",
      "type": "function"
    },
    {
      "inputs": [],
      "name": "pinAddress",
      "outputs": [
        {
          "internalType": "address",
          "name": "",
          "type": "address"
        }
      ],
      "stateMutability": "view",
      "type": "function"
    },
    {
      "inputs": [],
      "name": "renounceOwnership",
      "outputs": [],
      "stateMutability": "nonpayable",
      "type": "function"
    },
    {
      "inputs": [
        {
          "internalType": "uint256",
          "name": "",
          "type": "uint256"
        }
      ],
      "name": "stakingBases",
      "outputs": [
        {
          "internalType": "uint256",
          "name": "",
          "type": "uint256"
        }
      ],
      "stateMutability": "view",
      "type": "function"
    },
    {
      "inputs": [],
      "name": "tokenLockId",
      "outputs": [
        {
          "internalType": "uint256",
          "name": "",
          "type": "uint256"
        }
      ],
      "stateMutability": "view",
      "type": "function"
    },
    {
      "inputs": [],
      "name": "tokenLocker",
      "outputs": [
        {
          "internalType": "address",
          "name": "",
          "type": "address"
        }
      ],
      "stateMutability": "view",
      "type": "function"
    },
    {
      "inputs": [
        {
          "internalType": "address",
          "name": "",
          "type": "address"
        }
      ],
      "name": "totalVotedBalances",
      "outputs": [
        {
          "internalType": "uint256",
          "name": "",
          "type": "uint256"
        }
      ],
      "stateMutability": "view",
      "type": "function"
    },
    {
      "inputs": [
        {
          "internalType": "address",
          "name": "newOwner",
          "type": "address"
        }
      ],
      "name": "transferOwnership",
      "outputs": [],
      "stateMutability": "nonpayable",
      "type": "function"
    },
    {
      "inputs": [],
      "name": "treasury",
      "outputs": [
        {
          "internalType": "contract ITreasury",
          "name": "",
          "type": "address"
        }
      ],
      "stateMutability": "view",
      "type": "function"
    },
    {
      "inputs": [],
      "name": "uink",
      "outputs": [
        {
          "internalType": "address",
          "name": "",
          "type": "address"
        }
      ],
      "stateMutability": "view",
      "type": "function"
    },
    {
      "inputs": [
        {
          "internalType": "address",
          "name": "",
          "type": "address"
        }
      ],
      "name": "unbondedBalances",
      "outputs": [
        {
          "internalType": "uint256",
          "name": "",
          "type": "uint256"
        }
      ],
      "stateMutability": "view",
      "type": "function"
    },
    {
      "inputs": [
        {
          "internalType": "address",
          "name": "",
          "type": "address"
        },
        {
          "internalType": "uint256",
          "name": "",
          "type": "uint256"
        }
      ],
      "name": "unbondingBalances",
      "outputs": [
        {
          "internalType": "uint256",
          "name": "value",
          "type": "uint256"
        },
        {
          "internalType": "uint256",
          "name": "unbondedAt",
          "type": "uint256"
        },
        {
          "internalType": "uint256",
          "name": "redeemed",
          "type": "uint256"
        }
      ],
      "stateMutability": "view",
      "type": "function"
    },
    {
      "inputs": [
        {
          "internalType": "address",
          "name": "",
          "type": "address"
        },
        {
          "internalType": "uint256",
          "name": "",
          "type": "uint256"
        },
        {
          "internalType": "uint256",
          "name": "",
          "type": "uint256"
        }
      ],
      "name": "userDailyVotes",
      "outputs": [
        {
          "internalType": "uint256",
          "name": "",
          "type": "uint256"
        }
      ],
      "stateMutability": "view",
      "type": "function"
    },
    {
      "inputs": [
        {
          "internalType": "address",
          "name": "",
          "type": "address"
        },
        {
          "internalType": "uint256",
          "name": "",
          "type": "uint256"
        }
      ],
      "name": "userNFTVotes",
      "outputs": [
        {
          "internalType": "uint256",
          "name": "",
          "type": "uint256"
        }
      ],
      "stateMutability": "view",
      "type": "function"
    },
    {
      "inputs": [
        {
          "internalType": "address",
          "name": "",
          "type": "address"
        },
        {
          "internalType": "uint256",
          "name": "",
          "type": "uint256"
        },
        {
          "internalType": "uint256",
          "name": "",
          "type": "uint256"
        }
      ],
      "name": "userVotes",
      "outputs": [
        {
          "internalType": "uint256",
          "name": "",
          "type": "uint256"
        }
      ],
      "stateMutability": "view",
      "type": "function"
    },
    {
      "inputs": [
        {
          "internalType": "address",
          "name": "",
          "type": "address"
        }
      ],
      "name": "voteRatio",
      "outputs": [
        {
          "internalType": "uint256",
          "name": "",
          "type": "uint256"
        }
      ],
      "stateMutability": "view",
      "type": "function"
    },
    {
      "inputs": [],
      "name": "voteRatioMax",
      "outputs": [
        {
          "internalType": "uint256",
          "name": "",
          "type": "uint256"
        }
      ],
      "stateMutability": "view",
      "type": "function"
    },
    {
      "inputs": [
        {
          "internalType": "address",
          "name": "",
          "type": "address"
        },
        {
          "internalType": "uint256",
          "name": "",
          "type": "uint256"
        },
        {
          "internalType": "uint256",
          "name": "",
          "type": "uint256"
        }
      ],
      "name": "voteRewardsClaimed",
      "outputs": [
        {
          "internalType": "bool",
          "name": "",
          "type": "bool"
        }
      ],
      "stateMutability": "view",
      "type": "function"
    },
    {
      "inputs": [
        {
          "internalType": "uint256",
          "name": "",
          "type": "uint256"
        }
      ],
      "name": "voteTokens",
      "outputs": [
        {
          "internalType": "address",
          "name": "",
          "type": "address"
        }
      ],
      "stateMutability": "view",
      "type": "function"
    },
    {
      "inputs": [
        {
          "internalType": "address",
          "name": "",
          "type": "address"
        },
        {
          "internalType": "uint256",
          "name": "",
          "type": "uint256"
        }
      ],
      "name": "votedBalances",
      "outputs": [
        {
          "internalType": "uint256",
          "name": "available",
          "type": "uint256"
        },
        {
          "internalType": "uint256",
          "name": "freezed",
          "type": "uint256"
        },
        {
          "internalType": "uint256",
          "name": "votedAt",
          "type": "uint256"
        }
      ],
      "stateMutability": "view",
      "type": "function"
    },
    {
      "inputs": [],
      "name": "weeklyCap",
      "outputs": [
        {
          "internalType": "uint256",
          "name": "",
          "type": "uint256"
        }
      ],
      "stateMutability": "view",
      "type": "function"
    },
    {
      "inputs": [
        {
          "internalType": "address",
          "name": "_token",
          "type": "address"
        },
        {
          "internalType": "uint256",
          "name": "_ratio",
          "type": "uint256"
        }
      ],
      "name": "addVoteToken",
      "outputs": [],
      "stateMutability": "nonpayable",
      "type": "function"
    },
    {
      "inputs": [
        {
          "internalType": "address",
          "name": "_auction",
          "type": "address"
        }
      ],
      "name": "setAuctionAddress",
      "outputs": [],
      "stateMutability": "nonpayable",
      "type": "function"
    },
    {
      "inputs": [
        {
          "internalType": "address",
          "name": "_pin",
          "type": "address"
        }
      ],
      "name": "setPinAddress",
      "outputs": [],
      "stateMutability": "nonpayable",
      "type": "function"
    },
    {
      "inputs": [
        {
          "internalType": "uint256",
          "name": "lockId",
          "type": "uint256"
        }
      ],
      "name": "setTokenLockId",
      "outputs": [],
      "stateMutability": "nonpayable",
      "type": "function"
    },
    {
      "inputs": [
        {
          "internalType": "address",
          "name": "operator",
          "type": "address"
        },
        {
          "internalType": "bool",
          "name": "isOperator",
          "type": "bool"
        }
      ],
      "name": "setOperator",
      "outputs": [],
      "stateMutability": "nonpayable",
      "type": "function"
    },
    {
      "inputs": [
        {
          "internalType": "uint256",
          "name": "_duration",
          "type": "uint256"
        }
      ],
      "name": "setVoteDuration",
      "outputs": [],
      "stateMutability": "nonpayable",
      "type": "function"
    },
    {
      "inputs": [
        {
          "internalType": "uint256",
          "name": "stakingBase",
          "type": "uint256"
        },
        {
          "internalType": "uint256",
          "name": "startTime",
          "type": "uint256"
        },
        {
          "internalType": "string",
          "name": "matchId",
          "type": "string"
        }
      ],
      "name": "addGroup",
      "outputs": [],
      "stateMutability": "nonpayable",
      "type": "function"
    },
    {
      "inputs": [
        {
          "internalType": "uint256",
          "name": "groupId",
          "type": "uint256"
        },
        {
          "internalType": "address[]",
          "name": "nftAddrs",
          "type": "address[]"
        },
        {
          "internalType": "uint256[]",
          "name": "nftIds",
          "type": "uint256[]"
        }
      ],
      "name": "addNFT",
      "outputs": [],
      "stateMutability": "nonpayable",
      "type": "function"
    },
    {
      "inputs": [
        {
          "internalType": "uint256",
          "name": "groupId",
          "type": "uint256"
        }
      ],
      "name": "groupNFTsLength",
      "outputs": [
        {
          "internalType": "uint256",
          "name": "",
          "type": "uint256"
        }
      ],
      "stateMutability": "view",
      "type": "function"
    },
    {
      "inputs": [
        {
          "internalType": "uint256",
          "name": "groupId",
          "type": "uint256"
        }
      ],
      "name": "getAuctionPrices",
      "outputs": [
        {
          "internalType": "uint256[]",
          "name": "prices",
          "type": "uint256[]"
        },
        {
          "internalType": "uint256",
          "name": "totalAmount",
          "type": "uint256"
        }
      ],
      "stateMutability": "view",
      "type": "function"
    },
    {
      "inputs": [
        {
          "internalType": "uint256",
          "name": "ts",
          "type": "uint256"
        }
      ],
      "name": "getDate",
      "outputs": [
        {
          "internalType": "uint256",
          "name": "",
          "type": "uint256"
        }
      ],
      "stateMutability": "pure",
      "type": "function"
    },
    {
      "inputs": [
        {
          "internalType": "uint256",
          "name": "groupId",
          "type": "uint256"
        }
      ],
      "name": "getVotableDates",
      "outputs": [
        {
          "internalType": "uint256[]",
          "name": "dates",
          "type": "uint256[]"
        }
      ],
      "stateMutability": "view",
      "type": "function"
    },
    {
      "inputs": [
        {
          "internalType": "address",
          "name": "user",
          "type": "address"
        },
        {
          "internalType": "address",
          "name": "token",
          "type": "address"
        },
        {
          "internalType": "address",
          "name": "nftAddr",
          "type": "address"
        },
        {
          "internalType": "uint256",
          "name": "nftId",
          "type": "uint256"
        }
      ],
      "name": "getAvailableBalance",
      "outputs": [
        {
          "internalType": "uint256",
          "name": "",
          "type": "uint256"
        }
      ],
      "stateMutability": "view",
      "type": "function"
    },
    {
      "inputs": [
        {
          "internalType": "address",
          "name": "nftAddr",
          "type": "address"
        },
        {
          "internalType": "uint256",
          "name": "nftId",
          "type": "uint256"
        },
        {
          "internalType": "address",
          "name": "token",
          "type": "address"
        },
        {
          "internalType": "uint256",
          "name": "amount",
          "type": "uint256"
        }
      ],
      "name": "stake",
      "outputs": [],
      "stateMutability": "nonpayable",
      "type": "function"
    },
    {
      "inputs": [
        {
          "internalType": "address",
          "name": "nftAddr",
          "type": "address"
        },
        {
          "internalType": "uint256",
          "name": "nftId",
          "type": "uint256"
        },
        {
          "internalType": "address",
          "name": "token",
          "type": "address"
        },
        {
          "internalType": "uint256",
          "name": "amount",
          "type": "uint256"
        }
      ],
      "name": "unstake",
      "outputs": [],
      "stateMutability": "nonpayable",
      "type": "function"
    },
    {
      "inputs": [
        {
          "internalType": "address",
          "name": "user",
          "type": "address"
        },
        {
          "internalType": "address",
          "name": "token",
          "type": "address"
        }
      ],
      "name": "getRedeemableBalance",
      "outputs": [
        {
          "internalType": "uint256",
          "name": "",
          "type": "uint256"
        }
      ],
      "stateMutability": "view",
      "type": "function"
    },
    {
      "inputs": [
        {
          "internalType": "address",
          "name": "token",
          "type": "address"
        }
      ],
      "name": "redeemToken",
      "outputs": [],
      "stateMutability": "nonpayable",
      "type": "function"
    },
    {
      "inputs": [
        {
          "internalType": "uint256",
          "name": "groupId",
          "type": "uint256"
        },
        {
          "internalType": "address",
          "name": "token",
          "type": "address"
        }
      ],
      "name": "redeemToken",
      "outputs": [],
      "stateMutability": "nonpayable",
      "type": "function"
    },
    {
      "inputs": [
        {
          "internalType": "address",
          "name": "token",
          "type": "address"
        },
        {
          "internalType": "uint256",
          "name": "amount",
          "type": "uint256"
        }
      ],
      "name": "rescueToken",
      "outputs": [],
      "stateMutability": "nonpayable",
      "type": "function"
    },
    {
      "inputs": [
        {
          "internalType": "address",
          "name": "user",
          "type": "address"
        }
      ],
      "name": "getTotalRewards",
      "outputs": [
        {
          "internalType": "uint256",
          "name": "",
          "type": "uint256"
        }
      ],
      "stateMutability": "view",
      "type": "function"
    },
    {
      "inputs": [
        {
          "internalType": "address",
          "name": "user",
          "type": "address"
        },
        {
          "internalType": "uint256",
          "name": "groupId",
          "type": "uint256"
        }
      ],
      "name": "getBaseRewards",
      "outputs": [
        {
          "internalType": "uint256",
          "name": "",
          "type": "uint256"
        }
      ],
      "stateMutability": "view",
      "type": "function"
    },
    {
      "inputs": [
        {
          "internalType": "address",
          "name": "user",
          "type": "address"
        },
        {
          "internalType": "uint256",
          "name": "groupId",
          "type": "uint256"
        }
      ],
      "name": "getAuctionRewards",
      "outputs": [
        {
          "internalType": "uint256",
          "name": "",
          "type": "uint256"
        }
      ],
      "stateMutability": "view",
      "type": "function"
    },
    {
      "inputs": [
        {
          "internalType": "address",
          "name": "user",
          "type": "address"
        }
      ],
      "name": "getBondedBalance",
      "outputs": [
        {
          "internalType": "uint256",
          "name": "",
          "type": "uint256"
        }
      ],
      "stateMutability": "view",
      "type": "function"
    },
    {
      "inputs": [
        {
          "internalType": "address",
          "name": "user",
          "type": "address"
        },
        {
          "internalType": "address",
          "name": "nftAddr",
          "type": "address"
        },
        {
          "internalType": "uint256",
          "name": "nftId",
          "type": "uint256"
        }
      ],
      "name": "getUnvotableBalance",
      "outputs": [
        {
          "internalType": "uint256",
          "name": "",
          "type": "uint256"
        }
      ],
      "stateMutability": "view",
      "type": "function"
    },
    {
      "inputs": [
        {
          "internalType": "address",
          "name": "nftAddr",
          "type": "address"
        },
        {
          "internalType": "uint256",
          "name": "nftId",
          "type": "uint256"
        }
      ],
      "name": "voteFromLock",
      "outputs": [],
      "stateMutability": "nonpayable",
      "type": "function"
    },
    {
      "inputs": [
        {
          "internalType": "address",
          "name": "nftAddr",
          "type": "address"
        },
        {
          "internalType": "uint256",
          "name": "nftId",
          "type": "uint256"
        },
        {
          "internalType": "uint256",
          "name": "amount",
          "type": "uint256"
        }
      ],
      "name": "voteBonded",
      "outputs": [],
      "stateMutability": "nonpayable",
      "type": "function"
    },
    {
      "inputs": [
        {
          "internalType": "address",
          "name": "nftAddr",
          "type": "address"
        },
        {
          "internalType": "uint256",
          "name": "nftId",
          "type": "uint256"
        },
        {
          "internalType": "uint256",
          "name": "amount",
          "type": "uint256"
        }
      ],
      "name": "unvoteBonded",
      "outputs": [],
      "stateMutability": "nonpayable",
      "type": "function"
    },
    {
      "inputs": [
        {
          "internalType": "address",
          "name": "user",
          "type": "address"
        }
      ],
      "name": "getUnbondingBalancesLength",
      "outputs": [
        {
          "internalType": "uint256",
          "name": "",
          "type": "uint256"
        }
      ],
      "stateMutability": "view",
      "type": "function"
    },
    {
      "inputs": [
        {
          "internalType": "uint256",
          "name": "amount",
          "type": "uint256"
        }
      ],
      "name": "unbond",
      "outputs": [],
      "stateMutability": "nonpayable",
      "type": "function"
    },
    {
      "inputs": [
        {
          "internalType": "uint256",
          "name": "index",
          "type": "uint256"
        }
      ],
      "name": "redeemUnbonding",
      "outputs": [],
      "stateMutability": "nonpayable",
      "type": "function"
    },
    {
      "inputs": [
        {
          "internalType": "address",
          "name": "nftAddr",
          "type": "address"
        },
        {
          "internalType": "uint256",
          "name": "nftId",
          "type": "uint256"
        },
        {
          "internalType": "address",
          "name": "to",
          "type": "address"
        }
      ],
      "name": "claimMintRewards",
      "outputs": [],
      "stateMutability": "nonpayable",
      "type": "function"
    },
    {
      "inputs": [
        {
          "internalType": "uint256",
          "name": "groupId",
          "type": "uint256"
        }
      ],
      "name": "getTradeWeights",
      "outputs": [
        {
          "internalType": "uint256[]",
          "name": "weights",
          "type": "uint256[]"
        }
      ],
      "stateMutability": "view",
      "type": "function"
    },
    {
      "inputs": [
        {
          "internalType": "uint256",
          "name": "groupId",
          "type": "uint256"
        }
      ],
      "name": "setAuctionFinish",
      "outputs": [],
      "stateMutability": "nonpayable",
      "type": "function"
    },
    {
      "inputs": [
        {
          "internalType": "uint256",
          "name": "groupId",
          "type": "uint256"
        }
      ],
      "name": "getAuctionRewardRates",
      "outputs": [
        {
          "internalType": "uint256[]",
          "name": "auctionRewardRates",
          "type": "uint256[]"
        }
      ],
      "stateMutability": "view",
      "type": "function"
    },
    {
      "inputs": [
        {
          "internalType": "uint256",
          "name": "groupId",
          "type": "uint256"
        },
        {
          "internalType": "uint256",
          "name": "date",
          "type": "uint256"
        }
      ],
      "name": "getDailyVotes",
      "outputs": [
        {
          "internalType": "uint256",
          "name": "",
          "type": "uint256"
        }
      ],
      "stateMutability": "view",
      "type": "function"
    },
    {
      "inputs": [
        {
          "internalType": "uint256",
          "name": "groupId",
          "type": "uint256"
        }
      ],
      "name": "getWeightsAndInflations",
      "outputs": [
        {
          "internalType": "uint256[]",
          "name": "weights",
          "type": "uint256[]"
        },
        {
          "internalType": "uint256[]",
          "name": "inflations",
          "type": "uint256[]"
        }
      ],
      "stateMutability": "view",
      "type": "function"
    },
    {
      "inputs": [
        {
          "internalType": "uint256",
          "name": "groupId",
          "type": "uint256"
        }
      ],
      "name": "getBaseRewardRates",
      "outputs": [
        {
          "internalType": "uint256[]",
          "name": "rewardRates",
          "type": "uint256[]"
        }
      ],
      "stateMutability": "view",
      "type": "function"
    },
    {
      "inputs": [
        {
          "internalType": "uint256",
          "name": "groupId",
          "type": "uint256"
        }
      ],
      "name": "getMintRewardsPerNFT",
      "outputs": [
        {
          "internalType": "uint256[]",
          "name": "mintRewards",
          "type": "uint256[]"
        }
      ],
      "stateMutability": "view",
      "type": "function"
    }
  ],
  "bytecode": "0x608060405262093a8060015566b1a2bc2ec5000060025560046007600254620000299190620002d1565b620000359190620002d1565b600355600460076002546200004b9190620002d1565b620000579190620002d1565b600455600280546200006a9190620002d1565b6005556000600b556000601455612710601a5560006027553480156200008f57600080fd5b506040516200511538038062005115833981016040819052620000b2916200029a565b620000d8620000c964010000000062000205810204565b64010000000062000209810204565b60088054600160a060020a031916600160a060020a038416908117909155604080517fa88d8fea000000000000000000000000000000000000000000000000000000008152905163a88d8fea91600480820192602092909190829003018186803b1580156200014657600080fd5b505afa1580156200015b573d6000803e3d6000fd5b505050506040513d601f19601f8201168201806040525081019062000181919062000276565b60078054600160a060020a03928316600160a060020a031991821681178355602880549585169583169590951790945560188054600181019091557fb13d2d76d1f4b7be834882e410b3e3a8afaf69f83600ae24db354391d2378d2e018054909116909317909255601a54915416600090815260196020526040902055506200030b565b3390565b60008054600160a060020a03838116600160a060020a0319831681178455604051919092169283917f8be0079c531659141344cd1fd0a4f28419497f9722a3daafe3b4186f6b6457e09190a35050565b8051600160a060020a03811681146200027157600080fd5b919050565b60006020828403121562000288578081fd5b620002938262000259565b9392505050565b60008060408385031215620002ad578081fd5b620002b88362000259565b9150620002c86020840162000259565b90509250929050565b60008262000306577f4e487b710000000000000000000000000000000000000000000000000000000081526012600452602481fd5b500490565b614dfa806200031b6000396000f3fe608060405234801561001057600080fd5b506004361061048f5760003560e060020a90048063715018a611610266578063ac80b61211610155578063c909adc0116100d2578063f298e49311610096578063f298e49314610c52578063f2fde38b14610c65578063f44e3ce114610c78578063f7a64da314610c8b578063f8df0cd314610cbc578063fa119fee14610ccf57600080fd5b8063c909adc014610c07578063d0b5efa914610c10578063d0f86b2614610c23578063da043af314610c36578063e325fb4b14610c4957600080fd5b8063bba1189a11610119578063bba1189a14610b8e578063c3501ff614610ba1578063c4f6da1214610bb4578063c7780c7314610bd4578063c7c8895614610be757600080fd5b8063ac80b61214610ae3578063acceea7514610b14578063ad3bac1a14610b27578063b5345afa14610b3a578063bae5435314610b6e57600080fd5b80638503d2cd116101e35780639449a655116101a75780639449a65514610a7757806396324bd414610a8a5780639d9d9a1014610aaa578063a80bf3e614610abd578063a88d8fea14610ad057600080fd5b80638503d2cd146109e55780638da5cb5b146109f85780638f4d41e814610a09578063938f173714610a2a57806393ac363814610a6457600080fd5b80637d9f6db51161022a5780637d9f6db5146109585780638049e17b1461096b578063814e7c0f1461099c57806383fd1a54146109bf578063842fc1a3146109d257600080fd5b8063715018a61461090b5780637523d4bd14610913578063768218271461093357806376ec17b71461093c578063776498d41461094f57600080fd5b806343af356b11610382578063558a7297116102ff5780636482ff98116102c35780636482ff981461083c57806364ebaaeb1461084f578063660dbeb81461087d5780636b942b86146108905780636f700e25146108eb57600080fd5b8063558a7297146107aa578063563c5e30146107bd5780635a8542be146107e857806361d027b31461080957806363c0ea101461081c57600080fd5b80634e4b61c3116103465780634e4b61c3146107245780634f8d32be14610743578063502a1d3f1461074c578063515cc5321461076c57806352a437fe1461077f57600080fd5b806343af356b146106675780634654ff051461069257806346aa25a21461069b5780634768d4ef146106d95780634dc1a3e0146106f957600080fd5b80632281dfa4116104105780632bcf161c116103d45780632bcf161c1461061257806333f3d6281461062557806334e7a1a81461063857806337867c941461064b5780633dbc65c71461065457600080fd5b80632281dfa4146105bd578063259239a1146105d057806327de9e32146105e357806328ad5ba6146105f65780632b57298b146105ff57600080fd5b80631152df0f116104575780631152df0f14610515578063126f648c1461053e57806313e7c9d814610571578063171b612c1461059457806317a9c7bd1461059d57600080fd5b8063040308e4146104945780630713ee7e146104ba578063079dc7f4146104cf5780630971823f146104e25780630d265df9146104f5575b600080fd5b6104a76104a23660046144d1565b610ce2565b6040519081526020015b60405180910390f35b6104cd6104c836600461465e565b610d8a565b005b6104a76104dd3660046147af565b610f76565b6104a76104f036600461458e565b611018565b6105086105033660046146ae565b611173565b6040516104b191906148a6565b6104a7610523366004614461565b600160a060020a03166000908152601e602052604090205490565b61056161054c3660046146ae565b600d6020526000908152604090205460ff1681565b60405190151581526020016104b1565b61056161057f366004614461565b60256020526000908152604090205460ff1681565b6104a760035481565b6104a76105ab3660046146ae565b60166020526000908152604090205481565b6104cd6105cb36600461458e565b611315565b6104cd6105de366004614627565b61153c565b6104cd6105f13660046146ae565b611895565b6104a760045481565b6104a761060d3660046146ae565b6119b9565b6104a7610620366004614461565b6119d2565b6104cd61063336600461458e565b611a23565b6104cd6106463660046146ae565b611ad8565b6104a7600b5481565b6104a7610662366004614499565b611c2a565b6104a761067536600461458e565b601360209081526000928352604080842090915290825290205481565b6104a760015481565b6106ae6106a93660046147af565b611cab565b60408051948552600160a060020a0393841660208601528401919091521660608201526080016104b1565b6106ec6106e73660046146ae565b611cfd565b6040516104b19190614909565b60265461070c90600160a060020a031681565b604051600160a060020a0390911681526020016104b1565b6104a76107323660046146ae565b602080526000908152604090205481565b6104a760025481565b6104a761075a366004614461565b60196020526000908152604090205481565b61050861077a3660046146ae565b611d97565b6104a761078d3660046147af565b600f60209081526000928352604080842090915290825290205481565b6104cd6107b8366004614561565b611f04565b6104a76107cb36600461458e565b601260209081526000928352604080842090915290825290205481565b6107fb6107f63660046146ae565b611f5c565b6040516104b19291906148e7565b60085461070c90600160a060020a031681565b6104a761082a3660046146ae565b60156020526000908152604090205481565b61070c61084a3660046146ae565b6120db565b61056161085d36600461458e565b602260209081526000928352604080842090915290825290205460ff1681565b6104a761088b366004614521565b612105565b6108d061089e366004614521565b601b60209081526000938452604080852082529284528284209052825290208054600182015460029092015490919083565b604080519384526020840192909252908201526060016104b1565b6104a76108f9366004614461565b601d6020526000908152604090205481565b6104cd6121a1565b6104a7610921366004614461565b601f6020526000908152604090205481565b6104a760275481565b6104cd61094a366004614627565b6121da565b6104a7601a5481565b60095461070c90600160a060020a031681565b6104a761097936600461465e565b601060209081526000938452604080852082529284528284209052825290205481565b6105616109aa3660046146ae565b60236020526000908152604090205460ff1681565b6104cd6109cd36600461465e565b6124f8565b6104cd6109e0366004614461565b6126b7565b6104cd6109f3366004614738565b6127dd565b600054600160a060020a031661070c565b610a1c610a173660046146ae565b612b50565b6040516104b19291906148b9565b6108d0610a3836600461458e565b601c60209081526000928352604080842090915290825290208054600182015460029092015490919083565b6104cd610a72366004614461565b612e2a565b6104cd610a853660046146ae565b612e86565b6104a7610a983660046146ae565b600a6020526000908152604090205481565b610508610ab83660046146ae565b612eb8565b60285461070c90600160a060020a031681565b60075461070c90600160a060020a031681565b6104a7610af1366004614702565b602460209081526000938452604080852082529284528284209052825290205481565b6104a7610b22366004614461565b613012565b6104cd610b35366004614461565b613072565b610561610b4836600461465e565b602160209081526000938452604080852082529284528284209052825290205460ff1681565b6104a7610b7c3660046146ae565b6000908152600e602052604090205490565b6104cd610b9c3660046147d0565b6130ce565b6104cd610baf3660046146de565b61316b565b6104a7610bc23660046146ae565b60066020526000908152604090205481565b610508610be23660046146ae565b6132f0565b6104a7610bf53660046146ae565b60176020526000908152604090205481565b6104a760145481565b6104cd610c1e3660046146ae565b6135b9565b6104a7610c3136600461458e565b61361b565b6104cd610c4436600461458e565b61373b565b6104a760055481565b6104cd610c603660046146ae565b613867565b6104cd610c73366004614461565b613899565b6104cd610c863660046145e6565b613951565b6104a7610c9936600461465e565b601160209081526000938452604080852082529284528284209052825290205481565b6108d0610cca36600461458e565b613bb2565b610508610cdd3660046146ae565b613bf4565b600160a060020a0380831660009081526013602090815260408083208584528252808320548885168452601b835281842094881684529382528083208484528252808320815160608101835281548082526001830154948201949094526002909101549181019190915291929190610d59426119b9565b610d6683604001516119b9565b1015610d7f576020820151610d7c908290613cad565b90505b979650505050505050565b600b546000908152600a6020526040902054421015610dc75760405160e560020a62461bcd028152600401610dbe90614a0e565b60405180910390fd5b600154600b546000908152600a60205260409020544291610de89190613cad565b1015610e095760405160e560020a62461bcd028152600401610dbe90614a45565b600160a060020a038316600090815260136020908152604080832085845290915290205483908390610e505760405160e560020a62461bcd028152600401610dbe90614a7c565b6000610e5b33613012565b9050838111610eaf5760405160e560020a62461bcd02815260206004820152601b60248201527f496e73756666696369656e7420626f6e6465642062616c616e636500000000006044820152606401610dbe565b610ebb33878787613cc0565b600160a060020a0386166000908152601360209081526040808320888452825280832054338452601c8352818420818552909252909120610efb426119b9565b610f0882600201546119b9565b1015610f285760018101548154610f1e91613cad565b8155600060018201555b6001810154610f379087613cad565b6001820155426002820155336000908152601d6020526040902054610f5c9087613cad565b336000908152601d60205260409020555050505050505050565b600080805b6000858152600e602052604090205481101561100e576000858152600e60205260408120805483908110610fc25760e060020a634e487b7102600052603260045260246000fd5b60009182526020808320600490920290910154878352600f82526040808420828552909252912054909150610ff8908490613cad565b925050808061100690614d22565b915050610f7b565b5090505b92915050565b60008061102483613bf4565b9050600061103184611d97565b905060008061103f426119b9565b905060005b845181101561116757818582815181106110715760e060020a634e487b7102600052603260045260246000fd5b60200260200101511061108357611167565b6000611145670de0b6b3a764000061113f8785815181106110b75760e060020a634e487b7102600052603260045260246000fd5b6020026020010151601160008e600160a060020a0316600160a060020a0316815260200190815260200160002060008d815260200190815260200160002060008b888151811061111a5760e060020a634e487b7102600052603260045260246000fd5b6020026020010151815260200190815260200160002054613f0f90919063ffffffff16565b90613f1b565b90506111518482613cad565b935050808061115f90614d22565b915050611044565b50909695505050505050565b6000818152600e60209081526040808320805482518185028101850190935280835260609493849084015b82821015611202576000848152602090819020604080516080810182526004860290920180548352600180820154600160a060020a03908116858701526002830154938501939093526003909101549091166060830152908352909201910161119e565b505050509050805167ffffffffffffffff8111156112335760e060020a634e487b7102600052604160045260246000fd5b60405190808252806020026020018201604052801561125c578160200160208202803683370190505b50915060008061126b85611f5c565b9092509050801561130d5760005b835181101561130b576112cb8261113f670de0b6b3a76400008685815181106112b55760e060020a634e487b7102600052603260045260246000fd5b6020026020010151613f0f90919063ffffffff16565b8582815181106112ee5760e060020a634e487b7102600052603260045260246000fd5b60209081029190910101528061130381614d22565b915050611279565b505b505050919050565b600b546000908152600a60205260409020544210156113495760405160e560020a62461bcd028152600401610dbe90614a0e565b600154600b546000908152600a6020526040902054429161136a9190613cad565b101561138b5760405160e560020a62461bcd028152600401610dbe90614a45565b600160a060020a0382166000908152601360209081526040808320848452909152902054829082906113d25760405160e560020a62461bcd028152600401610dbe90614a7c565b6028546027546040517fc7b1e3f20000000000000000000000000000000000000000000000000000000081526004810191909152336024820152600091600160a060020a03169063c7b1e3f290604401602060405180830381600087803b15801561143c57600080fd5b505af1158015611450573d6000803e3d6000fd5b505050506040513d601f19601f8201168201806040525081019061147491906146c6565b905061148233868684613cc0565b600160a060020a0385166000908152601360209081526040808320878452825280832054338452601c83528184208185529092529091206114c2426119b9565b6114cf82600201546119b9565b10156114ef57600181015481546114e591613cad565b8155600060018201555b60018101546114fe9084613cad565b6001820155426002820155336000908152601d60205260409020546115239084613cad565b336000908152601d602052604090205550505050505050565b816000805b6018548110156115af5782600160a060020a0316601882815481106115795760e060020a634e487b7102600052603260045260246000fd5b600091825260209091200154600160a060020a0316141561159d57600191506115af565b806115a781614d22565b915050611541565b50806116005760405160e560020a62461bcd02815260206004820152601260248201527f496e76616c696420566f746520546f6b656e00000000000000000000000000006044820152606401610dbe565b600b546000908152600a60205260409020544210156116345760405160e560020a62461bcd028152600401610dbe90614a0e565b600154600b546000908152600a602052604090205442916116559190613cad565b10156116765760405160e560020a62461bcd028152600401610dbe90614a45565b600160a060020a0386166000908152601360209081526040808320888452909152902054869086906116bd5760405160e560020a62461bcd028152600401610dbe90614a7c565b600085116116e05760405160e560020a62461bcd028152600401610dbe90614ab3565b60006116ec8787613f27565b90506116fa338a8a84613cc0565b6040517f23b872dd00000000000000000000000000000000000000000000000000000000815233600482015230602482015260448101879052600160a060020a038816906323b872dd90606401602060405180830381600087803b15801561176157600080fd5b505af1158015611775573d6000803e3d6000fd5b505050506040513d601f19601f820116820180604052508101906117999190614692565b50600b5460009081526024602090815260408083203384528252808320600160a060020a038b1684529091529020546117d29087613cad565b600b54600090815260246020908152604080832033808552908352818420600160a060020a038d811680875291855283862096909655948e168452601383528184208d8552835281842054908452601b83528184209484529382528083208484529091529020611841426119b9565b61184e82600201546119b9565b101561186e576001810154815461186491613cad565b8155600060018201555b600181015461187d9089613cad565b60018201554260029091015550505050505050505050565b60006118a033613012565b90508181116118f45760405160e560020a62461bcd02815260206004820152601b60248201527f496e73756666696369656e7420626f6e6465642062616c616e636500000000006044820152606401610dbe565b336000818152601e60209081526040808320815160608101835287815242818501908152818401868152835460018181018655948852868820935160039091029093019283559051928201929092559051600290910155928252601f9052205461195e9083613cad565b336000818152601f6020526040908190209290925590517f7659747cd8571f1071eea946fdc648adcf181cad916f32a05f82c3a525976048906119ad9085904290918252602082015260400190565b60405180910390a25050565b60006110126119cb83620151806140c5565b83906140d1565b60008060015b600b548111611a1c57611a086119ee858361361b565b611a026119fb8785611018565b8590613cad565b90613cad565b915080611a1481614d22565b9150506119d8565b5092915050565b600054600160a060020a03163314611a505760405160e560020a62461bcd028152600401610dbe90614aea565b60405160e060020a63a9059cbb02815233600482015260248101829052600160a060020a0383169063a9059cbb90604401602060405180830381600087803b158015611a9b57600080fd5b505af1158015611aaf573d6000803e3d6000fd5b505050506040513d601f19601f82011682018060405250810190611ad39190614692565b505050565b336000908152601e60205260408120805483908110611b0a5760e060020a634e487b7102600052603260045260246000fd5b906000526020600020906003020190506000611b426201518061113f611b3385600101546119b9565b611b3c426119b9565b906140d1565b90506000611b62603c61113f856000015485613f0f90919063ffffffff16565b90506000611b7d8460020154836140d190919063ffffffff16565b600285018390556008546040517fc8773af200000000000000000000000000000000000000000000000000000000815233600482015260248101839052919250600160a060020a03169063c8773af290604401602060405180830381600087803b158015611bea57600080fd5b505af1158015611bfe573d6000803e3d6000fd5b505050506040513d601f19601f82011682018060405250810190611c2291906146c6565b505050505050565b60008060015b600b54811161100e576001546000828152600a60205260409020544291611c5691614b56565b1015611c99576000818152602460209081526040808320600160a060020a03808a1685529083528184209088168452909152902054611c96908390613cad565b91505b80611ca381614d22565b915050611c30565b600e6020528160005260406000208181548110611cc757600080fd5b60009182526020909120600490910201805460018201546002830154600390930154919450600160a060020a0390811693501684565b600c6020526000908152604090208054611d1690614cea565b80601f0160208091040260200160405190810160405280929190818152602001828054611d4290614cea565b8015611d8f5780601f10611d6457610100808354040283529160200191611d8f565b820191906000526020600020905b815481529060010190602001808311611d7257829003601f168201915b505050505081565b60606000611da483613bf4565b90506000611db184612b50565b915050815167ffffffffffffffff811115611ddf5760e060020a634e487b7102600052604160045260246000fd5b604051908082528060200260200182016040528015611e08578160200160208202803683370190505b50925060005b825181101561130d57611e20426119b9565b838281518110611e435760e060020a634e487b7102600052603260045260246000fd5b60200260200101511115611e565761130d565b6000611e8c86858481518110611e7f5760e060020a634e487b7102600052603260045260246000fd5b6020026020010151610f76565b90508015611ef157611ec18161113f6003548686815181106112b55760e060020a634e487b7102600052603260045260246000fd5b858381518110611ee45760e060020a634e487b7102600052603260045260246000fd5b6020026020010181815250505b5080611efc81614d22565b915050611e0e565b600054600160a060020a03163314611f315760405160e560020a62461bcd028152600401610dbe90614aea565b600160a060020a03919091166000908152602560205260409020805460ff1916911515919091179055565b6000818152600e60205260408120546060919067ffffffffffffffff811115611f985760e060020a634e487b7102600052604160045260246000fd5b604051908082528060200260200182016040528015611fc1578160200160208202803683370190505b50915060005b6000848152600e60205260409020548110156120d5576009546000858152600c602052604080822090517fe3c6623d0000000000000000000000000000000000000000000000000000000081529192600160a060020a03169163e3c6623d9161203491869060040161495c565b604080518083038186803b15801561204b57600080fd5b505afa15801561205f573d6000803e3d6000fd5b505050506040513d601f19601f8201168201806040525081019061208391906145b9565b915050808483815181106120aa5760e060020a634e487b7102600052603260045260246000fd5b60209081029190910101526120bf8382613cad565b92505080806120cd90614d22565b915050611fc7565b50915091565b601881815481106120eb57600080fd5b600091825260209091200154600160a060020a0316905081565b600160a060020a0380831660009081526013602090815260408083208584528252808320549387168352601c82528083208484528252808320815160608101835281548082526001830154948201949094526002909101549181019190915291929190612171426119b9565b61217e83604001516119b9565b1015612197576020820151612194908290613cad565b90505b9695505050505050565b600054600160a060020a031633146121ce5760405160e560020a62461bcd028152600401610dbe90614aea565b6121d860006140dd565b565b816000805b60185481101561224d5782600160a060020a0316601882815481106122175760e060020a634e487b7102600052603260045260246000fd5b600091825260209091200154600160a060020a0316141561223b576001915061224d565b8061224581614d22565b9150506121df565b508061229e5760405160e560020a62461bcd02815260206004820152601260248201527f496e76616c696420566f746520546f6b656e00000000000000000000000000006044820152606401610dbe565b600160a060020a0386166000908152601360209081526040808320888452909152902054869086906122e55760405160e560020a62461bcd028152600401610dbe90614a7c565b600085116123085760405160e560020a62461bcd028152600401610dbe90614ab3565b600061231633888b8b610ce2565b90508581101561236b5760405160e560020a62461bcd02815260206004820152601460248201527f496e73756666696369656e742062616c616e63650000000000000000000000006044820152606401610dbe565b60006123778888613f27565b9050612385338b8b8461413a565b60405160e060020a63a9059cbb02815233600482015260248101889052600160a060020a0389169063a9059cbb90604401602060405180830381600087803b1580156123d057600080fd5b505af11580156123e4573d6000803e3d6000fd5b505050506040513d601f19601f820116820180604052508101906124089190614692565b50600b5460009081526024602090815260408083203384528252808320600160a060020a038c16845290915290205461244190886140d1565b600b54600090815260246020908152604080832033808552908352818420600160a060020a038e811680875291855283862096909655948f168452601383528184208e8552835281842054908452601b835281842094845293825280832084845290915290206124b0426119b9565b6124bd82600201546119b9565b10156124dd57600181015481546124d391613cad565b8155600060018201555b80546124e9908a6140d1565b90555050505050505050505050565b600b546000908152600a602052604090205442101561252c5760405160e560020a62461bcd028152600401610dbe90614a0e565b600154600b546000908152600a6020526040902054429161254d9190613cad565b101561256e5760405160e560020a62461bcd028152600401610dbe90614a45565b600160a060020a0383166000908152601360209081526040808320858452909152902054839083906125b55760405160e560020a62461bcd028152600401610dbe90614a7c565b60006125c2338787612105565b90508381116126165760405160e560020a62461bcd02815260206004820152601e60248201527f496e73756666696369656e7420756e766f7461626c652062616c616e636500006044820152606401610dbe565b6126223387878761413a565b600160a060020a0386166000908152601360209081526040808320888452825280832054338452601c8352818420818552909252909120612662426119b9565b61266f82600201546119b9565b101561268f576001810154815461268591613cad565b8155600060018201555b805461269b90876140d1565b8155336000908152601d6020526040902054610f5c90876140d1565b60006126c33383611c2a565b9050600081116127185760405160e560020a62461bcd02815260206004820152601460248201527f576974686472617761626c65206973207a65726f0000000000000000000000006044820152606401610dbe565b60405160e060020a63a9059cbb02815233600482015260248101829052600160a060020a0383169063a9059cbb90604401602060405180830381600087803b15801561276357600080fd5b505af1158015612777573d6000803e3d6000fd5b505050506040513d601f19601f8201168201806040525081019061279b9190614692565b5060408051600160a060020a03841681526020810183905233917fd12200efa34901b99367694174c3b0d32c99585fdf37c7c26892136ddd0836d991016119ad565b3360009081526025602052604090205460ff16806128055750600054600160a060020a031633145b6128245760405160e560020a62461bcd028152600401610dbe90614b1f565b8281146128765760405160e560020a62461bcd02815260206004820152600e60248201527f496e76616c696420706172616d730000000000000000000000000000000000006044820152606401610dbe565b6000858152600e60205260408120905b84811015612b47576014805490600061289e83614d22565b9190505550601454601360008888858181106128cd5760e060020a634e487b7102600052603260045260246000fd5b90506020020160208101906128e29190614461565b600160a060020a0316600160a060020a0316815260200190815260200160002060008686858181106129275760e060020a634e487b7102600052603260045260246000fd5b9050602002013581526020019081526020016000208190555060008686838181106129655760e060020a634e487b7102600052603260045260246000fd5b905060200201602081019061297a9190614461565b600160a060020a0316636352211e8686858181106129ab5760e060020a634e487b7102600052603260045260246000fd5b905060200201356040518263ffffffff1660e060020a0281526004016129d391815260200190565b60206040518083038186803b1580156129eb57600080fd5b505afa1580156129ff573d6000803e3d6000fd5b505050506040513d601f19601f82011682018060405250810190612a23919061447d565b90508260405180608001604052806014548152602001898986818110612a5c5760e060020a634e487b7102600052603260045260246000fd5b9050602002016020810190612a719190614461565b600160a060020a03168152602001878786818110612aa25760e060020a634e487b7102600052603260045260246000fd5b60209081029290920135835250600160a060020a03948516918101919091528254600181810185556000948552828520845160049093020191825583830151908201805491871673ffffffffffffffffffffffffffffffffffffffff1992831617905560408085015160028401556060909401516003909201805492909616911617909355601454825260179092522087905580612b3f81614d22565b915050612886565b50505050505050565b6060806000612b5e84613bf4565b9050805167ffffffffffffffff811115612b8b5760e060020a634e487b7102600052604160045260246000fd5b604051908082528060200260200182016040528015612bb4578160200160208202803683370190505b509250805167ffffffffffffffff811115612be25760e060020a634e487b7102600052604160045260246000fd5b604051908082528060200260200182016040528015612c0b578160200160208202803683370190505b50915060005b8151811015612e23576000612c4386848481518110611e7f5760e060020a634e487b7102600052603260045260246000fd5b600087815260066020526040902054909150612c6b9061113f83670de0b6b3a7640000613f0f565b858381518110612c8e5760e060020a634e487b7102600052603260045260246000fd5b602002602001018181525050670429d069189e0000858381518110612cc65760e060020a634e487b7102600052603260045260246000fd5b60200260200101511015612d11576702c68af0bb140000848381518110612d005760e060020a634e487b7102600052603260045260246000fd5b602002602001018181525050612e10565b670429d069189e0000858381518110612d3d5760e060020a634e487b7102600052603260045260246000fd5b602002602001015110158015612d8457506709b6e64a8ec60000858381518110612d7a5760e060020a634e487b7102600052603260045260246000fd5b6020026020010151105b15612dd757848281518110612dac5760e060020a634e487b7102600052603260045260246000fd5b6020026020010151848381518110612d005760e060020a634e487b7102600052603260045260246000fd5b670de0b6b3a7640000848381518110612e035760e060020a634e487b7102600052603260045260246000fd5b6020026020010181815250505b5080612e1b81614d22565b915050612c11565b5050915091565b600054600160a060020a03163314612e575760405160e560020a62461bcd028152600401610dbe90614aea565b6009805473ffffffffffffffffffffffffffffffffffffffff1916600160a060020a0392909216919091179055565b600054600160a060020a03163314612eb35760405160e560020a62461bcd028152600401610dbe90614aea565b600155565b6000818152600e602052604090205460609067ffffffffffffffff811115612ef35760e060020a634e487b7102600052604160045260246000fd5b604051908082528060200260200182016040528015612f1c578160200160208202803683370190505b50905060005b6000838152600e602052604090205481101561300c5760008381526015602052604090205415612ffa57600083815260156020908152604080832054600454600e9093529083208054612fca94929361113f93909260169288908110612f9b5760e060020a634e487b7102600052603260045260246000fd5b906000526020600020906004020160000154815260200190815260200160002054613f0f90919063ffffffff16565b828281518110612fed5760e060020a634e487b7102600052603260045260246000fd5b6020026020010181815250505b8061300481614d22565b915050612f22565b50919050565b60008061301e836119d2565b600160a060020a0384166000908152601f6020908152604080832054601d909252822054929350909161305091613cad565b905080821161306057600061306a565b61306a82826140d1565b949350505050565b600054600160a060020a0316331461309f5760405160e560020a62461bcd028152600401610dbe90614aea565b6026805473ffffffffffffffffffffffffffffffffffffffff1916600160a060020a0392909216919091179055565b3360009081526025602052604090205460ff16806130f65750600054600160a060020a031633145b6131155760405160e560020a62461bcd028152600401610dbe90614b1f565b600b805490600061312583614d22565b9091555050600b80546000908152600a60209081526040808320879055835483526006825280832088905592548252600c90522061316490838361437f565b5050505050565b6001546000838152600a6020526040902054429161318891614b56565b106131d85760405160e560020a62461bcd02815260206004820152601060248201527f566f7465206973206e6f74206f766572000000000000000000000000000000006044820152606401610dbe565b60008281526024602090815260408083203384528252808320600160a060020a0385168452909152902054806132235760405160e560020a62461bcd028152600401610dbe90614ab3565b60405160e060020a63a9059cbb02815233600482015260248101829052600160a060020a0383169063a9059cbb90604401602060405180830381600087803b15801561326e57600080fd5b505af1158015613282573d6000803e3d6000fd5b505050506040513d601f19601f820116820180604052508101906132a69190614692565b5060408051600160a060020a03841681526020810183905233917fd12200efa34901b99367694174c3b0d32c99585fdf37c7c26892136ddd0836d9910160405180910390a2505050565b606060006132fd83611173565b90506000600e6000858152602001908152602001600020805480602002602001604051908101604052809291908181526020016000905b82821015613398576000848152602090819020604080516080810182526004860290920180548352600180820154600160a060020a039081168587015260028301549385019390935260039091015490911660608301529083529092019101613334565b505050509050805167ffffffffffffffff8111156133c95760e060020a634e487b7102600052604160045260246000fd5b6040519080825280602002602001820160405280156133f2578160200160208202803683370190505b509250600061340085612b50565b915050600061345d670de0b6b3a764000061113f84600186516134239190614cd3565b815181106134445760e060020a634e487b7102600052603260045260246000fd5b6020026020010151600554613f0f90919063ffffffff16565b905060005b83518110156135af57601660008583815181106134925760e060020a634e487b7102600052603260045260246000fd5b602002602001015160000151815260200190815260200160002054600014156134eb5760008682815181106134da5760e060020a634e487b7102600052603260045260246000fd5b60200260200101818152505061359d565b61356d601660008684815181106135155760e060020a634e487b7102600052603260045260246000fd5b60200260200101516000015181526020019081526020016000205461113f8784815181106135565760e060020a634e487b7102600052603260045260246000fd5b602002602001015185613f0f90919063ffffffff16565b8682815181106135905760e060020a634e487b7102600052603260045260246000fd5b6020026020010181815250505b806135a781614d22565b915050613462565b5050505050919050565b3360009081526025602052604090205460ff16806135e15750600054600160a060020a031633145b6136005760405160e560020a62461bcd028152600401610dbe90614b1f565b6000908152600d60205260409020805460ff19166001179055565b6000818152600d602052604081205460ff1661363957506000611012565b600080613645846132f0565b905060005b6000858152600e602052604090205481101561373157600160a060020a0386166000908152601260209081526040808320888452600e90925282208054839190859081106136ab5760e060020a634e487b7102600052603260045260246000fd5b906000526020600020906004020160000154815260200190815260200160002054905061371b84611a02670de0b6b3a764000061113f8787815181106137045760e060020a634e487b7102600052603260045260246000fd5b602002602001015186613f0f90919063ffffffff16565b935050808061372990614d22565b91505061364a565b5090949350505050565b3360009081526025602052604090205460ff16806137635750600054600160a060020a031633145b6137825760405160e560020a62461bcd028152600401610dbe90614b1f565b600160a060020a03821660009081526019602052604081208290555b6018548110156138085782600160a060020a0316601882815481106137d65760e060020a634e487b7102600052603260045260246000fd5b600091825260209091200154600160a060020a031614156137f657505050565b8061380081614d22565b91505061379e565b50601880546001810182556000919091527fb13d2d76d1f4b7be834882e410b3e3a8afaf69f83600ae24db354391d2378d2e018054600160a060020a03841673ffffffffffffffffffffffffffffffffffffffff199091161790555050565b600054600160a060020a031633146138945760405160e560020a62461bcd028152600401610dbe90614aea565b602755565b600054600160a060020a031633146138c65760405160e560020a62461bcd028152600401610dbe90614aea565b600160a060020a0381166139455760405160e560020a62461bcd02815260206004820152602660248201527f4f776e61626c653a206e6577206f776e657220697320746865207a65726f206160448201527f64647265737300000000000000000000000000000000000000000000000000006064820152608401610dbe565b61394e816140dd565b50565b602654600160a060020a031633146139ae5760405160e560020a62461bcd02815260206004820152600960248201527f466f7262696464656e00000000000000000000000000000000000000000000006044820152606401610dbe565b600160a060020a03831660009081526013602090815260408083208584528252808320548084526017835281842054602390935292205460ff1615613a385760405160e560020a62461bcd02815260206004820152600760248201527f436c61696d6564000000000000000000000000000000000000000000000000006044820152606401610dbe565b6000805b6000838152600e6020526040902054811015613aea576000838152600e60205260409020805485919083908110613a865760e060020a634e487b7102600052603260045260246000fd5b9060005260206000209060040201600001541415613ad857613aa783612eb8565b8181518110613ac95760e060020a634e487b7102600052603260045260246000fd5b60200260200101519150613aea565b80613ae281614d22565b915050613a3c565b508015611c22576008546040517fc8773af2000000000000000000000000000000000000000000000000000000008152600160a060020a038681166004830152602482018490529091169063c8773af290604401602060405180830381600087803b158015613b5857600080fd5b505af1158015613b6c573d6000803e3d6000fd5b505050506040513d601f19601f82011682018060405250810190613b9091906146c6565b506000838152602360205260409020805460ff19166001179055505050505050565b601e6020528160005260406000208181548110613bce57600080fd5b600091825260209091206003909102018054600182015460029092015490935090915083565b6000818152600a602052604090819020548151600780825261010082019093526060928160200160208202803683370190505091506000613c34826119b9565b905060005b600781101561130d57613c6d613c50826018614c73565b613c5b90603c614c73565b613c6690603c614c73565b8390613cad565b848281518110613c905760e060020a634e487b7102600052603260045260246000fd5b602090810291909101015280613ca581614d22565b915050613c39565b6000613cb98284614b56565b9392505050565b6000613ccb426119b9565b90506000613cda600b54613bf4565b600160a060020a03861660009081526013602090815260408083208884529091528120549192505b8251811015613f055783838281518110613d2f5760e060020a634e487b7102600052603260045260246000fd5b602002602001015110613ef3576000838281518110613d615760e060020a634e487b7102600052603260045260246000fd5b6020908102919091018101516000818152600f835260408082208783529093529190912054909150613d939087613cad565b6000828152600f60209081526040808320878452825280832093909355600160a060020a038c16825260108152828220848352815282822086835290522054613ddc9087613cad565b600160a060020a038a166000818152601060209081526040808320868452825280832088845282528083209490945591815260118252828120600b54825282528281208482529091522054613e319087613cad565b600160a060020a038a166000818152601160209081526040808320600b5484528252808320868452825280832094909455918152601282528281208682529091522054613e7e9087613cad565b600160a060020a038a166000908152601260209081526040808320878452825280832093909355601690522054613eb59087613cad565b600084815260166020908152604080832093909355600b548252601590522054613edf9087613cad565b600b54600090815260156020526040902055505b80613efd81614d22565b915050613d02565b5050505050505050565b6000613cb98284614c73565b6000613cb98284614b6e565b600080600760009054906101000a9004600160a060020a0316600160a060020a031663313ce5676040518163ffffffff1660e060020a02815260040160206040518083038186803b158015613f7b57600080fd5b505afa158015613f8f573d6000803e3d6000fd5b505050506040513d601f19601f82011682018060405250810190613fb3919061484b565b84600160a060020a031663313ce5676040518163ffffffff1660e060020a02815260040160206040518083038186803b158015613fef57600080fd5b505afa158015614003573d6000803e3d6000fd5b505050506040513d601f19601f82011682018060405250810190614027919061484b565b6140319190614c92565b905060008160000b1261407d5761407561404c82600a614bc7565b601a54600160a060020a03871660009081526019602052604090205461113f9190829088613f0f565b915050611012565b61407561408982614d51565b61409490600a614bc7565b601a54600160a060020a0387166000908152601960205260409020546140bf919061113f9088613f0f565b90613f0f565b6000613cb98284614d3d565b6000613cb98284614cd3565b60008054600160a060020a0383811673ffffffffffffffffffffffffffffffffffffffff19831681178455604051919092169283917f8be0079c531659141344cd1fd0a4f28419497f9722a3daafe3b4186f6b6457e09190a35050565b6000614145426119b9565b90506000614154600b54613bf4565b600160a060020a03861660009081526013602090815260408083208884529091528120549192505b8251811015613f0557838382815181106141a95760e060020a634e487b7102600052603260045260246000fd5b60200260200101511061436d5760008382815181106141db5760e060020a634e487b7102600052603260045260246000fd5b6020908102919091018101516000818152600f83526040808220878352909352919091205490915061420d90876140d1565b6000828152600f60209081526040808320878452825280832093909355600160a060020a038c1682526010815282822084835281528282208683529052205461425690876140d1565b600160a060020a038a166000818152601060209081526040808320868452825280832088845282528083209490945591815260118252828120600b548252825282812084825290915220546142ab90876140d1565b600160a060020a038a166000818152601160209081526040808320600b54845282528083208684528252808320949094559181526012825282812086825290915220546142f890876140d1565b600160a060020a038a16600090815260126020908152604080832087845282528083209390935560169052205461432f90876140d1565b600084815260166020908152604080832093909355600b54825260159052205461435990876140d1565b600b54600090815260156020526040902055505b8061437781614d22565b91505061417c565b82805461438b90614cea565b90600052602060002090601f0160209004810192826143ad57600085556143f3565b82601f106143c65782800160ff198235161785556143f3565b828001600101855582156143f3579182015b828111156143f35782358255916020019190600101906143d8565b506143ff929150614403565b5090565b5b808211156143ff5760008155600101614404565b60008083601f840112614429578182fd5b50813567ffffffffffffffff811115614440578182fd5b602083019150836020808302850101111561445a57600080fd5b9250929050565b600060208284031215614472578081fd5b8135613cb981614da1565b60006020828403121561448e578081fd5b8151613cb981614da1565b600080604083850312156144ab578081fd5b82356144b681614da1565b915060208301356144c681614da1565b809150509250929050565b600080600080608085870312156144e6578182fd5b84356144f181614da1565b9350602085013561450181614da1565b9250604085013561451181614da1565b9396929550929360600135925050565b600080600060608486031215614535578283fd5b833561454081614da1565b9250602084013561455081614da1565b929592945050506040919091013590565b60008060408385031215614573578182fd5b823561457e81614da1565b915060208301356144c681614db6565b600080604083850312156145a0578182fd5b82356145ab81614da1565b946020939093013593505050565b600080604083850312156145cb578182fd5b82516145d681614da1565b6020939093015192949293505050565b6000806000606084860312156145fa578283fd5b833561460581614da1565b925060208401359150604084013561461c81614da1565b809150509250925092565b6000806000806080858703121561463c578384fd5b843561464781614da1565b935060208501359250604085013561451181614da1565b600080600060608486031215614672578283fd5b833561467d81614da1565b95602085013595506040909401359392505050565b6000602082840312156146a3578081fd5b8151613cb981614db6565b6000602082840312156146bf578081fd5b5035919050565b6000602082840312156146d7578081fd5b5051919050565b600080604083850312156146f0578182fd5b8235915060208301356144c681614da1565b600080600060608486031215614716578081fd5b83359250602084013561472881614da1565b9150604084013561461c81614da1565b60008060008060006060868803121561474f578283fd5b85359450602086013567ffffffffffffffff8082111561476d578485fd5b61477989838a01614418565b90965094506040880135915080821115614791578283fd5b5061479e88828901614418565b969995985093965092949392505050565b600080604083850312156147c1578182fd5b50508035926020909101359150565b600080600080606085870312156147e5578182fd5b8435935060208501359250604085013567ffffffffffffffff8082111561480a578384fd5b818701915087601f83011261481d578384fd5b81358181111561482b578485fd5b88602082850101111561483c578485fd5b95989497505060200194505050565b60006020828403121561485c578081fd5b815160ff81168114613cb9578182fd5b6000815180845260208085019450808401835b8381101561489b5781518752958201959082019060010161487f565b509495945050505050565b602081526000613cb9602083018461486c565b6040815260006148cc604083018561486c565b82810360208401526148de818561486c565b95945050505050565b6040815260006148fa604083018561486c565b90508260208301529392505050565b6000602080835283518082850152825b8181101561493557858101830151858201604001528201614919565b818111156149465783604083870101525b50601f01601f1916929092016040019392505050565b60408152825460009081906002810460018083168061497c57607f831692505b602080841082141561499f5760e060020a634e487b710287526022600452602487fd5b60408801849052606088018280156149be57600181146149cf576149f9565b60ff198716825282820197506149f9565b60008c815260209020895b878110156149f3578154848201529086019084016149da565b83019850505b50509690960196909652509095945050505050565b60208082526013908201527f566f74696e67206973206e6f7420737461727400000000000000000000000000604082015260600190565b6020808252600e908201527f566f74696e67206973206f766572000000000000000000000000000000000000604082015260600190565b6020808252600b908201527f496e76616c6964204e4654000000000000000000000000000000000000000000604082015260600190565b6020808252600e908201527f416d6f756e74206973207a65726f000000000000000000000000000000000000604082015260600190565b6020808252818101527f4f776e61626c653a2063616c6c6572206973206e6f7420746865206f776e6572604082015260600190565b6020808252600c908201527f4e6f74206f70657261746f720000000000000000000000000000000000000000604082015260600190565b60008219821115614b6957614b69614d6f565b500190565b600082614b7d57614b7d614d88565b500490565b600181815b80851115614bbf578160001904821115614ba357614ba3614d6f565b80851615614bb057918102915b60029094049390800290614b87565b509250929050565b6000613cb960ff841683600082614be057506001611012565b81614bed57506000611012565b8160018114614c035760028114614c0d57614c2a565b6001915050611012565b60ff841115614c1e57614c1e614d6f565b8360020a915050611012565b5060208310610133831016604e8410600b8410161715614c4d575081810a611012565b614c578383614b82565b8060001904821115614c6b57614c6b614d6f565b029392505050565b6000816000190483118215151615614c8d57614c8d614d6f565b500290565b600081810b83820b8281128015607f19830184121615614cb457614cb4614d6f565b81607f018313811615614cc957614cc9614d6f565b5090039392505050565b600082821015614ce557614ce5614d6f565b500390565b600281046001821680614cfe57607f821691505b6020821081141561300c5760e060020a634e487b7102600052602260045260246000fd5b6000600019821415614d3657614d36614d6f565b5060010190565b600082614d4c57614d4c614d88565b500690565b600081810b607f19811415614d6857614d68614d6f565b9003919050565b60e060020a634e487b7102600052601160045260246000fd5b60e060020a634e487b7102600052601260045260246000fd5b600160a060020a038116811461394e57600080fd5b801515811461394e57600080fdfea2646970667358221220fefc7ffed0bd885a87721a937e4947354e50e95e2e52b9c8bc931eadd9ae3fb264736f6c63430008040033",
  "immutableReferences": {},
  "source": "// SPDX-License-Identifier: MIT\npragma solidity ^0.8.0;\n\nimport \"@openzeppelin/contracts/access/Ownable.sol\";\nimport \"@openzeppelin/contracts/utils/math/SafeMath.sol\";\nimport \"@openzeppelin/contracts/token/ERC20/IERC20.sol\";\nimport \"@openzeppelin/contracts/token/ERC721/IERC721.sol\";\nimport \"@openzeppelin/contracts/token/ERC20/extensions/IERC20Metadata.sol\";\n\n\ninterface ITreasury {\n\tfunction sendRewards(address to, uint256 amount) external returns(uint256 val);\n\tfunction uink() external view returns(address);\n}\n\ninterface IAuction {\n\tfunction matchResults(string calldata matchId, uint index) external view returns(address, uint);\n}\n\ninterface ITokenLocker {\n\tfunction subLockForVote(uint256 lockId, address accountAddress) external returns(uint);\n}\n\n\ncontract VoteMining is Ownable {\n\tusing SafeMath for uint256;\n\n\tuint public VOTE_DURATION = 7 days;\n\n\tuint public weeklyCap = 50000 * 1e12;\n\tuint public dailyVoteRewardCap = weeklyCap / 7 / 4; // 25% of daily cap \n\tuint public dailyMintRewardCap = weeklyCap / 7 / 4; // 25% of daily cap \n\tuint public bonusCap = weeklyCap  / 2; // 50% of weekly cap\n\t// group id => amount\n\tmapping (uint => uint) public stakingBases;\n\n\n\taddress public uink;\n\tITreasury public treasury;\n\taddress public auction;\n\n\tstruct NFT {\n\t\tuint uid;\n\t\taddress addr;\n\t\tuint id;\n\t\taddress owner;\n\t}\n\t// id => start time\n\tmapping (uint => uint) public groups;\n\tuint public currentGroupId = 0;\n\t// group id => matchId\n\tmapping (uint => string) public matches;\n\t// group id => finished or not\n\tmapping (uint => bool) public hasFinished;\n\t\n\t\n\t// group id => NFT[]\n\tmapping (uint => NFT[]) public groupNFTs;\n\n\t// date => NFT uid => votes\n\tmapping (uint => mapping (uint => uint)) public dayVotes;\n\n\t// user => date => NFT id => amount\n\tmapping (address => mapping (uint => mapping (uint => uint))) public userVotes;\n\n\t// user => groupId => date => votes\n\tmapping (address => mapping (uint => mapping (uint => uint))) public userDailyVotes;\n\n\t// user => nft uid => votes \n\tmapping (address => mapping (uint => uint)) public userNFTVotes;\n\t\n\n\t// nft address => nftId => internal id\n\tmapping (address => mapping (uint => uint)) public nfts;\n\tuint public nextNFTId = 0;\n\n\t// group id => votes\n\tmapping (uint => uint) public groupVotes;\n\n\t// uid => votes\n\tmapping (uint => uint) public nftVotes;\n\n\t// date => votes\n\t// mapping (uint => uint) public dailyTotalVotes;\n\t\n\n\t// uid => group id\n\tmapping (uint => uint) public nftGroup;\n\t\n\taddress[] public voteTokens;\n\t// token => ratio\n\tmapping (address => uint) public voteRatio;\n\n\tuint public voteRatioMax = 10000;\n\t\n\n\tstruct Balance {\n\t\tuint available;\n\t\tuint freezed;\n\t\tuint votedAt;\n\t}\n\n\tstruct UnbondingBalance {\n\t\tuint value;\n\t\tuint unbondedAt;\n\t\tuint redeemed;\n\t}\n\n\t// user => token => uid => Balance\n\tmapping (address => mapping (address => mapping (uint => Balance))) public balances;\n\n\t// user => uid => Balance\n\tmapping (address => mapping (uint => Balance)) public votedBalances; // bonded voted balance\n\t\n\t// user => bonded amount\n\tmapping (address => uint) public totalVotedBalances;\n\n\t// user => UnbondingBalance[]\n\tmapping (address => UnbondingBalance[]) public unbondingBalances;\n\t\n\t// user => total unbonded amount\n\tmapping (address => uint) public unbondedBalances;\n\t\n\n\t// uid => price\n\tmapping (uint => uint) public nftTradedPrices;\n\t// user => group => date => bool\n\tmapping (address => mapping (uint => mapping (uint => bool))) public voteRewardsClaimed;\n\t// user = > group id => bool\n\tmapping (address => mapping (uint => bool)) public bonusRewardsClaimed;\n\t// nft uid => bool\n\tmapping (uint => bool) public mintRewardsClaimed;\n\n\t// groupId => user => token => balance\n\tmapping (uint => mapping (address => mapping (address => uint))) public groupTokenBalances;\n\t\t\n\n\tmapping (address => bool) public operators;\n\n\taddress public pinAddress;\n\n\tuint public tokenLockId = 0;\n\n\taddress public tokenLocker;\n\n\tevent Redeem(address indexed user, address token, uint amount);\n\tevent Unbond(address indexed user, uint amount, uint at);\n\n\t\n\n\tmodifier checkNFT(address nftAddr, uint nftId) { \n\t\trequire(nfts[nftAddr][nftId] > 0, \"Invalid NFT\");\n\t\t_; \n\t}\n\n\tmodifier onlyPin() { \n\t\trequire(msg.sender == pinAddress, \"Forbidden\"); \n\t\t_; \n\t}\n\n\tmodifier onlyOperator() { \n\t\trequire (operators[msg.sender] || owner() == _msgSender(), \"Not operator\"); \n\t\t_; \n\t}\n\t\n\t\n\n\tmodifier checkVotingTime() { \n\t\trequire(groups[currentGroupId] <= block.timestamp, \"Voting is not start\");\n\t\trequire(groups[currentGroupId].add(VOTE_DURATION) >= block.timestamp, \"Voting is over\");\n\t\t_; \n\t}\n\n\tmodifier checkVoteToken(address _token) { \n\t\tbool isValid = false;\n\t\tfor(uint i = 0; i < voteTokens.length; i++) {\n\t\t\tif(voteTokens[i] == _token) {\n\t\t\t\tisValid = true;\n\t\t\t\tbreak;\n\t\t\t}\n\t\t}\n\t\trequire(isValid, \"Invalid Vote Token\");\n\t\t_; \n\t}\n\n\tconstructor(address _treasury, address _tokenLocker){\n\t\ttreasury = ITreasury(_treasury);\n\t\tuink = treasury.uink();\n\t\ttokenLocker = _tokenLocker;\n\n\t\tvoteTokens.push(uink);\n\t\tvoteRatio[uink] = voteRatioMax;\n\t}\n\n\tfunction addVoteToken(address _token, uint _ratio) external onlyOperator {\n\t\tvoteRatio[_token] = _ratio;\n\t\tfor(uint i = 0; i < voteTokens.length; i++) {\n\t\t\tif(voteTokens[i] == _token) {\n\t\t\t\treturn;\n\t\t\t}\n\t\t}\n\t\tvoteTokens.push(_token);\n\t}\n\n\tfunction setAuctionAddress(address _auction) external onlyOwner {\n\t\tauction = _auction;\n\t}\n\n\tfunction setPinAddress(address _pin) external onlyOwner {\n\t\tpinAddress = _pin;\n\t}\n\n\tfunction setTokenLockId(uint lockId) external onlyOwner {\n\t\ttokenLockId = lockId;\n\t}\n\n\tfunction setOperator(address operator, bool isOperator) external onlyOwner {\n\t\toperators[operator] = isOperator;\n\t}\n\n\tfunction setVoteDuration(uint _duration) external onlyOwner {\n\t\tVOTE_DURATION = _duration;\n\t}\n\n\tfunction addGroup(uint stakingBase, uint startTime, string calldata matchId) external onlyOperator {\n\t\tcurrentGroupId++;\n\t\tgroups[currentGroupId] = startTime;\n\t\tstakingBases[currentGroupId] = stakingBase;\n\t\tmatches[currentGroupId] = matchId;\n\t}\n\n\tfunction addNFT(uint groupId, address[] calldata nftAddrs, uint[] calldata nftIds) external onlyOperator {\n\t\trequire(nftAddrs.length == nftIds.length, \"Invalid params\");\n\t\tNFT[] storage inputNFTs = groupNFTs[groupId];\n\n\t\tfor(uint i = 0; i < nftAddrs.length; i++) {\n\t\t\tnextNFTId++;\n\t\t\tnfts[nftAddrs[i]][nftIds[i]] = nextNFTId;\n\t\t\taddress nftOwner = IERC721(nftAddrs[i]).ownerOf(nftIds[i]);\n\t\t\tinputNFTs.push(NFT({\n\t\t\t\tuid: nextNFTId,\n\t\t\t\taddr: nftAddrs[i],\n\t\t\t\tid: nftIds[i],\n\t\t\t\towner: nftOwner\n\t\t\t}));\n\t\t\tnftGroup[nextNFTId] = groupId;\n\t\t}\n\t}\n\n\tfunction groupNFTsLength(uint groupId) public view returns(uint256) {\n\t\treturn groupNFTs[groupId].length;\n\t}\n\n\tfunction getAuctionPrices(uint groupId) public view returns(uint[] memory prices, uint totalAmount) {\n\t\tprices = new uint[](groupNFTs[groupId].length);\n\t\tfor(uint i = 0; i < groupNFTs[groupId].length; i++) {\n\t\t\t(, uint price) = IAuction(auction).matchResults(matches[groupId], i);\n\t\t\tprices[i] = price;\n\t\t\ttotalAmount = totalAmount.add(price);\n\t\t}\n\t}\n\n\t\n\tfunction getDate(uint256 ts) public pure returns(uint256) {\n\t\treturn ts.sub(ts.mod(1 days));\n\t}\n\n\tfunction getVotableDates(uint groupId) public view returns(uint[] memory dates) {\n\t\tuint start = groups[groupId];\n\t\tdates = new uint[](7);\n\t\tuint firstDate = getDate(start);\n\t\tfor(uint i = 0; i < 7; i++) {\n\t\t\tdates[i] = firstDate.add(i * 24 * 60 * 60);\n\t\t}\n\t}\n\n\tfunction _vote(address user, address nftAddr, uint nftId, uint votes) internal {\n\t\tuint today = getDate(block.timestamp);\n\t\tuint[] memory dates = getVotableDates(currentGroupId);\n\t\tuint uid = nfts[nftAddr][nftId];\n\n\t\tfor(uint i = 0; i < dates.length; i++) {\n\t\t\tif(dates[i] >= today) {\n\t\t\t\tuint date = dates[i];\n\t\t\t\tdayVotes[date][uid] = dayVotes[date][uid].add(votes);\n\t\t\t\tuserVotes[user][date][uid] = userVotes[user][date][uid].add(votes);\n\t\t\t\tuserDailyVotes[user][currentGroupId][date] = userDailyVotes[user][currentGroupId][date].add(votes);\n\t\t\t\tuserNFTVotes[user][uid] = userNFTVotes[user][uid].add(votes);\n\t\t\t\t\n\t\t\t\tnftVotes[uid] = nftVotes[uid].add(votes);\n\t\t\t\tgroupVotes[currentGroupId] = groupVotes[currentGroupId].add(votes);\n\t\t\t}\n\t\t}\n\t}\n\n\tfunction _unvote(address user, address nftAddr, uint nftId, uint votes) internal {\n\t\tuint today = getDate(block.timestamp);\n\t\tuint[] memory dates = getVotableDates(currentGroupId);\n\t\tuint uid = nfts[nftAddr][nftId];\n\n\t\tfor(uint i = 0; i < dates.length; i++) {\n\t\t\tif(dates[i] >= today) {\n\t\t\t\tuint date = dates[i];\n\t\t\t\tdayVotes[date][uid] = dayVotes[date][uid].sub(votes);\n\t\t\t\tuserVotes[user][date][uid] = userVotes[user][date][uid].sub(votes);\n\t\t\t\tuserDailyVotes[user][currentGroupId][date] = userDailyVotes[user][currentGroupId][date].sub(votes);\n\t\t\t\tuserNFTVotes[user][uid] = userNFTVotes[user][uid].sub(votes);\n\t\t\t\t\n\t\t\t\tnftVotes[uid] = nftVotes[uid].sub(votes);\n\t\t\t\tgroupVotes[currentGroupId] = groupVotes[currentGroupId].sub(votes);\n\t\t\t}\n\t\t}\n\t\t\n\t}\n\n\tfunction calcVotes(address token, uint amount) internal view returns(uint256) {\n\t\tint8 delta = int8(IERC20Metadata(token).decimals()) - int8(IERC20Metadata(uink).decimals());\n\t\tif(delta >= 0) {\n\t\t\treturn voteRatio[token].mul(amount).div(voteRatioMax).div(10 ** uint8(delta));\n\t\t} else {\n\t\t\treturn voteRatio[token].mul(amount).div(voteRatioMax).mul(10 ** uint8(-delta));\n\t\t}\n\t}\n\n\tfunction getAvailableBalance(address user, address token, address nftAddr, uint nftId) public view returns(uint256) {\n\t\tuint uid = nfts[nftAddr][nftId];\n\t\tBalance memory balance = balances[user][token][uid];\n\t\tuint available = balance.available;\n\t\tif(getDate(balance.votedAt) < getDate(block.timestamp)) {\n\t\t\tavailable = available.add(balance.freezed);\n\t\t}\n\t\treturn available;\n\t}\n\n\t// stake and vote\n\tfunction stake(address nftAddr, uint nftId, address token, uint amount)\n\t\texternal \n\t\tcheckVoteToken(token)\n\t\tcheckVotingTime\n\t\tcheckNFT(nftAddr, nftId)\n\t{\n\t\trequire(amount > 0, \"Amount is zero\");\n\t\tuint votes = calcVotes(token, amount);\n\t\t_vote(msg.sender, nftAddr, nftId, votes);\n\n\t\tIERC20(token).transferFrom(msg.sender, address(this), amount);\n\t\tgroupTokenBalances[currentGroupId][msg.sender][token] = groupTokenBalances[currentGroupId][msg.sender][token].add(amount);\n\n\t\tuint uid = nfts[nftAddr][nftId];\n\n\n\t\tBalance storage balance = balances[msg.sender][token][uid];\n\t\tif(getDate(balance.votedAt) < getDate(block.timestamp)) {\n\t\t\tbalance.available = balance.available.add(balance.freezed);\n\t\t\tbalance.freezed = 0;\n\t\t}\n\t\tbalance.freezed = balance.freezed.add(amount);\n\t\tbalance.votedAt = block.timestamp;\n\t}\n\n\tfunction unstake(address nftAddr, uint nftId, address token, uint amount)\n\t\texternal \n\t\tcheckVoteToken(token)\n\t\tcheckNFT(nftAddr, nftId)\n\t{\n\t\trequire(amount > 0, \"Amount is zero\");\n\t\t\n\t\tuint available = getAvailableBalance(msg.sender, token, nftAddr, nftId);\n\t\trequire(available >= amount, \"Insufficient balance\");\n\n\t\tuint votes = calcVotes(token, amount);\n\t\t_unvote(msg.sender, nftAddr, nftId, votes);\n\n\t\tIERC20(token).transfer(msg.sender, amount);\n\n\t\tgroupTokenBalances[currentGroupId][msg.sender][token] = groupTokenBalances[currentGroupId][msg.sender][token].sub(amount);\n\n\t\tuint uid = nfts[nftAddr][nftId];\n\t\tBalance storage balance = balances[msg.sender][token][uid];\n\t\tif(getDate(balance.votedAt) < getDate(block.timestamp)) {\n\t\t\tbalance.available = balance.available.add(balance.freezed);\n\t\t\tbalance.freezed = 0;\n\t\t}\n\t\tbalance.available = balance.available.sub(amount);\n\t}\n\n\t// redeem token after vote finished\n\tfunction redeemToken(uint groupId, address token) external {\n\t\trequire(groups[groupId] + VOTE_DURATION < block.timestamp, \"Vote is not over\");\n\t\tuint amount = groupTokenBalances[groupId][msg.sender][token];\n\t\trequire(amount > 0, \"Amount is zero\");\n\t\tIERC20(token).transfer(msg.sender, amount);\n\t\temit Redeem(msg.sender, token, amount);\n\t}\n\n\tfunction getRedeemableBalance(address user, address token) public view returns(uint256) {\n\t\tuint total = 0;\n\t\tfor(uint groupId = 1; groupId <= currentGroupId; groupId++){\n\t\t\tif(groups[groupId] + VOTE_DURATION < block.timestamp) {\n\t\t\t\ttotal = total.add(groupTokenBalances[groupId][user][token]);\n\t\t\t}\n\t\t}\n\t\treturn total;\n\t}\n\n\tfunction redeemToken(address token) external {\n\t\tuint total = getRedeemableBalance(msg.sender, token);\n\t\trequire(total > 0, \"Withdrawable is zero\");\n\t\tIERC20(token).transfer(msg.sender, total);\n\t\temit Redeem(msg.sender, token, total);\n\t}\n\n\tfunction rescueToken(address token, uint amount) external onlyOwner {\n\t\tIERC20(token).transfer(msg.sender, amount);\n\t}\n\n\tfunction getTotalRewards(address user) public view returns(uint) {\n\t\tuint rewards = 0;\n\t\tfor(uint groupId = 1; groupId <= currentGroupId; groupId++) {\n\t\t\trewards = rewards.add(getBaseRewards(user, groupId)).add(getAuctionRewards(user, groupId));\n\t\t}\n\t\treturn rewards;\n\t}\n\n\tfunction getBaseRewards(address user, uint groupId) public view returns(uint) {\n\t\tuint[] memory dates = getVotableDates(groupId);\n\t\tuint[] memory rawardRates = getBaseRewardRates(groupId);\n\t\tuint rewards = 0;\n\t\tuint today = getDate(block.timestamp);\n\n\t\tfor(uint i = 0; i < dates.length; i++) {\n\t\t\tif(dates[i] >= today) {\n\t\t\t\tbreak;\n\t\t\t}\n\t\t\tuint dayRewards = userDailyVotes[user][groupId][dates[i]].mul(rawardRates[i]).div(1e18);\n\t\t\trewards = rewards.add(dayRewards);\n\t\t}\n\t\treturn rewards;\n\t}\n\n\tfunction getAuctionRewards(address user, uint groupId) public view returns(uint) {\n\t\tif(!hasFinished[groupId]) {\n\t\t\treturn 0;\n\t\t}\n\t\tuint rewards = 0;\n\t\tuint[] memory rewardRates = getAuctionRewardRates(groupId);\n\t\tfor(uint i = 0; i < groupNFTs[groupId].length; i++) {\n\t\t\tuint votes = userNFTVotes[user][groupNFTs[groupId][i].uid];\n\t\t\trewards = votes.mul(rewardRates[i]).div(1e18).add(rewards);\n\t\t}\n\t\treturn rewards;\n\t}\n\n\tfunction getBondedBalance(address user) public view returns(uint) {\n\t\tuint rewards = getTotalRewards(user);\n\t\tuint freezedBalance = totalVotedBalances[user].add(unbondedBalances[user]);\n\t\treturn rewards > freezedBalance ? rewards.sub(freezedBalance) : 0;\n\t}\n\n\tfunction getUnvotableBalance(address user, address nftAddr, uint nftId) public view returns(uint256) {\n\t\tuint uid = nfts[nftAddr][nftId];\n\t\tBalance memory balance = votedBalances[user][uid];\n\t\tuint available = balance.available;\n\t\tif(getDate(balance.votedAt) < getDate(block.timestamp)) {\n\t\t\tavailable = available.add(balance.freezed);\n\t\t}\n\t\treturn available;\n\t}\n\n\tfunction voteFromLock(address nftAddr, uint nftId) \n\t\texternal \n\t\tcheckVotingTime\n\t\tcheckNFT(nftAddr, nftId)\n\t{\n\n\t\tuint amount = ITokenLocker(tokenLocker).subLockForVote(tokenLockId, msg.sender);\n\t\t_vote(msg.sender, nftAddr, nftId, amount);\n\t\t\n\t\tuint uid = nfts[nftAddr][nftId];\n\t\tBalance storage votedBalance = votedBalances[msg.sender][uid];\n\n\t\tif(getDate(votedBalance.votedAt) < getDate(block.timestamp)) {\n\t\t\tvotedBalance.available = votedBalance.available.add(votedBalance.freezed);\n\t\t\tvotedBalance.freezed = 0;\n\t\t}\n\t\tvotedBalance.freezed = votedBalance.freezed.add(amount);\n\t\tvotedBalance.votedAt = block.timestamp;\n\n\t\ttotalVotedBalances[msg.sender] = totalVotedBalances[msg.sender].add(amount);\n\t}\n\n\t\n\tfunction voteBonded(address nftAddr, uint nftId, uint amount) \n\t\texternal \n\t\tcheckVotingTime\n\t\tcheckNFT(nftAddr, nftId)\n\t{\n\t\tuint bondedBalance = getBondedBalance(msg.sender);\n\t\trequire(bondedBalance > amount, \"Insufficient bonded balance\");\n\n\t\t_vote(msg.sender, nftAddr, nftId, amount);\n\n\t\tuint uid = nfts[nftAddr][nftId];\n\t\tBalance storage votedBalance = votedBalances[msg.sender][uid];\n\n\t\tif(getDate(votedBalance.votedAt) < getDate(block.timestamp)) {\n\t\t\tvotedBalance.available = votedBalance.available.add(votedBalance.freezed);\n\t\t\tvotedBalance.freezed = 0;\n\t\t}\n\t\tvotedBalance.freezed = votedBalance.freezed.add(amount);\n\t\tvotedBalance.votedAt = block.timestamp;\n\n\t\ttotalVotedBalances[msg.sender] = totalVotedBalances[msg.sender].add(amount);\n\t}\n\n\tfunction unvoteBonded(address nftAddr, uint nftId, uint amount)\n\t\texternal \n\t\tcheckVotingTime\n\t\tcheckNFT(nftAddr, nftId)\n\t{\n\t\tuint unvotable = getUnvotableBalance(msg.sender, nftAddr, nftId);\n\t\trequire(unvotable > amount, \"Insufficient unvotable balance\");\n\t\t_unvote(msg.sender, nftAddr, nftId, amount);\n\n\t\tuint uid = nfts[nftAddr][nftId];\n\t\tBalance storage votedBalance = votedBalances[msg.sender][uid];\n\n\t\tif(getDate(votedBalance.votedAt) < getDate(block.timestamp)) {\n\t\t\tvotedBalance.available = votedBalance.available.add(votedBalance.freezed);\n\t\t\tvotedBalance.freezed = 0;\n\t\t}\n\t\tvotedBalance.available = votedBalance.available.sub(amount);\n\n\t\ttotalVotedBalances[msg.sender] = totalVotedBalances[msg.sender].sub(amount);\n\t}\n\n\tfunction getUnbondingBalancesLength(address user) public view returns(uint) {\n\t\treturn unbondingBalances[user].length;\n\t}\n\n\tfunction unbond(uint amount) external {\n\t\tuint bondedBalance = getBondedBalance(msg.sender);\n\t\trequire(bondedBalance > amount, \"Insufficient bonded balance\");\n\n\t\tunbondingBalances[msg.sender].push(UnbondingBalance({\n\t\t\tvalue: amount,\n\t\t\tunbondedAt: block.timestamp,\n\t\t\tredeemed: 0\n\t\t}));\n\t\t\n\t\tunbondedBalances[msg.sender] = unbondedBalances[msg.sender].add(amount);\n\n\t\temit Unbond(msg.sender, amount, block.timestamp);\n\t}\n\n\tfunction redeemUnbonding(uint index) \n\t\texternal \n\t{ \n\t\tUnbondingBalance storage unbondingBalance = unbondingBalances[msg.sender][index];\n\t\tuint passDays = getDate(block.timestamp).sub(getDate(unbondingBalance.unbondedAt)).div(1 days);\n\t\tuint released = passDays.mul(unbondingBalance.value).div(60);\n\t\tuint available = released.sub(unbondingBalance.redeemed);\n\t\tunbondingBalance.redeemed = released;\n\n\t\ttreasury.sendRewards(msg.sender, available);\n\t}\n\n\n\t// function getUserVotesByNFT(address user, uint groupId, uint uid) public view returns(uint) {\n\t// \tuint[] memory dates = getVotableDates(groupId);\n\t// \tuint votes = 0;\n\t// \tfor(uint i = 0; i < dates.length; i++) {\n\t// \t\tvotes = userVotes[user][dates[i]][uid].add(votes);\n\t// \t}\n\t// \treturn votes;\n\t// }\n\n\tfunction claimMintRewards(address nftAddr, uint nftId, address to) external onlyPin {\n\t\tuint uid = nfts[nftAddr][nftId];\n\t\tuint groupId = nftGroup[nfts[nftAddr][nftId]];\n\t\trequire(!mintRewardsClaimed[uid], \"Claimed\");\n\n\t\tuint rewards = 0;\n\t\tfor(uint i = 0; i < groupNFTs[groupId].length; i++) {\n\t\t\tif(groupNFTs[groupId][i].uid == uid) {\n\t\t\t\trewards = getMintRewardsPerNFT(groupId)[i];\n\t\t\t\tbreak;\n\t\t\t}\n\t\t}\n\t\tif(rewards > 0) {\n\t\t\ttreasury.sendRewards(to, rewards);\n\t\t\tmintRewardsClaimed[uid] = true;\n\t\t}\n\t}\n\n\tfunction getTradeWeights(uint groupId) public view returns(uint[] memory weights) {\n\t\tNFT[] memory gNFTs = groupNFTs[groupId];\n\t\tweights = new uint[](gNFTs.length);\n\t\t\n\t\t(uint[] memory prices, uint total) = getAuctionPrices(groupId);\n\n\t\tif(total > 0) {\n\t\t\tfor(uint i = 0; i < gNFTs.length; i++){\n\t\t\t\tweights[i] = prices[i].mul(1e18).div(total);\n\t\t\t}\n\t\t}\n\t}\n\n\tfunction setAuctionFinish(uint groupId) external onlyOperator {\n\t\thasFinished[groupId] = true;\n\t}\n\n\tfunction getAuctionRewardRates(uint groupId) public view returns(uint[] memory auctionRewardRates) {\n\t\tuint[] memory weights = getTradeWeights(groupId);\n\t\tNFT[] memory gNFTs = groupNFTs[groupId];\n\t\tauctionRewardRates = new uint[](gNFTs.length);\n\t\t(, uint[] memory inflations) = getWeightsAndInflations(groupId);\n\t\tuint bonus = bonusCap.mul(inflations[inflations.length - 1]).div(1e18);\n\n\t\tfor(uint i = 0; i < gNFTs.length; i++) {\n\t\t\tif(nftVotes[gNFTs[i].uid] == 0) {\n\t\t\t\tauctionRewardRates[i] = 0;\n\t\t\t} else {\n\t\t\t\tauctionRewardRates[i] = bonus.mul(weights[i]).div(nftVotes[gNFTs[i].uid]);\n\t\t\t}\n\t\t}\n\t}\n\n\tfunction getDailyVotes(uint groupId, uint date) public view returns(uint256) {\n\t\tuint votes = 0;\n\t\tfor(uint i = 0; i < groupNFTs[groupId].length; i++) {\n\t\t\tuint uid = groupNFTs[groupId][i].uid;\n\t\t\tvotes = votes.add(dayVotes[date][uid]);\n\t\t}\n\t\treturn votes;\n\t}\n\n\tfunction getWeightsAndInflations(uint groupId)\n\t\tpublic\n\t\tview\n\t\treturns(\n\t\t\tuint[] memory weights,\n\t\t\tuint[] memory inflations\n\t\t) \n\t{\n\n\t\tuint[] memory dates = getVotableDates(groupId);\n\t\tweights = new uint[](dates.length);\n\t\tinflations = new uint[](dates.length);\n\n\t\tfor(uint i = 0; i < dates.length; i++) {\n\t\t\tuint dailyVotes = getDailyVotes(groupId, dates[i]);\n\t\t\tweights[i] = dailyVotes.mul(1e18).div(stakingBases[groupId]);\n\t\t\tif(weights[i] < 3 * 1e17) {\n\t\t\t\tinflations[i] = 2 * 1e17;\n\t\t\t} else if(weights[i] >= 3 * 1e17 &&  weights[i] < 7 * 1e17) {\n\t\t\t\tinflations[i] = weights[i];\n\t\t\t} else {\n\t\t\t\tinflations[i] = 1e18;\n\t\t\t}\n\t\t}\n\t}\n\n\tfunction getBaseRewardRates(uint groupId) \n\t\tpublic view \n\t\treturns(uint[] memory rewardRates) \n\t{\n\n\t\tuint[] memory dates = getVotableDates(groupId);\n\t\t(,uint[] memory inflations) = getWeightsAndInflations(groupId);\n\t\trewardRates = new uint[](dates.length);\n\n\t\tfor(uint i = 0; i < dates.length; i++) {\n\t\t\tif(dates[i] > getDate(block.timestamp)) {\n\t\t\t\tbreak;\n\t\t\t}\n\t\t\tuint dailyTotalVotes = getDailyVotes(groupId, dates[i]);\n\t\t\tif(dailyTotalVotes > 0) {\n\t\t\t\trewardRates[i] = inflations[i].mul(dailyVoteRewardCap).div(dailyTotalVotes);\n\t\t\t}\n\t\t}\n\t}\n\n\tfunction getMintRewardsPerNFT(uint groupId)\n\t\tpublic view \n\t\treturns(uint[] memory mintRewards) \n\t{\n\t\tmintRewards = new uint[](groupNFTs[groupId].length);\n\t\tfor(uint i = 0; i < groupNFTs[groupId].length; i++) {\n\t\t\tif(groupVotes[groupId] > 0) {\n\t\t\t\tmintRewards[i] = nftVotes[groupNFTs[groupId][i].uid].mul(dailyMintRewardCap).div(groupVotes[groupId]);\n\t\t\t}\n\t\t}\n\t}\n}",
  "sourcePath": "/Users/yxf/app/uniarts-eth-dao/contracts/VoteMining.sol",
  "compiler": {
    "name": "solc",
    "version": "0.8.4+commit.c7e474f2.Emscripten.clang"
  },
  "schemaVersion": "3.2.3",
  "updatedAt": "2021-09-26T07:02:06.833Z",
  "devdoc": {
    "kind": "dev",
    "methods": {
      "owner()": {
        "details": "Returns the address of the current owner."
      },
      "renounceOwnership()": {
        "details": "Leaves the contract without owner. It will not be possible to call `onlyOwner` functions anymore. Can only be called by the current owner. NOTE: Renouncing ownership will leave the contract without an owner, thereby removing any functionality that is only available to the owner."
      },
      "transferOwnership(address)": {
        "details": "Transfers ownership of the contract to a new account (`newOwner`). Can only be called by the current owner."
      }
    },
    "version": 1
  },
  "userdoc": {
    "kind": "user",
    "methods": {},
    "version": 1
  }
}