{
  "contractName": "VoteMiningV2",
  "abi": [
    {
      "inputs": [
        {
          "internalType": "address",
          "name": "_treasury",
          "type": "address"
        },
        {
          "internalType": "address",
          "name": "_tokenLocker",
          "type": "address"
        }
      ],
      "stateMutability": "nonpayable",
      "type": "constructor"
    },
    {
      "anonymous": false,
      "inputs": [
        {
          "indexed": true,
          "internalType": "address",
          "name": "previousOwner",
          "type": "address"
        },
        {
          "indexed": true,
          "internalType": "address",
          "name": "newOwner",
          "type": "address"
        }
      ],
      "name": "OwnershipTransferred",
      "type": "event"
    },
    {
      "anonymous": false,
      "inputs": [
        {
          "indexed": true,
          "internalType": "address",
          "name": "user",
          "type": "address"
        },
        {
          "indexed": false,
          "internalType": "address",
          "name": "token",
          "type": "address"
        },
        {
          "indexed": false,
          "internalType": "uint256",
          "name": "amount",
          "type": "uint256"
        }
      ],
      "name": "Redeem",
      "type": "event"
    },
    {
      "anonymous": false,
      "inputs": [
        {
          "indexed": true,
          "internalType": "address",
          "name": "user",
          "type": "address"
        },
        {
          "indexed": false,
          "internalType": "address",
          "name": "nftAddr",
          "type": "address"
        },
        {
          "indexed": false,
          "internalType": "uint256",
          "name": "nftId",
          "type": "uint256"
        },
        {
          "indexed": false,
          "internalType": "address",
          "name": "token",
          "type": "address"
        },
        {
          "indexed": false,
          "internalType": "uint256",
          "name": "amount",
          "type": "uint256"
        }
      ],
      "name": "Stake",
      "type": "event"
    },
    {
      "anonymous": false,
      "inputs": [
        {
          "indexed": true,
          "internalType": "address",
          "name": "user",
          "type": "address"
        },
        {
          "indexed": false,
          "internalType": "uint256",
          "name": "amount",
          "type": "uint256"
        },
        {
          "indexed": false,
          "internalType": "uint256",
          "name": "at",
          "type": "uint256"
        }
      ],
      "name": "Unbond",
      "type": "event"
    },
    {
      "anonymous": false,
      "inputs": [
        {
          "indexed": true,
          "internalType": "address",
          "name": "user",
          "type": "address"
        },
        {
          "indexed": false,
          "internalType": "address",
          "name": "nftAddr",
          "type": "address"
        },
        {
          "indexed": false,
          "internalType": "uint256",
          "name": "nftId",
          "type": "uint256"
        },
        {
          "indexed": false,
          "internalType": "address",
          "name": "token",
          "type": "address"
        },
        {
          "indexed": false,
          "internalType": "uint256",
          "name": "amount",
          "type": "uint256"
        }
      ],
      "name": "Unstake",
      "type": "event"
    },
    {
      "anonymous": false,
      "inputs": [
        {
          "indexed": true,
          "internalType": "address",
          "name": "user",
          "type": "address"
        },
        {
          "indexed": false,
          "internalType": "address",
          "name": "nftAddr",
          "type": "address"
        },
        {
          "indexed": false,
          "internalType": "uint256",
          "name": "nftId",
          "type": "uint256"
        },
        {
          "indexed": false,
          "internalType": "uint256",
          "name": "amount",
          "type": "uint256"
        }
      ],
      "name": "UnvoteBonded",
      "type": "event"
    },
    {
      "anonymous": false,
      "inputs": [
        {
          "indexed": true,
          "internalType": "address",
          "name": "user",
          "type": "address"
        },
        {
          "indexed": false,
          "internalType": "address",
          "name": "nftAddr",
          "type": "address"
        },
        {
          "indexed": false,
          "internalType": "uint256",
          "name": "nftId",
          "type": "uint256"
        },
        {
          "indexed": false,
          "internalType": "uint256",
          "name": "amount",
          "type": "uint256"
        }
      ],
      "name": "VoteBonded",
      "type": "event"
    },
    {
      "inputs": [],
      "name": "VOTE_DAYS",
      "outputs": [
        {
          "internalType": "uint256",
          "name": "",
          "type": "uint256"
        }
      ],
      "stateMutability": "view",
      "type": "function"
    },
    {
      "inputs": [],
      "name": "VOTE_DURATION",
      "outputs": [
        {
          "internalType": "uint256",
          "name": "",
          "type": "uint256"
        }
      ],
      "stateMutability": "view",
      "type": "function"
    },
    {
      "inputs": [],
      "name": "VOTE_TIME_UNIT",
      "outputs": [
        {
          "internalType": "uint256",
          "name": "",
          "type": "uint256"
        }
      ],
      "stateMutability": "view",
      "type": "function"
    },
    {
      "inputs": [],
      "name": "auction",
      "outputs": [
        {
          "internalType": "address",
          "name": "",
          "type": "address"
        }
      ],
      "stateMutability": "view",
      "type": "function"
    },
    {
      "inputs": [
        {
          "internalType": "address",
          "name": "",
          "type": "address"
        },
        {
          "internalType": "address",
          "name": "",
          "type": "address"
        },
        {
          "internalType": "uint256",
          "name": "",
          "type": "uint256"
        }
      ],
      "name": "balances",
      "outputs": [
        {
          "internalType": "uint256",
          "name": "available",
          "type": "uint256"
        },
        {
          "internalType": "uint256",
          "name": "freezed",
          "type": "uint256"
        },
        {
          "internalType": "uint256",
          "name": "votedAt",
          "type": "uint256"
        }
      ],
      "stateMutability": "view",
      "type": "function"
    },
    {
      "inputs": [
        {
          "internalType": "address",
          "name": "",
          "type": "address"
        }
      ],
      "name": "bondedBalances",
      "outputs": [
        {
          "internalType": "uint256",
          "name": "",
          "type": "uint256"
        }
      ],
      "stateMutability": "view",
      "type": "function"
    },
    {
      "inputs": [],
      "name": "bonusCap",
      "outputs": [
        {
          "internalType": "uint256",
          "name": "",
          "type": "uint256"
        }
      ],
      "stateMutability": "view",
      "type": "function"
    },
    {
      "inputs": [
        {
          "internalType": "address",
          "name": "",
          "type": "address"
        },
        {
          "internalType": "uint256",
          "name": "",
          "type": "uint256"
        }
      ],
      "name": "bonusRewardsClaimed",
      "outputs": [
        {
          "internalType": "bool",
          "name": "",
          "type": "bool"
        }
      ],
      "stateMutability": "view",
      "type": "function"
    },
    {
      "inputs": [],
      "name": "currentGroupId",
      "outputs": [
        {
          "internalType": "uint256",
          "name": "",
          "type": "uint256"
        }
      ],
      "stateMutability": "view",
      "type": "function"
    },
    {
      "inputs": [],
      "name": "dailyVoteRewardCap",
      "outputs": [
        {
          "internalType": "uint256",
          "name": "",
          "type": "uint256"
        }
      ],
      "stateMutability": "view",
      "type": "function"
    },
    {
      "inputs": [
        {
          "internalType": "uint256",
          "name": "",
          "type": "uint256"
        },
        {
          "internalType": "uint256",
          "name": "",
          "type": "uint256"
        }
      ],
      "name": "dayVotes",
      "outputs": [
        {
          "internalType": "uint256",
          "name": "",
          "type": "uint256"
        }
      ],
      "stateMutability": "view",
      "type": "function"
    },
    {
      "inputs": [
        {
          "internalType": "uint256",
          "name": "",
          "type": "uint256"
        },
        {
          "internalType": "uint256",
          "name": "",
          "type": "uint256"
        }
      ],
      "name": "groupNFTs",
      "outputs": [
        {
          "internalType": "uint256",
          "name": "uid",
          "type": "uint256"
        },
        {
          "internalType": "address",
          "name": "addr",
          "type": "address"
        },
        {
          "internalType": "uint256",
          "name": "id",
          "type": "uint256"
        },
        {
          "internalType": "address",
          "name": "owner",
          "type": "address"
        }
      ],
      "stateMutability": "view",
      "type": "function"
    },
    {
      "inputs": [
        {
          "internalType": "uint256",
          "name": "",
          "type": "uint256"
        },
        {
          "internalType": "address",
          "name": "",
          "type": "address"
        },
        {
          "internalType": "address",
          "name": "",
          "type": "address"
        }
      ],
      "name": "groupTokenBalances",
      "outputs": [
        {
          "internalType": "uint256",
          "name": "",
          "type": "uint256"
        }
      ],
      "stateMutability": "view",
      "type": "function"
    },
    {
      "inputs": [
        {
          "internalType": "uint256",
          "name": "",
          "type": "uint256"
        }
      ],
      "name": "groupVotes",
      "outputs": [
        {
          "internalType": "uint256",
          "name": "",
          "type": "uint256"
        }
      ],
      "stateMutability": "view",
      "type": "function"
    },
    {
      "inputs": [
        {
          "internalType": "uint256",
          "name": "",
          "type": "uint256"
        }
      ],
      "name": "groups",
      "outputs": [
        {
          "internalType": "uint256",
          "name": "",
          "type": "uint256"
        }
      ],
      "stateMutability": "view",
      "type": "function"
    },
    {
      "inputs": [
        {
          "internalType": "uint256",
          "name": "",
          "type": "uint256"
        }
      ],
      "name": "hasFinished",
      "outputs": [
        {
          "internalType": "bool",
          "name": "",
          "type": "bool"
        }
      ],
      "stateMutability": "view",
      "type": "function"
    },
    {
      "inputs": [
        {
          "internalType": "uint256",
          "name": "",
          "type": "uint256"
        }
      ],
      "name": "matches",
      "outputs": [
        {
          "internalType": "string",
          "name": "",
          "type": "string"
        }
      ],
      "stateMutability": "view",
      "type": "function"
    },
    {
      "inputs": [],
      "name": "mintRewardCap",
      "outputs": [
        {
          "internalType": "uint256",
          "name": "",
          "type": "uint256"
        }
      ],
      "stateMutability": "view",
      "type": "function"
    },
    {
      "inputs": [
        {
          "internalType": "uint256",
          "name": "",
          "type": "uint256"
        }
      ],
      "name": "mintRewardsClaimed",
      "outputs": [
        {
          "internalType": "bool",
          "name": "",
          "type": "bool"
        }
      ],
      "stateMutability": "view",
      "type": "function"
    },
    {
      "inputs": [],
      "name": "nextNFTId",
      "outputs": [
        {
          "internalType": "uint256",
          "name": "",
          "type": "uint256"
        }
      ],
      "stateMutability": "view",
      "type": "function"
    },
    {
      "inputs": [
        {
          "internalType": "uint256",
          "name": "",
          "type": "uint256"
        }
      ],
      "name": "nftGroup",
      "outputs": [
        {
          "internalType": "uint256",
          "name": "",
          "type": "uint256"
        }
      ],
      "stateMutability": "view",
      "type": "function"
    },
    {
      "inputs": [
        {
          "internalType": "uint256",
          "name": "",
          "type": "uint256"
        }
      ],
      "name": "nftTradedPrices",
      "outputs": [
        {
          "internalType": "uint256",
          "name": "",
          "type": "uint256"
        }
      ],
      "stateMutability": "view",
      "type": "function"
    },
    {
      "inputs": [
        {
          "internalType": "uint256",
          "name": "",
          "type": "uint256"
        }
      ],
      "name": "nftVotes",
      "outputs": [
        {
          "internalType": "uint256",
          "name": "",
          "type": "uint256"
        }
      ],
      "stateMutability": "view",
      "type": "function"
    },
    {
      "inputs": [
        {
          "internalType": "address",
          "name": "",
          "type": "address"
        },
        {
          "internalType": "uint256",
          "name": "",
          "type": "uint256"
        }
      ],
      "name": "nfts",
      "outputs": [
        {
          "internalType": "uint256",
          "name": "",
          "type": "uint256"
        }
      ],
      "stateMutability": "view",
      "type": "function"
    },
    {
      "inputs": [
        {
          "internalType": "address",
          "name": "",
          "type": "address"
        }
      ],
      "name": "operators",
      "outputs": [
        {
          "internalType": "bool",
          "name": "",
          "type": "bool"
        }
      ],
      "stateMutability": "view",
      "type": "function"
    },
    {
      "inputs": [],
      "name": "owner",
      "outputs": [
        {
          "internalType": "address",
          "name": "",
          "type": "address"
        }
      ],
      "stateMutability": "view",
      "type": "function"
    },
    {
      "inputs": [],
      "name": "pinAddress",
      "outputs": [
        {
          "internalType": "address",
          "name": "",
          "type": "address"
        }
      ],
      "stateMutability": "view",
      "type": "function"
    },
    {
      "inputs": [],
      "name": "renounceOwnership",
      "outputs": [],
      "stateMutability": "nonpayable",
      "type": "function"
    },
    {
      "inputs": [
        {
          "internalType": "uint256",
          "name": "",
          "type": "uint256"
        }
      ],
      "name": "stakingBases",
      "outputs": [
        {
          "internalType": "uint256",
          "name": "",
          "type": "uint256"
        }
      ],
      "stateMutability": "view",
      "type": "function"
    },
    {
      "inputs": [],
      "name": "tokenLockId",
      "outputs": [
        {
          "internalType": "uint256",
          "name": "",
          "type": "uint256"
        }
      ],
      "stateMutability": "view",
      "type": "function"
    },
    {
      "inputs": [],
      "name": "tokenLocker",
      "outputs": [
        {
          "internalType": "address",
          "name": "",
          "type": "address"
        }
      ],
      "stateMutability": "view",
      "type": "function"
    },
    {
      "inputs": [
        {
          "internalType": "address",
          "name": "",
          "type": "address"
        }
      ],
      "name": "totalVotedBalances",
      "outputs": [
        {
          "internalType": "uint256",
          "name": "",
          "type": "uint256"
        }
      ],
      "stateMutability": "view",
      "type": "function"
    },
    {
      "inputs": [
        {
          "internalType": "address",
          "name": "newOwner",
          "type": "address"
        }
      ],
      "name": "transferOwnership",
      "outputs": [],
      "stateMutability": "nonpayable",
      "type": "function"
    },
    {
      "inputs": [],
      "name": "treasury",
      "outputs": [
        {
          "internalType": "contract ITreasury",
          "name": "",
          "type": "address"
        }
      ],
      "stateMutability": "view",
      "type": "function"
    },
    {
      "inputs": [],
      "name": "uink",
      "outputs": [
        {
          "internalType": "address",
          "name": "",
          "type": "address"
        }
      ],
      "stateMutability": "view",
      "type": "function"
    },
    {
      "inputs": [
        {
          "internalType": "address",
          "name": "",
          "type": "address"
        }
      ],
      "name": "unbondedBalances",
      "outputs": [
        {
          "internalType": "uint256",
          "name": "",
          "type": "uint256"
        }
      ],
      "stateMutability": "view",
      "type": "function"
    },
    {
      "inputs": [
        {
          "internalType": "address",
          "name": "",
          "type": "address"
        },
        {
          "internalType": "uint256",
          "name": "",
          "type": "uint256"
        }
      ],
      "name": "unbondingBalances",
      "outputs": [
        {
          "internalType": "uint256",
          "name": "value",
          "type": "uint256"
        },
        {
          "internalType": "uint256",
          "name": "unbondedAt",
          "type": "uint256"
        },
        {
          "internalType": "uint256",
          "name": "redeemed",
          "type": "uint256"
        }
      ],
      "stateMutability": "view",
      "type": "function"
    },
    {
      "inputs": [
        {
          "internalType": "address",
          "name": "",
          "type": "address"
        },
        {
          "internalType": "uint256",
          "name": "",
          "type": "uint256"
        },
        {
          "internalType": "uint256",
          "name": "",
          "type": "uint256"
        }
      ],
      "name": "userDailyVotes",
      "outputs": [
        {
          "internalType": "uint256",
          "name": "",
          "type": "uint256"
        }
      ],
      "stateMutability": "view",
      "type": "function"
    },
    {
      "inputs": [
        {
          "internalType": "address",
          "name": "",
          "type": "address"
        },
        {
          "internalType": "uint256",
          "name": "",
          "type": "uint256"
        }
      ],
      "name": "userNFTVotes",
      "outputs": [
        {
          "internalType": "uint256",
          "name": "",
          "type": "uint256"
        }
      ],
      "stateMutability": "view",
      "type": "function"
    },
    {
      "inputs": [
        {
          "internalType": "address",
          "name": "",
          "type": "address"
        },
        {
          "internalType": "address",
          "name": "",
          "type": "address"
        }
      ],
      "name": "userTokenBalances",
      "outputs": [
        {
          "internalType": "uint256",
          "name": "",
          "type": "uint256"
        }
      ],
      "stateMutability": "view",
      "type": "function"
    },
    {
      "inputs": [
        {
          "internalType": "address",
          "name": "",
          "type": "address"
        },
        {
          "internalType": "uint256",
          "name": "",
          "type": "uint256"
        },
        {
          "internalType": "uint256",
          "name": "",
          "type": "uint256"
        }
      ],
      "name": "userVotes",
      "outputs": [
        {
          "internalType": "uint256",
          "name": "",
          "type": "uint256"
        }
      ],
      "stateMutability": "view",
      "type": "function"
    },
    {
      "inputs": [
        {
          "internalType": "address",
          "name": "",
          "type": "address"
        }
      ],
      "name": "voteRatio",
      "outputs": [
        {
          "internalType": "uint256",
          "name": "",
          "type": "uint256"
        }
      ],
      "stateMutability": "view",
      "type": "function"
    },
    {
      "inputs": [],
      "name": "voteRatioMax",
      "outputs": [
        {
          "internalType": "uint256",
          "name": "",
          "type": "uint256"
        }
      ],
      "stateMutability": "view",
      "type": "function"
    },
    {
      "inputs": [
        {
          "internalType": "address",
          "name": "",
          "type": "address"
        },
        {
          "internalType": "uint256",
          "name": "",
          "type": "uint256"
        },
        {
          "internalType": "uint256",
          "name": "",
          "type": "uint256"
        }
      ],
      "name": "voteRewardsClaimed",
      "outputs": [
        {
          "internalType": "bool",
          "name": "",
          "type": "bool"
        }
      ],
      "stateMutability": "view",
      "type": "function"
    },
    {
      "inputs": [
        {
          "internalType": "uint256",
          "name": "",
          "type": "uint256"
        }
      ],
      "name": "voteTokens",
      "outputs": [
        {
          "internalType": "address",
          "name": "",
          "type": "address"
        }
      ],
      "stateMutability": "view",
      "type": "function"
    },
    {
      "inputs": [
        {
          "internalType": "address",
          "name": "",
          "type": "address"
        },
        {
          "internalType": "uint256",
          "name": "",
          "type": "uint256"
        }
      ],
      "name": "votedBalances",
      "outputs": [
        {
          "internalType": "uint256",
          "name": "available",
          "type": "uint256"
        },
        {
          "internalType": "uint256",
          "name": "freezed",
          "type": "uint256"
        },
        {
          "internalType": "uint256",
          "name": "votedAt",
          "type": "uint256"
        }
      ],
      "stateMutability": "view",
      "type": "function"
    },
    {
      "inputs": [],
      "name": "weeklyCap",
      "outputs": [
        {
          "internalType": "uint256",
          "name": "",
          "type": "uint256"
        }
      ],
      "stateMutability": "view",
      "type": "function"
    },
    {
      "inputs": [
        {
          "internalType": "address",
          "name": "_token",
          "type": "address"
        },
        {
          "internalType": "uint256",
          "name": "_ratio",
          "type": "uint256"
        }
      ],
      "name": "addVoteToken",
      "outputs": [],
      "stateMutability": "nonpayable",
      "type": "function"
    },
    {
      "inputs": [
        {
          "internalType": "address",
          "name": "_auction",
          "type": "address"
        }
      ],
      "name": "setAuctionAddress",
      "outputs": [],
      "stateMutability": "nonpayable",
      "type": "function"
    },
    {
      "inputs": [
        {
          "internalType": "address",
          "name": "_pin",
          "type": "address"
        }
      ],
      "name": "setPinAddress",
      "outputs": [],
      "stateMutability": "nonpayable",
      "type": "function"
    },
    {
      "inputs": [
        {
          "internalType": "uint256",
          "name": "lockId",
          "type": "uint256"
        }
      ],
      "name": "setTokenLockId",
      "outputs": [],
      "stateMutability": "nonpayable",
      "type": "function"
    },
    {
      "inputs": [
        {
          "internalType": "address",
          "name": "operator",
          "type": "address"
        },
        {
          "internalType": "bool",
          "name": "isOperator",
          "type": "bool"
        }
      ],
      "name": "setOperator",
      "outputs": [],
      "stateMutability": "nonpayable",
      "type": "function"
    },
    {
      "inputs": [
        {
          "internalType": "uint256",
          "name": "_days",
          "type": "uint256"
        }
      ],
      "name": "setVoteDays",
      "outputs": [],
      "stateMutability": "nonpayable",
      "type": "function"
    },
    {
      "inputs": [
        {
          "internalType": "uint256",
          "name": "groupId",
          "type": "uint256"
        },
        {
          "internalType": "string",
          "name": "matchId",
          "type": "string"
        }
      ],
      "name": "setMatchId",
      "outputs": [],
      "stateMutability": "nonpayable",
      "type": "function"
    },
    {
      "inputs": [
        {
          "internalType": "uint256",
          "name": "stakingBase",
          "type": "uint256"
        },
        {
          "internalType": "uint256",
          "name": "startTime",
          "type": "uint256"
        },
        {
          "internalType": "string",
          "name": "matchId",
          "type": "string"
        }
      ],
      "name": "addGroup",
      "outputs": [],
      "stateMutability": "nonpayable",
      "type": "function"
    },
    {
      "inputs": [
        {
          "internalType": "uint256",
          "name": "groupId",
          "type": "uint256"
        },
        {
          "internalType": "address[]",
          "name": "nftAddrs",
          "type": "address[]"
        },
        {
          "internalType": "uint256[]",
          "name": "nftIds",
          "type": "uint256[]"
        }
      ],
      "name": "addNFT",
      "outputs": [],
      "stateMutability": "nonpayable",
      "type": "function"
    },
    {
      "inputs": [
        {
          "internalType": "uint256",
          "name": "groupId",
          "type": "uint256"
        }
      ],
      "name": "groupNFTsLength",
      "outputs": [
        {
          "internalType": "uint256",
          "name": "",
          "type": "uint256"
        }
      ],
      "stateMutability": "view",
      "type": "function"
    },
    {
      "inputs": [
        {
          "internalType": "uint256",
          "name": "groupId",
          "type": "uint256"
        }
      ],
      "name": "getAuctionPrices",
      "outputs": [
        {
          "internalType": "uint256[]",
          "name": "prices",
          "type": "uint256[]"
        },
        {
          "internalType": "uint256",
          "name": "totalAmount",
          "type": "uint256"
        }
      ],
      "stateMutability": "view",
      "type": "function"
    },
    {
      "inputs": [
        {
          "internalType": "uint256",
          "name": "ts",
          "type": "uint256"
        }
      ],
      "name": "getDate",
      "outputs": [
        {
          "internalType": "uint256",
          "name": "",
          "type": "uint256"
        }
      ],
      "stateMutability": "view",
      "type": "function"
    },
    {
      "inputs": [
        {
          "internalType": "uint256",
          "name": "groupId",
          "type": "uint256"
        }
      ],
      "name": "getVotableDates",
      "outputs": [
        {
          "internalType": "uint256[]",
          "name": "dates",
          "type": "uint256[]"
        }
      ],
      "stateMutability": "view",
      "type": "function"
    },
    {
      "inputs": [
        {
          "internalType": "address",
          "name": "user",
          "type": "address"
        },
        {
          "internalType": "address",
          "name": "nftAddr",
          "type": "address"
        },
        {
          "internalType": "uint256",
          "name": "nftId",
          "type": "uint256"
        }
      ],
      "name": "getUserNFTVotes",
      "outputs": [
        {
          "internalType": "uint256",
          "name": "",
          "type": "uint256"
        }
      ],
      "stateMutability": "view",
      "type": "function"
    },
    {
      "inputs": [
        {
          "internalType": "address",
          "name": "nftAddr",
          "type": "address"
        },
        {
          "internalType": "uint256",
          "name": "nftId",
          "type": "uint256"
        }
      ],
      "name": "getNFTVotes",
      "outputs": [
        {
          "internalType": "uint256",
          "name": "",
          "type": "uint256"
        }
      ],
      "stateMutability": "view",
      "type": "function"
    },
    {
      "inputs": [
        {
          "internalType": "address",
          "name": "user",
          "type": "address"
        },
        {
          "internalType": "address",
          "name": "token",
          "type": "address"
        },
        {
          "internalType": "address",
          "name": "nftAddr",
          "type": "address"
        },
        {
          "internalType": "uint256",
          "name": "nftId",
          "type": "uint256"
        }
      ],
      "name": "getAvailableBalance",
      "outputs": [
        {
          "internalType": "uint256",
          "name": "",
          "type": "uint256"
        }
      ],
      "stateMutability": "view",
      "type": "function"
    },
    {
      "inputs": [
        {
          "internalType": "address",
          "name": "nftAddr",
          "type": "address"
        },
        {
          "internalType": "uint256",
          "name": "nftId",
          "type": "uint256"
        },
        {
          "internalType": "address",
          "name": "token",
          "type": "address"
        },
        {
          "internalType": "uint256",
          "name": "amount",
          "type": "uint256"
        }
      ],
      "name": "stake",
      "outputs": [],
      "stateMutability": "nonpayable",
      "type": "function"
    },
    {
      "inputs": [
        {
          "internalType": "address",
          "name": "nftAddr",
          "type": "address"
        },
        {
          "internalType": "uint256",
          "name": "nftId",
          "type": "uint256"
        },
        {
          "internalType": "address",
          "name": "token",
          "type": "address"
        },
        {
          "internalType": "uint256",
          "name": "amount",
          "type": "uint256"
        }
      ],
      "name": "unstake",
      "outputs": [],
      "stateMutability": "nonpayable",
      "type": "function"
    },
    {
      "inputs": [
        {
          "internalType": "uint256",
          "name": "groupId",
          "type": "uint256"
        },
        {
          "internalType": "address",
          "name": "token",
          "type": "address"
        }
      ],
      "name": "redeemToken",
      "outputs": [],
      "stateMutability": "nonpayable",
      "type": "function"
    },
    {
      "inputs": [
        {
          "internalType": "address",
          "name": "user",
          "type": "address"
        },
        {
          "internalType": "address",
          "name": "token",
          "type": "address"
        }
      ],
      "name": "getRedeemableBalance",
      "outputs": [
        {
          "internalType": "uint256",
          "name": "",
          "type": "uint256"
        }
      ],
      "stateMutability": "view",
      "type": "function"
    },
    {
      "inputs": [
        {
          "internalType": "address",
          "name": "token",
          "type": "address"
        },
        {
          "internalType": "uint256",
          "name": "amount",
          "type": "uint256"
        }
      ],
      "name": "rescueToken",
      "outputs": [],
      "stateMutability": "nonpayable",
      "type": "function"
    },
    {
      "inputs": [
        {
          "internalType": "address",
          "name": "user",
          "type": "address"
        }
      ],
      "name": "getTotalRewards",
      "outputs": [
        {
          "internalType": "uint256",
          "name": "",
          "type": "uint256"
        }
      ],
      "stateMutability": "view",
      "type": "function"
    },
    {
      "inputs": [
        {
          "internalType": "address",
          "name": "user",
          "type": "address"
        },
        {
          "internalType": "uint256",
          "name": "groupId",
          "type": "uint256"
        }
      ],
      "name": "getBaseRewards",
      "outputs": [
        {
          "internalType": "uint256",
          "name": "",
          "type": "uint256"
        }
      ],
      "stateMutability": "view",
      "type": "function"
    },
    {
      "inputs": [
        {
          "internalType": "address",
          "name": "user",
          "type": "address"
        },
        {
          "internalType": "uint256",
          "name": "groupId",
          "type": "uint256"
        }
      ],
      "name": "getAuctionRewards",
      "outputs": [
        {
          "internalType": "uint256",
          "name": "",
          "type": "uint256"
        }
      ],
      "stateMutability": "view",
      "type": "function"
    },
    {
      "inputs": [
        {
          "internalType": "address",
          "name": "user",
          "type": "address"
        }
      ],
      "name": "getBondedBalance",
      "outputs": [
        {
          "internalType": "uint256",
          "name": "",
          "type": "uint256"
        }
      ],
      "stateMutability": "view",
      "type": "function"
    },
    {
      "inputs": [
        {
          "internalType": "address",
          "name": "user",
          "type": "address"
        },
        {
          "internalType": "address",
          "name": "nftAddr",
          "type": "address"
        },
        {
          "internalType": "uint256",
          "name": "nftId",
          "type": "uint256"
        }
      ],
      "name": "getUnvotableBalance",
      "outputs": [
        {
          "internalType": "uint256",
          "name": "",
          "type": "uint256"
        }
      ],
      "stateMutability": "view",
      "type": "function"
    },
    {
      "inputs": [
        {
          "internalType": "uint256",
          "name": "lockId",
          "type": "uint256"
        }
      ],
      "name": "collectFromLock",
      "outputs": [],
      "stateMutability": "nonpayable",
      "type": "function"
    },
    {
      "inputs": [
        {
          "internalType": "address",
          "name": "nftAddr",
          "type": "address"
        },
        {
          "internalType": "uint256",
          "name": "nftId",
          "type": "uint256"
        },
        {
          "internalType": "uint256",
          "name": "amount",
          "type": "uint256"
        }
      ],
      "name": "voteBonded",
      "outputs": [],
      "stateMutability": "nonpayable",
      "type": "function"
    },
    {
      "inputs": [
        {
          "internalType": "address",
          "name": "nftAddr",
          "type": "address"
        },
        {
          "internalType": "uint256",
          "name": "nftId",
          "type": "uint256"
        },
        {
          "internalType": "uint256",
          "name": "amount",
          "type": "uint256"
        }
      ],
      "name": "unvoteBonded",
      "outputs": [],
      "stateMutability": "nonpayable",
      "type": "function"
    },
    {
      "inputs": [
        {
          "internalType": "address",
          "name": "user",
          "type": "address"
        }
      ],
      "name": "getUnbondingBalancesLength",
      "outputs": [
        {
          "internalType": "uint256",
          "name": "",
          "type": "uint256"
        }
      ],
      "stateMutability": "view",
      "type": "function"
    },
    {
      "inputs": [
        {
          "internalType": "uint256",
          "name": "amount",
          "type": "uint256"
        }
      ],
      "name": "unbond",
      "outputs": [],
      "stateMutability": "nonpayable",
      "type": "function"
    },
    {
      "inputs": [
        {
          "internalType": "uint256",
          "name": "index",
          "type": "uint256"
        }
      ],
      "name": "redeemUnbonding",
      "outputs": [],
      "stateMutability": "nonpayable",
      "type": "function"
    },
    {
      "inputs": [
        {
          "internalType": "address",
          "name": "nftAddr",
          "type": "address"
        },
        {
          "internalType": "uint256",
          "name": "nftId",
          "type": "uint256"
        },
        {
          "internalType": "address",
          "name": "to",
          "type": "address"
        }
      ],
      "name": "claimMintRewards",
      "outputs": [],
      "stateMutability": "nonpayable",
      "type": "function"
    },
    {
      "inputs": [
        {
          "internalType": "uint256",
          "name": "groupId",
          "type": "uint256"
        }
      ],
      "name": "getTradeWeights",
      "outputs": [
        {
          "internalType": "uint256[]",
          "name": "weights",
          "type": "uint256[]"
        }
      ],
      "stateMutability": "view",
      "type": "function"
    },
    {
      "inputs": [
        {
          "internalType": "uint256",
          "name": "groupId",
          "type": "uint256"
        }
      ],
      "name": "setAuctionFinish",
      "outputs": [],
      "stateMutability": "nonpayable",
      "type": "function"
    },
    {
      "inputs": [
        {
          "internalType": "uint256",
          "name": "groupId",
          "type": "uint256"
        }
      ],
      "name": "getAuctionRewardRates",
      "outputs": [
        {
          "internalType": "uint256[]",
          "name": "auctionRewardRates",
          "type": "uint256[]"
        }
      ],
      "stateMutability": "view",
      "type": "function"
    },
    {
      "inputs": [
        {
          "internalType": "uint256",
          "name": "groupId",
          "type": "uint256"
        },
        {
          "internalType": "uint256",
          "name": "date",
          "type": "uint256"
        }
      ],
      "name": "getDailyVotes",
      "outputs": [
        {
          "internalType": "uint256",
          "name": "",
          "type": "uint256"
        }
      ],
      "stateMutability": "view",
      "type": "function"
    },
    {
      "inputs": [
        {
          "internalType": "uint256",
          "name": "groupId",
          "type": "uint256"
        }
      ],
      "name": "getWeightsAndInflations",
      "outputs": [
        {
          "internalType": "uint256[]",
          "name": "weights",
          "type": "uint256[]"
        },
        {
          "internalType": "uint256[]",
          "name": "inflations",
          "type": "uint256[]"
        }
      ],
      "stateMutability": "view",
      "type": "function"
    },
    {
      "inputs": [
        {
          "internalType": "uint256",
          "name": "groupId",
          "type": "uint256"
        }
      ],
      "name": "getBaseRewardRates",
      "outputs": [
        {
          "internalType": "uint256[]",
          "name": "rewardRates",
          "type": "uint256[]"
        }
      ],
      "stateMutability": "view",
      "type": "function"
    },
    {
      "inputs": [
        {
          "internalType": "uint256",
          "name": "groupId",
          "type": "uint256"
        }
      ],
      "name": "getMintRewardsPerNFT",
      "outputs": [
        {
          "internalType": "uint256[]",
          "name": "mintRewards",
          "type": "uint256[]"
        }
      ],
      "stateMutability": "view",
      "type": "function"
    },
    {
      "inputs": [
        {
          "internalType": "address",
          "name": "nftAddr",
          "type": "address"
        },
        {
          "internalType": "uint256",
          "name": "nftId",
          "type": "uint256"
        }
      ],
      "name": "getMintRewards",
      "outputs": [
        {
          "internalType": "uint256",
          "name": "",
          "type": "uint256"
        }
      ],
      "stateMutability": "view",
      "type": "function"
    }
  ],
  "bytecode": "0x608060405262015180600255600e60035560025460035462000022919062000406565b60045567058d15e1762800006005556003546004600554620000459190620003cc565b620000519190620003cc565b6006556004600554620000659190620003cc565b6007556002600554620000799190620003cc565b6008556001600e556000601755612710601d556000602c553480156200009e57600080fd5b5060405162005b5238038062005b52833981016040819052620000c19162000395565b620000e7620000d864010000000062000300810204565b64010000000062000304810204565b60018055600160a060020a03821662000161576040517f08c379a000000000000000000000000000000000000000000000000000000000815260206004820152601960248201527f5f7472656173757279206973207a65726f20616464726573730000000000000060448201526064015b60405180910390fd5b600160a060020a038116620001d3576040517f08c379a000000000000000000000000000000000000000000000000000000000815260206004820152601c60248201527f5f746f6b656e4c6f636b6572206973207a65726f206164647265737300000000604482015260640162000158565b600b8054600160a060020a031916600160a060020a038416908117909155604080517fa88d8fea000000000000000000000000000000000000000000000000000000008152905163a88d8fea91600480820192602092909190829003018186803b1580156200024157600080fd5b505afa15801562000256573d6000803e3d6000fd5b505050506040513d601f19601f820116820180604052508101906200027c919062000371565b600a8054600160a060020a03928316600160a060020a031991821681178355602d805495851695831695909517909455601b8054600181019091557f3ad8aa4f87544323a9d1e5dd902f40c356527a7955687113db5f9a85ad579dc1018054909116909317909255601d549154166000908152601c6020526040902055506200044b565b3390565b60008054600160a060020a03838116600160a060020a0319831681178455604051919092169283917f8be0079c531659141344cd1fd0a4f28419497f9722a3daafe3b4186f6b6457e09190a35050565b8051600160a060020a03811681146200036c57600080fd5b919050565b60006020828403121562000383578081fd5b6200038e8262000354565b9392505050565b60008060408385031215620003a8578081fd5b620003b38362000354565b9150620003c36020840162000354565b90509250929050565b60008262000401577f4e487b710000000000000000000000000000000000000000000000000000000081526012600452602481fd5b500490565b600081600019048311821515161562000446577f4e487b710000000000000000000000000000000000000000000000000000000081526011600452602481fd5b500290565b6156f7806200045b6000396000f3fe608060405234801561001057600080fd5b50600436106104dc5760003560e060020a90048063715018a611610287578063ad3bac1a11610160578063d0b5efa9116100d2578063f298e49311610096578063f298e49314610d34578063f2fde38b14610d47578063f44e3ce114610d5a578063f7a64da314610d6d578063f8df0cd314610d9e578063fa119fee14610db157600080fd5b8063d0b5efa914610ce9578063d0f86b2614610cfc578063da043af314610d0f578063e325fb4b14610d22578063eb7a700d14610d2b57600080fd5b8063c108a85d11610124578063c108a85d14610c71578063c3501ff614610c7a578063c4f6da1214610c8d578063c7780c7314610cad578063c7c8895614610cc0578063c909adc014610ce057600080fd5b8063ad3bac1a14610bee578063b0aad77714610c01578063b5345afa14610c0a578063bae5435314610c3e578063bba1189a14610c5e57600080fd5b80638f4d41e8116101f95780639d9d9a10116101bd5780639d9d9a1014610b5e578063a80bf3e614610b71578063a88d8fea14610b84578063ab803e9914610b97578063ac80b61214610baa578063acceea7514610bdb57600080fd5b80638f4d41e814610ab2578063916c42dc14610ad3578063938f173714610af357806393ac363814610b2b57806396324bd414610b3e57600080fd5b80637d9f6db51161024b5780637d9f6db514610a145780638049e17b14610a27578063814e7c0f14610a5857806383fd1a5414610a7b5780638503d2cd14610a8e5780638da5cb5b14610aa157600080fd5b8063715018a6146109c75780637523d4bd146109cf57806376821827146109ef57806376ec17b7146109f8578063776498d414610a0b57600080fd5b806343af356b116103b9578063558a72971161032b5780636482ff98116102ef5780636482ff98146108e557806364ebaaeb146108f8578063660dbeb81461092657806366edd87b146109395780636b942b861461094c5780636f700e25146109a757600080fd5b8063558a729714610853578063563c5e30146108665780635a8542be1461089157806361d027b3146108b257806363c0ea10146108c557600080fd5b80634dc1a3e01161037d5780634dc1a3e0146107a15780634e4b61c3146107cc5780634f8d32be146107ec578063502a1d3f146107f5578063515cc5321461081557806352a437fe1461082857600080fd5b806343af356b146106e457806345f2d1051461070f5780634654ff051461073a57806346aa25a2146107435780634768d4ef1461078157600080fd5b8063171b612c116104525780632b57298b116104165780632b57298b1461067c5780632bcf161c1461068f57806333f3d628146106a257806334e7a1a8146106b557806337867c94146106c85780633dbc65c7146106d157600080fd5b8063171b612c1461061a57806317a9c7bd146106235780631d1a7fe814610643578063259239a11461065657806327de9e321461066957600080fd5b80630b1fcfde116104a45780630b1fcfde146105555780630d265df9146105685780631152df0f1461058857806311ef14dd146105b1578063126f648c146105c457806313e7c9d8146105f757600080fd5b8063040308e4146104e15780630713ee7e14610507578063079dc7f41461051c578063083559d31461052f5780630971823f14610542575b600080fd5b6104f46104ef366004614d7d565b610dc4565b6040519081526020015b60405180910390f35b61051a610515366004614edd565b610e6c565b005b6104f461052a3660046150ae565b6110a7565b6104f461053d366004614dcd565b611149565b6104f4610550366004614e3a565b611263565b61051a610563366004615064565b6113be565b61057b610576366004614f63565b611424565b6040516104fe9190615197565b6104f4610596366004614d0d565b600160a060020a031660009081526023602052604090205490565b61051a6105bf366004614f63565b6115c6565b6105e76105d2366004614f63565b60106020526000908152604090205460ff1681565b60405190151581526020016104fe565b6105e7610605366004614d0d565b602a6020526000908152604090205460ff1681565b6104f460065481565b6104f4610631366004614f63565b60196020526000908152604090205481565b6104f4610651366004614e3a565b6115f8565b61051a610664366004614ea6565b611692565b61051a610677366004614f63565b611a75565b6104f461068a366004614f63565b611b9a565b6104f461069d366004614d0d565b611bbb565b61051a6106b0366004614e3a565b611c0c565b61051a6106c3366004614f63565b611c51565b6104f4600e5481565b6104f46106df366004614d45565b611e08565b6104f46106f2366004614e3a565b601660209081526000928352604080842090915290825290205481565b6104f461071d366004614d45565b601f60209081526000928352604080842090915290825290205481565b6104f460045481565b6107566107513660046150ae565b611e89565b60408051948552600160a060020a0393841660208601528401919091521660608201526080016104fe565b61079461078f366004614f63565b611edb565b6040516104fe91906151fa565b602b546107b490600160a060020a031681565b604051600160a060020a0390911681526020016104fe565b6104f46107da366004614f63565b60256020526000908152604090205481565b6104f460055481565b6104f4610803366004614d0d565b601c6020526000908152604090205481565b61057b610823366004614f63565b611f75565b6104f46108363660046150ae565b601260209081526000928352604080842090915290825290205481565b61051a610861366004614e0d565b6120e2565b6104f4610874366004614e3a565b601560209081526000928352604080842090915290825290205481565b6108a461089f366004614f63565b61213a565b6040516104fe9291906151d8565b600b546107b490600160a060020a031681565b6104f46108d3366004614f63565b60186020526000908152604090205481565b6107b46108f3366004614f63565b6122bb565b6105e7610906366004614e3a565b602760209081526000928352604080842090915290825290205460ff1681565b6104f4610934366004614dcd565b6122e5565b6104f4610947366004614e3a565b612380565b61098c61095a366004614dcd565b601e60209081526000938452604080852082529284528284209052825290208054600182015460029092015490919083565b604080519384526020840192909252908201526060016104fe565b6104f46109b5366004614d0d565b60216020526000908152604090205481565b61051a612448565b6104f46109dd366004614d0d565b60246020526000908152604090205481565b6104f4602c5481565b61051a610a06366004614ea6565b612481565b6104f4601d5481565b600c546107b490600160a060020a031681565b6104f4610a35366004614edd565b601360209081526000938452604080852082529284528284209052825290205481565b6105e7610a66366004614f63565b60286020526000908152604090205460ff1681565b61051a610a89366004614edd565b612872565b61051a610a9c366004614fed565b612a6a565b600054600160a060020a03166107b4565b610ac5610ac0366004614f63565b612f26565b6040516104fe9291906151aa565b6104f4610ae1366004614d0d565b60226020526000908152604090205481565b61098c610b01366004614e3a565b60208080526000928352604080842090915290825290208054600182015460029092015490919083565b61051a610b39366004614d0d565b613200565b6104f4610b4c366004614f63565b600d6020526000908152604090205481565b61057b610b6c366004614f63565b61325c565b602d546107b490600160a060020a031681565b600a546107b490600160a060020a031681565b61051a610ba5366004614f63565b6133b6565b6104f4610bb8366004614fb7565b602960209081526000938452604080852082529284528284209052825290205481565b6104f4610be9366004614d0d565b6134d4565b61051a610bfc366004614d0d565b613550565b6104f460035481565b6105e7610c18366004614edd565b602660209081526000938452604080852082529284528284209052825290205460ff1681565b6104f4610c4c366004614f63565b60009081526011602052604090205490565b61051a610c6c3660046150cf565b6135ac565b6104f460075481565b61051a610c88366004614f93565b613723565b6104f4610c9b366004614f63565b60096020526000908152604090205481565b61057b610cbb366004614f63565b61385f565b6104f4610cce366004614f63565b601a6020526000908152604090205481565b6104f460175481565b61051a610cf7366004614f63565b613b28565b6104f4610d0a366004614e3a565b613b8a565b61051a610d1d366004614e3a565b613caa565b6104f460085481565b6104f460025481565b61051a610d42366004614f63565b613dd6565b61051a610d55366004614d0d565b613e08565b61051a610d68366004614e65565b613ec0565b6104f4610d7b366004614edd565b601460209081526000938452604080852082529284528284209052825290205481565b61098c610dac366004614e3a565b614121565b61057b610dbf366004614f63565b614163565b600160a060020a0380831660009081526016602090815260408083208584528252808320548885168452601e835281842094881684529382528083208484528252808320815160608101835281548082526001830154948201949094526002909101549181019190915291929190610e3b42611b9a565b610e488360400151611b9a565b1015610e61576020820151610e5e908290614240565b90505b979650505050505050565b600e546000908152600d6020526040902054421015610ea95760405160e560020a62461bcd028152600401610ea0906152df565b60405180910390fd5b600454600e546000908152600d60205260409020544291610eca9190614240565b1015610eeb5760405160e560020a62461bcd028152600401610ea090615316565b600160a060020a038316600090815260166020908152604080832085845290915290205483908390610f325760405160e560020a62461bcd028152600401610ea09061534d565b6000610f3d336134d4565b905083811015610f925760405160e560020a62461bcd02815260206004820152601b60248201527f496e73756666696369656e7420626f6e6465642062616c616e636500000000006044820152606401610ea0565b610f9e3387878761424c565b600160a060020a0386166000908152601660209081526040808320888452825280832054338452828052818420818552909252909120610fdd42611b9a565b610fea8260020154611b9a565b101561100a576001810154815461100091614240565b8155600060018201555b60018101546110199087614240565b60018201554260028201553360009081526021602052604090205461103e9087614240565b33600090815260216020908152604080832093909355601f8152828220600a54600160a060020a03168352905220546110779087614240565b336000908152601f60209081526040808320600a54600160a060020a031684529091529020555050505050505050565b600080805b60008581526011602052604090205481101561113f5760008581526011602052604081208054839081106110f35760e060020a634e487b7102600052603260045260246000fd5b60009182526020808320600490920290910154878352601282526040808420828552909252912054909150611129908490614240565b92505080806111379061561f565b9150506110ac565b5090505b92915050565b60008061115542611b9a565b90506000611164600e54614163565b600160a060020a0386166000908152601660209081526040808320888452909152812054919250805b835181101561125557848482815181106111ba5760e060020a634e487b7102600052603260045260246000fd5b60200260200101511161124357600160a060020a0389166000908152601360205260408120855161124092908790859081106112095760e060020a634e487b7102600052603260045260246000fd5b602002602001015181526020019081526020016000206000858152602001908152602001600020548361424090919063ffffffff16565b91505b8061124d8161561f565b91505061118d565b5093505050505b9392505050565b60008061126f83614163565b9050600061127c84611f75565b905060008061128a42611b9a565b905060005b84518110156113b257818582815181106112bc5760e060020a634e487b7102600052603260045260246000fd5b6020026020010151106112ce576113b2565b6000611390670de0b6b3a764000061138a8785815181106113025760e060020a634e487b7102600052603260045260246000fd5b6020026020010151601460008e600160a060020a0316600160a060020a0316815260200190815260200160002060008d815260200190815260200160002060008b88815181106113655760e060020a634e487b7102600052603260045260246000fd5b602002602001015181526020019081526020016000205461449b90919063ffffffff16565b906144a7565b905061139c8482614240565b93505080806113aa9061561f565b91505061128f565b50909695505050505050565b336000908152602a602052604090205460ff16806113e65750600054600160a060020a031633145b6114055760405160e560020a62461bcd028152600401610ea0906153f0565b6000838152600f6020526040902061141e908383614beb565b50505050565b6000818152601160209081526040808320805482518185028101850190935280835260609493849084015b828210156114b3576000848152602090819020604080516080810182526004860290920180548352600180820154600160a060020a03908116858701526002830154938501939093526003909101549091166060830152908352909201910161144f565b505050509050805167ffffffffffffffff8111156114e45760e060020a634e487b7102600052604160045260246000fd5b60405190808252806020026020018201604052801561150d578160200160208202803683370190505b50915060008061151c8561213a565b909250905080156115be5760005b83518110156115bc5761157c8261138a670de0b6b3a76400008685815181106115665760e060020a634e487b7102600052603260045260246000fd5b602002602001015161449b90919063ffffffff16565b85828151811061159f5760e060020a634e487b7102600052603260045260246000fd5b6020908102919091010152806115b48161561f565b91505061152a565b505b505050919050565b600054600160a060020a031633146115f35760405160e560020a62461bcd028152600401610ea0906153bb565b600355565b600160a060020a03821660009081526016602090815260408083208484528252808320548352601a82528083205480845260189092528220541561168857600081815260186020908152604080832054600754600160a060020a03891685526016845282852088865284528285205485526019909352922054611680929161138a919061449b565b915050611143565b6000915050611143565b816000805b601b548110156117055782600160a060020a0316601b82815481106116cf5760e060020a634e487b7102600052603260045260246000fd5b600091825260209091200154600160a060020a031614156116f35760019150611705565b806116fd8161561f565b915050611697565b50806117565760405160e560020a62461bcd02815260206004820152601260248201527f496e76616c696420566f746520546f6b656e00000000000000000000000000006044820152606401610ea0565b600e546000908152600d602052604090205442101561178a5760405160e560020a62461bcd028152600401610ea0906152df565b600454600e546000908152600d602052604090205442916117ab9190614240565b10156117cc5760405160e560020a62461bcd028152600401610ea090615316565b600160a060020a0386166000908152601660209081526040808320888452909152902054869086906118135760405160e560020a62461bcd028152600401610ea09061534d565b600260015414156118695760405160e560020a62461bcd02815260206004820152601f60248201527f5265656e7472616e637947756172643a207265656e7472616e742063616c6c006044820152606401610ea0565b60026001558461188e5760405160e560020a62461bcd028152600401610ea090615384565b600061189a87876144b3565b90506118a8338a8a8461424c565b6118bd600160a060020a038816333089614649565b600e5460009081526029602090815260408083203384528252808320600160a060020a038b1684529091529020546118f59087614240565b600e54600090815260296020908152604080832033808552908352818420600160a060020a038d811680875291855283862096909655948e168452601683528184208d8552835281842054908452601e8352818420948452938252808320848452909152902061196442611b9a565b6119718260020154611b9a565b1015611991576001810154815461198791614240565b8155600060018201555b60018101546119a09089614240565b6001820155426002820155336000908152601f60209081526040808320600160a060020a038d1684529091529020546119d99089614240565b336000818152601f60209081526040808320600160a060020a038f168452909152908190209290925590517f748baf3e2788ea9fad00c96b6ec2197d50ee60005641dbdb1b3deee18fe1fdc890611a5c908e908e908e908e90600160a060020a039485168152602081019390935292166040820152606081019190915260800190565b60405180910390a2505060018055505050505050505050565b6000611a80336134d4565b905081811015611ad55760405160e560020a62461bcd02815260206004820152601b60248201527f496e73756666696369656e7420626f6e6465642062616c616e636500000000006044820152606401610ea0565b336000818152602360209081526040808320815160608101835287815242818501908152818401868152835460018181018655948852868820935160039091029093019283559051928201929092559051600290910155928252602490522054611b3f9083614240565b33600081815260246020526040908190209290925590517f7659747cd8571f1071eea946fdc648adcf181cad916f32a05f82c3a52597604890611b8e9085904290918252602082015260400190565b60405180910390a25050565b6000611143611bb4600254846146fa90919063ffffffff16565b8390614706565b60008060015b600e548111611c0557611bf1611bd78583613b8a565b611beb611be48785611263565b8590614240565b90614240565b915080611bfd8161561f565b915050611bc1565b5092915050565b600054600160a060020a03163314611c395760405160e560020a62461bcd028152600401610ea0906153bb565b611c4d600160a060020a0383163383614712565b5050565b336000908152602360205260408120805483908110611c835760e060020a634e487b7102600052603260045260246000fd5b906000526020600020906003020190506000611cba60025461138a611cab8560010154611b9a565b611cb442611b9a565b90614706565b9050603c811115611cc95750603c5b6000611ce7603c61138a85600001548561449b90919063ffffffff16565b90506000611d0284600201548361470690919063ffffffff16565b60028501839055600b546040517fc8773af200000000000000000000000000000000000000000000000000000000815233600482015260248101839052919250600091600160a060020a039091169063c8773af290604401602060405180830381600087803b158015611d7457600080fd5b505af1158015611d88573d6000803e3d6000fd5b505050506040513d601f19601f82011682018060405250810190611dac9190614f7b565b9050818114611e005760405160e560020a62461bcd02815260206004820152601d60248201527f496e73756666696369656e742074726561737572792062616c616e63650000006044820152606401610ea0565b505050505050565b60008060015b600e54811161113f576004546000828152600d60205260409020544291611e3491615427565b1015611e77576000818152602960209081526040808320600160a060020a03808a1685529083528184209088168452909152902054611e74908390614240565b91505b80611e818161561f565b915050611e0e565b60116020528160005260406000208181548110611ea557600080fd5b60009182526020909120600490910201805460018201546002830154600390930154919450600160a060020a0390811693501684565b600f6020526000908152604090208054611ef4906155e7565b80601f0160208091040260200160405190810160405280929190818152602001828054611f20906155e7565b8015611f6d5780601f10611f4257610100808354040283529160200191611f6d565b820191906000526020600020905b815481529060010190602001808311611f5057829003601f168201915b505050505081565b60606000611f8283614163565b90506000611f8f84612f26565b915050815167ffffffffffffffff811115611fbd5760e060020a634e487b7102600052604160045260246000fd5b604051908082528060200260200182016040528015611fe6578160200160208202803683370190505b50925060005b82518110156115be57611ffe42611b9a565b8382815181106120215760e060020a634e487b7102600052603260045260246000fd5b60200260200101511115612034576115be565b600061206a8685848151811061205d5760e060020a634e487b7102600052603260045260246000fd5b60200260200101516110a7565b905080156120cf5761209f8161138a6006548686815181106115665760e060020a634e487b7102600052603260045260246000fd5b8583815181106120c25760e060020a634e487b7102600052603260045260246000fd5b6020026020010181815250505b50806120da8161561f565b915050611fec565b600054600160a060020a0316331461210f5760405160e560020a62461bcd028152600401610ea0906153bb565b600160a060020a03919091166000908152602a60205260409020805460ff1916911515919091179055565b6000818152601160205260408120546060919067ffffffffffffffff8111156121765760e060020a634e487b7102600052604160045260246000fd5b60405190808252806020026020018201604052801561219f578160200160208202803683370190505b50915060005b6000848152601160205260409020548110156122b557600c546000858152600f602052604080822090517fe3c6623d0000000000000000000000000000000000000000000000000000000081529192600160a060020a03169163e3c6623d9161221291869060040161522d565b60606040518083038186803b15801561222a57600080fd5b505afa15801561223e573d6000803e3d6000fd5b505050506040513d601f19601f820116820180604052508101906122629190614f11565b925050508084838151811061228a5760e060020a634e487b7102600052603260045260246000fd5b602090810291909101015261229f8382614240565b92505080806122ad9061561f565b9150506121a5565b50915091565b601b81815481106122cb57600080fd5b600091825260209091200154600160a060020a0316905081565b600160a060020a0380831660009081526016602090815260408083208584528252808320549387168352818052808320848452825280832081516060810183528154808252600183015494820194909452600290910154918101919091529192919061235042611b9a565b61235d8360400151611b9a565b1015612376576020820151612373908290614240565b90505b9695505050505050565b60008061238c42611b9a565b9050600061239b600e54614163565b600160a060020a0386166000908152601660209081526040808320888452909152812054919250805b835181101561243d57848482815181106123f15760e060020a634e487b7102600052603260045260246000fd5b60200260200101511161242b57612428601260008684815181106112095760e060020a634e487b7102600052603260045260246000fd5b91505b806124358161561f565b9150506123c4565b509695505050505050565b600054600160a060020a031633146124755760405160e560020a62461bcd028152600401610ea0906153bb565b61247f6000614760565b565b816000805b601b548110156124f45782600160a060020a0316601b82815481106124be5760e060020a634e487b7102600052603260045260246000fd5b600091825260209091200154600160a060020a031614156124e257600191506124f4565b806124ec8161561f565b915050612486565b50806125455760405160e560020a62461bcd02815260206004820152601260248201527f496e76616c696420566f746520546f6b656e00000000000000000000000000006044820152606401610ea0565b600160a060020a03861660009081526016602090815260408083208884529091529020548690869061258c5760405160e560020a62461bcd028152600401610ea09061534d565b600260015414156125e25760405160e560020a62461bcd02815260206004820152601f60248201527f5265656e7472616e637947756172643a207265656e7472616e742063616c6c006044820152606401610ea0565b6002600155846126075760405160e560020a62461bcd028152600401610ea090615384565b600061261533888b8b610dc4565b90508581101561266a5760405160e560020a62461bcd02815260206004820152601460248201527f496e73756666696369656e742062616c616e63650000000000000000000000006044820152606401610ea0565b600061267688886144b3565b9050612684338b8b846147bd565b612698600160a060020a0389163389614712565b600e5460009081526029602090815260408083203384528252808320600160a060020a038c1684529091529020546126d09088614706565b600e54600090815260296020908152604080832033808552908352818420600160a060020a038e811680875291855283862096909655948f168452601683528184208e8552835281842054908452601e8352818420948452938252808320848452909152902061273f42611b9a565b61274c8260020154611b9a565b101561276c576001810154815461276291614240565b8155600060018201555b8054612778908a614706565b8155336000908152601f60209081526040808320600160a060020a038e1684529091529020546127a8908a614706565b601f600033600160a060020a0316600160a060020a0316815260200190815260200160002060008c600160a060020a0316600160a060020a031681526020019081526020016000208190555033600160a060020a03167fe24ddb44aca2f33eb5d17a7224163887485cfa231971182fdf00308a2b65ca8a8d8d8d8d6040516128589493929190600160a060020a039485168152602081019390935292166040820152606081019190915260800190565b60405180910390a250506001805550505050505050505050565b600e546000908152600d60205260409020544210156128a65760405160e560020a62461bcd028152600401610ea0906152df565b600454600e546000908152600d602052604090205442916128c79190614240565b10156128e85760405160e560020a62461bcd028152600401610ea090615316565b600160a060020a03831660009081526016602090815260408083208584529091529020548390839061292f5760405160e560020a62461bcd028152600401610ea09061534d565b600061293c3387876122e5565b9050838110156129915760405160e560020a62461bcd02815260206004820152601e60248201527f496e73756666696369656e7420756e766f7461626c652062616c616e636500006044820152606401610ea0565b61299d338787876147bd565b600160a060020a03861660009081526016602090815260408083208884528252808320543384528280528184208185529092529091206129dc42611b9a565b6129e98260020154611b9a565b1015612a0957600181015481546129ff91614240565b8155600060018201555b8054612a159087614706565b815533600090815260216020526040902054612a319087614706565b33600090815260216020908152604080832093909355601f8152828220600a54600160a060020a03168352905220546110779087614706565b336000908152602a602052604090205460ff1680612a925750600054600160a060020a031633145b612ab15760405160e560020a62461bcd028152600401610ea0906153f0565b828114612b035760405160e560020a62461bcd02815260206004820152600e60248201527f496e76616c696420706172616d730000000000000000000000000000000000006044820152606401610ea0565b6000858152600d60205260409020544210612b635760405160e560020a62461bcd02815260206004820152601260248201527f566f74696e6720686173207374617274656400000000000000000000000000006044820152606401610ea0565b6000858152601160205260408120905b84811015612f1d5760166000878784818110612ba25760e060020a634e487b7102600052603260045260246000fd5b9050602002016020810190612bb79190614d0d565b600160a060020a0316600160a060020a031681526020019081526020016000206000858584818110612bfc5760e060020a634e487b7102600052603260045260246000fd5b90506020020135815260200190815260200160002054600014612c645760405160e560020a62461bcd02815260206004820152601260248201527f4e465420686173206265656e20616464656400000000000000000000000000006044820152606401610ea0565b60178054906000612c748361561f565b919050555060175460166000888885818110612ca35760e060020a634e487b7102600052603260045260246000fd5b9050602002016020810190612cb89190614d0d565b600160a060020a0316600160a060020a031681526020019081526020016000206000868685818110612cfd5760e060020a634e487b7102600052603260045260246000fd5b905060200201358152602001908152602001600020819055506000868683818110612d3b5760e060020a634e487b7102600052603260045260246000fd5b9050602002016020810190612d509190614d0d565b600160a060020a0316636352211e868685818110612d815760e060020a634e487b7102600052603260045260246000fd5b905060200201356040518263ffffffff1660e060020a028152600401612da991815260200190565b60206040518083038186803b158015612dc157600080fd5b505afa158015612dd5573d6000803e3d6000fd5b505050506040513d601f19601f82011682018060405250810190612df99190614d29565b90508260405180608001604052806017548152602001898986818110612e325760e060020a634e487b7102600052603260045260246000fd5b9050602002016020810190612e479190614d0d565b600160a060020a03168152602001878786818110612e785760e060020a634e487b7102600052603260045260246000fd5b60209081029290920135835250600160a060020a03948516918101919091528254600181810185556000948552828520845160049093020191825583830151908201805491871673ffffffffffffffffffffffffffffffffffffffff19928316179055604080850151600284015560609094015160039092018054929096169116179093556017548252601a9092522087905580612f158161561f565b915050612b73565b50505050505050565b6060806000612f3484614163565b9050805167ffffffffffffffff811115612f615760e060020a634e487b7102600052604160045260246000fd5b604051908082528060200260200182016040528015612f8a578160200160208202803683370190505b509250805167ffffffffffffffff811115612fb85760e060020a634e487b7102600052604160045260246000fd5b604051908082528060200260200182016040528015612fe1578160200160208202803683370190505b50915060005b81518110156131f95760006130198684848151811061205d5760e060020a634e487b7102600052603260045260246000fd5b6000878152600960205260409020549091506130419061138a83670de0b6b3a764000061449b565b8583815181106130645760e060020a634e487b7102600052603260045260246000fd5b602002602001018181525050670429d069189e000085838151811061309c5760e060020a634e487b7102600052603260045260246000fd5b602002602001015110156130e7576702c68af0bb1400008483815181106130d65760e060020a634e487b7102600052603260045260246000fd5b6020026020010181815250506131e6565b670429d069189e00008583815181106131135760e060020a634e487b7102600052603260045260246000fd5b60200260200101511015801561315a57506709b6e64a8ec600008583815181106131505760e060020a634e487b7102600052603260045260246000fd5b6020026020010151105b156131ad578482815181106131825760e060020a634e487b7102600052603260045260246000fd5b60200260200101518483815181106130d65760e060020a634e487b7102600052603260045260246000fd5b670de0b6b3a76400008483815181106131d95760e060020a634e487b7102600052603260045260246000fd5b6020026020010181815250505b50806131f18161561f565b915050612fe7565b5050915091565b600054600160a060020a0316331461322d5760405160e560020a62461bcd028152600401610ea0906153bb565b600c805473ffffffffffffffffffffffffffffffffffffffff1916600160a060020a0392909216919091179055565b60008181526011602052604090205460609067ffffffffffffffff8111156132975760e060020a634e487b7102600052604160045260246000fd5b6040519080825280602002602001820160405280156132c0578160200160208202803683370190505b50905060005b6000838152601160205260409020548110156133b0576000838152601860205260409020541561339e576000838152601860209081526040808320546007546011909352908320805461336e94929361138a9390926019928890811061333f5760e060020a634e487b7102600052603260045260246000fd5b90600052602060002090600402016000015481526020019081526020016000205461449b90919063ffffffff16565b8282815181106133915760e060020a634e487b7102600052603260045260246000fd5b6020026020010181815250505b806133a88161561f565b9150506132c6565b50919050565b602d546040517fc7b1e3f200000000000000000000000000000000000000000000000000000000815260048101839052336024820152600091600160a060020a03169063c7b1e3f290604401602060405180830381600087803b15801561341c57600080fd5b505af1158015613430573d6000803e3d6000fd5b505050506040513d601f19601f820116820180604052508101906134549190614f7b565b336000908152602260205260409020549091506134719082614240565b33600090815260226020908152604080832093909355601f8152828220600a54600160a060020a03168352905220546134aa9082614240565b336000908152601f60209081526040808320600a54600160a060020a031684529091529020555050565b600160a060020a03811660009081526022602052604081205481906134fc90611beb85611bbb565b600160a060020a0384166000908152602460209081526040808320546021909252822054929350909161352e91614240565b905080821161353e576000613548565b6135488282614706565b949350505050565b600054600160a060020a0316331461357d5760405160e560020a62461bcd028152600401610ea0906153bb565b602b805473ffffffffffffffffffffffffffffffffffffffff1916600160a060020a0392909216919091179055565b336000908152602a602052604090205460ff16806135d45750600054600160a060020a031633145b6135f35760405160e560020a62461bcd028152600401610ea0906153f0565b600e54600114806136235750600454600e546000908152600d602052604090205442916136209190614240565b11155b6136725760405160e560020a62461bcd02815260206004820152601b60248201527f50726576696f75732067726f7570206973206e6f74206f7665722e00000000006044820152606401610ea0565b61367b42611b9a565b8310156136cd5760405160e560020a62461bcd02815260206004820152601260248201527f496e76616c69642073746172742074696d6500000000000000000000000000006044820152606401610ea0565b600e80549060006136dd8361561f565b9091555050600e80546000908152600d60209081526040808320879055835483526009825280832088905592548252600f90522061371c908383614beb565b5050505050565b6004546000838152600d6020526040902054429161374091615427565b106137905760405160e560020a62461bcd02815260206004820152601060248201527f566f7465206973206e6f74206f766572000000000000000000000000000000006044820152606401610ea0565b60008281526029602090815260408083203384528252808320600160a060020a0385168452909152902054806137db5760405160e560020a62461bcd028152600401610ea090615384565b600083815260296020908152604080832033808552908352818420600160a060020a0387168086529352908320929092556138169183614712565b60408051600160a060020a03841681526020810183905233917fd12200efa34901b99367694174c3b0d32c99585fdf37c7c26892136ddd0836d9910160405180910390a2505050565b6060600061386c83611424565b9050600060116000858152602001908152602001600020805480602002602001604051908101604052809291908181526020016000905b82821015613907576000848152602090819020604080516080810182526004860290920180548352600180820154600160a060020a0390811685870152600283015493850193909352600390910154909116606083015290835290920191016138a3565b505050509050805167ffffffffffffffff8111156139385760e060020a634e487b7102600052604160045260246000fd5b604051908082528060200260200182016040528015613961578160200160208202803683370190505b509250600061396f85612f26565b91505060006139cc670de0b6b3a764000061138a846001865161399291906155a4565b815181106139b35760e060020a634e487b7102600052603260045260246000fd5b602002602001015160085461449b90919063ffffffff16565b905060005b8351811015613b1e5760196000858381518110613a015760e060020a634e487b7102600052603260045260246000fd5b60200260200101516000015181526020019081526020016000205460001415613a5a576000868281518110613a495760e060020a634e487b7102600052603260045260246000fd5b602002602001018181525050613b0c565b613adc60196000868481518110613a845760e060020a634e487b7102600052603260045260246000fd5b60200260200101516000015181526020019081526020016000205461138a878481518110613ac55760e060020a634e487b7102600052603260045260246000fd5b60200260200101518561449b90919063ffffffff16565b868281518110613aff5760e060020a634e487b7102600052603260045260246000fd5b6020026020010181815250505b80613b168161561f565b9150506139d1565b5050505050919050565b336000908152602a602052604090205460ff1680613b505750600054600160a060020a031633145b613b6f5760405160e560020a62461bcd028152600401610ea0906153f0565b6000908152601060205260409020805460ff19166001179055565b60008181526010602052604081205460ff16613ba857506000611143565b600080613bb48461385f565b905060005b600085815260116020526040902054811015613ca057600160a060020a038616600090815260156020908152604080832088845260119092528220805483919085908110613c1a5760e060020a634e487b7102600052603260045260246000fd5b9060005260206000209060040201600001548152602001908152602001600020549050613c8a84611beb670de0b6b3a764000061138a878781518110613c735760e060020a634e487b7102600052603260045260246000fd5b60200260200101518661449b90919063ffffffff16565b9350508080613c989061561f565b915050613bb9565b5090949350505050565b336000908152602a602052604090205460ff1680613cd25750600054600160a060020a031633145b613cf15760405160e560020a62461bcd028152600401610ea0906153f0565b600160a060020a0382166000908152601c602052604081208290555b601b54811015613d775782600160a060020a0316601b8281548110613d455760e060020a634e487b7102600052603260045260246000fd5b600091825260209091200154600160a060020a03161415613d6557505050565b80613d6f8161561f565b915050613d0d565b50601b80546001810182556000919091527f3ad8aa4f87544323a9d1e5dd902f40c356527a7955687113db5f9a85ad579dc1018054600160a060020a03841673ffffffffffffffffffffffffffffffffffffffff199091161790555050565b600054600160a060020a03163314613e035760405160e560020a62461bcd028152600401610ea0906153bb565b602c55565b600054600160a060020a03163314613e355760405160e560020a62461bcd028152600401610ea0906153bb565b600160a060020a038116613eb45760405160e560020a62461bcd02815260206004820152602660248201527f4f776e61626c653a206e6577206f776e657220697320746865207a65726f206160448201527f64647265737300000000000000000000000000000000000000000000000000006064820152608401610ea0565b613ebd81614760565b50565b602b54600160a060020a03163314613f1d5760405160e560020a62461bcd02815260206004820152600960248201527f466f7262696464656e00000000000000000000000000000000000000000000006044820152606401610ea0565b600160a060020a0383166000908152601660209081526040808320858452825280832054808452601a835281842054602890935292205460ff1615613fa75760405160e560020a62461bcd02815260206004820152600760248201527f436c61696d6564000000000000000000000000000000000000000000000000006044820152606401610ea0565b6000805b600083815260116020526040902054811015614059576000838152601160205260409020805485919083908110613ff55760e060020a634e487b7102600052603260045260246000fd5b9060005260206000209060040201600001541415614047576140168361325c565b81815181106140385760e060020a634e487b7102600052603260045260246000fd5b60200260200101519150614059565b806140518161561f565b915050613fab565b508015611e0057600b546040517fc8773af2000000000000000000000000000000000000000000000000000000008152600160a060020a038681166004830152602482018490529091169063c8773af290604401602060405180830381600087803b1580156140c757600080fd5b505af11580156140db573d6000803e3d6000fd5b505050506040513d601f19601f820116820180604052508101906140ff9190614f7b565b506000838152602860205260409020805460ff19166001179055505050505050565b6023602052816000526040600020818154811061413d57600080fd5b600091825260209091206003909102018054600182015460029092015490935090915083565b6000818152600d60205260409020546003546060919067ffffffffffffffff8111156141a25760e060020a634e487b7102600052604160045260246000fd5b6040519080825280602002602001820160405280156141cb578160200160208202803683370190505b50915060006141d982611b9a565b905060005b6003548110156115be57614200600254826141f99190615544565b8390614240565b8482815181106142235760e060020a634e487b7102600052603260045260246000fd5b6020908102919091010152806142388161561f565b9150506141de565b600061125c8284615427565b600061425742611b9a565b90506000614266600e54614163565b600160a060020a03861660009081526016602090815260408083208884529091528120549192505b825181101561449157838382815181106142bb5760e060020a634e487b7102600052603260045260246000fd5b60200260200101511061447f5760008382815181106142ed5760e060020a634e487b7102600052603260045260246000fd5b6020908102919091018101516000818152601283526040808220878352909352919091205490915061431f9087614240565b6000828152601260209081526040808320878452825280832093909355600160a060020a038c168252601381528282208483528152828220868352905220546143689087614240565b600160a060020a038a166000818152601360209081526040808320868452825280832088845282528083209490945591815260148252828120600e548252825282812084825290915220546143bd9087614240565b600160a060020a038a166000818152601460209081526040808320600e548452825280832086845282528083209490945591815260158252828120868252909152205461440a9087614240565b600160a060020a038a1660009081526015602090815260408083208784528252808320939093556019905220546144419087614240565b600084815260196020908152604080832093909355600e54825260189052205461446b9087614240565b600e54600090815260186020526040902055505b806144898161561f565b91505061428e565b5050505050505050565b600061125c8284615544565b600061125c828461543f565b600080600a60009054906101000a9004600160a060020a0316600160a060020a031663313ce5676040518163ffffffff1660e060020a02815260040160206040518083038186803b15801561450757600080fd5b505afa15801561451b573d6000803e3d6000fd5b505050506040513d601f19601f8201168201806040525081019061453f9190615120565b84600160a060020a031663313ce5676040518163ffffffff1660e060020a02815260040160206040518083038186803b15801561457b57600080fd5b505afa15801561458f573d6000803e3d6000fd5b505050506040513d601f19601f820116820180604052508101906145b39190615120565b6145bd9190615563565b905060008160000b12614601576116806145d882600a615498565b601d54600160a060020a0387166000908152601c602052604090205461138a919082908861449b565b61168061460d8261564e565b61461890600a615498565b601d54600160a060020a0387166000908152601c6020526040902054614643919061138a908861449b565b9061449b565b604051600160a060020a038085166024830152831660448201526064810182905261141e9085907f23b872dd00000000000000000000000000000000000000000000000000000000906084015b60408051601f198184030181529190526020810180517bffffffffffffffffffffffffffffffffffffffffffffffffffffffff167fffffffff0000000000000000000000000000000000000000000000000000000090931692909217909152614a02565b600061125c828461563a565b600061125c82846155a4565b604051600160a060020a03831660248201526044810182905261475b9084907fa9059cbb0000000000000000000000000000000000000000000000000000000090606401614696565b505050565b60008054600160a060020a0383811673ffffffffffffffffffffffffffffffffffffffff19831681178455604051919092169283917f8be0079c531659141344cd1fd0a4f28419497f9722a3daafe3b4186f6b6457e09190a35050565b60006147c842611b9a565b905060006147d7600e54614163565b600160a060020a03861660009081526016602090815260408083208884529091528120549192505b8251811015614491578383828151811061482c5760e060020a634e487b7102600052603260045260246000fd5b6020026020010151106149f057600083828151811061485e5760e060020a634e487b7102600052603260045260246000fd5b602090810291909101810151600081815260128352604080822087835290935291909120549091506148909087614706565b6000828152601260209081526040808320878452825280832093909355600160a060020a038c168252601381528282208483528152828220868352905220546148d99087614706565b600160a060020a038a166000818152601360209081526040808320868452825280832088845282528083209490945591815260148252828120600e5482528252828120848252909152205461492e9087614706565b600160a060020a038a166000818152601460209081526040808320600e548452825280832086845282528083209490945591815260158252828120868252909152205461497b9087614706565b600160a060020a038a1660009081526015602090815260408083208784528252808320939093556019905220546149b29087614706565b600084815260196020908152604080832093909355600e5482526018905220546149dc9087614706565b600e54600090815260186020526040902055505b806149fa8161561f565b9150506147ff565b6000614a57826040518060400160405280602081526020017f5361666545524332303a206c6f772d6c6576656c2063616c6c206661696c656481525085600160a060020a0316614aea9092919063ffffffff16565b80519091501561475b5780806020019051810190614a759190614f47565b61475b5760405160e560020a62461bcd02815260206004820152602a60248201527f5361666545524332303a204552433230206f7065726174696f6e20646964206e60448201527f6f742073756363656564000000000000000000000000000000000000000000006064820152608401610ea0565b6060613548848460008585843b614b465760405160e560020a62461bcd02815260206004820152601d60248201527f416464726573733a2063616c6c20746f206e6f6e2d636f6e74726163740000006044820152606401610ea0565b60008086600160a060020a03168587604051614b62919061517b565b60006040518083038185875af1925050503d8060008114614b9f576040519150601f19603f3d011682016040523d82523d6000602084013e614ba4565b606091505b5091509150610e6182828660608315614bbe57508161125c565b825115614bce5782518084602001fd5b8160405160e560020a62461bcd028152600401610ea091906151fa565b828054614bf7906155e7565b90600052602060002090601f016020900481019282614c195760008555614c5f565b82601f10614c325782800160ff19823516178555614c5f565b82800160010185558215614c5f579182015b82811115614c5f578235825591602001919060010190614c44565b50614c6b929150614c6f565b5090565b5b80821115614c6b5760008155600101614c70565b60008083601f840112614c95578182fd5b50813567ffffffffffffffff811115614cac578182fd5b6020830191508360208083028501011115614cc657600080fd5b9250929050565b60008083601f840112614cde578182fd5b50813567ffffffffffffffff811115614cf5578182fd5b602083019150836020828501011115614cc657600080fd5b600060208284031215614d1e578081fd5b813561125c8161569e565b600060208284031215614d3a578081fd5b815161125c8161569e565b60008060408385031215614d57578081fd5b8235614d628161569e565b91506020830135614d728161569e565b809150509250929050565b60008060008060808587031215614d92578182fd5b8435614d9d8161569e565b93506020850135614dad8161569e565b92506040850135614dbd8161569e565b9396929550929360600135925050565b600080600060608486031215614de1578283fd5b8335614dec8161569e565b92506020840135614dfc8161569e565b929592945050506040919091013590565b60008060408385031215614e1f578182fd5b8235614e2a8161569e565b91506020830135614d72816156b3565b60008060408385031215614e4c578182fd5b8235614e578161569e565b946020939093013593505050565b600080600060608486031215614e79578283fd5b8335614e848161569e565b9250602084013591506040840135614e9b8161569e565b809150509250925092565b60008060008060808587031215614ebb578384fd5b8435614ec68161569e565b9350602085013592506040850135614dbd8161569e565b600080600060608486031215614ef1578283fd5b8335614efc8161569e565b95602085013595506040909401359392505050565b600080600060608486031215614f25578283fd5b8351614f308161569e565b602085015160409095015190969495509392505050565b600060208284031215614f58578081fd5b815161125c816156b3565b600060208284031215614f74578081fd5b5035919050565b600060208284031215614f8c578081fd5b5051919050565b60008060408385031215614fa5578182fd5b823591506020830135614d728161569e565b600080600060608486031215614fcb578081fd5b833592506020840135614fdd8161569e565b91506040840135614e9b8161569e565b600080600080600060608688031215615004578283fd5b85359450602086013567ffffffffffffffff80821115615022578485fd5b61502e89838a01614c84565b90965094506040880135915080821115615046578283fd5b5061505388828901614c84565b969995985093965092949392505050565b600080600060408486031215615078578081fd5b83359250602084013567ffffffffffffffff811115615095578182fd5b6150a186828701614ccd565b9497909650939450505050565b600080604083850312156150c0578182fd5b50508035926020909101359150565b600080600080606085870312156150e4578182fd5b8435935060208501359250604085013567ffffffffffffffff811115615108578283fd5b61511487828801614ccd565b95989497509550505050565b600060208284031215615131578081fd5b815160ff8116811461125c578182fd5b6000815180845260208085019450808401835b8381101561517057815187529582019590820190600101615154565b509495945050505050565b6000825161518d8184602087016155bb565b9190910192915050565b60208152600061125c6020830184615141565b6040815260006151bd6040830185615141565b82810360208401526151cf8185615141565b95945050505050565b6040815260006151eb6040830185615141565b90508260208301529392505050565b60208152600082518060208401526152198160408501602087016155bb565b601f01601f19169190910160400192915050565b60408152825460009081906002810460018083168061524d57607f831692505b60208084108214156152705760e060020a634e487b710287526022600452602487fd5b604088018490526060880182801561528f57600181146152a0576152ca565b60ff198716825282820197506152ca565b60008c815260209020895b878110156152c4578154848201529086019084016152ab565b83019850505b50509690960196909652509095945050505050565b60208082526013908201527f566f74696e67206973206e6f7420737461727400000000000000000000000000604082015260600190565b6020808252600e908201527f566f74696e67206973206f766572000000000000000000000000000000000000604082015260600190565b6020808252600b908201527f496e76616c6964204e4654000000000000000000000000000000000000000000604082015260600190565b6020808252600e908201527f416d6f756e74206973207a65726f000000000000000000000000000000000000604082015260600190565b6020808252818101527f4f776e61626c653a2063616c6c6572206973206e6f7420746865206f776e6572604082015260600190565b6020808252600c908201527f4e6f74206f70657261746f720000000000000000000000000000000000000000604082015260600190565b6000821982111561543a5761543a61566c565b500190565b60008261544e5761544e615685565b500490565b600181815b808511156154905781600019048211156154745761547461566c565b8085161561548157918102915b60029094049390800290615458565b509250929050565b600061125c60ff8416836000826154b157506001611143565b816154be57506000611143565b81600181146154d457600281146154de576154fb565b6001915050611143565b60ff8411156154ef576154ef61566c565b8360020a915050611143565b5060208310610133831016604e8410600b841016171561551e575081810a611143565b6155288383615453565b806000190482111561553c5761553c61566c565b029392505050565b600081600019048311821515161561555e5761555e61566c565b500290565b600081810b83820b8281128015607f198301841216156155855761558561566c565b81607f01831381161561559a5761559a61566c565b5090039392505050565b6000828210156155b6576155b661566c565b500390565b60005b838110156155d65781810151838201526020016155be565b8381111561141e5750506000910152565b6002810460018216806155fb57607f821691505b602082108114156133b05760e060020a634e487b7102600052602260045260246000fd5b60006000198214156156335761563361566c565b5060010190565b60008261564957615649615685565b500690565b600081810b607f198114156156655761566561566c565b9003919050565b60e060020a634e487b7102600052601160045260246000fd5b60e060020a634e487b7102600052601260045260246000fd5b600160a060020a0381168114613ebd57600080fd5b8015158114613ebd57600080fdfea26469706673582212202ad66d6aa4a6675e16f0ae1153c46fd26922219d3c93c8734d41d7f44122d91f64736f6c63430008040033",
  "immutableReferences": {},
  "source": "// SPDX-License-Identifier: MIT\npragma solidity ^0.8.0;\n\nimport \"@openzeppelin/contracts/access/Ownable.sol\";\nimport \"@openzeppelin/contracts/utils/math/SafeMath.sol\";\nimport \"@openzeppelin/contracts/token/ERC20/IERC20.sol\";\nimport \"@openzeppelin/contracts/token/ERC721/IERC721.sol\";\nimport \"@openzeppelin/contracts/token/ERC20/extensions/IERC20Metadata.sol\";\nimport \"@openzeppelin/contracts/token/ERC20/utils/SafeERC20.sol\";\nimport \"@openzeppelin/contracts/security/ReentrancyGuard.sol\";\n\n\ninterface ITreasury {\n\tfunction sendRewards(address to, uint256 amount) external returns(uint256 val);\n\tfunction uink() external view returns(address);\n}\n\ninterface IAuction {\n\tfunction matchResults(string calldata matchId, uint index) external view returns(address, uint, uint);\n}\n\ninterface ITokenLocker {\n\tfunction subLockForVote(uint256 lockId, address accountAddress) external returns(uint);\n}\n\n\ncontract VoteMiningV2 is Ownable, ReentrancyGuard {\n\tusing SafeMath for uint256;\n\tusing SafeERC20 for IERC20;\n\n\tuint public VOTE_TIME_UNIT = 1 days;\n\tuint public VOTE_DAYS = 14;\n\tuint public VOTE_DURATION = VOTE_DAYS * VOTE_TIME_UNIT;\n\n\tuint public weeklyCap = 400000 * 1e12;\n\tuint public dailyVoteRewardCap = weeklyCap / 4 / VOTE_DAYS; // 1/14 of 25% of group cap \n\tuint public mintRewardCap = weeklyCap / 4; // 25% of group cap \n\tuint public bonusCap = weeklyCap  / 2; // 50% of group cap\n\t// group id => amount\n\tmapping (uint => uint) public stakingBases;\n\n\n\taddress public uink;\n\tITreasury public treasury;\n\taddress public auction;\n\n\tstruct NFT {\n\t\tuint uid;\n\t\taddress addr;\n\t\tuint id;\n\t\taddress owner;\n\t}\n\t// id => start time\n\tmapping (uint => uint) public groups;\n\tuint public currentGroupId = 1; // V2 starts from 1\n\t// group id => matchId\n\tmapping (uint => string) public matches;\n\t// group id => finished or not\n\tmapping (uint => bool) public hasFinished;\n\t\n\t\n\t// group id => NFT[]\n\tmapping (uint => NFT[]) public groupNFTs;\n\n\t// date => NFT uid => votes\n\tmapping (uint => mapping (uint => uint)) public dayVotes;\n\n\t// user => date => NFT id => amount\n\tmapping (address => mapping (uint => mapping (uint => uint))) public userVotes;\n\n\t// user => groupId => date => votes\n\tmapping (address => mapping (uint => mapping (uint => uint))) public userDailyVotes;\n\n\t// user => nft uid => votes \n\tmapping (address => mapping (uint => uint)) public userNFTVotes;\n\t\n\n\t// nft address => nftId => internal id\n\tmapping (address => mapping (uint => uint)) public nfts;\n\tuint public nextNFTId = 0;\n\n\t// group id => votes\n\tmapping (uint => uint) public groupVotes;\n\n\t// uid => votes\n\tmapping (uint => uint) public nftVotes;\n\n\t// date => votes\n\t// mapping (uint => uint) public dailyTotalVotes;\n\t\n\n\t// uid => group id\n\tmapping (uint => uint) public nftGroup;\n\t\n\taddress[] public voteTokens;\n\t// token => ratio\n\tmapping (address => uint) public voteRatio;\n\n\tuint public voteRatioMax = 10000;\n\t\n\n\tstruct Balance {\n\t\tuint available;\n\t\tuint freezed;\n\t\tuint votedAt;\n\t}\n\n\tstruct UnbondingBalance {\n\t\tuint value;\n\t\tuint unbondedAt;\n\t\tuint redeemed;\n\t}\n\n\t// user => token => uid => Balance\n\tmapping (address => mapping (address => mapping (uint => Balance))) public balances;\n\n\t// user => token => balance\n\tmapping (address => mapping (address => uint)) public userTokenBalances;\n\n\t// user => uid => Balance\n\tmapping (address => mapping (uint => Balance)) public votedBalances; // bonded => voted \n\t\n\t// user => voted amount\n\tmapping (address => uint) public totalVotedBalances;\n\n\t// user => bonded amount\n\tmapping (address => uint) public bondedBalances;\n\n\t// user => UnbondingBalance[]\n\tmapping (address => UnbondingBalance[]) public unbondingBalances;\n\t\n\t// user => total unbonded amount\n\tmapping (address => uint) public unbondedBalances;\n\t\n\n\t// uid => price\n\tmapping (uint => uint) public nftTradedPrices;\n\t// user => group => date => bool\n\tmapping (address => mapping (uint => mapping (uint => bool))) public voteRewardsClaimed;\n\t// user = > group id => bool\n\tmapping (address => mapping (uint => bool)) public bonusRewardsClaimed;\n\t// nft uid => bool\n\tmapping (uint => bool) public mintRewardsClaimed;\n\n\t// groupId => user => token => balance\n\tmapping (uint => mapping (address => mapping (address => uint))) public groupTokenBalances;\n\t\t\n\n\tmapping (address => bool) public operators;\n\n\taddress public pinAddress;\n\n\tuint public tokenLockId = 0;\n\n\taddress public tokenLocker;\n\n\tevent Redeem(address indexed user, address token, uint amount);\n\tevent Unbond(address indexed user, uint amount, uint at);\n\tevent Stake(address indexed user, address nftAddr, uint nftId, address token, uint amount);\n\tevent Unstake(address indexed user, address nftAddr, uint nftId, address token, uint amount);\n\tevent VoteBonded(address indexed user, address nftAddr, uint nftId, uint amount);\n\tevent UnvoteBonded(address indexed user, address nftAddr, uint nftId, uint amount);\n\t\n\n\tmodifier checkNFT(address nftAddr, uint nftId) { \n\t\trequire(nfts[nftAddr][nftId] > 0, \"Invalid NFT\");\n\t\t_; \n\t}\n\n\tmodifier onlyPin() { \n\t\trequire(msg.sender == pinAddress, \"Forbidden\"); \n\t\t_; \n\t}\n\n\tmodifier onlyOperator() { \n\t\trequire (operators[msg.sender] || owner() == _msgSender(), \"Not operator\"); \n\t\t_; \n\t}\n\t\n\t\n\n\tmodifier checkVotingTime() { \n\t\trequire(groups[currentGroupId] <= block.timestamp, \"Voting is not start\");\n\t\trequire(groups[currentGroupId].add(VOTE_DURATION) >= block.timestamp, \"Voting is over\");\n\t\t_; \n\t}\n\n\tmodifier checkVoteToken(address _token) { \n\t\tbool isValid = false;\n\t\tfor(uint i = 0; i < voteTokens.length; i++) {\n\t\t\tif(voteTokens[i] == _token) {\n\t\t\t\tisValid = true;\n\t\t\t\tbreak;\n\t\t\t}\n\t\t}\n\t\trequire(isValid, \"Invalid Vote Token\");\n\t\t_; \n\t}\n\n\tconstructor(address _treasury, address _tokenLocker){\n\t\trequire(_treasury != address(0), \"_treasury is zero address\");\n\t\trequire(_tokenLocker != address(0), \"_tokenLocker is zero address\");\n\t\ttreasury = ITreasury(_treasury);\n\t\tuink = treasury.uink();\n\t\ttokenLocker = _tokenLocker;\n\n\t\tvoteTokens.push(uink);\n\t\tvoteRatio[uink] = voteRatioMax;\n\t}\n\n\tfunction addVoteToken(address _token, uint _ratio) external onlyOperator {\n\t\tvoteRatio[_token] = _ratio;\n\t\tfor(uint i = 0; i < voteTokens.length; i++) {\n\t\t\tif(voteTokens[i] == _token) {\n\t\t\t\treturn;\n\t\t\t}\n\t\t}\n\t\tvoteTokens.push(_token);\n\t}\n\n\tfunction setAuctionAddress(address _auction) external onlyOwner {\n\t\tauction = _auction;\n\t}\n\n\tfunction setPinAddress(address _pin) external onlyOwner {\n\t\tpinAddress = _pin;\n\t}\n\n\tfunction setTokenLockId(uint lockId) external onlyOwner {\n\t\ttokenLockId = lockId;\n\t}\n\n\tfunction setOperator(address operator, bool isOperator) external onlyOwner {\n\t\toperators[operator] = isOperator;\n\t}\n\n\tfunction setVoteDays(uint _days) external onlyOwner {\n\t\tVOTE_DAYS = _days;\n\t}\n\n\tfunction setMatchId(uint groupId, string calldata matchId) external onlyOperator {\n\t\tmatches[groupId] = matchId;\n\t}\n\n\tfunction addGroup(uint stakingBase, uint startTime, string calldata matchId) external onlyOperator {\n\t\trequire(currentGroupId == 1 || groups[currentGroupId].add(VOTE_DURATION) <= block.timestamp, \"Previous group is not over.\");\n\t\trequire(startTime >= getDate(block.timestamp), \"Invalid start time\");\n\t\tcurrentGroupId++;\n\t\tgroups[currentGroupId] = startTime;\n\t\tstakingBases[currentGroupId] = stakingBase;\n\t\tmatches[currentGroupId] = matchId;\n\t}\n\n\tfunction addNFT(uint groupId, address[] calldata nftAddrs, uint[] calldata nftIds) external onlyOperator {\n\t\trequire(nftAddrs.length == nftIds.length, \"Invalid params\");\n\t\trequire(groups[groupId] > block.timestamp, \"Voting has started\");\n\n\t\tNFT[] storage inputNFTs = groupNFTs[groupId];\n\n\t\tfor(uint i = 0; i < nftAddrs.length; i++) {\n\t\t\trequire(nfts[nftAddrs[i]][nftIds[i]] == 0, \"NFT has been added\");\n\t\t\tnextNFTId++;\n\t\t\tnfts[nftAddrs[i]][nftIds[i]] = nextNFTId;\n\t\t\taddress nftOwner = IERC721(nftAddrs[i]).ownerOf(nftIds[i]);\n\t\t\tinputNFTs.push(NFT({\n\t\t\t\tuid: nextNFTId,\n\t\t\t\taddr: nftAddrs[i],\n\t\t\t\tid: nftIds[i],\n\t\t\t\towner: nftOwner\n\t\t\t}));\n\t\t\tnftGroup[nextNFTId] = groupId;\n\t\t}\n\t}\n\n\tfunction groupNFTsLength(uint groupId) public view returns(uint256) {\n\t\treturn groupNFTs[groupId].length;\n\t}\n\n\tfunction getAuctionPrices(uint groupId) public view returns(uint[] memory prices, uint totalAmount) {\n\t\tprices = new uint[](groupNFTs[groupId].length);\n\t\tfor(uint i = 0; i < groupNFTs[groupId].length; i++) {\n\t\t\t(,, uint price) = IAuction(auction).matchResults(matches[groupId], i);\n\t\t\tprices[i] = price;\n\t\t\ttotalAmount = totalAmount.add(price);\n\t\t}\n\t}\n\n\t\n\tfunction getDate(uint256 ts) public view returns(uint256) {\n\t\treturn ts.sub(ts.mod(VOTE_TIME_UNIT));\n\t}\n\n\tfunction getVotableDates(uint groupId) public view returns(uint[] memory dates) {\n\t\tuint start = groups[groupId];\n\t\tdates = new uint[](VOTE_DAYS);\n\t\tuint firstDate = getDate(start);\n\t\tfor(uint i = 0; i < VOTE_DAYS; i++) {\n\t\t\tdates[i] = firstDate.add(i * VOTE_TIME_UNIT);\n\t\t}\n\t}\n\n\tfunction _vote(address user, address nftAddr, uint nftId, uint votes) internal {\n\t\tuint today = getDate(block.timestamp);\n\t\tuint[] memory dates = getVotableDates(currentGroupId);\n\t\tuint uid = nfts[nftAddr][nftId];\n\n\t\tfor(uint i = 0; i < dates.length; i++) {\n\t\t\tif(dates[i] >= today) {\n\t\t\t\tuint date = dates[i];\n\t\t\t\tdayVotes[date][uid] = dayVotes[date][uid].add(votes);\n\t\t\t\tuserVotes[user][date][uid] = userVotes[user][date][uid].add(votes);\n\t\t\t\tuserDailyVotes[user][currentGroupId][date] = userDailyVotes[user][currentGroupId][date].add(votes);\n\t\t\t\tuserNFTVotes[user][uid] = userNFTVotes[user][uid].add(votes);\n\t\t\t\t\n\t\t\t\tnftVotes[uid] = nftVotes[uid].add(votes);\n\t\t\t\tgroupVotes[currentGroupId] = groupVotes[currentGroupId].add(votes);\n\t\t\t}\n\t\t}\n\t}\n\n\tfunction getUserNFTVotes(address user, address nftAddr, uint nftId) public view returns(uint256) {\n\t\tuint today = getDate(block.timestamp);\n\t\tuint[] memory dates = getVotableDates(currentGroupId);\n\t\tuint uid = nfts[nftAddr][nftId];\n\t\tuint votes = 0;\n\t\tfor(uint i = 0; i < dates.length; i++) {\n\t\t\tif(dates[i] <= today) {\n\t\t\t\tvotes = votes.add(userVotes[user][dates[i]][uid]);\n\t\t\t}\n\t\t}\n\t\treturn votes;\n\t}\n\n\tfunction getNFTVotes(address nftAddr, uint nftId) public view returns(uint256) {\n\t\tuint today = getDate(block.timestamp);\n\t\tuint[] memory dates = getVotableDates(currentGroupId);\n\t\tuint uid = nfts[nftAddr][nftId];\n\t\t\n\t\tuint votes = 0;\n\t\tfor(uint i = 0; i < dates.length; i++) {\n\t\t\tif(dates[i] <= today) {\n\t\t\t\tvotes = votes.add(dayVotes[dates[i]][uid]);\n\t\t\t}\n\t\t}\n\t\treturn votes;\n\t}\n\n\tfunction _unvote(address user, address nftAddr, uint nftId, uint votes) internal {\n\t\tuint today = getDate(block.timestamp);\n\t\tuint[] memory dates = getVotableDates(currentGroupId);\n\t\tuint uid = nfts[nftAddr][nftId];\n\n\t\tfor(uint i = 0; i < dates.length; i++) {\n\t\t\tif(dates[i] >= today) {\n\t\t\t\tuint date = dates[i];\n\t\t\t\tdayVotes[date][uid] = dayVotes[date][uid].sub(votes);\n\t\t\t\tuserVotes[user][date][uid] = userVotes[user][date][uid].sub(votes);\n\t\t\t\tuserDailyVotes[user][currentGroupId][date] = userDailyVotes[user][currentGroupId][date].sub(votes);\n\t\t\t\tuserNFTVotes[user][uid] = userNFTVotes[user][uid].sub(votes);\n\t\t\t\t\n\t\t\t\tnftVotes[uid] = nftVotes[uid].sub(votes);\n\t\t\t\tgroupVotes[currentGroupId] = groupVotes[currentGroupId].sub(votes);\n\t\t\t}\n\t\t}\n\t}\n\n\tfunction calcVotes(address token, uint amount) internal view returns(uint256) {\n\t\tint8 delta = int8(IERC20Metadata(token).decimals()) - int8(IERC20Metadata(uink).decimals());\n\t\tif(delta >= 0) {\n\t\t\treturn voteRatio[token].mul(amount).div(voteRatioMax).div(10 ** uint8(delta));\n\t\t} else {\n\t\t\treturn voteRatio[token].mul(amount).div(voteRatioMax).mul(10 ** uint8(-delta));\n\t\t}\n\t}\n\n\tfunction getAvailableBalance(address user, address token, address nftAddr, uint nftId) public view returns(uint256) {\n\t\tuint uid = nfts[nftAddr][nftId];\n\t\tBalance memory balance = balances[user][token][uid];\n\t\tuint available = balance.available;\n\t\tif(getDate(balance.votedAt) < getDate(block.timestamp)) {\n\t\t\tavailable = available.add(balance.freezed);\n\t\t}\n\t\treturn available;\n\t}\n\n\t// stake and vote\n\tfunction stake(address nftAddr, uint nftId, address token, uint amount)\n\t\texternal \n\t\tcheckVoteToken(token)\n\t\tcheckVotingTime\n\t\tcheckNFT(nftAddr, nftId)\n\t\tnonReentrant\n\t{\n\t\trequire(amount > 0, \"Amount is zero\");\n\t\tuint votes = calcVotes(token, amount);\n\t\t_vote(msg.sender, nftAddr, nftId, votes);\n\n\t\tIERC20(token).safeTransferFrom(msg.sender, address(this), amount);\n\t\tgroupTokenBalances[currentGroupId][msg.sender][token] = groupTokenBalances[currentGroupId][msg.sender][token].add(amount);\n\n\t\tuint uid = nfts[nftAddr][nftId];\n\n\n\t\tBalance storage balance = balances[msg.sender][token][uid];\n\t\tif(getDate(balance.votedAt) < getDate(block.timestamp)) {\n\t\t\tbalance.available = balance.available.add(balance.freezed);\n\t\t\tbalance.freezed = 0;\n\t\t}\n\t\tbalance.freezed = balance.freezed.add(amount);\n\t\tbalance.votedAt = block.timestamp;\n\n\t\tuserTokenBalances[msg.sender][token] = userTokenBalances[msg.sender][token].add(amount);\n\n\t\temit Stake(msg.sender, nftAddr, nftId, token, amount);\n\n\t}\n\n\tfunction unstake(address nftAddr, uint nftId, address token, uint amount)\n\t\texternal \n\t\tcheckVoteToken(token)\n\t\tcheckNFT(nftAddr, nftId)\n\t\tnonReentrant\n\t{\n\t\trequire(amount > 0, \"Amount is zero\");\n\t\t\n\t\tuint available = getAvailableBalance(msg.sender, token, nftAddr, nftId);\n\t\trequire(available >= amount, \"Insufficient balance\");\n\n\t\tuint votes = calcVotes(token, amount);\n\t\t_unvote(msg.sender, nftAddr, nftId, votes);\n\n\t\tIERC20(token).safeTransfer(msg.sender, amount);\n\n\t\tgroupTokenBalances[currentGroupId][msg.sender][token] = groupTokenBalances[currentGroupId][msg.sender][token].sub(amount);\n\n\t\tuint uid = nfts[nftAddr][nftId];\n\t\tBalance storage balance = balances[msg.sender][token][uid];\n\t\tif(getDate(balance.votedAt) < getDate(block.timestamp)) {\n\t\t\tbalance.available = balance.available.add(balance.freezed);\n\t\t\tbalance.freezed = 0;\n\t\t}\n\t\tbalance.available = balance.available.sub(amount);\n\n\t\tuserTokenBalances[msg.sender][token] = userTokenBalances[msg.sender][token].sub(amount);\n\n\t\temit Unstake(msg.sender, nftAddr, nftId, token, amount);\n\t}\n\n\t// redeem token after vote finished\n\tfunction redeemToken(uint groupId, address token) external {\n\t\trequire(groups[groupId] + VOTE_DURATION < block.timestamp, \"Vote is not over\");\n\t\tuint amount = groupTokenBalances[groupId][msg.sender][token];\n\t\trequire(amount > 0, \"Amount is zero\");\n\t\tgroupTokenBalances[groupId][msg.sender][token] = 0;\n\t\tIERC20(token).safeTransfer(msg.sender, amount);\n\t\temit Redeem(msg.sender, token, amount);\n\t}\n\n\tfunction getRedeemableBalance(address user, address token) public view returns(uint256) {\n\t\tuint total = 0;\n\t\tfor(uint groupId = 1; groupId <= currentGroupId; groupId++){\n\t\t\tif(groups[groupId] + VOTE_DURATION < block.timestamp) {\n\t\t\t\ttotal = total.add(groupTokenBalances[groupId][user][token]);\n\t\t\t}\n\t\t}\n\t\treturn total;\n\t}\n\n\tfunction rescueToken(address token, uint amount) external onlyOwner {\n\t\tIERC20(token).safeTransfer(msg.sender, amount);\n\t}\n\n\tfunction getTotalRewards(address user) public view returns(uint) {\n\t\tuint rewards = 0;\n\t\tfor(uint groupId = 1; groupId <= currentGroupId; groupId++) {\n\t\t\trewards = rewards.add(getBaseRewards(user, groupId)).add(getAuctionRewards(user, groupId));\n\t\t}\n\t\treturn rewards;\n\t}\n\n\tfunction getBaseRewards(address user, uint groupId) public view returns(uint) {\n\t\tuint[] memory dates = getVotableDates(groupId);\n\t\tuint[] memory rawardRates = getBaseRewardRates(groupId);\n\t\tuint rewards = 0;\n\t\tuint today = getDate(block.timestamp);\n\n\t\tfor(uint i = 0; i < dates.length; i++) {\n\t\t\tif(dates[i] >= today) {\n\t\t\t\tbreak;\n\t\t\t}\n\t\t\tuint dayRewards = userDailyVotes[user][groupId][dates[i]].mul(rawardRates[i]).div(1e18);\n\t\t\trewards = rewards.add(dayRewards);\n\t\t}\n\t\treturn rewards;\n\t}\n\n\tfunction getAuctionRewards(address user, uint groupId) public view returns(uint) {\n\t\tif(!hasFinished[groupId]) {\n\t\t\treturn 0;\n\t\t}\n\t\tuint rewards = 0;\n\t\tuint[] memory rewardRates = getAuctionRewardRates(groupId);\n\t\tfor(uint i = 0; i < groupNFTs[groupId].length; i++) {\n\t\t\tuint votes = userNFTVotes[user][groupNFTs[groupId][i].uid];\n\t\t\trewards = votes.mul(rewardRates[i]).div(1e18).add(rewards);\n\t\t}\n\t\treturn rewards;\n\t}\n\n\tfunction getBondedBalance(address user) public view returns(uint) {\n\t\tuint balance = getTotalRewards(user).add(bondedBalances[user]);\n\t\tuint freezedBalance = totalVotedBalances[user].add(unbondedBalances[user]);\n\t\treturn balance > freezedBalance ? balance.sub(freezedBalance) : 0;\n\t}\n\n\tfunction getUnvotableBalance(address user, address nftAddr, uint nftId) public view returns(uint256) {\n\t\tuint uid = nfts[nftAddr][nftId];\n\t\tBalance memory balance = votedBalances[user][uid];\n\t\tuint available = balance.available;\n\t\tif(getDate(balance.votedAt) < getDate(block.timestamp)) {\n\t\t\tavailable = available.add(balance.freezed);\n\t\t}\n\t\treturn available;\n\t}\n\n\tfunction collectFromLock(uint lockId) \n\t\texternal \n\t{\n\t\tuint amount = ITokenLocker(tokenLocker).subLockForVote(lockId, msg.sender);\n\t\tbondedBalances[msg.sender] = bondedBalances[msg.sender].add(amount);\n\t\tuserTokenBalances[msg.sender][uink] = userTokenBalances[msg.sender][uink].add(amount);\n\t}\n\n\t\n\tfunction voteBonded(address nftAddr, uint nftId, uint amount) \n\t\texternal \n\t\tcheckVotingTime\n\t\tcheckNFT(nftAddr, nftId)\n\t{\n\t\tuint bondedBalance = getBondedBalance(msg.sender);\n\t\trequire(bondedBalance >= amount, \"Insufficient bonded balance\");\n\n\t\t_vote(msg.sender, nftAddr, nftId, amount);\n\n\t\tuint uid = nfts[nftAddr][nftId];\n\t\tBalance storage votedBalance = votedBalances[msg.sender][uid];\n\n\t\tif(getDate(votedBalance.votedAt) < getDate(block.timestamp)) {\n\t\t\tvotedBalance.available = votedBalance.available.add(votedBalance.freezed);\n\t\t\tvotedBalance.freezed = 0;\n\t\t}\n\t\tvotedBalance.freezed = votedBalance.freezed.add(amount);\n\t\tvotedBalance.votedAt = block.timestamp;\n\n\t\ttotalVotedBalances[msg.sender] = totalVotedBalances[msg.sender].add(amount);\n\t\tuserTokenBalances[msg.sender][uink] = userTokenBalances[msg.sender][uink].add(amount);\n\t}\n\n\tfunction unvoteBonded(address nftAddr, uint nftId, uint amount)\n\t\texternal \n\t\tcheckVotingTime\n\t\tcheckNFT(nftAddr, nftId)\n\t{\n\t\tuint unvotable = getUnvotableBalance(msg.sender, nftAddr, nftId);\n\t\trequire(unvotable >= amount, \"Insufficient unvotable balance\");\n\t\t_unvote(msg.sender, nftAddr, nftId, amount);\n\n\t\tuint uid = nfts[nftAddr][nftId];\n\t\tBalance storage votedBalance = votedBalances[msg.sender][uid];\n\n\t\tif(getDate(votedBalance.votedAt) < getDate(block.timestamp)) {\n\t\t\tvotedBalance.available = votedBalance.available.add(votedBalance.freezed);\n\t\t\tvotedBalance.freezed = 0;\n\t\t}\n\t\tvotedBalance.available = votedBalance.available.sub(amount);\n\n\t\ttotalVotedBalances[msg.sender] = totalVotedBalances[msg.sender].sub(amount);\n\t\tuserTokenBalances[msg.sender][uink] = userTokenBalances[msg.sender][uink].sub(amount);\n\t}\n\n\tfunction getUnbondingBalancesLength(address user) public view returns(uint) {\n\t\treturn unbondingBalances[user].length;\n\t}\n\n\tfunction unbond(uint amount) external {\n\t\tuint bondedBalance = getBondedBalance(msg.sender);\n\t\trequire(bondedBalance >= amount, \"Insufficient bonded balance\");\n\n\t\tunbondingBalances[msg.sender].push(UnbondingBalance({\n\t\t\tvalue: amount,\n\t\t\tunbondedAt: block.timestamp,\n\t\t\tredeemed: 0\n\t\t}));\n\t\t\n\t\tunbondedBalances[msg.sender] = unbondedBalances[msg.sender].add(amount);\n\n\t\temit Unbond(msg.sender, amount, block.timestamp);\n\t}\n\n\tfunction redeemUnbonding(uint index) \n\t\texternal \n\t{ \n\t\tUnbondingBalance storage unbondingBalance = unbondingBalances[msg.sender][index];\n\t\tuint passDays = getDate(block.timestamp).sub(getDate(unbondingBalance.unbondedAt)).div(VOTE_TIME_UNIT);\n\t\tif(passDays > 60) {\n\t\t\tpassDays = 60;\n\t\t}\n\t\tuint released = passDays.mul(unbondingBalance.value).div(60);\n\t\tuint available = released.sub(unbondingBalance.redeemed);\n\t\tunbondingBalance.redeemed = released;\n\t\tuint sent = treasury.sendRewards(msg.sender, available);\n\t\trequire(sent == available, \"Insufficient treasury balance\");\n\t}\n\n\tfunction claimMintRewards(address nftAddr, uint nftId, address to) external onlyPin {\n\t\tuint uid = nfts[nftAddr][nftId];\n\t\tuint groupId = nftGroup[nfts[nftAddr][nftId]];\n\t\trequire(!mintRewardsClaimed[uid], \"Claimed\");\n\n\t\tuint rewards = 0;\n\t\tfor(uint i = 0; i < groupNFTs[groupId].length; i++) {\n\t\t\tif(groupNFTs[groupId][i].uid == uid) {\n\t\t\t\trewards = getMintRewardsPerNFT(groupId)[i];\n\t\t\t\tbreak;\n\t\t\t}\n\t\t}\n\t\tif(rewards > 0) {\n\t\t\ttreasury.sendRewards(to, rewards);\n\t\t\tmintRewardsClaimed[uid] = true;\n\t\t}\n\t}\n\n\tfunction getTradeWeights(uint groupId) public view returns(uint[] memory weights) {\n\t\tNFT[] memory gNFTs = groupNFTs[groupId];\n\t\tweights = new uint[](gNFTs.length);\n\t\t\n\t\t(uint[] memory prices, uint total) = getAuctionPrices(groupId);\n\n\t\tif(total > 0) {\n\t\t\tfor(uint i = 0; i < gNFTs.length; i++){\n\t\t\t\tweights[i] = prices[i].mul(1e18).div(total);\n\t\t\t}\n\t\t}\n\t}\n\n\tfunction setAuctionFinish(uint groupId) external onlyOperator {\n\t\thasFinished[groupId] = true;\n\t}\n\n\tfunction getAuctionRewardRates(uint groupId) public view returns(uint[] memory auctionRewardRates) {\n\t\tuint[] memory weights = getTradeWeights(groupId);\n\t\tNFT[] memory gNFTs = groupNFTs[groupId];\n\t\tauctionRewardRates = new uint[](gNFTs.length);\n\t\t(, uint[] memory inflations) = getWeightsAndInflations(groupId);\n\t\tuint bonus = bonusCap.mul(inflations[inflations.length - 1]).div(1e18);\n\n\t\tfor(uint i = 0; i < gNFTs.length; i++) {\n\t\t\tif(nftVotes[gNFTs[i].uid] == 0) {\n\t\t\t\tauctionRewardRates[i] = 0;\n\t\t\t} else {\n\t\t\t\tauctionRewardRates[i] = bonus.mul(weights[i]).div(nftVotes[gNFTs[i].uid]);\n\t\t\t}\n\t\t}\n\t}\n\n\tfunction getDailyVotes(uint groupId, uint date) public view returns(uint256) {\n\t\tuint votes = 0;\n\t\tfor(uint i = 0; i < groupNFTs[groupId].length; i++) {\n\t\t\tuint uid = groupNFTs[groupId][i].uid;\n\t\t\tvotes = votes.add(dayVotes[date][uid]);\n\t\t}\n\t\treturn votes;\n\t}\n\n\tfunction getWeightsAndInflations(uint groupId)\n\t\tpublic\n\t\tview\n\t\treturns(\n\t\t\tuint[] memory weights,\n\t\t\tuint[] memory inflations\n\t\t) \n\t{\n\n\t\tuint[] memory dates = getVotableDates(groupId);\n\t\tweights = new uint[](dates.length);\n\t\tinflations = new uint[](dates.length);\n\n\t\tfor(uint i = 0; i < dates.length; i++) {\n\t\t\tuint dailyVotes = getDailyVotes(groupId, dates[i]);\n\t\t\tweights[i] = dailyVotes.mul(1e18).div(stakingBases[groupId]);\n\t\t\tif(weights[i] < 3 * 1e17) {\n\t\t\t\tinflations[i] = 2 * 1e17;\n\t\t\t} else if(weights[i] >= 3 * 1e17 &&  weights[i] < 7 * 1e17) {\n\t\t\t\tinflations[i] = weights[i];\n\t\t\t} else {\n\t\t\t\tinflations[i] = 1e18;\n\t\t\t}\n\t\t}\n\t}\n\n\tfunction getBaseRewardRates(uint groupId) \n\t\tpublic view \n\t\treturns(uint[] memory rewardRates) \n\t{\n\n\t\tuint[] memory dates = getVotableDates(groupId);\n\t\t(,uint[] memory inflations) = getWeightsAndInflations(groupId);\n\t\trewardRates = new uint[](dates.length);\n\n\t\tfor(uint i = 0; i < dates.length; i++) {\n\t\t\tif(dates[i] > getDate(block.timestamp)) {\n\t\t\t\tbreak;\n\t\t\t}\n\t\t\tuint dailyTotalVotes = getDailyVotes(groupId, dates[i]);\n\t\t\tif(dailyTotalVotes > 0) {\n\t\t\t\trewardRates[i] = inflations[i].mul(dailyVoteRewardCap).div(dailyTotalVotes);\n\t\t\t}\n\t\t}\n\t}\n\n\tfunction getMintRewardsPerNFT(uint groupId)\n\t\tpublic view \n\t\treturns(uint[] memory mintRewards) \n\t{\n\t\tmintRewards = new uint[](groupNFTs[groupId].length);\n\t\tfor(uint i = 0; i < groupNFTs[groupId].length; i++) {\n\t\t\tif(groupVotes[groupId] > 0) {\n\t\t\t\tmintRewards[i] = nftVotes[groupNFTs[groupId][i].uid].mul(mintRewardCap).div(groupVotes[groupId]);\n\t\t\t}\n\t\t}\n\t}\n\n\tfunction getMintRewards(address nftAddr, uint nftId) public view returns(uint) {\n\t\tuint groupId = nftGroup[nfts[nftAddr][nftId]];\n\t\tif(groupVotes[groupId] > 0) {\n\t\t\treturn nftVotes[nfts[nftAddr][nftId]].mul(mintRewardCap).div(groupVotes[groupId]);\n\t\t} else {\n\t\t\treturn 0;\n\t\t}\n\t}\n}",
  "sourcePath": "/Users/yxf/app/uniarts-eth-dao/contracts/VoteMiningV2.sol",
  "compiler": {
    "name": "solc",
    "version": "0.8.4+commit.c7e474f2.Emscripten.clang"
  },
  "schemaVersion": "3.2.3",
  "updatedAt": "2021-10-28T09:13:37.836Z",
  "devdoc": {
    "kind": "dev",
    "methods": {
      "owner()": {
        "details": "Returns the address of the current owner."
      },
      "renounceOwnership()": {
        "details": "Leaves the contract without owner. It will not be possible to call `onlyOwner` functions anymore. Can only be called by the current owner. NOTE: Renouncing ownership will leave the contract without an owner, thereby removing any functionality that is only available to the owner."
      },
      "transferOwnership(address)": {
        "details": "Transfers ownership of the contract to a new account (`newOwner`). Can only be called by the current owner."
      }
    },
    "version": 1
  },
  "userdoc": {
    "kind": "user",
    "methods": {},
    "version": 1
  }
}