{
  "contractName": "VoteMining",
  "abi": [
    {
      "inputs": [
        {
          "internalType": "address",
          "name": "_treasury",
          "type": "address"
        },
        {
          "internalType": "address",
          "name": "_tokenLocker",
          "type": "address"
        }
      ],
      "stateMutability": "nonpayable",
      "type": "constructor"
    },
    {
      "anonymous": false,
      "inputs": [
        {
          "indexed": true,
          "internalType": "address",
          "name": "previousOwner",
          "type": "address"
        },
        {
          "indexed": true,
          "internalType": "address",
          "name": "newOwner",
          "type": "address"
        }
      ],
      "name": "OwnershipTransferred",
      "type": "event"
    },
    {
      "anonymous": false,
      "inputs": [
        {
          "indexed": true,
          "internalType": "address",
          "name": "user",
          "type": "address"
        },
        {
          "indexed": false,
          "internalType": "address",
          "name": "token",
          "type": "address"
        },
        {
          "indexed": false,
          "internalType": "uint256",
          "name": "amount",
          "type": "uint256"
        }
      ],
      "name": "Redeem",
      "type": "event"
    },
    {
      "anonymous": false,
      "inputs": [
        {
          "indexed": true,
          "internalType": "address",
          "name": "user",
          "type": "address"
        },
        {
          "indexed": false,
          "internalType": "uint256",
          "name": "amount",
          "type": "uint256"
        },
        {
          "indexed": false,
          "internalType": "uint256",
          "name": "at",
          "type": "uint256"
        }
      ],
      "name": "Unbond",
      "type": "event"
    },
    {
      "inputs": [],
      "name": "VOTE_DAYS",
      "outputs": [
        {
          "internalType": "uint256",
          "name": "",
          "type": "uint256"
        }
      ],
      "stateMutability": "view",
      "type": "function"
    },
    {
      "inputs": [],
      "name": "VOTE_DURATION",
      "outputs": [
        {
          "internalType": "uint256",
          "name": "",
          "type": "uint256"
        }
      ],
      "stateMutability": "view",
      "type": "function"
    },
    {
      "inputs": [],
      "name": "VOTE_TIME_UNIT",
      "outputs": [
        {
          "internalType": "uint256",
          "name": "",
          "type": "uint256"
        }
      ],
      "stateMutability": "view",
      "type": "function"
    },
    {
      "inputs": [],
      "name": "auction",
      "outputs": [
        {
          "internalType": "address",
          "name": "",
          "type": "address"
        }
      ],
      "stateMutability": "view",
      "type": "function"
    },
    {
      "inputs": [
        {
          "internalType": "address",
          "name": "",
          "type": "address"
        },
        {
          "internalType": "address",
          "name": "",
          "type": "address"
        },
        {
          "internalType": "uint256",
          "name": "",
          "type": "uint256"
        }
      ],
      "name": "balances",
      "outputs": [
        {
          "internalType": "uint256",
          "name": "available",
          "type": "uint256"
        },
        {
          "internalType": "uint256",
          "name": "freezed",
          "type": "uint256"
        },
        {
          "internalType": "uint256",
          "name": "votedAt",
          "type": "uint256"
        }
      ],
      "stateMutability": "view",
      "type": "function"
    },
    {
      "inputs": [
        {
          "internalType": "address",
          "name": "",
          "type": "address"
        }
      ],
      "name": "bondedBalances",
      "outputs": [
        {
          "internalType": "uint256",
          "name": "",
          "type": "uint256"
        }
      ],
      "stateMutability": "view",
      "type": "function"
    },
    {
      "inputs": [],
      "name": "bonusCap",
      "outputs": [
        {
          "internalType": "uint256",
          "name": "",
          "type": "uint256"
        }
      ],
      "stateMutability": "view",
      "type": "function"
    },
    {
      "inputs": [
        {
          "internalType": "address",
          "name": "",
          "type": "address"
        },
        {
          "internalType": "uint256",
          "name": "",
          "type": "uint256"
        }
      ],
      "name": "bonusRewardsClaimed",
      "outputs": [
        {
          "internalType": "bool",
          "name": "",
          "type": "bool"
        }
      ],
      "stateMutability": "view",
      "type": "function"
    },
    {
      "inputs": [],
      "name": "currentGroupId",
      "outputs": [
        {
          "internalType": "uint256",
          "name": "",
          "type": "uint256"
        }
      ],
      "stateMutability": "view",
      "type": "function"
    },
    {
      "inputs": [],
      "name": "dailyVoteRewardCap",
      "outputs": [
        {
          "internalType": "uint256",
          "name": "",
          "type": "uint256"
        }
      ],
      "stateMutability": "view",
      "type": "function"
    },
    {
      "inputs": [
        {
          "internalType": "uint256",
          "name": "",
          "type": "uint256"
        },
        {
          "internalType": "uint256",
          "name": "",
          "type": "uint256"
        }
      ],
      "name": "dayVotes",
      "outputs": [
        {
          "internalType": "uint256",
          "name": "",
          "type": "uint256"
        }
      ],
      "stateMutability": "view",
      "type": "function"
    },
    {
      "inputs": [
        {
          "internalType": "uint256",
          "name": "",
          "type": "uint256"
        },
        {
          "internalType": "uint256",
          "name": "",
          "type": "uint256"
        }
      ],
      "name": "groupNFTs",
      "outputs": [
        {
          "internalType": "uint256",
          "name": "uid",
          "type": "uint256"
        },
        {
          "internalType": "address",
          "name": "addr",
          "type": "address"
        },
        {
          "internalType": "uint256",
          "name": "id",
          "type": "uint256"
        },
        {
          "internalType": "address",
          "name": "owner",
          "type": "address"
        }
      ],
      "stateMutability": "view",
      "type": "function"
    },
    {
      "inputs": [
        {
          "internalType": "uint256",
          "name": "",
          "type": "uint256"
        },
        {
          "internalType": "address",
          "name": "",
          "type": "address"
        },
        {
          "internalType": "address",
          "name": "",
          "type": "address"
        }
      ],
      "name": "groupTokenBalances",
      "outputs": [
        {
          "internalType": "uint256",
          "name": "",
          "type": "uint256"
        }
      ],
      "stateMutability": "view",
      "type": "function"
    },
    {
      "inputs": [
        {
          "internalType": "uint256",
          "name": "",
          "type": "uint256"
        }
      ],
      "name": "groupVotes",
      "outputs": [
        {
          "internalType": "uint256",
          "name": "",
          "type": "uint256"
        }
      ],
      "stateMutability": "view",
      "type": "function"
    },
    {
      "inputs": [
        {
          "internalType": "uint256",
          "name": "",
          "type": "uint256"
        }
      ],
      "name": "groups",
      "outputs": [
        {
          "internalType": "uint256",
          "name": "",
          "type": "uint256"
        }
      ],
      "stateMutability": "view",
      "type": "function"
    },
    {
      "inputs": [
        {
          "internalType": "uint256",
          "name": "",
          "type": "uint256"
        }
      ],
      "name": "hasFinished",
      "outputs": [
        {
          "internalType": "bool",
          "name": "",
          "type": "bool"
        }
      ],
      "stateMutability": "view",
      "type": "function"
    },
    {
      "inputs": [
        {
          "internalType": "uint256",
          "name": "",
          "type": "uint256"
        }
      ],
      "name": "matches",
      "outputs": [
        {
          "internalType": "string",
          "name": "",
          "type": "string"
        }
      ],
      "stateMutability": "view",
      "type": "function"
    },
    {
      "inputs": [],
      "name": "mintRewardCap",
      "outputs": [
        {
          "internalType": "uint256",
          "name": "",
          "type": "uint256"
        }
      ],
      "stateMutability": "view",
      "type": "function"
    },
    {
      "inputs": [
        {
          "internalType": "uint256",
          "name": "",
          "type": "uint256"
        }
      ],
      "name": "mintRewardsClaimed",
      "outputs": [
        {
          "internalType": "bool",
          "name": "",
          "type": "bool"
        }
      ],
      "stateMutability": "view",
      "type": "function"
    },
    {
      "inputs": [],
      "name": "nextNFTId",
      "outputs": [
        {
          "internalType": "uint256",
          "name": "",
          "type": "uint256"
        }
      ],
      "stateMutability": "view",
      "type": "function"
    },
    {
      "inputs": [
        {
          "internalType": "uint256",
          "name": "",
          "type": "uint256"
        }
      ],
      "name": "nftGroup",
      "outputs": [
        {
          "internalType": "uint256",
          "name": "",
          "type": "uint256"
        }
      ],
      "stateMutability": "view",
      "type": "function"
    },
    {
      "inputs": [
        {
          "internalType": "uint256",
          "name": "",
          "type": "uint256"
        }
      ],
      "name": "nftTradedPrices",
      "outputs": [
        {
          "internalType": "uint256",
          "name": "",
          "type": "uint256"
        }
      ],
      "stateMutability": "view",
      "type": "function"
    },
    {
      "inputs": [
        {
          "internalType": "uint256",
          "name": "",
          "type": "uint256"
        }
      ],
      "name": "nftVotes",
      "outputs": [
        {
          "internalType": "uint256",
          "name": "",
          "type": "uint256"
        }
      ],
      "stateMutability": "view",
      "type": "function"
    },
    {
      "inputs": [
        {
          "internalType": "address",
          "name": "",
          "type": "address"
        },
        {
          "internalType": "uint256",
          "name": "",
          "type": "uint256"
        }
      ],
      "name": "nfts",
      "outputs": [
        {
          "internalType": "uint256",
          "name": "",
          "type": "uint256"
        }
      ],
      "stateMutability": "view",
      "type": "function"
    },
    {
      "inputs": [
        {
          "internalType": "address",
          "name": "",
          "type": "address"
        }
      ],
      "name": "operators",
      "outputs": [
        {
          "internalType": "bool",
          "name": "",
          "type": "bool"
        }
      ],
      "stateMutability": "view",
      "type": "function"
    },
    {
      "inputs": [],
      "name": "owner",
      "outputs": [
        {
          "internalType": "address",
          "name": "",
          "type": "address"
        }
      ],
      "stateMutability": "view",
      "type": "function"
    },
    {
      "inputs": [],
      "name": "pinAddress",
      "outputs": [
        {
          "internalType": "address",
          "name": "",
          "type": "address"
        }
      ],
      "stateMutability": "view",
      "type": "function"
    },
    {
      "inputs": [],
      "name": "renounceOwnership",
      "outputs": [],
      "stateMutability": "nonpayable",
      "type": "function"
    },
    {
      "inputs": [
        {
          "internalType": "uint256",
          "name": "",
          "type": "uint256"
        }
      ],
      "name": "stakingBases",
      "outputs": [
        {
          "internalType": "uint256",
          "name": "",
          "type": "uint256"
        }
      ],
      "stateMutability": "view",
      "type": "function"
    },
    {
      "inputs": [],
      "name": "tokenLockId",
      "outputs": [
        {
          "internalType": "uint256",
          "name": "",
          "type": "uint256"
        }
      ],
      "stateMutability": "view",
      "type": "function"
    },
    {
      "inputs": [],
      "name": "tokenLocker",
      "outputs": [
        {
          "internalType": "address",
          "name": "",
          "type": "address"
        }
      ],
      "stateMutability": "view",
      "type": "function"
    },
    {
      "inputs": [
        {
          "internalType": "address",
          "name": "",
          "type": "address"
        }
      ],
      "name": "totalVotedBalances",
      "outputs": [
        {
          "internalType": "uint256",
          "name": "",
          "type": "uint256"
        }
      ],
      "stateMutability": "view",
      "type": "function"
    },
    {
      "inputs": [
        {
          "internalType": "address",
          "name": "newOwner",
          "type": "address"
        }
      ],
      "name": "transferOwnership",
      "outputs": [],
      "stateMutability": "nonpayable",
      "type": "function"
    },
    {
      "inputs": [],
      "name": "treasury",
      "outputs": [
        {
          "internalType": "contract ITreasury",
          "name": "",
          "type": "address"
        }
      ],
      "stateMutability": "view",
      "type": "function"
    },
    {
      "inputs": [],
      "name": "uink",
      "outputs": [
        {
          "internalType": "address",
          "name": "",
          "type": "address"
        }
      ],
      "stateMutability": "view",
      "type": "function"
    },
    {
      "inputs": [
        {
          "internalType": "address",
          "name": "",
          "type": "address"
        }
      ],
      "name": "unbondedBalances",
      "outputs": [
        {
          "internalType": "uint256",
          "name": "",
          "type": "uint256"
        }
      ],
      "stateMutability": "view",
      "type": "function"
    },
    {
      "inputs": [
        {
          "internalType": "address",
          "name": "",
          "type": "address"
        },
        {
          "internalType": "uint256",
          "name": "",
          "type": "uint256"
        }
      ],
      "name": "unbondingBalances",
      "outputs": [
        {
          "internalType": "uint256",
          "name": "value",
          "type": "uint256"
        },
        {
          "internalType": "uint256",
          "name": "unbondedAt",
          "type": "uint256"
        },
        {
          "internalType": "uint256",
          "name": "redeemed",
          "type": "uint256"
        }
      ],
      "stateMutability": "view",
      "type": "function"
    },
    {
      "inputs": [
        {
          "internalType": "address",
          "name": "",
          "type": "address"
        },
        {
          "internalType": "uint256",
          "name": "",
          "type": "uint256"
        },
        {
          "internalType": "uint256",
          "name": "",
          "type": "uint256"
        }
      ],
      "name": "userDailyVotes",
      "outputs": [
        {
          "internalType": "uint256",
          "name": "",
          "type": "uint256"
        }
      ],
      "stateMutability": "view",
      "type": "function"
    },
    {
      "inputs": [
        {
          "internalType": "address",
          "name": "",
          "type": "address"
        },
        {
          "internalType": "uint256",
          "name": "",
          "type": "uint256"
        }
      ],
      "name": "userNFTVotes",
      "outputs": [
        {
          "internalType": "uint256",
          "name": "",
          "type": "uint256"
        }
      ],
      "stateMutability": "view",
      "type": "function"
    },
    {
      "inputs": [
        {
          "internalType": "address",
          "name": "",
          "type": "address"
        },
        {
          "internalType": "address",
          "name": "",
          "type": "address"
        }
      ],
      "name": "userTokenBalances",
      "outputs": [
        {
          "internalType": "uint256",
          "name": "",
          "type": "uint256"
        }
      ],
      "stateMutability": "view",
      "type": "function"
    },
    {
      "inputs": [
        {
          "internalType": "address",
          "name": "",
          "type": "address"
        },
        {
          "internalType": "uint256",
          "name": "",
          "type": "uint256"
        },
        {
          "internalType": "uint256",
          "name": "",
          "type": "uint256"
        }
      ],
      "name": "userVotes",
      "outputs": [
        {
          "internalType": "uint256",
          "name": "",
          "type": "uint256"
        }
      ],
      "stateMutability": "view",
      "type": "function"
    },
    {
      "inputs": [
        {
          "internalType": "address",
          "name": "",
          "type": "address"
        }
      ],
      "name": "voteRatio",
      "outputs": [
        {
          "internalType": "uint256",
          "name": "",
          "type": "uint256"
        }
      ],
      "stateMutability": "view",
      "type": "function"
    },
    {
      "inputs": [],
      "name": "voteRatioMax",
      "outputs": [
        {
          "internalType": "uint256",
          "name": "",
          "type": "uint256"
        }
      ],
      "stateMutability": "view",
      "type": "function"
    },
    {
      "inputs": [
        {
          "internalType": "address",
          "name": "",
          "type": "address"
        },
        {
          "internalType": "uint256",
          "name": "",
          "type": "uint256"
        },
        {
          "internalType": "uint256",
          "name": "",
          "type": "uint256"
        }
      ],
      "name": "voteRewardsClaimed",
      "outputs": [
        {
          "internalType": "bool",
          "name": "",
          "type": "bool"
        }
      ],
      "stateMutability": "view",
      "type": "function"
    },
    {
      "inputs": [
        {
          "internalType": "uint256",
          "name": "",
          "type": "uint256"
        }
      ],
      "name": "voteTokens",
      "outputs": [
        {
          "internalType": "address",
          "name": "",
          "type": "address"
        }
      ],
      "stateMutability": "view",
      "type": "function"
    },
    {
      "inputs": [
        {
          "internalType": "address",
          "name": "",
          "type": "address"
        },
        {
          "internalType": "uint256",
          "name": "",
          "type": "uint256"
        }
      ],
      "name": "votedBalances",
      "outputs": [
        {
          "internalType": "uint256",
          "name": "available",
          "type": "uint256"
        },
        {
          "internalType": "uint256",
          "name": "freezed",
          "type": "uint256"
        },
        {
          "internalType": "uint256",
          "name": "votedAt",
          "type": "uint256"
        }
      ],
      "stateMutability": "view",
      "type": "function"
    },
    {
      "inputs": [],
      "name": "weeklyCap",
      "outputs": [
        {
          "internalType": "uint256",
          "name": "",
          "type": "uint256"
        }
      ],
      "stateMutability": "view",
      "type": "function"
    },
    {
      "inputs": [
        {
          "internalType": "address",
          "name": "_token",
          "type": "address"
        },
        {
          "internalType": "uint256",
          "name": "_ratio",
          "type": "uint256"
        }
      ],
      "name": "addVoteToken",
      "outputs": [],
      "stateMutability": "nonpayable",
      "type": "function"
    },
    {
      "inputs": [
        {
          "internalType": "address",
          "name": "_auction",
          "type": "address"
        }
      ],
      "name": "setAuctionAddress",
      "outputs": [],
      "stateMutability": "nonpayable",
      "type": "function"
    },
    {
      "inputs": [
        {
          "internalType": "address",
          "name": "_pin",
          "type": "address"
        }
      ],
      "name": "setPinAddress",
      "outputs": [],
      "stateMutability": "nonpayable",
      "type": "function"
    },
    {
      "inputs": [
        {
          "internalType": "uint256",
          "name": "lockId",
          "type": "uint256"
        }
      ],
      "name": "setTokenLockId",
      "outputs": [],
      "stateMutability": "nonpayable",
      "type": "function"
    },
    {
      "inputs": [
        {
          "internalType": "address",
          "name": "operator",
          "type": "address"
        },
        {
          "internalType": "bool",
          "name": "isOperator",
          "type": "bool"
        }
      ],
      "name": "setOperator",
      "outputs": [],
      "stateMutability": "nonpayable",
      "type": "function"
    },
    {
      "inputs": [
        {
          "internalType": "uint256",
          "name": "_days",
          "type": "uint256"
        }
      ],
      "name": "setVoteDays",
      "outputs": [],
      "stateMutability": "nonpayable",
      "type": "function"
    },
    {
      "inputs": [
        {
          "internalType": "uint256",
          "name": "groupId",
          "type": "uint256"
        },
        {
          "internalType": "string",
          "name": "matchId",
          "type": "string"
        }
      ],
      "name": "setMatchId",
      "outputs": [],
      "stateMutability": "nonpayable",
      "type": "function"
    },
    {
      "inputs": [
        {
          "internalType": "uint256",
          "name": "stakingBase",
          "type": "uint256"
        },
        {
          "internalType": "uint256",
          "name": "startTime",
          "type": "uint256"
        },
        {
          "internalType": "string",
          "name": "matchId",
          "type": "string"
        }
      ],
      "name": "addGroup",
      "outputs": [],
      "stateMutability": "nonpayable",
      "type": "function"
    },
    {
      "inputs": [
        {
          "internalType": "uint256",
          "name": "groupId",
          "type": "uint256"
        },
        {
          "internalType": "address[]",
          "name": "nftAddrs",
          "type": "address[]"
        },
        {
          "internalType": "uint256[]",
          "name": "nftIds",
          "type": "uint256[]"
        }
      ],
      "name": "addNFT",
      "outputs": [],
      "stateMutability": "nonpayable",
      "type": "function"
    },
    {
      "inputs": [
        {
          "internalType": "uint256",
          "name": "groupId",
          "type": "uint256"
        }
      ],
      "name": "groupNFTsLength",
      "outputs": [
        {
          "internalType": "uint256",
          "name": "",
          "type": "uint256"
        }
      ],
      "stateMutability": "view",
      "type": "function"
    },
    {
      "inputs": [
        {
          "internalType": "uint256",
          "name": "groupId",
          "type": "uint256"
        }
      ],
      "name": "getAuctionPrices",
      "outputs": [
        {
          "internalType": "uint256[]",
          "name": "prices",
          "type": "uint256[]"
        },
        {
          "internalType": "uint256",
          "name": "totalAmount",
          "type": "uint256"
        }
      ],
      "stateMutability": "view",
      "type": "function"
    },
    {
      "inputs": [
        {
          "internalType": "uint256",
          "name": "ts",
          "type": "uint256"
        }
      ],
      "name": "getDate",
      "outputs": [
        {
          "internalType": "uint256",
          "name": "",
          "type": "uint256"
        }
      ],
      "stateMutability": "view",
      "type": "function"
    },
    {
      "inputs": [
        {
          "internalType": "uint256",
          "name": "groupId",
          "type": "uint256"
        }
      ],
      "name": "getVotableDates",
      "outputs": [
        {
          "internalType": "uint256[]",
          "name": "dates",
          "type": "uint256[]"
        }
      ],
      "stateMutability": "view",
      "type": "function"
    },
    {
      "inputs": [
        {
          "internalType": "address",
          "name": "user",
          "type": "address"
        },
        {
          "internalType": "address",
          "name": "nftAddr",
          "type": "address"
        },
        {
          "internalType": "uint256",
          "name": "nftId",
          "type": "uint256"
        }
      ],
      "name": "getUserNFTVotes",
      "outputs": [
        {
          "internalType": "uint256",
          "name": "",
          "type": "uint256"
        }
      ],
      "stateMutability": "view",
      "type": "function"
    },
    {
      "inputs": [
        {
          "internalType": "address",
          "name": "nftAddr",
          "type": "address"
        },
        {
          "internalType": "uint256",
          "name": "nftId",
          "type": "uint256"
        }
      ],
      "name": "getNFTVotes",
      "outputs": [
        {
          "internalType": "uint256",
          "name": "",
          "type": "uint256"
        }
      ],
      "stateMutability": "view",
      "type": "function"
    },
    {
      "inputs": [
        {
          "internalType": "address",
          "name": "user",
          "type": "address"
        },
        {
          "internalType": "address",
          "name": "token",
          "type": "address"
        },
        {
          "internalType": "address",
          "name": "nftAddr",
          "type": "address"
        },
        {
          "internalType": "uint256",
          "name": "nftId",
          "type": "uint256"
        }
      ],
      "name": "getAvailableBalance",
      "outputs": [
        {
          "internalType": "uint256",
          "name": "",
          "type": "uint256"
        }
      ],
      "stateMutability": "view",
      "type": "function"
    },
    {
      "inputs": [
        {
          "internalType": "address",
          "name": "nftAddr",
          "type": "address"
        },
        {
          "internalType": "uint256",
          "name": "nftId",
          "type": "uint256"
        },
        {
          "internalType": "address",
          "name": "token",
          "type": "address"
        },
        {
          "internalType": "uint256",
          "name": "amount",
          "type": "uint256"
        }
      ],
      "name": "stake",
      "outputs": [],
      "stateMutability": "nonpayable",
      "type": "function"
    },
    {
      "inputs": [
        {
          "internalType": "address",
          "name": "nftAddr",
          "type": "address"
        },
        {
          "internalType": "uint256",
          "name": "nftId",
          "type": "uint256"
        },
        {
          "internalType": "address",
          "name": "token",
          "type": "address"
        },
        {
          "internalType": "uint256",
          "name": "amount",
          "type": "uint256"
        }
      ],
      "name": "unstake",
      "outputs": [],
      "stateMutability": "nonpayable",
      "type": "function"
    },
    {
      "inputs": [
        {
          "internalType": "uint256",
          "name": "groupId",
          "type": "uint256"
        },
        {
          "internalType": "address",
          "name": "token",
          "type": "address"
        }
      ],
      "name": "redeemToken",
      "outputs": [],
      "stateMutability": "nonpayable",
      "type": "function"
    },
    {
      "inputs": [
        {
          "internalType": "address",
          "name": "user",
          "type": "address"
        },
        {
          "internalType": "address",
          "name": "token",
          "type": "address"
        }
      ],
      "name": "getRedeemableBalance",
      "outputs": [
        {
          "internalType": "uint256",
          "name": "",
          "type": "uint256"
        }
      ],
      "stateMutability": "view",
      "type": "function"
    },
    {
      "inputs": [
        {
          "internalType": "address",
          "name": "token",
          "type": "address"
        },
        {
          "internalType": "uint256",
          "name": "amount",
          "type": "uint256"
        }
      ],
      "name": "rescueToken",
      "outputs": [],
      "stateMutability": "nonpayable",
      "type": "function"
    },
    {
      "inputs": [
        {
          "internalType": "address",
          "name": "user",
          "type": "address"
        }
      ],
      "name": "getTotalRewards",
      "outputs": [
        {
          "internalType": "uint256",
          "name": "",
          "type": "uint256"
        }
      ],
      "stateMutability": "view",
      "type": "function"
    },
    {
      "inputs": [
        {
          "internalType": "address",
          "name": "user",
          "type": "address"
        },
        {
          "internalType": "uint256",
          "name": "groupId",
          "type": "uint256"
        }
      ],
      "name": "getBaseRewards",
      "outputs": [
        {
          "internalType": "uint256",
          "name": "",
          "type": "uint256"
        }
      ],
      "stateMutability": "view",
      "type": "function"
    },
    {
      "inputs": [
        {
          "internalType": "address",
          "name": "user",
          "type": "address"
        },
        {
          "internalType": "uint256",
          "name": "groupId",
          "type": "uint256"
        }
      ],
      "name": "getAuctionRewards",
      "outputs": [
        {
          "internalType": "uint256",
          "name": "",
          "type": "uint256"
        }
      ],
      "stateMutability": "view",
      "type": "function"
    },
    {
      "inputs": [
        {
          "internalType": "address",
          "name": "user",
          "type": "address"
        }
      ],
      "name": "getBondedBalance",
      "outputs": [
        {
          "internalType": "uint256",
          "name": "",
          "type": "uint256"
        }
      ],
      "stateMutability": "view",
      "type": "function"
    },
    {
      "inputs": [
        {
          "internalType": "address",
          "name": "user",
          "type": "address"
        },
        {
          "internalType": "address",
          "name": "nftAddr",
          "type": "address"
        },
        {
          "internalType": "uint256",
          "name": "nftId",
          "type": "uint256"
        }
      ],
      "name": "getUnvotableBalance",
      "outputs": [
        {
          "internalType": "uint256",
          "name": "",
          "type": "uint256"
        }
      ],
      "stateMutability": "view",
      "type": "function"
    },
    {
      "inputs": [
        {
          "internalType": "uint256",
          "name": "lockId",
          "type": "uint256"
        }
      ],
      "name": "collectFromLock",
      "outputs": [],
      "stateMutability": "nonpayable",
      "type": "function"
    },
    {
      "inputs": [
        {
          "internalType": "address",
          "name": "nftAddr",
          "type": "address"
        },
        {
          "internalType": "uint256",
          "name": "nftId",
          "type": "uint256"
        },
        {
          "internalType": "uint256",
          "name": "amount",
          "type": "uint256"
        }
      ],
      "name": "voteBonded",
      "outputs": [],
      "stateMutability": "nonpayable",
      "type": "function"
    },
    {
      "inputs": [
        {
          "internalType": "address",
          "name": "nftAddr",
          "type": "address"
        },
        {
          "internalType": "uint256",
          "name": "nftId",
          "type": "uint256"
        },
        {
          "internalType": "uint256",
          "name": "amount",
          "type": "uint256"
        }
      ],
      "name": "unvoteBonded",
      "outputs": [],
      "stateMutability": "nonpayable",
      "type": "function"
    },
    {
      "inputs": [
        {
          "internalType": "address",
          "name": "user",
          "type": "address"
        }
      ],
      "name": "getUnbondingBalancesLength",
      "outputs": [
        {
          "internalType": "uint256",
          "name": "",
          "type": "uint256"
        }
      ],
      "stateMutability": "view",
      "type": "function"
    },
    {
      "inputs": [
        {
          "internalType": "uint256",
          "name": "amount",
          "type": "uint256"
        }
      ],
      "name": "unbond",
      "outputs": [],
      "stateMutability": "nonpayable",
      "type": "function"
    },
    {
      "inputs": [
        {
          "internalType": "uint256",
          "name": "index",
          "type": "uint256"
        }
      ],
      "name": "redeemUnbonding",
      "outputs": [],
      "stateMutability": "nonpayable",
      "type": "function"
    },
    {
      "inputs": [
        {
          "internalType": "address",
          "name": "nftAddr",
          "type": "address"
        },
        {
          "internalType": "uint256",
          "name": "nftId",
          "type": "uint256"
        },
        {
          "internalType": "address",
          "name": "to",
          "type": "address"
        }
      ],
      "name": "claimMintRewards",
      "outputs": [],
      "stateMutability": "nonpayable",
      "type": "function"
    },
    {
      "inputs": [
        {
          "internalType": "uint256",
          "name": "groupId",
          "type": "uint256"
        }
      ],
      "name": "getTradeWeights",
      "outputs": [
        {
          "internalType": "uint256[]",
          "name": "weights",
          "type": "uint256[]"
        }
      ],
      "stateMutability": "view",
      "type": "function"
    },
    {
      "inputs": [
        {
          "internalType": "uint256",
          "name": "groupId",
          "type": "uint256"
        }
      ],
      "name": "setAuctionFinish",
      "outputs": [],
      "stateMutability": "nonpayable",
      "type": "function"
    },
    {
      "inputs": [
        {
          "internalType": "uint256",
          "name": "groupId",
          "type": "uint256"
        }
      ],
      "name": "getAuctionRewardRates",
      "outputs": [
        {
          "internalType": "uint256[]",
          "name": "auctionRewardRates",
          "type": "uint256[]"
        }
      ],
      "stateMutability": "view",
      "type": "function"
    },
    {
      "inputs": [
        {
          "internalType": "uint256",
          "name": "groupId",
          "type": "uint256"
        },
        {
          "internalType": "uint256",
          "name": "date",
          "type": "uint256"
        }
      ],
      "name": "getDailyVotes",
      "outputs": [
        {
          "internalType": "uint256",
          "name": "",
          "type": "uint256"
        }
      ],
      "stateMutability": "view",
      "type": "function"
    },
    {
      "inputs": [
        {
          "internalType": "uint256",
          "name": "groupId",
          "type": "uint256"
        }
      ],
      "name": "getWeightsAndInflations",
      "outputs": [
        {
          "internalType": "uint256[]",
          "name": "weights",
          "type": "uint256[]"
        },
        {
          "internalType": "uint256[]",
          "name": "inflations",
          "type": "uint256[]"
        }
      ],
      "stateMutability": "view",
      "type": "function"
    },
    {
      "inputs": [
        {
          "internalType": "uint256",
          "name": "groupId",
          "type": "uint256"
        }
      ],
      "name": "getBaseRewardRates",
      "outputs": [
        {
          "internalType": "uint256[]",
          "name": "rewardRates",
          "type": "uint256[]"
        }
      ],
      "stateMutability": "view",
      "type": "function"
    },
    {
      "inputs": [
        {
          "internalType": "uint256",
          "name": "groupId",
          "type": "uint256"
        }
      ],
      "name": "getMintRewardsPerNFT",
      "outputs": [
        {
          "internalType": "uint256[]",
          "name": "mintRewards",
          "type": "uint256[]"
        }
      ],
      "stateMutability": "view",
      "type": "function"
    },
    {
      "inputs": [
        {
          "internalType": "address",
          "name": "nftAddr",
          "type": "address"
        },
        {
          "internalType": "uint256",
          "name": "nftId",
          "type": "uint256"
        }
      ],
      "name": "getMintRewards",
      "outputs": [
        {
          "internalType": "uint256",
          "name": "",
          "type": "uint256"
        }
      ],
      "stateMutability": "view",
      "type": "function"
    }
  ],
  "bytecode": "0x608060405262015180600155600e60025560015460025462000022919062000319565b60035567058d15e1762800006004556004600254600454620000459190620002df565b620000519190620002df565b60055560048054620000649190620002df565b6006556002600454620000789190620002df565b6007556000600d556000601655612710601c556000602b553480156200009d57600080fd5b506040516200576a3803806200576a833981016040819052620000c091620002a8565b620000e6620000d764010000000062000213810204565b64010000000062000217810204565b600a8054600160a060020a031916600160a060020a038416908117909155604080517fa88d8fea000000000000000000000000000000000000000000000000000000008152905163a88d8fea91600480820192602092909190829003018186803b1580156200015457600080fd5b505afa15801562000169573d6000803e3d6000fd5b505050506040513d601f19601f820116820180604052508101906200018f919062000284565b60098054600160a060020a03928316600160a060020a031991821681178355602c805495851695831695909517909455601a8054600181019091557f057c384a7d1c54f3a1b2e5e67b2617b8224fdfd1ea7234eea573a6ff665ff63e018054909116909317909255601c549154166000908152601b6020526040902055506200035e565b3390565b60008054600160a060020a03838116600160a060020a0319831681178455604051919092169283917f8be0079c531659141344cd1fd0a4f28419497f9722a3daafe3b4186f6b6457e09190a35050565b8051600160a060020a03811681146200027f57600080fd5b919050565b60006020828403121562000296578081fd5b620002a18262000267565b9392505050565b60008060408385031215620002bb578081fd5b620002c68362000267565b9150620002d66020840162000267565b90509250929050565b60008262000314577f4e487b710000000000000000000000000000000000000000000000000000000081526012600452602481fd5b500490565b600081600019048311821515161562000359577f4e487b710000000000000000000000000000000000000000000000000000000081526011600452602481fd5b500290565b6153fc806200036e6000396000f3fe608060405234801561001057600080fd5b50600436106104dc5760003560e060020a90048063715018a611610287578063ad3bac1a11610160578063d0b5efa9116100d2578063f298e49311610096578063f298e49314610d35578063f2fde38b14610d48578063f44e3ce114610d5b578063f7a64da314610d6e578063f8df0cd314610d9f578063fa119fee14610db257600080fd5b8063d0b5efa914610cea578063d0f86b2614610cfd578063da043af314610d10578063e325fb4b14610d23578063eb7a700d14610d2c57600080fd5b8063c108a85d11610124578063c108a85d14610c72578063c3501ff614610c7b578063c4f6da1214610c8e578063c7780c7314610cae578063c7c8895614610cc1578063c909adc014610ce157600080fd5b8063ad3bac1a14610bef578063b0aad77714610c02578063b5345afa14610c0b578063bae5435314610c3f578063bba1189a14610c5f57600080fd5b80638f4d41e8116101f95780639d9d9a10116101bd5780639d9d9a1014610b5f578063a80bf3e614610b72578063a88d8fea14610b85578063ab803e9914610b98578063ac80b61214610bab578063acceea7514610bdc57600080fd5b80638f4d41e814610ab1578063916c42dc14610ad2578063938f173714610af257806393ac363814610b2c57806396324bd414610b3f57600080fd5b80637d9f6db51161024b5780637d9f6db514610a135780638049e17b14610a26578063814e7c0f14610a5757806383fd1a5414610a7a5780638503d2cd14610a8d5780638da5cb5b14610aa057600080fd5b8063715018a6146109c65780637523d4bd146109ce57806376821827146109ee57806376ec17b7146109f7578063776498d414610a0a57600080fd5b806343af356b116103b9578063558a72971161032b5780636482ff98116102ef5780636482ff98146108e557806364ebaaeb146108f8578063660dbeb81461092657806366edd87b146109395780636b942b861461094c5780636f700e25146109a757600080fd5b8063558a729714610853578063563c5e30146108665780635a8542be1461089157806361d027b3146108b257806363c0ea10146108c557600080fd5b80634dc1a3e01161037d5780634dc1a3e0146107a15780634e4b61c3146107cc5780634f8d32be146107ec578063502a1d3f146107f5578063515cc5321461081557806352a437fe1461082857600080fd5b806343af356b146106e457806345f2d1051461070f5780634654ff051461073a57806346aa25a2146107435780634768d4ef1461078157600080fd5b8063171b612c116104525780632b57298b116104165780632b57298b1461067c5780632bcf161c1461068f57806333f3d628146106a257806334e7a1a8146106b557806337867c94146106c85780633dbc65c7146106d157600080fd5b8063171b612c1461061a57806317a9c7bd146106235780631d1a7fe814610643578063259239a11461065657806327de9e321461066957600080fd5b80630b1fcfde116104a45780630b1fcfde146105555780630d265df9146105685780631152df0f1461058857806311ef14dd146105b1578063126f648c146105c457806313e7c9d8146105f757600080fd5b8063040308e4146104e15780630713ee7e14610507578063079dc7f41461051c578063083559d31461052f5780630971823f14610542575b600080fd5b6104f46104ef366004614aaa565b610dc5565b6040519081526020015b60405180910390f35b61051a610515366004614c0a565b610e6d565b005b6104f461052a366004614ddb565b6110a6565b6104f461053d366004614afa565b611148565b6104f4610550366004614b67565b611260565b61051a610563366004614d91565b6113bb565b61057b610576366004614c90565b611421565b6040516104fe9190614ea8565b6104f4610596366004614a3a565b600160a060020a031660009081526022602052604090205490565b61051a6105bf366004614c90565b6115c3565b6105e76105d2366004614c90565b600f6020526000908152604090205460ff1681565b60405190151581526020016104fe565b6105e7610605366004614a3a565b60296020526000908152604090205460ff1681565b6104f460055481565b6104f4610631366004614c90565b60186020526000908152604090205481565b6104f4610651366004614b67565b6115f5565b61051a610664366004614bd3565b61168f565b61051a610677366004614c90565b611a40565b6104f461068a366004614c90565b611b65565b6104f461069d366004614a3a565b611b86565b61051a6106b0366004614b67565b611bd7565b61051a6106c3366004614c90565b611ca2565b6104f4600d5481565b6104f46106df366004614a72565b611e59565b6104f46106f2366004614b67565b601560209081526000928352604080842090915290825290205481565b6104f461071d366004614a72565b601e60209081526000928352604080842090915290825290205481565b6104f460035481565b610756610751366004614ddb565b611eda565b60408051948552600160a060020a0393841660208601528401919091521660608201526080016104fe565b61079461078f366004614c90565b611f2c565b6040516104fe9190614f0b565b602a546107b490600160a060020a031681565b604051600160a060020a0390911681526020016104fe565b6104f46107da366004614c90565b60246020526000908152604090205481565b6104f460045481565b6104f4610803366004614a3a565b601b6020526000908152604090205481565b61057b610823366004614c90565b611fc6565b6104f4610836366004614ddb565b601160209081526000928352604080842090915290825290205481565b61051a610861366004614b3a565b612133565b6104f4610874366004614b67565b601460209081526000928352604080842090915290825290205481565b6108a461089f366004614c90565b61218b565b6040516104fe929190614ee9565b600a546107b490600160a060020a031681565b6104f46108d3366004614c90565b60176020526000908152604090205481565b6107b46108f3366004614c90565b61230c565b6105e7610906366004614b67565b602660209081526000928352604080842090915290825290205460ff1681565b6104f4610934366004614afa565b612336565b6104f4610947366004614b67565b6123d2565b61098c61095a366004614afa565b601d60209081526000938452604080852082529284528284209052825290208054600182015460029092015490919083565b604080519384526020840192909252908201526060016104fe565b6104f46109b5366004614a3a565b602080526000908152604090205481565b61051a61249a565b6104f46109dc366004614a3a565b60236020526000908152604090205481565b6104f4602b5481565b61051a610a05366004614bd3565b6124d3565b6104f4601c5481565b600b546107b490600160a060020a031681565b6104f4610a34366004614c0a565b601260209081526000938452604080852082529284528284209052825290205481565b6105e7610a65366004614c90565b60276020526000908152604090205460ff1681565b61051a610a88366004614c0a565b612860565b61051a610a9b366004614d1a565b612a56565b600054600160a060020a03166107b4565b610ac4610abf366004614c90565b612eb2565b6040516104fe929190614ebb565b6104f4610ae0366004614a3a565b60216020526000908152604090205481565b61098c610b00366004614b67565b601f60209081526000928352604080842090915290825290208054600182015460029092015490919083565b61051a610b3a366004614a3a565b61318c565b6104f4610b4d366004614c90565b600c6020526000908152604090205481565b61057b610b6d366004614c90565b6131e8565b602c546107b490600160a060020a031681565b6009546107b490600160a060020a031681565b61051a610ba6366004614c90565b613342565b6104f4610bb9366004614ce4565b602860209081526000938452604080852082529284528284209052825290205481565b6104f4610bea366004614a3a565b613460565b61051a610bfd366004614a3a565b6134da565b6104f460025481565b6105e7610c19366004614c0a565b602560209081526000938452604080852082529284528284209052825290205460ff1681565b6104f4610c4d366004614c90565b60009081526010602052604090205490565b61051a610c6d366004614dfc565b613536565b6104f460065481565b61051a610c89366004614cc0565b6136ab565b6104f4610c9c366004614c90565b60086020526000908152604090205481565b61057b610cbc366004614c90565b61386d565b6104f4610ccf366004614c90565b60196020526000908152604090205481565b6104f460165481565b61051a610cf8366004614c90565b613b36565b6104f4610d0b366004614b67565b613b98565b61051a610d1e366004614b67565b613cb8565b6104f460075481565b6104f460015481565b61051a610d43366004614c90565b613de4565b61051a610d56366004614a3a565b613e16565b61051a610d69366004614b92565b613ece565b6104f4610d7c366004614c0a565b601360209081526000938452604080852082529284528284209052825290205481565b61098c610dad366004614b67565b61412f565b61057b610dc0366004614c90565b614171565b600160a060020a0380831660009081526015602090815260408083208584528252808320548885168452601d835281842094881684529382528083208484528252808320815160608101835281548082526001830154948201949094526002909101549181019190915291929190610e3c42611b65565b610e498360400151611b65565b1015610e62576020820151610e5f90829061424e565b90505b979650505050505050565b600d546000908152600c6020526040902054421015610eaa5760405160e560020a62461bcd028152600401610ea190615010565b60405180910390fd5b600354600d546000908152600c60205260409020544291610ecb919061424e565b1015610eec5760405160e560020a62461bcd028152600401610ea190615047565b600160a060020a038316600090815260156020908152604080832085845290915290205483908390610f335760405160e560020a62461bcd028152600401610ea19061507e565b6000610f3e33613460565b905083811015610f935760405160e560020a62461bcd02815260206004820152601b60248201527f496e73756666696369656e7420626f6e6465642062616c616e636500000000006044820152606401610ea1565b610f9f33878787614261565b600160a060020a0386166000908152601560209081526040808320888452825280832054338452601f8352818420818552909252909120610fdf42611b65565b610fec8260020154611b65565b101561100c57600181015481546110029161424e565b8155600060018201555b600181015461101b908761424e565b600182015542600282015533600090815260208052604090205461103f908761424e565b3360009081526020808052604080832093909355601e8152828220600954600160a060020a0316835290522054611076908761424e565b336000908152601e60209081526040808320600954600160a060020a031684529091529020555050505050505050565b600080805b60008581526010602052604090205481101561113e5760008581526010602052604081208054839081106110f25760e060020a634e487b7102600052603260045260246000fd5b6000918252602080832060049092029091015487835260118252604080842082855290925291205490915061112890849061424e565b925050808061113690615324565b9150506110ab565b5090505b92915050565b60008061115442611b65565b90506000611163600d54614171565b600160a060020a0386166000908152601560209081526040808320888452909152812054919250805b835181101561125457848482815181106111b95760e060020a634e487b7102600052603260045260246000fd5b60200260200101511161124257600160a060020a0389166000908152601260205260408120855161123f92908790859081106112085760e060020a634e487b7102600052603260045260246000fd5b602002602001015181526020019081526020016000206000858152602001908152602001600020548361424e90919063ffffffff16565b91505b8061124c81615324565b91505061118c565b50979650505050505050565b60008061126c83614171565b9050600061127984611fc6565b905060008061128742611b65565b905060005b84518110156113af57818582815181106112b95760e060020a634e487b7102600052603260045260246000fd5b6020026020010151106112cb576113af565b600061138d670de0b6b3a76400006113878785815181106112ff5760e060020a634e487b7102600052603260045260246000fd5b6020026020010151601360008e600160a060020a0316600160a060020a0316815260200190815260200160002060008d815260200190815260200160002060008b88815181106113625760e060020a634e487b7102600052603260045260246000fd5b60200260200101518152602001908152602001600020546144b090919063ffffffff16565b906144bc565b9050611399848261424e565b93505080806113a790615324565b91505061128c565b50909695505050505050565b3360009081526029602052604090205460ff16806113e35750600054600160a060020a031633145b6114025760405160e560020a62461bcd028152600401610ea190615121565b6000838152600e6020526040902061141b908383614918565b50505050565b6000818152601060209081526040808320805482518185028101850190935280835260609493849084015b828210156114b0576000848152602090819020604080516080810182526004860290920180548352600180820154600160a060020a03908116858701526002830154938501939093526003909101549091166060830152908352909201910161144c565b505050509050805167ffffffffffffffff8111156114e15760e060020a634e487b7102600052604160045260246000fd5b60405190808252806020026020018201604052801561150a578160200160208202803683370190505b5091506000806115198561218b565b909250905080156115bb5760005b83518110156115b95761157982611387670de0b6b3a76400008685815181106115635760e060020a634e487b7102600052603260045260246000fd5b60200260200101516144b090919063ffffffff16565b85828151811061159c5760e060020a634e487b7102600052603260045260246000fd5b6020908102919091010152806115b181615324565b915050611527565b505b505050919050565b600054600160a060020a031633146115f05760405160e560020a62461bcd028152600401610ea1906150ec565b600255565b600160a060020a03821660009081526015602090815260408083208484528252808320548352601982528083205480845260179092528220541561168557600081815260176020908152604080832054600654600160a060020a0389168552601584528285208886528452828520548552601890935292205461167d929161138791906144b0565b915050611142565b6000915050611142565b816000805b601a548110156117025782600160a060020a0316601a82815481106116cc5760e060020a634e487b7102600052603260045260246000fd5b600091825260209091200154600160a060020a031614156116f05760019150611702565b806116fa81615324565b915050611694565b50806117535760405160e560020a62461bcd02815260206004820152601260248201527f496e76616c696420566f746520546f6b656e00000000000000000000000000006044820152606401610ea1565b600d546000908152600c60205260409020544210156117875760405160e560020a62461bcd028152600401610ea190615010565b600354600d546000908152600c602052604090205442916117a8919061424e565b10156117c95760405160e560020a62461bcd028152600401610ea190615047565b600160a060020a0386166000908152601560209081526040808320888452909152902054869086906118105760405160e560020a62461bcd028152600401610ea19061507e565b600085116118335760405160e560020a62461bcd028152600401610ea1906150b5565b600061183f87876144c8565b905061184d338a8a84614261565b6040517f23b872dd00000000000000000000000000000000000000000000000000000000815233600482015230602482015260448101879052600160a060020a038816906323b872dd90606401602060405180830381600087803b1580156118b457600080fd5b505af11580156118c8573d6000803e3d6000fd5b505050506040513d601f19601f820116820180604052508101906118ec9190614c74565b50600d5460009081526028602090815260408083203384528252808320600160a060020a038b168452909152902054611925908761424e565b600d54600090815260286020908152604080832033808552908352818420600160a060020a038d811680875291855283862096909655948e168452601583528184208d8552835281842054908452601d8352818420948452938252808320848452909152902061199442611b65565b6119a18260020154611b65565b10156119c157600181015481546119b79161424e565b8155600060018201555b60018101546119d0908961424e565b6001820155426002820155336000908152601e60209081526040808320600160a060020a038d168452909152902054611a09908961424e565b336000908152601e60209081526040808320600160a060020a039d909d1683529b9052999099209890985550505050505050505050565b6000611a4b33613460565b905081811015611aa05760405160e560020a62461bcd02815260206004820152601b60248201527f496e73756666696369656e7420626f6e6465642062616c616e636500000000006044820152606401610ea1565b336000818152602260209081526040808320815160608101835287815242818501908152818401868152835460018181018655948852868820935160039091029093019283559051928201929092559051600290910155928252602390522054611b0a908361424e565b33600081815260236020526040908190209290925590517f7659747cd8571f1071eea946fdc648adcf181cad916f32a05f82c3a52597604890611b599085904290918252602082015260400190565b60405180910390a25050565b6000611142611b7f6001548461465e90919063ffffffff16565b839061466a565b60008060015b600d548111611bd057611bbc611ba28583613b98565b611bb6611baf8785611260565b859061424e565b9061424e565b915080611bc881615324565b915050611b8c565b5092915050565b600054600160a060020a03163314611c045760405160e560020a62461bcd028152600401610ea1906150ec565b6040517fa9059cbb00000000000000000000000000000000000000000000000000000000815233600482015260248101829052600160a060020a0383169063a9059cbb90604401602060405180830381600087803b158015611c6557600080fd5b505af1158015611c79573d6000803e3d6000fd5b505050506040513d601f19601f82011682018060405250810190611c9d9190614c74565b505050565b336000908152602260205260408120805483908110611cd45760e060020a634e487b7102600052603260045260246000fd5b906000526020600020906003020190506000611d0b600154611387611cfc8560010154611b65565b611d0542611b65565b9061466a565b9050603c811115611d1a5750603c5b6000611d38603c6113878560000154856144b090919063ffffffff16565b90506000611d5384600201548361466a90919063ffffffff16565b60028501839055600a546040517fc8773af200000000000000000000000000000000000000000000000000000000815233600482015260248101839052919250600091600160a060020a039091169063c8773af290604401602060405180830381600087803b158015611dc557600080fd5b505af1158015611dd9573d6000803e3d6000fd5b505050506040513d601f19601f82011682018060405250810190611dfd9190614ca8565b9050818114611e515760405160e560020a62461bcd02815260206004820152601d60248201527f496e73756666696369656e742074726561737572792062616c616e63650000006044820152606401610ea1565b505050505050565b60008060015b600d54811161113e576003546000828152600c60205260409020544291611e8591615158565b1015611ec8576000818152602860209081526040808320600160a060020a03808a1685529083528184209088168452909152902054611ec590839061424e565b91505b80611ed281615324565b915050611e5f565b60106020528160005260406000208181548110611ef657600080fd5b60009182526020909120600490910201805460018201546002830154600390930154919450600160a060020a0390811693501684565b600e6020526000908152604090208054611f45906152ec565b80601f0160208091040260200160405190810160405280929190818152602001828054611f71906152ec565b8015611fbe5780601f10611f9357610100808354040283529160200191611fbe565b820191906000526020600020905b815481529060010190602001808311611fa157829003601f168201915b505050505081565b60606000611fd383614171565b90506000611fe084612eb2565b915050815167ffffffffffffffff81111561200e5760e060020a634e487b7102600052604160045260246000fd5b604051908082528060200260200182016040528015612037578160200160208202803683370190505b50925060005b82518110156115bb5761204f42611b65565b8382815181106120725760e060020a634e487b7102600052603260045260246000fd5b60200260200101511115612085576115bb565b60006120bb868584815181106120ae5760e060020a634e487b7102600052603260045260246000fd5b60200260200101516110a6565b90508015612120576120f0816113876005548686815181106115635760e060020a634e487b7102600052603260045260246000fd5b8583815181106121135760e060020a634e487b7102600052603260045260246000fd5b6020026020010181815250505b508061212b81615324565b91505061203d565b600054600160a060020a031633146121605760405160e560020a62461bcd028152600401610ea1906150ec565b600160a060020a03919091166000908152602960205260409020805460ff1916911515919091179055565b6000818152601060205260408120546060919067ffffffffffffffff8111156121c75760e060020a634e487b7102600052604160045260246000fd5b6040519080825280602002602001820160405280156121f0578160200160208202803683370190505b50915060005b60008481526010602052604090205481101561230657600b546000858152600e602052604080822090517fe3c6623d0000000000000000000000000000000000000000000000000000000081529192600160a060020a03169163e3c6623d91612263918690600401614f5e565b60606040518083038186803b15801561227b57600080fd5b505afa15801561228f573d6000803e3d6000fd5b505050506040513d601f19601f820116820180604052508101906122b39190614c3e565b92505050808483815181106122db5760e060020a634e487b7102600052603260045260246000fd5b60209081029190910101526122f0838261424e565b92505080806122fe90615324565b9150506121f6565b50915091565b601a818154811061231c57600080fd5b600091825260209091200154600160a060020a0316905081565b600160a060020a0380831660009081526015602090815260408083208584528252808320549387168352601f825280832084845282528083208151606081018352815480825260018301549482019490945260029091015491810191909152919291906123a242611b65565b6123af8360400151611b65565b10156123c85760208201516123c590829061424e565b90505b9695505050505050565b6000806123de42611b65565b905060006123ed600d54614171565b600160a060020a0386166000908152601560209081526040808320888452909152812054919250805b835181101561248f57848482815181106124435760e060020a634e487b7102600052603260045260246000fd5b60200260200101511161247d5761247a601160008684815181106112085760e060020a634e487b7102600052603260045260246000fd5b91505b8061248781615324565b915050612416565b509695505050505050565b600054600160a060020a031633146124c75760405160e560020a62461bcd028152600401610ea1906150ec565b6124d16000614676565b565b816000805b601a548110156125465782600160a060020a0316601a82815481106125105760e060020a634e487b7102600052603260045260246000fd5b600091825260209091200154600160a060020a031614156125345760019150612546565b8061253e81615324565b9150506124d8565b50806125975760405160e560020a62461bcd02815260206004820152601260248201527f496e76616c696420566f746520546f6b656e00000000000000000000000000006044820152606401610ea1565b600160a060020a0386166000908152601560209081526040808320888452909152902054869086906125de5760405160e560020a62461bcd028152600401610ea19061507e565b600085116126015760405160e560020a62461bcd028152600401610ea1906150b5565b600061260f33888b8b610dc5565b9050858110156126645760405160e560020a62461bcd02815260206004820152601460248201527f496e73756666696369656e742062616c616e63650000000000000000000000006044820152606401610ea1565b600061267088886144c8565b905061267e338b8b846146d3565b6040517fa9059cbb00000000000000000000000000000000000000000000000000000000815233600482015260248101889052600160a060020a0389169063a9059cbb90604401602060405180830381600087803b1580156126df57600080fd5b505af11580156126f3573d6000803e3d6000fd5b505050506040513d601f19601f820116820180604052508101906127179190614c74565b50600d5460009081526028602090815260408083203384528252808320600160a060020a038c168452909152902054612750908861466a565b600d54600090815260286020908152604080832033808552908352818420600160a060020a038e811680875291855283862096909655948f168452601583528184208e8552835281842054908452601d835281842094845293825280832084845290915290206127bf42611b65565b6127cc8260020154611b65565b10156127ec57600181015481546127e29161424e565b8155600060018201555b80546127f8908a61466a565b8155336000908152601e60209081526040808320600160a060020a038e168452909152902054612828908a61466a565b336000908152601e60209081526040808320600160a060020a039e909e1683529c90529a909a20999099555050505050505050505050565b600d546000908152600c60205260409020544210156128945760405160e560020a62461bcd028152600401610ea190615010565b600354600d546000908152600c602052604090205442916128b5919061424e565b10156128d65760405160e560020a62461bcd028152600401610ea190615047565b600160a060020a03831660009081526015602090815260408083208584529091529020548390839061291d5760405160e560020a62461bcd028152600401610ea19061507e565b600061292a338787612336565b90508381101561297f5760405160e560020a62461bcd02815260206004820152601e60248201527f496e73756666696369656e7420756e766f7461626c652062616c616e636500006044820152606401610ea1565b61298b338787876146d3565b600160a060020a0386166000908152601560209081526040808320888452825280832054338452601f83528184208185529092529091206129cb42611b65565b6129d88260020154611b65565b10156129f857600181015481546129ee9161424e565b8155600060018201555b8054612a04908761466a565b8155336000908152602080526040902054612a1f908761466a565b3360009081526020808052604080832093909355601e8152828220600954600160a060020a0316835290522054611076908761466a565b3360009081526029602052604090205460ff1680612a7e5750600054600160a060020a031633145b612a9d5760405160e560020a62461bcd028152600401610ea190615121565b828114612aef5760405160e560020a62461bcd02815260206004820152600e60248201527f496e76616c696420706172616d730000000000000000000000000000000000006044820152606401610ea1565b6000858152601060205260408120905b84811015612ea95760156000878784818110612b2e5760e060020a634e487b7102600052603260045260246000fd5b9050602002016020810190612b439190614a3a565b600160a060020a0316600160a060020a031681526020019081526020016000206000858584818110612b885760e060020a634e487b7102600052603260045260246000fd5b90506020020135815260200190815260200160002054600014612bf05760405160e560020a62461bcd02815260206004820152601260248201527f4e465420686173206265656e20616464656400000000000000000000000000006044820152606401610ea1565b60168054906000612c0083615324565b919050555060165460156000888885818110612c2f5760e060020a634e487b7102600052603260045260246000fd5b9050602002016020810190612c449190614a3a565b600160a060020a0316600160a060020a031681526020019081526020016000206000868685818110612c895760e060020a634e487b7102600052603260045260246000fd5b905060200201358152602001908152602001600020819055506000868683818110612cc75760e060020a634e487b7102600052603260045260246000fd5b9050602002016020810190612cdc9190614a3a565b600160a060020a0316636352211e868685818110612d0d5760e060020a634e487b7102600052603260045260246000fd5b905060200201356040518263ffffffff1660e060020a028152600401612d3591815260200190565b60206040518083038186803b158015612d4d57600080fd5b505afa158015612d61573d6000803e3d6000fd5b505050506040513d601f19601f82011682018060405250810190612d859190614a56565b90508260405180608001604052806016548152602001898986818110612dbe5760e060020a634e487b7102600052603260045260246000fd5b9050602002016020810190612dd39190614a3a565b600160a060020a03168152602001878786818110612e045760e060020a634e487b7102600052603260045260246000fd5b60209081029290920135835250600160a060020a03948516918101919091528254600181810185556000948552828520845160049093020191825583830151908201805491871673ffffffffffffffffffffffffffffffffffffffff1992831617905560408085015160028401556060909401516003909201805492909616911617909355601654825260199092522087905580612ea181615324565b915050612aff565b50505050505050565b6060806000612ec084614171565b9050805167ffffffffffffffff811115612eed5760e060020a634e487b7102600052604160045260246000fd5b604051908082528060200260200182016040528015612f16578160200160208202803683370190505b509250805167ffffffffffffffff811115612f445760e060020a634e487b7102600052604160045260246000fd5b604051908082528060200260200182016040528015612f6d578160200160208202803683370190505b50915060005b8151811015613185576000612fa5868484815181106120ae5760e060020a634e487b7102600052603260045260246000fd5b600087815260086020526040902054909150612fcd9061138783670de0b6b3a76400006144b0565b858381518110612ff05760e060020a634e487b7102600052603260045260246000fd5b602002602001018181525050670429d069189e00008583815181106130285760e060020a634e487b7102600052603260045260246000fd5b60200260200101511015613073576702c68af0bb1400008483815181106130625760e060020a634e487b7102600052603260045260246000fd5b602002602001018181525050613172565b670429d069189e000085838151811061309f5760e060020a634e487b7102600052603260045260246000fd5b6020026020010151101580156130e657506709b6e64a8ec600008583815181106130dc5760e060020a634e487b7102600052603260045260246000fd5b6020026020010151105b156131395784828151811061310e5760e060020a634e487b7102600052603260045260246000fd5b60200260200101518483815181106130625760e060020a634e487b7102600052603260045260246000fd5b670de0b6b3a76400008483815181106131655760e060020a634e487b7102600052603260045260246000fd5b6020026020010181815250505b508061317d81615324565b915050612f73565b5050915091565b600054600160a060020a031633146131b95760405160e560020a62461bcd028152600401610ea1906150ec565b600b805473ffffffffffffffffffffffffffffffffffffffff1916600160a060020a0392909216919091179055565b60008181526010602052604090205460609067ffffffffffffffff8111156132235760e060020a634e487b7102600052604160045260246000fd5b60405190808252806020026020018201604052801561324c578160200160208202803683370190505b50905060005b60008381526010602052604090205481101561333c576000838152601760205260409020541561332a57600083815260176020908152604080832054600654601090935290832080546132fa949293611387939092601892889081106132cb5760e060020a634e487b7102600052603260045260246000fd5b9060005260206000209060040201600001548152602001908152602001600020546144b090919063ffffffff16565b82828151811061331d5760e060020a634e487b7102600052603260045260246000fd5b6020026020010181815250505b8061333481615324565b915050613252565b50919050565b602c546040517fc7b1e3f200000000000000000000000000000000000000000000000000000000815260048101839052336024820152600091600160a060020a03169063c7b1e3f290604401602060405180830381600087803b1580156133a857600080fd5b505af11580156133bc573d6000803e3d6000fd5b505050506040513d601f19601f820116820180604052508101906133e09190614ca8565b336000908152602160205260409020549091506133fd908261424e565b33600090815260216020908152604080832093909355601e8152828220600954600160a060020a0316835290522054613436908261424e565b336000908152601e60209081526040808320600954600160a060020a031684529091529020555050565b600160a060020a038116600090815260216020526040812054819061348890611bb685611b86565b600160a060020a03841660009081526023602090815260408083205491805282205492935090916134b89161424e565b90508082116134c85760006134d2565b6134d2828261466a565b949350505050565b600054600160a060020a031633146135075760405160e560020a62461bcd028152600401610ea1906150ec565b602a805473ffffffffffffffffffffffffffffffffffffffff1916600160a060020a0392909216919091179055565b3360009081526029602052604090205460ff168061355e5750600054600160a060020a031633145b61357d5760405160e560020a62461bcd028152600401610ea190615121565b600d5415806135ab5750600354600d546000908152600c602052604090205442916135a8919061424e565b11155b6135fa5760405160e560020a62461bcd02815260206004820152601b60248201527f50726576696f75732067726f7570206973206e6f74206f7665722e00000000006044820152606401610ea1565b61360342611b65565b8310156136555760405160e560020a62461bcd02815260206004820152601260248201527f496e76616c69642073746172742074696d6500000000000000000000000000006044820152606401610ea1565b600d805490600061366583615324565b9091555050600d80546000908152600c60209081526040808320879055835483526008825280832088905592548252600e9052206136a4908383614918565b5050505050565b6003546000838152600c602052604090205442916136c891615158565b106137185760405160e560020a62461bcd02815260206004820152601060248201527f566f7465206973206e6f74206f766572000000000000000000000000000000006044820152606401610ea1565b60008281526028602090815260408083203384528252808320600160a060020a0385168452909152902054806137635760405160e560020a62461bcd028152600401610ea1906150b5565b600083815260286020908152604080832033808552908352818420600160a060020a038716808652935281842093909355517fa9059cbb0000000000000000000000000000000000000000000000000000000081526004810192909252602482018390529063a9059cbb90604401602060405180830381600087803b1580156137eb57600080fd5b505af11580156137ff573d6000803e3d6000fd5b505050506040513d601f19601f820116820180604052508101906138239190614c74565b5060408051600160a060020a03841681526020810183905233917fd12200efa34901b99367694174c3b0d32c99585fdf37c7c26892136ddd0836d9910160405180910390a2505050565b6060600061387a83611421565b9050600060106000858152602001908152602001600020805480602002602001604051908101604052809291908181526020016000905b82821015613915576000848152602090819020604080516080810182526004860290920180548352600180820154600160a060020a0390811685870152600283015493850193909352600390910154909116606083015290835290920191016138b1565b505050509050805167ffffffffffffffff8111156139465760e060020a634e487b7102600052604160045260246000fd5b60405190808252806020026020018201604052801561396f578160200160208202803683370190505b509250600061397d85612eb2565b91505060006139da670de0b6b3a764000061138784600186516139a091906152d5565b815181106139c15760e060020a634e487b7102600052603260045260246000fd5b60200260200101516007546144b090919063ffffffff16565b905060005b8351811015613b2c5760186000858381518110613a0f5760e060020a634e487b7102600052603260045260246000fd5b60200260200101516000015181526020019081526020016000205460001415613a68576000868281518110613a575760e060020a634e487b7102600052603260045260246000fd5b602002602001018181525050613b1a565b613aea60186000868481518110613a925760e060020a634e487b7102600052603260045260246000fd5b602002602001015160000151815260200190815260200160002054611387878481518110613ad35760e060020a634e487b7102600052603260045260246000fd5b6020026020010151856144b090919063ffffffff16565b868281518110613b0d5760e060020a634e487b7102600052603260045260246000fd5b6020026020010181815250505b80613b2481615324565b9150506139df565b5050505050919050565b3360009081526029602052604090205460ff1680613b5e5750600054600160a060020a031633145b613b7d5760405160e560020a62461bcd028152600401610ea190615121565b6000908152600f60205260409020805460ff19166001179055565b6000818152600f602052604081205460ff16613bb657506000611142565b600080613bc28461386d565b905060005b600085815260106020526040902054811015613cae57600160a060020a038616600090815260146020908152604080832088845260109092528220805483919085908110613c285760e060020a634e487b7102600052603260045260246000fd5b9060005260206000209060040201600001548152602001908152602001600020549050613c9884611bb6670de0b6b3a7640000611387878781518110613c815760e060020a634e487b7102600052603260045260246000fd5b6020026020010151866144b090919063ffffffff16565b9350508080613ca690615324565b915050613bc7565b5090949350505050565b3360009081526029602052604090205460ff1680613ce05750600054600160a060020a031633145b613cff5760405160e560020a62461bcd028152600401610ea190615121565b600160a060020a0382166000908152601b602052604081208290555b601a54811015613d855782600160a060020a0316601a8281548110613d535760e060020a634e487b7102600052603260045260246000fd5b600091825260209091200154600160a060020a03161415613d7357505050565b80613d7d81615324565b915050613d1b565b50601a80546001810182556000919091527f057c384a7d1c54f3a1b2e5e67b2617b8224fdfd1ea7234eea573a6ff665ff63e018054600160a060020a03841673ffffffffffffffffffffffffffffffffffffffff199091161790555050565b600054600160a060020a03163314613e115760405160e560020a62461bcd028152600401610ea1906150ec565b602b55565b600054600160a060020a03163314613e435760405160e560020a62461bcd028152600401610ea1906150ec565b600160a060020a038116613ec25760405160e560020a62461bcd02815260206004820152602660248201527f4f776e61626c653a206e6577206f776e657220697320746865207a65726f206160448201527f64647265737300000000000000000000000000000000000000000000000000006064820152608401610ea1565b613ecb81614676565b50565b602a54600160a060020a03163314613f2b5760405160e560020a62461bcd02815260206004820152600960248201527f466f7262696464656e00000000000000000000000000000000000000000000006044820152606401610ea1565b600160a060020a03831660009081526015602090815260408083208584528252808320548084526019835281842054602790935292205460ff1615613fb55760405160e560020a62461bcd02815260206004820152600760248201527f436c61696d6564000000000000000000000000000000000000000000000000006044820152606401610ea1565b6000805b6000838152601060205260409020548110156140675760008381526010602052604090208054859190839081106140035760e060020a634e487b7102600052603260045260246000fd5b906000526020600020906004020160000154141561405557614024836131e8565b81815181106140465760e060020a634e487b7102600052603260045260246000fd5b60200260200101519150614067565b8061405f81615324565b915050613fb9565b508015611e5157600a546040517fc8773af2000000000000000000000000000000000000000000000000000000008152600160a060020a038681166004830152602482018490529091169063c8773af290604401602060405180830381600087803b1580156140d557600080fd5b505af11580156140e9573d6000803e3d6000fd5b505050506040513d601f19601f8201168201806040525081019061410d9190614ca8565b506000838152602760205260409020805460ff19166001179055505050505050565b6022602052816000526040600020818154811061414b57600080fd5b600091825260209091206003909102018054600182015460029092015490935090915083565b6000818152600c60205260409020546002546060919067ffffffffffffffff8111156141b05760e060020a634e487b7102600052604160045260246000fd5b6040519080825280602002602001820160405280156141d9578160200160208202803683370190505b50915060006141e782611b65565b905060005b6002548110156115bb5761420e600154826142079190615275565b839061424e565b8482815181106142315760e060020a634e487b7102600052603260045260246000fd5b60209081029190910101528061424681615324565b9150506141ec565b600061425a8284615158565b9392505050565b600061426c42611b65565b9050600061427b600d54614171565b600160a060020a03861660009081526015602090815260408083208884529091528120549192505b82518110156144a657838382815181106142d05760e060020a634e487b7102600052603260045260246000fd5b6020026020010151106144945760008382815181106143025760e060020a634e487b7102600052603260045260246000fd5b60209081029190910181015160008181526011835260408082208783529093529190912054909150614334908761424e565b6000828152601160209081526040808320878452825280832093909355600160a060020a038c1682526012815282822084835281528282208683529052205461437d908761424e565b600160a060020a038a166000818152601260209081526040808320868452825280832088845282528083209490945591815260138252828120600d548252825282812084825290915220546143d2908761424e565b600160a060020a038a166000818152601360209081526040808320600d548452825280832086845282528083209490945591815260148252828120868252909152205461441f908761424e565b600160a060020a038a166000908152601460209081526040808320878452825280832093909355601890522054614456908761424e565b600084815260186020908152604080832093909355600d548252601790522054614480908761424e565b600d54600090815260176020526040902055505b8061449e81615324565b9150506142a3565b5050505050505050565b600061425a8284615275565b600061425a8284615170565b600080600960009054906101000a9004600160a060020a0316600160a060020a031663313ce5676040518163ffffffff1660e060020a02815260040160206040518083038186803b15801561451c57600080fd5b505afa158015614530573d6000803e3d6000fd5b505050506040513d601f19601f820116820180604052508101906145549190614e4d565b84600160a060020a031663313ce5676040518163ffffffff1660e060020a02815260040160206040518083038186803b15801561459057600080fd5b505afa1580156145a4573d6000803e3d6000fd5b505050506040513d601f19601f820116820180604052508101906145c89190614e4d565b6145d29190615294565b905060008160000b126146165761167d6145ed82600a6151c9565b601c54600160a060020a0387166000908152601b602052604090205461138791908290886144b0565b61167d61462282615353565b61462d90600a6151c9565b601c54600160a060020a0387166000908152601b6020526040902054614658919061138790886144b0565b906144b0565b600061425a828461533f565b600061425a82846152d5565b60008054600160a060020a0383811673ffffffffffffffffffffffffffffffffffffffff19831681178455604051919092169283917f8be0079c531659141344cd1fd0a4f28419497f9722a3daafe3b4186f6b6457e09190a35050565b60006146de42611b65565b905060006146ed600d54614171565b600160a060020a03861660009081526015602090815260408083208884529091528120549192505b82518110156144a657838382815181106147425760e060020a634e487b7102600052603260045260246000fd5b6020026020010151106149065760008382815181106147745760e060020a634e487b7102600052603260045260246000fd5b602090810291909101810151600081815260118352604080822087835290935291909120549091506147a6908761466a565b6000828152601160209081526040808320878452825280832093909355600160a060020a038c168252601281528282208483528152828220868352905220546147ef908761466a565b600160a060020a038a166000818152601260209081526040808320868452825280832088845282528083209490945591815260138252828120600d54825282528281208482529091522054614844908761466a565b600160a060020a038a166000818152601360209081526040808320600d5484528252808320868452825280832094909455918152601482528281208682529091522054614891908761466a565b600160a060020a038a1660009081526014602090815260408083208784528252808320939093556018905220546148c8908761466a565b600084815260186020908152604080832093909355600d5482526017905220546148f2908761466a565b600d54600090815260176020526040902055505b8061491081615324565b915050614715565b828054614924906152ec565b90600052602060002090601f016020900481019282614946576000855561498c565b82601f1061495f5782800160ff1982351617855561498c565b8280016001018555821561498c579182015b8281111561498c578235825591602001919060010190614971565b5061499892915061499c565b5090565b5b80821115614998576000815560010161499d565b60008083601f8401126149c2578182fd5b50813567ffffffffffffffff8111156149d9578182fd5b60208301915083602080830285010111156149f357600080fd5b9250929050565b60008083601f840112614a0b578182fd5b50813567ffffffffffffffff811115614a22578182fd5b6020830191508360208285010111156149f357600080fd5b600060208284031215614a4b578081fd5b813561425a816153a3565b600060208284031215614a67578081fd5b815161425a816153a3565b60008060408385031215614a84578081fd5b8235614a8f816153a3565b91506020830135614a9f816153a3565b809150509250929050565b60008060008060808587031215614abf578182fd5b8435614aca816153a3565b93506020850135614ada816153a3565b92506040850135614aea816153a3565b9396929550929360600135925050565b600080600060608486031215614b0e578283fd5b8335614b19816153a3565b92506020840135614b29816153a3565b929592945050506040919091013590565b60008060408385031215614b4c578182fd5b8235614b57816153a3565b91506020830135614a9f816153b8565b60008060408385031215614b79578182fd5b8235614b84816153a3565b946020939093013593505050565b600080600060608486031215614ba6578283fd5b8335614bb1816153a3565b9250602084013591506040840135614bc8816153a3565b809150509250925092565b60008060008060808587031215614be8578384fd5b8435614bf3816153a3565b9350602085013592506040850135614aea816153a3565b600080600060608486031215614c1e578283fd5b8335614c29816153a3565b95602085013595506040909401359392505050565b600080600060608486031215614c52578283fd5b8351614c5d816153a3565b602085015160409095015190969495509392505050565b600060208284031215614c85578081fd5b815161425a816153b8565b600060208284031215614ca1578081fd5b5035919050565b600060208284031215614cb9578081fd5b5051919050565b60008060408385031215614cd2578182fd5b823591506020830135614a9f816153a3565b600080600060608486031215614cf8578081fd5b833592506020840135614d0a816153a3565b91506040840135614bc8816153a3565b600080600080600060608688031215614d31578283fd5b85359450602086013567ffffffffffffffff80821115614d4f578485fd5b614d5b89838a016149b1565b90965094506040880135915080821115614d73578283fd5b50614d80888289016149b1565b969995985093965092949392505050565b600080600060408486031215614da5578081fd5b83359250602084013567ffffffffffffffff811115614dc2578182fd5b614dce868287016149fa565b9497909650939450505050565b60008060408385031215614ded578182fd5b50508035926020909101359150565b60008060008060608587031215614e11578182fd5b8435935060208501359250604085013567ffffffffffffffff811115614e35578283fd5b614e41878288016149fa565b95989497509550505050565b600060208284031215614e5e578081fd5b815160ff8116811461425a578182fd5b6000815180845260208085019450808401835b83811015614e9d57815187529582019590820190600101614e81565b509495945050505050565b60208152600061425a6020830184614e6e565b604081526000614ece6040830185614e6e565b8281036020840152614ee08185614e6e565b95945050505050565b604081526000614efc6040830185614e6e565b90508260208301529392505050565b6000602080835283518082850152825b81811015614f3757858101830151858201604001528201614f1b565b81811115614f485783604083870101525b50601f01601f1916929092016040019392505050565b604081528254600090819060028104600180831680614f7e57607f831692505b6020808410821415614fa15760e060020a634e487b710287526022600452602487fd5b6040880184905260608801828015614fc05760018114614fd157614ffb565b60ff19871682528282019750614ffb565b60008c815260209020895b87811015614ff557815484820152908601908401614fdc565b83019850505b50509690960196909652509095945050505050565b60208082526013908201527f566f74696e67206973206e6f7420737461727400000000000000000000000000604082015260600190565b6020808252600e908201527f566f74696e67206973206f766572000000000000000000000000000000000000604082015260600190565b6020808252600b908201527f496e76616c6964204e4654000000000000000000000000000000000000000000604082015260600190565b6020808252600e908201527f416d6f756e74206973207a65726f000000000000000000000000000000000000604082015260600190565b6020808252818101527f4f776e61626c653a2063616c6c6572206973206e6f7420746865206f776e6572604082015260600190565b6020808252600c908201527f4e6f74206f70657261746f720000000000000000000000000000000000000000604082015260600190565b6000821982111561516b5761516b615371565b500190565b60008261517f5761517f61538a565b500490565b600181815b808511156151c15781600019048211156151a5576151a5615371565b808516156151b257918102915b60029094049390800290615189565b509250929050565b600061425a60ff8416836000826151e257506001611142565b816151ef57506000611142565b8160018114615205576002811461520f5761522c565b6001915050611142565b60ff84111561522057615220615371565b8360020a915050611142565b5060208310610133831016604e8410600b841016171561524f575081810a611142565b6152598383615184565b806000190482111561526d5761526d615371565b029392505050565b600081600019048311821515161561528f5761528f615371565b500290565b600081810b83820b8281128015607f198301841216156152b6576152b6615371565b81607f0183138116156152cb576152cb615371565b5090039392505050565b6000828210156152e7576152e7615371565b500390565b60028104600182168061530057607f821691505b6020821081141561333c5760e060020a634e487b7102600052602260045260246000fd5b600060001982141561533857615338615371565b5060010190565b60008261534e5761534e61538a565b500690565b600081810b607f1981141561536a5761536a615371565b9003919050565b60e060020a634e487b7102600052601160045260246000fd5b60e060020a634e487b7102600052601260045260246000fd5b600160a060020a0381168114613ecb57600080fd5b8015158114613ecb57600080fdfea26469706673582212206c6ec9a6a73ecbbf3b52673f378d4b5862ca1bad887ddaf500ac759f3864773f64736f6c63430008040033",
  "immutableReferences": {},
  "source": "// SPDX-License-Identifier: MIT\npragma solidity ^0.8.0;\n\nimport \"@openzeppelin/contracts/access/Ownable.sol\";\nimport \"@openzeppelin/contracts/utils/math/SafeMath.sol\";\nimport \"@openzeppelin/contracts/token/ERC20/IERC20.sol\";\nimport \"@openzeppelin/contracts/token/ERC721/IERC721.sol\";\nimport \"@openzeppelin/contracts/token/ERC20/extensions/IERC20Metadata.sol\";\n\n\ninterface ITreasury {\n\tfunction sendRewards(address to, uint256 amount) external returns(uint256 val);\n\tfunction uink() external view returns(address);\n}\n\ninterface IAuction {\n\tfunction matchResults(string calldata matchId, uint index) external view returns(address, uint, uint);\n}\n\ninterface ITokenLocker {\n\tfunction subLockForVote(uint256 lockId, address accountAddress) external returns(uint);\n}\n\n\ncontract VoteMining is Ownable {\n\tusing SafeMath for uint256;\n\n\tuint public VOTE_TIME_UNIT = 1 days;\n\tuint public VOTE_DAYS = 14;\n\tuint public VOTE_DURATION = VOTE_DAYS * VOTE_TIME_UNIT;\n\n\tuint public weeklyCap = 400000 * 1e12;\n\tuint public dailyVoteRewardCap = weeklyCap / VOTE_DAYS / 4; // 25% of daily cap \n\tuint public mintRewardCap = weeklyCap / 4; // 25% of daily cap \n\tuint public bonusCap = weeklyCap  / 2; // 50% of weekly cap\n\t// group id => amount\n\tmapping (uint => uint) public stakingBases;\n\n\n\taddress public uink;\n\tITreasury public treasury;\n\taddress public auction;\n\n\tstruct NFT {\n\t\tuint uid;\n\t\taddress addr;\n\t\tuint id;\n\t\taddress owner;\n\t}\n\t// id => start time\n\tmapping (uint => uint) public groups;\n\tuint public currentGroupId = 0;\n\t// group id => matchId\n\tmapping (uint => string) public matches;\n\t// group id => finished or not\n\tmapping (uint => bool) public hasFinished;\n\t\n\t\n\t// group id => NFT[]\n\tmapping (uint => NFT[]) public groupNFTs;\n\n\t// date => NFT uid => votes\n\tmapping (uint => mapping (uint => uint)) public dayVotes;\n\n\t// user => date => NFT id => amount\n\tmapping (address => mapping (uint => mapping (uint => uint))) public userVotes;\n\n\t// user => groupId => date => votes\n\tmapping (address => mapping (uint => mapping (uint => uint))) public userDailyVotes;\n\n\t// user => nft uid => votes \n\tmapping (address => mapping (uint => uint)) public userNFTVotes;\n\t\n\n\t// nft address => nftId => internal id\n\tmapping (address => mapping (uint => uint)) public nfts;\n\tuint public nextNFTId = 0;\n\n\t// group id => votes\n\tmapping (uint => uint) public groupVotes;\n\n\t// uid => votes\n\tmapping (uint => uint) public nftVotes;\n\n\t// date => votes\n\t// mapping (uint => uint) public dailyTotalVotes;\n\t\n\n\t// uid => group id\n\tmapping (uint => uint) public nftGroup;\n\t\n\taddress[] public voteTokens;\n\t// token => ratio\n\tmapping (address => uint) public voteRatio;\n\n\tuint public voteRatioMax = 10000;\n\t\n\n\tstruct Balance {\n\t\tuint available;\n\t\tuint freezed;\n\t\tuint votedAt;\n\t}\n\n\tstruct UnbondingBalance {\n\t\tuint value;\n\t\tuint unbondedAt;\n\t\tuint redeemed;\n\t}\n\n\t// user => token => uid => Balance\n\tmapping (address => mapping (address => mapping (uint => Balance))) public balances;\n\n\t// user => token => balance\n\tmapping (address => mapping (address => uint)) public userTokenBalances;\n\n\t// user => uid => Balance\n\tmapping (address => mapping (uint => Balance)) public votedBalances; // bonded => voted \n\t\n\t// user => voted amount\n\tmapping (address => uint) public totalVotedBalances;\n\n\t// user => bonded amount\n\tmapping (address => uint) public bondedBalances;\n\n\t// user => UnbondingBalance[]\n\tmapping (address => UnbondingBalance[]) public unbondingBalances;\n\t\n\t// user => total unbonded amount\n\tmapping (address => uint) public unbondedBalances;\n\t\n\n\t// uid => price\n\tmapping (uint => uint) public nftTradedPrices;\n\t// user => group => date => bool\n\tmapping (address => mapping (uint => mapping (uint => bool))) public voteRewardsClaimed;\n\t// user = > group id => bool\n\tmapping (address => mapping (uint => bool)) public bonusRewardsClaimed;\n\t// nft uid => bool\n\tmapping (uint => bool) public mintRewardsClaimed;\n\n\t// groupId => user => token => balance\n\tmapping (uint => mapping (address => mapping (address => uint))) public groupTokenBalances;\n\t\t\n\n\tmapping (address => bool) public operators;\n\n\taddress public pinAddress;\n\n\tuint public tokenLockId = 0;\n\n\taddress public tokenLocker;\n\n\tevent Redeem(address indexed user, address token, uint amount);\n\tevent Unbond(address indexed user, uint amount, uint at);\n\n\t\n\n\tmodifier checkNFT(address nftAddr, uint nftId) { \n\t\trequire(nfts[nftAddr][nftId] > 0, \"Invalid NFT\");\n\t\t_; \n\t}\n\n\tmodifier onlyPin() { \n\t\trequire(msg.sender == pinAddress, \"Forbidden\"); \n\t\t_; \n\t}\n\n\tmodifier onlyOperator() { \n\t\trequire (operators[msg.sender] || owner() == _msgSender(), \"Not operator\"); \n\t\t_; \n\t}\n\t\n\t\n\n\tmodifier checkVotingTime() { \n\t\trequire(groups[currentGroupId] <= block.timestamp, \"Voting is not start\");\n\t\trequire(groups[currentGroupId].add(VOTE_DURATION) >= block.timestamp, \"Voting is over\");\n\t\t_; \n\t}\n\n\tmodifier checkVoteToken(address _token) { \n\t\tbool isValid = false;\n\t\tfor(uint i = 0; i < voteTokens.length; i++) {\n\t\t\tif(voteTokens[i] == _token) {\n\t\t\t\tisValid = true;\n\t\t\t\tbreak;\n\t\t\t}\n\t\t}\n\t\trequire(isValid, \"Invalid Vote Token\");\n\t\t_; \n\t}\n\n\tconstructor(address _treasury, address _tokenLocker){\n\t\ttreasury = ITreasury(_treasury);\n\t\tuink = treasury.uink();\n\t\ttokenLocker = _tokenLocker;\n\n\t\tvoteTokens.push(uink);\n\t\tvoteRatio[uink] = voteRatioMax;\n\t}\n\n\tfunction addVoteToken(address _token, uint _ratio) external onlyOperator {\n\t\tvoteRatio[_token] = _ratio;\n\t\tfor(uint i = 0; i < voteTokens.length; i++) {\n\t\t\tif(voteTokens[i] == _token) {\n\t\t\t\treturn;\n\t\t\t}\n\t\t}\n\t\tvoteTokens.push(_token);\n\t}\n\n\tfunction setAuctionAddress(address _auction) external onlyOwner {\n\t\tauction = _auction;\n\t}\n\n\tfunction setPinAddress(address _pin) external onlyOwner {\n\t\tpinAddress = _pin;\n\t}\n\n\tfunction setTokenLockId(uint lockId) external onlyOwner {\n\t\ttokenLockId = lockId;\n\t}\n\n\tfunction setOperator(address operator, bool isOperator) external onlyOwner {\n\t\toperators[operator] = isOperator;\n\t}\n\n\tfunction setVoteDays(uint _days) external onlyOwner {\n\t\tVOTE_DAYS = _days;\n\t}\n\n\tfunction setMatchId(uint groupId, string calldata matchId) external onlyOperator {\n\t\tmatches[groupId] = matchId;\n\t}\n\n\tfunction addGroup(uint stakingBase, uint startTime, string calldata matchId) external onlyOperator {\n\t\trequire(currentGroupId == 0 || groups[currentGroupId].add(VOTE_DURATION) <= block.timestamp, \"Previous group is not over.\");\n\t\trequire(startTime >= getDate(block.timestamp), \"Invalid start time\");\n\t\tcurrentGroupId++;\n\t\tgroups[currentGroupId] = startTime;\n\t\tstakingBases[currentGroupId] = stakingBase;\n\t\tmatches[currentGroupId] = matchId;\n\t}\n\n\tfunction addNFT(uint groupId, address[] calldata nftAddrs, uint[] calldata nftIds) external onlyOperator {\n\t\trequire(nftAddrs.length == nftIds.length, \"Invalid params\");\n\t\tNFT[] storage inputNFTs = groupNFTs[groupId];\n\n\t\tfor(uint i = 0; i < nftAddrs.length; i++) {\n\t\t\trequire(nfts[nftAddrs[i]][nftIds[i]] == 0, \"NFT has been added\");\n\t\t\tnextNFTId++;\n\t\t\tnfts[nftAddrs[i]][nftIds[i]] = nextNFTId;\n\t\t\taddress nftOwner = IERC721(nftAddrs[i]).ownerOf(nftIds[i]);\n\t\t\tinputNFTs.push(NFT({\n\t\t\t\tuid: nextNFTId,\n\t\t\t\taddr: nftAddrs[i],\n\t\t\t\tid: nftIds[i],\n\t\t\t\towner: nftOwner\n\t\t\t}));\n\t\t\tnftGroup[nextNFTId] = groupId;\n\t\t}\n\t}\n\n\tfunction groupNFTsLength(uint groupId) public view returns(uint256) {\n\t\treturn groupNFTs[groupId].length;\n\t}\n\n\tfunction getAuctionPrices(uint groupId) public view returns(uint[] memory prices, uint totalAmount) {\n\t\tprices = new uint[](groupNFTs[groupId].length);\n\t\tfor(uint i = 0; i < groupNFTs[groupId].length; i++) {\n\t\t\t(,, uint price) = IAuction(auction).matchResults(matches[groupId], i);\n\t\t\tprices[i] = price;\n\t\t\ttotalAmount = totalAmount.add(price);\n\t\t}\n\t}\n\n\t\n\tfunction getDate(uint256 ts) public view returns(uint256) {\n\t\treturn ts.sub(ts.mod(VOTE_TIME_UNIT));\n\t}\n\n\tfunction getVotableDates(uint groupId) public view returns(uint[] memory dates) {\n\t\tuint start = groups[groupId];\n\t\tdates = new uint[](VOTE_DAYS);\n\t\tuint firstDate = getDate(start);\n\t\tfor(uint i = 0; i < VOTE_DAYS; i++) {\n\t\t\tdates[i] = firstDate.add(i * VOTE_TIME_UNIT);\n\t\t}\n\t}\n\n\tfunction _vote(address user, address nftAddr, uint nftId, uint votes) internal {\n\t\tuint today = getDate(block.timestamp);\n\t\tuint[] memory dates = getVotableDates(currentGroupId);\n\t\tuint uid = nfts[nftAddr][nftId];\n\n\t\tfor(uint i = 0; i < dates.length; i++) {\n\t\t\tif(dates[i] >= today) {\n\t\t\t\tuint date = dates[i];\n\t\t\t\tdayVotes[date][uid] = dayVotes[date][uid].add(votes);\n\t\t\t\tuserVotes[user][date][uid] = userVotes[user][date][uid].add(votes);\n\t\t\t\tuserDailyVotes[user][currentGroupId][date] = userDailyVotes[user][currentGroupId][date].add(votes);\n\t\t\t\tuserNFTVotes[user][uid] = userNFTVotes[user][uid].add(votes);\n\t\t\t\t\n\t\t\t\tnftVotes[uid] = nftVotes[uid].add(votes);\n\t\t\t\tgroupVotes[currentGroupId] = groupVotes[currentGroupId].add(votes);\n\t\t\t}\n\t\t}\n\t}\n\n\tfunction getUserNFTVotes(address user, address nftAddr, uint nftId) public view returns(uint256) {\n\t\tuint today = getDate(block.timestamp);\n\t\tuint[] memory dates = getVotableDates(currentGroupId);\n\t\tuint uid = nfts[nftAddr][nftId];\n\t\tuint votes = 0;\n\t\tfor(uint i = 0; i < dates.length; i++) {\n\t\t\tif(dates[i] <= today) {\n\t\t\t\tvotes = votes.add(userVotes[user][dates[i]][uid]);\n\t\t\t}\n\t\t}\n\t\treturn votes;\n\t}\n\n\tfunction getNFTVotes(address nftAddr, uint nftId) public view returns(uint256) {\n\t\tuint today = getDate(block.timestamp);\n\t\tuint[] memory dates = getVotableDates(currentGroupId);\n\t\tuint uid = nfts[nftAddr][nftId];\n\t\t\n\t\tuint votes = 0;\n\t\tfor(uint i = 0; i < dates.length; i++) {\n\t\t\tif(dates[i] <= today) {\n\t\t\t\tvotes = votes.add(dayVotes[dates[i]][uid]);\n\t\t\t}\n\t\t}\n\t\treturn votes;\n\t}\n\n\tfunction _unvote(address user, address nftAddr, uint nftId, uint votes) internal {\n\t\tuint today = getDate(block.timestamp);\n\t\tuint[] memory dates = getVotableDates(currentGroupId);\n\t\tuint uid = nfts[nftAddr][nftId];\n\n\t\tfor(uint i = 0; i < dates.length; i++) {\n\t\t\tif(dates[i] >= today) {\n\t\t\t\tuint date = dates[i];\n\t\t\t\tdayVotes[date][uid] = dayVotes[date][uid].sub(votes);\n\t\t\t\tuserVotes[user][date][uid] = userVotes[user][date][uid].sub(votes);\n\t\t\t\tuserDailyVotes[user][currentGroupId][date] = userDailyVotes[user][currentGroupId][date].sub(votes);\n\t\t\t\tuserNFTVotes[user][uid] = userNFTVotes[user][uid].sub(votes);\n\t\t\t\t\n\t\t\t\tnftVotes[uid] = nftVotes[uid].sub(votes);\n\t\t\t\tgroupVotes[currentGroupId] = groupVotes[currentGroupId].sub(votes);\n\t\t\t}\n\t\t}\n\t}\n\n\tfunction calcVotes(address token, uint amount) internal view returns(uint256) {\n\t\tint8 delta = int8(IERC20Metadata(token).decimals()) - int8(IERC20Metadata(uink).decimals());\n\t\tif(delta >= 0) {\n\t\t\treturn voteRatio[token].mul(amount).div(voteRatioMax).div(10 ** uint8(delta));\n\t\t} else {\n\t\t\treturn voteRatio[token].mul(amount).div(voteRatioMax).mul(10 ** uint8(-delta));\n\t\t}\n\t}\n\n\tfunction getAvailableBalance(address user, address token, address nftAddr, uint nftId) public view returns(uint256) {\n\t\tuint uid = nfts[nftAddr][nftId];\n\t\tBalance memory balance = balances[user][token][uid];\n\t\tuint available = balance.available;\n\t\tif(getDate(balance.votedAt) < getDate(block.timestamp)) {\n\t\t\tavailable = available.add(balance.freezed);\n\t\t}\n\t\treturn available;\n\t}\n\n\t// stake and vote\n\tfunction stake(address nftAddr, uint nftId, address token, uint amount)\n\t\texternal \n\t\tcheckVoteToken(token)\n\t\tcheckVotingTime\n\t\tcheckNFT(nftAddr, nftId)\n\t{\n\t\trequire(amount > 0, \"Amount is zero\");\n\t\tuint votes = calcVotes(token, amount);\n\t\t_vote(msg.sender, nftAddr, nftId, votes);\n\n\t\tIERC20(token).transferFrom(msg.sender, address(this), amount);\n\t\tgroupTokenBalances[currentGroupId][msg.sender][token] = groupTokenBalances[currentGroupId][msg.sender][token].add(amount);\n\n\t\tuint uid = nfts[nftAddr][nftId];\n\n\n\t\tBalance storage balance = balances[msg.sender][token][uid];\n\t\tif(getDate(balance.votedAt) < getDate(block.timestamp)) {\n\t\t\tbalance.available = balance.available.add(balance.freezed);\n\t\t\tbalance.freezed = 0;\n\t\t}\n\t\tbalance.freezed = balance.freezed.add(amount);\n\t\tbalance.votedAt = block.timestamp;\n\n\t\tuserTokenBalances[msg.sender][token] = userTokenBalances[msg.sender][token].add(amount);\n\t}\n\n\tfunction unstake(address nftAddr, uint nftId, address token, uint amount)\n\t\texternal \n\t\tcheckVoteToken(token)\n\t\tcheckNFT(nftAddr, nftId)\n\t{\n\t\trequire(amount > 0, \"Amount is zero\");\n\t\t\n\t\tuint available = getAvailableBalance(msg.sender, token, nftAddr, nftId);\n\t\trequire(available >= amount, \"Insufficient balance\");\n\n\t\tuint votes = calcVotes(token, amount);\n\t\t_unvote(msg.sender, nftAddr, nftId, votes);\n\n\t\tIERC20(token).transfer(msg.sender, amount);\n\n\t\tgroupTokenBalances[currentGroupId][msg.sender][token] = groupTokenBalances[currentGroupId][msg.sender][token].sub(amount);\n\n\t\tuint uid = nfts[nftAddr][nftId];\n\t\tBalance storage balance = balances[msg.sender][token][uid];\n\t\tif(getDate(balance.votedAt) < getDate(block.timestamp)) {\n\t\t\tbalance.available = balance.available.add(balance.freezed);\n\t\t\tbalance.freezed = 0;\n\t\t}\n\t\tbalance.available = balance.available.sub(amount);\n\n\t\tuserTokenBalances[msg.sender][token] = userTokenBalances[msg.sender][token].sub(amount);\n\t}\n\n\t// redeem token after vote finished\n\tfunction redeemToken(uint groupId, address token) external {\n\t\trequire(groups[groupId] + VOTE_DURATION < block.timestamp, \"Vote is not over\");\n\t\tuint amount = groupTokenBalances[groupId][msg.sender][token];\n\t\trequire(amount > 0, \"Amount is zero\");\n\t\tgroupTokenBalances[groupId][msg.sender][token] = 0;\n\t\tIERC20(token).transfer(msg.sender, amount);\n\t\temit Redeem(msg.sender, token, amount);\n\t}\n\n\tfunction getRedeemableBalance(address user, address token) public view returns(uint256) {\n\t\tuint total = 0;\n\t\tfor(uint groupId = 1; groupId <= currentGroupId; groupId++){\n\t\t\tif(groups[groupId] + VOTE_DURATION < block.timestamp) {\n\t\t\t\ttotal = total.add(groupTokenBalances[groupId][user][token]);\n\t\t\t}\n\t\t}\n\t\treturn total;\n\t}\n\n\tfunction rescueToken(address token, uint amount) external onlyOwner {\n\t\tIERC20(token).transfer(msg.sender, amount);\n\t}\n\n\tfunction getTotalRewards(address user) public view returns(uint) {\n\t\tuint rewards = 0;\n\t\tfor(uint groupId = 1; groupId <= currentGroupId; groupId++) {\n\t\t\trewards = rewards.add(getBaseRewards(user, groupId)).add(getAuctionRewards(user, groupId));\n\t\t}\n\t\treturn rewards;\n\t}\n\n\tfunction getBaseRewards(address user, uint groupId) public view returns(uint) {\n\t\tuint[] memory dates = getVotableDates(groupId);\n\t\tuint[] memory rawardRates = getBaseRewardRates(groupId);\n\t\tuint rewards = 0;\n\t\tuint today = getDate(block.timestamp);\n\n\t\tfor(uint i = 0; i < dates.length; i++) {\n\t\t\tif(dates[i] >= today) {\n\t\t\t\tbreak;\n\t\t\t}\n\t\t\tuint dayRewards = userDailyVotes[user][groupId][dates[i]].mul(rawardRates[i]).div(1e18);\n\t\t\trewards = rewards.add(dayRewards);\n\t\t}\n\t\treturn rewards;\n\t}\n\n\tfunction getAuctionRewards(address user, uint groupId) public view returns(uint) {\n\t\tif(!hasFinished[groupId]) {\n\t\t\treturn 0;\n\t\t}\n\t\tuint rewards = 0;\n\t\tuint[] memory rewardRates = getAuctionRewardRates(groupId);\n\t\tfor(uint i = 0; i < groupNFTs[groupId].length; i++) {\n\t\t\tuint votes = userNFTVotes[user][groupNFTs[groupId][i].uid];\n\t\t\trewards = votes.mul(rewardRates[i]).div(1e18).add(rewards);\n\t\t}\n\t\treturn rewards;\n\t}\n\n\tfunction getBondedBalance(address user) public view returns(uint) {\n\t\tuint balance = getTotalRewards(user).add(bondedBalances[user]);\n\t\tuint freezedBalance = totalVotedBalances[user].add(unbondedBalances[user]);\n\t\treturn balance > freezedBalance ? balance.sub(freezedBalance) : 0;\n\t}\n\n\tfunction getUnvotableBalance(address user, address nftAddr, uint nftId) public view returns(uint256) {\n\t\tuint uid = nfts[nftAddr][nftId];\n\t\tBalance memory balance = votedBalances[user][uid];\n\t\tuint available = balance.available;\n\t\tif(getDate(balance.votedAt) < getDate(block.timestamp)) {\n\t\t\tavailable = available.add(balance.freezed);\n\t\t}\n\t\treturn available;\n\t}\n\n\tfunction collectFromLock(uint lockId) \n\t\texternal \n\t{\n\t\tuint amount = ITokenLocker(tokenLocker).subLockForVote(lockId, msg.sender);\n\t\tbondedBalances[msg.sender] = bondedBalances[msg.sender].add(amount);\n\t\tuserTokenBalances[msg.sender][uink] = userTokenBalances[msg.sender][uink].add(amount);\n\t}\n\n\t\n\tfunction voteBonded(address nftAddr, uint nftId, uint amount) \n\t\texternal \n\t\tcheckVotingTime\n\t\tcheckNFT(nftAddr, nftId)\n\t{\n\t\tuint bondedBalance = getBondedBalance(msg.sender);\n\t\trequire(bondedBalance >= amount, \"Insufficient bonded balance\");\n\n\t\t_vote(msg.sender, nftAddr, nftId, amount);\n\n\t\tuint uid = nfts[nftAddr][nftId];\n\t\tBalance storage votedBalance = votedBalances[msg.sender][uid];\n\n\t\tif(getDate(votedBalance.votedAt) < getDate(block.timestamp)) {\n\t\t\tvotedBalance.available = votedBalance.available.add(votedBalance.freezed);\n\t\t\tvotedBalance.freezed = 0;\n\t\t}\n\t\tvotedBalance.freezed = votedBalance.freezed.add(amount);\n\t\tvotedBalance.votedAt = block.timestamp;\n\n\t\ttotalVotedBalances[msg.sender] = totalVotedBalances[msg.sender].add(amount);\n\t\tuserTokenBalances[msg.sender][uink] = userTokenBalances[msg.sender][uink].add(amount);\n\t}\n\n\tfunction unvoteBonded(address nftAddr, uint nftId, uint amount)\n\t\texternal \n\t\tcheckVotingTime\n\t\tcheckNFT(nftAddr, nftId)\n\t{\n\t\tuint unvotable = getUnvotableBalance(msg.sender, nftAddr, nftId);\n\t\trequire(unvotable >= amount, \"Insufficient unvotable balance\");\n\t\t_unvote(msg.sender, nftAddr, nftId, amount);\n\n\t\tuint uid = nfts[nftAddr][nftId];\n\t\tBalance storage votedBalance = votedBalances[msg.sender][uid];\n\n\t\tif(getDate(votedBalance.votedAt) < getDate(block.timestamp)) {\n\t\t\tvotedBalance.available = votedBalance.available.add(votedBalance.freezed);\n\t\t\tvotedBalance.freezed = 0;\n\t\t}\n\t\tvotedBalance.available = votedBalance.available.sub(amount);\n\n\t\ttotalVotedBalances[msg.sender] = totalVotedBalances[msg.sender].sub(amount);\n\t\tuserTokenBalances[msg.sender][uink] = userTokenBalances[msg.sender][uink].sub(amount);\n\t}\n\n\tfunction getUnbondingBalancesLength(address user) public view returns(uint) {\n\t\treturn unbondingBalances[user].length;\n\t}\n\n\tfunction unbond(uint amount) external {\n\t\tuint bondedBalance = getBondedBalance(msg.sender);\n\t\trequire(bondedBalance >= amount, \"Insufficient bonded balance\");\n\n\t\tunbondingBalances[msg.sender].push(UnbondingBalance({\n\t\t\tvalue: amount,\n\t\t\tunbondedAt: block.timestamp,\n\t\t\tredeemed: 0\n\t\t}));\n\t\t\n\t\tunbondedBalances[msg.sender] = unbondedBalances[msg.sender].add(amount);\n\n\t\temit Unbond(msg.sender, amount, block.timestamp);\n\t}\n\n\tfunction redeemUnbonding(uint index) \n\t\texternal \n\t{ \n\t\tUnbondingBalance storage unbondingBalance = unbondingBalances[msg.sender][index];\n\t\tuint passDays = getDate(block.timestamp).sub(getDate(unbondingBalance.unbondedAt)).div(VOTE_TIME_UNIT);\n\t\tif(passDays > 60) {\n\t\t\tpassDays = 60;\n\t\t}\n\t\tuint released = passDays.mul(unbondingBalance.value).div(60);\n\t\tuint available = released.sub(unbondingBalance.redeemed);\n\t\tunbondingBalance.redeemed = released;\n\t\tuint sent = treasury.sendRewards(msg.sender, available);\n\t\trequire(sent == available, \"Insufficient treasury balance\");\n\t}\n\n\tfunction claimMintRewards(address nftAddr, uint nftId, address to) external onlyPin {\n\t\tuint uid = nfts[nftAddr][nftId];\n\t\tuint groupId = nftGroup[nfts[nftAddr][nftId]];\n\t\trequire(!mintRewardsClaimed[uid], \"Claimed\");\n\n\t\tuint rewards = 0;\n\t\tfor(uint i = 0; i < groupNFTs[groupId].length; i++) {\n\t\t\tif(groupNFTs[groupId][i].uid == uid) {\n\t\t\t\trewards = getMintRewardsPerNFT(groupId)[i];\n\t\t\t\tbreak;\n\t\t\t}\n\t\t}\n\t\tif(rewards > 0) {\n\t\t\ttreasury.sendRewards(to, rewards);\n\t\t\tmintRewardsClaimed[uid] = true;\n\t\t}\n\t}\n\n\tfunction getTradeWeights(uint groupId) public view returns(uint[] memory weights) {\n\t\tNFT[] memory gNFTs = groupNFTs[groupId];\n\t\tweights = new uint[](gNFTs.length);\n\t\t\n\t\t(uint[] memory prices, uint total) = getAuctionPrices(groupId);\n\n\t\tif(total > 0) {\n\t\t\tfor(uint i = 0; i < gNFTs.length; i++){\n\t\t\t\tweights[i] = prices[i].mul(1e18).div(total);\n\t\t\t}\n\t\t}\n\t}\n\n\tfunction setAuctionFinish(uint groupId) external onlyOperator {\n\t\thasFinished[groupId] = true;\n\t}\n\n\tfunction getAuctionRewardRates(uint groupId) public view returns(uint[] memory auctionRewardRates) {\n\t\tuint[] memory weights = getTradeWeights(groupId);\n\t\tNFT[] memory gNFTs = groupNFTs[groupId];\n\t\tauctionRewardRates = new uint[](gNFTs.length);\n\t\t(, uint[] memory inflations) = getWeightsAndInflations(groupId);\n\t\tuint bonus = bonusCap.mul(inflations[inflations.length - 1]).div(1e18);\n\n\t\tfor(uint i = 0; i < gNFTs.length; i++) {\n\t\t\tif(nftVotes[gNFTs[i].uid] == 0) {\n\t\t\t\tauctionRewardRates[i] = 0;\n\t\t\t} else {\n\t\t\t\tauctionRewardRates[i] = bonus.mul(weights[i]).div(nftVotes[gNFTs[i].uid]);\n\t\t\t}\n\t\t}\n\t}\n\n\tfunction getDailyVotes(uint groupId, uint date) public view returns(uint256) {\n\t\tuint votes = 0;\n\t\tfor(uint i = 0; i < groupNFTs[groupId].length; i++) {\n\t\t\tuint uid = groupNFTs[groupId][i].uid;\n\t\t\tvotes = votes.add(dayVotes[date][uid]);\n\t\t}\n\t\treturn votes;\n\t}\n\n\tfunction getWeightsAndInflations(uint groupId)\n\t\tpublic\n\t\tview\n\t\treturns(\n\t\t\tuint[] memory weights,\n\t\t\tuint[] memory inflations\n\t\t) \n\t{\n\n\t\tuint[] memory dates = getVotableDates(groupId);\n\t\tweights = new uint[](dates.length);\n\t\tinflations = new uint[](dates.length);\n\n\t\tfor(uint i = 0; i < dates.length; i++) {\n\t\t\tuint dailyVotes = getDailyVotes(groupId, dates[i]);\n\t\t\tweights[i] = dailyVotes.mul(1e18).div(stakingBases[groupId]);\n\t\t\tif(weights[i] < 3 * 1e17) {\n\t\t\t\tinflations[i] = 2 * 1e17;\n\t\t\t} else if(weights[i] >= 3 * 1e17 &&  weights[i] < 7 * 1e17) {\n\t\t\t\tinflations[i] = weights[i];\n\t\t\t} else {\n\t\t\t\tinflations[i] = 1e18;\n\t\t\t}\n\t\t}\n\t}\n\n\tfunction getBaseRewardRates(uint groupId) \n\t\tpublic view \n\t\treturns(uint[] memory rewardRates) \n\t{\n\n\t\tuint[] memory dates = getVotableDates(groupId);\n\t\t(,uint[] memory inflations) = getWeightsAndInflations(groupId);\n\t\trewardRates = new uint[](dates.length);\n\n\t\tfor(uint i = 0; i < dates.length; i++) {\n\t\t\tif(dates[i] > getDate(block.timestamp)) {\n\t\t\t\tbreak;\n\t\t\t}\n\t\t\tuint dailyTotalVotes = getDailyVotes(groupId, dates[i]);\n\t\t\tif(dailyTotalVotes > 0) {\n\t\t\t\trewardRates[i] = inflations[i].mul(dailyVoteRewardCap).div(dailyTotalVotes);\n\t\t\t}\n\t\t}\n\t}\n\n\tfunction getMintRewardsPerNFT(uint groupId)\n\t\tpublic view \n\t\treturns(uint[] memory mintRewards) \n\t{\n\t\tmintRewards = new uint[](groupNFTs[groupId].length);\n\t\tfor(uint i = 0; i < groupNFTs[groupId].length; i++) {\n\t\t\tif(groupVotes[groupId] > 0) {\n\t\t\t\tmintRewards[i] = nftVotes[groupNFTs[groupId][i].uid].mul(mintRewardCap).div(groupVotes[groupId]);\n\t\t\t}\n\t\t}\n\t}\n\n\tfunction getMintRewards(address nftAddr, uint nftId) public view returns(uint) {\n\t\tuint groupId = nftGroup[nfts[nftAddr][nftId]];\n\t\tif(groupVotes[groupId] > 0) {\n\t\t\treturn nftVotes[nfts[nftAddr][nftId]].mul(mintRewardCap).div(groupVotes[groupId]);\n\t\t} else {\n\t\t\treturn 0;\n\t\t}\n\t}\n}",
  "sourcePath": "/Users/yxf/app/uniarts-eth-dao/contracts/VoteMining.sol",
  "compiler": {
    "name": "solc",
    "version": "0.8.4+commit.c7e474f2.Emscripten.clang"
  },
  "schemaVersion": "3.2.3",
  "updatedAt": "2021-10-29T07:30:56.915Z",
  "devdoc": {
    "kind": "dev",
    "methods": {
      "owner()": {
        "details": "Returns the address of the current owner."
      },
      "renounceOwnership()": {
        "details": "Leaves the contract without owner. It will not be possible to call `onlyOwner` functions anymore. Can only be called by the current owner. NOTE: Renouncing ownership will leave the contract without an owner, thereby removing any functionality that is only available to the owner."
      },
      "transferOwnership(address)": {
        "details": "Transfers ownership of the contract to a new account (`newOwner`). Can only be called by the current owner."
      }
    },
    "version": 1
  },
  "userdoc": {
    "kind": "user",
    "methods": {},
    "version": 1
  }
}