{
  "contractName": "WETH",
  "abi": [
    {
      "inputs": [],
      "stateMutability": "nonpayable",
      "type": "constructor"
    },
    {
      "anonymous": false,
      "inputs": [
        {
          "indexed": true,
          "internalType": "address",
          "name": "owner",
          "type": "address"
        },
        {
          "indexed": true,
          "internalType": "address",
          "name": "spender",
          "type": "address"
        },
        {
          "indexed": false,
          "internalType": "uint256",
          "name": "value",
          "type": "uint256"
        }
      ],
      "name": "Approval",
      "type": "event"
    },
    {
      "anonymous": false,
      "inputs": [
        {
          "indexed": true,
          "internalType": "address",
          "name": "from",
          "type": "address"
        },
        {
          "indexed": true,
          "internalType": "address",
          "name": "to",
          "type": "address"
        },
        {
          "indexed": false,
          "internalType": "uint256",
          "name": "value",
          "type": "uint256"
        }
      ],
      "name": "Transfer",
      "type": "event"
    },
    {
      "inputs": [],
      "name": "DECIMALS",
      "outputs": [
        {
          "internalType": "uint8",
          "name": "",
          "type": "uint8"
        }
      ],
      "stateMutability": "view",
      "type": "function"
    },
    {
      "inputs": [],
      "name": "INITIAL_SUPPLY",
      "outputs": [
        {
          "internalType": "uint256",
          "name": "",
          "type": "uint256"
        }
      ],
      "stateMutability": "view",
      "type": "function"
    },
    {
      "inputs": [],
      "name": "MILLION",
      "outputs": [
        {
          "internalType": "uint256",
          "name": "",
          "type": "uint256"
        }
      ],
      "stateMutability": "view",
      "type": "function"
    },
    {
      "inputs": [],
      "name": "NAME",
      "outputs": [
        {
          "internalType": "string",
          "name": "",
          "type": "string"
        }
      ],
      "stateMutability": "view",
      "type": "function"
    },
    {
      "inputs": [],
      "name": "SYMBOL",
      "outputs": [
        {
          "internalType": "string",
          "name": "",
          "type": "string"
        }
      ],
      "stateMutability": "view",
      "type": "function"
    },
    {
      "inputs": [
        {
          "internalType": "address",
          "name": "owner",
          "type": "address"
        },
        {
          "internalType": "address",
          "name": "spender",
          "type": "address"
        }
      ],
      "name": "allowance",
      "outputs": [
        {
          "internalType": "uint256",
          "name": "",
          "type": "uint256"
        }
      ],
      "stateMutability": "view",
      "type": "function"
    },
    {
      "inputs": [
        {
          "internalType": "address",
          "name": "spender",
          "type": "address"
        },
        {
          "internalType": "uint256",
          "name": "amount",
          "type": "uint256"
        }
      ],
      "name": "approve",
      "outputs": [
        {
          "internalType": "bool",
          "name": "",
          "type": "bool"
        }
      ],
      "stateMutability": "nonpayable",
      "type": "function"
    },
    {
      "inputs": [
        {
          "internalType": "address",
          "name": "account",
          "type": "address"
        }
      ],
      "name": "balanceOf",
      "outputs": [
        {
          "internalType": "uint256",
          "name": "",
          "type": "uint256"
        }
      ],
      "stateMutability": "view",
      "type": "function"
    },
    {
      "inputs": [],
      "name": "decimals",
      "outputs": [
        {
          "internalType": "uint8",
          "name": "",
          "type": "uint8"
        }
      ],
      "stateMutability": "view",
      "type": "function"
    },
    {
      "inputs": [
        {
          "internalType": "address",
          "name": "spender",
          "type": "address"
        },
        {
          "internalType": "uint256",
          "name": "subtractedValue",
          "type": "uint256"
        }
      ],
      "name": "decreaseAllowance",
      "outputs": [
        {
          "internalType": "bool",
          "name": "",
          "type": "bool"
        }
      ],
      "stateMutability": "nonpayable",
      "type": "function"
    },
    {
      "inputs": [
        {
          "internalType": "address",
          "name": "spender",
          "type": "address"
        },
        {
          "internalType": "uint256",
          "name": "addedValue",
          "type": "uint256"
        }
      ],
      "name": "increaseAllowance",
      "outputs": [
        {
          "internalType": "bool",
          "name": "",
          "type": "bool"
        }
      ],
      "stateMutability": "nonpayable",
      "type": "function"
    },
    {
      "inputs": [],
      "name": "name",
      "outputs": [
        {
          "internalType": "string",
          "name": "",
          "type": "string"
        }
      ],
      "stateMutability": "view",
      "type": "function"
    },
    {
      "inputs": [],
      "name": "symbol",
      "outputs": [
        {
          "internalType": "string",
          "name": "",
          "type": "string"
        }
      ],
      "stateMutability": "view",
      "type": "function"
    },
    {
      "inputs": [],
      "name": "totalSupply",
      "outputs": [
        {
          "internalType": "uint256",
          "name": "",
          "type": "uint256"
        }
      ],
      "stateMutability": "view",
      "type": "function"
    },
    {
      "inputs": [
        {
          "internalType": "address",
          "name": "recipient",
          "type": "address"
        },
        {
          "internalType": "uint256",
          "name": "amount",
          "type": "uint256"
        }
      ],
      "name": "transfer",
      "outputs": [
        {
          "internalType": "bool",
          "name": "",
          "type": "bool"
        }
      ],
      "stateMutability": "nonpayable",
      "type": "function"
    },
    {
      "inputs": [
        {
          "internalType": "address",
          "name": "sender",
          "type": "address"
        },
        {
          "internalType": "address",
          "name": "recipient",
          "type": "address"
        },
        {
          "internalType": "uint256",
          "name": "amount",
          "type": "uint256"
        }
      ],
      "name": "transferFrom",
      "outputs": [
        {
          "internalType": "bool",
          "name": "",
          "type": "bool"
        }
      ],
      "stateMutability": "nonpayable",
      "type": "function"
    }
  ],
  "bytecode": "0x60806040523480156200001157600080fd5b50604080518082018252600981527f574554482054455354000000000000000000000000000000000000000000000060208083019182528351808501909452600484527f57455448000000000000000000000000000000000000000000000000000000009084015281519192916200008c9160039162000220565b508051620000a290600490602084019062000220565b50620000e59150339050620000ba6012600a6200032c565b620000c990620f4240620003f8565b620000d6906064620003f8565b640100000000620000eb810204565b6200049f565b600160a060020a03821662000160576040517f08c379a000000000000000000000000000000000000000000000000000000000815260206004820152601f60248201527f45524332303a206d696e7420746f20746865207a65726f206164647265737300604482015260640160405180910390fd5b62000177600083836401000000006200021b810204565b80600260008282546200018b9190620002c6565b9091555050600160a060020a03821660009081526020819052604081208054839290620001ba908490620002c6565b9091555050604051818152600160a060020a038316906000907fddf252ad1be2c89b69c2b068fc378daa952ba7f163c4a11628f55a4df523b3ef9060200160405180910390a362000217600083836401000000006200021b810204565b5050565b505050565b8280546200022e906200041a565b90600052602060002090601f0160209004810192826200025257600085556200029d565b82601f106200026d57805160ff19168380011785556200029d565b828001600101855582156200029d579182015b828111156200029d57825182559160200191906001019062000280565b50620002ab929150620002af565b5090565b5b80821115620002ab5760008155600101620002b0565b60008219821115620002dc57620002dc62000470565b500190565b600181815b808511156200032457816000190482111562000306576200030662000470565b808516156200031457918102915b60029094049390800290620002e6565b509250929050565b60006200033a838362000341565b9392505050565b6000826200035257506001620003f2565b816200036157506000620003f2565b81600181146200037a57600281146200038557620003a6565b6001915050620003f2565b60ff84111562000399576200039962000470565b8360020a915050620003f2565b5060208310610133831016604e8410600b8410161715620003cb575081810a620003f2565b620003d78383620002e1565b8060001904821115620003ee57620003ee62000470565b0290505b92915050565b600081600019048311821515161562000415576200041562000470565b500290565b6002810460018216806200042f57607f821691505b602082108114156200046a577f4e487b7100000000000000000000000000000000000000000000000000000000600052602260045260246000fd5b50919050565b7f4e487b7100000000000000000000000000000000000000000000000000000000600052601160045260246000fd5b610c1380620004af6000396000f3fe608060405234801561001057600080fd5b506004361061011d576000357c01000000000000000000000000000000000000000000000000000000009004806339509351116100b4578063a457c2d711610083578063a457c2d714610239578063a9059cbb1461024c578063dd62ed3e1461025f578063f76f8d781461029857600080fd5b806339509351146101b957806370a08231146101cc57806395d89b41146101f5578063a3f4df7e146101fd57600080fd5b80632e0f2625116100f05780632e0f2625146101885780632ff2e9dc146101a2578063313ce567146101aa57806332bc934c146101b157600080fd5b806306fdde0314610122578063095ea7b31461014057806318160ddd1461016357806323b872dd14610175575b600080fd5b61012a6102d4565b60405161013791906109e2565b60405180910390f35b61015361014e3660046109b9565b610366565b6040519015158152602001610137565b6002545b604051908152602001610137565b61015361018336600461097e565b61037d565b610190601281565b60405160ff9091168152602001610137565b610167610444565b6012610190565b61016761046b565b6101536101c73660046109b9565b610484565b6101676101da36600461092b565b600160a060020a031660009081526020819052604090205490565b61012a6104c0565b61012a6040518060400160405280600981526020017f574554482054455354000000000000000000000000000000000000000000000081525081565b6101536102473660046109b9565b6104cf565b61015361025a3660046109b9565b610583565b61016761026d36600461094c565b600160a060020a03918216600090815260016020908152604080832093909416825291909152205490565b61012a6040518060400160405280600481526020017f574554480000000000000000000000000000000000000000000000000000000081525081565b6060600380546102e390610b5a565b80601f016020809104026020016040519081016040528092919081815260200182805461030f90610b5a565b801561035c5780601f106103315761010080835404028352916020019161035c565b820191906000526020600020905b81548152906001019060200180831161033f57829003601f168201915b5050505050905090565b6000610373338484610590565b5060015b92915050565b600061038a8484846106ee565b600160a060020a03841660009081526001602090815260408083203384529091529020548281101561042c5760405160e560020a62461bcd02815260206004820152602860248201527f45524332303a207472616e7366657220616d6f756e742065786365656473206160448201527f6c6c6f77616e636500000000000000000000000000000000000000000000000060648201526084015b60405180910390fd5b6104398533858403610590565b506001949350505050565b6104506012600a610a92565b61045d90620f4240610b3b565b610468906064610b3b565b81565b6104776012600a610a92565b61046890620f4240610b3b565b336000818152600160209081526040808320600160a060020a038716845290915281205490916103739185906104bb908690610a35565b610590565b6060600480546102e390610b5a565b336000908152600160209081526040808320600160a060020a03861684529091528120548281101561056c5760405160e560020a62461bcd02815260206004820152602560248201527f45524332303a2064656372656173656420616c6c6f77616e63652062656c6f7760448201527f207a65726f0000000000000000000000000000000000000000000000000000006064820152608401610423565b6105793385858403610590565b5060019392505050565b60006103733384846106ee565b600160a060020a03831661060e5760405160e560020a62461bcd028152602060048201526024808201527f45524332303a20617070726f76652066726f6d20746865207a65726f2061646460448201527f72657373000000000000000000000000000000000000000000000000000000006064820152608401610423565b600160a060020a03821661068d5760405160e560020a62461bcd02815260206004820152602260248201527f45524332303a20617070726f766520746f20746865207a65726f20616464726560448201527f73730000000000000000000000000000000000000000000000000000000000006064820152608401610423565b600160a060020a0383811660008181526001602090815260408083209487168084529482529182902085905590518481527f8c5be1e5ebec7d5bd14f71427d1e84f3dd0314c0f7b2291e5b200ac8c7c3b925910160405180910390a3505050565b600160a060020a03831661076d5760405160e560020a62461bcd02815260206004820152602560248201527f45524332303a207472616e736665722066726f6d20746865207a65726f20616460448201527f64726573730000000000000000000000000000000000000000000000000000006064820152608401610423565b600160a060020a0382166107ec5760405160e560020a62461bcd02815260206004820152602360248201527f45524332303a207472616e7366657220746f20746865207a65726f206164647260448201527f65737300000000000000000000000000000000000000000000000000000000006064820152608401610423565b600160a060020a0383166000908152602081905260409020548181101561087e5760405160e560020a62461bcd02815260206004820152602660248201527f45524332303a207472616e7366657220616d6f756e742065786365656473206260448201527f616c616e636500000000000000000000000000000000000000000000000000006064820152608401610423565b600160a060020a038085166000908152602081905260408082208585039055918516815290812080548492906108b5908490610a35565b9250508190555082600160a060020a031684600160a060020a03167fddf252ad1be2c89b69c2b068fc378daa952ba7f163c4a11628f55a4df523b3ef8460405161090191815260200190565b60405180910390a350505050565b8035600160a060020a038116811461092657600080fd5b919050565b60006020828403121561093c578081fd5b6109458261090f565b9392505050565b6000806040838503121561095e578081fd5b6109678361090f565b91506109756020840161090f565b90509250929050565b600080600060608486031215610992578081fd5b61099b8461090f565b92506109a96020850161090f565b9150604084013590509250925092565b600080604083850312156109cb578182fd5b6109d48361090f565b946020939093013593505050565b6000602080835283518082850152825b81811015610a0e578581018301518582016040015282016109f2565b81811115610a1f5783604083870101525b50601f01601f1916929092016040019392505050565b60008219821115610a4857610a48610bae565b500190565b600181815b80851115610a8a578160001904821115610a6e57610a6e610bae565b80851615610a7b57918102915b60029094049390800290610a52565b509250929050565b60006109458383600082610aa857506001610377565b81610ab557506000610377565b8160018114610acb5760028114610ad557610af2565b6001915050610377565b60ff841115610ae657610ae6610bae565b8360020a915050610377565b5060208310610133831016604e8410600b8410161715610b15575081810a610377565b610b1f8383610a4d565b8060001904821115610b3357610b33610bae565b029392505050565b6000816000190483118215151615610b5557610b55610bae565b500290565b600281046001821680610b6e57607f821691505b60208210811415610ba8577f4e487b7100000000000000000000000000000000000000000000000000000000600052602260045260246000fd5b50919050565b7f4e487b7100000000000000000000000000000000000000000000000000000000600052601160045260246000fdfea2646970667358221220403ab9fc4a7071b53234789eaa3fd7ac591157b12825ad192a5fa62e13161bd664736f6c63430008040033",
  "immutableReferences": {},
  "source": "// SPDX-License-Identifier: MIT\npragma solidity ^0.8.0;\n\nimport '@openzeppelin/contracts/token/ERC20/ERC20.sol';\n\ncontract WETH is ERC20 {\n    // modify token name\n    string public constant NAME = \"WETH TEST\";\n    // modify token symbol\n    string public constant SYMBOL = \"WETH\";\n    // modify token decimals\n    uint8 public constant DECIMALS = 18;\n    // modify MILLION\n    uint256 public constant MILLION = 10**6 * (10 ** uint256(DECIMALS));\n    // modify initial token supply\n    uint256 public constant INITIAL_SUPPLY = 100 * MILLION; \n\n    constructor() ERC20(NAME, SYMBOL) {\n        _mint(msg.sender, INITIAL_SUPPLY);\n    }\n}",
  "sourcePath": "/Users/tuminfei/Code/Nodejs/uniarts-eth-dao/contracts/ERC20/WETH.sol",
  "compiler": {
    "name": "solc",
    "version": "0.8.4+commit.c7e474f2.Emscripten.clang"
  },
  "schemaVersion": "3.4.3",
  "updatedAt": "2022-02-09T09:26:29.567Z",
  "devdoc": {
    "kind": "dev",
    "methods": {
      "allowance(address,address)": {
        "details": "See {IERC20-allowance}."
      },
      "approve(address,uint256)": {
        "details": "See {IERC20-approve}. Requirements: - `spender` cannot be the zero address."
      },
      "balanceOf(address)": {
        "details": "See {IERC20-balanceOf}."
      },
      "decimals()": {
        "details": "Returns the number of decimals used to get its user representation. For example, if `decimals` equals `2`, a balance of `505` tokens should be displayed to a user as `5.05` (`505 / 10 ** 2`). Tokens usually opt for a value of 18, imitating the relationship between Ether and Wei. This is the value {ERC20} uses, unless this function is overridden; NOTE: This information is only used for _display_ purposes: it in no way affects any of the arithmetic of the contract, including {IERC20-balanceOf} and {IERC20-transfer}."
      },
      "decreaseAllowance(address,uint256)": {
        "details": "Atomically decreases the allowance granted to `spender` by the caller. This is an alternative to {approve} that can be used as a mitigation for problems described in {IERC20-approve}. Emits an {Approval} event indicating the updated allowance. Requirements: - `spender` cannot be the zero address. - `spender` must have allowance for the caller of at least `subtractedValue`."
      },
      "increaseAllowance(address,uint256)": {
        "details": "Atomically increases the allowance granted to `spender` by the caller. This is an alternative to {approve} that can be used as a mitigation for problems described in {IERC20-approve}. Emits an {Approval} event indicating the updated allowance. Requirements: - `spender` cannot be the zero address."
      },
      "name()": {
        "details": "Returns the name of the token."
      },
      "symbol()": {
        "details": "Returns the symbol of the token, usually a shorter version of the name."
      },
      "totalSupply()": {
        "details": "See {IERC20-totalSupply}."
      },
      "transfer(address,uint256)": {
        "details": "See {IERC20-transfer}. Requirements: - `recipient` cannot be the zero address. - the caller must have a balance of at least `amount`."
      },
      "transferFrom(address,address,uint256)": {
        "details": "See {IERC20-transferFrom}. Emits an {Approval} event indicating the updated allowance. This is not required by the EIP. See the note at the beginning of {ERC20}. Requirements: - `sender` and `recipient` cannot be the zero address. - `sender` must have a balance of at least `amount`. - the caller must have allowance for ``sender``'s tokens of at least `amount`."
      }
    },
    "version": 1
  },
  "userdoc": {
    "kind": "user",
    "methods": {},
    "version": 1
  }
}